{
	"SpamDepositandWithdraw.sol": {
		"ContractDeploymentFactory": {
			"abi": [
				{
					"inputs": [
						{
							"internalType": "address",
							"name": "owner",
							"type": "address"
						}
					],
					"stateMutability": "nonpayable",
					"type": "constructor"
				},
				{
					"anonymous": false,
					"inputs": [
						{
							"indexed": false,
							"internalType": "address",
							"name": "addressContract",
							"type": "address"
						},
						{
							"indexed": false,
							"internalType": "uint256",
							"name": "salt",
							"type": "uint256"
						}
					],
					"name": "Deployed",
					"type": "event"
				},
				{
					"inputs": [
						{
							"internalType": "bytes",
							"name": "bytecode",
							"type": "bytes"
						},
						{
							"internalType": "uint256",
							"name": "numberOfContract",
							"type": "uint256"
						}
					],
					"name": "deploy",
					"outputs": [],
					"stateMutability": "payable",
					"type": "function"
				},
				{
					"inputs": [],
					"name": "getBytecode",
					"outputs": [
						{
							"internalType": "bytes",
							"name": "",
							"type": "bytes"
						}
					],
					"stateMutability": "view",
					"type": "function"
				},
				{
					"inputs": [],
					"name": "getOwner",
					"outputs": [
						{
							"internalType": "address",
							"name": "",
							"type": "address"
						}
					],
					"stateMutability": "view",
					"type": "function"
				}
			],
			"devdoc": {
				"kind": "dev",
				"methods": {},
				"version": 1
			},
			"evm": {
				"assembly": "    /* \"SpamDepositandWithdraw.sol\":148:1782  contract ContractDeploymentFactory{... */\n  mstore(0x40, 0x80)\n    /* \"SpamDepositandWithdraw.sol\":290:365  constructor(address owner) public{... */\n  callvalue\n  dup1\n  iszero\n  tag_1\n  jumpi\n  0x00\n  dup1\n  revert\ntag_1:\n  pop\n  mload(0x40)\n  sub(codesize, bytecodeSize)\n  dup1\n  bytecodeSize\n  dup4\n  codecopy\n  dup2\n  dup2\n  add\n  0x40\n  mstore\n  dup2\n  add\n  swap1\n  tag_2\n  swap2\n  swap1\n  tag_3\n  jump\t// in\ntag_2:\n    /* \"SpamDepositandWithdraw.sol\":333:358  _transferOwnerShip(owner) */\n  tag_6\n    /* \"SpamDepositandWithdraw.sol\":352:357  owner */\n  dup2\n    /* \"SpamDepositandWithdraw.sol\":333:351  _transferOwnerShip */\n  shl(0x20, tag_7)\n    /* \"SpamDepositandWithdraw.sol\":333:358  _transferOwnerShip(owner) */\n  0x20\n  shr\n  jump\t// in\ntag_6:\n    /* \"SpamDepositandWithdraw.sol\":290:365  constructor(address owner) public{... */\n  pop\n    /* \"SpamDepositandWithdraw.sol\":148:1782  contract ContractDeploymentFactory{... */\n  jump(tag_8)\n    /* \"SpamDepositandWithdraw.sol\":1437:1524  function _transferOwnerShip(address newOwner) internal{... */\ntag_7:\n    /* \"SpamDepositandWithdraw.sol\":1509:1517  newOwner */\n  dup1\n    /* \"SpamDepositandWithdraw.sol\":1501:1506  owner */\n  0x02\n  0x00\n    /* \"SpamDepositandWithdraw.sol\":1501:1517  owner = newOwner */\n  0x0100\n  exp\n  dup2\n  sload\n  dup2\n  0xffffffffffffffffffffffffffffffffffffffff\n  mul\n  not\n  and\n  swap1\n  dup4\n  0xffffffffffffffffffffffffffffffffffffffff\n  and\n  mul\n  or\n  swap1\n  sstore\n  pop\n    /* \"SpamDepositandWithdraw.sol\":1437:1524  function _transferOwnerShip(address newOwner) internal{... */\n  pop\n  jump\t// out\n    /* \"#utility.yul\":88:205   */\ntag_11:\n    /* \"#utility.yul\":197:198   */\n  0x00\n    /* \"#utility.yul\":194:195   */\n  dup1\n    /* \"#utility.yul\":187:199   */\n  revert\n    /* \"#utility.yul\":334:460   */\ntag_13:\n    /* \"#utility.yul\":371:378   */\n  0x00\n    /* \"#utility.yul\":411:453   */\n  0xffffffffffffffffffffffffffffffffffffffff\n    /* \"#utility.yul\":404:409   */\n  dup3\n    /* \"#utility.yul\":400:454   */\n  and\n    /* \"#utility.yul\":389:454   */\n  swap1\n  pop\n    /* \"#utility.yul\":334:460   */\n  swap2\n  swap1\n  pop\n  jump\t// out\n    /* \"#utility.yul\":466:562   */\ntag_14:\n    /* \"#utility.yul\":503:510   */\n  0x00\n    /* \"#utility.yul\":532:556   */\n  tag_23\n    /* \"#utility.yul\":550:555   */\n  dup3\n    /* \"#utility.yul\":532:556   */\n  tag_13\n  jump\t// in\ntag_23:\n    /* \"#utility.yul\":521:556   */\n  swap1\n  pop\n    /* \"#utility.yul\":466:562   */\n  swap2\n  swap1\n  pop\n  jump\t// out\n    /* \"#utility.yul\":568:690   */\ntag_15:\n    /* \"#utility.yul\":641:665   */\n  tag_25\n    /* \"#utility.yul\":659:664   */\n  dup2\n    /* \"#utility.yul\":641:665   */\n  tag_14\n  jump\t// in\ntag_25:\n    /* \"#utility.yul\":634:639   */\n  dup2\n    /* \"#utility.yul\":631:666   */\n  eq\n    /* \"#utility.yul\":621:684   */\n  tag_26\n  jumpi\n    /* \"#utility.yul\":680:681   */\n  0x00\n    /* \"#utility.yul\":677:678   */\n  dup1\n    /* \"#utility.yul\":670:682   */\n  revert\n    /* \"#utility.yul\":621:684   */\ntag_26:\n    /* \"#utility.yul\":568:690   */\n  pop\n  jump\t// out\n    /* \"#utility.yul\":696:839   */\ntag_16:\n    /* \"#utility.yul\":753:758   */\n  0x00\n    /* \"#utility.yul\":784:790   */\n  dup2\n    /* \"#utility.yul\":778:791   */\n  mload\n    /* \"#utility.yul\":769:791   */\n  swap1\n  pop\n    /* \"#utility.yul\":800:833   */\n  tag_28\n    /* \"#utility.yul\":827:832   */\n  dup2\n    /* \"#utility.yul\":800:833   */\n  tag_15\n  jump\t// in\ntag_28:\n    /* \"#utility.yul\":696:839   */\n  swap3\n  swap2\n  pop\n  pop\n  jump\t// out\n    /* \"#utility.yul\":845:1196   */\ntag_3:\n    /* \"#utility.yul\":915:921   */\n  0x00\n    /* \"#utility.yul\":964:966   */\n  0x20\n    /* \"#utility.yul\":952:961   */\n  dup3\n    /* \"#utility.yul\":943:950   */\n  dup5\n    /* \"#utility.yul\":939:962   */\n  sub\n    /* \"#utility.yul\":935:967   */\n  slt\n    /* \"#utility.yul\":932:1051   */\n  iszero\n  tag_30\n  jumpi\n    /* \"#utility.yul\":970:1049   */\n  tag_31\n  tag_11\n  jump\t// in\ntag_31:\n    /* \"#utility.yul\":932:1051   */\ntag_30:\n    /* \"#utility.yul\":1090:1091   */\n  0x00\n    /* \"#utility.yul\":1115:1179   */\n  tag_32\n    /* \"#utility.yul\":1171:1178   */\n  dup5\n    /* \"#utility.yul\":1162:1168   */\n  dup3\n    /* \"#utility.yul\":1151:1160   */\n  dup6\n    /* \"#utility.yul\":1147:1169   */\n  add\n    /* \"#utility.yul\":1115:1179   */\n  tag_16\n  jump\t// in\ntag_32:\n    /* \"#utility.yul\":1105:1179   */\n  swap2\n  pop\n    /* \"#utility.yul\":1061:1189   */\n  pop\n    /* \"#utility.yul\":845:1196   */\n  swap3\n  swap2\n  pop\n  pop\n  jump\t// out\n    /* \"SpamDepositandWithdraw.sol\":148:1782  contract ContractDeploymentFactory{... */\ntag_8:\n  dataSize(sub_0)\n  dup1\n  dataOffset(sub_0)\n  0x00\n  codecopy\n  0x00\n  return\nstop\n\nsub_0: assembly {\n        /* \"SpamDepositandWithdraw.sol\":148:1782  contract ContractDeploymentFactory{... */\n      mstore(0x40, 0x80)\n      jumpi(tag_1, lt(calldatasize, 0x04))\n      shr(0xe0, calldataload(0x00))\n      dup1\n      0x52c7420d\n      eq\n      tag_2\n      jumpi\n      dup1\n      0x893d20e8\n      eq\n      tag_3\n      jumpi\n      dup1\n      0x9c4ae2d0\n      eq\n      tag_4\n      jumpi\n    tag_1:\n      0x00\n      dup1\n      revert\n        /* \"SpamDepositandWithdraw.sol\":1615:1780  function getBytecode() external view returns(bytes memory){... */\n    tag_2:\n      callvalue\n      dup1\n      iszero\n      tag_5\n      jumpi\n      0x00\n      dup1\n      revert\n    tag_5:\n      pop\n      tag_6\n      tag_7\n      jump\t// in\n    tag_6:\n      mload(0x40)\n      tag_8\n      swap2\n      swap1\n      tag_9\n      jump\t// in\n    tag_8:\n      mload(0x40)\n      dup1\n      swap2\n      sub\n      swap1\n      return\n        /* \"SpamDepositandWithdraw.sol\":1530:1609  function getOwner() external view returns(address){... */\n    tag_3:\n      callvalue\n      dup1\n      iszero\n      tag_10\n      jumpi\n      0x00\n      dup1\n      revert\n    tag_10:\n      pop\n      tag_11\n      tag_12\n      jump\t// in\n    tag_11:\n      mload(0x40)\n      tag_13\n      swap2\n      swap1\n      tag_14\n      jump\t// in\n    tag_13:\n      mload(0x40)\n      dup1\n      swap2\n      sub\n      swap1\n      return\n        /* \"SpamDepositandWithdraw.sol\":495:1431  function deploy(bytes memory bytecode, uint256 numberOfContract) public onlyOwner payable {... */\n    tag_4:\n      tag_15\n      0x04\n      dup1\n      calldatasize\n      sub\n      dup2\n      add\n      swap1\n      tag_16\n      swap2\n      swap1\n      tag_17\n      jump\t// in\n    tag_16:\n      tag_18\n      jump\t// in\n    tag_15:\n      stop\n        /* \"SpamDepositandWithdraw.sol\":1615:1780  function getBytecode() external view returns(bytes memory){... */\n    tag_7:\n        /* \"SpamDepositandWithdraw.sol\":1660:1672  bytes memory */\n      0x60\n        /* \"SpamDepositandWithdraw.sol\":1683:1704  bytes memory bytecode */\n      0x00\n        /* \"SpamDepositandWithdraw.sol\":1707:1730  type(spam).creationCode */\n      mload(0x40)\n      dup1\n      0x20\n      add\n      tag_20\n      swap1\n      tag_21\n      jump\t// in\n    tag_20:\n      0x20\n      dup3\n      add\n      dup2\n      sub\n      dup3\n      mstore\n      not(0x1f)\n      0x1f\n      dup3\n      add\n      and\n      0x40\n      mstore\n      pop\n        /* \"SpamDepositandWithdraw.sol\":1683:1730  bytes memory bytecode = type(spam).creationCode */\n      swap1\n      pop\n        /* \"SpamDepositandWithdraw.sol\":1764:1772  bytecode */\n      dup1\n        /* \"SpamDepositandWithdraw.sol\":1747:1773  abi.encodePacked(bytecode) */\n      add(0x20, mload(0x40))\n      tag_22\n      swap2\n      swap1\n      tag_23\n      jump\t// in\n    tag_22:\n      mload(0x40)\n      0x20\n      dup2\n      dup4\n      sub\n      sub\n      dup2\n      mstore\n      swap1\n      0x40\n      mstore\n        /* \"SpamDepositandWithdraw.sol\":1740:1773  return abi.encodePacked(bytecode) */\n      swap2\n      pop\n      pop\n        /* \"SpamDepositandWithdraw.sol\":1615:1780  function getBytecode() external view returns(bytes memory){... */\n      swap1\n      jump\t// out\n        /* \"SpamDepositandWithdraw.sol\":1530:1609  function getOwner() external view returns(address){... */\n    tag_12:\n        /* \"SpamDepositandWithdraw.sol\":1572:1579  address */\n      0x00\n        /* \"SpamDepositandWithdraw.sol\":1597:1602  owner */\n      0x02\n      0x00\n      swap1\n      sload\n      swap1\n      0x0100\n      exp\n      swap1\n      div\n      0xffffffffffffffffffffffffffffffffffffffff\n      and\n        /* \"SpamDepositandWithdraw.sol\":1590:1602  return owner */\n      swap1\n      pop\n        /* \"SpamDepositandWithdraw.sol\":1530:1609  function getOwner() external view returns(address){... */\n      swap1\n      jump\t// out\n        /* \"SpamDepositandWithdraw.sol\":495:1431  function deploy(bytes memory bytecode, uint256 numberOfContract) public onlyOwner payable {... */\n    tag_18:\n        /* \"SpamDepositandWithdraw.sol\":443:448  owner */\n      0x02\n      0x00\n      swap1\n      sload\n      swap1\n      0x0100\n      exp\n      swap1\n      div\n      0xffffffffffffffffffffffffffffffffffffffff\n      and\n        /* \"SpamDepositandWithdraw.sol\":429:448  msg.sender == owner */\n      0xffffffffffffffffffffffffffffffffffffffff\n      and\n        /* \"SpamDepositandWithdraw.sol\":429:439  msg.sender */\n      caller\n        /* \"SpamDepositandWithdraw.sol\":429:448  msg.sender == owner */\n      0xffffffffffffffffffffffffffffffffffffffff\n      and\n      eq\n        /* \"SpamDepositandWithdraw.sol\":421:467  require(msg.sender == owner, \"Invalid caller\") */\n      tag_26\n      jumpi\n      mload(0x40)\n      0x08c379a000000000000000000000000000000000000000000000000000000000\n      dup2\n      mstore\n      0x04\n      add\n      tag_27\n      swap1\n      tag_28\n      jump\t// in\n    tag_27:\n      mload(0x40)\n      dup1\n      swap2\n      sub\n      swap1\n      revert\n    tag_26:\n        /* \"SpamDepositandWithdraw.sol\":595:613  uint256 balancenow */\n      0x00\n        /* \"SpamDepositandWithdraw.sol\":623:665  0xa06A577FC5CBF25903f935CAF9a7fb258BE98a5C */\n      0xa06a577fc5cbf25903f935caf9a7fb258be98a5c\n        /* \"SpamDepositandWithdraw.sol\":616:676  IERC20(0xa06A577FC5CBF25903f935CAF9a7fb258BE98a5C).balanceOf */\n      0xffffffffffffffffffffffffffffffffffffffff\n      and\n      0x70a08231\n        /* \"SpamDepositandWithdraw.sol\":685:689  this */\n      address\n        /* \"SpamDepositandWithdraw.sol\":616:691  IERC20(0xa06A577FC5CBF25903f935CAF9a7fb258BE98a5C).balanceOf(address(this)) */\n      mload(0x40)\n      dup3\n      0xffffffff\n      and\n      0xe0\n      shl\n      dup2\n      mstore\n      0x04\n      add\n      tag_30\n      swap2\n      swap1\n      tag_14\n      jump\t// in\n    tag_30:\n      0x20\n      mload(0x40)\n      dup1\n      dup4\n      sub\n      dup2\n      dup7\n      gas\n      staticcall\n      iszero\n      dup1\n      iszero\n      tag_32\n      jumpi\n      returndatasize\n      0x00\n      dup1\n      returndatacopy\n      revert(0x00, returndatasize)\n    tag_32:\n      pop\n      pop\n      pop\n      pop\n      mload(0x40)\n      returndatasize\n      not(0x1f)\n      0x1f\n      dup3\n      add\n      and\n      dup3\n      add\n      dup1\n      0x40\n      mstore\n      pop\n      dup2\n      add\n      swap1\n      tag_33\n      swap2\n      swap1\n      tag_34\n      jump\t// in\n    tag_33:\n        /* \"SpamDepositandWithdraw.sol\":595:691  uint256 balancenow = IERC20(0xa06A577FC5CBF25903f935CAF9a7fb258BE98a5C).balanceOf(address(this)) */\n      swap1\n      pop\n        /* \"SpamDepositandWithdraw.sol\":701:713  uint256 each */\n      0x00\n        /* \"SpamDepositandWithdraw.sol\":727:743  numberOfContract */\n      dup3\n        /* \"SpamDepositandWithdraw.sol\":716:726  balancenow */\n      dup3\n        /* \"SpamDepositandWithdraw.sol\":716:743  balancenow/numberOfContract */\n      tag_35\n      swap2\n      swap1\n      tag_36\n      jump\t// in\n    tag_35:\n        /* \"SpamDepositandWithdraw.sol\":701:743  uint256 each = balancenow/numberOfContract */\n      swap1\n      pop\n        /* \"SpamDepositandWithdraw.sol\":766:772  uint i */\n      0x00\n        /* \"SpamDepositandWithdraw.sol\":762:1424  for(uint i = 0; i<numberOfContract; i ++){... */\n    tag_37:\n        /* \"SpamDepositandWithdraw.sol\":780:796  numberOfContract */\n      dup4\n        /* \"SpamDepositandWithdraw.sol\":778:779  i */\n      dup2\n        /* \"SpamDepositandWithdraw.sol\":778:796  i<numberOfContract */\n      lt\n        /* \"SpamDepositandWithdraw.sol\":762:1424  for(uint i = 0; i<numberOfContract; i ++){... */\n      iszero\n      tag_38\n      jumpi\n        /* \"SpamDepositandWithdraw.sol\":813:824  uint256 val */\n      0x00\n        /* \"SpamDepositandWithdraw.sol\":831:832  1 */\n      0x01\n        /* \"SpamDepositandWithdraw.sol\":827:828  a */\n      sload(0x00)\n        /* \"SpamDepositandWithdraw.sol\":827:832  a + 1 */\n      tag_40\n      swap2\n      swap1\n      tag_41\n      jump\t// in\n    tag_40:\n        /* \"SpamDepositandWithdraw.sol\":813:832  uint256 val = a + 1 */\n      swap1\n      pop\n        /* \"SpamDepositandWithdraw.sol\":842:854  address addr */\n      0x00\n        /* \"SpamDepositandWithdraw.sol\":1063:1066  val */\n      dup2\n        /* \"SpamDepositandWithdraw.sol\":1035:1043  bytecode */\n      dup8\n        /* \"SpamDepositandWithdraw.sol\":1029:1044  mload(bytecode) */\n      mload\n        /* \"SpamDepositandWithdraw.sol\":1006:1010  0x20 */\n      0x20\n        /* \"SpamDepositandWithdraw.sol\":996:1004  bytecode */\n      dup10\n        /* \"SpamDepositandWithdraw.sol\":992:1011  add(bytecode, 0x20) */\n      add\n        /* \"SpamDepositandWithdraw.sol\":963:974  callvalue() */\n      callvalue\n        /* \"SpamDepositandWithdraw.sol\":938:1080  create2(... */\n      create2\n        /* \"SpamDepositandWithdraw.sol\":930:1080  addr := create2(... */\n      swap1\n      pop\n        /* \"SpamDepositandWithdraw.sol\":1116:1120  addr */\n      dup1\n        /* \"SpamDepositandWithdraw.sol\":1104:1121  extcodesize(addr) */\n      extcodesize\n        /* \"SpamDepositandWithdraw.sol\":1094:1167  if iszero(extcodesize(addr)) {... */\n      tag_42\n      jumpi\n        /* \"SpamDepositandWithdraw.sol\":1151:1152  0 */\n      0x00\n        /* \"SpamDepositandWithdraw.sol\":1148:1149  0 */\n      dup1\n        /* \"SpamDepositandWithdraw.sol\":1141:1153  revert(0, 0) */\n      revert\n        /* \"SpamDepositandWithdraw.sol\":1094:1167  if iszero(extcodesize(addr)) {... */\n    tag_42:\n        /* \"SpamDepositandWithdraw.sol\":1192:1209  Deployed(addr, i) */\n      0xb03c53b28e78a88e31607a27e1fa48234dce28d5d9d9ec7b295aeb02e674a1e1\n        /* \"SpamDepositandWithdraw.sol\":1201:1205  addr */\n      dup2\n        /* \"SpamDepositandWithdraw.sol\":1207:1208  i */\n      dup5\n        /* \"SpamDepositandWithdraw.sol\":1192:1209  Deployed(addr, i) */\n      mload(0x40)\n      tag_43\n      swap3\n      swap2\n      swap1\n      tag_44\n      jump\t// in\n    tag_43:\n      mload(0x40)\n      dup1\n      swap2\n      sub\n      swap1\n      log1\n        /* \"SpamDepositandWithdraw.sol\":1304:1346  0xa06A577FC5CBF25903f935CAF9a7fb258BE98a5C */\n      0xa06a577fc5cbf25903f935caf9a7fb258be98a5c\n        /* \"SpamDepositandWithdraw.sol\":1297:1356  IERC20(0xa06A577FC5CBF25903f935CAF9a7fb258BE98a5C).transfer */\n      0xffffffffffffffffffffffffffffffffffffffff\n      and\n      0xa9059cbb\n        /* \"SpamDepositandWithdraw.sol\":1357:1361  addr */\n      dup3\n        /* \"SpamDepositandWithdraw.sol\":1362:1366  each */\n      dup7\n        /* \"SpamDepositandWithdraw.sol\":1297:1367  IERC20(0xa06A577FC5CBF25903f935CAF9a7fb258BE98a5C).transfer(addr,each) */\n      mload(0x40)\n      dup4\n      0xffffffff\n      and\n      0xe0\n      shl\n      dup2\n      mstore\n      0x04\n      add\n      tag_45\n      swap3\n      swap2\n      swap1\n      tag_44\n      jump\t// in\n    tag_45:\n      0x20\n      mload(0x40)\n      dup1\n      dup4\n      sub\n      dup2\n      0x00\n      dup8\n      gas\n      call\n      iszero\n      dup1\n      iszero\n      tag_47\n      jumpi\n      returndatasize\n      0x00\n      dup1\n      returndatacopy\n      revert(0x00, returndatasize)\n    tag_47:\n      pop\n      pop\n      pop\n      pop\n      mload(0x40)\n      returndatasize\n      not(0x1f)\n      0x1f\n      dup3\n      add\n      and\n      dup3\n      add\n      dup1\n      0x40\n      mstore\n      pop\n      dup2\n      add\n      swap1\n      tag_48\n      swap2\n      swap1\n      tag_49\n      jump\t// in\n    tag_48:\n      pop\n        /* \"SpamDepositandWithdraw.sol\":1383:1387  addr */\n      dup1\n        /* \"SpamDepositandWithdraw.sol\":1377:1396  ISPAM(addr).deposit */\n      0xffffffffffffffffffffffffffffffffffffffff\n      and\n      0xd0e30db0\n        /* \"SpamDepositandWithdraw.sol\":1377:1398  ISPAM(addr).deposit() */\n      mload(0x40)\n      dup2\n      0xffffffff\n      and\n      0xe0\n      shl\n      dup2\n      mstore\n      0x04\n      add\n      0x00\n      mload(0x40)\n      dup1\n      dup4\n      sub\n      dup2\n      0x00\n      dup8\n      dup1\n      extcodesize\n      iszero\n      dup1\n      iszero\n      tag_50\n      jumpi\n      0x00\n      dup1\n      revert\n    tag_50:\n      pop\n      gas\n      call\n      iszero\n      dup1\n      iszero\n      tag_52\n      jumpi\n      returndatasize\n      0x00\n      dup1\n      returndatacopy\n      revert(0x00, returndatasize)\n    tag_52:\n      pop\n      pop\n      pop\n      pop\n        /* \"SpamDepositandWithdraw.sol\":1412:1413  1 */\n      0x01\n        /* \"SpamDepositandWithdraw.sol\":1408:1409  a */\n      0x00\n      dup1\n        /* \"SpamDepositandWithdraw.sol\":1408:1413  a +=1 */\n      dup3\n      dup3\n      sload\n      tag_53\n      swap2\n      swap1\n      tag_41\n      jump\t// in\n    tag_53:\n      swap3\n      pop\n      pop\n      dup2\n      swap1\n      sstore\n      pop\n        /* \"SpamDepositandWithdraw.sol\":803:1424  {... */\n      pop\n      pop\n        /* \"SpamDepositandWithdraw.sol\":798:802  i ++ */\n      dup1\n      dup1\n      tag_54\n      swap1\n      tag_55\n      jump\t// in\n    tag_54:\n      swap2\n      pop\n      pop\n        /* \"SpamDepositandWithdraw.sol\":762:1424  for(uint i = 0; i<numberOfContract; i ++){... */\n      jump(tag_37)\n    tag_38:\n      pop\n        /* \"SpamDepositandWithdraw.sol\":585:1431  {... */\n      pop\n      pop\n        /* \"SpamDepositandWithdraw.sol\":495:1431  function deploy(bytes memory bytecode, uint256 numberOfContract) public onlyOwner payable {... */\n      pop\n      pop\n      jump\t// out\n    tag_21:\n      dataSize(sub_0)\n      dup1\n      dataOffset(sub_0)\n      dup4\n      codecopy\n      add\n      swap1\n      jump\t// out\n        /* \"#utility.yul\":7:105   */\n    tag_56:\n        /* \"#utility.yul\":58:64   */\n      0x00\n        /* \"#utility.yul\":92:97   */\n      dup2\n        /* \"#utility.yul\":86:98   */\n      mload\n        /* \"#utility.yul\":76:98   */\n      swap1\n      pop\n        /* \"#utility.yul\":7:105   */\n      swap2\n      swap1\n      pop\n      jump\t// out\n        /* \"#utility.yul\":111:279   */\n    tag_57:\n        /* \"#utility.yul\":194:205   */\n      0x00\n        /* \"#utility.yul\":228:234   */\n      dup3\n        /* \"#utility.yul\":223:226   */\n      dup3\n        /* \"#utility.yul\":216:235   */\n      mstore\n        /* \"#utility.yul\":268:272   */\n      0x20\n        /* \"#utility.yul\":263:266   */\n      dup3\n        /* \"#utility.yul\":259:273   */\n      add\n        /* \"#utility.yul\":244:273   */\n      swap1\n      pop\n        /* \"#utility.yul\":111:279   */\n      swap3\n      swap2\n      pop\n      pop\n      jump\t// out\n        /* \"#utility.yul\":285:531   */\n    tag_58:\n        /* \"#utility.yul\":366:367   */\n      0x00\n        /* \"#utility.yul\":376:489   */\n    tag_95:\n        /* \"#utility.yul\":390:396   */\n      dup4\n        /* \"#utility.yul\":387:388   */\n      dup2\n        /* \"#utility.yul\":384:397   */\n      lt\n        /* \"#utility.yul\":376:489   */\n      iszero\n      tag_97\n      jumpi\n        /* \"#utility.yul\":475:476   */\n      dup1\n        /* \"#utility.yul\":470:473   */\n      dup3\n        /* \"#utility.yul\":466:477   */\n      add\n        /* \"#utility.yul\":460:478   */\n      mload\n        /* \"#utility.yul\":456:457   */\n      dup2\n        /* \"#utility.yul\":451:454   */\n      dup5\n        /* \"#utility.yul\":447:458   */\n      add\n        /* \"#utility.yul\":440:479   */\n      mstore\n        /* \"#utility.yul\":412:414   */\n      0x20\n        /* \"#utility.yul\":409:410   */\n      dup2\n        /* \"#utility.yul\":405:415   */\n      add\n        /* \"#utility.yul\":400:415   */\n      swap1\n      pop\n        /* \"#utility.yul\":376:489   */\n      jump(tag_95)\n    tag_97:\n        /* \"#utility.yul\":523:524   */\n      0x00\n        /* \"#utility.yul\":514:520   */\n      dup5\n        /* \"#utility.yul\":509:512   */\n      dup5\n        /* \"#utility.yul\":505:521   */\n      add\n        /* \"#utility.yul\":498:525   */\n      mstore\n        /* \"#utility.yul\":347:531   */\n      pop\n        /* \"#utility.yul\":285:531   */\n      pop\n      pop\n      pop\n      jump\t// out\n        /* \"#utility.yul\":537:639   */\n    tag_59:\n        /* \"#utility.yul\":578:584   */\n      0x00\n        /* \"#utility.yul\":629:631   */\n      0x1f\n        /* \"#utility.yul\":625:632   */\n      not\n        /* \"#utility.yul\":620:622   */\n      0x1f\n        /* \"#utility.yul\":613:618   */\n      dup4\n        /* \"#utility.yul\":609:623   */\n      add\n        /* \"#utility.yul\":605:633   */\n      and\n        /* \"#utility.yul\":595:633   */\n      swap1\n      pop\n        /* \"#utility.yul\":537:639   */\n      swap2\n      swap1\n      pop\n      jump\t// out\n        /* \"#utility.yul\":645:1018   */\n    tag_60:\n        /* \"#utility.yul\":731:734   */\n      0x00\n        /* \"#utility.yul\":759:797   */\n      tag_100\n        /* \"#utility.yul\":791:796   */\n      dup3\n        /* \"#utility.yul\":759:797   */\n      tag_56\n      jump\t// in\n    tag_100:\n        /* \"#utility.yul\":813:883   */\n      tag_101\n        /* \"#utility.yul\":876:882   */\n      dup2\n        /* \"#utility.yul\":871:874   */\n      dup6\n        /* \"#utility.yul\":813:883   */\n      tag_57\n      jump\t// in\n    tag_101:\n        /* \"#utility.yul\":806:883   */\n      swap4\n      pop\n        /* \"#utility.yul\":892:957   */\n      tag_102\n        /* \"#utility.yul\":950:956   */\n      dup2\n        /* \"#utility.yul\":945:948   */\n      dup6\n        /* \"#utility.yul\":938:942   */\n      0x20\n        /* \"#utility.yul\":931:936   */\n      dup7\n        /* \"#utility.yul\":927:943   */\n      add\n        /* \"#utility.yul\":892:957   */\n      tag_58\n      jump\t// in\n    tag_102:\n        /* \"#utility.yul\":982:1011   */\n      tag_103\n        /* \"#utility.yul\":1004:1010   */\n      dup2\n        /* \"#utility.yul\":982:1011   */\n      tag_59\n      jump\t// in\n    tag_103:\n        /* \"#utility.yul\":977:980   */\n      dup5\n        /* \"#utility.yul\":973:1012   */\n      add\n        /* \"#utility.yul\":966:1012   */\n      swap2\n      pop\n        /* \"#utility.yul\":735:1018   */\n      pop\n        /* \"#utility.yul\":645:1018   */\n      swap3\n      swap2\n      pop\n      pop\n      jump\t// out\n        /* \"#utility.yul\":1024:1333   */\n    tag_9:\n        /* \"#utility.yul\":1135:1139   */\n      0x00\n        /* \"#utility.yul\":1173:1175   */\n      0x20\n        /* \"#utility.yul\":1162:1171   */\n      dup3\n        /* \"#utility.yul\":1158:1176   */\n      add\n        /* \"#utility.yul\":1150:1176   */\n      swap1\n      pop\n        /* \"#utility.yul\":1222:1231   */\n      dup2\n        /* \"#utility.yul\":1216:1220   */\n      dup2\n        /* \"#utility.yul\":1212:1232   */\n      sub\n        /* \"#utility.yul\":1208:1209   */\n      0x00\n        /* \"#utility.yul\":1197:1206   */\n      dup4\n        /* \"#utility.yul\":1193:1210   */\n      add\n        /* \"#utility.yul\":1186:1233   */\n      mstore\n        /* \"#utility.yul\":1250:1326   */\n      tag_105\n        /* \"#utility.yul\":1321:1325   */\n      dup2\n        /* \"#utility.yul\":1312:1318   */\n      dup5\n        /* \"#utility.yul\":1250:1326   */\n      tag_60\n      jump\t// in\n    tag_105:\n        /* \"#utility.yul\":1242:1326   */\n      swap1\n      pop\n        /* \"#utility.yul\":1024:1333   */\n      swap3\n      swap2\n      pop\n      pop\n      jump\t// out\n        /* \"#utility.yul\":1339:1465   */\n    tag_61:\n        /* \"#utility.yul\":1376:1383   */\n      0x00\n        /* \"#utility.yul\":1416:1458   */\n      0xffffffffffffffffffffffffffffffffffffffff\n        /* \"#utility.yul\":1409:1414   */\n      dup3\n        /* \"#utility.yul\":1405:1459   */\n      and\n        /* \"#utility.yul\":1394:1459   */\n      swap1\n      pop\n        /* \"#utility.yul\":1339:1465   */\n      swap2\n      swap1\n      pop\n      jump\t// out\n        /* \"#utility.yul\":1471:1567   */\n    tag_62:\n        /* \"#utility.yul\":1508:1515   */\n      0x00\n        /* \"#utility.yul\":1537:1561   */\n      tag_108\n        /* \"#utility.yul\":1555:1560   */\n      dup3\n        /* \"#utility.yul\":1537:1561   */\n      tag_61\n      jump\t// in\n    tag_108:\n        /* \"#utility.yul\":1526:1561   */\n      swap1\n      pop\n        /* \"#utility.yul\":1471:1567   */\n      swap2\n      swap1\n      pop\n      jump\t// out\n        /* \"#utility.yul\":1573:1691   */\n    tag_63:\n        /* \"#utility.yul\":1660:1684   */\n      tag_110\n        /* \"#utility.yul\":1678:1683   */\n      dup2\n        /* \"#utility.yul\":1660:1684   */\n      tag_62\n      jump\t// in\n    tag_110:\n        /* \"#utility.yul\":1655:1658   */\n      dup3\n        /* \"#utility.yul\":1648:1685   */\n      mstore\n        /* \"#utility.yul\":1573:1691   */\n      pop\n      pop\n      jump\t// out\n        /* \"#utility.yul\":1697:1919   */\n    tag_14:\n        /* \"#utility.yul\":1790:1794   */\n      0x00\n        /* \"#utility.yul\":1828:1830   */\n      0x20\n        /* \"#utility.yul\":1817:1826   */\n      dup3\n        /* \"#utility.yul\":1813:1831   */\n      add\n        /* \"#utility.yul\":1805:1831   */\n      swap1\n      pop\n        /* \"#utility.yul\":1841:1912   */\n      tag_112\n        /* \"#utility.yul\":1909:1910   */\n      0x00\n        /* \"#utility.yul\":1898:1907   */\n      dup4\n        /* \"#utility.yul\":1894:1911   */\n      add\n        /* \"#utility.yul\":1885:1891   */\n      dup5\n        /* \"#utility.yul\":1841:1912   */\n      tag_63\n      jump\t// in\n    tag_112:\n        /* \"#utility.yul\":1697:1919   */\n      swap3\n      swap2\n      pop\n      pop\n      jump\t// out\n        /* \"#utility.yul\":1925:2000   */\n    tag_64:\n        /* \"#utility.yul\":1958:1964   */\n      0x00\n        /* \"#utility.yul\":1991:1993   */\n      0x40\n        /* \"#utility.yul\":1985:1994   */\n      mload\n        /* \"#utility.yul\":1975:1994   */\n      swap1\n      pop\n        /* \"#utility.yul\":1925:2000   */\n      swap1\n      jump\t// out\n        /* \"#utility.yul\":2006:2123   */\n    tag_65:\n        /* \"#utility.yul\":2115:2116   */\n      0x00\n        /* \"#utility.yul\":2112:2113   */\n      dup1\n        /* \"#utility.yul\":2105:2117   */\n      revert\n        /* \"#utility.yul\":2129:2246   */\n    tag_66:\n        /* \"#utility.yul\":2238:2239   */\n      0x00\n        /* \"#utility.yul\":2235:2236   */\n      dup1\n        /* \"#utility.yul\":2228:2240   */\n      revert\n        /* \"#utility.yul\":2252:2369   */\n    tag_67:\n        /* \"#utility.yul\":2361:2362   */\n      0x00\n        /* \"#utility.yul\":2358:2359   */\n      dup1\n        /* \"#utility.yul\":2351:2363   */\n      revert\n        /* \"#utility.yul\":2375:2492   */\n    tag_68:\n        /* \"#utility.yul\":2484:2485   */\n      0x00\n        /* \"#utility.yul\":2481:2482   */\n      dup1\n        /* \"#utility.yul\":2474:2486   */\n      revert\n        /* \"#utility.yul\":2498:2678   */\n    tag_69:\n        /* \"#utility.yul\":2546:2623   */\n      0x4e487b7100000000000000000000000000000000000000000000000000000000\n        /* \"#utility.yul\":2543:2544   */\n      0x00\n        /* \"#utility.yul\":2536:2624   */\n      mstore\n        /* \"#utility.yul\":2643:2647   */\n      0x41\n        /* \"#utility.yul\":2640:2641   */\n      0x04\n        /* \"#utility.yul\":2633:2648   */\n      mstore\n        /* \"#utility.yul\":2667:2671   */\n      0x24\n        /* \"#utility.yul\":2664:2665   */\n      0x00\n        /* \"#utility.yul\":2657:2672   */\n      revert\n        /* \"#utility.yul\":2684:2965   */\n    tag_70:\n        /* \"#utility.yul\":2767:2794   */\n      tag_120\n        /* \"#utility.yul\":2789:2793   */\n      dup3\n        /* \"#utility.yul\":2767:2794   */\n      tag_59\n      jump\t// in\n    tag_120:\n        /* \"#utility.yul\":2759:2765   */\n      dup2\n        /* \"#utility.yul\":2755:2795   */\n      add\n        /* \"#utility.yul\":2897:2903   */\n      dup2\n        /* \"#utility.yul\":2885:2895   */\n      dup2\n        /* \"#utility.yul\":2882:2904   */\n      lt\n        /* \"#utility.yul\":2861:2879   */\n      0xffffffffffffffff\n        /* \"#utility.yul\":2849:2859   */\n      dup3\n        /* \"#utility.yul\":2846:2880   */\n      gt\n        /* \"#utility.yul\":2843:2905   */\n      or\n        /* \"#utility.yul\":2840:2928   */\n      iszero\n      tag_121\n      jumpi\n        /* \"#utility.yul\":2908:2926   */\n      tag_122\n      tag_69\n      jump\t// in\n    tag_122:\n        /* \"#utility.yul\":2840:2928   */\n    tag_121:\n        /* \"#utility.yul\":2948:2958   */\n      dup1\n        /* \"#utility.yul\":2944:2946   */\n      0x40\n        /* \"#utility.yul\":2937:2959   */\n      mstore\n        /* \"#utility.yul\":2727:2965   */\n      pop\n        /* \"#utility.yul\":2684:2965   */\n      pop\n      pop\n      jump\t// out\n        /* \"#utility.yul\":2971:3100   */\n    tag_71:\n        /* \"#utility.yul\":3005:3011   */\n      0x00\n        /* \"#utility.yul\":3032:3052   */\n      tag_124\n      tag_64\n      jump\t// in\n    tag_124:\n        /* \"#utility.yul\":3022:3052   */\n      swap1\n      pop\n        /* \"#utility.yul\":3061:3094   */\n      tag_125\n        /* \"#utility.yul\":3089:3093   */\n      dup3\n        /* \"#utility.yul\":3081:3087   */\n      dup3\n        /* \"#utility.yul\":3061:3094   */\n      tag_70\n      jump\t// in\n    tag_125:\n        /* \"#utility.yul\":2971:3100   */\n      swap2\n      swap1\n      pop\n      jump\t// out\n        /* \"#utility.yul\":3106:3413   */\n    tag_72:\n        /* \"#utility.yul\":3167:3171   */\n      0x00\n        /* \"#utility.yul\":3257:3275   */\n      0xffffffffffffffff\n        /* \"#utility.yul\":3249:3255   */\n      dup3\n        /* \"#utility.yul\":3246:3276   */\n      gt\n        /* \"#utility.yul\":3243:3299   */\n      iszero\n      tag_127\n      jumpi\n        /* \"#utility.yul\":3279:3297   */\n      tag_128\n      tag_69\n      jump\t// in\n    tag_128:\n        /* \"#utility.yul\":3243:3299   */\n    tag_127:\n        /* \"#utility.yul\":3317:3346   */\n      tag_129\n        /* \"#utility.yul\":3339:3345   */\n      dup3\n        /* \"#utility.yul\":3317:3346   */\n      tag_59\n      jump\t// in\n    tag_129:\n        /* \"#utility.yul\":3309:3346   */\n      swap1\n      pop\n        /* \"#utility.yul\":3401:3405   */\n      0x20\n        /* \"#utility.yul\":3395:3399   */\n      dup2\n        /* \"#utility.yul\":3391:3406   */\n      add\n        /* \"#utility.yul\":3383:3406   */\n      swap1\n      pop\n        /* \"#utility.yul\":3106:3413   */\n      swap2\n      swap1\n      pop\n      jump\t// out\n        /* \"#utility.yul\":3419:3565   */\n    tag_73:\n        /* \"#utility.yul\":3516:3522   */\n      dup3\n        /* \"#utility.yul\":3511:3514   */\n      dup2\n        /* \"#utility.yul\":3506:3509   */\n      dup4\n        /* \"#utility.yul\":3493:3523   */\n      calldatacopy\n        /* \"#utility.yul\":3557:3558   */\n      0x00\n        /* \"#utility.yul\":3548:3554   */\n      dup4\n        /* \"#utility.yul\":3543:3546   */\n      dup4\n        /* \"#utility.yul\":3539:3555   */\n      add\n        /* \"#utility.yul\":3532:3559   */\n      mstore\n        /* \"#utility.yul\":3419:3565   */\n      pop\n      pop\n      pop\n      jump\t// out\n        /* \"#utility.yul\":3571:3994   */\n    tag_74:\n        /* \"#utility.yul\":3648:3653   */\n      0x00\n        /* \"#utility.yul\":3673:3738   */\n      tag_132\n        /* \"#utility.yul\":3689:3737   */\n      tag_133\n        /* \"#utility.yul\":3730:3736   */\n      dup5\n        /* \"#utility.yul\":3689:3737   */\n      tag_72\n      jump\t// in\n    tag_133:\n        /* \"#utility.yul\":3673:3738   */\n      tag_71\n      jump\t// in\n    tag_132:\n        /* \"#utility.yul\":3664:3738   */\n      swap1\n      pop\n        /* \"#utility.yul\":3761:3767   */\n      dup3\n        /* \"#utility.yul\":3754:3759   */\n      dup2\n        /* \"#utility.yul\":3747:3768   */\n      mstore\n        /* \"#utility.yul\":3799:3803   */\n      0x20\n        /* \"#utility.yul\":3792:3797   */\n      dup2\n        /* \"#utility.yul\":3788:3804   */\n      add\n        /* \"#utility.yul\":3837:3840   */\n      dup5\n        /* \"#utility.yul\":3828:3834   */\n      dup5\n        /* \"#utility.yul\":3823:3826   */\n      dup5\n        /* \"#utility.yul\":3819:3835   */\n      add\n        /* \"#utility.yul\":3816:3841   */\n      gt\n        /* \"#utility.yul\":3813:3925   */\n      iszero\n      tag_134\n      jumpi\n        /* \"#utility.yul\":3844:3923   */\n      tag_135\n      tag_68\n      jump\t// in\n    tag_135:\n        /* \"#utility.yul\":3813:3925   */\n    tag_134:\n        /* \"#utility.yul\":3934:3988   */\n      tag_136\n        /* \"#utility.yul\":3981:3987   */\n      dup5\n        /* \"#utility.yul\":3976:3979   */\n      dup3\n        /* \"#utility.yul\":3971:3974   */\n      dup6\n        /* \"#utility.yul\":3934:3988   */\n      tag_73\n      jump\t// in\n    tag_136:\n        /* \"#utility.yul\":3654:3994   */\n      pop\n        /* \"#utility.yul\":3571:3994   */\n      swap4\n      swap3\n      pop\n      pop\n      pop\n      jump\t// out\n        /* \"#utility.yul\":4013:4351   */\n    tag_75:\n        /* \"#utility.yul\":4068:4073   */\n      0x00\n        /* \"#utility.yul\":4117:4120   */\n      dup3\n        /* \"#utility.yul\":4110:4114   */\n      0x1f\n        /* \"#utility.yul\":4102:4108   */\n      dup4\n        /* \"#utility.yul\":4098:4115   */\n      add\n        /* \"#utility.yul\":4094:4121   */\n      slt\n        /* \"#utility.yul\":4084:4206   */\n      tag_138\n      jumpi\n        /* \"#utility.yul\":4125:4204   */\n      tag_139\n      tag_67\n      jump\t// in\n    tag_139:\n        /* \"#utility.yul\":4084:4206   */\n    tag_138:\n        /* \"#utility.yul\":4242:4248   */\n      dup2\n        /* \"#utility.yul\":4229:4249   */\n      calldataload\n        /* \"#utility.yul\":4267:4345   */\n      tag_140\n        /* \"#utility.yul\":4341:4344   */\n      dup5\n        /* \"#utility.yul\":4333:4339   */\n      dup3\n        /* \"#utility.yul\":4326:4330   */\n      0x20\n        /* \"#utility.yul\":4318:4324   */\n      dup7\n        /* \"#utility.yul\":4314:4331   */\n      add\n        /* \"#utility.yul\":4267:4345   */\n      tag_74\n      jump\t// in\n    tag_140:\n        /* \"#utility.yul\":4258:4345   */\n      swap2\n      pop\n        /* \"#utility.yul\":4074:4351   */\n      pop\n        /* \"#utility.yul\":4013:4351   */\n      swap3\n      swap2\n      pop\n      pop\n      jump\t// out\n        /* \"#utility.yul\":4357:4434   */\n    tag_76:\n        /* \"#utility.yul\":4394:4401   */\n      0x00\n        /* \"#utility.yul\":4423:4428   */\n      dup2\n        /* \"#utility.yul\":4412:4428   */\n      swap1\n      pop\n        /* \"#utility.yul\":4357:4434   */\n      swap2\n      swap1\n      pop\n      jump\t// out\n        /* \"#utility.yul\":4440:4562   */\n    tag_77:\n        /* \"#utility.yul\":4513:4537   */\n      tag_143\n        /* \"#utility.yul\":4531:4536   */\n      dup2\n        /* \"#utility.yul\":4513:4537   */\n      tag_76\n      jump\t// in\n    tag_143:\n        /* \"#utility.yul\":4506:4511   */\n      dup2\n        /* \"#utility.yul\":4503:4538   */\n      eq\n        /* \"#utility.yul\":4493:4556   */\n      tag_144\n      jumpi\n        /* \"#utility.yul\":4552:4553   */\n      0x00\n        /* \"#utility.yul\":4549:4550   */\n      dup1\n        /* \"#utility.yul\":4542:4554   */\n      revert\n        /* \"#utility.yul\":4493:4556   */\n    tag_144:\n        /* \"#utility.yul\":4440:4562   */\n      pop\n      jump\t// out\n        /* \"#utility.yul\":4568:4707   */\n    tag_78:\n        /* \"#utility.yul\":4614:4619   */\n      0x00\n        /* \"#utility.yul\":4652:4658   */\n      dup2\n        /* \"#utility.yul\":4639:4659   */\n      calldataload\n        /* \"#utility.yul\":4630:4659   */\n      swap1\n      pop\n        /* \"#utility.yul\":4668:4701   */\n      tag_146\n        /* \"#utility.yul\":4695:4700   */\n      dup2\n        /* \"#utility.yul\":4668:4701   */\n      tag_77\n      jump\t// in\n    tag_146:\n        /* \"#utility.yul\":4568:4707   */\n      swap3\n      swap2\n      pop\n      pop\n      jump\t// out\n        /* \"#utility.yul\":4713:5365   */\n    tag_17:\n        /* \"#utility.yul\":4790:4796   */\n      0x00\n        /* \"#utility.yul\":4798:4804   */\n      dup1\n        /* \"#utility.yul\":4847:4849   */\n      0x40\n        /* \"#utility.yul\":4835:4844   */\n      dup4\n        /* \"#utility.yul\":4826:4833   */\n      dup6\n        /* \"#utility.yul\":4822:4845   */\n      sub\n        /* \"#utility.yul\":4818:4850   */\n      slt\n        /* \"#utility.yul\":4815:4934   */\n      iszero\n      tag_148\n      jumpi\n        /* \"#utility.yul\":4853:4932   */\n      tag_149\n      tag_65\n      jump\t// in\n    tag_149:\n        /* \"#utility.yul\":4815:4934   */\n    tag_148:\n        /* \"#utility.yul\":5001:5002   */\n      0x00\n        /* \"#utility.yul\":4990:4999   */\n      dup4\n        /* \"#utility.yul\":4986:5003   */\n      add\n        /* \"#utility.yul\":4973:5004   */\n      calldataload\n        /* \"#utility.yul\":5031:5049   */\n      0xffffffffffffffff\n        /* \"#utility.yul\":5023:5029   */\n      dup2\n        /* \"#utility.yul\":5020:5050   */\n      gt\n        /* \"#utility.yul\":5017:5134   */\n      iszero\n      tag_150\n      jumpi\n        /* \"#utility.yul\":5053:5132   */\n      tag_151\n      tag_66\n      jump\t// in\n    tag_151:\n        /* \"#utility.yul\":5017:5134   */\n    tag_150:\n        /* \"#utility.yul\":5158:5220   */\n      tag_152\n        /* \"#utility.yul\":5212:5219   */\n      dup6\n        /* \"#utility.yul\":5203:5209   */\n      dup3\n        /* \"#utility.yul\":5192:5201   */\n      dup7\n        /* \"#utility.yul\":5188:5210   */\n      add\n        /* \"#utility.yul\":5158:5220   */\n      tag_75\n      jump\t// in\n    tag_152:\n        /* \"#utility.yul\":5148:5220   */\n      swap3\n      pop\n        /* \"#utility.yul\":4944:5230   */\n      pop\n        /* \"#utility.yul\":5269:5271   */\n      0x20\n        /* \"#utility.yul\":5295:5348   */\n      tag_153\n        /* \"#utility.yul\":5340:5347   */\n      dup6\n        /* \"#utility.yul\":5331:5337   */\n      dup3\n        /* \"#utility.yul\":5320:5329   */\n      dup7\n        /* \"#utility.yul\":5316:5338   */\n      add\n        /* \"#utility.yul\":5295:5348   */\n      tag_78\n      jump\t// in\n    tag_153:\n        /* \"#utility.yul\":5285:5348   */\n      swap2\n      pop\n        /* \"#utility.yul\":5240:5358   */\n      pop\n        /* \"#utility.yul\":4713:5365   */\n      swap3\n      pop\n      swap3\n      swap1\n      pop\n      jump\t// out\n        /* \"#utility.yul\":5371:5518   */\n    tag_79:\n        /* \"#utility.yul\":5472:5483   */\n      0x00\n        /* \"#utility.yul\":5509:5512   */\n      dup2\n        /* \"#utility.yul\":5494:5512   */\n      swap1\n      pop\n        /* \"#utility.yul\":5371:5518   */\n      swap3\n      swap2\n      pop\n      pop\n      jump\t// out\n        /* \"#utility.yul\":5524:5910   */\n    tag_80:\n        /* \"#utility.yul\":5628:5631   */\n      0x00\n        /* \"#utility.yul\":5656:5694   */\n      tag_156\n        /* \"#utility.yul\":5688:5693   */\n      dup3\n        /* \"#utility.yul\":5656:5694   */\n      tag_56\n      jump\t// in\n    tag_156:\n        /* \"#utility.yul\":5710:5798   */\n      tag_157\n        /* \"#utility.yul\":5791:5797   */\n      dup2\n        /* \"#utility.yul\":5786:5789   */\n      dup6\n        /* \"#utility.yul\":5710:5798   */\n      tag_79\n      jump\t// in\n    tag_157:\n        /* \"#utility.yul\":5703:5798   */\n      swap4\n      pop\n        /* \"#utility.yul\":5807:5872   */\n      tag_158\n        /* \"#utility.yul\":5865:5871   */\n      dup2\n        /* \"#utility.yul\":5860:5863   */\n      dup6\n        /* \"#utility.yul\":5853:5857   */\n      0x20\n        /* \"#utility.yul\":5846:5851   */\n      dup7\n        /* \"#utility.yul\":5842:5858   */\n      add\n        /* \"#utility.yul\":5807:5872   */\n      tag_58\n      jump\t// in\n    tag_158:\n        /* \"#utility.yul\":5897:5903   */\n      dup1\n        /* \"#utility.yul\":5892:5895   */\n      dup5\n        /* \"#utility.yul\":5888:5904   */\n      add\n        /* \"#utility.yul\":5881:5904   */\n      swap2\n      pop\n        /* \"#utility.yul\":5632:5910   */\n      pop\n        /* \"#utility.yul\":5524:5910   */\n      swap3\n      swap2\n      pop\n      pop\n      jump\t// out\n        /* \"#utility.yul\":5916:6187   */\n    tag_23:\n        /* \"#utility.yul\":6046:6049   */\n      0x00\n        /* \"#utility.yul\":6068:6161   */\n      tag_160\n        /* \"#utility.yul\":6157:6160   */\n      dup3\n        /* \"#utility.yul\":6148:6154   */\n      dup5\n        /* \"#utility.yul\":6068:6161   */\n      tag_80\n      jump\t// in\n    tag_160:\n        /* \"#utility.yul\":6061:6161   */\n      swap2\n      pop\n        /* \"#utility.yul\":6178:6181   */\n      dup2\n        /* \"#utility.yul\":6171:6181   */\n      swap1\n      pop\n        /* \"#utility.yul\":5916:6187   */\n      swap3\n      swap2\n      pop\n      pop\n      jump\t// out\n        /* \"#utility.yul\":6193:6362   */\n    tag_81:\n        /* \"#utility.yul\":6277:6288   */\n      0x00\n        /* \"#utility.yul\":6311:6317   */\n      dup3\n        /* \"#utility.yul\":6306:6309   */\n      dup3\n        /* \"#utility.yul\":6299:6318   */\n      mstore\n        /* \"#utility.yul\":6351:6355   */\n      0x20\n        /* \"#utility.yul\":6346:6349   */\n      dup3\n        /* \"#utility.yul\":6342:6356   */\n      add\n        /* \"#utility.yul\":6327:6356   */\n      swap1\n      pop\n        /* \"#utility.yul\":6193:6362   */\n      swap3\n      swap2\n      pop\n      pop\n      jump\t// out\n        /* \"#utility.yul\":6368:6532   */\n    tag_82:\n        /* \"#utility.yul\":6508:6524   */\n      0x496e76616c69642063616c6c6572000000000000000000000000000000000000\n        /* \"#utility.yul\":6504:6505   */\n      0x00\n        /* \"#utility.yul\":6496:6502   */\n      dup3\n        /* \"#utility.yul\":6492:6506   */\n      add\n        /* \"#utility.yul\":6485:6525   */\n      mstore\n        /* \"#utility.yul\":6368:6532   */\n      pop\n      jump\t// out\n        /* \"#utility.yul\":6538:6904   */\n    tag_83:\n        /* \"#utility.yul\":6680:6683   */\n      0x00\n        /* \"#utility.yul\":6701:6768   */\n      tag_164\n        /* \"#utility.yul\":6765:6767   */\n      0x0e\n        /* \"#utility.yul\":6760:6763   */\n      dup4\n        /* \"#utility.yul\":6701:6768   */\n      tag_81\n      jump\t// in\n    tag_164:\n        /* \"#utility.yul\":6694:6768   */\n      swap2\n      pop\n        /* \"#utility.yul\":6777:6870   */\n      tag_165\n        /* \"#utility.yul\":6866:6869   */\n      dup3\n        /* \"#utility.yul\":6777:6870   */\n      tag_82\n      jump\t// in\n    tag_165:\n        /* \"#utility.yul\":6895:6897   */\n      0x20\n        /* \"#utility.yul\":6890:6893   */\n      dup3\n        /* \"#utility.yul\":6886:6898   */\n      add\n        /* \"#utility.yul\":6879:6898   */\n      swap1\n      pop\n        /* \"#utility.yul\":6538:6904   */\n      swap2\n      swap1\n      pop\n      jump\t// out\n        /* \"#utility.yul\":6910:7329   */\n    tag_28:\n        /* \"#utility.yul\":7076:7080   */\n      0x00\n        /* \"#utility.yul\":7114:7116   */\n      0x20\n        /* \"#utility.yul\":7103:7112   */\n      dup3\n        /* \"#utility.yul\":7099:7117   */\n      add\n        /* \"#utility.yul\":7091:7117   */\n      swap1\n      pop\n        /* \"#utility.yul\":7163:7172   */\n      dup2\n        /* \"#utility.yul\":7157:7161   */\n      dup2\n        /* \"#utility.yul\":7153:7173   */\n      sub\n        /* \"#utility.yul\":7149:7150   */\n      0x00\n        /* \"#utility.yul\":7138:7147   */\n      dup4\n        /* \"#utility.yul\":7134:7151   */\n      add\n        /* \"#utility.yul\":7127:7174   */\n      mstore\n        /* \"#utility.yul\":7191:7322   */\n      tag_167\n        /* \"#utility.yul\":7317:7321   */\n      dup2\n        /* \"#utility.yul\":7191:7322   */\n      tag_83\n      jump\t// in\n    tag_167:\n        /* \"#utility.yul\":7183:7322   */\n      swap1\n      pop\n        /* \"#utility.yul\":6910:7329   */\n      swap2\n      swap1\n      pop\n      jump\t// out\n        /* \"#utility.yul\":7335:7478   */\n    tag_84:\n        /* \"#utility.yul\":7392:7397   */\n      0x00\n        /* \"#utility.yul\":7423:7429   */\n      dup2\n        /* \"#utility.yul\":7417:7430   */\n      mload\n        /* \"#utility.yul\":7408:7430   */\n      swap1\n      pop\n        /* \"#utility.yul\":7439:7472   */\n      tag_169\n        /* \"#utility.yul\":7466:7471   */\n      dup2\n        /* \"#utility.yul\":7439:7472   */\n      tag_77\n      jump\t// in\n    tag_169:\n        /* \"#utility.yul\":7335:7478   */\n      swap3\n      swap2\n      pop\n      pop\n      jump\t// out\n        /* \"#utility.yul\":7484:7835   */\n    tag_34:\n        /* \"#utility.yul\":7554:7560   */\n      0x00\n        /* \"#utility.yul\":7603:7605   */\n      0x20\n        /* \"#utility.yul\":7591:7600   */\n      dup3\n        /* \"#utility.yul\":7582:7589   */\n      dup5\n        /* \"#utility.yul\":7578:7601   */\n      sub\n        /* \"#utility.yul\":7574:7606   */\n      slt\n        /* \"#utility.yul\":7571:7690   */\n      iszero\n      tag_171\n      jumpi\n        /* \"#utility.yul\":7609:7688   */\n      tag_172\n      tag_65\n      jump\t// in\n    tag_172:\n        /* \"#utility.yul\":7571:7690   */\n    tag_171:\n        /* \"#utility.yul\":7729:7730   */\n      0x00\n        /* \"#utility.yul\":7754:7818   */\n      tag_173\n        /* \"#utility.yul\":7810:7817   */\n      dup5\n        /* \"#utility.yul\":7801:7807   */\n      dup3\n        /* \"#utility.yul\":7790:7799   */\n      dup6\n        /* \"#utility.yul\":7786:7808   */\n      add\n        /* \"#utility.yul\":7754:7818   */\n      tag_84\n      jump\t// in\n    tag_173:\n        /* \"#utility.yul\":7744:7818   */\n      swap2\n      pop\n        /* \"#utility.yul\":7700:7828   */\n      pop\n        /* \"#utility.yul\":7484:7835   */\n      swap3\n      swap2\n      pop\n      pop\n      jump\t// out\n        /* \"#utility.yul\":7841:8021   */\n    tag_85:\n        /* \"#utility.yul\":7889:7966   */\n      0x4e487b7100000000000000000000000000000000000000000000000000000000\n        /* \"#utility.yul\":7886:7887   */\n      0x00\n        /* \"#utility.yul\":7879:7967   */\n      mstore\n        /* \"#utility.yul\":7986:7990   */\n      0x12\n        /* \"#utility.yul\":7983:7984   */\n      0x04\n        /* \"#utility.yul\":7976:7991   */\n      mstore\n        /* \"#utility.yul\":8010:8014   */\n      0x24\n        /* \"#utility.yul\":8007:8008   */\n      0x00\n        /* \"#utility.yul\":8000:8015   */\n      revert\n        /* \"#utility.yul\":8027:8207   */\n    tag_86:\n        /* \"#utility.yul\":8075:8152   */\n      0x4e487b7100000000000000000000000000000000000000000000000000000000\n        /* \"#utility.yul\":8072:8073   */\n      0x00\n        /* \"#utility.yul\":8065:8153   */\n      mstore\n        /* \"#utility.yul\":8172:8176   */\n      0x11\n        /* \"#utility.yul\":8169:8170   */\n      0x04\n        /* \"#utility.yul\":8162:8177   */\n      mstore\n        /* \"#utility.yul\":8196:8200   */\n      0x24\n        /* \"#utility.yul\":8193:8194   */\n      0x00\n        /* \"#utility.yul\":8186:8201   */\n      revert\n        /* \"#utility.yul\":8213:8398   */\n    tag_36:\n        /* \"#utility.yul\":8253:8254   */\n      0x00\n        /* \"#utility.yul\":8270:8290   */\n      tag_177\n        /* \"#utility.yul\":8288:8289   */\n      dup3\n        /* \"#utility.yul\":8270:8290   */\n      tag_76\n      jump\t// in\n    tag_177:\n        /* \"#utility.yul\":8265:8290   */\n      swap2\n      pop\n        /* \"#utility.yul\":8304:8324   */\n      tag_178\n        /* \"#utility.yul\":8322:8323   */\n      dup4\n        /* \"#utility.yul\":8304:8324   */\n      tag_76\n      jump\t// in\n    tag_178:\n        /* \"#utility.yul\":8299:8324   */\n      swap3\n      pop\n        /* \"#utility.yul\":8343:8344   */\n      dup3\n        /* \"#utility.yul\":8333:8368   */\n      tag_179\n      jumpi\n        /* \"#utility.yul\":8348:8366   */\n      tag_180\n      tag_85\n      jump\t// in\n    tag_180:\n        /* \"#utility.yul\":8333:8368   */\n    tag_179:\n        /* \"#utility.yul\":8390:8391   */\n      dup3\n        /* \"#utility.yul\":8387:8388   */\n      dup3\n        /* \"#utility.yul\":8383:8392   */\n      div\n        /* \"#utility.yul\":8378:8392   */\n      swap1\n      pop\n        /* \"#utility.yul\":8213:8398   */\n      swap3\n      swap2\n      pop\n      pop\n      jump\t// out\n        /* \"#utility.yul\":8404:8595   */\n    tag_41:\n        /* \"#utility.yul\":8444:8447   */\n      0x00\n        /* \"#utility.yul\":8463:8483   */\n      tag_182\n        /* \"#utility.yul\":8481:8482   */\n      dup3\n        /* \"#utility.yul\":8463:8483   */\n      tag_76\n      jump\t// in\n    tag_182:\n        /* \"#utility.yul\":8458:8483   */\n      swap2\n      pop\n        /* \"#utility.yul\":8497:8517   */\n      tag_183\n        /* \"#utility.yul\":8515:8516   */\n      dup4\n        /* \"#utility.yul\":8497:8517   */\n      tag_76\n      jump\t// in\n    tag_183:\n        /* \"#utility.yul\":8492:8517   */\n      swap3\n      pop\n        /* \"#utility.yul\":8540:8541   */\n      dup3\n        /* \"#utility.yul\":8537:8538   */\n      dup3\n        /* \"#utility.yul\":8533:8542   */\n      add\n        /* \"#utility.yul\":8526:8542   */\n      swap1\n      pop\n        /* \"#utility.yul\":8561:8564   */\n      dup1\n        /* \"#utility.yul\":8558:8559   */\n      dup3\n        /* \"#utility.yul\":8555:8565   */\n      gt\n        /* \"#utility.yul\":8552:8588   */\n      iszero\n      tag_184\n      jumpi\n        /* \"#utility.yul\":8568:8586   */\n      tag_185\n      tag_86\n      jump\t// in\n    tag_185:\n        /* \"#utility.yul\":8552:8588   */\n    tag_184:\n        /* \"#utility.yul\":8404:8595   */\n      swap3\n      swap2\n      pop\n      pop\n      jump\t// out\n        /* \"#utility.yul\":8601:8719   */\n    tag_87:\n        /* \"#utility.yul\":8688:8712   */\n      tag_187\n        /* \"#utility.yul\":8706:8711   */\n      dup2\n        /* \"#utility.yul\":8688:8712   */\n      tag_76\n      jump\t// in\n    tag_187:\n        /* \"#utility.yul\":8683:8686   */\n      dup3\n        /* \"#utility.yul\":8676:8713   */\n      mstore\n        /* \"#utility.yul\":8601:8719   */\n      pop\n      pop\n      jump\t// out\n        /* \"#utility.yul\":8725:9057   */\n    tag_44:\n        /* \"#utility.yul\":8846:8850   */\n      0x00\n        /* \"#utility.yul\":8884:8886   */\n      0x40\n        /* \"#utility.yul\":8873:8882   */\n      dup3\n        /* \"#utility.yul\":8869:8887   */\n      add\n        /* \"#utility.yul\":8861:8887   */\n      swap1\n      pop\n        /* \"#utility.yul\":8897:8968   */\n      tag_189\n        /* \"#utility.yul\":8965:8966   */\n      0x00\n        /* \"#utility.yul\":8954:8963   */\n      dup4\n        /* \"#utility.yul\":8950:8967   */\n      add\n        /* \"#utility.yul\":8941:8947   */\n      dup6\n        /* \"#utility.yul\":8897:8968   */\n      tag_63\n      jump\t// in\n    tag_189:\n        /* \"#utility.yul\":8978:9050   */\n      tag_190\n        /* \"#utility.yul\":9046:9048   */\n      0x20\n        /* \"#utility.yul\":9035:9044   */\n      dup4\n        /* \"#utility.yul\":9031:9049   */\n      add\n        /* \"#utility.yul\":9022:9028   */\n      dup5\n        /* \"#utility.yul\":8978:9050   */\n      tag_87\n      jump\t// in\n    tag_190:\n        /* \"#utility.yul\":8725:9057   */\n      swap4\n      swap3\n      pop\n      pop\n      pop\n      jump\t// out\n        /* \"#utility.yul\":9063:9153   */\n    tag_88:\n        /* \"#utility.yul\":9097:9104   */\n      0x00\n        /* \"#utility.yul\":9140:9145   */\n      dup2\n        /* \"#utility.yul\":9133:9146   */\n      iszero\n        /* \"#utility.yul\":9126:9147   */\n      iszero\n        /* \"#utility.yul\":9115:9147   */\n      swap1\n      pop\n        /* \"#utility.yul\":9063:9153   */\n      swap2\n      swap1\n      pop\n      jump\t// out\n        /* \"#utility.yul\":9159:9275   */\n    tag_89:\n        /* \"#utility.yul\":9229:9250   */\n      tag_193\n        /* \"#utility.yul\":9244:9249   */\n      dup2\n        /* \"#utility.yul\":9229:9250   */\n      tag_88\n      jump\t// in\n    tag_193:\n        /* \"#utility.yul\":9222:9227   */\n      dup2\n        /* \"#utility.yul\":9219:9251   */\n      eq\n        /* \"#utility.yul\":9209:9269   */\n      tag_194\n      jumpi\n        /* \"#utility.yul\":9265:9266   */\n      0x00\n        /* \"#utility.yul\":9262:9263   */\n      dup1\n        /* \"#utility.yul\":9255:9267   */\n      revert\n        /* \"#utility.yul\":9209:9269   */\n    tag_194:\n        /* \"#utility.yul\":9159:9275   */\n      pop\n      jump\t// out\n        /* \"#utility.yul\":9281:9418   */\n    tag_90:\n        /* \"#utility.yul\":9335:9340   */\n      0x00\n        /* \"#utility.yul\":9366:9372   */\n      dup2\n        /* \"#utility.yul\":9360:9373   */\n      mload\n        /* \"#utility.yul\":9351:9373   */\n      swap1\n      pop\n        /* \"#utility.yul\":9382:9412   */\n      tag_196\n        /* \"#utility.yul\":9406:9411   */\n      dup2\n        /* \"#utility.yul\":9382:9412   */\n      tag_89\n      jump\t// in\n    tag_196:\n        /* \"#utility.yul\":9281:9418   */\n      swap3\n      swap2\n      pop\n      pop\n      jump\t// out\n        /* \"#utility.yul\":9424:9769   */\n    tag_49:\n        /* \"#utility.yul\":9491:9497   */\n      0x00\n        /* \"#utility.yul\":9540:9542   */\n      0x20\n        /* \"#utility.yul\":9528:9537   */\n      dup3\n        /* \"#utility.yul\":9519:9526   */\n      dup5\n        /* \"#utility.yul\":9515:9538   */\n      sub\n        /* \"#utility.yul\":9511:9543   */\n      slt\n        /* \"#utility.yul\":9508:9627   */\n      iszero\n      tag_198\n      jumpi\n        /* \"#utility.yul\":9546:9625   */\n      tag_199\n      tag_65\n      jump\t// in\n    tag_199:\n        /* \"#utility.yul\":9508:9627   */\n    tag_198:\n        /* \"#utility.yul\":9666:9667   */\n      0x00\n        /* \"#utility.yul\":9691:9752   */\n      tag_200\n        /* \"#utility.yul\":9744:9751   */\n      dup5\n        /* \"#utility.yul\":9735:9741   */\n      dup3\n        /* \"#utility.yul\":9724:9733   */\n      dup6\n        /* \"#utility.yul\":9720:9742   */\n      add\n        /* \"#utility.yul\":9691:9752   */\n      tag_90\n      jump\t// in\n    tag_200:\n        /* \"#utility.yul\":9681:9752   */\n      swap2\n      pop\n        /* \"#utility.yul\":9637:9762   */\n      pop\n        /* \"#utility.yul\":9424:9769   */\n      swap3\n      swap2\n      pop\n      pop\n      jump\t// out\n        /* \"#utility.yul\":9775:10008   */\n    tag_55:\n        /* \"#utility.yul\":9814:9817   */\n      0x00\n        /* \"#utility.yul\":9837:9861   */\n      tag_202\n        /* \"#utility.yul\":9855:9860   */\n      dup3\n        /* \"#utility.yul\":9837:9861   */\n      tag_76\n      jump\t// in\n    tag_202:\n        /* \"#utility.yul\":9828:9861   */\n      swap2\n      pop\n        /* \"#utility.yul\":9883:9949   */\n      0xffffffffffffffffffffffffffffffffffffffffffffffffffffffffffffffff\n        /* \"#utility.yul\":9876:9881   */\n      dup3\n        /* \"#utility.yul\":9873:9950   */\n      sub\n        /* \"#utility.yul\":9870:9973   */\n      tag_203\n      jumpi\n        /* \"#utility.yul\":9953:9971   */\n      tag_204\n      tag_86\n      jump\t// in\n    tag_204:\n        /* \"#utility.yul\":9870:9973   */\n    tag_203:\n        /* \"#utility.yul\":10000:10001   */\n      0x01\n        /* \"#utility.yul\":9993:9998   */\n      dup3\n        /* \"#utility.yul\":9989:10002   */\n      add\n        /* \"#utility.yul\":9982:10002   */\n      swap1\n      pop\n        /* \"#utility.yul\":9775:10008   */\n      swap2\n      swap1\n      pop\n      jump\t// out\n    stop\n\n    sub_0: assembly {\n            /* \"SpamDepositandWithdraw.sol\":4557:4964  contract spam{... */\n          mstore(0x40, 0x80)\n            /* \"SpamDepositandWithdraw.sol\":4593:4635  0x3c7C58439aCA472501B7F6Ea52c83dBda47241Ac */\n          0x3c7c58439aca472501b7f6ea52c83dbda47241ac\n            /* \"SpamDepositandWithdraw.sol\":4576:4635  address router = 0x3c7C58439aCA472501B7F6Ea52c83dBda47241Ac */\n          0x00\n          dup1\n          0x0100\n          exp\n          dup2\n          sload\n          dup2\n          0xffffffffffffffffffffffffffffffffffffffff\n          mul\n          not\n          and\n          swap1\n          dup4\n          0xffffffffffffffffffffffffffffffffffffffff\n          and\n          mul\n          or\n          swap1\n          sstore\n          pop\n            /* \"SpamDepositandWithdraw.sol\":4657:4699  0xa06A577FC5CBF25903f935CAF9a7fb258BE98a5C */\n          0xa06a577fc5cbf25903f935caf9a7fb258be98a5c\n            /* \"SpamDepositandWithdraw.sol\":4641:4699  address token = 0xa06A577FC5CBF25903f935CAF9a7fb258BE98a5C */\n          0x01\n          exp(0x0100, 0x00)\n          dup2\n          sload\n          dup2\n          0xffffffffffffffffffffffffffffffffffffffff\n          mul\n          not\n          and\n          swap1\n          dup4\n          0xffffffffffffffffffffffffffffffffffffffff\n          and\n          mul\n          or\n          swap1\n          sstore\n          pop\n            /* \"SpamDepositandWithdraw.sol\":4557:4964  contract spam{... */\n          callvalue\n          dup1\n          iszero\n          tag_1\n          jumpi\n          0x00\n          dup1\n          revert\n        tag_1:\n          pop\n          dataSize(sub_0)\n          dup1\n          dataOffset(sub_0)\n          0x00\n          codecopy\n          0x00\n          return\n        stop\n\n        sub_0: assembly {\n                /* \"SpamDepositandWithdraw.sol\":4557:4964  contract spam{... */\n              mstore(0x40, 0x80)\n              callvalue\n              dup1\n              iszero\n              tag_1\n              jumpi\n              0x00\n              dup1\n              revert\n            tag_1:\n              pop\n              jumpi(tag_2, lt(calldatasize, 0x04))\n              shr(0xe0, calldataload(0x00))\n              dup1\n              0xd0e30db0\n              eq\n              tag_3\n              jumpi\n            tag_2:\n              0x00\n              dup1\n              revert\n                /* \"SpamDepositandWithdraw.sol\":4705:4962  function deposit() external{... */\n            tag_3:\n              tag_4\n              tag_5\n              jump\t// in\n            tag_4:\n              stop\n            tag_5:\n                /* \"SpamDepositandWithdraw.sol\":4742:4756  uint256 amount */\n              0x00\n                /* \"SpamDepositandWithdraw.sol\":4766:4771  token */\n              0x01\n              0x00\n              swap1\n              sload\n              swap1\n              0x0100\n              exp\n              swap1\n              div\n              0xffffffffffffffffffffffffffffffffffffffff\n              and\n                /* \"SpamDepositandWithdraw.sol\":4759:4782  IERC20(token).balanceOf */\n              0xffffffffffffffffffffffffffffffffffffffff\n              and\n              0x70a08231\n                /* \"SpamDepositandWithdraw.sol\":4791:4795  this */\n              address\n                /* \"SpamDepositandWithdraw.sol\":4759:4797  IERC20(token).balanceOf(address(this)) */\n              mload(0x40)\n              dup3\n              0xffffffff\n              and\n              0xe0\n              shl\n              dup2\n              mstore\n              0x04\n              add\n              tag_7\n              swap2\n              swap1\n              tag_8\n              jump\t// in\n            tag_7:\n              0x20\n              mload(0x40)\n              dup1\n              dup4\n              sub\n              dup2\n              dup7\n              gas\n              staticcall\n              iszero\n              dup1\n              iszero\n              tag_10\n              jumpi\n              returndatasize\n              0x00\n              dup1\n              returndatacopy\n              revert(0x00, returndatasize)\n            tag_10:\n              pop\n              pop\n              pop\n              pop\n              mload(0x40)\n              returndatasize\n              not(0x1f)\n              0x1f\n              dup3\n              add\n              and\n              dup3\n              add\n              dup1\n              0x40\n              mstore\n              pop\n              dup2\n              add\n              swap1\n              tag_11\n              swap2\n              swap1\n              tag_12\n              jump\t// in\n            tag_11:\n                /* \"SpamDepositandWithdraw.sol\":4742:4797  uint256 amount = IERC20(token).balanceOf(address(this)) */\n              swap1\n              pop\n                /* \"SpamDepositandWithdraw.sol\":4814:4819  token */\n              0x01\n              0x00\n              swap1\n              sload\n              swap1\n              0x0100\n              exp\n              swap1\n              div\n              0xffffffffffffffffffffffffffffffffffffffff\n              and\n                /* \"SpamDepositandWithdraw.sol\":4807:4828  IERC20(token).approve */\n              0xffffffffffffffffffffffffffffffffffffffff\n              and\n              0x095ea7b3\n                /* \"SpamDepositandWithdraw.sol\":4829:4835  router */\n              0x00\n              dup1\n              sload\n              swap1\n              0x0100\n              exp\n              swap1\n              div\n              0xffffffffffffffffffffffffffffffffffffffff\n              and\n                /* \"SpamDepositandWithdraw.sol\":4837:4843  amount */\n              dup4\n                /* \"SpamDepositandWithdraw.sol\":4807:4844  IERC20(token).approve(router, amount) */\n              mload(0x40)\n              dup4\n              0xffffffff\n              and\n              0xe0\n              shl\n              dup2\n              mstore\n              0x04\n              add\n              tag_13\n              swap3\n              swap2\n              swap1\n              tag_14\n              jump\t// in\n            tag_13:\n              0x20\n              mload(0x40)\n              dup1\n              dup4\n              sub\n              dup2\n              0x00\n              dup8\n              gas\n              call\n              iszero\n              dup1\n              iszero\n              tag_16\n              jumpi\n              returndatasize\n              0x00\n              dup1\n              returndatacopy\n              revert(0x00, returndatasize)\n            tag_16:\n              pop\n              pop\n              pop\n              pop\n              mload(0x40)\n              returndatasize\n              not(0x1f)\n              0x1f\n              dup3\n              add\n              and\n              dup3\n              add\n              dup1\n              0x40\n              mstore\n              pop\n              dup2\n              add\n              swap1\n              tag_17\n              swap2\n              swap1\n              tag_18\n              jump\t// in\n            tag_17:\n              pop\n                /* \"SpamDepositandWithdraw.sol\":4854:4868  uint256 poolID */\n              0x00\n                /* \"SpamDepositandWithdraw.sol\":4905:4906  1 */\n              0x01\n                /* \"SpamDepositandWithdraw.sol\":4879:4885  router */\n              0x00\n              dup1\n              sload\n              swap1\n              0x0100\n              exp\n              swap1\n              div\n              0xffffffffffffffffffffffffffffffffffffffff\n              and\n                /* \"SpamDepositandWithdraw.sol\":4871:4900  IRouter(router).getPoolLength */\n              0xffffffffffffffffffffffffffffffffffffffff\n              and\n              0xb3944d52\n                /* \"SpamDepositandWithdraw.sol\":4871:4902  IRouter(router).getPoolLength() */\n              mload(0x40)\n              dup2\n              0xffffffff\n              and\n              0xe0\n              shl\n              dup2\n              mstore\n              0x04\n              add\n              0x20\n              mload(0x40)\n              dup1\n              dup4\n              sub\n              dup2\n              dup7\n              gas\n              staticcall\n              iszero\n              dup1\n              iszero\n              tag_20\n              jumpi\n              returndatasize\n              0x00\n              dup1\n              returndatacopy\n              revert(0x00, returndatasize)\n            tag_20:\n              pop\n              pop\n              pop\n              pop\n              mload(0x40)\n              returndatasize\n              not(0x1f)\n              0x1f\n              dup3\n              add\n              and\n              dup3\n              add\n              dup1\n              0x40\n              mstore\n              pop\n              dup2\n              add\n              swap1\n              tag_21\n              swap2\n              swap1\n              tag_12\n              jump\t// in\n            tag_21:\n                /* \"SpamDepositandWithdraw.sol\":4871:4906  IRouter(router).getPoolLength() - 1 */\n              tag_22\n              swap2\n              swap1\n              tag_23\n              jump\t// in\n            tag_22:\n                /* \"SpamDepositandWithdraw.sol\":4854:4906  uint256 poolID = IRouter(router).getPoolLength() - 1 */\n              swap1\n              pop\n                /* \"SpamDepositandWithdraw.sol\":4924:4930  router */\n              0x00\n              dup1\n              sload\n              swap1\n              0x0100\n              exp\n              swap1\n              div\n              0xffffffffffffffffffffffffffffffffffffffff\n              and\n                /* \"SpamDepositandWithdraw.sol\":4916:4939  IRouter(router).deposit */\n              0xffffffffffffffffffffffffffffffffffffffff\n              and\n              0xe2bbb158\n                /* \"SpamDepositandWithdraw.sol\":4940:4946  poolID */\n              dup3\n                /* \"SpamDepositandWithdraw.sol\":4948:4954  amount */\n              dup5\n                /* \"SpamDepositandWithdraw.sol\":4916:4955  IRouter(router).deposit(poolID, amount) */\n              mload(0x40)\n              dup4\n              0xffffffff\n              and\n              0xe0\n              shl\n              dup2\n              mstore\n              0x04\n              add\n              tag_24\n              swap3\n              swap2\n              swap1\n              tag_25\n              jump\t// in\n            tag_24:\n              0x00\n              mload(0x40)\n              dup1\n              dup4\n              sub\n              dup2\n              0x00\n              dup8\n              dup1\n              extcodesize\n              iszero\n              dup1\n              iszero\n              tag_26\n              jumpi\n              0x00\n              dup1\n              revert\n            tag_26:\n              pop\n              gas\n              call\n              iszero\n              dup1\n              iszero\n              tag_28\n              jumpi\n              returndatasize\n              0x00\n              dup1\n              returndatacopy\n              revert(0x00, returndatasize)\n            tag_28:\n              pop\n              pop\n              pop\n              pop\n                /* \"SpamDepositandWithdraw.sol\":4732:4962  {... */\n              pop\n              pop\n                /* \"SpamDepositandWithdraw.sol\":4705:4962  function deposit() external{... */\n              jump\t// out\n                /* \"#utility.yul\":7:133   */\n            tag_29:\n                /* \"#utility.yul\":44:51   */\n              0x00\n                /* \"#utility.yul\":84:126   */\n              0xffffffffffffffffffffffffffffffffffffffff\n                /* \"#utility.yul\":77:82   */\n              dup3\n                /* \"#utility.yul\":73:127   */\n              and\n                /* \"#utility.yul\":62:127   */\n              swap1\n              pop\n                /* \"#utility.yul\":7:133   */\n              swap2\n              swap1\n              pop\n              jump\t// out\n                /* \"#utility.yul\":139:235   */\n            tag_30:\n                /* \"#utility.yul\":176:183   */\n              0x00\n                /* \"#utility.yul\":205:229   */\n              tag_46\n                /* \"#utility.yul\":223:228   */\n              dup3\n                /* \"#utility.yul\":205:229   */\n              tag_29\n              jump\t// in\n            tag_46:\n                /* \"#utility.yul\":194:229   */\n              swap1\n              pop\n                /* \"#utility.yul\":139:235   */\n              swap2\n              swap1\n              pop\n              jump\t// out\n                /* \"#utility.yul\":241:359   */\n            tag_31:\n                /* \"#utility.yul\":328:352   */\n              tag_48\n                /* \"#utility.yul\":346:351   */\n              dup2\n                /* \"#utility.yul\":328:352   */\n              tag_30\n              jump\t// in\n            tag_48:\n                /* \"#utility.yul\":323:326   */\n              dup3\n                /* \"#utility.yul\":316:353   */\n              mstore\n                /* \"#utility.yul\":241:359   */\n              pop\n              pop\n              jump\t// out\n                /* \"#utility.yul\":365:587   */\n            tag_8:\n                /* \"#utility.yul\":458:462   */\n              0x00\n                /* \"#utility.yul\":496:498   */\n              0x20\n                /* \"#utility.yul\":485:494   */\n              dup3\n                /* \"#utility.yul\":481:499   */\n              add\n                /* \"#utility.yul\":473:499   */\n              swap1\n              pop\n                /* \"#utility.yul\":509:580   */\n              tag_50\n                /* \"#utility.yul\":577:578   */\n              0x00\n                /* \"#utility.yul\":566:575   */\n              dup4\n                /* \"#utility.yul\":562:579   */\n              add\n                /* \"#utility.yul\":553:559   */\n              dup5\n                /* \"#utility.yul\":509:580   */\n              tag_31\n              jump\t// in\n            tag_50:\n                /* \"#utility.yul\":365:587   */\n              swap3\n              swap2\n              pop\n              pop\n              jump\t// out\n                /* \"#utility.yul\":674:791   */\n            tag_33:\n                /* \"#utility.yul\":783:784   */\n              0x00\n                /* \"#utility.yul\":780:781   */\n              dup1\n                /* \"#utility.yul\":773:785   */\n              revert\n                /* \"#utility.yul\":920:997   */\n            tag_35:\n                /* \"#utility.yul\":957:964   */\n              0x00\n                /* \"#utility.yul\":986:991   */\n              dup2\n                /* \"#utility.yul\":975:991   */\n              swap1\n              pop\n                /* \"#utility.yul\":920:997   */\n              swap2\n              swap1\n              pop\n              jump\t// out\n                /* \"#utility.yul\":1003:1125   */\n            tag_36:\n                /* \"#utility.yul\":1076:1100   */\n              tag_56\n                /* \"#utility.yul\":1094:1099   */\n              dup2\n                /* \"#utility.yul\":1076:1100   */\n              tag_35\n              jump\t// in\n            tag_56:\n                /* \"#utility.yul\":1069:1074   */\n              dup2\n                /* \"#utility.yul\":1066:1101   */\n              eq\n                /* \"#utility.yul\":1056:1119   */\n              tag_57\n              jumpi\n                /* \"#utility.yul\":1115:1116   */\n              0x00\n                /* \"#utility.yul\":1112:1113   */\n              dup1\n                /* \"#utility.yul\":1105:1117   */\n              revert\n                /* \"#utility.yul\":1056:1119   */\n            tag_57:\n                /* \"#utility.yul\":1003:1125   */\n              pop\n              jump\t// out\n                /* \"#utility.yul\":1131:1274   */\n            tag_37:\n                /* \"#utility.yul\":1188:1193   */\n              0x00\n                /* \"#utility.yul\":1219:1225   */\n              dup2\n                /* \"#utility.yul\":1213:1226   */\n              mload\n                /* \"#utility.yul\":1204:1226   */\n              swap1\n              pop\n                /* \"#utility.yul\":1235:1268   */\n              tag_59\n                /* \"#utility.yul\":1262:1267   */\n              dup2\n                /* \"#utility.yul\":1235:1268   */\n              tag_36\n              jump\t// in\n            tag_59:\n                /* \"#utility.yul\":1131:1274   */\n              swap3\n              swap2\n              pop\n              pop\n              jump\t// out\n                /* \"#utility.yul\":1280:1631   */\n            tag_12:\n                /* \"#utility.yul\":1350:1356   */\n              0x00\n                /* \"#utility.yul\":1399:1401   */\n              0x20\n                /* \"#utility.yul\":1387:1396   */\n              dup3\n                /* \"#utility.yul\":1378:1385   */\n              dup5\n                /* \"#utility.yul\":1374:1397   */\n              sub\n                /* \"#utility.yul\":1370:1402   */\n              slt\n                /* \"#utility.yul\":1367:1486   */\n              iszero\n              tag_61\n              jumpi\n                /* \"#utility.yul\":1405:1484   */\n              tag_62\n              tag_33\n              jump\t// in\n            tag_62:\n                /* \"#utility.yul\":1367:1486   */\n            tag_61:\n                /* \"#utility.yul\":1525:1526   */\n              0x00\n                /* \"#utility.yul\":1550:1614   */\n              tag_63\n                /* \"#utility.yul\":1606:1613   */\n              dup5\n                /* \"#utility.yul\":1597:1603   */\n              dup3\n                /* \"#utility.yul\":1586:1595   */\n              dup6\n                /* \"#utility.yul\":1582:1604   */\n              add\n                /* \"#utility.yul\":1550:1614   */\n              tag_37\n              jump\t// in\n            tag_63:\n                /* \"#utility.yul\":1540:1614   */\n              swap2\n              pop\n                /* \"#utility.yul\":1496:1624   */\n              pop\n                /* \"#utility.yul\":1280:1631   */\n              swap3\n              swap2\n              pop\n              pop\n              jump\t// out\n                /* \"#utility.yul\":1637:1755   */\n            tag_38:\n                /* \"#utility.yul\":1724:1748   */\n              tag_65\n                /* \"#utility.yul\":1742:1747   */\n              dup2\n                /* \"#utility.yul\":1724:1748   */\n              tag_35\n              jump\t// in\n            tag_65:\n                /* \"#utility.yul\":1719:1722   */\n              dup3\n                /* \"#utility.yul\":1712:1749   */\n              mstore\n                /* \"#utility.yul\":1637:1755   */\n              pop\n              pop\n              jump\t// out\n                /* \"#utility.yul\":1761:2093   */\n            tag_14:\n                /* \"#utility.yul\":1882:1886   */\n              0x00\n                /* \"#utility.yul\":1920:1922   */\n              0x40\n                /* \"#utility.yul\":1909:1918   */\n              dup3\n                /* \"#utility.yul\":1905:1923   */\n              add\n                /* \"#utility.yul\":1897:1923   */\n              swap1\n              pop\n                /* \"#utility.yul\":1933:2004   */\n              tag_67\n                /* \"#utility.yul\":2001:2002   */\n              0x00\n                /* \"#utility.yul\":1990:1999   */\n              dup4\n                /* \"#utility.yul\":1986:2003   */\n              add\n                /* \"#utility.yul\":1977:1983   */\n              dup6\n                /* \"#utility.yul\":1933:2004   */\n              tag_31\n              jump\t// in\n            tag_67:\n                /* \"#utility.yul\":2014:2086   */\n              tag_68\n                /* \"#utility.yul\":2082:2084   */\n              0x20\n                /* \"#utility.yul\":2071:2080   */\n              dup4\n                /* \"#utility.yul\":2067:2085   */\n              add\n                /* \"#utility.yul\":2058:2064   */\n              dup5\n                /* \"#utility.yul\":2014:2086   */\n              tag_38\n              jump\t// in\n            tag_68:\n                /* \"#utility.yul\":1761:2093   */\n              swap4\n              swap3\n              pop\n              pop\n              pop\n              jump\t// out\n                /* \"#utility.yul\":2099:2189   */\n            tag_39:\n                /* \"#utility.yul\":2133:2140   */\n              0x00\n                /* \"#utility.yul\":2176:2181   */\n              dup2\n                /* \"#utility.yul\":2169:2182   */\n              iszero\n                /* \"#utility.yul\":2162:2183   */\n              iszero\n                /* \"#utility.yul\":2151:2183   */\n              swap1\n              pop\n                /* \"#utility.yul\":2099:2189   */\n              swap2\n              swap1\n              pop\n              jump\t// out\n                /* \"#utility.yul\":2195:2311   */\n            tag_40:\n                /* \"#utility.yul\":2265:2286   */\n              tag_71\n                /* \"#utility.yul\":2280:2285   */\n              dup2\n                /* \"#utility.yul\":2265:2286   */\n              tag_39\n              jump\t// in\n            tag_71:\n                /* \"#utility.yul\":2258:2263   */\n              dup2\n                /* \"#utility.yul\":2255:2287   */\n              eq\n                /* \"#utility.yul\":2245:2305   */\n              tag_72\n              jumpi\n                /* \"#utility.yul\":2301:2302   */\n              0x00\n                /* \"#utility.yul\":2298:2299   */\n              dup1\n                /* \"#utility.yul\":2291:2303   */\n              revert\n                /* \"#utility.yul\":2245:2305   */\n            tag_72:\n                /* \"#utility.yul\":2195:2311   */\n              pop\n              jump\t// out\n                /* \"#utility.yul\":2317:2454   */\n            tag_41:\n                /* \"#utility.yul\":2371:2376   */\n              0x00\n                /* \"#utility.yul\":2402:2408   */\n              dup2\n                /* \"#utility.yul\":2396:2409   */\n              mload\n                /* \"#utility.yul\":2387:2409   */\n              swap1\n              pop\n                /* \"#utility.yul\":2418:2448   */\n              tag_74\n                /* \"#utility.yul\":2442:2447   */\n              dup2\n                /* \"#utility.yul\":2418:2448   */\n              tag_40\n              jump\t// in\n            tag_74:\n                /* \"#utility.yul\":2317:2454   */\n              swap3\n              swap2\n              pop\n              pop\n              jump\t// out\n                /* \"#utility.yul\":2460:2805   */\n            tag_18:\n                /* \"#utility.yul\":2527:2533   */\n              0x00\n                /* \"#utility.yul\":2576:2578   */\n              0x20\n                /* \"#utility.yul\":2564:2573   */\n              dup3\n                /* \"#utility.yul\":2555:2562   */\n              dup5\n                /* \"#utility.yul\":2551:2574   */\n              sub\n                /* \"#utility.yul\":2547:2579   */\n              slt\n                /* \"#utility.yul\":2544:2663   */\n              iszero\n              tag_76\n              jumpi\n                /* \"#utility.yul\":2582:2661   */\n              tag_77\n              tag_33\n              jump\t// in\n            tag_77:\n                /* \"#utility.yul\":2544:2663   */\n            tag_76:\n                /* \"#utility.yul\":2702:2703   */\n              0x00\n                /* \"#utility.yul\":2727:2788   */\n              tag_78\n                /* \"#utility.yul\":2780:2787   */\n              dup5\n                /* \"#utility.yul\":2771:2777   */\n              dup3\n                /* \"#utility.yul\":2760:2769   */\n              dup6\n                /* \"#utility.yul\":2756:2778   */\n              add\n                /* \"#utility.yul\":2727:2788   */\n              tag_41\n              jump\t// in\n            tag_78:\n                /* \"#utility.yul\":2717:2788   */\n              swap2\n              pop\n                /* \"#utility.yul\":2673:2798   */\n              pop\n                /* \"#utility.yul\":2460:2805   */\n              swap3\n              swap2\n              pop\n              pop\n              jump\t// out\n                /* \"#utility.yul\":2811:2991   */\n            tag_42:\n                /* \"#utility.yul\":2859:2936   */\n              0x4e487b7100000000000000000000000000000000000000000000000000000000\n                /* \"#utility.yul\":2856:2857   */\n              0x00\n                /* \"#utility.yul\":2849:2937   */\n              mstore\n                /* \"#utility.yul\":2956:2960   */\n              0x11\n                /* \"#utility.yul\":2953:2954   */\n              0x04\n                /* \"#utility.yul\":2946:2961   */\n              mstore\n                /* \"#utility.yul\":2980:2984   */\n              0x24\n                /* \"#utility.yul\":2977:2978   */\n              0x00\n                /* \"#utility.yul\":2970:2985   */\n              revert\n                /* \"#utility.yul\":2997:3191   */\n            tag_23:\n                /* \"#utility.yul\":3037:3041   */\n              0x00\n                /* \"#utility.yul\":3057:3077   */\n              tag_81\n                /* \"#utility.yul\":3075:3076   */\n              dup3\n                /* \"#utility.yul\":3057:3077   */\n              tag_35\n              jump\t// in\n            tag_81:\n                /* \"#utility.yul\":3052:3077   */\n              swap2\n              pop\n                /* \"#utility.yul\":3091:3111   */\n              tag_82\n                /* \"#utility.yul\":3109:3110   */\n              dup4\n                /* \"#utility.yul\":3091:3111   */\n              tag_35\n              jump\t// in\n            tag_82:\n                /* \"#utility.yul\":3086:3111   */\n              swap3\n              pop\n                /* \"#utility.yul\":3135:3136   */\n              dup3\n                /* \"#utility.yul\":3132:3133   */\n              dup3\n                /* \"#utility.yul\":3128:3137   */\n              sub\n                /* \"#utility.yul\":3120:3137   */\n              swap1\n              pop\n                /* \"#utility.yul\":3159:3160   */\n              dup2\n                /* \"#utility.yul\":3153:3157   */\n              dup2\n                /* \"#utility.yul\":3150:3161   */\n              gt\n                /* \"#utility.yul\":3147:3184   */\n              iszero\n              tag_83\n              jumpi\n                /* \"#utility.yul\":3164:3182   */\n              tag_84\n              tag_42\n              jump\t// in\n            tag_84:\n                /* \"#utility.yul\":3147:3184   */\n            tag_83:\n                /* \"#utility.yul\":2997:3191   */\n              swap3\n              swap2\n              pop\n              pop\n              jump\t// out\n                /* \"#utility.yul\":3197:3529   */\n            tag_25:\n                /* \"#utility.yul\":3318:3322   */\n              0x00\n                /* \"#utility.yul\":3356:3358   */\n              0x40\n                /* \"#utility.yul\":3345:3354   */\n              dup3\n                /* \"#utility.yul\":3341:3359   */\n              add\n                /* \"#utility.yul\":3333:3359   */\n              swap1\n              pop\n                /* \"#utility.yul\":3369:3440   */\n              tag_86\n                /* \"#utility.yul\":3437:3438   */\n              0x00\n                /* \"#utility.yul\":3426:3435   */\n              dup4\n                /* \"#utility.yul\":3422:3439   */\n              add\n                /* \"#utility.yul\":3413:3419   */\n              dup6\n                /* \"#utility.yul\":3369:3440   */\n              tag_38\n              jump\t// in\n            tag_86:\n                /* \"#utility.yul\":3450:3522   */\n              tag_87\n                /* \"#utility.yul\":3518:3520   */\n              0x20\n                /* \"#utility.yul\":3507:3516   */\n              dup4\n                /* \"#utility.yul\":3503:3521   */\n              add\n                /* \"#utility.yul\":3494:3500   */\n              dup5\n                /* \"#utility.yul\":3450:3522   */\n              tag_38\n              jump\t// in\n            tag_87:\n                /* \"#utility.yul\":3197:3529   */\n              swap4\n              swap3\n              pop\n              pop\n              pop\n              jump\t// out\n\n            auxdata: 0xa264697066735822122003a7a18da832b4fa8dfb68d7ea2800558f4846f3deba4173bd11c6afb97b4bb764736f6c63430008150033\n        }\n    }\n\n    auxdata: 0xa26469706673582212202968b21cca30901804e16ae501c2e15e1a540067c383930e4d0cec05ee27b80564736f6c63430008150033\n}\n",
				"bytecode": {
					"linkReferences": {},
					"object": "608060405234801561000f575f80fd5b50604051611029380380611029833981810160405281019061003191906100e7565b6100408161004660201b60201c565b50610112565b8060025f6101000a81548173ffffffffffffffffffffffffffffffffffffffff021916908373ffffffffffffffffffffffffffffffffffffffff16021790555050565b5f80fd5b5f73ffffffffffffffffffffffffffffffffffffffff82169050919050565b5f6100b68261008d565b9050919050565b6100c6816100ac565b81146100d0575f80fd5b50565b5f815190506100e1816100bd565b92915050565b5f602082840312156100fc576100fb610089565b5b5f610109848285016100d3565b91505092915050565b610f0a8061011f5f395ff3fe608060405260043610610033575f3560e01c806352c7420d14610037578063893d20e8146100615780639c4ae2d01461008b575b5f80fd5b348015610042575f80fd5b5061004b6100a7565b604051610058919061046b565b60405180910390f35b34801561006c575f80fd5b506100756100f6565b60405161008291906104ca565b60405180910390f35b6100a560048036038101906100a09190610653565b61011e565b005b60605f604051806020016100ba906103d4565b6020820181038252601f19601f820116604052509050806040516020016100e191906106e7565b60405160208183030381529060405291505090565b5f60025f9054906101000a900473ffffffffffffffffffffffffffffffffffffffff16905090565b60025f9054906101000a900473ffffffffffffffffffffffffffffffffffffffff1673ffffffffffffffffffffffffffffffffffffffff163373ffffffffffffffffffffffffffffffffffffffff16146101ad576040517f08c379a00000000000000000000000000000000000000000000000000000000081526004016101a490610757565b60405180910390fd5b5f73a06a577fc5cbf25903f935caf9a7fb258be98a5c73ffffffffffffffffffffffffffffffffffffffff166370a08231306040518263ffffffff1660e01b81526004016101fb91906104ca565b602060405180830381865afa158015610216573d5f803e3d5ffd5b505050506040513d601f19601f8201168201806040525081019061023a9190610789565b90505f8282610249919061080e565b90505f5b838110156103cd575f60015f54610264919061083e565b90505f8187516020890134f59050803b61027c575f80fd5b7fb03c53b28e78a88e31607a27e1fa48234dce28d5d9d9ec7b295aeb02e674a1e181846040516102ad929190610880565b60405180910390a173a06a577fc5cbf25903f935caf9a7fb258be98a5c73ffffffffffffffffffffffffffffffffffffffff1663a9059cbb82866040518363ffffffff1660e01b8152600401610304929190610880565b6020604051808303815f875af1158015610320573d5f803e3d5ffd5b505050506040513d601f19601f8201168201806040525081019061034491906108dc565b508073ffffffffffffffffffffffffffffffffffffffff1663d0e30db06040518163ffffffff1660e01b81526004015f604051808303815f87803b15801561038a575f80fd5b505af115801561039c573d5f803e3d5ffd5b5050505060015f808282546103b1919061083e565b92505081905550505080806103c590610907565b91505061024d565b5050505050565b6105868061094f83390190565b5f81519050919050565b5f82825260208201905092915050565b5f5b838110156104185780820151818401526020810190506103fd565b5f8484015250505050565b5f601f19601f8301169050919050565b5f61043d826103e1565b61044781856103eb565b93506104578185602086016103fb565b61046081610423565b840191505092915050565b5f6020820190508181035f8301526104838184610433565b905092915050565b5f73ffffffffffffffffffffffffffffffffffffffff82169050919050565b5f6104b48261048b565b9050919050565b6104c4816104aa565b82525050565b5f6020820190506104dd5f8301846104bb565b92915050565b5f604051905090565b5f80fd5b5f80fd5b5f80fd5b5f80fd5b7f4e487b71000000000000000000000000000000000000000000000000000000005f52604160045260245ffd5b61053282610423565b810181811067ffffffffffffffff82111715610551576105506104fc565b5b80604052505050565b5f6105636104e3565b905061056f8282610529565b919050565b5f67ffffffffffffffff82111561058e5761058d6104fc565b5b61059782610423565b9050602081019050919050565b828183375f83830152505050565b5f6105c46105bf84610574565b61055a565b9050828152602081018484840111156105e0576105df6104f8565b5b6105eb8482856105a4565b509392505050565b5f82601f830112610607576106066104f4565b5b81356106178482602086016105b2565b91505092915050565b5f819050919050565b61063281610620565b811461063c575f80fd5b50565b5f8135905061064d81610629565b92915050565b5f8060408385031215610669576106686104ec565b5b5f83013567ffffffffffffffff811115610686576106856104f0565b5b610692858286016105f3565b92505060206106a38582860161063f565b9150509250929050565b5f81905092915050565b5f6106c1826103e1565b6106cb81856106ad565b93506106db8185602086016103fb565b80840191505092915050565b5f6106f282846106b7565b915081905092915050565b5f82825260208201905092915050565b7f496e76616c69642063616c6c65720000000000000000000000000000000000005f82015250565b5f610741600e836106fd565b915061074c8261070d565b602082019050919050565b5f6020820190508181035f83015261076e81610735565b9050919050565b5f8151905061078381610629565b92915050565b5f6020828403121561079e5761079d6104ec565b5b5f6107ab84828501610775565b91505092915050565b7f4e487b71000000000000000000000000000000000000000000000000000000005f52601260045260245ffd5b7f4e487b71000000000000000000000000000000000000000000000000000000005f52601160045260245ffd5b5f61081882610620565b915061082383610620565b925082610833576108326107b4565b5b828204905092915050565b5f61084882610620565b915061085383610620565b925082820190508082111561086b5761086a6107e1565b5b92915050565b61087a81610620565b82525050565b5f6040820190506108935f8301856104bb565b6108a06020830184610871565b9392505050565b5f8115159050919050565b6108bb816108a7565b81146108c5575f80fd5b50565b5f815190506108d6816108b2565b92915050565b5f602082840312156108f1576108f06104ec565b5b5f6108fe848285016108c8565b91505092915050565b5f61091182610620565b91507fffffffffffffffffffffffffffffffffffffffffffffffffffffffffffffffff8203610943576109426107e1565b5b60018201905091905056fe6080604052733c7c58439aca472501b7f6ea52c83dbda47241ac5f806101000a81548173ffffffffffffffffffffffffffffffffffffffff021916908373ffffffffffffffffffffffffffffffffffffffff16021790555073a06a577fc5cbf25903f935caf9a7fb258be98a5c60015f6101000a81548173ffffffffffffffffffffffffffffffffffffffff021916908373ffffffffffffffffffffffffffffffffffffffff1602179055503480156100b6575f80fd5b506104c2806100c45f395ff3fe608060405234801561000f575f80fd5b5060043610610029575f3560e01c8063d0e30db01461002d575b5f80fd5b610035610037565b005b5f60015f9054906101000a900473ffffffffffffffffffffffffffffffffffffffff1673ffffffffffffffffffffffffffffffffffffffff166370a08231306040518263ffffffff1660e01b815260040161009291906102f4565b602060405180830381865afa1580156100ad573d5f803e3d5ffd5b505050506040513d601f19601f820116820180604052508101906100d19190610344565b905060015f9054906101000a900473ffffffffffffffffffffffffffffffffffffffff1673ffffffffffffffffffffffffffffffffffffffff1663095ea7b35f8054906101000a900473ffffffffffffffffffffffffffffffffffffffff16836040518363ffffffff1660e01b815260040161014e92919061037e565b6020604051808303815f875af115801561016a573d5f803e3d5ffd5b505050506040513d601f19601f8201168201806040525081019061018e91906103da565b505f60015f8054906101000a900473ffffffffffffffffffffffffffffffffffffffff1673ffffffffffffffffffffffffffffffffffffffff1663b3944d526040518163ffffffff1660e01b8152600401602060405180830381865afa1580156101fa573d5f803e3d5ffd5b505050506040513d601f19601f8201168201806040525081019061021e9190610344565b6102289190610432565b90505f8054906101000a900473ffffffffffffffffffffffffffffffffffffffff1673ffffffffffffffffffffffffffffffffffffffff1663e2bbb15882846040518363ffffffff1660e01b8152600401610284929190610465565b5f604051808303815f87803b15801561029b575f80fd5b505af11580156102ad573d5f803e3d5ffd5b505050505050565b5f73ffffffffffffffffffffffffffffffffffffffff82169050919050565b5f6102de826102b5565b9050919050565b6102ee816102d4565b82525050565b5f6020820190506103075f8301846102e5565b92915050565b5f80fd5b5f819050919050565b61032381610311565b811461032d575f80fd5b50565b5f8151905061033e8161031a565b92915050565b5f602082840312156103595761035861030d565b5b5f61036684828501610330565b91505092915050565b61037881610311565b82525050565b5f6040820190506103915f8301856102e5565b61039e602083018461036f565b9392505050565b5f8115159050919050565b6103b9816103a5565b81146103c3575f80fd5b50565b5f815190506103d4816103b0565b92915050565b5f602082840312156103ef576103ee61030d565b5b5f6103fc848285016103c6565b91505092915050565b7f4e487b71000000000000000000000000000000000000000000000000000000005f52601160045260245ffd5b5f61043c82610311565b915061044783610311565b925082820390508181111561045f5761045e610405565b5b92915050565b5f6040820190506104785f83018561036f565b610485602083018461036f565b939250505056fea264697066735822122003a7a18da832b4fa8dfb68d7ea2800558f4846f3deba4173bd11c6afb97b4bb764736f6c63430008150033a26469706673582212202968b21cca30901804e16ae501c2e15e1a540067c383930e4d0cec05ee27b80564736f6c63430008150033",
					"opcodes": "PUSH1 0x80 PUSH1 0x40 MSTORE CALLVALUE DUP1 ISZERO PUSH2 0xF JUMPI PUSH0 DUP1 REVERT JUMPDEST POP PUSH1 0x40 MLOAD PUSH2 0x1029 CODESIZE SUB DUP1 PUSH2 0x1029 DUP4 CODECOPY DUP2 DUP2 ADD PUSH1 0x40 MSTORE DUP2 ADD SWAP1 PUSH2 0x31 SWAP2 SWAP1 PUSH2 0xE7 JUMP JUMPDEST PUSH2 0x40 DUP2 PUSH2 0x46 PUSH1 0x20 SHL PUSH1 0x20 SHR JUMP JUMPDEST POP PUSH2 0x112 JUMP JUMPDEST DUP1 PUSH1 0x2 PUSH0 PUSH2 0x100 EXP DUP2 SLOAD DUP2 PUSH20 0xFFFFFFFFFFFFFFFFFFFFFFFFFFFFFFFFFFFFFFFF MUL NOT AND SWAP1 DUP4 PUSH20 0xFFFFFFFFFFFFFFFFFFFFFFFFFFFFFFFFFFFFFFFF AND MUL OR SWAP1 SSTORE POP POP JUMP JUMPDEST PUSH0 DUP1 REVERT JUMPDEST PUSH0 PUSH20 0xFFFFFFFFFFFFFFFFFFFFFFFFFFFFFFFFFFFFFFFF DUP3 AND SWAP1 POP SWAP2 SWAP1 POP JUMP JUMPDEST PUSH0 PUSH2 0xB6 DUP3 PUSH2 0x8D JUMP JUMPDEST SWAP1 POP SWAP2 SWAP1 POP JUMP JUMPDEST PUSH2 0xC6 DUP2 PUSH2 0xAC JUMP JUMPDEST DUP2 EQ PUSH2 0xD0 JUMPI PUSH0 DUP1 REVERT JUMPDEST POP JUMP JUMPDEST PUSH0 DUP2 MLOAD SWAP1 POP PUSH2 0xE1 DUP2 PUSH2 0xBD JUMP JUMPDEST SWAP3 SWAP2 POP POP JUMP JUMPDEST PUSH0 PUSH1 0x20 DUP3 DUP5 SUB SLT ISZERO PUSH2 0xFC JUMPI PUSH2 0xFB PUSH2 0x89 JUMP JUMPDEST JUMPDEST PUSH0 PUSH2 0x109 DUP5 DUP3 DUP6 ADD PUSH2 0xD3 JUMP JUMPDEST SWAP2 POP POP SWAP3 SWAP2 POP POP JUMP JUMPDEST PUSH2 0xF0A DUP1 PUSH2 0x11F PUSH0 CODECOPY PUSH0 RETURN INVALID PUSH1 0x80 PUSH1 0x40 MSTORE PUSH1 0x4 CALLDATASIZE LT PUSH2 0x33 JUMPI PUSH0 CALLDATALOAD PUSH1 0xE0 SHR DUP1 PUSH4 0x52C7420D EQ PUSH2 0x37 JUMPI DUP1 PUSH4 0x893D20E8 EQ PUSH2 0x61 JUMPI DUP1 PUSH4 0x9C4AE2D0 EQ PUSH2 0x8B JUMPI JUMPDEST PUSH0 DUP1 REVERT JUMPDEST CALLVALUE DUP1 ISZERO PUSH2 0x42 JUMPI PUSH0 DUP1 REVERT JUMPDEST POP PUSH2 0x4B PUSH2 0xA7 JUMP JUMPDEST PUSH1 0x40 MLOAD PUSH2 0x58 SWAP2 SWAP1 PUSH2 0x46B JUMP JUMPDEST PUSH1 0x40 MLOAD DUP1 SWAP2 SUB SWAP1 RETURN JUMPDEST CALLVALUE DUP1 ISZERO PUSH2 0x6C JUMPI PUSH0 DUP1 REVERT JUMPDEST POP PUSH2 0x75 PUSH2 0xF6 JUMP JUMPDEST PUSH1 0x40 MLOAD PUSH2 0x82 SWAP2 SWAP1 PUSH2 0x4CA JUMP JUMPDEST PUSH1 0x40 MLOAD DUP1 SWAP2 SUB SWAP1 RETURN JUMPDEST PUSH2 0xA5 PUSH1 0x4 DUP1 CALLDATASIZE SUB DUP2 ADD SWAP1 PUSH2 0xA0 SWAP2 SWAP1 PUSH2 0x653 JUMP JUMPDEST PUSH2 0x11E JUMP JUMPDEST STOP JUMPDEST PUSH1 0x60 PUSH0 PUSH1 0x40 MLOAD DUP1 PUSH1 0x20 ADD PUSH2 0xBA SWAP1 PUSH2 0x3D4 JUMP JUMPDEST PUSH1 0x20 DUP3 ADD DUP2 SUB DUP3 MSTORE PUSH1 0x1F NOT PUSH1 0x1F DUP3 ADD AND PUSH1 0x40 MSTORE POP SWAP1 POP DUP1 PUSH1 0x40 MLOAD PUSH1 0x20 ADD PUSH2 0xE1 SWAP2 SWAP1 PUSH2 0x6E7 JUMP JUMPDEST PUSH1 0x40 MLOAD PUSH1 0x20 DUP2 DUP4 SUB SUB DUP2 MSTORE SWAP1 PUSH1 0x40 MSTORE SWAP2 POP POP SWAP1 JUMP JUMPDEST PUSH0 PUSH1 0x2 PUSH0 SWAP1 SLOAD SWAP1 PUSH2 0x100 EXP SWAP1 DIV PUSH20 0xFFFFFFFFFFFFFFFFFFFFFFFFFFFFFFFFFFFFFFFF AND SWAP1 POP SWAP1 JUMP JUMPDEST PUSH1 0x2 PUSH0 SWAP1 SLOAD SWAP1 PUSH2 0x100 EXP SWAP1 DIV PUSH20 0xFFFFFFFFFFFFFFFFFFFFFFFFFFFFFFFFFFFFFFFF AND PUSH20 0xFFFFFFFFFFFFFFFFFFFFFFFFFFFFFFFFFFFFFFFF AND CALLER PUSH20 0xFFFFFFFFFFFFFFFFFFFFFFFFFFFFFFFFFFFFFFFF AND EQ PUSH2 0x1AD JUMPI PUSH1 0x40 MLOAD PUSH32 0x8C379A000000000000000000000000000000000000000000000000000000000 DUP2 MSTORE PUSH1 0x4 ADD PUSH2 0x1A4 SWAP1 PUSH2 0x757 JUMP JUMPDEST PUSH1 0x40 MLOAD DUP1 SWAP2 SUB SWAP1 REVERT JUMPDEST PUSH0 PUSH20 0xA06A577FC5CBF25903F935CAF9A7FB258BE98A5C PUSH20 0xFFFFFFFFFFFFFFFFFFFFFFFFFFFFFFFFFFFFFFFF AND PUSH4 0x70A08231 ADDRESS PUSH1 0x40 MLOAD DUP3 PUSH4 0xFFFFFFFF AND PUSH1 0xE0 SHL DUP2 MSTORE PUSH1 0x4 ADD PUSH2 0x1FB SWAP2 SWAP1 PUSH2 0x4CA JUMP JUMPDEST PUSH1 0x20 PUSH1 0x40 MLOAD DUP1 DUP4 SUB DUP2 DUP7 GAS STATICCALL ISZERO DUP1 ISZERO PUSH2 0x216 JUMPI RETURNDATASIZE PUSH0 DUP1 RETURNDATACOPY RETURNDATASIZE PUSH0 REVERT JUMPDEST POP POP POP POP PUSH1 0x40 MLOAD RETURNDATASIZE PUSH1 0x1F NOT PUSH1 0x1F DUP3 ADD AND DUP3 ADD DUP1 PUSH1 0x40 MSTORE POP DUP2 ADD SWAP1 PUSH2 0x23A SWAP2 SWAP1 PUSH2 0x789 JUMP JUMPDEST SWAP1 POP PUSH0 DUP3 DUP3 PUSH2 0x249 SWAP2 SWAP1 PUSH2 0x80E JUMP JUMPDEST SWAP1 POP PUSH0 JUMPDEST DUP4 DUP2 LT ISZERO PUSH2 0x3CD JUMPI PUSH0 PUSH1 0x1 PUSH0 SLOAD PUSH2 0x264 SWAP2 SWAP1 PUSH2 0x83E JUMP JUMPDEST SWAP1 POP PUSH0 DUP2 DUP8 MLOAD PUSH1 0x20 DUP10 ADD CALLVALUE CREATE2 SWAP1 POP DUP1 EXTCODESIZE PUSH2 0x27C JUMPI PUSH0 DUP1 REVERT JUMPDEST PUSH32 0xB03C53B28E78A88E31607A27E1FA48234DCE28D5D9D9EC7B295AEB02E674A1E1 DUP2 DUP5 PUSH1 0x40 MLOAD PUSH2 0x2AD SWAP3 SWAP2 SWAP1 PUSH2 0x880 JUMP JUMPDEST PUSH1 0x40 MLOAD DUP1 SWAP2 SUB SWAP1 LOG1 PUSH20 0xA06A577FC5CBF25903F935CAF9A7FB258BE98A5C PUSH20 0xFFFFFFFFFFFFFFFFFFFFFFFFFFFFFFFFFFFFFFFF AND PUSH4 0xA9059CBB DUP3 DUP7 PUSH1 0x40 MLOAD DUP4 PUSH4 0xFFFFFFFF AND PUSH1 0xE0 SHL DUP2 MSTORE PUSH1 0x4 ADD PUSH2 0x304 SWAP3 SWAP2 SWAP1 PUSH2 0x880 JUMP JUMPDEST PUSH1 0x20 PUSH1 0x40 MLOAD DUP1 DUP4 SUB DUP2 PUSH0 DUP8 GAS CALL ISZERO DUP1 ISZERO PUSH2 0x320 JUMPI RETURNDATASIZE PUSH0 DUP1 RETURNDATACOPY RETURNDATASIZE PUSH0 REVERT JUMPDEST POP POP POP POP PUSH1 0x40 MLOAD RETURNDATASIZE PUSH1 0x1F NOT PUSH1 0x1F DUP3 ADD AND DUP3 ADD DUP1 PUSH1 0x40 MSTORE POP DUP2 ADD SWAP1 PUSH2 0x344 SWAP2 SWAP1 PUSH2 0x8DC JUMP JUMPDEST POP DUP1 PUSH20 0xFFFFFFFFFFFFFFFFFFFFFFFFFFFFFFFFFFFFFFFF AND PUSH4 0xD0E30DB0 PUSH1 0x40 MLOAD DUP2 PUSH4 0xFFFFFFFF AND PUSH1 0xE0 SHL DUP2 MSTORE PUSH1 0x4 ADD PUSH0 PUSH1 0x40 MLOAD DUP1 DUP4 SUB DUP2 PUSH0 DUP8 DUP1 EXTCODESIZE ISZERO DUP1 ISZERO PUSH2 0x38A JUMPI PUSH0 DUP1 REVERT JUMPDEST POP GAS CALL ISZERO DUP1 ISZERO PUSH2 0x39C JUMPI RETURNDATASIZE PUSH0 DUP1 RETURNDATACOPY RETURNDATASIZE PUSH0 REVERT JUMPDEST POP POP POP POP PUSH1 0x1 PUSH0 DUP1 DUP3 DUP3 SLOAD PUSH2 0x3B1 SWAP2 SWAP1 PUSH2 0x83E JUMP JUMPDEST SWAP3 POP POP DUP2 SWAP1 SSTORE POP POP POP DUP1 DUP1 PUSH2 0x3C5 SWAP1 PUSH2 0x907 JUMP JUMPDEST SWAP2 POP POP PUSH2 0x24D JUMP JUMPDEST POP POP POP POP POP JUMP JUMPDEST PUSH2 0x586 DUP1 PUSH2 0x94F DUP4 CODECOPY ADD SWAP1 JUMP JUMPDEST PUSH0 DUP2 MLOAD SWAP1 POP SWAP2 SWAP1 POP JUMP JUMPDEST PUSH0 DUP3 DUP3 MSTORE PUSH1 0x20 DUP3 ADD SWAP1 POP SWAP3 SWAP2 POP POP JUMP JUMPDEST PUSH0 JUMPDEST DUP4 DUP2 LT ISZERO PUSH2 0x418 JUMPI DUP1 DUP3 ADD MLOAD DUP2 DUP5 ADD MSTORE PUSH1 0x20 DUP2 ADD SWAP1 POP PUSH2 0x3FD JUMP JUMPDEST PUSH0 DUP5 DUP5 ADD MSTORE POP POP POP POP JUMP JUMPDEST PUSH0 PUSH1 0x1F NOT PUSH1 0x1F DUP4 ADD AND SWAP1 POP SWAP2 SWAP1 POP JUMP JUMPDEST PUSH0 PUSH2 0x43D DUP3 PUSH2 0x3E1 JUMP JUMPDEST PUSH2 0x447 DUP2 DUP6 PUSH2 0x3EB JUMP JUMPDEST SWAP4 POP PUSH2 0x457 DUP2 DUP6 PUSH1 0x20 DUP7 ADD PUSH2 0x3FB JUMP JUMPDEST PUSH2 0x460 DUP2 PUSH2 0x423 JUMP JUMPDEST DUP5 ADD SWAP2 POP POP SWAP3 SWAP2 POP POP JUMP JUMPDEST PUSH0 PUSH1 0x20 DUP3 ADD SWAP1 POP DUP2 DUP2 SUB PUSH0 DUP4 ADD MSTORE PUSH2 0x483 DUP2 DUP5 PUSH2 0x433 JUMP JUMPDEST SWAP1 POP SWAP3 SWAP2 POP POP JUMP JUMPDEST PUSH0 PUSH20 0xFFFFFFFFFFFFFFFFFFFFFFFFFFFFFFFFFFFFFFFF DUP3 AND SWAP1 POP SWAP2 SWAP1 POP JUMP JUMPDEST PUSH0 PUSH2 0x4B4 DUP3 PUSH2 0x48B JUMP JUMPDEST SWAP1 POP SWAP2 SWAP1 POP JUMP JUMPDEST PUSH2 0x4C4 DUP2 PUSH2 0x4AA JUMP JUMPDEST DUP3 MSTORE POP POP JUMP JUMPDEST PUSH0 PUSH1 0x20 DUP3 ADD SWAP1 POP PUSH2 0x4DD PUSH0 DUP4 ADD DUP5 PUSH2 0x4BB JUMP JUMPDEST SWAP3 SWAP2 POP POP JUMP JUMPDEST PUSH0 PUSH1 0x40 MLOAD SWAP1 POP SWAP1 JUMP JUMPDEST PUSH0 DUP1 REVERT JUMPDEST PUSH0 DUP1 REVERT JUMPDEST PUSH0 DUP1 REVERT JUMPDEST PUSH0 DUP1 REVERT JUMPDEST PUSH32 0x4E487B7100000000000000000000000000000000000000000000000000000000 PUSH0 MSTORE PUSH1 0x41 PUSH1 0x4 MSTORE PUSH1 0x24 PUSH0 REVERT JUMPDEST PUSH2 0x532 DUP3 PUSH2 0x423 JUMP JUMPDEST DUP2 ADD DUP2 DUP2 LT PUSH8 0xFFFFFFFFFFFFFFFF DUP3 GT OR ISZERO PUSH2 0x551 JUMPI PUSH2 0x550 PUSH2 0x4FC JUMP JUMPDEST JUMPDEST DUP1 PUSH1 0x40 MSTORE POP POP POP JUMP JUMPDEST PUSH0 PUSH2 0x563 PUSH2 0x4E3 JUMP JUMPDEST SWAP1 POP PUSH2 0x56F DUP3 DUP3 PUSH2 0x529 JUMP JUMPDEST SWAP2 SWAP1 POP JUMP JUMPDEST PUSH0 PUSH8 0xFFFFFFFFFFFFFFFF DUP3 GT ISZERO PUSH2 0x58E JUMPI PUSH2 0x58D PUSH2 0x4FC JUMP JUMPDEST JUMPDEST PUSH2 0x597 DUP3 PUSH2 0x423 JUMP JUMPDEST SWAP1 POP PUSH1 0x20 DUP2 ADD SWAP1 POP SWAP2 SWAP1 POP JUMP JUMPDEST DUP3 DUP2 DUP4 CALLDATACOPY PUSH0 DUP4 DUP4 ADD MSTORE POP POP POP JUMP JUMPDEST PUSH0 PUSH2 0x5C4 PUSH2 0x5BF DUP5 PUSH2 0x574 JUMP JUMPDEST PUSH2 0x55A JUMP JUMPDEST SWAP1 POP DUP3 DUP2 MSTORE PUSH1 0x20 DUP2 ADD DUP5 DUP5 DUP5 ADD GT ISZERO PUSH2 0x5E0 JUMPI PUSH2 0x5DF PUSH2 0x4F8 JUMP JUMPDEST JUMPDEST PUSH2 0x5EB DUP5 DUP3 DUP6 PUSH2 0x5A4 JUMP JUMPDEST POP SWAP4 SWAP3 POP POP POP JUMP JUMPDEST PUSH0 DUP3 PUSH1 0x1F DUP4 ADD SLT PUSH2 0x607 JUMPI PUSH2 0x606 PUSH2 0x4F4 JUMP JUMPDEST JUMPDEST DUP2 CALLDATALOAD PUSH2 0x617 DUP5 DUP3 PUSH1 0x20 DUP7 ADD PUSH2 0x5B2 JUMP JUMPDEST SWAP2 POP POP SWAP3 SWAP2 POP POP JUMP JUMPDEST PUSH0 DUP2 SWAP1 POP SWAP2 SWAP1 POP JUMP JUMPDEST PUSH2 0x632 DUP2 PUSH2 0x620 JUMP JUMPDEST DUP2 EQ PUSH2 0x63C JUMPI PUSH0 DUP1 REVERT JUMPDEST POP JUMP JUMPDEST PUSH0 DUP2 CALLDATALOAD SWAP1 POP PUSH2 0x64D DUP2 PUSH2 0x629 JUMP JUMPDEST SWAP3 SWAP2 POP POP JUMP JUMPDEST PUSH0 DUP1 PUSH1 0x40 DUP4 DUP6 SUB SLT ISZERO PUSH2 0x669 JUMPI PUSH2 0x668 PUSH2 0x4EC JUMP JUMPDEST JUMPDEST PUSH0 DUP4 ADD CALLDATALOAD PUSH8 0xFFFFFFFFFFFFFFFF DUP2 GT ISZERO PUSH2 0x686 JUMPI PUSH2 0x685 PUSH2 0x4F0 JUMP JUMPDEST JUMPDEST PUSH2 0x692 DUP6 DUP3 DUP7 ADD PUSH2 0x5F3 JUMP JUMPDEST SWAP3 POP POP PUSH1 0x20 PUSH2 0x6A3 DUP6 DUP3 DUP7 ADD PUSH2 0x63F JUMP JUMPDEST SWAP2 POP POP SWAP3 POP SWAP3 SWAP1 POP JUMP JUMPDEST PUSH0 DUP2 SWAP1 POP SWAP3 SWAP2 POP POP JUMP JUMPDEST PUSH0 PUSH2 0x6C1 DUP3 PUSH2 0x3E1 JUMP JUMPDEST PUSH2 0x6CB DUP2 DUP6 PUSH2 0x6AD JUMP JUMPDEST SWAP4 POP PUSH2 0x6DB DUP2 DUP6 PUSH1 0x20 DUP7 ADD PUSH2 0x3FB JUMP JUMPDEST DUP1 DUP5 ADD SWAP2 POP POP SWAP3 SWAP2 POP POP JUMP JUMPDEST PUSH0 PUSH2 0x6F2 DUP3 DUP5 PUSH2 0x6B7 JUMP JUMPDEST SWAP2 POP DUP2 SWAP1 POP SWAP3 SWAP2 POP POP JUMP JUMPDEST PUSH0 DUP3 DUP3 MSTORE PUSH1 0x20 DUP3 ADD SWAP1 POP SWAP3 SWAP2 POP POP JUMP JUMPDEST PUSH32 0x496E76616C69642063616C6C6572000000000000000000000000000000000000 PUSH0 DUP3 ADD MSTORE POP JUMP JUMPDEST PUSH0 PUSH2 0x741 PUSH1 0xE DUP4 PUSH2 0x6FD JUMP JUMPDEST SWAP2 POP PUSH2 0x74C DUP3 PUSH2 0x70D JUMP JUMPDEST PUSH1 0x20 DUP3 ADD SWAP1 POP SWAP2 SWAP1 POP JUMP JUMPDEST PUSH0 PUSH1 0x20 DUP3 ADD SWAP1 POP DUP2 DUP2 SUB PUSH0 DUP4 ADD MSTORE PUSH2 0x76E DUP2 PUSH2 0x735 JUMP JUMPDEST SWAP1 POP SWAP2 SWAP1 POP JUMP JUMPDEST PUSH0 DUP2 MLOAD SWAP1 POP PUSH2 0x783 DUP2 PUSH2 0x629 JUMP JUMPDEST SWAP3 SWAP2 POP POP JUMP JUMPDEST PUSH0 PUSH1 0x20 DUP3 DUP5 SUB SLT ISZERO PUSH2 0x79E JUMPI PUSH2 0x79D PUSH2 0x4EC JUMP JUMPDEST JUMPDEST PUSH0 PUSH2 0x7AB DUP5 DUP3 DUP6 ADD PUSH2 0x775 JUMP JUMPDEST SWAP2 POP POP SWAP3 SWAP2 POP POP JUMP JUMPDEST PUSH32 0x4E487B7100000000000000000000000000000000000000000000000000000000 PUSH0 MSTORE PUSH1 0x12 PUSH1 0x4 MSTORE PUSH1 0x24 PUSH0 REVERT JUMPDEST PUSH32 0x4E487B7100000000000000000000000000000000000000000000000000000000 PUSH0 MSTORE PUSH1 0x11 PUSH1 0x4 MSTORE PUSH1 0x24 PUSH0 REVERT JUMPDEST PUSH0 PUSH2 0x818 DUP3 PUSH2 0x620 JUMP JUMPDEST SWAP2 POP PUSH2 0x823 DUP4 PUSH2 0x620 JUMP JUMPDEST SWAP3 POP DUP3 PUSH2 0x833 JUMPI PUSH2 0x832 PUSH2 0x7B4 JUMP JUMPDEST JUMPDEST DUP3 DUP3 DIV SWAP1 POP SWAP3 SWAP2 POP POP JUMP JUMPDEST PUSH0 PUSH2 0x848 DUP3 PUSH2 0x620 JUMP JUMPDEST SWAP2 POP PUSH2 0x853 DUP4 PUSH2 0x620 JUMP JUMPDEST SWAP3 POP DUP3 DUP3 ADD SWAP1 POP DUP1 DUP3 GT ISZERO PUSH2 0x86B JUMPI PUSH2 0x86A PUSH2 0x7E1 JUMP JUMPDEST JUMPDEST SWAP3 SWAP2 POP POP JUMP JUMPDEST PUSH2 0x87A DUP2 PUSH2 0x620 JUMP JUMPDEST DUP3 MSTORE POP POP JUMP JUMPDEST PUSH0 PUSH1 0x40 DUP3 ADD SWAP1 POP PUSH2 0x893 PUSH0 DUP4 ADD DUP6 PUSH2 0x4BB JUMP JUMPDEST PUSH2 0x8A0 PUSH1 0x20 DUP4 ADD DUP5 PUSH2 0x871 JUMP JUMPDEST SWAP4 SWAP3 POP POP POP JUMP JUMPDEST PUSH0 DUP2 ISZERO ISZERO SWAP1 POP SWAP2 SWAP1 POP JUMP JUMPDEST PUSH2 0x8BB DUP2 PUSH2 0x8A7 JUMP JUMPDEST DUP2 EQ PUSH2 0x8C5 JUMPI PUSH0 DUP1 REVERT JUMPDEST POP JUMP JUMPDEST PUSH0 DUP2 MLOAD SWAP1 POP PUSH2 0x8D6 DUP2 PUSH2 0x8B2 JUMP JUMPDEST SWAP3 SWAP2 POP POP JUMP JUMPDEST PUSH0 PUSH1 0x20 DUP3 DUP5 SUB SLT ISZERO PUSH2 0x8F1 JUMPI PUSH2 0x8F0 PUSH2 0x4EC JUMP JUMPDEST JUMPDEST PUSH0 PUSH2 0x8FE DUP5 DUP3 DUP6 ADD PUSH2 0x8C8 JUMP JUMPDEST SWAP2 POP POP SWAP3 SWAP2 POP POP JUMP JUMPDEST PUSH0 PUSH2 0x911 DUP3 PUSH2 0x620 JUMP JUMPDEST SWAP2 POP PUSH32 0xFFFFFFFFFFFFFFFFFFFFFFFFFFFFFFFFFFFFFFFFFFFFFFFFFFFFFFFFFFFFFFFF DUP3 SUB PUSH2 0x943 JUMPI PUSH2 0x942 PUSH2 0x7E1 JUMP JUMPDEST JUMPDEST PUSH1 0x1 DUP3 ADD SWAP1 POP SWAP2 SWAP1 POP JUMP INVALID PUSH1 0x80 PUSH1 0x40 MSTORE PUSH20 0x3C7C58439ACA472501B7F6EA52C83DBDA47241AC PUSH0 DUP1 PUSH2 0x100 EXP DUP2 SLOAD DUP2 PUSH20 0xFFFFFFFFFFFFFFFFFFFFFFFFFFFFFFFFFFFFFFFF MUL NOT AND SWAP1 DUP4 PUSH20 0xFFFFFFFFFFFFFFFFFFFFFFFFFFFFFFFFFFFFFFFF AND MUL OR SWAP1 SSTORE POP PUSH20 0xA06A577FC5CBF25903F935CAF9A7FB258BE98A5C PUSH1 0x1 PUSH0 PUSH2 0x100 EXP DUP2 SLOAD DUP2 PUSH20 0xFFFFFFFFFFFFFFFFFFFFFFFFFFFFFFFFFFFFFFFF MUL NOT AND SWAP1 DUP4 PUSH20 0xFFFFFFFFFFFFFFFFFFFFFFFFFFFFFFFFFFFFFFFF AND MUL OR SWAP1 SSTORE POP CALLVALUE DUP1 ISZERO PUSH2 0xB6 JUMPI PUSH0 DUP1 REVERT JUMPDEST POP PUSH2 0x4C2 DUP1 PUSH2 0xC4 PUSH0 CODECOPY PUSH0 RETURN INVALID PUSH1 0x80 PUSH1 0x40 MSTORE CALLVALUE DUP1 ISZERO PUSH2 0xF JUMPI PUSH0 DUP1 REVERT JUMPDEST POP PUSH1 0x4 CALLDATASIZE LT PUSH2 0x29 JUMPI PUSH0 CALLDATALOAD PUSH1 0xE0 SHR DUP1 PUSH4 0xD0E30DB0 EQ PUSH2 0x2D JUMPI JUMPDEST PUSH0 DUP1 REVERT JUMPDEST PUSH2 0x35 PUSH2 0x37 JUMP JUMPDEST STOP JUMPDEST PUSH0 PUSH1 0x1 PUSH0 SWAP1 SLOAD SWAP1 PUSH2 0x100 EXP SWAP1 DIV PUSH20 0xFFFFFFFFFFFFFFFFFFFFFFFFFFFFFFFFFFFFFFFF AND PUSH20 0xFFFFFFFFFFFFFFFFFFFFFFFFFFFFFFFFFFFFFFFF AND PUSH4 0x70A08231 ADDRESS PUSH1 0x40 MLOAD DUP3 PUSH4 0xFFFFFFFF AND PUSH1 0xE0 SHL DUP2 MSTORE PUSH1 0x4 ADD PUSH2 0x92 SWAP2 SWAP1 PUSH2 0x2F4 JUMP JUMPDEST PUSH1 0x20 PUSH1 0x40 MLOAD DUP1 DUP4 SUB DUP2 DUP7 GAS STATICCALL ISZERO DUP1 ISZERO PUSH2 0xAD JUMPI RETURNDATASIZE PUSH0 DUP1 RETURNDATACOPY RETURNDATASIZE PUSH0 REVERT JUMPDEST POP POP POP POP PUSH1 0x40 MLOAD RETURNDATASIZE PUSH1 0x1F NOT PUSH1 0x1F DUP3 ADD AND DUP3 ADD DUP1 PUSH1 0x40 MSTORE POP DUP2 ADD SWAP1 PUSH2 0xD1 SWAP2 SWAP1 PUSH2 0x344 JUMP JUMPDEST SWAP1 POP PUSH1 0x1 PUSH0 SWAP1 SLOAD SWAP1 PUSH2 0x100 EXP SWAP1 DIV PUSH20 0xFFFFFFFFFFFFFFFFFFFFFFFFFFFFFFFFFFFFFFFF AND PUSH20 0xFFFFFFFFFFFFFFFFFFFFFFFFFFFFFFFFFFFFFFFF AND PUSH4 0x95EA7B3 PUSH0 DUP1 SLOAD SWAP1 PUSH2 0x100 EXP SWAP1 DIV PUSH20 0xFFFFFFFFFFFFFFFFFFFFFFFFFFFFFFFFFFFFFFFF AND DUP4 PUSH1 0x40 MLOAD DUP4 PUSH4 0xFFFFFFFF AND PUSH1 0xE0 SHL DUP2 MSTORE PUSH1 0x4 ADD PUSH2 0x14E SWAP3 SWAP2 SWAP1 PUSH2 0x37E JUMP JUMPDEST PUSH1 0x20 PUSH1 0x40 MLOAD DUP1 DUP4 SUB DUP2 PUSH0 DUP8 GAS CALL ISZERO DUP1 ISZERO PUSH2 0x16A JUMPI RETURNDATASIZE PUSH0 DUP1 RETURNDATACOPY RETURNDATASIZE PUSH0 REVERT JUMPDEST POP POP POP POP PUSH1 0x40 MLOAD RETURNDATASIZE PUSH1 0x1F NOT PUSH1 0x1F DUP3 ADD AND DUP3 ADD DUP1 PUSH1 0x40 MSTORE POP DUP2 ADD SWAP1 PUSH2 0x18E SWAP2 SWAP1 PUSH2 0x3DA JUMP JUMPDEST POP PUSH0 PUSH1 0x1 PUSH0 DUP1 SLOAD SWAP1 PUSH2 0x100 EXP SWAP1 DIV PUSH20 0xFFFFFFFFFFFFFFFFFFFFFFFFFFFFFFFFFFFFFFFF AND PUSH20 0xFFFFFFFFFFFFFFFFFFFFFFFFFFFFFFFFFFFFFFFF AND PUSH4 0xB3944D52 PUSH1 0x40 MLOAD DUP2 PUSH4 0xFFFFFFFF AND PUSH1 0xE0 SHL DUP2 MSTORE PUSH1 0x4 ADD PUSH1 0x20 PUSH1 0x40 MLOAD DUP1 DUP4 SUB DUP2 DUP7 GAS STATICCALL ISZERO DUP1 ISZERO PUSH2 0x1FA JUMPI RETURNDATASIZE PUSH0 DUP1 RETURNDATACOPY RETURNDATASIZE PUSH0 REVERT JUMPDEST POP POP POP POP PUSH1 0x40 MLOAD RETURNDATASIZE PUSH1 0x1F NOT PUSH1 0x1F DUP3 ADD AND DUP3 ADD DUP1 PUSH1 0x40 MSTORE POP DUP2 ADD SWAP1 PUSH2 0x21E SWAP2 SWAP1 PUSH2 0x344 JUMP JUMPDEST PUSH2 0x228 SWAP2 SWAP1 PUSH2 0x432 JUMP JUMPDEST SWAP1 POP PUSH0 DUP1 SLOAD SWAP1 PUSH2 0x100 EXP SWAP1 DIV PUSH20 0xFFFFFFFFFFFFFFFFFFFFFFFFFFFFFFFFFFFFFFFF AND PUSH20 0xFFFFFFFFFFFFFFFFFFFFFFFFFFFFFFFFFFFFFFFF AND PUSH4 0xE2BBB158 DUP3 DUP5 PUSH1 0x40 MLOAD DUP4 PUSH4 0xFFFFFFFF AND PUSH1 0xE0 SHL DUP2 MSTORE PUSH1 0x4 ADD PUSH2 0x284 SWAP3 SWAP2 SWAP1 PUSH2 0x465 JUMP JUMPDEST PUSH0 PUSH1 0x40 MLOAD DUP1 DUP4 SUB DUP2 PUSH0 DUP8 DUP1 EXTCODESIZE ISZERO DUP1 ISZERO PUSH2 0x29B JUMPI PUSH0 DUP1 REVERT JUMPDEST POP GAS CALL ISZERO DUP1 ISZERO PUSH2 0x2AD JUMPI RETURNDATASIZE PUSH0 DUP1 RETURNDATACOPY RETURNDATASIZE PUSH0 REVERT JUMPDEST POP POP POP POP POP POP JUMP JUMPDEST PUSH0 PUSH20 0xFFFFFFFFFFFFFFFFFFFFFFFFFFFFFFFFFFFFFFFF DUP3 AND SWAP1 POP SWAP2 SWAP1 POP JUMP JUMPDEST PUSH0 PUSH2 0x2DE DUP3 PUSH2 0x2B5 JUMP JUMPDEST SWAP1 POP SWAP2 SWAP1 POP JUMP JUMPDEST PUSH2 0x2EE DUP2 PUSH2 0x2D4 JUMP JUMPDEST DUP3 MSTORE POP POP JUMP JUMPDEST PUSH0 PUSH1 0x20 DUP3 ADD SWAP1 POP PUSH2 0x307 PUSH0 DUP4 ADD DUP5 PUSH2 0x2E5 JUMP JUMPDEST SWAP3 SWAP2 POP POP JUMP JUMPDEST PUSH0 DUP1 REVERT JUMPDEST PUSH0 DUP2 SWAP1 POP SWAP2 SWAP1 POP JUMP JUMPDEST PUSH2 0x323 DUP2 PUSH2 0x311 JUMP JUMPDEST DUP2 EQ PUSH2 0x32D JUMPI PUSH0 DUP1 REVERT JUMPDEST POP JUMP JUMPDEST PUSH0 DUP2 MLOAD SWAP1 POP PUSH2 0x33E DUP2 PUSH2 0x31A JUMP JUMPDEST SWAP3 SWAP2 POP POP JUMP JUMPDEST PUSH0 PUSH1 0x20 DUP3 DUP5 SUB SLT ISZERO PUSH2 0x359 JUMPI PUSH2 0x358 PUSH2 0x30D JUMP JUMPDEST JUMPDEST PUSH0 PUSH2 0x366 DUP5 DUP3 DUP6 ADD PUSH2 0x330 JUMP JUMPDEST SWAP2 POP POP SWAP3 SWAP2 POP POP JUMP JUMPDEST PUSH2 0x378 DUP2 PUSH2 0x311 JUMP JUMPDEST DUP3 MSTORE POP POP JUMP JUMPDEST PUSH0 PUSH1 0x40 DUP3 ADD SWAP1 POP PUSH2 0x391 PUSH0 DUP4 ADD DUP6 PUSH2 0x2E5 JUMP JUMPDEST PUSH2 0x39E PUSH1 0x20 DUP4 ADD DUP5 PUSH2 0x36F JUMP JUMPDEST SWAP4 SWAP3 POP POP POP JUMP JUMPDEST PUSH0 DUP2 ISZERO ISZERO SWAP1 POP SWAP2 SWAP1 POP JUMP JUMPDEST PUSH2 0x3B9 DUP2 PUSH2 0x3A5 JUMP JUMPDEST DUP2 EQ PUSH2 0x3C3 JUMPI PUSH0 DUP1 REVERT JUMPDEST POP JUMP JUMPDEST PUSH0 DUP2 MLOAD SWAP1 POP PUSH2 0x3D4 DUP2 PUSH2 0x3B0 JUMP JUMPDEST SWAP3 SWAP2 POP POP JUMP JUMPDEST PUSH0 PUSH1 0x20 DUP3 DUP5 SUB SLT ISZERO PUSH2 0x3EF JUMPI PUSH2 0x3EE PUSH2 0x30D JUMP JUMPDEST JUMPDEST PUSH0 PUSH2 0x3FC DUP5 DUP3 DUP6 ADD PUSH2 0x3C6 JUMP JUMPDEST SWAP2 POP POP SWAP3 SWAP2 POP POP JUMP JUMPDEST PUSH32 0x4E487B7100000000000000000000000000000000000000000000000000000000 PUSH0 MSTORE PUSH1 0x11 PUSH1 0x4 MSTORE PUSH1 0x24 PUSH0 REVERT JUMPDEST PUSH0 PUSH2 0x43C DUP3 PUSH2 0x311 JUMP JUMPDEST SWAP2 POP PUSH2 0x447 DUP4 PUSH2 0x311 JUMP JUMPDEST SWAP3 POP DUP3 DUP3 SUB SWAP1 POP DUP2 DUP2 GT ISZERO PUSH2 0x45F JUMPI PUSH2 0x45E PUSH2 0x405 JUMP JUMPDEST JUMPDEST SWAP3 SWAP2 POP POP JUMP JUMPDEST PUSH0 PUSH1 0x40 DUP3 ADD SWAP1 POP PUSH2 0x478 PUSH0 DUP4 ADD DUP6 PUSH2 0x36F JUMP JUMPDEST PUSH2 0x485 PUSH1 0x20 DUP4 ADD DUP5 PUSH2 0x36F JUMP JUMPDEST SWAP4 SWAP3 POP POP POP JUMP INVALID LOG2 PUSH5 0x6970667358 0x22 SLT KECCAK256 SUB 0xA7 LOG1 DUP14 0xA8 ORIGIN 0xB4 STATICCALL DUP14 0xFB PUSH9 0xD7EA2800558F4846F3 0xDE 0xBA COINBASE PUSH20 0xBD11C6AFB97B4BB764736F6C63430008150033A2 PUSH5 0x6970667358 0x22 SLT KECCAK256 0x29 PUSH9 0xB21CCA30901804E16A 0xE5 ADD 0xC2 0xE1 0x5E BYTE SLOAD STOP PUSH8 0xC383930E4D0CEC05 0xEE 0x27 0xB8 SDIV PUSH5 0x736F6C6343 STOP ADDMOD ISZERO STOP CALLER "
				},
				"gasEstimates": {
					"creation": {
						"codeDepositCost": "770000",
						"executionCost": "infinite",
						"totalCost": "infinite"
					},
					"external": {
						"deploy(bytes,uint256)": "infinite",
						"getBytecode()": "infinite",
						"getOwner()": "2515"
					},
					"internal": {
						"_transferOwnerShip(address)": "infinite"
					}
				},
				"methodIdentifiers": {
					"deploy(bytes,uint256)": "9c4ae2d0",
					"getBytecode()": "52c7420d",
					"getOwner()": "893d20e8"
				}
			},
			"storageLayout": {
				"storage": [
					{
						"astId": 1030,
						"contract": "SpamDepositandWithdraw.sol:ContractDeploymentFactory",
						"label": "a",
						"offset": 0,
						"slot": "0",
						"type": "t_uint256"
					},
					{
						"astId": 1033,
						"contract": "SpamDepositandWithdraw.sol:ContractDeploymentFactory",
						"label": "listOfcontract",
						"offset": 0,
						"slot": "1",
						"type": "t_array(t_address)dyn_storage"
					},
					{
						"astId": 1051,
						"contract": "SpamDepositandWithdraw.sol:ContractDeploymentFactory",
						"label": "owner",
						"offset": 0,
						"slot": "2",
						"type": "t_address"
					}
				],
				"types": {
					"t_address": {
						"encoding": "inplace",
						"label": "address",
						"numberOfBytes": "20"
					},
					"t_array(t_address)dyn_storage": {
						"base": "t_address",
						"encoding": "dynamic_array",
						"label": "address[]",
						"numberOfBytes": "32"
					},
					"t_uint256": {
						"encoding": "inplace",
						"label": "uint256",
						"numberOfBytes": "32"
					}
				}
			},
			"userdoc": {
				"kind": "user",
				"methods": {},
				"version": 1
			}
		}
	}
}