{
	"Trash.sol": {
		"trash": {
			"abi": [
				{
					"inputs": [
						{
							"internalType": "bytes",
							"name": "sample",
							"type": "bytes"
						}
					],
					"name": "getTest",
					"outputs": [
						{
							"internalType": "bytes4",
							"name": "",
							"type": "bytes4"
						}
					],
					"stateMutability": "view",
					"type": "function"
				}
			],
			"devdoc": {
				"kind": "dev",
				"methods": {},
				"version": 1
			},
			"evm": {
				"assembly": "    /* \"Trash.sol\":0:212  contract trash{... */\n  mstore(0x40, 0x80)\n  callvalue\n  dup1\n  iszero\n  tag_1\n  jumpi\n  0x00\n  dup1\n  revert\ntag_1:\n  pop\n  dataSize(sub_0)\n  dup1\n  dataOffset(sub_0)\n  0x00\n  codecopy\n  0x00\n  return\nstop\n\nsub_0: assembly {\n        /* \"Trash.sol\":0:212  contract trash{... */\n      mstore(0x40, 0x80)\n      callvalue\n      dup1\n      iszero\n      tag_1\n      jumpi\n      0x00\n      dup1\n      revert\n    tag_1:\n      pop\n      jumpi(tag_2, lt(calldatasize, 0x04))\n      shr(0xe0, calldataload(0x00))\n      dup1\n      0x9f4759a3\n      eq\n      tag_3\n      jumpi\n    tag_2:\n      0x00\n      dup1\n      revert\n        /* \"Trash.sol\":20:210  function getTest(bytes calldata sample) external view returns(bytes4){... */\n    tag_3:\n      tag_4\n      tag_5\n      calldatasize\n      0x04\n      tag_6\n      jump\t// in\n    tag_5:\n      pop\n        /* \"Trash.sol\":151:178  calldataload(sample.offset) */\n      calldataload\n      swap1\n        /* \"Trash.sol\":20:210  function getTest(bytes calldata sample) external view returns(bytes4){... */\n      jump\n    tag_4:\n      mload(0x40)\n      not(sub(shl(0xe0, 0x01), 0x01))\n        /* \"#utility.yul\":772:805   */\n      swap1\n      swap2\n      and\n        /* \"#utility.yul\":754:806   */\n      dup2\n      mstore\n        /* \"#utility.yul\":742:744   */\n      0x20\n        /* \"#utility.yul\":727:745   */\n      add\n        /* \"Trash.sol\":20:210  function getTest(bytes calldata sample) external view returns(bytes4){... */\n      mload(0x40)\n      dup1\n      swap2\n      sub\n      swap1\n      return\n        /* \"#utility.yul\":14:605   */\n    tag_6:\n        /* \"#utility.yul\":84:90   */\n      0x00\n        /* \"#utility.yul\":92:98   */\n      dup1\n        /* \"#utility.yul\":145:147   */\n      0x20\n        /* \"#utility.yul\":133:142   */\n      dup4\n        /* \"#utility.yul\":124:131   */\n      dup6\n        /* \"#utility.yul\":120:143   */\n      sub\n        /* \"#utility.yul\":116:148   */\n      slt\n        /* \"#utility.yul\":113:165   */\n      iszero\n      tag_13\n      jumpi\n        /* \"#utility.yul\":161:162   */\n      0x00\n        /* \"#utility.yul\":158:159   */\n      dup1\n        /* \"#utility.yul\":151:163   */\n      revert\n        /* \"#utility.yul\":113:165   */\n    tag_13:\n        /* \"#utility.yul\":201:210   */\n      dup3\n        /* \"#utility.yul\":188:211   */\n      calldataload\n        /* \"#utility.yul\":230:248   */\n      0xffffffffffffffff\n        /* \"#utility.yul\":271:273   */\n      dup1\n        /* \"#utility.yul\":263:269   */\n      dup3\n        /* \"#utility.yul\":260:274   */\n      gt\n        /* \"#utility.yul\":257:291   */\n      iszero\n      tag_14\n      jumpi\n        /* \"#utility.yul\":287:288   */\n      0x00\n        /* \"#utility.yul\":284:285   */\n      dup1\n        /* \"#utility.yul\":277:289   */\n      revert\n        /* \"#utility.yul\":257:291   */\n    tag_14:\n        /* \"#utility.yul\":325:331   */\n      dup2\n        /* \"#utility.yul\":314:323   */\n      dup6\n        /* \"#utility.yul\":310:332   */\n      add\n        /* \"#utility.yul\":300:332   */\n      swap2\n      pop\n        /* \"#utility.yul\":370:377   */\n      dup6\n        /* \"#utility.yul\":363:367   */\n      0x1f\n        /* \"#utility.yul\":359:361   */\n      dup4\n        /* \"#utility.yul\":355:368   */\n      add\n        /* \"#utility.yul\":351:378   */\n      slt\n        /* \"#utility.yul\":341:396   */\n      tag_15\n      jumpi\n        /* \"#utility.yul\":392:393   */\n      0x00\n        /* \"#utility.yul\":389:390   */\n      dup1\n        /* \"#utility.yul\":382:394   */\n      revert\n        /* \"#utility.yul\":341:396   */\n    tag_15:\n        /* \"#utility.yul\":432:434   */\n      dup2\n        /* \"#utility.yul\":419:435   */\n      calldataload\n        /* \"#utility.yul\":458:460   */\n      dup2\n        /* \"#utility.yul\":450:456   */\n      dup2\n        /* \"#utility.yul\":447:461   */\n      gt\n        /* \"#utility.yul\":444:478   */\n      iszero\n      tag_16\n      jumpi\n        /* \"#utility.yul\":474:475   */\n      0x00\n        /* \"#utility.yul\":471:472   */\n      dup1\n        /* \"#utility.yul\":464:476   */\n      revert\n        /* \"#utility.yul\":444:478   */\n    tag_16:\n        /* \"#utility.yul\":519:526   */\n      dup7\n        /* \"#utility.yul\":514:516   */\n      0x20\n        /* \"#utility.yul\":505:511   */\n      dup3\n        /* \"#utility.yul\":501:503   */\n      dup6\n        /* \"#utility.yul\":497:512   */\n      add\n        /* \"#utility.yul\":493:517   */\n      add\n        /* \"#utility.yul\":490:527   */\n      gt\n        /* \"#utility.yul\":487:544   */\n      iszero\n      tag_17\n      jumpi\n        /* \"#utility.yul\":540:541   */\n      0x00\n        /* \"#utility.yul\":537:538   */\n      dup1\n        /* \"#utility.yul\":530:542   */\n      revert\n        /* \"#utility.yul\":487:544   */\n    tag_17:\n        /* \"#utility.yul\":571:573   */\n      0x20\n        /* \"#utility.yul\":563:574   */\n      swap3\n      swap1\n      swap3\n      add\n      swap7\n        /* \"#utility.yul\":593:599   */\n      swap2\n      swap6\n      pop\n        /* \"#utility.yul\":14:605   */\n      swap1\n      swap4\n      pop\n      pop\n      pop\n      pop\n      jump\t// out\n\n    auxdata: 0xa26469706673582212209fb47af798d2231003c68b3c48ebc1dc2951afacec04aaa4075a558647cd817964736f6c63430008150033\n}\n",
				"bytecode": {
					"linkReferences": {},
					"object": "608060405234801561000f575f80fd5b5060f48061001c5f395ff3fe6080604052348015600e575f80fd5b50600436106026575f3560e01c80639f4759a314602a575b5f80fd5b603a60353660046057565b503590565b6040516001600160e01b0319909116815260200160405180910390f35b5f80602083850312156067575f80fd5b823567ffffffffffffffff80821115607d575f80fd5b818501915085601f830112608f575f80fd5b813581811115609c575f80fd5b86602082850101111560ac575f80fd5b6020929092019691955090935050505056fea26469706673582212209fb47af798d2231003c68b3c48ebc1dc2951afacec04aaa4075a558647cd817964736f6c63430008150033",
					"opcodes": "PUSH1 0x80 PUSH1 0x40 MSTORE CALLVALUE DUP1 ISZERO PUSH2 0xF JUMPI PUSH0 DUP1 REVERT JUMPDEST POP PUSH1 0xF4 DUP1 PUSH2 0x1C PUSH0 CODECOPY PUSH0 RETURN INVALID PUSH1 0x80 PUSH1 0x40 MSTORE CALLVALUE DUP1 ISZERO PUSH1 0xE JUMPI PUSH0 DUP1 REVERT JUMPDEST POP PUSH1 0x4 CALLDATASIZE LT PUSH1 0x26 JUMPI PUSH0 CALLDATALOAD PUSH1 0xE0 SHR DUP1 PUSH4 0x9F4759A3 EQ PUSH1 0x2A JUMPI JUMPDEST PUSH0 DUP1 REVERT JUMPDEST PUSH1 0x3A PUSH1 0x35 CALLDATASIZE PUSH1 0x4 PUSH1 0x57 JUMP JUMPDEST POP CALLDATALOAD SWAP1 JUMP JUMPDEST PUSH1 0x40 MLOAD PUSH1 0x1 PUSH1 0x1 PUSH1 0xE0 SHL SUB NOT SWAP1 SWAP2 AND DUP2 MSTORE PUSH1 0x20 ADD PUSH1 0x40 MLOAD DUP1 SWAP2 SUB SWAP1 RETURN JUMPDEST PUSH0 DUP1 PUSH1 0x20 DUP4 DUP6 SUB SLT ISZERO PUSH1 0x67 JUMPI PUSH0 DUP1 REVERT JUMPDEST DUP3 CALLDATALOAD PUSH8 0xFFFFFFFFFFFFFFFF DUP1 DUP3 GT ISZERO PUSH1 0x7D JUMPI PUSH0 DUP1 REVERT JUMPDEST DUP2 DUP6 ADD SWAP2 POP DUP6 PUSH1 0x1F DUP4 ADD SLT PUSH1 0x8F JUMPI PUSH0 DUP1 REVERT JUMPDEST DUP2 CALLDATALOAD DUP2 DUP2 GT ISZERO PUSH1 0x9C JUMPI PUSH0 DUP1 REVERT JUMPDEST DUP7 PUSH1 0x20 DUP3 DUP6 ADD ADD GT ISZERO PUSH1 0xAC JUMPI PUSH0 DUP1 REVERT JUMPDEST PUSH1 0x20 SWAP3 SWAP1 SWAP3 ADD SWAP7 SWAP2 SWAP6 POP SWAP1 SWAP4 POP POP POP POP JUMP INVALID LOG2 PUSH5 0x6970667358 0x22 SLT KECCAK256 SWAP16 0xB4 PUSH27 0xF798D2231003C68B3C48EBC1DC2951AFACEC04AAA4075A558647CD DUP2 PUSH26 0x64736F6C63430008150033000000000000000000000000000000 "
				},
				"gasEstimates": {
					"creation": {
						"codeDepositCost": "48800",
						"executionCost": "97",
						"totalCost": "48897"
					},
					"external": {
						"getTest(bytes)": "440"
					}
				},
				"methodIdentifiers": {
					"getTest(bytes)": "9f4759a3"
				}
			},
			"storageLayout": {
				"storage": [],
				"types": null
			},
			"userdoc": {
				"kind": "user",
				"methods": {},
				"version": 1
			}
		}
	}
}