{
	"Test.sol": {
		"A": {
			"abi": [
				{
					"inputs": [
						{
							"internalType": "uint256[]",
							"name": "a",
							"type": "uint256[]"
						},
						{
							"internalType": "uint256[]",
							"name": "b",
							"type": "uint256[]"
						}
					],
					"name": "tryDivide",
					"outputs": [
						{
							"internalType": "uint256[]",
							"name": "",
							"type": "uint256[]"
						}
					],
					"stateMutability": "view",
					"type": "function"
				}
			],
			"devdoc": {
				"kind": "dev",
				"methods": {},
				"version": 1
			},
			"evm": {
				"assembly": "    /* \"Test.sol\":0:418  contract A{... */\n  mstore(0x40, 0x80)\n  callvalue\n  dup1\n  iszero\n  tag_1\n  jumpi\n  0x00\n  dup1\n  revert\ntag_1:\n  pop\n  dataSize(sub_0)\n  dup1\n  dataOffset(sub_0)\n  0x00\n  codecopy\n  0x00\n  return\nstop\n\nsub_0: assembly {\n        /* \"Test.sol\":0:418  contract A{... */\n      mstore(0x40, 0x80)\n      callvalue\n      dup1\n      iszero\n      tag_1\n      jumpi\n      0x00\n      dup1\n      revert\n    tag_1:\n      pop\n      jumpi(tag_2, lt(calldatasize, 0x04))\n      shr(0xe0, calldataload(0x00))\n      dup1\n      0xea9df580\n      eq\n      tag_3\n      jumpi\n    tag_2:\n      0x00\n      dup1\n      revert\n        /* \"Test.sol\":16:416  function tryDivide(uint256[] calldata a, uint256[] calldata b) external view returns(uint256[] memory){... */\n    tag_3:\n      tag_4\n      tag_5\n      calldatasize\n      0x04\n      tag_6\n      jump\t// in\n    tag_5:\n      tag_7\n      jump\t// in\n    tag_4:\n      mload(0x40)\n      tag_8\n      swap2\n      swap1\n      tag_9\n      jump\t// in\n    tag_8:\n      mload(0x40)\n      dup1\n      swap2\n      sub\n      swap1\n      return\n    tag_7:\n        /* \"Test.sol\":101:117  uint256[] memory */\n      0x60\n        /* \"Test.sol\":146:147  a */\n      dup4\n        /* \"Test.sol\":182:183  b */\n      dup3\n        /* \"Test.sol\":208:226  alength == blength */\n      dup1\n      dup3\n      eq\n        /* \"Test.sol\":200:227  require(alength == blength) */\n      tag_11\n      jumpi\n      0x00\n      dup1\n      revert\n    tag_11:\n        /* \"Test.sol\":237:260  uint256[] memory result */\n      0x60\n        /* \"Test.sol\":274:280  uint i */\n      0x00\n        /* \"Test.sol\":270:410  for(uint i=0; i <alength;i++){... */\n    tag_12:\n        /* \"Test.sol\":287:294  alength */\n      dup4\n        /* \"Test.sol\":284:285  i */\n      dup2\n        /* \"Test.sol\":284:294  i <alength */\n      lt\n        /* \"Test.sol\":270:410  for(uint i=0; i <alength;i++){... */\n      iszero\n      tag_13\n      jumpi\n        /* \"Test.sol\":313:328  uint256 resultX */\n      0x00\n        /* \"Test.sol\":336:337  b */\n      dup8\n      dup8\n        /* \"Test.sol\":338:339  i */\n      dup4\n        /* \"Test.sol\":336:340  b[i] */\n      dup2\n      dup2\n      lt\n      tag_16\n      jumpi\n      tag_16\n      tag_17\n      jump\t// in\n    tag_16:\n      swap1\n      pop\n      0x20\n      mul\n      add\n      calldataload\n        /* \"Test.sol\":331:332  a */\n      dup11\n      dup11\n        /* \"Test.sol\":333:334  i */\n      dup5\n        /* \"Test.sol\":331:335  a[i] */\n      dup2\n      dup2\n      lt\n      tag_19\n      jumpi\n      tag_19\n      tag_17\n      jump\t// in\n    tag_19:\n      swap1\n      pop\n      0x20\n      mul\n      add\n      calldataload\n        /* \"Test.sol\":331:340  a[i]/b[i] */\n      tag_20\n      swap2\n      swap1\n      tag_21\n      jump\t// in\n    tag_20:\n        /* \"Test.sol\":313:340  uint256 resultX = a[i]/b[i] */\n      swap1\n      pop\n      pop\n        /* \"Test.sol\":295:298  i++ */\n      dup1\n      tag_23\n      dup2\n      tag_24\n      jump\t// in\n    tag_23:\n      swap2\n      pop\n      pop\n        /* \"Test.sol\":270:410  for(uint i=0; i <alength;i++){... */\n      jump(tag_12)\n    tag_13:\n      pop\n        /* \"Test.sol\":118:416  {... */\n      pop\n      pop\n      pop\n        /* \"Test.sol\":16:416  function tryDivide(uint256[] calldata a, uint256[] calldata b) external view returns(uint256[] memory){... */\n      swap5\n      swap4\n      pop\n      pop\n      pop\n      pop\n      jump\t// out\n        /* \"#utility.yul\":14:381   */\n    tag_25:\n        /* \"#utility.yul\":77:85   */\n      0x00\n        /* \"#utility.yul\":87:93   */\n      dup1\n        /* \"#utility.yul\":141:144   */\n      dup4\n        /* \"#utility.yul\":134:138   */\n      0x1f\n        /* \"#utility.yul\":126:132   */\n      dup5\n        /* \"#utility.yul\":122:139   */\n      add\n        /* \"#utility.yul\":118:145   */\n      slt\n        /* \"#utility.yul\":108:163   */\n      tag_28\n      jumpi\n        /* \"#utility.yul\":159:160   */\n      0x00\n        /* \"#utility.yul\":156:157   */\n      dup1\n        /* \"#utility.yul\":149:161   */\n      revert\n        /* \"#utility.yul\":108:163   */\n    tag_28:\n      pop\n        /* \"#utility.yul\":182:202   */\n      dup2\n      calldataload\n        /* \"#utility.yul\":225:243   */\n      0xffffffffffffffff\n        /* \"#utility.yul\":214:244   */\n      dup2\n      gt\n        /* \"#utility.yul\":211:261   */\n      iszero\n      tag_29\n      jumpi\n        /* \"#utility.yul\":257:258   */\n      0x00\n        /* \"#utility.yul\":254:255   */\n      dup1\n        /* \"#utility.yul\":247:259   */\n      revert\n        /* \"#utility.yul\":211:261   */\n    tag_29:\n        /* \"#utility.yul\":294:298   */\n      0x20\n        /* \"#utility.yul\":286:292   */\n      dup4\n        /* \"#utility.yul\":282:299   */\n      add\n        /* \"#utility.yul\":270:299   */\n      swap2\n      pop\n        /* \"#utility.yul\":354:357   */\n      dup4\n        /* \"#utility.yul\":347:351   */\n      0x20\n        /* \"#utility.yul\":337:343   */\n      dup3\n        /* \"#utility.yul\":334:335   */\n      0x05\n        /* \"#utility.yul\":330:344   */\n      shl\n        /* \"#utility.yul\":322:328   */\n      dup6\n        /* \"#utility.yul\":318:345   */\n      add\n        /* \"#utility.yul\":314:352   */\n      add\n        /* \"#utility.yul\":311:358   */\n      gt\n        /* \"#utility.yul\":308:375   */\n      iszero\n      tag_30\n      jumpi\n        /* \"#utility.yul\":371:372   */\n      0x00\n        /* \"#utility.yul\":368:369   */\n      dup1\n        /* \"#utility.yul\":361:373   */\n      revert\n        /* \"#utility.yul\":308:375   */\n    tag_30:\n        /* \"#utility.yul\":14:381   */\n      swap3\n      pop\n      swap3\n      swap1\n      pop\n      jump\t// out\n        /* \"#utility.yul\":386:1159   */\n    tag_6:\n        /* \"#utility.yul\":508:514   */\n      0x00\n        /* \"#utility.yul\":516:522   */\n      dup1\n        /* \"#utility.yul\":524:530   */\n      0x00\n        /* \"#utility.yul\":532:538   */\n      dup1\n        /* \"#utility.yul\":585:587   */\n      0x40\n        /* \"#utility.yul\":573:582   */\n      dup6\n        /* \"#utility.yul\":564:571   */\n      dup8\n        /* \"#utility.yul\":560:583   */\n      sub\n        /* \"#utility.yul\":556:588   */\n      slt\n        /* \"#utility.yul\":553:605   */\n      iszero\n      tag_32\n      jumpi\n        /* \"#utility.yul\":601:602   */\n      0x00\n        /* \"#utility.yul\":598:599   */\n      dup1\n        /* \"#utility.yul\":591:603   */\n      revert\n        /* \"#utility.yul\":553:605   */\n    tag_32:\n        /* \"#utility.yul\":641:650   */\n      dup5\n        /* \"#utility.yul\":628:651   */\n      calldataload\n        /* \"#utility.yul\":670:688   */\n      0xffffffffffffffff\n        /* \"#utility.yul\":711:713   */\n      dup1\n        /* \"#utility.yul\":703:709   */\n      dup3\n        /* \"#utility.yul\":700:714   */\n      gt\n        /* \"#utility.yul\":697:731   */\n      iszero\n      tag_33\n      jumpi\n        /* \"#utility.yul\":727:728   */\n      0x00\n        /* \"#utility.yul\":724:725   */\n      dup1\n        /* \"#utility.yul\":717:729   */\n      revert\n        /* \"#utility.yul\":697:731   */\n    tag_33:\n        /* \"#utility.yul\":766:836   */\n      tag_34\n        /* \"#utility.yul\":828:835   */\n      dup9\n        /* \"#utility.yul\":819:825   */\n      dup4\n        /* \"#utility.yul\":808:817   */\n      dup10\n        /* \"#utility.yul\":804:826   */\n      add\n        /* \"#utility.yul\":766:836   */\n      tag_25\n      jump\t// in\n    tag_34:\n        /* \"#utility.yul\":855:863   */\n      swap1\n      swap7\n      pop\n        /* \"#utility.yul\":740:836   */\n      swap5\n      pop\n        /* \"#utility.yul\":943:945   */\n      0x20\n        /* \"#utility.yul\":928:946   */\n      dup8\n      add\n        /* \"#utility.yul\":915:947   */\n      calldataload\n      swap2\n      pop\n        /* \"#utility.yul\":959:975   */\n      dup1\n      dup3\n      gt\n        /* \"#utility.yul\":956:992   */\n      iszero\n      tag_35\n      jumpi\n        /* \"#utility.yul\":988:989   */\n      0x00\n        /* \"#utility.yul\":985:986   */\n      dup1\n        /* \"#utility.yul\":978:990   */\n      revert\n        /* \"#utility.yul\":956:992   */\n    tag_35:\n      pop\n        /* \"#utility.yul\":1027:1099   */\n      tag_36\n        /* \"#utility.yul\":1091:1098   */\n      dup8\n        /* \"#utility.yul\":1080:1088   */\n      dup3\n        /* \"#utility.yul\":1069:1078   */\n      dup9\n        /* \"#utility.yul\":1065:1089   */\n      add\n        /* \"#utility.yul\":1027:1099   */\n      tag_25\n      jump\t// in\n    tag_36:\n        /* \"#utility.yul\":386:1159   */\n      swap6\n      swap9\n      swap5\n      swap8\n      pop\n        /* \"#utility.yul\":1118:1126   */\n      swap6\n      pop\n      pop\n      pop\n      pop\n        /* \"#utility.yul\":386:1159   */\n      jump\t// out\n        /* \"#utility.yul\":1164:1796   */\n    tag_9:\n        /* \"#utility.yul\":1335:1337   */\n      0x20\n        /* \"#utility.yul\":1387:1408   */\n      dup1\n      dup3\n      mstore\n        /* \"#utility.yul\":1457:1470   */\n      dup3\n      mload\n        /* \"#utility.yul\":1360:1378   */\n      dup3\n      dup3\n      add\n        /* \"#utility.yul\":1479:1501   */\n      dup2\n      swap1\n      mstore\n        /* \"#utility.yul\":1306:1310   */\n      0x00\n      swap2\n        /* \"#utility.yul\":1335:1337   */\n      swap1\n        /* \"#utility.yul\":1558:1573   */\n      dup5\n      dup3\n      add\n      swap1\n        /* \"#utility.yul\":1532:1534   */\n      0x40\n        /* \"#utility.yul\":1517:1535   */\n      dup6\n      add\n      swap1\n        /* \"#utility.yul\":1306:1310   */\n      dup5\n        /* \"#utility.yul\":1601:1770   */\n    tag_38:\n        /* \"#utility.yul\":1615:1621   */\n      dup2\n        /* \"#utility.yul\":1612:1613   */\n      dup2\n        /* \"#utility.yul\":1609:1622   */\n      lt\n        /* \"#utility.yul\":1601:1770   */\n      iszero\n      tag_40\n      jumpi\n        /* \"#utility.yul\":1676:1689   */\n      dup4\n      mload\n        /* \"#utility.yul\":1664:1690   */\n      dup4\n      mstore\n        /* \"#utility.yul\":1745:1760   */\n      swap3\n      dup5\n      add\n      swap3\n        /* \"#utility.yul\":1710:1722   */\n      swap2\n      dup5\n      add\n      swap2\n        /* \"#utility.yul\":1637:1638   */\n      0x01\n        /* \"#utility.yul\":1630:1639   */\n      add\n        /* \"#utility.yul\":1601:1770   */\n      jump(tag_38)\n    tag_40:\n      pop\n        /* \"#utility.yul\":1787:1790   */\n      swap1\n      swap7\n        /* \"#utility.yul\":1164:1796   */\n      swap6\n      pop\n      pop\n      pop\n      pop\n      pop\n      pop\n      jump\t// out\n        /* \"#utility.yul\":1801:1928   */\n    tag_17:\n        /* \"#utility.yul\":1862:1872   */\n      0x4e487b71\n        /* \"#utility.yul\":1857:1860   */\n      0xe0\n        /* \"#utility.yul\":1853:1873   */\n      shl\n        /* \"#utility.yul\":1850:1851   */\n      0x00\n        /* \"#utility.yul\":1843:1874   */\n      mstore\n        /* \"#utility.yul\":1893:1897   */\n      0x32\n        /* \"#utility.yul\":1890:1891   */\n      0x04\n        /* \"#utility.yul\":1883:1898   */\n      mstore\n        /* \"#utility.yul\":1917:1921   */\n      0x24\n        /* \"#utility.yul\":1914:1915   */\n      0x00\n        /* \"#utility.yul\":1907:1922   */\n      revert\n        /* \"#utility.yul\":1933:2150   */\n    tag_21:\n        /* \"#utility.yul\":1973:1974   */\n      0x00\n        /* \"#utility.yul\":1999:2000   */\n      dup3\n        /* \"#utility.yul\":1989:2121   */\n      tag_43\n      jumpi\n        /* \"#utility.yul\":2043:2053   */\n      0x4e487b71\n        /* \"#utility.yul\":2038:2041   */\n      0xe0\n        /* \"#utility.yul\":2034:2054   */\n      shl\n        /* \"#utility.yul\":2031:2032   */\n      0x00\n        /* \"#utility.yul\":2024:2055   */\n      mstore\n        /* \"#utility.yul\":2078:2082   */\n      0x12\n        /* \"#utility.yul\":2075:2076   */\n      0x04\n        /* \"#utility.yul\":2068:2083   */\n      mstore\n        /* \"#utility.yul\":2106:2110   */\n      0x24\n        /* \"#utility.yul\":2103:2104   */\n      0x00\n        /* \"#utility.yul\":2096:2111   */\n      revert\n        /* \"#utility.yul\":1989:2121   */\n    tag_43:\n      pop\n        /* \"#utility.yul\":2135:2144   */\n      div\n      swap1\n        /* \"#utility.yul\":1933:2150   */\n      jump\t// out\n        /* \"#utility.yul\":2155:2387   */\n    tag_24:\n        /* \"#utility.yul\":2194:2197   */\n      0x00\n        /* \"#utility.yul\":2215:2232   */\n      0x01\n      dup3\n      add\n        /* \"#utility.yul\":2212:2352   */\n      tag_45\n      jumpi\n        /* \"#utility.yul\":2274:2284   */\n      0x4e487b71\n        /* \"#utility.yul\":2269:2272   */\n      0xe0\n        /* \"#utility.yul\":2265:2285   */\n      shl\n        /* \"#utility.yul\":2262:2263   */\n      0x00\n        /* \"#utility.yul\":2255:2286   */\n      mstore\n        /* \"#utility.yul\":2309:2313   */\n      0x11\n        /* \"#utility.yul\":2306:2307   */\n      0x04\n        /* \"#utility.yul\":2299:2314   */\n      mstore\n        /* \"#utility.yul\":2337:2341   */\n      0x24\n        /* \"#utility.yul\":2334:2335   */\n      0x00\n        /* \"#utility.yul\":2327:2342   */\n      revert\n        /* \"#utility.yul\":2212:2352   */\n    tag_45:\n      pop\n        /* \"#utility.yul\":2379:2380   */\n      0x01\n        /* \"#utility.yul\":2368:2381   */\n      add\n      swap1\n        /* \"#utility.yul\":2155:2387   */\n      jump\t// out\n\n    auxdata: 0xa2646970667358221220f46692946f63e4d92278c2f2524a7798e81ecbd73fc6dff0fd2dfc45afc0270c64736f6c63430008150033\n}\n",
				"bytecode": {
					"linkReferences": {},
					"object": "608060405234801561000f575f80fd5b5061024e8061001d5f395ff3fe608060405234801561000f575f80fd5b5060043610610029575f3560e01c8063ea9df5801461002d575b5f80fd5b61004061003b366004610117565b610056565b60405161004d919061017e565b60405180910390f35b60608382808214610065575f80fd5b60605f5b838110156100c3575f878783818110610084576100846101c1565b905060200201358a8a8481811061009d5761009d6101c1565b905060200201356100ae91906101d5565b905050806100bb816101f4565b915050610069565b50505050949350505050565b5f8083601f8401126100df575f80fd5b50813567ffffffffffffffff8111156100f6575f80fd5b6020830191508360208260051b8501011115610110575f80fd5b9250929050565b5f805f806040858703121561012a575f80fd5b843567ffffffffffffffff80821115610141575f80fd5b61014d888389016100cf565b90965094506020870135915080821115610165575f80fd5b50610172878288016100cf565b95989497509550505050565b602080825282518282018190525f9190848201906040850190845b818110156101b557835183529284019291840191600101610199565b50909695505050505050565b634e487b7160e01b5f52603260045260245ffd5b5f826101ef57634e487b7160e01b5f52601260045260245ffd5b500490565b5f6001820161021157634e487b7160e01b5f52601160045260245ffd5b506001019056fea2646970667358221220f46692946f63e4d92278c2f2524a7798e81ecbd73fc6dff0fd2dfc45afc0270c64736f6c63430008150033",
					"opcodes": "PUSH1 0x80 PUSH1 0x40 MSTORE CALLVALUE DUP1 ISZERO PUSH2 0xF JUMPI PUSH0 DUP1 REVERT JUMPDEST POP PUSH2 0x24E DUP1 PUSH2 0x1D PUSH0 CODECOPY PUSH0 RETURN INVALID PUSH1 0x80 PUSH1 0x40 MSTORE CALLVALUE DUP1 ISZERO PUSH2 0xF JUMPI PUSH0 DUP1 REVERT JUMPDEST POP PUSH1 0x4 CALLDATASIZE LT PUSH2 0x29 JUMPI PUSH0 CALLDATALOAD PUSH1 0xE0 SHR DUP1 PUSH4 0xEA9DF580 EQ PUSH2 0x2D JUMPI JUMPDEST PUSH0 DUP1 REVERT JUMPDEST PUSH2 0x40 PUSH2 0x3B CALLDATASIZE PUSH1 0x4 PUSH2 0x117 JUMP JUMPDEST PUSH2 0x56 JUMP JUMPDEST PUSH1 0x40 MLOAD PUSH2 0x4D SWAP2 SWAP1 PUSH2 0x17E JUMP JUMPDEST PUSH1 0x40 MLOAD DUP1 SWAP2 SUB SWAP1 RETURN JUMPDEST PUSH1 0x60 DUP4 DUP3 DUP1 DUP3 EQ PUSH2 0x65 JUMPI PUSH0 DUP1 REVERT JUMPDEST PUSH1 0x60 PUSH0 JUMPDEST DUP4 DUP2 LT ISZERO PUSH2 0xC3 JUMPI PUSH0 DUP8 DUP8 DUP4 DUP2 DUP2 LT PUSH2 0x84 JUMPI PUSH2 0x84 PUSH2 0x1C1 JUMP JUMPDEST SWAP1 POP PUSH1 0x20 MUL ADD CALLDATALOAD DUP11 DUP11 DUP5 DUP2 DUP2 LT PUSH2 0x9D JUMPI PUSH2 0x9D PUSH2 0x1C1 JUMP JUMPDEST SWAP1 POP PUSH1 0x20 MUL ADD CALLDATALOAD PUSH2 0xAE SWAP2 SWAP1 PUSH2 0x1D5 JUMP JUMPDEST SWAP1 POP POP DUP1 PUSH2 0xBB DUP2 PUSH2 0x1F4 JUMP JUMPDEST SWAP2 POP POP PUSH2 0x69 JUMP JUMPDEST POP POP POP POP SWAP5 SWAP4 POP POP POP POP JUMP JUMPDEST PUSH0 DUP1 DUP4 PUSH1 0x1F DUP5 ADD SLT PUSH2 0xDF JUMPI PUSH0 DUP1 REVERT JUMPDEST POP DUP2 CALLDATALOAD PUSH8 0xFFFFFFFFFFFFFFFF DUP2 GT ISZERO PUSH2 0xF6 JUMPI PUSH0 DUP1 REVERT JUMPDEST PUSH1 0x20 DUP4 ADD SWAP2 POP DUP4 PUSH1 0x20 DUP3 PUSH1 0x5 SHL DUP6 ADD ADD GT ISZERO PUSH2 0x110 JUMPI PUSH0 DUP1 REVERT JUMPDEST SWAP3 POP SWAP3 SWAP1 POP JUMP JUMPDEST PUSH0 DUP1 PUSH0 DUP1 PUSH1 0x40 DUP6 DUP8 SUB SLT ISZERO PUSH2 0x12A JUMPI PUSH0 DUP1 REVERT JUMPDEST DUP5 CALLDATALOAD PUSH8 0xFFFFFFFFFFFFFFFF DUP1 DUP3 GT ISZERO PUSH2 0x141 JUMPI PUSH0 DUP1 REVERT JUMPDEST PUSH2 0x14D DUP9 DUP4 DUP10 ADD PUSH2 0xCF JUMP JUMPDEST SWAP1 SWAP7 POP SWAP5 POP PUSH1 0x20 DUP8 ADD CALLDATALOAD SWAP2 POP DUP1 DUP3 GT ISZERO PUSH2 0x165 JUMPI PUSH0 DUP1 REVERT JUMPDEST POP PUSH2 0x172 DUP8 DUP3 DUP9 ADD PUSH2 0xCF JUMP JUMPDEST SWAP6 SWAP9 SWAP5 SWAP8 POP SWAP6 POP POP POP POP JUMP JUMPDEST PUSH1 0x20 DUP1 DUP3 MSTORE DUP3 MLOAD DUP3 DUP3 ADD DUP2 SWAP1 MSTORE PUSH0 SWAP2 SWAP1 DUP5 DUP3 ADD SWAP1 PUSH1 0x40 DUP6 ADD SWAP1 DUP5 JUMPDEST DUP2 DUP2 LT ISZERO PUSH2 0x1B5 JUMPI DUP4 MLOAD DUP4 MSTORE SWAP3 DUP5 ADD SWAP3 SWAP2 DUP5 ADD SWAP2 PUSH1 0x1 ADD PUSH2 0x199 JUMP JUMPDEST POP SWAP1 SWAP7 SWAP6 POP POP POP POP POP POP JUMP JUMPDEST PUSH4 0x4E487B71 PUSH1 0xE0 SHL PUSH0 MSTORE PUSH1 0x32 PUSH1 0x4 MSTORE PUSH1 0x24 PUSH0 REVERT JUMPDEST PUSH0 DUP3 PUSH2 0x1EF JUMPI PUSH4 0x4E487B71 PUSH1 0xE0 SHL PUSH0 MSTORE PUSH1 0x12 PUSH1 0x4 MSTORE PUSH1 0x24 PUSH0 REVERT JUMPDEST POP DIV SWAP1 JUMP JUMPDEST PUSH0 PUSH1 0x1 DUP3 ADD PUSH2 0x211 JUMPI PUSH4 0x4E487B71 PUSH1 0xE0 SHL PUSH0 MSTORE PUSH1 0x11 PUSH1 0x4 MSTORE PUSH1 0x24 PUSH0 REVERT JUMPDEST POP PUSH1 0x1 ADD SWAP1 JUMP INVALID LOG2 PUSH5 0x6970667358 0x22 SLT KECCAK256 DELEGATECALL PUSH7 0x92946F63E4D922 PUSH25 0xC2F2524A7798E81ECBD73FC6DFF0FD2DFC45AFC0270C64736F PUSH13 0x63430008150033000000000000 "
				},
				"gasEstimates": {
					"creation": {
						"codeDepositCost": "118000",
						"executionCost": "163",
						"totalCost": "118163"
					},
					"external": {
						"tryDivide(uint256[],uint256[])": "infinite"
					}
				},
				"methodIdentifiers": {
					"tryDivide(uint256[],uint256[])": "ea9df580"
				}
			},
			"storageLayout": {
				"storage": [],
				"types": null
			},
			"userdoc": {
				"kind": "user",
				"methods": {},
				"version": 1
			}
		}
	}
}