{
	"test.sol": {
		"A": {
			"abi": [
				{
					"inputs": [
						{
							"internalType": "uint256",
							"name": "a",
							"type": "uint256"
						},
						{
							"internalType": "uint256",
							"name": "b",
							"type": "uint256"
						}
					],
					"name": "viewData",
					"outputs": [
						{
							"internalType": "uint256",
							"name": "",
							"type": "uint256"
						}
					],
					"stateMutability": "view",
					"type": "function"
				},
				{
					"inputs": [],
					"name": "viewDataX",
					"outputs": [
						{
							"internalType": "uint256[]",
							"name": "",
							"type": "uint256[]"
						}
					],
					"stateMutability": "view",
					"type": "function"
				}
			],
			"devdoc": {
				"kind": "dev",
				"methods": {},
				"version": 1
			},
			"evm": {
				"assembly": "    /* \"test.sol\":0:188  contract A{... */\n  mstore(0x40, 0x80)\n  callvalue\n  dup1\n  iszero\n  tag_1\n  jumpi\n  0x00\n  dup1\n  revert\ntag_1:\n  pop\n  dataSize(sub_0)\n  dup1\n  dataOffset(sub_0)\n  0x00\n  codecopy\n  0x00\n  return\nstop\n\nsub_0: assembly {\n        /* \"test.sol\":0:188  contract A{... */\n      mstore(0x40, 0x80)\n      callvalue\n      dup1\n      iszero\n      tag_1\n      jumpi\n      0x00\n      dup1\n      revert\n    tag_1:\n      pop\n      jumpi(tag_2, lt(calldatasize, 0x04))\n      shr(0xe0, calldataload(0x00))\n      dup1\n      0x442f35a8\n      eq\n      tag_3\n      jumpi\n      dup1\n      0xb8cc41cb\n      eq\n      tag_4\n      jumpi\n    tag_2:\n      0x00\n      dup1\n      revert\n        /* \"test.sol\":121:186  function viewDataX() public view returns(uint256[] memory){... */\n    tag_3:\n        /* \"test.sol\":162:178  uint256[] memory */\n      0x60\n        /* \"test.sol\":121:186  function viewDataX() public view returns(uint256[] memory){... */\n      mload(0x40)\n      tag_7\n      swap2\n      swap1\n      tag_8\n      jump\t// in\n    tag_7:\n      mload(0x40)\n      dup1\n      swap2\n      sub\n      swap1\n      return\n        /* \"test.sol\":18:115  function viewData(uint256 a, uint256 b) public view returns(uint256){... */\n    tag_4:\n      tag_9\n      tag_10\n      calldatasize\n      0x04\n      tag_11\n      jump\t// in\n    tag_10:\n      tag_12\n      jump\t// in\n    tag_9:\n      mload(0x40)\n        /* \"#utility.yul\":1050:1075   */\n      swap1\n      dup2\n      mstore\n        /* \"#utility.yul\":1038:1040   */\n      0x20\n        /* \"#utility.yul\":1023:1041   */\n      add\n        /* \"test.sol\":18:115  function viewData(uint256 a, uint256 b) public view returns(uint256){... */\n      tag_7\n        /* \"#utility.yul\":904:1081   */\n      jump\n        /* \"test.sol\":18:115  function viewData(uint256 a, uint256 b) public view returns(uint256){... */\n    tag_12:\n        /* \"test.sol\":78:85  uint256 */\n      0x00\n        /* \"test.sol\":103:108  a % b */\n      tag_17\n        /* \"test.sol\":107:108  b */\n      dup3\n        /* \"test.sol\":103:104  a */\n      dup5\n        /* \"test.sol\":103:108  a % b */\n      tag_18\n      jump\t// in\n    tag_17:\n        /* \"test.sol\":96:108  return a % b */\n      swap4\n        /* \"test.sol\":18:115  function viewData(uint256 a, uint256 b) public view returns(uint256){... */\n      swap3\n      pop\n      pop\n      pop\n      jump\t// out\n        /* \"#utility.yul\":14:646   */\n    tag_8:\n        /* \"#utility.yul\":185:187   */\n      0x20\n        /* \"#utility.yul\":237:258   */\n      dup1\n      dup3\n      mstore\n        /* \"#utility.yul\":307:320   */\n      dup3\n      mload\n        /* \"#utility.yul\":210:228   */\n      dup3\n      dup3\n      add\n        /* \"#utility.yul\":329:351   */\n      dup2\n      swap1\n      mstore\n        /* \"#utility.yul\":156:160   */\n      0x00\n      swap2\n        /* \"#utility.yul\":185:187   */\n      swap1\n        /* \"#utility.yul\":408:423   */\n      dup5\n      dup3\n      add\n      swap1\n        /* \"#utility.yul\":382:384   */\n      0x40\n        /* \"#utility.yul\":367:385   */\n      dup6\n      add\n      swap1\n        /* \"#utility.yul\":156:160   */\n      dup5\n        /* \"#utility.yul\":451:620   */\n    tag_21:\n        /* \"#utility.yul\":465:471   */\n      dup2\n        /* \"#utility.yul\":462:463   */\n      dup2\n        /* \"#utility.yul\":459:472   */\n      lt\n        /* \"#utility.yul\":451:620   */\n      iszero\n      tag_23\n      jumpi\n        /* \"#utility.yul\":526:539   */\n      dup4\n      mload\n        /* \"#utility.yul\":514:540   */\n      dup4\n      mstore\n        /* \"#utility.yul\":595:610   */\n      swap3\n      dup5\n      add\n      swap3\n        /* \"#utility.yul\":560:572   */\n      swap2\n      dup5\n      add\n      swap2\n        /* \"#utility.yul\":487:488   */\n      0x01\n        /* \"#utility.yul\":480:489   */\n      add\n        /* \"#utility.yul\":451:620   */\n      jump(tag_21)\n    tag_23:\n      pop\n        /* \"#utility.yul\":637:640   */\n      swap1\n      swap7\n        /* \"#utility.yul\":14:646   */\n      swap6\n      pop\n      pop\n      pop\n      pop\n      pop\n      pop\n      jump\t// out\n        /* \"#utility.yul\":651:899   */\n    tag_11:\n        /* \"#utility.yul\":719:725   */\n      0x00\n        /* \"#utility.yul\":727:733   */\n      dup1\n        /* \"#utility.yul\":780:782   */\n      0x40\n        /* \"#utility.yul\":768:777   */\n      dup4\n        /* \"#utility.yul\":759:766   */\n      dup6\n        /* \"#utility.yul\":755:778   */\n      sub\n        /* \"#utility.yul\":751:783   */\n      slt\n        /* \"#utility.yul\":748:800   */\n      iszero\n      tag_25\n      jumpi\n        /* \"#utility.yul\":796:797   */\n      0x00\n        /* \"#utility.yul\":793:794   */\n      dup1\n        /* \"#utility.yul\":786:798   */\n      revert\n        /* \"#utility.yul\":748:800   */\n    tag_25:\n      pop\n      pop\n        /* \"#utility.yul\":819:842   */\n      dup1\n      calldataload\n      swap3\n        /* \"#utility.yul\":889:891   */\n      0x20\n        /* \"#utility.yul\":874:892   */\n      swap1\n      swap2\n      add\n        /* \"#utility.yul\":861:893   */\n      calldataload\n      swap2\n      pop\n        /* \"#utility.yul\":651:899   */\n      jump\t// out\n        /* \"#utility.yul\":1086:1295   */\n    tag_18:\n        /* \"#utility.yul\":1118:1119   */\n      0x00\n        /* \"#utility.yul\":1144:1145   */\n      dup3\n        /* \"#utility.yul\":1134:1266   */\n      tag_28\n      jumpi\n        /* \"#utility.yul\":1188:1198   */\n      0x4e487b71\n        /* \"#utility.yul\":1183:1186   */\n      0xe0\n        /* \"#utility.yul\":1179:1199   */\n      shl\n        /* \"#utility.yul\":1176:1177   */\n      0x00\n        /* \"#utility.yul\":1169:1200   */\n      mstore\n        /* \"#utility.yul\":1223:1227   */\n      0x12\n        /* \"#utility.yul\":1220:1221   */\n      0x04\n        /* \"#utility.yul\":1213:1228   */\n      mstore\n        /* \"#utility.yul\":1251:1255   */\n      0x24\n        /* \"#utility.yul\":1248:1249   */\n      0x00\n        /* \"#utility.yul\":1241:1256   */\n      revert\n        /* \"#utility.yul\":1134:1266   */\n    tag_28:\n      pop\n        /* \"#utility.yul\":1280:1289   */\n      mod\n      swap1\n        /* \"#utility.yul\":1086:1295   */\n      jump\t// out\n\n    auxdata: 0xa2646970667358221220599cf251ff614adb8bfcbec407cb16ca6cc3bba9a851e22b68d81790a294211f64736f6c63430008150033\n}\n",
				"bytecode": {
					"linkReferences": {},
					"object": "608060405234801561000f575f80fd5b5061012a8061001d5f395ff3fe6080604052348015600e575f80fd5b50600436106030575f3560e01c8063442f35a8146034578063b8cc41cb14604a575b5f80fd5b6060604051604191906076565b60405180910390f35b6059605536600460b7565b6066565b6040519081526020016041565b5f606f828460d6565b9392505050565b602080825282518282018190525f9190848201906040850190845b8181101560ab578351835292840192918401916001016091565b50909695505050505050565b5f806040838503121560c7575f80fd5b50508035926020909101359150565b5f8260ef57634e487b7160e01b5f52601260045260245ffd5b50069056fea2646970667358221220599cf251ff614adb8bfcbec407cb16ca6cc3bba9a851e22b68d81790a294211f64736f6c63430008150033",
					"opcodes": "PUSH1 0x80 PUSH1 0x40 MSTORE CALLVALUE DUP1 ISZERO PUSH2 0xF JUMPI PUSH0 DUP1 REVERT JUMPDEST POP PUSH2 0x12A DUP1 PUSH2 0x1D PUSH0 CODECOPY PUSH0 RETURN INVALID PUSH1 0x80 PUSH1 0x40 MSTORE CALLVALUE DUP1 ISZERO PUSH1 0xE JUMPI PUSH0 DUP1 REVERT JUMPDEST POP PUSH1 0x4 CALLDATASIZE LT PUSH1 0x30 JUMPI PUSH0 CALLDATALOAD PUSH1 0xE0 SHR DUP1 PUSH4 0x442F35A8 EQ PUSH1 0x34 JUMPI DUP1 PUSH4 0xB8CC41CB EQ PUSH1 0x4A JUMPI JUMPDEST PUSH0 DUP1 REVERT JUMPDEST PUSH1 0x60 PUSH1 0x40 MLOAD PUSH1 0x41 SWAP2 SWAP1 PUSH1 0x76 JUMP JUMPDEST PUSH1 0x40 MLOAD DUP1 SWAP2 SUB SWAP1 RETURN JUMPDEST PUSH1 0x59 PUSH1 0x55 CALLDATASIZE PUSH1 0x4 PUSH1 0xB7 JUMP JUMPDEST PUSH1 0x66 JUMP JUMPDEST PUSH1 0x40 MLOAD SWAP1 DUP2 MSTORE PUSH1 0x20 ADD PUSH1 0x41 JUMP JUMPDEST PUSH0 PUSH1 0x6F DUP3 DUP5 PUSH1 0xD6 JUMP JUMPDEST SWAP4 SWAP3 POP POP POP JUMP JUMPDEST PUSH1 0x20 DUP1 DUP3 MSTORE DUP3 MLOAD DUP3 DUP3 ADD DUP2 SWAP1 MSTORE PUSH0 SWAP2 SWAP1 DUP5 DUP3 ADD SWAP1 PUSH1 0x40 DUP6 ADD SWAP1 DUP5 JUMPDEST DUP2 DUP2 LT ISZERO PUSH1 0xAB JUMPI DUP4 MLOAD DUP4 MSTORE SWAP3 DUP5 ADD SWAP3 SWAP2 DUP5 ADD SWAP2 PUSH1 0x1 ADD PUSH1 0x91 JUMP JUMPDEST POP SWAP1 SWAP7 SWAP6 POP POP POP POP POP POP JUMP JUMPDEST PUSH0 DUP1 PUSH1 0x40 DUP4 DUP6 SUB SLT ISZERO PUSH1 0xC7 JUMPI PUSH0 DUP1 REVERT JUMPDEST POP POP DUP1 CALLDATALOAD SWAP3 PUSH1 0x20 SWAP1 SWAP2 ADD CALLDATALOAD SWAP2 POP JUMP JUMPDEST PUSH0 DUP3 PUSH1 0xEF JUMPI PUSH4 0x4E487B71 PUSH1 0xE0 SHL PUSH0 MSTORE PUSH1 0x12 PUSH1 0x4 MSTORE PUSH1 0x24 PUSH0 REVERT JUMPDEST POP MOD SWAP1 JUMP INVALID LOG2 PUSH5 0x6970667358 0x22 SLT KECCAK256 MSIZE SWAP13 CALLCODE MLOAD SELFDESTRUCT PUSH2 0x4ADB DUP12 0xFC 0xBE 0xC4 SMOD 0xCB AND 0xCA PUSH13 0xC3BBA9A851E22B68D81790A294 0x21 0x1F PUSH5 0x736F6C6343 STOP ADDMOD ISZERO STOP CALLER "
				},
				"gasEstimates": {
					"creation": {
						"codeDepositCost": "59600",
						"executionCost": "109",
						"totalCost": "59709"
					},
					"external": {
						"viewData(uint256,uint256)": "372",
						"viewDataX()": "infinite"
					}
				},
				"methodIdentifiers": {
					"viewData(uint256,uint256)": "b8cc41cb",
					"viewDataX()": "442f35a8"
				}
			},
			"storageLayout": {
				"storage": [],
				"types": null
			},
			"userdoc": {
				"kind": "user",
				"methods": {},
				"version": 1
			}
		}
	}
}