{
	"RewardReserve.sol": {
		"RewardReserve": {
			"abi": [
				{
					"inputs": [
						{
							"internalType": "address",
							"name": "registryAddress",
							"type": "address"
						}
					],
					"name": "changeRegistryContractAddr",
					"outputs": [],
					"stateMutability": "nonpayable",
					"type": "function"
				},
				{
					"inputs": [
						{
							"internalType": "address",
							"name": "registryAddress",
							"type": "address"
						}
					],
					"name": "initialize",
					"outputs": [],
					"stateMutability": "nonpayable",
					"type": "function"
				},
				{
					"inputs": [
						{
							"internalType": "address",
							"name": "token",
							"type": "address"
						},
						{
							"internalType": "uint256",
							"name": "amount",
							"type": "uint256"
						},
						{
							"internalType": "address",
							"name": "to",
							"type": "address"
						}
					],
					"name": "transferReward",
					"outputs": [],
					"stateMutability": "nonpayable",
					"type": "function"
				}
			],
			"devdoc": {
				"kind": "dev",
				"methods": {},
				"version": 1
			},
			"evm": {
				"assembly": "    /* \"RewardReserve.sol\":343:1498  contract RewardReserve{... */\n  mstore(0x40, 0x80)\n  callvalue\n  dup1\n  iszero\n  tag_1\n  jumpi\n  0x00\n  dup1\n  revert\ntag_1:\n  pop\n  dataSize(sub_0)\n  dup1\n  dataOffset(sub_0)\n  0x00\n  codecopy\n  0x00\n  return\nstop\n\nsub_0: assembly {\n        /* \"RewardReserve.sol\":343:1498  contract RewardReserve{... */\n      mstore(0x40, 0x80)\n      callvalue\n      dup1\n      iszero\n      tag_1\n      jumpi\n      0x00\n      dup1\n      revert\n    tag_1:\n      pop\n      jumpi(tag_2, lt(calldatasize, 0x04))\n      shr(0xe0, calldataload(0x00))\n      dup1\n      0x431a08b0\n      eq\n      tag_3\n      jumpi\n      dup1\n      0xc4d66de8\n      eq\n      tag_4\n      jumpi\n      dup1\n      0xfa7c828a\n      eq\n      tag_5\n      jumpi\n    tag_2:\n      0x00\n      dup1\n      revert\n        /* \"RewardReserve.sol\":1353:1496  function transferReward(address token, uint256 amount, address to) external onlyValidPool{... */\n    tag_3:\n      tag_6\n      tag_7\n      calldatasize\n      0x04\n      tag_8\n      jump\t// in\n    tag_7:\n      tag_9\n      jump\t// in\n    tag_6:\n      stop\n        /* \"RewardReserve.sol\":875:1085  function initialize(address registryAddress) external{... */\n    tag_4:\n      tag_6\n      tag_11\n      calldatasize\n      0x04\n      tag_12\n      jump\t// in\n    tag_11:\n      tag_13\n      jump\t// in\n        /* \"RewardReserve.sol\":1212:1346  function changeRegistryContractAddr(address registryAddress) external onlyOwner{... */\n    tag_5:\n      tag_6\n      tag_15\n      calldatasize\n      0x04\n      tag_12\n      jump\t// in\n    tag_15:\n      tag_16\n      jump\t// in\n        /* \"RewardReserve.sol\":1353:1496  function transferReward(address token, uint256 amount, address to) external onlyValidPool{... */\n    tag_9:\n        /* \"RewardReserve.sol\":652:666  address router */\n      0x00\n        /* \"RewardReserve.sol\":683:699  registryContract */\n      dup1\n      0x00\n      swap1\n      sload\n      swap1\n      0x0100\n      exp\n      swap1\n      div\n      sub(shl(0xa0, 0x01), 0x01)\n      and\n      sub(shl(0xa0, 0x01), 0x01)\n        /* \"RewardReserve.sol\":669:710  IRoleRegistry(registryContract).getRouter */\n      and\n      0xb0f479a1\n        /* \"RewardReserve.sol\":669:712  IRoleRegistry(registryContract).getRouter() */\n      mload(0x40)\n      dup2\n      0xffffffff\n      and\n      0xe0\n      shl\n      dup2\n      mstore\n      0x04\n      add\n      0x20\n      mload(0x40)\n      dup1\n      dup4\n      sub\n      dup2\n      dup7\n      gas\n      staticcall\n      iszero\n      dup1\n      iszero\n      tag_19\n      jumpi\n      returndatasize\n      0x00\n      dup1\n      returndatacopy\n      revert(0x00, returndatasize)\n    tag_19:\n      pop\n      pop\n      pop\n      pop\n      mload(0x40)\n      returndatasize\n      not(0x1f)\n      0x1f\n      dup3\n      add\n      and\n      dup3\n      add\n      dup1\n      0x40\n      mstore\n      pop\n      dup2\n      add\n      swap1\n      tag_20\n      swap2\n      swap1\n      tag_21\n      jump\t// in\n    tag_20:\n        /* \"RewardReserve.sol\":730:771  IRouter(router).isPoolAllowed(msg.sender) */\n      mload(0x40)\n      shl(0xe2, 0x3479c725)\n      dup2\n      mstore\n        /* \"RewardReserve.sol\":760:770  msg.sender */\n      caller\n        /* \"RewardReserve.sol\":730:771  IRouter(router).isPoolAllowed(msg.sender) */\n      0x04\n      dup3\n      add\n        /* \"#utility.yul\":1265:1316   */\n      mstore\n        /* \"RewardReserve.sol\":652:712  address router = IRoleRegistry(registryContract).getRouter() */\n      swap1\n      swap2\n      pop\n      sub(shl(0xa0, 0x01), 0x01)\n        /* \"RewardReserve.sol\":730:759  IRouter(router).isPoolAllowed */\n      dup3\n      and\n      swap1\n      0xd1e71c94\n      swap1\n        /* \"#utility.yul\":1238:1256   */\n      0x24\n      add\n        /* \"RewardReserve.sol\":730:771  IRouter(router).isPoolAllowed(msg.sender) */\n      0x20\n      mload(0x40)\n      dup1\n      dup4\n      sub\n      dup2\n      dup7\n      gas\n      staticcall\n      iszero\n      dup1\n      iszero\n      tag_25\n      jumpi\n      returndatasize\n      0x00\n      dup1\n      returndatacopy\n      revert(0x00, returndatasize)\n    tag_25:\n      pop\n      pop\n      pop\n      pop\n      mload(0x40)\n      returndatasize\n      not(0x1f)\n      0x1f\n      dup3\n      add\n      and\n      dup3\n      add\n      dup1\n      0x40\n      mstore\n      pop\n      dup2\n      add\n      swap1\n      tag_26\n      swap2\n      swap1\n      tag_27\n      jump\t// in\n    tag_26:\n        /* \"RewardReserve.sol\":722:789  require(IRouter(router).isPoolAllowed(msg.sender),\"Invalid caller\") */\n      tag_28\n      jumpi\n      mload(0x40)\n      shl(0xe5, 0x461bcd)\n      dup2\n      mstore\n        /* \"#utility.yul\":1811:1813   */\n      0x20\n        /* \"RewardReserve.sol\":722:789  require(IRouter(router).isPoolAllowed(msg.sender),\"Invalid caller\") */\n      0x04\n      dup3\n      add\n        /* \"#utility.yul\":1793:1814   */\n      mstore\n        /* \"#utility.yul\":1850:1852   */\n      0x0e\n        /* \"#utility.yul\":1830:1848   */\n      0x24\n      dup3\n      add\n        /* \"#utility.yul\":1823:1853   */\n      mstore\n      shl(0x91, 0x24b73b30b634b21031b0b63632b9)\n        /* \"#utility.yul\":1869:1887   */\n      0x44\n      dup3\n      add\n        /* \"#utility.yul\":1862:1906   */\n      mstore\n        /* \"#utility.yul\":1923:1941   */\n      0x64\n      add\n        /* \"RewardReserve.sol\":722:789  require(IRouter(router).isPoolAllowed(msg.sender),\"Invalid caller\") */\n    tag_29:\n      mload(0x40)\n      dup1\n      swap2\n      sub\n      swap1\n      revert\n    tag_28:\n        /* \"RewardReserve.sol\":1452:1489  IERC20(token).safeTransfer(to,amount) */\n      tag_32\n      sub(shl(0xa0, 0x01), 0x01)\n        /* \"RewardReserve.sol\":1452:1478  IERC20(token).safeTransfer */\n      dup6\n      and\n        /* \"RewardReserve.sol\":1479:1481  to */\n      dup4\n        /* \"RewardReserve.sol\":1482:1488  amount */\n      dup6\n        /* \"RewardReserve.sol\":1452:1478  IERC20(token).safeTransfer */\n      tag_33\n        /* \"RewardReserve.sol\":1452:1489  IERC20(token).safeTransfer(to,amount) */\n      jump\t// in\n    tag_32:\n        /* \"RewardReserve.sol\":642:869  {... */\n      pop\n        /* \"RewardReserve.sol\":1353:1496  function transferReward(address token, uint256 amount, address to) external onlyValidPool{... */\n      pop\n      pop\n      pop\n      jump\t// out\n        /* \"RewardReserve.sol\":875:1085  function initialize(address registryAddress) external{... */\n    tag_13:\n        /* \"RewardReserve.sol\":946:957  initialized */\n      sload(0x00)\n      shl(0xa0, 0x01)\n      swap1\n      div\n      0xff\n      and\n        /* \"RewardReserve.sol\":946:966  initialized == false */\n      iszero\n        /* \"RewardReserve.sol\":938:1002  require(initialized == false, \"Contract is initialized already\") */\n      tag_35\n      jumpi\n      mload(0x40)\n      shl(0xe5, 0x461bcd)\n      dup2\n      mstore\n        /* \"#utility.yul\":2154:2156   */\n      0x20\n        /* \"RewardReserve.sol\":938:1002  require(initialized == false, \"Contract is initialized already\") */\n      0x04\n      dup3\n      add\n        /* \"#utility.yul\":2136:2157   */\n      mstore\n        /* \"#utility.yul\":2193:2195   */\n      0x1f\n        /* \"#utility.yul\":2173:2191   */\n      0x24\n      dup3\n      add\n        /* \"#utility.yul\":2166:2196   */\n      mstore\n        /* \"#utility.yul\":2232:2265   */\n      0x436f6e747261637420697320696e697469616c697a656420616c726561647900\n        /* \"#utility.yul\":2212:2230   */\n      0x44\n      dup3\n      add\n        /* \"#utility.yul\":2205:2266   */\n      mstore\n        /* \"#utility.yul\":2283:2301   */\n      0x64\n      add\n        /* \"RewardReserve.sol\":938:1002  require(initialized == false, \"Contract is initialized already\") */\n      tag_29\n        /* \"#utility.yul\":1952:2307   */\n      jump\n        /* \"RewardReserve.sol\":938:1002  require(initialized == false, \"Contract is initialized already\") */\n    tag_35:\n        /* \"RewardReserve.sol\":1012:1050  _transferRegistryAddr(registryAddress) */\n      tag_38\n        /* \"RewardReserve.sol\":1034:1049  registryAddress */\n      dup2\n        /* \"RewardReserve.sol\":1012:1033  _transferRegistryAddr */\n      tag_39\n        /* \"RewardReserve.sol\":1012:1050  _transferRegistryAddr(registryAddress) */\n      jump\t// in\n    tag_38:\n      pop\n        /* \"RewardReserve.sol\":1060:1071  initialized */\n      0x00\n        /* \"RewardReserve.sol\":1060:1078  initialized = true */\n      dup1\n      sload\n      not(shl(0xa0, 0xff))\n      and\n      shl(0xa0, 0x01)\n      or\n      swap1\n      sstore\n        /* \"RewardReserve.sol\":875:1085  function initialize(address registryAddress) external{... */\n      jump\t// out\n        /* \"RewardReserve.sol\":1212:1346  function changeRegistryContractAddr(address registryAddress) external onlyOwner{... */\n    tag_16:\n        /* \"RewardReserve.sol\":485:497  address role */\n      0x00\n        /* \"RewardReserve.sol\":514:530  registryContract */\n      dup1\n      0x00\n      swap1\n      sload\n      swap1\n      0x0100\n      exp\n      swap1\n      div\n      sub(shl(0xa0, 0x01), 0x01)\n      and\n      sub(shl(0xa0, 0x01), 0x01)\n        /* \"RewardReserve.sol\":500:540  IRoleRegistry(registryContract).getOwner */\n      and\n      0x893d20e8\n        /* \"RewardReserve.sol\":500:542  IRoleRegistry(registryContract).getOwner() */\n      mload(0x40)\n      dup2\n      0xffffffff\n      and\n      0xe0\n      shl\n      dup2\n      mstore\n      0x04\n      add\n      0x20\n      mload(0x40)\n      dup1\n      dup4\n      sub\n      dup2\n      dup7\n      gas\n      staticcall\n      iszero\n      dup1\n      iszero\n      tag_42\n      jumpi\n      returndatasize\n      0x00\n      dup1\n      returndatacopy\n      revert(0x00, returndatasize)\n    tag_42:\n      pop\n      pop\n      pop\n      pop\n      mload(0x40)\n      returndatasize\n      not(0x1f)\n      0x1f\n      dup3\n      add\n      and\n      dup3\n      add\n      dup1\n      0x40\n      mstore\n      pop\n      dup2\n      add\n      swap1\n      tag_43\n      swap2\n      swap1\n      tag_21\n      jump\t// in\n    tag_43:\n        /* \"RewardReserve.sol\":485:542  address role = IRoleRegistry(registryContract).getOwner() */\n      swap1\n      pop\n        /* \"RewardReserve.sol\":560:570  msg.sender */\n      caller\n      sub(shl(0xa0, 0x01), 0x01)\n        /* \"RewardReserve.sol\":560:578  msg.sender == role */\n      dup3\n      and\n      eq\n        /* \"RewardReserve.sol\":552:597  require(msg.sender == role, \"Invalid caller\") */\n      tag_44\n      jumpi\n      mload(0x40)\n      shl(0xe5, 0x461bcd)\n      dup2\n      mstore\n        /* \"#utility.yul\":1811:1813   */\n      0x20\n        /* \"RewardReserve.sol\":552:597  require(msg.sender == role, \"Invalid caller\") */\n      0x04\n      dup3\n      add\n        /* \"#utility.yul\":1793:1814   */\n      mstore\n        /* \"#utility.yul\":1850:1852   */\n      0x0e\n        /* \"#utility.yul\":1830:1848   */\n      0x24\n      dup3\n      add\n        /* \"#utility.yul\":1823:1853   */\n      mstore\n      shl(0x91, 0x24b73b30b634b21031b0b63632b9)\n        /* \"#utility.yul\":1869:1887   */\n      0x44\n      dup3\n      add\n        /* \"#utility.yul\":1862:1906   */\n      mstore\n        /* \"#utility.yul\":1923:1941   */\n      0x64\n      add\n        /* \"RewardReserve.sol\":552:597  require(msg.sender == role, \"Invalid caller\") */\n      tag_29\n        /* \"#utility.yul\":1609:1947   */\n      jump\n        /* \"RewardReserve.sol\":552:597  require(msg.sender == role, \"Invalid caller\") */\n    tag_44:\n        /* \"RewardReserve.sol\":1301:1339  _transferRegistryAddr(registryAddress) */\n      tag_47\n        /* \"RewardReserve.sol\":1323:1338  registryAddress */\n      dup3\n        /* \"RewardReserve.sol\":1301:1322  _transferRegistryAddr */\n      tag_39\n        /* \"RewardReserve.sol\":1301:1339  _transferRegistryAddr(registryAddress) */\n      jump\t// in\n    tag_47:\n        /* \"RewardReserve.sol\":475:615  {... */\n      pop\n        /* \"RewardReserve.sol\":1212:1346  function changeRegistryContractAddr(address registryAddress) external onlyOwner{... */\n      pop\n      jump\t// out\n        /* \"@openzeppelin/contracts/token/ERC20/utils/SafeERC20.sol\":941:1116  function safeTransfer(IERC20 token, address to, uint256 value) internal {... */\n    tag_33:\n        /* \"@openzeppelin/contracts/token/ERC20/utils/SafeERC20.sol\":1050:1108  abi.encodeWithSelector(token.transfer.selector, to, value) */\n      0x40\n      dup1\n      mload\n      sub(shl(0xa0, 0x01), 0x01)\n        /* \"#utility.yul\":2504:2536   */\n      dup5\n      and\n        /* \"@openzeppelin/contracts/token/ERC20/utils/SafeERC20.sol\":1050:1108  abi.encodeWithSelector(token.transfer.selector, to, value) */\n      0x24\n      dup3\n      add\n        /* \"#utility.yul\":2486:2537   */\n      mstore\n        /* \"#utility.yul\":2553:2571   */\n      0x44\n      dup1\n      dup3\n      add\n        /* \"#utility.yul\":2546:2580   */\n      dup5\n      swap1\n      mstore\n        /* \"@openzeppelin/contracts/token/ERC20/utils/SafeERC20.sol\":1050:1108  abi.encodeWithSelector(token.transfer.selector, to, value) */\n      dup3\n      mload\n      dup1\n      dup4\n      sub\n      swap1\n      swap2\n      add\n      dup2\n      mstore\n        /* \"#utility.yul\":2459:2477   */\n      0x64\n      swap1\n      swap2\n      add\n        /* \"@openzeppelin/contracts/token/ERC20/utils/SafeERC20.sol\":1050:1108  abi.encodeWithSelector(token.transfer.selector, to, value) */\n      swap1\n      swap2\n      mstore\n      0x20\n      dup2\n      add\n      dup1\n      mload\n      sub(shl(0xe0, 0x01), 0x01)\n      and\n      shl(0xe0, 0xa9059cbb)\n      or\n      swap1\n      mstore\n        /* \"@openzeppelin/contracts/token/ERC20/utils/SafeERC20.sol\":1023:1109  _callOptionalReturn(token, abi.encodeWithSelector(token.transfer.selector, to, value)) */\n      tag_49\n      swap1\n        /* \"@openzeppelin/contracts/token/ERC20/utils/SafeERC20.sol\":1043:1048  token */\n      dup5\n      swap1\n        /* \"@openzeppelin/contracts/token/ERC20/utils/SafeERC20.sol\":1023:1042  _callOptionalReturn */\n      tag_52\n        /* \"@openzeppelin/contracts/token/ERC20/utils/SafeERC20.sol\":1023:1109  _callOptionalReturn(token, abi.encodeWithSelector(token.transfer.selector, to, value)) */\n      jump\t// in\n    tag_49:\n        /* \"@openzeppelin/contracts/token/ERC20/utils/SafeERC20.sol\":941:1116  function safeTransfer(IERC20 token, address to, uint256 value) internal {... */\n      pop\n      pop\n      pop\n      jump\t// out\n        /* \"RewardReserve.sol\":1091:1206  function _transferRegistryAddr(address registryAddress) internal{... */\n    tag_39:\n        /* \"RewardReserve.sol\":1165:1181  registryContract */\n      0x00\n        /* \"RewardReserve.sol\":1165:1199  registryContract = registryAddress */\n      dup1\n      sload\n      not(sub(shl(0xa0, 0x01), 0x01))\n      and\n      sub(shl(0xa0, 0x01), 0x01)\n      swap3\n      swap1\n      swap3\n      and\n      swap2\n      swap1\n      swap2\n      or\n      swap1\n      sstore\n        /* \"RewardReserve.sol\":1091:1206  function _transferRegistryAddr(address registryAddress) internal{... */\n      jump\t// out\n        /* \"@openzeppelin/contracts/token/ERC20/utils/SafeERC20.sol\":5196:5838  function _callOptionalReturn(IERC20 token, bytes memory data) private {... */\n    tag_52:\n        /* \"@openzeppelin/contracts/token/ERC20/utils/SafeERC20.sol\":5615:5638  bytes memory returndata */\n      0x00\n        /* \"@openzeppelin/contracts/token/ERC20/utils/SafeERC20.sol\":5641:5710  address(token).functionCall(data, \"SafeERC20: low-level call failed\") */\n      tag_55\n        /* \"@openzeppelin/contracts/token/ERC20/utils/SafeERC20.sol\":5669:5673  data */\n      dup3\n        /* \"@openzeppelin/contracts/token/ERC20/utils/SafeERC20.sol\":5641:5710  address(token).functionCall(data, \"SafeERC20: low-level call failed\") */\n      mload(0x40)\n      dup1\n      0x40\n      add\n      0x40\n      mstore\n      dup1\n      0x20\n      dup2\n      mstore\n      0x20\n      add\n      0x5361666545524332303a206c6f772d6c6576656c2063616c6c206661696c6564\n      dup2\n      mstore\n      pop\n        /* \"@openzeppelin/contracts/token/ERC20/utils/SafeERC20.sol\":5649:5654  token */\n      dup6\n      sub(shl(0xa0, 0x01), 0x01)\n        /* \"@openzeppelin/contracts/token/ERC20/utils/SafeERC20.sol\":5641:5668  address(token).functionCall */\n      and\n      tag_56\n      swap1\n        /* \"@openzeppelin/contracts/token/ERC20/utils/SafeERC20.sol\":5641:5710  address(token).functionCall(data, \"SafeERC20: low-level call failed\") */\n      swap3\n      swap2\n      swap1\n      0xffffffff\n      and\n      jump\t// in\n    tag_55:\n        /* \"@openzeppelin/contracts/token/ERC20/utils/SafeERC20.sol\":5615:5710  bytes memory returndata = address(token).functionCall(data, \"SafeERC20: low-level call failed\") */\n      swap1\n      pop\n        /* \"@openzeppelin/contracts/token/ERC20/utils/SafeERC20.sol\":5728:5738  returndata */\n      dup1\n        /* \"@openzeppelin/contracts/token/ERC20/utils/SafeERC20.sol\":5728:5745  returndata.length */\n      mload\n        /* \"@openzeppelin/contracts/token/ERC20/utils/SafeERC20.sol\":5749:5750  0 */\n      0x00\n        /* \"@openzeppelin/contracts/token/ERC20/utils/SafeERC20.sol\":5728:5750  returndata.length == 0 */\n      eq\n        /* \"@openzeppelin/contracts/token/ERC20/utils/SafeERC20.sol\":5728:5784  returndata.length == 0 || abi.decode(returndata, (bool)) */\n      dup1\n      tag_58\n      jumpi\n      pop\n        /* \"@openzeppelin/contracts/token/ERC20/utils/SafeERC20.sol\":5765:5775  returndata */\n      dup1\n        /* \"@openzeppelin/contracts/token/ERC20/utils/SafeERC20.sol\":5754:5784  abi.decode(returndata, (bool)) */\n      dup1\n      0x20\n      add\n      swap1\n      mload\n      dup2\n      add\n      swap1\n      tag_58\n      swap2\n      swap1\n      tag_27\n      jump\t// in\n    tag_58:\n        /* \"@openzeppelin/contracts/token/ERC20/utils/SafeERC20.sol\":5720:5831  require(returndata.length == 0 || abi.decode(returndata, (bool)), \"SafeERC20: ERC20 operation did not succeed\") */\n      tag_49\n      jumpi\n      mload(0x40)\n      shl(0xe5, 0x461bcd)\n      dup2\n      mstore\n        /* \"#utility.yul\":2793:2795   */\n      0x20\n        /* \"@openzeppelin/contracts/token/ERC20/utils/SafeERC20.sol\":5720:5831  require(returndata.length == 0 || abi.decode(returndata, (bool)), \"SafeERC20: ERC20 operation did not succeed\") */\n      0x04\n      dup3\n      add\n        /* \"#utility.yul\":2775:2796   */\n      mstore\n        /* \"#utility.yul\":2832:2834   */\n      0x2a\n        /* \"#utility.yul\":2812:2830   */\n      0x24\n      dup3\n      add\n        /* \"#utility.yul\":2805:2835   */\n      mstore\n        /* \"#utility.yul\":2871:2905   */\n      0x5361666545524332303a204552433230206f7065726174696f6e20646964206e\n        /* \"#utility.yul\":2851:2869   */\n      0x44\n      dup3\n      add\n        /* \"#utility.yul\":2844:2906   */\n      mstore\n      shl(0xb2, 0x1bdd081cdd58d8d95959)\n        /* \"#utility.yul\":2922:2940   */\n      0x64\n      dup3\n      add\n        /* \"#utility.yul\":2915:2955   */\n      mstore\n        /* \"#utility.yul\":2972:2991   */\n      0x84\n      add\n        /* \"@openzeppelin/contracts/token/ERC20/utils/SafeERC20.sol\":5720:5831  require(returndata.length == 0 || abi.decode(returndata, (bool)), \"SafeERC20: ERC20 operation did not succeed\") */\n      tag_29\n        /* \"#utility.yul\":2591:2997   */\n      jump\n        /* \"@openzeppelin/contracts/utils/Address.sol\":4108:4331  function functionCall(... */\n    tag_56:\n        /* \"@openzeppelin/contracts/utils/Address.sol\":4241:4253  bytes memory */\n      0x60\n        /* \"@openzeppelin/contracts/utils/Address.sol\":4272:4324  functionCallWithValue(target, data, 0, errorMessage) */\n      tag_63\n        /* \"@openzeppelin/contracts/utils/Address.sol\":4294:4300  target */\n      dup5\n        /* \"@openzeppelin/contracts/utils/Address.sol\":4302:4306  data */\n      dup5\n        /* \"@openzeppelin/contracts/utils/Address.sol\":4308:4309  0 */\n      0x00\n        /* \"@openzeppelin/contracts/utils/Address.sol\":4311:4323  errorMessage */\n      dup6\n        /* \"@openzeppelin/contracts/utils/Address.sol\":4272:4293  functionCallWithValue */\n      tag_64\n        /* \"@openzeppelin/contracts/utils/Address.sol\":4272:4324  functionCallWithValue(target, data, 0, errorMessage) */\n      jump\t// in\n    tag_63:\n        /* \"@openzeppelin/contracts/utils/Address.sol\":4265:4324  return functionCallWithValue(target, data, 0, errorMessage) */\n      swap5\n        /* \"@openzeppelin/contracts/utils/Address.sol\":4108:4331  function functionCall(... */\n      swap4\n      pop\n      pop\n      pop\n      pop\n      jump\t// out\n        /* \"@openzeppelin/contracts/utils/Address.sol\":5165:5611  function functionCallWithValue(... */\n    tag_64:\n        /* \"@openzeppelin/contracts/utils/Address.sol\":5330:5342  bytes memory */\n      0x60\n        /* \"@openzeppelin/contracts/utils/Address.sol\":5387:5392  value */\n      dup3\n        /* \"@openzeppelin/contracts/utils/Address.sol\":5362:5383  address(this).balance */\n      selfbalance\n        /* \"@openzeppelin/contracts/utils/Address.sol\":5362:5392  address(this).balance >= value */\n      lt\n      iszero\n        /* \"@openzeppelin/contracts/utils/Address.sol\":5354:5435  require(address(this).balance >= value, \"Address: insufficient balance for call\") */\n      tag_66\n      jumpi\n      mload(0x40)\n      shl(0xe5, 0x461bcd)\n      dup2\n      mstore\n        /* \"#utility.yul\":3204:3206   */\n      0x20\n        /* \"@openzeppelin/contracts/utils/Address.sol\":5354:5435  require(address(this).balance >= value, \"Address: insufficient balance for call\") */\n      0x04\n      dup3\n      add\n        /* \"#utility.yul\":3186:3207   */\n      mstore\n        /* \"#utility.yul\":3243:3245   */\n      0x26\n        /* \"#utility.yul\":3223:3241   */\n      0x24\n      dup3\n      add\n        /* \"#utility.yul\":3216:3246   */\n      mstore\n        /* \"#utility.yul\":3282:3316   */\n      0x416464726573733a20696e73756666696369656e742062616c616e636520666f\n        /* \"#utility.yul\":3262:3280   */\n      0x44\n      dup3\n      add\n        /* \"#utility.yul\":3255:3317   */\n      mstore\n      shl(0xd2, 0x1c8818d85b1b)\n        /* \"#utility.yul\":3333:3351   */\n      0x64\n      dup3\n      add\n        /* \"#utility.yul\":3326:3362   */\n      mstore\n        /* \"#utility.yul\":3379:3398   */\n      0x84\n      add\n        /* \"@openzeppelin/contracts/utils/Address.sol\":5354:5435  require(address(this).balance >= value, \"Address: insufficient balance for call\") */\n      tag_29\n        /* \"#utility.yul\":3002:3404   */\n      jump\n        /* \"@openzeppelin/contracts/utils/Address.sol\":5354:5435  require(address(this).balance >= value, \"Address: insufficient balance for call\") */\n    tag_66:\n        /* \"@openzeppelin/contracts/utils/Address.sol\":5446:5458  bool success */\n      0x00\n        /* \"@openzeppelin/contracts/utils/Address.sol\":5460:5483  bytes memory returndata */\n      dup1\n        /* \"@openzeppelin/contracts/utils/Address.sol\":5487:5493  target */\n      dup7\n      sub(shl(0xa0, 0x01), 0x01)\n        /* \"@openzeppelin/contracts/utils/Address.sol\":5487:5498  target.call */\n      and\n        /* \"@openzeppelin/contracts/utils/Address.sol\":5506:5511  value */\n      dup6\n        /* \"@openzeppelin/contracts/utils/Address.sol\":5513:5517  data */\n      dup8\n        /* \"@openzeppelin/contracts/utils/Address.sol\":5487:5518  target.call{value: value}(data) */\n      mload(0x40)\n      tag_69\n      swap2\n      swap1\n      tag_70\n      jump\t// in\n    tag_69:\n      0x00\n      mload(0x40)\n      dup1\n      dup4\n      sub\n      dup2\n      dup6\n      dup8\n      gas\n      call\n      swap3\n      pop\n      pop\n      pop\n      returndatasize\n      dup1\n      0x00\n      dup2\n      eq\n      tag_73\n      jumpi\n      mload(0x40)\n      swap2\n      pop\n      and(add(returndatasize, 0x3f), not(0x1f))\n      dup3\n      add\n      0x40\n      mstore\n      returndatasize\n      dup3\n      mstore\n      returndatasize\n      0x00\n      0x20\n      dup5\n      add\n      returndatacopy\n      jump(tag_72)\n    tag_73:\n      0x60\n      swap2\n      pop\n    tag_72:\n      pop\n        /* \"@openzeppelin/contracts/utils/Address.sol\":5445:5518  (bool success, bytes memory returndata) = target.call{value: value}(data) */\n      swap2\n      pop\n      swap2\n      pop\n        /* \"@openzeppelin/contracts/utils/Address.sol\":5535:5604  verifyCallResultFromTarget(target, success, returndata, errorMessage) */\n      tag_74\n        /* \"@openzeppelin/contracts/utils/Address.sol\":5562:5568  target */\n      dup8\n        /* \"@openzeppelin/contracts/utils/Address.sol\":5570:5577  success */\n      dup4\n        /* \"@openzeppelin/contracts/utils/Address.sol\":5579:5589  returndata */\n      dup4\n        /* \"@openzeppelin/contracts/utils/Address.sol\":5591:5603  errorMessage */\n      dup8\n        /* \"@openzeppelin/contracts/utils/Address.sol\":5535:5561  verifyCallResultFromTarget */\n      tag_75\n        /* \"@openzeppelin/contracts/utils/Address.sol\":5535:5604  verifyCallResultFromTarget(target, success, returndata, errorMessage) */\n      jump\t// in\n    tag_74:\n        /* \"@openzeppelin/contracts/utils/Address.sol\":5528:5604  return verifyCallResultFromTarget(target, success, returndata, errorMessage) */\n      swap8\n        /* \"@openzeppelin/contracts/utils/Address.sol\":5165:5611  function functionCallWithValue(... */\n      swap7\n      pop\n      pop\n      pop\n      pop\n      pop\n      pop\n      pop\n      jump\t// out\n        /* \"@openzeppelin/contracts/utils/Address.sol\":7671:8299  function verifyCallResultFromTarget(... */\n    tag_75:\n        /* \"@openzeppelin/contracts/utils/Address.sol\":7851:7863  bytes memory */\n      0x60\n        /* \"@openzeppelin/contracts/utils/Address.sol\":7879:7886  success */\n      dup4\n        /* \"@openzeppelin/contracts/utils/Address.sol\":7875:8293  if (success) {... */\n      iszero\n      tag_77\n      jumpi\n        /* \"@openzeppelin/contracts/utils/Address.sol\":7906:7916  returndata */\n      dup3\n        /* \"@openzeppelin/contracts/utils/Address.sol\":7906:7923  returndata.length */\n      mload\n        /* \"@openzeppelin/contracts/utils/Address.sol\":7927:7928  0 */\n      0x00\n        /* \"@openzeppelin/contracts/utils/Address.sol\":7906:7928  returndata.length == 0 */\n      sub\n        /* \"@openzeppelin/contracts/utils/Address.sol\":7902:8188  if (returndata.length == 0) {... */\n      tag_81\n      jumpi\n      sub(shl(0xa0, 0x01), 0x01)\n        /* \"@openzeppelin/contracts/utils/Address.sol\":1702:1721  account.code.length */\n      dup6\n      and\n      extcodesize\n        /* \"@openzeppelin/contracts/utils/Address.sol\":8113:8173  require(isContract(target), \"Address: call to non-contract\") */\n      tag_81\n      jumpi\n      mload(0x40)\n      shl(0xe5, 0x461bcd)\n      dup2\n      mstore\n        /* \"#utility.yul\":4158:4160   */\n      0x20\n        /* \"@openzeppelin/contracts/utils/Address.sol\":8113:8173  require(isContract(target), \"Address: call to non-contract\") */\n      0x04\n      dup3\n      add\n        /* \"#utility.yul\":4140:4161   */\n      mstore\n        /* \"#utility.yul\":4197:4199   */\n      0x1d\n        /* \"#utility.yul\":4177:4195   */\n      0x24\n      dup3\n      add\n        /* \"#utility.yul\":4170:4200   */\n      mstore\n        /* \"#utility.yul\":4236:4267   */\n      0x416464726573733a2063616c6c20746f206e6f6e2d636f6e7472616374000000\n        /* \"#utility.yul\":4216:4234   */\n      0x44\n      dup3\n      add\n        /* \"#utility.yul\":4209:4268   */\n      mstore\n        /* \"#utility.yul\":4285:4303   */\n      0x64\n      add\n        /* \"@openzeppelin/contracts/utils/Address.sol\":8113:8173  require(isContract(target), \"Address: call to non-contract\") */\n      tag_29\n        /* \"#utility.yul\":3956:4309   */\n      jump\n        /* \"@openzeppelin/contracts/utils/Address.sol\":8113:8173  require(isContract(target), \"Address: call to non-contract\") */\n    tag_81:\n      pop\n        /* \"@openzeppelin/contracts/utils/Address.sol\":8208:8218  returndata */\n      dup2\n        /* \"@openzeppelin/contracts/utils/Address.sol\":8201:8218  return returndata */\n      jump(tag_63)\n        /* \"@openzeppelin/contracts/utils/Address.sol\":7875:8293  if (success) {... */\n    tag_77:\n        /* \"@openzeppelin/contracts/utils/Address.sol\":8249:8282  _revert(returndata, errorMessage) */\n      tag_63\n        /* \"@openzeppelin/contracts/utils/Address.sol\":8257:8267  returndata */\n      dup4\n        /* \"@openzeppelin/contracts/utils/Address.sol\":8269:8281  errorMessage */\n      dup4\n        /* \"@openzeppelin/contracts/utils/Address.sol\":8980:8997  returndata.length */\n      dup2\n      mload\n        /* \"@openzeppelin/contracts/utils/Address.sol\":8980:9001  returndata.length > 0 */\n      iszero\n        /* \"@openzeppelin/contracts/utils/Address.sol\":8976:9355  if (returndata.length > 0) {... */\n      tag_89\n      jumpi\n        /* \"@openzeppelin/contracts/utils/Address.sol\":9208:9218  returndata */\n      dup2\n        /* \"@openzeppelin/contracts/utils/Address.sol\":9202:9219  mload(returndata) */\n      mload\n        /* \"@openzeppelin/contracts/utils/Address.sol\":9264:9279  returndata_size */\n      dup1\n        /* \"@openzeppelin/contracts/utils/Address.sol\":9251:9261  returndata */\n      dup4\n        /* \"@openzeppelin/contracts/utils/Address.sol\":9247:9249  32 */\n      0x20\n        /* \"@openzeppelin/contracts/utils/Address.sol\":9243:9262  add(32, returndata) */\n      add\n        /* \"@openzeppelin/contracts/utils/Address.sol\":9236:9280  revert(add(32, returndata), returndata_size) */\n      revert\n        /* \"@openzeppelin/contracts/utils/Address.sol\":8976:9355  if (returndata.length > 0) {... */\n    tag_89:\n        /* \"@openzeppelin/contracts/utils/Address.sol\":9331:9343  errorMessage */\n      dup1\n        /* \"@openzeppelin/contracts/utils/Address.sol\":9324:9344  revert(errorMessage) */\n      mload(0x40)\n      shl(0xe5, 0x461bcd)\n      dup2\n      mstore\n      0x04\n      add\n      tag_29\n      swap2\n      swap1\n      tag_92\n      jump\t// in\n        /* \"#utility.yul\":14:145   */\n    tag_93:\n      sub(shl(0xa0, 0x01), 0x01)\n        /* \"#utility.yul\":89:120   */\n      dup2\n      and\n        /* \"#utility.yul\":79:121   */\n      dup2\n      eq\n        /* \"#utility.yul\":69:139   */\n      tag_97\n      jumpi\n        /* \"#utility.yul\":135:136   */\n      0x00\n        /* \"#utility.yul\":132:133   */\n      dup1\n        /* \"#utility.yul\":125:137   */\n      revert\n        /* \"#utility.yul\":69:139   */\n    tag_97:\n        /* \"#utility.yul\":14:145   */\n      pop\n      jump\t// out\n        /* \"#utility.yul\":150:606   */\n    tag_8:\n        /* \"#utility.yul\":227:233   */\n      0x00\n        /* \"#utility.yul\":235:241   */\n      dup1\n        /* \"#utility.yul\":243:249   */\n      0x00\n        /* \"#utility.yul\":296:298   */\n      0x60\n        /* \"#utility.yul\":284:293   */\n      dup5\n        /* \"#utility.yul\":275:282   */\n      dup7\n        /* \"#utility.yul\":271:294   */\n      sub\n        /* \"#utility.yul\":267:299   */\n      slt\n        /* \"#utility.yul\":264:316   */\n      iszero\n      tag_99\n      jumpi\n        /* \"#utility.yul\":312:313   */\n      0x00\n        /* \"#utility.yul\":309:310   */\n      dup1\n        /* \"#utility.yul\":302:314   */\n      revert\n        /* \"#utility.yul\":264:316   */\n    tag_99:\n        /* \"#utility.yul\":351:360   */\n      dup4\n        /* \"#utility.yul\":338:361   */\n      calldataload\n        /* \"#utility.yul\":370:401   */\n      tag_100\n        /* \"#utility.yul\":395:400   */\n      dup2\n        /* \"#utility.yul\":370:401   */\n      tag_93\n      jump\t// in\n    tag_100:\n        /* \"#utility.yul\":420:425   */\n      swap3\n      pop\n        /* \"#utility.yul\":472:474   */\n      0x20\n        /* \"#utility.yul\":457:475   */\n      dup5\n      add\n        /* \"#utility.yul\":444:476   */\n      calldataload\n      swap2\n      pop\n        /* \"#utility.yul\":528:530   */\n      0x40\n        /* \"#utility.yul\":513:531   */\n      dup5\n      add\n        /* \"#utility.yul\":500:532   */\n      calldataload\n        /* \"#utility.yul\":541:574   */\n      tag_101\n        /* \"#utility.yul\":500:532   */\n      dup2\n        /* \"#utility.yul\":541:574   */\n      tag_93\n      jump\t// in\n    tag_101:\n        /* \"#utility.yul\":593:600   */\n      dup1\n        /* \"#utility.yul\":583:600   */\n      swap2\n      pop\n      pop\n        /* \"#utility.yul\":150:606   */\n      swap3\n      pop\n      swap3\n      pop\n      swap3\n      jump\t// out\n        /* \"#utility.yul\":611:858   */\n    tag_12:\n        /* \"#utility.yul\":670:676   */\n      0x00\n        /* \"#utility.yul\":723:725   */\n      0x20\n        /* \"#utility.yul\":711:720   */\n      dup3\n        /* \"#utility.yul\":702:709   */\n      dup5\n        /* \"#utility.yul\":698:721   */\n      sub\n        /* \"#utility.yul\":694:726   */\n      slt\n        /* \"#utility.yul\":691:743   */\n      iszero\n      tag_103\n      jumpi\n        /* \"#utility.yul\":739:740   */\n      0x00\n        /* \"#utility.yul\":736:737   */\n      dup1\n        /* \"#utility.yul\":729:741   */\n      revert\n        /* \"#utility.yul\":691:743   */\n    tag_103:\n        /* \"#utility.yul\":778:787   */\n      dup2\n        /* \"#utility.yul\":765:788   */\n      calldataload\n        /* \"#utility.yul\":797:828   */\n      tag_104\n        /* \"#utility.yul\":822:827   */\n      dup2\n        /* \"#utility.yul\":797:828   */\n      tag_93\n      jump\t// in\n    tag_104:\n        /* \"#utility.yul\":847:852   */\n      swap4\n        /* \"#utility.yul\":611:858   */\n      swap3\n      pop\n      pop\n      pop\n      jump\t// out\n        /* \"#utility.yul\":863:1114   */\n    tag_21:\n        /* \"#utility.yul\":933:939   */\n      0x00\n        /* \"#utility.yul\":986:988   */\n      0x20\n        /* \"#utility.yul\":974:983   */\n      dup3\n        /* \"#utility.yul\":965:972   */\n      dup5\n        /* \"#utility.yul\":961:984   */\n      sub\n        /* \"#utility.yul\":957:989   */\n      slt\n        /* \"#utility.yul\":954:1006   */\n      iszero\n      tag_106\n      jumpi\n        /* \"#utility.yul\":1002:1003   */\n      0x00\n        /* \"#utility.yul\":999:1000   */\n      dup1\n        /* \"#utility.yul\":992:1004   */\n      revert\n        /* \"#utility.yul\":954:1006   */\n    tag_106:\n        /* \"#utility.yul\":1034:1043   */\n      dup2\n        /* \"#utility.yul\":1028:1044   */\n      mload\n        /* \"#utility.yul\":1053:1084   */\n      tag_104\n        /* \"#utility.yul\":1078:1083   */\n      dup2\n        /* \"#utility.yul\":1053:1084   */\n      tag_93\n      jump\t// in\n        /* \"#utility.yul\":1327:1604   */\n    tag_27:\n        /* \"#utility.yul\":1394:1400   */\n      0x00\n        /* \"#utility.yul\":1447:1449   */\n      0x20\n        /* \"#utility.yul\":1435:1444   */\n      dup3\n        /* \"#utility.yul\":1426:1433   */\n      dup5\n        /* \"#utility.yul\":1422:1445   */\n      sub\n        /* \"#utility.yul\":1418:1450   */\n      slt\n        /* \"#utility.yul\":1415:1467   */\n      iszero\n      tag_110\n      jumpi\n        /* \"#utility.yul\":1463:1464   */\n      0x00\n        /* \"#utility.yul\":1460:1461   */\n      dup1\n        /* \"#utility.yul\":1453:1465   */\n      revert\n        /* \"#utility.yul\":1415:1467   */\n    tag_110:\n        /* \"#utility.yul\":1495:1504   */\n      dup2\n        /* \"#utility.yul\":1489:1505   */\n      mload\n        /* \"#utility.yul\":1548:1553   */\n      dup1\n        /* \"#utility.yul\":1541:1554   */\n      iszero\n        /* \"#utility.yul\":1534:1555   */\n      iszero\n        /* \"#utility.yul\":1527:1532   */\n      dup2\n        /* \"#utility.yul\":1524:1556   */\n      eq\n        /* \"#utility.yul\":1514:1574   */\n      tag_104\n      jumpi\n        /* \"#utility.yul\":1570:1571   */\n      0x00\n        /* \"#utility.yul\":1567:1568   */\n      dup1\n        /* \"#utility.yul\":1560:1572   */\n      revert\n        /* \"#utility.yul\":3409:3659   */\n    tag_94:\n        /* \"#utility.yul\":3494:3495   */\n      0x00\n        /* \"#utility.yul\":3504:3617   */\n    tag_118:\n        /* \"#utility.yul\":3518:3524   */\n      dup4\n        /* \"#utility.yul\":3515:3516   */\n      dup2\n        /* \"#utility.yul\":3512:3525   */\n      lt\n        /* \"#utility.yul\":3504:3617   */\n      iszero\n      tag_120\n      jumpi\n        /* \"#utility.yul\":3594:3605   */\n      dup2\n      dup2\n      add\n        /* \"#utility.yul\":3588:3606   */\n      mload\n        /* \"#utility.yul\":3575:3586   */\n      dup4\n      dup3\n      add\n        /* \"#utility.yul\":3568:3607   */\n      mstore\n        /* \"#utility.yul\":3540:3542   */\n      0x20\n        /* \"#utility.yul\":3533:3543   */\n      add\n        /* \"#utility.yul\":3504:3617   */\n      jump(tag_118)\n    tag_120:\n      pop\n      pop\n        /* \"#utility.yul\":3651:3652   */\n      0x00\n        /* \"#utility.yul\":3633:3649   */\n      swap2\n      add\n        /* \"#utility.yul\":3626:3653   */\n      mstore\n        /* \"#utility.yul\":3409:3659   */\n      jump\t// out\n        /* \"#utility.yul\":3664:3951   */\n    tag_70:\n        /* \"#utility.yul\":3793:3796   */\n      0x00\n        /* \"#utility.yul\":3831:3837   */\n      dup3\n        /* \"#utility.yul\":3825:3838   */\n      mload\n        /* \"#utility.yul\":3847:3913   */\n      tag_122\n        /* \"#utility.yul\":3906:3912   */\n      dup2\n        /* \"#utility.yul\":3901:3904   */\n      dup5\n        /* \"#utility.yul\":3894:3898   */\n      0x20\n        /* \"#utility.yul\":3886:3892   */\n      dup8\n        /* \"#utility.yul\":3882:3899   */\n      add\n        /* \"#utility.yul\":3847:3913   */\n      tag_94\n      jump\t// in\n    tag_122:\n        /* \"#utility.yul\":3929:3945   */\n      swap2\n      swap1\n      swap2\n      add\n      swap3\n        /* \"#utility.yul\":3664:3951   */\n      swap2\n      pop\n      pop\n      jump\t// out\n        /* \"#utility.yul\":4314:4710   */\n    tag_92:\n        /* \"#utility.yul\":4463:4465   */\n      0x20\n        /* \"#utility.yul\":4452:4461   */\n      dup2\n        /* \"#utility.yul\":4445:4466   */\n      mstore\n        /* \"#utility.yul\":4426:4430   */\n      0x00\n        /* \"#utility.yul\":4495:4501   */\n      dup3\n        /* \"#utility.yul\":4489:4502   */\n      mload\n        /* \"#utility.yul\":4538:4544   */\n      dup1\n        /* \"#utility.yul\":4533:4535   */\n      0x20\n        /* \"#utility.yul\":4522:4531   */\n      dup5\n        /* \"#utility.yul\":4518:4536   */\n      add\n        /* \"#utility.yul\":4511:4545   */\n      mstore\n        /* \"#utility.yul\":4554:4633   */\n      tag_125\n        /* \"#utility.yul\":4626:4632   */\n      dup2\n        /* \"#utility.yul\":4621:4623   */\n      0x40\n        /* \"#utility.yul\":4610:4619   */\n      dup6\n        /* \"#utility.yul\":4606:4624   */\n      add\n        /* \"#utility.yul\":4601:4603   */\n      0x20\n        /* \"#utility.yul\":4593:4599   */\n      dup8\n        /* \"#utility.yul\":4589:4604   */\n      add\n        /* \"#utility.yul\":4554:4633   */\n      tag_94\n      jump\t// in\n    tag_125:\n        /* \"#utility.yul\":4694:4696   */\n      0x1f\n        /* \"#utility.yul\":4673:4688   */\n      add\n      not(0x1f)\n        /* \"#utility.yul\":4669:4698   */\n      and\n        /* \"#utility.yul\":4654:4699   */\n      swap2\n      swap1\n      swap2\n      add\n        /* \"#utility.yul\":4701:4703   */\n      0x40\n        /* \"#utility.yul\":4650:4704   */\n      add\n      swap3\n        /* \"#utility.yul\":4314:4710   */\n      swap2\n      pop\n      pop\n      jump\t// out\n\n    auxdata: 0xa26469706673582212201fcc2d674075fa2556dad455dbeadf7d8a13f70645fe4482dd97d77b8b3e9b7464736f6c63430008150033\n}\n",
				"bytecode": {
					"linkReferences": {},
					"object": "608060405234801561000f575f80fd5b506107268061001d5f395ff3fe608060405234801561000f575f80fd5b506004361061003f575f3560e01c8063431a08b014610043578063c4d66de814610058578063fa7c828a1461006b575b5f80fd5b6100566100513660046105e6565b61007e565b005b610056610066366004610625565b6101b7565b610056610079366004610625565b61022e565b5f805f9054906101000a90046001600160a01b03166001600160a01b031663b0f479a16040518163ffffffff1660e01b8152600401602060405180830381865afa1580156100ce573d5f803e3d5ffd5b505050506040513d601f19601f820116820180604052508101906100f29190610647565b604051633479c72560e21b81523360048201529091506001600160a01b0382169063d1e71c9490602401602060405180830381865afa158015610137573d5f803e3d5ffd5b505050506040513d601f19601f8201168201806040525081019061015b9190610662565b61019d5760405162461bcd60e51b815260206004820152600e60248201526d24b73b30b634b21031b0b63632b960911b60448201526064015b60405180910390fd5b6101b16001600160a01b03851683856102fa565b50505050565b5f54600160a01b900460ff16156102105760405162461bcd60e51b815260206004820152601f60248201527f436f6e747261637420697320696e697469616c697a656420616c7265616479006044820152606401610194565b61021981610351565b505f805460ff60a01b1916600160a01b179055565b5f805f9054906101000a90046001600160a01b03166001600160a01b031663893d20e86040518163ffffffff1660e01b8152600401602060405180830381865afa15801561027e573d5f803e3d5ffd5b505050506040513d601f19601f820116820180604052508101906102a29190610647565b9050336001600160a01b038216146102ed5760405162461bcd60e51b815260206004820152600e60248201526d24b73b30b634b21031b0b63632b960911b6044820152606401610194565b6102f682610351565b5050565b604080516001600160a01b038416602482015260448082018490528251808303909101815260649091019091526020810180516001600160e01b031663a9059cbb60e01b17905261034c908490610372565b505050565b5f80546001600160a01b0319166001600160a01b0392909216919091179055565b5f6103c6826040518060400160405280602081526020017f5361666545524332303a206c6f772d6c6576656c2063616c6c206661696c6564815250856001600160a01b03166104459092919063ffffffff16565b905080515f14806103e65750808060200190518101906103e69190610662565b61034c5760405162461bcd60e51b815260206004820152602a60248201527f5361666545524332303a204552433230206f7065726174696f6e20646964206e6044820152691bdd081cdd58d8d9595960b21b6064820152608401610194565b606061045384845f8561045b565b949350505050565b6060824710156104bc5760405162461bcd60e51b815260206004820152602660248201527f416464726573733a20696e73756666696369656e742062616c616e636520666f6044820152651c8818d85b1b60d21b6064820152608401610194565b5f80866001600160a01b031685876040516104d791906106a3565b5f6040518083038185875af1925050503d805f8114610511576040519150601f19603f3d011682016040523d82523d5f602084013e610516565b606091505b509150915061052787838387610532565b979650505050505050565b606083156105a05782515f03610599576001600160a01b0385163b6105995760405162461bcd60e51b815260206004820152601d60248201527f416464726573733a2063616c6c20746f206e6f6e2d636f6e74726163740000006044820152606401610194565b5081610453565b61045383838151156105b55781518083602001fd5b8060405162461bcd60e51b815260040161019491906106be565b6001600160a01b03811681146105e3575f80fd5b50565b5f805f606084860312156105f8575f80fd5b8335610603816105cf565b925060208401359150604084013561061a816105cf565b809150509250925092565b5f60208284031215610635575f80fd5b8135610640816105cf565b9392505050565b5f60208284031215610657575f80fd5b8151610640816105cf565b5f60208284031215610672575f80fd5b81518015158114610640575f80fd5b5f5b8381101561069b578181015183820152602001610683565b50505f910152565b5f82516106b4818460208701610681565b9190910192915050565b602081525f82518060208401526106dc816040850160208701610681565b601f01601f1916919091016040019291505056fea26469706673582212201fcc2d674075fa2556dad455dbeadf7d8a13f70645fe4482dd97d77b8b3e9b7464736f6c63430008150033",
					"opcodes": "PUSH1 0x80 PUSH1 0x40 MSTORE CALLVALUE DUP1 ISZERO PUSH2 0xF JUMPI PUSH0 DUP1 REVERT JUMPDEST POP PUSH2 0x726 DUP1 PUSH2 0x1D PUSH0 CODECOPY PUSH0 RETURN INVALID PUSH1 0x80 PUSH1 0x40 MSTORE CALLVALUE DUP1 ISZERO PUSH2 0xF JUMPI PUSH0 DUP1 REVERT JUMPDEST POP PUSH1 0x4 CALLDATASIZE LT PUSH2 0x3F JUMPI PUSH0 CALLDATALOAD PUSH1 0xE0 SHR DUP1 PUSH4 0x431A08B0 EQ PUSH2 0x43 JUMPI DUP1 PUSH4 0xC4D66DE8 EQ PUSH2 0x58 JUMPI DUP1 PUSH4 0xFA7C828A EQ PUSH2 0x6B JUMPI JUMPDEST PUSH0 DUP1 REVERT JUMPDEST PUSH2 0x56 PUSH2 0x51 CALLDATASIZE PUSH1 0x4 PUSH2 0x5E6 JUMP JUMPDEST PUSH2 0x7E JUMP JUMPDEST STOP JUMPDEST PUSH2 0x56 PUSH2 0x66 CALLDATASIZE PUSH1 0x4 PUSH2 0x625 JUMP JUMPDEST PUSH2 0x1B7 JUMP JUMPDEST PUSH2 0x56 PUSH2 0x79 CALLDATASIZE PUSH1 0x4 PUSH2 0x625 JUMP JUMPDEST PUSH2 0x22E JUMP JUMPDEST PUSH0 DUP1 PUSH0 SWAP1 SLOAD SWAP1 PUSH2 0x100 EXP SWAP1 DIV PUSH1 0x1 PUSH1 0x1 PUSH1 0xA0 SHL SUB AND PUSH1 0x1 PUSH1 0x1 PUSH1 0xA0 SHL SUB AND PUSH4 0xB0F479A1 PUSH1 0x40 MLOAD DUP2 PUSH4 0xFFFFFFFF AND PUSH1 0xE0 SHL DUP2 MSTORE PUSH1 0x4 ADD PUSH1 0x20 PUSH1 0x40 MLOAD DUP1 DUP4 SUB DUP2 DUP7 GAS STATICCALL ISZERO DUP1 ISZERO PUSH2 0xCE JUMPI RETURNDATASIZE PUSH0 DUP1 RETURNDATACOPY RETURNDATASIZE PUSH0 REVERT JUMPDEST POP POP POP POP PUSH1 0x40 MLOAD RETURNDATASIZE PUSH1 0x1F NOT PUSH1 0x1F DUP3 ADD AND DUP3 ADD DUP1 PUSH1 0x40 MSTORE POP DUP2 ADD SWAP1 PUSH2 0xF2 SWAP2 SWAP1 PUSH2 0x647 JUMP JUMPDEST PUSH1 0x40 MLOAD PUSH4 0x3479C725 PUSH1 0xE2 SHL DUP2 MSTORE CALLER PUSH1 0x4 DUP3 ADD MSTORE SWAP1 SWAP2 POP PUSH1 0x1 PUSH1 0x1 PUSH1 0xA0 SHL SUB DUP3 AND SWAP1 PUSH4 0xD1E71C94 SWAP1 PUSH1 0x24 ADD PUSH1 0x20 PUSH1 0x40 MLOAD DUP1 DUP4 SUB DUP2 DUP7 GAS STATICCALL ISZERO DUP1 ISZERO PUSH2 0x137 JUMPI RETURNDATASIZE PUSH0 DUP1 RETURNDATACOPY RETURNDATASIZE PUSH0 REVERT JUMPDEST POP POP POP POP PUSH1 0x40 MLOAD RETURNDATASIZE PUSH1 0x1F NOT PUSH1 0x1F DUP3 ADD AND DUP3 ADD DUP1 PUSH1 0x40 MSTORE POP DUP2 ADD SWAP1 PUSH2 0x15B SWAP2 SWAP1 PUSH2 0x662 JUMP JUMPDEST PUSH2 0x19D JUMPI PUSH1 0x40 MLOAD PUSH3 0x461BCD PUSH1 0xE5 SHL DUP2 MSTORE PUSH1 0x20 PUSH1 0x4 DUP3 ADD MSTORE PUSH1 0xE PUSH1 0x24 DUP3 ADD MSTORE PUSH14 0x24B73B30B634B21031B0B63632B9 PUSH1 0x91 SHL PUSH1 0x44 DUP3 ADD MSTORE PUSH1 0x64 ADD JUMPDEST PUSH1 0x40 MLOAD DUP1 SWAP2 SUB SWAP1 REVERT JUMPDEST PUSH2 0x1B1 PUSH1 0x1 PUSH1 0x1 PUSH1 0xA0 SHL SUB DUP6 AND DUP4 DUP6 PUSH2 0x2FA JUMP JUMPDEST POP POP POP POP JUMP JUMPDEST PUSH0 SLOAD PUSH1 0x1 PUSH1 0xA0 SHL SWAP1 DIV PUSH1 0xFF AND ISZERO PUSH2 0x210 JUMPI PUSH1 0x40 MLOAD PUSH3 0x461BCD PUSH1 0xE5 SHL DUP2 MSTORE PUSH1 0x20 PUSH1 0x4 DUP3 ADD MSTORE PUSH1 0x1F PUSH1 0x24 DUP3 ADD MSTORE PUSH32 0x436F6E747261637420697320696E697469616C697A656420616C726561647900 PUSH1 0x44 DUP3 ADD MSTORE PUSH1 0x64 ADD PUSH2 0x194 JUMP JUMPDEST PUSH2 0x219 DUP2 PUSH2 0x351 JUMP JUMPDEST POP PUSH0 DUP1 SLOAD PUSH1 0xFF PUSH1 0xA0 SHL NOT AND PUSH1 0x1 PUSH1 0xA0 SHL OR SWAP1 SSTORE JUMP JUMPDEST PUSH0 DUP1 PUSH0 SWAP1 SLOAD SWAP1 PUSH2 0x100 EXP SWAP1 DIV PUSH1 0x1 PUSH1 0x1 PUSH1 0xA0 SHL SUB AND PUSH1 0x1 PUSH1 0x1 PUSH1 0xA0 SHL SUB AND PUSH4 0x893D20E8 PUSH1 0x40 MLOAD DUP2 PUSH4 0xFFFFFFFF AND PUSH1 0xE0 SHL DUP2 MSTORE PUSH1 0x4 ADD PUSH1 0x20 PUSH1 0x40 MLOAD DUP1 DUP4 SUB DUP2 DUP7 GAS STATICCALL ISZERO DUP1 ISZERO PUSH2 0x27E JUMPI RETURNDATASIZE PUSH0 DUP1 RETURNDATACOPY RETURNDATASIZE PUSH0 REVERT JUMPDEST POP POP POP POP PUSH1 0x40 MLOAD RETURNDATASIZE PUSH1 0x1F NOT PUSH1 0x1F DUP3 ADD AND DUP3 ADD DUP1 PUSH1 0x40 MSTORE POP DUP2 ADD SWAP1 PUSH2 0x2A2 SWAP2 SWAP1 PUSH2 0x647 JUMP JUMPDEST SWAP1 POP CALLER PUSH1 0x1 PUSH1 0x1 PUSH1 0xA0 SHL SUB DUP3 AND EQ PUSH2 0x2ED JUMPI PUSH1 0x40 MLOAD PUSH3 0x461BCD PUSH1 0xE5 SHL DUP2 MSTORE PUSH1 0x20 PUSH1 0x4 DUP3 ADD MSTORE PUSH1 0xE PUSH1 0x24 DUP3 ADD MSTORE PUSH14 0x24B73B30B634B21031B0B63632B9 PUSH1 0x91 SHL PUSH1 0x44 DUP3 ADD MSTORE PUSH1 0x64 ADD PUSH2 0x194 JUMP JUMPDEST PUSH2 0x2F6 DUP3 PUSH2 0x351 JUMP JUMPDEST POP POP JUMP JUMPDEST PUSH1 0x40 DUP1 MLOAD PUSH1 0x1 PUSH1 0x1 PUSH1 0xA0 SHL SUB DUP5 AND PUSH1 0x24 DUP3 ADD MSTORE PUSH1 0x44 DUP1 DUP3 ADD DUP5 SWAP1 MSTORE DUP3 MLOAD DUP1 DUP4 SUB SWAP1 SWAP2 ADD DUP2 MSTORE PUSH1 0x64 SWAP1 SWAP2 ADD SWAP1 SWAP2 MSTORE PUSH1 0x20 DUP2 ADD DUP1 MLOAD PUSH1 0x1 PUSH1 0x1 PUSH1 0xE0 SHL SUB AND PUSH4 0xA9059CBB PUSH1 0xE0 SHL OR SWAP1 MSTORE PUSH2 0x34C SWAP1 DUP5 SWAP1 PUSH2 0x372 JUMP JUMPDEST POP POP POP JUMP JUMPDEST PUSH0 DUP1 SLOAD PUSH1 0x1 PUSH1 0x1 PUSH1 0xA0 SHL SUB NOT AND PUSH1 0x1 PUSH1 0x1 PUSH1 0xA0 SHL SUB SWAP3 SWAP1 SWAP3 AND SWAP2 SWAP1 SWAP2 OR SWAP1 SSTORE JUMP JUMPDEST PUSH0 PUSH2 0x3C6 DUP3 PUSH1 0x40 MLOAD DUP1 PUSH1 0x40 ADD PUSH1 0x40 MSTORE DUP1 PUSH1 0x20 DUP2 MSTORE PUSH1 0x20 ADD PUSH32 0x5361666545524332303A206C6F772D6C6576656C2063616C6C206661696C6564 DUP2 MSTORE POP DUP6 PUSH1 0x1 PUSH1 0x1 PUSH1 0xA0 SHL SUB AND PUSH2 0x445 SWAP1 SWAP3 SWAP2 SWAP1 PUSH4 0xFFFFFFFF AND JUMP JUMPDEST SWAP1 POP DUP1 MLOAD PUSH0 EQ DUP1 PUSH2 0x3E6 JUMPI POP DUP1 DUP1 PUSH1 0x20 ADD SWAP1 MLOAD DUP2 ADD SWAP1 PUSH2 0x3E6 SWAP2 SWAP1 PUSH2 0x662 JUMP JUMPDEST PUSH2 0x34C JUMPI PUSH1 0x40 MLOAD PUSH3 0x461BCD PUSH1 0xE5 SHL DUP2 MSTORE PUSH1 0x20 PUSH1 0x4 DUP3 ADD MSTORE PUSH1 0x2A PUSH1 0x24 DUP3 ADD MSTORE PUSH32 0x5361666545524332303A204552433230206F7065726174696F6E20646964206E PUSH1 0x44 DUP3 ADD MSTORE PUSH10 0x1BDD081CDD58D8D95959 PUSH1 0xB2 SHL PUSH1 0x64 DUP3 ADD MSTORE PUSH1 0x84 ADD PUSH2 0x194 JUMP JUMPDEST PUSH1 0x60 PUSH2 0x453 DUP5 DUP5 PUSH0 DUP6 PUSH2 0x45B JUMP JUMPDEST SWAP5 SWAP4 POP POP POP POP JUMP JUMPDEST PUSH1 0x60 DUP3 SELFBALANCE LT ISZERO PUSH2 0x4BC JUMPI PUSH1 0x40 MLOAD PUSH3 0x461BCD PUSH1 0xE5 SHL DUP2 MSTORE PUSH1 0x20 PUSH1 0x4 DUP3 ADD MSTORE PUSH1 0x26 PUSH1 0x24 DUP3 ADD MSTORE PUSH32 0x416464726573733A20696E73756666696369656E742062616C616E636520666F PUSH1 0x44 DUP3 ADD MSTORE PUSH6 0x1C8818D85B1B PUSH1 0xD2 SHL PUSH1 0x64 DUP3 ADD MSTORE PUSH1 0x84 ADD PUSH2 0x194 JUMP JUMPDEST PUSH0 DUP1 DUP7 PUSH1 0x1 PUSH1 0x1 PUSH1 0xA0 SHL SUB AND DUP6 DUP8 PUSH1 0x40 MLOAD PUSH2 0x4D7 SWAP2 SWAP1 PUSH2 0x6A3 JUMP JUMPDEST PUSH0 PUSH1 0x40 MLOAD DUP1 DUP4 SUB DUP2 DUP6 DUP8 GAS CALL SWAP3 POP POP POP RETURNDATASIZE DUP1 PUSH0 DUP2 EQ PUSH2 0x511 JUMPI PUSH1 0x40 MLOAD SWAP2 POP PUSH1 0x1F NOT PUSH1 0x3F RETURNDATASIZE ADD AND DUP3 ADD PUSH1 0x40 MSTORE RETURNDATASIZE DUP3 MSTORE RETURNDATASIZE PUSH0 PUSH1 0x20 DUP5 ADD RETURNDATACOPY PUSH2 0x516 JUMP JUMPDEST PUSH1 0x60 SWAP2 POP JUMPDEST POP SWAP2 POP SWAP2 POP PUSH2 0x527 DUP8 DUP4 DUP4 DUP8 PUSH2 0x532 JUMP JUMPDEST SWAP8 SWAP7 POP POP POP POP POP POP POP JUMP JUMPDEST PUSH1 0x60 DUP4 ISZERO PUSH2 0x5A0 JUMPI DUP3 MLOAD PUSH0 SUB PUSH2 0x599 JUMPI PUSH1 0x1 PUSH1 0x1 PUSH1 0xA0 SHL SUB DUP6 AND EXTCODESIZE PUSH2 0x599 JUMPI PUSH1 0x40 MLOAD PUSH3 0x461BCD PUSH1 0xE5 SHL DUP2 MSTORE PUSH1 0x20 PUSH1 0x4 DUP3 ADD MSTORE PUSH1 0x1D PUSH1 0x24 DUP3 ADD MSTORE PUSH32 0x416464726573733A2063616C6C20746F206E6F6E2D636F6E7472616374000000 PUSH1 0x44 DUP3 ADD MSTORE PUSH1 0x64 ADD PUSH2 0x194 JUMP JUMPDEST POP DUP2 PUSH2 0x453 JUMP JUMPDEST PUSH2 0x453 DUP4 DUP4 DUP2 MLOAD ISZERO PUSH2 0x5B5 JUMPI DUP2 MLOAD DUP1 DUP4 PUSH1 0x20 ADD REVERT JUMPDEST DUP1 PUSH1 0x40 MLOAD PUSH3 0x461BCD PUSH1 0xE5 SHL DUP2 MSTORE PUSH1 0x4 ADD PUSH2 0x194 SWAP2 SWAP1 PUSH2 0x6BE JUMP JUMPDEST PUSH1 0x1 PUSH1 0x1 PUSH1 0xA0 SHL SUB DUP2 AND DUP2 EQ PUSH2 0x5E3 JUMPI PUSH0 DUP1 REVERT JUMPDEST POP JUMP JUMPDEST PUSH0 DUP1 PUSH0 PUSH1 0x60 DUP5 DUP7 SUB SLT ISZERO PUSH2 0x5F8 JUMPI PUSH0 DUP1 REVERT JUMPDEST DUP4 CALLDATALOAD PUSH2 0x603 DUP2 PUSH2 0x5CF JUMP JUMPDEST SWAP3 POP PUSH1 0x20 DUP5 ADD CALLDATALOAD SWAP2 POP PUSH1 0x40 DUP5 ADD CALLDATALOAD PUSH2 0x61A DUP2 PUSH2 0x5CF JUMP JUMPDEST DUP1 SWAP2 POP POP SWAP3 POP SWAP3 POP SWAP3 JUMP JUMPDEST PUSH0 PUSH1 0x20 DUP3 DUP5 SUB SLT ISZERO PUSH2 0x635 JUMPI PUSH0 DUP1 REVERT JUMPDEST DUP2 CALLDATALOAD PUSH2 0x640 DUP2 PUSH2 0x5CF JUMP JUMPDEST SWAP4 SWAP3 POP POP POP JUMP JUMPDEST PUSH0 PUSH1 0x20 DUP3 DUP5 SUB SLT ISZERO PUSH2 0x657 JUMPI PUSH0 DUP1 REVERT JUMPDEST DUP2 MLOAD PUSH2 0x640 DUP2 PUSH2 0x5CF JUMP JUMPDEST PUSH0 PUSH1 0x20 DUP3 DUP5 SUB SLT ISZERO PUSH2 0x672 JUMPI PUSH0 DUP1 REVERT JUMPDEST DUP2 MLOAD DUP1 ISZERO ISZERO DUP2 EQ PUSH2 0x640 JUMPI PUSH0 DUP1 REVERT JUMPDEST PUSH0 JUMPDEST DUP4 DUP2 LT ISZERO PUSH2 0x69B JUMPI DUP2 DUP2 ADD MLOAD DUP4 DUP3 ADD MSTORE PUSH1 0x20 ADD PUSH2 0x683 JUMP JUMPDEST POP POP PUSH0 SWAP2 ADD MSTORE JUMP JUMPDEST PUSH0 DUP3 MLOAD PUSH2 0x6B4 DUP2 DUP5 PUSH1 0x20 DUP8 ADD PUSH2 0x681 JUMP JUMPDEST SWAP2 SWAP1 SWAP2 ADD SWAP3 SWAP2 POP POP JUMP JUMPDEST PUSH1 0x20 DUP2 MSTORE PUSH0 DUP3 MLOAD DUP1 PUSH1 0x20 DUP5 ADD MSTORE PUSH2 0x6DC DUP2 PUSH1 0x40 DUP6 ADD PUSH1 0x20 DUP8 ADD PUSH2 0x681 JUMP JUMPDEST PUSH1 0x1F ADD PUSH1 0x1F NOT AND SWAP2 SWAP1 SWAP2 ADD PUSH1 0x40 ADD SWAP3 SWAP2 POP POP JUMP INVALID LOG2 PUSH5 0x6970667358 0x22 SLT KECCAK256 0x1F 0xCC 0x2D PUSH8 0x4075FA2556DAD455 0xDB 0xEA 0xDF PUSH30 0x8A13F70645FE4482DD97D77B8B3E9B7464736F6C63430008150033000000 "
				},
				"gasEstimates": {
					"creation": {
						"codeDepositCost": "366000",
						"executionCost": "403",
						"totalCost": "366403"
					},
					"external": {
						"changeRegistryContractAddr(address)": "infinite",
						"initialize(address)": "50968",
						"transferReward(address,uint256,address)": "infinite"
					},
					"internal": {
						"_transferRegistryAddr(address)": "24277"
					}
				},
				"methodIdentifiers": {
					"changeRegistryContractAddr(address)": "fa7c828a",
					"initialize(address)": "c4d66de8",
					"transferReward(address,uint256,address)": "431a08b0"
				}
			},
			"storageLayout": {
				"storage": [
					{
						"astId": 1734,
						"contract": "RewardReserve.sol:RewardReserve",
						"label": "registryContract",
						"offset": 0,
						"slot": "0",
						"type": "t_address"
					},
					{
						"astId": 1736,
						"contract": "RewardReserve.sol:RewardReserve",
						"label": "initialized",
						"offset": 20,
						"slot": "0",
						"type": "t_bool"
					}
				],
				"types": {
					"t_address": {
						"encoding": "inplace",
						"label": "address",
						"numberOfBytes": "20"
					},
					"t_bool": {
						"encoding": "inplace",
						"label": "bool",
						"numberOfBytes": "1"
					}
				}
			},
			"userdoc": {
				"kind": "user",
				"methods": {},
				"version": 1
			}
		}
	}
}