{
	"Tét.sol": {
		"A": {
			"abi": [
				{
					"inputs": [],
					"name": "getTotal",
					"outputs": [
						{
							"internalType": "uint256",
							"name": "",
							"type": "uint256"
						}
					],
					"stateMutability": "view",
					"type": "function"
				},
				{
					"inputs": [
						{
							"internalType": "uint256",
							"name": "number",
							"type": "uint256"
						},
						{
							"internalType": "uint256",
							"name": "from",
							"type": "uint256"
						}
					],
					"name": "pushdata",
					"outputs": [],
					"stateMutability": "nonpayable",
					"type": "function"
				},
				{
					"inputs": [
						{
							"internalType": "uint256[]",
							"name": "a",
							"type": "uint256[]"
						}
					],
					"name": "tryReversedLoop",
					"outputs": [],
					"stateMutability": "nonpayable",
					"type": "function"
				},
				{
					"inputs": [],
					"name": "viewData",
					"outputs": [
						{
							"internalType": "uint256[]",
							"name": "",
							"type": "uint256[]"
						}
					],
					"stateMutability": "view",
					"type": "function"
				},
				{
					"inputs": [],
					"name": "viewLength",
					"outputs": [
						{
							"internalType": "uint256",
							"name": "",
							"type": "uint256"
						}
					],
					"stateMutability": "view",
					"type": "function"
				},
				{
					"inputs": [
						{
							"internalType": "uint256",
							"name": "a",
							"type": "uint256"
						}
					],
					"name": "viewWithCondition",
					"outputs": [
						{
							"internalType": "uint256",
							"name": "",
							"type": "uint256"
						}
					],
					"stateMutability": "view",
					"type": "function"
				}
			],
			"devdoc": {
				"kind": "dev",
				"methods": {},
				"version": 1
			},
			"evm": {
				"assembly": "    /* \"T\\xc3\\xa9t.sol\":0:1267  contract A{... */\n  mstore(0x40, 0x80)\n  callvalue\n  dup1\n  iszero\n  tag_1\n  jumpi\n  0x00\n  dup1\n  revert\ntag_1:\n  pop\n  dataSize(sub_0)\n  dup1\n  dataOffset(sub_0)\n  0x00\n  codecopy\n  0x00\n  return\nstop\n\nsub_0: assembly {\n        /* \"T\\xc3\\xa9t.sol\":0:1267  contract A{... */\n      mstore(0x40, 0x80)\n      callvalue\n      dup1\n      iszero\n      tag_1\n      jumpi\n      0x00\n      dup1\n      revert\n    tag_1:\n      pop\n      jumpi(tag_2, lt(calldatasize, 0x04))\n      shr(0xe0, calldataload(0x00))\n      dup1\n      0x109284c0\n      eq\n      tag_3\n      jumpi\n      dup1\n      0x775a25e3\n      eq\n      tag_4\n      jumpi\n      dup1\n      0x7ba09759\n      eq\n      tag_5\n      jumpi\n      dup1\n      0x835da87b\n      eq\n      tag_6\n      jumpi\n      dup1\n      0x94c16e5b\n      eq\n      tag_7\n      jumpi\n      dup1\n      0x9f0f1e17\n      eq\n      tag_8\n      jumpi\n    tag_2:\n      0x00\n      dup1\n      revert\n        /* \"T\\xc3\\xa9t.sol\":43:246  function pushdata(uint256 number, uint256 from) external{... */\n    tag_3:\n      tag_9\n      tag_10\n      calldatasize\n      0x04\n      tag_11\n      jump\t// in\n    tag_10:\n      tag_12\n      jump\t// in\n    tag_9:\n      stop\n        /* \"T\\xc3\\xa9t.sol\":781:985  function getTotal() external view returns(uint256){... */\n    tag_4:\n      tag_13\n      tag_14\n      jump\t// in\n    tag_13:\n      mload(0x40)\n        /* \"#utility.yul\":413:438   */\n      swap1\n      dup2\n      mstore\n        /* \"#utility.yul\":401:403   */\n      0x20\n        /* \"#utility.yul\":386:404   */\n      add\n        /* \"T\\xc3\\xa9t.sol\":781:985  function getTotal() external view returns(uint256){... */\n    tag_15:\n      mload(0x40)\n      dup1\n      swap2\n      sub\n      swap1\n      return\n        /* \"T\\xc3\\xa9t.sol\":252:346  function viewData() external view returns(uint256[] memory){... */\n    tag_5:\n      tag_17\n      tag_18\n      jump\t// in\n    tag_17:\n      mload(0x40)\n      tag_15\n      swap2\n      swap1\n      tag_20\n      jump\t// in\n        /* \"T\\xc3\\xa9t.sol\":452:770  function viewWithCondition(uint256 a) external view returns(uint256){... */\n    tag_6:\n      tag_13\n      tag_22\n      calldatasize\n      0x04\n      tag_23\n      jump\t// in\n    tag_22:\n      tag_24\n      jump\t// in\n        /* \"T\\xc3\\xa9t.sol\":991:1265  function tryReversedLoop(uint256[] calldata a) external{... */\n    tag_7:\n      tag_9\n      tag_27\n      calldatasize\n      0x04\n      tag_28\n      jump\t// in\n    tag_27:\n      tag_29\n      jump\t// in\n        /* \"T\\xc3\\xa9t.sol\":352:446  function viewLength() external view returns(uint256){... */\n    tag_8:\n        /* \"T\\xc3\\xa9t.sol\":396:403  uint256 */\n      0x00\n        /* \"T\\xc3\\xa9t.sol\":421:439  numberArray.length */\n      sload\n        /* \"T\\xc3\\xa9t.sol\":352:446  function viewLength() external view returns(uint256){... */\n      jump(tag_13)\n        /* \"T\\xc3\\xa9t.sol\":43:246  function pushdata(uint256 number, uint256 from) external{... */\n    tag_12:\n        /* \"T\\xc3\\xa9t.sol\":125:129  from */\n      dup1\n        /* \"T\\xc3\\xa9t.sol\":109:122  uint256 value */\n      0x00\n        /* \"T\\xc3\\xa9t.sol\":139:240  for(uint i=0; i < number;i++){... */\n    tag_34:\n        /* \"T\\xc3\\xa9t.sol\":157:163  number */\n      dup4\n        /* \"T\\xc3\\xa9t.sol\":153:154  i */\n      dup2\n        /* \"T\\xc3\\xa9t.sol\":153:163  i < number */\n      lt\n        /* \"T\\xc3\\xa9t.sol\":139:240  for(uint i=0; i < number;i++){... */\n      iszero\n      tag_35\n      jumpi\n        /* \"T\\xc3\\xa9t.sol\":182:193  numberArray */\n      0x00\n        /* \"T\\xc3\\xa9t.sol\":182:205  numberArray.push(value) */\n      dup1\n      sload\n      0x01\n      dup2\n      dup2\n      add\n      dup4\n      sstore\n      swap2\n      dup1\n      mstore\n      0x290decd9548b62a8d60345a988386fc84ba6bc95484008f6362f93160ef3e563\n      add\n      dup4\n      swap1\n      sstore\n        /* \"T\\xc3\\xa9t.sol\":219:229  value += 1 */\n      tag_38\n      swap1\n        /* \"T\\xc3\\xa9t.sol\":199:204  value */\n      dup4\n        /* \"T\\xc3\\xa9t.sol\":219:229  value += 1 */\n      tag_39\n      jump\t// in\n    tag_38:\n      swap2\n      pop\n        /* \"T\\xc3\\xa9t.sol\":164:167  i++ */\n      dup1\n      tag_40\n      dup2\n      tag_41\n      jump\t// in\n    tag_40:\n      swap2\n      pop\n      pop\n        /* \"T\\xc3\\xa9t.sol\":139:240  for(uint i=0; i < number;i++){... */\n      jump(tag_34)\n    tag_35:\n      pop\n        /* \"T\\xc3\\xa9t.sol\":99:246  {... */\n      pop\n        /* \"T\\xc3\\xa9t.sol\":43:246  function pushdata(uint256 number, uint256 from) external{... */\n      pop\n      pop\n      jump\t// out\n        /* \"T\\xc3\\xa9t.sol\":781:985  function getTotal() external view returns(uint256){... */\n    tag_14:\n        /* \"T\\xc3\\xa9t.sol\":823:830  uint256 */\n      0x00\n        /* \"T\\xc3\\xa9t.sol\":841:855  uint256 result */\n      dup1\n        /* \"T\\xc3\\xa9t.sol\":869:875  uint i */\n      0x00\n        /* \"T\\xc3\\xa9t.sol\":865:955  for(uint i=0; i < numberArray.length;i++){... */\n    tag_43:\n        /* \"T\\xc3\\xa9t.sol\":883:894  numberArray */\n      0x00\n        /* \"T\\xc3\\xa9t.sol\":883:901  numberArray.length */\n      sload\n        /* \"T\\xc3\\xa9t.sol\":879:901  i < numberArray.length */\n      dup2\n      lt\n        /* \"T\\xc3\\xa9t.sol\":865:955  for(uint i=0; i < numberArray.length;i++){... */\n      iszero\n      tag_44\n      jumpi\n        /* \"T\\xc3\\xa9t.sol\":930:941  numberArray */\n      0x00\n        /* \"T\\xc3\\xa9t.sol\":942:943  i */\n      dup2\n        /* \"T\\xc3\\xa9t.sol\":930:944  numberArray[i] */\n      dup2\n      sload\n      dup2\n      lt\n      tag_47\n      jumpi\n      tag_47\n      tag_48\n      jump\t// in\n    tag_47:\n      swap1\n      0x00\n      mstore\n      keccak256(0x00, 0x20)\n      add\n      sload\n        /* \"T\\xc3\\xa9t.sol\":920:944  result += numberArray[i] */\n      dup3\n      tag_50\n      swap2\n      swap1\n      tag_39\n      jump\t// in\n    tag_50:\n      swap2\n      pop\n        /* \"T\\xc3\\xa9t.sol\":902:905  i++ */\n      dup1\n      tag_51\n      dup2\n      tag_41\n      jump\t// in\n    tag_51:\n      swap2\n      pop\n      pop\n        /* \"T\\xc3\\xa9t.sol\":865:955  for(uint i=0; i < numberArray.length;i++){... */\n      jump(tag_43)\n    tag_44:\n      pop\n        /* \"T\\xc3\\xa9t.sol\":972:978  result */\n      swap2\n        /* \"T\\xc3\\xa9t.sol\":781:985  function getTotal() external view returns(uint256){... */\n      swap1\n      pop\n      jump\t// out\n        /* \"T\\xc3\\xa9t.sol\":252:346  function viewData() external view returns(uint256[] memory){... */\n    tag_18:\n        /* \"T\\xc3\\xa9t.sol\":294:310  uint256[] memory */\n      0x60\n        /* \"T\\xc3\\xa9t.sol\":328:339  numberArray */\n      0x00\n        /* \"T\\xc3\\xa9t.sol\":321:339  return numberArray */\n      dup1\n      sload\n      dup1\n      0x20\n      mul\n      0x20\n      add\n      mload(0x40)\n      swap1\n      dup2\n      add\n      0x40\n      mstore\n      dup1\n      swap3\n      swap2\n      swap1\n      dup2\n      dup2\n      mstore\n      0x20\n      add\n      dup3\n      dup1\n      sload\n      dup1\n      iszero\n      tag_53\n      jumpi\n      0x20\n      mul\n      dup3\n      add\n      swap2\n      swap1\n      0x00\n      mstore\n      keccak256(0x00, 0x20)\n      swap1\n    tag_54:\n      dup2\n      sload\n      dup2\n      mstore\n      0x20\n      add\n      swap1\n      0x01\n      add\n      swap1\n      dup1\n      dup4\n      gt\n      tag_54\n      jumpi\n    tag_53:\n      pop\n      pop\n      pop\n      pop\n      pop\n      swap1\n      pop\n        /* \"T\\xc3\\xa9t.sol\":252:346  function viewData() external view returns(uint256[] memory){... */\n      swap1\n      jump\t// out\n        /* \"T\\xc3\\xa9t.sol\":452:770  function viewWithCondition(uint256 a) external view returns(uint256){... */\n    tag_24:\n        /* \"T\\xc3\\xa9t.sol\":512:519  uint256 */\n      0x00\n        /* \"T\\xc3\\xa9t.sol\":530:539  uint256 x */\n      dup1\n        /* \"T\\xc3\\xa9t.sol\":553:559  uint i */\n      0x00\n        /* \"T\\xc3\\xa9t.sol\":549:745  for(uint i=0; i < numberArray.length;i++){... */\n    tag_56:\n        /* \"T\\xc3\\xa9t.sol\":567:578  numberArray */\n      0x00\n        /* \"T\\xc3\\xa9t.sol\":567:585  numberArray.length */\n      sload\n        /* \"T\\xc3\\xa9t.sol\":563:585  i < numberArray.length */\n      dup2\n      lt\n        /* \"T\\xc3\\xa9t.sol\":549:745  for(uint i=0; i < numberArray.length;i++){... */\n      iszero\n      tag_57\n      jumpi\n        /* \"T\\xc3\\xa9t.sol\":612:613  i */\n      dup1\n        /* \"T\\xc3\\xa9t.sol\":607:608  a */\n      dup5\n        /* \"T\\xc3\\xa9t.sol\":607:613  a == i */\n      sub\n        /* \"T\\xc3\\xa9t.sol\":604:735  if(a == i){... */\n      tag_59\n      jumpi\n        /* \"T\\xc3\\xa9t.sol\":636:637  a */\n      dup4\n        /* \"T\\xc3\\xa9t.sol\":632:637  x = a */\n      swap2\n      pop\n        /* \"T\\xc3\\xa9t.sol\":655:660  break */\n      jump(tag_57)\n        /* \"T\\xc3\\xa9t.sol\":604:735  if(a == i){... */\n    tag_59:\n        /* \"T\\xc3\\xa9t.sol\":714:720  999999 */\n      0x0f423f\n        /* \"T\\xc3\\xa9t.sol\":710:720  x = 999999 */\n      swap2\n      pop\n        /* \"T\\xc3\\xa9t.sol\":586:589  i++ */\n      dup1\n      tag_61\n      dup2\n      tag_41\n      jump\t// in\n    tag_61:\n      swap2\n      pop\n      pop\n        /* \"T\\xc3\\xa9t.sol\":549:745  for(uint i=0; i < numberArray.length;i++){... */\n      jump(tag_56)\n    tag_57:\n      pop\n        /* \"T\\xc3\\xa9t.sol\":762:763  x */\n      swap3\n        /* \"T\\xc3\\xa9t.sol\":452:770  function viewWithCondition(uint256 a) external view returns(uint256){... */\n      swap2\n      pop\n      pop\n      jump\t// out\n        /* \"T\\xc3\\xa9t.sol\":991:1265  function tryReversedLoop(uint256[] calldata a) external{... */\n    tag_29:\n        /* \"T\\xc3\\xa9t.sol\":1105:1106  a */\n      dup1\n        /* \"T\\xc3\\xa9t.sol\":1091:1254  for (uint i = a.length; i > 0; i--) {... */\n    tag_63:\n        /* \"T\\xc3\\xa9t.sol\":1115:1120  i > 0 */\n      dup1\n      iszero\n        /* \"T\\xc3\\xa9t.sol\":1091:1254  for (uint i = a.length; i > 0; i--) {... */\n      tag_64\n      jumpi\n        /* \"T\\xc3\\xa9t.sol\":1162:1163  a */\n      dup3\n      dup3\n        /* \"T\\xc3\\xa9t.sol\":1164:1165  i */\n      dup3\n        /* \"T\\xc3\\xa9t.sol\":1162:1166  a[i] */\n      dup2\n      dup2\n      lt\n      tag_67\n      jumpi\n      tag_67\n      tag_48\n      jump\t// in\n    tag_67:\n      swap1\n      pop\n      0x20\n      mul\n      add\n      calldataload\n        /* \"T\\xc3\\xa9t.sol\":1145:1156  numberArray */\n      0x00\n        /* \"T\\xc3\\xa9t.sol\":1157:1158  i */\n      dup3\n        /* \"T\\xc3\\xa9t.sol\":1145:1159  numberArray[i] */\n      dup2\n      sload\n      dup2\n      lt\n      tag_69\n      jumpi\n      tag_69\n      tag_48\n      jump\t// in\n    tag_69:\n      0x00\n      swap2\n      dup3\n      mstore\n      0x20\n      swap1\n      swap2\n      keccak256\n      add\n        /* \"T\\xc3\\xa9t.sol\":1145:1166  numberArray[i] = a[i] */\n      sstore\n        /* \"T\\xc3\\xa9t.sol\":1184:1240  if(i == 0){... */\n      dup1\n      iszero\n        /* \"T\\xc3\\xa9t.sol\":1216:1221  break */\n      tag_64\n        /* \"T\\xc3\\xa9t.sol\":1184:1240  if(i == 0){... */\n      jumpi\n        /* \"T\\xc3\\xa9t.sol\":1122:1125  i-- */\n      dup1\n      tag_72\n      dup2\n      tag_73\n      jump\t// in\n    tag_72:\n      swap2\n      pop\n      pop\n        /* \"T\\xc3\\xa9t.sol\":1091:1254  for (uint i = a.length; i > 0; i--) {... */\n      jump(tag_63)\n    tag_64:\n      pop\n        /* \"T\\xc3\\xa9t.sol\":991:1265  function tryReversedLoop(uint256[] calldata a) external{... */\n      pop\n      pop\n      jump\t// out\n        /* \"#utility.yul\":14:262   */\n    tag_11:\n        /* \"#utility.yul\":82:88   */\n      0x00\n        /* \"#utility.yul\":90:96   */\n      dup1\n        /* \"#utility.yul\":143:145   */\n      0x40\n        /* \"#utility.yul\":131:140   */\n      dup4\n        /* \"#utility.yul\":122:129   */\n      dup6\n        /* \"#utility.yul\":118:141   */\n      sub\n        /* \"#utility.yul\":114:146   */\n      slt\n        /* \"#utility.yul\":111:163   */\n      iszero\n      tag_78\n      jumpi\n        /* \"#utility.yul\":159:160   */\n      0x00\n        /* \"#utility.yul\":156:157   */\n      dup1\n        /* \"#utility.yul\":149:161   */\n      revert\n        /* \"#utility.yul\":111:163   */\n    tag_78:\n      pop\n      pop\n        /* \"#utility.yul\":182:205   */\n      dup1\n      calldataload\n      swap3\n        /* \"#utility.yul\":252:254   */\n      0x20\n        /* \"#utility.yul\":237:255   */\n      swap1\n      swap2\n      add\n        /* \"#utility.yul\":224:256   */\n      calldataload\n      swap2\n      pop\n        /* \"#utility.yul\":14:262   */\n      jump\t// out\n        /* \"#utility.yul\":449:1081   */\n    tag_20:\n        /* \"#utility.yul\":620:622   */\n      0x20\n        /* \"#utility.yul\":672:693   */\n      dup1\n      dup3\n      mstore\n        /* \"#utility.yul\":742:755   */\n      dup3\n      mload\n        /* \"#utility.yul\":645:663   */\n      dup3\n      dup3\n      add\n        /* \"#utility.yul\":764:786   */\n      dup2\n      swap1\n      mstore\n        /* \"#utility.yul\":591:595   */\n      0x00\n      swap2\n        /* \"#utility.yul\":620:622   */\n      swap1\n        /* \"#utility.yul\":843:858   */\n      dup5\n      dup3\n      add\n      swap1\n        /* \"#utility.yul\":817:819   */\n      0x40\n        /* \"#utility.yul\":802:820   */\n      dup6\n      add\n      swap1\n        /* \"#utility.yul\":591:595   */\n      dup5\n        /* \"#utility.yul\":886:1055   */\n    tag_81:\n        /* \"#utility.yul\":900:906   */\n      dup2\n        /* \"#utility.yul\":897:898   */\n      dup2\n        /* \"#utility.yul\":894:907   */\n      lt\n        /* \"#utility.yul\":886:1055   */\n      iszero\n      tag_83\n      jumpi\n        /* \"#utility.yul\":961:974   */\n      dup4\n      mload\n        /* \"#utility.yul\":949:975   */\n      dup4\n      mstore\n        /* \"#utility.yul\":1030:1045   */\n      swap3\n      dup5\n      add\n      swap3\n        /* \"#utility.yul\":995:1007   */\n      swap2\n      dup5\n      add\n      swap2\n        /* \"#utility.yul\":922:923   */\n      0x01\n        /* \"#utility.yul\":915:924   */\n      add\n        /* \"#utility.yul\":886:1055   */\n      jump(tag_81)\n    tag_83:\n      pop\n        /* \"#utility.yul\":1072:1075   */\n      swap1\n      swap7\n        /* \"#utility.yul\":449:1081   */\n      swap6\n      pop\n      pop\n      pop\n      pop\n      pop\n      pop\n      jump\t// out\n        /* \"#utility.yul\":1086:1266   */\n    tag_23:\n        /* \"#utility.yul\":1145:1151   */\n      0x00\n        /* \"#utility.yul\":1198:1200   */\n      0x20\n        /* \"#utility.yul\":1186:1195   */\n      dup3\n        /* \"#utility.yul\":1177:1184   */\n      dup5\n        /* \"#utility.yul\":1173:1196   */\n      sub\n        /* \"#utility.yul\":1169:1201   */\n      slt\n        /* \"#utility.yul\":1166:1218   */\n      iszero\n      tag_85\n      jumpi\n        /* \"#utility.yul\":1214:1215   */\n      0x00\n        /* \"#utility.yul\":1211:1212   */\n      dup1\n        /* \"#utility.yul\":1204:1216   */\n      revert\n        /* \"#utility.yul\":1166:1218   */\n    tag_85:\n      pop\n        /* \"#utility.yul\":1237:1260   */\n      calldataload\n      swap2\n        /* \"#utility.yul\":1086:1266   */\n      swap1\n      pop\n      jump\t// out\n        /* \"#utility.yul\":1271:1886   */\n    tag_28:\n        /* \"#utility.yul\":1357:1363   */\n      0x00\n        /* \"#utility.yul\":1365:1371   */\n      dup1\n        /* \"#utility.yul\":1418:1420   */\n      0x20\n        /* \"#utility.yul\":1406:1415   */\n      dup4\n        /* \"#utility.yul\":1397:1404   */\n      dup6\n        /* \"#utility.yul\":1393:1416   */\n      sub\n        /* \"#utility.yul\":1389:1421   */\n      slt\n        /* \"#utility.yul\":1386:1438   */\n      iszero\n      tag_87\n      jumpi\n        /* \"#utility.yul\":1434:1435   */\n      0x00\n        /* \"#utility.yul\":1431:1432   */\n      dup1\n        /* \"#utility.yul\":1424:1436   */\n      revert\n        /* \"#utility.yul\":1386:1438   */\n    tag_87:\n        /* \"#utility.yul\":1474:1483   */\n      dup3\n        /* \"#utility.yul\":1461:1484   */\n      calldataload\n        /* \"#utility.yul\":1503:1521   */\n      0xffffffffffffffff\n        /* \"#utility.yul\":1544:1546   */\n      dup1\n        /* \"#utility.yul\":1536:1542   */\n      dup3\n        /* \"#utility.yul\":1533:1547   */\n      gt\n        /* \"#utility.yul\":1530:1564   */\n      iszero\n      tag_88\n      jumpi\n        /* \"#utility.yul\":1560:1561   */\n      0x00\n        /* \"#utility.yul\":1557:1558   */\n      dup1\n        /* \"#utility.yul\":1550:1562   */\n      revert\n        /* \"#utility.yul\":1530:1564   */\n    tag_88:\n        /* \"#utility.yul\":1598:1604   */\n      dup2\n        /* \"#utility.yul\":1587:1596   */\n      dup6\n        /* \"#utility.yul\":1583:1605   */\n      add\n        /* \"#utility.yul\":1573:1605   */\n      swap2\n      pop\n        /* \"#utility.yul\":1643:1650   */\n      dup6\n        /* \"#utility.yul\":1636:1640   */\n      0x1f\n        /* \"#utility.yul\":1632:1634   */\n      dup4\n        /* \"#utility.yul\":1628:1641   */\n      add\n        /* \"#utility.yul\":1624:1651   */\n      slt\n        /* \"#utility.yul\":1614:1669   */\n      tag_89\n      jumpi\n        /* \"#utility.yul\":1665:1666   */\n      0x00\n        /* \"#utility.yul\":1662:1663   */\n      dup1\n        /* \"#utility.yul\":1655:1667   */\n      revert\n        /* \"#utility.yul\":1614:1669   */\n    tag_89:\n        /* \"#utility.yul\":1705:1707   */\n      dup2\n        /* \"#utility.yul\":1692:1708   */\n      calldataload\n        /* \"#utility.yul\":1731:1733   */\n      dup2\n        /* \"#utility.yul\":1723:1729   */\n      dup2\n        /* \"#utility.yul\":1720:1734   */\n      gt\n        /* \"#utility.yul\":1717:1751   */\n      iszero\n      tag_90\n      jumpi\n        /* \"#utility.yul\":1747:1748   */\n      0x00\n        /* \"#utility.yul\":1744:1745   */\n      dup1\n        /* \"#utility.yul\":1737:1749   */\n      revert\n        /* \"#utility.yul\":1717:1751   */\n    tag_90:\n        /* \"#utility.yul\":1800:1807   */\n      dup7\n        /* \"#utility.yul\":1795:1797   */\n      0x20\n        /* \"#utility.yul\":1785:1791   */\n      dup3\n        /* \"#utility.yul\":1782:1783   */\n      0x05\n        /* \"#utility.yul\":1778:1792   */\n      shl\n        /* \"#utility.yul\":1774:1776   */\n      dup6\n        /* \"#utility.yul\":1770:1793   */\n      add\n        /* \"#utility.yul\":1766:1798   */\n      add\n        /* \"#utility.yul\":1763:1808   */\n      gt\n        /* \"#utility.yul\":1760:1825   */\n      iszero\n      tag_91\n      jumpi\n        /* \"#utility.yul\":1821:1822   */\n      0x00\n        /* \"#utility.yul\":1818:1819   */\n      dup1\n        /* \"#utility.yul\":1811:1823   */\n      revert\n        /* \"#utility.yul\":1760:1825   */\n    tag_91:\n        /* \"#utility.yul\":1852:1854   */\n      0x20\n        /* \"#utility.yul\":1844:1855   */\n      swap3\n      swap1\n      swap3\n      add\n      swap7\n        /* \"#utility.yul\":1874:1880   */\n      swap2\n      swap6\n      pop\n        /* \"#utility.yul\":1271:1886   */\n      swap1\n      swap4\n      pop\n      pop\n      pop\n      pop\n      jump\t// out\n        /* \"#utility.yul\":1891:2018   */\n    tag_75:\n        /* \"#utility.yul\":1952:1962   */\n      0x4e487b71\n        /* \"#utility.yul\":1947:1950   */\n      0xe0\n        /* \"#utility.yul\":1943:1963   */\n      shl\n        /* \"#utility.yul\":1940:1941   */\n      0x00\n        /* \"#utility.yul\":1933:1964   */\n      mstore\n        /* \"#utility.yul\":1983:1987   */\n      0x11\n        /* \"#utility.yul\":1980:1981   */\n      0x04\n        /* \"#utility.yul\":1973:1988   */\n      mstore\n        /* \"#utility.yul\":2007:2011   */\n      0x24\n        /* \"#utility.yul\":2004:2005   */\n      0x00\n        /* \"#utility.yul\":1997:2012   */\n      revert\n        /* \"#utility.yul\":2023:2148   */\n    tag_39:\n        /* \"#utility.yul\":2088:2097   */\n      dup1\n      dup3\n      add\n        /* \"#utility.yul\":2109:2119   */\n      dup1\n      dup3\n      gt\n        /* \"#utility.yul\":2106:2142   */\n      iszero\n      tag_95\n      jumpi\n        /* \"#utility.yul\":2122:2140   */\n      tag_95\n      tag_75\n      jump\t// in\n    tag_95:\n        /* \"#utility.yul\":2023:2148   */\n      swap3\n      swap2\n      pop\n      pop\n      jump\t// out\n        /* \"#utility.yul\":2153:2288   */\n    tag_41:\n        /* \"#utility.yul\":2192:2195   */\n      0x00\n        /* \"#utility.yul\":2213:2230   */\n      0x01\n      dup3\n      add\n        /* \"#utility.yul\":2210:2253   */\n      tag_98\n      jumpi\n        /* \"#utility.yul\":2233:2251   */\n      tag_98\n      tag_75\n      jump\t// in\n    tag_98:\n      pop\n        /* \"#utility.yul\":2280:2281   */\n      0x01\n        /* \"#utility.yul\":2269:2282   */\n      add\n      swap1\n        /* \"#utility.yul\":2153:2288   */\n      jump\t// out\n        /* \"#utility.yul\":2293:2420   */\n    tag_48:\n        /* \"#utility.yul\":2354:2364   */\n      0x4e487b71\n        /* \"#utility.yul\":2349:2352   */\n      0xe0\n        /* \"#utility.yul\":2345:2365   */\n      shl\n        /* \"#utility.yul\":2342:2343   */\n      0x00\n        /* \"#utility.yul\":2335:2366   */\n      mstore\n        /* \"#utility.yul\":2385:2389   */\n      0x32\n        /* \"#utility.yul\":2382:2383   */\n      0x04\n        /* \"#utility.yul\":2375:2390   */\n      mstore\n        /* \"#utility.yul\":2409:2413   */\n      0x24\n        /* \"#utility.yul\":2406:2407   */\n      0x00\n        /* \"#utility.yul\":2399:2414   */\n      revert\n        /* \"#utility.yul\":2425:2561   */\n    tag_73:\n        /* \"#utility.yul\":2464:2467   */\n      0x00\n        /* \"#utility.yul\":2492:2497   */\n      dup2\n        /* \"#utility.yul\":2482:2521   */\n      tag_102\n      jumpi\n        /* \"#utility.yul\":2501:2519   */\n      tag_102\n      tag_75\n      jump\t// in\n    tag_102:\n      pop\n      not(0x00)\n        /* \"#utility.yul\":2537:2555   */\n      add\n      swap1\n        /* \"#utility.yul\":2425:2561   */\n      jump\t// out\n\n    auxdata: 0xa2646970667358221220147f1c12b6216b31cbb911f9302b12960b30ea9b773e9ab0ce82fd687277cc0e64736f6c63430008150033\n}\n",
				"bytecode": {
					"linkReferences": {},
					"object": "608060405234801561000f575f80fd5b506103fc8061001d5f395ff3fe608060405234801561000f575f80fd5b5060043610610060575f3560e01c8063109284c014610064578063775a25e3146100795780637ba0975914610094578063835da87b146100a957806394c16e5b146100bc5780639f0f1e17146100cf575b5f80fd5b61007761007236600461026f565b6100d6565b005b610081610137565b6040519081526020015b60405180910390f35b61009c610184565b60405161008b919061028f565b6100816100b73660046102d2565b6101d9565b6100776100ca3660046102e9565b610214565b5f54610081565b805f5b83811015610131575f8054600181810183559180527f290decd9548b62a8d60345a988386fc84ba6bc95484008f6362f93160ef3e5630183905561011d908361036c565b91508061012981610385565b9150506100d9565b50505050565b5f805f5b5f5481101561017e575f81815481106101565761015661039d565b905f5260205f2001548261016a919061036c565b91508061017681610385565b91505061013b565b50919050565b60605f8054806020026020016040519081016040528092919081815260200182805480156101cf57602002820191905f5260205f20905b8154815260200190600101908083116101bb575b5050505050905090565b5f805f5b5f5481101561020d578084036101f55783915061020d565b620f423f91508061020581610385565b9150506101dd565b5092915050565b805b801561026a5782828281811061022e5761022e61039d565b905060200201355f82815481106102475761024761039d565b5f91825260209091200155801561026a5780610262816103b1565b915050610216565b505050565b5f8060408385031215610280575f80fd5b50508035926020909101359150565b602080825282518282018190525f9190848201906040850190845b818110156102c6578351835292840192918401916001016102aa565b50909695505050505050565b5f602082840312156102e2575f80fd5b5035919050565b5f80602083850312156102fa575f80fd5b823567ffffffffffffffff80821115610311575f80fd5b818501915085601f830112610324575f80fd5b813581811115610332575f80fd5b8660208260051b8501011115610346575f80fd5b60209290920196919550909350505050565b634e487b7160e01b5f52601160045260245ffd5b8082018082111561037f5761037f610358565b92915050565b5f6001820161039657610396610358565b5060010190565b634e487b7160e01b5f52603260045260245ffd5b5f816103bf576103bf610358565b505f19019056fea2646970667358221220147f1c12b6216b31cbb911f9302b12960b30ea9b773e9ab0ce82fd687277cc0e64736f6c63430008150033",
					"opcodes": "PUSH1 0x80 PUSH1 0x40 MSTORE CALLVALUE DUP1 ISZERO PUSH2 0xF JUMPI PUSH0 DUP1 REVERT JUMPDEST POP PUSH2 0x3FC DUP1 PUSH2 0x1D PUSH0 CODECOPY PUSH0 RETURN INVALID PUSH1 0x80 PUSH1 0x40 MSTORE CALLVALUE DUP1 ISZERO PUSH2 0xF JUMPI PUSH0 DUP1 REVERT JUMPDEST POP PUSH1 0x4 CALLDATASIZE LT PUSH2 0x60 JUMPI PUSH0 CALLDATALOAD PUSH1 0xE0 SHR DUP1 PUSH4 0x109284C0 EQ PUSH2 0x64 JUMPI DUP1 PUSH4 0x775A25E3 EQ PUSH2 0x79 JUMPI DUP1 PUSH4 0x7BA09759 EQ PUSH2 0x94 JUMPI DUP1 PUSH4 0x835DA87B EQ PUSH2 0xA9 JUMPI DUP1 PUSH4 0x94C16E5B EQ PUSH2 0xBC JUMPI DUP1 PUSH4 0x9F0F1E17 EQ PUSH2 0xCF JUMPI JUMPDEST PUSH0 DUP1 REVERT JUMPDEST PUSH2 0x77 PUSH2 0x72 CALLDATASIZE PUSH1 0x4 PUSH2 0x26F JUMP JUMPDEST PUSH2 0xD6 JUMP JUMPDEST STOP JUMPDEST PUSH2 0x81 PUSH2 0x137 JUMP JUMPDEST PUSH1 0x40 MLOAD SWAP1 DUP2 MSTORE PUSH1 0x20 ADD JUMPDEST PUSH1 0x40 MLOAD DUP1 SWAP2 SUB SWAP1 RETURN JUMPDEST PUSH2 0x9C PUSH2 0x184 JUMP JUMPDEST PUSH1 0x40 MLOAD PUSH2 0x8B SWAP2 SWAP1 PUSH2 0x28F JUMP JUMPDEST PUSH2 0x81 PUSH2 0xB7 CALLDATASIZE PUSH1 0x4 PUSH2 0x2D2 JUMP JUMPDEST PUSH2 0x1D9 JUMP JUMPDEST PUSH2 0x77 PUSH2 0xCA CALLDATASIZE PUSH1 0x4 PUSH2 0x2E9 JUMP JUMPDEST PUSH2 0x214 JUMP JUMPDEST PUSH0 SLOAD PUSH2 0x81 JUMP JUMPDEST DUP1 PUSH0 JUMPDEST DUP4 DUP2 LT ISZERO PUSH2 0x131 JUMPI PUSH0 DUP1 SLOAD PUSH1 0x1 DUP2 DUP2 ADD DUP4 SSTORE SWAP2 DUP1 MSTORE PUSH32 0x290DECD9548B62A8D60345A988386FC84BA6BC95484008F6362F93160EF3E563 ADD DUP4 SWAP1 SSTORE PUSH2 0x11D SWAP1 DUP4 PUSH2 0x36C JUMP JUMPDEST SWAP2 POP DUP1 PUSH2 0x129 DUP2 PUSH2 0x385 JUMP JUMPDEST SWAP2 POP POP PUSH2 0xD9 JUMP JUMPDEST POP POP POP POP JUMP JUMPDEST PUSH0 DUP1 PUSH0 JUMPDEST PUSH0 SLOAD DUP2 LT ISZERO PUSH2 0x17E JUMPI PUSH0 DUP2 DUP2 SLOAD DUP2 LT PUSH2 0x156 JUMPI PUSH2 0x156 PUSH2 0x39D JUMP JUMPDEST SWAP1 PUSH0 MSTORE PUSH1 0x20 PUSH0 KECCAK256 ADD SLOAD DUP3 PUSH2 0x16A SWAP2 SWAP1 PUSH2 0x36C JUMP JUMPDEST SWAP2 POP DUP1 PUSH2 0x176 DUP2 PUSH2 0x385 JUMP JUMPDEST SWAP2 POP POP PUSH2 0x13B JUMP JUMPDEST POP SWAP2 SWAP1 POP JUMP JUMPDEST PUSH1 0x60 PUSH0 DUP1 SLOAD DUP1 PUSH1 0x20 MUL PUSH1 0x20 ADD PUSH1 0x40 MLOAD SWAP1 DUP2 ADD PUSH1 0x40 MSTORE DUP1 SWAP3 SWAP2 SWAP1 DUP2 DUP2 MSTORE PUSH1 0x20 ADD DUP3 DUP1 SLOAD DUP1 ISZERO PUSH2 0x1CF JUMPI PUSH1 0x20 MUL DUP3 ADD SWAP2 SWAP1 PUSH0 MSTORE PUSH1 0x20 PUSH0 KECCAK256 SWAP1 JUMPDEST DUP2 SLOAD DUP2 MSTORE PUSH1 0x20 ADD SWAP1 PUSH1 0x1 ADD SWAP1 DUP1 DUP4 GT PUSH2 0x1BB JUMPI JUMPDEST POP POP POP POP POP SWAP1 POP SWAP1 JUMP JUMPDEST PUSH0 DUP1 PUSH0 JUMPDEST PUSH0 SLOAD DUP2 LT ISZERO PUSH2 0x20D JUMPI DUP1 DUP5 SUB PUSH2 0x1F5 JUMPI DUP4 SWAP2 POP PUSH2 0x20D JUMP JUMPDEST PUSH3 0xF423F SWAP2 POP DUP1 PUSH2 0x205 DUP2 PUSH2 0x385 JUMP JUMPDEST SWAP2 POP POP PUSH2 0x1DD JUMP JUMPDEST POP SWAP3 SWAP2 POP POP JUMP JUMPDEST DUP1 JUMPDEST DUP1 ISZERO PUSH2 0x26A JUMPI DUP3 DUP3 DUP3 DUP2 DUP2 LT PUSH2 0x22E JUMPI PUSH2 0x22E PUSH2 0x39D JUMP JUMPDEST SWAP1 POP PUSH1 0x20 MUL ADD CALLDATALOAD PUSH0 DUP3 DUP2 SLOAD DUP2 LT PUSH2 0x247 JUMPI PUSH2 0x247 PUSH2 0x39D JUMP JUMPDEST PUSH0 SWAP2 DUP3 MSTORE PUSH1 0x20 SWAP1 SWAP2 KECCAK256 ADD SSTORE DUP1 ISZERO PUSH2 0x26A JUMPI DUP1 PUSH2 0x262 DUP2 PUSH2 0x3B1 JUMP JUMPDEST SWAP2 POP POP PUSH2 0x216 JUMP JUMPDEST POP POP POP JUMP JUMPDEST PUSH0 DUP1 PUSH1 0x40 DUP4 DUP6 SUB SLT ISZERO PUSH2 0x280 JUMPI PUSH0 DUP1 REVERT JUMPDEST POP POP DUP1 CALLDATALOAD SWAP3 PUSH1 0x20 SWAP1 SWAP2 ADD CALLDATALOAD SWAP2 POP JUMP JUMPDEST PUSH1 0x20 DUP1 DUP3 MSTORE DUP3 MLOAD DUP3 DUP3 ADD DUP2 SWAP1 MSTORE PUSH0 SWAP2 SWAP1 DUP5 DUP3 ADD SWAP1 PUSH1 0x40 DUP6 ADD SWAP1 DUP5 JUMPDEST DUP2 DUP2 LT ISZERO PUSH2 0x2C6 JUMPI DUP4 MLOAD DUP4 MSTORE SWAP3 DUP5 ADD SWAP3 SWAP2 DUP5 ADD SWAP2 PUSH1 0x1 ADD PUSH2 0x2AA JUMP JUMPDEST POP SWAP1 SWAP7 SWAP6 POP POP POP POP POP POP JUMP JUMPDEST PUSH0 PUSH1 0x20 DUP3 DUP5 SUB SLT ISZERO PUSH2 0x2E2 JUMPI PUSH0 DUP1 REVERT JUMPDEST POP CALLDATALOAD SWAP2 SWAP1 POP JUMP JUMPDEST PUSH0 DUP1 PUSH1 0x20 DUP4 DUP6 SUB SLT ISZERO PUSH2 0x2FA JUMPI PUSH0 DUP1 REVERT JUMPDEST DUP3 CALLDATALOAD PUSH8 0xFFFFFFFFFFFFFFFF DUP1 DUP3 GT ISZERO PUSH2 0x311 JUMPI PUSH0 DUP1 REVERT JUMPDEST DUP2 DUP6 ADD SWAP2 POP DUP6 PUSH1 0x1F DUP4 ADD SLT PUSH2 0x324 JUMPI PUSH0 DUP1 REVERT JUMPDEST DUP2 CALLDATALOAD DUP2 DUP2 GT ISZERO PUSH2 0x332 JUMPI PUSH0 DUP1 REVERT JUMPDEST DUP7 PUSH1 0x20 DUP3 PUSH1 0x5 SHL DUP6 ADD ADD GT ISZERO PUSH2 0x346 JUMPI PUSH0 DUP1 REVERT JUMPDEST PUSH1 0x20 SWAP3 SWAP1 SWAP3 ADD SWAP7 SWAP2 SWAP6 POP SWAP1 SWAP4 POP POP POP POP JUMP JUMPDEST PUSH4 0x4E487B71 PUSH1 0xE0 SHL PUSH0 MSTORE PUSH1 0x11 PUSH1 0x4 MSTORE PUSH1 0x24 PUSH0 REVERT JUMPDEST DUP1 DUP3 ADD DUP1 DUP3 GT ISZERO PUSH2 0x37F JUMPI PUSH2 0x37F PUSH2 0x358 JUMP JUMPDEST SWAP3 SWAP2 POP POP JUMP JUMPDEST PUSH0 PUSH1 0x1 DUP3 ADD PUSH2 0x396 JUMPI PUSH2 0x396 PUSH2 0x358 JUMP JUMPDEST POP PUSH1 0x1 ADD SWAP1 JUMP JUMPDEST PUSH4 0x4E487B71 PUSH1 0xE0 SHL PUSH0 MSTORE PUSH1 0x32 PUSH1 0x4 MSTORE PUSH1 0x24 PUSH0 REVERT JUMPDEST PUSH0 DUP2 PUSH2 0x3BF JUMPI PUSH2 0x3BF PUSH2 0x358 JUMP JUMPDEST POP PUSH0 NOT ADD SWAP1 JUMP INVALID LOG2 PUSH5 0x6970667358 0x22 SLT KECCAK256 EQ PUSH32 0x1C12B6216B31CBB911F9302B12960B30EA9B773E9AB0CE82FD687277CC0E6473 PUSH16 0x6C634300081500330000000000000000 "
				},
				"gasEstimates": {
					"creation": {
						"codeDepositCost": "204000",
						"executionCost": "243",
						"totalCost": "204243"
					},
					"external": {
						"getTotal()": "infinite",
						"pushdata(uint256,uint256)": "infinite",
						"tryReversedLoop(uint256[])": "557",
						"viewData()": "infinite",
						"viewLength()": "2367",
						"viewWithCondition(uint256)": "infinite"
					}
				},
				"methodIdentifiers": {
					"getTotal()": "775a25e3",
					"pushdata(uint256,uint256)": "109284c0",
					"tryReversedLoop(uint256[])": "94c16e5b",
					"viewData()": "7ba09759",
					"viewLength()": "9f0f1e17",
					"viewWithCondition(uint256)": "835da87b"
				}
			},
			"storageLayout": {
				"storage": [
					{
						"astId": 3,
						"contract": "Tét.sol:A",
						"label": "numberArray",
						"offset": 0,
						"slot": "0",
						"type": "t_array(t_uint256)dyn_storage"
					}
				],
				"types": {
					"t_array(t_uint256)dyn_storage": {
						"base": "t_uint256",
						"encoding": "dynamic_array",
						"label": "uint256[]",
						"numberOfBytes": "32"
					},
					"t_uint256": {
						"encoding": "inplace",
						"label": "uint256",
						"numberOfBytes": "32"
					}
				}
			},
			"userdoc": {
				"kind": "user",
				"methods": {},
				"version": 1
			}
		}
	}
}