{
	"stETHPoolV1.sol": {
		"stETHPool": {
			"abi": [
				{
					"anonymous": false,
					"inputs": [
						{
							"indexed": false,
							"internalType": "address",
							"name": "oldController",
							"type": "address"
						},
						{
							"indexed": false,
							"internalType": "address",
							"name": "newController",
							"type": "address"
						}
					],
					"name": "ControllerRoleTransferred",
					"type": "event"
				},
				{
					"anonymous": false,
					"inputs": [
						{
							"indexed": false,
							"internalType": "address",
							"name": "oldOwner",
							"type": "address"
						},
						{
							"indexed": false,
							"internalType": "address",
							"name": "newOwner",
							"type": "address"
						}
					],
					"name": "OwnershipTransferred",
					"type": "event"
				},
				{
					"anonymous": false,
					"inputs": [
						{
							"indexed": false,
							"internalType": "address",
							"name": "oldRouter",
							"type": "address"
						},
						{
							"indexed": false,
							"internalType": "address",
							"name": "newRouter",
							"type": "address"
						}
					],
					"name": "changedRouter",
					"type": "event"
				},
				{
					"anonymous": false,
					"inputs": [
						{
							"indexed": false,
							"internalType": "uint256",
							"name": "first",
							"type": "uint256"
						},
						{
							"indexed": false,
							"internalType": "uint256",
							"name": "second",
							"type": "uint256"
						},
						{
							"indexed": false,
							"internalType": "uint256",
							"name": "third",
							"type": "uint256"
						}
					],
					"name": "rewardPortionUpdated",
					"type": "event"
				},
				{
					"inputs": [
						{
							"internalType": "address",
							"name": "registryAddress",
							"type": "address"
						}
					],
					"name": "changeRegistryContractAddr",
					"outputs": [],
					"stateMutability": "nonpayable",
					"type": "function"
				},
				{
					"inputs": [
						{
							"internalType": "address",
							"name": "user",
							"type": "address"
						}
					],
					"name": "claimRewardsFor",
					"outputs": [
						{
							"internalType": "uint256",
							"name": "",
							"type": "uint256"
						}
					],
					"stateMutability": "nonpayable",
					"type": "function"
				},
				{
					"inputs": [
						{
							"internalType": "address",
							"name": "token",
							"type": "address"
						},
						{
							"internalType": "uint256",
							"name": "decimal",
							"type": "uint256"
						},
						{
							"internalType": "uint256",
							"name": "minAmount",
							"type": "uint256"
						},
						{
							"internalType": "uint256",
							"name": "duration",
							"type": "uint256"
						}
					],
					"name": "config",
					"outputs": [],
					"stateMutability": "nonpayable",
					"type": "function"
				},
				{
					"inputs": [],
					"name": "createNewEpoch",
					"outputs": [],
					"stateMutability": "nonpayable",
					"type": "function"
				},
				{
					"inputs": [
						{
							"internalType": "address",
							"name": "user",
							"type": "address"
						},
						{
							"internalType": "uint256",
							"name": "amount",
							"type": "uint256"
						}
					],
					"name": "depositFor",
					"outputs": [],
					"stateMutability": "nonpayable",
					"type": "function"
				},
				{
					"inputs": [
						{
							"internalType": "uint256",
							"name": "epochNumber",
							"type": "uint256"
						},
						{
							"internalType": "address",
							"name": "firstWinner",
							"type": "address"
						},
						{
							"internalType": "address",
							"name": "secondWinner",
							"type": "address"
						},
						{
							"internalType": "address",
							"name": "thirdWinner",
							"type": "address"
						},
						{
							"internalType": "uint256",
							"name": "totalPrize",
							"type": "uint256"
						}
					],
					"name": "finalizeEpoch",
					"outputs": [],
					"stateMutability": "nonpayable",
					"type": "function"
				},
				{
					"inputs": [
						{
							"internalType": "uint256",
							"name": "epochNumber",
							"type": "uint256"
						}
					],
					"name": "finalizeEpochTicketandParticipantInfo",
					"outputs": [],
					"stateMutability": "nonpayable",
					"type": "function"
				},
				{
					"inputs": [
						{
							"internalType": "uint256",
							"name": "epochNumber",
							"type": "uint256"
						},
						{
							"internalType": "address",
							"name": "user",
							"type": "address"
						}
					],
					"name": "getAccumulatedTicketwithoutDecimal",
					"outputs": [
						{
							"internalType": "uint256",
							"name": "",
							"type": "uint256"
						}
					],
					"stateMutability": "view",
					"type": "function"
				},
				{
					"inputs": [
						{
							"internalType": "address",
							"name": "user",
							"type": "address"
						},
						{
							"internalType": "uint256",
							"name": "epochNumber",
							"type": "uint256"
						}
					],
					"name": "getBalanceChangeHistory",
					"outputs": [
						{
							"components": [
								{
									"internalType": "bool",
									"name": "changedwithinEpoch",
									"type": "bool"
								},
								{
									"components": [
										{
											"internalType": "uint256",
											"name": "oldAmount",
											"type": "uint256"
										},
										{
											"internalType": "uint256",
											"name": "newAmount",
											"type": "uint256"
										},
										{
											"internalType": "uint256",
											"name": "updatedBlock",
											"type": "uint256"
										}
									],
									"internalType": "struct stETHPool.ChangeArray[]",
									"name": "historyArray",
									"type": "tuple[]"
								}
							],
							"internalType": "struct stETHPool.userChangeHistory",
							"name": "",
							"type": "tuple"
						}
					],
					"stateMutability": "view",
					"type": "function"
				},
				{
					"inputs": [
						{
							"internalType": "address",
							"name": "user",
							"type": "address"
						}
					],
					"name": "getClaimable",
					"outputs": [
						{
							"internalType": "uint256",
							"name": "",
							"type": "uint256"
						}
					],
					"stateMutability": "view",
					"type": "function"
				},
				{
					"inputs": [],
					"name": "getCurrentEpochReward",
					"outputs": [
						{
							"internalType": "uint256",
							"name": "",
							"type": "uint256"
						}
					],
					"stateMutability": "view",
					"type": "function"
				},
				{
					"inputs": [
						{
							"internalType": "uint256",
							"name": "epochNumber",
							"type": "uint256"
						}
					],
					"name": "getEpochInfo",
					"outputs": [
						{
							"components": [
								{
									"components": [
										{
											"internalType": "address",
											"name": "winner",
											"type": "address"
										},
										{
											"internalType": "uint256",
											"name": "prizeAmount",
											"type": "uint256"
										},
										{
											"internalType": "bool",
											"name": "claimed",
											"type": "bool"
										}
									],
									"internalType": "struct stETHPool.PrizeDetails",
									"name": "first",
									"type": "tuple"
								},
								{
									"components": [
										{
											"internalType": "address",
											"name": "winner",
											"type": "address"
										},
										{
											"internalType": "uint256",
											"name": "prizeAmount",
											"type": "uint256"
										},
										{
											"internalType": "bool",
											"name": "claimed",
											"type": "bool"
										}
									],
									"internalType": "struct stETHPool.PrizeDetails",
									"name": "second",
									"type": "tuple"
								},
								{
									"components": [
										{
											"internalType": "address",
											"name": "winner",
											"type": "address"
										},
										{
											"internalType": "uint256",
											"name": "prizeAmount",
											"type": "uint256"
										},
										{
											"internalType": "bool",
											"name": "claimed",
											"type": "bool"
										}
									],
									"internalType": "struct stETHPool.PrizeDetails",
									"name": "third",
									"type": "tuple"
								},
								{
									"internalType": "bool",
									"name": "finalized",
									"type": "bool"
								},
								{
									"internalType": "uint256",
									"name": "totalPrize",
									"type": "uint256"
								},
								{
									"internalType": "uint256",
									"name": "duration",
									"type": "uint256"
								},
								{
									"internalType": "uint256",
									"name": "createdTimeStamp",
									"type": "uint256"
								},
								{
									"internalType": "uint256",
									"name": "totalParticipant",
									"type": "uint256"
								}
							],
							"internalType": "struct stETHPool.EpochResult",
							"name": "",
							"type": "tuple"
						}
					],
					"stateMutability": "view",
					"type": "function"
				},
				{
					"inputs": [],
					"name": "getEpochLength",
					"outputs": [
						{
							"internalType": "uint256",
							"name": "",
							"type": "uint256"
						}
					],
					"stateMutability": "view",
					"type": "function"
				},
				{
					"inputs": [],
					"name": "getLatestEpoch",
					"outputs": [
						{
							"internalType": "uint256",
							"name": "",
							"type": "uint256"
						}
					],
					"stateMutability": "view",
					"type": "function"
				},
				{
					"inputs": [],
					"name": "getMinAmountToDeposit",
					"outputs": [
						{
							"internalType": "uint256",
							"name": "",
							"type": "uint256"
						}
					],
					"stateMutability": "view",
					"type": "function"
				},
				{
					"inputs": [],
					"name": "getPoolTVL",
					"outputs": [
						{
							"internalType": "uint256",
							"name": "",
							"type": "uint256"
						}
					],
					"stateMutability": "view",
					"type": "function"
				},
				{
					"inputs": [],
					"name": "getRewardAllocationPercentage",
					"outputs": [
						{
							"components": [
								{
									"internalType": "uint256",
									"name": "first",
									"type": "uint256"
								},
								{
									"internalType": "uint256",
									"name": "second",
									"type": "uint256"
								},
								{
									"internalType": "uint256",
									"name": "third",
									"type": "uint256"
								}
							],
							"internalType": "struct stETHPool.rewardAllocation",
							"name": "",
							"type": "tuple"
						}
					],
					"stateMutability": "view",
					"type": "function"
				},
				{
					"inputs": [
						{
							"internalType": "uint256",
							"name": "epochNumber",
							"type": "uint256"
						},
						{
							"internalType": "address",
							"name": "user",
							"type": "address"
						}
					],
					"name": "getTicketAmount",
					"outputs": [
						{
							"internalType": "uint256",
							"name": "",
							"type": "uint256"
						}
					],
					"stateMutability": "view",
					"type": "function"
				},
				{
					"inputs": [],
					"name": "getTokenUsing",
					"outputs": [
						{
							"internalType": "address",
							"name": "",
							"type": "address"
						}
					],
					"stateMutability": "view",
					"type": "function"
				},
				{
					"inputs": [],
					"name": "getUserAmount",
					"outputs": [
						{
							"internalType": "uint256",
							"name": "",
							"type": "uint256"
						}
					],
					"stateMutability": "view",
					"type": "function"
				},
				{
					"inputs": [
						{
							"internalType": "address",
							"name": "user",
							"type": "address"
						}
					],
					"name": "getUserDepositInfo",
					"outputs": [
						{
							"components": [
								{
									"internalType": "address",
									"name": "userAddress",
									"type": "address"
								},
								{
									"internalType": "uint256",
									"name": "DepositAmount",
									"type": "uint256"
								},
								{
									"internalType": "uint256",
									"name": "registeredDate",
									"type": "uint256"
								},
								{
									"internalType": "uint256",
									"name": "Lastupdated",
									"type": "uint256"
								}
							],
							"internalType": "struct stETHPool.userInfo",
							"name": "",
							"type": "tuple"
						}
					],
					"stateMutability": "view",
					"type": "function"
				},
				{
					"inputs": [
						{
							"internalType": "address",
							"name": "user",
							"type": "address"
						}
					],
					"name": "getUserID",
					"outputs": [
						{
							"internalType": "uint256",
							"name": "",
							"type": "uint256"
						}
					],
					"stateMutability": "view",
					"type": "function"
				},
				{
					"inputs": [
						{
							"internalType": "address",
							"name": "user",
							"type": "address"
						}
					],
					"name": "getWinningHistory",
					"outputs": [
						{
							"components": [
								{
									"internalType": "uint256",
									"name": "EpochNumber",
									"type": "uint256"
								},
								{
									"internalType": "uint256",
									"name": "position",
									"type": "uint256"
								},
								{
									"internalType": "uint256",
									"name": "PrizeAmount",
									"type": "uint256"
								}
							],
							"internalType": "struct stETHPool.rewardHistory[]",
							"name": "",
							"type": "tuple[]"
						}
					],
					"stateMutability": "view",
					"type": "function"
				},
				{
					"inputs": [
						{
							"internalType": "uint256",
							"name": "userIDnow",
							"type": "uint256"
						}
					],
					"name": "getuserByID",
					"outputs": [
						{
							"internalType": "address",
							"name": "",
							"type": "address"
						}
					],
					"stateMutability": "view",
					"type": "function"
				},
				{
					"inputs": [
						{
							"internalType": "address",
							"name": "registryAddress",
							"type": "address"
						}
					],
					"name": "initialize",
					"outputs": [],
					"stateMutability": "nonpayable",
					"type": "function"
				},
				{
					"inputs": [
						{
							"internalType": "uint256",
							"name": "firstP",
							"type": "uint256"
						},
						{
							"internalType": "uint256",
							"name": "secondP",
							"type": "uint256"
						},
						{
							"internalType": "uint256",
							"name": "thirdP",
							"type": "uint256"
						},
						{
							"internalType": "uint256",
							"name": "percentageSUM",
							"type": "uint256"
						}
					],
					"name": "setRewardRatio",
					"outputs": [],
					"stateMutability": "nonpayable",
					"type": "function"
				},
				{
					"inputs": [
						{
							"internalType": "address",
							"name": "user",
							"type": "address"
						},
						{
							"internalType": "uint256",
							"name": "amount",
							"type": "uint256"
						}
					],
					"name": "withdrawFor",
					"outputs": [],
					"stateMutability": "nonpayable",
					"type": "function"
				}
			],
			"devdoc": {
				"kind": "dev",
				"methods": {},
				"version": 1
			},
			"evm": {
				"assembly": "    /* \"stETHPoolV1.sol\":316:23848  contract stETHPool{... */\n  mstore(0x40, 0x80)\n  callvalue\n  dup1\n  iszero\n  tag_1\n  jumpi\n  0x00\n  dup1\n  revert\ntag_1:\n  pop\n  dataSize(sub_0)\n  dup1\n  dataOffset(sub_0)\n  0x00\n  codecopy\n  0x00\n  return\nstop\n\nsub_0: assembly {\n        /* \"stETHPoolV1.sol\":316:23848  contract stETHPool{... */\n      mstore(0x40, 0x80)\n      callvalue\n      dup1\n      iszero\n      tag_1\n      jumpi\n      0x00\n      dup1\n      revert\n    tag_1:\n      pop\n      jumpi(tag_2, lt(calldatasize, 0x04))\n      shr(0xe0, calldataload(0x00))\n      dup1\n      0xa3058071\n      gt\n      tag_30\n      jumpi\n      dup1\n      0xca6d83df\n      gt\n      tag_31\n      jumpi\n      dup1\n      0xdb518db2\n      gt\n      tag_32\n      jumpi\n      dup1\n      0xdb518db2\n      eq\n      tag_26\n      jumpi\n      dup1\n      0xec20c2e5\n      eq\n      tag_27\n      jumpi\n      dup1\n      0xfa7c828a\n      eq\n      tag_28\n      jumpi\n      dup1\n      0xfd2324de\n      eq\n      tag_29\n      jumpi\n      0x00\n      dup1\n      revert\n    tag_32:\n      dup1\n      0xca6d83df\n      eq\n      tag_23\n      jumpi\n      dup1\n      0xcfe8a73b\n      eq\n      tag_24\n      jumpi\n      dup1\n      0xd474fbf7\n      eq\n      tag_25\n      jumpi\n      0x00\n      dup1\n      revert\n    tag_31:\n      dup1\n      0xa583024b\n      gt\n      tag_33\n      jumpi\n      dup1\n      0xa583024b\n      eq\n      tag_19\n      jumpi\n      dup1\n      0xb3a7834d\n      eq\n      tag_20\n      jumpi\n      dup1\n      0xc4d66de8\n      eq\n      tag_21\n      jumpi\n      dup1\n      0xc51475b9\n      eq\n      tag_22\n      jumpi\n      0x00\n      dup1\n      revert\n    tag_33:\n      dup1\n      0xa3058071\n      eq\n      tag_16\n      jumpi\n      dup1\n      0xa3d74f06\n      eq\n      tag_17\n      jumpi\n      dup1\n      0xa3fb7050\n      eq\n      tag_18\n      jumpi\n      0x00\n      dup1\n      revert\n    tag_30:\n      dup1\n      0x1ac6d19d\n      gt\n      tag_34\n      jumpi\n      dup1\n      0x2f4f21e2\n      gt\n      tag_35\n      jumpi\n      dup1\n      0x2f4f21e2\n      eq\n      tag_12\n      jumpi\n      dup1\n      0x361f1ad3\n      eq\n      tag_13\n      jumpi\n      dup1\n      0x858c7585\n      eq\n      tag_14\n      jumpi\n      dup1\n      0xa2122bf7\n      eq\n      tag_15\n      jumpi\n      0x00\n      dup1\n      revert\n    tag_35:\n      dup1\n      0x1ac6d19d\n      eq\n      tag_9\n      jumpi\n      dup1\n      0x26be90bf\n      eq\n      tag_10\n      jumpi\n      dup1\n      0x2c26eb46\n      eq\n      tag_11\n      jumpi\n      0x00\n      dup1\n      revert\n    tag_34:\n      dup1\n      0x039da66e\n      eq\n      tag_3\n      jumpi\n      dup1\n      0x095d0c94\n      eq\n      tag_4\n      jumpi\n      dup1\n      0x0ef12aa9\n      eq\n      tag_5\n      jumpi\n      dup1\n      0x0fce03b9\n      eq\n      tag_6\n      jumpi\n      dup1\n      0x135022c2\n      eq\n      tag_7\n      jumpi\n      dup1\n      0x18703da5\n      eq\n      tag_8\n      jumpi\n    tag_2:\n      0x00\n      dup1\n      revert\n        /* \"stETHPoolV1.sol\":17929:18057  function getRewardAllocationPercentage() external view returns(rewardAllocation memory){... */\n    tag_3:\n      tag_36\n      tag_37\n      jump\t// in\n    tag_36:\n      mload(0x40)\n      tag_38\n      swap2\n      swap1\n      tag_39\n      jump\t// in\n    tag_38:\n      mload(0x40)\n      dup1\n      swap2\n      sub\n      swap1\n      return\n        /* \"stETHPoolV1.sol\":13000:13122  function getUserAmount() public view returns(uint256){... */\n    tag_4:\n        /* \"stETHPoolV1.sol\":13080:13092  amountOfUser */\n      sload(0x01)\n        /* \"stETHPoolV1.sol\":13000:13122  function getUserAmount() public view returns(uint256){... */\n    tag_40:\n      mload(0x40)\n        /* \"#utility.yul\":656:681   */\n      swap1\n      dup2\n      mstore\n        /* \"#utility.yul\":644:646   */\n      0x20\n        /* \"#utility.yul\":629:647   */\n      add\n        /* \"stETHPoolV1.sol\":13000:13122  function getUserAmount() public view returns(uint256){... */\n      tag_38\n        /* \"#utility.yul\":510:687   */\n      jump\n        /* \"stETHPoolV1.sol\":12865:12995  function getUserID(address user) public view returns(uint256){... */\n    tag_5:\n      tag_40\n      tag_45\n      calldatasize\n      0x04\n      tag_46\n      jump\t// in\n    tag_45:\n      sub(shl(0xa0, 0x01), 0x01)\n        /* \"stETHPoolV1.sol\":12953:12965  userID[user] */\n      and\n        /* \"stETHPoolV1.sol\":12918:12925  uint256 */\n      0x00\n        /* \"stETHPoolV1.sol\":12953:12965  userID[user] */\n      swap1\n      dup2\n      mstore\n        /* \"stETHPoolV1.sol\":12953:12959  userID */\n      0x03\n        /* \"stETHPoolV1.sol\":12953:12965  userID[user] */\n      0x20\n      mstore\n      0x40\n      swap1\n      keccak256\n      sload\n      swap1\n        /* \"stETHPoolV1.sol\":12865:12995  function getUserID(address user) public view returns(uint256){... */\n      jump\n        /* \"stETHPoolV1.sol\":17290:17383  function getTokenUsing() external view returns(address){... */\n    tag_6:\n        /* \"stETHPoolV1.sol\":17362:17376  TokentoDeposit */\n      and(sub(shl(0xa0, 0x01), 0x01), sload(0x0f))\n        /* \"stETHPoolV1.sol\":17290:17383  function getTokenUsing() external view returns(address){... */\n    tag_49:\n      mload(0x40)\n      sub(shl(0xa0, 0x01), 0x01)\n        /* \"#utility.yul\":1244:1276   */\n      swap1\n      swap2\n      and\n        /* \"#utility.yul\":1226:1277   */\n      dup2\n      mstore\n        /* \"#utility.yul\":1214:1216   */\n      0x20\n        /* \"#utility.yul\":1199:1217   */\n      add\n        /* \"stETHPoolV1.sol\":17290:17383  function getTokenUsing() external view returns(address){... */\n      tag_38\n        /* \"#utility.yul\":1080:1283   */\n      jump\n        /* \"stETHPoolV1.sol\":17747:17924  function getEpochInfo(uint256 epochNumber) external view returns(EpochResult memory){... */\n    tag_7:\n      tag_53\n      tag_54\n      calldatasize\n      0x04\n      tag_55\n      jump\t// in\n    tag_54:\n      tag_56\n      jump\t// in\n    tag_53:\n      mload(0x40)\n      tag_38\n      swap2\n      swap1\n        /* \"#utility.yul\":1965:1978   */\n      dup2\n      mload\n        /* \"#utility.yul\":1555:1567   */\n      dup1\n      mload\n      sub(shl(0xa0, 0x01), 0x01)\n        /* \"#utility.yul\":1551:1589   */\n      and\n        /* \"#utility.yul\":1539:1590   */\n      dup3\n      mstore\n        /* \"#utility.yul\":1639:1643   */\n      0x20\n        /* \"#utility.yul\":1628:1644   */\n      dup1\n      dup3\n      add\n        /* \"#utility.yul\":1622:1645   */\n      mload\n        /* \"#utility.yul\":1606:1620   */\n      swap1\n      dup4\n      add\n        /* \"#utility.yul\":1599:1646   */\n      mstore\n        /* \"#utility.yul\":1709:1713   */\n      0x40\n        /* \"#utility.yul\":1698:1714   */\n      swap1\n      dup2\n      add\n        /* \"#utility.yul\":1692:1715   */\n      mload\n        /* \"#utility.yul\":1685:1716   */\n      iszero\n        /* \"#utility.yul\":1678:1717   */\n      iszero\n        /* \"#utility.yul\":1662:1676   */\n      swap1\n      dup3\n      add\n        /* \"#utility.yul\":1655:1718   */\n      mstore\n        /* \"#utility.yul\":1921:1924   */\n      0x01c0\n        /* \"#utility.yul\":1906:1925   */\n      dup2\n      add\n        /* \"#utility.yul\":2037:2041   */\n      0x20\n        /* \"#utility.yul\":2025:2042   */\n      dup4\n      dup2\n      add\n        /* \"#utility.yul\":2019:2043   */\n      mload\n        /* \"#utility.yul\":1555:1567   */\n      dup1\n      mload\n      sub(shl(0xa0, 0x01), 0x01)\n        /* \"#utility.yul\":1551:1589   */\n      and\n        /* \"#utility.yul\":2112:2116   */\n      0x60\n        /* \"#utility.yul\":2097:2117   */\n      dup6\n      add\n        /* \"#utility.yul\":1539:1590   */\n      mstore\n        /* \"#utility.yul\":1628:1644   */\n      swap1\n      dup2\n      add\n        /* \"#utility.yul\":1622:1645   */\n      mload\n        /* \"#utility.yul\":1606:1620   */\n      0x80\n      dup5\n      add\n        /* \"#utility.yul\":1599:1646   */\n      mstore\n        /* \"#utility.yul\":1709:1713   */\n      0x40\n        /* \"#utility.yul\":1698:1714   */\n      dup2\n      add\n        /* \"#utility.yul\":1692:1715   */\n      mload\n        /* \"#utility.yul\":1685:1716   */\n      iszero\n        /* \"#utility.yul\":1678:1717   */\n      iszero\n        /* \"#utility.yul\":1662:1676   */\n      0xa0\n      dup5\n      add\n        /* \"#utility.yul\":1655:1718   */\n      mstore\n      pop\n        /* \"#utility.yul\":2167:2171   */\n      0x40\n        /* \"#utility.yul\":2155:2172   */\n      dup4\n      dup2\n      add\n        /* \"#utility.yul\":2149:2173   */\n      mload\n        /* \"#utility.yul\":1555:1567   */\n      dup1\n      mload\n      sub(shl(0xa0, 0x01), 0x01)\n        /* \"#utility.yul\":1551:1589   */\n      and\n        /* \"#utility.yul\":2244:2248   */\n      0xc0\n        /* \"#utility.yul\":2229:2249   */\n      dup6\n      add\n        /* \"#utility.yul\":1539:1590   */\n      mstore\n        /* \"#utility.yul\":1639:1643   */\n      0x20\n        /* \"#utility.yul\":1628:1644   */\n      dup2\n      add\n        /* \"#utility.yul\":1622:1645   */\n      mload\n        /* \"#utility.yul\":1606:1620   */\n      0xe0\n      dup6\n      add\n        /* \"#utility.yul\":1599:1646   */\n      mstore\n        /* \"#utility.yul\":1698:1714   */\n      swap1\n      dup2\n      add\n        /* \"#utility.yul\":1692:1715   */\n      mload\n        /* \"#utility.yul\":1685:1716   */\n      iszero\n        /* \"#utility.yul\":1678:1717   */\n      iszero\n        /* \"#utility.yul\":1662:1676   */\n      0x0100\n      dup5\n      add\n        /* \"#utility.yul\":1655:1718   */\n      mstore\n      pop\n        /* \"#utility.yul\":2322:2326   */\n      0x60\n        /* \"#utility.yul\":2310:2327   */\n      dup4\n      add\n        /* \"#utility.yul\":2304:2328   */\n      mload\n        /* \"#utility.yul\":2297:2329   */\n      iszero\n        /* \"#utility.yul\":2290:2330   */\n      iszero\n        /* \"#utility.yul\":2281:2287   */\n      0x0120\n        /* \"#utility.yul\":2266:2288   */\n      dup4\n      add\n        /* \"#utility.yul\":2259:2331   */\n      mstore\n        /* \"#utility.yul\":2389:2393   */\n      0x80\n        /* \"#utility.yul\":2377:2394   */\n      dup4\n      add\n        /* \"#utility.yul\":2371:2395   */\n      mload\n        /* \"#utility.yul\":2362:2368   */\n      0x0140\n        /* \"#utility.yul\":2347:2369   */\n      dup4\n      add\n        /* \"#utility.yul\":2340:2396   */\n      mstore\n        /* \"#utility.yul\":2454:2458   */\n      0xa0\n        /* \"#utility.yul\":2442:2459   */\n      dup4\n      add\n        /* \"#utility.yul\":2436:2460   */\n      mload\n        /* \"#utility.yul\":2427:2433   */\n      0x0160\n        /* \"#utility.yul\":2412:2434   */\n      dup4\n      add\n        /* \"#utility.yul\":2405:2461   */\n      mstore\n        /* \"#utility.yul\":2519:2523   */\n      0xc0\n        /* \"#utility.yul\":2507:2524   */\n      dup4\n      add\n        /* \"#utility.yul\":2501:2525   */\n      mload\n        /* \"#utility.yul\":2492:2498   */\n      0x0180\n        /* \"#utility.yul\":2477:2499   */\n      dup4\n      add\n        /* \"#utility.yul\":2470:2526   */\n      mstore\n        /* \"#utility.yul\":2584:2588   */\n      0xe0\n        /* \"#utility.yul\":2572:2589   */\n      swap1\n      swap3\n      add\n        /* \"#utility.yul\":2566:2590   */\n      mload\n        /* \"#utility.yul\":2557:2563   */\n      0x01a0\n        /* \"#utility.yul\":2542:2564   */\n      swap1\n      swap2\n      add\n        /* \"#utility.yul\":2535:2591   */\n      mstore\n        /* \"#utility.yul\":1729:2597   */\n      swap1\n      jump\n        /* \"stETHPoolV1.sol\":12280:12480  function getWinningHistory(address user) public view returns(rewardHistory[] memory){... */\n    tag_8:\n      tag_59\n      tag_60\n      calldatasize\n      0x04\n      tag_46\n      jump\t// in\n    tag_60:\n      tag_61\n      jump\t// in\n    tag_59:\n      mload(0x40)\n      tag_38\n      swap2\n      swap1\n      tag_63\n      jump\t// in\n        /* \"stETHPoolV1.sol\":9654:11190  function claimRewardsFor(address user) external onlyRouter nonReentrant contractStarted returns(uint256){... */\n    tag_9:\n      tag_40\n      tag_65\n      calldatasize\n      0x04\n      tag_46\n      jump\t// in\n    tag_65:\n      tag_66\n      jump\t// in\n        /* \"stETHPoolV1.sol\":11768:11882  function getPoolTVL() public view returns(uint256){... */\n    tag_10:\n        /* \"stETHPoolV1.sol\":11845:11852  poolTVL */\n      sload(0x08)\n        /* \"stETHPoolV1.sol\":11768:11882  function getPoolTVL() public view returns(uint256){... */\n      jump(tag_40)\n        /* \"stETHPoolV1.sol\":18746:19104  function finalizeEpochTicketandParticipantInfo(uint256 epochNumber) external onlyRewardDistributor{... */\n    tag_11:\n      tag_71\n      tag_72\n      calldatasize\n      0x04\n      tag_55\n      jump\t// in\n    tag_72:\n      tag_73\n      jump\t// in\n    tag_71:\n      stop\n        /* \"stETHPoolV1.sol\":4405:4706  function depositFor(address user, uint256 amount) external onlyRouter nonReentrant contractStarted{... */\n    tag_12:\n      tag_71\n      tag_75\n      calldatasize\n      0x04\n      tag_76\n      jump\t// in\n    tag_75:\n      tag_77\n      jump\t// in\n        /* \"stETHPoolV1.sol\":4270:4400  function getMinAmountToDeposit() public view returns(uint256){... */\n    tag_13:\n        /* \"stETHPoolV1.sol\":4358:4370  minToDeposit */\n      sload(0x10)\n        /* \"stETHPoolV1.sol\":4270:4400  function getMinAmountToDeposit() public view returns(uint256){... */\n      jump(tag_40)\n        /* \"stETHPoolV1.sol\":12485:12860  function getBalanceChangeHistory(address user, uint256 epochNumber) public view contractStarted validEpoch(epochNumber) returns(userChangeHistory memory) {... */\n    tag_14:\n      tag_81\n      tag_82\n      calldatasize\n      0x04\n      tag_76\n      jump\t// in\n    tag_82:\n      tag_83\n      jump\t// in\n    tag_81:\n      mload(0x40)\n      tag_38\n      swap2\n      swap1\n      tag_85\n      jump\t// in\n        /* \"stETHPoolV1.sol\":18063:18311  function config(address token, uint256 decimal,uint256 minAmount, uint256 duration) external onlyController{... */\n    tag_15:\n      tag_71\n      tag_87\n      calldatasize\n      0x04\n      tag_88\n      jump\t// in\n    tag_87:\n      tag_89\n      jump\t// in\n        /* \"stETHPoolV1.sol\":19109:21099  function finalizeEpoch(uint256 epochNumber, address firstWinner, address secondWinner, address thirdWinner, uint256 totalPrize) external onlyRewardDistributor{... */\n    tag_16:\n      tag_71\n      tag_91\n      calldatasize\n      0x04\n      tag_92\n      jump\t// in\n    tag_91:\n      tag_93\n      jump\t// in\n        /* \"stETHPoolV1.sol\":17388:17607  function getLatestEpoch() public view returns(uint256){... */\n    tag_17:\n      tag_40\n      tag_95\n      jump\t// in\n        /* \"stETHPoolV1.sol\":13511:13855  function getAccumulatedTicketwithoutDecimal(uint256 epochNumber, address user) public view contractStarted validEpoch(epochNumber)returns(uint256){... */\n    tag_18:\n      tag_40\n      tag_98\n      calldatasize\n      0x04\n      tag_99\n      jump\t// in\n    tag_98:\n      tag_100\n      jump\t// in\n        /* \"stETHPoolV1.sol\":12119:12275  function getClaimable(address user) public view returns(uint256){... */\n    tag_19:\n      tag_40\n      tag_103\n      calldatasize\n      0x04\n      tag_46\n      jump\t// in\n    tag_103:\n      sub(shl(0xa0, 0x01), 0x01)\n        /* \"stETHPoolV1.sol\":12210:12235  claimableRewardData[user] */\n      and\n        /* \"stETHPoolV1.sol\":12175:12182  uint256 */\n      0x00\n        /* \"stETHPoolV1.sol\":12210:12235  claimableRewardData[user] */\n      swap1\n      dup2\n      mstore\n        /* \"stETHPoolV1.sol\":12210:12229  claimableRewardData */\n      0x06\n        /* \"stETHPoolV1.sol\":12210:12235  claimableRewardData[user] */\n      0x20\n      mstore\n      0x40\n      swap1\n      keccak256\n        /* \"stETHPoolV1.sol\":12210:12245  claimableRewardData[user].claimable */\n      sload\n      swap1\n        /* \"stETHPoolV1.sol\":12119:12275  function getClaimable(address user) public view returns(uint256){... */\n      jump\n        /* \"stETHPoolV1.sol\":13295:13506  function getUserDepositInfo(address user) public view returns(userInfo memory){... */\n    tag_20:\n      tag_106\n      tag_107\n      calldatasize\n      0x04\n      tag_46\n      jump\t// in\n    tag_107:\n      tag_108\n      jump\t// in\n    tag_106:\n      mload(0x40)\n      tag_38\n      swap2\n      swap1\n        /* \"#utility.yul\":6200:6213   */\n      dup2\n      mload\n      sub(shl(0xa0, 0x01), 0x01)\n        /* \"#utility.yul\":6196:6235   */\n      and\n        /* \"#utility.yul\":6178:6236   */\n      dup2\n      mstore\n        /* \"#utility.yul\":6292:6296   */\n      0x20\n        /* \"#utility.yul\":6280:6297   */\n      dup1\n      dup4\n      add\n        /* \"#utility.yul\":6274:6298   */\n      mload\n        /* \"#utility.yul\":6252:6272   */\n      swap1\n      dup3\n      add\n        /* \"#utility.yul\":6245:6299   */\n      mstore\n        /* \"#utility.yul\":6355:6359   */\n      0x40\n        /* \"#utility.yul\":6343:6360   */\n      dup1\n      dup4\n      add\n        /* \"#utility.yul\":6337:6361   */\n      mload\n        /* \"#utility.yul\":6315:6335   */\n      swap1\n      dup3\n      add\n        /* \"#utility.yul\":6308:6362   */\n      mstore\n        /* \"#utility.yul\":6418:6422   */\n      0x60\n        /* \"#utility.yul\":6406:6423   */\n      swap2\n      dup3\n      add\n        /* \"#utility.yul\":6400:6424   */\n      mload\n        /* \"#utility.yul\":6378:6398   */\n      swap2\n      dup2\n      add\n        /* \"#utility.yul\":6371:6425   */\n      swap2\n      swap1\n      swap2\n      mstore\n        /* \"#utility.yul\":6165:6168   */\n      0x80\n        /* \"#utility.yul\":6150:6169   */\n      add\n      swap1\n        /* \"#utility.yul\":5979:6431   */\n      jump\n        /* \"stETHPoolV1.sol\":3796:4006  function initialize(address registryAddress) external{... */\n    tag_21:\n      tag_71\n      tag_112\n      calldatasize\n      0x04\n      tag_46\n      jump\t// in\n    tag_112:\n      tag_113\n      jump\t// in\n        /* \"stETHPoolV1.sol\":18317:18741  function setRewardRatio(uint256 firstP, uint256 secondP, uint256 thirdP, uint256 percentageSUM) external onlyController{... */\n    tag_22:\n      tag_71\n      tag_115\n      calldatasize\n      0x04\n      tag_116\n      jump\t// in\n    tag_115:\n      tag_117\n      jump\t// in\n        /* \"stETHPoolV1.sol\":13127:13290  function getuserByID(uint256 userIDnow) public view returns(address){... */\n    tag_23:\n      tag_49\n      tag_119\n      calldatasize\n      0x04\n      tag_55\n      jump\t// in\n    tag_119:\n        /* \"stETHPoolV1.sol\":13187:13194  address */\n      0x00\n        /* \"stETHPoolV1.sol\":13222:13248  userDepositInfo[userIDnow] */\n      swap1\n      dup2\n      mstore\n        /* \"stETHPoolV1.sol\":13222:13237  userDepositInfo */\n      0x02\n        /* \"stETHPoolV1.sol\":13222:13248  userDepositInfo[userIDnow] */\n      0x20\n      mstore\n      0x40\n      swap1\n      keccak256\n        /* \"stETHPoolV1.sol\":13222:13260  userDepositInfo[userIDnow].userAddress */\n      sload\n      sub(shl(0xa0, 0x01), 0x01)\n      and\n      swap1\n        /* \"stETHPoolV1.sol\":13127:13290  function getuserByID(uint256 userIDnow) public view returns(address){... */\n      jump\n        /* \"stETHPoolV1.sol\":17612:17742  function getEpochLength() public view returns(uint256){... */\n    tag_24:\n        /* \"stETHPoolV1.sol\":17693:17705  EpochResults */\n      0x0d\n        /* \"stETHPoolV1.sol\":17693:17712  EpochResults.length */\n      sload\n        /* \"stETHPoolV1.sol\":17612:17742  function getEpochLength() public view returns(uint256){... */\n      jump(tag_40)\n        /* \"stETHPoolV1.sol\":13860:17285  function getTicketAmount(uint256 epochNumber, address user) public view returns(uint256){... */\n    tag_25:\n      tag_40\n      tag_126\n      calldatasize\n      0x04\n      tag_99\n      jump\t// in\n    tag_126:\n      tag_127\n      jump\t// in\n        /* \"stETHPoolV1.sol\":4711:4947  function withdrawFor(address user, uint256 amount) external onlyRouter nonReentrant contractStarted{... */\n    tag_26:\n      tag_71\n      tag_130\n      calldatasize\n      0x04\n      tag_76\n      jump\t// in\n    tag_130:\n      tag_131\n      jump\t// in\n        /* \"stETHPoolV1.sol\":22939:23842  function createNewEpoch() external onlyRewardDistributor{... */\n    tag_27:\n      tag_71\n      tag_133\n      jump\t// in\n        /* \"stETHPoolV1.sol\":4131:4265  function changeRegistryContractAddr(address registryAddress) external onlyOwner{... */\n    tag_28:\n      tag_71\n      tag_135\n      calldatasize\n      0x04\n      tag_46\n      jump\t// in\n    tag_135:\n      tag_136\n      jump\t// in\n        /* \"stETHPoolV1.sol\":11887:12114  function getCurrentEpochReward() public view returns(uint256){... */\n    tag_29:\n      tag_40\n      tag_138\n      jump\t// in\n        /* \"stETHPoolV1.sol\":17929:18057  function getRewardAllocationPercentage() external view returns(rewardAllocation memory){... */\n    tag_37:\n        /* \"stETHPoolV1.sol\":17992:18015  rewardAllocation memory */\n      tag_140\n      mload(0x40)\n      dup1\n      0x60\n      add\n      0x40\n      mstore\n      dup1\n      0x00\n      dup2\n      mstore\n      0x20\n      add\n      0x00\n      dup2\n      mstore\n      0x20\n      add\n      0x00\n      dup2\n      mstore\n      pop\n      swap1\n      jump\n    tag_140:\n      pop\n        /* \"stETHPoolV1.sol\":18026:18050  return AllocationPortion */\n      0x40\n      dup1\n      mload\n      0x60\n      dup2\n      add\n      dup3\n      mstore\n        /* \"stETHPoolV1.sol\":18033:18050  AllocationPortion */\n      0x09\n        /* \"stETHPoolV1.sol\":18026:18050  return AllocationPortion */\n      sload\n      dup2\n      mstore\n      sload(0x0a)\n      0x20\n      dup3\n      add\n      mstore\n      sload(0x0b)\n      swap2\n      dup2\n      add\n      swap2\n      swap1\n      swap2\n      mstore\n      swap1\n        /* \"stETHPoolV1.sol\":17929:18057  function getRewardAllocationPercentage() external view returns(rewardAllocation memory){... */\n      jump\t// out\n        /* \"stETHPoolV1.sol\":17747:17924  function getEpochInfo(uint256 epochNumber) external view returns(EpochResult memory){... */\n    tag_56:\n      0x40\n      dup1\n      mload\n      0x0160\n      dup2\n      add\n      dup3\n      mstore\n      0x00\n      0x0100\n      dup3\n      add\n      dup2\n      dup2\n      mstore\n      0x0120\n      dup4\n      add\n      dup3\n      swap1\n      mstore\n      0x0140\n      dup4\n      add\n      dup3\n      swap1\n      mstore\n      dup3\n      mstore\n      dup3\n      mload\n      0x60\n      dup1\n      dup3\n      add\n      dup6\n      mstore\n      dup3\n      dup3\n      mstore\n      0x20\n      dup1\n      dup4\n      add\n      dup5\n      swap1\n      mstore\n      dup3\n      dup7\n      add\n      dup5\n      swap1\n      mstore\n      dup1\n      dup6\n      add\n      swap3\n      swap1\n      swap3\n      mstore\n      dup5\n      mload\n      dup1\n      dup3\n      add\n      dup7\n      mstore\n      dup4\n      dup2\n      mstore\n      swap2\n      dup3\n      add\n      dup4\n      swap1\n      mstore\n      dup2\n      dup6\n      add\n      dup4\n      swap1\n      mstore\n      swap4\n      dup4\n      add\n      mstore\n      swap2\n      dup2\n      add\n      dup3\n      swap1\n      mstore\n      0x80\n      dup2\n      add\n      dup3\n      swap1\n      mstore\n      0xa0\n      dup2\n      add\n      dup3\n      swap1\n      mstore\n      0xc0\n      dup2\n      add\n      dup3\n      swap1\n      mstore\n      0xe0\n      dup2\n      add\n      swap2\n      swap1\n      swap2\n      mstore\n        /* \"stETHPoolV1.sol\":17841:17866  EpochResult memory result */\n      0x00\n        /* \"stETHPoolV1.sol\":17869:17881  EpochResults */\n      0x0d\n        /* \"stETHPoolV1.sol\":17882:17893  epochNumber */\n      dup4\n        /* \"stETHPoolV1.sol\":17869:17894  EpochResults[epochNumber] */\n      dup2\n      sload\n      dup2\n      lt\n      tag_150\n      jumpi\n      tag_150\n      tag_151\n      jump\t// in\n    tag_150:\n      0x00\n      swap2\n      dup3\n      mstore\n      0x20\n      swap2\n      dup3\n      swap1\n      keccak256\n        /* \"stETHPoolV1.sol\":17841:17894  EpochResult memory result = EpochResults[epochNumber] */\n      0x40\n      dup1\n      mload\n      0x0160\n      dup2\n      add\n      dup3\n      mstore\n        /* \"stETHPoolV1.sol\":17869:17894  EpochResults[epochNumber] */\n      0x0e\n      swap1\n      swap4\n      mul\n      swap1\n      swap2\n      add\n        /* \"stETHPoolV1.sol\":17841:17894  EpochResult memory result = EpochResults[epochNumber] */\n      dup1\n      sload\n      sub(shl(0xa0, 0x01), 0x01)\n      swap1\n      dup2\n      and\n      0x0100\n      dup6\n      add\n      swap1\n      dup2\n      mstore\n      0x01\n      dup4\n      add\n      sload\n      0x0120\n      dup7\n      add\n      mstore\n      0x02\n      dup4\n      add\n      sload\n      0xff\n      swap1\n      dup2\n      and\n      iszero\n      iszero\n      0x0140\n      dup8\n      add\n      mstore\n      swap1\n      dup6\n      mstore\n      dup4\n      mload\n      0x60\n      dup2\n      dup2\n      add\n      dup7\n      mstore\n      0x03\n      dup6\n      add\n      sload\n      dup5\n      and\n      dup3\n      mstore\n      0x04\n      dup6\n      add\n      sload\n      dup3\n      dup10\n      add\n      mstore\n      0x05\n      dup6\n      add\n      sload\n      dup4\n      and\n      iszero\n      iszero\n      dup3\n      dup8\n      add\n      mstore\n      dup7\n      dup9\n      add\n      swap2\n      swap1\n      swap2\n      mstore\n      dup5\n      mload\n      dup1\n      dup3\n      add\n      dup7\n      mstore\n      0x06\n      dup6\n      add\n      sload\n      swap1\n      swap4\n      and\n      dup4\n      mstore\n      0x07\n      dup5\n      add\n      sload\n      swap7\n      dup4\n      add\n      swap7\n      swap1\n      swap7\n      mstore\n      0x08\n      dup4\n      add\n      sload\n      dup2\n      and\n      iszero\n      iszero\n      dup3\n      dup6\n      add\n      mstore\n      swap3\n      dup5\n      add\n      mstore\n      0x09\n      dup2\n      add\n      sload\n      swap1\n      swap2\n      and\n      iszero\n      iszero\n      swap3\n      dup3\n      add\n      swap3\n      swap1\n      swap3\n      mstore\n      0x0a\n      dup3\n      add\n      sload\n      0x80\n      dup3\n      add\n      mstore\n      0x0b\n      dup3\n      add\n      sload\n      0xa0\n      dup3\n      add\n      mstore\n      0x0c\n      dup3\n      add\n      sload\n      0xc0\n      dup3\n      add\n      mstore\n      0x0d\n      swap1\n      swap2\n      add\n      sload\n      0xe0\n      dup3\n      add\n      mstore\n      swap4\n        /* \"stETHPoolV1.sol\":17747:17924  function getEpochInfo(uint256 epochNumber) external view returns(EpochResult memory){... */\n      swap3\n      pop\n      pop\n      pop\n      jump\t// out\n        /* \"stETHPoolV1.sol\":12280:12480  function getWinningHistory(address user) public view returns(rewardHistory[] memory){... */\n    tag_61:\n      sub(shl(0xa0, 0x01), 0x01)\n        /* \"stETHPoolV1.sol\":12406:12431  claimableRewardData[user] */\n      dup2\n      and\n        /* \"stETHPoolV1.sol\":12374:12403  rewardHistory[] memory result */\n      0x00\n        /* \"stETHPoolV1.sol\":12406:12431  claimableRewardData[user] */\n      swap1\n      dup2\n      mstore\n        /* \"stETHPoolV1.sol\":12406:12425  claimableRewardData */\n      0x06\n        /* \"stETHPoolV1.sol\":12406:12431  claimableRewardData[user] */\n      0x20\n      swap1\n      dup2\n      mstore\n      0x40\n      dup1\n      dup4\n      keccak256\n        /* \"stETHPoolV1.sol\":12406:12450  claimableRewardData[user].rewardHistoryArray */\n      0x01\n      add\n        /* \"stETHPoolV1.sol\":12374:12450  rewardHistory[] memory result = claimableRewardData[user].rewardHistoryArray */\n      dup1\n      sload\n      dup3\n      mload\n      dup2\n      dup6\n      mul\n      dup2\n      add\n      dup6\n      add\n      swap1\n      swap4\n      mstore\n      dup1\n      dup4\n      mstore\n        /* \"stETHPoolV1.sol\":12341:12363  rewardHistory[] memory */\n      0x60\n      swap5\n        /* \"stETHPoolV1.sol\":12374:12403  rewardHistory[] memory result */\n      swap4\n      dup5\n      swap1\n        /* \"stETHPoolV1.sol\":12374:12450  rewardHistory[] memory result = claimableRewardData[user].rewardHistoryArray */\n      dup5\n      add\n    tag_154:\n      dup3\n      dup3\n      lt\n      iszero\n      tag_155\n      jumpi\n      dup4\n      dup3\n      swap1\n      0x00\n      mstore\n      keccak256(0x00, 0x20)\n      swap1\n      0x03\n      mul\n      add\n      mload(0x40)\n      dup1\n      0x60\n      add\n      0x40\n      mstore\n      swap1\n      dup2\n      0x00\n      dup3\n      add\n      sload\n      dup2\n      mstore\n      0x20\n      add\n      0x01\n      dup3\n      add\n      sload\n      dup2\n      mstore\n      0x20\n      add\n      0x02\n      dup3\n      add\n      sload\n      dup2\n      mstore\n      pop\n      pop\n      dup2\n      mstore\n      0x20\n      add\n      swap1\n      0x01\n      add\n      swap1\n      jump(tag_154)\n    tag_155:\n      pop\n      swap3\n      swap7\n        /* \"stETHPoolV1.sol\":12280:12480  function getWinningHistory(address user) public view returns(rewardHistory[] memory){... */\n      swap6\n      pop\n      pop\n      pop\n      pop\n      pop\n      pop\n      jump\t// out\n        /* \"stETHPoolV1.sol\":9654:11190  function claimRewardsFor(address user) external onlyRouter nonReentrant contractStarted returns(uint256){... */\n    tag_66:\n        /* \"stETHPoolV1.sol\":9750:9757  uint256 */\n      0x00\n        /* \"stETHPoolV1.sol\":3557:3573  registryContract */\n      dup1\n      sload\n        /* \"stETHPoolV1.sol\":3543:3586  IRoleRegistry(registryContract).getRouter() */\n      0x40\n      dup1\n      mload\n      shl(0xe0, 0xb0f479a1)\n      dup2\n      mstore\n      swap1\n      mload\n        /* \"stETHPoolV1.sol\":9750:9757  uint256 */\n      dup4\n      swap3\n      sub(shl(0xa0, 0x01), 0x01)\n        /* \"stETHPoolV1.sol\":3557:3573  registryContract */\n      and\n      swap2\n        /* \"stETHPoolV1.sol\":3543:3584  IRoleRegistry(registryContract).getRouter */\n      0xb0f479a1\n      swap2\n        /* \"stETHPoolV1.sol\":3543:3586  IRoleRegistry(registryContract).getRouter() */\n      0x04\n      dup1\n      dup4\n      add\n      swap3\n      0x20\n      swap3\n      swap2\n      swap1\n      dup3\n      swap1\n      sub\n      add\n      dup2\n        /* \"stETHPoolV1.sol\":3557:3573  registryContract */\n      dup7\n        /* \"stETHPoolV1.sol\":3543:3586  IRoleRegistry(registryContract).getRouter() */\n      gas\n      staticcall\n      iszero\n      dup1\n      iszero\n      tag_159\n      jumpi\n      returndatasize\n      0x00\n      dup1\n      returndatacopy\n      revert(0x00, returndatasize)\n    tag_159:\n      pop\n      pop\n      pop\n      pop\n      mload(0x40)\n      returndatasize\n      not(0x1f)\n      0x1f\n      dup3\n      add\n      and\n      dup3\n      add\n      dup1\n      0x40\n      mstore\n      pop\n      dup2\n      add\n      swap1\n      tag_160\n      swap2\n      swap1\n      tag_161\n      jump\t// in\n    tag_160:\n        /* \"stETHPoolV1.sol\":3528:3586  address role = IRoleRegistry(registryContract).getRouter() */\n      swap1\n      pop\n        /* \"stETHPoolV1.sol\":3604:3614  msg.sender */\n      caller\n      sub(shl(0xa0, 0x01), 0x01)\n        /* \"stETHPoolV1.sol\":3604:3622  msg.sender == role */\n      dup3\n      and\n      eq\n        /* \"stETHPoolV1.sol\":3596:3641  require(msg.sender == role, \"Invalid caller\") */\n      tag_162\n      jumpi\n      mload(0x40)\n      shl(0xe5, 0x461bcd)\n      dup2\n      mstore\n      0x04\n      add\n      tag_163\n      swap1\n      tag_164\n      jump\t// in\n    tag_163:\n      mload(0x40)\n      dup1\n      swap2\n      sub\n      swap1\n      revert\n    tag_162:\n        /* \"stETHPoolV1.sol\":3705:3711  status */\n      sload(0x07)\n        /* \"stETHPoolV1.sol\":3705:3716  status == 0 */\n      iszero\n        /* \"stETHPoolV1.sol\":3697:3733  require(status == 0, \"Illegal call\") */\n      tag_166\n      jumpi\n      mload(0x40)\n      shl(0xe5, 0x461bcd)\n      dup2\n      mstore\n      0x04\n      add\n      tag_163\n      swap1\n      tag_168\n      jump\t// in\n    tag_166:\n        /* \"stETHPoolV1.sol\":3752:3753  1 */\n      0x01\n        /* \"stETHPoolV1.sol\":3743:3749  status */\n      0x07\n        /* \"stETHPoolV1.sol\":3743:3753  status = 1 */\n      sstore\n        /* \"stETHPoolV1.sol\":2847:2866  uint256 epochLength */\n      0x00\n        /* \"stETHPoolV1.sol\":2869:2885  getEpochLength() */\n      tag_170\n        /* \"stETHPoolV1.sol\":17693:17705  EpochResults */\n      0x0d\n        /* \"stETHPoolV1.sol\":17693:17712  EpochResults.length */\n      sload\n      swap1\n        /* \"stETHPoolV1.sol\":17612:17742  function getEpochLength() public view returns(uint256){... */\n      jump\n        /* \"stETHPoolV1.sol\":2869:2885  getEpochLength() */\n    tag_170:\n        /* \"stETHPoolV1.sol\":2847:2885  uint256 epochLength = getEpochLength() */\n      swap1\n      pop\n        /* \"stETHPoolV1.sol\":2917:2918  0 */\n      0x00\n        /* \"stETHPoolV1.sol\":2903:2914  epochLength */\n      dup2\n        /* \"stETHPoolV1.sol\":2903:2918  epochLength > 0 */\n      gt\n        /* \"stETHPoolV1.sol\":2895:2943  require(epochLength > 0, \"Contract not started\") */\n      tag_171\n      jumpi\n      mload(0x40)\n      shl(0xe5, 0x461bcd)\n      dup2\n      mstore\n      0x04\n      add\n      tag_163\n      swap1\n      tag_173\n      jump\t// in\n    tag_171:\n      sub(shl(0xa0, 0x01), 0x01)\n        /* \"stETHPoolV1.sol\":9794:9819  claimableRewardData[user] */\n      dup5\n      and\n        /* \"stETHPoolV1.sol\":9768:9791  uint256 rewardClaimable */\n      0x00\n        /* \"stETHPoolV1.sol\":9794:9819  claimableRewardData[user] */\n      swap1\n      dup2\n      mstore\n        /* \"stETHPoolV1.sol\":9794:9813  claimableRewardData */\n      0x06\n        /* \"stETHPoolV1.sol\":9794:9819  claimableRewardData[user] */\n      0x20\n      mstore\n      0x40\n      swap1\n      keccak256\n        /* \"stETHPoolV1.sol\":9794:9829  claimableRewardData[user].claimable */\n      sload\n        /* \"stETHPoolV1.sol\":9847:9866  rewardClaimable > 0 */\n      dup1\n        /* \"stETHPoolV1.sol\":9839:9890  require(rewardClaimable > 0, \"No rewards to claim\") */\n      tag_175\n      jumpi\n      mload(0x40)\n      shl(0xe5, 0x461bcd)\n      dup2\n      mstore\n        /* \"#utility.yul\":8449:8451   */\n      0x20\n        /* \"stETHPoolV1.sol\":9839:9890  require(rewardClaimable > 0, \"No rewards to claim\") */\n      0x04\n      dup3\n      add\n        /* \"#utility.yul\":8431:8452   */\n      mstore\n        /* \"#utility.yul\":8488:8490   */\n      0x13\n        /* \"#utility.yul\":8468:8486   */\n      0x24\n      dup3\n      add\n        /* \"#utility.yul\":8461:8491   */\n      mstore\n      shl(0x68, 0x4e6f207265776172647320746f20636c61696d)\n        /* \"#utility.yul\":8507:8525   */\n      0x44\n      dup3\n      add\n        /* \"#utility.yul\":8500:8549   */\n      mstore\n        /* \"#utility.yul\":8566:8584   */\n      0x64\n      add\n        /* \"stETHPoolV1.sol\":9839:9890  require(rewardClaimable > 0, \"No rewards to claim\") */\n      tag_163\n        /* \"#utility.yul\":8247:8590   */\n      jump\n        /* \"stETHPoolV1.sol\":9839:9890  require(rewardClaimable > 0, \"No rewards to claim\") */\n    tag_175:\n      sub(shl(0xa0, 0x01), 0x01)\n        /* \"stETHPoolV1.sol\":9900:9925  claimableRewardData[user] */\n      dup6\n      and\n        /* \"stETHPoolV1.sol\":9938:9939  0 */\n      0x00\n        /* \"stETHPoolV1.sol\":9900:9925  claimableRewardData[user] */\n      swap1\n      dup2\n      mstore\n        /* \"stETHPoolV1.sol\":9900:9919  claimableRewardData */\n      0x06\n        /* \"stETHPoolV1.sol\":9900:9925  claimableRewardData[user] */\n      0x20\n      mstore\n      0x40\n      dup2\n      keccak256\n        /* \"stETHPoolV1.sol\":9900:9939  claimableRewardData[user].claimable = 0 */\n      dup2\n      dup2\n      sstore\n        /* \"stETHPoolV1.sol\":9976:10031  claimableRewardData[user].temporaryNotClaimedEpochArray */\n      0x02\n      add\n        /* \"stETHPoolV1.sol\":9976:10038  claimableRewardData[user].temporaryNotClaimedEpochArray.length */\n      sload\n      swap1\n        /* \"stETHPoolV1.sol\":10139:10961  for(uint i=0; i <notclaimedLength;i++){... */\n    tag_178:\n        /* \"stETHPoolV1.sol\":10156:10172  notclaimedLength */\n      dup2\n        /* \"stETHPoolV1.sol\":10153:10154  i */\n      dup2\n        /* \"stETHPoolV1.sol\":10153:10172  i <notclaimedLength */\n      lt\n        /* \"stETHPoolV1.sol\":10139:10961  for(uint i=0; i <notclaimedLength;i++){... */\n      iszero\n      tag_179\n      jumpi\n      sub(shl(0xa0, 0x01), 0x01)\n        /* \"stETHPoolV1.sol\":10213:10238  claimableRewardData[user] */\n      dup8\n      and\n        /* \"stETHPoolV1.sol\":10191:10210  uint256 epochNumber */\n      0x00\n        /* \"stETHPoolV1.sol\":10213:10238  claimableRewardData[user] */\n      swap1\n      dup2\n      mstore\n        /* \"stETHPoolV1.sol\":10213:10232  claimableRewardData */\n      0x06\n        /* \"stETHPoolV1.sol\":10213:10238  claimableRewardData[user] */\n      0x20\n      mstore\n      0x40\n      dup2\n      keccak256\n        /* \"stETHPoolV1.sol\":10213:10268  claimableRewardData[user].temporaryNotClaimedEpochArray */\n      0x02\n      add\n        /* \"stETHPoolV1.sol\":10213:10271  claimableRewardData[user].temporaryNotClaimedEpochArray[i] */\n      dup1\n      sload\n        /* \"stETHPoolV1.sol\":10269:10270  i */\n      dup4\n      swap1\n        /* \"stETHPoolV1.sol\":10213:10271  claimableRewardData[user].temporaryNotClaimedEpochArray[i] */\n      dup2\n      lt\n      tag_182\n      jumpi\n      tag_182\n      tag_151\n      jump\t// in\n    tag_182:\n      swap1\n      0x00\n      mstore\n      keccak256(0x00, 0x20)\n      add\n      sload\n        /* \"stETHPoolV1.sol\":10191:10271  uint256 epochNumber = claimableRewardData[user].temporaryNotClaimedEpochArray[i] */\n      swap1\n      pop\n        /* \"stETHPoolV1.sol\":10285:10301  uint256 position */\n      0x00\n        /* \"stETHPoolV1.sol\":10304:10323  claimableRewardData */\n      0x06\n        /* \"stETHPoolV1.sol\":10304:10329  claimableRewardData[user] */\n      0x00\n        /* \"stETHPoolV1.sol\":10324:10328  user */\n      dup11\n      sub(shl(0xa0, 0x01), 0x01)\n        /* \"stETHPoolV1.sol\":10304:10329  claimableRewardData[user] */\n      and\n      sub(shl(0xa0, 0x01), 0x01)\n      and\n      dup2\n      mstore\n      0x20\n      add\n      swap1\n      dup2\n      mstore\n      0x20\n      add\n      0x00\n      keccak256\n        /* \"stETHPoolV1.sol\":10304:10348  claimableRewardData[user].rewardHistoryArray */\n      0x01\n      add\n        /* \"stETHPoolV1.sol\":10349:10350  i */\n      dup4\n        /* \"stETHPoolV1.sol\":10304:10351  claimableRewardData[user].rewardHistoryArray[i] */\n      dup2\n      sload\n      dup2\n      lt\n      tag_185\n      jumpi\n      tag_185\n      tag_151\n      jump\t// in\n    tag_185:\n      swap1\n      0x00\n      mstore\n      keccak256(0x00, 0x20)\n      swap1\n      0x03\n      mul\n      add\n        /* \"stETHPoolV1.sol\":10304:10360  claimableRewardData[user].rewardHistoryArray[i].position */\n      0x01\n      add\n      sload\n        /* \"stETHPoolV1.sol\":10285:10360  uint256 position = claimableRewardData[user].rewardHistoryArray[i].position */\n      swap1\n      pop\n        /* \"stETHPoolV1.sol\":10407:10433  EpochResult storage result */\n      0x00\n        /* \"stETHPoolV1.sol\":10436:10448  EpochResults */\n      0x0d\n        /* \"stETHPoolV1.sol\":10449:10460  epochNumber */\n      dup4\n        /* \"stETHPoolV1.sol\":10436:10461  EpochResults[epochNumber] */\n      dup2\n      sload\n      dup2\n      lt\n      tag_188\n      jumpi\n      tag_188\n      tag_151\n      jump\t// in\n    tag_188:\n      swap1\n      0x00\n      mstore\n      keccak256(0x00, 0x20)\n      swap1\n      0x0e\n      mul\n      add\n        /* \"stETHPoolV1.sol\":10407:10461  EpochResult storage result = EpochResults[epochNumber] */\n      swap1\n      pop\n        /* \"stETHPoolV1.sol\":10478:10486  position */\n      dup2\n        /* \"stETHPoolV1.sol\":10490:10491  1 */\n      0x01\n        /* \"stETHPoolV1.sol\":10478:10491  position == 1 */\n      sub\n        /* \"stETHPoolV1.sol\":10475:10951  if(position == 1){... */\n      tag_190\n      jumpi\n        /* \"stETHPoolV1.sol\":10513:10533  result.first.claimed */\n      0x02\n      dup2\n      add\n      sload\n      0xff\n      and\n        /* \"stETHPoolV1.sol\":10513:10542  result.first.claimed == false */\n      iszero\n      iszero\n        /* \"stETHPoolV1.sol\":10513:10525  result.first */\n      0x00\n        /* \"stETHPoolV1.sol\":10513:10542  result.first.claimed == false */\n      sub\n        /* \"stETHPoolV1.sol\":10510:10607  if(result.first.claimed == false){... */\n      tag_191\n      jumpi\n        /* \"stETHPoolV1.sol\":10561:10581  result.first.claimed */\n      0x02\n      dup2\n      add\n        /* \"stETHPoolV1.sol\":10561:10588  result.first.claimed = true */\n      dup1\n      sload\n      not(0xff)\n      and\n        /* \"stETHPoolV1.sol\":10584:10588  true */\n      0x01\n        /* \"stETHPoolV1.sol\":10561:10588  result.first.claimed = true */\n      or\n      swap1\n      sstore\n        /* \"stETHPoolV1.sol\":10510:10607  if(result.first.claimed == false){... */\n    tag_191:\n        /* \"stETHPoolV1.sol\":10475:10951  if(position == 1){... */\n      jump(tag_197)\n    tag_190:\n        /* \"stETHPoolV1.sol\":10642:10650  position */\n      dup2\n        /* \"stETHPoolV1.sol\":10654:10655  2 */\n      0x02\n        /* \"stETHPoolV1.sol\":10642:10655  position == 2 */\n      sub\n        /* \"stETHPoolV1.sol\":10639:10951  if(position == 2){... */\n      tag_193\n      jumpi\n        /* \"stETHPoolV1.sol\":10677:10698  result.second.claimed */\n      0x05\n      dup2\n      add\n      sload\n      0xff\n      and\n        /* \"stETHPoolV1.sol\":10677:10707  result.second.claimed == false */\n      iszero\n      iszero\n        /* \"stETHPoolV1.sol\":10677:10698  result.second.claimed */\n      0x00\n        /* \"stETHPoolV1.sol\":10677:10707  result.second.claimed == false */\n      sub\n        /* \"stETHPoolV1.sol\":10674:10773  if(result.second.claimed == false){... */\n      tag_191\n      jumpi\n        /* \"stETHPoolV1.sol\":10726:10747  result.second.claimed */\n      0x05\n      dup2\n      add\n        /* \"stETHPoolV1.sol\":10726:10754  result.second.claimed = true */\n      dup1\n      sload\n      not(0xff)\n      and\n        /* \"stETHPoolV1.sol\":10750:10754  true */\n      0x01\n        /* \"stETHPoolV1.sol\":10726:10754  result.second.claimed = true */\n      or\n      swap1\n      sstore\n        /* \"stETHPoolV1.sol\":10639:10951  if(position == 2){... */\n      jump(tag_197)\n    tag_193:\n        /* \"stETHPoolV1.sol\":10808:10816  position */\n      dup2\n        /* \"stETHPoolV1.sol\":10820:10821  3 */\n      0x03\n        /* \"stETHPoolV1.sol\":10808:10821  position == 3 */\n      sub\n        /* \"stETHPoolV1.sol\":10805:10951  if(position == 3){... */\n      tag_197\n      jumpi\n        /* \"stETHPoolV1.sol\":10843:10863  result.third.claimed */\n      0x08\n      dup2\n      add\n      sload\n      0xff\n      and\n        /* \"stETHPoolV1.sol\":10843:10872  result.third.claimed == false */\n      iszero\n      iszero\n        /* \"stETHPoolV1.sol\":10843:10863  result.third.claimed */\n      0x00\n        /* \"stETHPoolV1.sol\":10843:10872  result.third.claimed == false */\n      sub\n        /* \"stETHPoolV1.sol\":10840:10937  if(result.third.claimed == false){... */\n      tag_197\n      jumpi\n        /* \"stETHPoolV1.sol\":10891:10911  result.third.claimed */\n      0x08\n      dup2\n      add\n        /* \"stETHPoolV1.sol\":10891:10918  result.third.claimed = true */\n      dup1\n      sload\n      not(0xff)\n      and\n        /* \"stETHPoolV1.sol\":10914:10918  true */\n      0x01\n        /* \"stETHPoolV1.sol\":10891:10918  result.third.claimed = true */\n      or\n      swap1\n      sstore\n        /* \"stETHPoolV1.sol\":10840:10937  if(result.third.claimed == false){... */\n    tag_197:\n        /* \"stETHPoolV1.sol\":10177:10961  {... */\n      pop\n      pop\n      pop\n        /* \"stETHPoolV1.sol\":10173:10176  i++ */\n      dup1\n      dup1\n      tag_198\n      swap1\n      tag_199\n      jump\t// in\n    tag_198:\n      swap2\n      pop\n      pop\n        /* \"stETHPoolV1.sol\":10139:10961  for(uint i=0; i <notclaimedLength;i++){... */\n      jump(tag_178)\n    tag_179:\n      pop\n      sub(shl(0xa0, 0x01), 0x01)\n        /* \"stETHPoolV1.sol\":10978:11003  claimableRewardData[user] */\n      dup7\n      and\n      0x00\n      swap1\n      dup2\n      mstore\n        /* \"stETHPoolV1.sol\":10978:10997  claimableRewardData */\n      0x06\n        /* \"stETHPoolV1.sol\":10978:11003  claimableRewardData[user] */\n      0x20\n      mstore\n      0x40\n      dup2\n      keccak256\n        /* \"stETHPoolV1.sol\":10971:11033  delete claimableRewardData[user].temporaryNotClaimedEpochArray */\n      tag_200\n      swap2\n        /* \"stETHPoolV1.sol\":10978:11033  claimableRewardData[user].temporaryNotClaimedEpochArray */\n      0x02\n      swap1\n      swap2\n      add\n      swap1\n        /* \"stETHPoolV1.sol\":10971:11033  delete claimableRewardData[user].temporaryNotClaimedEpochArray */\n      tag_201\n      jump\t// in\n    tag_200:\n        /* \"stETHPoolV1.sol\":11057:11088  uint256 realizedRewardClaimable */\n      0x00\n        /* \"stETHPoolV1.sol\":11091:11126  sendRewardToRouter(rewardClaimable) */\n      tag_202\n        /* \"stETHPoolV1.sol\":11110:11125  rewardClaimable */\n      dup4\n        /* \"stETHPoolV1.sol\":11091:11109  sendRewardToRouter */\n      tag_203\n        /* \"stETHPoolV1.sol\":11091:11126  sendRewardToRouter(rewardClaimable) */\n      jump\t// in\n    tag_202:\n        /* \"stETHPoolV1.sol\":3783:3784  0 */\n      0x00\n        /* \"stETHPoolV1.sol\":3774:3780  status */\n      0x07\n        /* \"stETHPoolV1.sol\":3774:3784  status = 0 */\n      sstore\n        /* \"stETHPoolV1.sol\":11057:11126  uint256 realizedRewardClaimable = sendRewardToRouter(rewardClaimable) */\n      swap8\n        /* \"stETHPoolV1.sol\":9654:11190  function claimRewardsFor(address user) external onlyRouter nonReentrant contractStarted returns(uint256){... */\n      swap7\n      pop\n      pop\n      pop\n      pop\n      pop\n      pop\n      pop\n      jump\t// out\n        /* \"stETHPoolV1.sol\":18746:19104  function finalizeEpochTicketandParticipantInfo(uint256 epochNumber) external onlyRewardDistributor{... */\n    tag_73:\n        /* \"stETHPoolV1.sol\":3008:3020  address role */\n      0x00\n        /* \"stETHPoolV1.sol\":3037:3053  registryContract */\n      dup1\n      0x00\n      swap1\n      sload\n      swap1\n      0x0100\n      exp\n      swap1\n      div\n      sub(shl(0xa0, 0x01), 0x01)\n      and\n      sub(shl(0xa0, 0x01), 0x01)\n        /* \"stETHPoolV1.sol\":3023:3075  IRoleRegistry(registryContract).getRewardDistributor */\n      and\n      0xcf20d872\n        /* \"stETHPoolV1.sol\":3023:3077  IRoleRegistry(registryContract).getRewardDistributor() */\n      mload(0x40)\n      dup2\n      0xffffffff\n      and\n      0xe0\n      shl\n      dup2\n      mstore\n      0x04\n      add\n      0x20\n      mload(0x40)\n      dup1\n      dup4\n      sub\n      dup2\n      dup7\n      gas\n      staticcall\n      iszero\n      dup1\n      iszero\n      tag_207\n      jumpi\n      returndatasize\n      0x00\n      dup1\n      returndatacopy\n      revert(0x00, returndatasize)\n    tag_207:\n      pop\n      pop\n      pop\n      pop\n      mload(0x40)\n      returndatasize\n      not(0x1f)\n      0x1f\n      dup3\n      add\n      and\n      dup3\n      add\n      dup1\n      0x40\n      mstore\n      pop\n      dup2\n      add\n      swap1\n      tag_208\n      swap2\n      swap1\n      tag_161\n      jump\t// in\n    tag_208:\n        /* \"stETHPoolV1.sol\":3008:3077  address role = IRoleRegistry(registryContract).getRewardDistributor() */\n      swap1\n      pop\n        /* \"stETHPoolV1.sol\":3095:3105  msg.sender */\n      caller\n      sub(shl(0xa0, 0x01), 0x01)\n        /* \"stETHPoolV1.sol\":3095:3113  msg.sender == role */\n      dup3\n      and\n      eq\n        /* \"stETHPoolV1.sol\":3087:3132  require(msg.sender == role, \"Invalid caller\") */\n      tag_209\n      jumpi\n      mload(0x40)\n      shl(0xe5, 0x461bcd)\n      dup2\n      mstore\n      0x04\n      add\n      tag_163\n      swap1\n      tag_164\n      jump\t// in\n    tag_209:\n        /* \"stETHPoolV1.sol\":18854:18889  EpochResult storage getEpochDetails */\n      0x00\n        /* \"stETHPoolV1.sol\":18892:18904  EpochResults */\n      0x0d\n        /* \"stETHPoolV1.sol\":18905:18916  epochNumber */\n      dup4\n        /* \"stETHPoolV1.sol\":18892:18917  EpochResults[epochNumber] */\n      dup2\n      sload\n      dup2\n      lt\n      tag_213\n      jumpi\n      tag_213\n      tag_151\n      jump\t// in\n    tag_213:\n      swap1\n      0x00\n      mstore\n      keccak256(0x00, 0x20)\n      swap1\n      0x0e\n      mul\n      add\n        /* \"stETHPoolV1.sol\":18854:18917  EpochResult storage getEpochDetails = EpochResults[epochNumber] */\n      swap1\n      pop\n        /* \"stETHPoolV1.sol\":18927:18943  uint256 endBlock */\n      0x00\n        /* \"stETHPoolV1.sol\":18946:19008  getEpochDetails.createdTimeStamp.add(getEpochDetails.duration) */\n      tag_215\n        /* \"stETHPoolV1.sol\":18983:18998  getEpochDetails */\n      dup3\n        /* \"stETHPoolV1.sol\":18983:19007  getEpochDetails.duration */\n      0x0b\n      add\n      sload\n        /* \"stETHPoolV1.sol\":18946:18961  getEpochDetails */\n      dup4\n        /* \"stETHPoolV1.sol\":18946:18978  getEpochDetails.createdTimeStamp */\n      0x0c\n      add\n      sload\n        /* \"stETHPoolV1.sol\":18946:18982  getEpochDetails.createdTimeStamp.add */\n      tag_216\n      swap1\n        /* \"stETHPoolV1.sol\":18946:19008  getEpochDetails.createdTimeStamp.add(getEpochDetails.duration) */\n      swap2\n      swap1\n      0xffffffff\n      and\n      jump\t// in\n    tag_215:\n        /* \"stETHPoolV1.sol\":18927:19008  uint256 endBlock = getEpochDetails.createdTimeStamp.add(getEpochDetails.duration) */\n      swap1\n      pop\n        /* \"stETHPoolV1.sol\":19053:19097  sumUptotalParticipant(epochNumber, endBlock) */\n      tag_217\n        /* \"stETHPoolV1.sol\":19075:19086  epochNumber */\n      dup5\n        /* \"stETHPoolV1.sol\":19088:19096  endBlock */\n      dup3\n        /* \"stETHPoolV1.sol\":19053:19074  sumUptotalParticipant */\n      tag_218\n        /* \"stETHPoolV1.sol\":19053:19097  sumUptotalParticipant(epochNumber, endBlock) */\n      jump\t// in\n    tag_217:\n        /* \"stETHPoolV1.sol\":19018:19033  getEpochDetails */\n      dup3\n        /* \"stETHPoolV1.sol\":19018:19050  getEpochDetails.totalParticipant */\n      0x0d\n      add\n        /* \"stETHPoolV1.sol\":19018:19097  getEpochDetails.totalParticipant = sumUptotalParticipant(epochNumber, endBlock) */\n      dup2\n      swap1\n      sstore\n      pop\n        /* \"stETHPoolV1.sol\":18844:19104  {... */\n      pop\n      pop\n        /* \"stETHPoolV1.sol\":2998:3150  {... */\n      pop\n        /* \"stETHPoolV1.sol\":18746:19104  function finalizeEpochTicketandParticipantInfo(uint256 epochNumber) external onlyRewardDistributor{... */\n      pop\n      jump\t// out\n        /* \"stETHPoolV1.sol\":4405:4706  function depositFor(address user, uint256 amount) external onlyRouter nonReentrant contractStarted{... */\n    tag_77:\n        /* \"stETHPoolV1.sol\":3528:3540  address role */\n      0x00\n        /* \"stETHPoolV1.sol\":3557:3573  registryContract */\n      dup1\n      0x00\n      swap1\n      sload\n      swap1\n      0x0100\n      exp\n      swap1\n      div\n      sub(shl(0xa0, 0x01), 0x01)\n      and\n      sub(shl(0xa0, 0x01), 0x01)\n        /* \"stETHPoolV1.sol\":3543:3584  IRoleRegistry(registryContract).getRouter */\n      and\n      0xb0f479a1\n        /* \"stETHPoolV1.sol\":3543:3586  IRoleRegistry(registryContract).getRouter() */\n      mload(0x40)\n      dup2\n      0xffffffff\n      and\n      0xe0\n      shl\n      dup2\n      mstore\n      0x04\n      add\n      0x20\n      mload(0x40)\n      dup1\n      dup4\n      sub\n      dup2\n      dup7\n      gas\n      staticcall\n      iszero\n      dup1\n      iszero\n      tag_221\n      jumpi\n      returndatasize\n      0x00\n      dup1\n      returndatacopy\n      revert(0x00, returndatasize)\n    tag_221:\n      pop\n      pop\n      pop\n      pop\n      mload(0x40)\n      returndatasize\n      not(0x1f)\n      0x1f\n      dup3\n      add\n      and\n      dup3\n      add\n      dup1\n      0x40\n      mstore\n      pop\n      dup2\n      add\n      swap1\n      tag_222\n      swap2\n      swap1\n      tag_161\n      jump\t// in\n    tag_222:\n        /* \"stETHPoolV1.sol\":3528:3586  address role = IRoleRegistry(registryContract).getRouter() */\n      swap1\n      pop\n        /* \"stETHPoolV1.sol\":3604:3614  msg.sender */\n      caller\n      sub(shl(0xa0, 0x01), 0x01)\n        /* \"stETHPoolV1.sol\":3604:3622  msg.sender == role */\n      dup3\n      and\n      eq\n        /* \"stETHPoolV1.sol\":3596:3641  require(msg.sender == role, \"Invalid caller\") */\n      tag_223\n      jumpi\n      mload(0x40)\n      shl(0xe5, 0x461bcd)\n      dup2\n      mstore\n      0x04\n      add\n      tag_163\n      swap1\n      tag_164\n      jump\t// in\n    tag_223:\n        /* \"stETHPoolV1.sol\":3705:3711  status */\n      sload(0x07)\n        /* \"stETHPoolV1.sol\":3705:3716  status == 0 */\n      iszero\n        /* \"stETHPoolV1.sol\":3697:3733  require(status == 0, \"Illegal call\") */\n      tag_226\n      jumpi\n      mload(0x40)\n      shl(0xe5, 0x461bcd)\n      dup2\n      mstore\n      0x04\n      add\n      tag_163\n      swap1\n      tag_168\n      jump\t// in\n    tag_226:\n        /* \"stETHPoolV1.sol\":3752:3753  1 */\n      0x01\n        /* \"stETHPoolV1.sol\":3743:3749  status */\n      0x07\n        /* \"stETHPoolV1.sol\":3743:3753  status = 1 */\n      sstore\n        /* \"stETHPoolV1.sol\":2847:2866  uint256 epochLength */\n      0x00\n        /* \"stETHPoolV1.sol\":2869:2885  getEpochLength() */\n      tag_229\n        /* \"stETHPoolV1.sol\":17693:17705  EpochResults */\n      0x0d\n        /* \"stETHPoolV1.sol\":17693:17712  EpochResults.length */\n      sload\n      swap1\n        /* \"stETHPoolV1.sol\":17612:17742  function getEpochLength() public view returns(uint256){... */\n      jump\n        /* \"stETHPoolV1.sol\":2869:2885  getEpochLength() */\n    tag_229:\n        /* \"stETHPoolV1.sol\":2847:2885  uint256 epochLength = getEpochLength() */\n      swap1\n      pop\n        /* \"stETHPoolV1.sol\":2917:2918  0 */\n      0x00\n        /* \"stETHPoolV1.sol\":2903:2914  epochLength */\n      dup2\n        /* \"stETHPoolV1.sol\":2903:2918  epochLength > 0 */\n      gt\n        /* \"stETHPoolV1.sol\":2895:2943  require(epochLength > 0, \"Contract not started\") */\n      tag_230\n      jumpi\n      mload(0x40)\n      shl(0xe5, 0x461bcd)\n      dup2\n      mstore\n      0x04\n      add\n      tag_163\n      swap1\n      tag_173\n      jump\t// in\n    tag_230:\n        /* \"stETHPoolV1.sol\":4588:4613  uint256 realDepositAmount */\n      0x00\n        /* \"stETHPoolV1.sol\":4616:4645  getTokenFromMsgsender(amount) */\n      tag_233\n        /* \"stETHPoolV1.sol\":4638:4644  amount */\n      dup5\n        /* \"stETHPoolV1.sol\":4616:4637  getTokenFromMsgsender */\n      tag_234\n        /* \"stETHPoolV1.sol\":4616:4645  getTokenFromMsgsender(amount) */\n      jump\t// in\n    tag_233:\n        /* \"stETHPoolV1.sol\":4588:4645  uint256 realDepositAmount = getTokenFromMsgsender(amount) */\n      swap1\n      pop\n        /* \"stETHPoolV1.sol\":4655:4699  updateUserInfo(user, realDepositAmount,true) */\n      tag_235\n        /* \"stETHPoolV1.sol\":4670:4674  user */\n      dup6\n        /* \"stETHPoolV1.sol\":4676:4693  realDepositAmount */\n      dup3\n        /* \"stETHPoolV1.sol\":4694:4698  true */\n      0x01\n        /* \"stETHPoolV1.sol\":4655:4669  updateUserInfo */\n      tag_236\n        /* \"stETHPoolV1.sol\":4655:4699  updateUserInfo(user, realDepositAmount,true) */\n      jump\t// in\n    tag_235:\n      pop\n      pop\n        /* \"stETHPoolV1.sol\":3783:3784  0 */\n      0x00\n        /* \"stETHPoolV1.sol\":3774:3780  status */\n      0x07\n        /* \"stETHPoolV1.sol\":3774:3784  status = 0 */\n      sstore\n      pop\n      pop\n      pop\n        /* \"stETHPoolV1.sol\":4405:4706  function depositFor(address user, uint256 amount) external onlyRouter nonReentrant contractStarted{... */\n      jump\t// out\n        /* \"stETHPoolV1.sol\":12485:12860  function getBalanceChangeHistory(address user, uint256 epochNumber) public view contractStarted validEpoch(epochNumber) returns(userChangeHistory memory) {... */\n    tag_83:\n      0x40\n      dup1\n      mload\n      dup1\n      dup3\n      add\n      swap1\n      swap2\n      mstore\n      0x00\n      dup2\n      mstore\n      0x60\n      0x20\n      dup3\n      add\n      mstore\n        /* \"stETHPoolV1.sol\":17693:17705  EpochResults */\n      0x0d\n        /* \"stETHPoolV1.sol\":17693:17712  EpochResults.length */\n      sload\n        /* \"stETHPoolV1.sol\":2903:2918  epochLength > 0 */\n      dup1\n        /* \"stETHPoolV1.sol\":2895:2943  require(epochLength > 0, \"Contract not started\") */\n      tag_242\n      jumpi\n      mload(0x40)\n      shl(0xe5, 0x461bcd)\n      dup2\n      mstore\n      0x04\n      add\n      tag_163\n      swap1\n      tag_173\n      jump\t// in\n    tag_242:\n        /* \"stETHPoolV1.sol\":12592:12603  epochNumber */\n      dup3\n        /* \"stETHPoolV1.sol\":2681:2700  uint256 latestEpoch */\n      0x00\n        /* \"stETHPoolV1.sol\":2703:2719  getLatestEpoch() */\n      tag_245\n        /* \"stETHPoolV1.sol\":2703:2717  getLatestEpoch */\n      tag_95\n        /* \"stETHPoolV1.sol\":2703:2719  getLatestEpoch() */\n      jump\t// in\n    tag_245:\n        /* \"stETHPoolV1.sol\":2681:2719  uint256 latestEpoch = getLatestEpoch() */\n      swap1\n      pop\n        /* \"stETHPoolV1.sol\":2752:2763  latestEpoch */\n      dup1\n        /* \"stETHPoolV1.sol\":2737:2748  epochNumber */\n      dup3\n        /* \"stETHPoolV1.sol\":2737:2763  epochNumber <= latestEpoch */\n      gt\n      iszero\n        /* \"stETHPoolV1.sol\":2729:2787  require(epochNumber <= latestEpoch,\"Invalid epoch number\") */\n      tag_246\n      jumpi\n      mload(0x40)\n      shl(0xe5, 0x461bcd)\n      dup2\n      mstore\n        /* \"#utility.yul\":9069:9071   */\n      0x20\n        /* \"stETHPoolV1.sol\":2729:2787  require(epochNumber <= latestEpoch,\"Invalid epoch number\") */\n      0x04\n      dup3\n      add\n        /* \"#utility.yul\":9051:9072   */\n      mstore\n        /* \"#utility.yul\":9108:9110   */\n      0x14\n        /* \"#utility.yul\":9088:9106   */\n      0x24\n      dup3\n      add\n        /* \"#utility.yul\":9081:9111   */\n      mstore\n      shl(0x61, 0x24b73b30b634b21032b837b1b410373ab6b132b9)\n        /* \"#utility.yul\":9127:9145   */\n      0x44\n      dup3\n      add\n        /* \"#utility.yul\":9120:9170   */\n      mstore\n        /* \"#utility.yul\":9187:9205   */\n      0x64\n      add\n        /* \"stETHPoolV1.sol\":2729:2787  require(epochNumber <= latestEpoch,\"Invalid epoch number\") */\n      tag_163\n        /* \"#utility.yul\":8867:9211   */\n      jump\n        /* \"stETHPoolV1.sol\":2729:2787  require(epochNumber <= latestEpoch,\"Invalid epoch number\") */\n    tag_246:\n      sub(shl(0xa0, 0x01), 0x01)\n        /* \"stETHPoolV1.sol\":12669:12681  userID[user] */\n      dup7\n      and\n        /* \"stETHPoolV1.sol\":12649:12666  uint256 userIDnow */\n      0x00\n        /* \"stETHPoolV1.sol\":12669:12681  userID[user] */\n      swap1\n      dup2\n      mstore\n        /* \"stETHPoolV1.sol\":12669:12675  userID */\n      0x03\n        /* \"stETHPoolV1.sol\":12669:12681  userID[user] */\n      0x20\n      mstore\n      0x40\n      dup2\n      keccak256\n      sload\n      swap1\n        /* \"stETHPoolV1.sol\":12699:12713  userIDnow != 0 */\n      dup2\n      swap1\n      sub\n        /* \"stETHPoolV1.sol\":12691:12740  require(userIDnow != 0, \"User hasn't registered\") */\n      tag_250\n      jumpi\n      mload(0x40)\n      shl(0xe5, 0x461bcd)\n      dup2\n      mstore\n      0x04\n      add\n      tag_163\n      swap1\n      tag_252\n      jump\t// in\n    tag_250:\n        /* \"stETHPoolV1.sol\":12750:12781  userChangeHistory memory result */\n      0x00\n        /* \"stETHPoolV1.sol\":12784:12810  changeHistory[epochNumber] */\n      dup7\n      dup2\n      mstore\n        /* \"stETHPoolV1.sol\":12784:12797  changeHistory */\n      0x05\n        /* \"stETHPoolV1.sol\":12784:12810  changeHistory[epochNumber] */\n      0x20\n      swap1\n      dup2\n      mstore\n      0x40\n      dup1\n      dup4\n      keccak256\n        /* \"stETHPoolV1.sol\":12784:12821  changeHistory[epochNumber][userIDnow] */\n      dup5\n      dup5\n      mstore\n      dup3\n      mstore\n      dup1\n      dup4\n      keccak256\n        /* \"stETHPoolV1.sol\":12750:12821  userChangeHistory memory result = changeHistory[epochNumber][userIDnow] */\n      dup2\n      mload\n      dup1\n      dup4\n      add\n      dup4\n      mstore\n      dup2\n      sload\n      0xff\n      and\n      iszero\n      iszero\n      dup2\n      mstore\n      0x01\n      dup3\n      add\n      dup1\n      sload\n      dup5\n      mload\n      dup2\n      dup8\n      mul\n      dup2\n      add\n      dup8\n      add\n      swap1\n      swap6\n      mstore\n      dup1\n      dup6\n      mstore\n      swap2\n      swap5\n        /* \"stETHPoolV1.sol\":12784:12821  changeHistory[epochNumber][userIDnow] */\n      swap3\n      swap4\n        /* \"stETHPoolV1.sol\":12750:12821  userChangeHistory memory result = changeHistory[epochNumber][userIDnow] */\n      dup6\n      dup5\n      add\n      swap4\n      swap1\n      swap3\n      swap1\n        /* \"stETHPoolV1.sol\":12750:12781  userChangeHistory memory result */\n      dup8\n      swap1\n        /* \"stETHPoolV1.sol\":12750:12821  userChangeHistory memory result = changeHistory[epochNumber][userIDnow] */\n      dup5\n      add\n    tag_253:\n      dup3\n      dup3\n      lt\n      iszero\n      tag_254\n      jumpi\n      dup4\n      dup3\n      swap1\n      0x00\n      mstore\n      keccak256(0x00, 0x20)\n      swap1\n      0x03\n      mul\n      add\n      mload(0x40)\n      dup1\n      0x60\n      add\n      0x40\n      mstore\n      swap1\n      dup2\n      0x00\n      dup3\n      add\n      sload\n      dup2\n      mstore\n      0x20\n      add\n      0x01\n      dup3\n      add\n      sload\n      dup2\n      mstore\n      0x20\n      add\n      0x02\n      dup3\n      add\n      sload\n      dup2\n      mstore\n      pop\n      pop\n      dup2\n      mstore\n      0x20\n      add\n      swap1\n      0x01\n      add\n      swap1\n      jump(tag_253)\n    tag_254:\n      pop\n      pop\n      pop\n      swap2\n      mstore\n      pop\n      swap1\n      swap10\n        /* \"stETHPoolV1.sol\":12485:12860  function getBalanceChangeHistory(address user, uint256 epochNumber) public view contractStarted validEpoch(epochNumber) returns(userChangeHistory memory) {... */\n      swap9\n      pop\n      pop\n      pop\n      pop\n      pop\n      pop\n      pop\n      pop\n      pop\n      jump\t// out\n        /* \"stETHPoolV1.sol\":18063:18311  function config(address token, uint256 decimal,uint256 minAmount, uint256 duration) external onlyController{... */\n    tag_89:\n        /* \"stETHPoolV1.sol\":3356:3368  address role */\n      0x00\n        /* \"stETHPoolV1.sol\":3385:3401  registryContract */\n      dup1\n      0x00\n      swap1\n      sload\n      swap1\n      0x0100\n      exp\n      swap1\n      div\n      sub(shl(0xa0, 0x01), 0x01)\n      and\n      sub(shl(0xa0, 0x01), 0x01)\n        /* \"stETHPoolV1.sol\":3371:3416  IRoleRegistry(registryContract).getController */\n      and\n      0x3018205f\n        /* \"stETHPoolV1.sol\":3371:3418  IRoleRegistry(registryContract).getController() */\n      mload(0x40)\n      dup2\n      0xffffffff\n      and\n      0xe0\n      shl\n      dup2\n      mstore\n      0x04\n      add\n      0x20\n      mload(0x40)\n      dup1\n      dup4\n      sub\n      dup2\n      dup7\n      gas\n      staticcall\n      iszero\n      dup1\n      iszero\n      tag_258\n      jumpi\n      returndatasize\n      0x00\n      dup1\n      returndatacopy\n      revert(0x00, returndatasize)\n    tag_258:\n      pop\n      pop\n      pop\n      pop\n      mload(0x40)\n      returndatasize\n      not(0x1f)\n      0x1f\n      dup3\n      add\n      and\n      dup3\n      add\n      dup1\n      0x40\n      mstore\n      pop\n      dup2\n      add\n      swap1\n      tag_259\n      swap2\n      swap1\n      tag_161\n      jump\t// in\n    tag_259:\n        /* \"stETHPoolV1.sol\":3356:3418  address role = IRoleRegistry(registryContract).getController() */\n      swap1\n      pop\n        /* \"stETHPoolV1.sol\":3436:3446  msg.sender */\n      caller\n      sub(shl(0xa0, 0x01), 0x01)\n        /* \"stETHPoolV1.sol\":3436:3454  msg.sender == role */\n      dup3\n      and\n      eq\n        /* \"stETHPoolV1.sol\":3428:3473  require(msg.sender == role, \"Invalid caller\") */\n      tag_260\n      jumpi\n      mload(0x40)\n      shl(0xe5, 0x461bcd)\n      dup2\n      mstore\n      0x04\n      add\n      tag_163\n      swap1\n      tag_164\n      jump\t// in\n    tag_260:\n      pop\n        /* \"stETHPoolV1.sol\":18180:18194  TokentoDeposit */\n      0x0f\n        /* \"stETHPoolV1.sol\":18180:18202  TokentoDeposit = token */\n      dup1\n      sload\n      not(sub(shl(0xa0, 0x01), 0x01))\n      and\n      sub(shl(0xa0, 0x01), 0x01)\n      swap6\n      swap1\n      swap6\n      and\n      swap5\n      swap1\n      swap5\n      or\n      swap1\n      swap4\n      sstore\n        /* \"stETHPoolV1.sol\":18212:18226  TICKET_DECIMAL */\n      0x11\n        /* \"stETHPoolV1.sol\":18212:18236  TICKET_DECIMAL = decimal */\n      swap2\n      swap1\n      swap2\n      sstore\n        /* \"stETHPoolV1.sol\":18246:18259  epochDuration */\n      0x0e\n        /* \"stETHPoolV1.sol\":18246:18270  epochDuration = duration */\n      swap2\n      swap1\n      swap2\n      sstore\n        /* \"stETHPoolV1.sol\":18280:18292  minToDeposit */\n      0x10\n        /* \"stETHPoolV1.sol\":18280:18304  minToDeposit = minAmount */\n      sstore\n        /* \"stETHPoolV1.sol\":18063:18311  function config(address token, uint256 decimal,uint256 minAmount, uint256 duration) external onlyController{... */\n      jump\t// out\n        /* \"stETHPoolV1.sol\":19109:21099  function finalizeEpoch(uint256 epochNumber, address firstWinner, address secondWinner, address thirdWinner, uint256 totalPrize) external onlyRewardDistributor{... */\n    tag_93:\n        /* \"stETHPoolV1.sol\":3008:3020  address role */\n      0x00\n        /* \"stETHPoolV1.sol\":3037:3053  registryContract */\n      dup1\n      0x00\n      swap1\n      sload\n      swap1\n      0x0100\n      exp\n      swap1\n      div\n      sub(shl(0xa0, 0x01), 0x01)\n      and\n      sub(shl(0xa0, 0x01), 0x01)\n        /* \"stETHPoolV1.sol\":3023:3075  IRoleRegistry(registryContract).getRewardDistributor */\n      and\n      0xcf20d872\n        /* \"stETHPoolV1.sol\":3023:3077  IRoleRegistry(registryContract).getRewardDistributor() */\n      mload(0x40)\n      dup2\n      0xffffffff\n      and\n      0xe0\n      shl\n      dup2\n      mstore\n      0x04\n      add\n      0x20\n      mload(0x40)\n      dup1\n      dup4\n      sub\n      dup2\n      dup7\n      gas\n      staticcall\n      iszero\n      dup1\n      iszero\n      tag_265\n      jumpi\n      returndatasize\n      0x00\n      dup1\n      returndatacopy\n      revert(0x00, returndatasize)\n    tag_265:\n      pop\n      pop\n      pop\n      pop\n      mload(0x40)\n      returndatasize\n      not(0x1f)\n      0x1f\n      dup3\n      add\n      and\n      dup3\n      add\n      dup1\n      0x40\n      mstore\n      pop\n      dup2\n      add\n      swap1\n      tag_266\n      swap2\n      swap1\n      tag_161\n      jump\t// in\n    tag_266:\n        /* \"stETHPoolV1.sol\":3008:3077  address role = IRoleRegistry(registryContract).getRewardDistributor() */\n      swap1\n      pop\n        /* \"stETHPoolV1.sol\":3095:3105  msg.sender */\n      caller\n      sub(shl(0xa0, 0x01), 0x01)\n        /* \"stETHPoolV1.sol\":3095:3113  msg.sender == role */\n      dup3\n      and\n      eq\n        /* \"stETHPoolV1.sol\":3087:3132  require(msg.sender == role, \"Invalid caller\") */\n      tag_267\n      jumpi\n      mload(0x40)\n      shl(0xe5, 0x461bcd)\n      dup2\n      mstore\n      0x04\n      add\n      tag_163\n      swap1\n      tag_164\n      jump\t// in\n    tag_267:\n      sub(shl(0xa0, 0x01), 0x01)\n        /* \"stETHPoolV1.sol\":12953:12965  userID[user] */\n      dup6\n      and\n        /* \"stETHPoolV1.sol\":12918:12925  uint256 */\n      0x00\n        /* \"stETHPoolV1.sol\":12953:12965  userID[user] */\n      swap1\n      dup2\n      mstore\n        /* \"stETHPoolV1.sol\":12953:12959  userID */\n      0x03\n        /* \"stETHPoolV1.sol\":12953:12965  userID[user] */\n      0x20\n      mstore\n      0x40\n      swap1\n      keccak256\n      sload\n        /* \"stETHPoolV1.sol\":19311:19312  0 */\n      0x00\n        /* \"stETHPoolV1.sol\":19285:19312  getUserID(firstWinner) != 0 */\n      sub\n        /* \"stETHPoolV1.sol\":19277:19335  require(getUserID(firstWinner) != 0, \"User doesn't exist\") */\n      tag_271\n      jumpi\n      mload(0x40)\n      shl(0xe5, 0x461bcd)\n      dup2\n      mstore\n      0x04\n      add\n      tag_163\n      swap1\n      tag_273\n      jump\t// in\n    tag_271:\n      sub(shl(0xa0, 0x01), 0x01)\n        /* \"stETHPoolV1.sol\":12953:12965  userID[user] */\n      dup5\n      and\n        /* \"stETHPoolV1.sol\":12918:12925  uint256 */\n      0x00\n        /* \"stETHPoolV1.sol\":12953:12965  userID[user] */\n      swap1\n      dup2\n      mstore\n        /* \"stETHPoolV1.sol\":12953:12959  userID */\n      0x03\n        /* \"stETHPoolV1.sol\":12953:12965  userID[user] */\n      0x20\n      mstore\n      0x40\n      swap1\n      keccak256\n      sload\n        /* \"stETHPoolV1.sol\":19380:19381  0 */\n      0x00\n        /* \"stETHPoolV1.sol\":19353:19381  getUserID(secondWinner) != 0 */\n      sub\n        /* \"stETHPoolV1.sol\":19345:19404  require(getUserID(secondWinner) != 0, \"User doesn't exist\") */\n      tag_275\n      jumpi\n      mload(0x40)\n      shl(0xe5, 0x461bcd)\n      dup2\n      mstore\n      0x04\n      add\n      tag_163\n      swap1\n      tag_273\n      jump\t// in\n    tag_275:\n      sub(shl(0xa0, 0x01), 0x01)\n        /* \"stETHPoolV1.sol\":12953:12965  userID[user] */\n      dup4\n      and\n        /* \"stETHPoolV1.sol\":12918:12925  uint256 */\n      0x00\n        /* \"stETHPoolV1.sol\":12953:12965  userID[user] */\n      swap1\n      dup2\n      mstore\n        /* \"stETHPoolV1.sol\":12953:12959  userID */\n      0x03\n        /* \"stETHPoolV1.sol\":12953:12965  userID[user] */\n      0x20\n      mstore\n      0x40\n      swap1\n      keccak256\n      sload\n        /* \"stETHPoolV1.sol\":19448:19449  0 */\n      0x00\n        /* \"stETHPoolV1.sol\":19422:19449  getUserID(thirdWinner) != 0 */\n      sub\n        /* \"stETHPoolV1.sol\":19414:19472  require(getUserID(thirdWinner) != 0, \"User doesn't exist\") */\n      tag_278\n      jumpi\n      mload(0x40)\n      shl(0xe5, 0x461bcd)\n      dup2\n      mstore\n      0x04\n      add\n      tag_163\n      swap1\n      tag_273\n      jump\t// in\n    tag_278:\n        /* \"stETHPoolV1.sol\":19482:19517  EpochResult storage getEpochDetails */\n      0x00\n        /* \"stETHPoolV1.sol\":19520:19532  EpochResults */\n      0x0d\n        /* \"stETHPoolV1.sol\":19533:19544  epochNumber */\n      dup8\n        /* \"stETHPoolV1.sol\":19520:19545  EpochResults[epochNumber] */\n      dup2\n      sload\n      dup2\n      lt\n      tag_281\n      jumpi\n      tag_281\n      tag_151\n      jump\t// in\n    tag_281:\n      0x00\n      swap2\n      dup3\n      mstore\n      0x20\n      swap1\n      swap2\n      keccak256\n      0x0e\n      swap1\n      swap2\n      mul\n      add\n        /* \"stETHPoolV1.sol\":19579:19604  getEpochDetails.finalized */\n      0x09\n      dup2\n      add\n      sload\n        /* \"stETHPoolV1.sol\":19520:19545  EpochResults[epochNumber] */\n      swap1\n      swap2\n      pop\n        /* \"stETHPoolV1.sol\":19579:19604  getEpochDetails.finalized */\n      0xff\n      and\n        /* \"stETHPoolV1.sol\":19622:19647  isEpochFinalized == false */\n      dup1\n      iszero\n        /* \"stETHPoolV1.sol\":19614:19665  require(isEpochFinalized == false, \"Epoch is done\") */\n      tag_283\n      jumpi\n      mload(0x40)\n      shl(0xe5, 0x461bcd)\n      dup2\n      mstore\n        /* \"#utility.yul\":10116:10118   */\n      0x20\n        /* \"stETHPoolV1.sol\":19614:19665  require(isEpochFinalized == false, \"Epoch is done\") */\n      0x04\n      dup3\n      add\n        /* \"#utility.yul\":10098:10119   */\n      mstore\n        /* \"#utility.yul\":10155:10157   */\n      0x0d\n        /* \"#utility.yul\":10135:10153   */\n      0x24\n      dup3\n      add\n        /* \"#utility.yul\":10128:10158   */\n      mstore\n      shl(0x98, 0x45706f636820697320646f6e65)\n        /* \"#utility.yul\":10174:10192   */\n      0x44\n      dup3\n      add\n        /* \"#utility.yul\":10167:10210   */\n      mstore\n        /* \"#utility.yul\":10227:10245   */\n      0x64\n      add\n        /* \"stETHPoolV1.sol\":19614:19665  require(isEpochFinalized == false, \"Epoch is done\") */\n      tag_163\n        /* \"#utility.yul\":9914:10251   */\n      jump\n        /* \"stETHPoolV1.sol\":19614:19665  require(isEpochFinalized == false, \"Epoch is done\") */\n    tag_283:\n        /* \"stETHPoolV1.sol\":19675:19691  uint256 endBlock */\n      0x00\n        /* \"stETHPoolV1.sol\":19694:19756  getEpochDetails.createdTimeStamp.add(getEpochDetails.duration) */\n      tag_286\n        /* \"stETHPoolV1.sol\":19731:19746  getEpochDetails */\n      dup4\n        /* \"stETHPoolV1.sol\":19731:19755  getEpochDetails.duration */\n      0x0b\n      add\n      sload\n        /* \"stETHPoolV1.sol\":19694:19709  getEpochDetails */\n      dup5\n        /* \"stETHPoolV1.sol\":19694:19726  getEpochDetails.createdTimeStamp */\n      0x0c\n      add\n      sload\n        /* \"stETHPoolV1.sol\":19694:19730  getEpochDetails.createdTimeStamp.add */\n      tag_216\n      swap1\n        /* \"stETHPoolV1.sol\":19694:19756  getEpochDetails.createdTimeStamp.add(getEpochDetails.duration) */\n      swap2\n      swap1\n      0xffffffff\n      and\n      jump\t// in\n    tag_286:\n        /* \"stETHPoolV1.sol\":19675:19756  uint256 endBlock = getEpochDetails.createdTimeStamp.add(getEpochDetails.duration) */\n      swap1\n      pop\n        /* \"stETHPoolV1.sol\":19792:19800  endBlock */\n      dup1\n        /* \"stETHPoolV1.sol\":19774:19789  block.timestamp */\n      timestamp\n        /* \"stETHPoolV1.sol\":19774:19800  block.timestamp > endBlock */\n      gt\n        /* \"stETHPoolV1.sol\":19766:19821  require(block.timestamp > endBlock, \"Epoch isn't done\") */\n      tag_287\n      jumpi\n      mload(0x40)\n      shl(0xe5, 0x461bcd)\n      dup2\n      mstore\n        /* \"#utility.yul\":10458:10460   */\n      0x20\n        /* \"stETHPoolV1.sol\":19766:19821  require(block.timestamp > endBlock, \"Epoch isn't done\") */\n      0x04\n      dup3\n      add\n        /* \"#utility.yul\":10440:10461   */\n      mstore\n        /* \"#utility.yul\":10497:10499   */\n      0x10\n        /* \"#utility.yul\":10477:10495   */\n      0x24\n      dup3\n      add\n        /* \"#utility.yul\":10470:10500   */\n      mstore\n      shl(0x80, 0x45706f63682069736e277420646f6e65)\n        /* \"#utility.yul\":10516:10534   */\n      0x44\n      dup3\n      add\n        /* \"#utility.yul\":10509:10555   */\n      mstore\n        /* \"#utility.yul\":10572:10590   */\n      0x64\n      add\n        /* \"stETHPoolV1.sol\":19766:19821  require(block.timestamp > endBlock, \"Epoch isn't done\") */\n      tag_163\n        /* \"#utility.yul\":10256:10596   */\n      jump\n        /* \"stETHPoolV1.sol\":19766:19821  require(block.timestamp > endBlock, \"Epoch isn't done\") */\n    tag_287:\n        /* \"stETHPoolV1.sol\":19831:19856  getEpochDetails.finalized */\n      0x09\n      dup4\n      add\n        /* \"stETHPoolV1.sol\":19831:19863  getEpochDetails.finalized = true */\n      dup1\n      sload\n      not(0xff)\n      and\n        /* \"stETHPoolV1.sol\":19859:19863  true */\n      0x01\n        /* \"stETHPoolV1.sol\":19831:19863  getEpochDetails.finalized = true */\n      or\n      swap1\n      sstore\n        /* \"stETHPoolV1.sol\":19831:19856  getEpochDetails.finalized */\n      0x00\n        /* \"stETHPoolV1.sol\":19899:19934  transferRewardToReserve(totalPrize) */\n      tag_290\n        /* \"stETHPoolV1.sol\":19923:19933  totalPrize */\n      dup7\n        /* \"stETHPoolV1.sol\":19899:19922  transferRewardToReserve */\n      tag_291\n        /* \"stETHPoolV1.sol\":19899:19934  transferRewardToReserve(totalPrize) */\n      jump\t// in\n    tag_290:\n        /* \"stETHPoolV1.sol\":19944:19970  getEpochDetails.totalPrize */\n      0x0a\n      dup6\n      add\n        /* \"stETHPoolV1.sol\":19944:19987  getEpochDetails.totalPrize = realizedReward */\n      dup2\n      swap1\n      sstore\n        /* \"stETHPoolV1.sol\":19997:20039  getEpochDetails.first.winner = firstWinner */\n      dup5\n      sload\n      not(sub(shl(0xa0, 0x01), 0x01))\n      and\n      sub(shl(0xa0, 0x01), 0x01)\n      dup12\n      and\n      or\n      dup6\n      sstore\n        /* \"stETHPoolV1.sol\":20135:20152  PercentageDecimal */\n      sload(0x0c)\n        /* \"stETHPoolV1.sol\":20105:20122  AllocationPortion */\n      0x09\n        /* \"stETHPoolV1.sol\":20105:20128  AllocationPortion.first */\n      sload\n        /* \"stETHPoolV1.sol\":19944:19987  getEpochDetails.totalPrize = realizedReward */\n      swap2\n      swap3\n      pop\n        /* \"stETHPoolV1.sol\":20085:20153  (realizedReward.mul(AllocationPortion.first)).div(PercentageDecimal) */\n      tag_292\n      swap2\n        /* \"stETHPoolV1.sol\":20086:20129  realizedReward.mul(AllocationPortion.first) */\n      tag_293\n      swap1\n        /* \"stETHPoolV1.sol\":19944:19987  getEpochDetails.totalPrize = realizedReward */\n      dup5\n      swap1\n        /* \"stETHPoolV1.sol\":20086:20104  realizedReward.mul */\n      tag_294\n        /* \"stETHPoolV1.sol\":20086:20129  realizedReward.mul(AllocationPortion.first) */\n      jump\t// in\n    tag_293:\n        /* \"stETHPoolV1.sol\":20085:20134  (realizedReward.mul(AllocationPortion.first)).div */\n      swap1\n      tag_295\n        /* \"stETHPoolV1.sol\":20085:20153  (realizedReward.mul(AllocationPortion.first)).div(PercentageDecimal) */\n      jump\t// in\n    tag_292:\n        /* \"stETHPoolV1.sol\":20049:20082  getEpochDetails.first.prizeAmount */\n      0x01\n      dup6\n      add\n        /* \"stETHPoolV1.sol\":20049:20153  getEpochDetails.first.prizeAmount = (realizedReward.mul(AllocationPortion.first)).div(PercentageDecimal) */\n      sstore\n        /* \"stETHPoolV1.sol\":20163:20192  getEpochDetails.first.claimed */\n      0x02\n      dup5\n      add\n        /* \"stETHPoolV1.sol\":20163:20200  getEpochDetails.first.claimed = false */\n      dup1\n      sload\n      not(0xff)\n      and\n      swap1\n      sstore\n        /* \"stETHPoolV1.sol\":20210:20232  getEpochDetails.second */\n      0x03\n      dup5\n      add\n        /* \"stETHPoolV1.sol\":20210:20254  getEpochDetails.second.winner = secondWinner */\n      dup1\n      sload\n      not(sub(shl(0xa0, 0x01), 0x01))\n      and\n      sub(shl(0xa0, 0x01), 0x01)\n      dup11\n      and\n      or\n      swap1\n      sstore\n        /* \"stETHPoolV1.sol\":20352:20369  PercentageDecimal */\n      sload(0x0c)\n        /* \"stETHPoolV1.sol\":20321:20345  AllocationPortion.second */\n      sload(0x0a)\n        /* \"stETHPoolV1.sol\":20301:20370  (realizedReward.mul(AllocationPortion.second)).div(PercentageDecimal) */\n      tag_296\n      swap2\n        /* \"stETHPoolV1.sol\":20352:20369  PercentageDecimal */\n      swap1\n        /* \"stETHPoolV1.sol\":20302:20346  realizedReward.mul(AllocationPortion.second) */\n      tag_293\n      swap1\n        /* \"stETHPoolV1.sol\":20302:20316  realizedReward */\n      dup5\n      swap1\n        /* \"stETHPoolV1.sol\":20302:20320  realizedReward.mul */\n      tag_294\n        /* \"stETHPoolV1.sol\":20302:20346  realizedReward.mul(AllocationPortion.second) */\n      jump\t// in\n        /* \"stETHPoolV1.sol\":20301:20370  (realizedReward.mul(AllocationPortion.second)).div(PercentageDecimal) */\n    tag_296:\n        /* \"stETHPoolV1.sol\":20264:20298  getEpochDetails.second.prizeAmount */\n      0x04\n      dup6\n      add\n        /* \"stETHPoolV1.sol\":20264:20370  getEpochDetails.second.prizeAmount = (realizedReward.mul(AllocationPortion.second)).div(PercentageDecimal) */\n      sstore\n        /* \"stETHPoolV1.sol\":20380:20410  getEpochDetails.second.claimed */\n      0x05\n      dup5\n      add\n        /* \"stETHPoolV1.sol\":20380:20418  getEpochDetails.second.claimed = false */\n      dup1\n      sload\n      not(0xff)\n      and\n      swap1\n      sstore\n        /* \"stETHPoolV1.sol\":20428:20449  getEpochDetails.third */\n      0x06\n      dup5\n      add\n        /* \"stETHPoolV1.sol\":20428:20470  getEpochDetails.third.winner = thirdWinner */\n      dup1\n      sload\n      not(sub(shl(0xa0, 0x01), 0x01))\n      and\n      sub(shl(0xa0, 0x01), 0x01)\n      dup10\n      and\n      or\n      swap1\n      sstore\n        /* \"stETHPoolV1.sol\":20566:20583  PercentageDecimal */\n      sload(0x0c)\n        /* \"stETHPoolV1.sol\":20536:20559  AllocationPortion.third */\n      sload(0x0b)\n        /* \"stETHPoolV1.sol\":20516:20584  (realizedReward.mul(AllocationPortion.third)).div(PercentageDecimal) */\n      tag_298\n      swap2\n        /* \"stETHPoolV1.sol\":20566:20583  PercentageDecimal */\n      swap1\n        /* \"stETHPoolV1.sol\":20517:20560  realizedReward.mul(AllocationPortion.third) */\n      tag_293\n      swap1\n        /* \"stETHPoolV1.sol\":20517:20531  realizedReward */\n      dup5\n      swap1\n        /* \"stETHPoolV1.sol\":20517:20535  realizedReward.mul */\n      tag_294\n        /* \"stETHPoolV1.sol\":20517:20560  realizedReward.mul(AllocationPortion.third) */\n      jump\t// in\n        /* \"stETHPoolV1.sol\":20516:20584  (realizedReward.mul(AllocationPortion.third)).div(PercentageDecimal) */\n    tag_298:\n        /* \"stETHPoolV1.sol\":20480:20513  getEpochDetails.third.prizeAmount */\n      0x07\n      dup6\n      add\n        /* \"stETHPoolV1.sol\":20480:20584  getEpochDetails.third.prizeAmount = (realizedReward.mul(AllocationPortion.third)).div(PercentageDecimal) */\n      sstore\n        /* \"stETHPoolV1.sol\":20594:20623  getEpochDetails.third.claimed */\n      0x08\n      dup5\n      add\n        /* \"stETHPoolV1.sol\":20594:20631  getEpochDetails.third.claimed = false */\n      dup1\n      sload\n      not(0xff)\n      and\n      swap1\n      sstore\n        /* \"stETHPoolV1.sol\":20668:20684  new address[](3) */\n      0x40\n      dup1\n      mload\n        /* \"stETHPoolV1.sol\":20682:20683  3 */\n      0x03\n        /* \"stETHPoolV1.sol\":20668:20684  new address[](3) */\n      dup1\n      dup3\n      mstore\n      0x80\n      dup3\n      add\n      swap1\n      swap3\n      mstore\n      0x00\n      swap2\n      0x20\n      dup3\n      add\n      0x60\n      dup1\n      calldatasize\n      dup4\n      calldatacopy\n      add\n      swap1\n      pop\n      pop\n        /* \"stETHPoolV1.sol\":20641:20684  address[] memory winners = new address[](3) */\n      swap1\n      pop\n        /* \"stETHPoolV1.sol\":20707:20718  firstWinner */\n      dup10\n        /* \"stETHPoolV1.sol\":20694:20701  winners */\n      dup2\n        /* \"stETHPoolV1.sol\":20702:20703  0 */\n      0x00\n        /* \"stETHPoolV1.sol\":20694:20704  winners[0] */\n      dup2\n      mload\n      dup2\n      lt\n      tag_305\n      jumpi\n      tag_305\n      tag_151\n      jump\t// in\n    tag_305:\n      0x20\n      mul\n      0x20\n      add\n      add\n        /* \"stETHPoolV1.sol\":20694:20718  winners[0] = firstWinner */\n      swap1\n      sub(shl(0xa0, 0x01), 0x01)\n      and\n      swap1\n      dup2\n      sub(shl(0xa0, 0x01), 0x01)\n      and\n      dup2\n      mstore\n      pop\n      pop\n        /* \"stETHPoolV1.sol\":20741:20753  secondWinner */\n      dup9\n        /* \"stETHPoolV1.sol\":20728:20735  winners */\n      dup2\n        /* \"stETHPoolV1.sol\":20736:20737  1 */\n      0x01\n        /* \"stETHPoolV1.sol\":20728:20738  winners[1] */\n      dup2\n      mload\n      dup2\n      lt\n      tag_307\n      jumpi\n      tag_307\n      tag_151\n      jump\t// in\n    tag_307:\n      0x20\n      mul\n      0x20\n      add\n      add\n        /* \"stETHPoolV1.sol\":20728:20753  winners[1] = secondWinner */\n      swap1\n      sub(shl(0xa0, 0x01), 0x01)\n      and\n      swap1\n      dup2\n      sub(shl(0xa0, 0x01), 0x01)\n      and\n      dup2\n      mstore\n      pop\n      pop\n        /* \"stETHPoolV1.sol\":20776:20787  thirdWinner */\n      dup8\n        /* \"stETHPoolV1.sol\":20763:20770  winners */\n      dup2\n        /* \"stETHPoolV1.sol\":20771:20772  2 */\n      0x02\n        /* \"stETHPoolV1.sol\":20763:20773  winners[2] */\n      dup2\n      mload\n      dup2\n      lt\n      tag_309\n      jumpi\n      tag_309\n      tag_151\n      jump\t// in\n    tag_309:\n      sub(shl(0xa0, 0x01), 0x01)\n        /* \"stETHPoolV1.sol\":20763:20787  winners[2] = thirdWinner */\n      swap3\n      swap1\n      swap3\n      and\n        /* \"stETHPoolV1.sol\":20763:20773  winners[2] */\n      0x20\n      swap3\n      dup4\n      mul\n      swap2\n      swap1\n      swap2\n      add\n      dup3\n      add\n        /* \"stETHPoolV1.sol\":20763:20787  winners[2] = thirdWinner */\n      mstore\n        /* \"stETHPoolV1.sol\":20829:20845  new uint256[](3) */\n      0x40\n      dup1\n      mload\n        /* \"stETHPoolV1.sol\":20843:20844  3 */\n      0x03\n        /* \"stETHPoolV1.sol\":20829:20845  new uint256[](3) */\n      dup1\n      dup3\n      mstore\n      0x80\n      dup3\n      add\n      swap1\n      swap3\n      mstore\n        /* \"stETHPoolV1.sol\":20797:20826  uint256[] memory PrizeinOrder */\n      0x00\n      swap3\n        /* \"stETHPoolV1.sol\":20829:20845  new uint256[](3) */\n      swap1\n      swap2\n        /* \"stETHPoolV1.sol\":20843:20844  3 */\n      swap1\n        /* \"stETHPoolV1.sol\":20829:20845  new uint256[](3) */\n      dup3\n      add\n      0x60\n      dup1\n      calldatasize\n      dup4\n      calldatacopy\n      add\n      swap1\n      pop\n      pop\n        /* \"stETHPoolV1.sol\":20797:20845  uint256[] memory PrizeinOrder = new uint256[](3) */\n      swap1\n      pop\n        /* \"stETHPoolV1.sol\":20873:20888  getEpochDetails */\n      dup6\n        /* \"stETHPoolV1.sol\":20873:20894  getEpochDetails.first */\n      0x00\n      add\n        /* \"stETHPoolV1.sol\":20873:20906  getEpochDetails.first.prizeAmount */\n      0x01\n      add\n      sload\n        /* \"stETHPoolV1.sol\":20855:20867  PrizeinOrder */\n      dup2\n        /* \"stETHPoolV1.sol\":20868:20869  0 */\n      0x00\n        /* \"stETHPoolV1.sol\":20855:20870  PrizeinOrder[0] */\n      dup2\n      mload\n      dup2\n      lt\n      tag_314\n      jumpi\n      tag_314\n      tag_151\n      jump\t// in\n    tag_314:\n      0x20\n      mul\n      0x20\n      add\n      add\n        /* \"stETHPoolV1.sol\":20855:20906  PrizeinOrder[0] = getEpochDetails.first.prizeAmount */\n      dup2\n      dup2\n      mstore\n      pop\n      pop\n        /* \"stETHPoolV1.sol\":20934:20949  getEpochDetails */\n      dup6\n        /* \"stETHPoolV1.sol\":20934:20956  getEpochDetails.second */\n      0x03\n      add\n        /* \"stETHPoolV1.sol\":20934:20968  getEpochDetails.second.prizeAmount */\n      0x01\n      add\n      sload\n        /* \"stETHPoolV1.sol\":20916:20928  PrizeinOrder */\n      dup2\n        /* \"stETHPoolV1.sol\":20929:20930  1 */\n      0x01\n        /* \"stETHPoolV1.sol\":20916:20931  PrizeinOrder[1] */\n      dup2\n      mload\n      dup2\n      lt\n      tag_316\n      jumpi\n      tag_316\n      tag_151\n      jump\t// in\n    tag_316:\n      0x20\n      mul\n      0x20\n      add\n      add\n        /* \"stETHPoolV1.sol\":20916:20968  PrizeinOrder[1] = getEpochDetails.second.prizeAmount */\n      dup2\n      dup2\n      mstore\n      pop\n      pop\n        /* \"stETHPoolV1.sol\":20996:21011  getEpochDetails */\n      dup6\n        /* \"stETHPoolV1.sol\":20996:21017  getEpochDetails.third */\n      0x06\n      add\n        /* \"stETHPoolV1.sol\":20996:21029  getEpochDetails.third.prizeAmount */\n      0x01\n      add\n      sload\n        /* \"stETHPoolV1.sol\":20978:20990  PrizeinOrder */\n      dup2\n        /* \"stETHPoolV1.sol\":20991:20992  2 */\n      0x02\n        /* \"stETHPoolV1.sol\":20978:20993  PrizeinOrder[2] */\n      dup2\n      mload\n      dup2\n      lt\n      tag_318\n      jumpi\n      tag_318\n      tag_151\n      jump\t// in\n    tag_318:\n      0x20\n      mul\n      0x20\n      add\n      add\n        /* \"stETHPoolV1.sol\":20978:21029  PrizeinOrder[2] = getEpochDetails.third.prizeAmount */\n      dup2\n      dup2\n      mstore\n      pop\n      pop\n        /* \"stETHPoolV1.sol\":21039:21092  setClaimableRewards(epochNumber,winners,PrizeinOrder) */\n      tag_319\n        /* \"stETHPoolV1.sol\":21059:21070  epochNumber */\n      dup13\n        /* \"stETHPoolV1.sol\":21071:21078  winners */\n      dup4\n        /* \"stETHPoolV1.sol\":21079:21091  PrizeinOrder */\n      dup4\n        /* \"stETHPoolV1.sol\":21039:21058  setClaimableRewards */\n      tag_320\n        /* \"stETHPoolV1.sol\":21039:21092  setClaimableRewards(epochNumber,winners,PrizeinOrder) */\n      jump\t// in\n    tag_319:\n        /* \"stETHPoolV1.sol\":19267:21099  {... */\n      pop\n      pop\n      pop\n      pop\n      pop\n      pop\n        /* \"stETHPoolV1.sol\":2998:3150  {... */\n      pop\n        /* \"stETHPoolV1.sol\":19109:21099  function finalizeEpoch(uint256 epochNumber, address firstWinner, address secondWinner, address thirdWinner, uint256 totalPrize) external onlyRewardDistributor{... */\n      pop\n      pop\n      pop\n      pop\n      pop\n      jump\t// out\n        /* \"stETHPoolV1.sol\":17388:17607  function getLatestEpoch() public view returns(uint256){... */\n    tag_95:\n        /* \"stETHPoolV1.sol\":17434:17441  uint256 */\n      0x00\n        /* \"stETHPoolV1.sol\":17452:17466  uint256 length */\n      dup1\n        /* \"stETHPoolV1.sol\":17469:17485  getEpochLength() */\n      tag_322\n        /* \"stETHPoolV1.sol\":17693:17705  EpochResults */\n      0x0d\n        /* \"stETHPoolV1.sol\":17693:17712  EpochResults.length */\n      sload\n      swap1\n        /* \"stETHPoolV1.sol\":17612:17742  function getEpochLength() public view returns(uint256){... */\n      jump\n        /* \"stETHPoolV1.sol\":17469:17485  getEpochLength() */\n    tag_322:\n        /* \"stETHPoolV1.sol\":17452:17485  uint256 length = getEpochLength() */\n      swap1\n      pop\n        /* \"stETHPoolV1.sol\":17512:17513  0 */\n      0x00\n        /* \"stETHPoolV1.sol\":17503:17509  length */\n      dup2\n        /* \"stETHPoolV1.sol\":17503:17513  length > 0 */\n      gt\n        /* \"stETHPoolV1.sol\":17495:17537  require(length > 0,\"Contract not started\") */\n      tag_323\n      jumpi\n      mload(0x40)\n      shl(0xe5, 0x461bcd)\n      dup2\n      mstore\n      0x04\n      add\n      tag_163\n      swap1\n      tag_173\n      jump\t// in\n    tag_323:\n        /* \"stETHPoolV1.sol\":17547:17561  uint256 result */\n      0x00\n        /* \"stETHPoolV1.sol\":17564:17577  length.sub(1) */\n      tag_325\n        /* \"stETHPoolV1.sol\":17564:17570  length */\n      dup3\n        /* \"stETHPoolV1.sol\":17575:17576  1 */\n      0x01\n        /* \"stETHPoolV1.sol\":17564:17574  length.sub */\n      tag_326\n        /* \"stETHPoolV1.sol\":17564:17577  length.sub(1) */\n      jump\t// in\n    tag_325:\n        /* \"stETHPoolV1.sol\":17547:17577  uint256 result = length.sub(1) */\n      swap4\n        /* \"stETHPoolV1.sol\":17388:17607  function getLatestEpoch() public view returns(uint256){... */\n      swap3\n      pop\n      pop\n      pop\n      jump\t// out\n        /* \"stETHPoolV1.sol\":13511:13855  function getAccumulatedTicketwithoutDecimal(uint256 epochNumber, address user) public view contractStarted validEpoch(epochNumber)returns(uint256){... */\n    tag_100:\n        /* \"stETHPoolV1.sol\":13649:13656  uint256 */\n      0x00\n        /* \"stETHPoolV1.sol\":2847:2866  uint256 epochLength */\n      dup1\n        /* \"stETHPoolV1.sol\":2869:2885  getEpochLength() */\n      tag_328\n        /* \"stETHPoolV1.sol\":17693:17705  EpochResults */\n      0x0d\n        /* \"stETHPoolV1.sol\":17693:17712  EpochResults.length */\n      sload\n      swap1\n        /* \"stETHPoolV1.sol\":17612:17742  function getEpochLength() public view returns(uint256){... */\n      jump\n        /* \"stETHPoolV1.sol\":2869:2885  getEpochLength() */\n    tag_328:\n        /* \"stETHPoolV1.sol\":2847:2885  uint256 epochLength = getEpochLength() */\n      swap1\n      pop\n        /* \"stETHPoolV1.sol\":2917:2918  0 */\n      0x00\n        /* \"stETHPoolV1.sol\":2903:2914  epochLength */\n      dup2\n        /* \"stETHPoolV1.sol\":2903:2918  epochLength > 0 */\n      gt\n        /* \"stETHPoolV1.sol\":2895:2943  require(epochLength > 0, \"Contract not started\") */\n      tag_329\n      jumpi\n      mload(0x40)\n      shl(0xe5, 0x461bcd)\n      dup2\n      mstore\n      0x04\n      add\n      tag_163\n      swap1\n      tag_173\n      jump\t// in\n    tag_329:\n        /* \"stETHPoolV1.sol\":13629:13640  epochNumber */\n      dup4\n        /* \"stETHPoolV1.sol\":2681:2700  uint256 latestEpoch */\n      0x00\n        /* \"stETHPoolV1.sol\":2703:2719  getLatestEpoch() */\n      tag_332\n        /* \"stETHPoolV1.sol\":2703:2717  getLatestEpoch */\n      tag_95\n        /* \"stETHPoolV1.sol\":2703:2719  getLatestEpoch() */\n      jump\t// in\n    tag_332:\n        /* \"stETHPoolV1.sol\":2681:2719  uint256 latestEpoch = getLatestEpoch() */\n      swap1\n      pop\n        /* \"stETHPoolV1.sol\":2752:2763  latestEpoch */\n      dup1\n        /* \"stETHPoolV1.sol\":2737:2748  epochNumber */\n      dup3\n        /* \"stETHPoolV1.sol\":2737:2763  epochNumber <= latestEpoch */\n      gt\n      iszero\n        /* \"stETHPoolV1.sol\":2729:2787  require(epochNumber <= latestEpoch,\"Invalid epoch number\") */\n      tag_333\n      jumpi\n      mload(0x40)\n      shl(0xe5, 0x461bcd)\n      dup2\n      mstore\n        /* \"#utility.yul\":9069:9071   */\n      0x20\n        /* \"stETHPoolV1.sol\":2729:2787  require(epochNumber <= latestEpoch,\"Invalid epoch number\") */\n      0x04\n      dup3\n      add\n        /* \"#utility.yul\":9051:9072   */\n      mstore\n        /* \"#utility.yul\":9108:9110   */\n      0x14\n        /* \"#utility.yul\":9088:9106   */\n      0x24\n      dup3\n      add\n        /* \"#utility.yul\":9081:9111   */\n      mstore\n      shl(0x61, 0x24b73b30b634b21032b837b1b410373ab6b132b9)\n        /* \"#utility.yul\":9127:9145   */\n      0x44\n      dup3\n      add\n        /* \"#utility.yul\":9120:9170   */\n      mstore\n        /* \"#utility.yul\":9187:9205   */\n      0x64\n      add\n        /* \"stETHPoolV1.sol\":2729:2787  require(epochNumber <= latestEpoch,\"Invalid epoch number\") */\n      tag_163\n        /* \"#utility.yul\":8867:9211   */\n      jump\n        /* \"stETHPoolV1.sol\":2729:2787  require(epochNumber <= latestEpoch,\"Invalid epoch number\") */\n    tag_333:\n      sub(shl(0xa0, 0x01), 0x01)\n        /* \"stETHPoolV1.sol\":13687:13699  userID[user] */\n      dup6\n      and\n        /* \"stETHPoolV1.sol\":13667:13684  uint256 userIDnow */\n      0x00\n        /* \"stETHPoolV1.sol\":13687:13699  userID[user] */\n      swap1\n      dup2\n      mstore\n        /* \"stETHPoolV1.sol\":13687:13693  userID */\n      0x03\n        /* \"stETHPoolV1.sol\":13687:13699  userID[user] */\n      0x20\n      mstore\n      0x40\n      dup2\n      keccak256\n      sload\n      swap1\n        /* \"stETHPoolV1.sol\":13717:13730  userIDnow !=0 */\n      dup2\n      swap1\n      sub\n        /* \"stETHPoolV1.sol\":13709:13757  require(userIDnow !=0, \"User hasn't registered\") */\n      tag_336\n      jumpi\n      mload(0x40)\n      shl(0xe5, 0x461bcd)\n      dup2\n      mstore\n      0x04\n      add\n      tag_163\n      swap1\n      tag_252\n      jump\t// in\n    tag_336:\n        /* \"stETHPoolV1.sol\":13767:13781  uint256 result */\n      0x00\n        /* \"stETHPoolV1.sol\":13784:13814  accumulatedTicket[epochNumber] */\n      dup8\n      dup2\n      mstore\n        /* \"stETHPoolV1.sol\":13784:13801  accumulatedTicket */\n      0x04\n        /* \"stETHPoolV1.sol\":13784:13814  accumulatedTicket[epochNumber] */\n      0x20\n      swap1\n      dup2\n      mstore\n      0x40\n      dup1\n      dup4\n      keccak256\n        /* \"stETHPoolV1.sol\":13784:13825  accumulatedTicket[epochNumber][userIDnow] */\n      swap4\n      dup4\n      mstore\n      swap3\n      swap1\n      mstore\n      keccak256\n      sload\n      swap4\n      pop\n        /* \"stETHPoolV1.sol\":2671:2805  {... */\n      pop\n        /* \"stETHPoolV1.sol\":2953:2954  _ */\n      pop\n        /* \"stETHPoolV1.sol\":2837:2961  {... */\n      pop\n        /* \"stETHPoolV1.sol\":13511:13855  function getAccumulatedTicketwithoutDecimal(uint256 epochNumber, address user) public view contractStarted validEpoch(epochNumber)returns(uint256){... */\n      swap3\n      swap2\n      pop\n      pop\n      jump\t// out\n        /* \"stETHPoolV1.sol\":13295:13506  function getUserDepositInfo(address user) public view returns(userInfo memory){... */\n    tag_108:\n        /* \"stETHPoolV1.sol\":13357:13372  userInfo memory */\n      tag_339\n      mload(0x40)\n      dup1\n      0x80\n      add\n      0x40\n      mstore\n      dup1\n      and(sub(shl(0xa0, 0x01), 0x01), 0x00)\n      dup2\n      mstore\n      0x20\n      add\n      0x00\n      dup2\n      mstore\n      0x20\n      add\n      0x00\n      dup2\n      mstore\n      0x20\n      add\n      0x00\n      dup2\n      mstore\n      pop\n      swap1\n      jump\n    tag_339:\n      pop\n      sub(shl(0xa0, 0x01), 0x01)\n        /* \"stETHPoolV1.sol\":13403:13415  userID[user] */\n      swap1\n      dup2\n      and\n        /* \"stETHPoolV1.sol\":13383:13400  uint256 userIDnow */\n      0x00\n        /* \"stETHPoolV1.sol\":13403:13415  userID[user] */\n      swap1\n      dup2\n      mstore\n        /* \"stETHPoolV1.sol\":13403:13409  userID */\n      0x03\n        /* \"stETHPoolV1.sol\":13403:13415  userID[user] */\n      0x20\n      dup2\n      dup2\n      mstore\n      0x40\n      dup1\n      dup5\n      keccak256\n      sload\n        /* \"stETHPoolV1.sol\":13450:13476  userDepositInfo[userIDnow] */\n      dup5\n      mstore\n        /* \"stETHPoolV1.sol\":13450:13465  userDepositInfo */\n      0x02\n        /* \"stETHPoolV1.sol\":13450:13476  userDepositInfo[userIDnow] */\n      dup1\n      dup4\n      mstore\n      swap4\n      dup2\n      swap1\n      keccak256\n        /* \"stETHPoolV1.sol\":13425:13476  userInfo memory result = userDepositInfo[userIDnow] */\n      dup2\n      mload\n      0x80\n      dup2\n      add\n      dup4\n      mstore\n      dup2\n      sload\n      swap1\n      swap7\n      and\n      dup7\n      mstore\n      0x01\n      dup2\n      add\n      sload\n      swap3\n      dup7\n      add\n      swap3\n      swap1\n      swap3\n      mstore\n      swap3\n      dup2\n      add\n      sload\n      swap3\n      dup5\n      add\n      swap3\n      swap1\n      swap3\n      mstore\n      add\n      sload\n      0x60\n      dup3\n      add\n      mstore\n      swap1\n        /* \"stETHPoolV1.sol\":13295:13506  function getUserDepositInfo(address user) public view returns(userInfo memory){... */\n      jump\t// out\n        /* \"stETHPoolV1.sol\":3796:4006  function initialize(address registryAddress) external{... */\n    tag_113:\n        /* \"stETHPoolV1.sol\":3867:3878  initialized */\n      sload(0x00)\n      shl(0xa0, 0x01)\n      swap1\n      div\n      0xff\n      and\n        /* \"stETHPoolV1.sol\":3867:3887  initialized == false */\n      iszero\n        /* \"stETHPoolV1.sol\":3859:3923  require(initialized == false, \"Contract is initialized already\") */\n      tag_343\n      jumpi\n      mload(0x40)\n      shl(0xe5, 0x461bcd)\n      dup2\n      mstore\n        /* \"#utility.yul\":10935:10937   */\n      0x20\n        /* \"stETHPoolV1.sol\":3859:3923  require(initialized == false, \"Contract is initialized already\") */\n      0x04\n      dup3\n      add\n        /* \"#utility.yul\":10917:10938   */\n      mstore\n        /* \"#utility.yul\":10974:10976   */\n      0x1f\n        /* \"#utility.yul\":10954:10972   */\n      0x24\n      dup3\n      add\n        /* \"#utility.yul\":10947:10977   */\n      mstore\n        /* \"#utility.yul\":11013:11046   */\n      0x436f6e747261637420697320696e697469616c697a656420616c726561647900\n        /* \"#utility.yul\":10993:11011   */\n      0x44\n      dup3\n      add\n        /* \"#utility.yul\":10986:11047   */\n      mstore\n        /* \"#utility.yul\":11064:11082   */\n      0x64\n      add\n        /* \"stETHPoolV1.sol\":3859:3923  require(initialized == false, \"Contract is initialized already\") */\n      tag_163\n        /* \"#utility.yul\":10733:11088   */\n      jump\n        /* \"stETHPoolV1.sol\":3859:3923  require(initialized == false, \"Contract is initialized already\") */\n    tag_343:\n        /* \"stETHPoolV1.sol\":3933:3971  _transferRegistryAddr(registryAddress) */\n      tag_346\n        /* \"stETHPoolV1.sol\":3955:3970  registryAddress */\n      dup2\n        /* \"stETHPoolV1.sol\":3933:3954  _transferRegistryAddr */\n      tag_347\n        /* \"stETHPoolV1.sol\":3933:3971  _transferRegistryAddr(registryAddress) */\n      jump\t// in\n    tag_346:\n      pop\n        /* \"stETHPoolV1.sol\":3981:3992  initialized */\n      0x00\n        /* \"stETHPoolV1.sol\":3981:3999  initialized = true */\n      dup1\n      sload\n      not(shl(0xa0, 0xff))\n      and\n      shl(0xa0, 0x01)\n      or\n      swap1\n      sstore\n        /* \"stETHPoolV1.sol\":3796:4006  function initialize(address registryAddress) external{... */\n      jump\t// out\n        /* \"stETHPoolV1.sol\":18317:18741  function setRewardRatio(uint256 firstP, uint256 secondP, uint256 thirdP, uint256 percentageSUM) external onlyController{... */\n    tag_117:\n        /* \"stETHPoolV1.sol\":3356:3368  address role */\n      0x00\n        /* \"stETHPoolV1.sol\":3385:3401  registryContract */\n      dup1\n      0x00\n      swap1\n      sload\n      swap1\n      0x0100\n      exp\n      swap1\n      div\n      sub(shl(0xa0, 0x01), 0x01)\n      and\n      sub(shl(0xa0, 0x01), 0x01)\n        /* \"stETHPoolV1.sol\":3371:3416  IRoleRegistry(registryContract).getController */\n      and\n      0x3018205f\n        /* \"stETHPoolV1.sol\":3371:3418  IRoleRegistry(registryContract).getController() */\n      mload(0x40)\n      dup2\n      0xffffffff\n      and\n      0xe0\n      shl\n      dup2\n      mstore\n      0x04\n      add\n      0x20\n      mload(0x40)\n      dup1\n      dup4\n      sub\n      dup2\n      dup7\n      gas\n      staticcall\n      iszero\n      dup1\n      iszero\n      tag_350\n      jumpi\n      returndatasize\n      0x00\n      dup1\n      returndatacopy\n      revert(0x00, returndatasize)\n    tag_350:\n      pop\n      pop\n      pop\n      pop\n      mload(0x40)\n      returndatasize\n      not(0x1f)\n      0x1f\n      dup3\n      add\n      and\n      dup3\n      add\n      dup1\n      0x40\n      mstore\n      pop\n      dup2\n      add\n      swap1\n      tag_351\n      swap2\n      swap1\n      tag_161\n      jump\t// in\n    tag_351:\n        /* \"stETHPoolV1.sol\":3356:3418  address role = IRoleRegistry(registryContract).getController() */\n      swap1\n      pop\n        /* \"stETHPoolV1.sol\":3436:3446  msg.sender */\n      caller\n      sub(shl(0xa0, 0x01), 0x01)\n        /* \"stETHPoolV1.sol\":3436:3454  msg.sender == role */\n      dup3\n      and\n      eq\n        /* \"stETHPoolV1.sol\":3428:3473  require(msg.sender == role, \"Invalid caller\") */\n      tag_352\n      jumpi\n      mload(0x40)\n      shl(0xe5, 0x461bcd)\n      dup2\n      mstore\n      0x04\n      add\n      tag_163\n      swap1\n      tag_164\n      jump\t// in\n    tag_352:\n        /* \"stETHPoolV1.sol\":18489:18502  percentageSUM */\n      dup2\n        /* \"stETHPoolV1.sol\":18454:18485  firstP.add(secondP).add(thirdP) */\n      tag_355\n        /* \"stETHPoolV1.sol\":18478:18484  thirdP */\n      dup5\n        /* \"stETHPoolV1.sol\":18454:18473  firstP.add(secondP) */\n      tag_356\n        /* \"stETHPoolV1.sol\":18454:18460  firstP */\n      dup9\n        /* \"stETHPoolV1.sol\":18465:18472  secondP */\n      dup9\n        /* \"stETHPoolV1.sol\":18454:18464  firstP.add */\n      tag_216\n        /* \"stETHPoolV1.sol\":18454:18473  firstP.add(secondP) */\n      jump\t// in\n    tag_356:\n        /* \"stETHPoolV1.sol\":18454:18477  firstP.add(secondP).add */\n      swap1\n      tag_216\n        /* \"stETHPoolV1.sol\":18454:18485  firstP.add(secondP).add(thirdP) */\n      jump\t// in\n    tag_355:\n        /* \"stETHPoolV1.sol\":18454:18502  firstP.add(secondP).add(thirdP) == percentageSUM */\n      eq\n        /* \"stETHPoolV1.sol\":18446:18503  require(firstP.add(secondP).add(thirdP) == percentageSUM) */\n      tag_357\n      jumpi\n      0x00\n      dup1\n      revert\n    tag_357:\n        /* \"stETHPoolV1.sol\":18513:18530  AllocationPortion */\n      0x09\n        /* \"stETHPoolV1.sol\":18513:18545  AllocationPortion.first = firstP */\n      dup6\n      swap1\n      sstore\n        /* \"stETHPoolV1.sol\":18555:18579  AllocationPortion.second */\n      0x0a\n        /* \"stETHPoolV1.sol\":18555:18589  AllocationPortion.second = secondP */\n      dup5\n      swap1\n      sstore\n        /* \"stETHPoolV1.sol\":18599:18622  AllocationPortion.third */\n      0x0b\n        /* \"stETHPoolV1.sol\":18599:18631  AllocationPortion.third = thirdP */\n      dup4\n      swap1\n      sstore\n        /* \"stETHPoolV1.sol\":18641:18658  PercentageDecimal */\n      0x0c\n        /* \"stETHPoolV1.sol\":18641:18674  PercentageDecimal = percentageSUM */\n      dup3\n      swap1\n      sstore\n        /* \"stETHPoolV1.sol\":18689:18734  rewardPortionUpdated(firstP, secondP, thirdP) */\n      0x40\n      dup1\n      mload\n        /* \"#utility.yul\":11295:11320   */\n      dup7\n      dup2\n      mstore\n        /* \"#utility.yul\":11351:11353   */\n      0x20\n        /* \"#utility.yul\":11336:11354   */\n      dup2\n      add\n        /* \"#utility.yul\":11329:11363   */\n      dup7\n      swap1\n      mstore\n        /* \"#utility.yul\":11379:11397   */\n      swap1\n      dup2\n      add\n        /* \"#utility.yul\":11372:11406   */\n      dup5\n      swap1\n      mstore\n        /* \"stETHPoolV1.sol\":18689:18734  rewardPortionUpdated(firstP, secondP, thirdP) */\n      0x276fb89d8224ffd75e667ef77aa3b75f5d7064a6dd5b8c9b9b8761b8b303a346\n      swap1\n        /* \"#utility.yul\":11283:11285   */\n      0x60\n        /* \"#utility.yul\":11268:11286   */\n      add\n        /* \"stETHPoolV1.sol\":18689:18734  rewardPortionUpdated(firstP, secondP, thirdP) */\n      mload(0x40)\n      dup1\n      swap2\n      sub\n      swap1\n      log1\n        /* \"stETHPoolV1.sol\":3346:3491  {... */\n      pop\n        /* \"stETHPoolV1.sol\":18317:18741  function setRewardRatio(uint256 firstP, uint256 secondP, uint256 thirdP, uint256 percentageSUM) external onlyController{... */\n      pop\n      pop\n      pop\n      pop\n      jump\t// out\n        /* \"stETHPoolV1.sol\":13860:17285  function getTicketAmount(uint256 epochNumber, address user) public view returns(uint256){... */\n    tag_127:\n        /* \"stETHPoolV1.sol\":13940:13947  uint256 */\n      0x00\n        /* \"stETHPoolV1.sol\":14049:14079  accumulatedTicket[epochNumber] */\n      dup3\n      dup2\n      mstore\n        /* \"stETHPoolV1.sol\":14049:14066  accumulatedTicket */\n      0x04\n        /* \"stETHPoolV1.sol\":14049:14079  accumulatedTicket[epochNumber] */\n      0x20\n      swap1\n      dup2\n      mstore\n      0x40\n      dup1\n      dup4\n      keccak256\n      sub(shl(0xa0, 0x01), 0x01)\n        /* \"stETHPoolV1.sol\":14080:14092  userID[user] */\n      dup6\n      and\n      dup5\n      mstore\n        /* \"stETHPoolV1.sol\":14080:14086  userID */\n      0x03\n        /* \"stETHPoolV1.sol\":14080:14092  userID[user] */\n      dup4\n      mstore\n      dup2\n      dup5\n      keccak256\n      sload\n        /* \"stETHPoolV1.sol\":14049:14093  accumulatedTicket[epochNumber][userID[user]] */\n      dup5\n      mstore\n      swap1\n      swap2\n      mstore\n      dup2\n      keccak256\n      sload\n        /* \"stETHPoolV1.sol\":14227:14239  EpochResults */\n      0x0d\n        /* \"stETHPoolV1.sol\":14227:14252  EpochResults[epochNumber] */\n      dup1\n      sload\n        /* \"stETHPoolV1.sol\":13940:13947  uint256 */\n      dup4\n      swap3\n      dup4\n      swap3\n        /* \"stETHPoolV1.sol\":14049:14093  accumulatedTicket[epochNumber][userID[user]] */\n      swap1\n      swap2\n        /* \"stETHPoolV1.sol\":13940:13947  uint256 */\n      dup4\n      swap2\n        /* \"stETHPoolV1.sol\":14227:14239  EpochResults */\n      swap1\n        /* \"stETHPoolV1.sol\":14067:14078  epochNumber */\n      dup9\n      swap1\n        /* \"stETHPoolV1.sol\":14227:14252  EpochResults[epochNumber] */\n      dup2\n      lt\n      tag_364\n      jumpi\n      tag_364\n      tag_151\n      jump\t// in\n    tag_364:\n      0x00\n      swap2\n      dup3\n      mstore\n      0x20\n      dup1\n      dup4\n      keccak256\n        /* \"stETHPoolV1.sol\":14196:14252  EpochResult memory epochInfo = EpochResults[epochNumber] */\n      0x40\n      dup1\n      mload\n      0x0160\n      dup2\n      add\n      dup3\n      mstore\n        /* \"stETHPoolV1.sol\":14227:14252  EpochResults[epochNumber] */\n      0x0e\n      swap1\n      swap5\n      mul\n      swap1\n      swap2\n      add\n        /* \"stETHPoolV1.sol\":14196:14252  EpochResult memory epochInfo = EpochResults[epochNumber] */\n      dup1\n      sload\n      sub(shl(0xa0, 0x01), 0x01)\n      swap1\n      dup2\n      and\n      0x0100\n      dup7\n      add\n      swap1\n      dup2\n      mstore\n      0x01\n      dup4\n      add\n      sload\n      0x0120\n      dup8\n      add\n      mstore\n      0x02\n      dup4\n      add\n      sload\n      0xff\n      swap1\n      dup2\n      and\n      iszero\n      iszero\n      0x0140\n      dup9\n      add\n      mstore\n      swap1\n      dup7\n      mstore\n      dup4\n      mload\n      0x60\n      dup2\n      dup2\n      add\n      dup7\n      mstore\n      0x03\n      dup6\n      add\n      sload\n      dup5\n      and\n      dup3\n      mstore\n      0x04\n      dup6\n      add\n      sload\n      dup3\n      dup9\n      add\n      mstore\n      0x05\n      dup6\n      add\n      sload\n      dup4\n      and\n      iszero\n      iszero\n      dup3\n      dup8\n      add\n      mstore\n      dup8\n      dup8\n      add\n      swap2\n      swap1\n      swap2\n      mstore\n      dup5\n      mload\n      dup1\n      dup3\n      add\n      dup7\n      mstore\n      0x06\n      dup6\n      add\n      sload\n      swap1\n      swap4\n      and\n      dup4\n      mstore\n      0x07\n      dup5\n      add\n      sload\n      swap6\n      dup4\n      add\n      swap6\n      swap1\n      swap6\n      mstore\n      0x08\n      dup4\n      add\n      sload\n      dup2\n      and\n      iszero\n      iszero\n      dup3\n      dup6\n      add\n      mstore\n      swap3\n      dup6\n      add\n      mstore\n      0x09\n      dup2\n      add\n      sload\n      swap1\n      swap2\n      and\n      iszero\n      iszero\n      swap2\n      dup4\n      add\n      swap2\n      swap1\n      swap2\n      mstore\n      0x0a\n      dup2\n      add\n      sload\n      0x80\n      dup4\n      add\n      mstore\n      0x0b\n      dup2\n      add\n      sload\n      0xa0\n      dup4\n      add\n      dup2\n      swap1\n      mstore\n      0x0c\n      dup3\n      add\n      sload\n      0xc0\n      dup5\n      add\n      dup2\n      swap1\n      mstore\n      0x0d\n      swap1\n      swap3\n      add\n      sload\n      0xe0\n      dup5\n      add\n      mstore\n      swap2\n      swap4\n      pop\n        /* \"stETHPoolV1.sol\":14286:14336  epochInfo.duration.add(epochInfo.createdTimeStamp) */\n      tag_366\n      swap2\n        /* \"stETHPoolV1.sol\":14196:14252  EpochResult memory epochInfo = EpochResults[epochNumber] */\n      swap1\n        /* \"stETHPoolV1.sol\":14286:14308  epochInfo.duration.add */\n      tag_216\n        /* \"stETHPoolV1.sol\":14286:14336  epochInfo.duration.add(epochInfo.createdTimeStamp) */\n      jump\t// in\n    tag_366:\n      sub(shl(0xa0, 0x01), 0x01)\n        /* \"stETHPoolV1.sol\":14366:14378  userID[user] */\n      dup9\n      and\n        /* \"stETHPoolV1.sol\":14346:14363  uint256 userIDnow */\n      0x00\n        /* \"stETHPoolV1.sol\":14366:14378  userID[user] */\n      swap1\n      dup2\n      mstore\n        /* \"stETHPoolV1.sol\":14366:14372  userID */\n      0x03\n        /* \"stETHPoolV1.sol\":14366:14378  userID[user] */\n      0x20\n      mstore\n      0x40\n      dup2\n      keccak256\n      sload\n        /* \"stETHPoolV1.sol\":14262:14336  uint256 epochEndBlock = epochInfo.duration.add(epochInfo.createdTimeStamp) */\n      swap2\n      swap3\n      pop\n        /* \"stETHPoolV1.sol\":14396:14409  userIDnow !=0 */\n      dup2\n      swap1\n      sub\n        /* \"stETHPoolV1.sol\":14388:14436  require(userIDnow !=0, \"User hasn't registered\") */\n      tag_367\n      jumpi\n      mload(0x40)\n      shl(0xe5, 0x461bcd)\n      dup2\n      mstore\n      0x04\n      add\n      tag_163\n      swap1\n      tag_252\n      jump\t// in\n    tag_367:\n        /* \"stETHPoolV1.sol\":14446:14479  uint256 userLatestUpdateTimeStamp */\n      0x00\n        /* \"stETHPoolV1.sol\":14482:14508  userDepositInfo[userIDnow] */\n      dup2\n      dup2\n      mstore\n        /* \"stETHPoolV1.sol\":14482:14497  userDepositInfo */\n      0x02\n        /* \"stETHPoolV1.sol\":14482:14508  userDepositInfo[userIDnow] */\n      0x20\n      dup2\n      swap1\n      mstore\n      0x40\n      swap1\n      swap2\n      keccak256\n        /* \"stETHPoolV1.sol\":14482:14520  userDepositInfo[userIDnow].Lastupdated */\n      0x03\n      dup2\n      add\n      sload\n        /* \"stETHPoolV1.sol\":14558:14598  userDepositInfo[userIDnow].DepositAmount */\n      0x01\n      dup3\n      add\n      sload\n        /* \"stETHPoolV1.sol\":14616:14657  userDepositInfo[userIDnow].registeredDate */\n      swap2\n      swap1\n      swap3\n      add\n      sload\n        /* \"stETHPoolV1.sol\":14616:14673  userDepositInfo[userIDnow].registeredDate < epochEndBlock */\n      dup5\n      gt\n        /* \"stETHPoolV1.sol\":14608:14716  require(userDepositInfo[userIDnow].registeredDate < epochEndBlock, \"User has not participated in the epoch\") */\n      tag_369\n      jumpi\n      mload(0x40)\n      shl(0xe5, 0x461bcd)\n      dup2\n      mstore\n        /* \"#utility.yul\":11619:11621   */\n      0x20\n        /* \"stETHPoolV1.sol\":14608:14716  require(userDepositInfo[userIDnow].registeredDate < epochEndBlock, \"User has not participated in the epoch\") */\n      0x04\n      dup3\n      add\n        /* \"#utility.yul\":11601:11622   */\n      mstore\n        /* \"#utility.yul\":11658:11660   */\n      0x26\n        /* \"#utility.yul\":11638:11656   */\n      0x24\n      dup3\n      add\n        /* \"#utility.yul\":11631:11661   */\n      mstore\n        /* \"#utility.yul\":11697:11731   */\n      0x5573657220686173206e6f742070617274696369706174656420696e20746865\n        /* \"#utility.yul\":11677:11695   */\n      0x44\n      dup3\n      add\n        /* \"#utility.yul\":11670:11732   */\n      mstore\n      shl(0xd3, 0x040cae0dec6d)\n        /* \"#utility.yul\":11748:11766   */\n      0x64\n      dup3\n      add\n        /* \"#utility.yul\":11741:11777   */\n      mstore\n        /* \"#utility.yul\":11794:11813   */\n      0x84\n      add\n        /* \"stETHPoolV1.sol\":14608:14716  require(userDepositInfo[userIDnow].registeredDate < epochEndBlock, \"User has not participated in the epoch\") */\n      tag_163\n        /* \"#utility.yul\":11417:11819   */\n      jump\n        /* \"stETHPoolV1.sol\":14608:14716  require(userDepositInfo[userIDnow].registeredDate < epochEndBlock, \"User has not participated in the epoch\") */\n    tag_369:\n        /* \"stETHPoolV1.sol\":14726:14778  userChangeHistory memory getUserBalanceChangeHistory */\n      0x00\n        /* \"stETHPoolV1.sol\":14781:14823  getBalanceChangeHistory(user, epochNumber) */\n      tag_372\n        /* \"stETHPoolV1.sol\":14805:14809  user */\n      dup12\n        /* \"stETHPoolV1.sol\":14811:14822  epochNumber */\n      dup14\n        /* \"stETHPoolV1.sol\":14781:14804  getBalanceChangeHistory */\n      tag_83\n        /* \"stETHPoolV1.sol\":14781:14823  getBalanceChangeHistory(user, epochNumber) */\n      jump\t// in\n    tag_372:\n        /* \"stETHPoolV1.sol\":14726:14823  userChangeHistory memory getUserBalanceChangeHistory = getBalanceChangeHistory(user, epochNumber) */\n      swap1\n      pop\n        /* \"stETHPoolV1.sol\":14855:14864  epochInfo */\n      dup6\n        /* \"stETHPoolV1.sol\":14855:14881  epochInfo.createdTimeStamp */\n      0xc0\n      add\n      mload\n        /* \"stETHPoolV1.sol\":14836:14851  block.timestamp */\n      timestamp\n        /* \"stETHPoolV1.sol\":14836:14881  block.timestamp >= epochInfo.createdTimeStamp */\n      lt\n      iszero\n        /* \"stETHPoolV1.sol\":14836:14917  block.timestamp >= epochInfo.createdTimeStamp && block.timestamp <= epochEndBlock */\n      dup1\n      iszero\n      tag_373\n      jumpi\n      pop\n        /* \"stETHPoolV1.sol\":14904:14917  epochEndBlock */\n      dup5\n        /* \"stETHPoolV1.sol\":14885:14900  block.timestamp */\n      timestamp\n        /* \"stETHPoolV1.sol\":14885:14917  block.timestamp <= epochEndBlock */\n      gt\n      iszero\n        /* \"stETHPoolV1.sol\":14836:14917  block.timestamp >= epochInfo.createdTimeStamp && block.timestamp <= epochEndBlock */\n    tag_373:\n        /* \"stETHPoolV1.sol\":14833:17228  if(block.timestamp >= epochInfo.createdTimeStamp && block.timestamp <= epochEndBlock){... */\n      iszero\n      tag_374\n      jumpi\n        /* \"stETHPoolV1.sol\":14964:14973  epochInfo */\n      dup6\n        /* \"stETHPoolV1.sol\":14964:14990  epochInfo.createdTimeStamp */\n      0xc0\n      add\n      mload\n        /* \"stETHPoolV1.sol\":14935:14960  userLatestUpdateTimeStamp */\n      dup4\n        /* \"stETHPoolV1.sol\":14935:14990  userLatestUpdateTimeStamp >= epochInfo.createdTimeStamp */\n      lt\n      iszero\n        /* \"stETHPoolV1.sol\":14935:15036  userLatestUpdateTimeStamp >= epochInfo.createdTimeStamp && userLatestUpdateTimeStamp <= epochEndBlock */\n      dup1\n      iszero\n      tag_375\n      jumpi\n      pop\n        /* \"stETHPoolV1.sol\":15023:15036  epochEndBlock */\n      dup5\n        /* \"stETHPoolV1.sol\":14994:15019  userLatestUpdateTimeStamp */\n      dup4\n        /* \"stETHPoolV1.sol\":14994:15036  userLatestUpdateTimeStamp <= epochEndBlock */\n      gt\n      iszero\n        /* \"stETHPoolV1.sol\":14935:15036  userLatestUpdateTimeStamp >= epochInfo.createdTimeStamp && userLatestUpdateTimeStamp <= epochEndBlock */\n    tag_375:\n        /* \"stETHPoolV1.sol\":14932:15366  if(userLatestUpdateTimeStamp >= epochInfo.createdTimeStamp && userLatestUpdateTimeStamp <= epochEndBlock){... */\n      iszero\n      tag_376\n      jumpi\n        /* \"stETHPoolV1.sol\":15077:15148  (block.timestamp.sub(userLatestUpdateTimeStamp)).mul(userDepositAmount) */\n      tag_377\n        /* \"stETHPoolV1.sol\":15130:15147  userDepositAmount */\n      dup3\n        /* \"stETHPoolV1.sol\":15078:15124  block.timestamp.sub(userLatestUpdateTimeStamp) */\n      tag_378\n        /* \"stETHPoolV1.sol\":15078:15093  block.timestamp */\n      timestamp\n        /* \"stETHPoolV1.sol\":15098:15123  userLatestUpdateTimeStamp */\n      dup7\n        /* \"stETHPoolV1.sol\":15078:15097  block.timestamp.sub */\n      tag_326\n        /* \"stETHPoolV1.sol\":15078:15124  block.timestamp.sub(userLatestUpdateTimeStamp) */\n      jump\t// in\n    tag_378:\n        /* \"stETHPoolV1.sol\":15077:15129  (block.timestamp.sub(userLatestUpdateTimeStamp)).mul */\n      swap1\n      tag_294\n        /* \"stETHPoolV1.sol\":15077:15148  (block.timestamp.sub(userLatestUpdateTimeStamp)).mul(userDepositAmount) */\n      jump\t// in\n    tag_377:\n        /* \"stETHPoolV1.sol\":15055:15148  PeriodTicketofUser =  (block.timestamp.sub(userLatestUpdateTimeStamp)).mul(userDepositAmount) */\n      swap8\n      pop\n        /* \"stETHPoolV1.sol\":14932:15366  if(userLatestUpdateTimeStamp >= epochInfo.createdTimeStamp && userLatestUpdateTimeStamp <= epochEndBlock){... */\n      jump(tag_380)\n    tag_376:\n        /* \"stETHPoolV1.sol\":15212:15221  epochInfo */\n      dup6\n        /* \"stETHPoolV1.sol\":15212:15238  epochInfo.createdTimeStamp */\n      0xc0\n      add\n      mload\n        /* \"stETHPoolV1.sol\":15184:15209  userLatestUpdateTimeStamp */\n      dup4\n        /* \"stETHPoolV1.sol\":15184:15238  userLatestUpdateTimeStamp < epochInfo.createdTimeStamp */\n      lt\n        /* \"stETHPoolV1.sol\":15181:15366  if(userLatestUpdateTimeStamp < epochInfo.createdTimeStamp){... */\n      iszero\n      tag_380\n      jumpi\n        /* \"stETHPoolV1.sol\":15279:15351  (block.timestamp.sub(epochInfo.createdTimeStamp)).mul(userDepositAmount) */\n      tag_381\n        /* \"stETHPoolV1.sol\":15333:15350  userDepositAmount */\n      dup3\n        /* \"stETHPoolV1.sol\":15280:15327  block.timestamp.sub(epochInfo.createdTimeStamp) */\n      tag_378\n        /* \"stETHPoolV1.sol\":15300:15309  epochInfo */\n      dup9\n        /* \"stETHPoolV1.sol\":15300:15326  epochInfo.createdTimeStamp */\n      0xc0\n      add\n      mload\n        /* \"stETHPoolV1.sol\":15280:15295  block.timestamp */\n      timestamp\n        /* \"stETHPoolV1.sol\":15280:15299  block.timestamp.sub */\n      tag_326\n      swap1\n        /* \"stETHPoolV1.sol\":15280:15327  block.timestamp.sub(epochInfo.createdTimeStamp) */\n      swap2\n      swap1\n      0xffffffff\n      and\n      jump\t// in\n        /* \"stETHPoolV1.sol\":15279:15351  (block.timestamp.sub(epochInfo.createdTimeStamp)).mul(userDepositAmount) */\n    tag_381:\n        /* \"stETHPoolV1.sol\":15257:15351  PeriodTicketofUser =  (block.timestamp.sub(epochInfo.createdTimeStamp)).mul(userDepositAmount) */\n      swap8\n      pop\n        /* \"stETHPoolV1.sol\":15181:15366  if(userLatestUpdateTimeStamp < epochInfo.createdTimeStamp){... */\n    tag_380:\n        /* \"stETHPoolV1.sol\":15388:15460  (accumulatedTicketnow.add(PeriodTicketofUser)).div((10**TICKET_DECIMAL)) */\n      tag_383\n        /* \"stETHPoolV1.sol\":15444:15458  TICKET_DECIMAL */\n      sload(0x11)\n        /* \"stETHPoolV1.sol\":15440:15442  10 */\n      0x0a\n        /* \"stETHPoolV1.sol\":15440:15458  10**TICKET_DECIMAL */\n      tag_384\n      swap2\n      swap1\n      tag_385\n      jump\t// in\n    tag_384:\n        /* \"stETHPoolV1.sol\":15389:15433  accumulatedTicketnow.add(PeriodTicketofUser) */\n      tag_293\n        /* \"stETHPoolV1.sol\":15389:15409  accumulatedTicketnow */\n      dup10\n        /* \"stETHPoolV1.sol\":15414:15432  PeriodTicketofUser */\n      dup12\n        /* \"stETHPoolV1.sol\":15389:15413  accumulatedTicketnow.add */\n      tag_216\n        /* \"stETHPoolV1.sol\":15389:15433  accumulatedTicketnow.add(PeriodTicketofUser) */\n      jump\t// in\n        /* \"stETHPoolV1.sol\":15388:15460  (accumulatedTicketnow.add(PeriodTicketofUser)).div((10**TICKET_DECIMAL)) */\n    tag_383:\n        /* \"stETHPoolV1.sol\":15379:15460  result = (accumulatedTicketnow.add(PeriodTicketofUser)).div((10**TICKET_DECIMAL)) */\n      swap10\n      pop\n        /* \"stETHPoolV1.sol\":15474:15487  return result */\n      tag_362\n      swap9\n      pop\n      pop\n      pop\n      pop\n      pop\n      pop\n      pop\n      pop\n      pop\n      jump\n        /* \"stETHPoolV1.sol\":14833:17228  if(block.timestamp >= epochInfo.createdTimeStamp && block.timestamp <= epochEndBlock){... */\n    tag_374:\n        /* \"stETHPoolV1.sol\":15533:15546  epochEndBlock */\n      dup5\n        /* \"stETHPoolV1.sol\":15515:15530  block.timestamp */\n      timestamp\n        /* \"stETHPoolV1.sol\":15515:15546  block.timestamp > epochEndBlock */\n      gt\n        /* \"stETHPoolV1.sol\":15512:17228  if(block.timestamp > epochEndBlock){ ... */\n      iszero\n      tag_406\n      jumpi\n        /* \"stETHPoolV1.sol\":15591:15600  epochInfo */\n      dup6\n        /* \"stETHPoolV1.sol\":15591:15617  epochInfo.createdTimeStamp */\n      0xc0\n      add\n      mload\n        /* \"stETHPoolV1.sol\":15565:15590  userLatestUpdateTimeStamp */\n      dup4\n        /* \"stETHPoolV1.sol\":15565:15617  userLatestUpdateTimeStamp<epochInfo.createdTimeStamp */\n      lt\n        /* \"stETHPoolV1.sol\":15562:17213  if(userLatestUpdateTimeStamp<epochInfo.createdTimeStamp){... */\n      iszero\n      tag_389\n      jumpi\n        /* \"stETHPoolV1.sol\":15645:15709  (epochDuration.mul(userDepositAmount)).div((10**TICKET_DECIMAL)) */\n      tag_383\n        /* \"stETHPoolV1.sol\":15693:15707  TICKET_DECIMAL */\n      sload(0x11)\n        /* \"stETHPoolV1.sol\":15689:15691  10 */\n      0x0a\n        /* \"stETHPoolV1.sol\":15689:15707  10**TICKET_DECIMAL */\n      tag_391\n      swap2\n      swap1\n      tag_385\n      jump\t// in\n    tag_391:\n        /* \"stETHPoolV1.sol\":15646:15659  epochDuration */\n      sload(0x0e)\n        /* \"stETHPoolV1.sol\":15646:15682  epochDuration.mul(userDepositAmount) */\n      tag_293\n      swap1\n        /* \"stETHPoolV1.sol\":15664:15681  userDepositAmount */\n      dup6\n        /* \"stETHPoolV1.sol\":15646:15663  epochDuration.mul */\n      tag_294\n        /* \"stETHPoolV1.sol\":15646:15682  epochDuration.mul(userDepositAmount) */\n      jump\t// in\n        /* \"stETHPoolV1.sol\":15562:17213  if(userLatestUpdateTimeStamp<epochInfo.createdTimeStamp){... */\n    tag_389:\n        /* \"stETHPoolV1.sol\":15793:15839  getUserBalanceChangeHistory.changedwithinEpoch */\n      dup1\n      mload\n        /* \"stETHPoolV1.sol\":15790:17199  if(getUserBalanceChangeHistory.changedwithinEpoch){ ... */\n      iszero\n      tag_394\n      jumpi\n        /* \"stETHPoolV1.sol\":15883:15923  getUserBalanceChangeHistory.historyArray */\n      0x20\n      dup2\n      add\n      mload\n        /* \"stETHPoolV1.sol\":15883:15930  getUserBalanceChangeHistory.historyArray.length */\n      mload\n        /* \"stETHPoolV1.sol\":15859:15880  uint256 historyLatest */\n      0x00\n      swap1\n        /* \"stETHPoolV1.sol\":15883:15937  getUserBalanceChangeHistory.historyArray.length.sub(1) */\n      tag_395\n      swap1\n        /* \"stETHPoolV1.sol\":15935:15936  1 */\n      0x01\n        /* \"stETHPoolV1.sol\":15883:15934  getUserBalanceChangeHistory.historyArray.length.sub */\n      tag_326\n        /* \"stETHPoolV1.sol\":15883:15937  getUserBalanceChangeHistory.historyArray.length.sub(1) */\n      jump\t// in\n    tag_395:\n        /* \"stETHPoolV1.sol\":15859:15937  uint256 historyLatest = getUserBalanceChangeHistory.historyArray.length.sub(1) */\n      swap1\n      pop\n        /* \"stETHPoolV1.sol\":15955:15981  uint256 latestBlockupdated */\n      0x00\n        /* \"stETHPoolV1.sol\":15984:16011  getUserBalanceChangeHistory */\n      dup3\n        /* \"stETHPoolV1.sol\":15984:16024  getUserBalanceChangeHistory.historyArray */\n      0x20\n      add\n      mload\n        /* \"stETHPoolV1.sol\":16025:16038  historyLatest */\n      dup3\n        /* \"stETHPoolV1.sol\":15984:16039  getUserBalanceChangeHistory.historyArray[historyLatest] */\n      dup2\n      mload\n      dup2\n      lt\n      tag_397\n      jumpi\n      tag_397\n      tag_151\n      jump\t// in\n    tag_397:\n      0x20\n      mul\n      0x20\n      add\n      add\n      mload\n        /* \"stETHPoolV1.sol\":15984:16052  getUserBalanceChangeHistory.historyArray[historyLatest].updatedBlock */\n      0x40\n      add\n      mload\n        /* \"stETHPoolV1.sol\":15955:16052  uint256 latestBlockupdated = getUserBalanceChangeHistory.historyArray[historyLatest].updatedBlock */\n      swap1\n      pop\n        /* \"stETHPoolV1.sol\":16070:16092  uint256 notAccumulated */\n      0x00\n        /* \"stETHPoolV1.sol\":16095:16205  (epochEndBlock.sub(latestBlockupdated)).mul(getUserBalanceChangeHistory.historyArray[historyLatest].newAmount) */\n      tag_398\n        /* \"stETHPoolV1.sol\":16139:16166  getUserBalanceChangeHistory */\n      dup5\n        /* \"stETHPoolV1.sol\":16139:16179  getUserBalanceChangeHistory.historyArray */\n      0x20\n      add\n      mload\n        /* \"stETHPoolV1.sol\":16180:16193  historyLatest */\n      dup5\n        /* \"stETHPoolV1.sol\":16139:16194  getUserBalanceChangeHistory.historyArray[historyLatest] */\n      dup2\n      mload\n      dup2\n      lt\n      tag_400\n      jumpi\n      tag_400\n      tag_151\n      jump\t// in\n    tag_400:\n      0x20\n      mul\n      0x20\n      add\n      add\n      mload\n        /* \"stETHPoolV1.sol\":16139:16204  getUserBalanceChangeHistory.historyArray[historyLatest].newAmount */\n      0x20\n      add\n      mload\n        /* \"stETHPoolV1.sol\":16096:16133  epochEndBlock.sub(latestBlockupdated) */\n      tag_378\n        /* \"stETHPoolV1.sol\":16114:16132  latestBlockupdated */\n      dup5\n        /* \"stETHPoolV1.sol\":16096:16109  epochEndBlock */\n      dup12\n        /* \"stETHPoolV1.sol\":16096:16113  epochEndBlock.sub */\n      tag_326\n      swap1\n        /* \"stETHPoolV1.sol\":16096:16133  epochEndBlock.sub(latestBlockupdated) */\n      swap2\n      swap1\n      0xffffffff\n      and\n      jump\t// in\n        /* \"stETHPoolV1.sol\":16095:16205  (epochEndBlock.sub(latestBlockupdated)).mul(getUserBalanceChangeHistory.historyArray[historyLatest].newAmount) */\n    tag_398:\n        /* \"stETHPoolV1.sol\":16070:16205  uint256 notAccumulated = (epochEndBlock.sub(latestBlockupdated)).mul(getUserBalanceChangeHistory.historyArray[historyLatest].newAmount) */\n      swap1\n      pop\n        /* \"stETHPoolV1.sol\":16232:16300  (accumulatedTicketnow.add(notAccumulated)).div((10**TICKET_DECIMAL)) */\n      tag_402\n        /* \"stETHPoolV1.sol\":16284:16298  TICKET_DECIMAL */\n      sload(0x11)\n        /* \"stETHPoolV1.sol\":16280:16282  10 */\n      0x0a\n        /* \"stETHPoolV1.sol\":16280:16298  10**TICKET_DECIMAL */\n      tag_403\n      swap2\n      swap1\n      tag_385\n      jump\t// in\n    tag_403:\n        /* \"stETHPoolV1.sol\":16233:16273  accumulatedTicketnow.add(notAccumulated) */\n      tag_293\n        /* \"stETHPoolV1.sol\":16233:16253  accumulatedTicketnow */\n      dup13\n        /* \"stETHPoolV1.sol\":16258:16272  notAccumulated */\n      dup5\n        /* \"stETHPoolV1.sol\":16233:16257  accumulatedTicketnow.add */\n      tag_216\n        /* \"stETHPoolV1.sol\":16233:16273  accumulatedTicketnow.add(notAccumulated) */\n      jump\t// in\n        /* \"stETHPoolV1.sol\":16232:16300  (accumulatedTicketnow.add(notAccumulated)).div((10**TICKET_DECIMAL)) */\n    tag_402:\n        /* \"stETHPoolV1.sol\":16223:16300  result = (accumulatedTicketnow.add(notAccumulated)).div((10**TICKET_DECIMAL)) */\n      swap13\n      pop\n        /* \"stETHPoolV1.sol\":16318:16331  return result */\n      tag_362\n      swap12\n      pop\n      pop\n      pop\n      pop\n      pop\n      pop\n      pop\n      pop\n      pop\n      pop\n      pop\n      pop\n      jump\n        /* \"stETHPoolV1.sol\":15790:17199  if(getUserBalanceChangeHistory.changedwithinEpoch){ ... */\n    tag_394:\n        /* \"stETHPoolV1.sol\":16367:16413  getUserBalanceChangeHistory.changedwithinEpoch */\n      dup1\n      mload\n        /* \"stETHPoolV1.sol\":16367:16422  getUserBalanceChangeHistory.changedwithinEpoch == false */\n      iszero\n      iszero\n        /* \"stETHPoolV1.sol\":16367:16413  getUserBalanceChangeHistory.changedwithinEpoch */\n      0x00\n        /* \"stETHPoolV1.sol\":16367:16422  getUserBalanceChangeHistory.changedwithinEpoch == false */\n      sub\n        /* \"stETHPoolV1.sol\":16364:17199  if(getUserBalanceChangeHistory.changedwithinEpoch == false){ ... */\n      tag_406\n      jumpi\n        /* \"stETHPoolV1.sol\":16442:16458  uint256 epochvar */\n      0x00\n        /* \"stETHPoolV1.sol\":16461:16479  epochNumber.sub(1) */\n      tag_407\n        /* \"stETHPoolV1.sol\":16461:16472  epochNumber */\n      dup14\n        /* \"stETHPoolV1.sol\":16477:16478  1 */\n      0x01\n        /* \"stETHPoolV1.sol\":16461:16476  epochNumber.sub */\n      tag_326\n        /* \"stETHPoolV1.sol\":16461:16479  epochNumber.sub(1) */\n      jump\t// in\n    tag_407:\n        /* \"stETHPoolV1.sol\":16442:16479  uint256 epochvar = epochNumber.sub(1) */\n      swap1\n      pop\n        /* \"stETHPoolV1.sol\":16501:16507  uint i */\n      0x00\n        /* \"stETHPoolV1.sol\":16497:17154  for(uint i=0;i<epochNumber;i++){... */\n    tag_408:\n        /* \"stETHPoolV1.sol\":16512:16523  epochNumber */\n      dup14\n        /* \"stETHPoolV1.sol\":16510:16511  i */\n      dup2\n        /* \"stETHPoolV1.sol\":16510:16523  i<epochNumber */\n      lt\n        /* \"stETHPoolV1.sol\":16497:17154  for(uint i=0;i<epochNumber;i++){... */\n      iszero\n      tag_409\n      jumpi\n        /* \"stETHPoolV1.sol\":16550:16605  userChangeHistory memory getUserBalanceChangeHistoryVar */\n      0x00\n        /* \"stETHPoolV1.sol\":16608:16647  getBalanceChangeHistory(user, epochvar) */\n      tag_411\n        /* \"stETHPoolV1.sol\":16632:16636  user */\n      dup15\n        /* \"stETHPoolV1.sol\":16638:16646  epochvar */\n      dup5\n        /* \"stETHPoolV1.sol\":16608:16631  getBalanceChangeHistory */\n      tag_83\n        /* \"stETHPoolV1.sol\":16608:16647  getBalanceChangeHistory(user, epochvar) */\n      jump\t// in\n    tag_411:\n        /* \"stETHPoolV1.sol\":16672:16721  getUserBalanceChangeHistoryVar.changedwithinEpoch */\n      dup1\n      mload\n        /* \"stETHPoolV1.sol\":16550:16647  userChangeHistory memory getUserBalanceChangeHistoryVar = getBalanceChangeHistory(user, epochvar) */\n      swap1\n      swap2\n      pop\n        /* \"stETHPoolV1.sol\":16669:17101  if(getUserBalanceChangeHistoryVar.changedwithinEpoch){... */\n      iszero\n      tag_412\n      jumpi\n        /* \"stETHPoolV1.sol\":16772:16815  getUserBalanceChangeHistoryVar.historyArray */\n      0x20\n      dup2\n      add\n      mload\n        /* \"stETHPoolV1.sol\":16772:16822  getUserBalanceChangeHistoryVar.historyArray.length */\n      mload\n        /* \"stETHPoolV1.sol\":16748:16769  uint256 historyLatest */\n      0x00\n      swap1\n        /* \"stETHPoolV1.sol\":16772:16829  getUserBalanceChangeHistoryVar.historyArray.length.sub(1) */\n      tag_413\n      swap1\n        /* \"stETHPoolV1.sol\":16827:16828  1 */\n      0x01\n        /* \"stETHPoolV1.sol\":16772:16826  getUserBalanceChangeHistoryVar.historyArray.length.sub */\n      tag_326\n        /* \"stETHPoolV1.sol\":16772:16829  getUserBalanceChangeHistoryVar.historyArray.length.sub(1) */\n      jump\t// in\n    tag_413:\n        /* \"stETHPoolV1.sol\":16748:16829  uint256 historyLatest = getUserBalanceChangeHistoryVar.historyArray.length.sub(1) */\n      swap1\n      pop\n        /* \"stETHPoolV1.sol\":16855:16877  uint256 notAccumulated */\n      0x00\n        /* \"stETHPoolV1.sol\":16880:16972  epochInfo.duration.mul(getUserBalanceChangeHistoryVar.historyArray[historyLatest].newAmount) */\n      tag_414\n        /* \"stETHPoolV1.sol\":16903:16933  getUserBalanceChangeHistoryVar */\n      dup4\n        /* \"stETHPoolV1.sol\":16903:16946  getUserBalanceChangeHistoryVar.historyArray */\n      0x20\n      add\n      mload\n        /* \"stETHPoolV1.sol\":16947:16960  historyLatest */\n      dup4\n        /* \"stETHPoolV1.sol\":16903:16961  getUserBalanceChangeHistoryVar.historyArray[historyLatest] */\n      dup2\n      mload\n      dup2\n      lt\n      tag_416\n      jumpi\n      tag_416\n      tag_151\n      jump\t// in\n    tag_416:\n      0x20\n      mul\n      0x20\n      add\n      add\n      mload\n        /* \"stETHPoolV1.sol\":16903:16971  getUserBalanceChangeHistoryVar.historyArray[historyLatest].newAmount */\n      0x20\n      add\n      mload\n        /* \"stETHPoolV1.sol\":16880:16889  epochInfo */\n      dup13\n        /* \"stETHPoolV1.sol\":16880:16898  epochInfo.duration */\n      0xa0\n      add\n      mload\n        /* \"stETHPoolV1.sol\":16880:16902  epochInfo.duration.mul */\n      tag_294\n      swap1\n        /* \"stETHPoolV1.sol\":16880:16972  epochInfo.duration.mul(getUserBalanceChangeHistoryVar.historyArray[historyLatest].newAmount) */\n      swap2\n      swap1\n      0xffffffff\n      and\n      jump\t// in\n    tag_414:\n        /* \"stETHPoolV1.sol\":16855:16972  uint256 notAccumulated = epochInfo.duration.mul(getUserBalanceChangeHistoryVar.historyArray[historyLatest].newAmount) */\n      swap1\n      pop\n        /* \"stETHPoolV1.sol\":17007:17047  notAccumulated.div((10**TICKET_DECIMAL)) */\n      tag_417\n        /* \"stETHPoolV1.sol\":17031:17045  TICKET_DECIMAL */\n      sload(0x11)\n        /* \"stETHPoolV1.sol\":17027:17029  10 */\n      0x0a\n        /* \"stETHPoolV1.sol\":17027:17045  10**TICKET_DECIMAL */\n      tag_418\n      swap2\n      swap1\n      tag_385\n      jump\t// in\n    tag_418:\n        /* \"stETHPoolV1.sol\":17007:17021  notAccumulated */\n      dup3\n      swap1\n        /* \"stETHPoolV1.sol\":17007:17025  notAccumulated.div */\n      tag_295\n        /* \"stETHPoolV1.sol\":17007:17047  notAccumulated.div((10**TICKET_DECIMAL)) */\n      jump\t// in\n    tag_417:\n        /* \"stETHPoolV1.sol\":16998:17047  result = notAccumulated.div((10**TICKET_DECIMAL)) */\n      swap14\n      pop\n        /* \"stETHPoolV1.sol\":17073:17078  break */\n      pop\n      pop\n      pop\n      jump(tag_409)\n        /* \"stETHPoolV1.sol\":16669:17101  if(getUserBalanceChangeHistoryVar.changedwithinEpoch){... */\n    tag_412:\n        /* \"stETHPoolV1.sol\":17122:17135  epochvar -= 1 */\n      tag_419\n        /* \"stETHPoolV1.sol\":17134:17135  1 */\n      0x01\n        /* \"stETHPoolV1.sol\":17122:17135  epochvar -= 1 */\n      dup5\n      tag_420\n      jump\t// in\n    tag_419:\n      swap3\n      pop\n        /* \"stETHPoolV1.sol\":16528:17154  {... */\n      pop\n        /* \"stETHPoolV1.sol\":16524:16527  i++ */\n      dup1\n      dup1\n      tag_421\n      swap1\n      tag_199\n      jump\t// in\n    tag_421:\n      swap2\n      pop\n      pop\n        /* \"stETHPoolV1.sol\":16497:17154  for(uint i=0;i<epochNumber;i++){... */\n      jump(tag_408)\n    tag_409:\n      pop\n        /* \"stETHPoolV1.sol\":17178:17184  result */\n      dup10\n        /* \"stETHPoolV1.sol\":17171:17184  return result */\n      swap11\n      pop\n      pop\n      pop\n      pop\n      pop\n      pop\n      pop\n      pop\n      pop\n      pop\n      pop\n      jump(tag_362)\n        /* \"stETHPoolV1.sol\":16364:17199  if(getUserBalanceChangeHistory.changedwithinEpoch == false){ ... */\n    tag_406:\n      pop\n        /* \"stETHPoolV1.sol\":17250:17251  0 */\n      0x00\n      swap9\n      pop\n      pop\n      pop\n      pop\n      pop\n      pop\n      pop\n      pop\n      pop\n        /* \"stETHPoolV1.sol\":13860:17285  function getTicketAmount(uint256 epochNumber, address user) public view returns(uint256){... */\n    tag_362:\n      swap3\n      swap2\n      pop\n      pop\n      jump\t// out\n        /* \"stETHPoolV1.sol\":4711:4947  function withdrawFor(address user, uint256 amount) external onlyRouter nonReentrant contractStarted{... */\n    tag_131:\n        /* \"stETHPoolV1.sol\":3528:3540  address role */\n      0x00\n        /* \"stETHPoolV1.sol\":3557:3573  registryContract */\n      dup1\n      0x00\n      swap1\n      sload\n      swap1\n      0x0100\n      exp\n      swap1\n      div\n      sub(shl(0xa0, 0x01), 0x01)\n      and\n      sub(shl(0xa0, 0x01), 0x01)\n        /* \"stETHPoolV1.sol\":3543:3584  IRoleRegistry(registryContract).getRouter */\n      and\n      0xb0f479a1\n        /* \"stETHPoolV1.sol\":3543:3586  IRoleRegistry(registryContract).getRouter() */\n      mload(0x40)\n      dup2\n      0xffffffff\n      and\n      0xe0\n      shl\n      dup2\n      mstore\n      0x04\n      add\n      0x20\n      mload(0x40)\n      dup1\n      dup4\n      sub\n      dup2\n      dup7\n      gas\n      staticcall\n      iszero\n      dup1\n      iszero\n      tag_424\n      jumpi\n      returndatasize\n      0x00\n      dup1\n      returndatacopy\n      revert(0x00, returndatasize)\n    tag_424:\n      pop\n      pop\n      pop\n      pop\n      mload(0x40)\n      returndatasize\n      not(0x1f)\n      0x1f\n      dup3\n      add\n      and\n      dup3\n      add\n      dup1\n      0x40\n      mstore\n      pop\n      dup2\n      add\n      swap1\n      tag_425\n      swap2\n      swap1\n      tag_161\n      jump\t// in\n    tag_425:\n        /* \"stETHPoolV1.sol\":3528:3586  address role = IRoleRegistry(registryContract).getRouter() */\n      swap1\n      pop\n        /* \"stETHPoolV1.sol\":3604:3614  msg.sender */\n      caller\n      sub(shl(0xa0, 0x01), 0x01)\n        /* \"stETHPoolV1.sol\":3604:3622  msg.sender == role */\n      dup3\n      and\n      eq\n        /* \"stETHPoolV1.sol\":3596:3641  require(msg.sender == role, \"Invalid caller\") */\n      tag_426\n      jumpi\n      mload(0x40)\n      shl(0xe5, 0x461bcd)\n      dup2\n      mstore\n      0x04\n      add\n      tag_163\n      swap1\n      tag_164\n      jump\t// in\n    tag_426:\n        /* \"stETHPoolV1.sol\":3705:3711  status */\n      sload(0x07)\n        /* \"stETHPoolV1.sol\":3705:3716  status == 0 */\n      iszero\n        /* \"stETHPoolV1.sol\":3697:3733  require(status == 0, \"Illegal call\") */\n      tag_429\n      jumpi\n      mload(0x40)\n      shl(0xe5, 0x461bcd)\n      dup2\n      mstore\n      0x04\n      add\n      tag_163\n      swap1\n      tag_168\n      jump\t// in\n    tag_429:\n        /* \"stETHPoolV1.sol\":3752:3753  1 */\n      0x01\n        /* \"stETHPoolV1.sol\":3743:3749  status */\n      0x07\n        /* \"stETHPoolV1.sol\":3743:3753  status = 1 */\n      sstore\n        /* \"stETHPoolV1.sol\":2847:2866  uint256 epochLength */\n      0x00\n        /* \"stETHPoolV1.sol\":2869:2885  getEpochLength() */\n      tag_432\n        /* \"stETHPoolV1.sol\":17693:17705  EpochResults */\n      0x0d\n        /* \"stETHPoolV1.sol\":17693:17712  EpochResults.length */\n      sload\n      swap1\n        /* \"stETHPoolV1.sol\":17612:17742  function getEpochLength() public view returns(uint256){... */\n      jump\n        /* \"stETHPoolV1.sol\":2869:2885  getEpochLength() */\n    tag_432:\n        /* \"stETHPoolV1.sol\":2847:2885  uint256 epochLength = getEpochLength() */\n      swap1\n      pop\n        /* \"stETHPoolV1.sol\":2917:2918  0 */\n      0x00\n        /* \"stETHPoolV1.sol\":2903:2914  epochLength */\n      dup2\n        /* \"stETHPoolV1.sol\":2903:2918  epochLength > 0 */\n      gt\n        /* \"stETHPoolV1.sol\":2895:2943  require(epochLength > 0, \"Contract not started\") */\n      tag_433\n      jumpi\n      mload(0x40)\n      shl(0xe5, 0x461bcd)\n      dup2\n      mstore\n      0x04\n      add\n      tag_163\n      swap1\n      tag_173\n      jump\t// in\n    tag_433:\n        /* \"stETHPoolV1.sol\":4837:4838  0 */\n      0x00\n        /* \"stETHPoolV1.sol\":4828:4834  amount */\n      dup4\n        /* \"stETHPoolV1.sol\":4828:4838  amount > 0 */\n      gt\n        /* \"stETHPoolV1.sol\":4820:4857  require(amount > 0, \"Invalid amount\") */\n      tag_436\n      jumpi\n      mload(0x40)\n      shl(0xe5, 0x461bcd)\n      dup2\n      mstore\n        /* \"#utility.yul\":13533:13535   */\n      0x20\n        /* \"stETHPoolV1.sol\":4820:4857  require(amount > 0, \"Invalid amount\") */\n      0x04\n      dup3\n      add\n        /* \"#utility.yul\":13515:13536   */\n      mstore\n        /* \"#utility.yul\":13572:13574   */\n      0x0e\n        /* \"#utility.yul\":13552:13570   */\n      0x24\n      dup3\n      add\n        /* \"#utility.yul\":13545:13575   */\n      mstore\n      shl(0x92, 0x125b9d985b1a5908185b5bdd5b9d)\n        /* \"#utility.yul\":13591:13609   */\n      0x44\n      dup3\n      add\n        /* \"#utility.yul\":13584:13628   */\n      mstore\n        /* \"#utility.yul\":13645:13663   */\n      0x64\n      add\n        /* \"stETHPoolV1.sol\":4820:4857  require(amount > 0, \"Invalid amount\") */\n      tag_163\n        /* \"#utility.yul\":13331:13669   */\n      jump\n        /* \"stETHPoolV1.sol\":4820:4857  require(amount > 0, \"Invalid amount\") */\n    tag_436:\n        /* \"stETHPoolV1.sol\":4867:4902  updateUserInfo(user, amount, false) */\n      tag_439\n        /* \"stETHPoolV1.sol\":4882:4886  user */\n      dup5\n        /* \"stETHPoolV1.sol\":4888:4894  amount */\n      dup5\n        /* \"stETHPoolV1.sol\":4896:4901  false */\n      0x00\n        /* \"stETHPoolV1.sol\":4867:4881  updateUserInfo */\n      tag_236\n        /* \"stETHPoolV1.sol\":4867:4902  updateUserInfo(user, amount, false) */\n      jump\t// in\n    tag_439:\n        /* \"stETHPoolV1.sol\":4912:4940  sendTokenToMsgsender(amount) */\n      tag_440\n        /* \"stETHPoolV1.sol\":4933:4939  amount */\n      dup4\n        /* \"stETHPoolV1.sol\":4912:4932  sendTokenToMsgsender */\n      tag_441\n        /* \"stETHPoolV1.sol\":4912:4940  sendTokenToMsgsender(amount) */\n      jump\t// in\n    tag_440:\n      pop\n      pop\n        /* \"stETHPoolV1.sol\":3783:3784  0 */\n      0x00\n        /* \"stETHPoolV1.sol\":3774:3780  status */\n      0x07\n        /* \"stETHPoolV1.sol\":3774:3784  status = 0 */\n      sstore\n      pop\n      pop\n        /* \"stETHPoolV1.sol\":4711:4947  function withdrawFor(address user, uint256 amount) external onlyRouter nonReentrant contractStarted{... */\n      jump\t// out\n        /* \"stETHPoolV1.sol\":22939:23842  function createNewEpoch() external onlyRewardDistributor{... */\n    tag_133:\n        /* \"stETHPoolV1.sol\":3008:3020  address role */\n      0x00\n        /* \"stETHPoolV1.sol\":3037:3053  registryContract */\n      dup1\n      0x00\n      swap1\n      sload\n      swap1\n      0x0100\n      exp\n      swap1\n      div\n      sub(shl(0xa0, 0x01), 0x01)\n      and\n      sub(shl(0xa0, 0x01), 0x01)\n        /* \"stETHPoolV1.sol\":3023:3075  IRoleRegistry(registryContract).getRewardDistributor */\n      and\n      0xcf20d872\n        /* \"stETHPoolV1.sol\":3023:3077  IRoleRegistry(registryContract).getRewardDistributor() */\n      mload(0x40)\n      dup2\n      0xffffffff\n      and\n      0xe0\n      shl\n      dup2\n      mstore\n      0x04\n      add\n      0x20\n      mload(0x40)\n      dup1\n      dup4\n      sub\n      dup2\n      dup7\n      gas\n      staticcall\n      iszero\n      dup1\n      iszero\n      tag_444\n      jumpi\n      returndatasize\n      0x00\n      dup1\n      returndatacopy\n      revert(0x00, returndatasize)\n    tag_444:\n      pop\n      pop\n      pop\n      pop\n      mload(0x40)\n      returndatasize\n      not(0x1f)\n      0x1f\n      dup3\n      add\n      and\n      dup3\n      add\n      dup1\n      0x40\n      mstore\n      pop\n      dup2\n      add\n      swap1\n      tag_445\n      swap2\n      swap1\n      tag_161\n      jump\t// in\n    tag_445:\n        /* \"stETHPoolV1.sol\":3008:3077  address role = IRoleRegistry(registryContract).getRewardDistributor() */\n      swap1\n      pop\n        /* \"stETHPoolV1.sol\":3095:3105  msg.sender */\n      caller\n      sub(shl(0xa0, 0x01), 0x01)\n        /* \"stETHPoolV1.sol\":3095:3113  msg.sender == role */\n      dup3\n      and\n      eq\n        /* \"stETHPoolV1.sol\":3087:3132  require(msg.sender == role, \"Invalid caller\") */\n      tag_446\n      jumpi\n      mload(0x40)\n      shl(0xe5, 0x461bcd)\n      dup2\n      mstore\n      0x04\n      add\n      tag_163\n      swap1\n      tag_164\n      jump\t// in\n    tag_446:\n        /* \"stETHPoolV1.sol\":23005:23024  uint256 epochLength */\n      0x00\n        /* \"stETHPoolV1.sol\":23027:23043  getEpochLength() */\n      tag_449\n        /* \"stETHPoolV1.sol\":17693:17705  EpochResults */\n      0x0d\n        /* \"stETHPoolV1.sol\":17693:17712  EpochResults.length */\n      sload\n      swap1\n        /* \"stETHPoolV1.sol\":17612:17742  function getEpochLength() public view returns(uint256){... */\n      jump\n        /* \"stETHPoolV1.sol\":23027:23043  getEpochLength() */\n    tag_449:\n        /* \"stETHPoolV1.sol\":23005:23043  uint256 epochLength = getEpochLength() */\n      swap1\n      pop\n        /* \"stETHPoolV1.sol\":23056:23071  epochLength > 0 */\n      dup1\n      iszero\n        /* \"stETHPoolV1.sol\":23053:23340  if(epochLength > 0){... */\n      tag_450\n      jumpi\n        /* \"stETHPoolV1.sol\":23086:23111  uint256 latestEpochNumber */\n      0x00\n        /* \"stETHPoolV1.sol\":23115:23133  epochLength.sub(1) */\n      tag_451\n        /* \"stETHPoolV1.sol\":23115:23126  epochLength */\n      dup3\n        /* \"stETHPoolV1.sol\":23131:23132  1 */\n      0x01\n        /* \"stETHPoolV1.sol\":23115:23130  epochLength.sub */\n      tag_326\n        /* \"stETHPoolV1.sol\":23115:23133  epochLength.sub(1) */\n      jump\t// in\n    tag_451:\n        /* \"stETHPoolV1.sol\":23086:23133  uint256 latestEpochNumber =  epochLength.sub(1) */\n      swap1\n      pop\n        /* \"stETHPoolV1.sol\":23147:23185  EpochResult memory getLastEpochDetails */\n      0x00\n        /* \"stETHPoolV1.sol\":23188:23200  EpochResults */\n      0x0d\n        /* \"stETHPoolV1.sol\":23201:23218  latestEpochNumber */\n      dup3\n        /* \"stETHPoolV1.sol\":23188:23219  EpochResults[latestEpochNumber] */\n      dup2\n      sload\n      dup2\n      lt\n      tag_453\n      jumpi\n      tag_453\n      tag_151\n      jump\t// in\n    tag_453:\n      0x00\n      swap2\n      dup3\n      mstore\n      0x20\n      swap2\n      dup3\n      swap1\n      keccak256\n        /* \"stETHPoolV1.sol\":23147:23219  EpochResult memory getLastEpochDetails = EpochResults[latestEpochNumber] */\n      0x40\n      dup1\n      mload\n      0x0160\n      dup2\n      add\n      dup3\n      mstore\n        /* \"stETHPoolV1.sol\":23188:23219  EpochResults[latestEpochNumber] */\n      0x0e\n      swap1\n      swap4\n      mul\n      swap1\n      swap2\n      add\n        /* \"stETHPoolV1.sol\":23147:23219  EpochResult memory getLastEpochDetails = EpochResults[latestEpochNumber] */\n      dup1\n      sload\n      sub(shl(0xa0, 0x01), 0x01)\n      swap1\n      dup2\n      and\n      0x0100\n      dup6\n      add\n      swap1\n      dup2\n      mstore\n      0x01\n      dup4\n      add\n      sload\n      0x0120\n      dup7\n      add\n      mstore\n      0x02\n      dup4\n      add\n      sload\n      0xff\n      swap1\n      dup2\n      and\n      iszero\n      iszero\n      0x0140\n      dup8\n      add\n      mstore\n      swap1\n      dup6\n      mstore\n      dup4\n      mload\n      0x60\n      dup2\n      dup2\n      add\n      dup7\n      mstore\n      0x03\n      dup6\n      add\n      sload\n      dup5\n      and\n      dup3\n      mstore\n      0x04\n      dup6\n      add\n      sload\n      dup3\n      dup10\n      add\n      mstore\n      0x05\n      dup6\n      add\n      sload\n      dup4\n      and\n      iszero\n      iszero\n      dup3\n      dup8\n      add\n      mstore\n      dup7\n      dup9\n      add\n      swap2\n      swap1\n      swap2\n      mstore\n      dup5\n      mload\n      dup1\n      dup3\n      add\n      dup7\n      mstore\n      0x06\n      dup6\n      add\n      sload\n      swap1\n      swap4\n      and\n      dup4\n      mstore\n      0x07\n      dup5\n      add\n      sload\n      swap7\n      dup4\n      add\n      swap7\n      swap1\n      swap7\n      mstore\n      0x08\n      dup4\n      add\n      sload\n      dup2\n      and\n      iszero\n      iszero\n      dup3\n      dup6\n      add\n      mstore\n      swap3\n      dup5\n      add\n      mstore\n      0x09\n      dup2\n      add\n      sload\n      swap1\n      swap2\n      and\n      iszero\n      iszero\n      swap3\n      dup3\n      add\n      dup4\n      swap1\n      mstore\n      0x0a\n      dup2\n      add\n      sload\n      0x80\n      dup4\n      add\n      mstore\n      0x0b\n      dup2\n      add\n      sload\n      0xa0\n      dup4\n      add\n      mstore\n      0x0c\n      dup2\n      add\n      sload\n      0xc0\n      dup4\n      add\n      mstore\n      0x0d\n      add\n      sload\n      0xe0\n      dup3\n      add\n      mstore\n      swap2\n      pop\n      dup1\n        /* \"stETHPoolV1.sol\":23302:23329  require(lastEpochFinalized) */\n      tag_455\n      jumpi\n      0x00\n      dup1\n      revert\n    tag_455:\n        /* \"stETHPoolV1.sol\":23072:23340  {... */\n      pop\n      pop\n      pop\n        /* \"stETHPoolV1.sol\":23053:23340  if(epochLength > 0){... */\n    tag_450:\n      pop\n      pop\n      0x40\n      dup1\n      mload\n      0x60\n      dup1\n      dup3\n      add\n      dup4\n      mstore\n      0x00\n      dup1\n      dup4\n      mstore\n      0x20\n      dup1\n      dup5\n      add\n      dup3\n      swap1\n      mstore\n      dup4\n      dup6\n      add\n      dup3\n      swap1\n      mstore\n        /* \"stETHPoolV1.sol\":23540:23825  EpochResult(... */\n      dup5\n      mload\n      0x0100\n      dup2\n      add\n      dup7\n      mstore\n      dup5\n      dup2\n      mstore\n      dup1\n      dup3\n      add\n      dup6\n      dup2\n      mstore\n      dup2\n      dup8\n      add\n      swap6\n      dup7\n      mstore\n      swap4\n      dup2\n      add\n      dup4\n      dup2\n      mstore\n      0x80\n      dup3\n      add\n      dup5\n      dup2\n      mstore\n        /* \"stETHPoolV1.sol\":23721:23734  epochDuration */\n      0x0e\n      dup1\n      sload\n        /* \"stETHPoolV1.sol\":23540:23825  EpochResult(... */\n      0xa0\n      dup6\n      add\n      swap1\n      dup2\n      mstore\n        /* \"stETHPoolV1.sol\":23766:23781  block.timestamp */\n      timestamp\n        /* \"stETHPoolV1.sol\":23540:23825  EpochResult(... */\n      0xc0\n      dup7\n      add\n      swap1\n      dup2\n      mstore\n      0xe0\n      dup7\n      add\n      dup9\n      dup2\n      mstore\n        /* \"stETHPoolV1.sol\":23513:23525  EpochResults */\n      0x0d\n        /* \"stETHPoolV1.sol\":23513:23835  EpochResults.push(... */\n      dup1\n      sload\n        /* \"stETHPoolV1.sol\":23451:23472  empty.claimed = false */\n      0x01\n        /* \"stETHPoolV1.sol\":23513:23835  EpochResults.push(... */\n      dup2\n      add\n      dup3\n      sstore\n      swap10\n      mstore\n      swap6\n      mload\n      dup1\n      mload\n      0xd7b6990105719101dabeb77144f2a3385c8033acd3af97e9423a695e81ad1eb5\n      swap10\n      swap1\n      swap5\n      mul\n      swap9\n      dup10\n      add\n      dup1\n      sload\n      not(sub(shl(0xa0, 0x01), 0x01))\n      swap1\n      dup2\n      and\n      sub(shl(0xa0, 0x01), 0x01)\n      swap7\n      dup8\n      and\n      or\n      swap1\n      swap2\n      sstore\n      dup2\n      dup10\n      add\n      mload\n      0xd7b6990105719101dabeb77144f2a3385c8033acd3af97e9423a695e81ad1eb6\n      dup12\n      add\n      sstore\n      swap1\n      dup13\n      add\n      mload\n      0xd7b6990105719101dabeb77144f2a3385c8033acd3af97e9423a695e81ad1eb7\n      dup11\n      add\n      dup1\n      sload\n      not(0xff)\n      swap1\n      dup2\n      and\n      swap3\n      iszero\n      iszero\n      swap3\n      swap1\n      swap3\n      or\n      swap1\n      sstore\n      swap10\n      mload\n      dup1\n      mload\n      0xd7b6990105719101dabeb77144f2a3385c8033acd3af97e9423a695e81ad1eb8\n      dup12\n      add\n      dup1\n      sload\n      dup5\n      and\n      swap2\n      dup8\n      and\n      swap2\n      swap1\n      swap2\n      or\n      swap1\n      sstore\n      dup1\n      dup10\n      add\n      mload\n      0xd7b6990105719101dabeb77144f2a3385c8033acd3af97e9423a695e81ad1eb9\n      dup12\n      add\n      sstore\n      dup13\n      add\n      mload\n      0xd7b6990105719101dabeb77144f2a3385c8033acd3af97e9423a695e81ad1eba\n      dup11\n      add\n      dup1\n      sload\n      dup13\n      and\n      swap2\n      iszero\n      iszero\n      swap2\n      swap1\n      swap2\n      or\n      swap1\n      sstore\n      swap10\n      mload\n      dup1\n      mload\n      0xd7b6990105719101dabeb77144f2a3385c8033acd3af97e9423a695e81ad1ebb\n      dup11\n      add\n      dup1\n      sload\n      swap1\n      swap13\n      and\n      swap5\n      and\n      swap4\n      swap1\n      swap4\n      or\n      swap1\n      swap10\n      sstore\n      swap5\n      dup2\n      add\n      mload\n      0xd7b6990105719101dabeb77144f2a3385c8033acd3af97e9423a695e81ad1ebc\n      dup8\n      add\n      sstore\n      swap1\n      swap8\n      add\n      mload\n      0xd7b6990105719101dabeb77144f2a3385c8033acd3af97e9423a695e81ad1ebd\n      dup6\n      add\n      dup1\n      sload\n      dup8\n      and\n      swap2\n      iszero\n      iszero\n      swap2\n      swap1\n      swap2\n      or\n      swap1\n      sstore\n      mload\n      0xd7b6990105719101dabeb77144f2a3385c8033acd3af97e9423a695e81ad1ebe\n      dup5\n      add\n      dup1\n      sload\n      swap1\n      swap6\n      and\n      swap1\n      iszero\n      iszero\n      or\n      swap1\n      swap4\n      sstore\n      swap4\n      mload\n      0xd7b6990105719101dabeb77144f2a3385c8033acd3af97e9423a695e81ad1ebf\n      dup3\n      add\n      sstore\n      swap3\n      mload\n      0xd7b6990105719101dabeb77144f2a3385c8033acd3af97e9423a695e81ad1ec0\n      dup5\n      add\n      sstore\n      swap1\n      mload\n      0xd7b6990105719101dabeb77144f2a3385c8033acd3af97e9423a695e81ad1ec1\n      dup4\n      add\n      sstore\n      mload\n      0xd7b6990105719101dabeb77144f2a3385c8033acd3af97e9423a695e81ad1ec2\n      swap1\n      swap2\n      add\n      sstore\n        /* \"stETHPoolV1.sol\":22939:23842  function createNewEpoch() external onlyRewardDistributor{... */\n      jump\t// out\n        /* \"stETHPoolV1.sol\":4131:4265  function changeRegistryContractAddr(address registryAddress) external onlyOwner{... */\n    tag_136:\n        /* \"stETHPoolV1.sol\":3185:3197  address role */\n      0x00\n        /* \"stETHPoolV1.sol\":3214:3230  registryContract */\n      dup1\n      0x00\n      swap1\n      sload\n      swap1\n      0x0100\n      exp\n      swap1\n      div\n      sub(shl(0xa0, 0x01), 0x01)\n      and\n      sub(shl(0xa0, 0x01), 0x01)\n        /* \"stETHPoolV1.sol\":3200:3240  IRoleRegistry(registryContract).getOwner */\n      and\n      0x893d20e8\n        /* \"stETHPoolV1.sol\":3200:3242  IRoleRegistry(registryContract).getOwner() */\n      mload(0x40)\n      dup2\n      0xffffffff\n      and\n      0xe0\n      shl\n      dup2\n      mstore\n      0x04\n      add\n      0x20\n      mload(0x40)\n      dup1\n      dup4\n      sub\n      dup2\n      dup7\n      gas\n      staticcall\n      iszero\n      dup1\n      iszero\n      tag_461\n      jumpi\n      returndatasize\n      0x00\n      dup1\n      returndatacopy\n      revert(0x00, returndatasize)\n    tag_461:\n      pop\n      pop\n      pop\n      pop\n      mload(0x40)\n      returndatasize\n      not(0x1f)\n      0x1f\n      dup3\n      add\n      and\n      dup3\n      add\n      dup1\n      0x40\n      mstore\n      pop\n      dup2\n      add\n      swap1\n      tag_462\n      swap2\n      swap1\n      tag_161\n      jump\t// in\n    tag_462:\n        /* \"stETHPoolV1.sol\":3185:3242  address role = IRoleRegistry(registryContract).getOwner() */\n      swap1\n      pop\n        /* \"stETHPoolV1.sol\":3260:3270  msg.sender */\n      caller\n      sub(shl(0xa0, 0x01), 0x01)\n        /* \"stETHPoolV1.sol\":3260:3278  msg.sender == role */\n      dup3\n      and\n      eq\n        /* \"stETHPoolV1.sol\":3252:3297  require(msg.sender == role, \"Invalid caller\") */\n      tag_463\n      jumpi\n      mload(0x40)\n      shl(0xe5, 0x461bcd)\n      dup2\n      mstore\n      0x04\n      add\n      tag_163\n      swap1\n      tag_164\n      jump\t// in\n    tag_463:\n        /* \"stETHPoolV1.sol\":4220:4258  _transferRegistryAddr(registryAddress) */\n      tag_466\n        /* \"stETHPoolV1.sol\":4242:4257  registryAddress */\n      dup3\n        /* \"stETHPoolV1.sol\":4220:4241  _transferRegistryAddr */\n      tag_347\n        /* \"stETHPoolV1.sol\":4220:4258  _transferRegistryAddr(registryAddress) */\n      jump\t// in\n    tag_466:\n        /* \"stETHPoolV1.sol\":3175:3315  {... */\n      pop\n        /* \"stETHPoolV1.sol\":4131:4265  function changeRegistryContractAddr(address registryAddress) external onlyOwner{... */\n      pop\n      jump\t// out\n        /* \"stETHPoolV1.sol\":11887:12114  function getCurrentEpochReward() public view returns(uint256){... */\n    tag_138:\n        /* \"stETHPoolV1.sol\":11990:12004  TokentoDeposit */\n      sload(0x0f)\n        /* \"stETHPoolV1.sol\":11983:12030  IERC20(TokentoDeposit).balanceOf(address(this)) */\n      mload(0x40)\n      shl(0xe0, 0x70a08231)\n      dup2\n      mstore\n        /* \"stETHPoolV1.sol\":12024:12028  this */\n      address\n        /* \"stETHPoolV1.sol\":11983:12030  IERC20(TokentoDeposit).balanceOf(address(this)) */\n      0x04\n      dup3\n      add\n        /* \"#utility.yul\":1226:1277   */\n      mstore\n        /* \"stETHPoolV1.sol\":11940:11947  uint256 */\n      0x00\n      swap2\n      dup3\n      swap2\n      sub(shl(0xa0, 0x01), 0x01)\n        /* \"stETHPoolV1.sol\":11990:12004  TokentoDeposit */\n      swap1\n      swap2\n      and\n      swap1\n        /* \"stETHPoolV1.sol\":11983:12015  IERC20(TokentoDeposit).balanceOf */\n      0x70a08231\n      swap1\n        /* \"#utility.yul\":1199:1217   */\n      0x24\n      add\n        /* \"stETHPoolV1.sol\":11983:12030  IERC20(TokentoDeposit).balanceOf(address(this)) */\n      0x20\n      mload(0x40)\n      dup1\n      dup4\n      sub\n      dup2\n      dup7\n      gas\n      staticcall\n      iszero\n      dup1\n      iszero\n      tag_470\n      jumpi\n      returndatasize\n      0x00\n      dup1\n      returndatacopy\n      revert(0x00, returndatasize)\n    tag_470:\n      pop\n      pop\n      pop\n      pop\n      mload(0x40)\n      returndatasize\n      not(0x1f)\n      0x1f\n      dup3\n      add\n      and\n      dup3\n      add\n      dup1\n      0x40\n      mstore\n      pop\n      dup2\n      add\n      swap1\n      tag_471\n      swap2\n      swap1\n      tag_472\n      jump\t// in\n    tag_471:\n        /* \"stETHPoolV1.sol\":11958:12030  uint256 currentBalance = IERC20(TokentoDeposit).balanceOf(address(this)) */\n      swap1\n      pop\n        /* \"stETHPoolV1.sol\":12040:12054  uint256 result */\n      0x00\n        /* \"stETHPoolV1.sol\":12057:12084  currentBalance.sub(poolTVL) */\n      tag_325\n        /* \"stETHPoolV1.sol\":12076:12083  poolTVL */\n      sload(0x08)\n        /* \"stETHPoolV1.sol\":12057:12071  currentBalance */\n      dup4\n        /* \"stETHPoolV1.sol\":12057:12075  currentBalance.sub */\n      tag_326\n      swap1\n        /* \"stETHPoolV1.sol\":12057:12084  currentBalance.sub(poolTVL) */\n      swap2\n      swap1\n      0xffffffff\n      and\n      jump\t// in\n        /* \"stETHPoolV1.sol\":11197:11758  function sendRewardToRouter(uint256 amount) internal returns(uint256){... */\n    tag_203:\n        /* \"stETHPoolV1.sol\":11258:11265  uint256 */\n      0x00\n        /* \"stETHPoolV1.sol\":11307:11323  registryContract */\n      dup1\n      sload\n        /* \"stETHPoolV1.sol\":11293:11336  IRoleRegistry(registryContract).getRouter() */\n      0x40\n      dup1\n      mload\n      shl(0xe0, 0xb0f479a1)\n      dup2\n      mstore\n      swap1\n      mload\n        /* \"stETHPoolV1.sol\":11258:11265  uint256 */\n      dup4\n      swap3\n      sub(shl(0xa0, 0x01), 0x01)\n        /* \"stETHPoolV1.sol\":11307:11323  registryContract */\n      and\n      swap2\n        /* \"stETHPoolV1.sol\":11293:11334  IRoleRegistry(registryContract).getRouter */\n      0xb0f479a1\n      swap2\n        /* \"stETHPoolV1.sol\":11293:11336  IRoleRegistry(registryContract).getRouter() */\n      0x04\n      dup1\n      dup4\n      add\n      swap3\n      0x20\n      swap3\n      swap2\n      swap1\n      dup3\n      swap1\n      sub\n      add\n      dup2\n        /* \"stETHPoolV1.sol\":11307:11323  registryContract */\n      dup7\n        /* \"stETHPoolV1.sol\":11293:11336  IRoleRegistry(registryContract).getRouter() */\n      gas\n      staticcall\n      iszero\n      dup1\n      iszero\n      tag_476\n      jumpi\n      returndatasize\n      0x00\n      dup1\n      returndatacopy\n      revert(0x00, returndatasize)\n    tag_476:\n      pop\n      pop\n      pop\n      pop\n      mload(0x40)\n      returndatasize\n      not(0x1f)\n      0x1f\n      dup3\n      add\n      and\n      dup3\n      add\n      dup1\n      0x40\n      mstore\n      pop\n      dup2\n      add\n      swap1\n      tag_477\n      swap2\n      swap1\n      tag_161\n      jump\t// in\n    tag_477:\n        /* \"stETHPoolV1.sol\":11378:11392  TokentoDeposit */\n      sload(0x0f)\n        /* \"stETHPoolV1.sol\":11371:11411  IERC20(TokentoDeposit).balanceOf(router) */\n      mload(0x40)\n      shl(0xe0, 0x70a08231)\n      dup2\n      mstore\n      sub(shl(0xa0, 0x01), 0x01)\n        /* \"#utility.yul\":1244:1276   */\n      dup1\n      dup5\n      and\n        /* \"stETHPoolV1.sol\":11371:11411  IERC20(TokentoDeposit).balanceOf(router) */\n      0x04\n      dup4\n      add\n        /* \"#utility.yul\":1226:1277   */\n      mstore\n        /* \"stETHPoolV1.sol\":11276:11336  address router = IRoleRegistry(registryContract).getRouter() */\n      swap3\n      swap4\n      pop\n        /* \"stETHPoolV1.sol\":11346:11368  uint256 beforeTransfer */\n      0x00\n      swap3\n        /* \"stETHPoolV1.sol\":11378:11392  TokentoDeposit */\n      swap1\n      swap2\n      and\n      swap1\n        /* \"stETHPoolV1.sol\":11371:11403  IERC20(TokentoDeposit).balanceOf */\n      0x70a08231\n      swap1\n        /* \"#utility.yul\":1199:1217   */\n      0x24\n      add\n        /* \"stETHPoolV1.sol\":11371:11411  IERC20(TokentoDeposit).balanceOf(router) */\n      0x20\n      mload(0x40)\n      dup1\n      dup4\n      sub\n      dup2\n      dup7\n      gas\n      staticcall\n      iszero\n      dup1\n      iszero\n      tag_480\n      jumpi\n      returndatasize\n      0x00\n      dup1\n      returndatacopy\n      revert(0x00, returndatasize)\n    tag_480:\n      pop\n      pop\n      pop\n      pop\n      mload(0x40)\n      returndatasize\n      not(0x1f)\n      0x1f\n      dup3\n      add\n      and\n      dup3\n      add\n      dup1\n      0x40\n      mstore\n      pop\n      dup2\n      add\n      swap1\n      tag_481\n      swap2\n      swap1\n      tag_472\n      jump\t// in\n    tag_481:\n        /* \"stETHPoolV1.sol\":11346:11411  uint256 beforeTransfer = IERC20(TokentoDeposit).balanceOf(router) */\n      swap1\n      pop\n        /* \"stETHPoolV1.sol\":11421:11436  address reserve */\n      0x00\n        /* \"stETHPoolV1.sol\":11453:11469  registryContract */\n      dup1\n      0x00\n      swap1\n      sload\n      swap1\n      0x0100\n      exp\n      swap1\n      div\n      sub(shl(0xa0, 0x01), 0x01)\n      and\n      sub(shl(0xa0, 0x01), 0x01)\n        /* \"stETHPoolV1.sol\":11439:11488  IRoleRegistry(registryContract).getReserveAddress */\n      and\n      0x9960d742\n        /* \"stETHPoolV1.sol\":11439:11490  IRoleRegistry(registryContract).getReserveAddress() */\n      mload(0x40)\n      dup2\n      0xffffffff\n      and\n      0xe0\n      shl\n      dup2\n      mstore\n      0x04\n      add\n      0x20\n      mload(0x40)\n      dup1\n      dup4\n      sub\n      dup2\n      dup7\n      gas\n      staticcall\n      iszero\n      dup1\n      iszero\n      tag_483\n      jumpi\n      returndatasize\n      0x00\n      dup1\n      returndatacopy\n      revert(0x00, returndatasize)\n    tag_483:\n      pop\n      pop\n      pop\n      pop\n      mload(0x40)\n      returndatasize\n      not(0x1f)\n      0x1f\n      dup3\n      add\n      and\n      dup3\n      add\n      dup1\n      0x40\n      mstore\n      pop\n      dup2\n      add\n      swap1\n      tag_484\n      swap2\n      swap1\n      tag_161\n      jump\t// in\n    tag_484:\n        /* \"stETHPoolV1.sol\":11539:11553  TokentoDeposit */\n      sload(0x0f)\n        /* \"stETHPoolV1.sol\":11500:11568  IRewardReserve(reserve).transferReward(TokentoDeposit,amount,router) */\n      mload(0x40)\n      shl(0xe4, 0x0431a08b)\n      dup2\n      mstore\n      sub(shl(0xa0, 0x01), 0x01)\n        /* \"stETHPoolV1.sol\":11539:11553  TokentoDeposit */\n      swap2\n      dup3\n      and\n        /* \"stETHPoolV1.sol\":11500:11568  IRewardReserve(reserve).transferReward(TokentoDeposit,amount,router) */\n      0x04\n      dup3\n      add\n        /* \"#utility.yul\":14103:14137   */\n      mstore\n        /* \"#utility.yul\":14153:14171   */\n      0x24\n      dup2\n      add\n        /* \"#utility.yul\":14146:14180   */\n      dup9\n      swap1\n      mstore\n        /* \"#utility.yul\":14216:14231   */\n      dup6\n      dup3\n      and\n        /* \"#utility.yul\":14196:14214   */\n      0x44\n      dup3\n      add\n        /* \"#utility.yul\":14189:14232   */\n      mstore\n        /* \"stETHPoolV1.sol\":11421:11490  address reserve = IRoleRegistry(registryContract).getReserveAddress() */\n      swap2\n      swap3\n      pop\n        /* \"stETHPoolV1.sol\":11500:11538  IRewardReserve(reserve).transferReward */\n      dup3\n      and\n      swap1\n      0x431a08b0\n      swap1\n        /* \"#utility.yul\":14038:14056   */\n      0x64\n      add\n        /* \"stETHPoolV1.sol\":11500:11568  IRewardReserve(reserve).transferReward(TokentoDeposit,amount,router) */\n      0x00\n      mload(0x40)\n      dup1\n      dup4\n      sub\n      dup2\n      0x00\n      dup8\n      dup1\n      extcodesize\n      iszero\n      dup1\n      iszero\n      tag_487\n      jumpi\n      0x00\n      dup1\n      revert\n    tag_487:\n      pop\n      gas\n      call\n      iszero\n      dup1\n      iszero\n      tag_489\n      jumpi\n      returndatasize\n      0x00\n      dup1\n      returndatacopy\n      revert(0x00, returndatasize)\n    tag_489:\n      pop\n      pop\n        /* \"stETHPoolV1.sol\":11609:11623  TokentoDeposit */\n      sload(0x0f)\n        /* \"stETHPoolV1.sol\":11602:11642  IERC20(TokentoDeposit).balanceOf(router) */\n      mload(0x40)\n      shl(0xe0, 0x70a08231)\n      dup2\n      mstore\n      sub(shl(0xa0, 0x01), 0x01)\n        /* \"#utility.yul\":1244:1276   */\n      dup8\n      dup2\n      and\n        /* \"stETHPoolV1.sol\":11602:11642  IERC20(TokentoDeposit).balanceOf(router) */\n      0x04\n      dup4\n      add\n        /* \"#utility.yul\":1226:1277   */\n      mstore\n        /* \"stETHPoolV1.sol\":11578:11599  uint256 afterTransfer */\n      0x00\n      swap5\n      pop\n        /* \"stETHPoolV1.sol\":11609:11623  TokentoDeposit */\n      swap1\n      swap2\n      and\n      swap2\n      pop\n        /* \"stETHPoolV1.sol\":11602:11634  IERC20(TokentoDeposit).balanceOf */\n      0x70a08231\n      swap1\n        /* \"#utility.yul\":1199:1217   */\n      0x24\n      add\n        /* \"stETHPoolV1.sol\":11602:11642  IERC20(TokentoDeposit).balanceOf(router) */\n      0x20\n      mload(0x40)\n      dup1\n      dup4\n      sub\n      dup2\n      dup7\n      gas\n      staticcall\n      iszero\n      dup1\n      iszero\n      tag_492\n      jumpi\n      returndatasize\n      0x00\n      dup1\n      returndatacopy\n      revert(0x00, returndatasize)\n    tag_492:\n      pop\n      pop\n      pop\n      pop\n      mload(0x40)\n      returndatasize\n      not(0x1f)\n      0x1f\n      dup3\n      add\n      and\n      dup3\n      add\n      dup1\n      0x40\n      mstore\n      pop\n      dup2\n      add\n      swap1\n      tag_493\n      swap2\n      swap1\n      tag_472\n      jump\t// in\n    tag_493:\n        /* \"stETHPoolV1.sol\":11578:11642  uint256 afterTransfer = IERC20(TokentoDeposit).balanceOf(router) */\n      swap1\n      pop\n        /* \"stETHPoolV1.sol\":11652:11679  uint256 changeAfterTransfer */\n      0x00\n        /* \"stETHPoolV1.sol\":11682:11715  afterTransfer.sub(beforeTransfer) */\n      tag_494\n        /* \"stETHPoolV1.sol\":11578:11642  uint256 afterTransfer = IERC20(TokentoDeposit).balanceOf(router) */\n      dup3\n        /* \"stETHPoolV1.sol\":11700:11714  beforeTransfer */\n      dup6\n        /* \"stETHPoolV1.sol\":11682:11699  afterTransfer.sub */\n      tag_326\n        /* \"stETHPoolV1.sol\":11682:11715  afterTransfer.sub(beforeTransfer) */\n      jump\t// in\n    tag_494:\n        /* \"stETHPoolV1.sol\":11652:11715  uint256 changeAfterTransfer = afterTransfer.sub(beforeTransfer) */\n      swap8\n        /* \"stETHPoolV1.sol\":11197:11758  function sendRewardToRouter(uint256 amount) internal returns(uint256){... */\n      swap7\n      pop\n      pop\n      pop\n      pop\n      pop\n      pop\n      pop\n      jump\t// out\n        /* \"@openzeppelin/contracts/utils/math/SafeMath.sol\":2755:2851  function add(uint256 a, uint256 b) internal pure returns (uint256) {... */\n    tag_216:\n        /* \"@openzeppelin/contracts/utils/math/SafeMath.sol\":2813:2820  uint256 */\n      0x00\n        /* \"@openzeppelin/contracts/utils/math/SafeMath.sol\":2839:2844  a + b */\n      tag_325\n        /* \"@openzeppelin/contracts/utils/math/SafeMath.sol\":2843:2844  b */\n      dup3\n        /* \"@openzeppelin/contracts/utils/math/SafeMath.sol\":2839:2840  a */\n      dup5\n        /* \"@openzeppelin/contracts/utils/math/SafeMath.sol\":2839:2844  a + b */\n      tag_497\n      jump\t// in\n        /* \"stETHPoolV1.sol\":21643:22267  function sumUptotalParticipant(uint256 epochNumber, uint256 endBlock) internal view returns(uint256){... */\n    tag_218:\n        /* \"stETHPoolV1.sol\":21735:21742  uint256 */\n      0x00\n      dup1\n        /* \"stETHPoolV1.sol\":21803:21804  1 */\n      0x01\n        /* \"stETHPoolV1.sol\":21790:22225  for(uint i = 1; i<amountOfUser; i++){ ... */\n    tag_499:\n        /* \"stETHPoolV1.sol\":21808:21820  amountOfUser */\n      sload(0x01)\n        /* \"stETHPoolV1.sol\":21806:21807  i */\n      dup2\n        /* \"stETHPoolV1.sol\":21806:21820  i<amountOfUser */\n      lt\n        /* \"stETHPoolV1.sol\":21790:22225  for(uint i = 1; i<amountOfUser; i++){ ... */\n      iszero\n      tag_500\n      jumpi\n        /* \"stETHPoolV1.sol\":21841:21864  uint256 registeredBlock */\n      0x00\n        /* \"stETHPoolV1.sol\":21867:21885  userDepositInfo[i] */\n      dup2\n      dup2\n      mstore\n        /* \"stETHPoolV1.sol\":21867:21882  userDepositInfo */\n      0x02\n        /* \"stETHPoolV1.sol\":21867:21885  userDepositInfo[i] */\n      0x20\n      dup2\n      swap1\n      mstore\n      0x40\n      swap1\n      swap2\n      keccak256\n        /* \"stETHPoolV1.sol\":21867:21900  userDepositInfo[i].registeredDate */\n      swap1\n      dup2\n      add\n      sload\n        /* \"stETHPoolV1.sol\":21936:21966  userDepositInfo[i].userAddress */\n      swap1\n      sload\n      sub(shl(0xa0, 0x01), 0x01)\n      and\n        /* \"stETHPoolV1.sol\":21983:22010  registeredBlock <= endBlock */\n      dup6\n      dup3\n      gt\n        /* \"stETHPoolV1.sol\":21980:22215  if(registeredBlock <= endBlock){... */\n      tag_502\n      jumpi\n        /* \"stETHPoolV1.sol\":22029:22053  uint256 userTicketAmount */\n      0x00\n        /* \"stETHPoolV1.sol\":22056:22096  getTicketAmount(epochNumber,userAddress) */\n      tag_503\n        /* \"stETHPoolV1.sol\":22072:22083  epochNumber */\n      dup9\n        /* \"stETHPoolV1.sol\":22084:22095  userAddress */\n      dup4\n        /* \"stETHPoolV1.sol\":22056:22071  getTicketAmount */\n      tag_127\n        /* \"stETHPoolV1.sol\":22056:22096  getTicketAmount(epochNumber,userAddress) */\n      jump\t// in\n    tag_503:\n        /* \"stETHPoolV1.sol\":22029:22096  uint256 userTicketAmount = getTicketAmount(epochNumber,userAddress) */\n      swap1\n      pop\n        /* \"stETHPoolV1.sol\":22117:22135  userTicketAmount>0 */\n      dup1\n      iszero\n        /* \"stETHPoolV1.sol\":22114:22201  if(userTicketAmount>0){... */\n      tag_504\n      jumpi\n        /* \"stETHPoolV1.sol\":22158:22182  amountofParticipant += 1 */\n      tag_505\n        /* \"stETHPoolV1.sol\":22181:22182  1 */\n      0x01\n        /* \"stETHPoolV1.sol\":22158:22182  amountofParticipant += 1 */\n      dup7\n      tag_497\n      jump\t// in\n    tag_505:\n      swap5\n      pop\n        /* \"stETHPoolV1.sol\":22114:22201  if(userTicketAmount>0){... */\n    tag_504:\n        /* \"stETHPoolV1.sol\":22011:22215  {... */\n      pop\n        /* \"stETHPoolV1.sol\":21980:22215  if(registeredBlock <= endBlock){... */\n    tag_502:\n        /* \"stETHPoolV1.sol\":21826:22225  { ... */\n      pop\n      pop\n        /* \"stETHPoolV1.sol\":21822:21825  i++ */\n      dup1\n      dup1\n      tag_506\n      swap1\n      tag_199\n      jump\t// in\n    tag_506:\n      swap2\n      pop\n      pop\n        /* \"stETHPoolV1.sol\":21790:22225  for(uint i = 1; i<amountOfUser; i++){ ... */\n      jump(tag_499)\n    tag_500:\n      pop\n        /* \"stETHPoolV1.sol\":22241:22260  amountofParticipant */\n      swap4\n        /* \"stETHPoolV1.sol\":21643:22267  function sumUptotalParticipant(uint256 epochNumber, uint256 endBlock) internal view returns(uint256){... */\n      swap3\n      pop\n      pop\n      pop\n      jump\t// out\n        /* \"stETHPoolV1.sol\":9062:9518  function getTokenFromMsgsender(uint256 amount) internal returns(uint256) {... */\n    tag_234:\n        /* \"stETHPoolV1.sol\":9183:9197  TokentoDeposit */\n      sload(0x0f)\n        /* \"stETHPoolV1.sol\":9176:9223  IERC20(TokentoDeposit).balanceOf(address(this)) */\n      mload(0x40)\n      shl(0xe0, 0x70a08231)\n      dup2\n      mstore\n        /* \"stETHPoolV1.sol\":9217:9221  this */\n      address\n        /* \"stETHPoolV1.sol\":9176:9223  IERC20(TokentoDeposit).balanceOf(address(this)) */\n      0x04\n      dup3\n      add\n        /* \"#utility.yul\":1226:1277   */\n      mstore\n        /* \"stETHPoolV1.sol\":9126:9133  uint256 */\n      0x00\n      swap2\n      dup3\n      swap2\n      sub(shl(0xa0, 0x01), 0x01)\n        /* \"stETHPoolV1.sol\":9183:9197  TokentoDeposit */\n      swap1\n      swap2\n      and\n      swap1\n        /* \"stETHPoolV1.sol\":9176:9208  IERC20(TokentoDeposit).balanceOf */\n      0x70a08231\n      swap1\n        /* \"#utility.yul\":1199:1217   */\n      0x24\n      add\n        /* \"stETHPoolV1.sol\":9176:9223  IERC20(TokentoDeposit).balanceOf(address(this)) */\n      0x20\n      mload(0x40)\n      dup1\n      dup4\n      sub\n      dup2\n      dup7\n      gas\n      staticcall\n      iszero\n      dup1\n      iszero\n      tag_510\n      jumpi\n      returndatasize\n      0x00\n      dup1\n      returndatacopy\n      revert(0x00, returndatasize)\n    tag_510:\n      pop\n      pop\n      pop\n      pop\n      mload(0x40)\n      returndatasize\n      not(0x1f)\n      0x1f\n      dup3\n      add\n      and\n      dup3\n      add\n      dup1\n      0x40\n      mstore\n      pop\n      dup2\n      add\n      swap1\n      tag_511\n      swap2\n      swap1\n      tag_472\n      jump\t// in\n    tag_511:\n        /* \"stETHPoolV1.sol\":9240:9254  TokentoDeposit */\n      sload(0x0f)\n        /* \"stETHPoolV1.sol\":9145:9223  uint256 balanceBeforeDeposit = IERC20(TokentoDeposit).balanceOf(address(this)) */\n      swap1\n      swap2\n      pop\n        /* \"stETHPoolV1.sol\":9233:9305  IERC20(TokentoDeposit).safeTransferFrom(msg.sender,address(this),amount) */\n      tag_512\n      swap1\n      sub(shl(0xa0, 0x01), 0x01)\n        /* \"stETHPoolV1.sol\":9240:9254  TokentoDeposit */\n      and\n        /* \"stETHPoolV1.sol\":9273:9283  msg.sender */\n      caller\n        /* \"stETHPoolV1.sol\":9292:9296  this */\n      address\n        /* \"stETHPoolV1.sol\":9298:9304  amount */\n      dup7\n        /* \"stETHPoolV1.sol\":9233:9272  IERC20(TokentoDeposit).safeTransferFrom */\n      tag_513\n        /* \"stETHPoolV1.sol\":9233:9305  IERC20(TokentoDeposit).safeTransferFrom(msg.sender,address(this),amount) */\n      jump\t// in\n    tag_512:\n        /* \"stETHPoolV1.sol\":9352:9366  TokentoDeposit */\n      sload(0x0f)\n        /* \"stETHPoolV1.sol\":9345:9392  IERC20(TokentoDeposit).balanceOf(address(this)) */\n      mload(0x40)\n      shl(0xe0, 0x70a08231)\n      dup2\n      mstore\n        /* \"stETHPoolV1.sol\":9386:9390  this */\n      address\n        /* \"stETHPoolV1.sol\":9345:9392  IERC20(TokentoDeposit).balanceOf(address(this)) */\n      0x04\n      dup3\n      add\n        /* \"#utility.yul\":1226:1277   */\n      mstore\n        /* \"stETHPoolV1.sol\":9315:9342  uint256 balanceAfterDeposit */\n      0x00\n      swap2\n      sub(shl(0xa0, 0x01), 0x01)\n        /* \"stETHPoolV1.sol\":9352:9366  TokentoDeposit */\n      and\n      swap1\n        /* \"stETHPoolV1.sol\":9345:9377  IERC20(TokentoDeposit).balanceOf */\n      0x70a08231\n      swap1\n        /* \"#utility.yul\":1199:1217   */\n      0x24\n      add\n        /* \"stETHPoolV1.sol\":9345:9392  IERC20(TokentoDeposit).balanceOf(address(this)) */\n      0x20\n      mload(0x40)\n      dup1\n      dup4\n      sub\n      dup2\n      dup7\n      gas\n      staticcall\n      iszero\n      dup1\n      iszero\n      tag_516\n      jumpi\n      returndatasize\n      0x00\n      dup1\n      returndatacopy\n      revert(0x00, returndatasize)\n    tag_516:\n      pop\n      pop\n      pop\n      pop\n      mload(0x40)\n      returndatasize\n      not(0x1f)\n      0x1f\n      dup3\n      add\n      and\n      dup3\n      add\n      dup1\n      0x40\n      mstore\n      pop\n      dup2\n      add\n      swap1\n      tag_517\n      swap2\n      swap1\n      tag_472\n      jump\t// in\n    tag_517:\n        /* \"stETHPoolV1.sol\":9315:9392  uint256 balanceAfterDeposit = IERC20(TokentoDeposit).balanceOf(address(this)) */\n      swap1\n      pop\n        /* \"stETHPoolV1.sol\":9402:9428  uint256 changeAfterDeposit */\n      0x00\n        /* \"stETHPoolV1.sol\":9431:9476  balanceAfterDeposit.sub(balanceBeforeDeposit) */\n      tag_518\n        /* \"stETHPoolV1.sol\":9315:9392  uint256 balanceAfterDeposit = IERC20(TokentoDeposit).balanceOf(address(this)) */\n      dup3\n        /* \"stETHPoolV1.sol\":9455:9475  balanceBeforeDeposit */\n      dup5\n        /* \"stETHPoolV1.sol\":9431:9454  balanceAfterDeposit.sub */\n      tag_326\n        /* \"stETHPoolV1.sol\":9431:9476  balanceAfterDeposit.sub(balanceBeforeDeposit) */\n      jump\t// in\n    tag_518:\n        /* \"stETHPoolV1.sol\":9402:9476  uint256 changeAfterDeposit = balanceAfterDeposit.sub(balanceBeforeDeposit) */\n      swap6\n        /* \"stETHPoolV1.sol\":9062:9518  function getTokenFromMsgsender(uint256 amount) internal returns(uint256) {... */\n      swap5\n      pop\n      pop\n      pop\n      pop\n      pop\n      jump\t// out\n        /* \"stETHPoolV1.sol\":4952:5729  function updateUserInfo(address user, uint256 amount, bool isDeposit) internal {... */\n    tag_236:\n        /* \"stETHPoolV1.sol\":5044:5053  isDeposit */\n      dup1\n        /* \"stETHPoolV1.sol\":5041:5723  if(isDeposit){... */\n      iszero\n      tag_520\n      jumpi\n      sub(shl(0xa0, 0x01), 0x01)\n        /* \"stETHPoolV1.sol\":5147:5159  userID[user] */\n      dup4\n      and\n        /* \"stETHPoolV1.sol\":5127:5144  uint256 userIDnow */\n      0x00\n        /* \"stETHPoolV1.sol\":5147:5159  userID[user] */\n      swap1\n      dup2\n      mstore\n        /* \"stETHPoolV1.sol\":5147:5153  userID */\n      0x03\n        /* \"stETHPoolV1.sol\":5147:5159  userID[user] */\n      0x20\n      mstore\n      0x40\n      dup2\n      keccak256\n      sload\n      swap1\n        /* \"stETHPoolV1.sol\":5254:5268  userIDnow == 0 */\n      dup2\n      dup2\n      sub\n        /* \"stETHPoolV1.sol\":5251:5358  if(userIDnow == 0){... */\n      tag_521\n      jumpi\n        /* \"stETHPoolV1.sol\":5287:5308  registerNewUser(user) */\n      tag_522\n        /* \"stETHPoolV1.sol\":5303:5307  user */\n      dup6\n        /* \"stETHPoolV1.sol\":5287:5302  registerNewUser */\n      tag_523\n        /* \"stETHPoolV1.sol\":5287:5308  registerNewUser(user) */\n      jump\t// in\n    tag_522:\n      pop\n        /* \"stETHPoolV1.sol\":5339:5343  true */\n      0x01\n        /* \"stETHPoolV1.sol\":5251:5358  if(userIDnow == 0){... */\n    tag_521:\n        /* \"stETHPoolV1.sol\":5375:5385  addNewUser */\n      dup1\n        /* \"stETHPoolV1.sol\":5372:5443  if(addNewUser){... */\n      iszero\n      tag_524\n      jumpi\n      sub(shl(0xa0, 0x01), 0x01)\n        /* \"stETHPoolV1.sol\":5416:5428  userID[user] */\n      dup6\n      and\n      0x00\n      swap1\n      dup2\n      mstore\n        /* \"stETHPoolV1.sol\":5416:5422  userID */\n      0x03\n        /* \"stETHPoolV1.sol\":5416:5428  userID[user] */\n      0x20\n      mstore\n      0x40\n      swap1\n      keccak256\n      sload\n      swap2\n      pop\n        /* \"stETHPoolV1.sol\":5372:5443  if(addNewUser){... */\n    tag_524:\n        /* \"stETHPoolV1.sol\":5457:5501  _proceedUpdate(userIDnow, amount, isDeposit) */\n      tag_525\n        /* \"stETHPoolV1.sol\":5472:5481  userIDnow */\n      dup3\n        /* \"stETHPoolV1.sol\":5483:5489  amount */\n      dup6\n        /* \"stETHPoolV1.sol\":5491:5500  isDeposit */\n      dup6\n        /* \"stETHPoolV1.sol\":5457:5471  _proceedUpdate */\n      tag_526\n        /* \"stETHPoolV1.sol\":5457:5501  _proceedUpdate(userIDnow, amount, isDeposit) */\n      jump\t// in\n    tag_525:\n        /* \"stETHPoolV1.sol\":5054:5512  {... */\n      pop\n      pop\n        /* \"stETHPoolV1.sol\":4952:5729  function updateUserInfo(address user, uint256 amount, bool isDeposit) internal {... */\n      pop\n      pop\n      pop\n      jump\t// out\n        /* \"stETHPoolV1.sol\":5041:5723  if(isDeposit){... */\n    tag_520:\n        /* \"stETHPoolV1.sol\":5529:5547  isDeposit == false */\n      dup1\n      iszero\n      iszero\n        /* \"stETHPoolV1.sol\":5542:5547  false */\n      0x00\n        /* \"stETHPoolV1.sol\":5529:5547  isDeposit == false */\n      sub\n        /* \"stETHPoolV1.sol\":5526:5723  if(isDeposit == false){... */\n      tag_528\n      jumpi\n      sub(shl(0xa0, 0x01), 0x01)\n        /* \"stETHPoolV1.sol\":5582:5594  userID[user] */\n      dup4\n      and\n        /* \"stETHPoolV1.sol\":5562:5579  uint256 userIDnow */\n      0x00\n        /* \"stETHPoolV1.sol\":5582:5594  userID[user] */\n      swap1\n      dup2\n      mstore\n        /* \"stETHPoolV1.sol\":5582:5588  userID */\n      0x03\n        /* \"stETHPoolV1.sol\":5582:5594  userID[user] */\n      0x20\n      mstore\n      0x40\n      dup2\n      keccak256\n      sload\n      swap1\n        /* \"stETHPoolV1.sol\":5616:5630  userIDnow != 0 */\n      dup2\n      swap1\n      sub\n        /* \"stETHPoolV1.sol\":5608:5654  require(userIDnow != 0, \"User not registered\") */\n      tag_529\n      jumpi\n      mload(0x40)\n      shl(0xe5, 0x461bcd)\n      dup2\n      mstore\n        /* \"#utility.yul\":14575:14577   */\n      0x20\n        /* \"stETHPoolV1.sol\":5608:5654  require(userIDnow != 0, \"User not registered\") */\n      0x04\n      dup3\n      add\n        /* \"#utility.yul\":14557:14578   */\n      mstore\n        /* \"#utility.yul\":14614:14616   */\n      0x13\n        /* \"#utility.yul\":14594:14612   */\n      0x24\n      dup3\n      add\n        /* \"#utility.yul\":14587:14617   */\n      mstore\n      shl(0x6a, 0x155cd95c881b9bdd081c9959da5cdd195c9959)\n        /* \"#utility.yul\":14633:14651   */\n      0x44\n      dup3\n      add\n        /* \"#utility.yul\":14626:14675   */\n      mstore\n        /* \"#utility.yul\":14692:14710   */\n      0x64\n      add\n        /* \"stETHPoolV1.sol\":5608:5654  require(userIDnow != 0, \"User not registered\") */\n      tag_163\n        /* \"#utility.yul\":14373:14716   */\n      jump\n        /* \"stETHPoolV1.sol\":5608:5654  require(userIDnow != 0, \"User not registered\") */\n    tag_529:\n        /* \"stETHPoolV1.sol\":5668:5712  _proceedUpdate(userIDnow, amount, isDeposit) */\n      tag_532\n        /* \"stETHPoolV1.sol\":5683:5692  userIDnow */\n      dup2\n        /* \"stETHPoolV1.sol\":5694:5700  amount */\n      dup5\n        /* \"stETHPoolV1.sol\":5702:5711  isDeposit */\n      dup5\n        /* \"stETHPoolV1.sol\":5668:5682  _proceedUpdate */\n      tag_526\n        /* \"stETHPoolV1.sol\":5668:5712  _proceedUpdate(userIDnow, amount, isDeposit) */\n      jump\t// in\n    tag_532:\n        /* \"stETHPoolV1.sol\":5548:5723  {... */\n      pop\n        /* \"stETHPoolV1.sol\":5526:5723  if(isDeposit == false){... */\n    tag_528:\n        /* \"stETHPoolV1.sol\":4952:5729  function updateUserInfo(address user, uint256 amount, bool isDeposit) internal {... */\n      pop\n      pop\n      pop\n      jump\t// out\n        /* \"stETHPoolV1.sol\":21105:21638  function transferRewardToReserve(uint256 totalPrize) internal returns(uint256){... */\n    tag_291:\n        /* \"stETHPoolV1.sol\":21175:21182  uint256 */\n      0x00\n        /* \"stETHPoolV1.sol\":21232:21248  registryContract */\n      dup1\n      sload\n        /* \"stETHPoolV1.sol\":21218:21269  IRoleRegistry(registryContract).getReserveAddress() */\n      0x40\n      dup1\n      mload\n      shl(0xe1, 0x4cb06ba1)\n      dup2\n      mstore\n      swap1\n      mload\n        /* \"stETHPoolV1.sol\":21175:21182  uint256 */\n      dup4\n      swap3\n      sub(shl(0xa0, 0x01), 0x01)\n        /* \"stETHPoolV1.sol\":21232:21248  registryContract */\n      and\n      swap2\n        /* \"stETHPoolV1.sol\":21218:21267  IRoleRegistry(registryContract).getReserveAddress */\n      0x9960d742\n      swap2\n        /* \"stETHPoolV1.sol\":21218:21269  IRoleRegistry(registryContract).getReserveAddress() */\n      0x04\n      dup1\n      dup4\n      add\n      swap3\n      0x20\n      swap3\n      swap2\n      swap1\n      dup3\n      swap1\n      sub\n      add\n      dup2\n        /* \"stETHPoolV1.sol\":21232:21248  registryContract */\n      dup7\n        /* \"stETHPoolV1.sol\":21218:21269  IRoleRegistry(registryContract).getReserveAddress() */\n      gas\n      staticcall\n      iszero\n      dup1\n      iszero\n      tag_535\n      jumpi\n      returndatasize\n      0x00\n      dup1\n      returndatacopy\n      revert(0x00, returndatasize)\n    tag_535:\n      pop\n      pop\n      pop\n      pop\n      mload(0x40)\n      returndatasize\n      not(0x1f)\n      0x1f\n      dup3\n      add\n      and\n      dup3\n      add\n      dup1\n      0x40\n      mstore\n      pop\n      dup2\n      add\n      swap1\n      tag_536\n      swap2\n      swap1\n      tag_161\n      jump\t// in\n    tag_536:\n        /* \"stETHPoolV1.sol\":21316:21330  TokentoDeposit */\n      sload(0x0f)\n        /* \"stETHPoolV1.sol\":21309:21357  IERC20(TokentoDeposit).balanceOf(reserveAddress) */\n      mload(0x40)\n      shl(0xe0, 0x70a08231)\n      dup2\n      mstore\n      sub(shl(0xa0, 0x01), 0x01)\n        /* \"#utility.yul\":1244:1276   */\n      dup1\n      dup5\n      and\n        /* \"stETHPoolV1.sol\":21309:21357  IERC20(TokentoDeposit).balanceOf(reserveAddress) */\n      0x04\n      dup4\n      add\n        /* \"#utility.yul\":1226:1277   */\n      mstore\n        /* \"stETHPoolV1.sol\":21193:21269  address reserveAddress = IRoleRegistry(registryContract).getReserveAddress() */\n      swap3\n      swap4\n      pop\n        /* \"stETHPoolV1.sol\":21279:21306  uint256 beforeUpdateBalance */\n      0x00\n      swap3\n        /* \"stETHPoolV1.sol\":21316:21330  TokentoDeposit */\n      swap1\n      swap2\n      and\n      swap1\n        /* \"stETHPoolV1.sol\":21309:21341  IERC20(TokentoDeposit).balanceOf */\n      0x70a08231\n      swap1\n        /* \"#utility.yul\":1199:1217   */\n      0x24\n      add\n        /* \"stETHPoolV1.sol\":21309:21357  IERC20(TokentoDeposit).balanceOf(reserveAddress) */\n      0x20\n      mload(0x40)\n      dup1\n      dup4\n      sub\n      dup2\n      dup7\n      gas\n      staticcall\n      iszero\n      dup1\n      iszero\n      tag_539\n      jumpi\n      returndatasize\n      0x00\n      dup1\n      returndatacopy\n      revert(0x00, returndatasize)\n    tag_539:\n      pop\n      pop\n      pop\n      pop\n      mload(0x40)\n      returndatasize\n      not(0x1f)\n      0x1f\n      dup3\n      add\n      and\n      dup3\n      add\n      dup1\n      0x40\n      mstore\n      pop\n      dup2\n      add\n      swap1\n      tag_540\n      swap2\n      swap1\n      tag_472\n      jump\t// in\n    tag_540:\n        /* \"stETHPoolV1.sol\":21374:21388  TokentoDeposit */\n      sload(0x0f)\n        /* \"stETHPoolV1.sol\":21279:21357  uint256 beforeUpdateBalance = IERC20(TokentoDeposit).balanceOf(reserveAddress) */\n      swap1\n      swap2\n      pop\n        /* \"stETHPoolV1.sol\":21367:21429  IERC20(TokentoDeposit).safeTransfer(reserveAddress,totalPrize) */\n      tag_541\n      swap1\n      sub(shl(0xa0, 0x01), 0x01)\n        /* \"stETHPoolV1.sol\":21374:21388  TokentoDeposit */\n      and\n        /* \"stETHPoolV1.sol\":21403:21417  reserveAddress */\n      dup4\n        /* \"stETHPoolV1.sol\":21418:21428  totalPrize */\n      dup7\n        /* \"stETHPoolV1.sol\":21367:21402  IERC20(TokentoDeposit).safeTransfer */\n      tag_542\n        /* \"stETHPoolV1.sol\":21367:21429  IERC20(TokentoDeposit).safeTransfer(reserveAddress,totalPrize) */\n      jump\t// in\n    tag_541:\n        /* \"stETHPoolV1.sol\":21475:21489  TokentoDeposit */\n      sload(0x0f)\n        /* \"stETHPoolV1.sol\":21468:21516  IERC20(TokentoDeposit).balanceOf(reserveAddress) */\n      mload(0x40)\n      shl(0xe0, 0x70a08231)\n      dup2\n      mstore\n      sub(shl(0xa0, 0x01), 0x01)\n        /* \"#utility.yul\":1244:1276   */\n      dup5\n      dup2\n      and\n        /* \"stETHPoolV1.sol\":21468:21516  IERC20(TokentoDeposit).balanceOf(reserveAddress) */\n      0x04\n      dup4\n      add\n        /* \"#utility.yul\":1226:1277   */\n      mstore\n        /* \"stETHPoolV1.sol\":21439:21465  uint256 afterUpdateBalance */\n      0x00\n      swap3\n        /* \"stETHPoolV1.sol\":21475:21489  TokentoDeposit */\n      and\n      swap1\n        /* \"stETHPoolV1.sol\":21468:21500  IERC20(TokentoDeposit).balanceOf */\n      0x70a08231\n      swap1\n        /* \"#utility.yul\":1199:1217   */\n      0x24\n      add\n        /* \"stETHPoolV1.sol\":21468:21516  IERC20(TokentoDeposit).balanceOf(reserveAddress) */\n      0x20\n      mload(0x40)\n      dup1\n      dup4\n      sub\n      dup2\n      dup7\n      gas\n      staticcall\n      iszero\n      dup1\n      iszero\n      tag_545\n      jumpi\n      returndatasize\n      0x00\n      dup1\n      returndatacopy\n      revert(0x00, returndatasize)\n    tag_545:\n      pop\n      pop\n      pop\n      pop\n      mload(0x40)\n      returndatasize\n      not(0x1f)\n      0x1f\n      dup3\n      add\n      and\n      dup3\n      add\n      dup1\n      0x40\n      mstore\n      pop\n      dup2\n      add\n      swap1\n      tag_546\n      swap2\n      swap1\n      tag_472\n      jump\t// in\n    tag_546:\n        /* \"stETHPoolV1.sol\":21439:21516  uint256 afterUpdateBalance = IERC20(TokentoDeposit).balanceOf(reserveAddress) */\n      swap1\n      pop\n        /* \"stETHPoolV1.sol\":21526:21551  uint256 changeAfterUpdate */\n      0x00\n        /* \"stETHPoolV1.sol\":21554:21597  afterUpdateBalance.sub(beforeUpdateBalance) */\n      tag_547\n        /* \"stETHPoolV1.sol\":21439:21516  uint256 afterUpdateBalance = IERC20(TokentoDeposit).balanceOf(reserveAddress) */\n      dup3\n        /* \"stETHPoolV1.sol\":21577:21596  beforeUpdateBalance */\n      dup5\n        /* \"stETHPoolV1.sol\":21554:21576  afterUpdateBalance.sub */\n      tag_326\n        /* \"stETHPoolV1.sol\":21554:21597  afterUpdateBalance.sub(beforeUpdateBalance) */\n      jump\t// in\n    tag_547:\n        /* \"stETHPoolV1.sol\":21526:21597  uint256 changeAfterUpdate = afterUpdateBalance.sub(beforeUpdateBalance) */\n      swap7\n        /* \"stETHPoolV1.sol\":21105:21638  function transferRewardToReserve(uint256 totalPrize) internal returns(uint256){... */\n      swap6\n      pop\n      pop\n      pop\n      pop\n      pop\n      pop\n      jump\t// out\n        /* \"@openzeppelin/contracts/utils/math/SafeMath.sol\":3465:3561  function mul(uint256 a, uint256 b) internal pure returns (uint256) {... */\n    tag_294:\n        /* \"@openzeppelin/contracts/utils/math/SafeMath.sol\":3523:3530  uint256 */\n      0x00\n        /* \"@openzeppelin/contracts/utils/math/SafeMath.sol\":3549:3554  a * b */\n      tag_325\n        /* \"@openzeppelin/contracts/utils/math/SafeMath.sol\":3553:3554  b */\n      dup3\n        /* \"@openzeppelin/contracts/utils/math/SafeMath.sol\":3549:3550  a */\n      dup5\n        /* \"@openzeppelin/contracts/utils/math/SafeMath.sol\":3549:3554  a * b */\n      tag_550\n      jump\t// in\n        /* \"@openzeppelin/contracts/utils/math/SafeMath.sol\":3850:3946  function div(uint256 a, uint256 b) internal pure returns (uint256) {... */\n    tag_295:\n        /* \"@openzeppelin/contracts/utils/math/SafeMath.sol\":3908:3915  uint256 */\n      0x00\n        /* \"@openzeppelin/contracts/utils/math/SafeMath.sol\":3934:3939  a / b */\n      tag_325\n        /* \"@openzeppelin/contracts/utils/math/SafeMath.sol\":3938:3939  b */\n      dup3\n        /* \"@openzeppelin/contracts/utils/math/SafeMath.sol\":3934:3935  a */\n      dup5\n        /* \"@openzeppelin/contracts/utils/math/SafeMath.sol\":3934:3939  a / b */\n      tag_553\n      jump\t// in\n        /* \"stETHPoolV1.sol\":22272:22934  function setClaimableRewards(uint256 epochNumber,address[] memory winners, uint256[] memory PrizeInOrder) internal{... */\n    tag_320:\n        /* \"stETHPoolV1.sol\":22420:22434  winners.length */\n      dup2\n      mload\n        /* \"stETHPoolV1.sol\":22396:22417  uint256 winnersLength */\n      0x00\n        /* \"stETHPoolV1.sol\":22444:22928  for(uint i=0; i <winnersLength;i++){... */\n    tag_555:\n        /* \"stETHPoolV1.sol\":22461:22474  winnersLength */\n      dup2\n        /* \"stETHPoolV1.sol\":22458:22459  i */\n      dup2\n        /* \"stETHPoolV1.sol\":22458:22474  i <winnersLength */\n      lt\n        /* \"stETHPoolV1.sol\":22444:22928  for(uint i=0; i <winnersLength;i++){... */\n      iszero\n      tag_525\n      jumpi\n        /* \"stETHPoolV1.sol\":22538:22550  PrizeInOrder */\n      dup3\n        /* \"stETHPoolV1.sol\":22551:22552  i */\n      dup2\n        /* \"stETHPoolV1.sol\":22538:22553  PrizeInOrder[i] */\n      dup2\n      mload\n      dup2\n      lt\n      tag_559\n      jumpi\n      tag_559\n      tag_151\n      jump\t// in\n    tag_559:\n      0x20\n      mul\n      0x20\n      add\n      add\n      mload\n        /* \"stETHPoolV1.sol\":22493:22512  claimableRewardData */\n      0x06\n        /* \"stETHPoolV1.sol\":22493:22524  claimableRewardData[winners[i]] */\n      0x00\n        /* \"stETHPoolV1.sol\":22513:22520  winners */\n      dup7\n        /* \"stETHPoolV1.sol\":22521:22522  i */\n      dup5\n        /* \"stETHPoolV1.sol\":22513:22523  winners[i] */\n      dup2\n      mload\n      dup2\n      lt\n      tag_561\n      jumpi\n      tag_561\n      tag_151\n      jump\t// in\n    tag_561:\n      0x20\n      mul\n      0x20\n      add\n      add\n      mload\n      sub(shl(0xa0, 0x01), 0x01)\n        /* \"stETHPoolV1.sol\":22493:22524  claimableRewardData[winners[i]] */\n      and\n      sub(shl(0xa0, 0x01), 0x01)\n      and\n      dup2\n      mstore\n      0x20\n      add\n      swap1\n      dup2\n      mstore\n      0x20\n      add\n      0x00\n      keccak256\n        /* \"stETHPoolV1.sol\":22493:22534  claimableRewardData[winners[i]].claimable */\n      0x00\n      add\n      0x00\n        /* \"stETHPoolV1.sol\":22493:22553  claimableRewardData[winners[i]].claimable += PrizeInOrder[i] */\n      dup3\n      dup3\n      sload\n      tag_562\n      swap2\n      swap1\n      tag_497\n      jump\t// in\n    tag_562:\n      swap3\n      pop\n      pop\n      dup2\n      swap1\n      sstore\n      pop\n        /* \"stETHPoolV1.sol\":22567:22586  claimableRewardData */\n      0x06\n        /* \"stETHPoolV1.sol\":22567:22598  claimableRewardData[winners[i]] */\n      0x00\n        /* \"stETHPoolV1.sol\":22587:22594  winners */\n      dup6\n        /* \"stETHPoolV1.sol\":22595:22596  i */\n      dup4\n        /* \"stETHPoolV1.sol\":22587:22597  winners[i] */\n      dup2\n      mload\n      dup2\n      lt\n      tag_564\n      jumpi\n      tag_564\n      tag_151\n      jump\t// in\n    tag_564:\n      0x20\n      mul\n      0x20\n      add\n      add\n      mload\n      sub(shl(0xa0, 0x01), 0x01)\n        /* \"stETHPoolV1.sol\":22567:22598  claimableRewardData[winners[i]] */\n      and\n      sub(shl(0xa0, 0x01), 0x01)\n      and\n      dup2\n      mstore\n      0x20\n      add\n      swap1\n      dup2\n      mstore\n      0x20\n      add\n      0x00\n      keccak256\n        /* \"stETHPoolV1.sol\":22567:22617  claimableRewardData[winners[i]].rewardHistoryArray */\n      0x01\n      add\n        /* \"stETHPoolV1.sol\":22636:22810  rewardHistory(... */\n      mload(0x40)\n      dup1\n      0x60\n      add\n      0x40\n      mstore\n      dup1\n        /* \"stETHPoolV1.sol\":22698:22709  epochNumber */\n      dup8\n        /* \"stETHPoolV1.sol\":22636:22810  rewardHistory(... */\n      dup2\n      mstore\n      0x20\n      add\n        /* \"stETHPoolV1.sol\":22737:22745  i.add(1) */\n      tag_565\n        /* \"stETHPoolV1.sol\":22743:22744  1 */\n      0x01\n        /* \"stETHPoolV1.sol\":22737:22738  i */\n      dup6\n        /* \"stETHPoolV1.sol\":22737:22742  i.add */\n      tag_216\n      swap1\n        /* \"stETHPoolV1.sol\":22737:22745  i.add(1) */\n      swap2\n      swap1\n      0xffffffff\n      and\n      jump\t// in\n    tag_565:\n        /* \"stETHPoolV1.sol\":22636:22810  rewardHistory(... */\n      dup2\n      mstore\n      0x20\n      add\n        /* \"stETHPoolV1.sol\":22776:22788  PrizeInOrder */\n      dup6\n        /* \"stETHPoolV1.sol\":22789:22790  i */\n      dup5\n        /* \"stETHPoolV1.sol\":22776:22791  PrizeInOrder[i] */\n      dup2\n      mload\n      dup2\n      lt\n      tag_567\n      jumpi\n      tag_567\n      tag_151\n      jump\t// in\n    tag_567:\n      0x20\n      swap1\n      dup2\n      mul\n      swap2\n      swap1\n      swap2\n      add\n      dup2\n      add\n      mload\n        /* \"stETHPoolV1.sol\":22636:22810  rewardHistory(... */\n      swap1\n      swap2\n      mstore\n        /* \"stETHPoolV1.sol\":22567:22824  claimableRewardData[winners[i]].rewardHistoryArray.push(... */\n      dup3\n      sload\n      0x01\n      dup2\n      dup2\n      add\n      dup6\n      sstore\n      0x00\n      swap5\n      dup6\n      mstore\n      dup3\n      dup6\n      keccak256\n      dup5\n      mload\n      0x03\n      swap1\n      swap4\n      mul\n      add\n      swap2\n      dup3\n      sstore\n      swap2\n      dup4\n      add\n      mload\n      swap2\n      dup2\n      add\n      swap2\n      swap1\n      swap2\n      sstore\n      0x40\n      swap1\n      swap2\n      add\n      mload\n      0x02\n      swap1\n      swap2\n      add\n      sstore\n        /* \"stETHPoolV1.sol\":22858:22868  winners[i] */\n      dup5\n      mload\n        /* \"stETHPoolV1.sol\":22838:22857  claimableRewardData */\n      0x06\n      swap2\n      swap1\n        /* \"stETHPoolV1.sol\":22858:22865  winners */\n      dup7\n      swap1\n        /* \"stETHPoolV1.sol\":22866:22867  i */\n      dup5\n      swap1\n        /* \"stETHPoolV1.sol\":22858:22868  winners[i] */\n      dup2\n      lt\n      tag_570\n      jumpi\n      tag_570\n      tag_151\n      jump\t// in\n    tag_570:\n      0x20\n      swap1\n      dup2\n      mul\n      swap2\n      swap1\n      swap2\n      add\n      dup2\n      add\n      mload\n      sub(shl(0xa0, 0x01), 0x01)\n        /* \"stETHPoolV1.sol\":22838:22869  claimableRewardData[winners[i]] */\n      and\n      dup3\n      mstore\n      dup2\n      dup2\n      add\n      swap3\n      swap1\n      swap3\n      mstore\n      0x40\n      add\n      0x00\n      swap1\n      dup2\n      keccak256\n        /* \"stETHPoolV1.sol\":22838:22899  claimableRewardData[winners[i]].temporaryNotClaimedEpochArray */\n      0x02\n      add\n        /* \"stETHPoolV1.sol\":22838:22917  claimableRewardData[winners[i]].temporaryNotClaimedEpochArray.push(epochNumber) */\n      dup1\n      sload\n      0x01\n      dup2\n      add\n      dup3\n      sstore\n      swap1\n      dup3\n      mstore\n      swap2\n      swap1\n      keccak256\n      add\n      dup6\n      swap1\n      sstore\n        /* \"stETHPoolV1.sol\":22475:22478  i++ */\n      dup1\n      tag_572\n      dup2\n      tag_199\n      jump\t// in\n    tag_572:\n      swap2\n      pop\n      pop\n        /* \"stETHPoolV1.sol\":22444:22928  for(uint i=0; i <winnersLength;i++){... */\n      jump(tag_555)\n        /* \"@openzeppelin/contracts/utils/math/SafeMath.sol\":3122:3218  function sub(uint256 a, uint256 b) internal pure returns (uint256) {... */\n    tag_326:\n        /* \"@openzeppelin/contracts/utils/math/SafeMath.sol\":3180:3187  uint256 */\n      0x00\n        /* \"@openzeppelin/contracts/utils/math/SafeMath.sol\":3206:3211  a - b */\n      tag_325\n        /* \"@openzeppelin/contracts/utils/math/SafeMath.sol\":3210:3211  b */\n      dup3\n        /* \"@openzeppelin/contracts/utils/math/SafeMath.sol\":3206:3207  a */\n      dup5\n        /* \"@openzeppelin/contracts/utils/math/SafeMath.sol\":3206:3211  a - b */\n      tag_420\n      jump\t// in\n        /* \"stETHPoolV1.sol\":4011:4126  function _transferRegistryAddr(address registryAddress) internal{... */\n    tag_347:\n        /* \"stETHPoolV1.sol\":4085:4101  registryContract */\n      0x00\n        /* \"stETHPoolV1.sol\":4085:4119  registryContract = registryAddress */\n      dup1\n      sload\n      not(sub(shl(0xa0, 0x01), 0x01))\n      and\n      sub(shl(0xa0, 0x01), 0x01)\n      swap3\n      swap1\n      swap3\n      and\n      swap2\n      swap1\n      swap2\n      or\n      swap1\n      sstore\n        /* \"stETHPoolV1.sol\":4011:4126  function _transferRegistryAddr(address registryAddress) internal{... */\n      jump\t// out\n        /* \"stETHPoolV1.sol\":9523:9649  function sendTokenToMsgsender(uint256 amount) internal{... */\n    tag_441:\n        /* \"stETHPoolV1.sol\":9594:9608  TokentoDeposit */\n      sload(0x0f)\n        /* \"stETHPoolV1.sol\":9587:9642  IERC20(TokentoDeposit).safeTransfer(msg.sender, amount) */\n      tag_577\n      swap1\n      sub(shl(0xa0, 0x01), 0x01)\n        /* \"stETHPoolV1.sol\":9594:9608  TokentoDeposit */\n      and\n        /* \"stETHPoolV1.sol\":9623:9633  msg.sender */\n      caller\n        /* \"stETHPoolV1.sol\":9635:9641  amount */\n      dup4\n        /* \"stETHPoolV1.sol\":9587:9622  IERC20(TokentoDeposit).safeTransfer */\n      tag_542\n        /* \"stETHPoolV1.sol\":9587:9642  IERC20(TokentoDeposit).safeTransfer(msg.sender, amount) */\n      jump\t// in\n    tag_577:\n        /* \"stETHPoolV1.sol\":9523:9649  function sendTokenToMsgsender(uint256 amount) internal{... */\n      pop\n      jump\t// out\n        /* \"@openzeppelin/contracts/token/ERC20/utils/SafeERC20.sol\":1355:1558  function safeTransferFrom(IERC20 token, address from, address to, uint256 value) internal {... */\n    tag_513:\n        /* \"@openzeppelin/contracts/token/ERC20/utils/SafeERC20.sol\":1482:1550  abi.encodeWithSelector(token.transferFrom.selector, from, to, value) */\n      mload(0x40)\n      sub(shl(0xa0, 0x01), 0x01)\n        /* \"#utility.yul\":15374:15389   */\n      dup1\n      dup6\n      and\n        /* \"@openzeppelin/contracts/token/ERC20/utils/SafeERC20.sol\":1482:1550  abi.encodeWithSelector(token.transferFrom.selector, from, to, value) */\n      0x24\n      dup4\n      add\n        /* \"#utility.yul\":15356:15390   */\n      mstore\n        /* \"#utility.yul\":15426:15441   */\n      dup4\n      and\n        /* \"#utility.yul\":15406:15424   */\n      0x44\n      dup3\n      add\n        /* \"#utility.yul\":15399:15442   */\n      mstore\n        /* \"#utility.yul\":15458:15476   */\n      0x64\n      dup2\n      add\n        /* \"#utility.yul\":15451:15485   */\n      dup3\n      swap1\n      mstore\n        /* \"@openzeppelin/contracts/token/ERC20/utils/SafeERC20.sol\":1455:1551  _callOptionalReturn(token, abi.encodeWithSelector(token.transferFrom.selector, from, to, value)) */\n      tag_532\n      swap1\n        /* \"@openzeppelin/contracts/token/ERC20/utils/SafeERC20.sol\":1475:1480  token */\n      dup6\n      swap1\n      shl(0xe0, 0x23b872dd)\n        /* \"@openzeppelin/contracts/token/ERC20/utils/SafeERC20.sol\":1505:1532  token.transferFrom.selector */\n      swap1\n        /* \"#utility.yul\":15291:15309   */\n      0x84\n      add\n        /* \"@openzeppelin/contracts/token/ERC20/utils/SafeERC20.sol\":1482:1550  abi.encodeWithSelector(token.transferFrom.selector, from, to, value) */\n    tag_580:\n      0x40\n      dup1\n      mload\n      not(0x1f)\n      dup2\n      dup5\n      sub\n      add\n      dup2\n      mstore\n      swap2\n      swap1\n      mstore\n      0x20\n      dup2\n      add\n      dup1\n      mload\n      sub(shl(0xe0, 0x01), 0x01)\n      and\n      not(sub(shl(0xe0, 0x01), 0x01))\n      swap1\n      swap4\n      and\n      swap3\n      swap1\n      swap3\n      or\n      swap1\n      swap2\n      mstore\n        /* \"@openzeppelin/contracts/token/ERC20/utils/SafeERC20.sol\":1455:1474  _callOptionalReturn */\n      tag_582\n        /* \"@openzeppelin/contracts/token/ERC20/utils/SafeERC20.sol\":1455:1551  _callOptionalReturn(token, abi.encodeWithSelector(token.transferFrom.selector, from, to, value)) */\n      jump\t// in\n        /* \"stETHPoolV1.sol\":8648:9056  function registerNewUser(address user) internal{... */\n    tag_523:\n        /* \"stETHPoolV1.sol\":8721:8722  1 */\n      0x01\n        /* \"stETHPoolV1.sol\":8705:8717  amountOfUser */\n      dup1\n      0x00\n        /* \"stETHPoolV1.sol\":8705:8722  amountOfUser += 1 */\n      dup3\n      dup3\n      sload\n      tag_584\n      swap2\n      swap1\n      tag_497\n      jump\t// in\n    tag_584:\n      swap1\n      swap2\n      sstore\n      pop\n      pop\n        /* \"stETHPoolV1.sol\":8747:8759  amountOfUser */\n      0x01\n      dup1\n      sload\n      sub(shl(0xa0, 0x01), 0x01)\n        /* \"stETHPoolV1.sol\":8732:8744  userID[user] */\n      swap3\n      swap1\n      swap3\n      and\n      0x00\n      dup2\n      dup2\n      mstore\n        /* \"stETHPoolV1.sol\":8732:8738  userID */\n      0x03\n        /* \"stETHPoolV1.sol\":8732:8744  userID[user] */\n      0x20\n      dup2\n      dup2\n      mstore\n      0x40\n      dup1\n      dup5\n      keccak256\n        /* \"stETHPoolV1.sol\":8732:8759  userID[user] = amountOfUser */\n      dup8\n      swap1\n      sstore\n        /* \"stETHPoolV1.sol\":8814:8840  userDepositInfo[newUserID] */\n      swap6\n      dup4\n      mstore\n        /* \"stETHPoolV1.sol\":8814:8829  userDepositInfo */\n      0x02\n        /* \"stETHPoolV1.sol\":8814:8840  userDepositInfo[newUserID] */\n      swap1\n      dup2\n      swap1\n      mstore\n      swap5\n      dup3\n      keccak256\n        /* \"stETHPoolV1.sol\":8814:8859  userDepositInfo[newUserID].userAddress = user */\n      dup1\n      sload\n      not(sub(shl(0xa0, 0x01), 0x01))\n      and\n      swap1\n      swap4\n      or\n      dup4\n      sstore\n        /* \"stETHPoolV1.sol\":8869:8909  userDepositInfo[newUserID].DepositAmount */\n      swap3\n      dup3\n      add\n        /* \"stETHPoolV1.sol\":8869:8913  userDepositInfo[newUserID].DepositAmount = 0 */\n      sstore\n        /* \"stETHPoolV1.sol\":8967:8982  block.timestamp */\n      timestamp\n        /* \"stETHPoolV1.sol\":8923:8964  userDepositInfo[newUserID].registeredDate */\n      swap3\n      dup2\n      add\n        /* \"stETHPoolV1.sol\":8923:8982  userDepositInfo[newUserID].registeredDate = block.timestamp */\n      dup4\n      swap1\n      sstore\n        /* \"stETHPoolV1.sol\":8992:9030  userDepositInfo[newUserID].Lastupdated */\n      add\n        /* \"stETHPoolV1.sol\":8992:9048  userDepositInfo[newUserID].Lastupdated = block.timestamp */\n      sstore\n        /* \"stETHPoolV1.sol\":8648:9056  function registerNewUser(address user) internal{... */\n      jump\t// out\n        /* \"stETHPoolV1.sol\":5734:7018  function _proceedUpdate(uint256 userIDnow, uint256 amount, bool isDeposit) internal{... */\n    tag_526:\n        /* \"stETHPoolV1.sol\":5827:5854  uint256 beforeUpdateBalance */\n      0x00\n        /* \"stETHPoolV1.sol\":5857:5883  userDepositInfo[userIDnow] */\n      dup4\n      dup2\n      mstore\n        /* \"stETHPoolV1.sol\":5857:5872  userDepositInfo */\n      0x02\n        /* \"stETHPoolV1.sol\":5857:5883  userDepositInfo[userIDnow] */\n      0x20\n      mstore\n      0x40\n      swap1\n      keccak256\n        /* \"stETHPoolV1.sol\":5857:5897  userDepositInfo[userIDnow].DepositAmount */\n      0x01\n      add\n      sload\n        /* \"stETHPoolV1.sol\":5907:6246  if(isDeposit){... */\n      dup2\n      iszero\n      tag_587\n      jumpi\n        /* \"stETHPoolV1.sol\":5934:5960  userDepositInfo[userIDnow] */\n      0x00\n      dup5\n      dup2\n      mstore\n        /* \"stETHPoolV1.sol\":5934:5949  userDepositInfo */\n      0x02\n        /* \"stETHPoolV1.sol\":5934:5960  userDepositInfo[userIDnow] */\n      0x20\n      mstore\n      0x40\n      dup2\n      keccak256\n        /* \"stETHPoolV1.sol\":5934:5974  userDepositInfo[userIDnow].DepositAmount */\n      0x01\n      add\n        /* \"stETHPoolV1.sol\":5934:5984  userDepositInfo[userIDnow].DepositAmount += amount */\n      dup1\n      sload\n        /* \"stETHPoolV1.sol\":5978:5984  amount */\n      dup6\n      swap3\n        /* \"stETHPoolV1.sol\":5934:5960  userDepositInfo[userIDnow] */\n      swap1\n        /* \"stETHPoolV1.sol\":5934:5984  userDepositInfo[userIDnow].DepositAmount += amount */\n      tag_588\n      swap1\n        /* \"stETHPoolV1.sol\":5978:5984  amount */\n      dup5\n      swap1\n        /* \"stETHPoolV1.sol\":5934:5984  userDepositInfo[userIDnow].DepositAmount += amount */\n      tag_497\n      jump\t// in\n    tag_588:\n      swap3\n      pop\n      pop\n      dup2\n      swap1\n      sstore\n      pop\n        /* \"stETHPoolV1.sol\":6009:6015  amount */\n      dup3\n        /* \"stETHPoolV1.sol\":5998:6005  poolTVL */\n      0x08\n      0x00\n        /* \"stETHPoolV1.sol\":5998:6015  poolTVL += amount */\n      dup3\n      dup3\n      sload\n      tag_589\n      swap2\n      swap1\n      tag_497\n      jump\t// in\n    tag_589:\n      swap1\n      swap2\n      sstore\n      pop\n        /* \"stETHPoolV1.sol\":5907:6246  if(isDeposit){... */\n      tag_591\n      swap1\n      pop\n      jump\n    tag_587:\n        /* \"stETHPoolV1.sol\":6043:6061  isDeposit == false */\n      dup2\n      iszero\n      iszero\n        /* \"stETHPoolV1.sol\":6056:6061  false */\n      0x00\n        /* \"stETHPoolV1.sol\":6043:6061  isDeposit == false */\n      sub\n        /* \"stETHPoolV1.sol\":6040:6246  if(isDeposit == false){... */\n      tag_591\n      jumpi\n        /* \"stETHPoolV1.sol\":6089:6115  userDepositInfo[userIDnow] */\n      0x00\n      dup5\n      dup2\n      mstore\n        /* \"stETHPoolV1.sol\":6089:6104  userDepositInfo */\n      0x02\n        /* \"stETHPoolV1.sol\":6089:6115  userDepositInfo[userIDnow] */\n      0x20\n      mstore\n      0x40\n      swap1\n      keccak256\n        /* \"stETHPoolV1.sol\":6089:6129  userDepositInfo[userIDnow].DepositAmount */\n      0x01\n      add\n      sload\n        /* \"stETHPoolV1.sol\":6080:6129  amount<= userDepositInfo[userIDnow].DepositAmount */\n      dup4\n      gt\n      iszero\n        /* \"stETHPoolV1.sol\":6072:6148  require(amount<= userDepositInfo[userIDnow].DepositAmount, \"Invalid amount\") */\n      tag_592\n      jumpi\n      mload(0x40)\n      shl(0xe5, 0x461bcd)\n      dup2\n      mstore\n        /* \"#utility.yul\":13533:13535   */\n      0x20\n        /* \"stETHPoolV1.sol\":6072:6148  require(amount<= userDepositInfo[userIDnow].DepositAmount, \"Invalid amount\") */\n      0x04\n      dup3\n      add\n        /* \"#utility.yul\":13515:13536   */\n      mstore\n        /* \"#utility.yul\":13572:13574   */\n      0x0e\n        /* \"#utility.yul\":13552:13570   */\n      0x24\n      dup3\n      add\n        /* \"#utility.yul\":13545:13575   */\n      mstore\n      shl(0x92, 0x125b9d985b1a5908185b5bdd5b9d)\n        /* \"#utility.yul\":13591:13609   */\n      0x44\n      dup3\n      add\n        /* \"#utility.yul\":13584:13628   */\n      mstore\n        /* \"#utility.yul\":13645:13663   */\n      0x64\n      add\n        /* \"stETHPoolV1.sol\":6072:6148  require(amount<= userDepositInfo[userIDnow].DepositAmount, \"Invalid amount\") */\n      tag_163\n        /* \"#utility.yul\":13331:13669   */\n      jump\n        /* \"stETHPoolV1.sol\":6072:6148  require(amount<= userDepositInfo[userIDnow].DepositAmount, \"Invalid amount\") */\n    tag_592:\n        /* \"stETHPoolV1.sol\":6158:6184  userDepositInfo[userIDnow] */\n      0x00\n      dup5\n      dup2\n      mstore\n        /* \"stETHPoolV1.sol\":6158:6173  userDepositInfo */\n      0x02\n        /* \"stETHPoolV1.sol\":6158:6184  userDepositInfo[userIDnow] */\n      0x20\n      mstore\n      0x40\n      dup2\n      keccak256\n        /* \"stETHPoolV1.sol\":6158:6198  userDepositInfo[userIDnow].DepositAmount */\n      0x01\n      add\n        /* \"stETHPoolV1.sol\":6158:6208  userDepositInfo[userIDnow].DepositAmount -= amount */\n      dup1\n      sload\n        /* \"stETHPoolV1.sol\":6202:6208  amount */\n      dup6\n      swap3\n        /* \"stETHPoolV1.sol\":6158:6184  userDepositInfo[userIDnow] */\n      swap1\n        /* \"stETHPoolV1.sol\":6158:6208  userDepositInfo[userIDnow].DepositAmount -= amount */\n      tag_594\n      swap1\n        /* \"stETHPoolV1.sol\":6202:6208  amount */\n      dup5\n      swap1\n        /* \"stETHPoolV1.sol\":6158:6208  userDepositInfo[userIDnow].DepositAmount -= amount */\n      tag_420\n      jump\t// in\n    tag_594:\n      swap3\n      pop\n      pop\n      dup2\n      swap1\n      sstore\n      pop\n        /* \"stETHPoolV1.sol\":6229:6235  amount */\n      dup3\n        /* \"stETHPoolV1.sol\":6218:6225  poolTVL */\n      0x08\n      0x00\n        /* \"stETHPoolV1.sol\":6218:6235  poolTVL -= amount */\n      dup3\n      dup3\n      sload\n      tag_595\n      swap2\n      swap1\n      tag_420\n      jump\t// in\n    tag_595:\n      swap1\n      swap2\n      sstore\n      pop\n      pop\n        /* \"stETHPoolV1.sol\":6040:6246  if(isDeposit == false){... */\n    tag_591:\n        /* \"stETHPoolV1.sol\":6255:6281  uint256 latestUpdatedBlock */\n      0x00\n        /* \"stETHPoolV1.sol\":6284:6310  userDepositInfo[userIDnow] */\n      dup5\n      dup2\n      mstore\n        /* \"stETHPoolV1.sol\":6284:6299  userDepositInfo */\n      0x02\n        /* \"stETHPoolV1.sol\":6284:6310  userDepositInfo[userIDnow] */\n      0x20\n      mstore\n      0x40\n      dup2\n      keccak256\n        /* \"stETHPoolV1.sol\":6284:6322  userDepositInfo[userIDnow].Lastupdated */\n      0x03\n      dup2\n      add\n      dup1\n      sload\n        /* \"stETHPoolV1.sol\":6373:6388  block.timestamp */\n      timestamp\n        /* \"stETHPoolV1.sol\":6332:6388  userDepositInfo[userIDnow].Lastupdated = block.timestamp */\n      swap1\n      swap2\n      sstore\n      0x01\n        /* \"stETHPoolV1.sol\":6427:6467  userDepositInfo[userIDnow].DepositAmount */\n      swap1\n      swap2\n      add\n      sload\n        /* \"stETHPoolV1.sol\":6284:6322  userDepositInfo[userIDnow].Lastupdated */\n      swap1\n      swap2\n        /* \"stETHPoolV1.sol\":6500:6516  getLatestEpoch() */\n      tag_596\n        /* \"stETHPoolV1.sol\":6500:6514  getLatestEpoch */\n      tag_95\n        /* \"stETHPoolV1.sol\":6500:6516  getLatestEpoch() */\n      jump\t// in\n    tag_596:\n        /* \"stETHPoolV1.sol\":6477:6516  uint256 currentEpoch = getLatestEpoch() */\n      swap1\n      pop\n        /* \"stETHPoolV1.sol\":6526:6561  EpochResult storage getEpochDetails */\n      0x00\n        /* \"stETHPoolV1.sol\":6564:6576  EpochResults */\n      0x0d\n        /* \"stETHPoolV1.sol\":6577:6589  currentEpoch */\n      dup3\n        /* \"stETHPoolV1.sol\":6564:6590  EpochResults[currentEpoch] */\n      dup2\n      sload\n      dup2\n      lt\n      tag_598\n      jumpi\n      tag_598\n      tag_151\n      jump\t// in\n    tag_598:\n      swap1\n      0x00\n      mstore\n      keccak256(0x00, 0x20)\n      swap1\n      0x0e\n      mul\n      add\n        /* \"stETHPoolV1.sol\":6526:6590  EpochResult storage getEpochDetails = EpochResults[currentEpoch] */\n      swap1\n      pop\n        /* \"stETHPoolV1.sol\":6600:6616  uint256 endBlock */\n      0x00\n        /* \"stETHPoolV1.sol\":6619:6681  getEpochDetails.createdTimeStamp.add(getEpochDetails.duration) */\n      tag_600\n        /* \"stETHPoolV1.sol\":6656:6671  getEpochDetails */\n      dup3\n        /* \"stETHPoolV1.sol\":6656:6680  getEpochDetails.duration */\n      0x0b\n      add\n      sload\n        /* \"stETHPoolV1.sol\":6619:6634  getEpochDetails */\n      dup4\n        /* \"stETHPoolV1.sol\":6619:6651  getEpochDetails.createdTimeStamp */\n      0x0c\n      add\n      sload\n        /* \"stETHPoolV1.sol\":6619:6655  getEpochDetails.createdTimeStamp.add */\n      tag_216\n      swap1\n        /* \"stETHPoolV1.sol\":6619:6681  getEpochDetails.createdTimeStamp.add(getEpochDetails.duration) */\n      swap2\n      swap1\n      0xffffffff\n      and\n      jump\t// in\n    tag_600:\n        /* \"stETHPoolV1.sol\":6600:6681  uint256 endBlock = getEpochDetails.createdTimeStamp.add(getEpochDetails.duration) */\n      swap1\n      pop\n        /* \"stETHPoolV1.sol\":6718:6726  endBlock */\n      dup1\n        /* \"stETHPoolV1.sol\":6699:6714  block.timestamp */\n      timestamp\n        /* \"stETHPoolV1.sol\":6699:6726  block.timestamp <= endBlock */\n      gt\n      iszero\n        /* \"stETHPoolV1.sol\":6691:6808  require(block.timestamp <= endBlock, \"Contract is in the process of updating. Please wait for a while and try again\") */\n      tag_601\n      jumpi\n      mload(0x40)\n      shl(0xe5, 0x461bcd)\n      dup2\n      mstore\n        /* \"#utility.yul\":15698:15700   */\n      0x20\n        /* \"stETHPoolV1.sol\":6691:6808  require(block.timestamp <= endBlock, \"Contract is in the process of updating. Please wait for a while and try again\") */\n      0x04\n      dup3\n      add\n        /* \"#utility.yul\":15680:15701   */\n      mstore\n        /* \"#utility.yul\":15737:15739   */\n      0x4d\n        /* \"#utility.yul\":15717:15735   */\n      0x24\n      dup3\n      add\n        /* \"#utility.yul\":15710:15740   */\n      mstore\n        /* \"#utility.yul\":15776:15810   */\n      0x436f6e747261637420697320696e207468652070726f63657373206f66207570\n        /* \"#utility.yul\":15756:15774   */\n      0x44\n      dup3\n      add\n        /* \"#utility.yul\":15749:15811   */\n      mstore\n        /* \"#utility.yul\":15847:15881   */\n      0x646174696e672e20506c65617365207761697420666f722061207768696c6520\n        /* \"#utility.yul\":15827:15845   */\n      0x64\n      dup3\n      add\n        /* \"#utility.yul\":15820:15882   */\n      mstore\n      shl(0x99, 0x30b732103a393c9030b3b0b4b7)\n        /* \"#utility.yul\":15898:15917   */\n      0x84\n      dup3\n      add\n        /* \"#utility.yul\":15891:15935   */\n      mstore\n        /* \"#utility.yul\":15952:15971   */\n      0xa4\n      add\n        /* \"stETHPoolV1.sol\":6691:6808  require(block.timestamp <= endBlock, \"Contract is in the process of updating. Please wait for a while and try again\") */\n      tag_163\n        /* \"#utility.yul\":15496:15977   */\n      jump\n        /* \"stETHPoolV1.sol\":6691:6808  require(block.timestamp <= endBlock, \"Contract is in the process of updating. Please wait for a while and try again\") */\n    tag_601:\n        /* \"stETHPoolV1.sol\":8248:8275  changeHistory[currentEpoch] */\n      0x00\n      dup4\n      dup2\n      mstore\n        /* \"stETHPoolV1.sol\":8248:8261  changeHistory */\n      0x05\n        /* \"stETHPoolV1.sol\":8248:8275  changeHistory[currentEpoch] */\n      0x20\n      swap1\n      dup2\n      mstore\n      0x40\n      dup1\n      dup4\n      keccak256\n        /* \"stETHPoolV1.sol\":8248:8286  changeHistory[currentEpoch][userIDnow] */\n      dup13\n      dup5\n      mstore\n      dup3\n      mstore\n      dup1\n      dup4\n      keccak256\n        /* \"stETHPoolV1.sol\":8248:8312  changeHistory[currentEpoch][userIDnow].changedwithinEpoch = true */\n      dup1\n      sload\n      not(0xff)\n      and\n        /* \"stETHPoolV1.sol\":8308:8312  true */\n      0x01\n        /* \"stETHPoolV1.sol\":8248:8312  changeHistory[currentEpoch][userIDnow].changedwithinEpoch = true */\n      swap1\n      dup2\n      or\n      dup3\n      sstore\n        /* \"stETHPoolV1.sol\":8388:8550  ChangeArray(... */\n      dup3\n      mload\n      0x60\n      dup2\n      add\n      dup5\n      mstore\n      dup12\n      dup2\n      mstore\n      dup1\n      dup6\n      add\n      dup11\n      dup2\n      mstore\n        /* \"stETHPoolV1.sol\":8524:8539  block.timestamp */\n      timestamp\n        /* \"stETHPoolV1.sol\":8388:8550  ChangeArray(... */\n      swap5\n      dup3\n      add\n      swap5\n      dup6\n      mstore\n        /* \"stETHPoolV1.sol\":8322:8373  changeHistory[currentEpoch][userIDnow].historyArray */\n      swap3\n      dup3\n      add\n        /* \"stETHPoolV1.sol\":8322:8560  changeHistory[currentEpoch][userIDnow].historyArray.push(... */\n      dup1\n      sload\n      dup1\n      dup5\n      add\n      dup3\n      sstore\n      swap1\n      dup8\n      mstore\n      swap5\n      swap1\n      swap6\n      keccak256\n      swap5\n      mload\n      0x03\n      swap1\n      swap5\n      mul\n      swap1\n      swap5\n      add\n      swap3\n      dup4\n      sstore\n      mload\n      swap3\n      dup3\n      add\n      swap3\n      swap1\n      swap3\n      sstore\n      swap1\n      mload\n      0x02\n      swap1\n      swap2\n      add\n      sstore\n        /* \"stETHPoolV1.sol\":6912:7002  _updateAccumulatedTicket(userIDnow, beforeUpdateBalance, latestUpdatedBlock, currentEpoch) */\n      tag_606\n        /* \"stETHPoolV1.sol\":6937:6946  userIDnow */\n      dup10\n        /* \"stETHPoolV1.sol\":6948:6967  beforeUpdateBalance */\n      dup8\n        /* \"stETHPoolV1.sol\":6969:6987  latestUpdatedBlock */\n      dup8\n        /* \"stETHPoolV1.sol\":6989:7001  currentEpoch */\n      dup7\n        /* \"stETHPoolV1.sol\":6912:6936  _updateAccumulatedTicket */\n      tag_607\n        /* \"stETHPoolV1.sol\":6912:7002  _updateAccumulatedTicket(userIDnow, beforeUpdateBalance, latestUpdatedBlock, currentEpoch) */\n      jump\t// in\n    tag_606:\n        /* \"stETHPoolV1.sol\":5817:7018  {... */\n      pop\n      pop\n      pop\n      pop\n      pop\n      pop\n        /* \"stETHPoolV1.sol\":5734:7018  function _proceedUpdate(uint256 userIDnow, uint256 amount, bool isDeposit) internal{... */\n      pop\n      pop\n      pop\n      jump\t// out\n        /* \"@openzeppelin/contracts/token/ERC20/utils/SafeERC20.sol\":941:1116  function safeTransfer(IERC20 token, address to, uint256 value) internal {... */\n    tag_542:\n        /* \"@openzeppelin/contracts/token/ERC20/utils/SafeERC20.sol\":1050:1108  abi.encodeWithSelector(token.transfer.selector, to, value) */\n      mload(0x40)\n      sub(shl(0xa0, 0x01), 0x01)\n        /* \"#utility.yul\":16174:16206   */\n      dup4\n      and\n        /* \"@openzeppelin/contracts/token/ERC20/utils/SafeERC20.sol\":1050:1108  abi.encodeWithSelector(token.transfer.selector, to, value) */\n      0x24\n      dup3\n      add\n        /* \"#utility.yul\":16156:16207   */\n      mstore\n        /* \"#utility.yul\":16223:16241   */\n      0x44\n      dup2\n      add\n        /* \"#utility.yul\":16216:16250   */\n      dup3\n      swap1\n      mstore\n        /* \"@openzeppelin/contracts/token/ERC20/utils/SafeERC20.sol\":1023:1109  _callOptionalReturn(token, abi.encodeWithSelector(token.transfer.selector, to, value)) */\n      tag_528\n      swap1\n        /* \"@openzeppelin/contracts/token/ERC20/utils/SafeERC20.sol\":1043:1048  token */\n      dup5\n      swap1\n      shl(0xe0, 0xa9059cbb)\n        /* \"@openzeppelin/contracts/token/ERC20/utils/SafeERC20.sol\":1073:1096  token.transfer.selector */\n      swap1\n        /* \"#utility.yul\":16129:16147   */\n      0x64\n      add\n        /* \"@openzeppelin/contracts/token/ERC20/utils/SafeERC20.sol\":1050:1108  abi.encodeWithSelector(token.transfer.selector, to, value) */\n      tag_580\n        /* \"#utility.yul\":15982:16256   */\n      jump\n        /* \"@openzeppelin/contracts/token/ERC20/utils/SafeERC20.sol\":5196:5838  function _callOptionalReturn(IERC20 token, bytes memory data) private {... */\n    tag_582:\n        /* \"@openzeppelin/contracts/token/ERC20/utils/SafeERC20.sol\":5615:5638  bytes memory returndata */\n      0x00\n        /* \"@openzeppelin/contracts/token/ERC20/utils/SafeERC20.sol\":5641:5710  address(token).functionCall(data, \"SafeERC20: low-level call failed\") */\n      tag_613\n        /* \"@openzeppelin/contracts/token/ERC20/utils/SafeERC20.sol\":5669:5673  data */\n      dup3\n        /* \"@openzeppelin/contracts/token/ERC20/utils/SafeERC20.sol\":5641:5710  address(token).functionCall(data, \"SafeERC20: low-level call failed\") */\n      mload(0x40)\n      dup1\n      0x40\n      add\n      0x40\n      mstore\n      dup1\n      0x20\n      dup2\n      mstore\n      0x20\n      add\n      0x5361666545524332303a206c6f772d6c6576656c2063616c6c206661696c6564\n      dup2\n      mstore\n      pop\n        /* \"@openzeppelin/contracts/token/ERC20/utils/SafeERC20.sol\":5649:5654  token */\n      dup6\n      sub(shl(0xa0, 0x01), 0x01)\n        /* \"@openzeppelin/contracts/token/ERC20/utils/SafeERC20.sol\":5641:5668  address(token).functionCall */\n      and\n      tag_614\n      swap1\n        /* \"@openzeppelin/contracts/token/ERC20/utils/SafeERC20.sol\":5641:5710  address(token).functionCall(data, \"SafeERC20: low-level call failed\") */\n      swap3\n      swap2\n      swap1\n      0xffffffff\n      and\n      jump\t// in\n    tag_613:\n        /* \"@openzeppelin/contracts/token/ERC20/utils/SafeERC20.sol\":5615:5710  bytes memory returndata = address(token).functionCall(data, \"SafeERC20: low-level call failed\") */\n      swap1\n      pop\n        /* \"@openzeppelin/contracts/token/ERC20/utils/SafeERC20.sol\":5728:5738  returndata */\n      dup1\n        /* \"@openzeppelin/contracts/token/ERC20/utils/SafeERC20.sol\":5728:5745  returndata.length */\n      mload\n        /* \"@openzeppelin/contracts/token/ERC20/utils/SafeERC20.sol\":5749:5750  0 */\n      0x00\n        /* \"@openzeppelin/contracts/token/ERC20/utils/SafeERC20.sol\":5728:5750  returndata.length == 0 */\n      eq\n        /* \"@openzeppelin/contracts/token/ERC20/utils/SafeERC20.sol\":5728:5784  returndata.length == 0 || abi.decode(returndata, (bool)) */\n      dup1\n      tag_616\n      jumpi\n      pop\n        /* \"@openzeppelin/contracts/token/ERC20/utils/SafeERC20.sol\":5765:5775  returndata */\n      dup1\n        /* \"@openzeppelin/contracts/token/ERC20/utils/SafeERC20.sol\":5754:5784  abi.decode(returndata, (bool)) */\n      dup1\n      0x20\n      add\n      swap1\n      mload\n      dup2\n      add\n      swap1\n      tag_616\n      swap2\n      swap1\n      tag_617\n      jump\t// in\n    tag_616:\n        /* \"@openzeppelin/contracts/token/ERC20/utils/SafeERC20.sol\":5720:5831  require(returndata.length == 0 || abi.decode(returndata, (bool)), \"SafeERC20: ERC20 operation did not succeed\") */\n      tag_528\n      jumpi\n      mload(0x40)\n      shl(0xe5, 0x461bcd)\n      dup2\n      mstore\n        /* \"#utility.yul\":16745:16747   */\n      0x20\n        /* \"@openzeppelin/contracts/token/ERC20/utils/SafeERC20.sol\":5720:5831  require(returndata.length == 0 || abi.decode(returndata, (bool)), \"SafeERC20: ERC20 operation did not succeed\") */\n      0x04\n      dup3\n      add\n        /* \"#utility.yul\":16727:16748   */\n      mstore\n        /* \"#utility.yul\":16784:16786   */\n      0x2a\n        /* \"#utility.yul\":16764:16782   */\n      0x24\n      dup3\n      add\n        /* \"#utility.yul\":16757:16787   */\n      mstore\n        /* \"#utility.yul\":16823:16857   */\n      0x5361666545524332303a204552433230206f7065726174696f6e20646964206e\n        /* \"#utility.yul\":16803:16821   */\n      0x44\n      dup3\n      add\n        /* \"#utility.yul\":16796:16858   */\n      mstore\n      shl(0xb2, 0x1bdd081cdd58d8d95959)\n        /* \"#utility.yul\":16874:16892   */\n      0x64\n      dup3\n      add\n        /* \"#utility.yul\":16867:16907   */\n      mstore\n        /* \"#utility.yul\":16924:16943   */\n      0x84\n      add\n        /* \"@openzeppelin/contracts/token/ERC20/utils/SafeERC20.sol\":5720:5831  require(returndata.length == 0 || abi.decode(returndata, (bool)), \"SafeERC20: ERC20 operation did not succeed\") */\n      tag_163\n        /* \"#utility.yul\":16543:16949   */\n      jump\n        /* \"stETHPoolV1.sol\":7023:8097  function _updateAccumulatedTicket(uint256 userIDnow, uint256 beforeUpdateBalance, uint256 latestUpdatedBlock, uint256 currentEpoch) internal{... */\n    tag_607:\n        /* \"stETHPoolV1.sol\":7206:7234  EpochResult memory epochInfo */\n      0x00\n        /* \"stETHPoolV1.sol\":7237:7249  EpochResults */\n      0x0d\n        /* \"stETHPoolV1.sol\":7250:7262  currentEpoch */\n      dup3\n        /* \"stETHPoolV1.sol\":7237:7263  EpochResults[currentEpoch] */\n      dup2\n      sload\n      dup2\n      lt\n      tag_625\n      jumpi\n      tag_625\n      tag_151\n      jump\t// in\n    tag_625:\n      0x00\n      swap2\n      dup3\n      mstore\n      0x20\n      dup1\n      dup4\n      keccak256\n        /* \"stETHPoolV1.sol\":7206:7263  EpochResult memory epochInfo = EpochResults[currentEpoch] */\n      0x40\n      dup1\n      mload\n      0x0160\n      dup2\n      add\n      dup3\n      mstore\n        /* \"stETHPoolV1.sol\":7237:7263  EpochResults[currentEpoch] */\n      0x0e\n      swap1\n      swap5\n      mul\n      swap1\n      swap2\n      add\n        /* \"stETHPoolV1.sol\":7206:7263  EpochResult memory epochInfo = EpochResults[currentEpoch] */\n      dup1\n      sload\n      sub(shl(0xa0, 0x01), 0x01)\n      swap1\n      dup2\n      and\n      0x0100\n      dup7\n      add\n      swap1\n      dup2\n      mstore\n      0x01\n      dup4\n      add\n      sload\n      0x0120\n      dup8\n      add\n      mstore\n      0x02\n      dup4\n      add\n      sload\n      0xff\n      swap1\n      dup2\n      and\n      iszero\n      iszero\n      0x0140\n      dup9\n      add\n      mstore\n      swap1\n      dup7\n      mstore\n      dup4\n      mload\n      0x60\n      dup2\n      dup2\n      add\n      dup7\n      mstore\n      0x03\n      dup6\n      add\n      sload\n      dup5\n      and\n      dup3\n      mstore\n      0x04\n      dup6\n      add\n      sload\n      dup3\n      dup9\n      add\n      mstore\n      0x05\n      dup6\n      add\n      sload\n      dup4\n      and\n      iszero\n      iszero\n      dup3\n      dup8\n      add\n      mstore\n      dup8\n      dup8\n      add\n      swap2\n      swap1\n      swap2\n      mstore\n      dup5\n      mload\n      dup1\n      dup3\n      add\n      dup7\n      mstore\n      0x06\n      dup6\n      add\n      sload\n      swap1\n      swap4\n      and\n      dup4\n      mstore\n      0x07\n      dup5\n      add\n      sload\n      swap6\n      dup4\n      add\n      swap6\n      swap1\n      swap6\n      mstore\n      0x08\n      dup4\n      add\n      sload\n      dup2\n      and\n      iszero\n      iszero\n      dup3\n      dup6\n      add\n      mstore\n      swap3\n      dup6\n      add\n      mstore\n      0x09\n      dup2\n      add\n      sload\n      swap1\n      swap2\n      and\n      iszero\n      iszero\n      swap2\n      dup4\n      add\n      swap2\n      swap1\n      swap2\n      mstore\n      0x0a\n      dup2\n      add\n      sload\n      0x80\n      dup4\n      add\n      mstore\n      0x0b\n      dup2\n      add\n      sload\n      0xa0\n      dup4\n      add\n      dup2\n      swap1\n      mstore\n      0x0c\n      dup3\n      add\n      sload\n      0xc0\n      dup5\n      add\n      dup2\n      swap1\n      mstore\n      0x0d\n      swap1\n      swap3\n      add\n      sload\n      0xe0\n      dup5\n      add\n      mstore\n      swap2\n      swap4\n      pop\n      swap2\n        /* \"stETHPoolV1.sol\":7237:7263  EpochResults[currentEpoch] */\n      swap1\n        /* \"stETHPoolV1.sol\":7597:7636  epochInfo.duration.add(epochStartBlock) */\n      tag_627\n      swap1\n        /* \"stETHPoolV1.sol\":7206:7263  EpochResult memory epochInfo = EpochResults[currentEpoch] */\n      dup4\n        /* \"stETHPoolV1.sol\":7597:7619  epochInfo.duration.add */\n      tag_216\n        /* \"stETHPoolV1.sol\":7597:7636  epochInfo.duration.add(epochStartBlock) */\n      jump\t// in\n    tag_627:\n        /* \"stETHPoolV1.sol\":7573:7636  uint256 epochEndBlock = epochInfo.duration.add(epochStartBlock) */\n      swap1\n      pop\n        /* \"stETHPoolV1.sol\":7655:7668  uint256 range */\n      0x00\n        /* \"stETHPoolV1.sol\":7700:7715  epochStartBlock */\n      dup3\n        /* \"stETHPoolV1.sol\":7681:7699  latestUpdatedBlock */\n      dup7\n        /* \"stETHPoolV1.sol\":7681:7715  latestUpdatedBlock<epochStartBlock */\n      lt\n        /* \"stETHPoolV1.sol\":7678:7950  if(latestUpdatedBlock<epochStartBlock){... */\n      iszero\n      tag_628\n      jumpi\n        /* \"stETHPoolV1.sol\":7738:7774  block.timestamp.sub(epochStartBlock) */\n      tag_629\n        /* \"stETHPoolV1.sol\":7738:7753  block.timestamp */\n      timestamp\n        /* \"stETHPoolV1.sol\":7758:7773  epochStartBlock */\n      dup5\n        /* \"stETHPoolV1.sol\":7738:7757  block.timestamp.sub */\n      tag_326\n        /* \"stETHPoolV1.sol\":7738:7774  block.timestamp.sub(epochStartBlock) */\n      jump\t// in\n    tag_629:\n        /* \"stETHPoolV1.sol\":7730:7774  range = block.timestamp.sub(epochStartBlock) */\n      swap1\n      pop\n        /* \"stETHPoolV1.sol\":7678:7950  if(latestUpdatedBlock<epochStartBlock){... */\n      jump(tag_632)\n    tag_628:\n        /* \"stETHPoolV1.sol\":7824:7839  epochStartBlock */\n      dup3\n        /* \"stETHPoolV1.sol\":7802:7820  latestUpdatedBlock */\n      dup7\n        /* \"stETHPoolV1.sol\":7802:7839  latestUpdatedBlock >= epochStartBlock */\n      lt\n      iszero\n        /* \"stETHPoolV1.sol\":7802:7877  latestUpdatedBlock >= epochStartBlock && latestUpdatedBlock<= epochEndBlock */\n      dup1\n      iszero\n      tag_631\n      jumpi\n      pop\n        /* \"stETHPoolV1.sol\":7864:7877  epochEndBlock */\n      dup2\n        /* \"stETHPoolV1.sol\":7843:7861  latestUpdatedBlock */\n      dup7\n        /* \"stETHPoolV1.sol\":7843:7877  latestUpdatedBlock<= epochEndBlock */\n      gt\n      iszero\n        /* \"stETHPoolV1.sol\":7802:7877  latestUpdatedBlock >= epochStartBlock && latestUpdatedBlock<= epochEndBlock */\n    tag_631:\n        /* \"stETHPoolV1.sol\":7799:7950  if(latestUpdatedBlock >= epochStartBlock && latestUpdatedBlock<= epochEndBlock){... */\n      iszero\n      tag_632\n      jumpi\n        /* \"stETHPoolV1.sol\":7900:7939  block.timestamp.sub(latestUpdatedBlock) */\n      tag_633\n        /* \"stETHPoolV1.sol\":7900:7915  block.timestamp */\n      timestamp\n        /* \"stETHPoolV1.sol\":7920:7938  latestUpdatedBlock */\n      dup8\n        /* \"stETHPoolV1.sol\":7900:7919  block.timestamp.sub */\n      tag_326\n        /* \"stETHPoolV1.sol\":7900:7939  block.timestamp.sub(latestUpdatedBlock) */\n      jump\t// in\n    tag_633:\n        /* \"stETHPoolV1.sol\":7892:7939  range = block.timestamp.sub(latestUpdatedBlock) */\n      swap1\n      pop\n        /* \"stETHPoolV1.sol\":7799:7950  if(latestUpdatedBlock >= epochStartBlock && latestUpdatedBlock<= epochEndBlock){... */\n    tag_632:\n        /* \"stETHPoolV1.sol\":7959:7984  uint256 accumulatedAmount */\n      0x00\n        /* \"stETHPoolV1.sol\":7987:8017  range.mul(beforeUpdateBalance) */\n      tag_634\n        /* \"stETHPoolV1.sol\":7987:7992  range */\n      dup3\n        /* \"stETHPoolV1.sol\":7997:8016  beforeUpdateBalance */\n      dup10\n        /* \"stETHPoolV1.sol\":7987:7996  range.mul */\n      tag_294\n        /* \"stETHPoolV1.sol\":7987:8017  range.mul(beforeUpdateBalance) */\n      jump\t// in\n    tag_634:\n        /* \"stETHPoolV1.sol\":8027:8058  accumulatedTicket[currentEpoch] */\n      0x00\n      dup8\n      dup2\n      mstore\n        /* \"stETHPoolV1.sol\":8027:8044  accumulatedTicket */\n      0x04\n        /* \"stETHPoolV1.sol\":8027:8058  accumulatedTicket[currentEpoch] */\n      0x20\n      swap1\n      dup2\n      mstore\n      0x40\n      dup1\n      dup4\n      keccak256\n        /* \"stETHPoolV1.sol\":8027:8069  accumulatedTicket[currentEpoch][userIDnow] */\n      dup14\n      dup5\n      mstore\n      swap1\n      swap2\n      mstore\n      dup2\n      keccak256\n        /* \"stETHPoolV1.sol\":8027:8090  accumulatedTicket[currentEpoch][userIDnow] += accumulatedAmount */\n      dup1\n      sload\n        /* \"stETHPoolV1.sol\":7959:8017  uint256 accumulatedAmount = range.mul(beforeUpdateBalance) */\n      swap3\n      swap4\n      pop\n      dup4\n      swap3\n        /* \"stETHPoolV1.sol\":8027:8069  accumulatedTicket[currentEpoch][userIDnow] */\n      swap1\n      swap2\n        /* \"stETHPoolV1.sol\":8027:8058  accumulatedTicket[currentEpoch] */\n      swap1\n        /* \"stETHPoolV1.sol\":8027:8090  accumulatedTicket[currentEpoch][userIDnow] += accumulatedAmount */\n      tag_635\n      swap1\n        /* \"stETHPoolV1.sol\":7959:8017  uint256 accumulatedAmount = range.mul(beforeUpdateBalance) */\n      dup5\n      swap1\n        /* \"stETHPoolV1.sol\":8027:8090  accumulatedTicket[currentEpoch][userIDnow] += accumulatedAmount */\n      tag_497\n      jump\t// in\n    tag_635:\n      swap1\n      swap2\n      sstore\n      pop\n      pop\n      pop\n      pop\n      pop\n      pop\n      pop\n      pop\n      pop\n      pop\n      pop\n        /* \"stETHPoolV1.sol\":7023:8097  function _updateAccumulatedTicket(uint256 userIDnow, uint256 beforeUpdateBalance, uint256 latestUpdatedBlock, uint256 currentEpoch) internal{... */\n      jump\t// out\n        /* \"@openzeppelin/contracts/utils/Address.sol\":4108:4331  function functionCall(... */\n    tag_614:\n        /* \"@openzeppelin/contracts/utils/Address.sol\":4241:4253  bytes memory */\n      0x60\n        /* \"@openzeppelin/contracts/utils/Address.sol\":4272:4324  functionCallWithValue(target, data, 0, errorMessage) */\n      tag_637\n        /* \"@openzeppelin/contracts/utils/Address.sol\":4294:4300  target */\n      dup5\n        /* \"@openzeppelin/contracts/utils/Address.sol\":4302:4306  data */\n      dup5\n        /* \"@openzeppelin/contracts/utils/Address.sol\":4308:4309  0 */\n      0x00\n        /* \"@openzeppelin/contracts/utils/Address.sol\":4311:4323  errorMessage */\n      dup6\n        /* \"@openzeppelin/contracts/utils/Address.sol\":4272:4293  functionCallWithValue */\n      tag_638\n        /* \"@openzeppelin/contracts/utils/Address.sol\":4272:4324  functionCallWithValue(target, data, 0, errorMessage) */\n      jump\t// in\n    tag_637:\n        /* \"@openzeppelin/contracts/utils/Address.sol\":4265:4324  return functionCallWithValue(target, data, 0, errorMessage) */\n      swap5\n        /* \"@openzeppelin/contracts/utils/Address.sol\":4108:4331  function functionCall(... */\n      swap4\n      pop\n      pop\n      pop\n      pop\n      jump\t// out\n        /* \"@openzeppelin/contracts/utils/Address.sol\":5165:5611  function functionCallWithValue(... */\n    tag_638:\n        /* \"@openzeppelin/contracts/utils/Address.sol\":5330:5342  bytes memory */\n      0x60\n        /* \"@openzeppelin/contracts/utils/Address.sol\":5387:5392  value */\n      dup3\n        /* \"@openzeppelin/contracts/utils/Address.sol\":5362:5383  address(this).balance */\n      selfbalance\n        /* \"@openzeppelin/contracts/utils/Address.sol\":5362:5392  address(this).balance >= value */\n      lt\n      iszero\n        /* \"@openzeppelin/contracts/utils/Address.sol\":5354:5435  require(address(this).balance >= value, \"Address: insufficient balance for call\") */\n      tag_640\n      jumpi\n      mload(0x40)\n      shl(0xe5, 0x461bcd)\n      dup2\n      mstore\n        /* \"#utility.yul\":17156:17158   */\n      0x20\n        /* \"@openzeppelin/contracts/utils/Address.sol\":5354:5435  require(address(this).balance >= value, \"Address: insufficient balance for call\") */\n      0x04\n      dup3\n      add\n        /* \"#utility.yul\":17138:17159   */\n      mstore\n        /* \"#utility.yul\":17195:17197   */\n      0x26\n        /* \"#utility.yul\":17175:17193   */\n      0x24\n      dup3\n      add\n        /* \"#utility.yul\":17168:17198   */\n      mstore\n        /* \"#utility.yul\":17234:17268   */\n      0x416464726573733a20696e73756666696369656e742062616c616e636520666f\n        /* \"#utility.yul\":17214:17232   */\n      0x44\n      dup3\n      add\n        /* \"#utility.yul\":17207:17269   */\n      mstore\n      shl(0xd2, 0x1c8818d85b1b)\n        /* \"#utility.yul\":17285:17303   */\n      0x64\n      dup3\n      add\n        /* \"#utility.yul\":17278:17314   */\n      mstore\n        /* \"#utility.yul\":17331:17350   */\n      0x84\n      add\n        /* \"@openzeppelin/contracts/utils/Address.sol\":5354:5435  require(address(this).balance >= value, \"Address: insufficient balance for call\") */\n      tag_163\n        /* \"#utility.yul\":16954:17356   */\n      jump\n        /* \"@openzeppelin/contracts/utils/Address.sol\":5354:5435  require(address(this).balance >= value, \"Address: insufficient balance for call\") */\n    tag_640:\n        /* \"@openzeppelin/contracts/utils/Address.sol\":5446:5458  bool success */\n      0x00\n        /* \"@openzeppelin/contracts/utils/Address.sol\":5460:5483  bytes memory returndata */\n      dup1\n        /* \"@openzeppelin/contracts/utils/Address.sol\":5487:5493  target */\n      dup7\n      sub(shl(0xa0, 0x01), 0x01)\n        /* \"@openzeppelin/contracts/utils/Address.sol\":5487:5498  target.call */\n      and\n        /* \"@openzeppelin/contracts/utils/Address.sol\":5506:5511  value */\n      dup6\n        /* \"@openzeppelin/contracts/utils/Address.sol\":5513:5517  data */\n      dup8\n        /* \"@openzeppelin/contracts/utils/Address.sol\":5487:5518  target.call{value: value}(data) */\n      mload(0x40)\n      tag_643\n      swap2\n      swap1\n      tag_644\n      jump\t// in\n    tag_643:\n      0x00\n      mload(0x40)\n      dup1\n      dup4\n      sub\n      dup2\n      dup6\n      dup8\n      gas\n      call\n      swap3\n      pop\n      pop\n      pop\n      returndatasize\n      dup1\n      0x00\n      dup2\n      eq\n      tag_647\n      jumpi\n      mload(0x40)\n      swap2\n      pop\n      and(add(returndatasize, 0x3f), not(0x1f))\n      dup3\n      add\n      0x40\n      mstore\n      returndatasize\n      dup3\n      mstore\n      returndatasize\n      0x00\n      0x20\n      dup5\n      add\n      returndatacopy\n      jump(tag_646)\n    tag_647:\n      0x60\n      swap2\n      pop\n    tag_646:\n      pop\n        /* \"@openzeppelin/contracts/utils/Address.sol\":5445:5518  (bool success, bytes memory returndata) = target.call{value: value}(data) */\n      swap2\n      pop\n      swap2\n      pop\n        /* \"@openzeppelin/contracts/utils/Address.sol\":5535:5604  verifyCallResultFromTarget(target, success, returndata, errorMessage) */\n      tag_494\n        /* \"@openzeppelin/contracts/utils/Address.sol\":5562:5568  target */\n      dup8\n        /* \"@openzeppelin/contracts/utils/Address.sol\":5570:5577  success */\n      dup4\n        /* \"@openzeppelin/contracts/utils/Address.sol\":5579:5589  returndata */\n      dup4\n        /* \"@openzeppelin/contracts/utils/Address.sol\":5591:5603  errorMessage */\n      dup8\n        /* \"@openzeppelin/contracts/utils/Address.sol\":7851:7863  bytes memory */\n      0x60\n        /* \"@openzeppelin/contracts/utils/Address.sol\":7879:7886  success */\n      dup4\n        /* \"@openzeppelin/contracts/utils/Address.sol\":7875:8293  if (success) {... */\n      iszero\n      tag_651\n      jumpi\n        /* \"@openzeppelin/contracts/utils/Address.sol\":7906:7916  returndata */\n      dup3\n        /* \"@openzeppelin/contracts/utils/Address.sol\":7906:7923  returndata.length */\n      mload\n        /* \"@openzeppelin/contracts/utils/Address.sol\":7927:7928  0 */\n      0x00\n        /* \"@openzeppelin/contracts/utils/Address.sol\":7906:7928  returndata.length == 0 */\n      sub\n        /* \"@openzeppelin/contracts/utils/Address.sol\":7902:8188  if (returndata.length == 0) {... */\n      tag_655\n      jumpi\n      sub(shl(0xa0, 0x01), 0x01)\n        /* \"@openzeppelin/contracts/utils/Address.sol\":1702:1721  account.code.length */\n      dup6\n      and\n      extcodesize\n        /* \"@openzeppelin/contracts/utils/Address.sol\":8113:8173  require(isContract(target), \"Address: call to non-contract\") */\n      tag_655\n      jumpi\n      mload(0x40)\n      shl(0xe5, 0x461bcd)\n      dup2\n      mstore\n        /* \"#utility.yul\":18110:18112   */\n      0x20\n        /* \"@openzeppelin/contracts/utils/Address.sol\":8113:8173  require(isContract(target), \"Address: call to non-contract\") */\n      0x04\n      dup3\n      add\n        /* \"#utility.yul\":18092:18113   */\n      mstore\n        /* \"#utility.yul\":18149:18151   */\n      0x1d\n        /* \"#utility.yul\":18129:18147   */\n      0x24\n      dup3\n      add\n        /* \"#utility.yul\":18122:18152   */\n      mstore\n        /* \"#utility.yul\":18188:18219   */\n      0x416464726573733a2063616c6c20746f206e6f6e2d636f6e7472616374000000\n        /* \"#utility.yul\":18168:18186   */\n      0x44\n      dup3\n      add\n        /* \"#utility.yul\":18161:18220   */\n      mstore\n        /* \"#utility.yul\":18237:18255   */\n      0x64\n      add\n        /* \"@openzeppelin/contracts/utils/Address.sol\":8113:8173  require(isContract(target), \"Address: call to non-contract\") */\n      tag_163\n        /* \"#utility.yul\":17908:18261   */\n      jump\n        /* \"@openzeppelin/contracts/utils/Address.sol\":8113:8173  require(isContract(target), \"Address: call to non-contract\") */\n    tag_655:\n      pop\n        /* \"@openzeppelin/contracts/utils/Address.sol\":8208:8218  returndata */\n      dup2\n        /* \"@openzeppelin/contracts/utils/Address.sol\":8201:8218  return returndata */\n      jump(tag_637)\n        /* \"@openzeppelin/contracts/utils/Address.sol\":7875:8293  if (success) {... */\n    tag_651:\n        /* \"@openzeppelin/contracts/utils/Address.sol\":8249:8282  _revert(returndata, errorMessage) */\n      tag_637\n        /* \"@openzeppelin/contracts/utils/Address.sol\":8257:8267  returndata */\n      dup4\n        /* \"@openzeppelin/contracts/utils/Address.sol\":8269:8281  errorMessage */\n      dup4\n        /* \"@openzeppelin/contracts/utils/Address.sol\":8980:8997  returndata.length */\n      dup2\n      mload\n        /* \"@openzeppelin/contracts/utils/Address.sol\":8980:9001  returndata.length > 0 */\n      iszero\n        /* \"@openzeppelin/contracts/utils/Address.sol\":8976:9355  if (returndata.length > 0) {... */\n      tag_663\n      jumpi\n        /* \"@openzeppelin/contracts/utils/Address.sol\":9208:9218  returndata */\n      dup2\n        /* \"@openzeppelin/contracts/utils/Address.sol\":9202:9219  mload(returndata) */\n      mload\n        /* \"@openzeppelin/contracts/utils/Address.sol\":9264:9279  returndata_size */\n      dup1\n        /* \"@openzeppelin/contracts/utils/Address.sol\":9251:9261  returndata */\n      dup4\n        /* \"@openzeppelin/contracts/utils/Address.sol\":9247:9249  32 */\n      0x20\n        /* \"@openzeppelin/contracts/utils/Address.sol\":9243:9262  add(32, returndata) */\n      add\n        /* \"@openzeppelin/contracts/utils/Address.sol\":9236:9280  revert(add(32, returndata), returndata_size) */\n      revert\n        /* \"@openzeppelin/contracts/utils/Address.sol\":8976:9355  if (returndata.length > 0) {... */\n    tag_663:\n        /* \"@openzeppelin/contracts/utils/Address.sol\":9331:9343  errorMessage */\n      dup1\n        /* \"@openzeppelin/contracts/utils/Address.sol\":9324:9344  revert(errorMessage) */\n      mload(0x40)\n      shl(0xe5, 0x461bcd)\n      dup2\n      mstore\n      0x04\n      add\n      tag_163\n      swap2\n      swap1\n      tag_666\n      jump\t// in\n    tag_201:\n      pop\n      dup1\n      sload\n      0x00\n      dup3\n      sstore\n      swap1\n      0x00\n      mstore\n      keccak256(0x00, 0x20)\n      swap1\n      dup2\n      add\n      swap1\n      tag_577\n      swap2\n      swap1\n    tag_673:\n      dup1\n      dup3\n      gt\n      iszero\n      tag_674\n      jumpi\n      0x00\n      dup2\n      sstore\n      0x01\n      add\n      jump(tag_673)\n    tag_674:\n      pop\n      swap1\n      jump\t// out\n        /* \"#utility.yul\":232:505   */\n    tag_39:\n        /* \"#utility.yul\":96:108   */\n      dup2\n      mload\n        /* \"#utility.yul\":84:109   */\n      dup2\n      mstore\n        /* \"#utility.yul\":158:162   */\n      0x20\n        /* \"#utility.yul\":147:163   */\n      dup1\n      dup4\n      add\n        /* \"#utility.yul\":141:164   */\n      mload\n        /* \"#utility.yul\":125:139   */\n      swap1\n      dup3\n      add\n        /* \"#utility.yul\":118:165   */\n      mstore\n        /* \"#utility.yul\":214:218   */\n      0x40\n        /* \"#utility.yul\":203:219   */\n      dup1\n      dup4\n      add\n        /* \"#utility.yul\":197:220   */\n      mload\n        /* \"#utility.yul\":181:195   */\n      swap1\n      dup3\n      add\n        /* \"#utility.yul\":174:221   */\n      mstore\n        /* \"#utility.yul\":434:436   */\n      0x60\n        /* \"#utility.yul\":419:437   */\n      dup2\n      add\n        /* \"#utility.yul\":446:499   */\n      tag_362\n        /* \"#utility.yul\":14:227   */\n      jump\n        /* \"#utility.yul\":692:823   */\n    tag_676:\n      sub(shl(0xa0, 0x01), 0x01)\n        /* \"#utility.yul\":767:798   */\n      dup2\n      and\n        /* \"#utility.yul\":757:799   */\n      dup2\n      eq\n        /* \"#utility.yul\":747:817   */\n      tag_577\n      jumpi\n        /* \"#utility.yul\":813:814   */\n      0x00\n        /* \"#utility.yul\":810:811   */\n      dup1\n        /* \"#utility.yul\":803:815   */\n      revert\n        /* \"#utility.yul\":828:1075   */\n    tag_46:\n        /* \"#utility.yul\":887:893   */\n      0x00\n        /* \"#utility.yul\":940:942   */\n      0x20\n        /* \"#utility.yul\":928:937   */\n      dup3\n        /* \"#utility.yul\":919:926   */\n      dup5\n        /* \"#utility.yul\":915:938   */\n      sub\n        /* \"#utility.yul\":911:943   */\n      slt\n        /* \"#utility.yul\":908:960   */\n      iszero\n      tag_690\n      jumpi\n        /* \"#utility.yul\":956:957   */\n      0x00\n        /* \"#utility.yul\":953:954   */\n      dup1\n        /* \"#utility.yul\":946:958   */\n      revert\n        /* \"#utility.yul\":908:960   */\n    tag_690:\n        /* \"#utility.yul\":995:1004   */\n      dup2\n        /* \"#utility.yul\":982:1005   */\n      calldataload\n        /* \"#utility.yul\":1014:1045   */\n      tag_325\n        /* \"#utility.yul\":1039:1044   */\n      dup2\n        /* \"#utility.yul\":1014:1045   */\n      tag_676\n      jump\t// in\n        /* \"#utility.yul\":1288:1468   */\n    tag_55:\n        /* \"#utility.yul\":1347:1353   */\n      0x00\n        /* \"#utility.yul\":1400:1402   */\n      0x20\n        /* \"#utility.yul\":1388:1397   */\n      dup3\n        /* \"#utility.yul\":1379:1386   */\n      dup5\n        /* \"#utility.yul\":1375:1398   */\n      sub\n        /* \"#utility.yul\":1371:1403   */\n      slt\n        /* \"#utility.yul\":1368:1420   */\n      iszero\n      tag_694\n      jumpi\n        /* \"#utility.yul\":1416:1417   */\n      0x00\n        /* \"#utility.yul\":1413:1414   */\n      dup1\n        /* \"#utility.yul\":1406:1418   */\n      revert\n        /* \"#utility.yul\":1368:1420   */\n    tag_694:\n      pop\n        /* \"#utility.yul\":1439:1462   */\n      calldataload\n      swap2\n        /* \"#utility.yul\":1288:1468   */\n      swap1\n      pop\n      jump\t// out\n        /* \"#utility.yul\":2602:3326   */\n    tag_63:\n        /* \"#utility.yul\":2835:2837   */\n      0x20\n        /* \"#utility.yul\":2887:2908   */\n      dup1\n      dup3\n      mstore\n        /* \"#utility.yul\":2957:2970   */\n      dup3\n      mload\n        /* \"#utility.yul\":2860:2878   */\n      dup3\n      dup3\n      add\n        /* \"#utility.yul\":2979:3001   */\n      dup2\n      swap1\n      mstore\n        /* \"#utility.yul\":2806:2810   */\n      0x00\n      swap2\n        /* \"#utility.yul\":2835:2837   */\n      swap1\n        /* \"#utility.yul\":3058:3073   */\n      dup5\n      dup3\n      add\n      swap1\n        /* \"#utility.yul\":3032:3034   */\n      0x40\n        /* \"#utility.yul\":3017:3035   */\n      dup6\n      add\n      swap1\n        /* \"#utility.yul\":2806:2810   */\n      dup5\n        /* \"#utility.yul\":3101:3300   */\n    tag_701:\n        /* \"#utility.yul\":3115:3121   */\n      dup2\n        /* \"#utility.yul\":3112:3113   */\n      dup2\n        /* \"#utility.yul\":3109:3122   */\n      lt\n        /* \"#utility.yul\":3101:3300   */\n      iszero\n      tag_703\n      jumpi\n        /* \"#utility.yul\":3164:3218   */\n      tag_704\n        /* \"#utility.yul\":3214:3217   */\n      dup4\n        /* \"#utility.yul\":3205:3211   */\n      dup6\n        /* \"#utility.yul\":3199:3212   */\n      mload\n        /* \"#utility.yul\":96:108   */\n      dup1\n      mload\n        /* \"#utility.yul\":84:109   */\n      dup3\n      mstore\n        /* \"#utility.yul\":158:162   */\n      0x20\n        /* \"#utility.yul\":147:163   */\n      dup1\n      dup3\n      add\n        /* \"#utility.yul\":141:164   */\n      mload\n        /* \"#utility.yul\":125:139   */\n      swap1\n      dup4\n      add\n        /* \"#utility.yul\":118:165   */\n      mstore\n        /* \"#utility.yul\":214:218   */\n      0x40\n        /* \"#utility.yul\":203:219   */\n      swap1\n      dup2\n      add\n        /* \"#utility.yul\":197:220   */\n      mload\n        /* \"#utility.yul\":181:195   */\n      swap2\n      add\n        /* \"#utility.yul\":174:221   */\n      mstore\n        /* \"#utility.yul\":14:227   */\n      jump\n        /* \"#utility.yul\":3164:3218   */\n    tag_704:\n        /* \"#utility.yul\":3275:3290   */\n      swap3\n      dup5\n      add\n      swap3\n        /* \"#utility.yul\":3247:3251   */\n      0x60\n        /* \"#utility.yul\":3238:3252   */\n      swap3\n      swap1\n      swap3\n      add\n      swap2\n        /* \"#utility.yul\":3137:3138   */\n      0x01\n        /* \"#utility.yul\":3130:3139   */\n      add\n        /* \"#utility.yul\":3101:3300   */\n      jump(tag_701)\n    tag_703:\n      pop\n        /* \"#utility.yul\":3317:3320   */\n      swap1\n      swap7\n        /* \"#utility.yul\":2602:3326   */\n      swap6\n      pop\n      pop\n      pop\n      pop\n      pop\n      pop\n      jump\t// out\n        /* \"#utility.yul\":3331:3646   */\n    tag_76:\n        /* \"#utility.yul\":3399:3405   */\n      0x00\n        /* \"#utility.yul\":3407:3413   */\n      dup1\n        /* \"#utility.yul\":3460:3462   */\n      0x40\n        /* \"#utility.yul\":3448:3457   */\n      dup4\n        /* \"#utility.yul\":3439:3446   */\n      dup6\n        /* \"#utility.yul\":3435:3458   */\n      sub\n        /* \"#utility.yul\":3431:3463   */\n      slt\n        /* \"#utility.yul\":3428:3480   */\n      iszero\n      tag_706\n      jumpi\n        /* \"#utility.yul\":3476:3477   */\n      0x00\n        /* \"#utility.yul\":3473:3474   */\n      dup1\n        /* \"#utility.yul\":3466:3478   */\n      revert\n        /* \"#utility.yul\":3428:3480   */\n    tag_706:\n        /* \"#utility.yul\":3515:3524   */\n      dup3\n        /* \"#utility.yul\":3502:3525   */\n      calldataload\n        /* \"#utility.yul\":3534:3565   */\n      tag_707\n        /* \"#utility.yul\":3559:3564   */\n      dup2\n        /* \"#utility.yul\":3534:3565   */\n      tag_676\n      jump\t// in\n    tag_707:\n        /* \"#utility.yul\":3584:3589   */\n      swap5\n        /* \"#utility.yul\":3636:3638   */\n      0x20\n        /* \"#utility.yul\":3621:3639   */\n      swap4\n      swap1\n      swap4\n      add\n        /* \"#utility.yul\":3608:3640   */\n      calldataload\n      swap4\n      pop\n      pop\n      pop\n        /* \"#utility.yul\":3331:3646   */\n      jump\t// out\n        /* \"#utility.yul\":3651:4525   */\n    tag_85:\n        /* \"#utility.yul\":3813:3817   */\n      0x00\n        /* \"#utility.yul\":3842:3844   */\n      0x20\n        /* \"#utility.yul\":3871:3873   */\n      dup1\n        /* \"#utility.yul\":3860:3869   */\n      dup4\n        /* \"#utility.yul\":3853:3874   */\n      mstore\n        /* \"#utility.yul\":3893:3895   */\n      0x60\n        /* \"#utility.yul\":3933:3935   */\n      dup1\n        /* \"#utility.yul\":3922:3931   */\n      dup5\n        /* \"#utility.yul\":3918:3936   */\n      add\n        /* \"#utility.yul\":3992:3998   */\n      dup6\n        /* \"#utility.yul\":3986:3999   */\n      mload\n        /* \"#utility.yul\":3979:4000   */\n      iszero\n        /* \"#utility.yul\":3972:4001   */\n      iszero\n        /* \"#utility.yul\":3967:3969   */\n      dup4\n        /* \"#utility.yul\":3956:3965   */\n      dup7\n        /* \"#utility.yul\":3952:3970   */\n      add\n        /* \"#utility.yul\":3945:4002   */\n      mstore\n        /* \"#utility.yul\":4049:4051   */\n      dup3\n        /* \"#utility.yul\":4041:4047   */\n      dup7\n        /* \"#utility.yul\":4037:4052   */\n      add\n        /* \"#utility.yul\":4031:4053   */\n      mload\n        /* \"#utility.yul\":4091:4095   */\n      0x40\n        /* \"#utility.yul\":4084:4088   */\n      dup1\n        /* \"#utility.yul\":4073:4082   */\n      dup8\n        /* \"#utility.yul\":4069:4089   */\n      add\n        /* \"#utility.yul\":4062:4096   */\n      mstore\n        /* \"#utility.yul\":4116:4122   */\n      dup2\n        /* \"#utility.yul\":4151:4163   */\n      dup2\n        /* \"#utility.yul\":4145:4164   */\n      mload\n        /* \"#utility.yul\":4188:4194   */\n      dup1\n        /* \"#utility.yul\":4180:4186   */\n      dup5\n        /* \"#utility.yul\":4173:4195   */\n      mstore\n        /* \"#utility.yul\":4226:4229   */\n      0x80\n        /* \"#utility.yul\":4215:4224   */\n      dup9\n        /* \"#utility.yul\":4211:4230   */\n      add\n        /* \"#utility.yul\":4204:4230   */\n      swap2\n      pop\n        /* \"#utility.yul\":4271:4273   */\n      dup6\n        /* \"#utility.yul\":4257:4269   */\n      dup4\n        /* \"#utility.yul\":4253:4274   */\n      add\n        /* \"#utility.yul\":4239:4274   */\n      swap4\n      pop\n        /* \"#utility.yul\":4292:4293   */\n      0x00\n        /* \"#utility.yul\":4283:4293   */\n      swap3\n      pop\n        /* \"#utility.yul\":4302:4499   */\n    tag_709:\n        /* \"#utility.yul\":4316:4322   */\n      dup1\n        /* \"#utility.yul\":4313:4314   */\n      dup4\n        /* \"#utility.yul\":4310:4323   */\n      lt\n        /* \"#utility.yul\":4302:4499   */\n      iszero\n      tag_711\n      jumpi\n        /* \"#utility.yul\":4365:4419   */\n      tag_712\n        /* \"#utility.yul\":4415:4418   */\n      dup3\n        /* \"#utility.yul\":4406:4412   */\n      dup6\n        /* \"#utility.yul\":4400:4413   */\n      mload\n        /* \"#utility.yul\":96:108   */\n      dup1\n      mload\n        /* \"#utility.yul\":84:109   */\n      dup3\n      mstore\n        /* \"#utility.yul\":158:162   */\n      0x20\n        /* \"#utility.yul\":147:163   */\n      dup1\n      dup3\n      add\n        /* \"#utility.yul\":141:164   */\n      mload\n        /* \"#utility.yul\":125:139   */\n      swap1\n      dup4\n      add\n        /* \"#utility.yul\":118:165   */\n      mstore\n        /* \"#utility.yul\":214:218   */\n      0x40\n        /* \"#utility.yul\":203:219   */\n      swap1\n      dup2\n      add\n        /* \"#utility.yul\":197:220   */\n      mload\n        /* \"#utility.yul\":181:195   */\n      swap2\n      add\n        /* \"#utility.yul\":174:221   */\n      mstore\n        /* \"#utility.yul\":14:227   */\n      jump\n        /* \"#utility.yul\":4365:4419   */\n    tag_712:\n        /* \"#utility.yul\":4474:4489   */\n      swap3\n      dup6\n      add\n      swap3\n        /* \"#utility.yul\":4338:4339   */\n      0x01\n        /* \"#utility.yul\":4331:4340   */\n      swap3\n      swap1\n      swap3\n      add\n      swap2\n        /* \"#utility.yul\":4439:4451   */\n      swap1\n      dup5\n      add\n      swap1\n        /* \"#utility.yul\":4302:4499   */\n      jump(tag_709)\n    tag_711:\n      pop\n        /* \"#utility.yul\":4516:4519   */\n      swap8\n        /* \"#utility.yul\":3651:4525   */\n      swap7\n      pop\n      pop\n      pop\n      pop\n      pop\n      pop\n      pop\n      jump\t// out\n        /* \"#utility.yul\":4530:4982   */\n    tag_88:\n        /* \"#utility.yul\":4616:4622   */\n      0x00\n        /* \"#utility.yul\":4624:4630   */\n      dup1\n        /* \"#utility.yul\":4632:4638   */\n      0x00\n        /* \"#utility.yul\":4640:4646   */\n      dup1\n        /* \"#utility.yul\":4693:4696   */\n      0x80\n        /* \"#utility.yul\":4681:4690   */\n      dup6\n        /* \"#utility.yul\":4672:4679   */\n      dup8\n        /* \"#utility.yul\":4668:4691   */\n      sub\n        /* \"#utility.yul\":4664:4697   */\n      slt\n        /* \"#utility.yul\":4661:4714   */\n      iszero\n      tag_714\n      jumpi\n        /* \"#utility.yul\":4710:4711   */\n      0x00\n        /* \"#utility.yul\":4707:4708   */\n      dup1\n        /* \"#utility.yul\":4700:4712   */\n      revert\n        /* \"#utility.yul\":4661:4714   */\n    tag_714:\n        /* \"#utility.yul\":4749:4758   */\n      dup5\n        /* \"#utility.yul\":4736:4759   */\n      calldataload\n        /* \"#utility.yul\":4768:4799   */\n      tag_715\n        /* \"#utility.yul\":4793:4798   */\n      dup2\n        /* \"#utility.yul\":4768:4799   */\n      tag_676\n      jump\t// in\n    tag_715:\n        /* \"#utility.yul\":4818:4823   */\n      swap7\n        /* \"#utility.yul\":4870:4872   */\n      0x20\n        /* \"#utility.yul\":4855:4873   */\n      dup7\n      add\n        /* \"#utility.yul\":4842:4874   */\n      calldataload\n      swap7\n      pop\n        /* \"#utility.yul\":4921:4923   */\n      0x40\n        /* \"#utility.yul\":4906:4924   */\n      dup7\n      add\n        /* \"#utility.yul\":4893:4925   */\n      calldataload\n      swap6\n        /* \"#utility.yul\":4972:4974   */\n      0x60\n        /* \"#utility.yul\":4957:4975   */\n      add\n        /* \"#utility.yul\":4944:4976   */\n      calldataload\n      swap5\n      pop\n        /* \"#utility.yul\":4530:4982   */\n      swap3\n      pop\n      pop\n      pop\n      jump\t// out\n        /* \"#utility.yul\":4987:5654   */\n    tag_92:\n        /* \"#utility.yul\":5082:5088   */\n      0x00\n        /* \"#utility.yul\":5090:5096   */\n      dup1\n        /* \"#utility.yul\":5098:5104   */\n      0x00\n        /* \"#utility.yul\":5106:5112   */\n      dup1\n        /* \"#utility.yul\":5114:5120   */\n      0x00\n        /* \"#utility.yul\":5167:5170   */\n      0xa0\n        /* \"#utility.yul\":5155:5164   */\n      dup7\n        /* \"#utility.yul\":5146:5153   */\n      dup9\n        /* \"#utility.yul\":5142:5165   */\n      sub\n        /* \"#utility.yul\":5138:5171   */\n      slt\n        /* \"#utility.yul\":5135:5188   */\n      iszero\n      tag_717\n      jumpi\n        /* \"#utility.yul\":5184:5185   */\n      0x00\n        /* \"#utility.yul\":5181:5182   */\n      dup1\n        /* \"#utility.yul\":5174:5186   */\n      revert\n        /* \"#utility.yul\":5135:5188   */\n    tag_717:\n        /* \"#utility.yul\":5220:5229   */\n      dup6\n        /* \"#utility.yul\":5207:5230   */\n      calldataload\n        /* \"#utility.yul\":5197:5230   */\n      swap5\n      pop\n        /* \"#utility.yul\":5280:5282   */\n      0x20\n        /* \"#utility.yul\":5269:5278   */\n      dup7\n        /* \"#utility.yul\":5265:5283   */\n      add\n        /* \"#utility.yul\":5252:5284   */\n      calldataload\n        /* \"#utility.yul\":5293:5324   */\n      tag_718\n        /* \"#utility.yul\":5318:5323   */\n      dup2\n        /* \"#utility.yul\":5293:5324   */\n      tag_676\n      jump\t// in\n    tag_718:\n        /* \"#utility.yul\":5343:5348   */\n      swap4\n      pop\n        /* \"#utility.yul\":5400:5402   */\n      0x40\n        /* \"#utility.yul\":5385:5403   */\n      dup7\n      add\n        /* \"#utility.yul\":5372:5404   */\n      calldataload\n        /* \"#utility.yul\":5413:5446   */\n      tag_719\n        /* \"#utility.yul\":5372:5404   */\n      dup2\n        /* \"#utility.yul\":5413:5446   */\n      tag_676\n      jump\t// in\n    tag_719:\n        /* \"#utility.yul\":5465:5472   */\n      swap3\n      pop\n        /* \"#utility.yul\":5524:5526   */\n      0x60\n        /* \"#utility.yul\":5509:5527   */\n      dup7\n      add\n        /* \"#utility.yul\":5496:5528   */\n      calldataload\n        /* \"#utility.yul\":5537:5570   */\n      tag_720\n        /* \"#utility.yul\":5496:5528   */\n      dup2\n        /* \"#utility.yul\":5537:5570   */\n      tag_676\n      jump\t// in\n    tag_720:\n        /* \"#utility.yul\":4987:5654   */\n      swap5\n      swap8\n      swap4\n      swap7\n      pop\n      swap2\n      swap5\n        /* \"#utility.yul\":5643:5646   */\n      0x80\n        /* \"#utility.yul\":5628:5647   */\n      add\n        /* \"#utility.yul\":5615:5648   */\n      calldataload\n      swap3\n        /* \"#utility.yul\":4987:5654   */\n      swap2\n      pop\n      pop\n      jump\t// out\n        /* \"#utility.yul\":5659:5974   */\n    tag_99:\n        /* \"#utility.yul\":5727:5733   */\n      0x00\n        /* \"#utility.yul\":5735:5741   */\n      dup1\n        /* \"#utility.yul\":5788:5790   */\n      0x40\n        /* \"#utility.yul\":5776:5785   */\n      dup4\n        /* \"#utility.yul\":5767:5774   */\n      dup6\n        /* \"#utility.yul\":5763:5786   */\n      sub\n        /* \"#utility.yul\":5759:5791   */\n      slt\n        /* \"#utility.yul\":5756:5808   */\n      iszero\n      tag_722\n      jumpi\n        /* \"#utility.yul\":5804:5805   */\n      0x00\n        /* \"#utility.yul\":5801:5802   */\n      dup1\n        /* \"#utility.yul\":5794:5806   */\n      revert\n        /* \"#utility.yul\":5756:5808   */\n    tag_722:\n        /* \"#utility.yul\":5840:5849   */\n      dup3\n        /* \"#utility.yul\":5827:5850   */\n      calldataload\n        /* \"#utility.yul\":5817:5850   */\n      swap2\n      pop\n        /* \"#utility.yul\":5900:5902   */\n      0x20\n        /* \"#utility.yul\":5889:5898   */\n      dup4\n        /* \"#utility.yul\":5885:5903   */\n      add\n        /* \"#utility.yul\":5872:5904   */\n      calldataload\n        /* \"#utility.yul\":5913:5944   */\n      tag_723\n        /* \"#utility.yul\":5938:5943   */\n      dup2\n        /* \"#utility.yul\":5913:5944   */\n      tag_676\n      jump\t// in\n    tag_723:\n        /* \"#utility.yul\":5963:5968   */\n      dup1\n        /* \"#utility.yul\":5953:5968   */\n      swap2\n      pop\n      pop\n        /* \"#utility.yul\":5659:5974   */\n      swap3\n      pop\n      swap3\n      swap1\n      pop\n      jump\t// out\n        /* \"#utility.yul\":6436:6821   */\n    tag_116:\n        /* \"#utility.yul\":6522:6528   */\n      0x00\n        /* \"#utility.yul\":6530:6536   */\n      dup1\n        /* \"#utility.yul\":6538:6544   */\n      0x00\n        /* \"#utility.yul\":6546:6552   */\n      dup1\n        /* \"#utility.yul\":6599:6602   */\n      0x80\n        /* \"#utility.yul\":6587:6596   */\n      dup6\n        /* \"#utility.yul\":6578:6585   */\n      dup8\n        /* \"#utility.yul\":6574:6597   */\n      sub\n        /* \"#utility.yul\":6570:6603   */\n      slt\n        /* \"#utility.yul\":6567:6620   */\n      iszero\n      tag_726\n      jumpi\n        /* \"#utility.yul\":6616:6617   */\n      0x00\n        /* \"#utility.yul\":6613:6614   */\n      dup1\n        /* \"#utility.yul\":6606:6618   */\n      revert\n        /* \"#utility.yul\":6567:6620   */\n    tag_726:\n      pop\n      pop\n        /* \"#utility.yul\":6639:6662   */\n      dup3\n      calldataload\n      swap5\n        /* \"#utility.yul\":6709:6711   */\n      0x20\n        /* \"#utility.yul\":6694:6712   */\n      dup5\n      add\n        /* \"#utility.yul\":6681:6713   */\n      calldataload\n      swap5\n      pop\n        /* \"#utility.yul\":6760:6762   */\n      0x40\n        /* \"#utility.yul\":6745:6763   */\n      dup5\n      add\n        /* \"#utility.yul\":6732:6764   */\n      calldataload\n      swap4\n        /* \"#utility.yul\":6811:6813   */\n      0x60\n        /* \"#utility.yul\":6796:6814   */\n      add\n        /* \"#utility.yul\":6783:6815   */\n      calldataload\n      swap3\n      pop\n        /* \"#utility.yul\":6436:6821   */\n      swap1\n      pop\n      jump\t// out\n        /* \"#utility.yul\":6826:6953   */\n    tag_151:\n        /* \"#utility.yul\":6887:6897   */\n      0x4e487b71\n        /* \"#utility.yul\":6882:6885   */\n      0xe0\n        /* \"#utility.yul\":6878:6898   */\n      shl\n        /* \"#utility.yul\":6875:6876   */\n      0x00\n        /* \"#utility.yul\":6868:6899   */\n      mstore\n        /* \"#utility.yul\":6918:6922   */\n      0x32\n        /* \"#utility.yul\":6915:6916   */\n      0x04\n        /* \"#utility.yul\":6908:6923   */\n      mstore\n        /* \"#utility.yul\":6942:6946   */\n      0x24\n        /* \"#utility.yul\":6939:6940   */\n      0x00\n        /* \"#utility.yul\":6932:6947   */\n      revert\n        /* \"#utility.yul\":6958:7209   */\n    tag_161:\n        /* \"#utility.yul\":7028:7034   */\n      0x00\n        /* \"#utility.yul\":7081:7083   */\n      0x20\n        /* \"#utility.yul\":7069:7078   */\n      dup3\n        /* \"#utility.yul\":7060:7067   */\n      dup5\n        /* \"#utility.yul\":7056:7079   */\n      sub\n        /* \"#utility.yul\":7052:7084   */\n      slt\n        /* \"#utility.yul\":7049:7101   */\n      iszero\n      tag_729\n      jumpi\n        /* \"#utility.yul\":7097:7098   */\n      0x00\n        /* \"#utility.yul\":7094:7095   */\n      dup1\n        /* \"#utility.yul\":7087:7099   */\n      revert\n        /* \"#utility.yul\":7049:7101   */\n    tag_729:\n        /* \"#utility.yul\":7129:7138   */\n      dup2\n        /* \"#utility.yul\":7123:7139   */\n      mload\n        /* \"#utility.yul\":7148:7179   */\n      tag_325\n        /* \"#utility.yul\":7173:7178   */\n      dup2\n        /* \"#utility.yul\":7148:7179   */\n      tag_676\n      jump\t// in\n        /* \"#utility.yul\":7214:7552   */\n    tag_164:\n        /* \"#utility.yul\":7416:7418   */\n      0x20\n        /* \"#utility.yul\":7398:7419   */\n      dup1\n      dup3\n      mstore\n        /* \"#utility.yul\":7455:7457   */\n      0x0e\n        /* \"#utility.yul\":7435:7453   */\n      swap1\n      dup3\n      add\n        /* \"#utility.yul\":7428:7458   */\n      mstore\n      shl(0x91, 0x24b73b30b634b21031b0b63632b9)\n        /* \"#utility.yul\":7489:7491   */\n      0x40\n        /* \"#utility.yul\":7474:7492   */\n      dup3\n      add\n        /* \"#utility.yul\":7467:7511   */\n      mstore\n        /* \"#utility.yul\":7543:7545   */\n      0x60\n        /* \"#utility.yul\":7528:7546   */\n      add\n      swap1\n        /* \"#utility.yul\":7214:7552   */\n      jump\t// out\n        /* \"#utility.yul\":7557:7893   */\n    tag_168:\n        /* \"#utility.yul\":7759:7761   */\n      0x20\n        /* \"#utility.yul\":7741:7762   */\n      dup1\n      dup3\n      mstore\n        /* \"#utility.yul\":7798:7800   */\n      0x0c\n        /* \"#utility.yul\":7778:7796   */\n      swap1\n      dup3\n      add\n        /* \"#utility.yul\":7771:7801   */\n      mstore\n      shl(0xa2, 0x125b1b1959d85b0818d85b1b)\n        /* \"#utility.yul\":7832:7834   */\n      0x40\n        /* \"#utility.yul\":7817:7835   */\n      dup3\n      add\n        /* \"#utility.yul\":7810:7852   */\n      mstore\n        /* \"#utility.yul\":7884:7886   */\n      0x60\n        /* \"#utility.yul\":7869:7887   */\n      add\n      swap1\n        /* \"#utility.yul\":7557:7893   */\n      jump\t// out\n        /* \"#utility.yul\":7898:8242   */\n    tag_173:\n        /* \"#utility.yul\":8100:8102   */\n      0x20\n        /* \"#utility.yul\":8082:8103   */\n      dup1\n      dup3\n      mstore\n        /* \"#utility.yul\":8139:8141   */\n      0x14\n        /* \"#utility.yul\":8119:8137   */\n      swap1\n      dup3\n      add\n        /* \"#utility.yul\":8112:8142   */\n      mstore\n      shl(0x62, 0x10dbdb9d1c9858dd081b9bdd081cdd185c9d1959)\n        /* \"#utility.yul\":8173:8175   */\n      0x40\n        /* \"#utility.yul\":8158:8176   */\n      dup3\n      add\n        /* \"#utility.yul\":8151:8201   */\n      mstore\n        /* \"#utility.yul\":8233:8235   */\n      0x60\n        /* \"#utility.yul\":8218:8236   */\n      add\n      swap1\n        /* \"#utility.yul\":7898:8242   */\n      jump\t// out\n        /* \"#utility.yul\":8595:8722   */\n    tag_678:\n        /* \"#utility.yul\":8656:8666   */\n      0x4e487b71\n        /* \"#utility.yul\":8651:8654   */\n      0xe0\n        /* \"#utility.yul\":8647:8667   */\n      shl\n        /* \"#utility.yul\":8644:8645   */\n      0x00\n        /* \"#utility.yul\":8637:8668   */\n      mstore\n        /* \"#utility.yul\":8687:8691   */\n      0x11\n        /* \"#utility.yul\":8684:8685   */\n      0x04\n        /* \"#utility.yul\":8677:8692   */\n      mstore\n        /* \"#utility.yul\":8711:8715   */\n      0x24\n        /* \"#utility.yul\":8708:8709   */\n      0x00\n        /* \"#utility.yul\":8701:8716   */\n      revert\n        /* \"#utility.yul\":8727:8862   */\n    tag_199:\n        /* \"#utility.yul\":8766:8769   */\n      0x00\n        /* \"#utility.yul\":8787:8804   */\n      0x01\n      dup3\n      add\n        /* \"#utility.yul\":8784:8827   */\n      tag_738\n      jumpi\n        /* \"#utility.yul\":8807:8825   */\n      tag_738\n      tag_678\n      jump\t// in\n    tag_738:\n      pop\n        /* \"#utility.yul\":8854:8855   */\n      0x01\n        /* \"#utility.yul\":8843:8856   */\n      add\n      swap1\n        /* \"#utility.yul\":8727:8862   */\n      jump\t// out\n        /* \"#utility.yul\":9216:9562   */\n    tag_252:\n        /* \"#utility.yul\":9418:9420   */\n      0x20\n        /* \"#utility.yul\":9400:9421   */\n      dup1\n      dup3\n      mstore\n        /* \"#utility.yul\":9457:9459   */\n      0x16\n        /* \"#utility.yul\":9437:9455   */\n      swap1\n      dup3\n      add\n        /* \"#utility.yul\":9430:9460   */\n      mstore\n      shl(0x52, 0x155cd95c881a185cdb89dd081c9959da5cdd195c9959)\n        /* \"#utility.yul\":9491:9493   */\n      0x40\n        /* \"#utility.yul\":9476:9494   */\n      dup3\n      add\n        /* \"#utility.yul\":9469:9521   */\n      mstore\n        /* \"#utility.yul\":9553:9555   */\n      0x60\n        /* \"#utility.yul\":9538:9556   */\n      add\n      swap1\n        /* \"#utility.yul\":9216:9562   */\n      jump\t// out\n        /* \"#utility.yul\":9567:9909   */\n    tag_273:\n        /* \"#utility.yul\":9769:9771   */\n      0x20\n        /* \"#utility.yul\":9751:9772   */\n      dup1\n      dup3\n      mstore\n        /* \"#utility.yul\":9808:9810   */\n      0x12\n        /* \"#utility.yul\":9788:9806   */\n      swap1\n      dup3\n      add\n        /* \"#utility.yul\":9781:9811   */\n      mstore\n      shl(0x72, 0x155cd95c88191bd95cdb89dd08195e1a5cdd)\n        /* \"#utility.yul\":9842:9844   */\n      0x40\n        /* \"#utility.yul\":9827:9845   */\n      dup3\n      add\n        /* \"#utility.yul\":9820:9868   */\n      mstore\n        /* \"#utility.yul\":9900:9902   */\n      0x60\n        /* \"#utility.yul\":9885:9903   */\n      add\n      swap1\n        /* \"#utility.yul\":9567:9909   */\n      jump\t// out\n        /* \"#utility.yul\":11824:12246   */\n    tag_679:\n        /* \"#utility.yul\":11913:11914   */\n      0x01\n        /* \"#utility.yul\":11956:11961   */\n      dup2\n        /* \"#utility.yul\":11913:11914   */\n      dup2\n        /* \"#utility.yul\":11970:12240   */\n    tag_749:\n        /* \"#utility.yul\":11991:11998   */\n      dup1\n        /* \"#utility.yul\":11981:11989   */\n      dup6\n        /* \"#utility.yul\":11978:11999   */\n      gt\n        /* \"#utility.yul\":11970:12240   */\n      iszero\n      tag_751\n      jumpi\n        /* \"#utility.yul\":12050:12054   */\n      dup2\n        /* \"#utility.yul\":12046:12047   */\n      0x00\n        /* \"#utility.yul\":12042:12048   */\n      not\n        /* \"#utility.yul\":12038:12055   */\n      div\n        /* \"#utility.yul\":12032:12036   */\n      dup3\n        /* \"#utility.yul\":12029:12056   */\n      gt\n        /* \"#utility.yul\":12026:12079   */\n      iszero\n      tag_753\n      jumpi\n        /* \"#utility.yul\":12059:12077   */\n      tag_753\n      tag_678\n      jump\t// in\n    tag_753:\n        /* \"#utility.yul\":12109:12116   */\n      dup1\n        /* \"#utility.yul\":12099:12107   */\n      dup6\n        /* \"#utility.yul\":12095:12117   */\n      and\n        /* \"#utility.yul\":12092:12147   */\n      iszero\n      tag_754\n      jumpi\n        /* \"#utility.yul\":12129:12145   */\n      swap2\n      dup2\n      mul\n      swap2\n        /* \"#utility.yul\":12092:12147   */\n    tag_754:\n        /* \"#utility.yul\":12208:12230   */\n      swap4\n      dup5\n      shr\n      swap4\n        /* \"#utility.yul\":12168:12183   */\n      swap1\n      dup1\n      mul\n      swap1\n        /* \"#utility.yul\":11970:12240   */\n      jump(tag_749)\n    tag_751:\n        /* \"#utility.yul\":11974:11977   */\n      pop\n        /* \"#utility.yul\":11824:12246   */\n      swap3\n      pop\n      swap3\n      swap1\n      pop\n      jump\t// out\n        /* \"#utility.yul\":12251:13057   */\n    tag_680:\n        /* \"#utility.yul\":12300:12305   */\n      0x00\n        /* \"#utility.yul\":12330:12338   */\n      dup3\n        /* \"#utility.yul\":12320:12400   */\n      tag_756\n      jumpi\n      pop\n        /* \"#utility.yul\":12371:12372   */\n      0x01\n        /* \"#utility.yul\":12385:12390   */\n      jump(tag_362)\n        /* \"#utility.yul\":12320:12400   */\n    tag_756:\n        /* \"#utility.yul\":12419:12423   */\n      dup2\n        /* \"#utility.yul\":12409:12485   */\n      tag_757\n      jumpi\n      pop\n        /* \"#utility.yul\":12456:12457   */\n      0x00\n        /* \"#utility.yul\":12470:12475   */\n      jump(tag_362)\n        /* \"#utility.yul\":12409:12485   */\n    tag_757:\n        /* \"#utility.yul\":12501:12505   */\n      dup2\n        /* \"#utility.yul\":12519:12520   */\n      0x01\n        /* \"#utility.yul\":12514:12573   */\n      dup2\n      eq\n      tag_759\n      jumpi\n        /* \"#utility.yul\":12587:12588   */\n      0x02\n        /* \"#utility.yul\":12582:12712   */\n      dup2\n      eq\n      tag_760\n      jumpi\n        /* \"#utility.yul\":12494:12712   */\n      jump(tag_758)\n        /* \"#utility.yul\":12514:12573   */\n    tag_759:\n        /* \"#utility.yul\":12544:12545   */\n      0x01\n        /* \"#utility.yul\":12535:12545   */\n      swap2\n      pop\n        /* \"#utility.yul\":12558:12563   */\n      pop\n      jump(tag_362)\n        /* \"#utility.yul\":12582:12712   */\n    tag_760:\n        /* \"#utility.yul\":12619:12622   */\n      0xff\n        /* \"#utility.yul\":12609:12617   */\n      dup5\n        /* \"#utility.yul\":12606:12623   */\n      gt\n        /* \"#utility.yul\":12603:12646   */\n      iszero\n      tag_762\n      jumpi\n        /* \"#utility.yul\":12626:12644   */\n      tag_762\n      tag_678\n      jump\t// in\n    tag_762:\n      pop\n      pop\n        /* \"#utility.yul\":12682:12683   */\n      0x01\n        /* \"#utility.yul\":12668:12684   */\n      dup3\n      shl\n        /* \"#utility.yul\":12697:12702   */\n      jump(tag_362)\n        /* \"#utility.yul\":12494:12712   */\n    tag_758:\n      pop\n        /* \"#utility.yul\":12796:12798   */\n      0x20\n        /* \"#utility.yul\":12786:12794   */\n      dup4\n        /* \"#utility.yul\":12783:12799   */\n      lt\n        /* \"#utility.yul\":12777:12780   */\n      0x0133\n        /* \"#utility.yul\":12771:12775   */\n      dup4\n        /* \"#utility.yul\":12768:12781   */\n      lt\n        /* \"#utility.yul\":12764:12800   */\n      and\n        /* \"#utility.yul\":12758:12760   */\n      0x4e\n        /* \"#utility.yul\":12748:12756   */\n      dup5\n        /* \"#utility.yul\":12745:12761   */\n      lt\n        /* \"#utility.yul\":12740:12742   */\n      0x0b\n        /* \"#utility.yul\":12734:12738   */\n      dup5\n        /* \"#utility.yul\":12731:12743   */\n      lt\n        /* \"#utility.yul\":12727:12762   */\n      and\n        /* \"#utility.yul\":12724:12801   */\n      or\n        /* \"#utility.yul\":12721:12880   */\n      iszero\n      tag_763\n      jumpi\n      pop\n        /* \"#utility.yul\":12833:12852   */\n      dup2\n      dup2\n      exp\n        /* \"#utility.yul\":12865:12870   */\n      jump(tag_362)\n        /* \"#utility.yul\":12721:12880   */\n    tag_763:\n        /* \"#utility.yul\":12912:12946   */\n      tag_764\n        /* \"#utility.yul\":12937:12945   */\n      dup4\n        /* \"#utility.yul\":12931:12935   */\n      dup4\n        /* \"#utility.yul\":12912:12946   */\n      tag_679\n      jump\t// in\n    tag_764:\n        /* \"#utility.yul\":12982:12988   */\n      dup1\n        /* \"#utility.yul\":12978:12979   */\n      0x00\n        /* \"#utility.yul\":12974:12980   */\n      not\n        /* \"#utility.yul\":12970:12989   */\n      div\n        /* \"#utility.yul\":12961:12968   */\n      dup3\n        /* \"#utility.yul\":12958:12990   */\n      gt\n        /* \"#utility.yul\":12955:13013   */\n      iszero\n      tag_766\n      jumpi\n        /* \"#utility.yul\":12993:13011   */\n      tag_766\n      tag_678\n      jump\t// in\n    tag_766:\n        /* \"#utility.yul\":13031:13051   */\n      mul\n      swap4\n        /* \"#utility.yul\":12251:13057   */\n      swap3\n      pop\n      pop\n      pop\n      jump\t// out\n        /* \"#utility.yul\":13062:13193   */\n    tag_385:\n        /* \"#utility.yul\":13122:13127   */\n      0x00\n        /* \"#utility.yul\":13151:13187   */\n      tag_325\n        /* \"#utility.yul\":13178:13186   */\n      dup4\n        /* \"#utility.yul\":13172:13176   */\n      dup4\n        /* \"#utility.yul\":13151:13187   */\n      tag_680\n      jump\t// in\n        /* \"#utility.yul\":13198:13326   */\n    tag_420:\n        /* \"#utility.yul\":13265:13274   */\n      dup2\n      dup2\n      sub\n        /* \"#utility.yul\":13286:13297   */\n      dup2\n      dup2\n      gt\n        /* \"#utility.yul\":13283:13320   */\n      iszero\n      tag_362\n      jumpi\n        /* \"#utility.yul\":13300:13318   */\n      tag_362\n      tag_678\n      jump\t// in\n        /* \"#utility.yul\":13674:13858   */\n    tag_472:\n        /* \"#utility.yul\":13744:13750   */\n      0x00\n        /* \"#utility.yul\":13797:13799   */\n      0x20\n        /* \"#utility.yul\":13785:13794   */\n      dup3\n        /* \"#utility.yul\":13776:13783   */\n      dup5\n        /* \"#utility.yul\":13772:13795   */\n      sub\n        /* \"#utility.yul\":13768:13800   */\n      slt\n        /* \"#utility.yul\":13765:13817   */\n      iszero\n      tag_774\n      jumpi\n        /* \"#utility.yul\":13813:13814   */\n      0x00\n        /* \"#utility.yul\":13810:13811   */\n      dup1\n        /* \"#utility.yul\":13803:13815   */\n      revert\n        /* \"#utility.yul\":13765:13817   */\n    tag_774:\n      pop\n        /* \"#utility.yul\":13836:13852   */\n      mload\n      swap2\n        /* \"#utility.yul\":13674:13858   */\n      swap1\n      pop\n      jump\t// out\n        /* \"#utility.yul\":14243:14368   */\n    tag_497:\n        /* \"#utility.yul\":14308:14317   */\n      dup1\n      dup3\n      add\n        /* \"#utility.yul\":14329:14339   */\n      dup1\n      dup3\n      gt\n        /* \"#utility.yul\":14326:14362   */\n      iszero\n      tag_362\n      jumpi\n        /* \"#utility.yul\":14342:14360   */\n      tag_362\n      tag_678\n      jump\t// in\n        /* \"#utility.yul\":14721:14889   */\n    tag_550:\n        /* \"#utility.yul\":14794:14803   */\n      dup1\n      dup3\n      mul\n        /* \"#utility.yul\":14825:14834   */\n      dup2\n      iszero\n        /* \"#utility.yul\":14842:14857   */\n      dup3\n      dup3\n      div\n        /* \"#utility.yul\":14836:14858   */\n      dup5\n      eq\n        /* \"#utility.yul\":14822:14859   */\n      or\n        /* \"#utility.yul\":14812:14883   */\n      tag_362\n      jumpi\n        /* \"#utility.yul\":14863:14881   */\n      tag_362\n      tag_678\n      jump\t// in\n        /* \"#utility.yul\":14894:15111   */\n    tag_553:\n        /* \"#utility.yul\":14934:14935   */\n      0x00\n        /* \"#utility.yul\":14960:14961   */\n      dup3\n        /* \"#utility.yul\":14950:15082   */\n      tag_784\n      jumpi\n        /* \"#utility.yul\":15004:15014   */\n      0x4e487b71\n        /* \"#utility.yul\":14999:15002   */\n      0xe0\n        /* \"#utility.yul\":14995:15015   */\n      shl\n        /* \"#utility.yul\":14992:14993   */\n      0x00\n        /* \"#utility.yul\":14985:15016   */\n      mstore\n        /* \"#utility.yul\":15039:15043   */\n      0x12\n        /* \"#utility.yul\":15036:15037   */\n      0x04\n        /* \"#utility.yul\":15029:15044   */\n      mstore\n        /* \"#utility.yul\":15067:15071   */\n      0x24\n        /* \"#utility.yul\":15064:15065   */\n      0x00\n        /* \"#utility.yul\":15057:15072   */\n      revert\n        /* \"#utility.yul\":14950:15082   */\n    tag_784:\n      pop\n        /* \"#utility.yul\":15096:15105   */\n      div\n      swap1\n        /* \"#utility.yul\":14894:15111   */\n      jump\t// out\n        /* \"#utility.yul\":16261:16538   */\n    tag_617:\n        /* \"#utility.yul\":16328:16334   */\n      0x00\n        /* \"#utility.yul\":16381:16383   */\n      0x20\n        /* \"#utility.yul\":16369:16378   */\n      dup3\n        /* \"#utility.yul\":16360:16367   */\n      dup5\n        /* \"#utility.yul\":16356:16379   */\n      sub\n        /* \"#utility.yul\":16352:16384   */\n      slt\n        /* \"#utility.yul\":16349:16401   */\n      iszero\n      tag_789\n      jumpi\n        /* \"#utility.yul\":16397:16398   */\n      0x00\n        /* \"#utility.yul\":16394:16395   */\n      dup1\n        /* \"#utility.yul\":16387:16399   */\n      revert\n        /* \"#utility.yul\":16349:16401   */\n    tag_789:\n        /* \"#utility.yul\":16429:16438   */\n      dup2\n        /* \"#utility.yul\":16423:16439   */\n      mload\n        /* \"#utility.yul\":16482:16487   */\n      dup1\n        /* \"#utility.yul\":16475:16488   */\n      iszero\n        /* \"#utility.yul\":16468:16489   */\n      iszero\n        /* \"#utility.yul\":16461:16466   */\n      dup2\n        /* \"#utility.yul\":16458:16490   */\n      eq\n        /* \"#utility.yul\":16448:16508   */\n      tag_325\n      jumpi\n        /* \"#utility.yul\":16504:16505   */\n      0x00\n        /* \"#utility.yul\":16501:16502   */\n      dup1\n        /* \"#utility.yul\":16494:16506   */\n      revert\n        /* \"#utility.yul\":17361:17611   */\n    tag_681:\n        /* \"#utility.yul\":17446:17447   */\n      0x00\n        /* \"#utility.yul\":17456:17569   */\n    tag_794:\n        /* \"#utility.yul\":17470:17476   */\n      dup4\n        /* \"#utility.yul\":17467:17468   */\n      dup2\n        /* \"#utility.yul\":17464:17477   */\n      lt\n        /* \"#utility.yul\":17456:17569   */\n      iszero\n      tag_796\n      jumpi\n        /* \"#utility.yul\":17546:17557   */\n      dup2\n      dup2\n      add\n        /* \"#utility.yul\":17540:17558   */\n      mload\n        /* \"#utility.yul\":17527:17538   */\n      dup4\n      dup3\n      add\n        /* \"#utility.yul\":17520:17559   */\n      mstore\n        /* \"#utility.yul\":17492:17494   */\n      0x20\n        /* \"#utility.yul\":17485:17495   */\n      add\n        /* \"#utility.yul\":17456:17569   */\n      jump(tag_794)\n    tag_796:\n      pop\n      pop\n        /* \"#utility.yul\":17603:17604   */\n      0x00\n        /* \"#utility.yul\":17585:17601   */\n      swap2\n      add\n        /* \"#utility.yul\":17578:17605   */\n      mstore\n        /* \"#utility.yul\":17361:17611   */\n      jump\t// out\n        /* \"#utility.yul\":17616:17903   */\n    tag_644:\n        /* \"#utility.yul\":17745:17748   */\n      0x00\n        /* \"#utility.yul\":17783:17789   */\n      dup3\n        /* \"#utility.yul\":17777:17790   */\n      mload\n        /* \"#utility.yul\":17799:17865   */\n      tag_798\n        /* \"#utility.yul\":17858:17864   */\n      dup2\n        /* \"#utility.yul\":17853:17856   */\n      dup5\n        /* \"#utility.yul\":17846:17850   */\n      0x20\n        /* \"#utility.yul\":17838:17844   */\n      dup8\n        /* \"#utility.yul\":17834:17851   */\n      add\n        /* \"#utility.yul\":17799:17865   */\n      tag_681\n      jump\t// in\n    tag_798:\n        /* \"#utility.yul\":17881:17897   */\n      swap2\n      swap1\n      swap2\n      add\n      swap3\n        /* \"#utility.yul\":17616:17903   */\n      swap2\n      pop\n      pop\n      jump\t// out\n        /* \"#utility.yul\":18266:18662   */\n    tag_666:\n        /* \"#utility.yul\":18415:18417   */\n      0x20\n        /* \"#utility.yul\":18404:18413   */\n      dup2\n        /* \"#utility.yul\":18397:18418   */\n      mstore\n        /* \"#utility.yul\":18378:18382   */\n      0x00\n        /* \"#utility.yul\":18447:18453   */\n      dup3\n        /* \"#utility.yul\":18441:18454   */\n      mload\n        /* \"#utility.yul\":18490:18496   */\n      dup1\n        /* \"#utility.yul\":18485:18487   */\n      0x20\n        /* \"#utility.yul\":18474:18483   */\n      dup5\n        /* \"#utility.yul\":18470:18488   */\n      add\n        /* \"#utility.yul\":18463:18497   */\n      mstore\n        /* \"#utility.yul\":18506:18585   */\n      tag_801\n        /* \"#utility.yul\":18578:18584   */\n      dup2\n        /* \"#utility.yul\":18573:18575   */\n      0x40\n        /* \"#utility.yul\":18562:18571   */\n      dup6\n        /* \"#utility.yul\":18558:18576   */\n      add\n        /* \"#utility.yul\":18553:18555   */\n      0x20\n        /* \"#utility.yul\":18545:18551   */\n      dup8\n        /* \"#utility.yul\":18541:18556   */\n      add\n        /* \"#utility.yul\":18506:18585   */\n      tag_681\n      jump\t// in\n    tag_801:\n        /* \"#utility.yul\":18646:18648   */\n      0x1f\n        /* \"#utility.yul\":18625:18640   */\n      add\n      not(0x1f)\n        /* \"#utility.yul\":18621:18650   */\n      and\n        /* \"#utility.yul\":18606:18651   */\n      swap2\n      swap1\n      swap2\n      add\n        /* \"#utility.yul\":18653:18655   */\n      0x40\n        /* \"#utility.yul\":18602:18656   */\n      add\n      swap3\n        /* \"#utility.yul\":18266:18662   */\n      swap2\n      pop\n      pop\n      jump\t// out\n\n    auxdata: 0xa2646970667358221220637b40f2b4b518532068b0b324c09a8a6ab7c3119a49dd9a57ad277f35cb274e64736f6c63430008150033\n}\n",
				"bytecode": {
					"linkReferences": {},
					"object": "608060405234801561000f575f80fd5b506136f68061001d5f395ff3fe608060405234801561000f575f80fd5b50600436106101a1575f3560e01c8063a3058071116100f3578063ca6d83df11610093578063db518db21161006e578063db518db2146104aa578063ec20c2e5146104bd578063fa7c828a146104c5578063fd2324de146104d8575f80fd5b8063ca6d83df14610467578063cfe8a73b1461048f578063d474fbf714610497575f80fd5b8063a583024b116100ce578063a583024b146103ca578063b3a7834d146103f2578063c4d66de814610441578063c51475b914610454575f80fd5b8063a30580711461039c578063a3d74f06146103af578063a3fb7050146103b7575f80fd5b80631ac6d19d1161015e5780632f4f21e2116101395780632f4f21e21461034e578063361f1ad314610361578063858c758514610369578063a2122bf714610389575f80fd5b80631ac6d19d1461031e57806326be90bf146103315780632c26eb4614610339575f80fd5b8063039da66e146101a5578063095d0c94146101c35780630ef12aa9146101d55780630fce03b9146101fd578063135022c21461022257806318703da5146102fe575b5f80fd5b6101ad6104e0565b6040516101ba919061314a565b60405180910390f35b6001545b6040519081526020016101ba565b6101c76101e336600461317f565b6001600160a01b03165f9081526003602052604090205490565b600f546001600160a01b03165b6040516001600160a01b0390911681526020016101ba565b61023561023036600461319a565b610526565b6040516101ba9190815180516001600160a01b03168252602080820151908301526040908101511515908201526101c0810160208381015180516001600160a01b031660608501529081015160808401526040810151151560a08401525060408381015180516001600160a01b031660c0850152602081015160e08501529081015115156101008401525060608301511515610120830152608083015161014083015260a083015161016083015260c083015161018083015260e0909201516101a09091015290565b61031161030c36600461317f565b6106ae565b6040516101ba91906131b1565b6101c761032c36600461317f565b61073e565b6008546101c7565b61034c61034736600461319a565b610a29565b005b61034c61035c366004613212565b610b1f565b6010546101c7565b61037c610377366004613212565b610c30565b6040516101ba919061323c565b61034c6103973660046132b5565b610d9d565b61034c6103aa3660046132ed565b610e6e565b6101c76112ce565b6101c76103c5366004613344565b61130d565b6101c76103d836600461317f565b6001600160a01b03165f9081526006602052604090205490565b61040561040036600461317f565b6113e7565b6040516101ba919081516001600160a01b0316815260208083015190820152604080830151908201526060918201519181019190915260800190565b61034c61044f36600461317f565b61146f565b61034c610462366004613372565b6114e6565b61020a61047536600461319a565b5f908152600260205260409020546001600160a01b031690565b600d546101c7565b6101c76104a5366004613344565b6115fe565b61034c6104b8366004613212565b611a77565b61034c611bc3565b61034c6104d336600461317f565b612087565b6101c7612132565b61050160405180606001604052805f81526020015f81526020015f81525090565b50604080516060810182526009548152600a546020820152600b549181019190915290565b60408051610160810182525f610100820181815261012083018290526101408301829052825282516060808201855282825260208083018490528286018490528085019290925284518082018652838152918201839052818501839052938301529181018290526080810182905260a0810182905260c0810182905260e08101919091525f600d83815481106105be576105be6133a1565b5f9182526020918290206040805161016081018252600e90930290910180546001600160a01b0390811661010085019081526001830154610120860152600283015460ff90811615156101408701529085528351606081810186526003850154841682526004850154828901526005850154831615158287015286880191909152845180820186526006850154909316835260078401549683019690965260088301548116151582850152928401526009810154909116151592820192909252600a8201546080820152600b82015460a0820152600c82015460c0820152600d9091015460e08201529392505050565b6001600160a01b0381165f908152600660209081526040808320600101805482518185028101850190935280835260609493849084015b82821015610732578382905f5260205f2090600302016040518060600160405290815f820154815260200160018201548152602001600282015481525050815260200190600101906106e5565b50929695505050505050565b5f80546040805163b0f479a160e01b8152905183926001600160a01b03169163b0f479a19160048083019260209291908290030181865afa158015610785573d5f803e3d5ffd5b505050506040513d601f19601f820116820180604052508101906107a991906133b5565b9050336001600160a01b038216146107dc5760405162461bcd60e51b81526004016107d3906133d0565b60405180910390fd5b600754156107fc5760405162461bcd60e51b81526004016107d3906133f8565b60016007555f61080b600d5490565b90505f811161082c5760405162461bcd60e51b81526004016107d39061341e565b6001600160a01b0384165f90815260066020526040902054806108875760405162461bcd60e51b81526020600482015260136024820152724e6f207265776172647320746f20636c61696d60681b60448201526064016107d3565b6001600160a01b0385165f90815260066020526040812081815560020154905b818110156109e9576001600160a01b0387165f9081526006602052604081206002018054839081106108db576108db6133a1565b905f5260205f20015490505f60065f8a6001600160a01b03166001600160a01b031681526020019081526020015f20600101838154811061091e5761091e6133a1565b905f5260205f2090600302016001015490505f600d8381548110610944576109446133a1565b905f5260205f2090600e020190508160010361097f57600281015460ff1615155f0361097a5760028101805460ff191660011790555b6109d3565b816002036109ab57600581015460ff1615155f0361097a5760058101805460ff191660011790556109d3565b816003036109d357600881015460ff1615155f036109d35760088101805460ff191660011790555b50505080806109e190613460565b9150506108a7565b506001600160a01b0386165f908152600660205260408120610a109160029091019061311c565b5f610a1a836121b8565b5f600755979650505050505050565b5f805f9054906101000a90046001600160a01b03166001600160a01b031663cf20d8726040518163ffffffff1660e01b8152600401602060405180830381865afa158015610a79573d5f803e3d5ffd5b505050506040513d601f19601f82011682018060405250810190610a9d91906133b5565b9050336001600160a01b03821614610ac75760405162461bcd60e51b81526004016107d3906133d0565b5f600d8381548110610adb57610adb6133a1565b905f5260205f2090600e020190505f610b0582600b015483600c01546123fb90919063ffffffff16565b9050610b118482612406565b82600d018190555050505050565b5f805f9054906101000a90046001600160a01b03166001600160a01b031663b0f479a16040518163ffffffff1660e01b8152600401602060405180830381865afa158015610b6f573d5f803e3d5ffd5b505050506040513d601f19601f82011682018060405250810190610b9391906133b5565b9050336001600160a01b03821614610bbd5760405162461bcd60e51b81526004016107d3906133d0565b60075415610bdd5760405162461bcd60e51b81526004016107d3906133f8565b60016007555f610bec600d5490565b90505f8111610c0d5760405162461bcd60e51b81526004016107d39061341e565b5f610c178461247b565b9050610c2585826001612584565b50505f600755505050565b604080518082019091525f815260606020820152600d5480610c645760405162461bcd60e51b81526004016107d39061341e565b825f610c6e6112ce565b905080821115610cb75760405162461bcd60e51b815260206004820152601460248201527324b73b30b634b21032b837b1b410373ab6b132b960611b60448201526064016107d3565b6001600160a01b0386165f9081526003602052604081205490819003610cef5760405162461bcd60e51b81526004016107d390613478565b5f868152600560209081526040808320848452825280832081518083018352815460ff16151581526001820180548451818702810187019095528085529194929385840193909290879084015b82821015610d89578382905f5260205f2090600302016040518060600160405290815f82015481526020016001820154815260200160028201548152505081526020019060010190610d3c565b505050915250909998505050505050505050565b5f805f9054906101000a90046001600160a01b03166001600160a01b0316633018205f6040518163ffffffff1660e01b8152600401602060405180830381865afa158015610ded573d5f803e3d5ffd5b505050506040513d601f19601f82011682018060405250810190610e1191906133b5565b9050336001600160a01b03821614610e3b5760405162461bcd60e51b81526004016107d3906133d0565b50600f80546001600160a01b0319166001600160a01b039590951694909417909355601191909155600e91909155601055565b5f805f9054906101000a90046001600160a01b03166001600160a01b031663cf20d8726040518163ffffffff1660e01b8152600401602060405180830381865afa158015610ebe573d5f803e3d5ffd5b505050506040513d601f19601f82011682018060405250810190610ee291906133b5565b9050336001600160a01b03821614610f0c5760405162461bcd60e51b81526004016107d3906133d0565b6001600160a01b0385165f908152600360205260409020545f03610f425760405162461bcd60e51b81526004016107d3906134a8565b6001600160a01b0384165f908152600360205260409020545f03610f785760405162461bcd60e51b81526004016107d3906134a8565b6001600160a01b0383165f908152600360205260409020545f03610fae5760405162461bcd60e51b81526004016107d3906134a8565b5f600d8781548110610fc257610fc26133a1565b5f9182526020909120600e90910201600981015490915060ff16801561101a5760405162461bcd60e51b815260206004820152600d60248201526c45706f636820697320646f6e6560981b60448201526064016107d3565b5f61103683600b015484600c01546123fb90919063ffffffff16565b905080421161107a5760405162461bcd60e51b815260206004820152601060248201526f45706f63682069736e277420646f6e6560801b60448201526064016107d3565b60098301805460ff191660011790555f61109386612663565b600a850181905584546001600160a01b0319166001600160a01b038b16178555600c546009549192506110d1916110cb9084906127dc565b906127e7565b600185015560028401805460ff191690556003840180546001600160a01b0319166001600160a01b038a16179055600c54600a5461111591906110cb9084906127dc565b600485015560058401805460ff191690556006840180546001600160a01b0319166001600160a01b038916179055600c54600b5461115991906110cb9084906127dc565b600785015560088401805460ff19169055604080516003808252608082019092525f916020820160608036833701905050905089815f8151811061119f5761119f6133a1565b60200260200101906001600160a01b031690816001600160a01b03168152505088816001815181106111d3576111d36133a1565b60200260200101906001600160a01b031690816001600160a01b0316815250508781600281518110611207576112076133a1565b6001600160a01b0392909216602092830291909101820152604080516003808252608082019092525f929091908201606080368337019050509050855f0160010154815f8151811061125b5761125b6133a1565b602002602001018181525050856003016001015481600181518110611282576112826133a1565b6020026020010181815250508560060160010154816002815181106112a9576112a96133a1565b6020026020010181815250506112c08c83836127f2565b505050505050505050505050565b5f806112d9600d5490565b90505f81116112fa5760405162461bcd60e51b81526004016107d39061341e565b5f61130682600161298b565b9392505050565b5f80611318600d5490565b90505f81116113395760405162461bcd60e51b81526004016107d39061341e565b835f6113436112ce565b90508082111561138c5760405162461bcd60e51b815260206004820152601460248201527324b73b30b634b21032b837b1b410373ab6b132b960611b60448201526064016107d3565b6001600160a01b0385165f90815260036020526040812054908190036113c45760405162461bcd60e51b81526004016107d390613478565b5f8781526004602090815260408083209383529290522054935050505092915050565b61141760405180608001604052805f6001600160a01b031681526020015f81526020015f81526020015f81525090565b506001600160a01b039081165f90815260036020818152604080842054845260028083529381902081516080810183528154909616865260018101549286019290925292810154928401929092520154606082015290565b5f54600160a01b900460ff16156114c85760405162461bcd60e51b815260206004820152601f60248201527f436f6e747261637420697320696e697469616c697a656420616c72656164790060448201526064016107d3565b6114d181612996565b505f805460ff60a01b1916600160a01b179055565b5f805f9054906101000a90046001600160a01b03166001600160a01b0316633018205f6040518163ffffffff1660e01b8152600401602060405180830381865afa158015611536573d5f803e3d5ffd5b505050506040513d601f19601f8201168201806040525081019061155a91906133b5565b9050336001600160a01b038216146115845760405162461bcd60e51b81526004016107d3906133d0565b816115998461159388886123fb565b906123fb565b146115a2575f80fd5b6009859055600a849055600b839055600c82905560408051868152602081018690529081018490527f276fb89d8224ffd75e667ef77aa3b75f5d7064a6dd5b8c9b9b8761b8b303a3469060600160405180910390a15050505050565b5f8281526004602090815260408083206001600160a01b038516845260038352818420548452909152812054600d805483928392909183919088908110611647576116476133a1565b5f91825260208083206040805161016081018252600e90940290910180546001600160a01b0390811661010086019081526001830154610120870152600283015460ff90811615156101408801529086528351606081810186526003850154841682526004850154828801526005850154831615158287015287870191909152845180820186526006850154909316835260078401549583019590955260088301548116151582850152928501526009810154909116151591830191909152600a8101546080830152600b81015460a08301819052600c82015460c08401819052600d9092015460e084015291935061174091906123fb565b6001600160a01b0388165f9081526003602052604081205491925081900361177a5760405162461bcd60e51b81526004016107d390613478565b5f81815260026020819052604090912060038101546001820154919092015484116117f65760405162461bcd60e51b815260206004820152602660248201527f5573657220686173206e6f742070617274696369706174656420696e20746865604482015265040cae0dec6d60d31b60648201526084016107d3565b5f6118018b8d610c30565b90508560c0015142101580156118175750844211155b156118a7578560c0015183101580156118305750848311155b156118505761184982611843428661298b565b906127dc565b975061187a565b8560c0015183101561187a57611877826118438860c001514261298b90919063ffffffff16565b97505b611896601154600a61188c91906135b4565b6110cb898b6123fb565b9950611a7198505050505050505050565b84421115611a64578560c001518310156118da57611896601154600a6118cd91906135b4565b600e546110cb90856127dc565b805115611986576020810151515f906118f490600161298b565b90505f8260200151828151811061190d5761190d6133a1565b60200260200101516040015190505f61195484602001518481518110611935576119356133a1565b602002602001015160200151611843848b61298b90919063ffffffff16565b9050611972601154600a61196891906135b4565b6110cb8c846123fb565b9c50611a719b505050505050505050505050565b805115155f03611a64575f61199c8d600161298b565b90505f5b8d811015611a51575f6119b38e84610c30565b805190915015611a30576020810151515f906119d090600161298b565b90505f611a0b836020015183815181106119ec576119ec6133a1565b6020026020010151602001518c60a001516127dc90919063ffffffff16565b9050611a26601154600a611a1f91906135b4565b82906127e7565b9d50505050611a51565b611a3b6001846135bf565b9250508080611a4990613460565b9150506119a0565b50899a5050505050505050505050611a71565b505f985050505050505050505b92915050565b5f805f9054906101000a90046001600160a01b03166001600160a01b031663b0f479a16040518163ffffffff1660e01b8152600401602060405180830381865afa158015611ac7573d5f803e3d5ffd5b505050506040513d601f19601f82011682018060405250810190611aeb91906133b5565b9050336001600160a01b03821614611b155760405162461bcd60e51b81526004016107d3906133d0565b60075415611b355760405162461bcd60e51b81526004016107d3906133f8565b60016007555f611b44600d5490565b90505f8111611b655760405162461bcd60e51b81526004016107d39061341e565b5f8311611ba55760405162461bcd60e51b815260206004820152600e60248201526d125b9d985b1a5908185b5bdd5b9d60921b60448201526064016107d3565b611bb084845f612584565b611bb9836129b7565b50505f6007555050565b5f805f9054906101000a90046001600160a01b03166001600160a01b031663cf20d8726040518163ffffffff1660e01b8152600401602060405180830381865afa158015611c13573d5f803e3d5ffd5b505050506040513d601f19601f82011682018060405250810190611c3791906133b5565b9050336001600160a01b03821614611c615760405162461bcd60e51b81526004016107d3906133d0565b5f611c6b600d5490565b90508015611d8a575f611c7f82600161298b565b90505f600d8281548110611c9557611c956133a1565b5f9182526020918290206040805161016081018252600e90930290910180546001600160a01b0390811661010085019081526001830154610120860152600283015460ff908116151561014087015290855283516060818101865260038501548416825260048501548289015260058501548316151582870152868801919091528451808201865260068501549093168352600784015496830196909652600883015481161515828501529284015260098101549091161515928201839052600a8101546080830152600b81015460a0830152600c81015460c0830152600d015460e0820152915080611d86575f80fd5b5050505b505060408051606080820183525f808352602080840182905283850182905284516101008101865284815280820185815281870195865293810183815260808201848152600e805460a085019081524260c0860190815260e08601888152600d80546001810182559952955180517fd7b6990105719101dabeb77144f2a3385c8033acd3af97e9423a695e81ad1eb59990940298890180546001600160a01b03199081166001600160a01b0396871617909155818901517fd7b6990105719101dabeb77144f2a3385c8033acd3af97e9423a695e81ad1eb68b0155908c01517fd7b6990105719101dabeb77144f2a3385c8033acd3af97e9423a695e81ad1eb78a01805460ff19908116921515929092179055995180517fd7b6990105719101dabeb77144f2a3385c8033acd3af97e9423a695e81ad1eb88b0180548416918716919091179055808901517fd7b6990105719101dabeb77144f2a3385c8033acd3af97e9423a695e81ad1eb98b01558c01517fd7b6990105719101dabeb77144f2a3385c8033acd3af97e9423a695e81ad1eba8a0180548c16911515919091179055995180517fd7b6990105719101dabeb77144f2a3385c8033acd3af97e9423a695e81ad1ebb8a018054909c16941693909317909955948101517fd7b6990105719101dabeb77144f2a3385c8033acd3af97e9423a695e81ad1ebc870155909701517fd7b6990105719101dabeb77144f2a3385c8033acd3af97e9423a695e81ad1ebd850180548716911515919091179055517fd7b6990105719101dabeb77144f2a3385c8033acd3af97e9423a695e81ad1ebe840180549095169015151790935593517fd7b6990105719101dabeb77144f2a3385c8033acd3af97e9423a695e81ad1ebf82015592517fd7b6990105719101dabeb77144f2a3385c8033acd3af97e9423a695e81ad1ec084015590517fd7b6990105719101dabeb77144f2a3385c8033acd3af97e9423a695e81ad1ec1830155517fd7b6990105719101dabeb77144f2a3385c8033acd3af97e9423a695e81ad1ec290910155565b5f805f9054906101000a90046001600160a01b03166001600160a01b031663893d20e86040518163ffffffff1660e01b8152600401602060405180830381865afa1580156120d7573d5f803e3d5ffd5b505050506040513d601f19601f820116820180604052508101906120fb91906133b5565b9050336001600160a01b038216146121255760405162461bcd60e51b81526004016107d3906133d0565b61212e82612996565b5050565b600f546040516370a0823160e01b81523060048201525f9182916001600160a01b03909116906370a0823190602401602060405180830381865afa15801561217c573d5f803e3d5ffd5b505050506040513d601f19601f820116820180604052508101906121a091906135d2565b90505f6113066008548361298b90919063ffffffff16565b5f80546040805163b0f479a160e01b8152905183926001600160a01b03169163b0f479a19160048083019260209291908290030181865afa1580156121ff573d5f803e3d5ffd5b505050506040513d601f19601f8201168201806040525081019061222391906133b5565b600f546040516370a0823160e01b81526001600160a01b0380841660048301529293505f92909116906370a0823190602401602060405180830381865afa158015612270573d5f803e3d5ffd5b505050506040513d601f19601f8201168201806040525081019061229491906135d2565b90505f805f9054906101000a90046001600160a01b03166001600160a01b0316639960d7426040518163ffffffff1660e01b8152600401602060405180830381865afa1580156122e6573d5f803e3d5ffd5b505050506040513d601f19601f8201168201806040525081019061230a91906133b5565b600f54604051630431a08b60e41b81526001600160a01b03918216600482015260248101889052858216604482015291925082169063431a08b0906064015f604051808303815f87803b15801561235f575f80fd5b505af1158015612371573d5f803e3d5ffd5b5050600f546040516370a0823160e01b81526001600160a01b0387811660048301525f945090911691506370a0823190602401602060405180830381865afa1580156123bf573d5f803e3d5ffd5b505050506040513d601f19601f820116820180604052508101906123e391906135d2565b90505f6123f0828561298b565b979650505050505050565b5f61130682846135e9565b5f8060015b600154811015612473575f8181526002602081905260409091209081015490546001600160a01b031685821161245e575f61244688836115fe565b9050801561245c576124596001866135e9565b94505b505b5050808061246b90613460565b91505061240b565b509392505050565b600f546040516370a0823160e01b81523060048201525f9182916001600160a01b03909116906370a0823190602401602060405180830381865afa1580156124c5573d5f803e3d5ffd5b505050506040513d601f19601f820116820180604052508101906124e991906135d2565b600f54909150612504906001600160a01b03163330866129d1565b600f546040516370a0823160e01b81523060048201525f916001600160a01b0316906370a0823190602401602060405180830381865afa15801561254a573d5f803e3d5ffd5b505050506040513d601f19601f8201168201806040525081019061256e91906135d2565b90505f61257b828461298b565b95945050505050565b80156125ea576001600160a01b0383165f90815260036020526040812054908181036125b7576125b385612a3c565b5060015b80156125d8576001600160a01b0385165f9081526003602052604090205491505b6125e3828585612aa1565b5050505050565b8015155f0361265e576001600160a01b0383165f90815260036020526040812054908190036126515760405162461bcd60e51b8152602060048201526013602482015272155cd95c881b9bdd081c9959da5cdd195c9959606a1b60448201526064016107d3565b61265c818484612aa1565b505b505050565b5f805460408051634cb06ba160e11b8152905183926001600160a01b031691639960d7429160048083019260209291908290030181865afa1580156126aa573d5f803e3d5ffd5b505050506040513d601f19601f820116820180604052508101906126ce91906133b5565b600f546040516370a0823160e01b81526001600160a01b0380841660048301529293505f92909116906370a0823190602401602060405180830381865afa15801561271b573d5f803e3d5ffd5b505050506040513d601f19601f8201168201806040525081019061273f91906135d2565b600f54909150612759906001600160a01b03168386612d0a565b600f546040516370a0823160e01b81526001600160a01b0384811660048301525f9216906370a0823190602401602060405180830381865afa1580156127a1573d5f803e3d5ffd5b505050506040513d601f19601f820116820180604052508101906127c591906135d2565b90505f6127d2828461298b565b9695505050505050565b5f61130682846135fc565b5f6113068284613613565b81515f5b818110156125e357828181518110612810576128106133a1565b602002602001015160065f86848151811061282d5761282d6133a1565b60200260200101516001600160a01b03166001600160a01b031681526020019081526020015f205f015f82825461286491906135e9565b9250508190555060065f858381518110612880576128806133a1565b60200260200101516001600160a01b03166001600160a01b031681526020019081526020015f2060010160405180606001604052808781526020016128cf6001856123fb90919063ffffffff16565b81526020018584815181106128e6576128e66133a1565b6020908102919091018101519091528254600181810185555f9485528285208451600390930201918255918301519181019190915560409091015160029091015584516006919086908490811061293f5761293f6133a1565b6020908102919091018101516001600160a01b03168252818101929092526040015f9081206002018054600181018255908252919020018590558061298381613460565b9150506127f6565b5f61130682846135bf565b5f80546001600160a01b0319166001600160a01b0392909216919091179055565b600f546129ce906001600160a01b03163383612d0a565b50565b6040516001600160a01b038085166024830152831660448201526064810182905261265c9085906323b872dd60e01b906084015b60408051601f198184030181529190526020810180516001600160e01b03166001600160e01b031990931692909217909152612d3a565b6001805f828254612a4d91906135e9565b9091555050600180546001600160a01b03929092165f81815260036020818152604080842087905595835260029081905294822080546001600160a01b031916909317835592820155429281018390550155565b5f838152600260205260409020600101548115612afb575f8481526002602052604081206001018054859290612ad89084906135e9565b925050819055508260085f828254612af091906135e9565b90915550612b939050565b8115155f03612b93575f84815260026020526040902060010154831115612b555760405162461bcd60e51b815260206004820152600e60248201526d125b9d985b1a5908185b5bdd5b9d60921b60448201526064016107d3565b5f8481526002602052604081206001018054859290612b759084906135bf565b925050819055508260085f828254612b8d91906135bf565b90915550505b5f848152600260205260408120600381018054429091556001909101549091612bba6112ce565b90505f600d8281548110612bd057612bd06133a1565b905f5260205f2090600e020190505f612bfa82600b015483600c01546123fb90919063ffffffff16565b905080421115612c885760405162461bcd60e51b815260206004820152604d60248201527f436f6e747261637420697320696e207468652070726f63657373206f6620757060448201527f646174696e672e20506c65617365207761697420666f722061207768696c652060648201526c30b732103a393c9030b3b0b4b760991b608482015260a4016107d3565b5f8381526005602090815260408083208c84528252808320805460ff19166001908117825582516060810184528b81528085018a81524294820194855292820180548084018255908752949095209451600390940290940192835551928201929092559051600290910155612cff89878786612e0d565b505050505050505050565b6040516001600160a01b03831660248201526044810182905261265e90849063a9059cbb60e01b90606401612a05565b5f612d8e826040518060400160405280602081526020017f5361666545524332303a206c6f772d6c6576656c2063616c6c206661696c6564815250856001600160a01b0316612fa29092919063ffffffff16565b905080515f1480612dae575080806020019051810190612dae9190613632565b61265e5760405162461bcd60e51b815260206004820152602a60248201527f5361666545524332303a204552433230206f7065726174696f6e20646964206e6044820152691bdd081cdd58d8d9595960b21b60648201526084016107d3565b5f600d8281548110612e2157612e216133a1565b5f91825260208083206040805161016081018252600e90940290910180546001600160a01b0390811661010086019081526001830154610120870152600283015460ff90811615156101408801529086528351606081810186526003850154841682526004850154828801526005850154831615158287015287870191909152845180820186526006850154909316835260078401549583019590955260088301548116151582850152928501526009810154909116151591830191909152600a8101546080830152600b81015460a08301819052600c82015460c08401819052600d9092015460e08401529193509190612f1c90836123fb565b90505f82861015612f3857612f31428461298b565b9050612f5a565b828610158015612f485750818611155b15612f5a57612f57428761298b565b90505b5f612f6582896127dc565b5f8781526004602090815260408083208d8452909152812080549293508392909190612f929084906135e9565b9091555050505050505050505050565b6060612fb084845f85612fb8565b949350505050565b6060824710156130195760405162461bcd60e51b815260206004820152602660248201527f416464726573733a20696e73756666696369656e742062616c616e636520666f6044820152651c8818d85b1b60d21b60648201526084016107d3565b5f80866001600160a01b031685876040516130349190613673565b5f6040518083038185875af1925050503d805f811461306e576040519150601f19603f3d011682016040523d82523d5f602084013e613073565b606091505b50915091506123f087838387606083156130ed5782515f036130e6576001600160a01b0385163b6130e65760405162461bcd60e51b815260206004820152601d60248201527f416464726573733a2063616c6c20746f206e6f6e2d636f6e747261637400000060448201526064016107d3565b5081612fb0565b612fb083838151156131025781518083602001fd5b8060405162461bcd60e51b81526004016107d3919061368e565b5080545f8255905f5260205f20908101906129ce91905b80821115613146575f8155600101613133565b5090565b81518152602080830151908201526040808301519082015260608101611a71565b6001600160a01b03811681146129ce575f80fd5b5f6020828403121561318f575f80fd5b81356113068161316b565b5f602082840312156131aa575f80fd5b5035919050565b602080825282518282018190525f9190848201906040850190845b81811015613206576131f38385518051825260208082015190830152604090810151910152565b92840192606092909201916001016131cc565b50909695505050505050565b5f8060408385031215613223575f80fd5b823561322e8161316b565b946020939093013593505050565b5f6020808352606080840185511515838601528286015160408087015281815180845260808801915085830193505f92505b808310156132a9576132958285518051825260208082015190830152604090810151910152565b92850192600192909201919084019061326e565b50979650505050505050565b5f805f80608085870312156132c8575f80fd5b84356132d38161316b565b966020860135965060408601359560600135945092505050565b5f805f805f60a08688031215613301575f80fd5b8535945060208601356133138161316b565b935060408601356133238161316b565b925060608601356133338161316b565b949793965091946080013592915050565b5f8060408385031215613355575f80fd5b8235915060208301356133678161316b565b809150509250929050565b5f805f8060808587031215613385575f80fd5b5050823594602084013594506040840135936060013592509050565b634e487b7160e01b5f52603260045260245ffd5b5f602082840312156133c5575f80fd5b81516113068161316b565b6020808252600e908201526d24b73b30b634b21031b0b63632b960911b604082015260600190565b6020808252600c908201526b125b1b1959d85b0818d85b1b60a21b604082015260600190565b60208082526014908201527310dbdb9d1c9858dd081b9bdd081cdd185c9d195960621b604082015260600190565b634e487b7160e01b5f52601160045260245ffd5b5f600182016134715761347161344c565b5060010190565b602080825260169082015275155cd95c881a185cdb89dd081c9959da5cdd195c995960521b604082015260600190565b602080825260129082015271155cd95c88191bd95cdb89dd08195e1a5cdd60721b604082015260600190565b600181815b8085111561350e57815f19048211156134f4576134f461344c565b8085161561350157918102915b93841c93908002906134d9565b509250929050565b5f8261352457506001611a71565b8161353057505f611a71565b816001811461354657600281146135505761356c565b6001915050611a71565b60ff8411156135615761356161344c565b50506001821b611a71565b5060208310610133831016604e8410600b841016171561358f575081810a611a71565b61359983836134d4565b805f19048211156135ac576135ac61344c565b029392505050565b5f6113068383613516565b81810381811115611a7157611a7161344c565b5f602082840312156135e2575f80fd5b5051919050565b80820180821115611a7157611a7161344c565b8082028115828204841417611a7157611a7161344c565b5f8261362d57634e487b7160e01b5f52601260045260245ffd5b500490565b5f60208284031215613642575f80fd5b81518015158114611306575f80fd5b5f5b8381101561366b578181015183820152602001613653565b50505f910152565b5f8251613684818460208701613651565b9190910192915050565b602081525f82518060208401526136ac816040850160208701613651565b601f01601f1916919091016040019291505056fea2646970667358221220637b40f2b4b518532068b0b324c09a8a6ab7c3119a49dd9a57ad277f35cb274e64736f6c63430008150033",
					"opcodes": "PUSH1 0x80 PUSH1 0x40 MSTORE CALLVALUE DUP1 ISZERO PUSH2 0xF JUMPI PUSH0 DUP1 REVERT JUMPDEST POP PUSH2 0x36F6 DUP1 PUSH2 0x1D PUSH0 CODECOPY PUSH0 RETURN INVALID PUSH1 0x80 PUSH1 0x40 MSTORE CALLVALUE DUP1 ISZERO PUSH2 0xF JUMPI PUSH0 DUP1 REVERT JUMPDEST POP PUSH1 0x4 CALLDATASIZE LT PUSH2 0x1A1 JUMPI PUSH0 CALLDATALOAD PUSH1 0xE0 SHR DUP1 PUSH4 0xA3058071 GT PUSH2 0xF3 JUMPI DUP1 PUSH4 0xCA6D83DF GT PUSH2 0x93 JUMPI DUP1 PUSH4 0xDB518DB2 GT PUSH2 0x6E JUMPI DUP1 PUSH4 0xDB518DB2 EQ PUSH2 0x4AA JUMPI DUP1 PUSH4 0xEC20C2E5 EQ PUSH2 0x4BD JUMPI DUP1 PUSH4 0xFA7C828A EQ PUSH2 0x4C5 JUMPI DUP1 PUSH4 0xFD2324DE EQ PUSH2 0x4D8 JUMPI PUSH0 DUP1 REVERT JUMPDEST DUP1 PUSH4 0xCA6D83DF EQ PUSH2 0x467 JUMPI DUP1 PUSH4 0xCFE8A73B EQ PUSH2 0x48F JUMPI DUP1 PUSH4 0xD474FBF7 EQ PUSH2 0x497 JUMPI PUSH0 DUP1 REVERT JUMPDEST DUP1 PUSH4 0xA583024B GT PUSH2 0xCE JUMPI DUP1 PUSH4 0xA583024B EQ PUSH2 0x3CA JUMPI DUP1 PUSH4 0xB3A7834D EQ PUSH2 0x3F2 JUMPI DUP1 PUSH4 0xC4D66DE8 EQ PUSH2 0x441 JUMPI DUP1 PUSH4 0xC51475B9 EQ PUSH2 0x454 JUMPI PUSH0 DUP1 REVERT JUMPDEST DUP1 PUSH4 0xA3058071 EQ PUSH2 0x39C JUMPI DUP1 PUSH4 0xA3D74F06 EQ PUSH2 0x3AF JUMPI DUP1 PUSH4 0xA3FB7050 EQ PUSH2 0x3B7 JUMPI PUSH0 DUP1 REVERT JUMPDEST DUP1 PUSH4 0x1AC6D19D GT PUSH2 0x15E JUMPI DUP1 PUSH4 0x2F4F21E2 GT PUSH2 0x139 JUMPI DUP1 PUSH4 0x2F4F21E2 EQ PUSH2 0x34E JUMPI DUP1 PUSH4 0x361F1AD3 EQ PUSH2 0x361 JUMPI DUP1 PUSH4 0x858C7585 EQ PUSH2 0x369 JUMPI DUP1 PUSH4 0xA2122BF7 EQ PUSH2 0x389 JUMPI PUSH0 DUP1 REVERT JUMPDEST DUP1 PUSH4 0x1AC6D19D EQ PUSH2 0x31E JUMPI DUP1 PUSH4 0x26BE90BF EQ PUSH2 0x331 JUMPI DUP1 PUSH4 0x2C26EB46 EQ PUSH2 0x339 JUMPI PUSH0 DUP1 REVERT JUMPDEST DUP1 PUSH4 0x39DA66E EQ PUSH2 0x1A5 JUMPI DUP1 PUSH4 0x95D0C94 EQ PUSH2 0x1C3 JUMPI DUP1 PUSH4 0xEF12AA9 EQ PUSH2 0x1D5 JUMPI DUP1 PUSH4 0xFCE03B9 EQ PUSH2 0x1FD JUMPI DUP1 PUSH4 0x135022C2 EQ PUSH2 0x222 JUMPI DUP1 PUSH4 0x18703DA5 EQ PUSH2 0x2FE JUMPI JUMPDEST PUSH0 DUP1 REVERT JUMPDEST PUSH2 0x1AD PUSH2 0x4E0 JUMP JUMPDEST PUSH1 0x40 MLOAD PUSH2 0x1BA SWAP2 SWAP1 PUSH2 0x314A JUMP JUMPDEST PUSH1 0x40 MLOAD DUP1 SWAP2 SUB SWAP1 RETURN JUMPDEST PUSH1 0x1 SLOAD JUMPDEST PUSH1 0x40 MLOAD SWAP1 DUP2 MSTORE PUSH1 0x20 ADD PUSH2 0x1BA JUMP JUMPDEST PUSH2 0x1C7 PUSH2 0x1E3 CALLDATASIZE PUSH1 0x4 PUSH2 0x317F JUMP JUMPDEST PUSH1 0x1 PUSH1 0x1 PUSH1 0xA0 SHL SUB AND PUSH0 SWAP1 DUP2 MSTORE PUSH1 0x3 PUSH1 0x20 MSTORE PUSH1 0x40 SWAP1 KECCAK256 SLOAD SWAP1 JUMP JUMPDEST PUSH1 0xF SLOAD PUSH1 0x1 PUSH1 0x1 PUSH1 0xA0 SHL SUB AND JUMPDEST PUSH1 0x40 MLOAD PUSH1 0x1 PUSH1 0x1 PUSH1 0xA0 SHL SUB SWAP1 SWAP2 AND DUP2 MSTORE PUSH1 0x20 ADD PUSH2 0x1BA JUMP JUMPDEST PUSH2 0x235 PUSH2 0x230 CALLDATASIZE PUSH1 0x4 PUSH2 0x319A JUMP JUMPDEST PUSH2 0x526 JUMP JUMPDEST PUSH1 0x40 MLOAD PUSH2 0x1BA SWAP2 SWAP1 DUP2 MLOAD DUP1 MLOAD PUSH1 0x1 PUSH1 0x1 PUSH1 0xA0 SHL SUB AND DUP3 MSTORE PUSH1 0x20 DUP1 DUP3 ADD MLOAD SWAP1 DUP4 ADD MSTORE PUSH1 0x40 SWAP1 DUP2 ADD MLOAD ISZERO ISZERO SWAP1 DUP3 ADD MSTORE PUSH2 0x1C0 DUP2 ADD PUSH1 0x20 DUP4 DUP2 ADD MLOAD DUP1 MLOAD PUSH1 0x1 PUSH1 0x1 PUSH1 0xA0 SHL SUB AND PUSH1 0x60 DUP6 ADD MSTORE SWAP1 DUP2 ADD MLOAD PUSH1 0x80 DUP5 ADD MSTORE PUSH1 0x40 DUP2 ADD MLOAD ISZERO ISZERO PUSH1 0xA0 DUP5 ADD MSTORE POP PUSH1 0x40 DUP4 DUP2 ADD MLOAD DUP1 MLOAD PUSH1 0x1 PUSH1 0x1 PUSH1 0xA0 SHL SUB AND PUSH1 0xC0 DUP6 ADD MSTORE PUSH1 0x20 DUP2 ADD MLOAD PUSH1 0xE0 DUP6 ADD MSTORE SWAP1 DUP2 ADD MLOAD ISZERO ISZERO PUSH2 0x100 DUP5 ADD MSTORE POP PUSH1 0x60 DUP4 ADD MLOAD ISZERO ISZERO PUSH2 0x120 DUP4 ADD MSTORE PUSH1 0x80 DUP4 ADD MLOAD PUSH2 0x140 DUP4 ADD MSTORE PUSH1 0xA0 DUP4 ADD MLOAD PUSH2 0x160 DUP4 ADD MSTORE PUSH1 0xC0 DUP4 ADD MLOAD PUSH2 0x180 DUP4 ADD MSTORE PUSH1 0xE0 SWAP1 SWAP3 ADD MLOAD PUSH2 0x1A0 SWAP1 SWAP2 ADD MSTORE SWAP1 JUMP JUMPDEST PUSH2 0x311 PUSH2 0x30C CALLDATASIZE PUSH1 0x4 PUSH2 0x317F JUMP JUMPDEST PUSH2 0x6AE JUMP JUMPDEST PUSH1 0x40 MLOAD PUSH2 0x1BA SWAP2 SWAP1 PUSH2 0x31B1 JUMP JUMPDEST PUSH2 0x1C7 PUSH2 0x32C CALLDATASIZE PUSH1 0x4 PUSH2 0x317F JUMP JUMPDEST PUSH2 0x73E JUMP JUMPDEST PUSH1 0x8 SLOAD PUSH2 0x1C7 JUMP JUMPDEST PUSH2 0x34C PUSH2 0x347 CALLDATASIZE PUSH1 0x4 PUSH2 0x319A JUMP JUMPDEST PUSH2 0xA29 JUMP JUMPDEST STOP JUMPDEST PUSH2 0x34C PUSH2 0x35C CALLDATASIZE PUSH1 0x4 PUSH2 0x3212 JUMP JUMPDEST PUSH2 0xB1F JUMP JUMPDEST PUSH1 0x10 SLOAD PUSH2 0x1C7 JUMP JUMPDEST PUSH2 0x37C PUSH2 0x377 CALLDATASIZE PUSH1 0x4 PUSH2 0x3212 JUMP JUMPDEST PUSH2 0xC30 JUMP JUMPDEST PUSH1 0x40 MLOAD PUSH2 0x1BA SWAP2 SWAP1 PUSH2 0x323C JUMP JUMPDEST PUSH2 0x34C PUSH2 0x397 CALLDATASIZE PUSH1 0x4 PUSH2 0x32B5 JUMP JUMPDEST PUSH2 0xD9D JUMP JUMPDEST PUSH2 0x34C PUSH2 0x3AA CALLDATASIZE PUSH1 0x4 PUSH2 0x32ED JUMP JUMPDEST PUSH2 0xE6E JUMP JUMPDEST PUSH2 0x1C7 PUSH2 0x12CE JUMP JUMPDEST PUSH2 0x1C7 PUSH2 0x3C5 CALLDATASIZE PUSH1 0x4 PUSH2 0x3344 JUMP JUMPDEST PUSH2 0x130D JUMP JUMPDEST PUSH2 0x1C7 PUSH2 0x3D8 CALLDATASIZE PUSH1 0x4 PUSH2 0x317F JUMP JUMPDEST PUSH1 0x1 PUSH1 0x1 PUSH1 0xA0 SHL SUB AND PUSH0 SWAP1 DUP2 MSTORE PUSH1 0x6 PUSH1 0x20 MSTORE PUSH1 0x40 SWAP1 KECCAK256 SLOAD SWAP1 JUMP JUMPDEST PUSH2 0x405 PUSH2 0x400 CALLDATASIZE PUSH1 0x4 PUSH2 0x317F JUMP JUMPDEST PUSH2 0x13E7 JUMP JUMPDEST PUSH1 0x40 MLOAD PUSH2 0x1BA SWAP2 SWAP1 DUP2 MLOAD PUSH1 0x1 PUSH1 0x1 PUSH1 0xA0 SHL SUB AND DUP2 MSTORE PUSH1 0x20 DUP1 DUP4 ADD MLOAD SWAP1 DUP3 ADD MSTORE PUSH1 0x40 DUP1 DUP4 ADD MLOAD SWAP1 DUP3 ADD MSTORE PUSH1 0x60 SWAP2 DUP3 ADD MLOAD SWAP2 DUP2 ADD SWAP2 SWAP1 SWAP2 MSTORE PUSH1 0x80 ADD SWAP1 JUMP JUMPDEST PUSH2 0x34C PUSH2 0x44F CALLDATASIZE PUSH1 0x4 PUSH2 0x317F JUMP JUMPDEST PUSH2 0x146F JUMP JUMPDEST PUSH2 0x34C PUSH2 0x462 CALLDATASIZE PUSH1 0x4 PUSH2 0x3372 JUMP JUMPDEST PUSH2 0x14E6 JUMP JUMPDEST PUSH2 0x20A PUSH2 0x475 CALLDATASIZE PUSH1 0x4 PUSH2 0x319A JUMP JUMPDEST PUSH0 SWAP1 DUP2 MSTORE PUSH1 0x2 PUSH1 0x20 MSTORE PUSH1 0x40 SWAP1 KECCAK256 SLOAD PUSH1 0x1 PUSH1 0x1 PUSH1 0xA0 SHL SUB AND SWAP1 JUMP JUMPDEST PUSH1 0xD SLOAD PUSH2 0x1C7 JUMP JUMPDEST PUSH2 0x1C7 PUSH2 0x4A5 CALLDATASIZE PUSH1 0x4 PUSH2 0x3344 JUMP JUMPDEST PUSH2 0x15FE JUMP JUMPDEST PUSH2 0x34C PUSH2 0x4B8 CALLDATASIZE PUSH1 0x4 PUSH2 0x3212 JUMP JUMPDEST PUSH2 0x1A77 JUMP JUMPDEST PUSH2 0x34C PUSH2 0x1BC3 JUMP JUMPDEST PUSH2 0x34C PUSH2 0x4D3 CALLDATASIZE PUSH1 0x4 PUSH2 0x317F JUMP JUMPDEST PUSH2 0x2087 JUMP JUMPDEST PUSH2 0x1C7 PUSH2 0x2132 JUMP JUMPDEST PUSH2 0x501 PUSH1 0x40 MLOAD DUP1 PUSH1 0x60 ADD PUSH1 0x40 MSTORE DUP1 PUSH0 DUP2 MSTORE PUSH1 0x20 ADD PUSH0 DUP2 MSTORE PUSH1 0x20 ADD PUSH0 DUP2 MSTORE POP SWAP1 JUMP JUMPDEST POP PUSH1 0x40 DUP1 MLOAD PUSH1 0x60 DUP2 ADD DUP3 MSTORE PUSH1 0x9 SLOAD DUP2 MSTORE PUSH1 0xA SLOAD PUSH1 0x20 DUP3 ADD MSTORE PUSH1 0xB SLOAD SWAP2 DUP2 ADD SWAP2 SWAP1 SWAP2 MSTORE SWAP1 JUMP JUMPDEST PUSH1 0x40 DUP1 MLOAD PUSH2 0x160 DUP2 ADD DUP3 MSTORE PUSH0 PUSH2 0x100 DUP3 ADD DUP2 DUP2 MSTORE PUSH2 0x120 DUP4 ADD DUP3 SWAP1 MSTORE PUSH2 0x140 DUP4 ADD DUP3 SWAP1 MSTORE DUP3 MSTORE DUP3 MLOAD PUSH1 0x60 DUP1 DUP3 ADD DUP6 MSTORE DUP3 DUP3 MSTORE PUSH1 0x20 DUP1 DUP4 ADD DUP5 SWAP1 MSTORE DUP3 DUP7 ADD DUP5 SWAP1 MSTORE DUP1 DUP6 ADD SWAP3 SWAP1 SWAP3 MSTORE DUP5 MLOAD DUP1 DUP3 ADD DUP7 MSTORE DUP4 DUP2 MSTORE SWAP2 DUP3 ADD DUP4 SWAP1 MSTORE DUP2 DUP6 ADD DUP4 SWAP1 MSTORE SWAP4 DUP4 ADD MSTORE SWAP2 DUP2 ADD DUP3 SWAP1 MSTORE PUSH1 0x80 DUP2 ADD DUP3 SWAP1 MSTORE PUSH1 0xA0 DUP2 ADD DUP3 SWAP1 MSTORE PUSH1 0xC0 DUP2 ADD DUP3 SWAP1 MSTORE PUSH1 0xE0 DUP2 ADD SWAP2 SWAP1 SWAP2 MSTORE PUSH0 PUSH1 0xD DUP4 DUP2 SLOAD DUP2 LT PUSH2 0x5BE JUMPI PUSH2 0x5BE PUSH2 0x33A1 JUMP JUMPDEST PUSH0 SWAP2 DUP3 MSTORE PUSH1 0x20 SWAP2 DUP3 SWAP1 KECCAK256 PUSH1 0x40 DUP1 MLOAD PUSH2 0x160 DUP2 ADD DUP3 MSTORE PUSH1 0xE SWAP1 SWAP4 MUL SWAP1 SWAP2 ADD DUP1 SLOAD PUSH1 0x1 PUSH1 0x1 PUSH1 0xA0 SHL SUB SWAP1 DUP2 AND PUSH2 0x100 DUP6 ADD SWAP1 DUP2 MSTORE PUSH1 0x1 DUP4 ADD SLOAD PUSH2 0x120 DUP7 ADD MSTORE PUSH1 0x2 DUP4 ADD SLOAD PUSH1 0xFF SWAP1 DUP2 AND ISZERO ISZERO PUSH2 0x140 DUP8 ADD MSTORE SWAP1 DUP6 MSTORE DUP4 MLOAD PUSH1 0x60 DUP2 DUP2 ADD DUP7 MSTORE PUSH1 0x3 DUP6 ADD SLOAD DUP5 AND DUP3 MSTORE PUSH1 0x4 DUP6 ADD SLOAD DUP3 DUP10 ADD MSTORE PUSH1 0x5 DUP6 ADD SLOAD DUP4 AND ISZERO ISZERO DUP3 DUP8 ADD MSTORE DUP7 DUP9 ADD SWAP2 SWAP1 SWAP2 MSTORE DUP5 MLOAD DUP1 DUP3 ADD DUP7 MSTORE PUSH1 0x6 DUP6 ADD SLOAD SWAP1 SWAP4 AND DUP4 MSTORE PUSH1 0x7 DUP5 ADD SLOAD SWAP7 DUP4 ADD SWAP7 SWAP1 SWAP7 MSTORE PUSH1 0x8 DUP4 ADD SLOAD DUP2 AND ISZERO ISZERO DUP3 DUP6 ADD MSTORE SWAP3 DUP5 ADD MSTORE PUSH1 0x9 DUP2 ADD SLOAD SWAP1 SWAP2 AND ISZERO ISZERO SWAP3 DUP3 ADD SWAP3 SWAP1 SWAP3 MSTORE PUSH1 0xA DUP3 ADD SLOAD PUSH1 0x80 DUP3 ADD MSTORE PUSH1 0xB DUP3 ADD SLOAD PUSH1 0xA0 DUP3 ADD MSTORE PUSH1 0xC DUP3 ADD SLOAD PUSH1 0xC0 DUP3 ADD MSTORE PUSH1 0xD SWAP1 SWAP2 ADD SLOAD PUSH1 0xE0 DUP3 ADD MSTORE SWAP4 SWAP3 POP POP POP JUMP JUMPDEST PUSH1 0x1 PUSH1 0x1 PUSH1 0xA0 SHL SUB DUP2 AND PUSH0 SWAP1 DUP2 MSTORE PUSH1 0x6 PUSH1 0x20 SWAP1 DUP2 MSTORE PUSH1 0x40 DUP1 DUP4 KECCAK256 PUSH1 0x1 ADD DUP1 SLOAD DUP3 MLOAD DUP2 DUP6 MUL DUP2 ADD DUP6 ADD SWAP1 SWAP4 MSTORE DUP1 DUP4 MSTORE PUSH1 0x60 SWAP5 SWAP4 DUP5 SWAP1 DUP5 ADD JUMPDEST DUP3 DUP3 LT ISZERO PUSH2 0x732 JUMPI DUP4 DUP3 SWAP1 PUSH0 MSTORE PUSH1 0x20 PUSH0 KECCAK256 SWAP1 PUSH1 0x3 MUL ADD PUSH1 0x40 MLOAD DUP1 PUSH1 0x60 ADD PUSH1 0x40 MSTORE SWAP1 DUP2 PUSH0 DUP3 ADD SLOAD DUP2 MSTORE PUSH1 0x20 ADD PUSH1 0x1 DUP3 ADD SLOAD DUP2 MSTORE PUSH1 0x20 ADD PUSH1 0x2 DUP3 ADD SLOAD DUP2 MSTORE POP POP DUP2 MSTORE PUSH1 0x20 ADD SWAP1 PUSH1 0x1 ADD SWAP1 PUSH2 0x6E5 JUMP JUMPDEST POP SWAP3 SWAP7 SWAP6 POP POP POP POP POP POP JUMP JUMPDEST PUSH0 DUP1 SLOAD PUSH1 0x40 DUP1 MLOAD PUSH4 0xB0F479A1 PUSH1 0xE0 SHL DUP2 MSTORE SWAP1 MLOAD DUP4 SWAP3 PUSH1 0x1 PUSH1 0x1 PUSH1 0xA0 SHL SUB AND SWAP2 PUSH4 0xB0F479A1 SWAP2 PUSH1 0x4 DUP1 DUP4 ADD SWAP3 PUSH1 0x20 SWAP3 SWAP2 SWAP1 DUP3 SWAP1 SUB ADD DUP2 DUP7 GAS STATICCALL ISZERO DUP1 ISZERO PUSH2 0x785 JUMPI RETURNDATASIZE PUSH0 DUP1 RETURNDATACOPY RETURNDATASIZE PUSH0 REVERT JUMPDEST POP POP POP POP PUSH1 0x40 MLOAD RETURNDATASIZE PUSH1 0x1F NOT PUSH1 0x1F DUP3 ADD AND DUP3 ADD DUP1 PUSH1 0x40 MSTORE POP DUP2 ADD SWAP1 PUSH2 0x7A9 SWAP2 SWAP1 PUSH2 0x33B5 JUMP JUMPDEST SWAP1 POP CALLER PUSH1 0x1 PUSH1 0x1 PUSH1 0xA0 SHL SUB DUP3 AND EQ PUSH2 0x7DC JUMPI PUSH1 0x40 MLOAD PUSH3 0x461BCD PUSH1 0xE5 SHL DUP2 MSTORE PUSH1 0x4 ADD PUSH2 0x7D3 SWAP1 PUSH2 0x33D0 JUMP JUMPDEST PUSH1 0x40 MLOAD DUP1 SWAP2 SUB SWAP1 REVERT JUMPDEST PUSH1 0x7 SLOAD ISZERO PUSH2 0x7FC JUMPI PUSH1 0x40 MLOAD PUSH3 0x461BCD PUSH1 0xE5 SHL DUP2 MSTORE PUSH1 0x4 ADD PUSH2 0x7D3 SWAP1 PUSH2 0x33F8 JUMP JUMPDEST PUSH1 0x1 PUSH1 0x7 SSTORE PUSH0 PUSH2 0x80B PUSH1 0xD SLOAD SWAP1 JUMP JUMPDEST SWAP1 POP PUSH0 DUP2 GT PUSH2 0x82C JUMPI PUSH1 0x40 MLOAD PUSH3 0x461BCD PUSH1 0xE5 SHL DUP2 MSTORE PUSH1 0x4 ADD PUSH2 0x7D3 SWAP1 PUSH2 0x341E JUMP JUMPDEST PUSH1 0x1 PUSH1 0x1 PUSH1 0xA0 SHL SUB DUP5 AND PUSH0 SWAP1 DUP2 MSTORE PUSH1 0x6 PUSH1 0x20 MSTORE PUSH1 0x40 SWAP1 KECCAK256 SLOAD DUP1 PUSH2 0x887 JUMPI PUSH1 0x40 MLOAD PUSH3 0x461BCD PUSH1 0xE5 SHL DUP2 MSTORE PUSH1 0x20 PUSH1 0x4 DUP3 ADD MSTORE PUSH1 0x13 PUSH1 0x24 DUP3 ADD MSTORE PUSH19 0x4E6F207265776172647320746F20636C61696D PUSH1 0x68 SHL PUSH1 0x44 DUP3 ADD MSTORE PUSH1 0x64 ADD PUSH2 0x7D3 JUMP JUMPDEST PUSH1 0x1 PUSH1 0x1 PUSH1 0xA0 SHL SUB DUP6 AND PUSH0 SWAP1 DUP2 MSTORE PUSH1 0x6 PUSH1 0x20 MSTORE PUSH1 0x40 DUP2 KECCAK256 DUP2 DUP2 SSTORE PUSH1 0x2 ADD SLOAD SWAP1 JUMPDEST DUP2 DUP2 LT ISZERO PUSH2 0x9E9 JUMPI PUSH1 0x1 PUSH1 0x1 PUSH1 0xA0 SHL SUB DUP8 AND PUSH0 SWAP1 DUP2 MSTORE PUSH1 0x6 PUSH1 0x20 MSTORE PUSH1 0x40 DUP2 KECCAK256 PUSH1 0x2 ADD DUP1 SLOAD DUP4 SWAP1 DUP2 LT PUSH2 0x8DB JUMPI PUSH2 0x8DB PUSH2 0x33A1 JUMP JUMPDEST SWAP1 PUSH0 MSTORE PUSH1 0x20 PUSH0 KECCAK256 ADD SLOAD SWAP1 POP PUSH0 PUSH1 0x6 PUSH0 DUP11 PUSH1 0x1 PUSH1 0x1 PUSH1 0xA0 SHL SUB AND PUSH1 0x1 PUSH1 0x1 PUSH1 0xA0 SHL SUB AND DUP2 MSTORE PUSH1 0x20 ADD SWAP1 DUP2 MSTORE PUSH1 0x20 ADD PUSH0 KECCAK256 PUSH1 0x1 ADD DUP4 DUP2 SLOAD DUP2 LT PUSH2 0x91E JUMPI PUSH2 0x91E PUSH2 0x33A1 JUMP JUMPDEST SWAP1 PUSH0 MSTORE PUSH1 0x20 PUSH0 KECCAK256 SWAP1 PUSH1 0x3 MUL ADD PUSH1 0x1 ADD SLOAD SWAP1 POP PUSH0 PUSH1 0xD DUP4 DUP2 SLOAD DUP2 LT PUSH2 0x944 JUMPI PUSH2 0x944 PUSH2 0x33A1 JUMP JUMPDEST SWAP1 PUSH0 MSTORE PUSH1 0x20 PUSH0 KECCAK256 SWAP1 PUSH1 0xE MUL ADD SWAP1 POP DUP2 PUSH1 0x1 SUB PUSH2 0x97F JUMPI PUSH1 0x2 DUP2 ADD SLOAD PUSH1 0xFF AND ISZERO ISZERO PUSH0 SUB PUSH2 0x97A JUMPI PUSH1 0x2 DUP2 ADD DUP1 SLOAD PUSH1 0xFF NOT AND PUSH1 0x1 OR SWAP1 SSTORE JUMPDEST PUSH2 0x9D3 JUMP JUMPDEST DUP2 PUSH1 0x2 SUB PUSH2 0x9AB JUMPI PUSH1 0x5 DUP2 ADD SLOAD PUSH1 0xFF AND ISZERO ISZERO PUSH0 SUB PUSH2 0x97A JUMPI PUSH1 0x5 DUP2 ADD DUP1 SLOAD PUSH1 0xFF NOT AND PUSH1 0x1 OR SWAP1 SSTORE PUSH2 0x9D3 JUMP JUMPDEST DUP2 PUSH1 0x3 SUB PUSH2 0x9D3 JUMPI PUSH1 0x8 DUP2 ADD SLOAD PUSH1 0xFF AND ISZERO ISZERO PUSH0 SUB PUSH2 0x9D3 JUMPI PUSH1 0x8 DUP2 ADD DUP1 SLOAD PUSH1 0xFF NOT AND PUSH1 0x1 OR SWAP1 SSTORE JUMPDEST POP POP POP DUP1 DUP1 PUSH2 0x9E1 SWAP1 PUSH2 0x3460 JUMP JUMPDEST SWAP2 POP POP PUSH2 0x8A7 JUMP JUMPDEST POP PUSH1 0x1 PUSH1 0x1 PUSH1 0xA0 SHL SUB DUP7 AND PUSH0 SWAP1 DUP2 MSTORE PUSH1 0x6 PUSH1 0x20 MSTORE PUSH1 0x40 DUP2 KECCAK256 PUSH2 0xA10 SWAP2 PUSH1 0x2 SWAP1 SWAP2 ADD SWAP1 PUSH2 0x311C JUMP JUMPDEST PUSH0 PUSH2 0xA1A DUP4 PUSH2 0x21B8 JUMP JUMPDEST PUSH0 PUSH1 0x7 SSTORE SWAP8 SWAP7 POP POP POP POP POP POP POP JUMP JUMPDEST PUSH0 DUP1 PUSH0 SWAP1 SLOAD SWAP1 PUSH2 0x100 EXP SWAP1 DIV PUSH1 0x1 PUSH1 0x1 PUSH1 0xA0 SHL SUB AND PUSH1 0x1 PUSH1 0x1 PUSH1 0xA0 SHL SUB AND PUSH4 0xCF20D872 PUSH1 0x40 MLOAD DUP2 PUSH4 0xFFFFFFFF AND PUSH1 0xE0 SHL DUP2 MSTORE PUSH1 0x4 ADD PUSH1 0x20 PUSH1 0x40 MLOAD DUP1 DUP4 SUB DUP2 DUP7 GAS STATICCALL ISZERO DUP1 ISZERO PUSH2 0xA79 JUMPI RETURNDATASIZE PUSH0 DUP1 RETURNDATACOPY RETURNDATASIZE PUSH0 REVERT JUMPDEST POP POP POP POP PUSH1 0x40 MLOAD RETURNDATASIZE PUSH1 0x1F NOT PUSH1 0x1F DUP3 ADD AND DUP3 ADD DUP1 PUSH1 0x40 MSTORE POP DUP2 ADD SWAP1 PUSH2 0xA9D SWAP2 SWAP1 PUSH2 0x33B5 JUMP JUMPDEST SWAP1 POP CALLER PUSH1 0x1 PUSH1 0x1 PUSH1 0xA0 SHL SUB DUP3 AND EQ PUSH2 0xAC7 JUMPI PUSH1 0x40 MLOAD PUSH3 0x461BCD PUSH1 0xE5 SHL DUP2 MSTORE PUSH1 0x4 ADD PUSH2 0x7D3 SWAP1 PUSH2 0x33D0 JUMP JUMPDEST PUSH0 PUSH1 0xD DUP4 DUP2 SLOAD DUP2 LT PUSH2 0xADB JUMPI PUSH2 0xADB PUSH2 0x33A1 JUMP JUMPDEST SWAP1 PUSH0 MSTORE PUSH1 0x20 PUSH0 KECCAK256 SWAP1 PUSH1 0xE MUL ADD SWAP1 POP PUSH0 PUSH2 0xB05 DUP3 PUSH1 0xB ADD SLOAD DUP4 PUSH1 0xC ADD SLOAD PUSH2 0x23FB SWAP1 SWAP2 SWAP1 PUSH4 0xFFFFFFFF AND JUMP JUMPDEST SWAP1 POP PUSH2 0xB11 DUP5 DUP3 PUSH2 0x2406 JUMP JUMPDEST DUP3 PUSH1 0xD ADD DUP2 SWAP1 SSTORE POP POP POP POP POP JUMP JUMPDEST PUSH0 DUP1 PUSH0 SWAP1 SLOAD SWAP1 PUSH2 0x100 EXP SWAP1 DIV PUSH1 0x1 PUSH1 0x1 PUSH1 0xA0 SHL SUB AND PUSH1 0x1 PUSH1 0x1 PUSH1 0xA0 SHL SUB AND PUSH4 0xB0F479A1 PUSH1 0x40 MLOAD DUP2 PUSH4 0xFFFFFFFF AND PUSH1 0xE0 SHL DUP2 MSTORE PUSH1 0x4 ADD PUSH1 0x20 PUSH1 0x40 MLOAD DUP1 DUP4 SUB DUP2 DUP7 GAS STATICCALL ISZERO DUP1 ISZERO PUSH2 0xB6F JUMPI RETURNDATASIZE PUSH0 DUP1 RETURNDATACOPY RETURNDATASIZE PUSH0 REVERT JUMPDEST POP POP POP POP PUSH1 0x40 MLOAD RETURNDATASIZE PUSH1 0x1F NOT PUSH1 0x1F DUP3 ADD AND DUP3 ADD DUP1 PUSH1 0x40 MSTORE POP DUP2 ADD SWAP1 PUSH2 0xB93 SWAP2 SWAP1 PUSH2 0x33B5 JUMP JUMPDEST SWAP1 POP CALLER PUSH1 0x1 PUSH1 0x1 PUSH1 0xA0 SHL SUB DUP3 AND EQ PUSH2 0xBBD JUMPI PUSH1 0x40 MLOAD PUSH3 0x461BCD PUSH1 0xE5 SHL DUP2 MSTORE PUSH1 0x4 ADD PUSH2 0x7D3 SWAP1 PUSH2 0x33D0 JUMP JUMPDEST PUSH1 0x7 SLOAD ISZERO PUSH2 0xBDD JUMPI PUSH1 0x40 MLOAD PUSH3 0x461BCD PUSH1 0xE5 SHL DUP2 MSTORE PUSH1 0x4 ADD PUSH2 0x7D3 SWAP1 PUSH2 0x33F8 JUMP JUMPDEST PUSH1 0x1 PUSH1 0x7 SSTORE PUSH0 PUSH2 0xBEC PUSH1 0xD SLOAD SWAP1 JUMP JUMPDEST SWAP1 POP PUSH0 DUP2 GT PUSH2 0xC0D JUMPI PUSH1 0x40 MLOAD PUSH3 0x461BCD PUSH1 0xE5 SHL DUP2 MSTORE PUSH1 0x4 ADD PUSH2 0x7D3 SWAP1 PUSH2 0x341E JUMP JUMPDEST PUSH0 PUSH2 0xC17 DUP5 PUSH2 0x247B JUMP JUMPDEST SWAP1 POP PUSH2 0xC25 DUP6 DUP3 PUSH1 0x1 PUSH2 0x2584 JUMP JUMPDEST POP POP PUSH0 PUSH1 0x7 SSTORE POP POP POP JUMP JUMPDEST PUSH1 0x40 DUP1 MLOAD DUP1 DUP3 ADD SWAP1 SWAP2 MSTORE PUSH0 DUP2 MSTORE PUSH1 0x60 PUSH1 0x20 DUP3 ADD MSTORE PUSH1 0xD SLOAD DUP1 PUSH2 0xC64 JUMPI PUSH1 0x40 MLOAD PUSH3 0x461BCD PUSH1 0xE5 SHL DUP2 MSTORE PUSH1 0x4 ADD PUSH2 0x7D3 SWAP1 PUSH2 0x341E JUMP JUMPDEST DUP3 PUSH0 PUSH2 0xC6E PUSH2 0x12CE JUMP JUMPDEST SWAP1 POP DUP1 DUP3 GT ISZERO PUSH2 0xCB7 JUMPI PUSH1 0x40 MLOAD PUSH3 0x461BCD PUSH1 0xE5 SHL DUP2 MSTORE PUSH1 0x20 PUSH1 0x4 DUP3 ADD MSTORE PUSH1 0x14 PUSH1 0x24 DUP3 ADD MSTORE PUSH20 0x24B73B30B634B21032B837B1B410373AB6B132B9 PUSH1 0x61 SHL PUSH1 0x44 DUP3 ADD MSTORE PUSH1 0x64 ADD PUSH2 0x7D3 JUMP JUMPDEST PUSH1 0x1 PUSH1 0x1 PUSH1 0xA0 SHL SUB DUP7 AND PUSH0 SWAP1 DUP2 MSTORE PUSH1 0x3 PUSH1 0x20 MSTORE PUSH1 0x40 DUP2 KECCAK256 SLOAD SWAP1 DUP2 SWAP1 SUB PUSH2 0xCEF JUMPI PUSH1 0x40 MLOAD PUSH3 0x461BCD PUSH1 0xE5 SHL DUP2 MSTORE PUSH1 0x4 ADD PUSH2 0x7D3 SWAP1 PUSH2 0x3478 JUMP JUMPDEST PUSH0 DUP7 DUP2 MSTORE PUSH1 0x5 PUSH1 0x20 SWAP1 DUP2 MSTORE PUSH1 0x40 DUP1 DUP4 KECCAK256 DUP5 DUP5 MSTORE DUP3 MSTORE DUP1 DUP4 KECCAK256 DUP2 MLOAD DUP1 DUP4 ADD DUP4 MSTORE DUP2 SLOAD PUSH1 0xFF AND ISZERO ISZERO DUP2 MSTORE PUSH1 0x1 DUP3 ADD DUP1 SLOAD DUP5 MLOAD DUP2 DUP8 MUL DUP2 ADD DUP8 ADD SWAP1 SWAP6 MSTORE DUP1 DUP6 MSTORE SWAP2 SWAP5 SWAP3 SWAP4 DUP6 DUP5 ADD SWAP4 SWAP1 SWAP3 SWAP1 DUP8 SWAP1 DUP5 ADD JUMPDEST DUP3 DUP3 LT ISZERO PUSH2 0xD89 JUMPI DUP4 DUP3 SWAP1 PUSH0 MSTORE PUSH1 0x20 PUSH0 KECCAK256 SWAP1 PUSH1 0x3 MUL ADD PUSH1 0x40 MLOAD DUP1 PUSH1 0x60 ADD PUSH1 0x40 MSTORE SWAP1 DUP2 PUSH0 DUP3 ADD SLOAD DUP2 MSTORE PUSH1 0x20 ADD PUSH1 0x1 DUP3 ADD SLOAD DUP2 MSTORE PUSH1 0x20 ADD PUSH1 0x2 DUP3 ADD SLOAD DUP2 MSTORE POP POP DUP2 MSTORE PUSH1 0x20 ADD SWAP1 PUSH1 0x1 ADD SWAP1 PUSH2 0xD3C JUMP JUMPDEST POP POP POP SWAP2 MSTORE POP SWAP1 SWAP10 SWAP9 POP POP POP POP POP POP POP POP POP JUMP JUMPDEST PUSH0 DUP1 PUSH0 SWAP1 SLOAD SWAP1 PUSH2 0x100 EXP SWAP1 DIV PUSH1 0x1 PUSH1 0x1 PUSH1 0xA0 SHL SUB AND PUSH1 0x1 PUSH1 0x1 PUSH1 0xA0 SHL SUB AND PUSH4 0x3018205F PUSH1 0x40 MLOAD DUP2 PUSH4 0xFFFFFFFF AND PUSH1 0xE0 SHL DUP2 MSTORE PUSH1 0x4 ADD PUSH1 0x20 PUSH1 0x40 MLOAD DUP1 DUP4 SUB DUP2 DUP7 GAS STATICCALL ISZERO DUP1 ISZERO PUSH2 0xDED JUMPI RETURNDATASIZE PUSH0 DUP1 RETURNDATACOPY RETURNDATASIZE PUSH0 REVERT JUMPDEST POP POP POP POP PUSH1 0x40 MLOAD RETURNDATASIZE PUSH1 0x1F NOT PUSH1 0x1F DUP3 ADD AND DUP3 ADD DUP1 PUSH1 0x40 MSTORE POP DUP2 ADD SWAP1 PUSH2 0xE11 SWAP2 SWAP1 PUSH2 0x33B5 JUMP JUMPDEST SWAP1 POP CALLER PUSH1 0x1 PUSH1 0x1 PUSH1 0xA0 SHL SUB DUP3 AND EQ PUSH2 0xE3B JUMPI PUSH1 0x40 MLOAD PUSH3 0x461BCD PUSH1 0xE5 SHL DUP2 MSTORE PUSH1 0x4 ADD PUSH2 0x7D3 SWAP1 PUSH2 0x33D0 JUMP JUMPDEST POP PUSH1 0xF DUP1 SLOAD PUSH1 0x1 PUSH1 0x1 PUSH1 0xA0 SHL SUB NOT AND PUSH1 0x1 PUSH1 0x1 PUSH1 0xA0 SHL SUB SWAP6 SWAP1 SWAP6 AND SWAP5 SWAP1 SWAP5 OR SWAP1 SWAP4 SSTORE PUSH1 0x11 SWAP2 SWAP1 SWAP2 SSTORE PUSH1 0xE SWAP2 SWAP1 SWAP2 SSTORE PUSH1 0x10 SSTORE JUMP JUMPDEST PUSH0 DUP1 PUSH0 SWAP1 SLOAD SWAP1 PUSH2 0x100 EXP SWAP1 DIV PUSH1 0x1 PUSH1 0x1 PUSH1 0xA0 SHL SUB AND PUSH1 0x1 PUSH1 0x1 PUSH1 0xA0 SHL SUB AND PUSH4 0xCF20D872 PUSH1 0x40 MLOAD DUP2 PUSH4 0xFFFFFFFF AND PUSH1 0xE0 SHL DUP2 MSTORE PUSH1 0x4 ADD PUSH1 0x20 PUSH1 0x40 MLOAD DUP1 DUP4 SUB DUP2 DUP7 GAS STATICCALL ISZERO DUP1 ISZERO PUSH2 0xEBE JUMPI RETURNDATASIZE PUSH0 DUP1 RETURNDATACOPY RETURNDATASIZE PUSH0 REVERT JUMPDEST POP POP POP POP PUSH1 0x40 MLOAD RETURNDATASIZE PUSH1 0x1F NOT PUSH1 0x1F DUP3 ADD AND DUP3 ADD DUP1 PUSH1 0x40 MSTORE POP DUP2 ADD SWAP1 PUSH2 0xEE2 SWAP2 SWAP1 PUSH2 0x33B5 JUMP JUMPDEST SWAP1 POP CALLER PUSH1 0x1 PUSH1 0x1 PUSH1 0xA0 SHL SUB DUP3 AND EQ PUSH2 0xF0C JUMPI PUSH1 0x40 MLOAD PUSH3 0x461BCD PUSH1 0xE5 SHL DUP2 MSTORE PUSH1 0x4 ADD PUSH2 0x7D3 SWAP1 PUSH2 0x33D0 JUMP JUMPDEST PUSH1 0x1 PUSH1 0x1 PUSH1 0xA0 SHL SUB DUP6 AND PUSH0 SWAP1 DUP2 MSTORE PUSH1 0x3 PUSH1 0x20 MSTORE PUSH1 0x40 SWAP1 KECCAK256 SLOAD PUSH0 SUB PUSH2 0xF42 JUMPI PUSH1 0x40 MLOAD PUSH3 0x461BCD PUSH1 0xE5 SHL DUP2 MSTORE PUSH1 0x4 ADD PUSH2 0x7D3 SWAP1 PUSH2 0x34A8 JUMP JUMPDEST PUSH1 0x1 PUSH1 0x1 PUSH1 0xA0 SHL SUB DUP5 AND PUSH0 SWAP1 DUP2 MSTORE PUSH1 0x3 PUSH1 0x20 MSTORE PUSH1 0x40 SWAP1 KECCAK256 SLOAD PUSH0 SUB PUSH2 0xF78 JUMPI PUSH1 0x40 MLOAD PUSH3 0x461BCD PUSH1 0xE5 SHL DUP2 MSTORE PUSH1 0x4 ADD PUSH2 0x7D3 SWAP1 PUSH2 0x34A8 JUMP JUMPDEST PUSH1 0x1 PUSH1 0x1 PUSH1 0xA0 SHL SUB DUP4 AND PUSH0 SWAP1 DUP2 MSTORE PUSH1 0x3 PUSH1 0x20 MSTORE PUSH1 0x40 SWAP1 KECCAK256 SLOAD PUSH0 SUB PUSH2 0xFAE JUMPI PUSH1 0x40 MLOAD PUSH3 0x461BCD PUSH1 0xE5 SHL DUP2 MSTORE PUSH1 0x4 ADD PUSH2 0x7D3 SWAP1 PUSH2 0x34A8 JUMP JUMPDEST PUSH0 PUSH1 0xD DUP8 DUP2 SLOAD DUP2 LT PUSH2 0xFC2 JUMPI PUSH2 0xFC2 PUSH2 0x33A1 JUMP JUMPDEST PUSH0 SWAP2 DUP3 MSTORE PUSH1 0x20 SWAP1 SWAP2 KECCAK256 PUSH1 0xE SWAP1 SWAP2 MUL ADD PUSH1 0x9 DUP2 ADD SLOAD SWAP1 SWAP2 POP PUSH1 0xFF AND DUP1 ISZERO PUSH2 0x101A JUMPI PUSH1 0x40 MLOAD PUSH3 0x461BCD PUSH1 0xE5 SHL DUP2 MSTORE PUSH1 0x20 PUSH1 0x4 DUP3 ADD MSTORE PUSH1 0xD PUSH1 0x24 DUP3 ADD MSTORE PUSH13 0x45706F636820697320646F6E65 PUSH1 0x98 SHL PUSH1 0x44 DUP3 ADD MSTORE PUSH1 0x64 ADD PUSH2 0x7D3 JUMP JUMPDEST PUSH0 PUSH2 0x1036 DUP4 PUSH1 0xB ADD SLOAD DUP5 PUSH1 0xC ADD SLOAD PUSH2 0x23FB SWAP1 SWAP2 SWAP1 PUSH4 0xFFFFFFFF AND JUMP JUMPDEST SWAP1 POP DUP1 TIMESTAMP GT PUSH2 0x107A JUMPI PUSH1 0x40 MLOAD PUSH3 0x461BCD PUSH1 0xE5 SHL DUP2 MSTORE PUSH1 0x20 PUSH1 0x4 DUP3 ADD MSTORE PUSH1 0x10 PUSH1 0x24 DUP3 ADD MSTORE PUSH16 0x45706F63682069736E277420646F6E65 PUSH1 0x80 SHL PUSH1 0x44 DUP3 ADD MSTORE PUSH1 0x64 ADD PUSH2 0x7D3 JUMP JUMPDEST PUSH1 0x9 DUP4 ADD DUP1 SLOAD PUSH1 0xFF NOT AND PUSH1 0x1 OR SWAP1 SSTORE PUSH0 PUSH2 0x1093 DUP7 PUSH2 0x2663 JUMP JUMPDEST PUSH1 0xA DUP6 ADD DUP2 SWAP1 SSTORE DUP5 SLOAD PUSH1 0x1 PUSH1 0x1 PUSH1 0xA0 SHL SUB NOT AND PUSH1 0x1 PUSH1 0x1 PUSH1 0xA0 SHL SUB DUP12 AND OR DUP6 SSTORE PUSH1 0xC SLOAD PUSH1 0x9 SLOAD SWAP2 SWAP3 POP PUSH2 0x10D1 SWAP2 PUSH2 0x10CB SWAP1 DUP5 SWAP1 PUSH2 0x27DC JUMP JUMPDEST SWAP1 PUSH2 0x27E7 JUMP JUMPDEST PUSH1 0x1 DUP6 ADD SSTORE PUSH1 0x2 DUP5 ADD DUP1 SLOAD PUSH1 0xFF NOT AND SWAP1 SSTORE PUSH1 0x3 DUP5 ADD DUP1 SLOAD PUSH1 0x1 PUSH1 0x1 PUSH1 0xA0 SHL SUB NOT AND PUSH1 0x1 PUSH1 0x1 PUSH1 0xA0 SHL SUB DUP11 AND OR SWAP1 SSTORE PUSH1 0xC SLOAD PUSH1 0xA SLOAD PUSH2 0x1115 SWAP2 SWAP1 PUSH2 0x10CB SWAP1 DUP5 SWAP1 PUSH2 0x27DC JUMP JUMPDEST PUSH1 0x4 DUP6 ADD SSTORE PUSH1 0x5 DUP5 ADD DUP1 SLOAD PUSH1 0xFF NOT AND SWAP1 SSTORE PUSH1 0x6 DUP5 ADD DUP1 SLOAD PUSH1 0x1 PUSH1 0x1 PUSH1 0xA0 SHL SUB NOT AND PUSH1 0x1 PUSH1 0x1 PUSH1 0xA0 SHL SUB DUP10 AND OR SWAP1 SSTORE PUSH1 0xC SLOAD PUSH1 0xB SLOAD PUSH2 0x1159 SWAP2 SWAP1 PUSH2 0x10CB SWAP1 DUP5 SWAP1 PUSH2 0x27DC JUMP JUMPDEST PUSH1 0x7 DUP6 ADD SSTORE PUSH1 0x8 DUP5 ADD DUP1 SLOAD PUSH1 0xFF NOT AND SWAP1 SSTORE PUSH1 0x40 DUP1 MLOAD PUSH1 0x3 DUP1 DUP3 MSTORE PUSH1 0x80 DUP3 ADD SWAP1 SWAP3 MSTORE PUSH0 SWAP2 PUSH1 0x20 DUP3 ADD PUSH1 0x60 DUP1 CALLDATASIZE DUP4 CALLDATACOPY ADD SWAP1 POP POP SWAP1 POP DUP10 DUP2 PUSH0 DUP2 MLOAD DUP2 LT PUSH2 0x119F JUMPI PUSH2 0x119F PUSH2 0x33A1 JUMP JUMPDEST PUSH1 0x20 MUL PUSH1 0x20 ADD ADD SWAP1 PUSH1 0x1 PUSH1 0x1 PUSH1 0xA0 SHL SUB AND SWAP1 DUP2 PUSH1 0x1 PUSH1 0x1 PUSH1 0xA0 SHL SUB AND DUP2 MSTORE POP POP DUP9 DUP2 PUSH1 0x1 DUP2 MLOAD DUP2 LT PUSH2 0x11D3 JUMPI PUSH2 0x11D3 PUSH2 0x33A1 JUMP JUMPDEST PUSH1 0x20 MUL PUSH1 0x20 ADD ADD SWAP1 PUSH1 0x1 PUSH1 0x1 PUSH1 0xA0 SHL SUB AND SWAP1 DUP2 PUSH1 0x1 PUSH1 0x1 PUSH1 0xA0 SHL SUB AND DUP2 MSTORE POP POP DUP8 DUP2 PUSH1 0x2 DUP2 MLOAD DUP2 LT PUSH2 0x1207 JUMPI PUSH2 0x1207 PUSH2 0x33A1 JUMP JUMPDEST PUSH1 0x1 PUSH1 0x1 PUSH1 0xA0 SHL SUB SWAP3 SWAP1 SWAP3 AND PUSH1 0x20 SWAP3 DUP4 MUL SWAP2 SWAP1 SWAP2 ADD DUP3 ADD MSTORE PUSH1 0x40 DUP1 MLOAD PUSH1 0x3 DUP1 DUP3 MSTORE PUSH1 0x80 DUP3 ADD SWAP1 SWAP3 MSTORE PUSH0 SWAP3 SWAP1 SWAP2 SWAP1 DUP3 ADD PUSH1 0x60 DUP1 CALLDATASIZE DUP4 CALLDATACOPY ADD SWAP1 POP POP SWAP1 POP DUP6 PUSH0 ADD PUSH1 0x1 ADD SLOAD DUP2 PUSH0 DUP2 MLOAD DUP2 LT PUSH2 0x125B JUMPI PUSH2 0x125B PUSH2 0x33A1 JUMP JUMPDEST PUSH1 0x20 MUL PUSH1 0x20 ADD ADD DUP2 DUP2 MSTORE POP POP DUP6 PUSH1 0x3 ADD PUSH1 0x1 ADD SLOAD DUP2 PUSH1 0x1 DUP2 MLOAD DUP2 LT PUSH2 0x1282 JUMPI PUSH2 0x1282 PUSH2 0x33A1 JUMP JUMPDEST PUSH1 0x20 MUL PUSH1 0x20 ADD ADD DUP2 DUP2 MSTORE POP POP DUP6 PUSH1 0x6 ADD PUSH1 0x1 ADD SLOAD DUP2 PUSH1 0x2 DUP2 MLOAD DUP2 LT PUSH2 0x12A9 JUMPI PUSH2 0x12A9 PUSH2 0x33A1 JUMP JUMPDEST PUSH1 0x20 MUL PUSH1 0x20 ADD ADD DUP2 DUP2 MSTORE POP POP PUSH2 0x12C0 DUP13 DUP4 DUP4 PUSH2 0x27F2 JUMP JUMPDEST POP POP POP POP POP POP POP POP POP POP POP POP JUMP JUMPDEST PUSH0 DUP1 PUSH2 0x12D9 PUSH1 0xD SLOAD SWAP1 JUMP JUMPDEST SWAP1 POP PUSH0 DUP2 GT PUSH2 0x12FA JUMPI PUSH1 0x40 MLOAD PUSH3 0x461BCD PUSH1 0xE5 SHL DUP2 MSTORE PUSH1 0x4 ADD PUSH2 0x7D3 SWAP1 PUSH2 0x341E JUMP JUMPDEST PUSH0 PUSH2 0x1306 DUP3 PUSH1 0x1 PUSH2 0x298B JUMP JUMPDEST SWAP4 SWAP3 POP POP POP JUMP JUMPDEST PUSH0 DUP1 PUSH2 0x1318 PUSH1 0xD SLOAD SWAP1 JUMP JUMPDEST SWAP1 POP PUSH0 DUP2 GT PUSH2 0x1339 JUMPI PUSH1 0x40 MLOAD PUSH3 0x461BCD PUSH1 0xE5 SHL DUP2 MSTORE PUSH1 0x4 ADD PUSH2 0x7D3 SWAP1 PUSH2 0x341E JUMP JUMPDEST DUP4 PUSH0 PUSH2 0x1343 PUSH2 0x12CE JUMP JUMPDEST SWAP1 POP DUP1 DUP3 GT ISZERO PUSH2 0x138C JUMPI PUSH1 0x40 MLOAD PUSH3 0x461BCD PUSH1 0xE5 SHL DUP2 MSTORE PUSH1 0x20 PUSH1 0x4 DUP3 ADD MSTORE PUSH1 0x14 PUSH1 0x24 DUP3 ADD MSTORE PUSH20 0x24B73B30B634B21032B837B1B410373AB6B132B9 PUSH1 0x61 SHL PUSH1 0x44 DUP3 ADD MSTORE PUSH1 0x64 ADD PUSH2 0x7D3 JUMP JUMPDEST PUSH1 0x1 PUSH1 0x1 PUSH1 0xA0 SHL SUB DUP6 AND PUSH0 SWAP1 DUP2 MSTORE PUSH1 0x3 PUSH1 0x20 MSTORE PUSH1 0x40 DUP2 KECCAK256 SLOAD SWAP1 DUP2 SWAP1 SUB PUSH2 0x13C4 JUMPI PUSH1 0x40 MLOAD PUSH3 0x461BCD PUSH1 0xE5 SHL DUP2 MSTORE PUSH1 0x4 ADD PUSH2 0x7D3 SWAP1 PUSH2 0x3478 JUMP JUMPDEST PUSH0 DUP8 DUP2 MSTORE PUSH1 0x4 PUSH1 0x20 SWAP1 DUP2 MSTORE PUSH1 0x40 DUP1 DUP4 KECCAK256 SWAP4 DUP4 MSTORE SWAP3 SWAP1 MSTORE KECCAK256 SLOAD SWAP4 POP POP POP POP SWAP3 SWAP2 POP POP JUMP JUMPDEST PUSH2 0x1417 PUSH1 0x40 MLOAD DUP1 PUSH1 0x80 ADD PUSH1 0x40 MSTORE DUP1 PUSH0 PUSH1 0x1 PUSH1 0x1 PUSH1 0xA0 SHL SUB AND DUP2 MSTORE PUSH1 0x20 ADD PUSH0 DUP2 MSTORE PUSH1 0x20 ADD PUSH0 DUP2 MSTORE PUSH1 0x20 ADD PUSH0 DUP2 MSTORE POP SWAP1 JUMP JUMPDEST POP PUSH1 0x1 PUSH1 0x1 PUSH1 0xA0 SHL SUB SWAP1 DUP2 AND PUSH0 SWAP1 DUP2 MSTORE PUSH1 0x3 PUSH1 0x20 DUP2 DUP2 MSTORE PUSH1 0x40 DUP1 DUP5 KECCAK256 SLOAD DUP5 MSTORE PUSH1 0x2 DUP1 DUP4 MSTORE SWAP4 DUP2 SWAP1 KECCAK256 DUP2 MLOAD PUSH1 0x80 DUP2 ADD DUP4 MSTORE DUP2 SLOAD SWAP1 SWAP7 AND DUP7 MSTORE PUSH1 0x1 DUP2 ADD SLOAD SWAP3 DUP7 ADD SWAP3 SWAP1 SWAP3 MSTORE SWAP3 DUP2 ADD SLOAD SWAP3 DUP5 ADD SWAP3 SWAP1 SWAP3 MSTORE ADD SLOAD PUSH1 0x60 DUP3 ADD MSTORE SWAP1 JUMP JUMPDEST PUSH0 SLOAD PUSH1 0x1 PUSH1 0xA0 SHL SWAP1 DIV PUSH1 0xFF AND ISZERO PUSH2 0x14C8 JUMPI PUSH1 0x40 MLOAD PUSH3 0x461BCD PUSH1 0xE5 SHL DUP2 MSTORE PUSH1 0x20 PUSH1 0x4 DUP3 ADD MSTORE PUSH1 0x1F PUSH1 0x24 DUP3 ADD MSTORE PUSH32 0x436F6E747261637420697320696E697469616C697A656420616C726561647900 PUSH1 0x44 DUP3 ADD MSTORE PUSH1 0x64 ADD PUSH2 0x7D3 JUMP JUMPDEST PUSH2 0x14D1 DUP2 PUSH2 0x2996 JUMP JUMPDEST POP PUSH0 DUP1 SLOAD PUSH1 0xFF PUSH1 0xA0 SHL NOT AND PUSH1 0x1 PUSH1 0xA0 SHL OR SWAP1 SSTORE JUMP JUMPDEST PUSH0 DUP1 PUSH0 SWAP1 SLOAD SWAP1 PUSH2 0x100 EXP SWAP1 DIV PUSH1 0x1 PUSH1 0x1 PUSH1 0xA0 SHL SUB AND PUSH1 0x1 PUSH1 0x1 PUSH1 0xA0 SHL SUB AND PUSH4 0x3018205F PUSH1 0x40 MLOAD DUP2 PUSH4 0xFFFFFFFF AND PUSH1 0xE0 SHL DUP2 MSTORE PUSH1 0x4 ADD PUSH1 0x20 PUSH1 0x40 MLOAD DUP1 DUP4 SUB DUP2 DUP7 GAS STATICCALL ISZERO DUP1 ISZERO PUSH2 0x1536 JUMPI RETURNDATASIZE PUSH0 DUP1 RETURNDATACOPY RETURNDATASIZE PUSH0 REVERT JUMPDEST POP POP POP POP PUSH1 0x40 MLOAD RETURNDATASIZE PUSH1 0x1F NOT PUSH1 0x1F DUP3 ADD AND DUP3 ADD DUP1 PUSH1 0x40 MSTORE POP DUP2 ADD SWAP1 PUSH2 0x155A SWAP2 SWAP1 PUSH2 0x33B5 JUMP JUMPDEST SWAP1 POP CALLER PUSH1 0x1 PUSH1 0x1 PUSH1 0xA0 SHL SUB DUP3 AND EQ PUSH2 0x1584 JUMPI PUSH1 0x40 MLOAD PUSH3 0x461BCD PUSH1 0xE5 SHL DUP2 MSTORE PUSH1 0x4 ADD PUSH2 0x7D3 SWAP1 PUSH2 0x33D0 JUMP JUMPDEST DUP2 PUSH2 0x1599 DUP5 PUSH2 0x1593 DUP9 DUP9 PUSH2 0x23FB JUMP JUMPDEST SWAP1 PUSH2 0x23FB JUMP JUMPDEST EQ PUSH2 0x15A2 JUMPI PUSH0 DUP1 REVERT JUMPDEST PUSH1 0x9 DUP6 SWAP1 SSTORE PUSH1 0xA DUP5 SWAP1 SSTORE PUSH1 0xB DUP4 SWAP1 SSTORE PUSH1 0xC DUP3 SWAP1 SSTORE PUSH1 0x40 DUP1 MLOAD DUP7 DUP2 MSTORE PUSH1 0x20 DUP2 ADD DUP7 SWAP1 MSTORE SWAP1 DUP2 ADD DUP5 SWAP1 MSTORE PUSH32 0x276FB89D8224FFD75E667EF77AA3B75F5D7064A6DD5B8C9B9B8761B8B303A346 SWAP1 PUSH1 0x60 ADD PUSH1 0x40 MLOAD DUP1 SWAP2 SUB SWAP1 LOG1 POP POP POP POP POP JUMP JUMPDEST PUSH0 DUP3 DUP2 MSTORE PUSH1 0x4 PUSH1 0x20 SWAP1 DUP2 MSTORE PUSH1 0x40 DUP1 DUP4 KECCAK256 PUSH1 0x1 PUSH1 0x1 PUSH1 0xA0 SHL SUB DUP6 AND DUP5 MSTORE PUSH1 0x3 DUP4 MSTORE DUP2 DUP5 KECCAK256 SLOAD DUP5 MSTORE SWAP1 SWAP2 MSTORE DUP2 KECCAK256 SLOAD PUSH1 0xD DUP1 SLOAD DUP4 SWAP3 DUP4 SWAP3 SWAP1 SWAP2 DUP4 SWAP2 SWAP1 DUP9 SWAP1 DUP2 LT PUSH2 0x1647 JUMPI PUSH2 0x1647 PUSH2 0x33A1 JUMP JUMPDEST PUSH0 SWAP2 DUP3 MSTORE PUSH1 0x20 DUP1 DUP4 KECCAK256 PUSH1 0x40 DUP1 MLOAD PUSH2 0x160 DUP2 ADD DUP3 MSTORE PUSH1 0xE SWAP1 SWAP5 MUL SWAP1 SWAP2 ADD DUP1 SLOAD PUSH1 0x1 PUSH1 0x1 PUSH1 0xA0 SHL SUB SWAP1 DUP2 AND PUSH2 0x100 DUP7 ADD SWAP1 DUP2 MSTORE PUSH1 0x1 DUP4 ADD SLOAD PUSH2 0x120 DUP8 ADD MSTORE PUSH1 0x2 DUP4 ADD SLOAD PUSH1 0xFF SWAP1 DUP2 AND ISZERO ISZERO PUSH2 0x140 DUP9 ADD MSTORE SWAP1 DUP7 MSTORE DUP4 MLOAD PUSH1 0x60 DUP2 DUP2 ADD DUP7 MSTORE PUSH1 0x3 DUP6 ADD SLOAD DUP5 AND DUP3 MSTORE PUSH1 0x4 DUP6 ADD SLOAD DUP3 DUP9 ADD MSTORE PUSH1 0x5 DUP6 ADD SLOAD DUP4 AND ISZERO ISZERO DUP3 DUP8 ADD MSTORE DUP8 DUP8 ADD SWAP2 SWAP1 SWAP2 MSTORE DUP5 MLOAD DUP1 DUP3 ADD DUP7 MSTORE PUSH1 0x6 DUP6 ADD SLOAD SWAP1 SWAP4 AND DUP4 MSTORE PUSH1 0x7 DUP5 ADD SLOAD SWAP6 DUP4 ADD SWAP6 SWAP1 SWAP6 MSTORE PUSH1 0x8 DUP4 ADD SLOAD DUP2 AND ISZERO ISZERO DUP3 DUP6 ADD MSTORE SWAP3 DUP6 ADD MSTORE PUSH1 0x9 DUP2 ADD SLOAD SWAP1 SWAP2 AND ISZERO ISZERO SWAP2 DUP4 ADD SWAP2 SWAP1 SWAP2 MSTORE PUSH1 0xA DUP2 ADD SLOAD PUSH1 0x80 DUP4 ADD MSTORE PUSH1 0xB DUP2 ADD SLOAD PUSH1 0xA0 DUP4 ADD DUP2 SWAP1 MSTORE PUSH1 0xC DUP3 ADD SLOAD PUSH1 0xC0 DUP5 ADD DUP2 SWAP1 MSTORE PUSH1 0xD SWAP1 SWAP3 ADD SLOAD PUSH1 0xE0 DUP5 ADD MSTORE SWAP2 SWAP4 POP PUSH2 0x1740 SWAP2 SWAP1 PUSH2 0x23FB JUMP JUMPDEST PUSH1 0x1 PUSH1 0x1 PUSH1 0xA0 SHL SUB DUP9 AND PUSH0 SWAP1 DUP2 MSTORE PUSH1 0x3 PUSH1 0x20 MSTORE PUSH1 0x40 DUP2 KECCAK256 SLOAD SWAP2 SWAP3 POP DUP2 SWAP1 SUB PUSH2 0x177A JUMPI PUSH1 0x40 MLOAD PUSH3 0x461BCD PUSH1 0xE5 SHL DUP2 MSTORE PUSH1 0x4 ADD PUSH2 0x7D3 SWAP1 PUSH2 0x3478 JUMP JUMPDEST PUSH0 DUP2 DUP2 MSTORE PUSH1 0x2 PUSH1 0x20 DUP2 SWAP1 MSTORE PUSH1 0x40 SWAP1 SWAP2 KECCAK256 PUSH1 0x3 DUP2 ADD SLOAD PUSH1 0x1 DUP3 ADD SLOAD SWAP2 SWAP1 SWAP3 ADD SLOAD DUP5 GT PUSH2 0x17F6 JUMPI PUSH1 0x40 MLOAD PUSH3 0x461BCD PUSH1 0xE5 SHL DUP2 MSTORE PUSH1 0x20 PUSH1 0x4 DUP3 ADD MSTORE PUSH1 0x26 PUSH1 0x24 DUP3 ADD MSTORE PUSH32 0x5573657220686173206E6F742070617274696369706174656420696E20746865 PUSH1 0x44 DUP3 ADD MSTORE PUSH6 0x40CAE0DEC6D PUSH1 0xD3 SHL PUSH1 0x64 DUP3 ADD MSTORE PUSH1 0x84 ADD PUSH2 0x7D3 JUMP JUMPDEST PUSH0 PUSH2 0x1801 DUP12 DUP14 PUSH2 0xC30 JUMP JUMPDEST SWAP1 POP DUP6 PUSH1 0xC0 ADD MLOAD TIMESTAMP LT ISZERO DUP1 ISZERO PUSH2 0x1817 JUMPI POP DUP5 TIMESTAMP GT ISZERO JUMPDEST ISZERO PUSH2 0x18A7 JUMPI DUP6 PUSH1 0xC0 ADD MLOAD DUP4 LT ISZERO DUP1 ISZERO PUSH2 0x1830 JUMPI POP DUP5 DUP4 GT ISZERO JUMPDEST ISZERO PUSH2 0x1850 JUMPI PUSH2 0x1849 DUP3 PUSH2 0x1843 TIMESTAMP DUP7 PUSH2 0x298B JUMP JUMPDEST SWAP1 PUSH2 0x27DC JUMP JUMPDEST SWAP8 POP PUSH2 0x187A JUMP JUMPDEST DUP6 PUSH1 0xC0 ADD MLOAD DUP4 LT ISZERO PUSH2 0x187A JUMPI PUSH2 0x1877 DUP3 PUSH2 0x1843 DUP9 PUSH1 0xC0 ADD MLOAD TIMESTAMP PUSH2 0x298B SWAP1 SWAP2 SWAP1 PUSH4 0xFFFFFFFF AND JUMP JUMPDEST SWAP8 POP JUMPDEST PUSH2 0x1896 PUSH1 0x11 SLOAD PUSH1 0xA PUSH2 0x188C SWAP2 SWAP1 PUSH2 0x35B4 JUMP JUMPDEST PUSH2 0x10CB DUP10 DUP12 PUSH2 0x23FB JUMP JUMPDEST SWAP10 POP PUSH2 0x1A71 SWAP9 POP POP POP POP POP POP POP POP POP JUMP JUMPDEST DUP5 TIMESTAMP GT ISZERO PUSH2 0x1A64 JUMPI DUP6 PUSH1 0xC0 ADD MLOAD DUP4 LT ISZERO PUSH2 0x18DA JUMPI PUSH2 0x1896 PUSH1 0x11 SLOAD PUSH1 0xA PUSH2 0x18CD SWAP2 SWAP1 PUSH2 0x35B4 JUMP JUMPDEST PUSH1 0xE SLOAD PUSH2 0x10CB SWAP1 DUP6 PUSH2 0x27DC JUMP JUMPDEST DUP1 MLOAD ISZERO PUSH2 0x1986 JUMPI PUSH1 0x20 DUP2 ADD MLOAD MLOAD PUSH0 SWAP1 PUSH2 0x18F4 SWAP1 PUSH1 0x1 PUSH2 0x298B JUMP JUMPDEST SWAP1 POP PUSH0 DUP3 PUSH1 0x20 ADD MLOAD DUP3 DUP2 MLOAD DUP2 LT PUSH2 0x190D JUMPI PUSH2 0x190D PUSH2 0x33A1 JUMP JUMPDEST PUSH1 0x20 MUL PUSH1 0x20 ADD ADD MLOAD PUSH1 0x40 ADD MLOAD SWAP1 POP PUSH0 PUSH2 0x1954 DUP5 PUSH1 0x20 ADD MLOAD DUP5 DUP2 MLOAD DUP2 LT PUSH2 0x1935 JUMPI PUSH2 0x1935 PUSH2 0x33A1 JUMP JUMPDEST PUSH1 0x20 MUL PUSH1 0x20 ADD ADD MLOAD PUSH1 0x20 ADD MLOAD PUSH2 0x1843 DUP5 DUP12 PUSH2 0x298B SWAP1 SWAP2 SWAP1 PUSH4 0xFFFFFFFF AND JUMP JUMPDEST SWAP1 POP PUSH2 0x1972 PUSH1 0x11 SLOAD PUSH1 0xA PUSH2 0x1968 SWAP2 SWAP1 PUSH2 0x35B4 JUMP JUMPDEST PUSH2 0x10CB DUP13 DUP5 PUSH2 0x23FB JUMP JUMPDEST SWAP13 POP PUSH2 0x1A71 SWAP12 POP POP POP POP POP POP POP POP POP POP POP POP JUMP JUMPDEST DUP1 MLOAD ISZERO ISZERO PUSH0 SUB PUSH2 0x1A64 JUMPI PUSH0 PUSH2 0x199C DUP14 PUSH1 0x1 PUSH2 0x298B JUMP JUMPDEST SWAP1 POP PUSH0 JUMPDEST DUP14 DUP2 LT ISZERO PUSH2 0x1A51 JUMPI PUSH0 PUSH2 0x19B3 DUP15 DUP5 PUSH2 0xC30 JUMP JUMPDEST DUP1 MLOAD SWAP1 SWAP2 POP ISZERO PUSH2 0x1A30 JUMPI PUSH1 0x20 DUP2 ADD MLOAD MLOAD PUSH0 SWAP1 PUSH2 0x19D0 SWAP1 PUSH1 0x1 PUSH2 0x298B JUMP JUMPDEST SWAP1 POP PUSH0 PUSH2 0x1A0B DUP4 PUSH1 0x20 ADD MLOAD DUP4 DUP2 MLOAD DUP2 LT PUSH2 0x19EC JUMPI PUSH2 0x19EC PUSH2 0x33A1 JUMP JUMPDEST PUSH1 0x20 MUL PUSH1 0x20 ADD ADD MLOAD PUSH1 0x20 ADD MLOAD DUP13 PUSH1 0xA0 ADD MLOAD PUSH2 0x27DC SWAP1 SWAP2 SWAP1 PUSH4 0xFFFFFFFF AND JUMP JUMPDEST SWAP1 POP PUSH2 0x1A26 PUSH1 0x11 SLOAD PUSH1 0xA PUSH2 0x1A1F SWAP2 SWAP1 PUSH2 0x35B4 JUMP JUMPDEST DUP3 SWAP1 PUSH2 0x27E7 JUMP JUMPDEST SWAP14 POP POP POP POP PUSH2 0x1A51 JUMP JUMPDEST PUSH2 0x1A3B PUSH1 0x1 DUP5 PUSH2 0x35BF JUMP JUMPDEST SWAP3 POP POP DUP1 DUP1 PUSH2 0x1A49 SWAP1 PUSH2 0x3460 JUMP JUMPDEST SWAP2 POP POP PUSH2 0x19A0 JUMP JUMPDEST POP DUP10 SWAP11 POP POP POP POP POP POP POP POP POP POP POP PUSH2 0x1A71 JUMP JUMPDEST POP PUSH0 SWAP9 POP POP POP POP POP POP POP POP POP JUMPDEST SWAP3 SWAP2 POP POP JUMP JUMPDEST PUSH0 DUP1 PUSH0 SWAP1 SLOAD SWAP1 PUSH2 0x100 EXP SWAP1 DIV PUSH1 0x1 PUSH1 0x1 PUSH1 0xA0 SHL SUB AND PUSH1 0x1 PUSH1 0x1 PUSH1 0xA0 SHL SUB AND PUSH4 0xB0F479A1 PUSH1 0x40 MLOAD DUP2 PUSH4 0xFFFFFFFF AND PUSH1 0xE0 SHL DUP2 MSTORE PUSH1 0x4 ADD PUSH1 0x20 PUSH1 0x40 MLOAD DUP1 DUP4 SUB DUP2 DUP7 GAS STATICCALL ISZERO DUP1 ISZERO PUSH2 0x1AC7 JUMPI RETURNDATASIZE PUSH0 DUP1 RETURNDATACOPY RETURNDATASIZE PUSH0 REVERT JUMPDEST POP POP POP POP PUSH1 0x40 MLOAD RETURNDATASIZE PUSH1 0x1F NOT PUSH1 0x1F DUP3 ADD AND DUP3 ADD DUP1 PUSH1 0x40 MSTORE POP DUP2 ADD SWAP1 PUSH2 0x1AEB SWAP2 SWAP1 PUSH2 0x33B5 JUMP JUMPDEST SWAP1 POP CALLER PUSH1 0x1 PUSH1 0x1 PUSH1 0xA0 SHL SUB DUP3 AND EQ PUSH2 0x1B15 JUMPI PUSH1 0x40 MLOAD PUSH3 0x461BCD PUSH1 0xE5 SHL DUP2 MSTORE PUSH1 0x4 ADD PUSH2 0x7D3 SWAP1 PUSH2 0x33D0 JUMP JUMPDEST PUSH1 0x7 SLOAD ISZERO PUSH2 0x1B35 JUMPI PUSH1 0x40 MLOAD PUSH3 0x461BCD PUSH1 0xE5 SHL DUP2 MSTORE PUSH1 0x4 ADD PUSH2 0x7D3 SWAP1 PUSH2 0x33F8 JUMP JUMPDEST PUSH1 0x1 PUSH1 0x7 SSTORE PUSH0 PUSH2 0x1B44 PUSH1 0xD SLOAD SWAP1 JUMP JUMPDEST SWAP1 POP PUSH0 DUP2 GT PUSH2 0x1B65 JUMPI PUSH1 0x40 MLOAD PUSH3 0x461BCD PUSH1 0xE5 SHL DUP2 MSTORE PUSH1 0x4 ADD PUSH2 0x7D3 SWAP1 PUSH2 0x341E JUMP JUMPDEST PUSH0 DUP4 GT PUSH2 0x1BA5 JUMPI PUSH1 0x40 MLOAD PUSH3 0x461BCD PUSH1 0xE5 SHL DUP2 MSTORE PUSH1 0x20 PUSH1 0x4 DUP3 ADD MSTORE PUSH1 0xE PUSH1 0x24 DUP3 ADD MSTORE PUSH14 0x125B9D985B1A5908185B5BDD5B9D PUSH1 0x92 SHL PUSH1 0x44 DUP3 ADD MSTORE PUSH1 0x64 ADD PUSH2 0x7D3 JUMP JUMPDEST PUSH2 0x1BB0 DUP5 DUP5 PUSH0 PUSH2 0x2584 JUMP JUMPDEST PUSH2 0x1BB9 DUP4 PUSH2 0x29B7 JUMP JUMPDEST POP POP PUSH0 PUSH1 0x7 SSTORE POP POP JUMP JUMPDEST PUSH0 DUP1 PUSH0 SWAP1 SLOAD SWAP1 PUSH2 0x100 EXP SWAP1 DIV PUSH1 0x1 PUSH1 0x1 PUSH1 0xA0 SHL SUB AND PUSH1 0x1 PUSH1 0x1 PUSH1 0xA0 SHL SUB AND PUSH4 0xCF20D872 PUSH1 0x40 MLOAD DUP2 PUSH4 0xFFFFFFFF AND PUSH1 0xE0 SHL DUP2 MSTORE PUSH1 0x4 ADD PUSH1 0x20 PUSH1 0x40 MLOAD DUP1 DUP4 SUB DUP2 DUP7 GAS STATICCALL ISZERO DUP1 ISZERO PUSH2 0x1C13 JUMPI RETURNDATASIZE PUSH0 DUP1 RETURNDATACOPY RETURNDATASIZE PUSH0 REVERT JUMPDEST POP POP POP POP PUSH1 0x40 MLOAD RETURNDATASIZE PUSH1 0x1F NOT PUSH1 0x1F DUP3 ADD AND DUP3 ADD DUP1 PUSH1 0x40 MSTORE POP DUP2 ADD SWAP1 PUSH2 0x1C37 SWAP2 SWAP1 PUSH2 0x33B5 JUMP JUMPDEST SWAP1 POP CALLER PUSH1 0x1 PUSH1 0x1 PUSH1 0xA0 SHL SUB DUP3 AND EQ PUSH2 0x1C61 JUMPI PUSH1 0x40 MLOAD PUSH3 0x461BCD PUSH1 0xE5 SHL DUP2 MSTORE PUSH1 0x4 ADD PUSH2 0x7D3 SWAP1 PUSH2 0x33D0 JUMP JUMPDEST PUSH0 PUSH2 0x1C6B PUSH1 0xD SLOAD SWAP1 JUMP JUMPDEST SWAP1 POP DUP1 ISZERO PUSH2 0x1D8A JUMPI PUSH0 PUSH2 0x1C7F DUP3 PUSH1 0x1 PUSH2 0x298B JUMP JUMPDEST SWAP1 POP PUSH0 PUSH1 0xD DUP3 DUP2 SLOAD DUP2 LT PUSH2 0x1C95 JUMPI PUSH2 0x1C95 PUSH2 0x33A1 JUMP JUMPDEST PUSH0 SWAP2 DUP3 MSTORE PUSH1 0x20 SWAP2 DUP3 SWAP1 KECCAK256 PUSH1 0x40 DUP1 MLOAD PUSH2 0x160 DUP2 ADD DUP3 MSTORE PUSH1 0xE SWAP1 SWAP4 MUL SWAP1 SWAP2 ADD DUP1 SLOAD PUSH1 0x1 PUSH1 0x1 PUSH1 0xA0 SHL SUB SWAP1 DUP2 AND PUSH2 0x100 DUP6 ADD SWAP1 DUP2 MSTORE PUSH1 0x1 DUP4 ADD SLOAD PUSH2 0x120 DUP7 ADD MSTORE PUSH1 0x2 DUP4 ADD SLOAD PUSH1 0xFF SWAP1 DUP2 AND ISZERO ISZERO PUSH2 0x140 DUP8 ADD MSTORE SWAP1 DUP6 MSTORE DUP4 MLOAD PUSH1 0x60 DUP2 DUP2 ADD DUP7 MSTORE PUSH1 0x3 DUP6 ADD SLOAD DUP5 AND DUP3 MSTORE PUSH1 0x4 DUP6 ADD SLOAD DUP3 DUP10 ADD MSTORE PUSH1 0x5 DUP6 ADD SLOAD DUP4 AND ISZERO ISZERO DUP3 DUP8 ADD MSTORE DUP7 DUP9 ADD SWAP2 SWAP1 SWAP2 MSTORE DUP5 MLOAD DUP1 DUP3 ADD DUP7 MSTORE PUSH1 0x6 DUP6 ADD SLOAD SWAP1 SWAP4 AND DUP4 MSTORE PUSH1 0x7 DUP5 ADD SLOAD SWAP7 DUP4 ADD SWAP7 SWAP1 SWAP7 MSTORE PUSH1 0x8 DUP4 ADD SLOAD DUP2 AND ISZERO ISZERO DUP3 DUP6 ADD MSTORE SWAP3 DUP5 ADD MSTORE PUSH1 0x9 DUP2 ADD SLOAD SWAP1 SWAP2 AND ISZERO ISZERO SWAP3 DUP3 ADD DUP4 SWAP1 MSTORE PUSH1 0xA DUP2 ADD SLOAD PUSH1 0x80 DUP4 ADD MSTORE PUSH1 0xB DUP2 ADD SLOAD PUSH1 0xA0 DUP4 ADD MSTORE PUSH1 0xC DUP2 ADD SLOAD PUSH1 0xC0 DUP4 ADD MSTORE PUSH1 0xD ADD SLOAD PUSH1 0xE0 DUP3 ADD MSTORE SWAP2 POP DUP1 PUSH2 0x1D86 JUMPI PUSH0 DUP1 REVERT JUMPDEST POP POP POP JUMPDEST POP POP PUSH1 0x40 DUP1 MLOAD PUSH1 0x60 DUP1 DUP3 ADD DUP4 MSTORE PUSH0 DUP1 DUP4 MSTORE PUSH1 0x20 DUP1 DUP5 ADD DUP3 SWAP1 MSTORE DUP4 DUP6 ADD DUP3 SWAP1 MSTORE DUP5 MLOAD PUSH2 0x100 DUP2 ADD DUP7 MSTORE DUP5 DUP2 MSTORE DUP1 DUP3 ADD DUP6 DUP2 MSTORE DUP2 DUP8 ADD SWAP6 DUP7 MSTORE SWAP4 DUP2 ADD DUP4 DUP2 MSTORE PUSH1 0x80 DUP3 ADD DUP5 DUP2 MSTORE PUSH1 0xE DUP1 SLOAD PUSH1 0xA0 DUP6 ADD SWAP1 DUP2 MSTORE TIMESTAMP PUSH1 0xC0 DUP7 ADD SWAP1 DUP2 MSTORE PUSH1 0xE0 DUP7 ADD DUP9 DUP2 MSTORE PUSH1 0xD DUP1 SLOAD PUSH1 0x1 DUP2 ADD DUP3 SSTORE SWAP10 MSTORE SWAP6 MLOAD DUP1 MLOAD PUSH32 0xD7B6990105719101DABEB77144F2A3385C8033ACD3AF97E9423A695E81AD1EB5 SWAP10 SWAP1 SWAP5 MUL SWAP9 DUP10 ADD DUP1 SLOAD PUSH1 0x1 PUSH1 0x1 PUSH1 0xA0 SHL SUB NOT SWAP1 DUP2 AND PUSH1 0x1 PUSH1 0x1 PUSH1 0xA0 SHL SUB SWAP7 DUP8 AND OR SWAP1 SWAP2 SSTORE DUP2 DUP10 ADD MLOAD PUSH32 0xD7B6990105719101DABEB77144F2A3385C8033ACD3AF97E9423A695E81AD1EB6 DUP12 ADD SSTORE SWAP1 DUP13 ADD MLOAD PUSH32 0xD7B6990105719101DABEB77144F2A3385C8033ACD3AF97E9423A695E81AD1EB7 DUP11 ADD DUP1 SLOAD PUSH1 0xFF NOT SWAP1 DUP2 AND SWAP3 ISZERO ISZERO SWAP3 SWAP1 SWAP3 OR SWAP1 SSTORE SWAP10 MLOAD DUP1 MLOAD PUSH32 0xD7B6990105719101DABEB77144F2A3385C8033ACD3AF97E9423A695E81AD1EB8 DUP12 ADD DUP1 SLOAD DUP5 AND SWAP2 DUP8 AND SWAP2 SWAP1 SWAP2 OR SWAP1 SSTORE DUP1 DUP10 ADD MLOAD PUSH32 0xD7B6990105719101DABEB77144F2A3385C8033ACD3AF97E9423A695E81AD1EB9 DUP12 ADD SSTORE DUP13 ADD MLOAD PUSH32 0xD7B6990105719101DABEB77144F2A3385C8033ACD3AF97E9423A695E81AD1EBA DUP11 ADD DUP1 SLOAD DUP13 AND SWAP2 ISZERO ISZERO SWAP2 SWAP1 SWAP2 OR SWAP1 SSTORE SWAP10 MLOAD DUP1 MLOAD PUSH32 0xD7B6990105719101DABEB77144F2A3385C8033ACD3AF97E9423A695E81AD1EBB DUP11 ADD DUP1 SLOAD SWAP1 SWAP13 AND SWAP5 AND SWAP4 SWAP1 SWAP4 OR SWAP1 SWAP10 SSTORE SWAP5 DUP2 ADD MLOAD PUSH32 0xD7B6990105719101DABEB77144F2A3385C8033ACD3AF97E9423A695E81AD1EBC DUP8 ADD SSTORE SWAP1 SWAP8 ADD MLOAD PUSH32 0xD7B6990105719101DABEB77144F2A3385C8033ACD3AF97E9423A695E81AD1EBD DUP6 ADD DUP1 SLOAD DUP8 AND SWAP2 ISZERO ISZERO SWAP2 SWAP1 SWAP2 OR SWAP1 SSTORE MLOAD PUSH32 0xD7B6990105719101DABEB77144F2A3385C8033ACD3AF97E9423A695E81AD1EBE DUP5 ADD DUP1 SLOAD SWAP1 SWAP6 AND SWAP1 ISZERO ISZERO OR SWAP1 SWAP4 SSTORE SWAP4 MLOAD PUSH32 0xD7B6990105719101DABEB77144F2A3385C8033ACD3AF97E9423A695E81AD1EBF DUP3 ADD SSTORE SWAP3 MLOAD PUSH32 0xD7B6990105719101DABEB77144F2A3385C8033ACD3AF97E9423A695E81AD1EC0 DUP5 ADD SSTORE SWAP1 MLOAD PUSH32 0xD7B6990105719101DABEB77144F2A3385C8033ACD3AF97E9423A695E81AD1EC1 DUP4 ADD SSTORE MLOAD PUSH32 0xD7B6990105719101DABEB77144F2A3385C8033ACD3AF97E9423A695E81AD1EC2 SWAP1 SWAP2 ADD SSTORE JUMP JUMPDEST PUSH0 DUP1 PUSH0 SWAP1 SLOAD SWAP1 PUSH2 0x100 EXP SWAP1 DIV PUSH1 0x1 PUSH1 0x1 PUSH1 0xA0 SHL SUB AND PUSH1 0x1 PUSH1 0x1 PUSH1 0xA0 SHL SUB AND PUSH4 0x893D20E8 PUSH1 0x40 MLOAD DUP2 PUSH4 0xFFFFFFFF AND PUSH1 0xE0 SHL DUP2 MSTORE PUSH1 0x4 ADD PUSH1 0x20 PUSH1 0x40 MLOAD DUP1 DUP4 SUB DUP2 DUP7 GAS STATICCALL ISZERO DUP1 ISZERO PUSH2 0x20D7 JUMPI RETURNDATASIZE PUSH0 DUP1 RETURNDATACOPY RETURNDATASIZE PUSH0 REVERT JUMPDEST POP POP POP POP PUSH1 0x40 MLOAD RETURNDATASIZE PUSH1 0x1F NOT PUSH1 0x1F DUP3 ADD AND DUP3 ADD DUP1 PUSH1 0x40 MSTORE POP DUP2 ADD SWAP1 PUSH2 0x20FB SWAP2 SWAP1 PUSH2 0x33B5 JUMP JUMPDEST SWAP1 POP CALLER PUSH1 0x1 PUSH1 0x1 PUSH1 0xA0 SHL SUB DUP3 AND EQ PUSH2 0x2125 JUMPI PUSH1 0x40 MLOAD PUSH3 0x461BCD PUSH1 0xE5 SHL DUP2 MSTORE PUSH1 0x4 ADD PUSH2 0x7D3 SWAP1 PUSH2 0x33D0 JUMP JUMPDEST PUSH2 0x212E DUP3 PUSH2 0x2996 JUMP JUMPDEST POP POP JUMP JUMPDEST PUSH1 0xF SLOAD PUSH1 0x40 MLOAD PUSH4 0x70A08231 PUSH1 0xE0 SHL DUP2 MSTORE ADDRESS PUSH1 0x4 DUP3 ADD MSTORE PUSH0 SWAP2 DUP3 SWAP2 PUSH1 0x1 PUSH1 0x1 PUSH1 0xA0 SHL SUB SWAP1 SWAP2 AND SWAP1 PUSH4 0x70A08231 SWAP1 PUSH1 0x24 ADD PUSH1 0x20 PUSH1 0x40 MLOAD DUP1 DUP4 SUB DUP2 DUP7 GAS STATICCALL ISZERO DUP1 ISZERO PUSH2 0x217C JUMPI RETURNDATASIZE PUSH0 DUP1 RETURNDATACOPY RETURNDATASIZE PUSH0 REVERT JUMPDEST POP POP POP POP PUSH1 0x40 MLOAD RETURNDATASIZE PUSH1 0x1F NOT PUSH1 0x1F DUP3 ADD AND DUP3 ADD DUP1 PUSH1 0x40 MSTORE POP DUP2 ADD SWAP1 PUSH2 0x21A0 SWAP2 SWAP1 PUSH2 0x35D2 JUMP JUMPDEST SWAP1 POP PUSH0 PUSH2 0x1306 PUSH1 0x8 SLOAD DUP4 PUSH2 0x298B SWAP1 SWAP2 SWAP1 PUSH4 0xFFFFFFFF AND JUMP JUMPDEST PUSH0 DUP1 SLOAD PUSH1 0x40 DUP1 MLOAD PUSH4 0xB0F479A1 PUSH1 0xE0 SHL DUP2 MSTORE SWAP1 MLOAD DUP4 SWAP3 PUSH1 0x1 PUSH1 0x1 PUSH1 0xA0 SHL SUB AND SWAP2 PUSH4 0xB0F479A1 SWAP2 PUSH1 0x4 DUP1 DUP4 ADD SWAP3 PUSH1 0x20 SWAP3 SWAP2 SWAP1 DUP3 SWAP1 SUB ADD DUP2 DUP7 GAS STATICCALL ISZERO DUP1 ISZERO PUSH2 0x21FF JUMPI RETURNDATASIZE PUSH0 DUP1 RETURNDATACOPY RETURNDATASIZE PUSH0 REVERT JUMPDEST POP POP POP POP PUSH1 0x40 MLOAD RETURNDATASIZE PUSH1 0x1F NOT PUSH1 0x1F DUP3 ADD AND DUP3 ADD DUP1 PUSH1 0x40 MSTORE POP DUP2 ADD SWAP1 PUSH2 0x2223 SWAP2 SWAP1 PUSH2 0x33B5 JUMP JUMPDEST PUSH1 0xF SLOAD PUSH1 0x40 MLOAD PUSH4 0x70A08231 PUSH1 0xE0 SHL DUP2 MSTORE PUSH1 0x1 PUSH1 0x1 PUSH1 0xA0 SHL SUB DUP1 DUP5 AND PUSH1 0x4 DUP4 ADD MSTORE SWAP3 SWAP4 POP PUSH0 SWAP3 SWAP1 SWAP2 AND SWAP1 PUSH4 0x70A08231 SWAP1 PUSH1 0x24 ADD PUSH1 0x20 PUSH1 0x40 MLOAD DUP1 DUP4 SUB DUP2 DUP7 GAS STATICCALL ISZERO DUP1 ISZERO PUSH2 0x2270 JUMPI RETURNDATASIZE PUSH0 DUP1 RETURNDATACOPY RETURNDATASIZE PUSH0 REVERT JUMPDEST POP POP POP POP PUSH1 0x40 MLOAD RETURNDATASIZE PUSH1 0x1F NOT PUSH1 0x1F DUP3 ADD AND DUP3 ADD DUP1 PUSH1 0x40 MSTORE POP DUP2 ADD SWAP1 PUSH2 0x2294 SWAP2 SWAP1 PUSH2 0x35D2 JUMP JUMPDEST SWAP1 POP PUSH0 DUP1 PUSH0 SWAP1 SLOAD SWAP1 PUSH2 0x100 EXP SWAP1 DIV PUSH1 0x1 PUSH1 0x1 PUSH1 0xA0 SHL SUB AND PUSH1 0x1 PUSH1 0x1 PUSH1 0xA0 SHL SUB AND PUSH4 0x9960D742 PUSH1 0x40 MLOAD DUP2 PUSH4 0xFFFFFFFF AND PUSH1 0xE0 SHL DUP2 MSTORE PUSH1 0x4 ADD PUSH1 0x20 PUSH1 0x40 MLOAD DUP1 DUP4 SUB DUP2 DUP7 GAS STATICCALL ISZERO DUP1 ISZERO PUSH2 0x22E6 JUMPI RETURNDATASIZE PUSH0 DUP1 RETURNDATACOPY RETURNDATASIZE PUSH0 REVERT JUMPDEST POP POP POP POP PUSH1 0x40 MLOAD RETURNDATASIZE PUSH1 0x1F NOT PUSH1 0x1F DUP3 ADD AND DUP3 ADD DUP1 PUSH1 0x40 MSTORE POP DUP2 ADD SWAP1 PUSH2 0x230A SWAP2 SWAP1 PUSH2 0x33B5 JUMP JUMPDEST PUSH1 0xF SLOAD PUSH1 0x40 MLOAD PUSH4 0x431A08B PUSH1 0xE4 SHL DUP2 MSTORE PUSH1 0x1 PUSH1 0x1 PUSH1 0xA0 SHL SUB SWAP2 DUP3 AND PUSH1 0x4 DUP3 ADD MSTORE PUSH1 0x24 DUP2 ADD DUP9 SWAP1 MSTORE DUP6 DUP3 AND PUSH1 0x44 DUP3 ADD MSTORE SWAP2 SWAP3 POP DUP3 AND SWAP1 PUSH4 0x431A08B0 SWAP1 PUSH1 0x64 ADD PUSH0 PUSH1 0x40 MLOAD DUP1 DUP4 SUB DUP2 PUSH0 DUP8 DUP1 EXTCODESIZE ISZERO DUP1 ISZERO PUSH2 0x235F JUMPI PUSH0 DUP1 REVERT JUMPDEST POP GAS CALL ISZERO DUP1 ISZERO PUSH2 0x2371 JUMPI RETURNDATASIZE PUSH0 DUP1 RETURNDATACOPY RETURNDATASIZE PUSH0 REVERT JUMPDEST POP POP PUSH1 0xF SLOAD PUSH1 0x40 MLOAD PUSH4 0x70A08231 PUSH1 0xE0 SHL DUP2 MSTORE PUSH1 0x1 PUSH1 0x1 PUSH1 0xA0 SHL SUB DUP8 DUP2 AND PUSH1 0x4 DUP4 ADD MSTORE PUSH0 SWAP5 POP SWAP1 SWAP2 AND SWAP2 POP PUSH4 0x70A08231 SWAP1 PUSH1 0x24 ADD PUSH1 0x20 PUSH1 0x40 MLOAD DUP1 DUP4 SUB DUP2 DUP7 GAS STATICCALL ISZERO DUP1 ISZERO PUSH2 0x23BF JUMPI RETURNDATASIZE PUSH0 DUP1 RETURNDATACOPY RETURNDATASIZE PUSH0 REVERT JUMPDEST POP POP POP POP PUSH1 0x40 MLOAD RETURNDATASIZE PUSH1 0x1F NOT PUSH1 0x1F DUP3 ADD AND DUP3 ADD DUP1 PUSH1 0x40 MSTORE POP DUP2 ADD SWAP1 PUSH2 0x23E3 SWAP2 SWAP1 PUSH2 0x35D2 JUMP JUMPDEST SWAP1 POP PUSH0 PUSH2 0x23F0 DUP3 DUP6 PUSH2 0x298B JUMP JUMPDEST SWAP8 SWAP7 POP POP POP POP POP POP POP JUMP JUMPDEST PUSH0 PUSH2 0x1306 DUP3 DUP5 PUSH2 0x35E9 JUMP JUMPDEST PUSH0 DUP1 PUSH1 0x1 JUMPDEST PUSH1 0x1 SLOAD DUP2 LT ISZERO PUSH2 0x2473 JUMPI PUSH0 DUP2 DUP2 MSTORE PUSH1 0x2 PUSH1 0x20 DUP2 SWAP1 MSTORE PUSH1 0x40 SWAP1 SWAP2 KECCAK256 SWAP1 DUP2 ADD SLOAD SWAP1 SLOAD PUSH1 0x1 PUSH1 0x1 PUSH1 0xA0 SHL SUB AND DUP6 DUP3 GT PUSH2 0x245E JUMPI PUSH0 PUSH2 0x2446 DUP9 DUP4 PUSH2 0x15FE JUMP JUMPDEST SWAP1 POP DUP1 ISZERO PUSH2 0x245C JUMPI PUSH2 0x2459 PUSH1 0x1 DUP7 PUSH2 0x35E9 JUMP JUMPDEST SWAP5 POP JUMPDEST POP JUMPDEST POP POP DUP1 DUP1 PUSH2 0x246B SWAP1 PUSH2 0x3460 JUMP JUMPDEST SWAP2 POP POP PUSH2 0x240B JUMP JUMPDEST POP SWAP4 SWAP3 POP POP POP JUMP JUMPDEST PUSH1 0xF SLOAD PUSH1 0x40 MLOAD PUSH4 0x70A08231 PUSH1 0xE0 SHL DUP2 MSTORE ADDRESS PUSH1 0x4 DUP3 ADD MSTORE PUSH0 SWAP2 DUP3 SWAP2 PUSH1 0x1 PUSH1 0x1 PUSH1 0xA0 SHL SUB SWAP1 SWAP2 AND SWAP1 PUSH4 0x70A08231 SWAP1 PUSH1 0x24 ADD PUSH1 0x20 PUSH1 0x40 MLOAD DUP1 DUP4 SUB DUP2 DUP7 GAS STATICCALL ISZERO DUP1 ISZERO PUSH2 0x24C5 JUMPI RETURNDATASIZE PUSH0 DUP1 RETURNDATACOPY RETURNDATASIZE PUSH0 REVERT JUMPDEST POP POP POP POP PUSH1 0x40 MLOAD RETURNDATASIZE PUSH1 0x1F NOT PUSH1 0x1F DUP3 ADD AND DUP3 ADD DUP1 PUSH1 0x40 MSTORE POP DUP2 ADD SWAP1 PUSH2 0x24E9 SWAP2 SWAP1 PUSH2 0x35D2 JUMP JUMPDEST PUSH1 0xF SLOAD SWAP1 SWAP2 POP PUSH2 0x2504 SWAP1 PUSH1 0x1 PUSH1 0x1 PUSH1 0xA0 SHL SUB AND CALLER ADDRESS DUP7 PUSH2 0x29D1 JUMP JUMPDEST PUSH1 0xF SLOAD PUSH1 0x40 MLOAD PUSH4 0x70A08231 PUSH1 0xE0 SHL DUP2 MSTORE ADDRESS PUSH1 0x4 DUP3 ADD MSTORE PUSH0 SWAP2 PUSH1 0x1 PUSH1 0x1 PUSH1 0xA0 SHL SUB AND SWAP1 PUSH4 0x70A08231 SWAP1 PUSH1 0x24 ADD PUSH1 0x20 PUSH1 0x40 MLOAD DUP1 DUP4 SUB DUP2 DUP7 GAS STATICCALL ISZERO DUP1 ISZERO PUSH2 0x254A JUMPI RETURNDATASIZE PUSH0 DUP1 RETURNDATACOPY RETURNDATASIZE PUSH0 REVERT JUMPDEST POP POP POP POP PUSH1 0x40 MLOAD RETURNDATASIZE PUSH1 0x1F NOT PUSH1 0x1F DUP3 ADD AND DUP3 ADD DUP1 PUSH1 0x40 MSTORE POP DUP2 ADD SWAP1 PUSH2 0x256E SWAP2 SWAP1 PUSH2 0x35D2 JUMP JUMPDEST SWAP1 POP PUSH0 PUSH2 0x257B DUP3 DUP5 PUSH2 0x298B JUMP JUMPDEST SWAP6 SWAP5 POP POP POP POP POP JUMP JUMPDEST DUP1 ISZERO PUSH2 0x25EA JUMPI PUSH1 0x1 PUSH1 0x1 PUSH1 0xA0 SHL SUB DUP4 AND PUSH0 SWAP1 DUP2 MSTORE PUSH1 0x3 PUSH1 0x20 MSTORE PUSH1 0x40 DUP2 KECCAK256 SLOAD SWAP1 DUP2 DUP2 SUB PUSH2 0x25B7 JUMPI PUSH2 0x25B3 DUP6 PUSH2 0x2A3C JUMP JUMPDEST POP PUSH1 0x1 JUMPDEST DUP1 ISZERO PUSH2 0x25D8 JUMPI PUSH1 0x1 PUSH1 0x1 PUSH1 0xA0 SHL SUB DUP6 AND PUSH0 SWAP1 DUP2 MSTORE PUSH1 0x3 PUSH1 0x20 MSTORE PUSH1 0x40 SWAP1 KECCAK256 SLOAD SWAP2 POP JUMPDEST PUSH2 0x25E3 DUP3 DUP6 DUP6 PUSH2 0x2AA1 JUMP JUMPDEST POP POP POP POP POP JUMP JUMPDEST DUP1 ISZERO ISZERO PUSH0 SUB PUSH2 0x265E JUMPI PUSH1 0x1 PUSH1 0x1 PUSH1 0xA0 SHL SUB DUP4 AND PUSH0 SWAP1 DUP2 MSTORE PUSH1 0x3 PUSH1 0x20 MSTORE PUSH1 0x40 DUP2 KECCAK256 SLOAD SWAP1 DUP2 SWAP1 SUB PUSH2 0x2651 JUMPI PUSH1 0x40 MLOAD PUSH3 0x461BCD PUSH1 0xE5 SHL DUP2 MSTORE PUSH1 0x20 PUSH1 0x4 DUP3 ADD MSTORE PUSH1 0x13 PUSH1 0x24 DUP3 ADD MSTORE PUSH19 0x155CD95C881B9BDD081C9959DA5CDD195C9959 PUSH1 0x6A SHL PUSH1 0x44 DUP3 ADD MSTORE PUSH1 0x64 ADD PUSH2 0x7D3 JUMP JUMPDEST PUSH2 0x265C DUP2 DUP5 DUP5 PUSH2 0x2AA1 JUMP JUMPDEST POP JUMPDEST POP POP POP JUMP JUMPDEST PUSH0 DUP1 SLOAD PUSH1 0x40 DUP1 MLOAD PUSH4 0x4CB06BA1 PUSH1 0xE1 SHL DUP2 MSTORE SWAP1 MLOAD DUP4 SWAP3 PUSH1 0x1 PUSH1 0x1 PUSH1 0xA0 SHL SUB AND SWAP2 PUSH4 0x9960D742 SWAP2 PUSH1 0x4 DUP1 DUP4 ADD SWAP3 PUSH1 0x20 SWAP3 SWAP2 SWAP1 DUP3 SWAP1 SUB ADD DUP2 DUP7 GAS STATICCALL ISZERO DUP1 ISZERO PUSH2 0x26AA JUMPI RETURNDATASIZE PUSH0 DUP1 RETURNDATACOPY RETURNDATASIZE PUSH0 REVERT JUMPDEST POP POP POP POP PUSH1 0x40 MLOAD RETURNDATASIZE PUSH1 0x1F NOT PUSH1 0x1F DUP3 ADD AND DUP3 ADD DUP1 PUSH1 0x40 MSTORE POP DUP2 ADD SWAP1 PUSH2 0x26CE SWAP2 SWAP1 PUSH2 0x33B5 JUMP JUMPDEST PUSH1 0xF SLOAD PUSH1 0x40 MLOAD PUSH4 0x70A08231 PUSH1 0xE0 SHL DUP2 MSTORE PUSH1 0x1 PUSH1 0x1 PUSH1 0xA0 SHL SUB DUP1 DUP5 AND PUSH1 0x4 DUP4 ADD MSTORE SWAP3 SWAP4 POP PUSH0 SWAP3 SWAP1 SWAP2 AND SWAP1 PUSH4 0x70A08231 SWAP1 PUSH1 0x24 ADD PUSH1 0x20 PUSH1 0x40 MLOAD DUP1 DUP4 SUB DUP2 DUP7 GAS STATICCALL ISZERO DUP1 ISZERO PUSH2 0x271B JUMPI RETURNDATASIZE PUSH0 DUP1 RETURNDATACOPY RETURNDATASIZE PUSH0 REVERT JUMPDEST POP POP POP POP PUSH1 0x40 MLOAD RETURNDATASIZE PUSH1 0x1F NOT PUSH1 0x1F DUP3 ADD AND DUP3 ADD DUP1 PUSH1 0x40 MSTORE POP DUP2 ADD SWAP1 PUSH2 0x273F SWAP2 SWAP1 PUSH2 0x35D2 JUMP JUMPDEST PUSH1 0xF SLOAD SWAP1 SWAP2 POP PUSH2 0x2759 SWAP1 PUSH1 0x1 PUSH1 0x1 PUSH1 0xA0 SHL SUB AND DUP4 DUP7 PUSH2 0x2D0A JUMP JUMPDEST PUSH1 0xF SLOAD PUSH1 0x40 MLOAD PUSH4 0x70A08231 PUSH1 0xE0 SHL DUP2 MSTORE PUSH1 0x1 PUSH1 0x1 PUSH1 0xA0 SHL SUB DUP5 DUP2 AND PUSH1 0x4 DUP4 ADD MSTORE PUSH0 SWAP3 AND SWAP1 PUSH4 0x70A08231 SWAP1 PUSH1 0x24 ADD PUSH1 0x20 PUSH1 0x40 MLOAD DUP1 DUP4 SUB DUP2 DUP7 GAS STATICCALL ISZERO DUP1 ISZERO PUSH2 0x27A1 JUMPI RETURNDATASIZE PUSH0 DUP1 RETURNDATACOPY RETURNDATASIZE PUSH0 REVERT JUMPDEST POP POP POP POP PUSH1 0x40 MLOAD RETURNDATASIZE PUSH1 0x1F NOT PUSH1 0x1F DUP3 ADD AND DUP3 ADD DUP1 PUSH1 0x40 MSTORE POP DUP2 ADD SWAP1 PUSH2 0x27C5 SWAP2 SWAP1 PUSH2 0x35D2 JUMP JUMPDEST SWAP1 POP PUSH0 PUSH2 0x27D2 DUP3 DUP5 PUSH2 0x298B JUMP JUMPDEST SWAP7 SWAP6 POP POP POP POP POP POP JUMP JUMPDEST PUSH0 PUSH2 0x1306 DUP3 DUP5 PUSH2 0x35FC JUMP JUMPDEST PUSH0 PUSH2 0x1306 DUP3 DUP5 PUSH2 0x3613 JUMP JUMPDEST DUP2 MLOAD PUSH0 JUMPDEST DUP2 DUP2 LT ISZERO PUSH2 0x25E3 JUMPI DUP3 DUP2 DUP2 MLOAD DUP2 LT PUSH2 0x2810 JUMPI PUSH2 0x2810 PUSH2 0x33A1 JUMP JUMPDEST PUSH1 0x20 MUL PUSH1 0x20 ADD ADD MLOAD PUSH1 0x6 PUSH0 DUP7 DUP5 DUP2 MLOAD DUP2 LT PUSH2 0x282D JUMPI PUSH2 0x282D PUSH2 0x33A1 JUMP JUMPDEST PUSH1 0x20 MUL PUSH1 0x20 ADD ADD MLOAD PUSH1 0x1 PUSH1 0x1 PUSH1 0xA0 SHL SUB AND PUSH1 0x1 PUSH1 0x1 PUSH1 0xA0 SHL SUB AND DUP2 MSTORE PUSH1 0x20 ADD SWAP1 DUP2 MSTORE PUSH1 0x20 ADD PUSH0 KECCAK256 PUSH0 ADD PUSH0 DUP3 DUP3 SLOAD PUSH2 0x2864 SWAP2 SWAP1 PUSH2 0x35E9 JUMP JUMPDEST SWAP3 POP POP DUP2 SWAP1 SSTORE POP PUSH1 0x6 PUSH0 DUP6 DUP4 DUP2 MLOAD DUP2 LT PUSH2 0x2880 JUMPI PUSH2 0x2880 PUSH2 0x33A1 JUMP JUMPDEST PUSH1 0x20 MUL PUSH1 0x20 ADD ADD MLOAD PUSH1 0x1 PUSH1 0x1 PUSH1 0xA0 SHL SUB AND PUSH1 0x1 PUSH1 0x1 PUSH1 0xA0 SHL SUB AND DUP2 MSTORE PUSH1 0x20 ADD SWAP1 DUP2 MSTORE PUSH1 0x20 ADD PUSH0 KECCAK256 PUSH1 0x1 ADD PUSH1 0x40 MLOAD DUP1 PUSH1 0x60 ADD PUSH1 0x40 MSTORE DUP1 DUP8 DUP2 MSTORE PUSH1 0x20 ADD PUSH2 0x28CF PUSH1 0x1 DUP6 PUSH2 0x23FB SWAP1 SWAP2 SWAP1 PUSH4 0xFFFFFFFF AND JUMP JUMPDEST DUP2 MSTORE PUSH1 0x20 ADD DUP6 DUP5 DUP2 MLOAD DUP2 LT PUSH2 0x28E6 JUMPI PUSH2 0x28E6 PUSH2 0x33A1 JUMP JUMPDEST PUSH1 0x20 SWAP1 DUP2 MUL SWAP2 SWAP1 SWAP2 ADD DUP2 ADD MLOAD SWAP1 SWAP2 MSTORE DUP3 SLOAD PUSH1 0x1 DUP2 DUP2 ADD DUP6 SSTORE PUSH0 SWAP5 DUP6 MSTORE DUP3 DUP6 KECCAK256 DUP5 MLOAD PUSH1 0x3 SWAP1 SWAP4 MUL ADD SWAP2 DUP3 SSTORE SWAP2 DUP4 ADD MLOAD SWAP2 DUP2 ADD SWAP2 SWAP1 SWAP2 SSTORE PUSH1 0x40 SWAP1 SWAP2 ADD MLOAD PUSH1 0x2 SWAP1 SWAP2 ADD SSTORE DUP5 MLOAD PUSH1 0x6 SWAP2 SWAP1 DUP7 SWAP1 DUP5 SWAP1 DUP2 LT PUSH2 0x293F JUMPI PUSH2 0x293F PUSH2 0x33A1 JUMP JUMPDEST PUSH1 0x20 SWAP1 DUP2 MUL SWAP2 SWAP1 SWAP2 ADD DUP2 ADD MLOAD PUSH1 0x1 PUSH1 0x1 PUSH1 0xA0 SHL SUB AND DUP3 MSTORE DUP2 DUP2 ADD SWAP3 SWAP1 SWAP3 MSTORE PUSH1 0x40 ADD PUSH0 SWAP1 DUP2 KECCAK256 PUSH1 0x2 ADD DUP1 SLOAD PUSH1 0x1 DUP2 ADD DUP3 SSTORE SWAP1 DUP3 MSTORE SWAP2 SWAP1 KECCAK256 ADD DUP6 SWAP1 SSTORE DUP1 PUSH2 0x2983 DUP2 PUSH2 0x3460 JUMP JUMPDEST SWAP2 POP POP PUSH2 0x27F6 JUMP JUMPDEST PUSH0 PUSH2 0x1306 DUP3 DUP5 PUSH2 0x35BF JUMP JUMPDEST PUSH0 DUP1 SLOAD PUSH1 0x1 PUSH1 0x1 PUSH1 0xA0 SHL SUB NOT AND PUSH1 0x1 PUSH1 0x1 PUSH1 0xA0 SHL SUB SWAP3 SWAP1 SWAP3 AND SWAP2 SWAP1 SWAP2 OR SWAP1 SSTORE JUMP JUMPDEST PUSH1 0xF SLOAD PUSH2 0x29CE SWAP1 PUSH1 0x1 PUSH1 0x1 PUSH1 0xA0 SHL SUB AND CALLER DUP4 PUSH2 0x2D0A JUMP JUMPDEST POP JUMP JUMPDEST PUSH1 0x40 MLOAD PUSH1 0x1 PUSH1 0x1 PUSH1 0xA0 SHL SUB DUP1 DUP6 AND PUSH1 0x24 DUP4 ADD MSTORE DUP4 AND PUSH1 0x44 DUP3 ADD MSTORE PUSH1 0x64 DUP2 ADD DUP3 SWAP1 MSTORE PUSH2 0x265C SWAP1 DUP6 SWAP1 PUSH4 0x23B872DD PUSH1 0xE0 SHL SWAP1 PUSH1 0x84 ADD JUMPDEST PUSH1 0x40 DUP1 MLOAD PUSH1 0x1F NOT DUP2 DUP5 SUB ADD DUP2 MSTORE SWAP2 SWAP1 MSTORE PUSH1 0x20 DUP2 ADD DUP1 MLOAD PUSH1 0x1 PUSH1 0x1 PUSH1 0xE0 SHL SUB AND PUSH1 0x1 PUSH1 0x1 PUSH1 0xE0 SHL SUB NOT SWAP1 SWAP4 AND SWAP3 SWAP1 SWAP3 OR SWAP1 SWAP2 MSTORE PUSH2 0x2D3A JUMP JUMPDEST PUSH1 0x1 DUP1 PUSH0 DUP3 DUP3 SLOAD PUSH2 0x2A4D SWAP2 SWAP1 PUSH2 0x35E9 JUMP JUMPDEST SWAP1 SWAP2 SSTORE POP POP PUSH1 0x1 DUP1 SLOAD PUSH1 0x1 PUSH1 0x1 PUSH1 0xA0 SHL SUB SWAP3 SWAP1 SWAP3 AND PUSH0 DUP2 DUP2 MSTORE PUSH1 0x3 PUSH1 0x20 DUP2 DUP2 MSTORE PUSH1 0x40 DUP1 DUP5 KECCAK256 DUP8 SWAP1 SSTORE SWAP6 DUP4 MSTORE PUSH1 0x2 SWAP1 DUP2 SWAP1 MSTORE SWAP5 DUP3 KECCAK256 DUP1 SLOAD PUSH1 0x1 PUSH1 0x1 PUSH1 0xA0 SHL SUB NOT AND SWAP1 SWAP4 OR DUP4 SSTORE SWAP3 DUP3 ADD SSTORE TIMESTAMP SWAP3 DUP2 ADD DUP4 SWAP1 SSTORE ADD SSTORE JUMP JUMPDEST PUSH0 DUP4 DUP2 MSTORE PUSH1 0x2 PUSH1 0x20 MSTORE PUSH1 0x40 SWAP1 KECCAK256 PUSH1 0x1 ADD SLOAD DUP2 ISZERO PUSH2 0x2AFB JUMPI PUSH0 DUP5 DUP2 MSTORE PUSH1 0x2 PUSH1 0x20 MSTORE PUSH1 0x40 DUP2 KECCAK256 PUSH1 0x1 ADD DUP1 SLOAD DUP6 SWAP3 SWAP1 PUSH2 0x2AD8 SWAP1 DUP5 SWAP1 PUSH2 0x35E9 JUMP JUMPDEST SWAP3 POP POP DUP2 SWAP1 SSTORE POP DUP3 PUSH1 0x8 PUSH0 DUP3 DUP3 SLOAD PUSH2 0x2AF0 SWAP2 SWAP1 PUSH2 0x35E9 JUMP JUMPDEST SWAP1 SWAP2 SSTORE POP PUSH2 0x2B93 SWAP1 POP JUMP JUMPDEST DUP2 ISZERO ISZERO PUSH0 SUB PUSH2 0x2B93 JUMPI PUSH0 DUP5 DUP2 MSTORE PUSH1 0x2 PUSH1 0x20 MSTORE PUSH1 0x40 SWAP1 KECCAK256 PUSH1 0x1 ADD SLOAD DUP4 GT ISZERO PUSH2 0x2B55 JUMPI PUSH1 0x40 MLOAD PUSH3 0x461BCD PUSH1 0xE5 SHL DUP2 MSTORE PUSH1 0x20 PUSH1 0x4 DUP3 ADD MSTORE PUSH1 0xE PUSH1 0x24 DUP3 ADD MSTORE PUSH14 0x125B9D985B1A5908185B5BDD5B9D PUSH1 0x92 SHL PUSH1 0x44 DUP3 ADD MSTORE PUSH1 0x64 ADD PUSH2 0x7D3 JUMP JUMPDEST PUSH0 DUP5 DUP2 MSTORE PUSH1 0x2 PUSH1 0x20 MSTORE PUSH1 0x40 DUP2 KECCAK256 PUSH1 0x1 ADD DUP1 SLOAD DUP6 SWAP3 SWAP1 PUSH2 0x2B75 SWAP1 DUP5 SWAP1 PUSH2 0x35BF JUMP JUMPDEST SWAP3 POP POP DUP2 SWAP1 SSTORE POP DUP3 PUSH1 0x8 PUSH0 DUP3 DUP3 SLOAD PUSH2 0x2B8D SWAP2 SWAP1 PUSH2 0x35BF JUMP JUMPDEST SWAP1 SWAP2 SSTORE POP POP JUMPDEST PUSH0 DUP5 DUP2 MSTORE PUSH1 0x2 PUSH1 0x20 MSTORE PUSH1 0x40 DUP2 KECCAK256 PUSH1 0x3 DUP2 ADD DUP1 SLOAD TIMESTAMP SWAP1 SWAP2 SSTORE PUSH1 0x1 SWAP1 SWAP2 ADD SLOAD SWAP1 SWAP2 PUSH2 0x2BBA PUSH2 0x12CE JUMP JUMPDEST SWAP1 POP PUSH0 PUSH1 0xD DUP3 DUP2 SLOAD DUP2 LT PUSH2 0x2BD0 JUMPI PUSH2 0x2BD0 PUSH2 0x33A1 JUMP JUMPDEST SWAP1 PUSH0 MSTORE PUSH1 0x20 PUSH0 KECCAK256 SWAP1 PUSH1 0xE MUL ADD SWAP1 POP PUSH0 PUSH2 0x2BFA DUP3 PUSH1 0xB ADD SLOAD DUP4 PUSH1 0xC ADD SLOAD PUSH2 0x23FB SWAP1 SWAP2 SWAP1 PUSH4 0xFFFFFFFF AND JUMP JUMPDEST SWAP1 POP DUP1 TIMESTAMP GT ISZERO PUSH2 0x2C88 JUMPI PUSH1 0x40 MLOAD PUSH3 0x461BCD PUSH1 0xE5 SHL DUP2 MSTORE PUSH1 0x20 PUSH1 0x4 DUP3 ADD MSTORE PUSH1 0x4D PUSH1 0x24 DUP3 ADD MSTORE PUSH32 0x436F6E747261637420697320696E207468652070726F63657373206F66207570 PUSH1 0x44 DUP3 ADD MSTORE PUSH32 0x646174696E672E20506C65617365207761697420666F722061207768696C6520 PUSH1 0x64 DUP3 ADD MSTORE PUSH13 0x30B732103A393C9030B3B0B4B7 PUSH1 0x99 SHL PUSH1 0x84 DUP3 ADD MSTORE PUSH1 0xA4 ADD PUSH2 0x7D3 JUMP JUMPDEST PUSH0 DUP4 DUP2 MSTORE PUSH1 0x5 PUSH1 0x20 SWAP1 DUP2 MSTORE PUSH1 0x40 DUP1 DUP4 KECCAK256 DUP13 DUP5 MSTORE DUP3 MSTORE DUP1 DUP4 KECCAK256 DUP1 SLOAD PUSH1 0xFF NOT AND PUSH1 0x1 SWAP1 DUP2 OR DUP3 SSTORE DUP3 MLOAD PUSH1 0x60 DUP2 ADD DUP5 MSTORE DUP12 DUP2 MSTORE DUP1 DUP6 ADD DUP11 DUP2 MSTORE TIMESTAMP SWAP5 DUP3 ADD SWAP5 DUP6 MSTORE SWAP3 DUP3 ADD DUP1 SLOAD DUP1 DUP5 ADD DUP3 SSTORE SWAP1 DUP8 MSTORE SWAP5 SWAP1 SWAP6 KECCAK256 SWAP5 MLOAD PUSH1 0x3 SWAP1 SWAP5 MUL SWAP1 SWAP5 ADD SWAP3 DUP4 SSTORE MLOAD SWAP3 DUP3 ADD SWAP3 SWAP1 SWAP3 SSTORE SWAP1 MLOAD PUSH1 0x2 SWAP1 SWAP2 ADD SSTORE PUSH2 0x2CFF DUP10 DUP8 DUP8 DUP7 PUSH2 0x2E0D JUMP JUMPDEST POP POP POP POP POP POP POP POP POP JUMP JUMPDEST PUSH1 0x40 MLOAD PUSH1 0x1 PUSH1 0x1 PUSH1 0xA0 SHL SUB DUP4 AND PUSH1 0x24 DUP3 ADD MSTORE PUSH1 0x44 DUP2 ADD DUP3 SWAP1 MSTORE PUSH2 0x265E SWAP1 DUP5 SWAP1 PUSH4 0xA9059CBB PUSH1 0xE0 SHL SWAP1 PUSH1 0x64 ADD PUSH2 0x2A05 JUMP JUMPDEST PUSH0 PUSH2 0x2D8E DUP3 PUSH1 0x40 MLOAD DUP1 PUSH1 0x40 ADD PUSH1 0x40 MSTORE DUP1 PUSH1 0x20 DUP2 MSTORE PUSH1 0x20 ADD PUSH32 0x5361666545524332303A206C6F772D6C6576656C2063616C6C206661696C6564 DUP2 MSTORE POP DUP6 PUSH1 0x1 PUSH1 0x1 PUSH1 0xA0 SHL SUB AND PUSH2 0x2FA2 SWAP1 SWAP3 SWAP2 SWAP1 PUSH4 0xFFFFFFFF AND JUMP JUMPDEST SWAP1 POP DUP1 MLOAD PUSH0 EQ DUP1 PUSH2 0x2DAE JUMPI POP DUP1 DUP1 PUSH1 0x20 ADD SWAP1 MLOAD DUP2 ADD SWAP1 PUSH2 0x2DAE SWAP2 SWAP1 PUSH2 0x3632 JUMP JUMPDEST PUSH2 0x265E JUMPI PUSH1 0x40 MLOAD PUSH3 0x461BCD PUSH1 0xE5 SHL DUP2 MSTORE PUSH1 0x20 PUSH1 0x4 DUP3 ADD MSTORE PUSH1 0x2A PUSH1 0x24 DUP3 ADD MSTORE PUSH32 0x5361666545524332303A204552433230206F7065726174696F6E20646964206E PUSH1 0x44 DUP3 ADD MSTORE PUSH10 0x1BDD081CDD58D8D95959 PUSH1 0xB2 SHL PUSH1 0x64 DUP3 ADD MSTORE PUSH1 0x84 ADD PUSH2 0x7D3 JUMP JUMPDEST PUSH0 PUSH1 0xD DUP3 DUP2 SLOAD DUP2 LT PUSH2 0x2E21 JUMPI PUSH2 0x2E21 PUSH2 0x33A1 JUMP JUMPDEST PUSH0 SWAP2 DUP3 MSTORE PUSH1 0x20 DUP1 DUP4 KECCAK256 PUSH1 0x40 DUP1 MLOAD PUSH2 0x160 DUP2 ADD DUP3 MSTORE PUSH1 0xE SWAP1 SWAP5 MUL SWAP1 SWAP2 ADD DUP1 SLOAD PUSH1 0x1 PUSH1 0x1 PUSH1 0xA0 SHL SUB SWAP1 DUP2 AND PUSH2 0x100 DUP7 ADD SWAP1 DUP2 MSTORE PUSH1 0x1 DUP4 ADD SLOAD PUSH2 0x120 DUP8 ADD MSTORE PUSH1 0x2 DUP4 ADD SLOAD PUSH1 0xFF SWAP1 DUP2 AND ISZERO ISZERO PUSH2 0x140 DUP9 ADD MSTORE SWAP1 DUP7 MSTORE DUP4 MLOAD PUSH1 0x60 DUP2 DUP2 ADD DUP7 MSTORE PUSH1 0x3 DUP6 ADD SLOAD DUP5 AND DUP3 MSTORE PUSH1 0x4 DUP6 ADD SLOAD DUP3 DUP9 ADD MSTORE PUSH1 0x5 DUP6 ADD SLOAD DUP4 AND ISZERO ISZERO DUP3 DUP8 ADD MSTORE DUP8 DUP8 ADD SWAP2 SWAP1 SWAP2 MSTORE DUP5 MLOAD DUP1 DUP3 ADD DUP7 MSTORE PUSH1 0x6 DUP6 ADD SLOAD SWAP1 SWAP4 AND DUP4 MSTORE PUSH1 0x7 DUP5 ADD SLOAD SWAP6 DUP4 ADD SWAP6 SWAP1 SWAP6 MSTORE PUSH1 0x8 DUP4 ADD SLOAD DUP2 AND ISZERO ISZERO DUP3 DUP6 ADD MSTORE SWAP3 DUP6 ADD MSTORE PUSH1 0x9 DUP2 ADD SLOAD SWAP1 SWAP2 AND ISZERO ISZERO SWAP2 DUP4 ADD SWAP2 SWAP1 SWAP2 MSTORE PUSH1 0xA DUP2 ADD SLOAD PUSH1 0x80 DUP4 ADD MSTORE PUSH1 0xB DUP2 ADD SLOAD PUSH1 0xA0 DUP4 ADD DUP2 SWAP1 MSTORE PUSH1 0xC DUP3 ADD SLOAD PUSH1 0xC0 DUP5 ADD DUP2 SWAP1 MSTORE PUSH1 0xD SWAP1 SWAP3 ADD SLOAD PUSH1 0xE0 DUP5 ADD MSTORE SWAP2 SWAP4 POP SWAP2 SWAP1 PUSH2 0x2F1C SWAP1 DUP4 PUSH2 0x23FB JUMP JUMPDEST SWAP1 POP PUSH0 DUP3 DUP7 LT ISZERO PUSH2 0x2F38 JUMPI PUSH2 0x2F31 TIMESTAMP DUP5 PUSH2 0x298B JUMP JUMPDEST SWAP1 POP PUSH2 0x2F5A JUMP JUMPDEST DUP3 DUP7 LT ISZERO DUP1 ISZERO PUSH2 0x2F48 JUMPI POP DUP2 DUP7 GT ISZERO JUMPDEST ISZERO PUSH2 0x2F5A JUMPI PUSH2 0x2F57 TIMESTAMP DUP8 PUSH2 0x298B JUMP JUMPDEST SWAP1 POP JUMPDEST PUSH0 PUSH2 0x2F65 DUP3 DUP10 PUSH2 0x27DC JUMP JUMPDEST PUSH0 DUP8 DUP2 MSTORE PUSH1 0x4 PUSH1 0x20 SWAP1 DUP2 MSTORE PUSH1 0x40 DUP1 DUP4 KECCAK256 DUP14 DUP5 MSTORE SWAP1 SWAP2 MSTORE DUP2 KECCAK256 DUP1 SLOAD SWAP3 SWAP4 POP DUP4 SWAP3 SWAP1 SWAP2 SWAP1 PUSH2 0x2F92 SWAP1 DUP5 SWAP1 PUSH2 0x35E9 JUMP JUMPDEST SWAP1 SWAP2 SSTORE POP POP POP POP POP POP POP POP POP POP POP JUMP JUMPDEST PUSH1 0x60 PUSH2 0x2FB0 DUP5 DUP5 PUSH0 DUP6 PUSH2 0x2FB8 JUMP JUMPDEST SWAP5 SWAP4 POP POP POP POP JUMP JUMPDEST PUSH1 0x60 DUP3 SELFBALANCE LT ISZERO PUSH2 0x3019 JUMPI PUSH1 0x40 MLOAD PUSH3 0x461BCD PUSH1 0xE5 SHL DUP2 MSTORE PUSH1 0x20 PUSH1 0x4 DUP3 ADD MSTORE PUSH1 0x26 PUSH1 0x24 DUP3 ADD MSTORE PUSH32 0x416464726573733A20696E73756666696369656E742062616C616E636520666F PUSH1 0x44 DUP3 ADD MSTORE PUSH6 0x1C8818D85B1B PUSH1 0xD2 SHL PUSH1 0x64 DUP3 ADD MSTORE PUSH1 0x84 ADD PUSH2 0x7D3 JUMP JUMPDEST PUSH0 DUP1 DUP7 PUSH1 0x1 PUSH1 0x1 PUSH1 0xA0 SHL SUB AND DUP6 DUP8 PUSH1 0x40 MLOAD PUSH2 0x3034 SWAP2 SWAP1 PUSH2 0x3673 JUMP JUMPDEST PUSH0 PUSH1 0x40 MLOAD DUP1 DUP4 SUB DUP2 DUP6 DUP8 GAS CALL SWAP3 POP POP POP RETURNDATASIZE DUP1 PUSH0 DUP2 EQ PUSH2 0x306E JUMPI PUSH1 0x40 MLOAD SWAP2 POP PUSH1 0x1F NOT PUSH1 0x3F RETURNDATASIZE ADD AND DUP3 ADD PUSH1 0x40 MSTORE RETURNDATASIZE DUP3 MSTORE RETURNDATASIZE PUSH0 PUSH1 0x20 DUP5 ADD RETURNDATACOPY PUSH2 0x3073 JUMP JUMPDEST PUSH1 0x60 SWAP2 POP JUMPDEST POP SWAP2 POP SWAP2 POP PUSH2 0x23F0 DUP8 DUP4 DUP4 DUP8 PUSH1 0x60 DUP4 ISZERO PUSH2 0x30ED JUMPI DUP3 MLOAD PUSH0 SUB PUSH2 0x30E6 JUMPI PUSH1 0x1 PUSH1 0x1 PUSH1 0xA0 SHL SUB DUP6 AND EXTCODESIZE PUSH2 0x30E6 JUMPI PUSH1 0x40 MLOAD PUSH3 0x461BCD PUSH1 0xE5 SHL DUP2 MSTORE PUSH1 0x20 PUSH1 0x4 DUP3 ADD MSTORE PUSH1 0x1D PUSH1 0x24 DUP3 ADD MSTORE PUSH32 0x416464726573733A2063616C6C20746F206E6F6E2D636F6E7472616374000000 PUSH1 0x44 DUP3 ADD MSTORE PUSH1 0x64 ADD PUSH2 0x7D3 JUMP JUMPDEST POP DUP2 PUSH2 0x2FB0 JUMP JUMPDEST PUSH2 0x2FB0 DUP4 DUP4 DUP2 MLOAD ISZERO PUSH2 0x3102 JUMPI DUP2 MLOAD DUP1 DUP4 PUSH1 0x20 ADD REVERT JUMPDEST DUP1 PUSH1 0x40 MLOAD PUSH3 0x461BCD PUSH1 0xE5 SHL DUP2 MSTORE PUSH1 0x4 ADD PUSH2 0x7D3 SWAP2 SWAP1 PUSH2 0x368E JUMP JUMPDEST POP DUP1 SLOAD PUSH0 DUP3 SSTORE SWAP1 PUSH0 MSTORE PUSH1 0x20 PUSH0 KECCAK256 SWAP1 DUP2 ADD SWAP1 PUSH2 0x29CE SWAP2 SWAP1 JUMPDEST DUP1 DUP3 GT ISZERO PUSH2 0x3146 JUMPI PUSH0 DUP2 SSTORE PUSH1 0x1 ADD PUSH2 0x3133 JUMP JUMPDEST POP SWAP1 JUMP JUMPDEST DUP2 MLOAD DUP2 MSTORE PUSH1 0x20 DUP1 DUP4 ADD MLOAD SWAP1 DUP3 ADD MSTORE PUSH1 0x40 DUP1 DUP4 ADD MLOAD SWAP1 DUP3 ADD MSTORE PUSH1 0x60 DUP2 ADD PUSH2 0x1A71 JUMP JUMPDEST PUSH1 0x1 PUSH1 0x1 PUSH1 0xA0 SHL SUB DUP2 AND DUP2 EQ PUSH2 0x29CE JUMPI PUSH0 DUP1 REVERT JUMPDEST PUSH0 PUSH1 0x20 DUP3 DUP5 SUB SLT ISZERO PUSH2 0x318F JUMPI PUSH0 DUP1 REVERT JUMPDEST DUP2 CALLDATALOAD PUSH2 0x1306 DUP2 PUSH2 0x316B JUMP JUMPDEST PUSH0 PUSH1 0x20 DUP3 DUP5 SUB SLT ISZERO PUSH2 0x31AA JUMPI PUSH0 DUP1 REVERT JUMPDEST POP CALLDATALOAD SWAP2 SWAP1 POP JUMP JUMPDEST PUSH1 0x20 DUP1 DUP3 MSTORE DUP3 MLOAD DUP3 DUP3 ADD DUP2 SWAP1 MSTORE PUSH0 SWAP2 SWAP1 DUP5 DUP3 ADD SWAP1 PUSH1 0x40 DUP6 ADD SWAP1 DUP5 JUMPDEST DUP2 DUP2 LT ISZERO PUSH2 0x3206 JUMPI PUSH2 0x31F3 DUP4 DUP6 MLOAD DUP1 MLOAD DUP3 MSTORE PUSH1 0x20 DUP1 DUP3 ADD MLOAD SWAP1 DUP4 ADD MSTORE PUSH1 0x40 SWAP1 DUP2 ADD MLOAD SWAP2 ADD MSTORE JUMP JUMPDEST SWAP3 DUP5 ADD SWAP3 PUSH1 0x60 SWAP3 SWAP1 SWAP3 ADD SWAP2 PUSH1 0x1 ADD PUSH2 0x31CC JUMP JUMPDEST POP SWAP1 SWAP7 SWAP6 POP POP POP POP POP POP JUMP JUMPDEST PUSH0 DUP1 PUSH1 0x40 DUP4 DUP6 SUB SLT ISZERO PUSH2 0x3223 JUMPI PUSH0 DUP1 REVERT JUMPDEST DUP3 CALLDATALOAD PUSH2 0x322E DUP2 PUSH2 0x316B JUMP JUMPDEST SWAP5 PUSH1 0x20 SWAP4 SWAP1 SWAP4 ADD CALLDATALOAD SWAP4 POP POP POP JUMP JUMPDEST PUSH0 PUSH1 0x20 DUP1 DUP4 MSTORE PUSH1 0x60 DUP1 DUP5 ADD DUP6 MLOAD ISZERO ISZERO DUP4 DUP7 ADD MSTORE DUP3 DUP7 ADD MLOAD PUSH1 0x40 DUP1 DUP8 ADD MSTORE DUP2 DUP2 MLOAD DUP1 DUP5 MSTORE PUSH1 0x80 DUP9 ADD SWAP2 POP DUP6 DUP4 ADD SWAP4 POP PUSH0 SWAP3 POP JUMPDEST DUP1 DUP4 LT ISZERO PUSH2 0x32A9 JUMPI PUSH2 0x3295 DUP3 DUP6 MLOAD DUP1 MLOAD DUP3 MSTORE PUSH1 0x20 DUP1 DUP3 ADD MLOAD SWAP1 DUP4 ADD MSTORE PUSH1 0x40 SWAP1 DUP2 ADD MLOAD SWAP2 ADD MSTORE JUMP JUMPDEST SWAP3 DUP6 ADD SWAP3 PUSH1 0x1 SWAP3 SWAP1 SWAP3 ADD SWAP2 SWAP1 DUP5 ADD SWAP1 PUSH2 0x326E JUMP JUMPDEST POP SWAP8 SWAP7 POP POP POP POP POP POP POP JUMP JUMPDEST PUSH0 DUP1 PUSH0 DUP1 PUSH1 0x80 DUP6 DUP8 SUB SLT ISZERO PUSH2 0x32C8 JUMPI PUSH0 DUP1 REVERT JUMPDEST DUP5 CALLDATALOAD PUSH2 0x32D3 DUP2 PUSH2 0x316B JUMP JUMPDEST SWAP7 PUSH1 0x20 DUP7 ADD CALLDATALOAD SWAP7 POP PUSH1 0x40 DUP7 ADD CALLDATALOAD SWAP6 PUSH1 0x60 ADD CALLDATALOAD SWAP5 POP SWAP3 POP POP POP JUMP JUMPDEST PUSH0 DUP1 PUSH0 DUP1 PUSH0 PUSH1 0xA0 DUP7 DUP9 SUB SLT ISZERO PUSH2 0x3301 JUMPI PUSH0 DUP1 REVERT JUMPDEST DUP6 CALLDATALOAD SWAP5 POP PUSH1 0x20 DUP7 ADD CALLDATALOAD PUSH2 0x3313 DUP2 PUSH2 0x316B JUMP JUMPDEST SWAP4 POP PUSH1 0x40 DUP7 ADD CALLDATALOAD PUSH2 0x3323 DUP2 PUSH2 0x316B JUMP JUMPDEST SWAP3 POP PUSH1 0x60 DUP7 ADD CALLDATALOAD PUSH2 0x3333 DUP2 PUSH2 0x316B JUMP JUMPDEST SWAP5 SWAP8 SWAP4 SWAP7 POP SWAP2 SWAP5 PUSH1 0x80 ADD CALLDATALOAD SWAP3 SWAP2 POP POP JUMP JUMPDEST PUSH0 DUP1 PUSH1 0x40 DUP4 DUP6 SUB SLT ISZERO PUSH2 0x3355 JUMPI PUSH0 DUP1 REVERT JUMPDEST DUP3 CALLDATALOAD SWAP2 POP PUSH1 0x20 DUP4 ADD CALLDATALOAD PUSH2 0x3367 DUP2 PUSH2 0x316B JUMP JUMPDEST DUP1 SWAP2 POP POP SWAP3 POP SWAP3 SWAP1 POP JUMP JUMPDEST PUSH0 DUP1 PUSH0 DUP1 PUSH1 0x80 DUP6 DUP8 SUB SLT ISZERO PUSH2 0x3385 JUMPI PUSH0 DUP1 REVERT JUMPDEST POP POP DUP3 CALLDATALOAD SWAP5 PUSH1 0x20 DUP5 ADD CALLDATALOAD SWAP5 POP PUSH1 0x40 DUP5 ADD CALLDATALOAD SWAP4 PUSH1 0x60 ADD CALLDATALOAD SWAP3 POP SWAP1 POP JUMP JUMPDEST PUSH4 0x4E487B71 PUSH1 0xE0 SHL PUSH0 MSTORE PUSH1 0x32 PUSH1 0x4 MSTORE PUSH1 0x24 PUSH0 REVERT JUMPDEST PUSH0 PUSH1 0x20 DUP3 DUP5 SUB SLT ISZERO PUSH2 0x33C5 JUMPI PUSH0 DUP1 REVERT JUMPDEST DUP2 MLOAD PUSH2 0x1306 DUP2 PUSH2 0x316B JUMP JUMPDEST PUSH1 0x20 DUP1 DUP3 MSTORE PUSH1 0xE SWAP1 DUP3 ADD MSTORE PUSH14 0x24B73B30B634B21031B0B63632B9 PUSH1 0x91 SHL PUSH1 0x40 DUP3 ADD MSTORE PUSH1 0x60 ADD SWAP1 JUMP JUMPDEST PUSH1 0x20 DUP1 DUP3 MSTORE PUSH1 0xC SWAP1 DUP3 ADD MSTORE PUSH12 0x125B1B1959D85B0818D85B1B PUSH1 0xA2 SHL PUSH1 0x40 DUP3 ADD MSTORE PUSH1 0x60 ADD SWAP1 JUMP JUMPDEST PUSH1 0x20 DUP1 DUP3 MSTORE PUSH1 0x14 SWAP1 DUP3 ADD MSTORE PUSH20 0x10DBDB9D1C9858DD081B9BDD081CDD185C9D1959 PUSH1 0x62 SHL PUSH1 0x40 DUP3 ADD MSTORE PUSH1 0x60 ADD SWAP1 JUMP JUMPDEST PUSH4 0x4E487B71 PUSH1 0xE0 SHL PUSH0 MSTORE PUSH1 0x11 PUSH1 0x4 MSTORE PUSH1 0x24 PUSH0 REVERT JUMPDEST PUSH0 PUSH1 0x1 DUP3 ADD PUSH2 0x3471 JUMPI PUSH2 0x3471 PUSH2 0x344C JUMP JUMPDEST POP PUSH1 0x1 ADD SWAP1 JUMP JUMPDEST PUSH1 0x20 DUP1 DUP3 MSTORE PUSH1 0x16 SWAP1 DUP3 ADD MSTORE PUSH22 0x155CD95C881A185CDB89DD081C9959DA5CDD195C9959 PUSH1 0x52 SHL PUSH1 0x40 DUP3 ADD MSTORE PUSH1 0x60 ADD SWAP1 JUMP JUMPDEST PUSH1 0x20 DUP1 DUP3 MSTORE PUSH1 0x12 SWAP1 DUP3 ADD MSTORE PUSH18 0x155CD95C88191BD95CDB89DD08195E1A5CDD PUSH1 0x72 SHL PUSH1 0x40 DUP3 ADD MSTORE PUSH1 0x60 ADD SWAP1 JUMP JUMPDEST PUSH1 0x1 DUP2 DUP2 JUMPDEST DUP1 DUP6 GT ISZERO PUSH2 0x350E JUMPI DUP2 PUSH0 NOT DIV DUP3 GT ISZERO PUSH2 0x34F4 JUMPI PUSH2 0x34F4 PUSH2 0x344C JUMP JUMPDEST DUP1 DUP6 AND ISZERO PUSH2 0x3501 JUMPI SWAP2 DUP2 MUL SWAP2 JUMPDEST SWAP4 DUP5 SHR SWAP4 SWAP1 DUP1 MUL SWAP1 PUSH2 0x34D9 JUMP JUMPDEST POP SWAP3 POP SWAP3 SWAP1 POP JUMP JUMPDEST PUSH0 DUP3 PUSH2 0x3524 JUMPI POP PUSH1 0x1 PUSH2 0x1A71 JUMP JUMPDEST DUP2 PUSH2 0x3530 JUMPI POP PUSH0 PUSH2 0x1A71 JUMP JUMPDEST DUP2 PUSH1 0x1 DUP2 EQ PUSH2 0x3546 JUMPI PUSH1 0x2 DUP2 EQ PUSH2 0x3550 JUMPI PUSH2 0x356C JUMP JUMPDEST PUSH1 0x1 SWAP2 POP POP PUSH2 0x1A71 JUMP JUMPDEST PUSH1 0xFF DUP5 GT ISZERO PUSH2 0x3561 JUMPI PUSH2 0x3561 PUSH2 0x344C JUMP JUMPDEST POP POP PUSH1 0x1 DUP3 SHL PUSH2 0x1A71 JUMP JUMPDEST POP PUSH1 0x20 DUP4 LT PUSH2 0x133 DUP4 LT AND PUSH1 0x4E DUP5 LT PUSH1 0xB DUP5 LT AND OR ISZERO PUSH2 0x358F JUMPI POP DUP2 DUP2 EXP PUSH2 0x1A71 JUMP JUMPDEST PUSH2 0x3599 DUP4 DUP4 PUSH2 0x34D4 JUMP JUMPDEST DUP1 PUSH0 NOT DIV DUP3 GT ISZERO PUSH2 0x35AC JUMPI PUSH2 0x35AC PUSH2 0x344C JUMP JUMPDEST MUL SWAP4 SWAP3 POP POP POP JUMP JUMPDEST PUSH0 PUSH2 0x1306 DUP4 DUP4 PUSH2 0x3516 JUMP JUMPDEST DUP2 DUP2 SUB DUP2 DUP2 GT ISZERO PUSH2 0x1A71 JUMPI PUSH2 0x1A71 PUSH2 0x344C JUMP JUMPDEST PUSH0 PUSH1 0x20 DUP3 DUP5 SUB SLT ISZERO PUSH2 0x35E2 JUMPI PUSH0 DUP1 REVERT JUMPDEST POP MLOAD SWAP2 SWAP1 POP JUMP JUMPDEST DUP1 DUP3 ADD DUP1 DUP3 GT ISZERO PUSH2 0x1A71 JUMPI PUSH2 0x1A71 PUSH2 0x344C JUMP JUMPDEST DUP1 DUP3 MUL DUP2 ISZERO DUP3 DUP3 DIV DUP5 EQ OR PUSH2 0x1A71 JUMPI PUSH2 0x1A71 PUSH2 0x344C JUMP JUMPDEST PUSH0 DUP3 PUSH2 0x362D JUMPI PUSH4 0x4E487B71 PUSH1 0xE0 SHL PUSH0 MSTORE PUSH1 0x12 PUSH1 0x4 MSTORE PUSH1 0x24 PUSH0 REVERT JUMPDEST POP DIV SWAP1 JUMP JUMPDEST PUSH0 PUSH1 0x20 DUP3 DUP5 SUB SLT ISZERO PUSH2 0x3642 JUMPI PUSH0 DUP1 REVERT JUMPDEST DUP2 MLOAD DUP1 ISZERO ISZERO DUP2 EQ PUSH2 0x1306 JUMPI PUSH0 DUP1 REVERT JUMPDEST PUSH0 JUMPDEST DUP4 DUP2 LT ISZERO PUSH2 0x366B JUMPI DUP2 DUP2 ADD MLOAD DUP4 DUP3 ADD MSTORE PUSH1 0x20 ADD PUSH2 0x3653 JUMP JUMPDEST POP POP PUSH0 SWAP2 ADD MSTORE JUMP JUMPDEST PUSH0 DUP3 MLOAD PUSH2 0x3684 DUP2 DUP5 PUSH1 0x20 DUP8 ADD PUSH2 0x3651 JUMP JUMPDEST SWAP2 SWAP1 SWAP2 ADD SWAP3 SWAP2 POP POP JUMP JUMPDEST PUSH1 0x20 DUP2 MSTORE PUSH0 DUP3 MLOAD DUP1 PUSH1 0x20 DUP5 ADD MSTORE PUSH2 0x36AC DUP2 PUSH1 0x40 DUP6 ADD PUSH1 0x20 DUP8 ADD PUSH2 0x3651 JUMP JUMPDEST PUSH1 0x1F ADD PUSH1 0x1F NOT AND SWAP2 SWAP1 SWAP2 ADD PUSH1 0x40 ADD SWAP3 SWAP2 POP POP JUMP INVALID LOG2 PUSH5 0x6970667358 0x22 SLT KECCAK256 PUSH4 0x7B40F2B4 0xB5 XOR MSTORE8 KECCAK256 PUSH9 0xB0B324C09A8A6AB7C3 GT SWAP11 0x49 0xDD SWAP11 JUMPI 0xAD 0x27 PUSH32 0x35CB274E64736F6C634300081500330000000000000000000000000000000000 "
				},
				"gasEstimates": {
					"creation": {
						"codeDepositCost": "2814000",
						"executionCost": "3067",
						"totalCost": "2817067"
					},
					"external": {
						"changeRegistryContractAddr(address)": "infinite",
						"claimRewardsFor(address)": "infinite",
						"config(address,uint256,uint256,uint256)": "infinite",
						"createNewEpoch()": "infinite",
						"depositFor(address,uint256)": "infinite",
						"finalizeEpoch(uint256,address,address,address,uint256)": "infinite",
						"finalizeEpochTicketandParticipantInfo(uint256)": "infinite",
						"getAccumulatedTicketwithoutDecimal(uint256,address)": "infinite",
						"getBalanceChangeHistory(address,uint256)": "infinite",
						"getClaimable(address)": "2573",
						"getCurrentEpochReward()": "infinite",
						"getEpochInfo(uint256)": "33464",
						"getEpochLength()": "2358",
						"getLatestEpoch()": "infinite",
						"getMinAmountToDeposit()": "2358",
						"getPoolTVL()": "2359",
						"getRewardAllocationPercentage()": "6802",
						"getTicketAmount(uint256,address)": "infinite",
						"getTokenUsing()": "2409",
						"getUserAmount()": "2326",
						"getUserDepositInfo(address)": "11469",
						"getUserID(address)": "2596",
						"getWinningHistory(address)": "infinite",
						"getuserByID(uint256)": "2519",
						"initialize(address)": "51057",
						"setRewardRatio(uint256,uint256,uint256,uint256)": "infinite",
						"withdrawFor(address,uint256)": "infinite"
					},
					"internal": {
						"_proceedUpdate(uint256,uint256,bool)": "infinite",
						"_transferRegistryAddr(address)": "24277",
						"_updateAccumulatedTicket(uint256,uint256,uint256,uint256)": "infinite",
						"_updateBalanceChange(uint256,uint256,uint256,uint256)": "infinite",
						"getTokenFromMsgsender(uint256)": "infinite",
						"registerNewUser(address)": "122167",
						"sendRewardToRouter(uint256)": "infinite",
						"sendTokenToMsgsender(uint256)": "infinite",
						"setClaimableRewards(uint256,address[] memory,uint256[] memory)": "infinite",
						"sumUptotalParticipant(uint256,uint256)": "infinite",
						"transferRewardToReserve(uint256)": "infinite",
						"updateUserInfo(address,uint256,bool)": "infinite"
					}
				},
				"methodIdentifiers": {
					"changeRegistryContractAddr(address)": "fa7c828a",
					"claimRewardsFor(address)": "1ac6d19d",
					"config(address,uint256,uint256,uint256)": "a2122bf7",
					"createNewEpoch()": "ec20c2e5",
					"depositFor(address,uint256)": "2f4f21e2",
					"finalizeEpoch(uint256,address,address,address,uint256)": "a3058071",
					"finalizeEpochTicketandParticipantInfo(uint256)": "2c26eb46",
					"getAccumulatedTicketwithoutDecimal(uint256,address)": "a3fb7050",
					"getBalanceChangeHistory(address,uint256)": "858c7585",
					"getClaimable(address)": "a583024b",
					"getCurrentEpochReward()": "fd2324de",
					"getEpochInfo(uint256)": "135022c2",
					"getEpochLength()": "cfe8a73b",
					"getLatestEpoch()": "a3d74f06",
					"getMinAmountToDeposit()": "361f1ad3",
					"getPoolTVL()": "26be90bf",
					"getRewardAllocationPercentage()": "039da66e",
					"getTicketAmount(uint256,address)": "d474fbf7",
					"getTokenUsing()": "0fce03b9",
					"getUserAmount()": "095d0c94",
					"getUserDepositInfo(address)": "b3a7834d",
					"getUserID(address)": "0ef12aa9",
					"getWinningHistory(address)": "18703da5",
					"getuserByID(uint256)": "ca6d83df",
					"initialize(address)": "c4d66de8",
					"setRewardRatio(uint256,uint256,uint256,uint256)": "c51475b9",
					"withdrawFor(address,uint256)": "db518db2"
				}
			},
			"storageLayout": {
				"storage": [
					{
						"astId": 1297,
						"contract": "stETHPoolV1.sol:stETHPool",
						"label": "registryContract",
						"offset": 0,
						"slot": "0",
						"type": "t_address"
					},
					{
						"astId": 1299,
						"contract": "stETHPoolV1.sol:stETHPool",
						"label": "initialized",
						"offset": 20,
						"slot": "0",
						"type": "t_bool"
					},
					{
						"astId": 1301,
						"contract": "stETHPoolV1.sol:stETHPool",
						"label": "amountOfUser",
						"offset": 0,
						"slot": "1",
						"type": "t_uint256"
					},
					{
						"astId": 1306,
						"contract": "stETHPoolV1.sol:stETHPool",
						"label": "userDepositInfo",
						"offset": 0,
						"slot": "2",
						"type": "t_mapping(t_uint256,t_struct(userInfo)1264_storage)"
					},
					{
						"astId": 1310,
						"contract": "stETHPoolV1.sol:stETHPool",
						"label": "userID",
						"offset": 0,
						"slot": "3",
						"type": "t_mapping(t_address,t_uint256)"
					},
					{
						"astId": 1316,
						"contract": "stETHPoolV1.sol:stETHPool",
						"label": "accumulatedTicket",
						"offset": 0,
						"slot": "4",
						"type": "t_mapping(t_uint256,t_mapping(t_uint256,t_uint256))"
					},
					{
						"astId": 1323,
						"contract": "stETHPoolV1.sol:stETHPool",
						"label": "changeHistory",
						"offset": 0,
						"slot": "5",
						"type": "t_mapping(t_uint256,t_mapping(t_uint256,t_struct(userChangeHistory)1278_storage))"
					},
					{
						"astId": 1328,
						"contract": "stETHPoolV1.sol:stETHPool",
						"label": "claimableRewardData",
						"offset": 0,
						"slot": "6",
						"type": "t_mapping(t_address,t_struct(claimableRewardInfo)1295_storage)"
					},
					{
						"astId": 1330,
						"contract": "stETHPoolV1.sol:stETHPool",
						"label": "status",
						"offset": 0,
						"slot": "7",
						"type": "t_uint256"
					},
					{
						"astId": 1332,
						"contract": "stETHPoolV1.sol:stETHPool",
						"label": "poolTVL",
						"offset": 0,
						"slot": "8",
						"type": "t_uint256"
					},
					{
						"astId": 1335,
						"contract": "stETHPoolV1.sol:stETHPool",
						"label": "AllocationPortion",
						"offset": 0,
						"slot": "9",
						"type": "t_struct(rewardAllocation)1255_storage"
					},
					{
						"astId": 1337,
						"contract": "stETHPoolV1.sol:stETHPool",
						"label": "PercentageDecimal",
						"offset": 0,
						"slot": "12",
						"type": "t_uint256"
					},
					{
						"astId": 1341,
						"contract": "stETHPoolV1.sol:stETHPool",
						"label": "EpochResults",
						"offset": 0,
						"slot": "13",
						"type": "t_array(t_struct(EpochResult)1248_storage)dyn_storage"
					},
					{
						"astId": 1343,
						"contract": "stETHPoolV1.sol:stETHPool",
						"label": "epochDuration",
						"offset": 0,
						"slot": "14",
						"type": "t_uint256"
					},
					{
						"astId": 1345,
						"contract": "stETHPoolV1.sol:stETHPool",
						"label": "TokentoDeposit",
						"offset": 0,
						"slot": "15",
						"type": "t_address"
					},
					{
						"astId": 1347,
						"contract": "stETHPoolV1.sol:stETHPool",
						"label": "minToDeposit",
						"offset": 0,
						"slot": "16",
						"type": "t_uint256"
					},
					{
						"astId": 1349,
						"contract": "stETHPoolV1.sol:stETHPool",
						"label": "TICKET_DECIMAL",
						"offset": 0,
						"slot": "17",
						"type": "t_uint256"
					}
				],
				"types": {
					"t_address": {
						"encoding": "inplace",
						"label": "address",
						"numberOfBytes": "20"
					},
					"t_array(t_struct(ChangeArray)1271_storage)dyn_storage": {
						"base": "t_struct(ChangeArray)1271_storage",
						"encoding": "dynamic_array",
						"label": "struct stETHPool.ChangeArray[]",
						"numberOfBytes": "32"
					},
					"t_array(t_struct(EpochResult)1248_storage)dyn_storage": {
						"base": "t_struct(EpochResult)1248_storage",
						"encoding": "dynamic_array",
						"label": "struct stETHPool.EpochResult[]",
						"numberOfBytes": "32"
					},
					"t_array(t_struct(rewardHistory)1285_storage)dyn_storage": {
						"base": "t_struct(rewardHistory)1285_storage",
						"encoding": "dynamic_array",
						"label": "struct stETHPool.rewardHistory[]",
						"numberOfBytes": "32"
					},
					"t_array(t_uint256)dyn_storage": {
						"base": "t_uint256",
						"encoding": "dynamic_array",
						"label": "uint256[]",
						"numberOfBytes": "32"
					},
					"t_bool": {
						"encoding": "inplace",
						"label": "bool",
						"numberOfBytes": "1"
					},
					"t_mapping(t_address,t_struct(claimableRewardInfo)1295_storage)": {
						"encoding": "mapping",
						"key": "t_address",
						"label": "mapping(address => struct stETHPool.claimableRewardInfo)",
						"numberOfBytes": "32",
						"value": "t_struct(claimableRewardInfo)1295_storage"
					},
					"t_mapping(t_address,t_uint256)": {
						"encoding": "mapping",
						"key": "t_address",
						"label": "mapping(address => uint256)",
						"numberOfBytes": "32",
						"value": "t_uint256"
					},
					"t_mapping(t_uint256,t_mapping(t_uint256,t_struct(userChangeHistory)1278_storage))": {
						"encoding": "mapping",
						"key": "t_uint256",
						"label": "mapping(uint256 => mapping(uint256 => struct stETHPool.userChangeHistory))",
						"numberOfBytes": "32",
						"value": "t_mapping(t_uint256,t_struct(userChangeHistory)1278_storage)"
					},
					"t_mapping(t_uint256,t_mapping(t_uint256,t_uint256))": {
						"encoding": "mapping",
						"key": "t_uint256",
						"label": "mapping(uint256 => mapping(uint256 => uint256))",
						"numberOfBytes": "32",
						"value": "t_mapping(t_uint256,t_uint256)"
					},
					"t_mapping(t_uint256,t_struct(userChangeHistory)1278_storage)": {
						"encoding": "mapping",
						"key": "t_uint256",
						"label": "mapping(uint256 => struct stETHPool.userChangeHistory)",
						"numberOfBytes": "32",
						"value": "t_struct(userChangeHistory)1278_storage"
					},
					"t_mapping(t_uint256,t_struct(userInfo)1264_storage)": {
						"encoding": "mapping",
						"key": "t_uint256",
						"label": "mapping(uint256 => struct stETHPool.userInfo)",
						"numberOfBytes": "32",
						"value": "t_struct(userInfo)1264_storage"
					},
					"t_mapping(t_uint256,t_uint256)": {
						"encoding": "mapping",
						"key": "t_uint256",
						"label": "mapping(uint256 => uint256)",
						"numberOfBytes": "32",
						"value": "t_uint256"
					},
					"t_struct(ChangeArray)1271_storage": {
						"encoding": "inplace",
						"label": "struct stETHPool.ChangeArray",
						"members": [
							{
								"astId": 1266,
								"contract": "stETHPoolV1.sol:stETHPool",
								"label": "oldAmount",
								"offset": 0,
								"slot": "0",
								"type": "t_uint256"
							},
							{
								"astId": 1268,
								"contract": "stETHPoolV1.sol:stETHPool",
								"label": "newAmount",
								"offset": 0,
								"slot": "1",
								"type": "t_uint256"
							},
							{
								"astId": 1270,
								"contract": "stETHPoolV1.sol:stETHPool",
								"label": "updatedBlock",
								"offset": 0,
								"slot": "2",
								"type": "t_uint256"
							}
						],
						"numberOfBytes": "96"
					},
					"t_struct(EpochResult)1248_storage": {
						"encoding": "inplace",
						"label": "struct stETHPool.EpochResult",
						"members": [
							{
								"astId": 1231,
								"contract": "stETHPoolV1.sol:stETHPool",
								"label": "first",
								"offset": 0,
								"slot": "0",
								"type": "t_struct(PrizeDetails)1228_storage"
							},
							{
								"astId": 1234,
								"contract": "stETHPoolV1.sol:stETHPool",
								"label": "second",
								"offset": 0,
								"slot": "3",
								"type": "t_struct(PrizeDetails)1228_storage"
							},
							{
								"astId": 1237,
								"contract": "stETHPoolV1.sol:stETHPool",
								"label": "third",
								"offset": 0,
								"slot": "6",
								"type": "t_struct(PrizeDetails)1228_storage"
							},
							{
								"astId": 1239,
								"contract": "stETHPoolV1.sol:stETHPool",
								"label": "finalized",
								"offset": 0,
								"slot": "9",
								"type": "t_bool"
							},
							{
								"astId": 1241,
								"contract": "stETHPoolV1.sol:stETHPool",
								"label": "totalPrize",
								"offset": 0,
								"slot": "10",
								"type": "t_uint256"
							},
							{
								"astId": 1243,
								"contract": "stETHPoolV1.sol:stETHPool",
								"label": "duration",
								"offset": 0,
								"slot": "11",
								"type": "t_uint256"
							},
							{
								"astId": 1245,
								"contract": "stETHPoolV1.sol:stETHPool",
								"label": "createdTimeStamp",
								"offset": 0,
								"slot": "12",
								"type": "t_uint256"
							},
							{
								"astId": 1247,
								"contract": "stETHPoolV1.sol:stETHPool",
								"label": "totalParticipant",
								"offset": 0,
								"slot": "13",
								"type": "t_uint256"
							}
						],
						"numberOfBytes": "448"
					},
					"t_struct(PrizeDetails)1228_storage": {
						"encoding": "inplace",
						"label": "struct stETHPool.PrizeDetails",
						"members": [
							{
								"astId": 1223,
								"contract": "stETHPoolV1.sol:stETHPool",
								"label": "winner",
								"offset": 0,
								"slot": "0",
								"type": "t_address"
							},
							{
								"astId": 1225,
								"contract": "stETHPoolV1.sol:stETHPool",
								"label": "prizeAmount",
								"offset": 0,
								"slot": "1",
								"type": "t_uint256"
							},
							{
								"astId": 1227,
								"contract": "stETHPoolV1.sol:stETHPool",
								"label": "claimed",
								"offset": 0,
								"slot": "2",
								"type": "t_bool"
							}
						],
						"numberOfBytes": "96"
					},
					"t_struct(claimableRewardInfo)1295_storage": {
						"encoding": "inplace",
						"label": "struct stETHPool.claimableRewardInfo",
						"members": [
							{
								"astId": 1287,
								"contract": "stETHPoolV1.sol:stETHPool",
								"label": "claimable",
								"offset": 0,
								"slot": "0",
								"type": "t_uint256"
							},
							{
								"astId": 1291,
								"contract": "stETHPoolV1.sol:stETHPool",
								"label": "rewardHistoryArray",
								"offset": 0,
								"slot": "1",
								"type": "t_array(t_struct(rewardHistory)1285_storage)dyn_storage"
							},
							{
								"astId": 1294,
								"contract": "stETHPoolV1.sol:stETHPool",
								"label": "temporaryNotClaimedEpochArray",
								"offset": 0,
								"slot": "2",
								"type": "t_array(t_uint256)dyn_storage"
							}
						],
						"numberOfBytes": "96"
					},
					"t_struct(rewardAllocation)1255_storage": {
						"encoding": "inplace",
						"label": "struct stETHPool.rewardAllocation",
						"members": [
							{
								"astId": 1250,
								"contract": "stETHPoolV1.sol:stETHPool",
								"label": "first",
								"offset": 0,
								"slot": "0",
								"type": "t_uint256"
							},
							{
								"astId": 1252,
								"contract": "stETHPoolV1.sol:stETHPool",
								"label": "second",
								"offset": 0,
								"slot": "1",
								"type": "t_uint256"
							},
							{
								"astId": 1254,
								"contract": "stETHPoolV1.sol:stETHPool",
								"label": "third",
								"offset": 0,
								"slot": "2",
								"type": "t_uint256"
							}
						],
						"numberOfBytes": "96"
					},
					"t_struct(rewardHistory)1285_storage": {
						"encoding": "inplace",
						"label": "struct stETHPool.rewardHistory",
						"members": [
							{
								"astId": 1280,
								"contract": "stETHPoolV1.sol:stETHPool",
								"label": "EpochNumber",
								"offset": 0,
								"slot": "0",
								"type": "t_uint256"
							},
							{
								"astId": 1282,
								"contract": "stETHPoolV1.sol:stETHPool",
								"label": "position",
								"offset": 0,
								"slot": "1",
								"type": "t_uint256"
							},
							{
								"astId": 1284,
								"contract": "stETHPoolV1.sol:stETHPool",
								"label": "PrizeAmount",
								"offset": 0,
								"slot": "2",
								"type": "t_uint256"
							}
						],
						"numberOfBytes": "96"
					},
					"t_struct(userChangeHistory)1278_storage": {
						"encoding": "inplace",
						"label": "struct stETHPool.userChangeHistory",
						"members": [
							{
								"astId": 1273,
								"contract": "stETHPoolV1.sol:stETHPool",
								"label": "changedwithinEpoch",
								"offset": 0,
								"slot": "0",
								"type": "t_bool"
							},
							{
								"astId": 1277,
								"contract": "stETHPoolV1.sol:stETHPool",
								"label": "historyArray",
								"offset": 0,
								"slot": "1",
								"type": "t_array(t_struct(ChangeArray)1271_storage)dyn_storage"
							}
						],
						"numberOfBytes": "64"
					},
					"t_struct(userInfo)1264_storage": {
						"encoding": "inplace",
						"label": "struct stETHPool.userInfo",
						"members": [
							{
								"astId": 1257,
								"contract": "stETHPoolV1.sol:stETHPool",
								"label": "userAddress",
								"offset": 0,
								"slot": "0",
								"type": "t_address"
							},
							{
								"astId": 1259,
								"contract": "stETHPoolV1.sol:stETHPool",
								"label": "DepositAmount",
								"offset": 0,
								"slot": "1",
								"type": "t_uint256"
							},
							{
								"astId": 1261,
								"contract": "stETHPoolV1.sol:stETHPool",
								"label": "registeredDate",
								"offset": 0,
								"slot": "2",
								"type": "t_uint256"
							},
							{
								"astId": 1263,
								"contract": "stETHPoolV1.sol:stETHPool",
								"label": "Lastupdated",
								"offset": 0,
								"slot": "3",
								"type": "t_uint256"
							}
						],
						"numberOfBytes": "128"
					},
					"t_uint256": {
						"encoding": "inplace",
						"label": "uint256",
						"numberOfBytes": "32"
					}
				}
			},
			"userdoc": {
				"kind": "user",
				"methods": {},
				"version": 1
			}
		}
	}
}