{
	"DraftRouter.sol": {
		"Router": {
			"abi": [
				{
					"anonymous": false,
					"inputs": [
						{
							"indexed": false,
							"internalType": "address",
							"name": "oldController",
							"type": "address"
						},
						{
							"indexed": false,
							"internalType": "address",
							"name": "newController",
							"type": "address"
						}
					],
					"name": "ControllerRoleTransferred",
					"type": "event"
				},
				{
					"anonymous": false,
					"inputs": [
						{
							"indexed": false,
							"internalType": "address",
							"name": "who",
							"type": "address"
						},
						{
							"indexed": false,
							"internalType": "address",
							"name": "poolAddress",
							"type": "address"
						},
						{
							"indexed": false,
							"internalType": "address",
							"name": "Token",
							"type": "address"
						},
						{
							"indexed": false,
							"internalType": "uint256",
							"name": "amount",
							"type": "uint256"
						}
					],
					"name": "EpochRewardClaimed",
					"type": "event"
				},
				{
					"anonymous": false,
					"inputs": [
						{
							"indexed": false,
							"internalType": "address",
							"name": "oldOwner",
							"type": "address"
						},
						{
							"indexed": false,
							"internalType": "address",
							"name": "newOwner",
							"type": "address"
						}
					],
					"name": "OwnershipTransferred",
					"type": "event"
				},
				{
					"anonymous": false,
					"inputs": [
						{
							"indexed": false,
							"internalType": "address",
							"name": "who",
							"type": "address"
						},
						{
							"indexed": false,
							"internalType": "address",
							"name": "poolAddress",
							"type": "address"
						},
						{
							"indexed": false,
							"internalType": "uint256",
							"name": "amount",
							"type": "uint256"
						}
					],
					"name": "deposited",
					"type": "event"
				},
				{
					"anonymous": false,
					"inputs": [
						{
							"indexed": false,
							"internalType": "address",
							"name": "who",
							"type": "address"
						},
						{
							"indexed": false,
							"internalType": "address",
							"name": "poolAddress",
							"type": "address"
						},
						{
							"indexed": false,
							"internalType": "uint256",
							"name": "amount",
							"type": "uint256"
						}
					],
					"name": "withdrawn",
					"type": "event"
				},
				{
					"inputs": [
						{
							"internalType": "address",
							"name": "_poolAddress",
							"type": "address"
						}
					],
					"name": "addPool",
					"outputs": [],
					"stateMutability": "nonpayable",
					"type": "function"
				},
				{
					"inputs": [
						{
							"internalType": "address",
							"name": "registryAddress",
							"type": "address"
						}
					],
					"name": "changeRegistryContractAddr",
					"outputs": [],
					"stateMutability": "nonpayable",
					"type": "function"
				},
				{
					"inputs": [
						{
							"internalType": "uint256",
							"name": "poolID",
							"type": "uint256"
						}
					],
					"name": "claimReward",
					"outputs": [],
					"stateMutability": "nonpayable",
					"type": "function"
				},
				{
					"inputs": [
						{
							"internalType": "uint256",
							"name": "poolID",
							"type": "uint256"
						},
						{
							"internalType": "uint256",
							"name": "amount",
							"type": "uint256"
						}
					],
					"name": "deposit",
					"outputs": [],
					"stateMutability": "nonpayable",
					"type": "function"
				},
				{
					"inputs": [
						{
							"internalType": "uint256",
							"name": "poolID",
							"type": "uint256"
						}
					],
					"name": "getPoolCurrentYield",
					"outputs": [
						{
							"internalType": "uint256",
							"name": "",
							"type": "uint256"
						}
					],
					"stateMutability": "view",
					"type": "function"
				},
				{
					"inputs": [
						{
							"internalType": "uint256",
							"name": "poolID",
							"type": "uint256"
						}
					],
					"name": "getPoolDetails",
					"outputs": [
						{
							"components": [
								{
									"internalType": "address",
									"name": "PoolAddress",
									"type": "address"
								},
								{
									"internalType": "address",
									"name": "PoolTokenToUse",
									"type": "address"
								}
							],
							"internalType": "struct Router._PoolDetails",
							"name": "",
							"type": "tuple"
						}
					],
					"stateMutability": "view",
					"type": "function"
				},
				{
					"inputs": [
						{
							"internalType": "uint256",
							"name": "epochNumber",
							"type": "uint256"
						},
						{
							"internalType": "uint256",
							"name": "poolID",
							"type": "uint256"
						}
					],
					"name": "getPoolDrawInfo",
					"outputs": [
						{
							"components": [
								{
									"components": [
										{
											"internalType": "address",
											"name": "winner",
											"type": "address"
										},
										{
											"internalType": "uint256",
											"name": "prizeAmount",
											"type": "uint256"
										},
										{
											"internalType": "bool",
											"name": "claimed",
											"type": "bool"
										}
									],
									"internalType": "struct Router.PrizeDetails",
									"name": "first",
									"type": "tuple"
								},
								{
									"components": [
										{
											"internalType": "address",
											"name": "winner",
											"type": "address"
										},
										{
											"internalType": "uint256",
											"name": "prizeAmount",
											"type": "uint256"
										},
										{
											"internalType": "bool",
											"name": "claimed",
											"type": "bool"
										}
									],
									"internalType": "struct Router.PrizeDetails",
									"name": "second",
									"type": "tuple"
								},
								{
									"components": [
										{
											"internalType": "address",
											"name": "winner",
											"type": "address"
										},
										{
											"internalType": "uint256",
											"name": "prizeAmount",
											"type": "uint256"
										},
										{
											"internalType": "bool",
											"name": "claimed",
											"type": "bool"
										}
									],
									"internalType": "struct Router.PrizeDetails",
									"name": "third",
									"type": "tuple"
								},
								{
									"internalType": "bool",
									"name": "finalized",
									"type": "bool"
								},
								{
									"internalType": "uint256",
									"name": "totalPrize",
									"type": "uint256"
								},
								{
									"internalType": "uint256",
									"name": "duration",
									"type": "uint256"
								},
								{
									"internalType": "uint256",
									"name": "createdTimeStamp",
									"type": "uint256"
								},
								{
									"internalType": "uint256",
									"name": "totalParticipant",
									"type": "uint256"
								}
							],
							"internalType": "struct Router.EpochResult",
							"name": "",
							"type": "tuple"
						}
					],
					"stateMutability": "view",
					"type": "function"
				},
				{
					"inputs": [
						{
							"internalType": "uint256",
							"name": "poolID",
							"type": "uint256"
						}
					],
					"name": "getPoolLatestEpoch",
					"outputs": [
						{
							"internalType": "uint256",
							"name": "",
							"type": "uint256"
						}
					],
					"stateMutability": "view",
					"type": "function"
				},
				{
					"inputs": [],
					"name": "getPoolLength",
					"outputs": [
						{
							"internalType": "uint256",
							"name": "",
							"type": "uint256"
						}
					],
					"stateMutability": "view",
					"type": "function"
				},
				{
					"inputs": [
						{
							"internalType": "uint256",
							"name": "poolID",
							"type": "uint256"
						}
					],
					"name": "getPoolTVL",
					"outputs": [
						{
							"internalType": "uint256",
							"name": "",
							"type": "uint256"
						}
					],
					"stateMutability": "view",
					"type": "function"
				},
				{
					"inputs": [
						{
							"internalType": "address",
							"name": "user",
							"type": "address"
						},
						{
							"internalType": "uint256",
							"name": "poolID",
							"type": "uint256"
						}
					],
					"name": "getRewardClaimable",
					"outputs": [
						{
							"internalType": "uint256",
							"name": "",
							"type": "uint256"
						}
					],
					"stateMutability": "view",
					"type": "function"
				},
				{
					"inputs": [
						{
							"internalType": "uint256",
							"name": "poolID",
							"type": "uint256"
						},
						{
							"internalType": "address",
							"name": "user",
							"type": "address"
						}
					],
					"name": "getUserDepositInfo",
					"outputs": [
						{
							"components": [
								{
									"internalType": "address",
									"name": "userAddress",
									"type": "address"
								},
								{
									"internalType": "uint256",
									"name": "DepositAmount",
									"type": "uint256"
								},
								{
									"internalType": "uint256",
									"name": "registeredDate",
									"type": "uint256"
								},
								{
									"internalType": "uint256",
									"name": "Lastupdated",
									"type": "uint256"
								}
							],
							"internalType": "struct Router.userInfo",
							"name": "",
							"type": "tuple"
						}
					],
					"stateMutability": "view",
					"type": "function"
				},
				{
					"inputs": [
						{
							"internalType": "uint256",
							"name": "epochNumber",
							"type": "uint256"
						},
						{
							"internalType": "uint256",
							"name": "poolID",
							"type": "uint256"
						},
						{
							"internalType": "address",
							"name": "user",
							"type": "address"
						}
					],
					"name": "getUserTicketAmountByPoolID",
					"outputs": [
						{
							"internalType": "uint256",
							"name": "",
							"type": "uint256"
						}
					],
					"stateMutability": "view",
					"type": "function"
				},
				{
					"inputs": [
						{
							"internalType": "address",
							"name": "registryAddress",
							"type": "address"
						}
					],
					"name": "initialize",
					"outputs": [],
					"stateMutability": "nonpayable",
					"type": "function"
				},
				{
					"inputs": [
						{
							"internalType": "uint256",
							"name": "poolID",
							"type": "uint256"
						}
					],
					"name": "removePool",
					"outputs": [],
					"stateMutability": "nonpayable",
					"type": "function"
				},
				{
					"inputs": [
						{
							"internalType": "uint256",
							"name": "poolID",
							"type": "uint256"
						},
						{
							"internalType": "uint256",
							"name": "amount",
							"type": "uint256"
						}
					],
					"name": "withdraw",
					"outputs": [],
					"stateMutability": "nonpayable",
					"type": "function"
				}
			],
			"devdoc": {
				"kind": "dev",
				"methods": {},
				"version": 1
			},
			"evm": {
				"assembly": "    /* \"DraftRouter.sol\":191:12862  contract Router{... */\n  mstore(0x40, 0x80)\n  callvalue\n  dup1\n  iszero\n  tag_1\n  jumpi\n  0x00\n  dup1\n  revert\ntag_1:\n  pop\n  dataSize(sub_0)\n  dup1\n  dataOffset(sub_0)\n  0x00\n  codecopy\n  0x00\n  return\nstop\n\nsub_0: assembly {\n        /* \"DraftRouter.sol\":191:12862  contract Router{... */\n      mstore(0x40, 0x80)\n      callvalue\n      dup1\n      iszero\n      tag_1\n      jumpi\n      0x00\n      dup1\n      revert\n    tag_1:\n      pop\n      jumpi(tag_2, lt(calldatasize, 0x04))\n      shr(0xe0, calldataload(0x00))\n      dup1\n      0xb3944d52\n      gt\n      tag_19\n      jumpi\n      dup1\n      0xe2bbb158\n      gt\n      tag_20\n      jumpi\n      dup1\n      0xe2bbb158\n      eq\n      tag_15\n      jumpi\n      dup1\n      0xfa7c828a\n      eq\n      tag_16\n      jumpi\n      dup1\n      0xfac4348b\n      eq\n      tag_17\n      jumpi\n      dup1\n      0xfdc9ccfa\n      eq\n      tag_18\n      jumpi\n      jump(tag_2)\n    tag_20:\n      dup1\n      0xb3944d52\n      eq\n      tag_11\n      jumpi\n      dup1\n      0xb8764c39\n      eq\n      tag_12\n      jumpi\n      dup1\n      0xc4d66de8\n      eq\n      tag_13\n      jumpi\n      dup1\n      0xd914cd4b\n      eq\n      tag_14\n      jumpi\n      jump(tag_2)\n    tag_19:\n      dup1\n      0x888d7bdd\n      gt\n      tag_21\n      jumpi\n      dup1\n      0x888d7bdd\n      eq\n      tag_7\n      jumpi\n      dup1\n      0x8f244630\n      eq\n      tag_8\n      jumpi\n      dup1\n      0xa38dcbd0\n      eq\n      tag_9\n      jumpi\n      dup1\n      0xae169a50\n      eq\n      tag_10\n      jumpi\n      jump(tag_2)\n    tag_21:\n      dup1\n      0x441a3e70\n      eq\n      tag_3\n      jumpi\n      dup1\n      0x57ba8dde\n      eq\n      tag_4\n      jumpi\n      dup1\n      0x5922f9c9\n      eq\n      tag_5\n      jumpi\n      dup1\n      0x60ab49ea\n      eq\n      tag_6\n      jumpi\n    tag_2:\n      0x00\n      dup1\n      revert\n        /* \"DraftRouter.sol\":9695:10191  function withdraw(uint256 poolID, uint256 amount) external nonReentrant{... */\n    tag_3:\n      tag_22\n      0x04\n      dup1\n      calldatasize\n      sub\n      dup2\n      add\n      swap1\n      tag_23\n      swap2\n      swap1\n      tag_24\n      jump\t// in\n    tag_23:\n      tag_25\n      jump\t// in\n    tag_22:\n      stop\n        /* \"DraftRouter.sol\":5457:5876  function getUserTicketAmountByPoolID(uint256 epochNumber, uint256 poolID, address user) external view returns(uint256){... */\n    tag_4:\n      tag_26\n      0x04\n      dup1\n      calldatasize\n      sub\n      dup2\n      add\n      swap1\n      tag_27\n      swap2\n      swap1\n      tag_28\n      jump\t// in\n    tag_27:\n      tag_29\n      jump\t// in\n    tag_26:\n      mload(0x40)\n      tag_30\n      swap2\n      swap1\n      tag_31\n      jump\t// in\n    tag_30:\n      mload(0x40)\n      dup1\n      swap2\n      sub\n      swap1\n      return\n        /* \"DraftRouter.sol\":5105:5452  function getPoolLatestEpoch(uint256 poolID) public view returns(uint256){... */\n    tag_5:\n      tag_32\n      0x04\n      dup1\n      calldatasize\n      sub\n      dup2\n      add\n      swap1\n      tag_33\n      swap2\n      swap1\n      tag_34\n      jump\t// in\n    tag_33:\n      tag_35\n      jump\t// in\n    tag_32:\n      mload(0x40)\n      tag_36\n      swap2\n      swap1\n      tag_31\n      jump\t// in\n    tag_36:\n      mload(0x40)\n      dup1\n      swap2\n      sub\n      swap1\n      return\n        /* \"DraftRouter.sol\":4088:4445  function getPoolCurrentYield(uint256 poolID) external view returns(uint256){... */\n    tag_6:\n      tag_37\n      0x04\n      dup1\n      calldatasize\n      sub\n      dup2\n      add\n      swap1\n      tag_38\n      swap2\n      swap1\n      tag_34\n      jump\t// in\n    tag_38:\n      tag_39\n      jump\t// in\n    tag_37:\n      mload(0x40)\n      tag_40\n      swap2\n      swap1\n      tag_31\n      jump\t// in\n    tag_40:\n      mload(0x40)\n      dup1\n      swap2\n      sub\n      swap1\n      return\n        /* \"DraftRouter.sol\":2943:3308  function getRewardClaimable(address user, uint256 poolID) external view returns(uint256){... */\n    tag_7:\n      tag_41\n      0x04\n      dup1\n      calldatasize\n      sub\n      dup2\n      add\n      swap1\n      tag_42\n      swap2\n      swap1\n      tag_43\n      jump\t// in\n    tag_42:\n      tag_44\n      jump\t// in\n    tag_41:\n      mload(0x40)\n      tag_45\n      swap2\n      swap1\n      tag_31\n      jump\t// in\n    tag_45:\n      mload(0x40)\n      dup1\n      swap2\n      sub\n      swap1\n      return\n        /* \"DraftRouter.sol\":3748:4083  function getPoolTVL(uint256 poolID) public view returns(uint256){... */\n    tag_8:\n      tag_46\n      0x04\n      dup1\n      calldatasize\n      sub\n      dup2\n      add\n      swap1\n      tag_47\n      swap2\n      swap1\n      tag_34\n      jump\t// in\n    tag_47:\n      tag_48\n      jump\t// in\n    tag_46:\n      mload(0x40)\n      tag_49\n      swap2\n      swap1\n      tag_31\n      jump\t// in\n    tag_49:\n      mload(0x40)\n      dup1\n      swap2\n      sub\n      swap1\n      return\n        /* \"DraftRouter.sol\":12517:12729  function removePool(uint256 poolID) external onlyController{... */\n    tag_9:\n      tag_50\n      0x04\n      dup1\n      calldatasize\n      sub\n      dup2\n      add\n      swap1\n      tag_51\n      swap2\n      swap1\n      tag_34\n      jump\t// in\n    tag_51:\n      tag_52\n      jump\t// in\n    tag_50:\n      stop\n        /* \"DraftRouter.sol\":11027:11912  function claimReward(uint256 poolID) external nonReentrant{... */\n    tag_10:\n      tag_53\n      0x04\n      dup1\n      calldatasize\n      sub\n      dup2\n      add\n      swap1\n      tag_54\n      swap2\n      swap1\n      tag_34\n      jump\t// in\n    tag_54:\n      tag_55\n      jump\t// in\n    tag_53:\n      stop\n        /* \"DraftRouter.sol\":3313:3450  function getPoolLength() external view returns(uint256){... */\n    tag_11:\n      tag_56\n      tag_57\n      jump\t// in\n    tag_56:\n      mload(0x40)\n      tag_58\n      swap2\n      swap1\n      tag_31\n      jump\t// in\n    tag_58:\n      mload(0x40)\n      dup1\n      swap2\n      sub\n      swap1\n      return\n        /* \"DraftRouter.sol\":3456:3742  function getPoolDetails(uint256 poolID) public view returns(_PoolDetails memory){... */\n    tag_12:\n      tag_59\n      0x04\n      dup1\n      calldatasize\n      sub\n      dup2\n      add\n      swap1\n      tag_60\n      swap2\n      swap1\n      tag_34\n      jump\t// in\n    tag_60:\n      tag_61\n      jump\t// in\n    tag_59:\n      mload(0x40)\n      tag_62\n      swap2\n      swap1\n      tag_63\n      jump\t// in\n    tag_62:\n      mload(0x40)\n      dup1\n      swap2\n      sub\n      swap1\n      return\n        /* \"DraftRouter.sol\":2441:2651  function initialize(address registryAddress) external{... */\n    tag_13:\n      tag_64\n      0x04\n      dup1\n      calldatasize\n      sub\n      dup2\n      add\n      swap1\n      tag_65\n      swap2\n      swap1\n      tag_66\n      jump\t// in\n    tag_65:\n      tag_67\n      jump\t// in\n    tag_64:\n      stop\n        /* \"DraftRouter.sol\":12243:12512  function addPool(address _poolAddress) external onlyController{... */\n    tag_14:\n      tag_68\n      0x04\n      dup1\n      calldatasize\n      sub\n      dup2\n      add\n      swap1\n      tag_69\n      swap2\n      swap1\n      tag_66\n      jump\t// in\n    tag_69:\n      tag_70\n      jump\t// in\n    tag_68:\n      stop\n        /* \"DraftRouter.sol\":7965:8553  function deposit(uint256 poolID, uint256 amount) external nonReentrant{... */\n    tag_15:\n      tag_71\n      0x04\n      dup1\n      calldatasize\n      sub\n      dup2\n      add\n      swap1\n      tag_72\n      swap2\n      swap1\n      tag_24\n      jump\t// in\n    tag_72:\n      tag_73\n      jump\t// in\n    tag_71:\n      stop\n        /* \"DraftRouter.sol\":2778:2912  function changeRegistryContractAddr(address registryAddress) external onlyOwner{... */\n    tag_16:\n      tag_74\n      0x04\n      dup1\n      calldatasize\n      sub\n      dup2\n      add\n      swap1\n      tag_75\n      swap2\n      swap1\n      tag_66\n      jump\t// in\n    tag_75:\n      tag_76\n      jump\t// in\n    tag_74:\n      stop\n        /* \"DraftRouter.sol\":4450:5098  function getUserDepositInfo(uint256 poolID, address user) external view returns(userInfo memory){... */\n    tag_17:\n      tag_77\n      0x04\n      dup1\n      calldatasize\n      sub\n      dup2\n      add\n      swap1\n      tag_78\n      swap2\n      swap1\n      tag_79\n      jump\t// in\n    tag_78:\n      tag_80\n      jump\t// in\n    tag_77:\n      mload(0x40)\n      tag_81\n      swap2\n      swap1\n      tag_82\n      jump\t// in\n    tag_81:\n      mload(0x40)\n      dup1\n      swap2\n      sub\n      swap1\n      return\n        /* \"DraftRouter.sol\":5882:7844  function getPoolDrawInfo(uint256 epochNumber,uint256 poolID) external view returns(EpochResult memory){... */\n    tag_18:\n      tag_83\n      0x04\n      dup1\n      calldatasize\n      sub\n      dup2\n      add\n      swap1\n      tag_84\n      swap2\n      swap1\n      tag_24\n      jump\t// in\n    tag_84:\n      tag_85\n      jump\t// in\n    tag_83:\n      mload(0x40)\n      tag_86\n      swap2\n      swap1\n      tag_87\n      jump\t// in\n    tag_86:\n      mload(0x40)\n      dup1\n      swap2\n      sub\n      swap1\n      return\n        /* \"DraftRouter.sol\":9695:10191  function withdraw(uint256 poolID, uint256 amount) external nonReentrant{... */\n    tag_25:\n        /* \"DraftRouter.sol\":2358:2359  0 */\n      0x00\n        /* \"DraftRouter.sol\":2348:2354  status */\n      dup1\n      sload\n        /* \"DraftRouter.sol\":2348:2359  status == 0 */\n      eq\n        /* \"DraftRouter.sol\":2340:2376  require(status == 0, \"Illegal call\") */\n      tag_89\n      jumpi\n      mload(0x40)\n      0x08c379a000000000000000000000000000000000000000000000000000000000\n      dup2\n      mstore\n      0x04\n      add\n      tag_90\n      swap1\n      tag_91\n      jump\t// in\n    tag_90:\n      mload(0x40)\n      dup1\n      swap2\n      sub\n      swap1\n      revert\n    tag_89:\n        /* \"DraftRouter.sol\":2395:2396  1 */\n      0x01\n        /* \"DraftRouter.sol\":2386:2392  status */\n      0x00\n        /* \"DraftRouter.sol\":2386:2396  status = 1 */\n      dup2\n      swap1\n      sstore\n      pop\n        /* \"DraftRouter.sol\":9776:9794  uint256 poolLength */\n      0x00\n        /* \"DraftRouter.sol\":9797:9807  PoolDetail */\n      0x01\n        /* \"DraftRouter.sol\":9797:9814  PoolDetail.length */\n      dup1\n      sload\n      swap1\n      pop\n        /* \"DraftRouter.sol\":9776:9814  uint256 poolLength = PoolDetail.length */\n      swap1\n      pop\n        /* \"DraftRouter.sol\":9853:9854  1 */\n      0x01\n        /* \"DraftRouter.sol\":9842:9852  poolLength */\n      dup2\n        /* \"DraftRouter.sol\":9842:9854  poolLength-1 */\n      tag_93\n      swap2\n      swap1\n      tag_94\n      jump\t// in\n    tag_93:\n        /* \"DraftRouter.sol\":9832:9838  poolID */\n      dup4\n        /* \"DraftRouter.sol\":9832:9854  poolID <= poolLength-1 */\n      gt\n      iszero\n        /* \"DraftRouter.sol\":9824:9877  require(poolID <= poolLength-1, \"Pool doesn't exist\") */\n      tag_95\n      jumpi\n      mload(0x40)\n      0x08c379a000000000000000000000000000000000000000000000000000000000\n      dup2\n      mstore\n      0x04\n      add\n      tag_96\n      swap1\n      tag_97\n      jump\t// in\n    tag_96:\n      mload(0x40)\n      dup1\n      swap2\n      sub\n      swap1\n      revert\n    tag_95:\n        /* \"DraftRouter.sol\":9888:9918  _PoolDetails memory getDetails */\n      0x00\n        /* \"DraftRouter.sol\":9921:9931  PoolDetail */\n      0x01\n        /* \"DraftRouter.sol\":9932:9938  poolID */\n      dup5\n        /* \"DraftRouter.sol\":9921:9939  PoolDetail[poolID] */\n      dup2\n      sload\n      dup2\n      lt\n      tag_98\n      jumpi\n      tag_99\n      tag_100\n      jump\t// in\n    tag_99:\n    tag_98:\n      swap1\n      0x00\n      mstore\n      keccak256(0x00, 0x20)\n      swap1\n      0x02\n      mul\n      add\n        /* \"DraftRouter.sol\":9888:9939  _PoolDetails memory getDetails = PoolDetail[poolID] */\n      mload(0x40)\n      dup1\n      0x40\n      add\n      0x40\n      mstore\n      swap1\n      dup2\n      0x00\n      dup3\n      add\n      0x00\n      swap1\n      sload\n      swap1\n      0x0100\n      exp\n      swap1\n      div\n      0xffffffffffffffffffffffffffffffffffffffff\n      and\n      0xffffffffffffffffffffffffffffffffffffffff\n      and\n      0xffffffffffffffffffffffffffffffffffffffff\n      and\n      dup2\n      mstore\n      0x20\n      add\n      0x01\n      dup3\n      add\n      0x00\n      swap1\n      sload\n      swap1\n      0x0100\n      exp\n      swap1\n      div\n      0xffffffffffffffffffffffffffffffffffffffff\n      and\n      0xffffffffffffffffffffffffffffffffffffffff\n      and\n      0xffffffffffffffffffffffffffffffffffffffff\n      and\n      dup2\n      mstore\n      pop\n      pop\n      swap1\n      pop\n        /* \"DraftRouter.sol\":9949:9968  address poolAddress */\n      0x00\n        /* \"DraftRouter.sol\":9971:9981  getDetails */\n      dup2\n        /* \"DraftRouter.sol\":9971:9993  getDetails.PoolAddress */\n      0x00\n      add\n      mload\n        /* \"DraftRouter.sol\":9949:9993  address poolAddress = getDetails.PoolAddress */\n      swap1\n      pop\n        /* \"DraftRouter.sol\":10003:10024  address tokenToUseNow */\n      0x00\n        /* \"DraftRouter.sol\":10027:10037  getDetails */\n      dup3\n        /* \"DraftRouter.sol\":10027:10052  getDetails.PoolTokenToUse */\n      0x20\n      add\n      mload\n        /* \"DraftRouter.sol\":10003:10052  address tokenToUseNow = getDetails.PoolTokenToUse */\n      swap1\n      pop\n        /* \"DraftRouter.sol\":10063:10125  withdrawFromPool(msg.sender, poolAddress,tokenToUseNow,amount) */\n      tag_102\n        /* \"DraftRouter.sol\":10080:10090  msg.sender */\n      caller\n        /* \"DraftRouter.sol\":10092:10103  poolAddress */\n      dup4\n        /* \"DraftRouter.sol\":10104:10117  tokenToUseNow */\n      dup4\n        /* \"DraftRouter.sol\":10118:10124  amount */\n      dup9\n        /* \"DraftRouter.sol\":10063:10079  withdrawFromPool */\n      tag_103\n        /* \"DraftRouter.sol\":10063:10125  withdrawFromPool(msg.sender, poolAddress,tokenToUseNow,amount) */\n      jump\t// in\n    tag_102:\n        /* \"DraftRouter.sol\":10141:10183  withdrawn(msg.sender, poolAddress, amount) */\n      0x53f917d4e27ae27751aa814f667aa2382dc59d7dd33b9b9b887abec7b2da1828\n        /* \"DraftRouter.sol\":10151:10161  msg.sender */\n      caller\n        /* \"DraftRouter.sol\":10163:10174  poolAddress */\n      dup4\n        /* \"DraftRouter.sol\":10176:10182  amount */\n      dup8\n        /* \"DraftRouter.sol\":10141:10183  withdrawn(msg.sender, poolAddress, amount) */\n      mload(0x40)\n      tag_104\n      swap4\n      swap3\n      swap2\n      swap1\n      tag_105\n      jump\t// in\n    tag_104:\n      mload(0x40)\n      dup1\n      swap2\n      sub\n      swap1\n      log1\n        /* \"DraftRouter.sol\":9766:10191  {... */\n      pop\n      pop\n      pop\n      pop\n        /* \"DraftRouter.sol\":2426:2427  0 */\n      0x00\n        /* \"DraftRouter.sol\":2417:2423  status */\n      dup1\n        /* \"DraftRouter.sol\":2417:2427  status = 0 */\n      dup2\n      swap1\n      sstore\n      pop\n        /* \"DraftRouter.sol\":9695:10191  function withdraw(uint256 poolID, uint256 amount) external nonReentrant{... */\n      pop\n      pop\n      jump\t// out\n        /* \"DraftRouter.sol\":5457:5876  function getUserTicketAmountByPoolID(uint256 epochNumber, uint256 poolID, address user) external view returns(uint256){... */\n    tag_29:\n        /* \"DraftRouter.sol\":5567:5574  uint256 */\n      0x00\n        /* \"DraftRouter.sol\":5585:5603  uint256 poolLength */\n      dup1\n        /* \"DraftRouter.sol\":5606:5616  PoolDetail */\n      0x01\n        /* \"DraftRouter.sol\":5606:5623  PoolDetail.length */\n      dup1\n      sload\n      swap1\n      pop\n        /* \"DraftRouter.sol\":5585:5623  uint256 poolLength = PoolDetail.length */\n      swap1\n      pop\n        /* \"DraftRouter.sol\":5662:5663  1 */\n      0x01\n        /* \"DraftRouter.sol\":5651:5661  poolLength */\n      dup2\n        /* \"DraftRouter.sol\":5651:5663  poolLength-1 */\n      tag_107\n      swap2\n      swap1\n      tag_94\n      jump\t// in\n    tag_107:\n        /* \"DraftRouter.sol\":5641:5647  poolID */\n      dup5\n        /* \"DraftRouter.sol\":5641:5663  poolID <= poolLength-1 */\n      gt\n      iszero\n        /* \"DraftRouter.sol\":5633:5686  require(poolID <= poolLength-1, \"Pool doesn't exist\") */\n      tag_108\n      jumpi\n      mload(0x40)\n      0x08c379a000000000000000000000000000000000000000000000000000000000\n      dup2\n      mstore\n      0x04\n      add\n      tag_109\n      swap1\n      tag_97\n      jump\t// in\n    tag_109:\n      mload(0x40)\n      dup1\n      swap2\n      sub\n      swap1\n      revert\n    tag_108:\n        /* \"DraftRouter.sol\":5696:5715  address poolAddress */\n      0x00\n        /* \"DraftRouter.sol\":5718:5740  getPoolDetails(poolID) */\n      tag_110\n        /* \"DraftRouter.sol\":5733:5739  poolID */\n      dup6\n        /* \"DraftRouter.sol\":5718:5732  getPoolDetails */\n      tag_61\n        /* \"DraftRouter.sol\":5718:5740  getPoolDetails(poolID) */\n      jump\t// in\n    tag_110:\n        /* \"DraftRouter.sol\":5718:5752  getPoolDetails(poolID).PoolAddress */\n      0x00\n      add\n      mload\n        /* \"DraftRouter.sol\":5696:5752  address poolAddress = getPoolDetails(poolID).PoolAddress */\n      swap1\n      pop\n        /* \"DraftRouter.sol\":5762:5776  uint256 result */\n      0x00\n        /* \"DraftRouter.sol\":5791:5802  poolAddress */\n      dup2\n        /* \"DraftRouter.sol\":5779:5819  IMutualPool(poolAddress).getTicketAmount */\n      0xffffffffffffffffffffffffffffffffffffffff\n      and\n      0xd474fbf7\n        /* \"DraftRouter.sol\":5820:5831  epochNumber */\n      dup9\n        /* \"DraftRouter.sol\":5832:5836  user */\n      dup8\n        /* \"DraftRouter.sol\":5779:5837  IMutualPool(poolAddress).getTicketAmount(epochNumber,user) */\n      mload(0x40)\n      dup4\n      0xffffffff\n      and\n      0xe0\n      shl\n      dup2\n      mstore\n      0x04\n      add\n      tag_111\n      swap3\n      swap2\n      swap1\n      tag_112\n      jump\t// in\n    tag_111:\n      0x20\n      mload(0x40)\n      dup1\n      dup4\n      sub\n      dup2\n      dup7\n      gas\n      staticcall\n      iszero\n      dup1\n      iszero\n      tag_114\n      jumpi\n      returndatasize\n      0x00\n      dup1\n      returndatacopy\n      revert(0x00, returndatasize)\n    tag_114:\n      pop\n      pop\n      pop\n      pop\n      mload(0x40)\n      returndatasize\n      not(0x1f)\n      0x1f\n      dup3\n      add\n      and\n      dup3\n      add\n      dup1\n      0x40\n      mstore\n      pop\n      dup2\n      add\n      swap1\n      tag_115\n      swap2\n      swap1\n      tag_116\n      jump\t// in\n    tag_115:\n        /* \"DraftRouter.sol\":5762:5837  uint256 result = IMutualPool(poolAddress).getTicketAmount(epochNumber,user) */\n      swap1\n      pop\n        /* \"DraftRouter.sol\":5854:5860  result */\n      dup1\n        /* \"DraftRouter.sol\":5847:5860  return result */\n      swap4\n      pop\n      pop\n      pop\n      pop\n        /* \"DraftRouter.sol\":5457:5876  function getUserTicketAmountByPoolID(uint256 epochNumber, uint256 poolID, address user) external view returns(uint256){... */\n      swap4\n      swap3\n      pop\n      pop\n      pop\n      jump\t// out\n        /* \"DraftRouter.sol\":5105:5452  function getPoolLatestEpoch(uint256 poolID) public view returns(uint256){... */\n    tag_35:\n        /* \"DraftRouter.sol\":5169:5176  uint256 */\n      0x00\n        /* \"DraftRouter.sol\":5187:5205  uint256 poolLength */\n      dup1\n        /* \"DraftRouter.sol\":5208:5218  PoolDetail */\n      0x01\n        /* \"DraftRouter.sol\":5208:5225  PoolDetail.length */\n      dup1\n      sload\n      swap1\n      pop\n        /* \"DraftRouter.sol\":5187:5225  uint256 poolLength = PoolDetail.length */\n      swap1\n      pop\n        /* \"DraftRouter.sol\":5264:5265  1 */\n      0x01\n        /* \"DraftRouter.sol\":5253:5263  poolLength */\n      dup2\n        /* \"DraftRouter.sol\":5253:5265  poolLength-1 */\n      tag_118\n      swap2\n      swap1\n      tag_94\n      jump\t// in\n    tag_118:\n        /* \"DraftRouter.sol\":5243:5249  poolID */\n      dup4\n        /* \"DraftRouter.sol\":5243:5265  poolID <= poolLength-1 */\n      gt\n      iszero\n        /* \"DraftRouter.sol\":5235:5288  require(poolID <= poolLength-1, \"Pool doesn't exist\") */\n      tag_119\n      jumpi\n      mload(0x40)\n      0x08c379a000000000000000000000000000000000000000000000000000000000\n      dup2\n      mstore\n      0x04\n      add\n      tag_120\n      swap1\n      tag_97\n      jump\t// in\n    tag_120:\n      mload(0x40)\n      dup1\n      swap2\n      sub\n      swap1\n      revert\n    tag_119:\n        /* \"DraftRouter.sol\":5298:5317  address poolAddress */\n      0x00\n        /* \"DraftRouter.sol\":5320:5342  getPoolDetails(poolID) */\n      tag_121\n        /* \"DraftRouter.sol\":5335:5341  poolID */\n      dup5\n        /* \"DraftRouter.sol\":5320:5334  getPoolDetails */\n      tag_61\n        /* \"DraftRouter.sol\":5320:5342  getPoolDetails(poolID) */\n      jump\t// in\n    tag_121:\n        /* \"DraftRouter.sol\":5320:5354  getPoolDetails(poolID).PoolAddress */\n      0x00\n      add\n      mload\n        /* \"DraftRouter.sol\":5298:5354  address poolAddress = getPoolDetails(poolID).PoolAddress */\n      swap1\n      pop\n        /* \"DraftRouter.sol\":5364:5378  uint256 result */\n      0x00\n        /* \"DraftRouter.sol\":5393:5404  poolAddress */\n      dup2\n        /* \"DraftRouter.sol\":5381:5420  IMutualPool(poolAddress).getLatestEpoch */\n      0xffffffffffffffffffffffffffffffffffffffff\n      and\n      0xa3d74f06\n        /* \"DraftRouter.sol\":5381:5422  IMutualPool(poolAddress).getLatestEpoch() */\n      mload(0x40)\n      dup2\n      0xffffffff\n      and\n      0xe0\n      shl\n      dup2\n      mstore\n      0x04\n      add\n      0x20\n      mload(0x40)\n      dup1\n      dup4\n      sub\n      dup2\n      dup7\n      gas\n      staticcall\n      iszero\n      dup1\n      iszero\n      tag_123\n      jumpi\n      returndatasize\n      0x00\n      dup1\n      returndatacopy\n      revert(0x00, returndatasize)\n    tag_123:\n      pop\n      pop\n      pop\n      pop\n      mload(0x40)\n      returndatasize\n      not(0x1f)\n      0x1f\n      dup3\n      add\n      and\n      dup3\n      add\n      dup1\n      0x40\n      mstore\n      pop\n      dup2\n      add\n      swap1\n      tag_124\n      swap2\n      swap1\n      tag_116\n      jump\t// in\n    tag_124:\n        /* \"DraftRouter.sol\":5364:5422  uint256 result = IMutualPool(poolAddress).getLatestEpoch() */\n      swap1\n      pop\n        /* \"DraftRouter.sol\":5439:5445  result */\n      dup1\n        /* \"DraftRouter.sol\":5432:5445  return result */\n      swap4\n      pop\n      pop\n      pop\n      pop\n        /* \"DraftRouter.sol\":5105:5452  function getPoolLatestEpoch(uint256 poolID) public view returns(uint256){... */\n      swap2\n      swap1\n      pop\n      jump\t// out\n        /* \"DraftRouter.sol\":4088:4445  function getPoolCurrentYield(uint256 poolID) external view returns(uint256){... */\n    tag_39:\n        /* \"DraftRouter.sol\":4155:4162  uint256 */\n      0x00\n        /* \"DraftRouter.sol\":4173:4191  uint256 poolLength */\n      dup1\n        /* \"DraftRouter.sol\":4194:4204  PoolDetail */\n      0x01\n        /* \"DraftRouter.sol\":4194:4211  PoolDetail.length */\n      dup1\n      sload\n      swap1\n      pop\n        /* \"DraftRouter.sol\":4173:4211  uint256 poolLength = PoolDetail.length */\n      swap1\n      pop\n        /* \"DraftRouter.sol\":4250:4251  1 */\n      0x01\n        /* \"DraftRouter.sol\":4239:4249  poolLength */\n      dup2\n        /* \"DraftRouter.sol\":4239:4251  poolLength-1 */\n      tag_126\n      swap2\n      swap1\n      tag_94\n      jump\t// in\n    tag_126:\n        /* \"DraftRouter.sol\":4229:4235  poolID */\n      dup4\n        /* \"DraftRouter.sol\":4229:4251  poolID <= poolLength-1 */\n      gt\n      iszero\n        /* \"DraftRouter.sol\":4221:4274  require(poolID <= poolLength-1, \"Pool doesn't exist\") */\n      tag_127\n      jumpi\n      mload(0x40)\n      0x08c379a000000000000000000000000000000000000000000000000000000000\n      dup2\n      mstore\n      0x04\n      add\n      tag_128\n      swap1\n      tag_97\n      jump\t// in\n    tag_128:\n      mload(0x40)\n      dup1\n      swap2\n      sub\n      swap1\n      revert\n    tag_127:\n        /* \"DraftRouter.sol\":4284:4303  address poolAddress */\n      0x00\n        /* \"DraftRouter.sol\":4306:4328  getPoolDetails(poolID) */\n      tag_129\n        /* \"DraftRouter.sol\":4321:4327  poolID */\n      dup5\n        /* \"DraftRouter.sol\":4306:4320  getPoolDetails */\n      tag_61\n        /* \"DraftRouter.sol\":4306:4328  getPoolDetails(poolID) */\n      jump\t// in\n    tag_129:\n        /* \"DraftRouter.sol\":4306:4340  getPoolDetails(poolID).PoolAddress */\n      0x00\n      add\n      mload\n        /* \"DraftRouter.sol\":4284:4340  address poolAddress = getPoolDetails(poolID).PoolAddress */\n      swap1\n      pop\n        /* \"DraftRouter.sol\":4350:4364  uint256 result */\n      0x00\n        /* \"DraftRouter.sol\":4379:4390  poolAddress */\n      dup2\n        /* \"DraftRouter.sol\":4367:4413  IMutualPool(poolAddress).getCurrentEpochReward */\n      0xffffffffffffffffffffffffffffffffffffffff\n      and\n      0xfd2324de\n        /* \"DraftRouter.sol\":4367:4415  IMutualPool(poolAddress).getCurrentEpochReward() */\n      mload(0x40)\n      dup2\n      0xffffffff\n      and\n      0xe0\n      shl\n      dup2\n      mstore\n      0x04\n      add\n      0x20\n      mload(0x40)\n      dup1\n      dup4\n      sub\n      dup2\n      dup7\n      gas\n      staticcall\n      iszero\n      dup1\n      iszero\n      tag_131\n      jumpi\n      returndatasize\n      0x00\n      dup1\n      returndatacopy\n      revert(0x00, returndatasize)\n    tag_131:\n      pop\n      pop\n      pop\n      pop\n      mload(0x40)\n      returndatasize\n      not(0x1f)\n      0x1f\n      dup3\n      add\n      and\n      dup3\n      add\n      dup1\n      0x40\n      mstore\n      pop\n      dup2\n      add\n      swap1\n      tag_132\n      swap2\n      swap1\n      tag_116\n      jump\t// in\n    tag_132:\n        /* \"DraftRouter.sol\":4350:4415  uint256 result = IMutualPool(poolAddress).getCurrentEpochReward() */\n      swap1\n      pop\n        /* \"DraftRouter.sol\":4432:4438  result */\n      dup1\n        /* \"DraftRouter.sol\":4425:4438  return result */\n      swap4\n      pop\n      pop\n      pop\n      pop\n        /* \"DraftRouter.sol\":4088:4445  function getPoolCurrentYield(uint256 poolID) external view returns(uint256){... */\n      swap2\n      swap1\n      pop\n      jump\t// out\n        /* \"DraftRouter.sol\":2943:3308  function getRewardClaimable(address user, uint256 poolID) external view returns(uint256){... */\n    tag_44:\n        /* \"DraftRouter.sol\":3023:3030  uint256 */\n      0x00\n        /* \"DraftRouter.sol\":3041:3059  uint256 poolLength */\n      dup1\n        /* \"DraftRouter.sol\":3062:3072  PoolDetail */\n      0x01\n        /* \"DraftRouter.sol\":3062:3079  PoolDetail.length */\n      dup1\n      sload\n      swap1\n      pop\n        /* \"DraftRouter.sol\":3041:3079  uint256 poolLength = PoolDetail.length */\n      swap1\n      pop\n        /* \"DraftRouter.sol\":3118:3119  1 */\n      0x01\n        /* \"DraftRouter.sol\":3107:3117  poolLength */\n      dup2\n        /* \"DraftRouter.sol\":3107:3119  poolLength-1 */\n      tag_134\n      swap2\n      swap1\n      tag_94\n      jump\t// in\n    tag_134:\n        /* \"DraftRouter.sol\":3097:3103  poolID */\n      dup4\n        /* \"DraftRouter.sol\":3097:3119  poolID <= poolLength-1 */\n      gt\n      iszero\n        /* \"DraftRouter.sol\":3089:3142  require(poolID <= poolLength-1, \"Pool doesn't exist\") */\n      tag_135\n      jumpi\n      mload(0x40)\n      0x08c379a000000000000000000000000000000000000000000000000000000000\n      dup2\n      mstore\n      0x04\n      add\n      tag_136\n      swap1\n      tag_97\n      jump\t// in\n    tag_136:\n      mload(0x40)\n      dup1\n      swap2\n      sub\n      swap1\n      revert\n    tag_135:\n        /* \"DraftRouter.sol\":3152:3171  address poolAddress */\n      0x00\n        /* \"DraftRouter.sol\":3174:3196  getPoolDetails(poolID) */\n      tag_137\n        /* \"DraftRouter.sol\":3189:3195  poolID */\n      dup5\n        /* \"DraftRouter.sol\":3174:3188  getPoolDetails */\n      tag_61\n        /* \"DraftRouter.sol\":3174:3196  getPoolDetails(poolID) */\n      jump\t// in\n    tag_137:\n        /* \"DraftRouter.sol\":3174:3208  getPoolDetails(poolID).PoolAddress */\n      0x00\n      add\n      mload\n        /* \"DraftRouter.sol\":3152:3208  address poolAddress = getPoolDetails(poolID).PoolAddress */\n      swap1\n      pop\n        /* \"DraftRouter.sol\":3218:3232  uint256 result */\n      0x00\n        /* \"DraftRouter.sol\":3247:3258  poolAddress */\n      dup2\n        /* \"DraftRouter.sol\":3235:3272  IMutualPool(poolAddress).getClaimable */\n      0xffffffffffffffffffffffffffffffffffffffff\n      and\n      0xa583024b\n        /* \"DraftRouter.sol\":3273:3277  user */\n      dup8\n        /* \"DraftRouter.sol\":3235:3278  IMutualPool(poolAddress).getClaimable(user) */\n      mload(0x40)\n      dup3\n      0xffffffff\n      and\n      0xe0\n      shl\n      dup2\n      mstore\n      0x04\n      add\n      tag_138\n      swap2\n      swap1\n      tag_139\n      jump\t// in\n    tag_138:\n      0x20\n      mload(0x40)\n      dup1\n      dup4\n      sub\n      dup2\n      dup7\n      gas\n      staticcall\n      iszero\n      dup1\n      iszero\n      tag_141\n      jumpi\n      returndatasize\n      0x00\n      dup1\n      returndatacopy\n      revert(0x00, returndatasize)\n    tag_141:\n      pop\n      pop\n      pop\n      pop\n      mload(0x40)\n      returndatasize\n      not(0x1f)\n      0x1f\n      dup3\n      add\n      and\n      dup3\n      add\n      dup1\n      0x40\n      mstore\n      pop\n      dup2\n      add\n      swap1\n      tag_142\n      swap2\n      swap1\n      tag_116\n      jump\t// in\n    tag_142:\n        /* \"DraftRouter.sol\":3218:3278  uint256 result = IMutualPool(poolAddress).getClaimable(user) */\n      swap1\n      pop\n        /* \"DraftRouter.sol\":3295:3301  result */\n      dup1\n        /* \"DraftRouter.sol\":3288:3301  return result */\n      swap4\n      pop\n      pop\n      pop\n      pop\n        /* \"DraftRouter.sol\":2943:3308  function getRewardClaimable(address user, uint256 poolID) external view returns(uint256){... */\n      swap3\n      swap2\n      pop\n      pop\n      jump\t// out\n        /* \"DraftRouter.sol\":3748:4083  function getPoolTVL(uint256 poolID) public view returns(uint256){... */\n    tag_48:\n        /* \"DraftRouter.sol\":3804:3811  uint256 */\n      0x00\n        /* \"DraftRouter.sol\":3822:3840  uint256 poolLength */\n      dup1\n        /* \"DraftRouter.sol\":3843:3853  PoolDetail */\n      0x01\n        /* \"DraftRouter.sol\":3843:3860  PoolDetail.length */\n      dup1\n      sload\n      swap1\n      pop\n        /* \"DraftRouter.sol\":3822:3860  uint256 poolLength = PoolDetail.length */\n      swap1\n      pop\n        /* \"DraftRouter.sol\":3899:3900  1 */\n      0x01\n        /* \"DraftRouter.sol\":3888:3898  poolLength */\n      dup2\n        /* \"DraftRouter.sol\":3888:3900  poolLength-1 */\n      tag_144\n      swap2\n      swap1\n      tag_94\n      jump\t// in\n    tag_144:\n        /* \"DraftRouter.sol\":3878:3884  poolID */\n      dup4\n        /* \"DraftRouter.sol\":3878:3900  poolID <= poolLength-1 */\n      gt\n      iszero\n        /* \"DraftRouter.sol\":3870:3923  require(poolID <= poolLength-1, \"Pool doesn't exist\") */\n      tag_145\n      jumpi\n      mload(0x40)\n      0x08c379a000000000000000000000000000000000000000000000000000000000\n      dup2\n      mstore\n      0x04\n      add\n      tag_146\n      swap1\n      tag_97\n      jump\t// in\n    tag_146:\n      mload(0x40)\n      dup1\n      swap2\n      sub\n      swap1\n      revert\n    tag_145:\n        /* \"DraftRouter.sol\":3933:3952  address poolAddress */\n      0x00\n        /* \"DraftRouter.sol\":3955:3977  getPoolDetails(poolID) */\n      tag_147\n        /* \"DraftRouter.sol\":3970:3976  poolID */\n      dup5\n        /* \"DraftRouter.sol\":3955:3969  getPoolDetails */\n      tag_61\n        /* \"DraftRouter.sol\":3955:3977  getPoolDetails(poolID) */\n      jump\t// in\n    tag_147:\n        /* \"DraftRouter.sol\":3955:3989  getPoolDetails(poolID).PoolAddress */\n      0x00\n      add\n      mload\n        /* \"DraftRouter.sol\":3933:3989  address poolAddress = getPoolDetails(poolID).PoolAddress */\n      swap1\n      pop\n        /* \"DraftRouter.sol\":3999:4013  uint256 result */\n      0x00\n        /* \"DraftRouter.sol\":4028:4039  poolAddress */\n      dup2\n        /* \"DraftRouter.sol\":4016:4051  IMutualPool(poolAddress).getPoolTVL */\n      0xffffffffffffffffffffffffffffffffffffffff\n      and\n      0x26be90bf\n        /* \"DraftRouter.sol\":4016:4053  IMutualPool(poolAddress).getPoolTVL() */\n      mload(0x40)\n      dup2\n      0xffffffff\n      and\n      0xe0\n      shl\n      dup2\n      mstore\n      0x04\n      add\n      0x20\n      mload(0x40)\n      dup1\n      dup4\n      sub\n      dup2\n      dup7\n      gas\n      staticcall\n      iszero\n      dup1\n      iszero\n      tag_149\n      jumpi\n      returndatasize\n      0x00\n      dup1\n      returndatacopy\n      revert(0x00, returndatasize)\n    tag_149:\n      pop\n      pop\n      pop\n      pop\n      mload(0x40)\n      returndatasize\n      not(0x1f)\n      0x1f\n      dup3\n      add\n      and\n      dup3\n      add\n      dup1\n      0x40\n      mstore\n      pop\n      dup2\n      add\n      swap1\n      tag_150\n      swap2\n      swap1\n      tag_116\n      jump\t// in\n    tag_150:\n        /* \"DraftRouter.sol\":3999:4053  uint256 result = IMutualPool(poolAddress).getPoolTVL() */\n      swap1\n      pop\n        /* \"DraftRouter.sol\":4070:4076  result */\n      dup1\n        /* \"DraftRouter.sol\":4063:4076  return result */\n      swap4\n      pop\n      pop\n      pop\n      pop\n        /* \"DraftRouter.sol\":3748:4083  function getPoolTVL(uint256 poolID) public view returns(uint256){... */\n      swap2\n      swap1\n      pop\n      jump\t// out\n        /* \"DraftRouter.sol\":12517:12729  function removePool(uint256 poolID) external onlyController{... */\n    tag_52:\n        /* \"DraftRouter.sol\":2166:2178  address role */\n      0x00\n        /* \"DraftRouter.sol\":2195:2211  registryContract */\n      0x02\n      0x00\n      swap1\n      sload\n      swap1\n      0x0100\n      exp\n      swap1\n      div\n      0xffffffffffffffffffffffffffffffffffffffff\n      and\n        /* \"DraftRouter.sol\":2181:2226  IRoleRegistry(registryContract).getController */\n      0xffffffffffffffffffffffffffffffffffffffff\n      and\n      0x3018205f\n        /* \"DraftRouter.sol\":2181:2228  IRoleRegistry(registryContract).getController() */\n      mload(0x40)\n      dup2\n      0xffffffff\n      and\n      0xe0\n      shl\n      dup2\n      mstore\n      0x04\n      add\n      0x20\n      mload(0x40)\n      dup1\n      dup4\n      sub\n      dup2\n      dup7\n      gas\n      staticcall\n      iszero\n      dup1\n      iszero\n      tag_153\n      jumpi\n      returndatasize\n      0x00\n      dup1\n      returndatacopy\n      revert(0x00, returndatasize)\n    tag_153:\n      pop\n      pop\n      pop\n      pop\n      mload(0x40)\n      returndatasize\n      not(0x1f)\n      0x1f\n      dup3\n      add\n      and\n      dup3\n      add\n      dup1\n      0x40\n      mstore\n      pop\n      dup2\n      add\n      swap1\n      tag_154\n      swap2\n      swap1\n      tag_155\n      jump\t// in\n    tag_154:\n        /* \"DraftRouter.sol\":2166:2228  address role = IRoleRegistry(registryContract).getController() */\n      swap1\n      pop\n        /* \"DraftRouter.sol\":2260:2264  role */\n      dup1\n        /* \"DraftRouter.sol\":2246:2264  msg.sender == role */\n      0xffffffffffffffffffffffffffffffffffffffff\n      and\n        /* \"DraftRouter.sol\":2246:2256  msg.sender */\n      caller\n        /* \"DraftRouter.sol\":2246:2264  msg.sender == role */\n      0xffffffffffffffffffffffffffffffffffffffff\n      and\n      eq\n        /* \"DraftRouter.sol\":2238:2283  require(msg.sender == role, \"Invalid caller\") */\n      tag_156\n      jumpi\n      mload(0x40)\n      0x08c379a000000000000000000000000000000000000000000000000000000000\n      dup2\n      mstore\n      0x04\n      add\n      tag_157\n      swap1\n      tag_158\n      jump\t// in\n    tag_157:\n      mload(0x40)\n      dup1\n      swap2\n      sub\n      swap1\n      revert\n    tag_156:\n        /* \"DraftRouter.sol\":12586:12604  uint256 poolLength */\n      0x00\n        /* \"DraftRouter.sol\":12607:12617  PoolDetail */\n      0x01\n        /* \"DraftRouter.sol\":12607:12624  PoolDetail.length */\n      dup1\n      sload\n      swap1\n      pop\n        /* \"DraftRouter.sol\":12586:12624  uint256 poolLength = PoolDetail.length */\n      swap1\n      pop\n        /* \"DraftRouter.sol\":12663:12664  1 */\n      0x01\n        /* \"DraftRouter.sol\":12652:12662  poolLength */\n      dup2\n        /* \"DraftRouter.sol\":12652:12664  poolLength-1 */\n      tag_160\n      swap2\n      swap1\n      tag_94\n      jump\t// in\n    tag_160:\n        /* \"DraftRouter.sol\":12642:12648  poolID */\n      dup4\n        /* \"DraftRouter.sol\":12642:12664  poolID <= poolLength-1 */\n      gt\n      iszero\n        /* \"DraftRouter.sol\":12634:12687  require(poolID <= poolLength-1, \"Pool doesn't exist\") */\n      tag_161\n      jumpi\n      mload(0x40)\n      0x08c379a000000000000000000000000000000000000000000000000000000000\n      dup2\n      mstore\n      0x04\n      add\n      tag_162\n      swap1\n      tag_97\n      jump\t// in\n    tag_162:\n      mload(0x40)\n      dup1\n      swap2\n      sub\n      swap1\n      revert\n    tag_161:\n        /* \"DraftRouter.sol\":12704:12714  PoolDetail */\n      0x01\n        /* \"DraftRouter.sol\":12715:12721  poolID */\n      dup4\n        /* \"DraftRouter.sol\":12704:12722  PoolDetail[poolID] */\n      dup2\n      sload\n      dup2\n      lt\n      tag_163\n      jumpi\n      tag_164\n      tag_100\n      jump\t// in\n    tag_164:\n    tag_163:\n      swap1\n      0x00\n      mstore\n      keccak256(0x00, 0x20)\n      swap1\n      0x02\n      mul\n      add\n      0x00\n        /* \"DraftRouter.sol\":12697:12722  delete PoolDetail[poolID] */\n      dup1\n      dup3\n      add\n      exp(0x0100, 0x00)\n      dup2\n      sload\n      swap1\n      0xffffffffffffffffffffffffffffffffffffffff\n      mul\n      not\n      and\n      swap1\n      sstore\n      0x01\n      dup3\n      add\n      exp(0x0100, 0x00)\n      dup2\n      sload\n      swap1\n      0xffffffffffffffffffffffffffffffffffffffff\n      mul\n      not\n      and\n      swap1\n      sstore\n      pop\n      pop\n        /* \"DraftRouter.sol\":12576:12729  {... */\n      pop\n        /* \"DraftRouter.sol\":2156:2301  {... */\n      pop\n        /* \"DraftRouter.sol\":12517:12729  function removePool(uint256 poolID) external onlyController{... */\n      pop\n      jump\t// out\n        /* \"DraftRouter.sol\":11027:11912  function claimReward(uint256 poolID) external nonReentrant{... */\n    tag_55:\n        /* \"DraftRouter.sol\":2358:2359  0 */\n      0x00\n        /* \"DraftRouter.sol\":2348:2354  status */\n      dup1\n      sload\n        /* \"DraftRouter.sol\":2348:2359  status == 0 */\n      eq\n        /* \"DraftRouter.sol\":2340:2376  require(status == 0, \"Illegal call\") */\n      tag_167\n      jumpi\n      mload(0x40)\n      0x08c379a000000000000000000000000000000000000000000000000000000000\n      dup2\n      mstore\n      0x04\n      add\n      tag_168\n      swap1\n      tag_91\n      jump\t// in\n    tag_168:\n      mload(0x40)\n      dup1\n      swap2\n      sub\n      swap1\n      revert\n    tag_167:\n        /* \"DraftRouter.sol\":2395:2396  1 */\n      0x01\n        /* \"DraftRouter.sol\":2386:2392  status */\n      0x00\n        /* \"DraftRouter.sol\":2386:2396  status = 1 */\n      dup2\n      swap1\n      sstore\n      pop\n        /* \"DraftRouter.sol\":11095:11113  uint256 poolLength */\n      0x00\n        /* \"DraftRouter.sol\":11116:11126  PoolDetail */\n      0x01\n        /* \"DraftRouter.sol\":11116:11133  PoolDetail.length */\n      dup1\n      sload\n      swap1\n      pop\n        /* \"DraftRouter.sol\":11095:11133  uint256 poolLength = PoolDetail.length */\n      swap1\n      pop\n        /* \"DraftRouter.sol\":11172:11173  1 */\n      0x01\n        /* \"DraftRouter.sol\":11161:11171  poolLength */\n      dup2\n        /* \"DraftRouter.sol\":11161:11173  poolLength-1 */\n      tag_170\n      swap2\n      swap1\n      tag_94\n      jump\t// in\n    tag_170:\n        /* \"DraftRouter.sol\":11151:11157  poolID */\n      dup3\n        /* \"DraftRouter.sol\":11151:11173  poolID <= poolLength-1 */\n      gt\n      iszero\n        /* \"DraftRouter.sol\":11143:11196  require(poolID <= poolLength-1, \"Pool doesn't exist\") */\n      tag_171\n      jumpi\n      mload(0x40)\n      0x08c379a000000000000000000000000000000000000000000000000000000000\n      dup2\n      mstore\n      0x04\n      add\n      tag_172\n      swap1\n      tag_97\n      jump\t// in\n    tag_172:\n      mload(0x40)\n      dup1\n      swap2\n      sub\n      swap1\n      revert\n    tag_171:\n        /* \"DraftRouter.sol\":11207:11237  _PoolDetails memory getDetails */\n      0x00\n        /* \"DraftRouter.sol\":11240:11250  PoolDetail */\n      0x01\n        /* \"DraftRouter.sol\":11251:11257  poolID */\n      dup4\n        /* \"DraftRouter.sol\":11240:11258  PoolDetail[poolID] */\n      dup2\n      sload\n      dup2\n      lt\n      tag_173\n      jumpi\n      tag_174\n      tag_100\n      jump\t// in\n    tag_174:\n    tag_173:\n      swap1\n      0x00\n      mstore\n      keccak256(0x00, 0x20)\n      swap1\n      0x02\n      mul\n      add\n        /* \"DraftRouter.sol\":11207:11258  _PoolDetails memory getDetails = PoolDetail[poolID] */\n      mload(0x40)\n      dup1\n      0x40\n      add\n      0x40\n      mstore\n      swap1\n      dup2\n      0x00\n      dup3\n      add\n      0x00\n      swap1\n      sload\n      swap1\n      0x0100\n      exp\n      swap1\n      div\n      0xffffffffffffffffffffffffffffffffffffffff\n      and\n      0xffffffffffffffffffffffffffffffffffffffff\n      and\n      0xffffffffffffffffffffffffffffffffffffffff\n      and\n      dup2\n      mstore\n      0x20\n      add\n      0x01\n      dup3\n      add\n      0x00\n      swap1\n      sload\n      swap1\n      0x0100\n      exp\n      swap1\n      div\n      0xffffffffffffffffffffffffffffffffffffffff\n      and\n      0xffffffffffffffffffffffffffffffffffffffff\n      and\n      0xffffffffffffffffffffffffffffffffffffffff\n      and\n      dup2\n      mstore\n      pop\n      pop\n      swap1\n      pop\n        /* \"DraftRouter.sol\":11268:11287  address poolAddress */\n      0x00\n        /* \"DraftRouter.sol\":11290:11300  getDetails */\n      dup2\n        /* \"DraftRouter.sol\":11290:11312  getDetails.PoolAddress */\n      0x00\n      add\n      mload\n        /* \"DraftRouter.sol\":11268:11312  address poolAddress = getDetails.PoolAddress */\n      swap1\n      pop\n        /* \"DraftRouter.sol\":11322:11343  address tokenToUseNow */\n      0x00\n        /* \"DraftRouter.sol\":11346:11356  getDetails */\n      dup3\n        /* \"DraftRouter.sol\":11346:11371  getDetails.PoolTokenToUse */\n      0x20\n      add\n      mload\n        /* \"DraftRouter.sol\":11322:11371  address tokenToUseNow = getDetails.PoolTokenToUse */\n      swap1\n      pop\n        /* \"DraftRouter.sol\":11382:11408  uint256 balanceBeforeClaim */\n      0x00\n        /* \"DraftRouter.sol\":11418:11431  tokenToUseNow */\n      dup2\n        /* \"DraftRouter.sol\":11411:11442  IERC20(tokenToUseNow).balanceOf */\n      0xffffffffffffffffffffffffffffffffffffffff\n      and\n      0x70a08231\n        /* \"DraftRouter.sol\":11451:11455  this */\n      address\n        /* \"DraftRouter.sol\":11411:11457  IERC20(tokenToUseNow).balanceOf(address(this)) */\n      mload(0x40)\n      dup3\n      0xffffffff\n      and\n      0xe0\n      shl\n      dup2\n      mstore\n      0x04\n      add\n      tag_176\n      swap2\n      swap1\n      tag_139\n      jump\t// in\n    tag_176:\n      0x20\n      mload(0x40)\n      dup1\n      dup4\n      sub\n      dup2\n      dup7\n      gas\n      staticcall\n      iszero\n      dup1\n      iszero\n      tag_178\n      jumpi\n      returndatasize\n      0x00\n      dup1\n      returndatacopy\n      revert(0x00, returndatasize)\n    tag_178:\n      pop\n      pop\n      pop\n      pop\n      mload(0x40)\n      returndatasize\n      not(0x1f)\n      0x1f\n      dup3\n      add\n      and\n      dup3\n      add\n      dup1\n      0x40\n      mstore\n      pop\n      dup2\n      add\n      swap1\n      tag_179\n      swap2\n      swap1\n      tag_116\n      jump\t// in\n    tag_179:\n        /* \"DraftRouter.sol\":11382:11457  uint256 balanceBeforeClaim = IERC20(tokenToUseNow).balanceOf(address(this)) */\n      swap1\n      pop\n        /* \"DraftRouter.sol\":11467:11488  uint256 rewardClaimed */\n      0x00\n        /* \"DraftRouter.sol\":11491:11535  _processClaimReward(msg.sender, poolAddress) */\n      tag_180\n        /* \"DraftRouter.sol\":11511:11521  msg.sender */\n      caller\n        /* \"DraftRouter.sol\":11523:11534  poolAddress */\n      dup6\n        /* \"DraftRouter.sol\":11491:11510  _processClaimReward */\n      tag_181\n        /* \"DraftRouter.sol\":11491:11535  _processClaimReward(msg.sender, poolAddress) */\n      jump\t// in\n    tag_180:\n        /* \"DraftRouter.sol\":11467:11535  uint256 rewardClaimed = _processClaimReward(msg.sender, poolAddress) */\n      swap1\n      pop\n        /* \"DraftRouter.sol\":11545:11570  uint256 balanceAfterClaim */\n      0x00\n        /* \"DraftRouter.sol\":11580:11593  tokenToUseNow */\n      dup4\n        /* \"DraftRouter.sol\":11573:11604  IERC20(tokenToUseNow).balanceOf */\n      0xffffffffffffffffffffffffffffffffffffffff\n      and\n      0x70a08231\n        /* \"DraftRouter.sol\":11613:11617  this */\n      address\n        /* \"DraftRouter.sol\":11573:11619  IERC20(tokenToUseNow).balanceOf(address(this)) */\n      mload(0x40)\n      dup3\n      0xffffffff\n      and\n      0xe0\n      shl\n      dup2\n      mstore\n      0x04\n      add\n      tag_182\n      swap2\n      swap1\n      tag_139\n      jump\t// in\n    tag_182:\n      0x20\n      mload(0x40)\n      dup1\n      dup4\n      sub\n      dup2\n      dup7\n      gas\n      staticcall\n      iszero\n      dup1\n      iszero\n      tag_184\n      jumpi\n      returndatasize\n      0x00\n      dup1\n      returndatacopy\n      revert(0x00, returndatasize)\n    tag_184:\n      pop\n      pop\n      pop\n      pop\n      mload(0x40)\n      returndatasize\n      not(0x1f)\n      0x1f\n      dup3\n      add\n      and\n      dup3\n      add\n      dup1\n      0x40\n      mstore\n      pop\n      dup2\n      add\n      swap1\n      tag_185\n      swap2\n      swap1\n      tag_116\n      jump\t// in\n    tag_185:\n        /* \"DraftRouter.sol\":11545:11619  uint256 balanceAfterClaim = IERC20(tokenToUseNow).balanceOf(address(this)) */\n      swap1\n      pop\n        /* \"DraftRouter.sol\":11629:11650  uint256 balanceChange */\n      0x00\n        /* \"DraftRouter.sol\":11673:11691  balanceBeforeClaim */\n      dup4\n        /* \"DraftRouter.sol\":11653:11670  balanceAfterClaim */\n      dup3\n        /* \"DraftRouter.sol\":11653:11691  balanceAfterClaim - balanceBeforeClaim */\n      tag_186\n      swap2\n      swap1\n      tag_94\n      jump\t// in\n    tag_186:\n        /* \"DraftRouter.sol\":11629:11691  uint256 balanceChange = balanceAfterClaim - balanceBeforeClaim */\n      swap1\n      pop\n        /* \"DraftRouter.sol\":11726:11739  rewardClaimed */\n      dup3\n        /* \"DraftRouter.sol\":11709:11722  balanceChange */\n      dup2\n        /* \"DraftRouter.sol\":11709:11739  balanceChange >= rewardClaimed */\n      lt\n      iszero\n        /* \"DraftRouter.sol\":11701:11740  require(balanceChange >= rewardClaimed) */\n      tag_187\n      jumpi\n      0x00\n      dup1\n      revert\n    tag_187:\n        /* \"DraftRouter.sol\":11751:11819  _processTransferBacktoUser(msg.sender, tokenToUseNow, rewardClaimed) */\n      tag_188\n        /* \"DraftRouter.sol\":11778:11788  msg.sender */\n      caller\n        /* \"DraftRouter.sol\":11790:11803  tokenToUseNow */\n      dup7\n        /* \"DraftRouter.sol\":11805:11818  rewardClaimed */\n      dup6\n        /* \"DraftRouter.sol\":11751:11777  _processTransferBacktoUser */\n      tag_189\n        /* \"DraftRouter.sol\":11751:11819  _processTransferBacktoUser(msg.sender, tokenToUseNow, rewardClaimed) */\n      jump\t// in\n    tag_188:\n        /* \"DraftRouter.sol\":11835:11905  EpochRewardClaimed(msg.sender,poolAddress,tokenToUseNow,rewardClaimed) */\n      0xf5a48ea938b5e8d78be0d8d0d1e277621d4854f2b208ee83ae3702ce61828ab5\n        /* \"DraftRouter.sol\":11854:11864  msg.sender */\n      caller\n        /* \"DraftRouter.sol\":11865:11876  poolAddress */\n      dup8\n        /* \"DraftRouter.sol\":11877:11890  tokenToUseNow */\n      dup8\n        /* \"DraftRouter.sol\":11891:11904  rewardClaimed */\n      dup7\n        /* \"DraftRouter.sol\":11835:11905  EpochRewardClaimed(msg.sender,poolAddress,tokenToUseNow,rewardClaimed) */\n      mload(0x40)\n      tag_190\n      swap5\n      swap4\n      swap3\n      swap2\n      swap1\n      tag_191\n      jump\t// in\n    tag_190:\n      mload(0x40)\n      dup1\n      swap2\n      sub\n      swap1\n      log1\n        /* \"DraftRouter.sol\":11085:11912  {... */\n      pop\n      pop\n      pop\n      pop\n      pop\n      pop\n      pop\n      pop\n        /* \"DraftRouter.sol\":2426:2427  0 */\n      0x00\n        /* \"DraftRouter.sol\":2417:2423  status */\n      dup1\n        /* \"DraftRouter.sol\":2417:2427  status = 0 */\n      dup2\n      swap1\n      sstore\n      pop\n        /* \"DraftRouter.sol\":11027:11912  function claimReward(uint256 poolID) external nonReentrant{... */\n      pop\n      jump\t// out\n        /* \"DraftRouter.sol\":3313:3450  function getPoolLength() external view returns(uint256){... */\n    tag_57:\n        /* \"DraftRouter.sol\":3360:3367  uint256 */\n      0x00\n        /* \"DraftRouter.sol\":3378:3396  uint256 poolLength */\n      dup1\n        /* \"DraftRouter.sol\":3399:3409  PoolDetail */\n      0x01\n        /* \"DraftRouter.sol\":3399:3416  PoolDetail.length */\n      dup1\n      sload\n      swap1\n      pop\n        /* \"DraftRouter.sol\":3378:3416  uint256 poolLength = PoolDetail.length */\n      swap1\n      pop\n        /* \"DraftRouter.sol\":3433:3443  poolLength */\n      dup1\n        /* \"DraftRouter.sol\":3426:3443  return poolLength */\n      swap2\n      pop\n      pop\n        /* \"DraftRouter.sol\":3313:3450  function getPoolLength() external view returns(uint256){... */\n      swap1\n      jump\t// out\n        /* \"DraftRouter.sol\":3456:3742  function getPoolDetails(uint256 poolID) public view returns(_PoolDetails memory){... */\n    tag_61:\n        /* \"DraftRouter.sol\":3516:3535  _PoolDetails memory */\n      tag_193\n      tag_194\n      jump\t// in\n    tag_193:\n        /* \"DraftRouter.sol\":3546:3564  uint256 poolLength */\n      0x00\n        /* \"DraftRouter.sol\":3567:3577  PoolDetail */\n      0x01\n        /* \"DraftRouter.sol\":3567:3584  PoolDetail.length */\n      dup1\n      sload\n      swap1\n      pop\n        /* \"DraftRouter.sol\":3546:3584  uint256 poolLength = PoolDetail.length */\n      swap1\n      pop\n        /* \"DraftRouter.sol\":3623:3624  1 */\n      0x01\n        /* \"DraftRouter.sol\":3612:3622  poolLength */\n      dup2\n        /* \"DraftRouter.sol\":3612:3624  poolLength-1 */\n      tag_196\n      swap2\n      swap1\n      tag_94\n      jump\t// in\n    tag_196:\n        /* \"DraftRouter.sol\":3602:3608  poolID */\n      dup4\n        /* \"DraftRouter.sol\":3602:3624  poolID <= poolLength-1 */\n      gt\n      iszero\n        /* \"DraftRouter.sol\":3594:3647  require(poolID <= poolLength-1, \"Pool doesn't exist\") */\n      tag_197\n      jumpi\n      mload(0x40)\n      0x08c379a000000000000000000000000000000000000000000000000000000000\n      dup2\n      mstore\n      0x04\n      add\n      tag_198\n      swap1\n      tag_97\n      jump\t// in\n    tag_198:\n      mload(0x40)\n      dup1\n      swap2\n      sub\n      swap1\n      revert\n    tag_197:\n        /* \"DraftRouter.sol\":3657:3687  _PoolDetails memory getDetails */\n      0x00\n        /* \"DraftRouter.sol\":3690:3700  PoolDetail */\n      0x01\n        /* \"DraftRouter.sol\":3701:3707  poolID */\n      dup5\n        /* \"DraftRouter.sol\":3690:3708  PoolDetail[poolID] */\n      dup2\n      sload\n      dup2\n      lt\n      tag_199\n      jumpi\n      tag_200\n      tag_100\n      jump\t// in\n    tag_200:\n    tag_199:\n      swap1\n      0x00\n      mstore\n      keccak256(0x00, 0x20)\n      swap1\n      0x02\n      mul\n      add\n        /* \"DraftRouter.sol\":3657:3708  _PoolDetails memory getDetails = PoolDetail[poolID] */\n      mload(0x40)\n      dup1\n      0x40\n      add\n      0x40\n      mstore\n      swap1\n      dup2\n      0x00\n      dup3\n      add\n      0x00\n      swap1\n      sload\n      swap1\n      0x0100\n      exp\n      swap1\n      div\n      0xffffffffffffffffffffffffffffffffffffffff\n      and\n      0xffffffffffffffffffffffffffffffffffffffff\n      and\n      0xffffffffffffffffffffffffffffffffffffffff\n      and\n      dup2\n      mstore\n      0x20\n      add\n      0x01\n      dup3\n      add\n      0x00\n      swap1\n      sload\n      swap1\n      0x0100\n      exp\n      swap1\n      div\n      0xffffffffffffffffffffffffffffffffffffffff\n      and\n      0xffffffffffffffffffffffffffffffffffffffff\n      and\n      0xffffffffffffffffffffffffffffffffffffffff\n      and\n      dup2\n      mstore\n      pop\n      pop\n      swap1\n      pop\n        /* \"DraftRouter.sol\":3725:3735  getDetails */\n      dup1\n        /* \"DraftRouter.sol\":3718:3735  return getDetails */\n      swap3\n      pop\n      pop\n      pop\n        /* \"DraftRouter.sol\":3456:3742  function getPoolDetails(uint256 poolID) public view returns(_PoolDetails memory){... */\n      swap2\n      swap1\n      pop\n      jump\t// out\n        /* \"DraftRouter.sol\":2441:2651  function initialize(address registryAddress) external{... */\n    tag_67:\n        /* \"DraftRouter.sol\":2527:2532  false */\n      0x00\n        /* \"DraftRouter.sol\":2512:2532  initialized == false */\n      iszero\n      iszero\n        /* \"DraftRouter.sol\":2512:2523  initialized */\n      0x02\n      0x14\n      swap1\n      sload\n      swap1\n      0x0100\n      exp\n      swap1\n      div\n      0xff\n      and\n        /* \"DraftRouter.sol\":2512:2532  initialized == false */\n      iszero\n      iszero\n      eq\n        /* \"DraftRouter.sol\":2504:2568  require(initialized == false, \"Contract is initialized already\") */\n      tag_203\n      jumpi\n      mload(0x40)\n      0x08c379a000000000000000000000000000000000000000000000000000000000\n      dup2\n      mstore\n      0x04\n      add\n      tag_204\n      swap1\n      tag_205\n      jump\t// in\n    tag_204:\n      mload(0x40)\n      dup1\n      swap2\n      sub\n      swap1\n      revert\n    tag_203:\n        /* \"DraftRouter.sol\":2578:2616  _transferRegistryAddr(registryAddress) */\n      tag_206\n        /* \"DraftRouter.sol\":2600:2615  registryAddress */\n      dup2\n        /* \"DraftRouter.sol\":2578:2599  _transferRegistryAddr */\n      tag_207\n        /* \"DraftRouter.sol\":2578:2616  _transferRegistryAddr(registryAddress) */\n      jump\t// in\n    tag_206:\n        /* \"DraftRouter.sol\":2640:2644  true */\n      0x01\n        /* \"DraftRouter.sol\":2626:2637  initialized */\n      0x02\n      0x14\n        /* \"DraftRouter.sol\":2626:2644  initialized = true */\n      0x0100\n      exp\n      dup2\n      sload\n      dup2\n      0xff\n      mul\n      not\n      and\n      swap1\n      dup4\n      iszero\n      iszero\n      mul\n      or\n      swap1\n      sstore\n      pop\n        /* \"DraftRouter.sol\":2441:2651  function initialize(address registryAddress) external{... */\n      pop\n      jump\t// out\n        /* \"DraftRouter.sol\":12243:12512  function addPool(address _poolAddress) external onlyController{... */\n    tag_70:\n        /* \"DraftRouter.sol\":2166:2178  address role */\n      0x00\n        /* \"DraftRouter.sol\":2195:2211  registryContract */\n      0x02\n      0x00\n      swap1\n      sload\n      swap1\n      0x0100\n      exp\n      swap1\n      div\n      0xffffffffffffffffffffffffffffffffffffffff\n      and\n        /* \"DraftRouter.sol\":2181:2226  IRoleRegistry(registryContract).getController */\n      0xffffffffffffffffffffffffffffffffffffffff\n      and\n      0x3018205f\n        /* \"DraftRouter.sol\":2181:2228  IRoleRegistry(registryContract).getController() */\n      mload(0x40)\n      dup2\n      0xffffffff\n      and\n      0xe0\n      shl\n      dup2\n      mstore\n      0x04\n      add\n      0x20\n      mload(0x40)\n      dup1\n      dup4\n      sub\n      dup2\n      dup7\n      gas\n      staticcall\n      iszero\n      dup1\n      iszero\n      tag_210\n      jumpi\n      returndatasize\n      0x00\n      dup1\n      returndatacopy\n      revert(0x00, returndatasize)\n    tag_210:\n      pop\n      pop\n      pop\n      pop\n      mload(0x40)\n      returndatasize\n      not(0x1f)\n      0x1f\n      dup3\n      add\n      and\n      dup3\n      add\n      dup1\n      0x40\n      mstore\n      pop\n      dup2\n      add\n      swap1\n      tag_211\n      swap2\n      swap1\n      tag_155\n      jump\t// in\n    tag_211:\n        /* \"DraftRouter.sol\":2166:2228  address role = IRoleRegistry(registryContract).getController() */\n      swap1\n      pop\n        /* \"DraftRouter.sol\":2260:2264  role */\n      dup1\n        /* \"DraftRouter.sol\":2246:2264  msg.sender == role */\n      0xffffffffffffffffffffffffffffffffffffffff\n      and\n        /* \"DraftRouter.sol\":2246:2256  msg.sender */\n      caller\n        /* \"DraftRouter.sol\":2246:2264  msg.sender == role */\n      0xffffffffffffffffffffffffffffffffffffffff\n      and\n      eq\n        /* \"DraftRouter.sol\":2238:2283  require(msg.sender == role, \"Invalid caller\") */\n      tag_212\n      jumpi\n      mload(0x40)\n      0x08c379a000000000000000000000000000000000000000000000000000000000\n      dup2\n      mstore\n      0x04\n      add\n      tag_213\n      swap1\n      tag_158\n      jump\t// in\n    tag_213:\n      mload(0x40)\n      dup1\n      swap2\n      sub\n      swap1\n      revert\n    tag_212:\n        /* \"DraftRouter.sol\":12315:12332  address PoolToken */\n      0x00\n        /* \"DraftRouter.sol\":12347:12359  _poolAddress */\n      dup3\n        /* \"DraftRouter.sol\":12335:12374  IMutualPool(_poolAddress).getTokenUsing */\n      0xffffffffffffffffffffffffffffffffffffffff\n      and\n      0x0fce03b9\n        /* \"DraftRouter.sol\":12335:12376  IMutualPool(_poolAddress).getTokenUsing() */\n      mload(0x40)\n      dup2\n      0xffffffff\n      and\n      0xe0\n      shl\n      dup2\n      mstore\n      0x04\n      add\n      0x20\n      mload(0x40)\n      dup1\n      dup4\n      sub\n      dup2\n      dup7\n      gas\n      staticcall\n      iszero\n      dup1\n      iszero\n      tag_216\n      jumpi\n      returndatasize\n      0x00\n      dup1\n      returndatacopy\n      revert(0x00, returndatasize)\n    tag_216:\n      pop\n      pop\n      pop\n      pop\n      mload(0x40)\n      returndatasize\n      not(0x1f)\n      0x1f\n      dup3\n      add\n      and\n      dup3\n      add\n      dup1\n      0x40\n      mstore\n      pop\n      dup2\n      add\n      swap1\n      tag_217\n      swap2\n      swap1\n      tag_155\n      jump\t// in\n    tag_217:\n        /* \"DraftRouter.sol\":12315:12376  address PoolToken = IMutualPool(_poolAddress).getTokenUsing() */\n      swap1\n      pop\n        /* \"DraftRouter.sol\":12386:12396  PoolDetail */\n      0x01\n        /* \"DraftRouter.sol\":12402:12504  _PoolDetails({... */\n      mload(0x40)\n      dup1\n      0x40\n      add\n      0x40\n      mstore\n      dup1\n        /* \"DraftRouter.sol\":12442:12454  _poolAddress */\n      dup6\n        /* \"DraftRouter.sol\":12402:12504  _PoolDetails({... */\n      0xffffffffffffffffffffffffffffffffffffffff\n      and\n      dup2\n      mstore\n      0x20\n      add\n        /* \"DraftRouter.sol\":12484:12493  PoolToken */\n      dup4\n        /* \"DraftRouter.sol\":12402:12504  _PoolDetails({... */\n      0xffffffffffffffffffffffffffffffffffffffff\n      and\n      dup2\n      mstore\n      pop\n        /* \"DraftRouter.sol\":12386:12505  PoolDetail.push(_PoolDetails({... */\n      swap1\n      dup1\n      0x01\n      dup2\n      sload\n      add\n      dup1\n      dup3\n      sstore\n      dup1\n      swap2\n      pop\n      pop\n      0x01\n      swap1\n      sub\n      swap1\n      0x00\n      mstore\n      keccak256(0x00, 0x20)\n      swap1\n      0x02\n      mul\n      add\n      0x00\n      swap1\n      swap2\n      swap1\n      swap2\n      swap1\n      swap2\n      pop\n      0x00\n      dup3\n      add\n      mload\n      dup2\n      0x00\n      add\n      exp(0x0100, 0x00)\n      dup2\n      sload\n      dup2\n      0xffffffffffffffffffffffffffffffffffffffff\n      mul\n      not\n      and\n      swap1\n      dup4\n      0xffffffffffffffffffffffffffffffffffffffff\n      and\n      mul\n      or\n      swap1\n      sstore\n      pop\n      0x20\n      dup3\n      add\n      mload\n      dup2\n      0x01\n      add\n      exp(0x0100, 0x00)\n      dup2\n      sload\n      dup2\n      0xffffffffffffffffffffffffffffffffffffffff\n      mul\n      not\n      and\n      swap1\n      dup4\n      0xffffffffffffffffffffffffffffffffffffffff\n      and\n      mul\n      or\n      swap1\n      sstore\n      pop\n      pop\n      pop\n        /* \"DraftRouter.sol\":12305:12512  {... */\n      pop\n        /* \"DraftRouter.sol\":2156:2301  {... */\n      pop\n        /* \"DraftRouter.sol\":12243:12512  function addPool(address _poolAddress) external onlyController{... */\n      pop\n      jump\t// out\n        /* \"DraftRouter.sol\":7965:8553  function deposit(uint256 poolID, uint256 amount) external nonReentrant{... */\n    tag_73:\n        /* \"DraftRouter.sol\":2358:2359  0 */\n      0x00\n        /* \"DraftRouter.sol\":2348:2354  status */\n      dup1\n      sload\n        /* \"DraftRouter.sol\":2348:2359  status == 0 */\n      eq\n        /* \"DraftRouter.sol\":2340:2376  require(status == 0, \"Illegal call\") */\n      tag_220\n      jumpi\n      mload(0x40)\n      0x08c379a000000000000000000000000000000000000000000000000000000000\n      dup2\n      mstore\n      0x04\n      add\n      tag_221\n      swap1\n      tag_91\n      jump\t// in\n    tag_221:\n      mload(0x40)\n      dup1\n      swap2\n      sub\n      swap1\n      revert\n    tag_220:\n        /* \"DraftRouter.sol\":2395:2396  1 */\n      0x01\n        /* \"DraftRouter.sol\":2386:2392  status */\n      0x00\n        /* \"DraftRouter.sol\":2386:2396  status = 1 */\n      dup2\n      swap1\n      sstore\n      pop\n        /* \"DraftRouter.sol\":8046:8064  uint256 poolLength */\n      0x00\n        /* \"DraftRouter.sol\":8067:8077  PoolDetail */\n      0x01\n        /* \"DraftRouter.sol\":8067:8084  PoolDetail.length */\n      dup1\n      sload\n      swap1\n      pop\n        /* \"DraftRouter.sol\":8046:8084  uint256 poolLength = PoolDetail.length */\n      swap1\n      pop\n        /* \"DraftRouter.sol\":8123:8124  1 */\n      0x01\n        /* \"DraftRouter.sol\":8112:8122  poolLength */\n      dup2\n        /* \"DraftRouter.sol\":8112:8124  poolLength-1 */\n      tag_223\n      swap2\n      swap1\n      tag_94\n      jump\t// in\n    tag_223:\n        /* \"DraftRouter.sol\":8102:8108  poolID */\n      dup4\n        /* \"DraftRouter.sol\":8102:8124  poolID <= poolLength-1 */\n      gt\n      iszero\n        /* \"DraftRouter.sol\":8094:8147  require(poolID <= poolLength-1, \"Pool doesn't exist\") */\n      tag_224\n      jumpi\n      mload(0x40)\n      0x08c379a000000000000000000000000000000000000000000000000000000000\n      dup2\n      mstore\n      0x04\n      add\n      tag_225\n      swap1\n      tag_97\n      jump\t// in\n    tag_225:\n      mload(0x40)\n      dup1\n      swap2\n      sub\n      swap1\n      revert\n    tag_224:\n        /* \"DraftRouter.sol\":8159:8189  _PoolDetails memory getDetails */\n      0x00\n        /* \"DraftRouter.sol\":8192:8202  PoolDetail */\n      0x01\n        /* \"DraftRouter.sol\":8203:8209  poolID */\n      dup5\n        /* \"DraftRouter.sol\":8192:8210  PoolDetail[poolID] */\n      dup2\n      sload\n      dup2\n      lt\n      tag_226\n      jumpi\n      tag_227\n      tag_100\n      jump\t// in\n    tag_227:\n    tag_226:\n      swap1\n      0x00\n      mstore\n      keccak256(0x00, 0x20)\n      swap1\n      0x02\n      mul\n      add\n        /* \"DraftRouter.sol\":8159:8210  _PoolDetails memory getDetails = PoolDetail[poolID] */\n      mload(0x40)\n      dup1\n      0x40\n      add\n      0x40\n      mstore\n      swap1\n      dup2\n      0x00\n      dup3\n      add\n      0x00\n      swap1\n      sload\n      swap1\n      0x0100\n      exp\n      swap1\n      div\n      0xffffffffffffffffffffffffffffffffffffffff\n      and\n      0xffffffffffffffffffffffffffffffffffffffff\n      and\n      0xffffffffffffffffffffffffffffffffffffffff\n      and\n      dup2\n      mstore\n      0x20\n      add\n      0x01\n      dup3\n      add\n      0x00\n      swap1\n      sload\n      swap1\n      0x0100\n      exp\n      swap1\n      div\n      0xffffffffffffffffffffffffffffffffffffffff\n      and\n      0xffffffffffffffffffffffffffffffffffffffff\n      and\n      0xffffffffffffffffffffffffffffffffffffffff\n      and\n      dup2\n      mstore\n      pop\n      pop\n      swap1\n      pop\n        /* \"DraftRouter.sol\":8220:8239  address poolAddress */\n      0x00\n        /* \"DraftRouter.sol\":8242:8252  getDetails */\n      dup2\n        /* \"DraftRouter.sol\":8242:8264  getDetails.PoolAddress */\n      0x00\n      add\n      mload\n        /* \"DraftRouter.sol\":8220:8264  address poolAddress = getDetails.PoolAddress */\n      swap1\n      pop\n        /* \"DraftRouter.sol\":8274:8295  address tokenToUseNow */\n      0x00\n        /* \"DraftRouter.sol\":8298:8308  getDetails */\n      dup3\n        /* \"DraftRouter.sol\":8298:8323  getDetails.PoolTokenToUse */\n      0x20\n      add\n      mload\n        /* \"DraftRouter.sol\":8274:8323  address tokenToUseNow = getDetails.PoolTokenToUse */\n      swap1\n      pop\n        /* \"DraftRouter.sol\":8334:8357  uint256 amountToDeposit */\n      0x00\n        /* \"DraftRouter.sol\":8360:8399  getTokenFromUser(tokenToUseNow, amount) */\n      tag_229\n        /* \"DraftRouter.sol\":8377:8390  tokenToUseNow */\n      dup3\n        /* \"DraftRouter.sol\":8392:8398  amount */\n      dup8\n        /* \"DraftRouter.sol\":8360:8376  getTokenFromUser */\n      tag_230\n        /* \"DraftRouter.sol\":8360:8399  getTokenFromUser(tokenToUseNow, amount) */\n      jump\t// in\n    tag_229:\n        /* \"DraftRouter.sol\":8334:8399  uint256 amountToDeposit = getTokenFromUser(tokenToUseNow, amount) */\n      swap1\n      pop\n        /* \"DraftRouter.sol\":8409:8479  depositToPool(msg.sender, poolAddress, tokenToUseNow, amountToDeposit) */\n      tag_231\n        /* \"DraftRouter.sol\":8423:8433  msg.sender */\n      caller\n        /* \"DraftRouter.sol\":8435:8446  poolAddress */\n      dup5\n        /* \"DraftRouter.sol\":8448:8461  tokenToUseNow */\n      dup5\n        /* \"DraftRouter.sol\":8463:8478  amountToDeposit */\n      dup5\n        /* \"DraftRouter.sol\":8409:8422  depositToPool */\n      tag_232\n        /* \"DraftRouter.sol\":8409:8479  depositToPool(msg.sender, poolAddress, tokenToUseNow, amountToDeposit) */\n      jump\t// in\n    tag_231:\n        /* \"DraftRouter.sol\":8495:8546  deposited(msg.sender, poolAddress, amountToDeposit) */\n      0x8fa12fdef5e29f599717a6d129ca52c2d8a902498312eab6a78c6090b8e8e0\n        /* \"DraftRouter.sol\":8505:8515  msg.sender */\n      caller\n        /* \"DraftRouter.sol\":8517:8528  poolAddress */\n      dup5\n        /* \"DraftRouter.sol\":8530:8545  amountToDeposit */\n      dup4\n        /* \"DraftRouter.sol\":8495:8546  deposited(msg.sender, poolAddress, amountToDeposit) */\n      mload(0x40)\n      tag_233\n      swap4\n      swap3\n      swap2\n      swap1\n      tag_105\n      jump\t// in\n    tag_233:\n      mload(0x40)\n      dup1\n      swap2\n      sub\n      swap1\n      log1\n        /* \"DraftRouter.sol\":8035:8553  {... */\n      pop\n      pop\n      pop\n      pop\n      pop\n        /* \"DraftRouter.sol\":2426:2427  0 */\n      0x00\n        /* \"DraftRouter.sol\":2417:2423  status */\n      dup1\n        /* \"DraftRouter.sol\":2417:2427  status = 0 */\n      dup2\n      swap1\n      sstore\n      pop\n        /* \"DraftRouter.sol\":7965:8553  function deposit(uint256 poolID, uint256 amount) external nonReentrant{... */\n      pop\n      pop\n      jump\t// out\n        /* \"DraftRouter.sol\":2778:2912  function changeRegistryContractAddr(address registryAddress) external onlyOwner{... */\n    tag_76:\n        /* \"DraftRouter.sol\":1995:2007  address role */\n      0x00\n        /* \"DraftRouter.sol\":2024:2040  registryContract */\n      0x02\n      0x00\n      swap1\n      sload\n      swap1\n      0x0100\n      exp\n      swap1\n      div\n      0xffffffffffffffffffffffffffffffffffffffff\n      and\n        /* \"DraftRouter.sol\":2010:2050  IRoleRegistry(registryContract).getOwner */\n      0xffffffffffffffffffffffffffffffffffffffff\n      and\n      0x893d20e8\n        /* \"DraftRouter.sol\":2010:2052  IRoleRegistry(registryContract).getOwner() */\n      mload(0x40)\n      dup2\n      0xffffffff\n      and\n      0xe0\n      shl\n      dup2\n      mstore\n      0x04\n      add\n      0x20\n      mload(0x40)\n      dup1\n      dup4\n      sub\n      dup2\n      dup7\n      gas\n      staticcall\n      iszero\n      dup1\n      iszero\n      tag_236\n      jumpi\n      returndatasize\n      0x00\n      dup1\n      returndatacopy\n      revert(0x00, returndatasize)\n    tag_236:\n      pop\n      pop\n      pop\n      pop\n      mload(0x40)\n      returndatasize\n      not(0x1f)\n      0x1f\n      dup3\n      add\n      and\n      dup3\n      add\n      dup1\n      0x40\n      mstore\n      pop\n      dup2\n      add\n      swap1\n      tag_237\n      swap2\n      swap1\n      tag_155\n      jump\t// in\n    tag_237:\n        /* \"DraftRouter.sol\":1995:2052  address role = IRoleRegistry(registryContract).getOwner() */\n      swap1\n      pop\n        /* \"DraftRouter.sol\":2084:2088  role */\n      dup1\n        /* \"DraftRouter.sol\":2070:2088  msg.sender == role */\n      0xffffffffffffffffffffffffffffffffffffffff\n      and\n        /* \"DraftRouter.sol\":2070:2080  msg.sender */\n      caller\n        /* \"DraftRouter.sol\":2070:2088  msg.sender == role */\n      0xffffffffffffffffffffffffffffffffffffffff\n      and\n      eq\n        /* \"DraftRouter.sol\":2062:2107  require(msg.sender == role, \"Invalid caller\") */\n      tag_238\n      jumpi\n      mload(0x40)\n      0x08c379a000000000000000000000000000000000000000000000000000000000\n      dup2\n      mstore\n      0x04\n      add\n      tag_239\n      swap1\n      tag_158\n      jump\t// in\n    tag_239:\n      mload(0x40)\n      dup1\n      swap2\n      sub\n      swap1\n      revert\n    tag_238:\n        /* \"DraftRouter.sol\":2867:2905  _transferRegistryAddr(registryAddress) */\n      tag_241\n        /* \"DraftRouter.sol\":2889:2904  registryAddress */\n      dup3\n        /* \"DraftRouter.sol\":2867:2888  _transferRegistryAddr */\n      tag_207\n        /* \"DraftRouter.sol\":2867:2905  _transferRegistryAddr(registryAddress) */\n      jump\t// in\n    tag_241:\n        /* \"DraftRouter.sol\":1985:2125  {... */\n      pop\n        /* \"DraftRouter.sol\":2778:2912  function changeRegistryContractAddr(address registryAddress) external onlyOwner{... */\n      pop\n      jump\t// out\n        /* \"DraftRouter.sol\":4450:5098  function getUserDepositInfo(uint256 poolID, address user) external view returns(userInfo memory){... */\n    tag_80:\n        /* \"DraftRouter.sol\":4530:4545  userInfo memory */\n      tag_242\n      tag_243\n      jump\t// in\n    tag_242:\n        /* \"DraftRouter.sol\":4557:4575  uint256 poolLength */\n      0x00\n        /* \"DraftRouter.sol\":4578:4588  PoolDetail */\n      0x01\n        /* \"DraftRouter.sol\":4578:4595  PoolDetail.length */\n      dup1\n      sload\n      swap1\n      pop\n        /* \"DraftRouter.sol\":4557:4595  uint256 poolLength = PoolDetail.length */\n      swap1\n      pop\n        /* \"DraftRouter.sol\":4634:4635  1 */\n      0x01\n        /* \"DraftRouter.sol\":4623:4633  poolLength */\n      dup2\n        /* \"DraftRouter.sol\":4623:4635  poolLength-1 */\n      tag_245\n      swap2\n      swap1\n      tag_94\n      jump\t// in\n    tag_245:\n        /* \"DraftRouter.sol\":4613:4619  poolID */\n      dup5\n        /* \"DraftRouter.sol\":4613:4635  poolID <= poolLength-1 */\n      gt\n      iszero\n        /* \"DraftRouter.sol\":4605:4658  require(poolID <= poolLength-1, \"Pool doesn't exist\") */\n      tag_246\n      jumpi\n      mload(0x40)\n      0x08c379a000000000000000000000000000000000000000000000000000000000\n      dup2\n      mstore\n      0x04\n      add\n      tag_247\n      swap1\n      tag_97\n      jump\t// in\n    tag_247:\n      mload(0x40)\n      dup1\n      swap2\n      sub\n      swap1\n      revert\n    tag_246:\n        /* \"DraftRouter.sol\":4668:4687  address poolAddress */\n      0x00\n        /* \"DraftRouter.sol\":4690:4712  getPoolDetails(poolID) */\n      tag_248\n        /* \"DraftRouter.sol\":4705:4711  poolID */\n      dup6\n        /* \"DraftRouter.sol\":4690:4704  getPoolDetails */\n      tag_61\n        /* \"DraftRouter.sol\":4690:4712  getPoolDetails(poolID) */\n      jump\t// in\n    tag_248:\n        /* \"DraftRouter.sol\":4690:4724  getPoolDetails(poolID).PoolAddress */\n      0x00\n      add\n      mload\n        /* \"DraftRouter.sol\":4668:4724  address poolAddress = getPoolDetails(poolID).PoolAddress */\n      swap1\n      pop\n        /* \"DraftRouter.sol\":4734:4756  userInfo memory result */\n      0x00\n        /* \"DraftRouter.sol\":4759:5068  userInfo({... */\n      mload(0x40)\n      dup1\n      0x80\n      add\n      0x40\n      mstore\n      dup1\n        /* \"DraftRouter.sol\":4791:4795  user */\n      dup7\n        /* \"DraftRouter.sol\":4759:5068  userInfo({... */\n      0xffffffffffffffffffffffffffffffffffffffff\n      and\n      dup2\n      mstore\n      0x20\n      add\n        /* \"DraftRouter.sol\":4832:4843  poolAddress */\n      dup4\n        /* \"DraftRouter.sol\":4820:4863  IMutualPool(poolAddress).getUserDepositInfo */\n      0xffffffffffffffffffffffffffffffffffffffff\n      and\n      0xb3a7834d\n        /* \"DraftRouter.sol\":4864:4868  user */\n      dup9\n        /* \"DraftRouter.sol\":4820:4869  IMutualPool(poolAddress).getUserDepositInfo(user) */\n      mload(0x40)\n      dup3\n      0xffffffff\n      and\n      0xe0\n      shl\n      dup2\n      mstore\n      0x04\n      add\n      tag_249\n      swap2\n      swap1\n      tag_139\n      jump\t// in\n    tag_249:\n      0x80\n      mload(0x40)\n      dup1\n      dup4\n      sub\n      dup2\n      dup7\n      gas\n      staticcall\n      iszero\n      dup1\n      iszero\n      tag_251\n      jumpi\n      returndatasize\n      0x00\n      dup1\n      returndatacopy\n      revert(0x00, returndatasize)\n    tag_251:\n      pop\n      pop\n      pop\n      pop\n      mload(0x40)\n      returndatasize\n      not(0x1f)\n      0x1f\n      dup3\n      add\n      and\n      dup3\n      add\n      dup1\n      0x40\n      mstore\n      pop\n      dup2\n      add\n      swap1\n      tag_252\n      swap2\n      swap1\n      tag_253\n      jump\t// in\n    tag_252:\n        /* \"DraftRouter.sol\":4820:4883  IMutualPool(poolAddress).getUserDepositInfo(user).DepositAmount */\n      0x20\n      add\n      mload\n        /* \"DraftRouter.sol\":4759:5068  userInfo({... */\n      dup2\n      mstore\n      0x20\n      add\n        /* \"DraftRouter.sol\":4921:4932  poolAddress */\n      dup4\n        /* \"DraftRouter.sol\":4909:4952  IMutualPool(poolAddress).getUserDepositInfo */\n      0xffffffffffffffffffffffffffffffffffffffff\n      and\n      0xb3a7834d\n        /* \"DraftRouter.sol\":4953:4957  user */\n      dup9\n        /* \"DraftRouter.sol\":4909:4958  IMutualPool(poolAddress).getUserDepositInfo(user) */\n      mload(0x40)\n      dup3\n      0xffffffff\n      and\n      0xe0\n      shl\n      dup2\n      mstore\n      0x04\n      add\n      tag_254\n      swap2\n      swap1\n      tag_139\n      jump\t// in\n    tag_254:\n      0x80\n      mload(0x40)\n      dup1\n      dup4\n      sub\n      dup2\n      dup7\n      gas\n      staticcall\n      iszero\n      dup1\n      iszero\n      tag_256\n      jumpi\n      returndatasize\n      0x00\n      dup1\n      returndatacopy\n      revert(0x00, returndatasize)\n    tag_256:\n      pop\n      pop\n      pop\n      pop\n      mload(0x40)\n      returndatasize\n      not(0x1f)\n      0x1f\n      dup3\n      add\n      and\n      dup3\n      add\n      dup1\n      0x40\n      mstore\n      pop\n      dup2\n      add\n      swap1\n      tag_257\n      swap2\n      swap1\n      tag_253\n      jump\t// in\n    tag_257:\n        /* \"DraftRouter.sol\":4909:4973  IMutualPool(poolAddress).getUserDepositInfo(user).registeredDate */\n      0x40\n      add\n      mload\n        /* \"DraftRouter.sol\":4759:5068  userInfo({... */\n      dup2\n      mstore\n      0x20\n      add\n        /* \"DraftRouter.sol\":5008:5019  poolAddress */\n      dup4\n        /* \"DraftRouter.sol\":4996:5039  IMutualPool(poolAddress).getUserDepositInfo */\n      0xffffffffffffffffffffffffffffffffffffffff\n      and\n      0xb3a7834d\n        /* \"DraftRouter.sol\":5040:5044  user */\n      dup9\n        /* \"DraftRouter.sol\":4996:5045  IMutualPool(poolAddress).getUserDepositInfo(user) */\n      mload(0x40)\n      dup3\n      0xffffffff\n      and\n      0xe0\n      shl\n      dup2\n      mstore\n      0x04\n      add\n      tag_258\n      swap2\n      swap1\n      tag_139\n      jump\t// in\n    tag_258:\n      0x80\n      mload(0x40)\n      dup1\n      dup4\n      sub\n      dup2\n      dup7\n      gas\n      staticcall\n      iszero\n      dup1\n      iszero\n      tag_260\n      jumpi\n      returndatasize\n      0x00\n      dup1\n      returndatacopy\n      revert(0x00, returndatasize)\n    tag_260:\n      pop\n      pop\n      pop\n      pop\n      mload(0x40)\n      returndatasize\n      not(0x1f)\n      0x1f\n      dup3\n      add\n      and\n      dup3\n      add\n      dup1\n      0x40\n      mstore\n      pop\n      dup2\n      add\n      swap1\n      tag_261\n      swap2\n      swap1\n      tag_253\n      jump\t// in\n    tag_261:\n        /* \"DraftRouter.sol\":4996:5057  IMutualPool(poolAddress).getUserDepositInfo(user).Lastupdated */\n      0x60\n      add\n      mload\n        /* \"DraftRouter.sol\":4759:5068  userInfo({... */\n      dup2\n      mstore\n      pop\n        /* \"DraftRouter.sol\":4734:5068  userInfo memory result = userInfo({... */\n      swap1\n      pop\n        /* \"DraftRouter.sol\":5085:5091  result */\n      dup1\n        /* \"DraftRouter.sol\":5078:5091  return result */\n      swap4\n      pop\n      pop\n      pop\n      pop\n        /* \"DraftRouter.sol\":4450:5098  function getUserDepositInfo(uint256 poolID, address user) external view returns(userInfo memory){... */\n      swap3\n      swap2\n      pop\n      pop\n      jump\t// out\n        /* \"DraftRouter.sol\":5882:7844  function getPoolDrawInfo(uint256 epochNumber,uint256 poolID) external view returns(EpochResult memory){... */\n    tag_85:\n        /* \"DraftRouter.sol\":5965:5983  EpochResult memory */\n      tag_262\n      tag_263\n      jump\t// in\n    tag_262:\n        /* \"DraftRouter.sol\":6003:6021  uint256 poolLength */\n      0x00\n        /* \"DraftRouter.sol\":6024:6034  PoolDetail */\n      0x01\n        /* \"DraftRouter.sol\":6024:6041  PoolDetail.length */\n      dup1\n      sload\n      swap1\n      pop\n        /* \"DraftRouter.sol\":6003:6041  uint256 poolLength = PoolDetail.length */\n      swap1\n      pop\n        /* \"DraftRouter.sol\":6080:6081  1 */\n      0x01\n        /* \"DraftRouter.sol\":6069:6079  poolLength */\n      dup2\n        /* \"DraftRouter.sol\":6069:6081  poolLength-1 */\n      tag_265\n      swap2\n      swap1\n      tag_94\n      jump\t// in\n    tag_265:\n        /* \"DraftRouter.sol\":6059:6065  poolID */\n      dup4\n        /* \"DraftRouter.sol\":6059:6081  poolID <= poolLength-1 */\n      gt\n      iszero\n        /* \"DraftRouter.sol\":6051:6104  require(poolID <= poolLength-1, \"Pool doesn't exist\") */\n      tag_266\n      jumpi\n      mload(0x40)\n      0x08c379a000000000000000000000000000000000000000000000000000000000\n      dup2\n      mstore\n      0x04\n      add\n      tag_267\n      swap1\n      tag_97\n      jump\t// in\n    tag_267:\n      mload(0x40)\n      dup1\n      swap2\n      sub\n      swap1\n      revert\n    tag_266:\n        /* \"DraftRouter.sol\":6114:6133  address poolAddress */\n      0x00\n        /* \"DraftRouter.sol\":6136:6158  getPoolDetails(poolID) */\n      tag_268\n        /* \"DraftRouter.sol\":6151:6157  poolID */\n      dup5\n        /* \"DraftRouter.sol\":6136:6150  getPoolDetails */\n      tag_61\n        /* \"DraftRouter.sol\":6136:6158  getPoolDetails(poolID) */\n      jump\t// in\n    tag_268:\n        /* \"DraftRouter.sol\":6136:6170  getPoolDetails(poolID).PoolAddress */\n      0x00\n      add\n      mload\n        /* \"DraftRouter.sol\":6114:6170  address poolAddress = getPoolDetails(poolID).PoolAddress */\n      swap1\n      pop\n        /* \"DraftRouter.sol\":6181:6213  PrizeDetails memory firstDetails */\n      0x00\n        /* \"DraftRouter.sol\":6216:6509  PrizeDetails({... */\n      mload(0x40)\n      dup1\n      0x60\n      add\n      0x40\n      mstore\n      dup1\n        /* \"DraftRouter.sol\":6263:6274  poolAddress */\n      dup4\n        /* \"DraftRouter.sol\":6251:6288  IMutualPool(poolAddress).getEpochInfo */\n      0xffffffffffffffffffffffffffffffffffffffff\n      and\n      0x135022c2\n        /* \"DraftRouter.sol\":6289:6300  epochNumber */\n      dup10\n        /* \"DraftRouter.sol\":6251:6301  IMutualPool(poolAddress).getEpochInfo(epochNumber) */\n      mload(0x40)\n      dup3\n      0xffffffff\n      and\n      0xe0\n      shl\n      dup2\n      mstore\n      0x04\n      add\n      tag_269\n      swap2\n      swap1\n      tag_31\n      jump\t// in\n    tag_269:\n      0x01c0\n      mload(0x40)\n      dup1\n      dup4\n      sub\n      dup2\n      dup7\n      gas\n      staticcall\n      iszero\n      dup1\n      iszero\n      tag_271\n      jumpi\n      returndatasize\n      0x00\n      dup1\n      returndatacopy\n      revert(0x00, returndatasize)\n    tag_271:\n      pop\n      pop\n      pop\n      pop\n      mload(0x40)\n      returndatasize\n      not(0x1f)\n      0x1f\n      dup3\n      add\n      and\n      dup3\n      add\n      dup1\n      0x40\n      mstore\n      pop\n      dup2\n      add\n      swap1\n      tag_272\n      swap2\n      swap1\n      tag_273\n      jump\t// in\n    tag_272:\n        /* \"DraftRouter.sol\":6251:6307  IMutualPool(poolAddress).getEpochInfo(epochNumber).first */\n      0x00\n      add\n      mload\n        /* \"DraftRouter.sol\":6251:6314  IMutualPool(poolAddress).getEpochInfo(epochNumber).first.winner */\n      0x00\n      add\n      mload\n        /* \"DraftRouter.sol\":6216:6509  PrizeDetails({... */\n      0xffffffffffffffffffffffffffffffffffffffff\n      and\n      dup2\n      mstore\n      0x20\n      add\n        /* \"DraftRouter.sol\":6354:6365  poolAddress */\n      dup4\n        /* \"DraftRouter.sol\":6342:6379  IMutualPool(poolAddress).getEpochInfo */\n      0xffffffffffffffffffffffffffffffffffffffff\n      and\n      0x135022c2\n        /* \"DraftRouter.sol\":6380:6391  epochNumber */\n      dup10\n        /* \"DraftRouter.sol\":6342:6392  IMutualPool(poolAddress).getEpochInfo(epochNumber) */\n      mload(0x40)\n      dup3\n      0xffffffff\n      and\n      0xe0\n      shl\n      dup2\n      mstore\n      0x04\n      add\n      tag_274\n      swap2\n      swap1\n      tag_31\n      jump\t// in\n    tag_274:\n      0x01c0\n      mload(0x40)\n      dup1\n      dup4\n      sub\n      dup2\n      dup7\n      gas\n      staticcall\n      iszero\n      dup1\n      iszero\n      tag_276\n      jumpi\n      returndatasize\n      0x00\n      dup1\n      returndatacopy\n      revert(0x00, returndatasize)\n    tag_276:\n      pop\n      pop\n      pop\n      pop\n      mload(0x40)\n      returndatasize\n      not(0x1f)\n      0x1f\n      dup3\n      add\n      and\n      dup3\n      add\n      dup1\n      0x40\n      mstore\n      pop\n      dup2\n      add\n      swap1\n      tag_277\n      swap2\n      swap1\n      tag_273\n      jump\t// in\n    tag_277:\n        /* \"DraftRouter.sol\":6342:6398  IMutualPool(poolAddress).getEpochInfo(epochNumber).first */\n      0x00\n      add\n      mload\n        /* \"DraftRouter.sol\":6342:6410  IMutualPool(poolAddress).getEpochInfo(epochNumber).first.prizeAmount */\n      0x20\n      add\n      mload\n        /* \"DraftRouter.sol\":6216:6509  PrizeDetails({... */\n      dup2\n      mstore\n      0x20\n      add\n        /* \"DraftRouter.sol\":6446:6457  poolAddress */\n      dup4\n        /* \"DraftRouter.sol\":6434:6471  IMutualPool(poolAddress).getEpochInfo */\n      0xffffffffffffffffffffffffffffffffffffffff\n      and\n      0x135022c2\n        /* \"DraftRouter.sol\":6472:6483  epochNumber */\n      dup10\n        /* \"DraftRouter.sol\":6434:6484  IMutualPool(poolAddress).getEpochInfo(epochNumber) */\n      mload(0x40)\n      dup3\n      0xffffffff\n      and\n      0xe0\n      shl\n      dup2\n      mstore\n      0x04\n      add\n      tag_278\n      swap2\n      swap1\n      tag_31\n      jump\t// in\n    tag_278:\n      0x01c0\n      mload(0x40)\n      dup1\n      dup4\n      sub\n      dup2\n      dup7\n      gas\n      staticcall\n      iszero\n      dup1\n      iszero\n      tag_280\n      jumpi\n      returndatasize\n      0x00\n      dup1\n      returndatacopy\n      revert(0x00, returndatasize)\n    tag_280:\n      pop\n      pop\n      pop\n      pop\n      mload(0x40)\n      returndatasize\n      not(0x1f)\n      0x1f\n      dup3\n      add\n      and\n      dup3\n      add\n      dup1\n      0x40\n      mstore\n      pop\n      dup2\n      add\n      swap1\n      tag_281\n      swap2\n      swap1\n      tag_273\n      jump\t// in\n    tag_281:\n        /* \"DraftRouter.sol\":6434:6490  IMutualPool(poolAddress).getEpochInfo(epochNumber).first */\n      0x00\n      add\n      mload\n        /* \"DraftRouter.sol\":6434:6498  IMutualPool(poolAddress).getEpochInfo(epochNumber).first.claimed */\n      0x40\n      add\n      mload\n        /* \"DraftRouter.sol\":6216:6509  PrizeDetails({... */\n      iszero\n      iszero\n      dup2\n      mstore\n      pop\n        /* \"DraftRouter.sol\":6181:6509  PrizeDetails memory firstDetails = PrizeDetails({... */\n      swap1\n      pop\n        /* \"DraftRouter.sol\":6519:6552  PrizeDetails memory secondDetails */\n      0x00\n        /* \"DraftRouter.sol\":6555:6851  PrizeDetails({... */\n      mload(0x40)\n      dup1\n      0x60\n      add\n      0x40\n      mstore\n      dup1\n        /* \"DraftRouter.sol\":6602:6613  poolAddress */\n      dup5\n        /* \"DraftRouter.sol\":6590:6627  IMutualPool(poolAddress).getEpochInfo */\n      0xffffffffffffffffffffffffffffffffffffffff\n      and\n      0x135022c2\n        /* \"DraftRouter.sol\":6628:6639  epochNumber */\n      dup11\n        /* \"DraftRouter.sol\":6590:6640  IMutualPool(poolAddress).getEpochInfo(epochNumber) */\n      mload(0x40)\n      dup3\n      0xffffffff\n      and\n      0xe0\n      shl\n      dup2\n      mstore\n      0x04\n      add\n      tag_282\n      swap2\n      swap1\n      tag_31\n      jump\t// in\n    tag_282:\n      0x01c0\n      mload(0x40)\n      dup1\n      dup4\n      sub\n      dup2\n      dup7\n      gas\n      staticcall\n      iszero\n      dup1\n      iszero\n      tag_284\n      jumpi\n      returndatasize\n      0x00\n      dup1\n      returndatacopy\n      revert(0x00, returndatasize)\n    tag_284:\n      pop\n      pop\n      pop\n      pop\n      mload(0x40)\n      returndatasize\n      not(0x1f)\n      0x1f\n      dup3\n      add\n      and\n      dup3\n      add\n      dup1\n      0x40\n      mstore\n      pop\n      dup2\n      add\n      swap1\n      tag_285\n      swap2\n      swap1\n      tag_273\n      jump\t// in\n    tag_285:\n        /* \"DraftRouter.sol\":6590:6647  IMutualPool(poolAddress).getEpochInfo(epochNumber).second */\n      0x20\n      add\n      mload\n        /* \"DraftRouter.sol\":6590:6654  IMutualPool(poolAddress).getEpochInfo(epochNumber).second.winner */\n      0x00\n      add\n      mload\n        /* \"DraftRouter.sol\":6555:6851  PrizeDetails({... */\n      0xffffffffffffffffffffffffffffffffffffffff\n      and\n      dup2\n      mstore\n      0x20\n      add\n        /* \"DraftRouter.sol\":6694:6705  poolAddress */\n      dup5\n        /* \"DraftRouter.sol\":6682:6719  IMutualPool(poolAddress).getEpochInfo */\n      0xffffffffffffffffffffffffffffffffffffffff\n      and\n      0x135022c2\n        /* \"DraftRouter.sol\":6720:6731  epochNumber */\n      dup11\n        /* \"DraftRouter.sol\":6682:6732  IMutualPool(poolAddress).getEpochInfo(epochNumber) */\n      mload(0x40)\n      dup3\n      0xffffffff\n      and\n      0xe0\n      shl\n      dup2\n      mstore\n      0x04\n      add\n      tag_286\n      swap2\n      swap1\n      tag_31\n      jump\t// in\n    tag_286:\n      0x01c0\n      mload(0x40)\n      dup1\n      dup4\n      sub\n      dup2\n      dup7\n      gas\n      staticcall\n      iszero\n      dup1\n      iszero\n      tag_288\n      jumpi\n      returndatasize\n      0x00\n      dup1\n      returndatacopy\n      revert(0x00, returndatasize)\n    tag_288:\n      pop\n      pop\n      pop\n      pop\n      mload(0x40)\n      returndatasize\n      not(0x1f)\n      0x1f\n      dup3\n      add\n      and\n      dup3\n      add\n      dup1\n      0x40\n      mstore\n      pop\n      dup2\n      add\n      swap1\n      tag_289\n      swap2\n      swap1\n      tag_273\n      jump\t// in\n    tag_289:\n        /* \"DraftRouter.sol\":6682:6739  IMutualPool(poolAddress).getEpochInfo(epochNumber).second */\n      0x20\n      add\n      mload\n        /* \"DraftRouter.sol\":6682:6751  IMutualPool(poolAddress).getEpochInfo(epochNumber).second.prizeAmount */\n      0x20\n      add\n      mload\n        /* \"DraftRouter.sol\":6555:6851  PrizeDetails({... */\n      dup2\n      mstore\n      0x20\n      add\n        /* \"DraftRouter.sol\":6787:6798  poolAddress */\n      dup5\n        /* \"DraftRouter.sol\":6775:6812  IMutualPool(poolAddress).getEpochInfo */\n      0xffffffffffffffffffffffffffffffffffffffff\n      and\n      0x135022c2\n        /* \"DraftRouter.sol\":6813:6824  epochNumber */\n      dup11\n        /* \"DraftRouter.sol\":6775:6825  IMutualPool(poolAddress).getEpochInfo(epochNumber) */\n      mload(0x40)\n      dup3\n      0xffffffff\n      and\n      0xe0\n      shl\n      dup2\n      mstore\n      0x04\n      add\n      tag_290\n      swap2\n      swap1\n      tag_31\n      jump\t// in\n    tag_290:\n      0x01c0\n      mload(0x40)\n      dup1\n      dup4\n      sub\n      dup2\n      dup7\n      gas\n      staticcall\n      iszero\n      dup1\n      iszero\n      tag_292\n      jumpi\n      returndatasize\n      0x00\n      dup1\n      returndatacopy\n      revert(0x00, returndatasize)\n    tag_292:\n      pop\n      pop\n      pop\n      pop\n      mload(0x40)\n      returndatasize\n      not(0x1f)\n      0x1f\n      dup3\n      add\n      and\n      dup3\n      add\n      dup1\n      0x40\n      mstore\n      pop\n      dup2\n      add\n      swap1\n      tag_293\n      swap2\n      swap1\n      tag_273\n      jump\t// in\n    tag_293:\n        /* \"DraftRouter.sol\":6775:6832  IMutualPool(poolAddress).getEpochInfo(epochNumber).second */\n      0x20\n      add\n      mload\n        /* \"DraftRouter.sol\":6775:6840  IMutualPool(poolAddress).getEpochInfo(epochNumber).second.claimed */\n      0x40\n      add\n      mload\n        /* \"DraftRouter.sol\":6555:6851  PrizeDetails({... */\n      iszero\n      iszero\n      dup2\n      mstore\n      pop\n        /* \"DraftRouter.sol\":6519:6851  PrizeDetails memory secondDetails = PrizeDetails({... */\n      swap1\n      pop\n        /* \"DraftRouter.sol\":6861:6893  PrizeDetails memory thirdDetails */\n      0x00\n        /* \"DraftRouter.sol\":6896:7189  PrizeDetails({... */\n      mload(0x40)\n      dup1\n      0x60\n      add\n      0x40\n      mstore\n      dup1\n        /* \"DraftRouter.sol\":6943:6954  poolAddress */\n      dup6\n        /* \"DraftRouter.sol\":6931:6968  IMutualPool(poolAddress).getEpochInfo */\n      0xffffffffffffffffffffffffffffffffffffffff\n      and\n      0x135022c2\n        /* \"DraftRouter.sol\":6969:6980  epochNumber */\n      dup12\n        /* \"DraftRouter.sol\":6931:6981  IMutualPool(poolAddress).getEpochInfo(epochNumber) */\n      mload(0x40)\n      dup3\n      0xffffffff\n      and\n      0xe0\n      shl\n      dup2\n      mstore\n      0x04\n      add\n      tag_294\n      swap2\n      swap1\n      tag_31\n      jump\t// in\n    tag_294:\n      0x01c0\n      mload(0x40)\n      dup1\n      dup4\n      sub\n      dup2\n      dup7\n      gas\n      staticcall\n      iszero\n      dup1\n      iszero\n      tag_296\n      jumpi\n      returndatasize\n      0x00\n      dup1\n      returndatacopy\n      revert(0x00, returndatasize)\n    tag_296:\n      pop\n      pop\n      pop\n      pop\n      mload(0x40)\n      returndatasize\n      not(0x1f)\n      0x1f\n      dup3\n      add\n      and\n      dup3\n      add\n      dup1\n      0x40\n      mstore\n      pop\n      dup2\n      add\n      swap1\n      tag_297\n      swap2\n      swap1\n      tag_273\n      jump\t// in\n    tag_297:\n        /* \"DraftRouter.sol\":6931:6987  IMutualPool(poolAddress).getEpochInfo(epochNumber).third */\n      0x40\n      add\n      mload\n        /* \"DraftRouter.sol\":6931:6994  IMutualPool(poolAddress).getEpochInfo(epochNumber).third.winner */\n      0x00\n      add\n      mload\n        /* \"DraftRouter.sol\":6896:7189  PrizeDetails({... */\n      0xffffffffffffffffffffffffffffffffffffffff\n      and\n      dup2\n      mstore\n      0x20\n      add\n        /* \"DraftRouter.sol\":7034:7045  poolAddress */\n      dup6\n        /* \"DraftRouter.sol\":7022:7059  IMutualPool(poolAddress).getEpochInfo */\n      0xffffffffffffffffffffffffffffffffffffffff\n      and\n      0x135022c2\n        /* \"DraftRouter.sol\":7060:7071  epochNumber */\n      dup12\n        /* \"DraftRouter.sol\":7022:7072  IMutualPool(poolAddress).getEpochInfo(epochNumber) */\n      mload(0x40)\n      dup3\n      0xffffffff\n      and\n      0xe0\n      shl\n      dup2\n      mstore\n      0x04\n      add\n      tag_298\n      swap2\n      swap1\n      tag_31\n      jump\t// in\n    tag_298:\n      0x01c0\n      mload(0x40)\n      dup1\n      dup4\n      sub\n      dup2\n      dup7\n      gas\n      staticcall\n      iszero\n      dup1\n      iszero\n      tag_300\n      jumpi\n      returndatasize\n      0x00\n      dup1\n      returndatacopy\n      revert(0x00, returndatasize)\n    tag_300:\n      pop\n      pop\n      pop\n      pop\n      mload(0x40)\n      returndatasize\n      not(0x1f)\n      0x1f\n      dup3\n      add\n      and\n      dup3\n      add\n      dup1\n      0x40\n      mstore\n      pop\n      dup2\n      add\n      swap1\n      tag_301\n      swap2\n      swap1\n      tag_273\n      jump\t// in\n    tag_301:\n        /* \"DraftRouter.sol\":7022:7078  IMutualPool(poolAddress).getEpochInfo(epochNumber).third */\n      0x40\n      add\n      mload\n        /* \"DraftRouter.sol\":7022:7090  IMutualPool(poolAddress).getEpochInfo(epochNumber).third.prizeAmount */\n      0x20\n      add\n      mload\n        /* \"DraftRouter.sol\":6896:7189  PrizeDetails({... */\n      dup2\n      mstore\n      0x20\n      add\n        /* \"DraftRouter.sol\":7126:7137  poolAddress */\n      dup6\n        /* \"DraftRouter.sol\":7114:7151  IMutualPool(poolAddress).getEpochInfo */\n      0xffffffffffffffffffffffffffffffffffffffff\n      and\n      0x135022c2\n        /* \"DraftRouter.sol\":7152:7163  epochNumber */\n      dup12\n        /* \"DraftRouter.sol\":7114:7164  IMutualPool(poolAddress).getEpochInfo(epochNumber) */\n      mload(0x40)\n      dup3\n      0xffffffff\n      and\n      0xe0\n      shl\n      dup2\n      mstore\n      0x04\n      add\n      tag_302\n      swap2\n      swap1\n      tag_31\n      jump\t// in\n    tag_302:\n      0x01c0\n      mload(0x40)\n      dup1\n      dup4\n      sub\n      dup2\n      dup7\n      gas\n      staticcall\n      iszero\n      dup1\n      iszero\n      tag_304\n      jumpi\n      returndatasize\n      0x00\n      dup1\n      returndatacopy\n      revert(0x00, returndatasize)\n    tag_304:\n      pop\n      pop\n      pop\n      pop\n      mload(0x40)\n      returndatasize\n      not(0x1f)\n      0x1f\n      dup3\n      add\n      and\n      dup3\n      add\n      dup1\n      0x40\n      mstore\n      pop\n      dup2\n      add\n      swap1\n      tag_305\n      swap2\n      swap1\n      tag_273\n      jump\t// in\n    tag_305:\n        /* \"DraftRouter.sol\":7114:7170  IMutualPool(poolAddress).getEpochInfo(epochNumber).third */\n      0x40\n      add\n      mload\n        /* \"DraftRouter.sol\":7114:7178  IMutualPool(poolAddress).getEpochInfo(epochNumber).third.claimed */\n      0x40\n      add\n      mload\n        /* \"DraftRouter.sol\":6896:7189  PrizeDetails({... */\n      iszero\n      iszero\n      dup2\n      mstore\n      pop\n        /* \"DraftRouter.sol\":6861:7189  PrizeDetails memory thirdDetails = PrizeDetails({... */\n      swap1\n      pop\n        /* \"DraftRouter.sol\":7200:7225  EpochResult memory result */\n      0x00\n        /* \"DraftRouter.sol\":7228:7805  EpochResult({... */\n      mload(0x40)\n      dup1\n      0x0100\n      add\n      0x40\n      mstore\n      dup1\n        /* \"DraftRouter.sol\":7261:7273  firstDetails */\n      dup6\n        /* \"DraftRouter.sol\":7228:7805  EpochResult({... */\n      dup2\n      mstore\n      0x20\n      add\n        /* \"DraftRouter.sol\":7295:7308  secondDetails */\n      dup5\n        /* \"DraftRouter.sol\":7228:7805  EpochResult({... */\n      dup2\n      mstore\n      0x20\n      add\n        /* \"DraftRouter.sol\":7329:7341  thirdDetails */\n      dup4\n        /* \"DraftRouter.sol\":7228:7805  EpochResult({... */\n      dup2\n      mstore\n      0x20\n      add\n        /* \"DraftRouter.sol\":7378:7389  poolAddress */\n      dup7\n        /* \"DraftRouter.sol\":7366:7403  IMutualPool(poolAddress).getEpochInfo */\n      0xffffffffffffffffffffffffffffffffffffffff\n      and\n      0x135022c2\n        /* \"DraftRouter.sol\":7404:7415  epochNumber */\n      dup13\n        /* \"DraftRouter.sol\":7366:7416  IMutualPool(poolAddress).getEpochInfo(epochNumber) */\n      mload(0x40)\n      dup3\n      0xffffffff\n      and\n      0xe0\n      shl\n      dup2\n      mstore\n      0x04\n      add\n      tag_306\n      swap2\n      swap1\n      tag_31\n      jump\t// in\n    tag_306:\n      0x01c0\n      mload(0x40)\n      dup1\n      dup4\n      sub\n      dup2\n      dup7\n      gas\n      staticcall\n      iszero\n      dup1\n      iszero\n      tag_308\n      jumpi\n      returndatasize\n      0x00\n      dup1\n      returndatacopy\n      revert(0x00, returndatasize)\n    tag_308:\n      pop\n      pop\n      pop\n      pop\n      mload(0x40)\n      returndatasize\n      not(0x1f)\n      0x1f\n      dup3\n      add\n      and\n      dup3\n      add\n      dup1\n      0x40\n      mstore\n      pop\n      dup2\n      add\n      swap1\n      tag_309\n      swap2\n      swap1\n      tag_273\n      jump\t// in\n    tag_309:\n        /* \"DraftRouter.sol\":7366:7426  IMutualPool(poolAddress).getEpochInfo(epochNumber).finalized */\n      0x60\n      add\n      mload\n        /* \"DraftRouter.sol\":7228:7805  EpochResult({... */\n      iszero\n      iszero\n      dup2\n      mstore\n      0x20\n      add\n        /* \"DraftRouter.sol\":7464:7475  poolAddress */\n      dup7\n        /* \"DraftRouter.sol\":7452:7489  IMutualPool(poolAddress).getEpochInfo */\n      0xffffffffffffffffffffffffffffffffffffffff\n      and\n      0x135022c2\n        /* \"DraftRouter.sol\":7490:7501  epochNumber */\n      dup13\n        /* \"DraftRouter.sol\":7452:7502  IMutualPool(poolAddress).getEpochInfo(epochNumber) */\n      mload(0x40)\n      dup3\n      0xffffffff\n      and\n      0xe0\n      shl\n      dup2\n      mstore\n      0x04\n      add\n      tag_310\n      swap2\n      swap1\n      tag_31\n      jump\t// in\n    tag_310:\n      0x01c0\n      mload(0x40)\n      dup1\n      dup4\n      sub\n      dup2\n      dup7\n      gas\n      staticcall\n      iszero\n      dup1\n      iszero\n      tag_312\n      jumpi\n      returndatasize\n      0x00\n      dup1\n      returndatacopy\n      revert(0x00, returndatasize)\n    tag_312:\n      pop\n      pop\n      pop\n      pop\n      mload(0x40)\n      returndatasize\n      not(0x1f)\n      0x1f\n      dup3\n      add\n      and\n      dup3\n      add\n      dup1\n      0x40\n      mstore\n      pop\n      dup2\n      add\n      swap1\n      tag_313\n      swap2\n      swap1\n      tag_273\n      jump\t// in\n    tag_313:\n        /* \"DraftRouter.sol\":7452:7513  IMutualPool(poolAddress).getEpochInfo(epochNumber).totalPrize */\n      0x80\n      add\n      mload\n        /* \"DraftRouter.sol\":7228:7805  EpochResult({... */\n      dup2\n      mstore\n      0x20\n      add\n        /* \"DraftRouter.sol\":7549:7560  poolAddress */\n      dup7\n        /* \"DraftRouter.sol\":7537:7574  IMutualPool(poolAddress).getEpochInfo */\n      0xffffffffffffffffffffffffffffffffffffffff\n      and\n      0x135022c2\n        /* \"DraftRouter.sol\":7575:7586  epochNumber */\n      dup13\n        /* \"DraftRouter.sol\":7537:7587  IMutualPool(poolAddress).getEpochInfo(epochNumber) */\n      mload(0x40)\n      dup3\n      0xffffffff\n      and\n      0xe0\n      shl\n      dup2\n      mstore\n      0x04\n      add\n      tag_314\n      swap2\n      swap1\n      tag_31\n      jump\t// in\n    tag_314:\n      0x01c0\n      mload(0x40)\n      dup1\n      dup4\n      sub\n      dup2\n      dup7\n      gas\n      staticcall\n      iszero\n      dup1\n      iszero\n      tag_316\n      jumpi\n      returndatasize\n      0x00\n      dup1\n      returndatacopy\n      revert(0x00, returndatasize)\n    tag_316:\n      pop\n      pop\n      pop\n      pop\n      mload(0x40)\n      returndatasize\n      not(0x1f)\n      0x1f\n      dup3\n      add\n      and\n      dup3\n      add\n      dup1\n      0x40\n      mstore\n      pop\n      dup2\n      add\n      swap1\n      tag_317\n      swap2\n      swap1\n      tag_273\n      jump\t// in\n    tag_317:\n        /* \"DraftRouter.sol\":7537:7596  IMutualPool(poolAddress).getEpochInfo(epochNumber).duration */\n      0xa0\n      add\n      mload\n        /* \"DraftRouter.sol\":7228:7805  EpochResult({... */\n      dup2\n      mstore\n      0x20\n      add\n        /* \"DraftRouter.sol\":7640:7651  poolAddress */\n      dup7\n        /* \"DraftRouter.sol\":7628:7665  IMutualPool(poolAddress).getEpochInfo */\n      0xffffffffffffffffffffffffffffffffffffffff\n      and\n      0x135022c2\n        /* \"DraftRouter.sol\":7666:7677  epochNumber */\n      dup13\n        /* \"DraftRouter.sol\":7628:7678  IMutualPool(poolAddress).getEpochInfo(epochNumber) */\n      mload(0x40)\n      dup3\n      0xffffffff\n      and\n      0xe0\n      shl\n      dup2\n      mstore\n      0x04\n      add\n      tag_318\n      swap2\n      swap1\n      tag_31\n      jump\t// in\n    tag_318:\n      0x01c0\n      mload(0x40)\n      dup1\n      dup4\n      sub\n      dup2\n      dup7\n      gas\n      staticcall\n      iszero\n      dup1\n      iszero\n      tag_320\n      jumpi\n      returndatasize\n      0x00\n      dup1\n      returndatacopy\n      revert(0x00, returndatasize)\n    tag_320:\n      pop\n      pop\n      pop\n      pop\n      mload(0x40)\n      returndatasize\n      not(0x1f)\n      0x1f\n      dup3\n      add\n      and\n      dup3\n      add\n      dup1\n      0x40\n      mstore\n      pop\n      dup2\n      add\n      swap1\n      tag_321\n      swap2\n      swap1\n      tag_273\n      jump\t// in\n    tag_321:\n        /* \"DraftRouter.sol\":7628:7695  IMutualPool(poolAddress).getEpochInfo(epochNumber).createdTimeStamp */\n      0xc0\n      add\n      mload\n        /* \"DraftRouter.sol\":7228:7805  EpochResult({... */\n      dup2\n      mstore\n      0x20\n      add\n        /* \"DraftRouter.sol\":7739:7750  poolAddress */\n      dup7\n        /* \"DraftRouter.sol\":7727:7764  IMutualPool(poolAddress).getEpochInfo */\n      0xffffffffffffffffffffffffffffffffffffffff\n      and\n      0x135022c2\n        /* \"DraftRouter.sol\":7765:7776  epochNumber */\n      dup13\n        /* \"DraftRouter.sol\":7727:7777  IMutualPool(poolAddress).getEpochInfo(epochNumber) */\n      mload(0x40)\n      dup3\n      0xffffffff\n      and\n      0xe0\n      shl\n      dup2\n      mstore\n      0x04\n      add\n      tag_322\n      swap2\n      swap1\n      tag_31\n      jump\t// in\n    tag_322:\n      0x01c0\n      mload(0x40)\n      dup1\n      dup4\n      sub\n      dup2\n      dup7\n      gas\n      staticcall\n      iszero\n      dup1\n      iszero\n      tag_324\n      jumpi\n      returndatasize\n      0x00\n      dup1\n      returndatacopy\n      revert(0x00, returndatasize)\n    tag_324:\n      pop\n      pop\n      pop\n      pop\n      mload(0x40)\n      returndatasize\n      not(0x1f)\n      0x1f\n      dup3\n      add\n      and\n      dup3\n      add\n      dup1\n      0x40\n      mstore\n      pop\n      dup2\n      add\n      swap1\n      tag_325\n      swap2\n      swap1\n      tag_273\n      jump\t// in\n    tag_325:\n        /* \"DraftRouter.sol\":7727:7794  IMutualPool(poolAddress).getEpochInfo(epochNumber).totalParticipant */\n      0xe0\n      add\n      mload\n        /* \"DraftRouter.sol\":7228:7805  EpochResult({... */\n      dup2\n      mstore\n      pop\n        /* \"DraftRouter.sol\":7200:7805  EpochResult memory result = EpochResult({... */\n      swap1\n      pop\n        /* \"DraftRouter.sol\":7822:7828  result */\n      dup1\n        /* \"DraftRouter.sol\":7815:7828  return result */\n      swap7\n      pop\n      pop\n      pop\n      pop\n      pop\n      pop\n      pop\n        /* \"DraftRouter.sol\":5882:7844  function getPoolDrawInfo(uint256 epochNumber,uint256 poolID) external view returns(EpochResult memory){... */\n      swap3\n      swap2\n      pop\n      pop\n      jump\t// out\n        /* \"DraftRouter.sol\":10197:10650  function withdrawFromPool(address user, address pool,address token, uint256 amount) internal{... */\n    tag_103:\n        /* \"DraftRouter.sol\":10299:10328  uint256 balanceBeforeWithdraw */\n      0x00\n        /* \"DraftRouter.sol\":10338:10343  token */\n      dup3\n        /* \"DraftRouter.sol\":10331:10354  IERC20(token).balanceOf */\n      0xffffffffffffffffffffffffffffffffffffffff\n      and\n      0x70a08231\n        /* \"DraftRouter.sol\":10363:10367  this */\n      address\n        /* \"DraftRouter.sol\":10331:10369  IERC20(token).balanceOf(address(this)) */\n      mload(0x40)\n      dup3\n      0xffffffff\n      and\n      0xe0\n      shl\n      dup2\n      mstore\n      0x04\n      add\n      tag_327\n      swap2\n      swap1\n      tag_139\n      jump\t// in\n    tag_327:\n      0x20\n      mload(0x40)\n      dup1\n      dup4\n      sub\n      dup2\n      dup7\n      gas\n      staticcall\n      iszero\n      dup1\n      iszero\n      tag_329\n      jumpi\n      returndatasize\n      0x00\n      dup1\n      returndatacopy\n      revert(0x00, returndatasize)\n    tag_329:\n      pop\n      pop\n      pop\n      pop\n      mload(0x40)\n      returndatasize\n      not(0x1f)\n      0x1f\n      dup3\n      add\n      and\n      dup3\n      add\n      dup1\n      0x40\n      mstore\n      pop\n      dup2\n      add\n      swap1\n      tag_330\n      swap2\n      swap1\n      tag_116\n      jump\t// in\n    tag_330:\n        /* \"DraftRouter.sol\":10299:10369  uint256 balanceBeforeWithdraw = IERC20(token).balanceOf(address(this)) */\n      swap1\n      pop\n        /* \"DraftRouter.sol\":10379:10415  _processWithdraw(user, pool, amount) */\n      tag_331\n        /* \"DraftRouter.sol\":10396:10400  user */\n      dup6\n        /* \"DraftRouter.sol\":10402:10406  pool */\n      dup6\n        /* \"DraftRouter.sol\":10408:10414  amount */\n      dup5\n        /* \"DraftRouter.sol\":10379:10395  _processWithdraw */\n      tag_332\n        /* \"DraftRouter.sol\":10379:10415  _processWithdraw(user, pool, amount) */\n      jump\t// in\n    tag_331:\n        /* \"DraftRouter.sol\":10426:10454  uint256 balanceAfterWithdraw */\n      0x00\n        /* \"DraftRouter.sol\":10464:10469  token */\n      dup4\n        /* \"DraftRouter.sol\":10457:10480  IERC20(token).balanceOf */\n      0xffffffffffffffffffffffffffffffffffffffff\n      and\n      0x70a08231\n        /* \"DraftRouter.sol\":10489:10493  this */\n      address\n        /* \"DraftRouter.sol\":10457:10495  IERC20(token).balanceOf(address(this)) */\n      mload(0x40)\n      dup3\n      0xffffffff\n      and\n      0xe0\n      shl\n      dup2\n      mstore\n      0x04\n      add\n      tag_333\n      swap2\n      swap1\n      tag_139\n      jump\t// in\n    tag_333:\n      0x20\n      mload(0x40)\n      dup1\n      dup4\n      sub\n      dup2\n      dup7\n      gas\n      staticcall\n      iszero\n      dup1\n      iszero\n      tag_335\n      jumpi\n      returndatasize\n      0x00\n      dup1\n      returndatacopy\n      revert(0x00, returndatasize)\n    tag_335:\n      pop\n      pop\n      pop\n      pop\n      mload(0x40)\n      returndatasize\n      not(0x1f)\n      0x1f\n      dup3\n      add\n      and\n      dup3\n      add\n      dup1\n      0x40\n      mstore\n      pop\n      dup2\n      add\n      swap1\n      tag_336\n      swap2\n      swap1\n      tag_116\n      jump\t// in\n    tag_336:\n        /* \"DraftRouter.sol\":10426:10495  uint256 balanceAfterWithdraw = IERC20(token).balanceOf(address(this)) */\n      swap1\n      pop\n        /* \"DraftRouter.sol\":10506:10529  uint256 withdrawnAmount */\n      0x00\n        /* \"DraftRouter.sol\":10555:10576  balanceBeforeWithdraw */\n      dup3\n        /* \"DraftRouter.sol\":10532:10552  balanceAfterWithdraw */\n      dup3\n        /* \"DraftRouter.sol\":10532:10576  balanceAfterWithdraw - balanceBeforeWithdraw */\n      tag_337\n      swap2\n      swap1\n      tag_94\n      jump\t// in\n    tag_337:\n        /* \"DraftRouter.sol\":10506:10576  uint256 withdrawnAmount = balanceAfterWithdraw - balanceBeforeWithdraw */\n      swap1\n      pop\n        /* \"DraftRouter.sol\":10587:10643  _processTransferBacktoUser(user, token, withdrawnAmount) */\n      tag_338\n        /* \"DraftRouter.sol\":10614:10618  user */\n      dup8\n        /* \"DraftRouter.sol\":10620:10625  token */\n      dup7\n        /* \"DraftRouter.sol\":10627:10642  withdrawnAmount */\n      dup4\n        /* \"DraftRouter.sol\":10587:10613  _processTransferBacktoUser */\n      tag_189\n        /* \"DraftRouter.sol\":10587:10643  _processTransferBacktoUser(user, token, withdrawnAmount) */\n      jump\t// in\n    tag_338:\n        /* \"DraftRouter.sol\":10289:10650  {... */\n      pop\n      pop\n      pop\n        /* \"DraftRouter.sol\":10197:10650  function withdrawFromPool(address user, address pool,address token, uint256 amount) internal{... */\n      pop\n      pop\n      pop\n      pop\n      jump\t// out\n        /* \"DraftRouter.sol\":11918:12149  function _processClaimReward(address user, address pool) internal returns(uint256) {... */\n    tag_181:\n        /* \"DraftRouter.sol\":11992:11999  uint256 */\n      0x00\n        /* \"DraftRouter.sol\":12011:12025  uint256 amount */\n      dup1\n        /* \"DraftRouter.sol\":12040:12044  pool */\n      dup3\n        /* \"DraftRouter.sol\":12028:12061  IMutualPool(pool).claimRewardsFor */\n      0xffffffffffffffffffffffffffffffffffffffff\n      and\n      0x1ac6d19d\n        /* \"DraftRouter.sol\":12062:12066  user */\n      dup6\n        /* \"DraftRouter.sol\":12028:12067  IMutualPool(pool).claimRewardsFor(user) */\n      mload(0x40)\n      dup3\n      0xffffffff\n      and\n      0xe0\n      shl\n      dup2\n      mstore\n      0x04\n      add\n      tag_340\n      swap2\n      swap1\n      tag_139\n      jump\t// in\n    tag_340:\n      0x20\n      mload(0x40)\n      dup1\n      dup4\n      sub\n      dup2\n      0x00\n      dup8\n      gas\n      call\n      iszero\n      dup1\n      iszero\n      tag_342\n      jumpi\n      returndatasize\n      0x00\n      dup1\n      returndatacopy\n      revert(0x00, returndatasize)\n    tag_342:\n      pop\n      pop\n      pop\n      pop\n      mload(0x40)\n      returndatasize\n      not(0x1f)\n      0x1f\n      dup3\n      add\n      and\n      dup3\n      add\n      dup1\n      0x40\n      mstore\n      pop\n      dup2\n      add\n      swap1\n      tag_343\n      swap2\n      swap1\n      tag_116\n      jump\t// in\n    tag_343:\n        /* \"DraftRouter.sol\":12011:12067  uint256 amount = IMutualPool(pool).claimRewardsFor(user) */\n      swap1\n      pop\n        /* \"DraftRouter.sol\":12094:12095  0 */\n      0x00\n        /* \"DraftRouter.sol\":12085:12091  amount */\n      dup2\n        /* \"DraftRouter.sol\":12085:12095  amount > 0 */\n      gt\n        /* \"DraftRouter.sol\":12077:12119  require(amount > 0, \"No rewards to claim\") */\n      tag_344\n      jumpi\n      mload(0x40)\n      0x08c379a000000000000000000000000000000000000000000000000000000000\n      dup2\n      mstore\n      0x04\n      add\n      tag_345\n      swap1\n      tag_346\n      jump\t// in\n    tag_345:\n      mload(0x40)\n      dup1\n      swap2\n      sub\n      swap1\n      revert\n    tag_344:\n        /* \"DraftRouter.sol\":12136:12142  amount */\n      dup1\n        /* \"DraftRouter.sol\":12129:12142  return amount */\n      swap2\n      pop\n      pop\n        /* \"DraftRouter.sol\":11918:12149  function _processClaimReward(address user, address pool) internal returns(uint256) {... */\n      swap3\n      swap2\n      pop\n      pop\n      jump\t// out\n        /* \"DraftRouter.sol\":10656:10849  function _processTransferBacktoUser(address receiver, address token, uint256 amount) internal{... */\n    tag_189:\n        /* \"DraftRouter.sol\":10760:10772  bool success */\n      0x00\n        /* \"DraftRouter.sol\":10783:10788  token */\n      dup3\n        /* \"DraftRouter.sol\":10776:10798  IERC20(token).transfer */\n      0xffffffffffffffffffffffffffffffffffffffff\n      and\n      0xa9059cbb\n        /* \"DraftRouter.sol\":10799:10807  receiver */\n      dup6\n        /* \"DraftRouter.sol\":10809:10815  amount */\n      dup5\n        /* \"DraftRouter.sol\":10776:10816  IERC20(token).transfer(receiver, amount) */\n      mload(0x40)\n      dup4\n      0xffffffff\n      and\n      0xe0\n      shl\n      dup2\n      mstore\n      0x04\n      add\n      tag_348\n      swap3\n      swap2\n      swap1\n      tag_349\n      jump\t// in\n    tag_348:\n      0x20\n      mload(0x40)\n      dup1\n      dup4\n      sub\n      dup2\n      0x00\n      dup8\n      gas\n      call\n      iszero\n      dup1\n      iszero\n      tag_351\n      jumpi\n      returndatasize\n      0x00\n      dup1\n      returndatacopy\n      revert(0x00, returndatasize)\n    tag_351:\n      pop\n      pop\n      pop\n      pop\n      mload(0x40)\n      returndatasize\n      not(0x1f)\n      0x1f\n      dup3\n      add\n      and\n      dup3\n      add\n      dup1\n      0x40\n      mstore\n      pop\n      dup2\n      add\n      swap1\n      tag_352\n      swap2\n      swap1\n      tag_353\n      jump\t// in\n    tag_352:\n        /* \"DraftRouter.sol\":10759:10816  (bool success) = IERC20(token).transfer(receiver, amount) */\n      swap1\n      pop\n        /* \"DraftRouter.sol\":10834:10841  success */\n      dup1\n        /* \"DraftRouter.sol\":10826:10842  require(success) */\n      tag_354\n      jumpi\n      0x00\n      dup1\n      revert\n    tag_354:\n        /* \"DraftRouter.sol\":10749:10849  {... */\n      pop\n        /* \"DraftRouter.sol\":10656:10849  function _processTransferBacktoUser(address receiver, address token, uint256 amount) internal{... */\n      pop\n      pop\n      pop\n      jump\t// out\n        /* \"DraftRouter.sol\":2657:2772  function _transferRegistryAddr(address registryAddress) internal{... */\n    tag_207:\n        /* \"DraftRouter.sol\":2750:2765  registryAddress */\n      dup1\n        /* \"DraftRouter.sol\":2731:2747  registryContract */\n      0x02\n      0x00\n        /* \"DraftRouter.sol\":2731:2765  registryContract = registryAddress */\n      0x0100\n      exp\n      dup2\n      sload\n      dup2\n      0xffffffffffffffffffffffffffffffffffffffff\n      mul\n      not\n      and\n      swap1\n      dup4\n      0xffffffffffffffffffffffffffffffffffffffff\n      and\n      mul\n      or\n      swap1\n      sstore\n      pop\n        /* \"DraftRouter.sol\":2657:2772  function _transferRegistryAddr(address registryAddress) internal{... */\n      pop\n      jump\t// out\n        /* \"DraftRouter.sol\":9067:9689  function getTokenFromUser(address token, uint256 amount) internal returns(uint256){... */\n    tag_230:\n        /* \"DraftRouter.sol\":9141:9148  uint256 */\n      0x00\n        /* \"DraftRouter.sol\":9176:9177  0 */\n      dup1\n        /* \"DraftRouter.sol\":9167:9173  amount */\n      dup3\n        /* \"DraftRouter.sol\":9167:9177  amount > 0 */\n      gt\n        /* \"DraftRouter.sol\":9159:9178  require(amount > 0) */\n      tag_357\n      jumpi\n      0x00\n      dup1\n      revert\n    tag_357:\n        /* \"DraftRouter.sol\":9188:9221  uint256 balanceBeforeTransferFrom */\n      0x00\n        /* \"DraftRouter.sol\":9231:9236  token */\n      dup4\n        /* \"DraftRouter.sol\":9224:9247  IERC20(token).balanceOf */\n      0xffffffffffffffffffffffffffffffffffffffff\n      and\n      0x70a08231\n        /* \"DraftRouter.sol\":9256:9260  this */\n      address\n        /* \"DraftRouter.sol\":9224:9262  IERC20(token).balanceOf(address(this)) */\n      mload(0x40)\n      dup3\n      0xffffffff\n      and\n      0xe0\n      shl\n      dup2\n      mstore\n      0x04\n      add\n      tag_358\n      swap2\n      swap1\n      tag_139\n      jump\t// in\n    tag_358:\n      0x20\n      mload(0x40)\n      dup1\n      dup4\n      sub\n      dup2\n      dup7\n      gas\n      staticcall\n      iszero\n      dup1\n      iszero\n      tag_360\n      jumpi\n      returndatasize\n      0x00\n      dup1\n      returndatacopy\n      revert(0x00, returndatasize)\n    tag_360:\n      pop\n      pop\n      pop\n      pop\n      mload(0x40)\n      returndatasize\n      not(0x1f)\n      0x1f\n      dup3\n      add\n      and\n      dup3\n      add\n      dup1\n      0x40\n      mstore\n      pop\n      dup2\n      add\n      swap1\n      tag_361\n      swap2\n      swap1\n      tag_116\n      jump\t// in\n    tag_361:\n        /* \"DraftRouter.sol\":9188:9262  uint256 balanceBeforeTransferFrom = IERC20(token).balanceOf(address(this)) */\n      swap1\n      pop\n        /* \"DraftRouter.sol\":9273:9285  bool success */\n      0x00\n        /* \"DraftRouter.sol\":9296:9301  token */\n      dup5\n        /* \"DraftRouter.sol\":9289:9315  IERC20(token).transferFrom */\n      0xffffffffffffffffffffffffffffffffffffffff\n      and\n      0x23b872dd\n        /* \"DraftRouter.sol\":9316:9326  msg.sender */\n      caller\n        /* \"DraftRouter.sol\":9336:9340  this */\n      address\n        /* \"DraftRouter.sol\":9343:9349  amount */\n      dup8\n        /* \"DraftRouter.sol\":9289:9350  IERC20(token).transferFrom(msg.sender, address(this), amount) */\n      mload(0x40)\n      dup5\n      0xffffffff\n      and\n      0xe0\n      shl\n      dup2\n      mstore\n      0x04\n      add\n      tag_362\n      swap4\n      swap3\n      swap2\n      swap1\n      tag_105\n      jump\t// in\n    tag_362:\n      0x20\n      mload(0x40)\n      dup1\n      dup4\n      sub\n      dup2\n      0x00\n      dup8\n      gas\n      call\n      iszero\n      dup1\n      iszero\n      tag_364\n      jumpi\n      returndatasize\n      0x00\n      dup1\n      returndatacopy\n      revert(0x00, returndatasize)\n    tag_364:\n      pop\n      pop\n      pop\n      pop\n      mload(0x40)\n      returndatasize\n      not(0x1f)\n      0x1f\n      dup3\n      add\n      and\n      dup3\n      add\n      dup1\n      0x40\n      mstore\n      pop\n      dup2\n      add\n      swap1\n      tag_365\n      swap2\n      swap1\n      tag_353\n      jump\t// in\n    tag_365:\n        /* \"DraftRouter.sol\":9272:9350  (bool success) = IERC20(token).transferFrom(msg.sender, address(this), amount) */\n      swap1\n      pop\n        /* \"DraftRouter.sol\":9368:9375  success */\n      dup1\n        /* \"DraftRouter.sol\":9360:9376  require(success) */\n      tag_366\n      jumpi\n      0x00\n      dup1\n      revert\n    tag_366:\n        /* \"DraftRouter.sol\":9386:9418  uint256 balanceAfterTransferFrom */\n      0x00\n        /* \"DraftRouter.sol\":9428:9433  token */\n      dup6\n        /* \"DraftRouter.sol\":9421:9444  IERC20(token).balanceOf */\n      0xffffffffffffffffffffffffffffffffffffffff\n      and\n      0x70a08231\n        /* \"DraftRouter.sol\":9453:9457  this */\n      address\n        /* \"DraftRouter.sol\":9421:9459  IERC20(token).balanceOf(address(this)) */\n      mload(0x40)\n      dup3\n      0xffffffff\n      and\n      0xe0\n      shl\n      dup2\n      mstore\n      0x04\n      add\n      tag_367\n      swap2\n      swap1\n      tag_139\n      jump\t// in\n    tag_367:\n      0x20\n      mload(0x40)\n      dup1\n      dup4\n      sub\n      dup2\n      dup7\n      gas\n      staticcall\n      iszero\n      dup1\n      iszero\n      tag_369\n      jumpi\n      returndatasize\n      0x00\n      dup1\n      returndatacopy\n      revert(0x00, returndatasize)\n    tag_369:\n      pop\n      pop\n      pop\n      pop\n      mload(0x40)\n      returndatasize\n      not(0x1f)\n      0x1f\n      dup3\n      add\n      and\n      dup3\n      add\n      dup1\n      0x40\n      mstore\n      pop\n      dup2\n      add\n      swap1\n      tag_370\n      swap2\n      swap1\n      tag_116\n      jump\t// in\n    tag_370:\n        /* \"DraftRouter.sol\":9386:9459  uint256 balanceAfterTransferFrom = IERC20(token).balanceOf(address(this)) */\n      swap1\n      pop\n        /* \"DraftRouter.sol\":9469:9493  uint256 amountDeposisted */\n      0x00\n        /* \"DraftRouter.sol\":9523:9548  balanceBeforeTransferFrom */\n      dup4\n        /* \"DraftRouter.sol\":9496:9520  balanceAfterTransferFrom */\n      dup3\n        /* \"DraftRouter.sol\":9496:9548  balanceAfterTransferFrom - balanceBeforeTransferFrom */\n      tag_371\n      swap2\n      swap1\n      tag_94\n      jump\t// in\n    tag_371:\n        /* \"DraftRouter.sol\":9469:9548  uint256 amountDeposisted = balanceAfterTransferFrom - balanceBeforeTransferFrom */\n      swap1\n      pop\n        /* \"DraftRouter.sol\":9666:9682  amountDeposisted */\n      dup1\n        /* \"DraftRouter.sol\":9659:9682  return amountDeposisted */\n      swap5\n      pop\n      pop\n      pop\n      pop\n      pop\n        /* \"DraftRouter.sol\":9067:9689  function getTokenFromUser(address token, uint256 amount) internal returns(uint256){... */\n      swap3\n      swap2\n      pop\n      pop\n      jump\t// out\n        /* \"DraftRouter.sol\":8559:8744  function depositToPool(address user, address pool, address token, uint256 amount) internal{... */\n    tag_232:\n        /* \"DraftRouter.sol\":8659:8692  _approveToPool(pool,token,amount) */\n      tag_373\n        /* \"DraftRouter.sol\":8674:8678  pool */\n      dup4\n        /* \"DraftRouter.sol\":8679:8684  token */\n      dup4\n        /* \"DraftRouter.sol\":8685:8691  amount */\n      dup4\n        /* \"DraftRouter.sol\":8659:8673  _approveToPool */\n      tag_374\n        /* \"DraftRouter.sol\":8659:8692  _approveToPool(pool,token,amount) */\n      jump\t// in\n    tag_373:\n        /* \"DraftRouter.sol\":8702:8737  _processDeposit(user, pool, amount) */\n      tag_375\n        /* \"DraftRouter.sol\":8718:8722  user */\n      dup5\n        /* \"DraftRouter.sol\":8724:8728  pool */\n      dup5\n        /* \"DraftRouter.sol\":8730:8736  amount */\n      dup4\n        /* \"DraftRouter.sol\":8702:8717  _processDeposit */\n      tag_376\n        /* \"DraftRouter.sol\":8702:8737  _processDeposit(user, pool, amount) */\n      jump\t// in\n    tag_375:\n        /* \"DraftRouter.sol\":8559:8744  function depositToPool(address user, address pool, address token, uint256 amount) internal{... */\n      pop\n      pop\n      pop\n      pop\n      jump\t// out\n        /* \"DraftRouter.sol\":10854:11021  function _processWithdraw(address user, address pool, uint256 amount) internal{... */\n    tag_332:\n        /* \"DraftRouter.sol\":10959:10960  0 */\n      0x00\n        /* \"DraftRouter.sol\":10950:10956  amount */\n      dup2\n        /* \"DraftRouter.sol\":10950:10960  amount > 0 */\n      gt\n        /* \"DraftRouter.sol\":10942:10961  require(amount > 0) */\n      tag_378\n      jumpi\n      0x00\n      dup1\n      revert\n    tag_378:\n        /* \"DraftRouter.sol\":10983:10987  pool */\n      dup2\n        /* \"DraftRouter.sol\":10971:11000  IMutualPool(pool).withdrawFor */\n      0xffffffffffffffffffffffffffffffffffffffff\n      and\n      0xdb518db2\n        /* \"DraftRouter.sol\":11001:11005  user */\n      dup5\n        /* \"DraftRouter.sol\":11007:11013  amount */\n      dup4\n        /* \"DraftRouter.sol\":10971:11014  IMutualPool(pool).withdrawFor(user, amount) */\n      mload(0x40)\n      dup4\n      0xffffffff\n      and\n      0xe0\n      shl\n      dup2\n      mstore\n      0x04\n      add\n      tag_379\n      swap3\n      swap2\n      swap1\n      tag_349\n      jump\t// in\n    tag_379:\n      0x00\n      mload(0x40)\n      dup1\n      dup4\n      sub\n      dup2\n      0x00\n      dup8\n      dup1\n      extcodesize\n      iszero\n      dup1\n      iszero\n      tag_380\n      jumpi\n      0x00\n      dup1\n      revert\n    tag_380:\n      pop\n      gas\n      call\n      iszero\n      dup1\n      iszero\n      tag_382\n      jumpi\n      returndatasize\n      0x00\n      dup1\n      returndatacopy\n      revert(0x00, returndatasize)\n    tag_382:\n      pop\n      pop\n      pop\n      pop\n        /* \"DraftRouter.sol\":10854:11021  function _processWithdraw(address user, address pool, uint256 amount) internal{... */\n      pop\n      pop\n      pop\n      jump\t// out\n        /* \"DraftRouter.sol\":8893:9062  function _approveToPool(address pool, address token, uint256 amount) internal{... */\n    tag_374:\n        /* \"DraftRouter.sol\":8987:8992  token */\n      dup2\n        /* \"DraftRouter.sol\":8980:9001  IERC20(token).approve */\n      0xffffffffffffffffffffffffffffffffffffffff\n      and\n      0x095ea7b3\n        /* \"DraftRouter.sol\":9002:9006  pool */\n      dup5\n        /* \"DraftRouter.sol\":9008:9009  0 */\n      0x00\n        /* \"DraftRouter.sol\":8980:9010  IERC20(token).approve(pool, 0) */\n      mload(0x40)\n      dup4\n      0xffffffff\n      and\n      0xe0\n      shl\n      dup2\n      mstore\n      0x04\n      add\n      tag_384\n      swap3\n      swap2\n      swap1\n      tag_385\n      jump\t// in\n    tag_384:\n      0x20\n      mload(0x40)\n      dup1\n      dup4\n      sub\n      dup2\n      0x00\n      dup8\n      gas\n      call\n      iszero\n      dup1\n      iszero\n      tag_387\n      jumpi\n      returndatasize\n      0x00\n      dup1\n      returndatacopy\n      revert(0x00, returndatasize)\n    tag_387:\n      pop\n      pop\n      pop\n      pop\n      mload(0x40)\n      returndatasize\n      not(0x1f)\n      0x1f\n      dup3\n      add\n      and\n      dup3\n      add\n      dup1\n      0x40\n      mstore\n      pop\n      dup2\n      add\n      swap1\n      tag_388\n      swap2\n      swap1\n      tag_353\n      jump\t// in\n    tag_388:\n      pop\n        /* \"DraftRouter.sol\":9027:9032  token */\n      dup2\n        /* \"DraftRouter.sol\":9020:9041  IERC20(token).approve */\n      0xffffffffffffffffffffffffffffffffffffffff\n      and\n      0x095ea7b3\n        /* \"DraftRouter.sol\":9042:9046  pool */\n      dup5\n        /* \"DraftRouter.sol\":9048:9054  amount */\n      dup4\n        /* \"DraftRouter.sol\":9020:9055  IERC20(token).approve(pool, amount) */\n      mload(0x40)\n      dup4\n      0xffffffff\n      and\n      0xe0\n      shl\n      dup2\n      mstore\n      0x04\n      add\n      tag_389\n      swap3\n      swap2\n      swap1\n      tag_349\n      jump\t// in\n    tag_389:\n      0x20\n      mload(0x40)\n      dup1\n      dup4\n      sub\n      dup2\n      0x00\n      dup8\n      gas\n      call\n      iszero\n      dup1\n      iszero\n      tag_391\n      jumpi\n      returndatasize\n      0x00\n      dup1\n      returndatacopy\n      revert(0x00, returndatasize)\n    tag_391:\n      pop\n      pop\n      pop\n      pop\n      mload(0x40)\n      returndatasize\n      not(0x1f)\n      0x1f\n      dup3\n      add\n      and\n      dup3\n      add\n      dup1\n      0x40\n      mstore\n      pop\n      dup2\n      add\n      swap1\n      tag_392\n      swap2\n      swap1\n      tag_353\n      jump\t// in\n    tag_392:\n      pop\n        /* \"DraftRouter.sol\":8893:9062  function _approveToPool(address pool, address token, uint256 amount) internal{... */\n      pop\n      pop\n      pop\n      jump\t// out\n        /* \"DraftRouter.sol\":8750:8886  function _processDeposit(address user, address pool, uint256 amount) internal{... */\n    tag_376:\n        /* \"DraftRouter.sol\":8849:8853  pool */\n      dup2\n        /* \"DraftRouter.sol\":8837:8865  IMutualPool(pool).depositFor */\n      0xffffffffffffffffffffffffffffffffffffffff\n      and\n      0x2f4f21e2\n        /* \"DraftRouter.sol\":8866:8870  user */\n      dup5\n        /* \"DraftRouter.sol\":8872:8878  amount */\n      dup4\n        /* \"DraftRouter.sol\":8837:8879  IMutualPool(pool).depositFor(user, amount) */\n      mload(0x40)\n      dup4\n      0xffffffff\n      and\n      0xe0\n      shl\n      dup2\n      mstore\n      0x04\n      add\n      tag_394\n      swap3\n      swap2\n      swap1\n      tag_349\n      jump\t// in\n    tag_394:\n      0x00\n      mload(0x40)\n      dup1\n      dup4\n      sub\n      dup2\n      0x00\n      dup8\n      dup1\n      extcodesize\n      iszero\n      dup1\n      iszero\n      tag_395\n      jumpi\n      0x00\n      dup1\n      revert\n    tag_395:\n      pop\n      gas\n      call\n      iszero\n      dup1\n      iszero\n      tag_397\n      jumpi\n      returndatasize\n      0x00\n      dup1\n      returndatacopy\n      revert(0x00, returndatasize)\n    tag_397:\n      pop\n      pop\n      pop\n      pop\n        /* \"DraftRouter.sol\":8750:8886  function _processDeposit(address user, address pool, uint256 amount) internal{... */\n      pop\n      pop\n      pop\n      jump\t// out\n    tag_194:\n      mload(0x40)\n      dup1\n      0x40\n      add\n      0x40\n      mstore\n      dup1\n      and(0xffffffffffffffffffffffffffffffffffffffff, 0x00)\n      dup2\n      mstore\n      0x20\n      add\n      and(0xffffffffffffffffffffffffffffffffffffffff, 0x00)\n      dup2\n      mstore\n      pop\n      swap1\n      jump\t// out\n    tag_243:\n      mload(0x40)\n      dup1\n      0x80\n      add\n      0x40\n      mstore\n      dup1\n      and(0xffffffffffffffffffffffffffffffffffffffff, 0x00)\n      dup2\n      mstore\n      0x20\n      add\n      0x00\n      dup2\n      mstore\n      0x20\n      add\n      0x00\n      dup2\n      mstore\n      0x20\n      add\n      0x00\n      dup2\n      mstore\n      pop\n      swap1\n      jump\t// out\n    tag_263:\n      mload(0x40)\n      dup1\n      0x0100\n      add\n      0x40\n      mstore\n      dup1\n      tag_398\n      tag_399\n      jump\t// in\n    tag_398:\n      dup2\n      mstore\n      0x20\n      add\n      tag_400\n      tag_399\n      jump\t// in\n    tag_400:\n      dup2\n      mstore\n      0x20\n      add\n      tag_401\n      tag_399\n      jump\t// in\n    tag_401:\n      dup2\n      mstore\n      0x20\n      add\n      iszero(iszero(0x00))\n      dup2\n      mstore\n      0x20\n      add\n      0x00\n      dup2\n      mstore\n      0x20\n      add\n      0x00\n      dup2\n      mstore\n      0x20\n      add\n      0x00\n      dup2\n      mstore\n      0x20\n      add\n      0x00\n      dup2\n      mstore\n      pop\n      swap1\n      jump\t// out\n    tag_399:\n      mload(0x40)\n      dup1\n      0x60\n      add\n      0x40\n      mstore\n      dup1\n      and(0xffffffffffffffffffffffffffffffffffffffff, 0x00)\n      dup2\n      mstore\n      0x20\n      add\n      0x00\n      dup2\n      mstore\n      0x20\n      add\n      iszero(iszero(0x00))\n      dup2\n      mstore\n      pop\n      swap1\n      jump\t// out\n        /* \"#utility.yul\":7:82   */\n    tag_402:\n        /* \"#utility.yul\":40:46   */\n      0x00\n        /* \"#utility.yul\":73:75   */\n      0x40\n        /* \"#utility.yul\":67:76   */\n      mload\n        /* \"#utility.yul\":57:76   */\n      swap1\n      pop\n        /* \"#utility.yul\":7:82   */\n      swap1\n      jump\t// out\n        /* \"#utility.yul\":88:205   */\n    tag_403:\n        /* \"#utility.yul\":197:198   */\n      0x00\n        /* \"#utility.yul\":194:195   */\n      dup1\n        /* \"#utility.yul\":187:199   */\n      revert\n        /* \"#utility.yul\":334:411   */\n    tag_405:\n        /* \"#utility.yul\":371:378   */\n      0x00\n        /* \"#utility.yul\":400:405   */\n      dup2\n        /* \"#utility.yul\":389:405   */\n      swap1\n      pop\n        /* \"#utility.yul\":334:411   */\n      swap2\n      swap1\n      pop\n      jump\t// out\n        /* \"#utility.yul\":417:539   */\n    tag_406:\n        /* \"#utility.yul\":490:514   */\n      tag_457\n        /* \"#utility.yul\":508:513   */\n      dup2\n        /* \"#utility.yul\":490:514   */\n      tag_405\n      jump\t// in\n    tag_457:\n        /* \"#utility.yul\":483:488   */\n      dup2\n        /* \"#utility.yul\":480:515   */\n      eq\n        /* \"#utility.yul\":470:533   */\n      tag_458\n      jumpi\n        /* \"#utility.yul\":529:530   */\n      0x00\n        /* \"#utility.yul\":526:527   */\n      dup1\n        /* \"#utility.yul\":519:531   */\n      revert\n        /* \"#utility.yul\":470:533   */\n    tag_458:\n        /* \"#utility.yul\":417:539   */\n      pop\n      jump\t// out\n        /* \"#utility.yul\":545:684   */\n    tag_407:\n        /* \"#utility.yul\":591:596   */\n      0x00\n        /* \"#utility.yul\":629:635   */\n      dup2\n        /* \"#utility.yul\":616:636   */\n      calldataload\n        /* \"#utility.yul\":607:636   */\n      swap1\n      pop\n        /* \"#utility.yul\":645:678   */\n      tag_460\n        /* \"#utility.yul\":672:677   */\n      dup2\n        /* \"#utility.yul\":645:678   */\n      tag_406\n      jump\t// in\n    tag_460:\n        /* \"#utility.yul\":545:684   */\n      swap3\n      swap2\n      pop\n      pop\n      jump\t// out\n        /* \"#utility.yul\":690:1164   */\n    tag_24:\n        /* \"#utility.yul\":758:764   */\n      0x00\n        /* \"#utility.yul\":766:772   */\n      dup1\n        /* \"#utility.yul\":815:817   */\n      0x40\n        /* \"#utility.yul\":803:812   */\n      dup4\n        /* \"#utility.yul\":794:801   */\n      dup6\n        /* \"#utility.yul\":790:813   */\n      sub\n        /* \"#utility.yul\":786:818   */\n      slt\n        /* \"#utility.yul\":783:902   */\n      iszero\n      tag_462\n      jumpi\n        /* \"#utility.yul\":821:900   */\n      tag_463\n      tag_403\n      jump\t// in\n    tag_463:\n        /* \"#utility.yul\":783:902   */\n    tag_462:\n        /* \"#utility.yul\":941:942   */\n      0x00\n        /* \"#utility.yul\":966:1019   */\n      tag_464\n        /* \"#utility.yul\":1011:1018   */\n      dup6\n        /* \"#utility.yul\":1002:1008   */\n      dup3\n        /* \"#utility.yul\":991:1000   */\n      dup7\n        /* \"#utility.yul\":987:1009   */\n      add\n        /* \"#utility.yul\":966:1019   */\n      tag_407\n      jump\t// in\n    tag_464:\n        /* \"#utility.yul\":956:1019   */\n      swap3\n      pop\n        /* \"#utility.yul\":912:1029   */\n      pop\n        /* \"#utility.yul\":1068:1070   */\n      0x20\n        /* \"#utility.yul\":1094:1147   */\n      tag_465\n        /* \"#utility.yul\":1139:1146   */\n      dup6\n        /* \"#utility.yul\":1130:1136   */\n      dup3\n        /* \"#utility.yul\":1119:1128   */\n      dup7\n        /* \"#utility.yul\":1115:1137   */\n      add\n        /* \"#utility.yul\":1094:1147   */\n      tag_407\n      jump\t// in\n    tag_465:\n        /* \"#utility.yul\":1084:1147   */\n      swap2\n      pop\n        /* \"#utility.yul\":1039:1157   */\n      pop\n        /* \"#utility.yul\":690:1164   */\n      swap3\n      pop\n      swap3\n      swap1\n      pop\n      jump\t// out\n        /* \"#utility.yul\":1170:1296   */\n    tag_408:\n        /* \"#utility.yul\":1207:1214   */\n      0x00\n        /* \"#utility.yul\":1247:1289   */\n      0xffffffffffffffffffffffffffffffffffffffff\n        /* \"#utility.yul\":1240:1245   */\n      dup3\n        /* \"#utility.yul\":1236:1290   */\n      and\n        /* \"#utility.yul\":1225:1290   */\n      swap1\n      pop\n        /* \"#utility.yul\":1170:1296   */\n      swap2\n      swap1\n      pop\n      jump\t// out\n        /* \"#utility.yul\":1302:1398   */\n    tag_409:\n        /* \"#utility.yul\":1339:1346   */\n      0x00\n        /* \"#utility.yul\":1368:1392   */\n      tag_468\n        /* \"#utility.yul\":1386:1391   */\n      dup3\n        /* \"#utility.yul\":1368:1392   */\n      tag_408\n      jump\t// in\n    tag_468:\n        /* \"#utility.yul\":1357:1392   */\n      swap1\n      pop\n        /* \"#utility.yul\":1302:1398   */\n      swap2\n      swap1\n      pop\n      jump\t// out\n        /* \"#utility.yul\":1404:1526   */\n    tag_410:\n        /* \"#utility.yul\":1477:1501   */\n      tag_470\n        /* \"#utility.yul\":1495:1500   */\n      dup2\n        /* \"#utility.yul\":1477:1501   */\n      tag_409\n      jump\t// in\n    tag_470:\n        /* \"#utility.yul\":1470:1475   */\n      dup2\n        /* \"#utility.yul\":1467:1502   */\n      eq\n        /* \"#utility.yul\":1457:1520   */\n      tag_471\n      jumpi\n        /* \"#utility.yul\":1516:1517   */\n      0x00\n        /* \"#utility.yul\":1513:1514   */\n      dup1\n        /* \"#utility.yul\":1506:1518   */\n      revert\n        /* \"#utility.yul\":1457:1520   */\n    tag_471:\n        /* \"#utility.yul\":1404:1526   */\n      pop\n      jump\t// out\n        /* \"#utility.yul\":1532:1671   */\n    tag_411:\n        /* \"#utility.yul\":1578:1583   */\n      0x00\n        /* \"#utility.yul\":1616:1622   */\n      dup2\n        /* \"#utility.yul\":1603:1623   */\n      calldataload\n        /* \"#utility.yul\":1594:1623   */\n      swap1\n      pop\n        /* \"#utility.yul\":1632:1665   */\n      tag_473\n        /* \"#utility.yul\":1659:1664   */\n      dup2\n        /* \"#utility.yul\":1632:1665   */\n      tag_410\n      jump\t// in\n    tag_473:\n        /* \"#utility.yul\":1532:1671   */\n      swap3\n      swap2\n      pop\n      pop\n      jump\t// out\n        /* \"#utility.yul\":1677:2296   */\n    tag_28:\n        /* \"#utility.yul\":1754:1760   */\n      0x00\n        /* \"#utility.yul\":1762:1768   */\n      dup1\n        /* \"#utility.yul\":1770:1776   */\n      0x00\n        /* \"#utility.yul\":1819:1821   */\n      0x60\n        /* \"#utility.yul\":1807:1816   */\n      dup5\n        /* \"#utility.yul\":1798:1805   */\n      dup7\n        /* \"#utility.yul\":1794:1817   */\n      sub\n        /* \"#utility.yul\":1790:1822   */\n      slt\n        /* \"#utility.yul\":1787:1906   */\n      iszero\n      tag_475\n      jumpi\n        /* \"#utility.yul\":1825:1904   */\n      tag_476\n      tag_403\n      jump\t// in\n    tag_476:\n        /* \"#utility.yul\":1787:1906   */\n    tag_475:\n        /* \"#utility.yul\":1945:1946   */\n      0x00\n        /* \"#utility.yul\":1970:2023   */\n      tag_477\n        /* \"#utility.yul\":2015:2022   */\n      dup7\n        /* \"#utility.yul\":2006:2012   */\n      dup3\n        /* \"#utility.yul\":1995:2004   */\n      dup8\n        /* \"#utility.yul\":1991:2013   */\n      add\n        /* \"#utility.yul\":1970:2023   */\n      tag_407\n      jump\t// in\n    tag_477:\n        /* \"#utility.yul\":1960:2023   */\n      swap4\n      pop\n        /* \"#utility.yul\":1916:2033   */\n      pop\n        /* \"#utility.yul\":2072:2074   */\n      0x20\n        /* \"#utility.yul\":2098:2151   */\n      tag_478\n        /* \"#utility.yul\":2143:2150   */\n      dup7\n        /* \"#utility.yul\":2134:2140   */\n      dup3\n        /* \"#utility.yul\":2123:2132   */\n      dup8\n        /* \"#utility.yul\":2119:2141   */\n      add\n        /* \"#utility.yul\":2098:2151   */\n      tag_407\n      jump\t// in\n    tag_478:\n        /* \"#utility.yul\":2088:2151   */\n      swap3\n      pop\n        /* \"#utility.yul\":2043:2161   */\n      pop\n        /* \"#utility.yul\":2200:2202   */\n      0x40\n        /* \"#utility.yul\":2226:2279   */\n      tag_479\n        /* \"#utility.yul\":2271:2278   */\n      dup7\n        /* \"#utility.yul\":2262:2268   */\n      dup3\n        /* \"#utility.yul\":2251:2260   */\n      dup8\n        /* \"#utility.yul\":2247:2269   */\n      add\n        /* \"#utility.yul\":2226:2279   */\n      tag_411\n      jump\t// in\n    tag_479:\n        /* \"#utility.yul\":2216:2279   */\n      swap2\n      pop\n        /* \"#utility.yul\":2171:2289   */\n      pop\n        /* \"#utility.yul\":1677:2296   */\n      swap3\n      pop\n      swap3\n      pop\n      swap3\n      jump\t// out\n        /* \"#utility.yul\":2302:2420   */\n    tag_412:\n        /* \"#utility.yul\":2389:2413   */\n      tag_481\n        /* \"#utility.yul\":2407:2412   */\n      dup2\n        /* \"#utility.yul\":2389:2413   */\n      tag_405\n      jump\t// in\n    tag_481:\n        /* \"#utility.yul\":2384:2387   */\n      dup3\n        /* \"#utility.yul\":2377:2414   */\n      mstore\n        /* \"#utility.yul\":2302:2420   */\n      pop\n      pop\n      jump\t// out\n        /* \"#utility.yul\":2426:2648   */\n    tag_31:\n        /* \"#utility.yul\":2519:2523   */\n      0x00\n        /* \"#utility.yul\":2557:2559   */\n      0x20\n        /* \"#utility.yul\":2546:2555   */\n      dup3\n        /* \"#utility.yul\":2542:2560   */\n      add\n        /* \"#utility.yul\":2534:2560   */\n      swap1\n      pop\n        /* \"#utility.yul\":2570:2641   */\n      tag_483\n        /* \"#utility.yul\":2638:2639   */\n      0x00\n        /* \"#utility.yul\":2627:2636   */\n      dup4\n        /* \"#utility.yul\":2623:2640   */\n      add\n        /* \"#utility.yul\":2614:2620   */\n      dup5\n        /* \"#utility.yul\":2570:2641   */\n      tag_412\n      jump\t// in\n    tag_483:\n        /* \"#utility.yul\":2426:2648   */\n      swap3\n      swap2\n      pop\n      pop\n      jump\t// out\n        /* \"#utility.yul\":2654:2983   */\n    tag_34:\n        /* \"#utility.yul\":2713:2719   */\n      0x00\n        /* \"#utility.yul\":2762:2764   */\n      0x20\n        /* \"#utility.yul\":2750:2759   */\n      dup3\n        /* \"#utility.yul\":2741:2748   */\n      dup5\n        /* \"#utility.yul\":2737:2760   */\n      sub\n        /* \"#utility.yul\":2733:2765   */\n      slt\n        /* \"#utility.yul\":2730:2849   */\n      iszero\n      tag_485\n      jumpi\n        /* \"#utility.yul\":2768:2847   */\n      tag_486\n      tag_403\n      jump\t// in\n    tag_486:\n        /* \"#utility.yul\":2730:2849   */\n    tag_485:\n        /* \"#utility.yul\":2888:2889   */\n      0x00\n        /* \"#utility.yul\":2913:2966   */\n      tag_487\n        /* \"#utility.yul\":2958:2965   */\n      dup5\n        /* \"#utility.yul\":2949:2955   */\n      dup3\n        /* \"#utility.yul\":2938:2947   */\n      dup6\n        /* \"#utility.yul\":2934:2956   */\n      add\n        /* \"#utility.yul\":2913:2966   */\n      tag_407\n      jump\t// in\n    tag_487:\n        /* \"#utility.yul\":2903:2966   */\n      swap2\n      pop\n        /* \"#utility.yul\":2859:2976   */\n      pop\n        /* \"#utility.yul\":2654:2983   */\n      swap3\n      swap2\n      pop\n      pop\n      jump\t// out\n        /* \"#utility.yul\":2989:3463   */\n    tag_43:\n        /* \"#utility.yul\":3057:3063   */\n      0x00\n        /* \"#utility.yul\":3065:3071   */\n      dup1\n        /* \"#utility.yul\":3114:3116   */\n      0x40\n        /* \"#utility.yul\":3102:3111   */\n      dup4\n        /* \"#utility.yul\":3093:3100   */\n      dup6\n        /* \"#utility.yul\":3089:3112   */\n      sub\n        /* \"#utility.yul\":3085:3117   */\n      slt\n        /* \"#utility.yul\":3082:3201   */\n      iszero\n      tag_489\n      jumpi\n        /* \"#utility.yul\":3120:3199   */\n      tag_490\n      tag_403\n      jump\t// in\n    tag_490:\n        /* \"#utility.yul\":3082:3201   */\n    tag_489:\n        /* \"#utility.yul\":3240:3241   */\n      0x00\n        /* \"#utility.yul\":3265:3318   */\n      tag_491\n        /* \"#utility.yul\":3310:3317   */\n      dup6\n        /* \"#utility.yul\":3301:3307   */\n      dup3\n        /* \"#utility.yul\":3290:3299   */\n      dup7\n        /* \"#utility.yul\":3286:3308   */\n      add\n        /* \"#utility.yul\":3265:3318   */\n      tag_411\n      jump\t// in\n    tag_491:\n        /* \"#utility.yul\":3255:3318   */\n      swap3\n      pop\n        /* \"#utility.yul\":3211:3328   */\n      pop\n        /* \"#utility.yul\":3367:3369   */\n      0x20\n        /* \"#utility.yul\":3393:3446   */\n      tag_492\n        /* \"#utility.yul\":3438:3445   */\n      dup6\n        /* \"#utility.yul\":3429:3435   */\n      dup3\n        /* \"#utility.yul\":3418:3427   */\n      dup7\n        /* \"#utility.yul\":3414:3436   */\n      add\n        /* \"#utility.yul\":3393:3446   */\n      tag_407\n      jump\t// in\n    tag_492:\n        /* \"#utility.yul\":3383:3446   */\n      swap2\n      pop\n        /* \"#utility.yul\":3338:3456   */\n      pop\n        /* \"#utility.yul\":2989:3463   */\n      swap3\n      pop\n      swap3\n      swap1\n      pop\n      jump\t// out\n        /* \"#utility.yul\":3469:3577   */\n    tag_413:\n        /* \"#utility.yul\":3546:3570   */\n      tag_494\n        /* \"#utility.yul\":3564:3569   */\n      dup2\n        /* \"#utility.yul\":3546:3570   */\n      tag_409\n      jump\t// in\n    tag_494:\n        /* \"#utility.yul\":3541:3544   */\n      dup3\n        /* \"#utility.yul\":3534:3571   */\n      mstore\n        /* \"#utility.yul\":3469:3577   */\n      pop\n      pop\n      jump\t// out\n        /* \"#utility.yul\":3647:4179   */\n    tag_414:\n        /* \"#utility.yul\":3802:3806   */\n      0x40\n        /* \"#utility.yul\":3797:3800   */\n      dup3\n        /* \"#utility.yul\":3793:3807   */\n      add\n        /* \"#utility.yul\":3896:3900   */\n      0x00\n        /* \"#utility.yul\":3889:3894   */\n      dup3\n        /* \"#utility.yul\":3885:3901   */\n      add\n        /* \"#utility.yul\":3879:3902   */\n      mload\n        /* \"#utility.yul\":3915:3978   */\n      tag_496\n        /* \"#utility.yul\":3972:3976   */\n      0x00\n        /* \"#utility.yul\":3967:3970   */\n      dup6\n        /* \"#utility.yul\":3963:3977   */\n      add\n        /* \"#utility.yul\":3949:3961   */\n      dup3\n        /* \"#utility.yul\":3915:3978   */\n      tag_413\n      jump\t// in\n    tag_496:\n        /* \"#utility.yul\":3817:3988   */\n      pop\n        /* \"#utility.yul\":4080:4084   */\n      0x20\n        /* \"#utility.yul\":4073:4078   */\n      dup3\n        /* \"#utility.yul\":4069:4085   */\n      add\n        /* \"#utility.yul\":4063:4086   */\n      mload\n        /* \"#utility.yul\":4099:4162   */\n      tag_497\n        /* \"#utility.yul\":4156:4160   */\n      0x20\n        /* \"#utility.yul\":4151:4154   */\n      dup6\n        /* \"#utility.yul\":4147:4161   */\n      add\n        /* \"#utility.yul\":4133:4145   */\n      dup3\n        /* \"#utility.yul\":4099:4162   */\n      tag_413\n      jump\t// in\n    tag_497:\n        /* \"#utility.yul\":3998:4172   */\n      pop\n        /* \"#utility.yul\":3771:4179   */\n      pop\n        /* \"#utility.yul\":3647:4179   */\n      pop\n      pop\n      jump\t// out\n        /* \"#utility.yul\":4185:4523   */\n    tag_63:\n        /* \"#utility.yul\":4336:4340   */\n      0x00\n        /* \"#utility.yul\":4374:4376   */\n      0x40\n        /* \"#utility.yul\":4363:4372   */\n      dup3\n        /* \"#utility.yul\":4359:4377   */\n      add\n        /* \"#utility.yul\":4351:4377   */\n      swap1\n      pop\n        /* \"#utility.yul\":4387:4516   */\n      tag_499\n        /* \"#utility.yul\":4513:4514   */\n      0x00\n        /* \"#utility.yul\":4502:4511   */\n      dup4\n        /* \"#utility.yul\":4498:4515   */\n      add\n        /* \"#utility.yul\":4489:4495   */\n      dup5\n        /* \"#utility.yul\":4387:4516   */\n      tag_414\n      jump\t// in\n    tag_499:\n        /* \"#utility.yul\":4185:4523   */\n      swap3\n      swap2\n      pop\n      pop\n      jump\t// out\n        /* \"#utility.yul\":4529:4858   */\n    tag_66:\n        /* \"#utility.yul\":4588:4594   */\n      0x00\n        /* \"#utility.yul\":4637:4639   */\n      0x20\n        /* \"#utility.yul\":4625:4634   */\n      dup3\n        /* \"#utility.yul\":4616:4623   */\n      dup5\n        /* \"#utility.yul\":4612:4635   */\n      sub\n        /* \"#utility.yul\":4608:4640   */\n      slt\n        /* \"#utility.yul\":4605:4724   */\n      iszero\n      tag_501\n      jumpi\n        /* \"#utility.yul\":4643:4722   */\n      tag_502\n      tag_403\n      jump\t// in\n    tag_502:\n        /* \"#utility.yul\":4605:4724   */\n    tag_501:\n        /* \"#utility.yul\":4763:4764   */\n      0x00\n        /* \"#utility.yul\":4788:4841   */\n      tag_503\n        /* \"#utility.yul\":4833:4840   */\n      dup5\n        /* \"#utility.yul\":4824:4830   */\n      dup3\n        /* \"#utility.yul\":4813:4822   */\n      dup6\n        /* \"#utility.yul\":4809:4831   */\n      add\n        /* \"#utility.yul\":4788:4841   */\n      tag_411\n      jump\t// in\n    tag_503:\n        /* \"#utility.yul\":4778:4841   */\n      swap2\n      pop\n        /* \"#utility.yul\":4734:4851   */\n      pop\n        /* \"#utility.yul\":4529:4858   */\n      swap3\n      swap2\n      pop\n      pop\n      jump\t// out\n        /* \"#utility.yul\":4864:5338   */\n    tag_79:\n        /* \"#utility.yul\":4932:4938   */\n      0x00\n        /* \"#utility.yul\":4940:4946   */\n      dup1\n        /* \"#utility.yul\":4989:4991   */\n      0x40\n        /* \"#utility.yul\":4977:4986   */\n      dup4\n        /* \"#utility.yul\":4968:4975   */\n      dup6\n        /* \"#utility.yul\":4964:4987   */\n      sub\n        /* \"#utility.yul\":4960:4992   */\n      slt\n        /* \"#utility.yul\":4957:5076   */\n      iszero\n      tag_505\n      jumpi\n        /* \"#utility.yul\":4995:5074   */\n      tag_506\n      tag_403\n      jump\t// in\n    tag_506:\n        /* \"#utility.yul\":4957:5076   */\n    tag_505:\n        /* \"#utility.yul\":5115:5116   */\n      0x00\n        /* \"#utility.yul\":5140:5193   */\n      tag_507\n        /* \"#utility.yul\":5185:5192   */\n      dup6\n        /* \"#utility.yul\":5176:5182   */\n      dup3\n        /* \"#utility.yul\":5165:5174   */\n      dup7\n        /* \"#utility.yul\":5161:5183   */\n      add\n        /* \"#utility.yul\":5140:5193   */\n      tag_407\n      jump\t// in\n    tag_507:\n        /* \"#utility.yul\":5130:5193   */\n      swap3\n      pop\n        /* \"#utility.yul\":5086:5203   */\n      pop\n        /* \"#utility.yul\":5242:5244   */\n      0x20\n        /* \"#utility.yul\":5268:5321   */\n      tag_508\n        /* \"#utility.yul\":5313:5320   */\n      dup6\n        /* \"#utility.yul\":5304:5310   */\n      dup3\n        /* \"#utility.yul\":5293:5302   */\n      dup7\n        /* \"#utility.yul\":5289:5311   */\n      add\n        /* \"#utility.yul\":5268:5321   */\n      tag_411\n      jump\t// in\n    tag_508:\n        /* \"#utility.yul\":5258:5321   */\n      swap2\n      pop\n        /* \"#utility.yul\":5213:5331   */\n      pop\n        /* \"#utility.yul\":4864:5338   */\n      swap3\n      pop\n      swap3\n      swap1\n      pop\n      jump\t// out\n        /* \"#utility.yul\":5344:5452   */\n    tag_415:\n        /* \"#utility.yul\":5421:5445   */\n      tag_510\n        /* \"#utility.yul\":5439:5444   */\n      dup2\n        /* \"#utility.yul\":5421:5445   */\n      tag_405\n      jump\t// in\n    tag_510:\n        /* \"#utility.yul\":5416:5419   */\n      dup3\n        /* \"#utility.yul\":5409:5446   */\n      mstore\n        /* \"#utility.yul\":5344:5452   */\n      pop\n      pop\n      jump\t// out\n        /* \"#utility.yul\":5514:6402   */\n    tag_416:\n        /* \"#utility.yul\":5661:5665   */\n      0x80\n        /* \"#utility.yul\":5656:5659   */\n      dup3\n        /* \"#utility.yul\":5652:5666   */\n      add\n        /* \"#utility.yul\":5755:5759   */\n      0x00\n        /* \"#utility.yul\":5748:5753   */\n      dup3\n        /* \"#utility.yul\":5744:5760   */\n      add\n        /* \"#utility.yul\":5738:5761   */\n      mload\n        /* \"#utility.yul\":5774:5837   */\n      tag_512\n        /* \"#utility.yul\":5831:5835   */\n      0x00\n        /* \"#utility.yul\":5826:5829   */\n      dup6\n        /* \"#utility.yul\":5822:5836   */\n      add\n        /* \"#utility.yul\":5808:5820   */\n      dup3\n        /* \"#utility.yul\":5774:5837   */\n      tag_413\n      jump\t// in\n    tag_512:\n        /* \"#utility.yul\":5676:5847   */\n      pop\n        /* \"#utility.yul\":5938:5942   */\n      0x20\n        /* \"#utility.yul\":5931:5936   */\n      dup3\n        /* \"#utility.yul\":5927:5943   */\n      add\n        /* \"#utility.yul\":5921:5944   */\n      mload\n        /* \"#utility.yul\":5957:6020   */\n      tag_513\n        /* \"#utility.yul\":6014:6018   */\n      0x20\n        /* \"#utility.yul\":6009:6012   */\n      dup6\n        /* \"#utility.yul\":6005:6019   */\n      add\n        /* \"#utility.yul\":5991:6003   */\n      dup3\n        /* \"#utility.yul\":5957:6020   */\n      tag_415\n      jump\t// in\n    tag_513:\n        /* \"#utility.yul\":5857:6030   */\n      pop\n        /* \"#utility.yul\":6122:6126   */\n      0x40\n        /* \"#utility.yul\":6115:6120   */\n      dup3\n        /* \"#utility.yul\":6111:6127   */\n      add\n        /* \"#utility.yul\":6105:6128   */\n      mload\n        /* \"#utility.yul\":6141:6204   */\n      tag_514\n        /* \"#utility.yul\":6198:6202   */\n      0x40\n        /* \"#utility.yul\":6193:6196   */\n      dup6\n        /* \"#utility.yul\":6189:6203   */\n      add\n        /* \"#utility.yul\":6175:6187   */\n      dup3\n        /* \"#utility.yul\":6141:6204   */\n      tag_415\n      jump\t// in\n    tag_514:\n        /* \"#utility.yul\":6040:6214   */\n      pop\n        /* \"#utility.yul\":6303:6307   */\n      0x60\n        /* \"#utility.yul\":6296:6301   */\n      dup3\n        /* \"#utility.yul\":6292:6308   */\n      add\n        /* \"#utility.yul\":6286:6309   */\n      mload\n        /* \"#utility.yul\":6322:6385   */\n      tag_515\n        /* \"#utility.yul\":6379:6383   */\n      0x60\n        /* \"#utility.yul\":6374:6377   */\n      dup6\n        /* \"#utility.yul\":6370:6384   */\n      add\n        /* \"#utility.yul\":6356:6368   */\n      dup3\n        /* \"#utility.yul\":6322:6385   */\n      tag_415\n      jump\t// in\n    tag_515:\n        /* \"#utility.yul\":6224:6395   */\n      pop\n        /* \"#utility.yul\":5630:6402   */\n      pop\n        /* \"#utility.yul\":5514:6402   */\n      pop\n      pop\n      jump\t// out\n        /* \"#utility.yul\":6408:6731   */\n    tag_82:\n        /* \"#utility.yul\":6551:6555   */\n      0x00\n        /* \"#utility.yul\":6589:6592   */\n      0x80\n        /* \"#utility.yul\":6578:6587   */\n      dup3\n        /* \"#utility.yul\":6574:6593   */\n      add\n        /* \"#utility.yul\":6566:6593   */\n      swap1\n      pop\n        /* \"#utility.yul\":6603:6724   */\n      tag_517\n        /* \"#utility.yul\":6721:6722   */\n      0x00\n        /* \"#utility.yul\":6710:6719   */\n      dup4\n        /* \"#utility.yul\":6706:6723   */\n      add\n        /* \"#utility.yul\":6697:6703   */\n      dup5\n        /* \"#utility.yul\":6603:6724   */\n      tag_416\n      jump\t// in\n    tag_517:\n        /* \"#utility.yul\":6408:6731   */\n      swap3\n      swap2\n      pop\n      pop\n      jump\t// out\n        /* \"#utility.yul\":6737:6827   */\n    tag_417:\n        /* \"#utility.yul\":6771:6778   */\n      0x00\n        /* \"#utility.yul\":6814:6819   */\n      dup2\n        /* \"#utility.yul\":6807:6820   */\n      iszero\n        /* \"#utility.yul\":6800:6821   */\n      iszero\n        /* \"#utility.yul\":6789:6821   */\n      swap1\n      pop\n        /* \"#utility.yul\":6737:6827   */\n      swap2\n      swap1\n      pop\n      jump\t// out\n        /* \"#utility.yul\":6833:6932   */\n    tag_418:\n        /* \"#utility.yul\":6904:6925   */\n      tag_520\n        /* \"#utility.yul\":6919:6924   */\n      dup2\n        /* \"#utility.yul\":6904:6925   */\n      tag_417\n      jump\t// in\n    tag_520:\n        /* \"#utility.yul\":6899:6902   */\n      dup3\n        /* \"#utility.yul\":6892:6926   */\n      mstore\n        /* \"#utility.yul\":6833:6932   */\n      pop\n      pop\n      jump\t// out\n        /* \"#utility.yul\":7002:7685   */\n    tag_419:\n        /* \"#utility.yul\":7145:7149   */\n      0x60\n        /* \"#utility.yul\":7140:7143   */\n      dup3\n        /* \"#utility.yul\":7136:7150   */\n      add\n        /* \"#utility.yul\":7234:7238   */\n      0x00\n        /* \"#utility.yul\":7227:7232   */\n      dup3\n        /* \"#utility.yul\":7223:7239   */\n      add\n        /* \"#utility.yul\":7217:7240   */\n      mload\n        /* \"#utility.yul\":7253:7316   */\n      tag_522\n        /* \"#utility.yul\":7310:7314   */\n      0x00\n        /* \"#utility.yul\":7305:7308   */\n      dup6\n        /* \"#utility.yul\":7301:7315   */\n      add\n        /* \"#utility.yul\":7287:7299   */\n      dup3\n        /* \"#utility.yul\":7253:7316   */\n      tag_413\n      jump\t// in\n    tag_522:\n        /* \"#utility.yul\":7160:7326   */\n      pop\n        /* \"#utility.yul\":7415:7419   */\n      0x20\n        /* \"#utility.yul\":7408:7413   */\n      dup3\n        /* \"#utility.yul\":7404:7420   */\n      add\n        /* \"#utility.yul\":7398:7421   */\n      mload\n        /* \"#utility.yul\":7434:7497   */\n      tag_523\n        /* \"#utility.yul\":7491:7495   */\n      0x20\n        /* \"#utility.yul\":7486:7489   */\n      dup6\n        /* \"#utility.yul\":7482:7496   */\n      add\n        /* \"#utility.yul\":7468:7480   */\n      dup3\n        /* \"#utility.yul\":7434:7497   */\n      tag_415\n      jump\t// in\n    tag_523:\n        /* \"#utility.yul\":7336:7507   */\n      pop\n        /* \"#utility.yul\":7592:7596   */\n      0x40\n        /* \"#utility.yul\":7585:7590   */\n      dup3\n        /* \"#utility.yul\":7581:7597   */\n      add\n        /* \"#utility.yul\":7575:7598   */\n      mload\n        /* \"#utility.yul\":7611:7668   */\n      tag_524\n        /* \"#utility.yul\":7662:7666   */\n      0x40\n        /* \"#utility.yul\":7657:7660   */\n      dup6\n        /* \"#utility.yul\":7653:7667   */\n      add\n        /* \"#utility.yul\":7639:7651   */\n      dup3\n        /* \"#utility.yul\":7611:7668   */\n      tag_418\n      jump\t// in\n    tag_524:\n        /* \"#utility.yul\":7517:7678   */\n      pop\n        /* \"#utility.yul\":7114:7685   */\n      pop\n        /* \"#utility.yul\":7002:7685   */\n      pop\n      pop\n      jump\t// out\n        /* \"#utility.yul\":7753:9527   */\n    tag_420:\n        /* \"#utility.yul\":7906:7912   */\n      0x01c0\n        /* \"#utility.yul\":7901:7904   */\n      dup3\n        /* \"#utility.yul\":7897:7913   */\n      add\n        /* \"#utility.yul\":7996:8000   */\n      0x00\n        /* \"#utility.yul\":7989:7994   */\n      dup3\n        /* \"#utility.yul\":7985:8001   */\n      add\n        /* \"#utility.yul\":7979:8002   */\n      mload\n        /* \"#utility.yul\":8015:8134   */\n      tag_526\n        /* \"#utility.yul\":8128:8132   */\n      0x00\n        /* \"#utility.yul\":8123:8126   */\n      dup6\n        /* \"#utility.yul\":8119:8133   */\n      add\n        /* \"#utility.yul\":8105:8117   */\n      dup3\n        /* \"#utility.yul\":8015:8134   */\n      tag_419\n      jump\t// in\n    tag_526:\n        /* \"#utility.yul\":7923:8144   */\n      pop\n        /* \"#utility.yul\":8228:8232   */\n      0x20\n        /* \"#utility.yul\":8221:8226   */\n      dup3\n        /* \"#utility.yul\":8217:8233   */\n      add\n        /* \"#utility.yul\":8211:8234   */\n      mload\n        /* \"#utility.yul\":8247:8366   */\n      tag_527\n        /* \"#utility.yul\":8360:8364   */\n      0x60\n        /* \"#utility.yul\":8355:8358   */\n      dup6\n        /* \"#utility.yul\":8351:8365   */\n      add\n        /* \"#utility.yul\":8337:8349   */\n      dup3\n        /* \"#utility.yul\":8247:8366   */\n      tag_419\n      jump\t// in\n    tag_527:\n        /* \"#utility.yul\":8154:8376   */\n      pop\n        /* \"#utility.yul\":8459:8463   */\n      0x40\n        /* \"#utility.yul\":8452:8457   */\n      dup3\n        /* \"#utility.yul\":8448:8464   */\n      add\n        /* \"#utility.yul\":8442:8465   */\n      mload\n        /* \"#utility.yul\":8478:8597   */\n      tag_528\n        /* \"#utility.yul\":8591:8595   */\n      0xc0\n        /* \"#utility.yul\":8586:8589   */\n      dup6\n        /* \"#utility.yul\":8582:8596   */\n      add\n        /* \"#utility.yul\":8568:8580   */\n      dup3\n        /* \"#utility.yul\":8478:8597   */\n      tag_419\n      jump\t// in\n    tag_528:\n        /* \"#utility.yul\":8386:8607   */\n      pop\n        /* \"#utility.yul\":8694:8698   */\n      0x60\n        /* \"#utility.yul\":8687:8692   */\n      dup3\n        /* \"#utility.yul\":8683:8699   */\n      add\n        /* \"#utility.yul\":8677:8700   */\n      mload\n        /* \"#utility.yul\":8713:8772   */\n      tag_529\n        /* \"#utility.yul\":8764:8770   */\n      0x0120\n        /* \"#utility.yul\":8759:8762   */\n      dup6\n        /* \"#utility.yul\":8755:8771   */\n      add\n        /* \"#utility.yul\":8741:8753   */\n      dup3\n        /* \"#utility.yul\":8713:8772   */\n      tag_418\n      jump\t// in\n    tag_529:\n        /* \"#utility.yul\":8617:8782   */\n      pop\n        /* \"#utility.yul\":8870:8874   */\n      0x80\n        /* \"#utility.yul\":8863:8868   */\n      dup3\n        /* \"#utility.yul\":8859:8875   */\n      add\n        /* \"#utility.yul\":8853:8876   */\n      mload\n        /* \"#utility.yul\":8889:8954   */\n      tag_530\n        /* \"#utility.yul\":8946:8952   */\n      0x0140\n        /* \"#utility.yul\":8941:8944   */\n      dup6\n        /* \"#utility.yul\":8937:8953   */\n      add\n        /* \"#utility.yul\":8923:8935   */\n      dup3\n        /* \"#utility.yul\":8889:8954   */\n      tag_415\n      jump\t// in\n    tag_530:\n        /* \"#utility.yul\":8792:8964   */\n      pop\n        /* \"#utility.yul\":9050:9054   */\n      0xa0\n        /* \"#utility.yul\":9043:9048   */\n      dup3\n        /* \"#utility.yul\":9039:9055   */\n      add\n        /* \"#utility.yul\":9033:9056   */\n      mload\n        /* \"#utility.yul\":9069:9134   */\n      tag_531\n        /* \"#utility.yul\":9126:9132   */\n      0x0160\n        /* \"#utility.yul\":9121:9124   */\n      dup6\n        /* \"#utility.yul\":9117:9133   */\n      add\n        /* \"#utility.yul\":9103:9115   */\n      dup3\n        /* \"#utility.yul\":9069:9134   */\n      tag_415\n      jump\t// in\n    tag_531:\n        /* \"#utility.yul\":8974:9144   */\n      pop\n        /* \"#utility.yul\":9238:9242   */\n      0xc0\n        /* \"#utility.yul\":9231:9236   */\n      dup3\n        /* \"#utility.yul\":9227:9243   */\n      add\n        /* \"#utility.yul\":9221:9244   */\n      mload\n        /* \"#utility.yul\":9257:9322   */\n      tag_532\n        /* \"#utility.yul\":9314:9320   */\n      0x0180\n        /* \"#utility.yul\":9309:9312   */\n      dup6\n        /* \"#utility.yul\":9305:9321   */\n      add\n        /* \"#utility.yul\":9291:9303   */\n      dup3\n        /* \"#utility.yul\":9257:9322   */\n      tag_415\n      jump\t// in\n    tag_532:\n        /* \"#utility.yul\":9154:9332   */\n      pop\n        /* \"#utility.yul\":9426:9430   */\n      0xe0\n        /* \"#utility.yul\":9419:9424   */\n      dup3\n        /* \"#utility.yul\":9415:9431   */\n      add\n        /* \"#utility.yul\":9409:9432   */\n      mload\n        /* \"#utility.yul\":9445:9510   */\n      tag_533\n        /* \"#utility.yul\":9502:9508   */\n      0x01a0\n        /* \"#utility.yul\":9497:9500   */\n      dup6\n        /* \"#utility.yul\":9493:9509   */\n      add\n        /* \"#utility.yul\":9479:9491   */\n      dup3\n        /* \"#utility.yul\":9445:9510   */\n      tag_415\n      jump\t// in\n    tag_533:\n        /* \"#utility.yul\":9342:9520   */\n      pop\n        /* \"#utility.yul\":7875:9527   */\n      pop\n        /* \"#utility.yul\":7753:9527   */\n      pop\n      pop\n      jump\t// out\n        /* \"#utility.yul\":9533:9868   */\n    tag_87:\n        /* \"#utility.yul\":9682:9686   */\n      0x00\n        /* \"#utility.yul\":9720:9723   */\n      0x01c0\n        /* \"#utility.yul\":9709:9718   */\n      dup3\n        /* \"#utility.yul\":9705:9724   */\n      add\n        /* \"#utility.yul\":9697:9724   */\n      swap1\n      pop\n        /* \"#utility.yul\":9734:9861   */\n      tag_535\n        /* \"#utility.yul\":9858:9859   */\n      0x00\n        /* \"#utility.yul\":9847:9856   */\n      dup4\n        /* \"#utility.yul\":9843:9860   */\n      add\n        /* \"#utility.yul\":9834:9840   */\n      dup5\n        /* \"#utility.yul\":9734:9861   */\n      tag_420\n      jump\t// in\n    tag_535:\n        /* \"#utility.yul\":9533:9868   */\n      swap3\n      swap2\n      pop\n      pop\n      jump\t// out\n        /* \"#utility.yul\":9874:10043   */\n    tag_421:\n        /* \"#utility.yul\":9958:9969   */\n      0x00\n        /* \"#utility.yul\":9992:9998   */\n      dup3\n        /* \"#utility.yul\":9987:9990   */\n      dup3\n        /* \"#utility.yul\":9980:9999   */\n      mstore\n        /* \"#utility.yul\":10032:10036   */\n      0x20\n        /* \"#utility.yul\":10027:10030   */\n      dup3\n        /* \"#utility.yul\":10023:10037   */\n      add\n        /* \"#utility.yul\":10008:10037   */\n      swap1\n      pop\n        /* \"#utility.yul\":9874:10043   */\n      swap3\n      swap2\n      pop\n      pop\n      jump\t// out\n        /* \"#utility.yul\":10049:10211   */\n    tag_422:\n        /* \"#utility.yul\":10189:10203   */\n      0x496c6c6567616c2063616c6c0000000000000000000000000000000000000000\n        /* \"#utility.yul\":10185:10186   */\n      0x00\n        /* \"#utility.yul\":10177:10183   */\n      dup3\n        /* \"#utility.yul\":10173:10187   */\n      add\n        /* \"#utility.yul\":10166:10204   */\n      mstore\n        /* \"#utility.yul\":10049:10211   */\n      pop\n      jump\t// out\n        /* \"#utility.yul\":10217:10583   */\n    tag_423:\n        /* \"#utility.yul\":10359:10362   */\n      0x00\n        /* \"#utility.yul\":10380:10447   */\n      tag_539\n        /* \"#utility.yul\":10444:10446   */\n      0x0c\n        /* \"#utility.yul\":10439:10442   */\n      dup4\n        /* \"#utility.yul\":10380:10447   */\n      tag_421\n      jump\t// in\n    tag_539:\n        /* \"#utility.yul\":10373:10447   */\n      swap2\n      pop\n        /* \"#utility.yul\":10456:10549   */\n      tag_540\n        /* \"#utility.yul\":10545:10548   */\n      dup3\n        /* \"#utility.yul\":10456:10549   */\n      tag_422\n      jump\t// in\n    tag_540:\n        /* \"#utility.yul\":10574:10576   */\n      0x20\n        /* \"#utility.yul\":10569:10572   */\n      dup3\n        /* \"#utility.yul\":10565:10577   */\n      add\n        /* \"#utility.yul\":10558:10577   */\n      swap1\n      pop\n        /* \"#utility.yul\":10217:10583   */\n      swap2\n      swap1\n      pop\n      jump\t// out\n        /* \"#utility.yul\":10589:11008   */\n    tag_91:\n        /* \"#utility.yul\":10755:10759   */\n      0x00\n        /* \"#utility.yul\":10793:10795   */\n      0x20\n        /* \"#utility.yul\":10782:10791   */\n      dup3\n        /* \"#utility.yul\":10778:10796   */\n      add\n        /* \"#utility.yul\":10770:10796   */\n      swap1\n      pop\n        /* \"#utility.yul\":10842:10851   */\n      dup2\n        /* \"#utility.yul\":10836:10840   */\n      dup2\n        /* \"#utility.yul\":10832:10852   */\n      sub\n        /* \"#utility.yul\":10828:10829   */\n      0x00\n        /* \"#utility.yul\":10817:10826   */\n      dup4\n        /* \"#utility.yul\":10813:10830   */\n      add\n        /* \"#utility.yul\":10806:10853   */\n      mstore\n        /* \"#utility.yul\":10870:11001   */\n      tag_542\n        /* \"#utility.yul\":10996:11000   */\n      dup2\n        /* \"#utility.yul\":10870:11001   */\n      tag_423\n      jump\t// in\n    tag_542:\n        /* \"#utility.yul\":10862:11001   */\n      swap1\n      pop\n        /* \"#utility.yul\":10589:11008   */\n      swap2\n      swap1\n      pop\n      jump\t// out\n        /* \"#utility.yul\":11014:11194   */\n    tag_424:\n        /* \"#utility.yul\":11062:11139   */\n      0x4e487b7100000000000000000000000000000000000000000000000000000000\n        /* \"#utility.yul\":11059:11060   */\n      0x00\n        /* \"#utility.yul\":11052:11140   */\n      mstore\n        /* \"#utility.yul\":11159:11163   */\n      0x11\n        /* \"#utility.yul\":11156:11157   */\n      0x04\n        /* \"#utility.yul\":11149:11164   */\n      mstore\n        /* \"#utility.yul\":11183:11187   */\n      0x24\n        /* \"#utility.yul\":11180:11181   */\n      0x00\n        /* \"#utility.yul\":11173:11188   */\n      revert\n        /* \"#utility.yul\":11200:11394   */\n    tag_94:\n        /* \"#utility.yul\":11240:11244   */\n      0x00\n        /* \"#utility.yul\":11260:11280   */\n      tag_545\n        /* \"#utility.yul\":11278:11279   */\n      dup3\n        /* \"#utility.yul\":11260:11280   */\n      tag_405\n      jump\t// in\n    tag_545:\n        /* \"#utility.yul\":11255:11280   */\n      swap2\n      pop\n        /* \"#utility.yul\":11294:11314   */\n      tag_546\n        /* \"#utility.yul\":11312:11313   */\n      dup4\n        /* \"#utility.yul\":11294:11314   */\n      tag_405\n      jump\t// in\n    tag_546:\n        /* \"#utility.yul\":11289:11314   */\n      swap3\n      pop\n        /* \"#utility.yul\":11338:11339   */\n      dup3\n        /* \"#utility.yul\":11335:11336   */\n      dup3\n        /* \"#utility.yul\":11331:11340   */\n      sub\n        /* \"#utility.yul\":11323:11340   */\n      swap1\n      pop\n        /* \"#utility.yul\":11362:11363   */\n      dup2\n        /* \"#utility.yul\":11356:11360   */\n      dup2\n        /* \"#utility.yul\":11353:11364   */\n      gt\n        /* \"#utility.yul\":11350:11387   */\n      iszero\n      tag_547\n      jumpi\n        /* \"#utility.yul\":11367:11385   */\n      tag_548\n      tag_424\n      jump\t// in\n    tag_548:\n        /* \"#utility.yul\":11350:11387   */\n    tag_547:\n        /* \"#utility.yul\":11200:11394   */\n      swap3\n      swap2\n      pop\n      pop\n      jump\t// out\n        /* \"#utility.yul\":11400:11568   */\n    tag_425:\n        /* \"#utility.yul\":11540:11560   */\n      0x506f6f6c20646f65736e27742065786973740000000000000000000000000000\n        /* \"#utility.yul\":11536:11537   */\n      0x00\n        /* \"#utility.yul\":11528:11534   */\n      dup3\n        /* \"#utility.yul\":11524:11538   */\n      add\n        /* \"#utility.yul\":11517:11561   */\n      mstore\n        /* \"#utility.yul\":11400:11568   */\n      pop\n      jump\t// out\n        /* \"#utility.yul\":11574:11940   */\n    tag_426:\n        /* \"#utility.yul\":11716:11719   */\n      0x00\n        /* \"#utility.yul\":11737:11804   */\n      tag_551\n        /* \"#utility.yul\":11801:11803   */\n      0x12\n        /* \"#utility.yul\":11796:11799   */\n      dup4\n        /* \"#utility.yul\":11737:11804   */\n      tag_421\n      jump\t// in\n    tag_551:\n        /* \"#utility.yul\":11730:11804   */\n      swap2\n      pop\n        /* \"#utility.yul\":11813:11906   */\n      tag_552\n        /* \"#utility.yul\":11902:11905   */\n      dup3\n        /* \"#utility.yul\":11813:11906   */\n      tag_425\n      jump\t// in\n    tag_552:\n        /* \"#utility.yul\":11931:11933   */\n      0x20\n        /* \"#utility.yul\":11926:11929   */\n      dup3\n        /* \"#utility.yul\":11922:11934   */\n      add\n        /* \"#utility.yul\":11915:11934   */\n      swap1\n      pop\n        /* \"#utility.yul\":11574:11940   */\n      swap2\n      swap1\n      pop\n      jump\t// out\n        /* \"#utility.yul\":11946:12365   */\n    tag_97:\n        /* \"#utility.yul\":12112:12116   */\n      0x00\n        /* \"#utility.yul\":12150:12152   */\n      0x20\n        /* \"#utility.yul\":12139:12148   */\n      dup3\n        /* \"#utility.yul\":12135:12153   */\n      add\n        /* \"#utility.yul\":12127:12153   */\n      swap1\n      pop\n        /* \"#utility.yul\":12199:12208   */\n      dup2\n        /* \"#utility.yul\":12193:12197   */\n      dup2\n        /* \"#utility.yul\":12189:12209   */\n      sub\n        /* \"#utility.yul\":12185:12186   */\n      0x00\n        /* \"#utility.yul\":12174:12183   */\n      dup4\n        /* \"#utility.yul\":12170:12187   */\n      add\n        /* \"#utility.yul\":12163:12210   */\n      mstore\n        /* \"#utility.yul\":12227:12358   */\n      tag_554\n        /* \"#utility.yul\":12353:12357   */\n      dup2\n        /* \"#utility.yul\":12227:12358   */\n      tag_426\n      jump\t// in\n    tag_554:\n        /* \"#utility.yul\":12219:12358   */\n      swap1\n      pop\n        /* \"#utility.yul\":11946:12365   */\n      swap2\n      swap1\n      pop\n      jump\t// out\n        /* \"#utility.yul\":12371:12551   */\n    tag_100:\n        /* \"#utility.yul\":12419:12496   */\n      0x4e487b7100000000000000000000000000000000000000000000000000000000\n        /* \"#utility.yul\":12416:12417   */\n      0x00\n        /* \"#utility.yul\":12409:12497   */\n      mstore\n        /* \"#utility.yul\":12516:12520   */\n      0x32\n        /* \"#utility.yul\":12513:12514   */\n      0x04\n        /* \"#utility.yul\":12506:12521   */\n      mstore\n        /* \"#utility.yul\":12540:12544   */\n      0x24\n        /* \"#utility.yul\":12537:12538   */\n      0x00\n        /* \"#utility.yul\":12530:12545   */\n      revert\n        /* \"#utility.yul\":12557:12675   */\n    tag_427:\n        /* \"#utility.yul\":12644:12668   */\n      tag_557\n        /* \"#utility.yul\":12662:12667   */\n      dup2\n        /* \"#utility.yul\":12644:12668   */\n      tag_409\n      jump\t// in\n    tag_557:\n        /* \"#utility.yul\":12639:12642   */\n      dup3\n        /* \"#utility.yul\":12632:12669   */\n      mstore\n        /* \"#utility.yul\":12557:12675   */\n      pop\n      pop\n      jump\t// out\n        /* \"#utility.yul\":12681:13123   */\n    tag_105:\n        /* \"#utility.yul\":12830:12834   */\n      0x00\n        /* \"#utility.yul\":12868:12870   */\n      0x60\n        /* \"#utility.yul\":12857:12866   */\n      dup3\n        /* \"#utility.yul\":12853:12871   */\n      add\n        /* \"#utility.yul\":12845:12871   */\n      swap1\n      pop\n        /* \"#utility.yul\":12881:12952   */\n      tag_559\n        /* \"#utility.yul\":12949:12950   */\n      0x00\n        /* \"#utility.yul\":12938:12947   */\n      dup4\n        /* \"#utility.yul\":12934:12951   */\n      add\n        /* \"#utility.yul\":12925:12931   */\n      dup7\n        /* \"#utility.yul\":12881:12952   */\n      tag_427\n      jump\t// in\n    tag_559:\n        /* \"#utility.yul\":12962:13034   */\n      tag_560\n        /* \"#utility.yul\":13030:13032   */\n      0x20\n        /* \"#utility.yul\":13019:13028   */\n      dup4\n        /* \"#utility.yul\":13015:13033   */\n      add\n        /* \"#utility.yul\":13006:13012   */\n      dup6\n        /* \"#utility.yul\":12962:13034   */\n      tag_427\n      jump\t// in\n    tag_560:\n        /* \"#utility.yul\":13044:13116   */\n      tag_561\n        /* \"#utility.yul\":13112:13114   */\n      0x40\n        /* \"#utility.yul\":13101:13110   */\n      dup4\n        /* \"#utility.yul\":13097:13115   */\n      add\n        /* \"#utility.yul\":13088:13094   */\n      dup5\n        /* \"#utility.yul\":13044:13116   */\n      tag_412\n      jump\t// in\n    tag_561:\n        /* \"#utility.yul\":12681:13123   */\n      swap5\n      swap4\n      pop\n      pop\n      pop\n      pop\n      jump\t// out\n        /* \"#utility.yul\":13129:13461   */\n    tag_112:\n        /* \"#utility.yul\":13250:13254   */\n      0x00\n        /* \"#utility.yul\":13288:13290   */\n      0x40\n        /* \"#utility.yul\":13277:13286   */\n      dup3\n        /* \"#utility.yul\":13273:13291   */\n      add\n        /* \"#utility.yul\":13265:13291   */\n      swap1\n      pop\n        /* \"#utility.yul\":13301:13372   */\n      tag_563\n        /* \"#utility.yul\":13369:13370   */\n      0x00\n        /* \"#utility.yul\":13358:13367   */\n      dup4\n        /* \"#utility.yul\":13354:13371   */\n      add\n        /* \"#utility.yul\":13345:13351   */\n      dup6\n        /* \"#utility.yul\":13301:13372   */\n      tag_412\n      jump\t// in\n    tag_563:\n        /* \"#utility.yul\":13382:13454   */\n      tag_564\n        /* \"#utility.yul\":13450:13452   */\n      0x20\n        /* \"#utility.yul\":13439:13448   */\n      dup4\n        /* \"#utility.yul\":13435:13453   */\n      add\n        /* \"#utility.yul\":13426:13432   */\n      dup5\n        /* \"#utility.yul\":13382:13454   */\n      tag_427\n      jump\t// in\n    tag_564:\n        /* \"#utility.yul\":13129:13461   */\n      swap4\n      swap3\n      pop\n      pop\n      pop\n      jump\t// out\n        /* \"#utility.yul\":13467:13610   */\n    tag_428:\n        /* \"#utility.yul\":13524:13529   */\n      0x00\n        /* \"#utility.yul\":13555:13561   */\n      dup2\n        /* \"#utility.yul\":13549:13562   */\n      mload\n        /* \"#utility.yul\":13540:13562   */\n      swap1\n      pop\n        /* \"#utility.yul\":13571:13604   */\n      tag_566\n        /* \"#utility.yul\":13598:13603   */\n      dup2\n        /* \"#utility.yul\":13571:13604   */\n      tag_406\n      jump\t// in\n    tag_566:\n        /* \"#utility.yul\":13467:13610   */\n      swap3\n      swap2\n      pop\n      pop\n      jump\t// out\n        /* \"#utility.yul\":13616:13967   */\n    tag_116:\n        /* \"#utility.yul\":13686:13692   */\n      0x00\n        /* \"#utility.yul\":13735:13737   */\n      0x20\n        /* \"#utility.yul\":13723:13732   */\n      dup3\n        /* \"#utility.yul\":13714:13721   */\n      dup5\n        /* \"#utility.yul\":13710:13733   */\n      sub\n        /* \"#utility.yul\":13706:13738   */\n      slt\n        /* \"#utility.yul\":13703:13822   */\n      iszero\n      tag_568\n      jumpi\n        /* \"#utility.yul\":13741:13820   */\n      tag_569\n      tag_403\n      jump\t// in\n    tag_569:\n        /* \"#utility.yul\":13703:13822   */\n    tag_568:\n        /* \"#utility.yul\":13861:13862   */\n      0x00\n        /* \"#utility.yul\":13886:13950   */\n      tag_570\n        /* \"#utility.yul\":13942:13949   */\n      dup5\n        /* \"#utility.yul\":13933:13939   */\n      dup3\n        /* \"#utility.yul\":13922:13931   */\n      dup6\n        /* \"#utility.yul\":13918:13940   */\n      add\n        /* \"#utility.yul\":13886:13950   */\n      tag_428\n      jump\t// in\n    tag_570:\n        /* \"#utility.yul\":13876:13950   */\n      swap2\n      pop\n        /* \"#utility.yul\":13832:13960   */\n      pop\n        /* \"#utility.yul\":13616:13967   */\n      swap3\n      swap2\n      pop\n      pop\n      jump\t// out\n        /* \"#utility.yul\":13973:14195   */\n    tag_139:\n        /* \"#utility.yul\":14066:14070   */\n      0x00\n        /* \"#utility.yul\":14104:14106   */\n      0x20\n        /* \"#utility.yul\":14093:14102   */\n      dup3\n        /* \"#utility.yul\":14089:14107   */\n      add\n        /* \"#utility.yul\":14081:14107   */\n      swap1\n      pop\n        /* \"#utility.yul\":14117:14188   */\n      tag_572\n        /* \"#utility.yul\":14185:14186   */\n      0x00\n        /* \"#utility.yul\":14174:14183   */\n      dup4\n        /* \"#utility.yul\":14170:14187   */\n      add\n        /* \"#utility.yul\":14161:14167   */\n      dup5\n        /* \"#utility.yul\":14117:14188   */\n      tag_427\n      jump\t// in\n    tag_572:\n        /* \"#utility.yul\":13973:14195   */\n      swap3\n      swap2\n      pop\n      pop\n      jump\t// out\n        /* \"#utility.yul\":14201:14344   */\n    tag_429:\n        /* \"#utility.yul\":14258:14263   */\n      0x00\n        /* \"#utility.yul\":14289:14295   */\n      dup2\n        /* \"#utility.yul\":14283:14296   */\n      mload\n        /* \"#utility.yul\":14274:14296   */\n      swap1\n      pop\n        /* \"#utility.yul\":14305:14338   */\n      tag_574\n        /* \"#utility.yul\":14332:14337   */\n      dup2\n        /* \"#utility.yul\":14305:14338   */\n      tag_410\n      jump\t// in\n    tag_574:\n        /* \"#utility.yul\":14201:14344   */\n      swap3\n      swap2\n      pop\n      pop\n      jump\t// out\n        /* \"#utility.yul\":14350:14701   */\n    tag_155:\n        /* \"#utility.yul\":14420:14426   */\n      0x00\n        /* \"#utility.yul\":14469:14471   */\n      0x20\n        /* \"#utility.yul\":14457:14466   */\n      dup3\n        /* \"#utility.yul\":14448:14455   */\n      dup5\n        /* \"#utility.yul\":14444:14467   */\n      sub\n        /* \"#utility.yul\":14440:14472   */\n      slt\n        /* \"#utility.yul\":14437:14556   */\n      iszero\n      tag_576\n      jumpi\n        /* \"#utility.yul\":14475:14554   */\n      tag_577\n      tag_403\n      jump\t// in\n    tag_577:\n        /* \"#utility.yul\":14437:14556   */\n    tag_576:\n        /* \"#utility.yul\":14595:14596   */\n      0x00\n        /* \"#utility.yul\":14620:14684   */\n      tag_578\n        /* \"#utility.yul\":14676:14683   */\n      dup5\n        /* \"#utility.yul\":14667:14673   */\n      dup3\n        /* \"#utility.yul\":14656:14665   */\n      dup6\n        /* \"#utility.yul\":14652:14674   */\n      add\n        /* \"#utility.yul\":14620:14684   */\n      tag_429\n      jump\t// in\n    tag_578:\n        /* \"#utility.yul\":14610:14684   */\n      swap2\n      pop\n        /* \"#utility.yul\":14566:14694   */\n      pop\n        /* \"#utility.yul\":14350:14701   */\n      swap3\n      swap2\n      pop\n      pop\n      jump\t// out\n        /* \"#utility.yul\":14707:14871   */\n    tag_430:\n        /* \"#utility.yul\":14847:14863   */\n      0x496e76616c69642063616c6c6572000000000000000000000000000000000000\n        /* \"#utility.yul\":14843:14844   */\n      0x00\n        /* \"#utility.yul\":14835:14841   */\n      dup3\n        /* \"#utility.yul\":14831:14845   */\n      add\n        /* \"#utility.yul\":14824:14864   */\n      mstore\n        /* \"#utility.yul\":14707:14871   */\n      pop\n      jump\t// out\n        /* \"#utility.yul\":14877:15243   */\n    tag_431:\n        /* \"#utility.yul\":15019:15022   */\n      0x00\n        /* \"#utility.yul\":15040:15107   */\n      tag_581\n        /* \"#utility.yul\":15104:15106   */\n      0x0e\n        /* \"#utility.yul\":15099:15102   */\n      dup4\n        /* \"#utility.yul\":15040:15107   */\n      tag_421\n      jump\t// in\n    tag_581:\n        /* \"#utility.yul\":15033:15107   */\n      swap2\n      pop\n        /* \"#utility.yul\":15116:15209   */\n      tag_582\n        /* \"#utility.yul\":15205:15208   */\n      dup3\n        /* \"#utility.yul\":15116:15209   */\n      tag_430\n      jump\t// in\n    tag_582:\n        /* \"#utility.yul\":15234:15236   */\n      0x20\n        /* \"#utility.yul\":15229:15232   */\n      dup3\n        /* \"#utility.yul\":15225:15237   */\n      add\n        /* \"#utility.yul\":15218:15237   */\n      swap1\n      pop\n        /* \"#utility.yul\":14877:15243   */\n      swap2\n      swap1\n      pop\n      jump\t// out\n        /* \"#utility.yul\":15249:15668   */\n    tag_158:\n        /* \"#utility.yul\":15415:15419   */\n      0x00\n        /* \"#utility.yul\":15453:15455   */\n      0x20\n        /* \"#utility.yul\":15442:15451   */\n      dup3\n        /* \"#utility.yul\":15438:15456   */\n      add\n        /* \"#utility.yul\":15430:15456   */\n      swap1\n      pop\n        /* \"#utility.yul\":15502:15511   */\n      dup2\n        /* \"#utility.yul\":15496:15500   */\n      dup2\n        /* \"#utility.yul\":15492:15512   */\n      sub\n        /* \"#utility.yul\":15488:15489   */\n      0x00\n        /* \"#utility.yul\":15477:15486   */\n      dup4\n        /* \"#utility.yul\":15473:15490   */\n      add\n        /* \"#utility.yul\":15466:15513   */\n      mstore\n        /* \"#utility.yul\":15530:15661   */\n      tag_584\n        /* \"#utility.yul\":15656:15660   */\n      dup2\n        /* \"#utility.yul\":15530:15661   */\n      tag_431\n      jump\t// in\n    tag_584:\n        /* \"#utility.yul\":15522:15661   */\n      swap1\n      pop\n        /* \"#utility.yul\":15249:15668   */\n      swap2\n      swap1\n      pop\n      jump\t// out\n        /* \"#utility.yul\":15674:16227   */\n    tag_191:\n        /* \"#utility.yul\":15851:15855   */\n      0x00\n        /* \"#utility.yul\":15889:15892   */\n      0x80\n        /* \"#utility.yul\":15878:15887   */\n      dup3\n        /* \"#utility.yul\":15874:15893   */\n      add\n        /* \"#utility.yul\":15866:15893   */\n      swap1\n      pop\n        /* \"#utility.yul\":15903:15974   */\n      tag_586\n        /* \"#utility.yul\":15971:15972   */\n      0x00\n        /* \"#utility.yul\":15960:15969   */\n      dup4\n        /* \"#utility.yul\":15956:15973   */\n      add\n        /* \"#utility.yul\":15947:15953   */\n      dup8\n        /* \"#utility.yul\":15903:15974   */\n      tag_427\n      jump\t// in\n    tag_586:\n        /* \"#utility.yul\":15984:16056   */\n      tag_587\n        /* \"#utility.yul\":16052:16054   */\n      0x20\n        /* \"#utility.yul\":16041:16050   */\n      dup4\n        /* \"#utility.yul\":16037:16055   */\n      add\n        /* \"#utility.yul\":16028:16034   */\n      dup7\n        /* \"#utility.yul\":15984:16056   */\n      tag_427\n      jump\t// in\n    tag_587:\n        /* \"#utility.yul\":16066:16138   */\n      tag_588\n        /* \"#utility.yul\":16134:16136   */\n      0x40\n        /* \"#utility.yul\":16123:16132   */\n      dup4\n        /* \"#utility.yul\":16119:16137   */\n      add\n        /* \"#utility.yul\":16110:16116   */\n      dup6\n        /* \"#utility.yul\":16066:16138   */\n      tag_427\n      jump\t// in\n    tag_588:\n        /* \"#utility.yul\":16148:16220   */\n      tag_589\n        /* \"#utility.yul\":16216:16218   */\n      0x60\n        /* \"#utility.yul\":16205:16214   */\n      dup4\n        /* \"#utility.yul\":16201:16219   */\n      add\n        /* \"#utility.yul\":16192:16198   */\n      dup5\n        /* \"#utility.yul\":16148:16220   */\n      tag_412\n      jump\t// in\n    tag_589:\n        /* \"#utility.yul\":15674:16227   */\n      swap6\n      swap5\n      pop\n      pop\n      pop\n      pop\n      pop\n      jump\t// out\n        /* \"#utility.yul\":16233:16414   */\n    tag_432:\n        /* \"#utility.yul\":16373:16406   */\n      0x436f6e747261637420697320696e697469616c697a656420616c726561647900\n        /* \"#utility.yul\":16369:16370   */\n      0x00\n        /* \"#utility.yul\":16361:16367   */\n      dup3\n        /* \"#utility.yul\":16357:16371   */\n      add\n        /* \"#utility.yul\":16350:16407   */\n      mstore\n        /* \"#utility.yul\":16233:16414   */\n      pop\n      jump\t// out\n        /* \"#utility.yul\":16420:16786   */\n    tag_433:\n        /* \"#utility.yul\":16562:16565   */\n      0x00\n        /* \"#utility.yul\":16583:16650   */\n      tag_592\n        /* \"#utility.yul\":16647:16649   */\n      0x1f\n        /* \"#utility.yul\":16642:16645   */\n      dup4\n        /* \"#utility.yul\":16583:16650   */\n      tag_421\n      jump\t// in\n    tag_592:\n        /* \"#utility.yul\":16576:16650   */\n      swap2\n      pop\n        /* \"#utility.yul\":16659:16752   */\n      tag_593\n        /* \"#utility.yul\":16748:16751   */\n      dup3\n        /* \"#utility.yul\":16659:16752   */\n      tag_432\n      jump\t// in\n    tag_593:\n        /* \"#utility.yul\":16777:16779   */\n      0x20\n        /* \"#utility.yul\":16772:16775   */\n      dup3\n        /* \"#utility.yul\":16768:16780   */\n      add\n        /* \"#utility.yul\":16761:16780   */\n      swap1\n      pop\n        /* \"#utility.yul\":16420:16786   */\n      swap2\n      swap1\n      pop\n      jump\t// out\n        /* \"#utility.yul\":16792:17211   */\n    tag_205:\n        /* \"#utility.yul\":16958:16962   */\n      0x00\n        /* \"#utility.yul\":16996:16998   */\n      0x20\n        /* \"#utility.yul\":16985:16994   */\n      dup3\n        /* \"#utility.yul\":16981:16999   */\n      add\n        /* \"#utility.yul\":16973:16999   */\n      swap1\n      pop\n        /* \"#utility.yul\":17045:17054   */\n      dup2\n        /* \"#utility.yul\":17039:17043   */\n      dup2\n        /* \"#utility.yul\":17035:17055   */\n      sub\n        /* \"#utility.yul\":17031:17032   */\n      0x00\n        /* \"#utility.yul\":17020:17029   */\n      dup4\n        /* \"#utility.yul\":17016:17033   */\n      add\n        /* \"#utility.yul\":17009:17056   */\n      mstore\n        /* \"#utility.yul\":17073:17204   */\n      tag_595\n        /* \"#utility.yul\":17199:17203   */\n      dup2\n        /* \"#utility.yul\":17073:17204   */\n      tag_433\n      jump\t// in\n    tag_595:\n        /* \"#utility.yul\":17065:17204   */\n      swap1\n      pop\n        /* \"#utility.yul\":16792:17211   */\n      swap2\n      swap1\n      pop\n      jump\t// out\n        /* \"#utility.yul\":17217:17334   */\n    tag_434:\n        /* \"#utility.yul\":17326:17327   */\n      0x00\n        /* \"#utility.yul\":17323:17324   */\n      dup1\n        /* \"#utility.yul\":17316:17328   */\n      revert\n        /* \"#utility.yul\":17340:17442   */\n    tag_435:\n        /* \"#utility.yul\":17381:17387   */\n      0x00\n        /* \"#utility.yul\":17432:17434   */\n      0x1f\n        /* \"#utility.yul\":17428:17435   */\n      not\n        /* \"#utility.yul\":17423:17425   */\n      0x1f\n        /* \"#utility.yul\":17416:17421   */\n      dup4\n        /* \"#utility.yul\":17412:17426   */\n      add\n        /* \"#utility.yul\":17408:17436   */\n      and\n        /* \"#utility.yul\":17398:17436   */\n      swap1\n      pop\n        /* \"#utility.yul\":17340:17442   */\n      swap2\n      swap1\n      pop\n      jump\t// out\n        /* \"#utility.yul\":17448:17628   */\n    tag_436:\n        /* \"#utility.yul\":17496:17573   */\n      0x4e487b7100000000000000000000000000000000000000000000000000000000\n        /* \"#utility.yul\":17493:17494   */\n      0x00\n        /* \"#utility.yul\":17486:17574   */\n      mstore\n        /* \"#utility.yul\":17593:17597   */\n      0x41\n        /* \"#utility.yul\":17590:17591   */\n      0x04\n        /* \"#utility.yul\":17583:17598   */\n      mstore\n        /* \"#utility.yul\":17617:17621   */\n      0x24\n        /* \"#utility.yul\":17614:17615   */\n      0x00\n        /* \"#utility.yul\":17607:17622   */\n      revert\n        /* \"#utility.yul\":17634:17915   */\n    tag_437:\n        /* \"#utility.yul\":17717:17744   */\n      tag_600\n        /* \"#utility.yul\":17739:17743   */\n      dup3\n        /* \"#utility.yul\":17717:17744   */\n      tag_435\n      jump\t// in\n    tag_600:\n        /* \"#utility.yul\":17709:17715   */\n      dup2\n        /* \"#utility.yul\":17705:17745   */\n      add\n        /* \"#utility.yul\":17847:17853   */\n      dup2\n        /* \"#utility.yul\":17835:17845   */\n      dup2\n        /* \"#utility.yul\":17832:17854   */\n      lt\n        /* \"#utility.yul\":17811:17829   */\n      0xffffffffffffffff\n        /* \"#utility.yul\":17799:17809   */\n      dup3\n        /* \"#utility.yul\":17796:17830   */\n      gt\n        /* \"#utility.yul\":17793:17855   */\n      or\n        /* \"#utility.yul\":17790:17878   */\n      iszero\n      tag_601\n      jumpi\n        /* \"#utility.yul\":17858:17876   */\n      tag_602\n      tag_436\n      jump\t// in\n    tag_602:\n        /* \"#utility.yul\":17790:17878   */\n    tag_601:\n        /* \"#utility.yul\":17898:17908   */\n      dup1\n        /* \"#utility.yul\":17894:17896   */\n      0x40\n        /* \"#utility.yul\":17887:17909   */\n      mstore\n        /* \"#utility.yul\":17677:17915   */\n      pop\n        /* \"#utility.yul\":17634:17915   */\n      pop\n      pop\n      jump\t// out\n        /* \"#utility.yul\":17921:18050   */\n    tag_438:\n        /* \"#utility.yul\":17955:17961   */\n      0x00\n        /* \"#utility.yul\":17982:18002   */\n      tag_604\n      tag_402\n      jump\t// in\n    tag_604:\n        /* \"#utility.yul\":17972:18002   */\n      swap1\n      pop\n        /* \"#utility.yul\":18011:18044   */\n      tag_605\n        /* \"#utility.yul\":18039:18043   */\n      dup3\n        /* \"#utility.yul\":18031:18037   */\n      dup3\n        /* \"#utility.yul\":18011:18044   */\n      tag_437\n      jump\t// in\n    tag_605:\n        /* \"#utility.yul\":17921:18050   */\n      swap2\n      swap1\n      pop\n      jump\t// out\n        /* \"#utility.yul\":18214:19199   */\n    tag_440:\n        /* \"#utility.yul\":18300:18305   */\n      0x00\n        /* \"#utility.yul\":18344:18348   */\n      0x80\n        /* \"#utility.yul\":18332:18341   */\n      dup3\n        /* \"#utility.yul\":18327:18330   */\n      dup5\n        /* \"#utility.yul\":18323:18342   */\n      sub\n        /* \"#utility.yul\":18319:18349   */\n      slt\n        /* \"#utility.yul\":18316:18433   */\n      iszero\n      tag_608\n      jumpi\n        /* \"#utility.yul\":18352:18431   */\n      tag_609\n      tag_434\n      jump\t// in\n    tag_609:\n        /* \"#utility.yul\":18316:18433   */\n    tag_608:\n        /* \"#utility.yul\":18451:18472   */\n      tag_610\n        /* \"#utility.yul\":18467:18471   */\n      0x80\n        /* \"#utility.yul\":18451:18472   */\n      tag_438\n      jump\t// in\n    tag_610:\n        /* \"#utility.yul\":18442:18472   */\n      swap1\n      pop\n        /* \"#utility.yul\":18538:18539   */\n      0x00\n        /* \"#utility.yul\":18578:18638   */\n      tag_611\n        /* \"#utility.yul\":18634:18637   */\n      dup5\n        /* \"#utility.yul\":18625:18631   */\n      dup3\n        /* \"#utility.yul\":18614:18623   */\n      dup6\n        /* \"#utility.yul\":18610:18632   */\n      add\n        /* \"#utility.yul\":18578:18638   */\n      tag_429\n      jump\t// in\n    tag_611:\n        /* \"#utility.yul\":18571:18575   */\n      0x00\n        /* \"#utility.yul\":18564:18569   */\n      dup4\n        /* \"#utility.yul\":18560:18576   */\n      add\n        /* \"#utility.yul\":18553:18639   */\n      mstore\n        /* \"#utility.yul\":18482:18650   */\n      pop\n        /* \"#utility.yul\":18718:18720   */\n      0x20\n        /* \"#utility.yul\":18759:18819   */\n      tag_612\n        /* \"#utility.yul\":18815:18818   */\n      dup5\n        /* \"#utility.yul\":18806:18812   */\n      dup3\n        /* \"#utility.yul\":18795:18804   */\n      dup6\n        /* \"#utility.yul\":18791:18813   */\n      add\n        /* \"#utility.yul\":18759:18819   */\n      tag_428\n      jump\t// in\n    tag_612:\n        /* \"#utility.yul\":18752:18756   */\n      0x20\n        /* \"#utility.yul\":18745:18750   */\n      dup4\n        /* \"#utility.yul\":18741:18757   */\n      add\n        /* \"#utility.yul\":18734:18820   */\n      mstore\n        /* \"#utility.yul\":18660:18831   */\n      pop\n        /* \"#utility.yul\":18900:18902   */\n      0x40\n        /* \"#utility.yul\":18941:19001   */\n      tag_613\n        /* \"#utility.yul\":18997:19000   */\n      dup5\n        /* \"#utility.yul\":18988:18994   */\n      dup3\n        /* \"#utility.yul\":18977:18986   */\n      dup6\n        /* \"#utility.yul\":18973:18995   */\n      add\n        /* \"#utility.yul\":18941:19001   */\n      tag_428\n      jump\t// in\n    tag_613:\n        /* \"#utility.yul\":18934:18938   */\n      0x40\n        /* \"#utility.yul\":18927:18932   */\n      dup4\n        /* \"#utility.yul\":18923:18939   */\n      add\n        /* \"#utility.yul\":18916:19002   */\n      mstore\n        /* \"#utility.yul\":18841:19013   */\n      pop\n        /* \"#utility.yul\":19079:19081   */\n      0x60\n        /* \"#utility.yul\":19120:19180   */\n      tag_614\n        /* \"#utility.yul\":19176:19179   */\n      dup5\n        /* \"#utility.yul\":19167:19173   */\n      dup3\n        /* \"#utility.yul\":19156:19165   */\n      dup6\n        /* \"#utility.yul\":19152:19174   */\n      add\n        /* \"#utility.yul\":19120:19180   */\n      tag_428\n      jump\t// in\n    tag_614:\n        /* \"#utility.yul\":19113:19117   */\n      0x60\n        /* \"#utility.yul\":19106:19111   */\n      dup4\n        /* \"#utility.yul\":19102:19118   */\n      add\n        /* \"#utility.yul\":19095:19181   */\n      mstore\n        /* \"#utility.yul\":19023:19192   */\n      pop\n        /* \"#utility.yul\":18214:19199   */\n      swap3\n      swap2\n      pop\n      pop\n      jump\t// out\n        /* \"#utility.yul\":19205:19609   */\n    tag_253:\n        /* \"#utility.yul\":19301:19307   */\n      0x00\n        /* \"#utility.yul\":19350:19353   */\n      0x80\n        /* \"#utility.yul\":19338:19347   */\n      dup3\n        /* \"#utility.yul\":19329:19336   */\n      dup5\n        /* \"#utility.yul\":19325:19348   */\n      sub\n        /* \"#utility.yul\":19321:19354   */\n      slt\n        /* \"#utility.yul\":19318:19438   */\n      iszero\n      tag_616\n      jumpi\n        /* \"#utility.yul\":19357:19436   */\n      tag_617\n      tag_403\n      jump\t// in\n    tag_617:\n        /* \"#utility.yul\":19318:19438   */\n    tag_616:\n        /* \"#utility.yul\":19477:19478   */\n      0x00\n        /* \"#utility.yul\":19502:19592   */\n      tag_618\n        /* \"#utility.yul\":19584:19591   */\n      dup5\n        /* \"#utility.yul\":19575:19581   */\n      dup3\n        /* \"#utility.yul\":19564:19573   */\n      dup6\n        /* \"#utility.yul\":19560:19582   */\n      add\n        /* \"#utility.yul\":19502:19592   */\n      tag_440\n      jump\t// in\n    tag_618:\n        /* \"#utility.yul\":19492:19592   */\n      swap2\n      pop\n        /* \"#utility.yul\":19448:19602   */\n      pop\n        /* \"#utility.yul\":19205:19609   */\n      swap3\n      swap2\n      pop\n      pop\n      jump\t// out\n        /* \"#utility.yul\":19615:19731   */\n    tag_441:\n        /* \"#utility.yul\":19685:19706   */\n      tag_620\n        /* \"#utility.yul\":19700:19705   */\n      dup2\n        /* \"#utility.yul\":19685:19706   */\n      tag_417\n      jump\t// in\n    tag_620:\n        /* \"#utility.yul\":19678:19683   */\n      dup2\n        /* \"#utility.yul\":19675:19707   */\n      eq\n        /* \"#utility.yul\":19665:19725   */\n      tag_621\n      jumpi\n        /* \"#utility.yul\":19721:19722   */\n      0x00\n        /* \"#utility.yul\":19718:19719   */\n      dup1\n        /* \"#utility.yul\":19711:19723   */\n      revert\n        /* \"#utility.yul\":19665:19725   */\n    tag_621:\n        /* \"#utility.yul\":19615:19731   */\n      pop\n      jump\t// out\n        /* \"#utility.yul\":19737:19874   */\n    tag_442:\n        /* \"#utility.yul\":19791:19796   */\n      0x00\n        /* \"#utility.yul\":19822:19828   */\n      dup2\n        /* \"#utility.yul\":19816:19829   */\n      mload\n        /* \"#utility.yul\":19807:19829   */\n      swap1\n      pop\n        /* \"#utility.yul\":19838:19868   */\n      tag_623\n        /* \"#utility.yul\":19862:19867   */\n      dup2\n        /* \"#utility.yul\":19838:19868   */\n      tag_441\n      jump\t// in\n    tag_623:\n        /* \"#utility.yul\":19737:19874   */\n      swap3\n      swap2\n      pop\n      pop\n      jump\t// out\n        /* \"#utility.yul\":19919:20712   */\n    tag_443:\n        /* \"#utility.yul\":20009:20014   */\n      0x00\n        /* \"#utility.yul\":20053:20057   */\n      0x60\n        /* \"#utility.yul\":20041:20050   */\n      dup3\n        /* \"#utility.yul\":20036:20039   */\n      dup5\n        /* \"#utility.yul\":20032:20051   */\n      sub\n        /* \"#utility.yul\":20028:20058   */\n      slt\n        /* \"#utility.yul\":20025:20142   */\n      iszero\n      tag_625\n      jumpi\n        /* \"#utility.yul\":20061:20140   */\n      tag_626\n      tag_434\n      jump\t// in\n    tag_626:\n        /* \"#utility.yul\":20025:20142   */\n    tag_625:\n        /* \"#utility.yul\":20160:20181   */\n      tag_627\n        /* \"#utility.yul\":20176:20180   */\n      0x60\n        /* \"#utility.yul\":20160:20181   */\n      tag_438\n      jump\t// in\n    tag_627:\n        /* \"#utility.yul\":20151:20181   */\n      swap1\n      pop\n        /* \"#utility.yul\":20242:20243   */\n      0x00\n        /* \"#utility.yul\":20282:20342   */\n      tag_628\n        /* \"#utility.yul\":20338:20341   */\n      dup5\n        /* \"#utility.yul\":20329:20335   */\n      dup3\n        /* \"#utility.yul\":20318:20327   */\n      dup6\n        /* \"#utility.yul\":20314:20336   */\n      add\n        /* \"#utility.yul\":20282:20342   */\n      tag_429\n      jump\t// in\n    tag_628:\n        /* \"#utility.yul\":20275:20279   */\n      0x00\n        /* \"#utility.yul\":20268:20273   */\n      dup4\n        /* \"#utility.yul\":20264:20280   */\n      add\n        /* \"#utility.yul\":20257:20343   */\n      mstore\n        /* \"#utility.yul\":20191:20354   */\n      pop\n        /* \"#utility.yul\":20420:20422   */\n      0x20\n        /* \"#utility.yul\":20461:20521   */\n      tag_629\n        /* \"#utility.yul\":20517:20520   */\n      dup5\n        /* \"#utility.yul\":20508:20514   */\n      dup3\n        /* \"#utility.yul\":20497:20506   */\n      dup6\n        /* \"#utility.yul\":20493:20515   */\n      add\n        /* \"#utility.yul\":20461:20521   */\n      tag_428\n      jump\t// in\n    tag_629:\n        /* \"#utility.yul\":20454:20458   */\n      0x20\n        /* \"#utility.yul\":20447:20452   */\n      dup4\n        /* \"#utility.yul\":20443:20459   */\n      add\n        /* \"#utility.yul\":20436:20522   */\n      mstore\n        /* \"#utility.yul\":20364:20533   */\n      pop\n        /* \"#utility.yul\":20595:20597   */\n      0x40\n        /* \"#utility.yul\":20636:20693   */\n      tag_630\n        /* \"#utility.yul\":20689:20692   */\n      dup5\n        /* \"#utility.yul\":20680:20686   */\n      dup3\n        /* \"#utility.yul\":20669:20678   */\n      dup6\n        /* \"#utility.yul\":20665:20687   */\n      add\n        /* \"#utility.yul\":20636:20693   */\n      tag_442\n      jump\t// in\n    tag_630:\n        /* \"#utility.yul\":20629:20633   */\n      0x40\n        /* \"#utility.yul\":20622:20627   */\n      dup4\n        /* \"#utility.yul\":20618:20634   */\n      add\n        /* \"#utility.yul\":20611:20694   */\n      mstore\n        /* \"#utility.yul\":20543:20705   */\n      pop\n        /* \"#utility.yul\":19919:20712   */\n      swap3\n      swap2\n      pop\n      pop\n      jump\t// out\n        /* \"#utility.yul\":20756:22539   */\n    tag_444:\n        /* \"#utility.yul\":20845:20850   */\n      0x00\n        /* \"#utility.yul\":20889:20895   */\n      0x01c0\n        /* \"#utility.yul\":20877:20886   */\n      dup3\n        /* \"#utility.yul\":20872:20875   */\n      dup5\n        /* \"#utility.yul\":20868:20887   */\n      sub\n        /* \"#utility.yul\":20864:20896   */\n      slt\n        /* \"#utility.yul\":20861:20980   */\n      iszero\n      tag_632\n      jumpi\n        /* \"#utility.yul\":20899:20978   */\n      tag_633\n      tag_434\n      jump\t// in\n    tag_633:\n        /* \"#utility.yul\":20861:20980   */\n    tag_632:\n        /* \"#utility.yul\":20998:21021   */\n      tag_634\n        /* \"#utility.yul\":21014:21020   */\n      0x0100\n        /* \"#utility.yul\":20998:21021   */\n      tag_438\n      jump\t// in\n    tag_634:\n        /* \"#utility.yul\":20989:21021   */\n      swap1\n      pop\n        /* \"#utility.yul\":21081:21082   */\n      0x00\n        /* \"#utility.yul\":21121:21211   */\n      tag_635\n        /* \"#utility.yul\":21207:21210   */\n      dup5\n        /* \"#utility.yul\":21198:21204   */\n      dup3\n        /* \"#utility.yul\":21187:21196   */\n      dup6\n        /* \"#utility.yul\":21183:21205   */\n      add\n        /* \"#utility.yul\":21121:21211   */\n      tag_443\n      jump\t// in\n    tag_635:\n        /* \"#utility.yul\":21114:21118   */\n      0x00\n        /* \"#utility.yul\":21107:21112   */\n      dup4\n        /* \"#utility.yul\":21103:21119   */\n      add\n        /* \"#utility.yul\":21096:21212   */\n      mstore\n        /* \"#utility.yul\":21031:21223   */\n      pop\n        /* \"#utility.yul\":21284:21286   */\n      0x60\n        /* \"#utility.yul\":21325:21415   */\n      tag_636\n        /* \"#utility.yul\":21411:21414   */\n      dup5\n        /* \"#utility.yul\":21402:21408   */\n      dup3\n        /* \"#utility.yul\":21391:21400   */\n      dup6\n        /* \"#utility.yul\":21387:21409   */\n      add\n        /* \"#utility.yul\":21325:21415   */\n      tag_443\n      jump\t// in\n    tag_636:\n        /* \"#utility.yul\":21318:21322   */\n      0x20\n        /* \"#utility.yul\":21311:21316   */\n      dup4\n        /* \"#utility.yul\":21307:21323   */\n      add\n        /* \"#utility.yul\":21300:21416   */\n      mstore\n        /* \"#utility.yul\":21233:21427   */\n      pop\n        /* \"#utility.yul\":21487:21490   */\n      0xc0\n        /* \"#utility.yul\":21529:21619   */\n      tag_637\n        /* \"#utility.yul\":21615:21618   */\n      dup5\n        /* \"#utility.yul\":21606:21612   */\n      dup3\n        /* \"#utility.yul\":21595:21604   */\n      dup6\n        /* \"#utility.yul\":21591:21613   */\n      add\n        /* \"#utility.yul\":21529:21619   */\n      tag_443\n      jump\t// in\n    tag_637:\n        /* \"#utility.yul\":21522:21526   */\n      0x40\n        /* \"#utility.yul\":21515:21520   */\n      dup4\n        /* \"#utility.yul\":21511:21527   */\n      add\n        /* \"#utility.yul\":21504:21620   */\n      mstore\n        /* \"#utility.yul\":21437:21631   */\n      pop\n        /* \"#utility.yul\":21695:21698   */\n      0x0120\n        /* \"#utility.yul\":21737:21794   */\n      tag_638\n        /* \"#utility.yul\":21790:21793   */\n      dup5\n        /* \"#utility.yul\":21781:21787   */\n      dup3\n        /* \"#utility.yul\":21770:21779   */\n      dup6\n        /* \"#utility.yul\":21766:21788   */\n      add\n        /* \"#utility.yul\":21737:21794   */\n      tag_442\n      jump\t// in\n    tag_638:\n        /* \"#utility.yul\":21730:21734   */\n      0x60\n        /* \"#utility.yul\":21723:21728   */\n      dup4\n        /* \"#utility.yul\":21719:21735   */\n      add\n        /* \"#utility.yul\":21712:21795   */\n      mstore\n        /* \"#utility.yul\":21641:21806   */\n      pop\n        /* \"#utility.yul\":21871:21874   */\n      0x0140\n        /* \"#utility.yul\":21913:21973   */\n      tag_639\n        /* \"#utility.yul\":21969:21972   */\n      dup5\n        /* \"#utility.yul\":21960:21966   */\n      dup3\n        /* \"#utility.yul\":21949:21958   */\n      dup6\n        /* \"#utility.yul\":21945:21967   */\n      add\n        /* \"#utility.yul\":21913:21973   */\n      tag_428\n      jump\t// in\n    tag_639:\n        /* \"#utility.yul\":21906:21910   */\n      0x80\n        /* \"#utility.yul\":21899:21904   */\n      dup4\n        /* \"#utility.yul\":21895:21911   */\n      add\n        /* \"#utility.yul\":21888:21974   */\n      mstore\n        /* \"#utility.yul\":21816:21985   */\n      pop\n        /* \"#utility.yul\":22048:22051   */\n      0x0160\n        /* \"#utility.yul\":22090:22150   */\n      tag_640\n        /* \"#utility.yul\":22146:22149   */\n      dup5\n        /* \"#utility.yul\":22137:22143   */\n      dup3\n        /* \"#utility.yul\":22126:22135   */\n      dup6\n        /* \"#utility.yul\":22122:22144   */\n      add\n        /* \"#utility.yul\":22090:22150   */\n      tag_428\n      jump\t// in\n    tag_640:\n        /* \"#utility.yul\":22083:22087   */\n      0xa0\n        /* \"#utility.yul\":22076:22081   */\n      dup4\n        /* \"#utility.yul\":22072:22088   */\n      add\n        /* \"#utility.yul\":22065:22151   */\n      mstore\n        /* \"#utility.yul\":21995:22162   */\n      pop\n        /* \"#utility.yul\":22233:22236   */\n      0x0180\n        /* \"#utility.yul\":22275:22335   */\n      tag_641\n        /* \"#utility.yul\":22331:22334   */\n      dup5\n        /* \"#utility.yul\":22322:22328   */\n      dup3\n        /* \"#utility.yul\":22311:22320   */\n      dup6\n        /* \"#utility.yul\":22307:22329   */\n      add\n        /* \"#utility.yul\":22275:22335   */\n      tag_428\n      jump\t// in\n    tag_641:\n        /* \"#utility.yul\":22268:22272   */\n      0xc0\n        /* \"#utility.yul\":22261:22266   */\n      dup4\n        /* \"#utility.yul\":22257:22273   */\n      add\n        /* \"#utility.yul\":22250:22336   */\n      mstore\n        /* \"#utility.yul\":22172:22347   */\n      pop\n        /* \"#utility.yul\":22418:22421   */\n      0x01a0\n        /* \"#utility.yul\":22460:22520   */\n      tag_642\n        /* \"#utility.yul\":22516:22519   */\n      dup5\n        /* \"#utility.yul\":22507:22513   */\n      dup3\n        /* \"#utility.yul\":22496:22505   */\n      dup6\n        /* \"#utility.yul\":22492:22514   */\n      add\n        /* \"#utility.yul\":22460:22520   */\n      tag_428\n      jump\t// in\n    tag_642:\n        /* \"#utility.yul\":22453:22457   */\n      0xe0\n        /* \"#utility.yul\":22446:22451   */\n      dup4\n        /* \"#utility.yul\":22442:22458   */\n      add\n        /* \"#utility.yul\":22435:22521   */\n      mstore\n        /* \"#utility.yul\":22357:22532   */\n      pop\n        /* \"#utility.yul\":20756:22539   */\n      swap3\n      swap2\n      pop\n      pop\n      jump\t// out\n        /* \"#utility.yul\":22545:22955   */\n    tag_273:\n        /* \"#utility.yul\":22644:22650   */\n      0x00\n        /* \"#utility.yul\":22693:22696   */\n      0x01c0\n        /* \"#utility.yul\":22681:22690   */\n      dup3\n        /* \"#utility.yul\":22672:22679   */\n      dup5\n        /* \"#utility.yul\":22668:22691   */\n      sub\n        /* \"#utility.yul\":22664:22697   */\n      slt\n        /* \"#utility.yul\":22661:22781   */\n      iszero\n      tag_644\n      jumpi\n        /* \"#utility.yul\":22700:22779   */\n      tag_645\n      tag_403\n      jump\t// in\n    tag_645:\n        /* \"#utility.yul\":22661:22781   */\n    tag_644:\n        /* \"#utility.yul\":22820:22821   */\n      0x00\n        /* \"#utility.yul\":22845:22938   */\n      tag_646\n        /* \"#utility.yul\":22930:22937   */\n      dup5\n        /* \"#utility.yul\":22921:22927   */\n      dup3\n        /* \"#utility.yul\":22910:22919   */\n      dup6\n        /* \"#utility.yul\":22906:22928   */\n      add\n        /* \"#utility.yul\":22845:22938   */\n      tag_444\n      jump\t// in\n    tag_646:\n        /* \"#utility.yul\":22835:22938   */\n      swap2\n      pop\n        /* \"#utility.yul\":22791:22948   */\n      pop\n        /* \"#utility.yul\":22545:22955   */\n      swap3\n      swap2\n      pop\n      pop\n      jump\t// out\n        /* \"#utility.yul\":22961:23130   */\n    tag_445:\n        /* \"#utility.yul\":23101:23122   */\n      0x4e6f207265776172647320746f20636c61696d00000000000000000000000000\n        /* \"#utility.yul\":23097:23098   */\n      0x00\n        /* \"#utility.yul\":23089:23095   */\n      dup3\n        /* \"#utility.yul\":23085:23099   */\n      add\n        /* \"#utility.yul\":23078:23123   */\n      mstore\n        /* \"#utility.yul\":22961:23130   */\n      pop\n      jump\t// out\n        /* \"#utility.yul\":23136:23502   */\n    tag_446:\n        /* \"#utility.yul\":23278:23281   */\n      0x00\n        /* \"#utility.yul\":23299:23366   */\n      tag_649\n        /* \"#utility.yul\":23363:23365   */\n      0x13\n        /* \"#utility.yul\":23358:23361   */\n      dup4\n        /* \"#utility.yul\":23299:23366   */\n      tag_421\n      jump\t// in\n    tag_649:\n        /* \"#utility.yul\":23292:23366   */\n      swap2\n      pop\n        /* \"#utility.yul\":23375:23468   */\n      tag_650\n        /* \"#utility.yul\":23464:23467   */\n      dup3\n        /* \"#utility.yul\":23375:23468   */\n      tag_445\n      jump\t// in\n    tag_650:\n        /* \"#utility.yul\":23493:23495   */\n      0x20\n        /* \"#utility.yul\":23488:23491   */\n      dup3\n        /* \"#utility.yul\":23484:23496   */\n      add\n        /* \"#utility.yul\":23477:23496   */\n      swap1\n      pop\n        /* \"#utility.yul\":23136:23502   */\n      swap2\n      swap1\n      pop\n      jump\t// out\n        /* \"#utility.yul\":23508:23927   */\n    tag_346:\n        /* \"#utility.yul\":23674:23678   */\n      0x00\n        /* \"#utility.yul\":23712:23714   */\n      0x20\n        /* \"#utility.yul\":23701:23710   */\n      dup3\n        /* \"#utility.yul\":23697:23715   */\n      add\n        /* \"#utility.yul\":23689:23715   */\n      swap1\n      pop\n        /* \"#utility.yul\":23761:23770   */\n      dup2\n        /* \"#utility.yul\":23755:23759   */\n      dup2\n        /* \"#utility.yul\":23751:23771   */\n      sub\n        /* \"#utility.yul\":23747:23748   */\n      0x00\n        /* \"#utility.yul\":23736:23745   */\n      dup4\n        /* \"#utility.yul\":23732:23749   */\n      add\n        /* \"#utility.yul\":23725:23772   */\n      mstore\n        /* \"#utility.yul\":23789:23920   */\n      tag_652\n        /* \"#utility.yul\":23915:23919   */\n      dup2\n        /* \"#utility.yul\":23789:23920   */\n      tag_446\n      jump\t// in\n    tag_652:\n        /* \"#utility.yul\":23781:23920   */\n      swap1\n      pop\n        /* \"#utility.yul\":23508:23927   */\n      swap2\n      swap1\n      pop\n      jump\t// out\n        /* \"#utility.yul\":23933:24265   */\n    tag_349:\n        /* \"#utility.yul\":24054:24058   */\n      0x00\n        /* \"#utility.yul\":24092:24094   */\n      0x40\n        /* \"#utility.yul\":24081:24090   */\n      dup3\n        /* \"#utility.yul\":24077:24095   */\n      add\n        /* \"#utility.yul\":24069:24095   */\n      swap1\n      pop\n        /* \"#utility.yul\":24105:24176   */\n      tag_654\n        /* \"#utility.yul\":24173:24174   */\n      0x00\n        /* \"#utility.yul\":24162:24171   */\n      dup4\n        /* \"#utility.yul\":24158:24175   */\n      add\n        /* \"#utility.yul\":24149:24155   */\n      dup6\n        /* \"#utility.yul\":24105:24176   */\n      tag_427\n      jump\t// in\n    tag_654:\n        /* \"#utility.yul\":24186:24258   */\n      tag_655\n        /* \"#utility.yul\":24254:24256   */\n      0x20\n        /* \"#utility.yul\":24243:24252   */\n      dup4\n        /* \"#utility.yul\":24239:24257   */\n      add\n        /* \"#utility.yul\":24230:24236   */\n      dup5\n        /* \"#utility.yul\":24186:24258   */\n      tag_412\n      jump\t// in\n    tag_655:\n        /* \"#utility.yul\":23933:24265   */\n      swap4\n      swap3\n      pop\n      pop\n      pop\n      jump\t// out\n        /* \"#utility.yul\":24271:24616   */\n    tag_353:\n        /* \"#utility.yul\":24338:24344   */\n      0x00\n        /* \"#utility.yul\":24387:24389   */\n      0x20\n        /* \"#utility.yul\":24375:24384   */\n      dup3\n        /* \"#utility.yul\":24366:24373   */\n      dup5\n        /* \"#utility.yul\":24362:24385   */\n      sub\n        /* \"#utility.yul\":24358:24390   */\n      slt\n        /* \"#utility.yul\":24355:24474   */\n      iszero\n      tag_657\n      jumpi\n        /* \"#utility.yul\":24393:24472   */\n      tag_658\n      tag_403\n      jump\t// in\n    tag_658:\n        /* \"#utility.yul\":24355:24474   */\n    tag_657:\n        /* \"#utility.yul\":24513:24514   */\n      0x00\n        /* \"#utility.yul\":24538:24599   */\n      tag_659\n        /* \"#utility.yul\":24591:24598   */\n      dup5\n        /* \"#utility.yul\":24582:24588   */\n      dup3\n        /* \"#utility.yul\":24571:24580   */\n      dup6\n        /* \"#utility.yul\":24567:24589   */\n      add\n        /* \"#utility.yul\":24538:24599   */\n      tag_442\n      jump\t// in\n    tag_659:\n        /* \"#utility.yul\":24528:24599   */\n      swap2\n      pop\n        /* \"#utility.yul\":24484:24609   */\n      pop\n        /* \"#utility.yul\":24271:24616   */\n      swap3\n      swap2\n      pop\n      pop\n      jump\t// out\n        /* \"#utility.yul\":24622:24707   */\n    tag_447:\n        /* \"#utility.yul\":24667:24674   */\n      0x00\n        /* \"#utility.yul\":24696:24701   */\n      dup2\n        /* \"#utility.yul\":24685:24701   */\n      swap1\n      pop\n        /* \"#utility.yul\":24622:24707   */\n      swap2\n      swap1\n      pop\n      jump\t// out\n        /* \"#utility.yul\":24713:24773   */\n    tag_448:\n        /* \"#utility.yul\":24741:24744   */\n      0x00\n        /* \"#utility.yul\":24762:24767   */\n      dup2\n        /* \"#utility.yul\":24755:24767   */\n      swap1\n      pop\n        /* \"#utility.yul\":24713:24773   */\n      swap2\n      swap1\n      pop\n      jump\t// out\n        /* \"#utility.yul\":24779:24937   */\n    tag_449:\n        /* \"#utility.yul\":24837:24846   */\n      0x00\n        /* \"#utility.yul\":24870:24931   */\n      tag_663\n        /* \"#utility.yul\":24888:24930   */\n      tag_664\n        /* \"#utility.yul\":24897:24929   */\n      tag_665\n        /* \"#utility.yul\":24923:24928   */\n      dup5\n        /* \"#utility.yul\":24897:24929   */\n      tag_447\n      jump\t// in\n    tag_665:\n        /* \"#utility.yul\":24888:24930   */\n      tag_448\n      jump\t// in\n    tag_664:\n        /* \"#utility.yul\":24870:24931   */\n      tag_405\n      jump\t// in\n    tag_663:\n        /* \"#utility.yul\":24857:24931   */\n      swap1\n      pop\n        /* \"#utility.yul\":24779:24937   */\n      swap2\n      swap1\n      pop\n      jump\t// out\n        /* \"#utility.yul\":24943:25090   */\n    tag_450:\n        /* \"#utility.yul\":25038:25083   */\n      tag_667\n        /* \"#utility.yul\":25077:25082   */\n      dup2\n        /* \"#utility.yul\":25038:25083   */\n      tag_449\n      jump\t// in\n    tag_667:\n        /* \"#utility.yul\":25033:25036   */\n      dup3\n        /* \"#utility.yul\":25026:25084   */\n      mstore\n        /* \"#utility.yul\":24943:25090   */\n      pop\n      pop\n      jump\t// out\n        /* \"#utility.yul\":25096:25444   */\n    tag_385:\n        /* \"#utility.yul\":25225:25229   */\n      0x00\n        /* \"#utility.yul\":25263:25265   */\n      0x40\n        /* \"#utility.yul\":25252:25261   */\n      dup3\n        /* \"#utility.yul\":25248:25266   */\n      add\n        /* \"#utility.yul\":25240:25266   */\n      swap1\n      pop\n        /* \"#utility.yul\":25276:25347   */\n      tag_669\n        /* \"#utility.yul\":25344:25345   */\n      0x00\n        /* \"#utility.yul\":25333:25342   */\n      dup4\n        /* \"#utility.yul\":25329:25346   */\n      add\n        /* \"#utility.yul\":25320:25326   */\n      dup6\n        /* \"#utility.yul\":25276:25347   */\n      tag_427\n      jump\t// in\n    tag_669:\n        /* \"#utility.yul\":25357:25437   */\n      tag_670\n        /* \"#utility.yul\":25433:25435   */\n      0x20\n        /* \"#utility.yul\":25422:25431   */\n      dup4\n        /* \"#utility.yul\":25418:25436   */\n      add\n        /* \"#utility.yul\":25409:25415   */\n      dup5\n        /* \"#utility.yul\":25357:25437   */\n      tag_450\n      jump\t// in\n    tag_670:\n        /* \"#utility.yul\":25096:25444   */\n      swap4\n      swap3\n      pop\n      pop\n      pop\n      jump\t// out\n\n    auxdata: 0xa264697066735822122065b6f5331e3ad2ea87ce035c18a736789f6882e3419c3ab13a5f3363e4a1bf0264736f6c63430008150033\n}\n",
				"bytecode": {
					"linkReferences": {},
					"object": "608060405234801561000f575f80fd5b5061332b8061001d5f395ff3fe608060405234801561000f575f80fd5b50600436106100fe575f3560e01c8063b3944d5211610095578063e2bbb15811610064578063e2bbb158146102cc578063fa7c828a146102e8578063fac4348b14610304578063fdc9ccfa14610334576100fe565b8063b3944d5214610246578063b8764c3914610264578063c4d66de814610294578063d914cd4b146102b0576100fe565b8063888d7bdd116100d1578063888d7bdd146101ae5780638f244630146101de578063a38dcbd01461020e578063ae169a501461022a576100fe565b8063441a3e701461010257806357ba8dde1461011e5780635922f9c91461014e57806360ab49ea1461017e575b5f80fd5b61011c600480360381019061011791906127d6565b610364565b005b6101386004803603810190610133919061286e565b610541565b60405161014591906128cd565b60405180910390f35b610168600480360381019061016391906128e6565b610633565b60405161017591906128cd565b60405180910390f35b610198600480360381019061019391906128e6565b610716565b6040516101a591906128cd565b60405180910390f35b6101c860048036038101906101c39190612911565b6107f9565b6040516101d591906128cd565b60405180910390f35b6101f860048036038101906101f391906128e6565b6108e8565b60405161020591906128cd565b60405180910390f35b610228600480360381019061022391906128e6565b6109cb565b005b610244600480360381019061023f91906128e6565b610b95565b005b61024e610e94565b60405161025b91906128cd565b60405180910390f35b61027e600480360381019061027991906128e6565b610ea5565b60405161028b919061298b565b60405180910390f35b6102ae60048036038101906102a991906129a4565b610fe6565b005b6102ca60048036038101906102c591906129a4565b611062565b005b6102e660048036038101906102e191906127d6565b6112cb565b005b61030260048036038101906102fd91906129a4565b6114b5565b005b61031e600480360381019061031991906129cf565b6115c1565b60405161032b9190612a6f565b60405180910390f35b61034e600480360381019061034991906127d6565b6117e7565b60405161035b9190612b87565b60405180910390f35b5f8054146103a7576040517f08c379a000000000000000000000000000000000000000000000000000000000815260040161039e90612bfb565b60405180910390fd5b60015f819055505f60018054905090506001816103c49190612c46565b831115610406576040517f08c379a00000000000000000000000000000000000000000000000000000000081526004016103fd90612cc3565b60405180910390fd5b5f6001848154811061041b5761041a612ce1565b5b905f5260205f2090600202016040518060400160405290815f82015f9054906101000a900473ffffffffffffffffffffffffffffffffffffffff1673ffffffffffffffffffffffffffffffffffffffff1673ffffffffffffffffffffffffffffffffffffffff168152602001600182015f9054906101000a900473ffffffffffffffffffffffffffffffffffffffff1673ffffffffffffffffffffffffffffffffffffffff1673ffffffffffffffffffffffffffffffffffffffff168152505090505f815f015190505f826020015190506104f83383838861202c565b7f53f917d4e27ae27751aa814f667aa2382dc59d7dd33b9b9b887abec7b2da182833838760405161052b93929190612d1d565b60405180910390a1505050505f80819055505050565b5f8060018054905090506001816105589190612c46565b84111561059a576040517f08c379a000000000000000000000000000000000000000000000000000000000815260040161059190612cc3565b60405180910390fd5b5f6105a485610ea5565b5f015190505f8173ffffffffffffffffffffffffffffffffffffffff1663d474fbf788876040518363ffffffff1660e01b81526004016105e5929190612d52565b602060405180830381865afa158015610600573d5f803e3d5ffd5b505050506040513d601f19601f820116820180604052508101906106249190612d8d565b90508093505050509392505050565b5f80600180549050905060018161064a9190612c46565b83111561068c576040517f08c379a000000000000000000000000000000000000000000000000000000000815260040161068390612cc3565b60405180910390fd5b5f61069684610ea5565b5f015190505f8173ffffffffffffffffffffffffffffffffffffffff1663a3d74f066040518163ffffffff1660e01b8152600401602060405180830381865afa1580156106e5573d5f803e3d5ffd5b505050506040513d601f19601f820116820180604052508101906107099190612d8d565b9050809350505050919050565b5f80600180549050905060018161072d9190612c46565b83111561076f576040517f08c379a000000000000000000000000000000000000000000000000000000000815260040161076690612cc3565b60405180910390fd5b5f61077984610ea5565b5f015190505f8173ffffffffffffffffffffffffffffffffffffffff1663fd2324de6040518163ffffffff1660e01b8152600401602060405180830381865afa1580156107c8573d5f803e3d5ffd5b505050506040513d601f19601f820116820180604052508101906107ec9190612d8d565b9050809350505050919050565b5f8060018054905090506001816108109190612c46565b831115610852576040517f08c379a000000000000000000000000000000000000000000000000000000000815260040161084990612cc3565b60405180910390fd5b5f61085c84610ea5565b5f015190505f8173ffffffffffffffffffffffffffffffffffffffff1663a583024b876040518263ffffffff1660e01b815260040161089b9190612db8565b602060405180830381865afa1580156108b6573d5f803e3d5ffd5b505050506040513d601f19601f820116820180604052508101906108da9190612d8d565b905080935050505092915050565b5f8060018054905090506001816108ff9190612c46565b831115610941576040517f08c379a000000000000000000000000000000000000000000000000000000000815260040161093890612cc3565b60405180910390fd5b5f61094b84610ea5565b5f015190505f8173ffffffffffffffffffffffffffffffffffffffff166326be90bf6040518163ffffffff1660e01b8152600401602060405180830381865afa15801561099a573d5f803e3d5ffd5b505050506040513d601f19601f820116820180604052508101906109be9190612d8d565b9050809350505050919050565b5f60025f9054906101000a900473ffffffffffffffffffffffffffffffffffffffff1673ffffffffffffffffffffffffffffffffffffffff16633018205f6040518163ffffffff1660e01b8152600401602060405180830381865afa158015610a36573d5f803e3d5ffd5b505050506040513d601f19601f82011682018060405250810190610a5a9190612de5565b90508073ffffffffffffffffffffffffffffffffffffffff163373ffffffffffffffffffffffffffffffffffffffff1614610aca576040517f08c379a0000000000000000000000000000000000000000000000000000000008152600401610ac190612e5a565b60405180910390fd5b5f6001805490509050600181610ae09190612c46565b831115610b22576040517f08c379a0000000000000000000000000000000000000000000000000000000008152600401610b1990612cc3565b60405180910390fd5b60018381548110610b3657610b35612ce1565b5b905f5260205f2090600202015f8082015f6101000a81549073ffffffffffffffffffffffffffffffffffffffff0219169055600182015f6101000a81549073ffffffffffffffffffffffffffffffffffffffff02191690555050505050565b5f805414610bd8576040517f08c379a0000000000000000000000000000000000000000000000000000000008152600401610bcf90612bfb565b60405180910390fd5b60015f819055505f6001805490509050600181610bf59190612c46565b821115610c37576040517f08c379a0000000000000000000000000000000000000000000000000000000008152600401610c2e90612cc3565b60405180910390fd5b5f60018381548110610c4c57610c4b612ce1565b5b905f5260205f2090600202016040518060400160405290815f82015f9054906101000a900473ffffffffffffffffffffffffffffffffffffffff1673ffffffffffffffffffffffffffffffffffffffff1673ffffffffffffffffffffffffffffffffffffffff168152602001600182015f9054906101000a900473ffffffffffffffffffffffffffffffffffffffff1673ffffffffffffffffffffffffffffffffffffffff1673ffffffffffffffffffffffffffffffffffffffff168152505090505f815f015190505f826020015190505f8173ffffffffffffffffffffffffffffffffffffffff166370a08231306040518263ffffffff1660e01b8152600401610d579190612db8565b602060405180830381865afa158015610d72573d5f803e3d5ffd5b505050506040513d601f19601f82011682018060405250810190610d969190612d8d565b90505f610da33385612150565b90505f8373ffffffffffffffffffffffffffffffffffffffff166370a08231306040518263ffffffff1660e01b8152600401610ddf9190612db8565b602060405180830381865afa158015610dfa573d5f803e3d5ffd5b505050506040513d601f19601f82011682018060405250810190610e1e9190612d8d565b90505f8382610e2d9190612c46565b905082811015610e3b575f80fd5b610e46338685612219565b7ff5a48ea938b5e8d78be0d8d0d1e277621d4854f2b208ee83ae3702ce61828ab533878786604051610e7b9493929190612e78565b60405180910390a150505050505050505f808190555050565b5f8060018054905090508091505090565b610ead61268e565b5f6001805490509050600181610ec39190612c46565b831115610f05576040517f08c379a0000000000000000000000000000000000000000000000000000000008152600401610efc90612cc3565b60405180910390fd5b5f60018481548110610f1a57610f19612ce1565b5b905f5260205f2090600202016040518060400160405290815f82015f9054906101000a900473ffffffffffffffffffffffffffffffffffffffff1673ffffffffffffffffffffffffffffffffffffffff1673ffffffffffffffffffffffffffffffffffffffff168152602001600182015f9054906101000a900473ffffffffffffffffffffffffffffffffffffffff1673ffffffffffffffffffffffffffffffffffffffff1673ffffffffffffffffffffffffffffffffffffffff168152505090508092505050919050565b5f1515600260149054906101000a900460ff1615151461103b576040517f08c379a000000000000000000000000000000000000000000000000000000000815260040161103290612f05565b60405180910390fd5b611044816122a6565b6001600260146101000a81548160ff02191690831515021790555050565b5f60025f9054906101000a900473ffffffffffffffffffffffffffffffffffffffff1673ffffffffffffffffffffffffffffffffffffffff16633018205f6040518163ffffffff1660e01b8152600401602060405180830381865afa1580156110cd573d5f803e3d5ffd5b505050506040513d601f19601f820116820180604052508101906110f19190612de5565b90508073ffffffffffffffffffffffffffffffffffffffff163373ffffffffffffffffffffffffffffffffffffffff1614611161576040517f08c379a000000000000000000000000000000000000000000000000000000000815260040161115890612e5a565b60405180910390fd5b5f8273ffffffffffffffffffffffffffffffffffffffff16630fce03b96040518163ffffffff1660e01b8152600401602060405180830381865afa1580156111ab573d5f803e3d5ffd5b505050506040513d601f19601f820116820180604052508101906111cf9190612de5565b9050600160405180604001604052808573ffffffffffffffffffffffffffffffffffffffff1681526020018373ffffffffffffffffffffffffffffffffffffffff16815250908060018154018082558091505060019003905f5260205f2090600202015f909190919091505f820151815f015f6101000a81548173ffffffffffffffffffffffffffffffffffffffff021916908373ffffffffffffffffffffffffffffffffffffffff1602179055506020820151816001015f6101000a81548173ffffffffffffffffffffffffffffffffffffffff021916908373ffffffffffffffffffffffffffffffffffffffff1602179055505050505050565b5f80541461130e576040517f08c379a000000000000000000000000000000000000000000000000000000000815260040161130590612bfb565b60405180910390fd5b60015f819055505f600180549050905060018161132b9190612c46565b83111561136d576040517f08c379a000000000000000000000000000000000000000000000000000000000815260040161136490612cc3565b60405180910390fd5b5f6001848154811061138257611381612ce1565b5b905f5260205f2090600202016040518060400160405290815f82015f9054906101000a900473ffffffffffffffffffffffffffffffffffffffff1673ffffffffffffffffffffffffffffffffffffffff1673ffffffffffffffffffffffffffffffffffffffff168152602001600182015f9054906101000a900473ffffffffffffffffffffffffffffffffffffffff1673ffffffffffffffffffffffffffffffffffffffff1673ffffffffffffffffffffffffffffffffffffffff168152505090505f815f015190505f826020015190505f61145e82876122e9565b905061146c33848484612490565b7e8fa12fdef5e29f599717a6d129ca52c2d8a902498312eab6a78c6090b8e8e033848360405161149e93929190612d1d565b60405180910390a150505050505f80819055505050565b5f60025f9054906101000a900473ffffffffffffffffffffffffffffffffffffffff1673ffffffffffffffffffffffffffffffffffffffff1663893d20e86040518163ffffffff1660e01b8152600401602060405180830381865afa158015611520573d5f803e3d5ffd5b505050506040513d601f19601f820116820180604052508101906115449190612de5565b90508073ffffffffffffffffffffffffffffffffffffffff163373ffffffffffffffffffffffffffffffffffffffff16146115b4576040517f08c379a00000000000000000000000000000000000000000000000000000000081526004016115ab90612e5a565b60405180910390fd5b6115bd826122a6565b5050565b6115c96126d2565b5f60018054905090506001816115df9190612c46565b841115611621576040517f08c379a000000000000000000000000000000000000000000000000000000000815260040161161890612cc3565b60405180910390fd5b5f61162b85610ea5565b5f015190505f60405180608001604052808673ffffffffffffffffffffffffffffffffffffffff1681526020018373ffffffffffffffffffffffffffffffffffffffff1663b3a7834d886040518263ffffffff1660e01b81526004016116919190612db8565b608060405180830381865afa1580156116ac573d5f803e3d5ffd5b505050506040513d601f19601f820116820180604052508101906116d09190613024565b6020015181526020018373ffffffffffffffffffffffffffffffffffffffff1663b3a7834d886040518263ffffffff1660e01b81526004016117129190612db8565b608060405180830381865afa15801561172d573d5f803e3d5ffd5b505050506040513d601f19601f820116820180604052508101906117519190613024565b6040015181526020018373ffffffffffffffffffffffffffffffffffffffff1663b3a7834d886040518263ffffffff1660e01b81526004016117939190612db8565b608060405180830381865afa1580156117ae573d5f803e3d5ffd5b505050506040513d601f19601f820116820180604052508101906117d29190613024565b60600151815250905080935050505092915050565b6117ef61270c565b5f60018054905090506001816118059190612c46565b831115611847576040517f08c379a000000000000000000000000000000000000000000000000000000000815260040161183e90612cc3565b60405180910390fd5b5f61185184610ea5565b5f015190505f60405180606001604052808373ffffffffffffffffffffffffffffffffffffffff1663135022c2896040518263ffffffff1660e01b815260040161189b91906128cd565b6101c060405180830381865afa1580156118b7573d5f803e3d5ffd5b505050506040513d601f19601f820116820180604052508101906118db91906131a6565b5f01515f015173ffffffffffffffffffffffffffffffffffffffff1681526020018373ffffffffffffffffffffffffffffffffffffffff1663135022c2896040518263ffffffff1660e01b815260040161193591906128cd565b6101c060405180830381865afa158015611951573d5f803e3d5ffd5b505050506040513d601f19601f8201168201806040525081019061197591906131a6565b5f01516020015181526020018373ffffffffffffffffffffffffffffffffffffffff1663135022c2896040518263ffffffff1660e01b81526004016119ba91906128cd565b6101c060405180830381865afa1580156119d6573d5f803e3d5ffd5b505050506040513d601f19601f820116820180604052508101906119fa91906131a6565b5f015160400151151581525090505f60405180606001604052808473ffffffffffffffffffffffffffffffffffffffff1663135022c28a6040518263ffffffff1660e01b8152600401611a4d91906128cd565b6101c060405180830381865afa158015611a69573d5f803e3d5ffd5b505050506040513d601f19601f82011682018060405250810190611a8d91906131a6565b602001515f015173ffffffffffffffffffffffffffffffffffffffff1681526020018473ffffffffffffffffffffffffffffffffffffffff1663135022c28a6040518263ffffffff1660e01b8152600401611ae891906128cd565b6101c060405180830381865afa158015611b04573d5f803e3d5ffd5b505050506040513d601f19601f82011682018060405250810190611b2891906131a6565b602001516020015181526020018473ffffffffffffffffffffffffffffffffffffffff1663135022c28a6040518263ffffffff1660e01b8152600401611b6e91906128cd565b6101c060405180830381865afa158015611b8a573d5f803e3d5ffd5b505050506040513d601f19601f82011682018060405250810190611bae91906131a6565b6020015160400151151581525090505f60405180606001604052808573ffffffffffffffffffffffffffffffffffffffff1663135022c28b6040518263ffffffff1660e01b8152600401611c0291906128cd565b6101c060405180830381865afa158015611c1e573d5f803e3d5ffd5b505050506040513d601f19601f82011682018060405250810190611c4291906131a6565b604001515f015173ffffffffffffffffffffffffffffffffffffffff1681526020018573ffffffffffffffffffffffffffffffffffffffff1663135022c28b6040518263ffffffff1660e01b8152600401611c9d91906128cd565b6101c060405180830381865afa158015611cb9573d5f803e3d5ffd5b505050506040513d601f19601f82011682018060405250810190611cdd91906131a6565b604001516020015181526020018573ffffffffffffffffffffffffffffffffffffffff1663135022c28b6040518263ffffffff1660e01b8152600401611d2391906128cd565b6101c060405180830381865afa158015611d3f573d5f803e3d5ffd5b505050506040513d601f19601f82011682018060405250810190611d6391906131a6565b6040015160400151151581525090505f6040518061010001604052808581526020018481526020018381526020018673ffffffffffffffffffffffffffffffffffffffff1663135022c28c6040518263ffffffff1660e01b8152600401611dca91906128cd565b6101c060405180830381865afa158015611de6573d5f803e3d5ffd5b505050506040513d601f19601f82011682018060405250810190611e0a91906131a6565b60600151151581526020018673ffffffffffffffffffffffffffffffffffffffff1663135022c28c6040518263ffffffff1660e01b8152600401611e4e91906128cd565b6101c060405180830381865afa158015611e6a573d5f803e3d5ffd5b505050506040513d601f19601f82011682018060405250810190611e8e91906131a6565b6080015181526020018673ffffffffffffffffffffffffffffffffffffffff1663135022c28c6040518263ffffffff1660e01b8152600401611ed091906128cd565b6101c060405180830381865afa158015611eec573d5f803e3d5ffd5b505050506040513d601f19601f82011682018060405250810190611f1091906131a6565b60a0015181526020018673ffffffffffffffffffffffffffffffffffffffff1663135022c28c6040518263ffffffff1660e01b8152600401611f5291906128cd565b6101c060405180830381865afa158015611f6e573d5f803e3d5ffd5b505050506040513d601f19601f82011682018060405250810190611f9291906131a6565b60c0015181526020018673ffffffffffffffffffffffffffffffffffffffff1663135022c28c6040518263ffffffff1660e01b8152600401611fd491906128cd565b6101c060405180830381865afa158015611ff0573d5f803e3d5ffd5b505050506040513d601f19601f8201168201806040525081019061201491906131a6565b60e00151815250905080965050505050505092915050565b5f8273ffffffffffffffffffffffffffffffffffffffff166370a08231306040518263ffffffff1660e01b81526004016120669190612db8565b602060405180830381865afa158015612081573d5f803e3d5ffd5b505050506040513d601f19601f820116820180604052508101906120a59190612d8d565b90506120b28585846124ac565b5f8373ffffffffffffffffffffffffffffffffffffffff166370a08231306040518263ffffffff1660e01b81526004016120ec9190612db8565b602060405180830381865afa158015612107573d5f803e3d5ffd5b505050506040513d601f19601f8201168201806040525081019061212b9190612d8d565b90505f828261213a9190612c46565b9050612147878683612219565b50505050505050565b5f808273ffffffffffffffffffffffffffffffffffffffff16631ac6d19d856040518263ffffffff1660e01b815260040161218b9190612db8565b6020604051808303815f875af11580156121a7573d5f803e3d5ffd5b505050506040513d601f19601f820116820180604052508101906121cb9190612d8d565b90505f811161220f576040517f08c379a00000000000000000000000000000000000000000000000000000000081526004016122069061321c565b60405180910390fd5b8091505092915050565b5f8273ffffffffffffffffffffffffffffffffffffffff1663a9059cbb85846040518363ffffffff1660e01b815260040161225592919061323a565b6020604051808303815f875af1158015612271573d5f803e3d5ffd5b505050506040513d601f19601f820116820180604052508101906122959190613261565b9050806122a0575f80fd5b50505050565b8060025f6101000a81548173ffffffffffffffffffffffffffffffffffffffff021916908373ffffffffffffffffffffffffffffffffffffffff16021790555050565b5f8082116122f5575f80fd5b5f8373ffffffffffffffffffffffffffffffffffffffff166370a08231306040518263ffffffff1660e01b815260040161232f9190612db8565b602060405180830381865afa15801561234a573d5f803e3d5ffd5b505050506040513d601f19601f8201168201806040525081019061236e9190612d8d565b90505f8473ffffffffffffffffffffffffffffffffffffffff166323b872dd3330876040518463ffffffff1660e01b81526004016123ae93929190612d1d565b6020604051808303815f875af11580156123ca573d5f803e3d5ffd5b505050506040513d601f19601f820116820180604052508101906123ee9190613261565b9050806123f9575f80fd5b5f8573ffffffffffffffffffffffffffffffffffffffff166370a08231306040518263ffffffff1660e01b81526004016124339190612db8565b602060405180830381865afa15801561244e573d5f803e3d5ffd5b505050506040513d601f19601f820116820180604052508101906124729190612d8d565b90505f83826124819190612c46565b90508094505050505092915050565b61249b838383612524565b6124a6848483612621565b50505050565b5f81116124b7575f80fd5b8173ffffffffffffffffffffffffffffffffffffffff1663db518db284836040518363ffffffff1660e01b81526004016124f292919061323a565b5f604051808303815f87803b158015612509575f80fd5b505af115801561251b573d5f803e3d5ffd5b50505050505050565b8173ffffffffffffffffffffffffffffffffffffffff1663095ea7b3845f6040518363ffffffff1660e01b815260040161255f9291906132ce565b6020604051808303815f875af115801561257b573d5f803e3d5ffd5b505050506040513d601f19601f8201168201806040525081019061259f9190613261565b508173ffffffffffffffffffffffffffffffffffffffff1663095ea7b384836040518363ffffffff1660e01b81526004016125db92919061323a565b6020604051808303815f875af11580156125f7573d5f803e3d5ffd5b505050506040513d601f19601f8201168201806040525081019061261b9190613261565b50505050565b8173ffffffffffffffffffffffffffffffffffffffff16632f4f21e284836040518363ffffffff1660e01b815260040161265c92919061323a565b5f604051808303815f87803b158015612673575f80fd5b505af1158015612685573d5f803e3d5ffd5b50505050505050565b60405180604001604052805f73ffffffffffffffffffffffffffffffffffffffff1681526020015f73ffffffffffffffffffffffffffffffffffffffff1681525090565b60405180608001604052805f73ffffffffffffffffffffffffffffffffffffffff1681526020015f81526020015f81526020015f81525090565b604051806101000160405280612720612760565b815260200161272d612760565b815260200161273a612760565b81526020015f151581526020015f81526020015f81526020015f81526020015f81525090565b60405180606001604052805f73ffffffffffffffffffffffffffffffffffffffff1681526020015f81526020015f151581525090565b5f604051905090565b5f80fd5b5f819050919050565b6127b5816127a3565b81146127bf575f80fd5b50565b5f813590506127d0816127ac565b92915050565b5f80604083850312156127ec576127eb61279f565b5b5f6127f9858286016127c2565b925050602061280a858286016127c2565b9150509250929050565b5f73ffffffffffffffffffffffffffffffffffffffff82169050919050565b5f61283d82612814565b9050919050565b61284d81612833565b8114612857575f80fd5b50565b5f8135905061286881612844565b92915050565b5f805f606084860312156128855761288461279f565b5b5f612892868287016127c2565b93505060206128a3868287016127c2565b92505060406128b48682870161285a565b9150509250925092565b6128c7816127a3565b82525050565b5f6020820190506128e05f8301846128be565b92915050565b5f602082840312156128fb576128fa61279f565b5b5f612908848285016127c2565b91505092915050565b5f80604083850312156129275761292661279f565b5b5f6129348582860161285a565b9250506020612945858286016127c2565b9150509250929050565b61295881612833565b82525050565b604082015f8201516129725f85018261294f565b506020820151612985602085018261294f565b50505050565b5f60408201905061299e5f83018461295e565b92915050565b5f602082840312156129b9576129b861279f565b5b5f6129c68482850161285a565b91505092915050565b5f80604083850312156129e5576129e461279f565b5b5f6129f2858286016127c2565b9250506020612a038582860161285a565b9150509250929050565b612a16816127a3565b82525050565b608082015f820151612a305f85018261294f565b506020820151612a436020850182612a0d565b506040820151612a566040850182612a0d565b506060820151612a696060850182612a0d565b50505050565b5f608082019050612a825f830184612a1c565b92915050565b5f8115159050919050565b612a9c81612a88565b82525050565b606082015f820151612ab65f85018261294f565b506020820151612ac96020850182612a0d565b506040820151612adc6040850182612a93565b50505050565b6101c082015f820151612af75f850182612aa2565b506020820151612b0a6060850182612aa2565b506040820151612b1d60c0850182612aa2565b506060820151612b31610120850182612a93565b506080820151612b45610140850182612a0d565b5060a0820151612b59610160850182612a0d565b5060c0820151612b6d610180850182612a0d565b5060e0820151612b816101a0850182612a0d565b50505050565b5f6101c082019050612b9b5f830184612ae2565b92915050565b5f82825260208201905092915050565b7f496c6c6567616c2063616c6c00000000000000000000000000000000000000005f82015250565b5f612be5600c83612ba1565b9150612bf082612bb1565b602082019050919050565b5f6020820190508181035f830152612c1281612bd9565b9050919050565b7f4e487b71000000000000000000000000000000000000000000000000000000005f52601160045260245ffd5b5f612c50826127a3565b9150612c5b836127a3565b9250828203905081811115612c7357612c72612c19565b5b92915050565b7f506f6f6c20646f65736e277420657869737400000000000000000000000000005f82015250565b5f612cad601283612ba1565b9150612cb882612c79565b602082019050919050565b5f6020820190508181035f830152612cda81612ca1565b9050919050565b7f4e487b71000000000000000000000000000000000000000000000000000000005f52603260045260245ffd5b612d1781612833565b82525050565b5f606082019050612d305f830186612d0e565b612d3d6020830185612d0e565b612d4a60408301846128be565b949350505050565b5f604082019050612d655f8301856128be565b612d726020830184612d0e565b9392505050565b5f81519050612d87816127ac565b92915050565b5f60208284031215612da257612da161279f565b5b5f612daf84828501612d79565b91505092915050565b5f602082019050612dcb5f830184612d0e565b92915050565b5f81519050612ddf81612844565b92915050565b5f60208284031215612dfa57612df961279f565b5b5f612e0784828501612dd1565b91505092915050565b7f496e76616c69642063616c6c65720000000000000000000000000000000000005f82015250565b5f612e44600e83612ba1565b9150612e4f82612e10565b602082019050919050565b5f6020820190508181035f830152612e7181612e38565b9050919050565b5f608082019050612e8b5f830187612d0e565b612e986020830186612d0e565b612ea56040830185612d0e565b612eb260608301846128be565b95945050505050565b7f436f6e747261637420697320696e697469616c697a656420616c7265616479005f82015250565b5f612eef601f83612ba1565b9150612efa82612ebb565b602082019050919050565b5f6020820190508181035f830152612f1c81612ee3565b9050919050565b5f80fd5b5f601f19601f8301169050919050565b7f4e487b71000000000000000000000000000000000000000000000000000000005f52604160045260245ffd5b612f6d82612f27565b810181811067ffffffffffffffff82111715612f8c57612f8b612f37565b5b80604052505050565b5f612f9e612796565b9050612faa8282612f64565b919050565b5f60808284031215612fc457612fc3612f23565b5b612fce6080612f95565b90505f612fdd84828501612dd1565b5f830152506020612ff084828501612d79565b602083015250604061300484828501612d79565b604083015250606061301884828501612d79565b60608301525092915050565b5f608082840312156130395761303861279f565b5b5f61304684828501612faf565b91505092915050565b61305881612a88565b8114613062575f80fd5b50565b5f815190506130738161304f565b92915050565b5f6060828403121561308e5761308d612f23565b5b6130986060612f95565b90505f6130a784828501612dd1565b5f8301525060206130ba84828501612d79565b60208301525060406130ce84828501613065565b60408301525092915050565b5f6101c082840312156130f0576130ef612f23565b5b6130fb610100612f95565b90505f61310a84828501613079565b5f83015250606061311d84828501613079565b60208301525060c061313184828501613079565b60408301525061012061314684828501613065565b60608301525061014061315b84828501612d79565b60808301525061016061317084828501612d79565b60a08301525061018061318584828501612d79565b60c0830152506101a061319a84828501612d79565b60e08301525092915050565b5f6101c082840312156131bc576131bb61279f565b5b5f6131c9848285016130da565b91505092915050565b7f4e6f207265776172647320746f20636c61696d000000000000000000000000005f82015250565b5f613206601383612ba1565b9150613211826131d2565b602082019050919050565b5f6020820190508181035f830152613233816131fa565b9050919050565b5f60408201905061324d5f830185612d0e565b61325a60208301846128be565b9392505050565b5f602082840312156132765761327561279f565b5b5f61328384828501613065565b91505092915050565b5f819050919050565b5f819050919050565b5f6132b86132b36132ae8461328c565b613295565b6127a3565b9050919050565b6132c88161329e565b82525050565b5f6040820190506132e15f830185612d0e565b6132ee60208301846132bf565b939250505056fea264697066735822122065b6f5331e3ad2ea87ce035c18a736789f6882e3419c3ab13a5f3363e4a1bf0264736f6c63430008150033",
					"opcodes": "PUSH1 0x80 PUSH1 0x40 MSTORE CALLVALUE DUP1 ISZERO PUSH2 0xF JUMPI PUSH0 DUP1 REVERT JUMPDEST POP PUSH2 0x332B DUP1 PUSH2 0x1D PUSH0 CODECOPY PUSH0 RETURN INVALID PUSH1 0x80 PUSH1 0x40 MSTORE CALLVALUE DUP1 ISZERO PUSH2 0xF JUMPI PUSH0 DUP1 REVERT JUMPDEST POP PUSH1 0x4 CALLDATASIZE LT PUSH2 0xFE JUMPI PUSH0 CALLDATALOAD PUSH1 0xE0 SHR DUP1 PUSH4 0xB3944D52 GT PUSH2 0x95 JUMPI DUP1 PUSH4 0xE2BBB158 GT PUSH2 0x64 JUMPI DUP1 PUSH4 0xE2BBB158 EQ PUSH2 0x2CC JUMPI DUP1 PUSH4 0xFA7C828A EQ PUSH2 0x2E8 JUMPI DUP1 PUSH4 0xFAC4348B EQ PUSH2 0x304 JUMPI DUP1 PUSH4 0xFDC9CCFA EQ PUSH2 0x334 JUMPI PUSH2 0xFE JUMP JUMPDEST DUP1 PUSH4 0xB3944D52 EQ PUSH2 0x246 JUMPI DUP1 PUSH4 0xB8764C39 EQ PUSH2 0x264 JUMPI DUP1 PUSH4 0xC4D66DE8 EQ PUSH2 0x294 JUMPI DUP1 PUSH4 0xD914CD4B EQ PUSH2 0x2B0 JUMPI PUSH2 0xFE JUMP JUMPDEST DUP1 PUSH4 0x888D7BDD GT PUSH2 0xD1 JUMPI DUP1 PUSH4 0x888D7BDD EQ PUSH2 0x1AE JUMPI DUP1 PUSH4 0x8F244630 EQ PUSH2 0x1DE JUMPI DUP1 PUSH4 0xA38DCBD0 EQ PUSH2 0x20E JUMPI DUP1 PUSH4 0xAE169A50 EQ PUSH2 0x22A JUMPI PUSH2 0xFE JUMP JUMPDEST DUP1 PUSH4 0x441A3E70 EQ PUSH2 0x102 JUMPI DUP1 PUSH4 0x57BA8DDE EQ PUSH2 0x11E JUMPI DUP1 PUSH4 0x5922F9C9 EQ PUSH2 0x14E JUMPI DUP1 PUSH4 0x60AB49EA EQ PUSH2 0x17E JUMPI JUMPDEST PUSH0 DUP1 REVERT JUMPDEST PUSH2 0x11C PUSH1 0x4 DUP1 CALLDATASIZE SUB DUP2 ADD SWAP1 PUSH2 0x117 SWAP2 SWAP1 PUSH2 0x27D6 JUMP JUMPDEST PUSH2 0x364 JUMP JUMPDEST STOP JUMPDEST PUSH2 0x138 PUSH1 0x4 DUP1 CALLDATASIZE SUB DUP2 ADD SWAP1 PUSH2 0x133 SWAP2 SWAP1 PUSH2 0x286E JUMP JUMPDEST PUSH2 0x541 JUMP JUMPDEST PUSH1 0x40 MLOAD PUSH2 0x145 SWAP2 SWAP1 PUSH2 0x28CD JUMP JUMPDEST PUSH1 0x40 MLOAD DUP1 SWAP2 SUB SWAP1 RETURN JUMPDEST PUSH2 0x168 PUSH1 0x4 DUP1 CALLDATASIZE SUB DUP2 ADD SWAP1 PUSH2 0x163 SWAP2 SWAP1 PUSH2 0x28E6 JUMP JUMPDEST PUSH2 0x633 JUMP JUMPDEST PUSH1 0x40 MLOAD PUSH2 0x175 SWAP2 SWAP1 PUSH2 0x28CD JUMP JUMPDEST PUSH1 0x40 MLOAD DUP1 SWAP2 SUB SWAP1 RETURN JUMPDEST PUSH2 0x198 PUSH1 0x4 DUP1 CALLDATASIZE SUB DUP2 ADD SWAP1 PUSH2 0x193 SWAP2 SWAP1 PUSH2 0x28E6 JUMP JUMPDEST PUSH2 0x716 JUMP JUMPDEST PUSH1 0x40 MLOAD PUSH2 0x1A5 SWAP2 SWAP1 PUSH2 0x28CD JUMP JUMPDEST PUSH1 0x40 MLOAD DUP1 SWAP2 SUB SWAP1 RETURN JUMPDEST PUSH2 0x1C8 PUSH1 0x4 DUP1 CALLDATASIZE SUB DUP2 ADD SWAP1 PUSH2 0x1C3 SWAP2 SWAP1 PUSH2 0x2911 JUMP JUMPDEST PUSH2 0x7F9 JUMP JUMPDEST PUSH1 0x40 MLOAD PUSH2 0x1D5 SWAP2 SWAP1 PUSH2 0x28CD JUMP JUMPDEST PUSH1 0x40 MLOAD DUP1 SWAP2 SUB SWAP1 RETURN JUMPDEST PUSH2 0x1F8 PUSH1 0x4 DUP1 CALLDATASIZE SUB DUP2 ADD SWAP1 PUSH2 0x1F3 SWAP2 SWAP1 PUSH2 0x28E6 JUMP JUMPDEST PUSH2 0x8E8 JUMP JUMPDEST PUSH1 0x40 MLOAD PUSH2 0x205 SWAP2 SWAP1 PUSH2 0x28CD JUMP JUMPDEST PUSH1 0x40 MLOAD DUP1 SWAP2 SUB SWAP1 RETURN JUMPDEST PUSH2 0x228 PUSH1 0x4 DUP1 CALLDATASIZE SUB DUP2 ADD SWAP1 PUSH2 0x223 SWAP2 SWAP1 PUSH2 0x28E6 JUMP JUMPDEST PUSH2 0x9CB JUMP JUMPDEST STOP JUMPDEST PUSH2 0x244 PUSH1 0x4 DUP1 CALLDATASIZE SUB DUP2 ADD SWAP1 PUSH2 0x23F SWAP2 SWAP1 PUSH2 0x28E6 JUMP JUMPDEST PUSH2 0xB95 JUMP JUMPDEST STOP JUMPDEST PUSH2 0x24E PUSH2 0xE94 JUMP JUMPDEST PUSH1 0x40 MLOAD PUSH2 0x25B SWAP2 SWAP1 PUSH2 0x28CD JUMP JUMPDEST PUSH1 0x40 MLOAD DUP1 SWAP2 SUB SWAP1 RETURN JUMPDEST PUSH2 0x27E PUSH1 0x4 DUP1 CALLDATASIZE SUB DUP2 ADD SWAP1 PUSH2 0x279 SWAP2 SWAP1 PUSH2 0x28E6 JUMP JUMPDEST PUSH2 0xEA5 JUMP JUMPDEST PUSH1 0x40 MLOAD PUSH2 0x28B SWAP2 SWAP1 PUSH2 0x298B JUMP JUMPDEST PUSH1 0x40 MLOAD DUP1 SWAP2 SUB SWAP1 RETURN JUMPDEST PUSH2 0x2AE PUSH1 0x4 DUP1 CALLDATASIZE SUB DUP2 ADD SWAP1 PUSH2 0x2A9 SWAP2 SWAP1 PUSH2 0x29A4 JUMP JUMPDEST PUSH2 0xFE6 JUMP JUMPDEST STOP JUMPDEST PUSH2 0x2CA PUSH1 0x4 DUP1 CALLDATASIZE SUB DUP2 ADD SWAP1 PUSH2 0x2C5 SWAP2 SWAP1 PUSH2 0x29A4 JUMP JUMPDEST PUSH2 0x1062 JUMP JUMPDEST STOP JUMPDEST PUSH2 0x2E6 PUSH1 0x4 DUP1 CALLDATASIZE SUB DUP2 ADD SWAP1 PUSH2 0x2E1 SWAP2 SWAP1 PUSH2 0x27D6 JUMP JUMPDEST PUSH2 0x12CB JUMP JUMPDEST STOP JUMPDEST PUSH2 0x302 PUSH1 0x4 DUP1 CALLDATASIZE SUB DUP2 ADD SWAP1 PUSH2 0x2FD SWAP2 SWAP1 PUSH2 0x29A4 JUMP JUMPDEST PUSH2 0x14B5 JUMP JUMPDEST STOP JUMPDEST PUSH2 0x31E PUSH1 0x4 DUP1 CALLDATASIZE SUB DUP2 ADD SWAP1 PUSH2 0x319 SWAP2 SWAP1 PUSH2 0x29CF JUMP JUMPDEST PUSH2 0x15C1 JUMP JUMPDEST PUSH1 0x40 MLOAD PUSH2 0x32B SWAP2 SWAP1 PUSH2 0x2A6F JUMP JUMPDEST PUSH1 0x40 MLOAD DUP1 SWAP2 SUB SWAP1 RETURN JUMPDEST PUSH2 0x34E PUSH1 0x4 DUP1 CALLDATASIZE SUB DUP2 ADD SWAP1 PUSH2 0x349 SWAP2 SWAP1 PUSH2 0x27D6 JUMP JUMPDEST PUSH2 0x17E7 JUMP JUMPDEST PUSH1 0x40 MLOAD PUSH2 0x35B SWAP2 SWAP1 PUSH2 0x2B87 JUMP JUMPDEST PUSH1 0x40 MLOAD DUP1 SWAP2 SUB SWAP1 RETURN JUMPDEST PUSH0 DUP1 SLOAD EQ PUSH2 0x3A7 JUMPI PUSH1 0x40 MLOAD PUSH32 0x8C379A000000000000000000000000000000000000000000000000000000000 DUP2 MSTORE PUSH1 0x4 ADD PUSH2 0x39E SWAP1 PUSH2 0x2BFB JUMP JUMPDEST PUSH1 0x40 MLOAD DUP1 SWAP2 SUB SWAP1 REVERT JUMPDEST PUSH1 0x1 PUSH0 DUP2 SWAP1 SSTORE POP PUSH0 PUSH1 0x1 DUP1 SLOAD SWAP1 POP SWAP1 POP PUSH1 0x1 DUP2 PUSH2 0x3C4 SWAP2 SWAP1 PUSH2 0x2C46 JUMP JUMPDEST DUP4 GT ISZERO PUSH2 0x406 JUMPI PUSH1 0x40 MLOAD PUSH32 0x8C379A000000000000000000000000000000000000000000000000000000000 DUP2 MSTORE PUSH1 0x4 ADD PUSH2 0x3FD SWAP1 PUSH2 0x2CC3 JUMP JUMPDEST PUSH1 0x40 MLOAD DUP1 SWAP2 SUB SWAP1 REVERT JUMPDEST PUSH0 PUSH1 0x1 DUP5 DUP2 SLOAD DUP2 LT PUSH2 0x41B JUMPI PUSH2 0x41A PUSH2 0x2CE1 JUMP JUMPDEST JUMPDEST SWAP1 PUSH0 MSTORE PUSH1 0x20 PUSH0 KECCAK256 SWAP1 PUSH1 0x2 MUL ADD PUSH1 0x40 MLOAD DUP1 PUSH1 0x40 ADD PUSH1 0x40 MSTORE SWAP1 DUP2 PUSH0 DUP3 ADD PUSH0 SWAP1 SLOAD SWAP1 PUSH2 0x100 EXP SWAP1 DIV PUSH20 0xFFFFFFFFFFFFFFFFFFFFFFFFFFFFFFFFFFFFFFFF AND PUSH20 0xFFFFFFFFFFFFFFFFFFFFFFFFFFFFFFFFFFFFFFFF AND PUSH20 0xFFFFFFFFFFFFFFFFFFFFFFFFFFFFFFFFFFFFFFFF AND DUP2 MSTORE PUSH1 0x20 ADD PUSH1 0x1 DUP3 ADD PUSH0 SWAP1 SLOAD SWAP1 PUSH2 0x100 EXP SWAP1 DIV PUSH20 0xFFFFFFFFFFFFFFFFFFFFFFFFFFFFFFFFFFFFFFFF AND PUSH20 0xFFFFFFFFFFFFFFFFFFFFFFFFFFFFFFFFFFFFFFFF AND PUSH20 0xFFFFFFFFFFFFFFFFFFFFFFFFFFFFFFFFFFFFFFFF AND DUP2 MSTORE POP POP SWAP1 POP PUSH0 DUP2 PUSH0 ADD MLOAD SWAP1 POP PUSH0 DUP3 PUSH1 0x20 ADD MLOAD SWAP1 POP PUSH2 0x4F8 CALLER DUP4 DUP4 DUP9 PUSH2 0x202C JUMP JUMPDEST PUSH32 0x53F917D4E27AE27751AA814F667AA2382DC59D7DD33B9B9B887ABEC7B2DA1828 CALLER DUP4 DUP8 PUSH1 0x40 MLOAD PUSH2 0x52B SWAP4 SWAP3 SWAP2 SWAP1 PUSH2 0x2D1D JUMP JUMPDEST PUSH1 0x40 MLOAD DUP1 SWAP2 SUB SWAP1 LOG1 POP POP POP POP PUSH0 DUP1 DUP2 SWAP1 SSTORE POP POP POP JUMP JUMPDEST PUSH0 DUP1 PUSH1 0x1 DUP1 SLOAD SWAP1 POP SWAP1 POP PUSH1 0x1 DUP2 PUSH2 0x558 SWAP2 SWAP1 PUSH2 0x2C46 JUMP JUMPDEST DUP5 GT ISZERO PUSH2 0x59A JUMPI PUSH1 0x40 MLOAD PUSH32 0x8C379A000000000000000000000000000000000000000000000000000000000 DUP2 MSTORE PUSH1 0x4 ADD PUSH2 0x591 SWAP1 PUSH2 0x2CC3 JUMP JUMPDEST PUSH1 0x40 MLOAD DUP1 SWAP2 SUB SWAP1 REVERT JUMPDEST PUSH0 PUSH2 0x5A4 DUP6 PUSH2 0xEA5 JUMP JUMPDEST PUSH0 ADD MLOAD SWAP1 POP PUSH0 DUP2 PUSH20 0xFFFFFFFFFFFFFFFFFFFFFFFFFFFFFFFFFFFFFFFF AND PUSH4 0xD474FBF7 DUP9 DUP8 PUSH1 0x40 MLOAD DUP4 PUSH4 0xFFFFFFFF AND PUSH1 0xE0 SHL DUP2 MSTORE PUSH1 0x4 ADD PUSH2 0x5E5 SWAP3 SWAP2 SWAP1 PUSH2 0x2D52 JUMP JUMPDEST PUSH1 0x20 PUSH1 0x40 MLOAD DUP1 DUP4 SUB DUP2 DUP7 GAS STATICCALL ISZERO DUP1 ISZERO PUSH2 0x600 JUMPI RETURNDATASIZE PUSH0 DUP1 RETURNDATACOPY RETURNDATASIZE PUSH0 REVERT JUMPDEST POP POP POP POP PUSH1 0x40 MLOAD RETURNDATASIZE PUSH1 0x1F NOT PUSH1 0x1F DUP3 ADD AND DUP3 ADD DUP1 PUSH1 0x40 MSTORE POP DUP2 ADD SWAP1 PUSH2 0x624 SWAP2 SWAP1 PUSH2 0x2D8D JUMP JUMPDEST SWAP1 POP DUP1 SWAP4 POP POP POP POP SWAP4 SWAP3 POP POP POP JUMP JUMPDEST PUSH0 DUP1 PUSH1 0x1 DUP1 SLOAD SWAP1 POP SWAP1 POP PUSH1 0x1 DUP2 PUSH2 0x64A SWAP2 SWAP1 PUSH2 0x2C46 JUMP JUMPDEST DUP4 GT ISZERO PUSH2 0x68C JUMPI PUSH1 0x40 MLOAD PUSH32 0x8C379A000000000000000000000000000000000000000000000000000000000 DUP2 MSTORE PUSH1 0x4 ADD PUSH2 0x683 SWAP1 PUSH2 0x2CC3 JUMP JUMPDEST PUSH1 0x40 MLOAD DUP1 SWAP2 SUB SWAP1 REVERT JUMPDEST PUSH0 PUSH2 0x696 DUP5 PUSH2 0xEA5 JUMP JUMPDEST PUSH0 ADD MLOAD SWAP1 POP PUSH0 DUP2 PUSH20 0xFFFFFFFFFFFFFFFFFFFFFFFFFFFFFFFFFFFFFFFF AND PUSH4 0xA3D74F06 PUSH1 0x40 MLOAD DUP2 PUSH4 0xFFFFFFFF AND PUSH1 0xE0 SHL DUP2 MSTORE PUSH1 0x4 ADD PUSH1 0x20 PUSH1 0x40 MLOAD DUP1 DUP4 SUB DUP2 DUP7 GAS STATICCALL ISZERO DUP1 ISZERO PUSH2 0x6E5 JUMPI RETURNDATASIZE PUSH0 DUP1 RETURNDATACOPY RETURNDATASIZE PUSH0 REVERT JUMPDEST POP POP POP POP PUSH1 0x40 MLOAD RETURNDATASIZE PUSH1 0x1F NOT PUSH1 0x1F DUP3 ADD AND DUP3 ADD DUP1 PUSH1 0x40 MSTORE POP DUP2 ADD SWAP1 PUSH2 0x709 SWAP2 SWAP1 PUSH2 0x2D8D JUMP JUMPDEST SWAP1 POP DUP1 SWAP4 POP POP POP POP SWAP2 SWAP1 POP JUMP JUMPDEST PUSH0 DUP1 PUSH1 0x1 DUP1 SLOAD SWAP1 POP SWAP1 POP PUSH1 0x1 DUP2 PUSH2 0x72D SWAP2 SWAP1 PUSH2 0x2C46 JUMP JUMPDEST DUP4 GT ISZERO PUSH2 0x76F JUMPI PUSH1 0x40 MLOAD PUSH32 0x8C379A000000000000000000000000000000000000000000000000000000000 DUP2 MSTORE PUSH1 0x4 ADD PUSH2 0x766 SWAP1 PUSH2 0x2CC3 JUMP JUMPDEST PUSH1 0x40 MLOAD DUP1 SWAP2 SUB SWAP1 REVERT JUMPDEST PUSH0 PUSH2 0x779 DUP5 PUSH2 0xEA5 JUMP JUMPDEST PUSH0 ADD MLOAD SWAP1 POP PUSH0 DUP2 PUSH20 0xFFFFFFFFFFFFFFFFFFFFFFFFFFFFFFFFFFFFFFFF AND PUSH4 0xFD2324DE PUSH1 0x40 MLOAD DUP2 PUSH4 0xFFFFFFFF AND PUSH1 0xE0 SHL DUP2 MSTORE PUSH1 0x4 ADD PUSH1 0x20 PUSH1 0x40 MLOAD DUP1 DUP4 SUB DUP2 DUP7 GAS STATICCALL ISZERO DUP1 ISZERO PUSH2 0x7C8 JUMPI RETURNDATASIZE PUSH0 DUP1 RETURNDATACOPY RETURNDATASIZE PUSH0 REVERT JUMPDEST POP POP POP POP PUSH1 0x40 MLOAD RETURNDATASIZE PUSH1 0x1F NOT PUSH1 0x1F DUP3 ADD AND DUP3 ADD DUP1 PUSH1 0x40 MSTORE POP DUP2 ADD SWAP1 PUSH2 0x7EC SWAP2 SWAP1 PUSH2 0x2D8D JUMP JUMPDEST SWAP1 POP DUP1 SWAP4 POP POP POP POP SWAP2 SWAP1 POP JUMP JUMPDEST PUSH0 DUP1 PUSH1 0x1 DUP1 SLOAD SWAP1 POP SWAP1 POP PUSH1 0x1 DUP2 PUSH2 0x810 SWAP2 SWAP1 PUSH2 0x2C46 JUMP JUMPDEST DUP4 GT ISZERO PUSH2 0x852 JUMPI PUSH1 0x40 MLOAD PUSH32 0x8C379A000000000000000000000000000000000000000000000000000000000 DUP2 MSTORE PUSH1 0x4 ADD PUSH2 0x849 SWAP1 PUSH2 0x2CC3 JUMP JUMPDEST PUSH1 0x40 MLOAD DUP1 SWAP2 SUB SWAP1 REVERT JUMPDEST PUSH0 PUSH2 0x85C DUP5 PUSH2 0xEA5 JUMP JUMPDEST PUSH0 ADD MLOAD SWAP1 POP PUSH0 DUP2 PUSH20 0xFFFFFFFFFFFFFFFFFFFFFFFFFFFFFFFFFFFFFFFF AND PUSH4 0xA583024B DUP8 PUSH1 0x40 MLOAD DUP3 PUSH4 0xFFFFFFFF AND PUSH1 0xE0 SHL DUP2 MSTORE PUSH1 0x4 ADD PUSH2 0x89B SWAP2 SWAP1 PUSH2 0x2DB8 JUMP JUMPDEST PUSH1 0x20 PUSH1 0x40 MLOAD DUP1 DUP4 SUB DUP2 DUP7 GAS STATICCALL ISZERO DUP1 ISZERO PUSH2 0x8B6 JUMPI RETURNDATASIZE PUSH0 DUP1 RETURNDATACOPY RETURNDATASIZE PUSH0 REVERT JUMPDEST POP POP POP POP PUSH1 0x40 MLOAD RETURNDATASIZE PUSH1 0x1F NOT PUSH1 0x1F DUP3 ADD AND DUP3 ADD DUP1 PUSH1 0x40 MSTORE POP DUP2 ADD SWAP1 PUSH2 0x8DA SWAP2 SWAP1 PUSH2 0x2D8D JUMP JUMPDEST SWAP1 POP DUP1 SWAP4 POP POP POP POP SWAP3 SWAP2 POP POP JUMP JUMPDEST PUSH0 DUP1 PUSH1 0x1 DUP1 SLOAD SWAP1 POP SWAP1 POP PUSH1 0x1 DUP2 PUSH2 0x8FF SWAP2 SWAP1 PUSH2 0x2C46 JUMP JUMPDEST DUP4 GT ISZERO PUSH2 0x941 JUMPI PUSH1 0x40 MLOAD PUSH32 0x8C379A000000000000000000000000000000000000000000000000000000000 DUP2 MSTORE PUSH1 0x4 ADD PUSH2 0x938 SWAP1 PUSH2 0x2CC3 JUMP JUMPDEST PUSH1 0x40 MLOAD DUP1 SWAP2 SUB SWAP1 REVERT JUMPDEST PUSH0 PUSH2 0x94B DUP5 PUSH2 0xEA5 JUMP JUMPDEST PUSH0 ADD MLOAD SWAP1 POP PUSH0 DUP2 PUSH20 0xFFFFFFFFFFFFFFFFFFFFFFFFFFFFFFFFFFFFFFFF AND PUSH4 0x26BE90BF PUSH1 0x40 MLOAD DUP2 PUSH4 0xFFFFFFFF AND PUSH1 0xE0 SHL DUP2 MSTORE PUSH1 0x4 ADD PUSH1 0x20 PUSH1 0x40 MLOAD DUP1 DUP4 SUB DUP2 DUP7 GAS STATICCALL ISZERO DUP1 ISZERO PUSH2 0x99A JUMPI RETURNDATASIZE PUSH0 DUP1 RETURNDATACOPY RETURNDATASIZE PUSH0 REVERT JUMPDEST POP POP POP POP PUSH1 0x40 MLOAD RETURNDATASIZE PUSH1 0x1F NOT PUSH1 0x1F DUP3 ADD AND DUP3 ADD DUP1 PUSH1 0x40 MSTORE POP DUP2 ADD SWAP1 PUSH2 0x9BE SWAP2 SWAP1 PUSH2 0x2D8D JUMP JUMPDEST SWAP1 POP DUP1 SWAP4 POP POP POP POP SWAP2 SWAP1 POP JUMP JUMPDEST PUSH0 PUSH1 0x2 PUSH0 SWAP1 SLOAD SWAP1 PUSH2 0x100 EXP SWAP1 DIV PUSH20 0xFFFFFFFFFFFFFFFFFFFFFFFFFFFFFFFFFFFFFFFF AND PUSH20 0xFFFFFFFFFFFFFFFFFFFFFFFFFFFFFFFFFFFFFFFF AND PUSH4 0x3018205F PUSH1 0x40 MLOAD DUP2 PUSH4 0xFFFFFFFF AND PUSH1 0xE0 SHL DUP2 MSTORE PUSH1 0x4 ADD PUSH1 0x20 PUSH1 0x40 MLOAD DUP1 DUP4 SUB DUP2 DUP7 GAS STATICCALL ISZERO DUP1 ISZERO PUSH2 0xA36 JUMPI RETURNDATASIZE PUSH0 DUP1 RETURNDATACOPY RETURNDATASIZE PUSH0 REVERT JUMPDEST POP POP POP POP PUSH1 0x40 MLOAD RETURNDATASIZE PUSH1 0x1F NOT PUSH1 0x1F DUP3 ADD AND DUP3 ADD DUP1 PUSH1 0x40 MSTORE POP DUP2 ADD SWAP1 PUSH2 0xA5A SWAP2 SWAP1 PUSH2 0x2DE5 JUMP JUMPDEST SWAP1 POP DUP1 PUSH20 0xFFFFFFFFFFFFFFFFFFFFFFFFFFFFFFFFFFFFFFFF AND CALLER PUSH20 0xFFFFFFFFFFFFFFFFFFFFFFFFFFFFFFFFFFFFFFFF AND EQ PUSH2 0xACA JUMPI PUSH1 0x40 MLOAD PUSH32 0x8C379A000000000000000000000000000000000000000000000000000000000 DUP2 MSTORE PUSH1 0x4 ADD PUSH2 0xAC1 SWAP1 PUSH2 0x2E5A JUMP JUMPDEST PUSH1 0x40 MLOAD DUP1 SWAP2 SUB SWAP1 REVERT JUMPDEST PUSH0 PUSH1 0x1 DUP1 SLOAD SWAP1 POP SWAP1 POP PUSH1 0x1 DUP2 PUSH2 0xAE0 SWAP2 SWAP1 PUSH2 0x2C46 JUMP JUMPDEST DUP4 GT ISZERO PUSH2 0xB22 JUMPI PUSH1 0x40 MLOAD PUSH32 0x8C379A000000000000000000000000000000000000000000000000000000000 DUP2 MSTORE PUSH1 0x4 ADD PUSH2 0xB19 SWAP1 PUSH2 0x2CC3 JUMP JUMPDEST PUSH1 0x40 MLOAD DUP1 SWAP2 SUB SWAP1 REVERT JUMPDEST PUSH1 0x1 DUP4 DUP2 SLOAD DUP2 LT PUSH2 0xB36 JUMPI PUSH2 0xB35 PUSH2 0x2CE1 JUMP JUMPDEST JUMPDEST SWAP1 PUSH0 MSTORE PUSH1 0x20 PUSH0 KECCAK256 SWAP1 PUSH1 0x2 MUL ADD PUSH0 DUP1 DUP3 ADD PUSH0 PUSH2 0x100 EXP DUP2 SLOAD SWAP1 PUSH20 0xFFFFFFFFFFFFFFFFFFFFFFFFFFFFFFFFFFFFFFFF MUL NOT AND SWAP1 SSTORE PUSH1 0x1 DUP3 ADD PUSH0 PUSH2 0x100 EXP DUP2 SLOAD SWAP1 PUSH20 0xFFFFFFFFFFFFFFFFFFFFFFFFFFFFFFFFFFFFFFFF MUL NOT AND SWAP1 SSTORE POP POP POP POP POP JUMP JUMPDEST PUSH0 DUP1 SLOAD EQ PUSH2 0xBD8 JUMPI PUSH1 0x40 MLOAD PUSH32 0x8C379A000000000000000000000000000000000000000000000000000000000 DUP2 MSTORE PUSH1 0x4 ADD PUSH2 0xBCF SWAP1 PUSH2 0x2BFB JUMP JUMPDEST PUSH1 0x40 MLOAD DUP1 SWAP2 SUB SWAP1 REVERT JUMPDEST PUSH1 0x1 PUSH0 DUP2 SWAP1 SSTORE POP PUSH0 PUSH1 0x1 DUP1 SLOAD SWAP1 POP SWAP1 POP PUSH1 0x1 DUP2 PUSH2 0xBF5 SWAP2 SWAP1 PUSH2 0x2C46 JUMP JUMPDEST DUP3 GT ISZERO PUSH2 0xC37 JUMPI PUSH1 0x40 MLOAD PUSH32 0x8C379A000000000000000000000000000000000000000000000000000000000 DUP2 MSTORE PUSH1 0x4 ADD PUSH2 0xC2E SWAP1 PUSH2 0x2CC3 JUMP JUMPDEST PUSH1 0x40 MLOAD DUP1 SWAP2 SUB SWAP1 REVERT JUMPDEST PUSH0 PUSH1 0x1 DUP4 DUP2 SLOAD DUP2 LT PUSH2 0xC4C JUMPI PUSH2 0xC4B PUSH2 0x2CE1 JUMP JUMPDEST JUMPDEST SWAP1 PUSH0 MSTORE PUSH1 0x20 PUSH0 KECCAK256 SWAP1 PUSH1 0x2 MUL ADD PUSH1 0x40 MLOAD DUP1 PUSH1 0x40 ADD PUSH1 0x40 MSTORE SWAP1 DUP2 PUSH0 DUP3 ADD PUSH0 SWAP1 SLOAD SWAP1 PUSH2 0x100 EXP SWAP1 DIV PUSH20 0xFFFFFFFFFFFFFFFFFFFFFFFFFFFFFFFFFFFFFFFF AND PUSH20 0xFFFFFFFFFFFFFFFFFFFFFFFFFFFFFFFFFFFFFFFF AND PUSH20 0xFFFFFFFFFFFFFFFFFFFFFFFFFFFFFFFFFFFFFFFF AND DUP2 MSTORE PUSH1 0x20 ADD PUSH1 0x1 DUP3 ADD PUSH0 SWAP1 SLOAD SWAP1 PUSH2 0x100 EXP SWAP1 DIV PUSH20 0xFFFFFFFFFFFFFFFFFFFFFFFFFFFFFFFFFFFFFFFF AND PUSH20 0xFFFFFFFFFFFFFFFFFFFFFFFFFFFFFFFFFFFFFFFF AND PUSH20 0xFFFFFFFFFFFFFFFFFFFFFFFFFFFFFFFFFFFFFFFF AND DUP2 MSTORE POP POP SWAP1 POP PUSH0 DUP2 PUSH0 ADD MLOAD SWAP1 POP PUSH0 DUP3 PUSH1 0x20 ADD MLOAD SWAP1 POP PUSH0 DUP2 PUSH20 0xFFFFFFFFFFFFFFFFFFFFFFFFFFFFFFFFFFFFFFFF AND PUSH4 0x70A08231 ADDRESS PUSH1 0x40 MLOAD DUP3 PUSH4 0xFFFFFFFF AND PUSH1 0xE0 SHL DUP2 MSTORE PUSH1 0x4 ADD PUSH2 0xD57 SWAP2 SWAP1 PUSH2 0x2DB8 JUMP JUMPDEST PUSH1 0x20 PUSH1 0x40 MLOAD DUP1 DUP4 SUB DUP2 DUP7 GAS STATICCALL ISZERO DUP1 ISZERO PUSH2 0xD72 JUMPI RETURNDATASIZE PUSH0 DUP1 RETURNDATACOPY RETURNDATASIZE PUSH0 REVERT JUMPDEST POP POP POP POP PUSH1 0x40 MLOAD RETURNDATASIZE PUSH1 0x1F NOT PUSH1 0x1F DUP3 ADD AND DUP3 ADD DUP1 PUSH1 0x40 MSTORE POP DUP2 ADD SWAP1 PUSH2 0xD96 SWAP2 SWAP1 PUSH2 0x2D8D JUMP JUMPDEST SWAP1 POP PUSH0 PUSH2 0xDA3 CALLER DUP6 PUSH2 0x2150 JUMP JUMPDEST SWAP1 POP PUSH0 DUP4 PUSH20 0xFFFFFFFFFFFFFFFFFFFFFFFFFFFFFFFFFFFFFFFF AND PUSH4 0x70A08231 ADDRESS PUSH1 0x40 MLOAD DUP3 PUSH4 0xFFFFFFFF AND PUSH1 0xE0 SHL DUP2 MSTORE PUSH1 0x4 ADD PUSH2 0xDDF SWAP2 SWAP1 PUSH2 0x2DB8 JUMP JUMPDEST PUSH1 0x20 PUSH1 0x40 MLOAD DUP1 DUP4 SUB DUP2 DUP7 GAS STATICCALL ISZERO DUP1 ISZERO PUSH2 0xDFA JUMPI RETURNDATASIZE PUSH0 DUP1 RETURNDATACOPY RETURNDATASIZE PUSH0 REVERT JUMPDEST POP POP POP POP PUSH1 0x40 MLOAD RETURNDATASIZE PUSH1 0x1F NOT PUSH1 0x1F DUP3 ADD AND DUP3 ADD DUP1 PUSH1 0x40 MSTORE POP DUP2 ADD SWAP1 PUSH2 0xE1E SWAP2 SWAP1 PUSH2 0x2D8D JUMP JUMPDEST SWAP1 POP PUSH0 DUP4 DUP3 PUSH2 0xE2D SWAP2 SWAP1 PUSH2 0x2C46 JUMP JUMPDEST SWAP1 POP DUP3 DUP2 LT ISZERO PUSH2 0xE3B JUMPI PUSH0 DUP1 REVERT JUMPDEST PUSH2 0xE46 CALLER DUP7 DUP6 PUSH2 0x2219 JUMP JUMPDEST PUSH32 0xF5A48EA938B5E8D78BE0D8D0D1E277621D4854F2B208EE83AE3702CE61828AB5 CALLER DUP8 DUP8 DUP7 PUSH1 0x40 MLOAD PUSH2 0xE7B SWAP5 SWAP4 SWAP3 SWAP2 SWAP1 PUSH2 0x2E78 JUMP JUMPDEST PUSH1 0x40 MLOAD DUP1 SWAP2 SUB SWAP1 LOG1 POP POP POP POP POP POP POP POP PUSH0 DUP1 DUP2 SWAP1 SSTORE POP POP JUMP JUMPDEST PUSH0 DUP1 PUSH1 0x1 DUP1 SLOAD SWAP1 POP SWAP1 POP DUP1 SWAP2 POP POP SWAP1 JUMP JUMPDEST PUSH2 0xEAD PUSH2 0x268E JUMP JUMPDEST PUSH0 PUSH1 0x1 DUP1 SLOAD SWAP1 POP SWAP1 POP PUSH1 0x1 DUP2 PUSH2 0xEC3 SWAP2 SWAP1 PUSH2 0x2C46 JUMP JUMPDEST DUP4 GT ISZERO PUSH2 0xF05 JUMPI PUSH1 0x40 MLOAD PUSH32 0x8C379A000000000000000000000000000000000000000000000000000000000 DUP2 MSTORE PUSH1 0x4 ADD PUSH2 0xEFC SWAP1 PUSH2 0x2CC3 JUMP JUMPDEST PUSH1 0x40 MLOAD DUP1 SWAP2 SUB SWAP1 REVERT JUMPDEST PUSH0 PUSH1 0x1 DUP5 DUP2 SLOAD DUP2 LT PUSH2 0xF1A JUMPI PUSH2 0xF19 PUSH2 0x2CE1 JUMP JUMPDEST JUMPDEST SWAP1 PUSH0 MSTORE PUSH1 0x20 PUSH0 KECCAK256 SWAP1 PUSH1 0x2 MUL ADD PUSH1 0x40 MLOAD DUP1 PUSH1 0x40 ADD PUSH1 0x40 MSTORE SWAP1 DUP2 PUSH0 DUP3 ADD PUSH0 SWAP1 SLOAD SWAP1 PUSH2 0x100 EXP SWAP1 DIV PUSH20 0xFFFFFFFFFFFFFFFFFFFFFFFFFFFFFFFFFFFFFFFF AND PUSH20 0xFFFFFFFFFFFFFFFFFFFFFFFFFFFFFFFFFFFFFFFF AND PUSH20 0xFFFFFFFFFFFFFFFFFFFFFFFFFFFFFFFFFFFFFFFF AND DUP2 MSTORE PUSH1 0x20 ADD PUSH1 0x1 DUP3 ADD PUSH0 SWAP1 SLOAD SWAP1 PUSH2 0x100 EXP SWAP1 DIV PUSH20 0xFFFFFFFFFFFFFFFFFFFFFFFFFFFFFFFFFFFFFFFF AND PUSH20 0xFFFFFFFFFFFFFFFFFFFFFFFFFFFFFFFFFFFFFFFF AND PUSH20 0xFFFFFFFFFFFFFFFFFFFFFFFFFFFFFFFFFFFFFFFF AND DUP2 MSTORE POP POP SWAP1 POP DUP1 SWAP3 POP POP POP SWAP2 SWAP1 POP JUMP JUMPDEST PUSH0 ISZERO ISZERO PUSH1 0x2 PUSH1 0x14 SWAP1 SLOAD SWAP1 PUSH2 0x100 EXP SWAP1 DIV PUSH1 0xFF AND ISZERO ISZERO EQ PUSH2 0x103B JUMPI PUSH1 0x40 MLOAD PUSH32 0x8C379A000000000000000000000000000000000000000000000000000000000 DUP2 MSTORE PUSH1 0x4 ADD PUSH2 0x1032 SWAP1 PUSH2 0x2F05 JUMP JUMPDEST PUSH1 0x40 MLOAD DUP1 SWAP2 SUB SWAP1 REVERT JUMPDEST PUSH2 0x1044 DUP2 PUSH2 0x22A6 JUMP JUMPDEST PUSH1 0x1 PUSH1 0x2 PUSH1 0x14 PUSH2 0x100 EXP DUP2 SLOAD DUP2 PUSH1 0xFF MUL NOT AND SWAP1 DUP4 ISZERO ISZERO MUL OR SWAP1 SSTORE POP POP JUMP JUMPDEST PUSH0 PUSH1 0x2 PUSH0 SWAP1 SLOAD SWAP1 PUSH2 0x100 EXP SWAP1 DIV PUSH20 0xFFFFFFFFFFFFFFFFFFFFFFFFFFFFFFFFFFFFFFFF AND PUSH20 0xFFFFFFFFFFFFFFFFFFFFFFFFFFFFFFFFFFFFFFFF AND PUSH4 0x3018205F PUSH1 0x40 MLOAD DUP2 PUSH4 0xFFFFFFFF AND PUSH1 0xE0 SHL DUP2 MSTORE PUSH1 0x4 ADD PUSH1 0x20 PUSH1 0x40 MLOAD DUP1 DUP4 SUB DUP2 DUP7 GAS STATICCALL ISZERO DUP1 ISZERO PUSH2 0x10CD JUMPI RETURNDATASIZE PUSH0 DUP1 RETURNDATACOPY RETURNDATASIZE PUSH0 REVERT JUMPDEST POP POP POP POP PUSH1 0x40 MLOAD RETURNDATASIZE PUSH1 0x1F NOT PUSH1 0x1F DUP3 ADD AND DUP3 ADD DUP1 PUSH1 0x40 MSTORE POP DUP2 ADD SWAP1 PUSH2 0x10F1 SWAP2 SWAP1 PUSH2 0x2DE5 JUMP JUMPDEST SWAP1 POP DUP1 PUSH20 0xFFFFFFFFFFFFFFFFFFFFFFFFFFFFFFFFFFFFFFFF AND CALLER PUSH20 0xFFFFFFFFFFFFFFFFFFFFFFFFFFFFFFFFFFFFFFFF AND EQ PUSH2 0x1161 JUMPI PUSH1 0x40 MLOAD PUSH32 0x8C379A000000000000000000000000000000000000000000000000000000000 DUP2 MSTORE PUSH1 0x4 ADD PUSH2 0x1158 SWAP1 PUSH2 0x2E5A JUMP JUMPDEST PUSH1 0x40 MLOAD DUP1 SWAP2 SUB SWAP1 REVERT JUMPDEST PUSH0 DUP3 PUSH20 0xFFFFFFFFFFFFFFFFFFFFFFFFFFFFFFFFFFFFFFFF AND PUSH4 0xFCE03B9 PUSH1 0x40 MLOAD DUP2 PUSH4 0xFFFFFFFF AND PUSH1 0xE0 SHL DUP2 MSTORE PUSH1 0x4 ADD PUSH1 0x20 PUSH1 0x40 MLOAD DUP1 DUP4 SUB DUP2 DUP7 GAS STATICCALL ISZERO DUP1 ISZERO PUSH2 0x11AB JUMPI RETURNDATASIZE PUSH0 DUP1 RETURNDATACOPY RETURNDATASIZE PUSH0 REVERT JUMPDEST POP POP POP POP PUSH1 0x40 MLOAD RETURNDATASIZE PUSH1 0x1F NOT PUSH1 0x1F DUP3 ADD AND DUP3 ADD DUP1 PUSH1 0x40 MSTORE POP DUP2 ADD SWAP1 PUSH2 0x11CF SWAP2 SWAP1 PUSH2 0x2DE5 JUMP JUMPDEST SWAP1 POP PUSH1 0x1 PUSH1 0x40 MLOAD DUP1 PUSH1 0x40 ADD PUSH1 0x40 MSTORE DUP1 DUP6 PUSH20 0xFFFFFFFFFFFFFFFFFFFFFFFFFFFFFFFFFFFFFFFF AND DUP2 MSTORE PUSH1 0x20 ADD DUP4 PUSH20 0xFFFFFFFFFFFFFFFFFFFFFFFFFFFFFFFFFFFFFFFF AND DUP2 MSTORE POP SWAP1 DUP1 PUSH1 0x1 DUP2 SLOAD ADD DUP1 DUP3 SSTORE DUP1 SWAP2 POP POP PUSH1 0x1 SWAP1 SUB SWAP1 PUSH0 MSTORE PUSH1 0x20 PUSH0 KECCAK256 SWAP1 PUSH1 0x2 MUL ADD PUSH0 SWAP1 SWAP2 SWAP1 SWAP2 SWAP1 SWAP2 POP PUSH0 DUP3 ADD MLOAD DUP2 PUSH0 ADD PUSH0 PUSH2 0x100 EXP DUP2 SLOAD DUP2 PUSH20 0xFFFFFFFFFFFFFFFFFFFFFFFFFFFFFFFFFFFFFFFF MUL NOT AND SWAP1 DUP4 PUSH20 0xFFFFFFFFFFFFFFFFFFFFFFFFFFFFFFFFFFFFFFFF AND MUL OR SWAP1 SSTORE POP PUSH1 0x20 DUP3 ADD MLOAD DUP2 PUSH1 0x1 ADD PUSH0 PUSH2 0x100 EXP DUP2 SLOAD DUP2 PUSH20 0xFFFFFFFFFFFFFFFFFFFFFFFFFFFFFFFFFFFFFFFF MUL NOT AND SWAP1 DUP4 PUSH20 0xFFFFFFFFFFFFFFFFFFFFFFFFFFFFFFFFFFFFFFFF AND MUL OR SWAP1 SSTORE POP POP POP POP POP POP JUMP JUMPDEST PUSH0 DUP1 SLOAD EQ PUSH2 0x130E JUMPI PUSH1 0x40 MLOAD PUSH32 0x8C379A000000000000000000000000000000000000000000000000000000000 DUP2 MSTORE PUSH1 0x4 ADD PUSH2 0x1305 SWAP1 PUSH2 0x2BFB JUMP JUMPDEST PUSH1 0x40 MLOAD DUP1 SWAP2 SUB SWAP1 REVERT JUMPDEST PUSH1 0x1 PUSH0 DUP2 SWAP1 SSTORE POP PUSH0 PUSH1 0x1 DUP1 SLOAD SWAP1 POP SWAP1 POP PUSH1 0x1 DUP2 PUSH2 0x132B SWAP2 SWAP1 PUSH2 0x2C46 JUMP JUMPDEST DUP4 GT ISZERO PUSH2 0x136D JUMPI PUSH1 0x40 MLOAD PUSH32 0x8C379A000000000000000000000000000000000000000000000000000000000 DUP2 MSTORE PUSH1 0x4 ADD PUSH2 0x1364 SWAP1 PUSH2 0x2CC3 JUMP JUMPDEST PUSH1 0x40 MLOAD DUP1 SWAP2 SUB SWAP1 REVERT JUMPDEST PUSH0 PUSH1 0x1 DUP5 DUP2 SLOAD DUP2 LT PUSH2 0x1382 JUMPI PUSH2 0x1381 PUSH2 0x2CE1 JUMP JUMPDEST JUMPDEST SWAP1 PUSH0 MSTORE PUSH1 0x20 PUSH0 KECCAK256 SWAP1 PUSH1 0x2 MUL ADD PUSH1 0x40 MLOAD DUP1 PUSH1 0x40 ADD PUSH1 0x40 MSTORE SWAP1 DUP2 PUSH0 DUP3 ADD PUSH0 SWAP1 SLOAD SWAP1 PUSH2 0x100 EXP SWAP1 DIV PUSH20 0xFFFFFFFFFFFFFFFFFFFFFFFFFFFFFFFFFFFFFFFF AND PUSH20 0xFFFFFFFFFFFFFFFFFFFFFFFFFFFFFFFFFFFFFFFF AND PUSH20 0xFFFFFFFFFFFFFFFFFFFFFFFFFFFFFFFFFFFFFFFF AND DUP2 MSTORE PUSH1 0x20 ADD PUSH1 0x1 DUP3 ADD PUSH0 SWAP1 SLOAD SWAP1 PUSH2 0x100 EXP SWAP1 DIV PUSH20 0xFFFFFFFFFFFFFFFFFFFFFFFFFFFFFFFFFFFFFFFF AND PUSH20 0xFFFFFFFFFFFFFFFFFFFFFFFFFFFFFFFFFFFFFFFF AND PUSH20 0xFFFFFFFFFFFFFFFFFFFFFFFFFFFFFFFFFFFFFFFF AND DUP2 MSTORE POP POP SWAP1 POP PUSH0 DUP2 PUSH0 ADD MLOAD SWAP1 POP PUSH0 DUP3 PUSH1 0x20 ADD MLOAD SWAP1 POP PUSH0 PUSH2 0x145E DUP3 DUP8 PUSH2 0x22E9 JUMP JUMPDEST SWAP1 POP PUSH2 0x146C CALLER DUP5 DUP5 DUP5 PUSH2 0x2490 JUMP JUMPDEST PUSH31 0x8FA12FDEF5E29F599717A6D129CA52C2D8A902498312EAB6A78C6090B8E8E0 CALLER DUP5 DUP4 PUSH1 0x40 MLOAD PUSH2 0x149E SWAP4 SWAP3 SWAP2 SWAP1 PUSH2 0x2D1D JUMP JUMPDEST PUSH1 0x40 MLOAD DUP1 SWAP2 SUB SWAP1 LOG1 POP POP POP POP POP PUSH0 DUP1 DUP2 SWAP1 SSTORE POP POP POP JUMP JUMPDEST PUSH0 PUSH1 0x2 PUSH0 SWAP1 SLOAD SWAP1 PUSH2 0x100 EXP SWAP1 DIV PUSH20 0xFFFFFFFFFFFFFFFFFFFFFFFFFFFFFFFFFFFFFFFF AND PUSH20 0xFFFFFFFFFFFFFFFFFFFFFFFFFFFFFFFFFFFFFFFF AND PUSH4 0x893D20E8 PUSH1 0x40 MLOAD DUP2 PUSH4 0xFFFFFFFF AND PUSH1 0xE0 SHL DUP2 MSTORE PUSH1 0x4 ADD PUSH1 0x20 PUSH1 0x40 MLOAD DUP1 DUP4 SUB DUP2 DUP7 GAS STATICCALL ISZERO DUP1 ISZERO PUSH2 0x1520 JUMPI RETURNDATASIZE PUSH0 DUP1 RETURNDATACOPY RETURNDATASIZE PUSH0 REVERT JUMPDEST POP POP POP POP PUSH1 0x40 MLOAD RETURNDATASIZE PUSH1 0x1F NOT PUSH1 0x1F DUP3 ADD AND DUP3 ADD DUP1 PUSH1 0x40 MSTORE POP DUP2 ADD SWAP1 PUSH2 0x1544 SWAP2 SWAP1 PUSH2 0x2DE5 JUMP JUMPDEST SWAP1 POP DUP1 PUSH20 0xFFFFFFFFFFFFFFFFFFFFFFFFFFFFFFFFFFFFFFFF AND CALLER PUSH20 0xFFFFFFFFFFFFFFFFFFFFFFFFFFFFFFFFFFFFFFFF AND EQ PUSH2 0x15B4 JUMPI PUSH1 0x40 MLOAD PUSH32 0x8C379A000000000000000000000000000000000000000000000000000000000 DUP2 MSTORE PUSH1 0x4 ADD PUSH2 0x15AB SWAP1 PUSH2 0x2E5A JUMP JUMPDEST PUSH1 0x40 MLOAD DUP1 SWAP2 SUB SWAP1 REVERT JUMPDEST PUSH2 0x15BD DUP3 PUSH2 0x22A6 JUMP JUMPDEST POP POP JUMP JUMPDEST PUSH2 0x15C9 PUSH2 0x26D2 JUMP JUMPDEST PUSH0 PUSH1 0x1 DUP1 SLOAD SWAP1 POP SWAP1 POP PUSH1 0x1 DUP2 PUSH2 0x15DF SWAP2 SWAP1 PUSH2 0x2C46 JUMP JUMPDEST DUP5 GT ISZERO PUSH2 0x1621 JUMPI PUSH1 0x40 MLOAD PUSH32 0x8C379A000000000000000000000000000000000000000000000000000000000 DUP2 MSTORE PUSH1 0x4 ADD PUSH2 0x1618 SWAP1 PUSH2 0x2CC3 JUMP JUMPDEST PUSH1 0x40 MLOAD DUP1 SWAP2 SUB SWAP1 REVERT JUMPDEST PUSH0 PUSH2 0x162B DUP6 PUSH2 0xEA5 JUMP JUMPDEST PUSH0 ADD MLOAD SWAP1 POP PUSH0 PUSH1 0x40 MLOAD DUP1 PUSH1 0x80 ADD PUSH1 0x40 MSTORE DUP1 DUP7 PUSH20 0xFFFFFFFFFFFFFFFFFFFFFFFFFFFFFFFFFFFFFFFF AND DUP2 MSTORE PUSH1 0x20 ADD DUP4 PUSH20 0xFFFFFFFFFFFFFFFFFFFFFFFFFFFFFFFFFFFFFFFF AND PUSH4 0xB3A7834D DUP9 PUSH1 0x40 MLOAD DUP3 PUSH4 0xFFFFFFFF AND PUSH1 0xE0 SHL DUP2 MSTORE PUSH1 0x4 ADD PUSH2 0x1691 SWAP2 SWAP1 PUSH2 0x2DB8 JUMP JUMPDEST PUSH1 0x80 PUSH1 0x40 MLOAD DUP1 DUP4 SUB DUP2 DUP7 GAS STATICCALL ISZERO DUP1 ISZERO PUSH2 0x16AC JUMPI RETURNDATASIZE PUSH0 DUP1 RETURNDATACOPY RETURNDATASIZE PUSH0 REVERT JUMPDEST POP POP POP POP PUSH1 0x40 MLOAD RETURNDATASIZE PUSH1 0x1F NOT PUSH1 0x1F DUP3 ADD AND DUP3 ADD DUP1 PUSH1 0x40 MSTORE POP DUP2 ADD SWAP1 PUSH2 0x16D0 SWAP2 SWAP1 PUSH2 0x3024 JUMP JUMPDEST PUSH1 0x20 ADD MLOAD DUP2 MSTORE PUSH1 0x20 ADD DUP4 PUSH20 0xFFFFFFFFFFFFFFFFFFFFFFFFFFFFFFFFFFFFFFFF AND PUSH4 0xB3A7834D DUP9 PUSH1 0x40 MLOAD DUP3 PUSH4 0xFFFFFFFF AND PUSH1 0xE0 SHL DUP2 MSTORE PUSH1 0x4 ADD PUSH2 0x1712 SWAP2 SWAP1 PUSH2 0x2DB8 JUMP JUMPDEST PUSH1 0x80 PUSH1 0x40 MLOAD DUP1 DUP4 SUB DUP2 DUP7 GAS STATICCALL ISZERO DUP1 ISZERO PUSH2 0x172D JUMPI RETURNDATASIZE PUSH0 DUP1 RETURNDATACOPY RETURNDATASIZE PUSH0 REVERT JUMPDEST POP POP POP POP PUSH1 0x40 MLOAD RETURNDATASIZE PUSH1 0x1F NOT PUSH1 0x1F DUP3 ADD AND DUP3 ADD DUP1 PUSH1 0x40 MSTORE POP DUP2 ADD SWAP1 PUSH2 0x1751 SWAP2 SWAP1 PUSH2 0x3024 JUMP JUMPDEST PUSH1 0x40 ADD MLOAD DUP2 MSTORE PUSH1 0x20 ADD DUP4 PUSH20 0xFFFFFFFFFFFFFFFFFFFFFFFFFFFFFFFFFFFFFFFF AND PUSH4 0xB3A7834D DUP9 PUSH1 0x40 MLOAD DUP3 PUSH4 0xFFFFFFFF AND PUSH1 0xE0 SHL DUP2 MSTORE PUSH1 0x4 ADD PUSH2 0x1793 SWAP2 SWAP1 PUSH2 0x2DB8 JUMP JUMPDEST PUSH1 0x80 PUSH1 0x40 MLOAD DUP1 DUP4 SUB DUP2 DUP7 GAS STATICCALL ISZERO DUP1 ISZERO PUSH2 0x17AE JUMPI RETURNDATASIZE PUSH0 DUP1 RETURNDATACOPY RETURNDATASIZE PUSH0 REVERT JUMPDEST POP POP POP POP PUSH1 0x40 MLOAD RETURNDATASIZE PUSH1 0x1F NOT PUSH1 0x1F DUP3 ADD AND DUP3 ADD DUP1 PUSH1 0x40 MSTORE POP DUP2 ADD SWAP1 PUSH2 0x17D2 SWAP2 SWAP1 PUSH2 0x3024 JUMP JUMPDEST PUSH1 0x60 ADD MLOAD DUP2 MSTORE POP SWAP1 POP DUP1 SWAP4 POP POP POP POP SWAP3 SWAP2 POP POP JUMP JUMPDEST PUSH2 0x17EF PUSH2 0x270C JUMP JUMPDEST PUSH0 PUSH1 0x1 DUP1 SLOAD SWAP1 POP SWAP1 POP PUSH1 0x1 DUP2 PUSH2 0x1805 SWAP2 SWAP1 PUSH2 0x2C46 JUMP JUMPDEST DUP4 GT ISZERO PUSH2 0x1847 JUMPI PUSH1 0x40 MLOAD PUSH32 0x8C379A000000000000000000000000000000000000000000000000000000000 DUP2 MSTORE PUSH1 0x4 ADD PUSH2 0x183E SWAP1 PUSH2 0x2CC3 JUMP JUMPDEST PUSH1 0x40 MLOAD DUP1 SWAP2 SUB SWAP1 REVERT JUMPDEST PUSH0 PUSH2 0x1851 DUP5 PUSH2 0xEA5 JUMP JUMPDEST PUSH0 ADD MLOAD SWAP1 POP PUSH0 PUSH1 0x40 MLOAD DUP1 PUSH1 0x60 ADD PUSH1 0x40 MSTORE DUP1 DUP4 PUSH20 0xFFFFFFFFFFFFFFFFFFFFFFFFFFFFFFFFFFFFFFFF AND PUSH4 0x135022C2 DUP10 PUSH1 0x40 MLOAD DUP3 PUSH4 0xFFFFFFFF AND PUSH1 0xE0 SHL DUP2 MSTORE PUSH1 0x4 ADD PUSH2 0x189B SWAP2 SWAP1 PUSH2 0x28CD JUMP JUMPDEST PUSH2 0x1C0 PUSH1 0x40 MLOAD DUP1 DUP4 SUB DUP2 DUP7 GAS STATICCALL ISZERO DUP1 ISZERO PUSH2 0x18B7 JUMPI RETURNDATASIZE PUSH0 DUP1 RETURNDATACOPY RETURNDATASIZE PUSH0 REVERT JUMPDEST POP POP POP POP PUSH1 0x40 MLOAD RETURNDATASIZE PUSH1 0x1F NOT PUSH1 0x1F DUP3 ADD AND DUP3 ADD DUP1 PUSH1 0x40 MSTORE POP DUP2 ADD SWAP1 PUSH2 0x18DB SWAP2 SWAP1 PUSH2 0x31A6 JUMP JUMPDEST PUSH0 ADD MLOAD PUSH0 ADD MLOAD PUSH20 0xFFFFFFFFFFFFFFFFFFFFFFFFFFFFFFFFFFFFFFFF AND DUP2 MSTORE PUSH1 0x20 ADD DUP4 PUSH20 0xFFFFFFFFFFFFFFFFFFFFFFFFFFFFFFFFFFFFFFFF AND PUSH4 0x135022C2 DUP10 PUSH1 0x40 MLOAD DUP3 PUSH4 0xFFFFFFFF AND PUSH1 0xE0 SHL DUP2 MSTORE PUSH1 0x4 ADD PUSH2 0x1935 SWAP2 SWAP1 PUSH2 0x28CD JUMP JUMPDEST PUSH2 0x1C0 PUSH1 0x40 MLOAD DUP1 DUP4 SUB DUP2 DUP7 GAS STATICCALL ISZERO DUP1 ISZERO PUSH2 0x1951 JUMPI RETURNDATASIZE PUSH0 DUP1 RETURNDATACOPY RETURNDATASIZE PUSH0 REVERT JUMPDEST POP POP POP POP PUSH1 0x40 MLOAD RETURNDATASIZE PUSH1 0x1F NOT PUSH1 0x1F DUP3 ADD AND DUP3 ADD DUP1 PUSH1 0x40 MSTORE POP DUP2 ADD SWAP1 PUSH2 0x1975 SWAP2 SWAP1 PUSH2 0x31A6 JUMP JUMPDEST PUSH0 ADD MLOAD PUSH1 0x20 ADD MLOAD DUP2 MSTORE PUSH1 0x20 ADD DUP4 PUSH20 0xFFFFFFFFFFFFFFFFFFFFFFFFFFFFFFFFFFFFFFFF AND PUSH4 0x135022C2 DUP10 PUSH1 0x40 MLOAD DUP3 PUSH4 0xFFFFFFFF AND PUSH1 0xE0 SHL DUP2 MSTORE PUSH1 0x4 ADD PUSH2 0x19BA SWAP2 SWAP1 PUSH2 0x28CD JUMP JUMPDEST PUSH2 0x1C0 PUSH1 0x40 MLOAD DUP1 DUP4 SUB DUP2 DUP7 GAS STATICCALL ISZERO DUP1 ISZERO PUSH2 0x19D6 JUMPI RETURNDATASIZE PUSH0 DUP1 RETURNDATACOPY RETURNDATASIZE PUSH0 REVERT JUMPDEST POP POP POP POP PUSH1 0x40 MLOAD RETURNDATASIZE PUSH1 0x1F NOT PUSH1 0x1F DUP3 ADD AND DUP3 ADD DUP1 PUSH1 0x40 MSTORE POP DUP2 ADD SWAP1 PUSH2 0x19FA SWAP2 SWAP1 PUSH2 0x31A6 JUMP JUMPDEST PUSH0 ADD MLOAD PUSH1 0x40 ADD MLOAD ISZERO ISZERO DUP2 MSTORE POP SWAP1 POP PUSH0 PUSH1 0x40 MLOAD DUP1 PUSH1 0x60 ADD PUSH1 0x40 MSTORE DUP1 DUP5 PUSH20 0xFFFFFFFFFFFFFFFFFFFFFFFFFFFFFFFFFFFFFFFF AND PUSH4 0x135022C2 DUP11 PUSH1 0x40 MLOAD DUP3 PUSH4 0xFFFFFFFF AND PUSH1 0xE0 SHL DUP2 MSTORE PUSH1 0x4 ADD PUSH2 0x1A4D SWAP2 SWAP1 PUSH2 0x28CD JUMP JUMPDEST PUSH2 0x1C0 PUSH1 0x40 MLOAD DUP1 DUP4 SUB DUP2 DUP7 GAS STATICCALL ISZERO DUP1 ISZERO PUSH2 0x1A69 JUMPI RETURNDATASIZE PUSH0 DUP1 RETURNDATACOPY RETURNDATASIZE PUSH0 REVERT JUMPDEST POP POP POP POP PUSH1 0x40 MLOAD RETURNDATASIZE PUSH1 0x1F NOT PUSH1 0x1F DUP3 ADD AND DUP3 ADD DUP1 PUSH1 0x40 MSTORE POP DUP2 ADD SWAP1 PUSH2 0x1A8D SWAP2 SWAP1 PUSH2 0x31A6 JUMP JUMPDEST PUSH1 0x20 ADD MLOAD PUSH0 ADD MLOAD PUSH20 0xFFFFFFFFFFFFFFFFFFFFFFFFFFFFFFFFFFFFFFFF AND DUP2 MSTORE PUSH1 0x20 ADD DUP5 PUSH20 0xFFFFFFFFFFFFFFFFFFFFFFFFFFFFFFFFFFFFFFFF AND PUSH4 0x135022C2 DUP11 PUSH1 0x40 MLOAD DUP3 PUSH4 0xFFFFFFFF AND PUSH1 0xE0 SHL DUP2 MSTORE PUSH1 0x4 ADD PUSH2 0x1AE8 SWAP2 SWAP1 PUSH2 0x28CD JUMP JUMPDEST PUSH2 0x1C0 PUSH1 0x40 MLOAD DUP1 DUP4 SUB DUP2 DUP7 GAS STATICCALL ISZERO DUP1 ISZERO PUSH2 0x1B04 JUMPI RETURNDATASIZE PUSH0 DUP1 RETURNDATACOPY RETURNDATASIZE PUSH0 REVERT JUMPDEST POP POP POP POP PUSH1 0x40 MLOAD RETURNDATASIZE PUSH1 0x1F NOT PUSH1 0x1F DUP3 ADD AND DUP3 ADD DUP1 PUSH1 0x40 MSTORE POP DUP2 ADD SWAP1 PUSH2 0x1B28 SWAP2 SWAP1 PUSH2 0x31A6 JUMP JUMPDEST PUSH1 0x20 ADD MLOAD PUSH1 0x20 ADD MLOAD DUP2 MSTORE PUSH1 0x20 ADD DUP5 PUSH20 0xFFFFFFFFFFFFFFFFFFFFFFFFFFFFFFFFFFFFFFFF AND PUSH4 0x135022C2 DUP11 PUSH1 0x40 MLOAD DUP3 PUSH4 0xFFFFFFFF AND PUSH1 0xE0 SHL DUP2 MSTORE PUSH1 0x4 ADD PUSH2 0x1B6E SWAP2 SWAP1 PUSH2 0x28CD JUMP JUMPDEST PUSH2 0x1C0 PUSH1 0x40 MLOAD DUP1 DUP4 SUB DUP2 DUP7 GAS STATICCALL ISZERO DUP1 ISZERO PUSH2 0x1B8A JUMPI RETURNDATASIZE PUSH0 DUP1 RETURNDATACOPY RETURNDATASIZE PUSH0 REVERT JUMPDEST POP POP POP POP PUSH1 0x40 MLOAD RETURNDATASIZE PUSH1 0x1F NOT PUSH1 0x1F DUP3 ADD AND DUP3 ADD DUP1 PUSH1 0x40 MSTORE POP DUP2 ADD SWAP1 PUSH2 0x1BAE SWAP2 SWAP1 PUSH2 0x31A6 JUMP JUMPDEST PUSH1 0x20 ADD MLOAD PUSH1 0x40 ADD MLOAD ISZERO ISZERO DUP2 MSTORE POP SWAP1 POP PUSH0 PUSH1 0x40 MLOAD DUP1 PUSH1 0x60 ADD PUSH1 0x40 MSTORE DUP1 DUP6 PUSH20 0xFFFFFFFFFFFFFFFFFFFFFFFFFFFFFFFFFFFFFFFF AND PUSH4 0x135022C2 DUP12 PUSH1 0x40 MLOAD DUP3 PUSH4 0xFFFFFFFF AND PUSH1 0xE0 SHL DUP2 MSTORE PUSH1 0x4 ADD PUSH2 0x1C02 SWAP2 SWAP1 PUSH2 0x28CD JUMP JUMPDEST PUSH2 0x1C0 PUSH1 0x40 MLOAD DUP1 DUP4 SUB DUP2 DUP7 GAS STATICCALL ISZERO DUP1 ISZERO PUSH2 0x1C1E JUMPI RETURNDATASIZE PUSH0 DUP1 RETURNDATACOPY RETURNDATASIZE PUSH0 REVERT JUMPDEST POP POP POP POP PUSH1 0x40 MLOAD RETURNDATASIZE PUSH1 0x1F NOT PUSH1 0x1F DUP3 ADD AND DUP3 ADD DUP1 PUSH1 0x40 MSTORE POP DUP2 ADD SWAP1 PUSH2 0x1C42 SWAP2 SWAP1 PUSH2 0x31A6 JUMP JUMPDEST PUSH1 0x40 ADD MLOAD PUSH0 ADD MLOAD PUSH20 0xFFFFFFFFFFFFFFFFFFFFFFFFFFFFFFFFFFFFFFFF AND DUP2 MSTORE PUSH1 0x20 ADD DUP6 PUSH20 0xFFFFFFFFFFFFFFFFFFFFFFFFFFFFFFFFFFFFFFFF AND PUSH4 0x135022C2 DUP12 PUSH1 0x40 MLOAD DUP3 PUSH4 0xFFFFFFFF AND PUSH1 0xE0 SHL DUP2 MSTORE PUSH1 0x4 ADD PUSH2 0x1C9D SWAP2 SWAP1 PUSH2 0x28CD JUMP JUMPDEST PUSH2 0x1C0 PUSH1 0x40 MLOAD DUP1 DUP4 SUB DUP2 DUP7 GAS STATICCALL ISZERO DUP1 ISZERO PUSH2 0x1CB9 JUMPI RETURNDATASIZE PUSH0 DUP1 RETURNDATACOPY RETURNDATASIZE PUSH0 REVERT JUMPDEST POP POP POP POP PUSH1 0x40 MLOAD RETURNDATASIZE PUSH1 0x1F NOT PUSH1 0x1F DUP3 ADD AND DUP3 ADD DUP1 PUSH1 0x40 MSTORE POP DUP2 ADD SWAP1 PUSH2 0x1CDD SWAP2 SWAP1 PUSH2 0x31A6 JUMP JUMPDEST PUSH1 0x40 ADD MLOAD PUSH1 0x20 ADD MLOAD DUP2 MSTORE PUSH1 0x20 ADD DUP6 PUSH20 0xFFFFFFFFFFFFFFFFFFFFFFFFFFFFFFFFFFFFFFFF AND PUSH4 0x135022C2 DUP12 PUSH1 0x40 MLOAD DUP3 PUSH4 0xFFFFFFFF AND PUSH1 0xE0 SHL DUP2 MSTORE PUSH1 0x4 ADD PUSH2 0x1D23 SWAP2 SWAP1 PUSH2 0x28CD JUMP JUMPDEST PUSH2 0x1C0 PUSH1 0x40 MLOAD DUP1 DUP4 SUB DUP2 DUP7 GAS STATICCALL ISZERO DUP1 ISZERO PUSH2 0x1D3F JUMPI RETURNDATASIZE PUSH0 DUP1 RETURNDATACOPY RETURNDATASIZE PUSH0 REVERT JUMPDEST POP POP POP POP PUSH1 0x40 MLOAD RETURNDATASIZE PUSH1 0x1F NOT PUSH1 0x1F DUP3 ADD AND DUP3 ADD DUP1 PUSH1 0x40 MSTORE POP DUP2 ADD SWAP1 PUSH2 0x1D63 SWAP2 SWAP1 PUSH2 0x31A6 JUMP JUMPDEST PUSH1 0x40 ADD MLOAD PUSH1 0x40 ADD MLOAD ISZERO ISZERO DUP2 MSTORE POP SWAP1 POP PUSH0 PUSH1 0x40 MLOAD DUP1 PUSH2 0x100 ADD PUSH1 0x40 MSTORE DUP1 DUP6 DUP2 MSTORE PUSH1 0x20 ADD DUP5 DUP2 MSTORE PUSH1 0x20 ADD DUP4 DUP2 MSTORE PUSH1 0x20 ADD DUP7 PUSH20 0xFFFFFFFFFFFFFFFFFFFFFFFFFFFFFFFFFFFFFFFF AND PUSH4 0x135022C2 DUP13 PUSH1 0x40 MLOAD DUP3 PUSH4 0xFFFFFFFF AND PUSH1 0xE0 SHL DUP2 MSTORE PUSH1 0x4 ADD PUSH2 0x1DCA SWAP2 SWAP1 PUSH2 0x28CD JUMP JUMPDEST PUSH2 0x1C0 PUSH1 0x40 MLOAD DUP1 DUP4 SUB DUP2 DUP7 GAS STATICCALL ISZERO DUP1 ISZERO PUSH2 0x1DE6 JUMPI RETURNDATASIZE PUSH0 DUP1 RETURNDATACOPY RETURNDATASIZE PUSH0 REVERT JUMPDEST POP POP POP POP PUSH1 0x40 MLOAD RETURNDATASIZE PUSH1 0x1F NOT PUSH1 0x1F DUP3 ADD AND DUP3 ADD DUP1 PUSH1 0x40 MSTORE POP DUP2 ADD SWAP1 PUSH2 0x1E0A SWAP2 SWAP1 PUSH2 0x31A6 JUMP JUMPDEST PUSH1 0x60 ADD MLOAD ISZERO ISZERO DUP2 MSTORE PUSH1 0x20 ADD DUP7 PUSH20 0xFFFFFFFFFFFFFFFFFFFFFFFFFFFFFFFFFFFFFFFF AND PUSH4 0x135022C2 DUP13 PUSH1 0x40 MLOAD DUP3 PUSH4 0xFFFFFFFF AND PUSH1 0xE0 SHL DUP2 MSTORE PUSH1 0x4 ADD PUSH2 0x1E4E SWAP2 SWAP1 PUSH2 0x28CD JUMP JUMPDEST PUSH2 0x1C0 PUSH1 0x40 MLOAD DUP1 DUP4 SUB DUP2 DUP7 GAS STATICCALL ISZERO DUP1 ISZERO PUSH2 0x1E6A JUMPI RETURNDATASIZE PUSH0 DUP1 RETURNDATACOPY RETURNDATASIZE PUSH0 REVERT JUMPDEST POP POP POP POP PUSH1 0x40 MLOAD RETURNDATASIZE PUSH1 0x1F NOT PUSH1 0x1F DUP3 ADD AND DUP3 ADD DUP1 PUSH1 0x40 MSTORE POP DUP2 ADD SWAP1 PUSH2 0x1E8E SWAP2 SWAP1 PUSH2 0x31A6 JUMP JUMPDEST PUSH1 0x80 ADD MLOAD DUP2 MSTORE PUSH1 0x20 ADD DUP7 PUSH20 0xFFFFFFFFFFFFFFFFFFFFFFFFFFFFFFFFFFFFFFFF AND PUSH4 0x135022C2 DUP13 PUSH1 0x40 MLOAD DUP3 PUSH4 0xFFFFFFFF AND PUSH1 0xE0 SHL DUP2 MSTORE PUSH1 0x4 ADD PUSH2 0x1ED0 SWAP2 SWAP1 PUSH2 0x28CD JUMP JUMPDEST PUSH2 0x1C0 PUSH1 0x40 MLOAD DUP1 DUP4 SUB DUP2 DUP7 GAS STATICCALL ISZERO DUP1 ISZERO PUSH2 0x1EEC JUMPI RETURNDATASIZE PUSH0 DUP1 RETURNDATACOPY RETURNDATASIZE PUSH0 REVERT JUMPDEST POP POP POP POP PUSH1 0x40 MLOAD RETURNDATASIZE PUSH1 0x1F NOT PUSH1 0x1F DUP3 ADD AND DUP3 ADD DUP1 PUSH1 0x40 MSTORE POP DUP2 ADD SWAP1 PUSH2 0x1F10 SWAP2 SWAP1 PUSH2 0x31A6 JUMP JUMPDEST PUSH1 0xA0 ADD MLOAD DUP2 MSTORE PUSH1 0x20 ADD DUP7 PUSH20 0xFFFFFFFFFFFFFFFFFFFFFFFFFFFFFFFFFFFFFFFF AND PUSH4 0x135022C2 DUP13 PUSH1 0x40 MLOAD DUP3 PUSH4 0xFFFFFFFF AND PUSH1 0xE0 SHL DUP2 MSTORE PUSH1 0x4 ADD PUSH2 0x1F52 SWAP2 SWAP1 PUSH2 0x28CD JUMP JUMPDEST PUSH2 0x1C0 PUSH1 0x40 MLOAD DUP1 DUP4 SUB DUP2 DUP7 GAS STATICCALL ISZERO DUP1 ISZERO PUSH2 0x1F6E JUMPI RETURNDATASIZE PUSH0 DUP1 RETURNDATACOPY RETURNDATASIZE PUSH0 REVERT JUMPDEST POP POP POP POP PUSH1 0x40 MLOAD RETURNDATASIZE PUSH1 0x1F NOT PUSH1 0x1F DUP3 ADD AND DUP3 ADD DUP1 PUSH1 0x40 MSTORE POP DUP2 ADD SWAP1 PUSH2 0x1F92 SWAP2 SWAP1 PUSH2 0x31A6 JUMP JUMPDEST PUSH1 0xC0 ADD MLOAD DUP2 MSTORE PUSH1 0x20 ADD DUP7 PUSH20 0xFFFFFFFFFFFFFFFFFFFFFFFFFFFFFFFFFFFFFFFF AND PUSH4 0x135022C2 DUP13 PUSH1 0x40 MLOAD DUP3 PUSH4 0xFFFFFFFF AND PUSH1 0xE0 SHL DUP2 MSTORE PUSH1 0x4 ADD PUSH2 0x1FD4 SWAP2 SWAP1 PUSH2 0x28CD JUMP JUMPDEST PUSH2 0x1C0 PUSH1 0x40 MLOAD DUP1 DUP4 SUB DUP2 DUP7 GAS STATICCALL ISZERO DUP1 ISZERO PUSH2 0x1FF0 JUMPI RETURNDATASIZE PUSH0 DUP1 RETURNDATACOPY RETURNDATASIZE PUSH0 REVERT JUMPDEST POP POP POP POP PUSH1 0x40 MLOAD RETURNDATASIZE PUSH1 0x1F NOT PUSH1 0x1F DUP3 ADD AND DUP3 ADD DUP1 PUSH1 0x40 MSTORE POP DUP2 ADD SWAP1 PUSH2 0x2014 SWAP2 SWAP1 PUSH2 0x31A6 JUMP JUMPDEST PUSH1 0xE0 ADD MLOAD DUP2 MSTORE POP SWAP1 POP DUP1 SWAP7 POP POP POP POP POP POP POP SWAP3 SWAP2 POP POP JUMP JUMPDEST PUSH0 DUP3 PUSH20 0xFFFFFFFFFFFFFFFFFFFFFFFFFFFFFFFFFFFFFFFF AND PUSH4 0x70A08231 ADDRESS PUSH1 0x40 MLOAD DUP3 PUSH4 0xFFFFFFFF AND PUSH1 0xE0 SHL DUP2 MSTORE PUSH1 0x4 ADD PUSH2 0x2066 SWAP2 SWAP1 PUSH2 0x2DB8 JUMP JUMPDEST PUSH1 0x20 PUSH1 0x40 MLOAD DUP1 DUP4 SUB DUP2 DUP7 GAS STATICCALL ISZERO DUP1 ISZERO PUSH2 0x2081 JUMPI RETURNDATASIZE PUSH0 DUP1 RETURNDATACOPY RETURNDATASIZE PUSH0 REVERT JUMPDEST POP POP POP POP PUSH1 0x40 MLOAD RETURNDATASIZE PUSH1 0x1F NOT PUSH1 0x1F DUP3 ADD AND DUP3 ADD DUP1 PUSH1 0x40 MSTORE POP DUP2 ADD SWAP1 PUSH2 0x20A5 SWAP2 SWAP1 PUSH2 0x2D8D JUMP JUMPDEST SWAP1 POP PUSH2 0x20B2 DUP6 DUP6 DUP5 PUSH2 0x24AC JUMP JUMPDEST PUSH0 DUP4 PUSH20 0xFFFFFFFFFFFFFFFFFFFFFFFFFFFFFFFFFFFFFFFF AND PUSH4 0x70A08231 ADDRESS PUSH1 0x40 MLOAD DUP3 PUSH4 0xFFFFFFFF AND PUSH1 0xE0 SHL DUP2 MSTORE PUSH1 0x4 ADD PUSH2 0x20EC SWAP2 SWAP1 PUSH2 0x2DB8 JUMP JUMPDEST PUSH1 0x20 PUSH1 0x40 MLOAD DUP1 DUP4 SUB DUP2 DUP7 GAS STATICCALL ISZERO DUP1 ISZERO PUSH2 0x2107 JUMPI RETURNDATASIZE PUSH0 DUP1 RETURNDATACOPY RETURNDATASIZE PUSH0 REVERT JUMPDEST POP POP POP POP PUSH1 0x40 MLOAD RETURNDATASIZE PUSH1 0x1F NOT PUSH1 0x1F DUP3 ADD AND DUP3 ADD DUP1 PUSH1 0x40 MSTORE POP DUP2 ADD SWAP1 PUSH2 0x212B SWAP2 SWAP1 PUSH2 0x2D8D JUMP JUMPDEST SWAP1 POP PUSH0 DUP3 DUP3 PUSH2 0x213A SWAP2 SWAP1 PUSH2 0x2C46 JUMP JUMPDEST SWAP1 POP PUSH2 0x2147 DUP8 DUP7 DUP4 PUSH2 0x2219 JUMP JUMPDEST POP POP POP POP POP POP POP JUMP JUMPDEST PUSH0 DUP1 DUP3 PUSH20 0xFFFFFFFFFFFFFFFFFFFFFFFFFFFFFFFFFFFFFFFF AND PUSH4 0x1AC6D19D DUP6 PUSH1 0x40 MLOAD DUP3 PUSH4 0xFFFFFFFF AND PUSH1 0xE0 SHL DUP2 MSTORE PUSH1 0x4 ADD PUSH2 0x218B SWAP2 SWAP1 PUSH2 0x2DB8 JUMP JUMPDEST PUSH1 0x20 PUSH1 0x40 MLOAD DUP1 DUP4 SUB DUP2 PUSH0 DUP8 GAS CALL ISZERO DUP1 ISZERO PUSH2 0x21A7 JUMPI RETURNDATASIZE PUSH0 DUP1 RETURNDATACOPY RETURNDATASIZE PUSH0 REVERT JUMPDEST POP POP POP POP PUSH1 0x40 MLOAD RETURNDATASIZE PUSH1 0x1F NOT PUSH1 0x1F DUP3 ADD AND DUP3 ADD DUP1 PUSH1 0x40 MSTORE POP DUP2 ADD SWAP1 PUSH2 0x21CB SWAP2 SWAP1 PUSH2 0x2D8D JUMP JUMPDEST SWAP1 POP PUSH0 DUP2 GT PUSH2 0x220F JUMPI PUSH1 0x40 MLOAD PUSH32 0x8C379A000000000000000000000000000000000000000000000000000000000 DUP2 MSTORE PUSH1 0x4 ADD PUSH2 0x2206 SWAP1 PUSH2 0x321C JUMP JUMPDEST PUSH1 0x40 MLOAD DUP1 SWAP2 SUB SWAP1 REVERT JUMPDEST DUP1 SWAP2 POP POP SWAP3 SWAP2 POP POP JUMP JUMPDEST PUSH0 DUP3 PUSH20 0xFFFFFFFFFFFFFFFFFFFFFFFFFFFFFFFFFFFFFFFF AND PUSH4 0xA9059CBB DUP6 DUP5 PUSH1 0x40 MLOAD DUP4 PUSH4 0xFFFFFFFF AND PUSH1 0xE0 SHL DUP2 MSTORE PUSH1 0x4 ADD PUSH2 0x2255 SWAP3 SWAP2 SWAP1 PUSH2 0x323A JUMP JUMPDEST PUSH1 0x20 PUSH1 0x40 MLOAD DUP1 DUP4 SUB DUP2 PUSH0 DUP8 GAS CALL ISZERO DUP1 ISZERO PUSH2 0x2271 JUMPI RETURNDATASIZE PUSH0 DUP1 RETURNDATACOPY RETURNDATASIZE PUSH0 REVERT JUMPDEST POP POP POP POP PUSH1 0x40 MLOAD RETURNDATASIZE PUSH1 0x1F NOT PUSH1 0x1F DUP3 ADD AND DUP3 ADD DUP1 PUSH1 0x40 MSTORE POP DUP2 ADD SWAP1 PUSH2 0x2295 SWAP2 SWAP1 PUSH2 0x3261 JUMP JUMPDEST SWAP1 POP DUP1 PUSH2 0x22A0 JUMPI PUSH0 DUP1 REVERT JUMPDEST POP POP POP POP JUMP JUMPDEST DUP1 PUSH1 0x2 PUSH0 PUSH2 0x100 EXP DUP2 SLOAD DUP2 PUSH20 0xFFFFFFFFFFFFFFFFFFFFFFFFFFFFFFFFFFFFFFFF MUL NOT AND SWAP1 DUP4 PUSH20 0xFFFFFFFFFFFFFFFFFFFFFFFFFFFFFFFFFFFFFFFF AND MUL OR SWAP1 SSTORE POP POP JUMP JUMPDEST PUSH0 DUP1 DUP3 GT PUSH2 0x22F5 JUMPI PUSH0 DUP1 REVERT JUMPDEST PUSH0 DUP4 PUSH20 0xFFFFFFFFFFFFFFFFFFFFFFFFFFFFFFFFFFFFFFFF AND PUSH4 0x70A08231 ADDRESS PUSH1 0x40 MLOAD DUP3 PUSH4 0xFFFFFFFF AND PUSH1 0xE0 SHL DUP2 MSTORE PUSH1 0x4 ADD PUSH2 0x232F SWAP2 SWAP1 PUSH2 0x2DB8 JUMP JUMPDEST PUSH1 0x20 PUSH1 0x40 MLOAD DUP1 DUP4 SUB DUP2 DUP7 GAS STATICCALL ISZERO DUP1 ISZERO PUSH2 0x234A JUMPI RETURNDATASIZE PUSH0 DUP1 RETURNDATACOPY RETURNDATASIZE PUSH0 REVERT JUMPDEST POP POP POP POP PUSH1 0x40 MLOAD RETURNDATASIZE PUSH1 0x1F NOT PUSH1 0x1F DUP3 ADD AND DUP3 ADD DUP1 PUSH1 0x40 MSTORE POP DUP2 ADD SWAP1 PUSH2 0x236E SWAP2 SWAP1 PUSH2 0x2D8D JUMP JUMPDEST SWAP1 POP PUSH0 DUP5 PUSH20 0xFFFFFFFFFFFFFFFFFFFFFFFFFFFFFFFFFFFFFFFF AND PUSH4 0x23B872DD CALLER ADDRESS DUP8 PUSH1 0x40 MLOAD DUP5 PUSH4 0xFFFFFFFF AND PUSH1 0xE0 SHL DUP2 MSTORE PUSH1 0x4 ADD PUSH2 0x23AE SWAP4 SWAP3 SWAP2 SWAP1 PUSH2 0x2D1D JUMP JUMPDEST PUSH1 0x20 PUSH1 0x40 MLOAD DUP1 DUP4 SUB DUP2 PUSH0 DUP8 GAS CALL ISZERO DUP1 ISZERO PUSH2 0x23CA JUMPI RETURNDATASIZE PUSH0 DUP1 RETURNDATACOPY RETURNDATASIZE PUSH0 REVERT JUMPDEST POP POP POP POP PUSH1 0x40 MLOAD RETURNDATASIZE PUSH1 0x1F NOT PUSH1 0x1F DUP3 ADD AND DUP3 ADD DUP1 PUSH1 0x40 MSTORE POP DUP2 ADD SWAP1 PUSH2 0x23EE SWAP2 SWAP1 PUSH2 0x3261 JUMP JUMPDEST SWAP1 POP DUP1 PUSH2 0x23F9 JUMPI PUSH0 DUP1 REVERT JUMPDEST PUSH0 DUP6 PUSH20 0xFFFFFFFFFFFFFFFFFFFFFFFFFFFFFFFFFFFFFFFF AND PUSH4 0x70A08231 ADDRESS PUSH1 0x40 MLOAD DUP3 PUSH4 0xFFFFFFFF AND PUSH1 0xE0 SHL DUP2 MSTORE PUSH1 0x4 ADD PUSH2 0x2433 SWAP2 SWAP1 PUSH2 0x2DB8 JUMP JUMPDEST PUSH1 0x20 PUSH1 0x40 MLOAD DUP1 DUP4 SUB DUP2 DUP7 GAS STATICCALL ISZERO DUP1 ISZERO PUSH2 0x244E JUMPI RETURNDATASIZE PUSH0 DUP1 RETURNDATACOPY RETURNDATASIZE PUSH0 REVERT JUMPDEST POP POP POP POP PUSH1 0x40 MLOAD RETURNDATASIZE PUSH1 0x1F NOT PUSH1 0x1F DUP3 ADD AND DUP3 ADD DUP1 PUSH1 0x40 MSTORE POP DUP2 ADD SWAP1 PUSH2 0x2472 SWAP2 SWAP1 PUSH2 0x2D8D JUMP JUMPDEST SWAP1 POP PUSH0 DUP4 DUP3 PUSH2 0x2481 SWAP2 SWAP1 PUSH2 0x2C46 JUMP JUMPDEST SWAP1 POP DUP1 SWAP5 POP POP POP POP POP SWAP3 SWAP2 POP POP JUMP JUMPDEST PUSH2 0x249B DUP4 DUP4 DUP4 PUSH2 0x2524 JUMP JUMPDEST PUSH2 0x24A6 DUP5 DUP5 DUP4 PUSH2 0x2621 JUMP JUMPDEST POP POP POP POP JUMP JUMPDEST PUSH0 DUP2 GT PUSH2 0x24B7 JUMPI PUSH0 DUP1 REVERT JUMPDEST DUP2 PUSH20 0xFFFFFFFFFFFFFFFFFFFFFFFFFFFFFFFFFFFFFFFF AND PUSH4 0xDB518DB2 DUP5 DUP4 PUSH1 0x40 MLOAD DUP4 PUSH4 0xFFFFFFFF AND PUSH1 0xE0 SHL DUP2 MSTORE PUSH1 0x4 ADD PUSH2 0x24F2 SWAP3 SWAP2 SWAP1 PUSH2 0x323A JUMP JUMPDEST PUSH0 PUSH1 0x40 MLOAD DUP1 DUP4 SUB DUP2 PUSH0 DUP8 DUP1 EXTCODESIZE ISZERO DUP1 ISZERO PUSH2 0x2509 JUMPI PUSH0 DUP1 REVERT JUMPDEST POP GAS CALL ISZERO DUP1 ISZERO PUSH2 0x251B JUMPI RETURNDATASIZE PUSH0 DUP1 RETURNDATACOPY RETURNDATASIZE PUSH0 REVERT JUMPDEST POP POP POP POP POP POP POP JUMP JUMPDEST DUP2 PUSH20 0xFFFFFFFFFFFFFFFFFFFFFFFFFFFFFFFFFFFFFFFF AND PUSH4 0x95EA7B3 DUP5 PUSH0 PUSH1 0x40 MLOAD DUP4 PUSH4 0xFFFFFFFF AND PUSH1 0xE0 SHL DUP2 MSTORE PUSH1 0x4 ADD PUSH2 0x255F SWAP3 SWAP2 SWAP1 PUSH2 0x32CE JUMP JUMPDEST PUSH1 0x20 PUSH1 0x40 MLOAD DUP1 DUP4 SUB DUP2 PUSH0 DUP8 GAS CALL ISZERO DUP1 ISZERO PUSH2 0x257B JUMPI RETURNDATASIZE PUSH0 DUP1 RETURNDATACOPY RETURNDATASIZE PUSH0 REVERT JUMPDEST POP POP POP POP PUSH1 0x40 MLOAD RETURNDATASIZE PUSH1 0x1F NOT PUSH1 0x1F DUP3 ADD AND DUP3 ADD DUP1 PUSH1 0x40 MSTORE POP DUP2 ADD SWAP1 PUSH2 0x259F SWAP2 SWAP1 PUSH2 0x3261 JUMP JUMPDEST POP DUP2 PUSH20 0xFFFFFFFFFFFFFFFFFFFFFFFFFFFFFFFFFFFFFFFF AND PUSH4 0x95EA7B3 DUP5 DUP4 PUSH1 0x40 MLOAD DUP4 PUSH4 0xFFFFFFFF AND PUSH1 0xE0 SHL DUP2 MSTORE PUSH1 0x4 ADD PUSH2 0x25DB SWAP3 SWAP2 SWAP1 PUSH2 0x323A JUMP JUMPDEST PUSH1 0x20 PUSH1 0x40 MLOAD DUP1 DUP4 SUB DUP2 PUSH0 DUP8 GAS CALL ISZERO DUP1 ISZERO PUSH2 0x25F7 JUMPI RETURNDATASIZE PUSH0 DUP1 RETURNDATACOPY RETURNDATASIZE PUSH0 REVERT JUMPDEST POP POP POP POP PUSH1 0x40 MLOAD RETURNDATASIZE PUSH1 0x1F NOT PUSH1 0x1F DUP3 ADD AND DUP3 ADD DUP1 PUSH1 0x40 MSTORE POP DUP2 ADD SWAP1 PUSH2 0x261B SWAP2 SWAP1 PUSH2 0x3261 JUMP JUMPDEST POP POP POP POP JUMP JUMPDEST DUP2 PUSH20 0xFFFFFFFFFFFFFFFFFFFFFFFFFFFFFFFFFFFFFFFF AND PUSH4 0x2F4F21E2 DUP5 DUP4 PUSH1 0x40 MLOAD DUP4 PUSH4 0xFFFFFFFF AND PUSH1 0xE0 SHL DUP2 MSTORE PUSH1 0x4 ADD PUSH2 0x265C SWAP3 SWAP2 SWAP1 PUSH2 0x323A JUMP JUMPDEST PUSH0 PUSH1 0x40 MLOAD DUP1 DUP4 SUB DUP2 PUSH0 DUP8 DUP1 EXTCODESIZE ISZERO DUP1 ISZERO PUSH2 0x2673 JUMPI PUSH0 DUP1 REVERT JUMPDEST POP GAS CALL ISZERO DUP1 ISZERO PUSH2 0x2685 JUMPI RETURNDATASIZE PUSH0 DUP1 RETURNDATACOPY RETURNDATASIZE PUSH0 REVERT JUMPDEST POP POP POP POP POP POP POP JUMP JUMPDEST PUSH1 0x40 MLOAD DUP1 PUSH1 0x40 ADD PUSH1 0x40 MSTORE DUP1 PUSH0 PUSH20 0xFFFFFFFFFFFFFFFFFFFFFFFFFFFFFFFFFFFFFFFF AND DUP2 MSTORE PUSH1 0x20 ADD PUSH0 PUSH20 0xFFFFFFFFFFFFFFFFFFFFFFFFFFFFFFFFFFFFFFFF AND DUP2 MSTORE POP SWAP1 JUMP JUMPDEST PUSH1 0x40 MLOAD DUP1 PUSH1 0x80 ADD PUSH1 0x40 MSTORE DUP1 PUSH0 PUSH20 0xFFFFFFFFFFFFFFFFFFFFFFFFFFFFFFFFFFFFFFFF AND DUP2 MSTORE PUSH1 0x20 ADD PUSH0 DUP2 MSTORE PUSH1 0x20 ADD PUSH0 DUP2 MSTORE PUSH1 0x20 ADD PUSH0 DUP2 MSTORE POP SWAP1 JUMP JUMPDEST PUSH1 0x40 MLOAD DUP1 PUSH2 0x100 ADD PUSH1 0x40 MSTORE DUP1 PUSH2 0x2720 PUSH2 0x2760 JUMP JUMPDEST DUP2 MSTORE PUSH1 0x20 ADD PUSH2 0x272D PUSH2 0x2760 JUMP JUMPDEST DUP2 MSTORE PUSH1 0x20 ADD PUSH2 0x273A PUSH2 0x2760 JUMP JUMPDEST DUP2 MSTORE PUSH1 0x20 ADD PUSH0 ISZERO ISZERO DUP2 MSTORE PUSH1 0x20 ADD PUSH0 DUP2 MSTORE PUSH1 0x20 ADD PUSH0 DUP2 MSTORE PUSH1 0x20 ADD PUSH0 DUP2 MSTORE PUSH1 0x20 ADD PUSH0 DUP2 MSTORE POP SWAP1 JUMP JUMPDEST PUSH1 0x40 MLOAD DUP1 PUSH1 0x60 ADD PUSH1 0x40 MSTORE DUP1 PUSH0 PUSH20 0xFFFFFFFFFFFFFFFFFFFFFFFFFFFFFFFFFFFFFFFF AND DUP2 MSTORE PUSH1 0x20 ADD PUSH0 DUP2 MSTORE PUSH1 0x20 ADD PUSH0 ISZERO ISZERO DUP2 MSTORE POP SWAP1 JUMP JUMPDEST PUSH0 PUSH1 0x40 MLOAD SWAP1 POP SWAP1 JUMP JUMPDEST PUSH0 DUP1 REVERT JUMPDEST PUSH0 DUP2 SWAP1 POP SWAP2 SWAP1 POP JUMP JUMPDEST PUSH2 0x27B5 DUP2 PUSH2 0x27A3 JUMP JUMPDEST DUP2 EQ PUSH2 0x27BF JUMPI PUSH0 DUP1 REVERT JUMPDEST POP JUMP JUMPDEST PUSH0 DUP2 CALLDATALOAD SWAP1 POP PUSH2 0x27D0 DUP2 PUSH2 0x27AC JUMP JUMPDEST SWAP3 SWAP2 POP POP JUMP JUMPDEST PUSH0 DUP1 PUSH1 0x40 DUP4 DUP6 SUB SLT ISZERO PUSH2 0x27EC JUMPI PUSH2 0x27EB PUSH2 0x279F JUMP JUMPDEST JUMPDEST PUSH0 PUSH2 0x27F9 DUP6 DUP3 DUP7 ADD PUSH2 0x27C2 JUMP JUMPDEST SWAP3 POP POP PUSH1 0x20 PUSH2 0x280A DUP6 DUP3 DUP7 ADD PUSH2 0x27C2 JUMP JUMPDEST SWAP2 POP POP SWAP3 POP SWAP3 SWAP1 POP JUMP JUMPDEST PUSH0 PUSH20 0xFFFFFFFFFFFFFFFFFFFFFFFFFFFFFFFFFFFFFFFF DUP3 AND SWAP1 POP SWAP2 SWAP1 POP JUMP JUMPDEST PUSH0 PUSH2 0x283D DUP3 PUSH2 0x2814 JUMP JUMPDEST SWAP1 POP SWAP2 SWAP1 POP JUMP JUMPDEST PUSH2 0x284D DUP2 PUSH2 0x2833 JUMP JUMPDEST DUP2 EQ PUSH2 0x2857 JUMPI PUSH0 DUP1 REVERT JUMPDEST POP JUMP JUMPDEST PUSH0 DUP2 CALLDATALOAD SWAP1 POP PUSH2 0x2868 DUP2 PUSH2 0x2844 JUMP JUMPDEST SWAP3 SWAP2 POP POP JUMP JUMPDEST PUSH0 DUP1 PUSH0 PUSH1 0x60 DUP5 DUP7 SUB SLT ISZERO PUSH2 0x2885 JUMPI PUSH2 0x2884 PUSH2 0x279F JUMP JUMPDEST JUMPDEST PUSH0 PUSH2 0x2892 DUP7 DUP3 DUP8 ADD PUSH2 0x27C2 JUMP JUMPDEST SWAP4 POP POP PUSH1 0x20 PUSH2 0x28A3 DUP7 DUP3 DUP8 ADD PUSH2 0x27C2 JUMP JUMPDEST SWAP3 POP POP PUSH1 0x40 PUSH2 0x28B4 DUP7 DUP3 DUP8 ADD PUSH2 0x285A JUMP JUMPDEST SWAP2 POP POP SWAP3 POP SWAP3 POP SWAP3 JUMP JUMPDEST PUSH2 0x28C7 DUP2 PUSH2 0x27A3 JUMP JUMPDEST DUP3 MSTORE POP POP JUMP JUMPDEST PUSH0 PUSH1 0x20 DUP3 ADD SWAP1 POP PUSH2 0x28E0 PUSH0 DUP4 ADD DUP5 PUSH2 0x28BE JUMP JUMPDEST SWAP3 SWAP2 POP POP JUMP JUMPDEST PUSH0 PUSH1 0x20 DUP3 DUP5 SUB SLT ISZERO PUSH2 0x28FB JUMPI PUSH2 0x28FA PUSH2 0x279F JUMP JUMPDEST JUMPDEST PUSH0 PUSH2 0x2908 DUP5 DUP3 DUP6 ADD PUSH2 0x27C2 JUMP JUMPDEST SWAP2 POP POP SWAP3 SWAP2 POP POP JUMP JUMPDEST PUSH0 DUP1 PUSH1 0x40 DUP4 DUP6 SUB SLT ISZERO PUSH2 0x2927 JUMPI PUSH2 0x2926 PUSH2 0x279F JUMP JUMPDEST JUMPDEST PUSH0 PUSH2 0x2934 DUP6 DUP3 DUP7 ADD PUSH2 0x285A JUMP JUMPDEST SWAP3 POP POP PUSH1 0x20 PUSH2 0x2945 DUP6 DUP3 DUP7 ADD PUSH2 0x27C2 JUMP JUMPDEST SWAP2 POP POP SWAP3 POP SWAP3 SWAP1 POP JUMP JUMPDEST PUSH2 0x2958 DUP2 PUSH2 0x2833 JUMP JUMPDEST DUP3 MSTORE POP POP JUMP JUMPDEST PUSH1 0x40 DUP3 ADD PUSH0 DUP3 ADD MLOAD PUSH2 0x2972 PUSH0 DUP6 ADD DUP3 PUSH2 0x294F JUMP JUMPDEST POP PUSH1 0x20 DUP3 ADD MLOAD PUSH2 0x2985 PUSH1 0x20 DUP6 ADD DUP3 PUSH2 0x294F JUMP JUMPDEST POP POP POP POP JUMP JUMPDEST PUSH0 PUSH1 0x40 DUP3 ADD SWAP1 POP PUSH2 0x299E PUSH0 DUP4 ADD DUP5 PUSH2 0x295E JUMP JUMPDEST SWAP3 SWAP2 POP POP JUMP JUMPDEST PUSH0 PUSH1 0x20 DUP3 DUP5 SUB SLT ISZERO PUSH2 0x29B9 JUMPI PUSH2 0x29B8 PUSH2 0x279F JUMP JUMPDEST JUMPDEST PUSH0 PUSH2 0x29C6 DUP5 DUP3 DUP6 ADD PUSH2 0x285A JUMP JUMPDEST SWAP2 POP POP SWAP3 SWAP2 POP POP JUMP JUMPDEST PUSH0 DUP1 PUSH1 0x40 DUP4 DUP6 SUB SLT ISZERO PUSH2 0x29E5 JUMPI PUSH2 0x29E4 PUSH2 0x279F JUMP JUMPDEST JUMPDEST PUSH0 PUSH2 0x29F2 DUP6 DUP3 DUP7 ADD PUSH2 0x27C2 JUMP JUMPDEST SWAP3 POP POP PUSH1 0x20 PUSH2 0x2A03 DUP6 DUP3 DUP7 ADD PUSH2 0x285A JUMP JUMPDEST SWAP2 POP POP SWAP3 POP SWAP3 SWAP1 POP JUMP JUMPDEST PUSH2 0x2A16 DUP2 PUSH2 0x27A3 JUMP JUMPDEST DUP3 MSTORE POP POP JUMP JUMPDEST PUSH1 0x80 DUP3 ADD PUSH0 DUP3 ADD MLOAD PUSH2 0x2A30 PUSH0 DUP6 ADD DUP3 PUSH2 0x294F JUMP JUMPDEST POP PUSH1 0x20 DUP3 ADD MLOAD PUSH2 0x2A43 PUSH1 0x20 DUP6 ADD DUP3 PUSH2 0x2A0D JUMP JUMPDEST POP PUSH1 0x40 DUP3 ADD MLOAD PUSH2 0x2A56 PUSH1 0x40 DUP6 ADD DUP3 PUSH2 0x2A0D JUMP JUMPDEST POP PUSH1 0x60 DUP3 ADD MLOAD PUSH2 0x2A69 PUSH1 0x60 DUP6 ADD DUP3 PUSH2 0x2A0D JUMP JUMPDEST POP POP POP POP JUMP JUMPDEST PUSH0 PUSH1 0x80 DUP3 ADD SWAP1 POP PUSH2 0x2A82 PUSH0 DUP4 ADD DUP5 PUSH2 0x2A1C JUMP JUMPDEST SWAP3 SWAP2 POP POP JUMP JUMPDEST PUSH0 DUP2 ISZERO ISZERO SWAP1 POP SWAP2 SWAP1 POP JUMP JUMPDEST PUSH2 0x2A9C DUP2 PUSH2 0x2A88 JUMP JUMPDEST DUP3 MSTORE POP POP JUMP JUMPDEST PUSH1 0x60 DUP3 ADD PUSH0 DUP3 ADD MLOAD PUSH2 0x2AB6 PUSH0 DUP6 ADD DUP3 PUSH2 0x294F JUMP JUMPDEST POP PUSH1 0x20 DUP3 ADD MLOAD PUSH2 0x2AC9 PUSH1 0x20 DUP6 ADD DUP3 PUSH2 0x2A0D JUMP JUMPDEST POP PUSH1 0x40 DUP3 ADD MLOAD PUSH2 0x2ADC PUSH1 0x40 DUP6 ADD DUP3 PUSH2 0x2A93 JUMP JUMPDEST POP POP POP POP JUMP JUMPDEST PUSH2 0x1C0 DUP3 ADD PUSH0 DUP3 ADD MLOAD PUSH2 0x2AF7 PUSH0 DUP6 ADD DUP3 PUSH2 0x2AA2 JUMP JUMPDEST POP PUSH1 0x20 DUP3 ADD MLOAD PUSH2 0x2B0A PUSH1 0x60 DUP6 ADD DUP3 PUSH2 0x2AA2 JUMP JUMPDEST POP PUSH1 0x40 DUP3 ADD MLOAD PUSH2 0x2B1D PUSH1 0xC0 DUP6 ADD DUP3 PUSH2 0x2AA2 JUMP JUMPDEST POP PUSH1 0x60 DUP3 ADD MLOAD PUSH2 0x2B31 PUSH2 0x120 DUP6 ADD DUP3 PUSH2 0x2A93 JUMP JUMPDEST POP PUSH1 0x80 DUP3 ADD MLOAD PUSH2 0x2B45 PUSH2 0x140 DUP6 ADD DUP3 PUSH2 0x2A0D JUMP JUMPDEST POP PUSH1 0xA0 DUP3 ADD MLOAD PUSH2 0x2B59 PUSH2 0x160 DUP6 ADD DUP3 PUSH2 0x2A0D JUMP JUMPDEST POP PUSH1 0xC0 DUP3 ADD MLOAD PUSH2 0x2B6D PUSH2 0x180 DUP6 ADD DUP3 PUSH2 0x2A0D JUMP JUMPDEST POP PUSH1 0xE0 DUP3 ADD MLOAD PUSH2 0x2B81 PUSH2 0x1A0 DUP6 ADD DUP3 PUSH2 0x2A0D JUMP JUMPDEST POP POP POP POP JUMP JUMPDEST PUSH0 PUSH2 0x1C0 DUP3 ADD SWAP1 POP PUSH2 0x2B9B PUSH0 DUP4 ADD DUP5 PUSH2 0x2AE2 JUMP JUMPDEST SWAP3 SWAP2 POP POP JUMP JUMPDEST PUSH0 DUP3 DUP3 MSTORE PUSH1 0x20 DUP3 ADD SWAP1 POP SWAP3 SWAP2 POP POP JUMP JUMPDEST PUSH32 0x496C6C6567616C2063616C6C0000000000000000000000000000000000000000 PUSH0 DUP3 ADD MSTORE POP JUMP JUMPDEST PUSH0 PUSH2 0x2BE5 PUSH1 0xC DUP4 PUSH2 0x2BA1 JUMP JUMPDEST SWAP2 POP PUSH2 0x2BF0 DUP3 PUSH2 0x2BB1 JUMP JUMPDEST PUSH1 0x20 DUP3 ADD SWAP1 POP SWAP2 SWAP1 POP JUMP JUMPDEST PUSH0 PUSH1 0x20 DUP3 ADD SWAP1 POP DUP2 DUP2 SUB PUSH0 DUP4 ADD MSTORE PUSH2 0x2C12 DUP2 PUSH2 0x2BD9 JUMP JUMPDEST SWAP1 POP SWAP2 SWAP1 POP JUMP JUMPDEST PUSH32 0x4E487B7100000000000000000000000000000000000000000000000000000000 PUSH0 MSTORE PUSH1 0x11 PUSH1 0x4 MSTORE PUSH1 0x24 PUSH0 REVERT JUMPDEST PUSH0 PUSH2 0x2C50 DUP3 PUSH2 0x27A3 JUMP JUMPDEST SWAP2 POP PUSH2 0x2C5B DUP4 PUSH2 0x27A3 JUMP JUMPDEST SWAP3 POP DUP3 DUP3 SUB SWAP1 POP DUP2 DUP2 GT ISZERO PUSH2 0x2C73 JUMPI PUSH2 0x2C72 PUSH2 0x2C19 JUMP JUMPDEST JUMPDEST SWAP3 SWAP2 POP POP JUMP JUMPDEST PUSH32 0x506F6F6C20646F65736E27742065786973740000000000000000000000000000 PUSH0 DUP3 ADD MSTORE POP JUMP JUMPDEST PUSH0 PUSH2 0x2CAD PUSH1 0x12 DUP4 PUSH2 0x2BA1 JUMP JUMPDEST SWAP2 POP PUSH2 0x2CB8 DUP3 PUSH2 0x2C79 JUMP JUMPDEST PUSH1 0x20 DUP3 ADD SWAP1 POP SWAP2 SWAP1 POP JUMP JUMPDEST PUSH0 PUSH1 0x20 DUP3 ADD SWAP1 POP DUP2 DUP2 SUB PUSH0 DUP4 ADD MSTORE PUSH2 0x2CDA DUP2 PUSH2 0x2CA1 JUMP JUMPDEST SWAP1 POP SWAP2 SWAP1 POP JUMP JUMPDEST PUSH32 0x4E487B7100000000000000000000000000000000000000000000000000000000 PUSH0 MSTORE PUSH1 0x32 PUSH1 0x4 MSTORE PUSH1 0x24 PUSH0 REVERT JUMPDEST PUSH2 0x2D17 DUP2 PUSH2 0x2833 JUMP JUMPDEST DUP3 MSTORE POP POP JUMP JUMPDEST PUSH0 PUSH1 0x60 DUP3 ADD SWAP1 POP PUSH2 0x2D30 PUSH0 DUP4 ADD DUP7 PUSH2 0x2D0E JUMP JUMPDEST PUSH2 0x2D3D PUSH1 0x20 DUP4 ADD DUP6 PUSH2 0x2D0E JUMP JUMPDEST PUSH2 0x2D4A PUSH1 0x40 DUP4 ADD DUP5 PUSH2 0x28BE JUMP JUMPDEST SWAP5 SWAP4 POP POP POP POP JUMP JUMPDEST PUSH0 PUSH1 0x40 DUP3 ADD SWAP1 POP PUSH2 0x2D65 PUSH0 DUP4 ADD DUP6 PUSH2 0x28BE JUMP JUMPDEST PUSH2 0x2D72 PUSH1 0x20 DUP4 ADD DUP5 PUSH2 0x2D0E JUMP JUMPDEST SWAP4 SWAP3 POP POP POP JUMP JUMPDEST PUSH0 DUP2 MLOAD SWAP1 POP PUSH2 0x2D87 DUP2 PUSH2 0x27AC JUMP JUMPDEST SWAP3 SWAP2 POP POP JUMP JUMPDEST PUSH0 PUSH1 0x20 DUP3 DUP5 SUB SLT ISZERO PUSH2 0x2DA2 JUMPI PUSH2 0x2DA1 PUSH2 0x279F JUMP JUMPDEST JUMPDEST PUSH0 PUSH2 0x2DAF DUP5 DUP3 DUP6 ADD PUSH2 0x2D79 JUMP JUMPDEST SWAP2 POP POP SWAP3 SWAP2 POP POP JUMP JUMPDEST PUSH0 PUSH1 0x20 DUP3 ADD SWAP1 POP PUSH2 0x2DCB PUSH0 DUP4 ADD DUP5 PUSH2 0x2D0E JUMP JUMPDEST SWAP3 SWAP2 POP POP JUMP JUMPDEST PUSH0 DUP2 MLOAD SWAP1 POP PUSH2 0x2DDF DUP2 PUSH2 0x2844 JUMP JUMPDEST SWAP3 SWAP2 POP POP JUMP JUMPDEST PUSH0 PUSH1 0x20 DUP3 DUP5 SUB SLT ISZERO PUSH2 0x2DFA JUMPI PUSH2 0x2DF9 PUSH2 0x279F JUMP JUMPDEST JUMPDEST PUSH0 PUSH2 0x2E07 DUP5 DUP3 DUP6 ADD PUSH2 0x2DD1 JUMP JUMPDEST SWAP2 POP POP SWAP3 SWAP2 POP POP JUMP JUMPDEST PUSH32 0x496E76616C69642063616C6C6572000000000000000000000000000000000000 PUSH0 DUP3 ADD MSTORE POP JUMP JUMPDEST PUSH0 PUSH2 0x2E44 PUSH1 0xE DUP4 PUSH2 0x2BA1 JUMP JUMPDEST SWAP2 POP PUSH2 0x2E4F DUP3 PUSH2 0x2E10 JUMP JUMPDEST PUSH1 0x20 DUP3 ADD SWAP1 POP SWAP2 SWAP1 POP JUMP JUMPDEST PUSH0 PUSH1 0x20 DUP3 ADD SWAP1 POP DUP2 DUP2 SUB PUSH0 DUP4 ADD MSTORE PUSH2 0x2E71 DUP2 PUSH2 0x2E38 JUMP JUMPDEST SWAP1 POP SWAP2 SWAP1 POP JUMP JUMPDEST PUSH0 PUSH1 0x80 DUP3 ADD SWAP1 POP PUSH2 0x2E8B PUSH0 DUP4 ADD DUP8 PUSH2 0x2D0E JUMP JUMPDEST PUSH2 0x2E98 PUSH1 0x20 DUP4 ADD DUP7 PUSH2 0x2D0E JUMP JUMPDEST PUSH2 0x2EA5 PUSH1 0x40 DUP4 ADD DUP6 PUSH2 0x2D0E JUMP JUMPDEST PUSH2 0x2EB2 PUSH1 0x60 DUP4 ADD DUP5 PUSH2 0x28BE JUMP JUMPDEST SWAP6 SWAP5 POP POP POP POP POP JUMP JUMPDEST PUSH32 0x436F6E747261637420697320696E697469616C697A656420616C726561647900 PUSH0 DUP3 ADD MSTORE POP JUMP JUMPDEST PUSH0 PUSH2 0x2EEF PUSH1 0x1F DUP4 PUSH2 0x2BA1 JUMP JUMPDEST SWAP2 POP PUSH2 0x2EFA DUP3 PUSH2 0x2EBB JUMP JUMPDEST PUSH1 0x20 DUP3 ADD SWAP1 POP SWAP2 SWAP1 POP JUMP JUMPDEST PUSH0 PUSH1 0x20 DUP3 ADD SWAP1 POP DUP2 DUP2 SUB PUSH0 DUP4 ADD MSTORE PUSH2 0x2F1C DUP2 PUSH2 0x2EE3 JUMP JUMPDEST SWAP1 POP SWAP2 SWAP1 POP JUMP JUMPDEST PUSH0 DUP1 REVERT JUMPDEST PUSH0 PUSH1 0x1F NOT PUSH1 0x1F DUP4 ADD AND SWAP1 POP SWAP2 SWAP1 POP JUMP JUMPDEST PUSH32 0x4E487B7100000000000000000000000000000000000000000000000000000000 PUSH0 MSTORE PUSH1 0x41 PUSH1 0x4 MSTORE PUSH1 0x24 PUSH0 REVERT JUMPDEST PUSH2 0x2F6D DUP3 PUSH2 0x2F27 JUMP JUMPDEST DUP2 ADD DUP2 DUP2 LT PUSH8 0xFFFFFFFFFFFFFFFF DUP3 GT OR ISZERO PUSH2 0x2F8C JUMPI PUSH2 0x2F8B PUSH2 0x2F37 JUMP JUMPDEST JUMPDEST DUP1 PUSH1 0x40 MSTORE POP POP POP JUMP JUMPDEST PUSH0 PUSH2 0x2F9E PUSH2 0x2796 JUMP JUMPDEST SWAP1 POP PUSH2 0x2FAA DUP3 DUP3 PUSH2 0x2F64 JUMP JUMPDEST SWAP2 SWAP1 POP JUMP JUMPDEST PUSH0 PUSH1 0x80 DUP3 DUP5 SUB SLT ISZERO PUSH2 0x2FC4 JUMPI PUSH2 0x2FC3 PUSH2 0x2F23 JUMP JUMPDEST JUMPDEST PUSH2 0x2FCE PUSH1 0x80 PUSH2 0x2F95 JUMP JUMPDEST SWAP1 POP PUSH0 PUSH2 0x2FDD DUP5 DUP3 DUP6 ADD PUSH2 0x2DD1 JUMP JUMPDEST PUSH0 DUP4 ADD MSTORE POP PUSH1 0x20 PUSH2 0x2FF0 DUP5 DUP3 DUP6 ADD PUSH2 0x2D79 JUMP JUMPDEST PUSH1 0x20 DUP4 ADD MSTORE POP PUSH1 0x40 PUSH2 0x3004 DUP5 DUP3 DUP6 ADD PUSH2 0x2D79 JUMP JUMPDEST PUSH1 0x40 DUP4 ADD MSTORE POP PUSH1 0x60 PUSH2 0x3018 DUP5 DUP3 DUP6 ADD PUSH2 0x2D79 JUMP JUMPDEST PUSH1 0x60 DUP4 ADD MSTORE POP SWAP3 SWAP2 POP POP JUMP JUMPDEST PUSH0 PUSH1 0x80 DUP3 DUP5 SUB SLT ISZERO PUSH2 0x3039 JUMPI PUSH2 0x3038 PUSH2 0x279F JUMP JUMPDEST JUMPDEST PUSH0 PUSH2 0x3046 DUP5 DUP3 DUP6 ADD PUSH2 0x2FAF JUMP JUMPDEST SWAP2 POP POP SWAP3 SWAP2 POP POP JUMP JUMPDEST PUSH2 0x3058 DUP2 PUSH2 0x2A88 JUMP JUMPDEST DUP2 EQ PUSH2 0x3062 JUMPI PUSH0 DUP1 REVERT JUMPDEST POP JUMP JUMPDEST PUSH0 DUP2 MLOAD SWAP1 POP PUSH2 0x3073 DUP2 PUSH2 0x304F JUMP JUMPDEST SWAP3 SWAP2 POP POP JUMP JUMPDEST PUSH0 PUSH1 0x60 DUP3 DUP5 SUB SLT ISZERO PUSH2 0x308E JUMPI PUSH2 0x308D PUSH2 0x2F23 JUMP JUMPDEST JUMPDEST PUSH2 0x3098 PUSH1 0x60 PUSH2 0x2F95 JUMP JUMPDEST SWAP1 POP PUSH0 PUSH2 0x30A7 DUP5 DUP3 DUP6 ADD PUSH2 0x2DD1 JUMP JUMPDEST PUSH0 DUP4 ADD MSTORE POP PUSH1 0x20 PUSH2 0x30BA DUP5 DUP3 DUP6 ADD PUSH2 0x2D79 JUMP JUMPDEST PUSH1 0x20 DUP4 ADD MSTORE POP PUSH1 0x40 PUSH2 0x30CE DUP5 DUP3 DUP6 ADD PUSH2 0x3065 JUMP JUMPDEST PUSH1 0x40 DUP4 ADD MSTORE POP SWAP3 SWAP2 POP POP JUMP JUMPDEST PUSH0 PUSH2 0x1C0 DUP3 DUP5 SUB SLT ISZERO PUSH2 0x30F0 JUMPI PUSH2 0x30EF PUSH2 0x2F23 JUMP JUMPDEST JUMPDEST PUSH2 0x30FB PUSH2 0x100 PUSH2 0x2F95 JUMP JUMPDEST SWAP1 POP PUSH0 PUSH2 0x310A DUP5 DUP3 DUP6 ADD PUSH2 0x3079 JUMP JUMPDEST PUSH0 DUP4 ADD MSTORE POP PUSH1 0x60 PUSH2 0x311D DUP5 DUP3 DUP6 ADD PUSH2 0x3079 JUMP JUMPDEST PUSH1 0x20 DUP4 ADD MSTORE POP PUSH1 0xC0 PUSH2 0x3131 DUP5 DUP3 DUP6 ADD PUSH2 0x3079 JUMP JUMPDEST PUSH1 0x40 DUP4 ADD MSTORE POP PUSH2 0x120 PUSH2 0x3146 DUP5 DUP3 DUP6 ADD PUSH2 0x3065 JUMP JUMPDEST PUSH1 0x60 DUP4 ADD MSTORE POP PUSH2 0x140 PUSH2 0x315B DUP5 DUP3 DUP6 ADD PUSH2 0x2D79 JUMP JUMPDEST PUSH1 0x80 DUP4 ADD MSTORE POP PUSH2 0x160 PUSH2 0x3170 DUP5 DUP3 DUP6 ADD PUSH2 0x2D79 JUMP JUMPDEST PUSH1 0xA0 DUP4 ADD MSTORE POP PUSH2 0x180 PUSH2 0x3185 DUP5 DUP3 DUP6 ADD PUSH2 0x2D79 JUMP JUMPDEST PUSH1 0xC0 DUP4 ADD MSTORE POP PUSH2 0x1A0 PUSH2 0x319A DUP5 DUP3 DUP6 ADD PUSH2 0x2D79 JUMP JUMPDEST PUSH1 0xE0 DUP4 ADD MSTORE POP SWAP3 SWAP2 POP POP JUMP JUMPDEST PUSH0 PUSH2 0x1C0 DUP3 DUP5 SUB SLT ISZERO PUSH2 0x31BC JUMPI PUSH2 0x31BB PUSH2 0x279F JUMP JUMPDEST JUMPDEST PUSH0 PUSH2 0x31C9 DUP5 DUP3 DUP6 ADD PUSH2 0x30DA JUMP JUMPDEST SWAP2 POP POP SWAP3 SWAP2 POP POP JUMP JUMPDEST PUSH32 0x4E6F207265776172647320746F20636C61696D00000000000000000000000000 PUSH0 DUP3 ADD MSTORE POP JUMP JUMPDEST PUSH0 PUSH2 0x3206 PUSH1 0x13 DUP4 PUSH2 0x2BA1 JUMP JUMPDEST SWAP2 POP PUSH2 0x3211 DUP3 PUSH2 0x31D2 JUMP JUMPDEST PUSH1 0x20 DUP3 ADD SWAP1 POP SWAP2 SWAP1 POP JUMP JUMPDEST PUSH0 PUSH1 0x20 DUP3 ADD SWAP1 POP DUP2 DUP2 SUB PUSH0 DUP4 ADD MSTORE PUSH2 0x3233 DUP2 PUSH2 0x31FA JUMP JUMPDEST SWAP1 POP SWAP2 SWAP1 POP JUMP JUMPDEST PUSH0 PUSH1 0x40 DUP3 ADD SWAP1 POP PUSH2 0x324D PUSH0 DUP4 ADD DUP6 PUSH2 0x2D0E JUMP JUMPDEST PUSH2 0x325A PUSH1 0x20 DUP4 ADD DUP5 PUSH2 0x28BE JUMP JUMPDEST SWAP4 SWAP3 POP POP POP JUMP JUMPDEST PUSH0 PUSH1 0x20 DUP3 DUP5 SUB SLT ISZERO PUSH2 0x3276 JUMPI PUSH2 0x3275 PUSH2 0x279F JUMP JUMPDEST JUMPDEST PUSH0 PUSH2 0x3283 DUP5 DUP3 DUP6 ADD PUSH2 0x3065 JUMP JUMPDEST SWAP2 POP POP SWAP3 SWAP2 POP POP JUMP JUMPDEST PUSH0 DUP2 SWAP1 POP SWAP2 SWAP1 POP JUMP JUMPDEST PUSH0 DUP2 SWAP1 POP SWAP2 SWAP1 POP JUMP JUMPDEST PUSH0 PUSH2 0x32B8 PUSH2 0x32B3 PUSH2 0x32AE DUP5 PUSH2 0x328C JUMP JUMPDEST PUSH2 0x3295 JUMP JUMPDEST PUSH2 0x27A3 JUMP JUMPDEST SWAP1 POP SWAP2 SWAP1 POP JUMP JUMPDEST PUSH2 0x32C8 DUP2 PUSH2 0x329E JUMP JUMPDEST DUP3 MSTORE POP POP JUMP JUMPDEST PUSH0 PUSH1 0x40 DUP3 ADD SWAP1 POP PUSH2 0x32E1 PUSH0 DUP4 ADD DUP6 PUSH2 0x2D0E JUMP JUMPDEST PUSH2 0x32EE PUSH1 0x20 DUP4 ADD DUP5 PUSH2 0x32BF JUMP JUMPDEST SWAP4 SWAP3 POP POP POP JUMP INVALID LOG2 PUSH5 0x6970667358 0x22 SLT KECCAK256 PUSH6 0xB6F5331E3AD2 0xEA DUP8 0xCE SUB 0x5C XOR 0xA7 CALLDATASIZE PUSH25 0x9F6882E3419C3AB13A5F3363E4A1BF0264736F6C6343000815 STOP CALLER "
				},
				"gasEstimates": {
					"creation": {
						"codeDepositCost": "2619800",
						"executionCost": "2837",
						"totalCost": "2622637"
					},
					"external": {
						"addPool(address)": "infinite",
						"changeRegistryContractAddr(address)": "infinite",
						"claimReward(uint256)": "infinite",
						"deposit(uint256,uint256)": "infinite",
						"getPoolCurrentYield(uint256)": "infinite",
						"getPoolDetails(uint256)": "infinite",
						"getPoolDrawInfo(uint256,uint256)": "infinite",
						"getPoolLatestEpoch(uint256)": "infinite",
						"getPoolLength()": "2476",
						"getPoolTVL(uint256)": "infinite",
						"getRewardClaimable(address,uint256)": "infinite",
						"getUserDepositInfo(uint256,address)": "infinite",
						"getUserTicketAmountByPoolID(uint256,uint256,address)": "infinite",
						"initialize(address)": "51348",
						"removePool(uint256)": "infinite",
						"withdraw(uint256,uint256)": "infinite"
					},
					"internal": {
						"_approveToPool(address,address,uint256)": "infinite",
						"_processClaimReward(address,address)": "infinite",
						"_processDeposit(address,address,uint256)": "infinite",
						"_processTransferBacktoUser(address,address,uint256)": "infinite",
						"_processWithdraw(address,address,uint256)": "infinite",
						"_transferRegistryAddr(address)": "24277",
						"depositToPool(address,address,address,uint256)": "infinite",
						"getTokenFromUser(address,uint256)": "infinite",
						"withdrawFromPool(address,address,address,uint256)": "infinite"
					}
				},
				"methodIdentifiers": {
					"addPool(address)": "d914cd4b",
					"changeRegistryContractAddr(address)": "fa7c828a",
					"claimReward(uint256)": "ae169a50",
					"deposit(uint256,uint256)": "e2bbb158",
					"getPoolCurrentYield(uint256)": "60ab49ea",
					"getPoolDetails(uint256)": "b8764c39",
					"getPoolDrawInfo(uint256,uint256)": "fdc9ccfa",
					"getPoolLatestEpoch(uint256)": "5922f9c9",
					"getPoolLength()": "b3944d52",
					"getPoolTVL(uint256)": "8f244630",
					"getRewardClaimable(address,uint256)": "888d7bdd",
					"getUserDepositInfo(uint256,address)": "fac4348b",
					"getUserTicketAmountByPoolID(uint256,uint256,address)": "57ba8dde",
					"initialize(address)": "c4d66de8",
					"removePool(uint256)": "a38dcbd0",
					"withdraw(uint256,uint256)": "441a3e70"
				}
			},
			"storageLayout": {
				"storage": [
					{
						"astId": 193,
						"contract": "DraftRouter.sol:Router",
						"label": "status",
						"offset": 0,
						"slot": "0",
						"type": "t_uint256"
					},
					{
						"astId": 202,
						"contract": "DraftRouter.sol:Router",
						"label": "PoolDetail",
						"offset": 0,
						"slot": "1",
						"type": "t_array(t_struct(_PoolDetails)198_storage)dyn_storage"
					},
					{
						"astId": 204,
						"contract": "DraftRouter.sol:Router",
						"label": "registryContract",
						"offset": 0,
						"slot": "2",
						"type": "t_address"
					},
					{
						"astId": 206,
						"contract": "DraftRouter.sol:Router",
						"label": "initialized",
						"offset": 20,
						"slot": "2",
						"type": "t_bool"
					}
				],
				"types": {
					"t_address": {
						"encoding": "inplace",
						"label": "address",
						"numberOfBytes": "20"
					},
					"t_array(t_struct(_PoolDetails)198_storage)dyn_storage": {
						"base": "t_struct(_PoolDetails)198_storage",
						"encoding": "dynamic_array",
						"label": "struct Router._PoolDetails[]",
						"numberOfBytes": "32"
					},
					"t_bool": {
						"encoding": "inplace",
						"label": "bool",
						"numberOfBytes": "1"
					},
					"t_struct(_PoolDetails)198_storage": {
						"encoding": "inplace",
						"label": "struct Router._PoolDetails",
						"members": [
							{
								"astId": 195,
								"contract": "DraftRouter.sol:Router",
								"label": "PoolAddress",
								"offset": 0,
								"slot": "0",
								"type": "t_address"
							},
							{
								"astId": 197,
								"contract": "DraftRouter.sol:Router",
								"label": "PoolTokenToUse",
								"offset": 0,
								"slot": "1",
								"type": "t_address"
							}
						],
						"numberOfBytes": "64"
					},
					"t_uint256": {
						"encoding": "inplace",
						"label": "uint256",
						"numberOfBytes": "32"
					}
				}
			},
			"userdoc": {
				"kind": "user",
				"methods": {},
				"version": 1
			}
		}
	}
}