{
	"RouterInterface.sol": {
		"Router": {
			"abi": [
				{
					"anonymous": false,
					"inputs": [
						{
							"indexed": false,
							"internalType": "address",
							"name": "oldController",
							"type": "address"
						},
						{
							"indexed": false,
							"internalType": "address",
							"name": "newController",
							"type": "address"
						}
					],
					"name": "ControllerRoleTransferred",
					"type": "event"
				},
				{
					"anonymous": false,
					"inputs": [
						{
							"indexed": false,
							"internalType": "address",
							"name": "who",
							"type": "address"
						},
						{
							"indexed": false,
							"internalType": "address",
							"name": "poolAddress",
							"type": "address"
						},
						{
							"indexed": false,
							"internalType": "address",
							"name": "Token",
							"type": "address"
						},
						{
							"indexed": false,
							"internalType": "uint256",
							"name": "amount",
							"type": "uint256"
						}
					],
					"name": "EpochRewardClaimed",
					"type": "event"
				},
				{
					"anonymous": false,
					"inputs": [
						{
							"indexed": false,
							"internalType": "address",
							"name": "oldOwner",
							"type": "address"
						},
						{
							"indexed": false,
							"internalType": "address",
							"name": "newOwner",
							"type": "address"
						}
					],
					"name": "OwnershipTransferred",
					"type": "event"
				},
				{
					"anonymous": false,
					"inputs": [
						{
							"indexed": false,
							"internalType": "address",
							"name": "who",
							"type": "address"
						},
						{
							"indexed": false,
							"internalType": "address",
							"name": "poolAddress",
							"type": "address"
						},
						{
							"indexed": false,
							"internalType": "uint256",
							"name": "amount",
							"type": "uint256"
						}
					],
					"name": "deposited",
					"type": "event"
				},
				{
					"anonymous": false,
					"inputs": [
						{
							"indexed": false,
							"internalType": "address",
							"name": "who",
							"type": "address"
						},
						{
							"indexed": false,
							"internalType": "address",
							"name": "poolAddress",
							"type": "address"
						},
						{
							"indexed": false,
							"internalType": "uint256",
							"name": "amount",
							"type": "uint256"
						}
					],
					"name": "withdrawn",
					"type": "event"
				},
				{
					"stateMutability": "payable",
					"type": "fallback"
				},
				{
					"inputs": [
						{
							"internalType": "address",
							"name": "_poolAddress",
							"type": "address"
						}
					],
					"name": "addPool",
					"outputs": [],
					"stateMutability": "nonpayable",
					"type": "function"
				},
				{
					"inputs": [
						{
							"internalType": "address",
							"name": "",
							"type": "address"
						}
					],
					"name": "allowedPool",
					"outputs": [
						{
							"internalType": "bool",
							"name": "",
							"type": "bool"
						}
					],
					"stateMutability": "view",
					"type": "function"
				},
				{
					"inputs": [
						{
							"internalType": "address",
							"name": "router",
							"type": "address"
						}
					],
					"name": "changeAggregatorAddress",
					"outputs": [],
					"stateMutability": "nonpayable",
					"type": "function"
				},
				{
					"inputs": [
						{
							"internalType": "address",
							"name": "registryAddress",
							"type": "address"
						}
					],
					"name": "changeRegistryContractAddr",
					"outputs": [],
					"stateMutability": "nonpayable",
					"type": "function"
				},
				{
					"inputs": [
						{
							"internalType": "uint256",
							"name": "poolID",
							"type": "uint256"
						}
					],
					"name": "claimReward",
					"outputs": [],
					"stateMutability": "nonpayable",
					"type": "function"
				},
				{
					"inputs": [
						{
							"internalType": "uint256",
							"name": "poolID",
							"type": "uint256"
						},
						{
							"internalType": "uint256",
							"name": "amount",
							"type": "uint256"
						}
					],
					"name": "deposit",
					"outputs": [],
					"stateMutability": "nonpayable",
					"type": "function"
				},
				{
					"inputs": [
						{
							"internalType": "uint256",
							"name": "poolID",
							"type": "uint256"
						}
					],
					"name": "getMinToDeposit",
					"outputs": [
						{
							"internalType": "uint256",
							"name": "",
							"type": "uint256"
						}
					],
					"stateMutability": "view",
					"type": "function"
				},
				{
					"inputs": [
						{
							"internalType": "uint256",
							"name": "poolID",
							"type": "uint256"
						}
					],
					"name": "getPoolCurrentYield",
					"outputs": [
						{
							"internalType": "uint256",
							"name": "",
							"type": "uint256"
						}
					],
					"stateMutability": "view",
					"type": "function"
				},
				{
					"inputs": [
						{
							"internalType": "uint256",
							"name": "poolID",
							"type": "uint256"
						}
					],
					"name": "getPoolDetails",
					"outputs": [
						{
							"components": [
								{
									"internalType": "address",
									"name": "PoolAddress",
									"type": "address"
								},
								{
									"internalType": "address",
									"name": "PoolTokenToUse",
									"type": "address"
								}
							],
							"internalType": "struct Router._PoolDetails",
							"name": "",
							"type": "tuple"
						}
					],
					"stateMutability": "view",
					"type": "function"
				},
				{
					"inputs": [
						{
							"internalType": "uint256",
							"name": "epochNumber",
							"type": "uint256"
						},
						{
							"internalType": "uint256",
							"name": "poolID",
							"type": "uint256"
						}
					],
					"name": "getPoolDrawInfo",
					"outputs": [
						{
							"components": [
								{
									"components": [
										{
											"internalType": "address",
											"name": "winner",
											"type": "address"
										},
										{
											"internalType": "uint256",
											"name": "prizeAmount",
											"type": "uint256"
										},
										{
											"internalType": "bool",
											"name": "claimed",
											"type": "bool"
										}
									],
									"internalType": "struct Router.PrizeDetails",
									"name": "first",
									"type": "tuple"
								},
								{
									"components": [
										{
											"internalType": "address",
											"name": "winner",
											"type": "address"
										},
										{
											"internalType": "uint256",
											"name": "prizeAmount",
											"type": "uint256"
										},
										{
											"internalType": "bool",
											"name": "claimed",
											"type": "bool"
										}
									],
									"internalType": "struct Router.PrizeDetails",
									"name": "second",
									"type": "tuple"
								},
								{
									"components": [
										{
											"internalType": "address",
											"name": "winner",
											"type": "address"
										},
										{
											"internalType": "uint256",
											"name": "prizeAmount",
											"type": "uint256"
										},
										{
											"internalType": "bool",
											"name": "claimed",
											"type": "bool"
										}
									],
									"internalType": "struct Router.PrizeDetails",
									"name": "third",
									"type": "tuple"
								},
								{
									"internalType": "bool",
									"name": "finalized",
									"type": "bool"
								},
								{
									"internalType": "uint256",
									"name": "totalPrize",
									"type": "uint256"
								},
								{
									"internalType": "uint256",
									"name": "duration",
									"type": "uint256"
								},
								{
									"internalType": "uint256",
									"name": "createdTimeStamp",
									"type": "uint256"
								},
								{
									"internalType": "uint256",
									"name": "totalParticipant",
									"type": "uint256"
								}
							],
							"internalType": "struct Router.EpochResult",
							"name": "",
							"type": "tuple"
						}
					],
					"stateMutability": "view",
					"type": "function"
				},
				{
					"inputs": [
						{
							"internalType": "uint256",
							"name": "poolID",
							"type": "uint256"
						}
					],
					"name": "getPoolLatestEpoch",
					"outputs": [
						{
							"internalType": "uint256",
							"name": "",
							"type": "uint256"
						}
					],
					"stateMutability": "view",
					"type": "function"
				},
				{
					"inputs": [],
					"name": "getPoolLength",
					"outputs": [
						{
							"internalType": "uint256",
							"name": "",
							"type": "uint256"
						}
					],
					"stateMutability": "view",
					"type": "function"
				},
				{
					"inputs": [
						{
							"internalType": "uint256",
							"name": "poolID",
							"type": "uint256"
						}
					],
					"name": "getPoolTVL",
					"outputs": [
						{
							"internalType": "uint256",
							"name": "",
							"type": "uint256"
						}
					],
					"stateMutability": "view",
					"type": "function"
				},
				{
					"inputs": [
						{
							"internalType": "address",
							"name": "user",
							"type": "address"
						},
						{
							"internalType": "uint256",
							"name": "poolID",
							"type": "uint256"
						}
					],
					"name": "getRewardClaimable",
					"outputs": [
						{
							"internalType": "uint256",
							"name": "",
							"type": "uint256"
						}
					],
					"stateMutability": "view",
					"type": "function"
				},
				{
					"inputs": [
						{
							"internalType": "uint256",
							"name": "poolID",
							"type": "uint256"
						},
						{
							"internalType": "address",
							"name": "user",
							"type": "address"
						}
					],
					"name": "getUserDepositInfo",
					"outputs": [
						{
							"components": [
								{
									"internalType": "address",
									"name": "userAddress",
									"type": "address"
								},
								{
									"internalType": "uint256",
									"name": "DepositAmount",
									"type": "uint256"
								},
								{
									"internalType": "uint256",
									"name": "registeredDate",
									"type": "uint256"
								},
								{
									"internalType": "uint256",
									"name": "Lastupdated",
									"type": "uint256"
								}
							],
							"internalType": "struct Router.userInfo",
							"name": "",
							"type": "tuple"
						}
					],
					"stateMutability": "view",
					"type": "function"
				},
				{
					"inputs": [
						{
							"internalType": "uint256",
							"name": "epochNumber",
							"type": "uint256"
						},
						{
							"internalType": "uint256",
							"name": "poolID",
							"type": "uint256"
						},
						{
							"internalType": "address",
							"name": "user",
							"type": "address"
						}
					],
					"name": "getUserTicketAmountByPoolID",
					"outputs": [
						{
							"internalType": "uint256",
							"name": "",
							"type": "uint256"
						}
					],
					"stateMutability": "view",
					"type": "function"
				},
				{
					"inputs": [
						{
							"internalType": "address",
							"name": "registryAddress",
							"type": "address"
						}
					],
					"name": "initialize",
					"outputs": [],
					"stateMutability": "nonpayable",
					"type": "function"
				},
				{
					"inputs": [
						{
							"internalType": "address",
							"name": "_poolAddress",
							"type": "address"
						}
					],
					"name": "isPoolAllowed",
					"outputs": [
						{
							"internalType": "bool",
							"name": "",
							"type": "bool"
						}
					],
					"stateMutability": "view",
					"type": "function"
				},
				{
					"inputs": [
						{
							"internalType": "uint256",
							"name": "poolID",
							"type": "uint256"
						}
					],
					"name": "removePool",
					"outputs": [],
					"stateMutability": "nonpayable",
					"type": "function"
				},
				{
					"inputs": [
						{
							"internalType": "uint256",
							"name": "poolID",
							"type": "uint256"
						},
						{
							"internalType": "uint256",
							"name": "amount",
							"type": "uint256"
						}
					],
					"name": "withdraw",
					"outputs": [],
					"stateMutability": "nonpayable",
					"type": "function"
				},
				{
					"inputs": [
						{
							"internalType": "uint256",
							"name": "poolID",
							"type": "uint256"
						},
						{
							"internalType": "address",
							"name": "tokenIn",
							"type": "address"
						},
						{
							"internalType": "uint256",
							"name": "amount",
							"type": "uint256"
						},
						{
							"internalType": "bytes",
							"name": "swapData",
							"type": "bytes"
						}
					],
					"name": "zap",
					"outputs": [],
					"stateMutability": "payable",
					"type": "function"
				}
			],
			"devdoc": {
				"kind": "dev",
				"methods": {},
				"version": 1
			},
			"evm": {
				"assembly": "    /* \"RouterInterface.sol\":313:14914  contract Router{... */\n  mstore(0x40, 0x80)\n  callvalue\n  dup1\n  iszero\n  tag_1\n  jumpi\n  0x00\n  dup1\n  revert\ntag_1:\n  pop\n  dataSize(sub_0)\n  dup1\n  dataOffset(sub_0)\n  0x00\n  codecopy\n  0x00\n  return\nstop\n\nsub_0: assembly {\n        /* \"RouterInterface.sol\":313:14914  contract Router{... */\n      mstore(0x40, 0x80)\n      jumpi(tag_1, lt(calldatasize, 0x04))\n      shr(0xe0, calldataload(0x00))\n      dup1\n      0xae169a50\n      gt\n      tag_24\n      jumpi\n      dup1\n      0xd914cd4b\n      gt\n      tag_25\n      jumpi\n      dup1\n      0xd914cd4b\n      eq\n      tag_18\n      jumpi\n      dup1\n      0xe2bbb158\n      eq\n      tag_19\n      jumpi\n      dup1\n      0xf50a9351\n      eq\n      tag_20\n      jumpi\n      dup1\n      0xfa7c828a\n      eq\n      tag_21\n      jumpi\n      dup1\n      0xfac4348b\n      eq\n      tag_22\n      jumpi\n      dup1\n      0xfdc9ccfa\n      eq\n      tag_23\n      jumpi\n      stop\n    tag_25:\n      dup1\n      0xae169a50\n      eq\n      tag_13\n      jumpi\n      dup1\n      0xb3944d52\n      eq\n      tag_14\n      jumpi\n      dup1\n      0xb8764c39\n      eq\n      tag_15\n      jumpi\n      dup1\n      0xc4d66de8\n      eq\n      tag_16\n      jumpi\n      dup1\n      0xd1e71c94\n      eq\n      tag_17\n      jumpi\n      stop\n    tag_24:\n      dup1\n      0x5f311150\n      gt\n      tag_26\n      jumpi\n      dup1\n      0x5f311150\n      eq\n      tag_8\n      jumpi\n      dup1\n      0x60ab49ea\n      eq\n      tag_9\n      jumpi\n      dup1\n      0x888d7bdd\n      eq\n      tag_10\n      jumpi\n      dup1\n      0x8f244630\n      eq\n      tag_11\n      jumpi\n      dup1\n      0xa38dcbd0\n      eq\n      tag_12\n      jumpi\n      stop\n    tag_26:\n      dup1\n      0x3e7eae7f\n      eq\n      tag_3\n      jumpi\n      dup1\n      0x441a3e70\n      eq\n      tag_4\n      jumpi\n      dup1\n      0x4d5d336e\n      eq\n      tag_5\n      jumpi\n      dup1\n      0x57ba8dde\n      eq\n      tag_6\n      jumpi\n      dup1\n      0x5922f9c9\n      eq\n      tag_7\n      jumpi\n    tag_1:\n      stop\n        /* \"RouterInterface.sol\":12452:12566  function changeAggregatorAddress(address router) external onlyController{ ... */\n    tag_3:\n      callvalue\n      dup1\n      iszero\n      tag_29\n      jumpi\n      0x00\n      dup1\n      revert\n    tag_29:\n      pop\n      tag_1\n      tag_31\n      calldatasize\n      0x04\n      tag_32\n      jump\t// in\n    tag_31:\n      tag_33\n      jump\t// in\n        /* \"RouterInterface.sol\":9480:9882  function withdraw(uint256 poolID, uint256 amount) external validPoolID(poolID) nonReentrant{... */\n    tag_4:\n      callvalue\n      dup1\n      iszero\n      tag_34\n      jumpi\n      0x00\n      dup1\n      revert\n    tag_34:\n      pop\n      tag_1\n      tag_36\n      calldatasize\n      0x04\n      tag_37\n      jump\t// in\n    tag_36:\n      tag_38\n      jump\t// in\n        /* \"RouterInterface.sol\":12859:13564  function zap(uint256 poolID, address tokenIn, uint256 amount, bytes calldata swapData) external nonReentrant payable{... */\n    tag_5:\n      tag_1\n      tag_40\n      calldatasize\n      0x04\n      tag_41\n      jump\t// in\n    tag_40:\n      tag_42\n      jump\t// in\n        /* \"RouterInterface.sol\":5558:5886  function getUserTicketAmountByPoolID(uint256 epochNumber, uint256 poolID, address user) external validPoolID(poolID) view returns(uint256){... */\n    tag_6:\n      callvalue\n      dup1\n      iszero\n      tag_43\n      jumpi\n      0x00\n      dup1\n      revert\n    tag_43:\n      pop\n      tag_44\n      tag_45\n      calldatasize\n      0x04\n      tag_46\n      jump\t// in\n    tag_45:\n      tag_47\n      jump\t// in\n    tag_44:\n      mload(0x40)\n        /* \"#utility.yul\":2057:2082   */\n      swap1\n      dup2\n      mstore\n        /* \"#utility.yul\":2045:2047   */\n      0x20\n        /* \"#utility.yul\":2030:2048   */\n      add\n        /* \"RouterInterface.sol\":5558:5886  function getUserTicketAmountByPoolID(uint256 epochNumber, uint256 poolID, address user) external validPoolID(poolID) view returns(uint256){... */\n    tag_48:\n      mload(0x40)\n      dup1\n      swap2\n      sub\n      swap1\n      return\n        /* \"RouterInterface.sol\":5297:5553  function getPoolLatestEpoch(uint256 poolID) public validPoolID(poolID) view returns(uint256){... */\n    tag_7:\n      callvalue\n      dup1\n      iszero\n      tag_50\n      jumpi\n      0x00\n      dup1\n      revert\n    tag_50:\n      pop\n      tag_44\n      tag_52\n      calldatasize\n      0x04\n      tag_53\n      jump\t// in\n    tag_52:\n      tag_54\n      jump\t// in\n        /* \"RouterInterface.sol\":3605:3865  function getMinToDeposit(uint256 poolID) public validPoolID(poolID) view returns(uint256){... */\n    tag_8:\n      callvalue\n      dup1\n      iszero\n      tag_56\n      jumpi\n      0x00\n      dup1\n      revert\n    tag_56:\n      pop\n      tag_44\n      tag_58\n      calldatasize\n      0x04\n      tag_53\n      jump\t// in\n    tag_58:\n      tag_59\n      jump\t// in\n        /* \"RouterInterface.sol\":4463:4729  function getPoolCurrentYield(uint256 poolID) external validPoolID(poolID) view returns(uint256){... */\n    tag_9:\n      callvalue\n      dup1\n      iszero\n      tag_61\n      jumpi\n      0x00\n      dup1\n      revert\n    tag_61:\n      pop\n      tag_44\n      tag_63\n      calldatasize\n      0x04\n      tag_53\n      jump\t// in\n    tag_63:\n      tag_64\n      jump\t// in\n        /* \"RouterInterface.sol\":3325:3599  function getRewardClaimable(address user, uint256 poolID) external validPoolID(poolID) view returns(uint256){... */\n    tag_10:\n      callvalue\n      dup1\n      iszero\n      tag_66\n      jumpi\n      0x00\n      dup1\n      revert\n    tag_66:\n      pop\n      tag_44\n      tag_68\n      calldatasize\n      0x04\n      tag_69\n      jump\t// in\n    tag_68:\n      tag_70\n      jump\t// in\n        /* \"RouterInterface.sol\":4214:4458  function getPoolTVL(uint256 poolID) public validPoolID(poolID) view returns(uint256){... */\n    tag_11:\n      callvalue\n      dup1\n      iszero\n      tag_72\n      jumpi\n      0x00\n      dup1\n      revert\n    tag_72:\n      pop\n      tag_44\n      tag_74\n      calldatasize\n      0x04\n      tag_53\n      jump\t// in\n    tag_74:\n      tag_75\n      jump\t// in\n        /* \"RouterInterface.sol\":12130:12446  function removePool(uint256 poolID) external onlyController{... */\n    tag_12:\n      callvalue\n      dup1\n      iszero\n      tag_77\n      jumpi\n      0x00\n      dup1\n      revert\n    tag_77:\n      pop\n      tag_1\n      tag_79\n      calldatasize\n      0x04\n      tag_53\n      jump\t// in\n    tag_79:\n      tag_80\n      jump\t// in\n        /* \"RouterInterface.sol\":10682:11481  function claimReward(uint256 poolID) external validPoolID(poolID) nonReentrant{... */\n    tag_13:\n      callvalue\n      dup1\n      iszero\n      tag_81\n      jumpi\n      0x00\n      dup1\n      revert\n    tag_81:\n      pop\n      tag_1\n      tag_83\n      calldatasize\n      0x04\n      tag_53\n      jump\t// in\n    tag_83:\n      tag_84\n      jump\t// in\n        /* \"RouterInterface.sol\":3870:4007  function getPoolLength() external view returns(uint256){... */\n    tag_14:\n      callvalue\n      dup1\n      iszero\n      tag_85\n      jumpi\n      0x00\n      dup1\n      revert\n    tag_85:\n      pop\n        /* \"RouterInterface.sol\":3956:3966  PoolDetail */\n      0x01\n        /* \"RouterInterface.sol\":3956:3973  PoolDetail.length */\n      sload\n        /* \"RouterInterface.sol\":3870:4007  function getPoolLength() external view returns(uint256){... */\n      jump(tag_44)\n        /* \"RouterInterface.sol\":4013:4208  function getPoolDetails(uint256 poolID) public validPoolID(poolID) view returns(_PoolDetails memory){... */\n    tag_15:\n      callvalue\n      dup1\n      iszero\n      tag_89\n      jumpi\n      0x00\n      dup1\n      revert\n    tag_89:\n      pop\n      tag_90\n      tag_91\n      calldatasize\n      0x04\n      tag_53\n      jump\t// in\n    tag_91:\n      tag_92\n      jump\t// in\n    tag_90:\n      0x40\n      dup1\n      mload\n        /* \"#utility.yul\":2864:2877   */\n      dup3\n      mload\n      sub(shl(0xa0, 0x01), 0x01)\n        /* \"#utility.yul\":2860:2882   */\n      swap1\n      dup2\n      and\n        /* \"#utility.yul\":2842:2883   */\n      dup3\n      mstore\n        /* \"#utility.yul\":2943:2947   */\n      0x20\n        /* \"#utility.yul\":2931:2948   */\n      swap4\n      dup5\n      add\n        /* \"#utility.yul\":2925:2949   */\n      mload\n        /* \"#utility.yul\":2921:2954   */\n      and\n        /* \"#utility.yul\":2899:2919   */\n      swap3\n      dup2\n      add\n        /* \"#utility.yul\":2892:2955   */\n      swap3\n      swap1\n      swap3\n      mstore\n        /* \"#utility.yul\":2777:2795   */\n      add\n        /* \"RouterInterface.sol\":4013:4208  function getPoolDetails(uint256 poolID) public validPoolID(poolID) view returns(_PoolDetails memory){... */\n      tag_48\n        /* \"#utility.yul\":2598:2961   */\n      jump\n        /* \"RouterInterface.sol\":2823:3033  function initialize(address registryAddress) external{... */\n    tag_16:\n      callvalue\n      dup1\n      iszero\n      tag_95\n      jumpi\n      0x00\n      dup1\n      revert\n    tag_95:\n      pop\n      tag_1\n      tag_97\n      calldatasize\n      0x04\n      tag_32\n      jump\t// in\n    tag_97:\n      tag_98\n      jump\t// in\n        /* \"RouterInterface.sol\":12574:12723  function isPoolAllowed(address _poolAddress) public view returns(bool){... */\n    tag_17:\n      callvalue\n      dup1\n      iszero\n      tag_99\n      jumpi\n      0x00\n      dup1\n      revert\n    tag_99:\n      pop\n      tag_100\n      tag_101\n      calldatasize\n      0x04\n      tag_32\n      jump\t// in\n    tag_101:\n      sub(shl(0xa0, 0x01), 0x01)\n        /* \"RouterInterface.sol\":12668:12693  allowedPool[_poolAddress] */\n      and\n        /* \"RouterInterface.sol\":12639:12643  bool */\n      0x00\n        /* \"RouterInterface.sol\":12668:12693  allowedPool[_poolAddress] */\n      swap1\n      dup2\n      mstore\n        /* \"RouterInterface.sol\":12668:12679  allowedPool */\n      0x04\n        /* \"RouterInterface.sol\":12668:12693  allowedPool[_poolAddress] */\n      0x20\n      mstore\n      0x40\n      swap1\n      keccak256\n      sload\n      0xff\n      and\n      swap1\n        /* \"RouterInterface.sol\":12574:12723  function isPoolAllowed(address _poolAddress) public view returns(bool){... */\n      jump\n    tag_100:\n      mload(0x40)\n        /* \"#utility.yul\":3131:3145   */\n      swap1\n      iszero\n        /* \"#utility.yul\":3124:3146   */\n      iszero\n        /* \"#utility.yul\":3106:3147   */\n      dup2\n      mstore\n        /* \"#utility.yul\":3094:3096   */\n      0x20\n        /* \"#utility.yul\":3079:3097   */\n      add\n        /* \"RouterInterface.sol\":12574:12723  function isPoolAllowed(address _poolAddress) public view returns(bool){... */\n      tag_48\n        /* \"#utility.yul\":2966:3153   */\n      jump\n        /* \"RouterInterface.sol\":11812:12124  function addPool(address _poolAddress) external onlyController{... */\n    tag_18:\n      callvalue\n      dup1\n      iszero\n      tag_105\n      jumpi\n      0x00\n      dup1\n      revert\n    tag_105:\n      pop\n      tag_1\n      tag_107\n      calldatasize\n      0x04\n      tag_32\n      jump\t// in\n    tag_107:\n      tag_108\n      jump\t// in\n        /* \"RouterInterface.sol\":7875:8367  function deposit(uint256 poolID, uint256 amount) external validPoolID(poolID) nonReentrant{... */\n    tag_19:\n      callvalue\n      dup1\n      iszero\n      tag_109\n      jumpi\n      0x00\n      dup1\n      revert\n    tag_109:\n      pop\n      tag_1\n      tag_111\n      calldatasize\n      0x04\n      tag_37\n      jump\t// in\n    tag_111:\n      tag_112\n      jump\t// in\n        /* \"RouterInterface.sol\":2121:2164  mapping(address => bool) public allowedPool */\n    tag_20:\n      callvalue\n      dup1\n      iszero\n      tag_113\n      jumpi\n      0x00\n      dup1\n      revert\n    tag_113:\n      pop\n      tag_100\n      tag_115\n      calldatasize\n      0x04\n      tag_32\n      jump\t// in\n    tag_115:\n      mstore(0x20, 0x04)\n      0x00\n      swap1\n      dup2\n      mstore\n      0x40\n      swap1\n      keccak256\n      sload\n      0xff\n      and\n      dup2\n      jump\n        /* \"RouterInterface.sol\":3160:3294  function changeRegistryContractAddr(address registryAddress) external onlyOwner{... */\n    tag_21:\n      callvalue\n      dup1\n      iszero\n      tag_118\n      jumpi\n      0x00\n      dup1\n      revert\n    tag_118:\n      pop\n      tag_1\n      tag_120\n      calldatasize\n      0x04\n      tag_32\n      jump\t// in\n    tag_120:\n      tag_121\n      jump\t// in\n        /* \"RouterInterface.sol\":4734:5290  function getUserDepositInfo(uint256 poolID, address user) external validPoolID(poolID) view returns(userInfo memory){... */\n    tag_22:\n      callvalue\n      dup1\n      iszero\n      tag_122\n      jumpi\n      0x00\n      dup1\n      revert\n    tag_122:\n      pop\n      tag_123\n      tag_124\n      calldatasize\n      0x04\n      tag_125\n      jump\t// in\n    tag_124:\n      tag_126\n      jump\t// in\n    tag_123:\n      mload(0x40)\n      tag_48\n      swap2\n      swap1\n        /* \"#utility.yul\":3699:3712   */\n      dup2\n      mload\n      sub(shl(0xa0, 0x01), 0x01)\n        /* \"#utility.yul\":3695:3734   */\n      and\n        /* \"#utility.yul\":3677:3735   */\n      dup2\n      mstore\n        /* \"#utility.yul\":3791:3795   */\n      0x20\n        /* \"#utility.yul\":3779:3796   */\n      dup1\n      dup4\n      add\n        /* \"#utility.yul\":3773:3797   */\n      mload\n        /* \"#utility.yul\":3751:3771   */\n      swap1\n      dup3\n      add\n        /* \"#utility.yul\":3744:3798   */\n      mstore\n        /* \"#utility.yul\":3854:3858   */\n      0x40\n        /* \"#utility.yul\":3842:3859   */\n      dup1\n      dup4\n      add\n        /* \"#utility.yul\":3836:3860   */\n      mload\n        /* \"#utility.yul\":3814:3834   */\n      swap1\n      dup3\n      add\n        /* \"#utility.yul\":3807:3861   */\n      mstore\n        /* \"#utility.yul\":3917:3921   */\n      0x60\n        /* \"#utility.yul\":3905:3922   */\n      swap2\n      dup3\n      add\n        /* \"#utility.yul\":3899:3923   */\n      mload\n        /* \"#utility.yul\":3877:3897   */\n      swap2\n      dup2\n      add\n        /* \"#utility.yul\":3870:3924   */\n      swap2\n      swap1\n      swap2\n      mstore\n        /* \"#utility.yul\":3664:3667   */\n      0x80\n        /* \"#utility.yul\":3649:3668   */\n      add\n      swap1\n        /* \"#utility.yul\":3478:3930   */\n      jump\n        /* \"RouterInterface.sol\":5892:7754  function getPoolDrawInfo(uint256 epochNumber,uint256 poolID) external validPoolID(poolID) view returns(EpochResult memory){... */\n    tag_23:\n      callvalue\n      dup1\n      iszero\n      tag_129\n      jumpi\n      0x00\n      dup1\n      revert\n    tag_129:\n      pop\n      tag_130\n      tag_131\n      calldatasize\n      0x04\n      tag_37\n      jump\t// in\n    tag_131:\n      tag_132\n      jump\t// in\n    tag_130:\n      mload(0x40)\n      tag_48\n      swap2\n      swap1\n        /* \"#utility.yul\":4427:4440   */\n      dup2\n      mload\n        /* \"#utility.yul\":4017:4029   */\n      dup1\n      mload\n      sub(shl(0xa0, 0x01), 0x01)\n        /* \"#utility.yul\":4013:4051   */\n      and\n        /* \"#utility.yul\":4001:4052   */\n      dup3\n      mstore\n        /* \"#utility.yul\":4101:4105   */\n      0x20\n        /* \"#utility.yul\":4090:4106   */\n      dup1\n      dup3\n      add\n        /* \"#utility.yul\":4084:4107   */\n      mload\n        /* \"#utility.yul\":4068:4082   */\n      swap1\n      dup4\n      add\n        /* \"#utility.yul\":4061:4108   */\n      mstore\n        /* \"#utility.yul\":4171:4175   */\n      0x40\n        /* \"#utility.yul\":4160:4176   */\n      swap1\n      dup2\n      add\n        /* \"#utility.yul\":4154:4177   */\n      mload\n        /* \"#utility.yul\":4147:4178   */\n      iszero\n        /* \"#utility.yul\":4140:4179   */\n      iszero\n        /* \"#utility.yul\":4124:4138   */\n      swap1\n      dup3\n      add\n        /* \"#utility.yul\":4117:4180   */\n      mstore\n        /* \"#utility.yul\":4383:4386   */\n      0x01c0\n        /* \"#utility.yul\":4368:4387   */\n      dup2\n      add\n        /* \"#utility.yul\":4499:4503   */\n      0x20\n        /* \"#utility.yul\":4487:4504   */\n      dup4\n      dup2\n      add\n        /* \"#utility.yul\":4481:4505   */\n      mload\n        /* \"#utility.yul\":4017:4029   */\n      dup1\n      mload\n      sub(shl(0xa0, 0x01), 0x01)\n        /* \"#utility.yul\":4013:4051   */\n      and\n        /* \"#utility.yul\":4574:4578   */\n      0x60\n        /* \"#utility.yul\":4559:4579   */\n      dup6\n      add\n        /* \"#utility.yul\":4001:4052   */\n      mstore\n        /* \"#utility.yul\":4090:4106   */\n      swap1\n      dup2\n      add\n        /* \"#utility.yul\":4084:4107   */\n      mload\n        /* \"#utility.yul\":4068:4082   */\n      0x80\n      dup5\n      add\n        /* \"#utility.yul\":4061:4108   */\n      mstore\n        /* \"#utility.yul\":4171:4175   */\n      0x40\n        /* \"#utility.yul\":4160:4176   */\n      dup2\n      add\n        /* \"#utility.yul\":4154:4177   */\n      mload\n        /* \"#utility.yul\":4147:4178   */\n      iszero\n        /* \"#utility.yul\":4140:4179   */\n      iszero\n        /* \"#utility.yul\":4124:4138   */\n      0xa0\n      dup5\n      add\n        /* \"#utility.yul\":4117:4180   */\n      mstore\n      pop\n        /* \"#utility.yul\":4629:4633   */\n      0x40\n        /* \"#utility.yul\":4617:4634   */\n      dup4\n      dup2\n      add\n        /* \"#utility.yul\":4611:4635   */\n      mload\n        /* \"#utility.yul\":4017:4029   */\n      dup1\n      mload\n      sub(shl(0xa0, 0x01), 0x01)\n        /* \"#utility.yul\":4013:4051   */\n      and\n        /* \"#utility.yul\":4706:4710   */\n      0xc0\n        /* \"#utility.yul\":4691:4711   */\n      dup6\n      add\n        /* \"#utility.yul\":4001:4052   */\n      mstore\n        /* \"#utility.yul\":4101:4105   */\n      0x20\n        /* \"#utility.yul\":4090:4106   */\n      dup2\n      add\n        /* \"#utility.yul\":4084:4107   */\n      mload\n        /* \"#utility.yul\":4068:4082   */\n      0xe0\n      dup6\n      add\n        /* \"#utility.yul\":4061:4108   */\n      mstore\n        /* \"#utility.yul\":4160:4176   */\n      swap1\n      dup2\n      add\n        /* \"#utility.yul\":4154:4177   */\n      mload\n        /* \"#utility.yul\":4147:4178   */\n      iszero\n        /* \"#utility.yul\":4140:4179   */\n      iszero\n        /* \"#utility.yul\":4124:4138   */\n      0x0100\n      dup5\n      add\n        /* \"#utility.yul\":4117:4180   */\n      mstore\n      pop\n        /* \"#utility.yul\":4784:4788   */\n      0x60\n        /* \"#utility.yul\":4772:4789   */\n      dup4\n      add\n        /* \"#utility.yul\":4766:4790   */\n      mload\n        /* \"#utility.yul\":4759:4791   */\n      iszero\n        /* \"#utility.yul\":4752:4792   */\n      iszero\n        /* \"#utility.yul\":4743:4749   */\n      0x0120\n        /* \"#utility.yul\":4728:4750   */\n      dup4\n      add\n        /* \"#utility.yul\":4721:4793   */\n      mstore\n        /* \"#utility.yul\":4851:4855   */\n      0x80\n        /* \"#utility.yul\":4839:4856   */\n      dup4\n      add\n        /* \"#utility.yul\":4833:4857   */\n      mload\n        /* \"#utility.yul\":4824:4830   */\n      0x0140\n        /* \"#utility.yul\":4809:4831   */\n      dup4\n      add\n        /* \"#utility.yul\":4802:4858   */\n      mstore\n        /* \"#utility.yul\":4916:4920   */\n      0xa0\n        /* \"#utility.yul\":4904:4921   */\n      dup4\n      add\n        /* \"#utility.yul\":4898:4922   */\n      mload\n        /* \"#utility.yul\":4889:4895   */\n      0x0160\n        /* \"#utility.yul\":4874:4896   */\n      dup4\n      add\n        /* \"#utility.yul\":4867:4923   */\n      mstore\n        /* \"#utility.yul\":4981:4985   */\n      0xc0\n        /* \"#utility.yul\":4969:4986   */\n      dup4\n      add\n        /* \"#utility.yul\":4963:4987   */\n      mload\n        /* \"#utility.yul\":4954:4960   */\n      0x0180\n        /* \"#utility.yul\":4939:4961   */\n      dup4\n      add\n        /* \"#utility.yul\":4932:4988   */\n      mstore\n        /* \"#utility.yul\":5046:5050   */\n      0xe0\n        /* \"#utility.yul\":5034:5051   */\n      swap1\n      swap3\n      add\n        /* \"#utility.yul\":5028:5052   */\n      mload\n        /* \"#utility.yul\":5019:5025   */\n      0x01a0\n        /* \"#utility.yul\":5004:5026   */\n      swap1\n      swap2\n      add\n        /* \"#utility.yul\":4997:5053   */\n      mstore\n        /* \"#utility.yul\":4191:5059   */\n      swap1\n      jump\n        /* \"RouterInterface.sol\":12452:12566  function changeAggregatorAddress(address router) external onlyController{ ... */\n    tag_33:\n        /* \"RouterInterface.sol\":2402:2418  registryContract */\n      sload(0x02)\n        /* \"RouterInterface.sol\":2388:2435  IRoleRegistry(registryContract).getController() */\n      0x40\n      dup1\n      mload\n      shl(0xe0, 0x3018205f)\n      dup2\n      mstore\n      swap1\n      mload\n        /* \"RouterInterface.sol\":2373:2385  address role */\n      0x00\n      swap3\n      sub(shl(0xa0, 0x01), 0x01)\n        /* \"RouterInterface.sol\":2402:2418  registryContract */\n      and\n      swap2\n        /* \"RouterInterface.sol\":2388:2433  IRoleRegistry(registryContract).getController */\n      0x3018205f\n      swap2\n        /* \"RouterInterface.sol\":2388:2435  IRoleRegistry(registryContract).getController() */\n      0x04\n      dup1\n      dup4\n      add\n      swap3\n      0x20\n      swap3\n      swap2\n      swap1\n      dup3\n      swap1\n      sub\n      add\n      dup2\n        /* \"RouterInterface.sol\":2402:2418  registryContract */\n      dup7\n        /* \"RouterInterface.sol\":2388:2435  IRoleRegistry(registryContract).getController() */\n      gas\n      staticcall\n      iszero\n      dup1\n      iszero\n      tag_137\n      jumpi\n      returndatasize\n      0x00\n      dup1\n      returndatacopy\n      revert(0x00, returndatasize)\n    tag_137:\n      pop\n      pop\n      pop\n      pop\n      mload(0x40)\n      returndatasize\n      not(0x1f)\n      0x1f\n      dup3\n      add\n      and\n      dup3\n      add\n      dup1\n      0x40\n      mstore\n      pop\n      dup2\n      add\n      swap1\n      tag_138\n      swap2\n      swap1\n      tag_139\n      jump\t// in\n    tag_138:\n        /* \"RouterInterface.sol\":2373:2435  address role = IRoleRegistry(registryContract).getController() */\n      swap1\n      pop\n        /* \"RouterInterface.sol\":2453:2463  msg.sender */\n      caller\n      sub(shl(0xa0, 0x01), 0x01)\n        /* \"RouterInterface.sol\":2453:2471  msg.sender == role */\n      dup3\n      and\n      eq\n        /* \"RouterInterface.sol\":2445:2490  require(msg.sender == role, \"Invalid caller\") */\n      tag_140\n      jumpi\n      mload(0x40)\n      shl(0xe5, 0x461bcd)\n      dup2\n      mstore\n      0x04\n      add\n      tag_141\n      swap1\n      tag_142\n      jump\t// in\n    tag_141:\n      mload(0x40)\n      dup1\n      swap2\n      sub\n      swap1\n      revert\n    tag_140:\n      pop\n        /* \"RouterInterface.sol\":12535:12550  KyberAggregator */\n      0x03\n        /* \"RouterInterface.sol\":12535:12559  KyberAggregator = router */\n      dup1\n      sload\n      not(sub(shl(0xa0, 0x01), 0x01))\n      and\n      sub(shl(0xa0, 0x01), 0x01)\n      swap3\n      swap1\n      swap3\n      and\n      swap2\n      swap1\n      swap2\n      or\n      swap1\n      sstore\n        /* \"RouterInterface.sol\":12452:12566  function changeAggregatorAddress(address router) external onlyController{ ... */\n      jump\t// out\n        /* \"RouterInterface.sol\":9480:9882  function withdraw(uint256 poolID, uint256 amount) external validPoolID(poolID) nonReentrant{... */\n    tag_38:\n        /* \"RouterInterface.sol\":2713:2723  PoolDetail */\n      0x01\n        /* \"RouterInterface.sol\":2713:2730  PoolDetail.length */\n      dup1\n      sload\n        /* \"RouterInterface.sol\":9551:9557  poolID */\n      dup4\n      swap2\n        /* \"RouterInterface.sol\":2758:2775  poolLength.sub(1) */\n      tag_145\n      swap1\n        /* \"RouterInterface.sol\":2713:2730  PoolDetail.length */\n      dup3\n      swap1\n        /* \"RouterInterface.sol\":2758:2772  poolLength.sub */\n      tag_146\n        /* \"RouterInterface.sol\":2758:2775  poolLength.sub(1) */\n      jump\t// in\n    tag_145:\n        /* \"RouterInterface.sol\":2748:2754  poolID */\n      dup3\n        /* \"RouterInterface.sol\":2748:2775  poolID <= poolLength.sub(1) */\n      gt\n      iszero\n        /* \"RouterInterface.sol\":2740:2798  require(poolID <= poolLength.sub(1), \"Pool doesn't exist\") */\n      tag_147\n      jumpi\n      mload(0x40)\n      shl(0xe5, 0x461bcd)\n      dup2\n      mstore\n      0x04\n      add\n      tag_141\n      swap1\n      tag_149\n      jump\t// in\n    tag_147:\n        /* \"RouterInterface.sol\":2555:2561  status */\n      sload(0x00)\n        /* \"RouterInterface.sol\":2555:2566  status == 0 */\n      iszero\n        /* \"RouterInterface.sol\":2547:2583  require(status == 0, \"Illegal call\") */\n      tag_151\n      jumpi\n      mload(0x40)\n      shl(0xe5, 0x461bcd)\n      dup2\n      mstore\n      0x04\n      add\n      tag_141\n      swap1\n      tag_153\n      jump\t// in\n    tag_151:\n        /* \"RouterInterface.sol\":2602:2603  1 */\n      0x01\n        /* \"RouterInterface.sol\":2593:2599  status */\n      0x00\n        /* \"RouterInterface.sol\":2593:2603  status = 1 */\n      dup2\n      swap1\n      sstore\n      pop\n        /* \"RouterInterface.sol\":9581:9611  _PoolDetails memory getDetails */\n      0x00\n        /* \"RouterInterface.sol\":9614:9624  PoolDetail */\n      0x01\n        /* \"RouterInterface.sol\":9625:9631  poolID */\n      dup6\n        /* \"RouterInterface.sol\":9614:9632  PoolDetail[poolID] */\n      dup2\n      sload\n      dup2\n      lt\n      tag_156\n      jumpi\n      tag_156\n      tag_157\n      jump\t// in\n    tag_156:\n      0x00\n      swap2\n      dup3\n      mstore\n      0x20\n      swap2\n      dup3\n      swap1\n      keccak256\n        /* \"RouterInterface.sol\":9581:9632  _PoolDetails memory getDetails = PoolDetail[poolID] */\n      0x40\n      dup1\n      mload\n      dup1\n      dup3\n      add\n      swap1\n      swap2\n      mstore\n        /* \"RouterInterface.sol\":9614:9632  PoolDetail[poolID] */\n      0x02\n      swap1\n      swap3\n      mul\n      add\n        /* \"RouterInterface.sol\":9581:9632  _PoolDetails memory getDetails = PoolDetail[poolID] */\n      dup1\n      sload\n      sub(shl(0xa0, 0x01), 0x01)\n      swap1\n      dup2\n      and\n      dup1\n      dup5\n      mstore\n      0x01\n      swap1\n      swap3\n      add\n      sload\n      and\n      swap3\n      dup3\n      add\n      dup4\n      swap1\n      mstore\n      swap1\n      swap3\n      pop\n      swap1\n        /* \"RouterInterface.sol\":9755:9817  withdrawFromPool(msg.sender, poolAddress,tokenToUseNow,amount) */\n      tag_159\n        /* \"RouterInterface.sol\":9772:9782  msg.sender */\n      caller\n        /* \"RouterInterface.sol\":9581:9632  _PoolDetails memory getDetails = PoolDetail[poolID] */\n      dup4\n      dup4\n        /* \"RouterInterface.sol\":9810:9816  amount */\n      dup10\n        /* \"RouterInterface.sol\":9755:9771  withdrawFromPool */\n      tag_160\n        /* \"RouterInterface.sol\":9755:9817  withdrawFromPool(msg.sender, poolAddress,tokenToUseNow,amount) */\n      jump\t// in\n    tag_159:\n        /* \"RouterInterface.sol\":9832:9874  withdrawn(msg.sender, poolAddress, amount) */\n      0x40\n      dup1\n      mload\n        /* \"RouterInterface.sol\":9842:9852  msg.sender */\n      caller\n        /* \"#utility.yul\":6723:6757   */\n      dup2\n      mstore\n      sub(shl(0xa0, 0x01), 0x01)\n        /* \"#utility.yul\":6793:6808   */\n      dup5\n      and\n        /* \"#utility.yul\":6788:6790   */\n      0x20\n        /* \"#utility.yul\":6773:6791   */\n      dup3\n      add\n        /* \"#utility.yul\":6766:6809   */\n      mstore\n        /* \"#utility.yul\":6825:6843   */\n      swap1\n      dup2\n      add\n        /* \"#utility.yul\":6818:6852   */\n      dup8\n      swap1\n      mstore\n        /* \"RouterInterface.sol\":9832:9874  withdrawn(msg.sender, poolAddress, amount) */\n      0x53f917d4e27ae27751aa814f667aa2382dc59d7dd33b9b9b887abec7b2da1828\n      swap1\n        /* \"#utility.yul\":6673:6675   */\n      0x60\n        /* \"#utility.yul\":6658:6676   */\n      add\n        /* \"RouterInterface.sol\":9832:9874  withdrawn(msg.sender, poolAddress, amount) */\n      mload(0x40)\n      dup1\n      swap2\n      sub\n      swap1\n      log1\n      pop\n      pop\n        /* \"RouterInterface.sol\":2633:2634  0 */\n      0x00\n        /* \"RouterInterface.sol\":2624:2634  status = 0 */\n      dup1\n      sstore\n      pop\n      pop\n      pop\n      pop\n      pop\n        /* \"RouterInterface.sol\":9480:9882  function withdraw(uint256 poolID, uint256 amount) external validPoolID(poolID) nonReentrant{... */\n      jump\t// out\n        /* \"RouterInterface.sol\":12859:13564  function zap(uint256 poolID, address tokenIn, uint256 amount, bytes calldata swapData) external nonReentrant payable{... */\n    tag_42:\n        /* \"RouterInterface.sol\":2555:2561  status */\n      sload(0x00)\n        /* \"RouterInterface.sol\":2555:2566  status == 0 */\n      iszero\n        /* \"RouterInterface.sol\":2547:2583  require(status == 0, \"Illegal call\") */\n      tag_164\n      jumpi\n      mload(0x40)\n      shl(0xe5, 0x461bcd)\n      dup2\n      mstore\n      0x04\n      add\n      tag_141\n      swap1\n      tag_153\n      jump\t// in\n    tag_164:\n        /* \"RouterInterface.sol\":2602:2603  1 */\n      0x01\n        /* \"RouterInterface.sol\":2593:2599  status */\n      0x00\n        /* \"RouterInterface.sol\":2593:2603  status = 1 */\n      dup2\n      swap1\n      sstore\n      pop\n        /* \"RouterInterface.sol\":13238:13268  _PoolDetails memory getDetails */\n      0x00\n        /* \"RouterInterface.sol\":13271:13281  PoolDetail */\n      0x01\n        /* \"RouterInterface.sol\":13282:13288  poolID */\n      dup7\n        /* \"RouterInterface.sol\":13271:13289  PoolDetail[poolID] */\n      dup2\n      sload\n      dup2\n      lt\n      tag_168\n      jumpi\n      tag_168\n      tag_157\n      jump\t// in\n    tag_168:\n      0x00\n      swap2\n      dup3\n      mstore\n      0x20\n      dup1\n      dup4\n      keccak256\n        /* \"RouterInterface.sol\":13238:13289  _PoolDetails memory getDetails = PoolDetail[poolID] */\n      0x40\n      dup1\n      mload\n      dup1\n      dup3\n      add\n      swap1\n      swap2\n      mstore\n        /* \"RouterInterface.sol\":13271:13289  PoolDetail[poolID] */\n      0x02\n      swap1\n      swap4\n      mul\n      add\n        /* \"RouterInterface.sol\":13238:13289  _PoolDetails memory getDetails = PoolDetail[poolID] */\n      dup1\n      sload\n      sub(shl(0xa0, 0x01), 0x01)\n      swap1\n      dup2\n      and\n      dup1\n      dup6\n      mstore\n      0x01\n      swap1\n      swap3\n      add\n      sload\n      and\n      swap2\n      dup4\n      add\n      dup3\n      swap1\n      mstore\n      swap2\n      swap4\n      pop\n      swap1\n      swap2\n        /* \"RouterInterface.sol\":13432:13483  performSwap(tokenToUseNow, tokenIn,amount,swapData) */\n      tag_170\n        /* \"RouterInterface.sol\":13238:13289  _PoolDetails memory getDetails = PoolDetail[poolID] */\n      dup3\n        /* \"RouterInterface.sol\":13459:13466  tokenIn */\n      dup10\n        /* \"RouterInterface.sol\":13467:13473  amount */\n      dup10\n        /* \"RouterInterface.sol\":13474:13482  swapData */\n      dup10\n      dup10\n        /* \"RouterInterface.sol\":13432:13443  performSwap */\n      tag_171\n        /* \"RouterInterface.sol\":13432:13483  performSwap(tokenToUseNow, tokenIn,amount,swapData) */\n      jump\t// in\n    tag_170:\n        /* \"RouterInterface.sol\":13412:13483  uint256 toDeposit = performSwap(tokenToUseNow, tokenIn,amount,swapData) */\n      swap1\n      pop\n        /* \"RouterInterface.sol\":13493:13557  depositToPool(msg.sender, poolAddress, tokenToUseNow, toDeposit) */\n      tag_172\n        /* \"RouterInterface.sol\":13507:13517  msg.sender */\n      caller\n        /* \"RouterInterface.sol\":13519:13530  poolAddress */\n      dup5\n        /* \"RouterInterface.sol\":13532:13545  tokenToUseNow */\n      dup5\n        /* \"RouterInterface.sol\":13547:13556  toDeposit */\n      dup5\n        /* \"RouterInterface.sol\":13493:13506  depositToPool */\n      tag_173\n        /* \"RouterInterface.sol\":13493:13557  depositToPool(msg.sender, poolAddress, tokenToUseNow, toDeposit) */\n      jump\t// in\n    tag_172:\n      pop\n      pop\n        /* \"RouterInterface.sol\":2633:2634  0 */\n      0x00\n        /* \"RouterInterface.sol\":2624:2634  status = 0 */\n      dup1\n      sstore\n      pop\n      pop\n      pop\n      pop\n      pop\n      pop\n      pop\n        /* \"RouterInterface.sol\":12859:13564  function zap(uint256 poolID, address tokenIn, uint256 amount, bytes calldata swapData) external nonReentrant payable{... */\n      jump\t// out\n        /* \"RouterInterface.sol\":5558:5886  function getUserTicketAmountByPoolID(uint256 epochNumber, uint256 poolID, address user) external validPoolID(poolID) view returns(uint256){... */\n    tag_47:\n        /* \"RouterInterface.sol\":2713:2723  PoolDetail */\n      0x01\n        /* \"RouterInterface.sol\":2713:2730  PoolDetail.length */\n      dup1\n      sload\n        /* \"RouterInterface.sol\":5688:5695  uint256 */\n      0x00\n      swap2\n        /* \"RouterInterface.sol\":5667:5673  poolID */\n      dup5\n      swap2\n        /* \"RouterInterface.sol\":2713:2730  PoolDetail.length */\n      swap1\n        /* \"RouterInterface.sol\":2758:2775  poolLength.sub(1) */\n      tag_175\n      swap1\n        /* \"RouterInterface.sol\":2713:2730  PoolDetail.length */\n      dup3\n      swap1\n        /* \"RouterInterface.sol\":2758:2772  poolLength.sub */\n      tag_146\n        /* \"RouterInterface.sol\":2758:2775  poolLength.sub(1) */\n      jump\t// in\n    tag_175:\n        /* \"RouterInterface.sol\":2748:2754  poolID */\n      dup3\n        /* \"RouterInterface.sol\":2748:2775  poolID <= poolLength.sub(1) */\n      gt\n      iszero\n        /* \"RouterInterface.sol\":2740:2798  require(poolID <= poolLength.sub(1), \"Pool doesn't exist\") */\n      tag_176\n      jumpi\n      mload(0x40)\n      shl(0xe5, 0x461bcd)\n      dup2\n      mstore\n      0x04\n      add\n      tag_141\n      swap1\n      tag_149\n      jump\t// in\n    tag_176:\n        /* \"RouterInterface.sol\":5706:5725  address poolAddress */\n      0x00\n        /* \"RouterInterface.sol\":5728:5750  getPoolDetails(poolID) */\n      tag_179\n        /* \"RouterInterface.sol\":5743:5749  poolID */\n      dup7\n        /* \"RouterInterface.sol\":5728:5742  getPoolDetails */\n      tag_92\n        /* \"RouterInterface.sol\":5728:5750  getPoolDetails(poolID) */\n      jump\t// in\n    tag_179:\n        /* \"RouterInterface.sol\":5728:5762  getPoolDetails(poolID).PoolAddress */\n      mload\n        /* \"RouterInterface.sol\":5789:5847  IMutualPool(poolAddress).getTicketAmount(epochNumber,user) */\n      mload(0x40)\n      shl(0xe0, 0xd474fbf7)\n      dup2\n      mstore\n      0x04\n      dup2\n      add\n        /* \"#utility.yul\":7037:7062   */\n      dup10\n      swap1\n      mstore\n      sub(shl(0xa0, 0x01), 0x01)\n        /* \"#utility.yul\":7098:7130   */\n      dup8\n      dup2\n      and\n        /* \"#utility.yul\":7078:7096   */\n      0x24\n      dup4\n      add\n        /* \"#utility.yul\":7071:7131   */\n      mstore\n        /* \"RouterInterface.sol\":5728:5762  getPoolDetails(poolID).PoolAddress */\n      swap2\n      swap3\n      pop\n      0x00\n      swap2\n        /* \"RouterInterface.sol\":5789:5829  IMutualPool(poolAddress).getTicketAmount */\n      dup4\n      and\n      swap1\n      0xd474fbf7\n      swap1\n        /* \"#utility.yul\":7010:7028   */\n      0x44\n      add\n        /* \"RouterInterface.sol\":5789:5847  IMutualPool(poolAddress).getTicketAmount(epochNumber,user) */\n      0x20\n      mload(0x40)\n      dup1\n      dup4\n      sub\n      dup2\n      dup7\n      gas\n      staticcall\n      iszero\n      dup1\n      iszero\n      tag_183\n      jumpi\n      returndatasize\n      0x00\n      dup1\n      returndatacopy\n      revert(0x00, returndatasize)\n    tag_183:\n      pop\n      pop\n      pop\n      pop\n      mload(0x40)\n      returndatasize\n      not(0x1f)\n      0x1f\n      dup3\n      add\n      and\n      dup3\n      add\n      dup1\n      0x40\n      mstore\n      pop\n      dup2\n      add\n      swap1\n      tag_184\n      swap2\n      swap1\n      tag_185\n      jump\t// in\n    tag_184:\n        /* \"RouterInterface.sol\":5772:5847  uint256 result = IMutualPool(poolAddress).getTicketAmount(epochNumber,user) */\n      swap9\n        /* \"RouterInterface.sol\":5558:5886  function getUserTicketAmountByPoolID(uint256 epochNumber, uint256 poolID, address user) external validPoolID(poolID) view returns(uint256){... */\n      swap8\n      pop\n      pop\n      pop\n      pop\n      pop\n      pop\n      pop\n      pop\n      jump\t// out\n        /* \"RouterInterface.sol\":5297:5553  function getPoolLatestEpoch(uint256 poolID) public validPoolID(poolID) view returns(uint256){... */\n    tag_54:\n        /* \"RouterInterface.sol\":2713:2723  PoolDetail */\n      0x01\n        /* \"RouterInterface.sol\":2713:2730  PoolDetail.length */\n      dup1\n      sload\n        /* \"RouterInterface.sol\":5381:5388  uint256 */\n      0x00\n      swap2\n        /* \"RouterInterface.sol\":5360:5366  poolID */\n      dup4\n      swap2\n        /* \"RouterInterface.sol\":2713:2730  PoolDetail.length */\n      swap1\n        /* \"RouterInterface.sol\":2758:2775  poolLength.sub(1) */\n      tag_187\n      swap1\n        /* \"RouterInterface.sol\":2713:2730  PoolDetail.length */\n      dup3\n      swap1\n        /* \"RouterInterface.sol\":2758:2772  poolLength.sub */\n      tag_146\n        /* \"RouterInterface.sol\":2758:2775  poolLength.sub(1) */\n      jump\t// in\n    tag_187:\n        /* \"RouterInterface.sol\":2748:2754  poolID */\n      dup3\n        /* \"RouterInterface.sol\":2748:2775  poolID <= poolLength.sub(1) */\n      gt\n      iszero\n        /* \"RouterInterface.sol\":2740:2798  require(poolID <= poolLength.sub(1), \"Pool doesn't exist\") */\n      tag_188\n      jumpi\n      mload(0x40)\n      shl(0xe5, 0x461bcd)\n      dup2\n      mstore\n      0x04\n      add\n      tag_141\n      swap1\n      tag_149\n      jump\t// in\n    tag_188:\n        /* \"RouterInterface.sol\":5399:5418  address poolAddress */\n      0x00\n        /* \"RouterInterface.sol\":5421:5443  getPoolDetails(poolID) */\n      tag_191\n        /* \"RouterInterface.sol\":5436:5442  poolID */\n      dup6\n        /* \"RouterInterface.sol\":5421:5435  getPoolDetails */\n      tag_92\n        /* \"RouterInterface.sol\":5421:5443  getPoolDetails(poolID) */\n      jump\t// in\n    tag_191:\n        /* \"RouterInterface.sol\":5421:5455  getPoolDetails(poolID).PoolAddress */\n      0x00\n      add\n      mload\n        /* \"RouterInterface.sol\":5399:5455  address poolAddress = getPoolDetails(poolID).PoolAddress */\n      swap1\n      pop\n        /* \"RouterInterface.sol\":5465:5479  uint256 result */\n      0x00\n        /* \"RouterInterface.sol\":5494:5505  poolAddress */\n      dup2\n      sub(shl(0xa0, 0x01), 0x01)\n        /* \"RouterInterface.sol\":5482:5521  IMutualPool(poolAddress).getLatestEpoch */\n      and\n      0xa3d74f06\n        /* \"RouterInterface.sol\":5482:5523  IMutualPool(poolAddress).getLatestEpoch() */\n      mload(0x40)\n      dup2\n      0xffffffff\n      and\n      0xe0\n      shl\n      dup2\n      mstore\n      0x04\n      add\n      0x20\n      mload(0x40)\n      dup1\n      dup4\n      sub\n      dup2\n      dup7\n      gas\n      staticcall\n      iszero\n      dup1\n      iszero\n      tag_193\n      jumpi\n      returndatasize\n      0x00\n      dup1\n      returndatacopy\n      revert(0x00, returndatasize)\n    tag_193:\n      pop\n      pop\n      pop\n      pop\n      mload(0x40)\n      returndatasize\n      not(0x1f)\n      0x1f\n      dup3\n      add\n      and\n      dup3\n      add\n      dup1\n      0x40\n      mstore\n      pop\n      dup2\n      add\n      swap1\n      tag_194\n      swap2\n      swap1\n      tag_185\n      jump\t// in\n    tag_194:\n        /* \"RouterInterface.sol\":5465:5523  uint256 result = IMutualPool(poolAddress).getLatestEpoch() */\n      swap7\n        /* \"RouterInterface.sol\":5297:5553  function getPoolLatestEpoch(uint256 poolID) public validPoolID(poolID) view returns(uint256){... */\n      swap6\n      pop\n      pop\n      pop\n      pop\n      pop\n      pop\n      jump\t// out\n        /* \"RouterInterface.sol\":3605:3865  function getMinToDeposit(uint256 poolID) public validPoolID(poolID) view returns(uint256){... */\n    tag_59:\n        /* \"RouterInterface.sol\":2713:2723  PoolDetail */\n      0x01\n        /* \"RouterInterface.sol\":2713:2730  PoolDetail.length */\n      dup1\n      sload\n        /* \"RouterInterface.sol\":3686:3693  uint256 */\n      0x00\n      swap2\n        /* \"RouterInterface.sol\":3665:3671  poolID */\n      dup4\n      swap2\n        /* \"RouterInterface.sol\":2713:2730  PoolDetail.length */\n      swap1\n        /* \"RouterInterface.sol\":2758:2775  poolLength.sub(1) */\n      tag_196\n      swap1\n        /* \"RouterInterface.sol\":2713:2730  PoolDetail.length */\n      dup3\n      swap1\n        /* \"RouterInterface.sol\":2758:2772  poolLength.sub */\n      tag_146\n        /* \"RouterInterface.sol\":2758:2775  poolLength.sub(1) */\n      jump\t// in\n    tag_196:\n        /* \"RouterInterface.sol\":2748:2754  poolID */\n      dup3\n        /* \"RouterInterface.sol\":2748:2775  poolID <= poolLength.sub(1) */\n      gt\n      iszero\n        /* \"RouterInterface.sol\":2740:2798  require(poolID <= poolLength.sub(1), \"Pool doesn't exist\") */\n      tag_197\n      jumpi\n      mload(0x40)\n      shl(0xe5, 0x461bcd)\n      dup2\n      mstore\n      0x04\n      add\n      tag_141\n      swap1\n      tag_149\n      jump\t// in\n    tag_197:\n        /* \"RouterInterface.sol\":3704:3723  address poolAddress */\n      0x00\n        /* \"RouterInterface.sol\":3726:3748  getPoolDetails(poolID) */\n      tag_200\n        /* \"RouterInterface.sol\":3741:3747  poolID */\n      dup6\n        /* \"RouterInterface.sol\":3726:3740  getPoolDetails */\n      tag_92\n        /* \"RouterInterface.sol\":3726:3748  getPoolDetails(poolID) */\n      jump\t// in\n    tag_200:\n        /* \"RouterInterface.sol\":3726:3760  getPoolDetails(poolID).PoolAddress */\n      0x00\n      add\n      mload\n        /* \"RouterInterface.sol\":3704:3760  address poolAddress = getPoolDetails(poolID).PoolAddress */\n      swap1\n      pop\n        /* \"RouterInterface.sol\":3770:3784  uint256 result */\n      0x00\n        /* \"RouterInterface.sol\":3799:3810  poolAddress */\n      dup2\n      sub(shl(0xa0, 0x01), 0x01)\n        /* \"RouterInterface.sol\":3787:3833  IMutualPool(poolAddress).getMinAmountToDeposit */\n      and\n      0x361f1ad3\n        /* \"RouterInterface.sol\":3787:3835  IMutualPool(poolAddress).getMinAmountToDeposit() */\n      mload(0x40)\n      dup2\n      0xffffffff\n      and\n      0xe0\n      shl\n      dup2\n      mstore\n      0x04\n      add\n      0x20\n      mload(0x40)\n      dup1\n      dup4\n      sub\n      dup2\n      dup7\n      gas\n      staticcall\n      iszero\n      dup1\n      iszero\n      tag_193\n      jumpi\n      returndatasize\n      0x00\n      dup1\n      returndatacopy\n      revert(0x00, returndatasize)\n        /* \"RouterInterface.sol\":4463:4729  function getPoolCurrentYield(uint256 poolID) external validPoolID(poolID) view returns(uint256){... */\n    tag_64:\n        /* \"RouterInterface.sol\":2713:2723  PoolDetail */\n      0x01\n        /* \"RouterInterface.sol\":2713:2730  PoolDetail.length */\n      dup1\n      sload\n        /* \"RouterInterface.sol\":4550:4557  uint256 */\n      0x00\n      swap2\n        /* \"RouterInterface.sol\":4529:4535  poolID */\n      dup4\n      swap2\n        /* \"RouterInterface.sol\":2713:2730  PoolDetail.length */\n      swap1\n        /* \"RouterInterface.sol\":2758:2775  poolLength.sub(1) */\n      tag_205\n      swap1\n        /* \"RouterInterface.sol\":2713:2730  PoolDetail.length */\n      dup3\n      swap1\n        /* \"RouterInterface.sol\":2758:2772  poolLength.sub */\n      tag_146\n        /* \"RouterInterface.sol\":2758:2775  poolLength.sub(1) */\n      jump\t// in\n    tag_205:\n        /* \"RouterInterface.sol\":2748:2754  poolID */\n      dup3\n        /* \"RouterInterface.sol\":2748:2775  poolID <= poolLength.sub(1) */\n      gt\n      iszero\n        /* \"RouterInterface.sol\":2740:2798  require(poolID <= poolLength.sub(1), \"Pool doesn't exist\") */\n      tag_206\n      jumpi\n      mload(0x40)\n      shl(0xe5, 0x461bcd)\n      dup2\n      mstore\n      0x04\n      add\n      tag_141\n      swap1\n      tag_149\n      jump\t// in\n    tag_206:\n        /* \"RouterInterface.sol\":4568:4587  address poolAddress */\n      0x00\n        /* \"RouterInterface.sol\":4590:4612  getPoolDetails(poolID) */\n      tag_209\n        /* \"RouterInterface.sol\":4605:4611  poolID */\n      dup6\n        /* \"RouterInterface.sol\":4590:4604  getPoolDetails */\n      tag_92\n        /* \"RouterInterface.sol\":4590:4612  getPoolDetails(poolID) */\n      jump\t// in\n    tag_209:\n        /* \"RouterInterface.sol\":4590:4624  getPoolDetails(poolID).PoolAddress */\n      0x00\n      add\n      mload\n        /* \"RouterInterface.sol\":4568:4624  address poolAddress = getPoolDetails(poolID).PoolAddress */\n      swap1\n      pop\n        /* \"RouterInterface.sol\":4634:4648  uint256 result */\n      0x00\n        /* \"RouterInterface.sol\":4663:4674  poolAddress */\n      dup2\n      sub(shl(0xa0, 0x01), 0x01)\n        /* \"RouterInterface.sol\":4651:4697  IMutualPool(poolAddress).getCurrentEpochReward */\n      and\n      0xfd2324de\n        /* \"RouterInterface.sol\":4651:4699  IMutualPool(poolAddress).getCurrentEpochReward() */\n      mload(0x40)\n      dup2\n      0xffffffff\n      and\n      0xe0\n      shl\n      dup2\n      mstore\n      0x04\n      add\n      0x20\n      mload(0x40)\n      dup1\n      dup4\n      sub\n      dup2\n      dup7\n      gas\n      staticcall\n      iszero\n      dup1\n      iszero\n      tag_193\n      jumpi\n      returndatasize\n      0x00\n      dup1\n      returndatacopy\n      revert(0x00, returndatasize)\n        /* \"RouterInterface.sol\":3325:3599  function getRewardClaimable(address user, uint256 poolID) external validPoolID(poolID) view returns(uint256){... */\n    tag_70:\n        /* \"RouterInterface.sol\":2713:2723  PoolDetail */\n      0x01\n        /* \"RouterInterface.sol\":2713:2730  PoolDetail.length */\n      dup1\n      sload\n        /* \"RouterInterface.sol\":3425:3432  uint256 */\n      0x00\n      swap2\n        /* \"RouterInterface.sol\":3404:3410  poolID */\n      dup4\n      swap2\n        /* \"RouterInterface.sol\":2713:2730  PoolDetail.length */\n      swap1\n        /* \"RouterInterface.sol\":2758:2775  poolLength.sub(1) */\n      tag_214\n      swap1\n        /* \"RouterInterface.sol\":2713:2730  PoolDetail.length */\n      dup3\n      swap1\n        /* \"RouterInterface.sol\":2758:2772  poolLength.sub */\n      tag_146\n        /* \"RouterInterface.sol\":2758:2775  poolLength.sub(1) */\n      jump\t// in\n    tag_214:\n        /* \"RouterInterface.sol\":2748:2754  poolID */\n      dup3\n        /* \"RouterInterface.sol\":2748:2775  poolID <= poolLength.sub(1) */\n      gt\n      iszero\n        /* \"RouterInterface.sol\":2740:2798  require(poolID <= poolLength.sub(1), \"Pool doesn't exist\") */\n      tag_215\n      jumpi\n      mload(0x40)\n      shl(0xe5, 0x461bcd)\n      dup2\n      mstore\n      0x04\n      add\n      tag_141\n      swap1\n      tag_149\n      jump\t// in\n    tag_215:\n        /* \"RouterInterface.sol\":3443:3462  address poolAddress */\n      0x00\n        /* \"RouterInterface.sol\":3465:3487  getPoolDetails(poolID) */\n      tag_218\n        /* \"RouterInterface.sol\":3480:3486  poolID */\n      dup6\n        /* \"RouterInterface.sol\":3465:3479  getPoolDetails */\n      tag_92\n        /* \"RouterInterface.sol\":3465:3487  getPoolDetails(poolID) */\n      jump\t// in\n    tag_218:\n        /* \"RouterInterface.sol\":3465:3499  getPoolDetails(poolID).PoolAddress */\n      mload\n        /* \"RouterInterface.sol\":3526:3569  IMutualPool(poolAddress).getClaimable(user) */\n      mload(0x40)\n      shl(0xe0, 0xa583024b)\n      dup2\n      mstore\n      sub(shl(0xa0, 0x01), 0x01)\n        /* \"#utility.yul\":7495:7527   */\n      dup9\n      dup2\n      and\n        /* \"RouterInterface.sol\":3526:3569  IMutualPool(poolAddress).getClaimable(user) */\n      0x04\n      dup4\n      add\n        /* \"#utility.yul\":7477:7528   */\n      mstore\n        /* \"RouterInterface.sol\":3465:3499  getPoolDetails(poolID).PoolAddress */\n      swap2\n      swap3\n      pop\n      0x00\n      swap2\n        /* \"RouterInterface.sol\":3526:3563  IMutualPool(poolAddress).getClaimable */\n      dup4\n      and\n      swap1\n      0xa583024b\n      swap1\n        /* \"#utility.yul\":7450:7468   */\n      0x24\n      add\n        /* \"RouterInterface.sol\":3526:3569  IMutualPool(poolAddress).getClaimable(user) */\n      0x20\n      mload(0x40)\n      dup1\n      dup4\n      sub\n      dup2\n      dup7\n      gas\n      staticcall\n      iszero\n      dup1\n      iszero\n      tag_222\n      jumpi\n      returndatasize\n      0x00\n      dup1\n      returndatacopy\n      revert(0x00, returndatasize)\n    tag_222:\n      pop\n      pop\n      pop\n      pop\n      mload(0x40)\n      returndatasize\n      not(0x1f)\n      0x1f\n      dup3\n      add\n      and\n      dup3\n      add\n      dup1\n      0x40\n      mstore\n      pop\n      dup2\n      add\n      swap1\n      tag_223\n      swap2\n      swap1\n      tag_185\n      jump\t// in\n    tag_223:\n        /* \"RouterInterface.sol\":3509:3569  uint256 result = IMutualPool(poolAddress).getClaimable(user) */\n      swap8\n        /* \"RouterInterface.sol\":3325:3599  function getRewardClaimable(address user, uint256 poolID) external validPoolID(poolID) view returns(uint256){... */\n      swap7\n      pop\n      pop\n      pop\n      pop\n      pop\n      pop\n      pop\n      jump\t// out\n        /* \"RouterInterface.sol\":4214:4458  function getPoolTVL(uint256 poolID) public validPoolID(poolID) view returns(uint256){... */\n    tag_75:\n        /* \"RouterInterface.sol\":2713:2723  PoolDetail */\n      0x01\n        /* \"RouterInterface.sol\":2713:2730  PoolDetail.length */\n      dup1\n      sload\n        /* \"RouterInterface.sol\":4290:4297  uint256 */\n      0x00\n      swap2\n        /* \"RouterInterface.sol\":4269:4275  poolID */\n      dup4\n      swap2\n        /* \"RouterInterface.sol\":2713:2730  PoolDetail.length */\n      swap1\n        /* \"RouterInterface.sol\":2758:2775  poolLength.sub(1) */\n      tag_225\n      swap1\n        /* \"RouterInterface.sol\":2713:2730  PoolDetail.length */\n      dup3\n      swap1\n        /* \"RouterInterface.sol\":2758:2772  poolLength.sub */\n      tag_146\n        /* \"RouterInterface.sol\":2758:2775  poolLength.sub(1) */\n      jump\t// in\n    tag_225:\n        /* \"RouterInterface.sol\":2748:2754  poolID */\n      dup3\n        /* \"RouterInterface.sol\":2748:2775  poolID <= poolLength.sub(1) */\n      gt\n      iszero\n        /* \"RouterInterface.sol\":2740:2798  require(poolID <= poolLength.sub(1), \"Pool doesn't exist\") */\n      tag_226\n      jumpi\n      mload(0x40)\n      shl(0xe5, 0x461bcd)\n      dup2\n      mstore\n      0x04\n      add\n      tag_141\n      swap1\n      tag_149\n      jump\t// in\n    tag_226:\n        /* \"RouterInterface.sol\":4308:4327  address poolAddress */\n      0x00\n        /* \"RouterInterface.sol\":4330:4352  getPoolDetails(poolID) */\n      tag_229\n        /* \"RouterInterface.sol\":4345:4351  poolID */\n      dup6\n        /* \"RouterInterface.sol\":4330:4344  getPoolDetails */\n      tag_92\n        /* \"RouterInterface.sol\":4330:4352  getPoolDetails(poolID) */\n      jump\t// in\n    tag_229:\n        /* \"RouterInterface.sol\":4330:4364  getPoolDetails(poolID).PoolAddress */\n      0x00\n      add\n      mload\n        /* \"RouterInterface.sol\":4308:4364  address poolAddress = getPoolDetails(poolID).PoolAddress */\n      swap1\n      pop\n        /* \"RouterInterface.sol\":4374:4388  uint256 result */\n      0x00\n        /* \"RouterInterface.sol\":4403:4414  poolAddress */\n      dup2\n      sub(shl(0xa0, 0x01), 0x01)\n        /* \"RouterInterface.sol\":4391:4426  IMutualPool(poolAddress).getPoolTVL */\n      and\n      0x26be90bf\n        /* \"RouterInterface.sol\":4391:4428  IMutualPool(poolAddress).getPoolTVL() */\n      mload(0x40)\n      dup2\n      0xffffffff\n      and\n      0xe0\n      shl\n      dup2\n      mstore\n      0x04\n      add\n      0x20\n      mload(0x40)\n      dup1\n      dup4\n      sub\n      dup2\n      dup7\n      gas\n      staticcall\n      iszero\n      dup1\n      iszero\n      tag_193\n      jumpi\n      returndatasize\n      0x00\n      dup1\n      returndatacopy\n      revert(0x00, returndatasize)\n        /* \"RouterInterface.sol\":12130:12446  function removePool(uint256 poolID) external onlyController{... */\n    tag_80:\n        /* \"RouterInterface.sol\":2402:2418  registryContract */\n      sload(0x02)\n        /* \"RouterInterface.sol\":2388:2435  IRoleRegistry(registryContract).getController() */\n      0x40\n      dup1\n      mload\n      shl(0xe0, 0x3018205f)\n      dup2\n      mstore\n      swap1\n      mload\n        /* \"RouterInterface.sol\":2373:2385  address role */\n      0x00\n      swap3\n      sub(shl(0xa0, 0x01), 0x01)\n        /* \"RouterInterface.sol\":2402:2418  registryContract */\n      and\n      swap2\n        /* \"RouterInterface.sol\":2388:2433  IRoleRegistry(registryContract).getController */\n      0x3018205f\n      swap2\n        /* \"RouterInterface.sol\":2388:2435  IRoleRegistry(registryContract).getController() */\n      0x04\n      dup1\n      dup4\n      add\n      swap3\n      0x20\n      swap3\n      swap2\n      swap1\n      dup3\n      swap1\n      sub\n      add\n      dup2\n        /* \"RouterInterface.sol\":2402:2418  registryContract */\n      dup7\n        /* \"RouterInterface.sol\":2388:2435  IRoleRegistry(registryContract).getController() */\n      gas\n      staticcall\n      iszero\n      dup1\n      iszero\n      tag_235\n      jumpi\n      returndatasize\n      0x00\n      dup1\n      returndatacopy\n      revert(0x00, returndatasize)\n    tag_235:\n      pop\n      pop\n      pop\n      pop\n      mload(0x40)\n      returndatasize\n      not(0x1f)\n      0x1f\n      dup3\n      add\n      and\n      dup3\n      add\n      dup1\n      0x40\n      mstore\n      pop\n      dup2\n      add\n      swap1\n      tag_236\n      swap2\n      swap1\n      tag_139\n      jump\t// in\n    tag_236:\n        /* \"RouterInterface.sol\":2373:2435  address role = IRoleRegistry(registryContract).getController() */\n      swap1\n      pop\n        /* \"RouterInterface.sol\":2453:2463  msg.sender */\n      caller\n      sub(shl(0xa0, 0x01), 0x01)\n        /* \"RouterInterface.sol\":2453:2471  msg.sender == role */\n      dup3\n      and\n      eq\n        /* \"RouterInterface.sol\":2445:2490  require(msg.sender == role, \"Invalid caller\") */\n      tag_237\n      jumpi\n      mload(0x40)\n      shl(0xe5, 0x461bcd)\n      dup2\n      mstore\n      0x04\n      add\n      tag_141\n      swap1\n      tag_142\n      jump\t// in\n    tag_237:\n        /* \"RouterInterface.sol\":12220:12230  PoolDetail */\n      0x01\n        /* \"RouterInterface.sol\":12220:12237  PoolDetail.length */\n      dup1\n      sload\n      swap1\n        /* \"RouterInterface.sol\":12265:12277  poolLength-1 */\n      tag_240\n      swap1\n        /* \"RouterInterface.sol\":12220:12237  PoolDetail.length */\n      dup3\n        /* \"RouterInterface.sol\":12265:12277  poolLength-1 */\n      tag_241\n      jump\t// in\n    tag_240:\n        /* \"RouterInterface.sol\":12255:12261  poolID */\n      dup4\n        /* \"RouterInterface.sol\":12255:12277  poolID <= poolLength-1 */\n      gt\n      iszero\n        /* \"RouterInterface.sol\":12247:12300  require(poolID <= poolLength-1, \"Pool doesn't exist\") */\n      tag_242\n      jumpi\n      mload(0x40)\n      shl(0xe5, 0x461bcd)\n      dup2\n      mstore\n      0x04\n      add\n      tag_141\n      swap1\n      tag_149\n      jump\t// in\n    tag_242:\n        /* \"RouterInterface.sol\":12310:12329  address poolAddress */\n      0x00\n        /* \"RouterInterface.sol\":12332:12342  PoolDetail */\n      0x01\n        /* \"RouterInterface.sol\":12343:12349  poolID */\n      dup5\n        /* \"RouterInterface.sol\":12332:12350  PoolDetail[poolID] */\n      dup2\n      sload\n      dup2\n      lt\n      tag_245\n      jumpi\n      tag_245\n      tag_157\n      jump\t// in\n    tag_245:\n      0x00\n      swap2\n      dup3\n      mstore\n      0x20\n      swap1\n      swap2\n      keccak256\n      0x02\n      swap1\n      swap2\n      mul\n      add\n        /* \"RouterInterface.sol\":12332:12362  PoolDetail[poolID].PoolAddress */\n      sload\n      0x01\n        /* \"RouterInterface.sol\":12379:12397  PoolDetail[poolID] */\n      dup1\n      sload\n      sub(shl(0xa0, 0x01), 0x01)\n        /* \"RouterInterface.sol\":12332:12362  PoolDetail[poolID].PoolAddress */\n      swap1\n      swap3\n      and\n      swap3\n      pop\n      swap1\n        /* \"RouterInterface.sol\":12390:12396  poolID */\n      dup6\n      swap1\n        /* \"RouterInterface.sol\":12379:12397  PoolDetail[poolID] */\n      dup2\n      lt\n      tag_248\n      jumpi\n      tag_248\n      tag_157\n      jump\t// in\n    tag_248:\n      0x00\n      swap2\n      dup3\n      mstore\n      0x20\n      dup1\n      dup4\n      keccak256\n      0x02\n      swap1\n      swap3\n      mul\n      swap1\n      swap2\n      add\n        /* \"RouterInterface.sol\":12372:12397  delete PoolDetail[poolID] */\n      dup1\n      sload\n      not(sub(shl(0xa0, 0x01), 0x01))\n      swap1\n      dup2\n      and\n      dup3\n      sstore\n      0x01\n      swap1\n      swap2\n      add\n      dup1\n      sload\n      swap1\n      swap2\n      and\n      swap1\n      sstore\n      sub(shl(0xa0, 0x01), 0x01)\n        /* \"RouterInterface.sol\":12407:12431  allowedPool[poolAddress] */\n      swap3\n      swap1\n      swap3\n      and\n      dup2\n      mstore\n        /* \"RouterInterface.sol\":12407:12418  allowedPool */\n      0x04\n        /* \"RouterInterface.sol\":12407:12431  allowedPool[poolAddress] */\n      swap1\n      swap2\n      mstore\n      0x40\n      swap1\n      keccak256\n        /* \"RouterInterface.sol\":12407:12439  allowedPool[poolAddress] = false */\n      dup1\n      sload\n      not(0xff)\n      and\n      swap1\n      sstore\n      pop\n      pop\n      pop\n        /* \"RouterInterface.sol\":12130:12446  function removePool(uint256 poolID) external onlyController{... */\n      jump\t// out\n        /* \"RouterInterface.sol\":10682:11481  function claimReward(uint256 poolID) external validPoolID(poolID) nonReentrant{... */\n    tag_84:\n        /* \"RouterInterface.sol\":2713:2723  PoolDetail */\n      0x01\n        /* \"RouterInterface.sol\":2713:2730  PoolDetail.length */\n      dup1\n      sload\n        /* \"RouterInterface.sol\":10740:10746  poolID */\n      dup3\n      swap2\n        /* \"RouterInterface.sol\":2758:2775  poolLength.sub(1) */\n      tag_251\n      swap1\n        /* \"RouterInterface.sol\":2713:2730  PoolDetail.length */\n      dup3\n      swap1\n        /* \"RouterInterface.sol\":2758:2772  poolLength.sub */\n      tag_146\n        /* \"RouterInterface.sol\":2758:2775  poolLength.sub(1) */\n      jump\t// in\n    tag_251:\n        /* \"RouterInterface.sol\":2748:2754  poolID */\n      dup3\n        /* \"RouterInterface.sol\":2748:2775  poolID <= poolLength.sub(1) */\n      gt\n      iszero\n        /* \"RouterInterface.sol\":2740:2798  require(poolID <= poolLength.sub(1), \"Pool doesn't exist\") */\n      tag_252\n      jumpi\n      mload(0x40)\n      shl(0xe5, 0x461bcd)\n      dup2\n      mstore\n      0x04\n      add\n      tag_141\n      swap1\n      tag_149\n      jump\t// in\n    tag_252:\n        /* \"RouterInterface.sol\":2555:2561  status */\n      sload(0x00)\n        /* \"RouterInterface.sol\":2555:2566  status == 0 */\n      iszero\n        /* \"RouterInterface.sol\":2547:2583  require(status == 0, \"Illegal call\") */\n      tag_255\n      jumpi\n      mload(0x40)\n      shl(0xe5, 0x461bcd)\n      dup2\n      mstore\n      0x04\n      add\n      tag_141\n      swap1\n      tag_153\n      jump\t// in\n    tag_255:\n        /* \"RouterInterface.sol\":2602:2603  1 */\n      0x01\n        /* \"RouterInterface.sol\":2593:2599  status */\n      0x00\n        /* \"RouterInterface.sol\":2593:2603  status = 1 */\n      dup2\n      swap1\n      sstore\n      pop\n        /* \"RouterInterface.sol\":10771:10801  _PoolDetails memory getDetails */\n      0x00\n        /* \"RouterInterface.sol\":10804:10814  PoolDetail */\n      0x01\n        /* \"RouterInterface.sol\":10815:10821  poolID */\n      dup5\n        /* \"RouterInterface.sol\":10804:10822  PoolDetail[poolID] */\n      dup2\n      sload\n      dup2\n      lt\n      tag_259\n      jumpi\n      tag_259\n      tag_157\n      jump\t// in\n    tag_259:\n      0x00\n      swap2\n      dup3\n      mstore\n      0x20\n      dup1\n      dup4\n      keccak256\n        /* \"RouterInterface.sol\":10771:10822  _PoolDetails memory getDetails = PoolDetail[poolID] */\n      0x40\n      dup1\n      mload\n      dup1\n      dup3\n      add\n      dup3\n      mstore\n        /* \"RouterInterface.sol\":10804:10822  PoolDetail[poolID] */\n      0x02\n      swap5\n      swap1\n      swap5\n      mul\n      swap1\n      swap2\n      add\n        /* \"RouterInterface.sol\":10771:10822  _PoolDetails memory getDetails = PoolDetail[poolID] */\n      dup1\n      sload\n      sub(shl(0xa0, 0x01), 0x01)\n      swap1\n      dup2\n      and\n      dup1\n      dup7\n      mstore\n      0x01\n      swap1\n      swap3\n      add\n      sload\n      and\n      swap3\n      dup5\n      add\n      dup4\n      swap1\n      mstore\n        /* \"RouterInterface.sol\":10975:11021  IERC20(tokenToUseNow).balanceOf(address(this)) */\n      swap1\n      mload\n      shl(0xe0, 0x70a08231)\n      dup2\n      mstore\n        /* \"RouterInterface.sol\":11015:11019  this */\n      address\n        /* \"RouterInterface.sol\":10975:11021  IERC20(tokenToUseNow).balanceOf(address(this)) */\n      0x04\n      dup3\n      add\n        /* \"#utility.yul\":7477:7528   */\n      mstore\n        /* \"RouterInterface.sol\":10771:10822  _PoolDetails memory getDetails = PoolDetail[poolID] */\n      swap3\n      swap5\n      pop\n      swap3\n      swap1\n      swap2\n      dup3\n      swap1\n        /* \"RouterInterface.sol\":10975:11006  IERC20(tokenToUseNow).balanceOf */\n      0x70a08231\n      swap1\n        /* \"#utility.yul\":7450:7468   */\n      0x24\n      add\n        /* \"RouterInterface.sol\":10975:11021  IERC20(tokenToUseNow).balanceOf(address(this)) */\n      0x20\n      mload(0x40)\n      dup1\n      dup4\n      sub\n      dup2\n      dup7\n      gas\n      staticcall\n      iszero\n      dup1\n      iszero\n      tag_263\n      jumpi\n      returndatasize\n      0x00\n      dup1\n      returndatacopy\n      revert(0x00, returndatasize)\n    tag_263:\n      pop\n      pop\n      pop\n      pop\n      mload(0x40)\n      returndatasize\n      not(0x1f)\n      0x1f\n      dup3\n      add\n      and\n      dup3\n      add\n      dup1\n      0x40\n      mstore\n      pop\n      dup2\n      add\n      swap1\n      tag_264\n      swap2\n      swap1\n      tag_185\n      jump\t// in\n    tag_264:\n        /* \"RouterInterface.sol\":10946:11021  uint256 balanceBeforeClaim = IERC20(tokenToUseNow).balanceOf(address(this)) */\n      swap1\n      pop\n        /* \"RouterInterface.sol\":11031:11052  uint256 rewardClaimed */\n      0x00\n        /* \"RouterInterface.sol\":11055:11099  _processClaimReward(msg.sender, poolAddress) */\n      tag_265\n        /* \"RouterInterface.sol\":11075:11085  msg.sender */\n      caller\n        /* \"RouterInterface.sol\":11087:11098  poolAddress */\n      dup6\n        /* \"RouterInterface.sol\":11055:11074  _processClaimReward */\n      tag_266\n        /* \"RouterInterface.sol\":11055:11099  _processClaimReward(msg.sender, poolAddress) */\n      jump\t// in\n    tag_265:\n        /* \"RouterInterface.sol\":11137:11183  IERC20(tokenToUseNow).balanceOf(address(this)) */\n      mload(0x40)\n      shl(0xe0, 0x70a08231)\n      dup2\n      mstore\n        /* \"RouterInterface.sol\":11177:11181  this */\n      address\n        /* \"RouterInterface.sol\":11137:11183  IERC20(tokenToUseNow).balanceOf(address(this)) */\n      0x04\n      dup3\n      add\n        /* \"#utility.yul\":7477:7528   */\n      mstore\n        /* \"RouterInterface.sol\":11031:11099  uint256 rewardClaimed = _processClaimReward(msg.sender, poolAddress) */\n      swap1\n      swap2\n      pop\n        /* \"RouterInterface.sol\":11109:11134  uint256 balanceAfterClaim */\n      0x00\n      swap1\n      sub(shl(0xa0, 0x01), 0x01)\n        /* \"RouterInterface.sol\":11137:11168  IERC20(tokenToUseNow).balanceOf */\n      dup6\n      and\n      swap1\n      0x70a08231\n      swap1\n        /* \"#utility.yul\":7450:7468   */\n      0x24\n      add\n        /* \"RouterInterface.sol\":11137:11183  IERC20(tokenToUseNow).balanceOf(address(this)) */\n      0x20\n      mload(0x40)\n      dup1\n      dup4\n      sub\n      dup2\n      dup7\n      gas\n      staticcall\n      iszero\n      dup1\n      iszero\n      tag_269\n      jumpi\n      returndatasize\n      0x00\n      dup1\n      returndatacopy\n      revert(0x00, returndatasize)\n    tag_269:\n      pop\n      pop\n      pop\n      pop\n      mload(0x40)\n      returndatasize\n      not(0x1f)\n      0x1f\n      dup3\n      add\n      and\n      dup3\n      add\n      dup1\n      0x40\n      mstore\n      pop\n      dup2\n      add\n      swap1\n      tag_270\n      swap2\n      swap1\n      tag_185\n      jump\t// in\n    tag_270:\n        /* \"RouterInterface.sol\":11109:11183  uint256 balanceAfterClaim = IERC20(tokenToUseNow).balanceOf(address(this)) */\n      swap1\n      pop\n        /* \"RouterInterface.sol\":11193:11214  uint256 balanceChange */\n      0x00\n        /* \"RouterInterface.sol\":11217:11258  balanceAfterClaim.sub(balanceBeforeClaim) */\n      tag_271\n        /* \"RouterInterface.sol\":11109:11183  uint256 balanceAfterClaim = IERC20(tokenToUseNow).balanceOf(address(this)) */\n      dup3\n        /* \"RouterInterface.sol\":11239:11257  balanceBeforeClaim */\n      dup6\n        /* \"RouterInterface.sol\":11217:11238  balanceAfterClaim.sub */\n      tag_146\n        /* \"RouterInterface.sol\":11217:11258  balanceAfterClaim.sub(balanceBeforeClaim) */\n      jump\t// in\n    tag_271:\n        /* \"RouterInterface.sol\":11193:11258  uint256 balanceChange = balanceAfterClaim.sub(balanceBeforeClaim) */\n      swap1\n      pop\n        /* \"RouterInterface.sol\":11320:11388  _processTransferBacktoUser(msg.sender, tokenToUseNow, balanceChange) */\n      tag_272\n        /* \"RouterInterface.sol\":11347:11357  msg.sender */\n      caller\n        /* \"RouterInterface.sol\":11359:11372  tokenToUseNow */\n      dup7\n        /* \"RouterInterface.sol\":11374:11387  balanceChange */\n      dup4\n        /* \"RouterInterface.sol\":11320:11346  _processTransferBacktoUser */\n      tag_273\n        /* \"RouterInterface.sol\":11320:11388  _processTransferBacktoUser(msg.sender, tokenToUseNow, balanceChange) */\n      jump\t// in\n    tag_272:\n        /* \"RouterInterface.sol\":11404:11474  EpochRewardClaimed(msg.sender,poolAddress,tokenToUseNow,rewardClaimed) */\n      0x40\n      dup1\n      mload\n        /* \"RouterInterface.sol\":11423:11433  msg.sender */\n      caller\n        /* \"#utility.yul\":8038:8072   */\n      dup2\n      mstore\n      sub(shl(0xa0, 0x01), 0x01)\n        /* \"#utility.yul\":8108:8123   */\n      dup9\n      dup2\n      and\n        /* \"#utility.yul\":8103:8105   */\n      0x20\n        /* \"#utility.yul\":8088:8106   */\n      dup4\n      add\n        /* \"#utility.yul\":8081:8124   */\n      mstore\n        /* \"#utility.yul\":8160:8175   */\n      dup8\n      and\n        /* \"#utility.yul\":8140:8158   */\n      dup2\n      dup4\n      add\n        /* \"#utility.yul\":8133:8176   */\n      mstore\n        /* \"#utility.yul\":8207:8209   */\n      0x60\n        /* \"#utility.yul\":8192:8210   */\n      dup2\n      add\n        /* \"#utility.yul\":8185:8219   */\n      dup6\n      swap1\n      mstore\n        /* \"RouterInterface.sol\":11404:11474  EpochRewardClaimed(msg.sender,poolAddress,tokenToUseNow,rewardClaimed) */\n      swap1\n      mload\n      0xf5a48ea938b5e8d78be0d8d0d1e277621d4854f2b208ee83ae3702ce61828ab5\n      swap2\n      dup2\n      swap1\n      sub\n        /* \"#utility.yul\":7987:7990   */\n      0x80\n        /* \"RouterInterface.sol\":11404:11474  EpochRewardClaimed(msg.sender,poolAddress,tokenToUseNow,rewardClaimed) */\n      add\n      swap1\n      log1\n      pop\n      pop\n        /* \"RouterInterface.sol\":2633:2634  0 */\n      0x00\n        /* \"RouterInterface.sol\":2624:2634  status = 0 */\n      dup1\n      sstore\n      pop\n      pop\n      pop\n      pop\n      pop\n      pop\n      pop\n      pop\n        /* \"RouterInterface.sol\":10682:11481  function claimReward(uint256 poolID) external validPoolID(poolID) nonReentrant{... */\n      jump\t// out\n        /* \"RouterInterface.sol\":4013:4208  function getPoolDetails(uint256 poolID) public validPoolID(poolID) view returns(_PoolDetails memory){... */\n    tag_92:\n      0x40\n      dup1\n      mload\n      dup1\n      dup3\n      add\n      swap1\n      swap2\n      mstore\n      0x00\n      dup1\n      dup3\n      mstore\n      0x20\n      dup3\n      add\n      mstore\n        /* \"RouterInterface.sol\":2713:2723  PoolDetail */\n      0x01\n        /* \"RouterInterface.sol\":2713:2730  PoolDetail.length */\n      dup1\n      sload\n        /* \"RouterInterface.sol\":4072:4078  poolID */\n      dup4\n      swap2\n        /* \"RouterInterface.sol\":2758:2775  poolLength.sub(1) */\n      tag_280\n      swap1\n        /* \"RouterInterface.sol\":2713:2730  PoolDetail.length */\n      dup3\n      swap1\n        /* \"RouterInterface.sol\":2758:2772  poolLength.sub */\n      tag_146\n        /* \"RouterInterface.sol\":2758:2775  poolLength.sub(1) */\n      jump\t// in\n    tag_280:\n        /* \"RouterInterface.sol\":2748:2754  poolID */\n      dup3\n        /* \"RouterInterface.sol\":2748:2775  poolID <= poolLength.sub(1) */\n      gt\n      iszero\n        /* \"RouterInterface.sol\":2740:2798  require(poolID <= poolLength.sub(1), \"Pool doesn't exist\") */\n      tag_281\n      jumpi\n      mload(0x40)\n      shl(0xe5, 0x461bcd)\n      dup2\n      mstore\n      0x04\n      add\n      tag_141\n      swap1\n      tag_149\n      jump\t// in\n    tag_281:\n        /* \"RouterInterface.sol\":4123:4153  _PoolDetails memory getDetails */\n      0x00\n        /* \"RouterInterface.sol\":4156:4166  PoolDetail */\n      0x01\n        /* \"RouterInterface.sol\":4167:4173  poolID */\n      dup6\n        /* \"RouterInterface.sol\":4156:4174  PoolDetail[poolID] */\n      dup2\n      sload\n      dup2\n      lt\n      tag_285\n      jumpi\n      tag_285\n      tag_157\n      jump\t// in\n    tag_285:\n      0x00\n      swap2\n      dup3\n      mstore\n      0x20\n      swap2\n      dup3\n      swap1\n      keccak256\n        /* \"RouterInterface.sol\":4123:4174  _PoolDetails memory getDetails = PoolDetail[poolID] */\n      0x40\n      dup1\n      mload\n      dup1\n      dup3\n      add\n      swap1\n      swap2\n      mstore\n        /* \"RouterInterface.sol\":4156:4174  PoolDetail[poolID] */\n      0x02\n      swap1\n      swap3\n      mul\n      add\n        /* \"RouterInterface.sol\":4123:4174  _PoolDetails memory getDetails = PoolDetail[poolID] */\n      dup1\n      sload\n      sub(shl(0xa0, 0x01), 0x01)\n      swap1\n      dup2\n      and\n      dup4\n      mstore\n      0x01\n      swap1\n      swap2\n      add\n      sload\n      and\n      swap2\n      dup2\n      add\n      swap2\n      swap1\n      swap2\n      mstore\n      swap4\n      pop\n      pop\n        /* \"RouterInterface.sol\":2682:2816  {... */\n      pop\n        /* \"RouterInterface.sol\":4013:4208  function getPoolDetails(uint256 poolID) public validPoolID(poolID) view returns(_PoolDetails memory){... */\n      pop\n      swap2\n      swap1\n      pop\n      jump\t// out\n        /* \"RouterInterface.sol\":2823:3033  function initialize(address registryAddress) external{... */\n    tag_98:\n        /* \"RouterInterface.sol\":2894:2905  initialized */\n      sload(0x02)\n      shl(0xa0, 0x01)\n      swap1\n      div\n      0xff\n      and\n        /* \"RouterInterface.sol\":2894:2914  initialized == false */\n      iszero\n        /* \"RouterInterface.sol\":2886:2950  require(initialized == false, \"Contract is initialized already\") */\n      tag_288\n      jumpi\n      mload(0x40)\n      shl(0xe5, 0x461bcd)\n      dup2\n      mstore\n        /* \"#utility.yul\":8432:8434   */\n      0x20\n        /* \"RouterInterface.sol\":2886:2950  require(initialized == false, \"Contract is initialized already\") */\n      0x04\n      dup3\n      add\n        /* \"#utility.yul\":8414:8435   */\n      mstore\n        /* \"#utility.yul\":8471:8473   */\n      0x1f\n        /* \"#utility.yul\":8451:8469   */\n      0x24\n      dup3\n      add\n        /* \"#utility.yul\":8444:8474   */\n      mstore\n        /* \"#utility.yul\":8510:8543   */\n      0x436f6e747261637420697320696e697469616c697a656420616c726561647900\n        /* \"#utility.yul\":8490:8508   */\n      0x44\n      dup3\n      add\n        /* \"#utility.yul\":8483:8544   */\n      mstore\n        /* \"#utility.yul\":8561:8579   */\n      0x64\n      add\n        /* \"RouterInterface.sol\":2886:2950  require(initialized == false, \"Contract is initialized already\") */\n      tag_141\n        /* \"#utility.yul\":8230:8585   */\n      jump\n        /* \"RouterInterface.sol\":2886:2950  require(initialized == false, \"Contract is initialized already\") */\n    tag_288:\n        /* \"RouterInterface.sol\":2960:2998  _transferRegistryAddr(registryAddress) */\n      tag_291\n        /* \"RouterInterface.sol\":2982:2997  registryAddress */\n      dup2\n        /* \"RouterInterface.sol\":2960:2981  _transferRegistryAddr */\n      tag_292\n        /* \"RouterInterface.sol\":2960:2998  _transferRegistryAddr(registryAddress) */\n      jump\t// in\n    tag_291:\n      pop\n        /* \"RouterInterface.sol\":3008:3019  initialized */\n      0x02\n        /* \"RouterInterface.sol\":3008:3026  initialized = true */\n      dup1\n      sload\n      not(shl(0xa0, 0xff))\n      and\n      shl(0xa0, 0x01)\n      or\n      swap1\n      sstore\n        /* \"RouterInterface.sol\":2823:3033  function initialize(address registryAddress) external{... */\n      jump\t// out\n        /* \"RouterInterface.sol\":11812:12124  function addPool(address _poolAddress) external onlyController{... */\n    tag_108:\n        /* \"RouterInterface.sol\":2402:2418  registryContract */\n      sload(0x02)\n        /* \"RouterInterface.sol\":2388:2435  IRoleRegistry(registryContract).getController() */\n      0x40\n      dup1\n      mload\n      shl(0xe0, 0x3018205f)\n      dup2\n      mstore\n      swap1\n      mload\n        /* \"RouterInterface.sol\":2373:2385  address role */\n      0x00\n      swap3\n      sub(shl(0xa0, 0x01), 0x01)\n        /* \"RouterInterface.sol\":2402:2418  registryContract */\n      and\n      swap2\n        /* \"RouterInterface.sol\":2388:2433  IRoleRegistry(registryContract).getController */\n      0x3018205f\n      swap2\n        /* \"RouterInterface.sol\":2388:2435  IRoleRegistry(registryContract).getController() */\n      0x04\n      dup1\n      dup4\n      add\n      swap3\n      0x20\n      swap3\n      swap2\n      swap1\n      dup3\n      swap1\n      sub\n      add\n      dup2\n        /* \"RouterInterface.sol\":2402:2418  registryContract */\n      dup7\n        /* \"RouterInterface.sol\":2388:2435  IRoleRegistry(registryContract).getController() */\n      gas\n      staticcall\n      iszero\n      dup1\n      iszero\n      tag_296\n      jumpi\n      returndatasize\n      0x00\n      dup1\n      returndatacopy\n      revert(0x00, returndatasize)\n    tag_296:\n      pop\n      pop\n      pop\n      pop\n      mload(0x40)\n      returndatasize\n      not(0x1f)\n      0x1f\n      dup3\n      add\n      and\n      dup3\n      add\n      dup1\n      0x40\n      mstore\n      pop\n      dup2\n      add\n      swap1\n      tag_297\n      swap2\n      swap1\n      tag_139\n      jump\t// in\n    tag_297:\n        /* \"RouterInterface.sol\":2373:2435  address role = IRoleRegistry(registryContract).getController() */\n      swap1\n      pop\n        /* \"RouterInterface.sol\":2453:2463  msg.sender */\n      caller\n      sub(shl(0xa0, 0x01), 0x01)\n        /* \"RouterInterface.sol\":2453:2471  msg.sender == role */\n      dup3\n      and\n      eq\n        /* \"RouterInterface.sol\":2445:2490  require(msg.sender == role, \"Invalid caller\") */\n      tag_298\n      jumpi\n      mload(0x40)\n      shl(0xe5, 0x461bcd)\n      dup2\n      mstore\n      0x04\n      add\n      tag_141\n      swap1\n      tag_142\n      jump\t// in\n    tag_298:\n        /* \"RouterInterface.sol\":11884:11901  address PoolToken */\n      0x00\n        /* \"RouterInterface.sol\":11916:11928  _poolAddress */\n      dup3\n      sub(shl(0xa0, 0x01), 0x01)\n        /* \"RouterInterface.sol\":11904:11943  IMutualPool(_poolAddress).getTokenUsing */\n      and\n      0x0fce03b9\n        /* \"RouterInterface.sol\":11904:11945  IMutualPool(_poolAddress).getTokenUsing() */\n      mload(0x40)\n      dup2\n      0xffffffff\n      and\n      0xe0\n      shl\n      dup2\n      mstore\n      0x04\n      add\n      0x20\n      mload(0x40)\n      dup1\n      dup4\n      sub\n      dup2\n      dup7\n      gas\n      staticcall\n      iszero\n      dup1\n      iszero\n      tag_302\n      jumpi\n      returndatasize\n      0x00\n      dup1\n      returndatacopy\n      revert(0x00, returndatasize)\n    tag_302:\n      pop\n      pop\n      pop\n      pop\n      mload(0x40)\n      returndatasize\n      not(0x1f)\n      0x1f\n      dup3\n      add\n      and\n      dup3\n      add\n      dup1\n      0x40\n      mstore\n      pop\n      dup2\n      add\n      swap1\n      tag_303\n      swap2\n      swap1\n      tag_139\n      jump\t// in\n    tag_303:\n        /* \"RouterInterface.sol\":11971:12073  _PoolDetails({... */\n      0x40\n      dup1\n      mload\n      dup1\n      dup3\n      add\n      dup3\n      mstore\n      sub(shl(0xa0, 0x01), 0x01)\n      swap6\n      dup7\n      and\n      dup1\n      dup3\n      mstore\n      swap3\n      dup7\n      and\n      0x20\n      dup1\n      dup4\n      add\n      swap2\n      dup3\n      mstore\n        /* \"RouterInterface.sol\":11955:11965  PoolDetail */\n      0x01\n        /* \"RouterInterface.sol\":11955:12074  PoolDetail.push(_PoolDetails({... */\n      dup1\n      sload\n      dup1\n      dup3\n      add\n      dup3\n      sstore\n      0x00\n      dup3\n      dup2\n      mstore\n      swap5\n      mload\n      0x02\n      swap1\n      swap2\n      mul\n      0xb10e2d527612073b26eecdfd717e6a320cf44b4afac2b0732d9fcbe2b7fa0cf6\n      dup2\n      add\n      dup1\n      sload\n      swap3\n      dup13\n      and\n      not(sub(shl(0xa0, 0x01), 0x01))\n      swap4\n      dup5\n      and\n      or\n      swap1\n      sstore\n      swap4\n      mload\n      0xb10e2d527612073b26eecdfd717e6a320cf44b4afac2b0732d9fcbe2b7fa0cf7\n      swap1\n      swap5\n      add\n      dup1\n      sload\n      swap5\n      swap1\n      swap11\n      and\n      swap4\n      and\n      swap3\n      swap1\n      swap3\n      or\n      swap1\n      swap8\n      sstore\n        /* \"RouterInterface.sol\":12085:12110  allowedPool[_poolAddress] */\n      swap3\n      dup2\n      mstore\n        /* \"RouterInterface.sol\":12085:12096  allowedPool */\n      0x04\n        /* \"RouterInterface.sol\":12085:12110  allowedPool[_poolAddress] */\n      swap1\n      swap6\n      mstore\n      swap1\n      swap4\n      keccak256\n        /* \"RouterInterface.sol\":12085:12117  allowedPool[_poolAddress] = true */\n      dup1\n      sload\n      not(0xff)\n      and\n      swap1\n      swap4\n      or\n      swap1\n      swap3\n      sstore\n      pop\n      pop\n        /* \"RouterInterface.sol\":11812:12124  function addPool(address _poolAddress) external onlyController{... */\n      jump\t// out\n        /* \"RouterInterface.sol\":7875:8367  function deposit(uint256 poolID, uint256 amount) external validPoolID(poolID) nonReentrant{... */\n    tag_112:\n        /* \"RouterInterface.sol\":2713:2723  PoolDetail */\n      0x01\n        /* \"RouterInterface.sol\":2713:2730  PoolDetail.length */\n      dup1\n      sload\n        /* \"RouterInterface.sol\":7945:7951  poolID */\n      dup4\n      swap2\n        /* \"RouterInterface.sol\":2758:2775  poolLength.sub(1) */\n      tag_306\n      swap1\n        /* \"RouterInterface.sol\":2713:2730  PoolDetail.length */\n      dup3\n      swap1\n        /* \"RouterInterface.sol\":2758:2772  poolLength.sub */\n      tag_146\n        /* \"RouterInterface.sol\":2758:2775  poolLength.sub(1) */\n      jump\t// in\n    tag_306:\n        /* \"RouterInterface.sol\":2748:2754  poolID */\n      dup3\n        /* \"RouterInterface.sol\":2748:2775  poolID <= poolLength.sub(1) */\n      gt\n      iszero\n        /* \"RouterInterface.sol\":2740:2798  require(poolID <= poolLength.sub(1), \"Pool doesn't exist\") */\n      tag_307\n      jumpi\n      mload(0x40)\n      shl(0xe5, 0x461bcd)\n      dup2\n      mstore\n      0x04\n      add\n      tag_141\n      swap1\n      tag_149\n      jump\t// in\n    tag_307:\n        /* \"RouterInterface.sol\":2555:2561  status */\n      sload(0x00)\n        /* \"RouterInterface.sol\":2555:2566  status == 0 */\n      iszero\n        /* \"RouterInterface.sol\":2547:2583  require(status == 0, \"Illegal call\") */\n      tag_310\n      jumpi\n      mload(0x40)\n      shl(0xe5, 0x461bcd)\n      dup2\n      mstore\n      0x04\n      add\n      tag_141\n      swap1\n      tag_153\n      jump\t// in\n    tag_310:\n        /* \"RouterInterface.sol\":2602:2603  1 */\n      0x01\n        /* \"RouterInterface.sol\":2593:2599  status */\n      0x00\n        /* \"RouterInterface.sol\":2593:2603  status = 1 */\n      dup2\n      swap1\n      sstore\n      pop\n        /* \"RouterInterface.sol\":7975:8005  _PoolDetails memory getDetails */\n      0x00\n        /* \"RouterInterface.sol\":8008:8018  PoolDetail */\n      0x01\n        /* \"RouterInterface.sol\":8019:8025  poolID */\n      dup6\n        /* \"RouterInterface.sol\":8008:8026  PoolDetail[poolID] */\n      dup2\n      sload\n      dup2\n      lt\n      tag_314\n      jumpi\n      tag_314\n      tag_157\n      jump\t// in\n    tag_314:\n      0x00\n      swap2\n      dup3\n      mstore\n      0x20\n      dup1\n      dup4\n      keccak256\n        /* \"RouterInterface.sol\":7975:8026  _PoolDetails memory getDetails = PoolDetail[poolID] */\n      0x40\n      dup1\n      mload\n      dup1\n      dup3\n      add\n      swap1\n      swap2\n      mstore\n        /* \"RouterInterface.sol\":8008:8026  PoolDetail[poolID] */\n      0x02\n      swap1\n      swap4\n      mul\n      add\n        /* \"RouterInterface.sol\":7975:8026  _PoolDetails memory getDetails = PoolDetail[poolID] */\n      dup1\n      sload\n      sub(shl(0xa0, 0x01), 0x01)\n      swap1\n      dup2\n      and\n      dup1\n      dup6\n      mstore\n      0x01\n      swap1\n      swap3\n      add\n      sload\n      and\n      swap2\n      dup4\n      add\n      dup3\n      swap1\n      mstore\n      swap2\n      swap4\n      pop\n      swap1\n      swap2\n        /* \"RouterInterface.sol\":8175:8214  getTokenFromUser(tokenToUseNow, amount) */\n      tag_316\n        /* \"RouterInterface.sol\":7975:8026  _PoolDetails memory getDetails = PoolDetail[poolID] */\n      dup3\n        /* \"RouterInterface.sol\":8207:8213  amount */\n      dup9\n        /* \"RouterInterface.sol\":8175:8191  getTokenFromUser */\n      tag_317\n        /* \"RouterInterface.sol\":8175:8214  getTokenFromUser(tokenToUseNow, amount) */\n      jump\t// in\n    tag_316:\n        /* \"RouterInterface.sol\":8149:8214  uint256 amountToDeposit = getTokenFromUser(tokenToUseNow, amount) */\n      swap1\n      pop\n        /* \"RouterInterface.sol\":8224:8294  depositToPool(msg.sender, poolAddress, tokenToUseNow, amountToDeposit) */\n      tag_318\n        /* \"RouterInterface.sol\":8238:8248  msg.sender */\n      caller\n        /* \"RouterInterface.sol\":8250:8261  poolAddress */\n      dup5\n        /* \"RouterInterface.sol\":8263:8276  tokenToUseNow */\n      dup5\n        /* \"RouterInterface.sol\":8278:8293  amountToDeposit */\n      dup5\n        /* \"RouterInterface.sol\":8224:8237  depositToPool */\n      tag_173\n        /* \"RouterInterface.sol\":8224:8294  depositToPool(msg.sender, poolAddress, tokenToUseNow, amountToDeposit) */\n      jump\t// in\n    tag_318:\n        /* \"RouterInterface.sol\":8309:8360  deposited(msg.sender, poolAddress, amountToDeposit) */\n      0x40\n      dup1\n      mload\n        /* \"RouterInterface.sol\":8319:8329  msg.sender */\n      caller\n        /* \"#utility.yul\":6723:6757   */\n      dup2\n      mstore\n      sub(shl(0xa0, 0x01), 0x01)\n        /* \"#utility.yul\":6793:6808   */\n      dup6\n      and\n        /* \"#utility.yul\":6788:6790   */\n      0x20\n        /* \"#utility.yul\":6773:6791   */\n      dup3\n      add\n        /* \"#utility.yul\":6766:6809   */\n      mstore\n        /* \"#utility.yul\":6825:6843   */\n      swap1\n      dup2\n      add\n        /* \"#utility.yul\":6818:6852   */\n      dup3\n      swap1\n      mstore\n        /* \"RouterInterface.sol\":8309:8360  deposited(msg.sender, poolAddress, amountToDeposit) */\n      0x8fa12fdef5e29f599717a6d129ca52c2d8a902498312eab6a78c6090b8e8e0\n      swap1\n        /* \"#utility.yul\":6673:6675   */\n      0x60\n        /* \"#utility.yul\":6658:6676   */\n      add\n        /* \"RouterInterface.sol\":8309:8360  deposited(msg.sender, poolAddress, amountToDeposit) */\n      mload(0x40)\n      dup1\n      swap2\n      sub\n      swap1\n      log1\n      pop\n      pop\n        /* \"RouterInterface.sol\":2633:2634  0 */\n      0x00\n        /* \"RouterInterface.sol\":2624:2634  status = 0 */\n      dup1\n      sstore\n      pop\n      pop\n      pop\n      pop\n      pop\n      pop\n        /* \"RouterInterface.sol\":7875:8367  function deposit(uint256 poolID, uint256 amount) external validPoolID(poolID) nonReentrant{... */\n      jump\t// out\n        /* \"RouterInterface.sol\":3160:3294  function changeRegistryContractAddr(address registryAddress) external onlyOwner{... */\n    tag_121:\n        /* \"RouterInterface.sol\":2231:2247  registryContract */\n      sload(0x02)\n        /* \"RouterInterface.sol\":2217:2259  IRoleRegistry(registryContract).getOwner() */\n      0x40\n      dup1\n      mload\n      shl(0xe3, 0x1127a41d)\n      dup2\n      mstore\n      swap1\n      mload\n        /* \"RouterInterface.sol\":2202:2214  address role */\n      0x00\n      swap3\n      sub(shl(0xa0, 0x01), 0x01)\n        /* \"RouterInterface.sol\":2231:2247  registryContract */\n      and\n      swap2\n        /* \"RouterInterface.sol\":2217:2257  IRoleRegistry(registryContract).getOwner */\n      0x893d20e8\n      swap2\n        /* \"RouterInterface.sol\":2217:2259  IRoleRegistry(registryContract).getOwner() */\n      0x04\n      dup1\n      dup4\n      add\n      swap3\n      0x20\n      swap3\n      swap2\n      swap1\n      dup3\n      swap1\n      sub\n      add\n      dup2\n        /* \"RouterInterface.sol\":2231:2247  registryContract */\n      dup7\n        /* \"RouterInterface.sol\":2217:2259  IRoleRegistry(registryContract).getOwner() */\n      gas\n      staticcall\n      iszero\n      dup1\n      iszero\n      tag_322\n      jumpi\n      returndatasize\n      0x00\n      dup1\n      returndatacopy\n      revert(0x00, returndatasize)\n    tag_322:\n      pop\n      pop\n      pop\n      pop\n      mload(0x40)\n      returndatasize\n      not(0x1f)\n      0x1f\n      dup3\n      add\n      and\n      dup3\n      add\n      dup1\n      0x40\n      mstore\n      pop\n      dup2\n      add\n      swap1\n      tag_323\n      swap2\n      swap1\n      tag_139\n      jump\t// in\n    tag_323:\n        /* \"RouterInterface.sol\":2202:2259  address role = IRoleRegistry(registryContract).getOwner() */\n      swap1\n      pop\n        /* \"RouterInterface.sol\":2277:2287  msg.sender */\n      caller\n      sub(shl(0xa0, 0x01), 0x01)\n        /* \"RouterInterface.sol\":2277:2295  msg.sender == role */\n      dup3\n      and\n      eq\n        /* \"RouterInterface.sol\":2269:2314  require(msg.sender == role, \"Invalid caller\") */\n      tag_324\n      jumpi\n      mload(0x40)\n      shl(0xe5, 0x461bcd)\n      dup2\n      mstore\n      0x04\n      add\n      tag_141\n      swap1\n      tag_142\n      jump\t// in\n    tag_324:\n        /* \"RouterInterface.sol\":3249:3287  _transferRegistryAddr(registryAddress) */\n      tag_327\n        /* \"RouterInterface.sol\":3271:3286  registryAddress */\n      dup3\n        /* \"RouterInterface.sol\":3249:3270  _transferRegistryAddr */\n      tag_292\n        /* \"RouterInterface.sol\":3249:3287  _transferRegistryAddr(registryAddress) */\n      jump\t// in\n    tag_327:\n        /* \"RouterInterface.sol\":2192:2332  {... */\n      pop\n        /* \"RouterInterface.sol\":3160:3294  function changeRegistryContractAddr(address registryAddress) external onlyOwner{... */\n      pop\n      jump\t// out\n        /* \"RouterInterface.sol\":4734:5290  function getUserDepositInfo(uint256 poolID, address user) external validPoolID(poolID) view returns(userInfo memory){... */\n    tag_126:\n        /* \"RouterInterface.sol\":4834:4849  userInfo memory */\n      tag_328\n      mload(0x40)\n      dup1\n      0x80\n      add\n      0x40\n      mstore\n      dup1\n      and(sub(shl(0xa0, 0x01), 0x01), 0x00)\n      dup2\n      mstore\n      0x20\n      add\n      0x00\n      dup2\n      mstore\n      0x20\n      add\n      0x00\n      dup2\n      mstore\n      0x20\n      add\n      0x00\n      dup2\n      mstore\n      pop\n      swap1\n      jump\n    tag_328:\n        /* \"RouterInterface.sol\":2713:2723  PoolDetail */\n      0x01\n        /* \"RouterInterface.sol\":2713:2730  PoolDetail.length */\n      dup1\n      sload\n        /* \"RouterInterface.sol\":4813:4819  poolID */\n      dup5\n      swap2\n        /* \"RouterInterface.sol\":2758:2775  poolLength.sub(1) */\n      tag_331\n      swap1\n        /* \"RouterInterface.sol\":2713:2730  PoolDetail.length */\n      dup3\n      swap1\n        /* \"RouterInterface.sol\":2758:2772  poolLength.sub */\n      tag_146\n        /* \"RouterInterface.sol\":2758:2775  poolLength.sub(1) */\n      jump\t// in\n    tag_331:\n        /* \"RouterInterface.sol\":2748:2754  poolID */\n      dup3\n        /* \"RouterInterface.sol\":2748:2775  poolID <= poolLength.sub(1) */\n      gt\n      iszero\n        /* \"RouterInterface.sol\":2740:2798  require(poolID <= poolLength.sub(1), \"Pool doesn't exist\") */\n      tag_332\n      jumpi\n      mload(0x40)\n      shl(0xe5, 0x461bcd)\n      dup2\n      mstore\n      0x04\n      add\n      tag_141\n      swap1\n      tag_149\n      jump\t// in\n    tag_332:\n        /* \"RouterInterface.sol\":4860:4879  address poolAddress */\n      0x00\n        /* \"RouterInterface.sol\":4882:4904  getPoolDetails(poolID) */\n      tag_335\n        /* \"RouterInterface.sol\":4897:4903  poolID */\n      dup7\n        /* \"RouterInterface.sol\":4882:4896  getPoolDetails */\n      tag_92\n        /* \"RouterInterface.sol\":4882:4904  getPoolDetails(poolID) */\n      jump\t// in\n    tag_335:\n        /* \"RouterInterface.sol\":4882:4916  getPoolDetails(poolID).PoolAddress */\n      mload\n        /* \"RouterInterface.sol\":4951:5260  userInfo({... */\n      0x40\n      dup1\n      mload\n      0x80\n      dup2\n      add\n      dup3\n      mstore\n      sub(shl(0xa0, 0x01), 0x01)\n      dup1\n      dup10\n      and\n      dup1\n      dup4\n      mstore\n        /* \"RouterInterface.sol\":5012:5061  IMutualPool(poolAddress).getUserDepositInfo(user) */\n      swap3\n      mload\n      shl(0xe0, 0xb3a7834d)\n      dup2\n      mstore\n      0x04\n      dup2\n      add\n        /* \"#utility.yul\":7477:7528   */\n      swap4\n      swap1\n      swap4\n      mstore\n        /* \"RouterInterface.sol\":4882:4916  getPoolDetails(poolID).PoolAddress */\n      swap3\n      swap4\n      pop\n      0x00\n      swap3\n        /* \"RouterInterface.sol\":4951:5260  userInfo({... */\n      swap1\n      swap2\n      0x20\n      dup4\n      add\n      swap2\n        /* \"RouterInterface.sol\":5012:5055  IMutualPool(poolAddress).getUserDepositInfo */\n      dup6\n      and\n      swap1\n      0xb3a7834d\n      swap1\n        /* \"#utility.yul\":7450:7468   */\n      0x24\n      add\n        /* \"RouterInterface.sol\":5012:5061  IMutualPool(poolAddress).getUserDepositInfo(user) */\n      0x80\n      mload(0x40)\n      dup1\n      dup4\n      sub\n      dup2\n      dup7\n      gas\n      staticcall\n      iszero\n      dup1\n      iszero\n      tag_338\n      jumpi\n      returndatasize\n      0x00\n      dup1\n      returndatacopy\n      revert(0x00, returndatasize)\n    tag_338:\n      pop\n      pop\n      pop\n      pop\n      mload(0x40)\n      returndatasize\n      not(0x1f)\n      0x1f\n      dup3\n      add\n      and\n      dup3\n      add\n      dup1\n      0x40\n      mstore\n      pop\n      dup2\n      add\n      swap1\n      tag_339\n      swap2\n      swap1\n      tag_340\n      jump\t// in\n    tag_339:\n        /* \"RouterInterface.sol\":5012:5075  IMutualPool(poolAddress).getUserDepositInfo(user).DepositAmount */\n      0x20\n      swap1\n      dup2\n      add\n      mload\n        /* \"RouterInterface.sol\":4951:5260  userInfo({... */\n      dup3\n      mstore\n        /* \"RouterInterface.sol\":5101:5150  IMutualPool(poolAddress).getUserDepositInfo(user) */\n      mload(0x40)\n      shl(0xe0, 0xb3a7834d)\n      dup2\n      mstore\n      sub(shl(0xa0, 0x01), 0x01)\n        /* \"#utility.yul\":7495:7527   */\n      dup11\n      dup2\n      and\n        /* \"RouterInterface.sol\":5101:5150  IMutualPool(poolAddress).getUserDepositInfo(user) */\n      0x04\n      dup4\n      add\n        /* \"#utility.yul\":7477:7528   */\n      mstore\n        /* \"RouterInterface.sol\":4951:5260  userInfo({... */\n      swap3\n      swap1\n      swap2\n      add\n      swap2\n        /* \"RouterInterface.sol\":5101:5144  IMutualPool(poolAddress).getUserDepositInfo */\n      dup6\n      and\n      swap1\n      0xb3a7834d\n      swap1\n        /* \"#utility.yul\":7450:7468   */\n      0x24\n      add\n        /* \"RouterInterface.sol\":5101:5150  IMutualPool(poolAddress).getUserDepositInfo(user) */\n      0x80\n      mload(0x40)\n      dup1\n      dup4\n      sub\n      dup2\n      dup7\n      gas\n      staticcall\n      iszero\n      dup1\n      iszero\n      tag_343\n      jumpi\n      returndatasize\n      0x00\n      dup1\n      returndatacopy\n      revert(0x00, returndatasize)\n    tag_343:\n      pop\n      pop\n      pop\n      pop\n      mload(0x40)\n      returndatasize\n      not(0x1f)\n      0x1f\n      dup3\n      add\n      and\n      dup3\n      add\n      dup1\n      0x40\n      mstore\n      pop\n      dup2\n      add\n      swap1\n      tag_344\n      swap2\n      swap1\n      tag_340\n      jump\t// in\n    tag_344:\n        /* \"RouterInterface.sol\":5101:5165  IMutualPool(poolAddress).getUserDepositInfo(user).registeredDate */\n      0x40\n      swap1\n      dup2\n      add\n      mload\n        /* \"RouterInterface.sol\":4951:5260  userInfo({... */\n      dup3\n      mstore\n        /* \"RouterInterface.sol\":5188:5237  IMutualPool(poolAddress).getUserDepositInfo(user) */\n      mload\n      shl(0xe0, 0xb3a7834d)\n      dup2\n      mstore\n      sub(shl(0xa0, 0x01), 0x01)\n        /* \"#utility.yul\":7495:7527   */\n      dup10\n      dup2\n      and\n        /* \"RouterInterface.sol\":5188:5237  IMutualPool(poolAddress).getUserDepositInfo(user) */\n      0x04\n      dup4\n      add\n        /* \"#utility.yul\":7477:7528   */\n      mstore\n        /* \"RouterInterface.sol\":4951:5260  userInfo({... */\n      0x20\n      swap1\n      swap3\n      add\n      swap2\n        /* \"RouterInterface.sol\":5188:5231  IMutualPool(poolAddress).getUserDepositInfo */\n      dup6\n      and\n      swap1\n      0xb3a7834d\n      swap1\n        /* \"#utility.yul\":7450:7468   */\n      0x24\n      add\n        /* \"RouterInterface.sol\":5188:5237  IMutualPool(poolAddress).getUserDepositInfo(user) */\n      0x80\n      mload(0x40)\n      dup1\n      dup4\n      sub\n      dup2\n      dup7\n      gas\n      staticcall\n      iszero\n      dup1\n      iszero\n      tag_347\n      jumpi\n      returndatasize\n      0x00\n      dup1\n      returndatacopy\n      revert(0x00, returndatasize)\n    tag_347:\n      pop\n      pop\n      pop\n      pop\n      mload(0x40)\n      returndatasize\n      not(0x1f)\n      0x1f\n      dup3\n      add\n      and\n      dup3\n      add\n      dup1\n      0x40\n      mstore\n      pop\n      dup2\n      add\n      swap1\n      tag_348\n      swap2\n      swap1\n      tag_340\n      jump\t// in\n    tag_348:\n        /* \"RouterInterface.sol\":5188:5249  IMutualPool(poolAddress).getUserDepositInfo(user).Lastupdated */\n      0x60\n      add\n      mload\n        /* \"RouterInterface.sol\":4951:5260  userInfo({... */\n      swap1\n      mstore\n        /* \"RouterInterface.sol\":4926:5260  userInfo memory result = userInfo({... */\n      swap8\n        /* \"RouterInterface.sol\":4734:5290  function getUserDepositInfo(uint256 poolID, address user) external validPoolID(poolID) view returns(userInfo memory){... */\n      swap7\n      pop\n      pop\n      pop\n      pop\n      pop\n      pop\n      pop\n      jump\t// out\n        /* \"RouterInterface.sol\":5892:7754  function getPoolDrawInfo(uint256 epochNumber,uint256 poolID) external validPoolID(poolID) view returns(EpochResult memory){... */\n    tag_132:\n      0x40\n      dup1\n      mload\n      0x0160\n      dup2\n      add\n      dup3\n      mstore\n      0x00\n      0x0100\n      dup3\n      add\n      dup2\n      dup2\n      mstore\n      0x0120\n      dup4\n      add\n      dup3\n      swap1\n      mstore\n      0x0140\n      dup4\n      add\n      dup3\n      swap1\n      mstore\n      dup3\n      mstore\n      dup3\n      mload\n      0x60\n      dup1\n      dup3\n      add\n      dup6\n      mstore\n      dup3\n      dup3\n      mstore\n      0x20\n      dup1\n      dup4\n      add\n      dup5\n      swap1\n      mstore\n      dup3\n      dup7\n      add\n      dup5\n      swap1\n      mstore\n      dup1\n      dup6\n      add\n      swap3\n      swap1\n      swap3\n      mstore\n      dup5\n      mload\n      dup1\n      dup3\n      add\n      dup7\n      mstore\n      dup4\n      dup2\n      mstore\n      swap2\n      dup3\n      add\n      dup4\n      swap1\n      mstore\n      dup2\n      dup6\n      add\n      dup4\n      swap1\n      mstore\n      swap4\n      dup4\n      add\n      mstore\n      swap2\n      dup2\n      add\n      dup3\n      swap1\n      mstore\n      0x80\n      dup2\n      add\n      dup3\n      swap1\n      mstore\n      0xa0\n      dup2\n      add\n      dup3\n      swap1\n      mstore\n      0xc0\n      dup2\n      add\n      dup3\n      swap1\n      mstore\n      0xe0\n      dup2\n      add\n      swap2\n      swap1\n      swap2\n      mstore\n        /* \"RouterInterface.sol\":2713:2723  PoolDetail */\n      0x01\n        /* \"RouterInterface.sol\":2713:2730  PoolDetail.length */\n      dup1\n      sload\n        /* \"RouterInterface.sol\":5974:5980  poolID */\n      dup4\n      swap2\n        /* \"RouterInterface.sol\":2758:2775  poolLength.sub(1) */\n      tag_352\n      swap1\n        /* \"RouterInterface.sol\":2713:2730  PoolDetail.length */\n      dup3\n      swap1\n        /* \"RouterInterface.sol\":2758:2772  poolLength.sub */\n      tag_146\n        /* \"RouterInterface.sol\":2758:2775  poolLength.sub(1) */\n      jump\t// in\n    tag_352:\n        /* \"RouterInterface.sol\":2748:2754  poolID */\n      dup3\n        /* \"RouterInterface.sol\":2748:2775  poolID <= poolLength.sub(1) */\n      gt\n      iszero\n        /* \"RouterInterface.sol\":2740:2798  require(poolID <= poolLength.sub(1), \"Pool doesn't exist\") */\n      tag_353\n      jumpi\n      mload(0x40)\n      shl(0xe5, 0x461bcd)\n      dup2\n      mstore\n      0x04\n      add\n      tag_141\n      swap1\n      tag_149\n      jump\t// in\n    tag_353:\n        /* \"RouterInterface.sol\":6024:6043  address poolAddress */\n      0x00\n        /* \"RouterInterface.sol\":6046:6068  getPoolDetails(poolID) */\n      tag_356\n        /* \"RouterInterface.sol\":6061:6067  poolID */\n      dup6\n        /* \"RouterInterface.sol\":6046:6060  getPoolDetails */\n      tag_92\n        /* \"RouterInterface.sol\":6046:6068  getPoolDetails(poolID) */\n      jump\t// in\n    tag_356:\n        /* \"RouterInterface.sol\":6046:6080  getPoolDetails(poolID).PoolAddress */\n      mload\n        /* \"RouterInterface.sol\":6126:6419  PrizeDetails({... */\n      0x40\n      dup1\n      mload\n      0x60\n      dup2\n      add\n      swap2\n      dup3\n      swap1\n      mstore\n      shl(0xe1, 0x09a81161)\n        /* \"RouterInterface.sol\":6161:6211  IMutualPool(poolAddress).getEpochInfo(epochNumber) */\n      swap1\n      swap2\n      mstore\n      0x64\n      dup2\n      add\n        /* \"#utility.yul\":2057:2082   */\n      dup9\n      swap1\n      mstore\n        /* \"RouterInterface.sol\":6046:6080  getPoolDetails(poolID).PoolAddress */\n      swap1\n      swap2\n      pop\n      0x00\n      swap1\n        /* \"RouterInterface.sol\":6126:6419  PrizeDetails({... */\n      dup1\n      sub(shl(0xa0, 0x01), 0x01)\n        /* \"RouterInterface.sol\":6161:6198  IMutualPool(poolAddress).getEpochInfo */\n      dup5\n      and\n      0x135022c2\n        /* \"#utility.yul\":2030:2048   */\n      0x84\n      dup4\n      add\n        /* \"RouterInterface.sol\":6161:6211  IMutualPool(poolAddress).getEpochInfo(epochNumber) */\n      0x01c0\n      mload(0x40)\n      dup1\n      dup4\n      sub\n      dup2\n      dup7\n      gas\n      staticcall\n      iszero\n      dup1\n      iszero\n      tag_359\n      jumpi\n      returndatasize\n      0x00\n      dup1\n      returndatacopy\n      revert(0x00, returndatasize)\n    tag_359:\n      pop\n      pop\n      pop\n      pop\n      mload(0x40)\n      returndatasize\n      not(0x1f)\n      0x1f\n      dup3\n      add\n      and\n      dup3\n      add\n      dup1\n      0x40\n      mstore\n      pop\n      dup2\n      add\n      swap1\n      tag_360\n      swap2\n      swap1\n      tag_361\n      jump\t// in\n    tag_360:\n        /* \"RouterInterface.sol\":6161:6217  IMutualPool(poolAddress).getEpochInfo(epochNumber).first */\n      mload\n        /* \"RouterInterface.sol\":6161:6224  IMutualPool(poolAddress).getEpochInfo(epochNumber).first.winner */\n      mload\n      sub(shl(0xa0, 0x01), 0x01)\n        /* \"RouterInterface.sol\":6126:6419  PrizeDetails({... */\n      swap1\n      dup2\n      and\n      dup3\n      mstore\n        /* \"RouterInterface.sol\":6252:6302  IMutualPool(poolAddress).getEpochInfo(epochNumber) */\n      mload(0x40)\n      shl(0xe1, 0x09a81161)\n      dup2\n      mstore\n      0x04\n      dup2\n      add\n        /* \"#utility.yul\":2057:2082   */\n      dup12\n      swap1\n      mstore\n        /* \"RouterInterface.sol\":6126:6419  PrizeDetails({... */\n      0x20\n      swap1\n      swap3\n      add\n      swap2\n        /* \"RouterInterface.sol\":6252:6289  IMutualPool(poolAddress).getEpochInfo */\n      swap1\n      dup6\n      and\n      swap1\n      0x135022c2\n      swap1\n        /* \"#utility.yul\":2030:2048   */\n      0x24\n      add\n        /* \"RouterInterface.sol\":6252:6302  IMutualPool(poolAddress).getEpochInfo(epochNumber) */\n      0x01c0\n      mload(0x40)\n      dup1\n      dup4\n      sub\n      dup2\n      dup7\n      gas\n      staticcall\n      iszero\n      dup1\n      iszero\n      tag_364\n      jumpi\n      returndatasize\n      0x00\n      dup1\n      returndatacopy\n      revert(0x00, returndatasize)\n    tag_364:\n      pop\n      pop\n      pop\n      pop\n      mload(0x40)\n      returndatasize\n      not(0x1f)\n      0x1f\n      dup3\n      add\n      and\n      dup3\n      add\n      dup1\n      0x40\n      mstore\n      pop\n      dup2\n      add\n      swap1\n      tag_365\n      swap2\n      swap1\n      tag_361\n      jump\t// in\n    tag_365:\n        /* \"RouterInterface.sol\":6252:6308  IMutualPool(poolAddress).getEpochInfo(epochNumber).first */\n      mload\n        /* \"RouterInterface.sol\":6252:6320  IMutualPool(poolAddress).getEpochInfo(epochNumber).first.prizeAmount */\n      0x20\n      swap1\n      dup2\n      add\n      mload\n        /* \"RouterInterface.sol\":6126:6419  PrizeDetails({... */\n      dup3\n      mstore\n        /* \"RouterInterface.sol\":6344:6394  IMutualPool(poolAddress).getEpochInfo(epochNumber) */\n      mload(0x40)\n      shl(0xe1, 0x09a81161)\n      dup2\n      mstore\n      0x04\n      dup2\n      add\n        /* \"#utility.yul\":2057:2082   */\n      dup12\n      swap1\n      mstore\n        /* \"RouterInterface.sol\":6126:6419  PrizeDetails({... */\n      swap2\n      add\n      swap1\n      sub(shl(0xa0, 0x01), 0x01)\n        /* \"RouterInterface.sol\":6344:6381  IMutualPool(poolAddress).getEpochInfo */\n      dup6\n      and\n      swap1\n      0x135022c2\n      swap1\n        /* \"#utility.yul\":2030:2048   */\n      0x24\n      add\n        /* \"RouterInterface.sol\":6344:6394  IMutualPool(poolAddress).getEpochInfo(epochNumber) */\n      0x01c0\n      mload(0x40)\n      dup1\n      dup4\n      sub\n      dup2\n      dup7\n      gas\n      staticcall\n      iszero\n      dup1\n      iszero\n      tag_368\n      jumpi\n      returndatasize\n      0x00\n      dup1\n      returndatacopy\n      revert(0x00, returndatasize)\n    tag_368:\n      pop\n      pop\n      pop\n      pop\n      mload(0x40)\n      returndatasize\n      not(0x1f)\n      0x1f\n      dup3\n      add\n      and\n      dup3\n      add\n      dup1\n      0x40\n      mstore\n      pop\n      dup2\n      add\n      swap1\n      tag_369\n      swap2\n      swap1\n      tag_361\n      jump\t// in\n    tag_369:\n        /* \"RouterInterface.sol\":6344:6400  IMutualPool(poolAddress).getEpochInfo(epochNumber).first */\n      mload\n        /* \"RouterInterface.sol\":6344:6408  IMutualPool(poolAddress).getEpochInfo(epochNumber).first.claimed */\n      0x40\n      swap1\n      dup2\n      add\n      mload\n        /* \"RouterInterface.sol\":6126:6419  PrizeDetails({... */\n      iszero\n      iszero\n      swap1\n      swap2\n      mstore\n        /* \"RouterInterface.sol\":6465:6761  PrizeDetails({... */\n      dup1\n      mload\n      0x60\n      dup2\n      add\n      swap2\n      dup3\n      swap1\n      mstore\n      shl(0xe1, 0x09a81161)\n        /* \"RouterInterface.sol\":6500:6550  IMutualPool(poolAddress).getEpochInfo(epochNumber) */\n      swap1\n      swap2\n      mstore\n      0x64\n      dup2\n      add\n        /* \"#utility.yul\":2057:2082   */\n      dup10\n      swap1\n      mstore\n        /* \"RouterInterface.sol\":6091:6419  PrizeDetails memory firstDetails = PrizeDetails({... */\n      swap1\n      swap2\n      pop\n      0x00\n      swap1\n        /* \"RouterInterface.sol\":6465:6761  PrizeDetails({... */\n      dup1\n      sub(shl(0xa0, 0x01), 0x01)\n        /* \"RouterInterface.sol\":6500:6537  IMutualPool(poolAddress).getEpochInfo */\n      dup6\n      and\n      0x135022c2\n        /* \"#utility.yul\":2030:2048   */\n      0x84\n      dup4\n      add\n        /* \"RouterInterface.sol\":6500:6550  IMutualPool(poolAddress).getEpochInfo(epochNumber) */\n      0x01c0\n      mload(0x40)\n      dup1\n      dup4\n      sub\n      dup2\n      dup7\n      gas\n      staticcall\n      iszero\n      dup1\n      iszero\n      tag_372\n      jumpi\n      returndatasize\n      0x00\n      dup1\n      returndatacopy\n      revert(0x00, returndatasize)\n    tag_372:\n      pop\n      pop\n      pop\n      pop\n      mload(0x40)\n      returndatasize\n      not(0x1f)\n      0x1f\n      dup3\n      add\n      and\n      dup3\n      add\n      dup1\n      0x40\n      mstore\n      pop\n      dup2\n      add\n      swap1\n      tag_373\n      swap2\n      swap1\n      tag_361\n      jump\t// in\n    tag_373:\n        /* \"RouterInterface.sol\":6500:6557  IMutualPool(poolAddress).getEpochInfo(epochNumber).second */\n      0x20\n      add\n      mload\n        /* \"RouterInterface.sol\":6500:6564  IMutualPool(poolAddress).getEpochInfo(epochNumber).second.winner */\n      0x00\n      add\n      mload\n      sub(shl(0xa0, 0x01), 0x01)\n        /* \"RouterInterface.sol\":6465:6761  PrizeDetails({... */\n      and\n      dup2\n      mstore\n      0x20\n      add\n        /* \"RouterInterface.sol\":6604:6615  poolAddress */\n      dup5\n      sub(shl(0xa0, 0x01), 0x01)\n        /* \"RouterInterface.sol\":6592:6629  IMutualPool(poolAddress).getEpochInfo */\n      and\n      0x135022c2\n        /* \"RouterInterface.sol\":6630:6641  epochNumber */\n      dup12\n        /* \"RouterInterface.sol\":6592:6642  IMutualPool(poolAddress).getEpochInfo(epochNumber) */\n      mload(0x40)\n      dup3\n      0xffffffff\n      and\n      0xe0\n      shl\n      dup2\n      mstore\n      0x04\n      add\n      tag_374\n      swap2\n        /* \"#utility.yul\":2057:2082   */\n      dup2\n      mstore\n        /* \"#utility.yul\":2045:2047   */\n      0x20\n        /* \"#utility.yul\":2030:2048   */\n      add\n      swap1\n        /* \"#utility.yul\":1911:2088   */\n      jump\n        /* \"RouterInterface.sol\":6592:6642  IMutualPool(poolAddress).getEpochInfo(epochNumber) */\n    tag_374:\n      0x01c0\n      mload(0x40)\n      dup1\n      dup4\n      sub\n      dup2\n      dup7\n      gas\n      staticcall\n      iszero\n      dup1\n      iszero\n      tag_376\n      jumpi\n      returndatasize\n      0x00\n      dup1\n      returndatacopy\n      revert(0x00, returndatasize)\n    tag_376:\n      pop\n      pop\n      pop\n      pop\n      mload(0x40)\n      returndatasize\n      not(0x1f)\n      0x1f\n      dup3\n      add\n      and\n      dup3\n      add\n      dup1\n      0x40\n      mstore\n      pop\n      dup2\n      add\n      swap1\n      tag_377\n      swap2\n      swap1\n      tag_361\n      jump\t// in\n    tag_377:\n        /* \"RouterInterface.sol\":6592:6649  IMutualPool(poolAddress).getEpochInfo(epochNumber).second */\n      0x20\n      add\n      mload\n        /* \"RouterInterface.sol\":6592:6661  IMutualPool(poolAddress).getEpochInfo(epochNumber).second.prizeAmount */\n      0x20\n      add\n      mload\n        /* \"RouterInterface.sol\":6465:6761  PrizeDetails({... */\n      dup2\n      mstore\n      0x20\n      add\n        /* \"RouterInterface.sol\":6697:6708  poolAddress */\n      dup5\n      sub(shl(0xa0, 0x01), 0x01)\n        /* \"RouterInterface.sol\":6685:6722  IMutualPool(poolAddress).getEpochInfo */\n      and\n      0x135022c2\n        /* \"RouterInterface.sol\":6723:6734  epochNumber */\n      dup12\n        /* \"RouterInterface.sol\":6685:6735  IMutualPool(poolAddress).getEpochInfo(epochNumber) */\n      mload(0x40)\n      dup3\n      0xffffffff\n      and\n      0xe0\n      shl\n      dup2\n      mstore\n      0x04\n      add\n      tag_378\n      swap2\n        /* \"#utility.yul\":2057:2082   */\n      dup2\n      mstore\n        /* \"#utility.yul\":2045:2047   */\n      0x20\n        /* \"#utility.yul\":2030:2048   */\n      add\n      swap1\n        /* \"#utility.yul\":1911:2088   */\n      jump\n        /* \"RouterInterface.sol\":6685:6735  IMutualPool(poolAddress).getEpochInfo(epochNumber) */\n    tag_378:\n      0x01c0\n      mload(0x40)\n      dup1\n      dup4\n      sub\n      dup2\n      dup7\n      gas\n      staticcall\n      iszero\n      dup1\n      iszero\n      tag_380\n      jumpi\n      returndatasize\n      0x00\n      dup1\n      returndatacopy\n      revert(0x00, returndatasize)\n    tag_380:\n      pop\n      pop\n      pop\n      pop\n      mload(0x40)\n      returndatasize\n      not(0x1f)\n      0x1f\n      dup3\n      add\n      and\n      dup3\n      add\n      dup1\n      0x40\n      mstore\n      pop\n      dup2\n      add\n      swap1\n      tag_381\n      swap2\n      swap1\n      tag_361\n      jump\t// in\n    tag_381:\n        /* \"RouterInterface.sol\":6685:6742  IMutualPool(poolAddress).getEpochInfo(epochNumber).second */\n      0x20\n      add\n      mload\n        /* \"RouterInterface.sol\":6685:6750  IMutualPool(poolAddress).getEpochInfo(epochNumber).second.claimed */\n      0x40\n      add\n      mload\n        /* \"RouterInterface.sol\":6465:6761  PrizeDetails({... */\n      iszero\n      iszero\n      dup2\n      mstore\n      pop\n        /* \"RouterInterface.sol\":6429:6761  PrizeDetails memory secondDetails = PrizeDetails({... */\n      swap1\n      pop\n        /* \"RouterInterface.sol\":6771:6803  PrizeDetails memory thirdDetails */\n      0x00\n        /* \"RouterInterface.sol\":6806:7099  PrizeDetails({... */\n      mload(0x40)\n      dup1\n      0x60\n      add\n      0x40\n      mstore\n      dup1\n        /* \"RouterInterface.sol\":6853:6864  poolAddress */\n      dup6\n      sub(shl(0xa0, 0x01), 0x01)\n        /* \"RouterInterface.sol\":6841:6878  IMutualPool(poolAddress).getEpochInfo */\n      and\n      0x135022c2\n        /* \"RouterInterface.sol\":6879:6890  epochNumber */\n      dup13\n        /* \"RouterInterface.sol\":6841:6891  IMutualPool(poolAddress).getEpochInfo(epochNumber) */\n      mload(0x40)\n      dup3\n      0xffffffff\n      and\n      0xe0\n      shl\n      dup2\n      mstore\n      0x04\n      add\n      tag_382\n      swap2\n        /* \"#utility.yul\":2057:2082   */\n      dup2\n      mstore\n        /* \"#utility.yul\":2045:2047   */\n      0x20\n        /* \"#utility.yul\":2030:2048   */\n      add\n      swap1\n        /* \"#utility.yul\":1911:2088   */\n      jump\n        /* \"RouterInterface.sol\":6841:6891  IMutualPool(poolAddress).getEpochInfo(epochNumber) */\n    tag_382:\n      0x01c0\n      mload(0x40)\n      dup1\n      dup4\n      sub\n      dup2\n      dup7\n      gas\n      staticcall\n      iszero\n      dup1\n      iszero\n      tag_384\n      jumpi\n      returndatasize\n      0x00\n      dup1\n      returndatacopy\n      revert(0x00, returndatasize)\n    tag_384:\n      pop\n      pop\n      pop\n      pop\n      mload(0x40)\n      returndatasize\n      not(0x1f)\n      0x1f\n      dup3\n      add\n      and\n      dup3\n      add\n      dup1\n      0x40\n      mstore\n      pop\n      dup2\n      add\n      swap1\n      tag_385\n      swap2\n      swap1\n      tag_361\n      jump\t// in\n    tag_385:\n        /* \"RouterInterface.sol\":6841:6897  IMutualPool(poolAddress).getEpochInfo(epochNumber).third */\n      0x40\n      add\n      mload\n        /* \"RouterInterface.sol\":6841:6904  IMutualPool(poolAddress).getEpochInfo(epochNumber).third.winner */\n      0x00\n      add\n      mload\n      sub(shl(0xa0, 0x01), 0x01)\n        /* \"RouterInterface.sol\":6806:7099  PrizeDetails({... */\n      and\n      dup2\n      mstore\n      0x20\n      add\n        /* \"RouterInterface.sol\":6944:6955  poolAddress */\n      dup6\n      sub(shl(0xa0, 0x01), 0x01)\n        /* \"RouterInterface.sol\":6932:6969  IMutualPool(poolAddress).getEpochInfo */\n      and\n      0x135022c2\n        /* \"RouterInterface.sol\":6970:6981  epochNumber */\n      dup13\n        /* \"RouterInterface.sol\":6932:6982  IMutualPool(poolAddress).getEpochInfo(epochNumber) */\n      mload(0x40)\n      dup3\n      0xffffffff\n      and\n      0xe0\n      shl\n      dup2\n      mstore\n      0x04\n      add\n      tag_386\n      swap2\n        /* \"#utility.yul\":2057:2082   */\n      dup2\n      mstore\n        /* \"#utility.yul\":2045:2047   */\n      0x20\n        /* \"#utility.yul\":2030:2048   */\n      add\n      swap1\n        /* \"#utility.yul\":1911:2088   */\n      jump\n        /* \"RouterInterface.sol\":6932:6982  IMutualPool(poolAddress).getEpochInfo(epochNumber) */\n    tag_386:\n      0x01c0\n      mload(0x40)\n      dup1\n      dup4\n      sub\n      dup2\n      dup7\n      gas\n      staticcall\n      iszero\n      dup1\n      iszero\n      tag_388\n      jumpi\n      returndatasize\n      0x00\n      dup1\n      returndatacopy\n      revert(0x00, returndatasize)\n    tag_388:\n      pop\n      pop\n      pop\n      pop\n      mload(0x40)\n      returndatasize\n      not(0x1f)\n      0x1f\n      dup3\n      add\n      and\n      dup3\n      add\n      dup1\n      0x40\n      mstore\n      pop\n      dup2\n      add\n      swap1\n      tag_389\n      swap2\n      swap1\n      tag_361\n      jump\t// in\n    tag_389:\n        /* \"RouterInterface.sol\":6932:6988  IMutualPool(poolAddress).getEpochInfo(epochNumber).third */\n      0x40\n      add\n      mload\n        /* \"RouterInterface.sol\":6932:7000  IMutualPool(poolAddress).getEpochInfo(epochNumber).third.prizeAmount */\n      0x20\n      add\n      mload\n        /* \"RouterInterface.sol\":6806:7099  PrizeDetails({... */\n      dup2\n      mstore\n      0x20\n      add\n        /* \"RouterInterface.sol\":7036:7047  poolAddress */\n      dup6\n      sub(shl(0xa0, 0x01), 0x01)\n        /* \"RouterInterface.sol\":7024:7061  IMutualPool(poolAddress).getEpochInfo */\n      and\n      0x135022c2\n        /* \"RouterInterface.sol\":7062:7073  epochNumber */\n      dup13\n        /* \"RouterInterface.sol\":7024:7074  IMutualPool(poolAddress).getEpochInfo(epochNumber) */\n      mload(0x40)\n      dup3\n      0xffffffff\n      and\n      0xe0\n      shl\n      dup2\n      mstore\n      0x04\n      add\n      tag_390\n      swap2\n        /* \"#utility.yul\":2057:2082   */\n      dup2\n      mstore\n        /* \"#utility.yul\":2045:2047   */\n      0x20\n        /* \"#utility.yul\":2030:2048   */\n      add\n      swap1\n        /* \"#utility.yul\":1911:2088   */\n      jump\n        /* \"RouterInterface.sol\":7024:7074  IMutualPool(poolAddress).getEpochInfo(epochNumber) */\n    tag_390:\n      0x01c0\n      mload(0x40)\n      dup1\n      dup4\n      sub\n      dup2\n      dup7\n      gas\n      staticcall\n      iszero\n      dup1\n      iszero\n      tag_392\n      jumpi\n      returndatasize\n      0x00\n      dup1\n      returndatacopy\n      revert(0x00, returndatasize)\n    tag_392:\n      pop\n      pop\n      pop\n      pop\n      mload(0x40)\n      returndatasize\n      not(0x1f)\n      0x1f\n      dup3\n      add\n      and\n      dup3\n      add\n      dup1\n      0x40\n      mstore\n      pop\n      dup2\n      add\n      swap1\n      tag_393\n      swap2\n      swap1\n      tag_361\n      jump\t// in\n    tag_393:\n        /* \"RouterInterface.sol\":7024:7080  IMutualPool(poolAddress).getEpochInfo(epochNumber).third */\n      0x40\n      add\n      mload\n        /* \"RouterInterface.sol\":7024:7088  IMutualPool(poolAddress).getEpochInfo(epochNumber).third.claimed */\n      0x40\n      add\n      mload\n        /* \"RouterInterface.sol\":6806:7099  PrizeDetails({... */\n      iszero\n      iszero\n      dup2\n      mstore\n      pop\n        /* \"RouterInterface.sol\":6771:7099  PrizeDetails memory thirdDetails = PrizeDetails({... */\n      swap1\n      pop\n        /* \"RouterInterface.sol\":7110:7135  EpochResult memory result */\n      0x00\n        /* \"RouterInterface.sol\":7138:7715  EpochResult({... */\n      mload(0x40)\n      dup1\n      0x0100\n      add\n      0x40\n      mstore\n      dup1\n        /* \"RouterInterface.sol\":7171:7183  firstDetails */\n      dup6\n        /* \"RouterInterface.sol\":7138:7715  EpochResult({... */\n      dup2\n      mstore\n      0x20\n      add\n        /* \"RouterInterface.sol\":7205:7218  secondDetails */\n      dup5\n        /* \"RouterInterface.sol\":7138:7715  EpochResult({... */\n      dup2\n      mstore\n      0x20\n      add\n        /* \"RouterInterface.sol\":7239:7251  thirdDetails */\n      dup4\n        /* \"RouterInterface.sol\":7138:7715  EpochResult({... */\n      dup2\n      mstore\n      0x20\n      add\n        /* \"RouterInterface.sol\":7288:7299  poolAddress */\n      dup7\n      sub(shl(0xa0, 0x01), 0x01)\n        /* \"RouterInterface.sol\":7276:7313  IMutualPool(poolAddress).getEpochInfo */\n      and\n      0x135022c2\n        /* \"RouterInterface.sol\":7314:7325  epochNumber */\n      dup14\n        /* \"RouterInterface.sol\":7276:7326  IMutualPool(poolAddress).getEpochInfo(epochNumber) */\n      mload(0x40)\n      dup3\n      0xffffffff\n      and\n      0xe0\n      shl\n      dup2\n      mstore\n      0x04\n      add\n      tag_394\n      swap2\n        /* \"#utility.yul\":2057:2082   */\n      dup2\n      mstore\n        /* \"#utility.yul\":2045:2047   */\n      0x20\n        /* \"#utility.yul\":2030:2048   */\n      add\n      swap1\n        /* \"#utility.yul\":1911:2088   */\n      jump\n        /* \"RouterInterface.sol\":7276:7326  IMutualPool(poolAddress).getEpochInfo(epochNumber) */\n    tag_394:\n      0x01c0\n      mload(0x40)\n      dup1\n      dup4\n      sub\n      dup2\n      dup7\n      gas\n      staticcall\n      iszero\n      dup1\n      iszero\n      tag_396\n      jumpi\n      returndatasize\n      0x00\n      dup1\n      returndatacopy\n      revert(0x00, returndatasize)\n    tag_396:\n      pop\n      pop\n      pop\n      pop\n      mload(0x40)\n      returndatasize\n      not(0x1f)\n      0x1f\n      dup3\n      add\n      and\n      dup3\n      add\n      dup1\n      0x40\n      mstore\n      pop\n      dup2\n      add\n      swap1\n      tag_397\n      swap2\n      swap1\n      tag_361\n      jump\t// in\n    tag_397:\n        /* \"RouterInterface.sol\":7276:7336  IMutualPool(poolAddress).getEpochInfo(epochNumber).finalized */\n      0x60\n      add\n      mload\n        /* \"RouterInterface.sol\":7138:7715  EpochResult({... */\n      iszero\n      iszero\n      dup2\n      mstore\n      0x20\n      add\n        /* \"RouterInterface.sol\":7374:7385  poolAddress */\n      dup7\n      sub(shl(0xa0, 0x01), 0x01)\n        /* \"RouterInterface.sol\":7362:7399  IMutualPool(poolAddress).getEpochInfo */\n      and\n      0x135022c2\n        /* \"RouterInterface.sol\":7400:7411  epochNumber */\n      dup14\n        /* \"RouterInterface.sol\":7362:7412  IMutualPool(poolAddress).getEpochInfo(epochNumber) */\n      mload(0x40)\n      dup3\n      0xffffffff\n      and\n      0xe0\n      shl\n      dup2\n      mstore\n      0x04\n      add\n      tag_398\n      swap2\n        /* \"#utility.yul\":2057:2082   */\n      dup2\n      mstore\n        /* \"#utility.yul\":2045:2047   */\n      0x20\n        /* \"#utility.yul\":2030:2048   */\n      add\n      swap1\n        /* \"#utility.yul\":1911:2088   */\n      jump\n        /* \"RouterInterface.sol\":7362:7412  IMutualPool(poolAddress).getEpochInfo(epochNumber) */\n    tag_398:\n      0x01c0\n      mload(0x40)\n      dup1\n      dup4\n      sub\n      dup2\n      dup7\n      gas\n      staticcall\n      iszero\n      dup1\n      iszero\n      tag_400\n      jumpi\n      returndatasize\n      0x00\n      dup1\n      returndatacopy\n      revert(0x00, returndatasize)\n    tag_400:\n      pop\n      pop\n      pop\n      pop\n      mload(0x40)\n      returndatasize\n      not(0x1f)\n      0x1f\n      dup3\n      add\n      and\n      dup3\n      add\n      dup1\n      0x40\n      mstore\n      pop\n      dup2\n      add\n      swap1\n      tag_401\n      swap2\n      swap1\n      tag_361\n      jump\t// in\n    tag_401:\n        /* \"RouterInterface.sol\":7362:7423  IMutualPool(poolAddress).getEpochInfo(epochNumber).totalPrize */\n      0x80\n      add\n      mload\n        /* \"RouterInterface.sol\":7138:7715  EpochResult({... */\n      dup2\n      mstore\n      0x20\n      add\n        /* \"RouterInterface.sol\":7459:7470  poolAddress */\n      dup7\n      sub(shl(0xa0, 0x01), 0x01)\n        /* \"RouterInterface.sol\":7447:7484  IMutualPool(poolAddress).getEpochInfo */\n      and\n      0x135022c2\n        /* \"RouterInterface.sol\":7485:7496  epochNumber */\n      dup14\n        /* \"RouterInterface.sol\":7447:7497  IMutualPool(poolAddress).getEpochInfo(epochNumber) */\n      mload(0x40)\n      dup3\n      0xffffffff\n      and\n      0xe0\n      shl\n      dup2\n      mstore\n      0x04\n      add\n      tag_402\n      swap2\n        /* \"#utility.yul\":2057:2082   */\n      dup2\n      mstore\n        /* \"#utility.yul\":2045:2047   */\n      0x20\n        /* \"#utility.yul\":2030:2048   */\n      add\n      swap1\n        /* \"#utility.yul\":1911:2088   */\n      jump\n        /* \"RouterInterface.sol\":7447:7497  IMutualPool(poolAddress).getEpochInfo(epochNumber) */\n    tag_402:\n      0x01c0\n      mload(0x40)\n      dup1\n      dup4\n      sub\n      dup2\n      dup7\n      gas\n      staticcall\n      iszero\n      dup1\n      iszero\n      tag_404\n      jumpi\n      returndatasize\n      0x00\n      dup1\n      returndatacopy\n      revert(0x00, returndatasize)\n    tag_404:\n      pop\n      pop\n      pop\n      pop\n      mload(0x40)\n      returndatasize\n      not(0x1f)\n      0x1f\n      dup3\n      add\n      and\n      dup3\n      add\n      dup1\n      0x40\n      mstore\n      pop\n      dup2\n      add\n      swap1\n      tag_405\n      swap2\n      swap1\n      tag_361\n      jump\t// in\n    tag_405:\n        /* \"RouterInterface.sol\":7447:7506  IMutualPool(poolAddress).getEpochInfo(epochNumber).duration */\n      0xa0\n      add\n      mload\n        /* \"RouterInterface.sol\":7138:7715  EpochResult({... */\n      dup2\n      mstore\n      0x20\n      add\n        /* \"RouterInterface.sol\":7550:7561  poolAddress */\n      dup7\n      sub(shl(0xa0, 0x01), 0x01)\n        /* \"RouterInterface.sol\":7538:7575  IMutualPool(poolAddress).getEpochInfo */\n      and\n      0x135022c2\n        /* \"RouterInterface.sol\":7576:7587  epochNumber */\n      dup14\n        /* \"RouterInterface.sol\":7538:7588  IMutualPool(poolAddress).getEpochInfo(epochNumber) */\n      mload(0x40)\n      dup3\n      0xffffffff\n      and\n      0xe0\n      shl\n      dup2\n      mstore\n      0x04\n      add\n      tag_406\n      swap2\n        /* \"#utility.yul\":2057:2082   */\n      dup2\n      mstore\n        /* \"#utility.yul\":2045:2047   */\n      0x20\n        /* \"#utility.yul\":2030:2048   */\n      add\n      swap1\n        /* \"#utility.yul\":1911:2088   */\n      jump\n        /* \"RouterInterface.sol\":7538:7588  IMutualPool(poolAddress).getEpochInfo(epochNumber) */\n    tag_406:\n      0x01c0\n      mload(0x40)\n      dup1\n      dup4\n      sub\n      dup2\n      dup7\n      gas\n      staticcall\n      iszero\n      dup1\n      iszero\n      tag_408\n      jumpi\n      returndatasize\n      0x00\n      dup1\n      returndatacopy\n      revert(0x00, returndatasize)\n    tag_408:\n      pop\n      pop\n      pop\n      pop\n      mload(0x40)\n      returndatasize\n      not(0x1f)\n      0x1f\n      dup3\n      add\n      and\n      dup3\n      add\n      dup1\n      0x40\n      mstore\n      pop\n      dup2\n      add\n      swap1\n      tag_409\n      swap2\n      swap1\n      tag_361\n      jump\t// in\n    tag_409:\n        /* \"RouterInterface.sol\":7538:7605  IMutualPool(poolAddress).getEpochInfo(epochNumber).createdTimeStamp */\n      0xc0\n      add\n      mload\n        /* \"RouterInterface.sol\":7138:7715  EpochResult({... */\n      dup2\n      mstore\n      0x20\n      add\n        /* \"RouterInterface.sol\":7649:7660  poolAddress */\n      dup7\n      sub(shl(0xa0, 0x01), 0x01)\n        /* \"RouterInterface.sol\":7637:7674  IMutualPool(poolAddress).getEpochInfo */\n      and\n      0x135022c2\n        /* \"RouterInterface.sol\":7675:7686  epochNumber */\n      dup14\n        /* \"RouterInterface.sol\":7637:7687  IMutualPool(poolAddress).getEpochInfo(epochNumber) */\n      mload(0x40)\n      dup3\n      0xffffffff\n      and\n      0xe0\n      shl\n      dup2\n      mstore\n      0x04\n      add\n      tag_410\n      swap2\n        /* \"#utility.yul\":2057:2082   */\n      dup2\n      mstore\n        /* \"#utility.yul\":2045:2047   */\n      0x20\n        /* \"#utility.yul\":2030:2048   */\n      add\n      swap1\n        /* \"#utility.yul\":1911:2088   */\n      jump\n        /* \"RouterInterface.sol\":7637:7687  IMutualPool(poolAddress).getEpochInfo(epochNumber) */\n    tag_410:\n      0x01c0\n      mload(0x40)\n      dup1\n      dup4\n      sub\n      dup2\n      dup7\n      gas\n      staticcall\n      iszero\n      dup1\n      iszero\n      tag_412\n      jumpi\n      returndatasize\n      0x00\n      dup1\n      returndatacopy\n      revert(0x00, returndatasize)\n    tag_412:\n      pop\n      pop\n      pop\n      pop\n      mload(0x40)\n      returndatasize\n      not(0x1f)\n      0x1f\n      dup3\n      add\n      and\n      dup3\n      add\n      dup1\n      0x40\n      mstore\n      pop\n      dup2\n      add\n      swap1\n      tag_413\n      swap2\n      swap1\n      tag_361\n      jump\t// in\n    tag_413:\n        /* \"RouterInterface.sol\":7637:7704  IMutualPool(poolAddress).getEpochInfo(epochNumber).totalParticipant */\n      0xe0\n      add\n      mload\n        /* \"RouterInterface.sol\":7138:7715  EpochResult({... */\n      swap1\n      mstore\n        /* \"RouterInterface.sol\":7110:7715  EpochResult memory result = EpochResult({... */\n      swap11\n        /* \"RouterInterface.sol\":5892:7754  function getPoolDrawInfo(uint256 epochNumber,uint256 poolID) external validPoolID(poolID) view returns(EpochResult memory){... */\n      swap10\n      pop\n      pop\n      pop\n      pop\n      pop\n      pop\n      pop\n      pop\n      pop\n      pop\n      jump\t// out\n        /* \"@openzeppelin/contracts/utils/math/SafeMath.sol\":3122:3218  function sub(uint256 a, uint256 b) internal pure returns (uint256) {... */\n    tag_146:\n        /* \"@openzeppelin/contracts/utils/math/SafeMath.sol\":3180:3187  uint256 */\n      0x00\n        /* \"@openzeppelin/contracts/utils/math/SafeMath.sol\":3206:3211  a - b */\n      tag_415\n        /* \"@openzeppelin/contracts/utils/math/SafeMath.sol\":3210:3211  b */\n      dup3\n        /* \"@openzeppelin/contracts/utils/math/SafeMath.sol\":3206:3207  a */\n      dup5\n        /* \"@openzeppelin/contracts/utils/math/SafeMath.sol\":3206:3211  a - b */\n      tag_241\n      jump\t// in\n    tag_415:\n        /* \"@openzeppelin/contracts/utils/math/SafeMath.sol\":3199:3211  return a - b */\n      swap1\n      pop\n        /* \"@openzeppelin/contracts/utils/math/SafeMath.sol\":3122:3218  function sub(uint256 a, uint256 b) internal pure returns (uint256) {... */\n    tag_414:\n      swap3\n      swap2\n      pop\n      pop\n      jump\t// out\n        /* \"RouterInterface.sol\":9888:10344  function withdrawFromPool(address user, address pool,address token, uint256 amount) internal{... */\n    tag_160:\n        /* \"RouterInterface.sol\":10022:10060  IERC20(token).balanceOf(address(this)) */\n      mload(0x40)\n      shl(0xe0, 0x70a08231)\n      dup2\n      mstore\n        /* \"RouterInterface.sol\":10054:10058  this */\n      address\n        /* \"RouterInterface.sol\":10022:10060  IERC20(token).balanceOf(address(this)) */\n      0x04\n      dup3\n      add\n        /* \"#utility.yul\":7477:7528   */\n      mstore\n        /* \"RouterInterface.sol\":9990:10019  uint256 balanceBeforeWithdraw */\n      0x00\n      swap1\n      sub(shl(0xa0, 0x01), 0x01)\n        /* \"RouterInterface.sol\":10022:10045  IERC20(token).balanceOf */\n      dup5\n      and\n      swap1\n      0x70a08231\n      swap1\n        /* \"#utility.yul\":7450:7468   */\n      0x24\n      add\n        /* \"RouterInterface.sol\":10022:10060  IERC20(token).balanceOf(address(this)) */\n      0x20\n      mload(0x40)\n      dup1\n      dup4\n      sub\n      dup2\n      dup7\n      gas\n      staticcall\n      iszero\n      dup1\n      iszero\n      tag_419\n      jumpi\n      returndatasize\n      0x00\n      dup1\n      returndatacopy\n      revert(0x00, returndatasize)\n    tag_419:\n      pop\n      pop\n      pop\n      pop\n      mload(0x40)\n      returndatasize\n      not(0x1f)\n      0x1f\n      dup3\n      add\n      and\n      dup3\n      add\n      dup1\n      0x40\n      mstore\n      pop\n      dup2\n      add\n      swap1\n      tag_420\n      swap2\n      swap1\n      tag_185\n      jump\t// in\n    tag_420:\n        /* \"RouterInterface.sol\":9990:10060  uint256 balanceBeforeWithdraw = IERC20(token).balanceOf(address(this)) */\n      swap1\n      pop\n        /* \"RouterInterface.sol\":10070:10106  _processWithdraw(user, pool, amount) */\n      tag_421\n        /* \"RouterInterface.sol\":10087:10091  user */\n      dup6\n        /* \"RouterInterface.sol\":10093:10097  pool */\n      dup6\n        /* \"RouterInterface.sol\":10099:10105  amount */\n      dup5\n        /* \"RouterInterface.sol\":10070:10086  _processWithdraw */\n      tag_422\n        /* \"RouterInterface.sol\":10070:10106  _processWithdraw(user, pool, amount) */\n      jump\t// in\n    tag_421:\n        /* \"RouterInterface.sol\":10148:10186  IERC20(token).balanceOf(address(this)) */\n      mload(0x40)\n      shl(0xe0, 0x70a08231)\n      dup2\n      mstore\n        /* \"RouterInterface.sol\":10180:10184  this */\n      address\n        /* \"RouterInterface.sol\":10148:10186  IERC20(token).balanceOf(address(this)) */\n      0x04\n      dup3\n      add\n        /* \"#utility.yul\":7477:7528   */\n      mstore\n        /* \"RouterInterface.sol\":10117:10145  uint256 balanceAfterWithdraw */\n      0x00\n      swap1\n      sub(shl(0xa0, 0x01), 0x01)\n        /* \"RouterInterface.sol\":10148:10171  IERC20(token).balanceOf */\n      dup6\n      and\n      swap1\n      0x70a08231\n      swap1\n        /* \"#utility.yul\":7450:7468   */\n      0x24\n      add\n        /* \"RouterInterface.sol\":10148:10186  IERC20(token).balanceOf(address(this)) */\n      0x20\n      mload(0x40)\n      dup1\n      dup4\n      sub\n      dup2\n      dup7\n      gas\n      staticcall\n      iszero\n      dup1\n      iszero\n      tag_425\n      jumpi\n      returndatasize\n      0x00\n      dup1\n      returndatacopy\n      revert(0x00, returndatasize)\n    tag_425:\n      pop\n      pop\n      pop\n      pop\n      mload(0x40)\n      returndatasize\n      not(0x1f)\n      0x1f\n      dup3\n      add\n      and\n      dup3\n      add\n      dup1\n      0x40\n      mstore\n      pop\n      dup2\n      add\n      swap1\n      tag_426\n      swap2\n      swap1\n      tag_185\n      jump\t// in\n    tag_426:\n        /* \"RouterInterface.sol\":10117:10186  uint256 balanceAfterWithdraw = IERC20(token).balanceOf(address(this)) */\n      swap1\n      pop\n        /* \"RouterInterface.sol\":10197:10220  uint256 withdrawnAmount */\n      0x00\n        /* \"RouterInterface.sol\":10223:10270  balanceAfterWithdraw.sub(balanceBeforeWithdraw) */\n      tag_427\n        /* \"RouterInterface.sol\":10117:10186  uint256 balanceAfterWithdraw = IERC20(token).balanceOf(address(this)) */\n      dup3\n        /* \"RouterInterface.sol\":10248:10269  balanceBeforeWithdraw */\n      dup5\n        /* \"RouterInterface.sol\":10223:10247  balanceAfterWithdraw.sub */\n      tag_146\n        /* \"RouterInterface.sol\":10223:10270  balanceAfterWithdraw.sub(balanceBeforeWithdraw) */\n      jump\t// in\n    tag_427:\n        /* \"RouterInterface.sol\":10197:10270  uint256 withdrawnAmount = balanceAfterWithdraw.sub(balanceBeforeWithdraw) */\n      swap1\n      pop\n        /* \"RouterInterface.sol\":10281:10337  _processTransferBacktoUser(user, token, withdrawnAmount) */\n      tag_428\n        /* \"RouterInterface.sol\":10308:10312  user */\n      dup8\n        /* \"RouterInterface.sol\":10314:10319  token */\n      dup7\n        /* \"RouterInterface.sol\":10321:10336  withdrawnAmount */\n      dup4\n        /* \"RouterInterface.sol\":10281:10307  _processTransferBacktoUser */\n      tag_273\n        /* \"RouterInterface.sol\":10281:10337  _processTransferBacktoUser(user, token, withdrawnAmount) */\n      jump\t// in\n    tag_428:\n        /* \"RouterInterface.sol\":9980:10344  {... */\n      pop\n      pop\n      pop\n        /* \"RouterInterface.sol\":9888:10344  function withdrawFromPool(address user, address pool,address token, uint256 amount) internal{... */\n      pop\n      pop\n      pop\n      pop\n      jump\t// out\n        /* \"RouterInterface.sol\":13570:14039  function performSwap(address tokenNeeded, address tokenToSwap, uint256 amountIn, bytes calldata swapData) internal returns(uint256){... */\n    tag_171:\n        /* \"RouterInterface.sol\":13732:13776  IERC20(tokenNeeded).balanceOf(address(this)) */\n      mload(0x40)\n      shl(0xe0, 0x70a08231)\n      dup2\n      mstore\n        /* \"RouterInterface.sol\":13770:13774  this */\n      address\n        /* \"RouterInterface.sol\":13732:13776  IERC20(tokenNeeded).balanceOf(address(this)) */\n      0x04\n      dup3\n      add\n        /* \"#utility.yul\":7477:7528   */\n      mstore\n        /* \"RouterInterface.sol\":13693:13700  uint256 */\n      0x00\n      swap1\n      dup2\n      swap1\n      sub(shl(0xa0, 0x01), 0x01)\n        /* \"RouterInterface.sol\":13732:13761  IERC20(tokenNeeded).balanceOf */\n      dup9\n      and\n      swap1\n      0x70a08231\n      swap1\n        /* \"#utility.yul\":7450:7468   */\n      0x24\n      add\n        /* \"RouterInterface.sol\":13732:13776  IERC20(tokenNeeded).balanceOf(address(this)) */\n      0x20\n      mload(0x40)\n      dup1\n      dup4\n      sub\n      dup2\n      dup7\n      gas\n      staticcall\n      iszero\n      dup1\n      iszero\n      tag_432\n      jumpi\n      returndatasize\n      0x00\n      dup1\n      returndatacopy\n      revert(0x00, returndatasize)\n    tag_432:\n      pop\n      pop\n      pop\n      pop\n      mload(0x40)\n      returndatasize\n      not(0x1f)\n      0x1f\n      dup3\n      add\n      and\n      dup3\n      add\n      dup1\n      0x40\n      mstore\n      pop\n      dup2\n      add\n      swap1\n      tag_433\n      swap2\n      swap1\n      tag_185\n      jump\t// in\n    tag_433:\n        /* \"RouterInterface.sol\":13711:13776  uint256 beforeSwap = IERC20(tokenNeeded).balanceOf(address(this)) */\n      swap1\n      pop\n        /* \"RouterInterface.sol\":13786:13829  _performSwap(tokenToSwap,amountIn,swapData) */\n      tag_434\n        /* \"RouterInterface.sol\":13799:13810  tokenToSwap */\n      dup7\n        /* \"RouterInterface.sol\":13811:13819  amountIn */\n      dup7\n        /* \"RouterInterface.sol\":13820:13828  swapData */\n      dup7\n      dup7\n        /* \"RouterInterface.sol\":13786:13798  _performSwap */\n      tag_435\n        /* \"RouterInterface.sol\":13786:13829  _performSwap(tokenToSwap,amountIn,swapData) */\n      jump\t// in\n    tag_434:\n        /* \"RouterInterface.sol\":13859:13903  IERC20(tokenNeeded).balanceOf(address(this)) */\n      mload(0x40)\n      shl(0xe0, 0x70a08231)\n      dup2\n      mstore\n        /* \"RouterInterface.sol\":13897:13901  this */\n      address\n        /* \"RouterInterface.sol\":13859:13903  IERC20(tokenNeeded).balanceOf(address(this)) */\n      0x04\n      dup3\n      add\n        /* \"#utility.yul\":7477:7528   */\n      mstore\n        /* \"RouterInterface.sol\":13839:13856  uint256 afterSwap */\n      0x00\n      swap1\n      sub(shl(0xa0, 0x01), 0x01)\n        /* \"RouterInterface.sol\":13859:13888  IERC20(tokenNeeded).balanceOf */\n      dup10\n      and\n      swap1\n      0x70a08231\n      swap1\n        /* \"#utility.yul\":7450:7468   */\n      0x24\n      add\n        /* \"RouterInterface.sol\":13859:13903  IERC20(tokenNeeded).balanceOf(address(this)) */\n      0x20\n      mload(0x40)\n      dup1\n      dup4\n      sub\n      dup2\n      dup7\n      gas\n      staticcall\n      iszero\n      dup1\n      iszero\n      tag_438\n      jumpi\n      returndatasize\n      0x00\n      dup1\n      returndatacopy\n      revert(0x00, returndatasize)\n    tag_438:\n      pop\n      pop\n      pop\n      pop\n      mload(0x40)\n      returndatasize\n      not(0x1f)\n      0x1f\n      dup3\n      add\n      and\n      dup3\n      add\n      dup1\n      0x40\n      mstore\n      pop\n      dup2\n      add\n      swap1\n      tag_439\n      swap2\n      swap1\n      tag_185\n      jump\t// in\n    tag_439:\n        /* \"RouterInterface.sol\":13839:13903  uint256 afterSwap = IERC20(tokenNeeded).balanceOf(address(this)) */\n      swap1\n      pop\n        /* \"RouterInterface.sol\":13913:13936  uint256 changeAfterSwap */\n      0x00\n        /* \"RouterInterface.sol\":13939:13964  afterSwap.sub(beforeSwap) */\n      tag_440\n        /* \"RouterInterface.sol\":13839:13903  uint256 afterSwap = IERC20(tokenNeeded).balanceOf(address(this)) */\n      dup3\n        /* \"RouterInterface.sol\":13953:13963  beforeSwap */\n      dup5\n        /* \"RouterInterface.sol\":13939:13952  afterSwap.sub */\n      tag_146\n        /* \"RouterInterface.sol\":13939:13964  afterSwap.sub(beforeSwap) */\n      jump\t// in\n    tag_440:\n        /* \"RouterInterface.sol\":13913:13964  uint256 changeAfterSwap = afterSwap.sub(beforeSwap) */\n      swap1\n      pop\n        /* \"RouterInterface.sol\":13998:13999  0 */\n      0x00\n        /* \"RouterInterface.sol\":13982:13997  changeAfterSwap */\n      dup2\n        /* \"RouterInterface.sol\":13982:13999  changeAfterSwap>0 */\n      gt\n        /* \"RouterInterface.sol\":13974:14000  require(changeAfterSwap>0) */\n      tag_184\n      jumpi\n      0x00\n      dup1\n      revert\n        /* \"RouterInterface.sol\":8373:8558  function depositToPool(address user, address pool, address token, uint256 amount) internal{... */\n    tag_173:\n        /* \"RouterInterface.sol\":8473:8506  _approveToPool(pool,token,amount) */\n      tag_443\n        /* \"RouterInterface.sol\":8488:8492  pool */\n      dup4\n        /* \"RouterInterface.sol\":8493:8498  token */\n      dup4\n        /* \"RouterInterface.sol\":8499:8505  amount */\n      dup4\n        /* \"RouterInterface.sol\":8473:8487  _approveToPool */\n      tag_444\n        /* \"RouterInterface.sol\":8473:8506  _approveToPool(pool,token,amount) */\n      jump\t// in\n    tag_443:\n        /* \"RouterInterface.sol\":8516:8551  _processDeposit(user, pool, amount) */\n      tag_445\n        /* \"RouterInterface.sol\":8532:8536  user */\n      dup5\n        /* \"RouterInterface.sol\":8538:8542  pool */\n      dup5\n        /* \"RouterInterface.sol\":8544:8550  amount */\n      dup4\n        /* \"RouterInterface.sol\":8516:8531  _processDeposit */\n      tag_446\n        /* \"RouterInterface.sol\":8516:8551  _processDeposit(user, pool, amount) */\n      jump\t// in\n    tag_445:\n        /* \"RouterInterface.sol\":8373:8558  function depositToPool(address user, address pool, address token, uint256 amount) internal{... */\n      pop\n      pop\n      pop\n      pop\n      jump\t// out\n        /* \"RouterInterface.sol\":11487:11718  function _processClaimReward(address user, address pool) internal returns(uint256) {... */\n    tag_266:\n        /* \"RouterInterface.sol\":11597:11636  IMutualPool(pool).claimRewardsFor(user) */\n      mload(0x40)\n      shl(0xe0, 0x1ac6d19d)\n      dup2\n      mstore\n      sub(shl(0xa0, 0x01), 0x01)\n        /* \"#utility.yul\":7495:7527   */\n      dup4\n      dup2\n      and\n        /* \"RouterInterface.sol\":11597:11636  IMutualPool(pool).claimRewardsFor(user) */\n      0x04\n      dup4\n      add\n        /* \"#utility.yul\":7477:7528   */\n      mstore\n        /* \"RouterInterface.sol\":11561:11568  uint256 */\n      0x00\n      swap2\n      dup3\n      swap2\n        /* \"RouterInterface.sol\":11597:11630  IMutualPool(pool).claimRewardsFor */\n      dup5\n      and\n      swap1\n      0x1ac6d19d\n      swap1\n        /* \"#utility.yul\":7450:7468   */\n      0x24\n      add\n        /* \"RouterInterface.sol\":11597:11636  IMutualPool(pool).claimRewardsFor(user) */\n      0x20\n      mload(0x40)\n      dup1\n      dup4\n      sub\n      dup2\n      0x00\n      dup8\n      gas\n      call\n      iszero\n      dup1\n      iszero\n      tag_450\n      jumpi\n      returndatasize\n      0x00\n      dup1\n      returndatacopy\n      revert(0x00, returndatasize)\n    tag_450:\n      pop\n      pop\n      pop\n      pop\n      mload(0x40)\n      returndatasize\n      not(0x1f)\n      0x1f\n      dup3\n      add\n      and\n      dup3\n      add\n      dup1\n      0x40\n      mstore\n      pop\n      dup2\n      add\n      swap1\n      tag_451\n      swap2\n      swap1\n      tag_185\n      jump\t// in\n    tag_451:\n        /* \"RouterInterface.sol\":11580:11636  uint256 amount = IMutualPool(pool).claimRewardsFor(user) */\n      swap1\n      pop\n        /* \"RouterInterface.sol\":11663:11664  0 */\n      0x00\n        /* \"RouterInterface.sol\":11654:11660  amount */\n      dup2\n        /* \"RouterInterface.sol\":11654:11664  amount > 0 */\n      gt\n        /* \"RouterInterface.sol\":11646:11688  require(amount > 0, \"No rewards to claim\") */\n      tag_415\n      jumpi\n      mload(0x40)\n      shl(0xe5, 0x461bcd)\n      dup2\n      mstore\n        /* \"#utility.yul\":11699:11701   */\n      0x20\n        /* \"RouterInterface.sol\":11646:11688  require(amount > 0, \"No rewards to claim\") */\n      0x04\n      dup3\n      add\n        /* \"#utility.yul\":11681:11702   */\n      mstore\n        /* \"#utility.yul\":11738:11740   */\n      0x13\n        /* \"#utility.yul\":11718:11736   */\n      0x24\n      dup3\n      add\n        /* \"#utility.yul\":11711:11741   */\n      mstore\n      shl(0x68, 0x4e6f207265776172647320746f20636c61696d)\n        /* \"#utility.yul\":11757:11775   */\n      0x44\n      dup3\n      add\n        /* \"#utility.yul\":11750:11799   */\n      mstore\n        /* \"#utility.yul\":11816:11834   */\n      0x64\n      add\n        /* \"RouterInterface.sol\":11646:11688  require(amount > 0, \"No rewards to claim\") */\n      tag_141\n        /* \"#utility.yul\":11497:11840   */\n      jump\n        /* \"RouterInterface.sol\":10350:10504  function _processTransferBacktoUser(address receiver, address token, uint256 amount) internal{... */\n    tag_273:\n        /* \"RouterInterface.sol\":10453:10497  IERC20(token).safeTransfer(receiver, amount) */\n      tag_456\n      sub(shl(0xa0, 0x01), 0x01)\n        /* \"RouterInterface.sol\":10453:10479  IERC20(token).safeTransfer */\n      dup4\n      and\n        /* \"RouterInterface.sol\":10480:10488  receiver */\n      dup5\n        /* \"RouterInterface.sol\":10490:10496  amount */\n      dup4\n        /* \"RouterInterface.sol\":10453:10479  IERC20(token).safeTransfer */\n      tag_457\n        /* \"RouterInterface.sol\":10453:10497  IERC20(token).safeTransfer(receiver, amount) */\n      jump\t// in\n    tag_456:\n        /* \"RouterInterface.sol\":10350:10504  function _processTransferBacktoUser(address receiver, address token, uint256 amount) internal{... */\n      pop\n      pop\n      pop\n      jump\t// out\n        /* \"RouterInterface.sol\":3039:3154  function _transferRegistryAddr(address registryAddress) internal{... */\n    tag_292:\n        /* \"RouterInterface.sol\":3113:3129  registryContract */\n      0x02\n        /* \"RouterInterface.sol\":3113:3147  registryContract = registryAddress */\n      dup1\n      sload\n      not(sub(shl(0xa0, 0x01), 0x01))\n      and\n      sub(shl(0xa0, 0x01), 0x01)\n      swap3\n      swap1\n      swap3\n      and\n      swap2\n      swap1\n      swap2\n      or\n      swap1\n      sstore\n        /* \"RouterInterface.sol\":3039:3154  function _transferRegistryAddr(address registryAddress) internal{... */\n      jump\t// out\n        /* \"RouterInterface.sol\":8888:9474  function getTokenFromUser(address token, uint256 amount) internal returns(uint256){... */\n    tag_317:\n        /* \"RouterInterface.sol\":8962:8969  uint256 */\n      0x00\n        /* \"RouterInterface.sol\":8997:8998  0 */\n      dup1\n        /* \"RouterInterface.sol\":8988:8994  amount */\n      dup3\n        /* \"RouterInterface.sol\":8988:8998  amount > 0 */\n      gt\n        /* \"RouterInterface.sol\":8980:8999  require(amount > 0) */\n      tag_460\n      jumpi\n      0x00\n      dup1\n      revert\n    tag_460:\n        /* \"RouterInterface.sol\":9045:9083  IERC20(token).balanceOf(address(this)) */\n      mload(0x40)\n      shl(0xe0, 0x70a08231)\n      dup2\n      mstore\n        /* \"RouterInterface.sol\":9077:9081  this */\n      address\n        /* \"RouterInterface.sol\":9045:9083  IERC20(token).balanceOf(address(this)) */\n      0x04\n      dup3\n      add\n        /* \"#utility.yul\":7477:7528   */\n      mstore\n        /* \"RouterInterface.sol\":9009:9042  uint256 balanceBeforeTransferFrom */\n      0x00\n      swap1\n      sub(shl(0xa0, 0x01), 0x01)\n        /* \"RouterInterface.sol\":9045:9068  IERC20(token).balanceOf */\n      dup6\n      and\n      swap1\n      0x70a08231\n      swap1\n        /* \"#utility.yul\":7450:7468   */\n      0x24\n      add\n        /* \"RouterInterface.sol\":9045:9083  IERC20(token).balanceOf(address(this)) */\n      0x20\n      mload(0x40)\n      dup1\n      dup4\n      sub\n      dup2\n      dup7\n      gas\n      staticcall\n      iszero\n      dup1\n      iszero\n      tag_463\n      jumpi\n      returndatasize\n      0x00\n      dup1\n      returndatacopy\n      revert(0x00, returndatasize)\n    tag_463:\n      pop\n      pop\n      pop\n      pop\n      mload(0x40)\n      returndatasize\n      not(0x1f)\n      0x1f\n      dup3\n      add\n      and\n      dup3\n      add\n      dup1\n      0x40\n      mstore\n      pop\n      dup2\n      add\n      swap1\n      tag_464\n      swap2\n      swap1\n      tag_185\n      jump\t// in\n    tag_464:\n        /* \"RouterInterface.sol\":9009:9083  uint256 balanceBeforeTransferFrom = IERC20(token).balanceOf(address(this)) */\n      swap1\n      pop\n        /* \"RouterInterface.sol\":9093:9158  IERC20(token).safeTransferFrom(msg.sender, address(this), amount) */\n      tag_465\n      sub(shl(0xa0, 0x01), 0x01)\n        /* \"RouterInterface.sol\":9093:9123  IERC20(token).safeTransferFrom */\n      dup6\n      and\n        /* \"RouterInterface.sol\":9124:9134  msg.sender */\n      caller\n        /* \"RouterInterface.sol\":9144:9148  this */\n      address\n        /* \"RouterInterface.sol\":9151:9157  amount */\n      dup7\n        /* \"RouterInterface.sol\":9093:9123  IERC20(token).safeTransferFrom */\n      tag_466\n        /* \"RouterInterface.sol\":9093:9158  IERC20(token).safeTransferFrom(msg.sender, address(this), amount) */\n      jump\t// in\n    tag_465:\n        /* \"RouterInterface.sol\":9203:9241  IERC20(token).balanceOf(address(this)) */\n      mload(0x40)\n      shl(0xe0, 0x70a08231)\n      dup2\n      mstore\n        /* \"RouterInterface.sol\":9235:9239  this */\n      address\n        /* \"RouterInterface.sol\":9203:9241  IERC20(token).balanceOf(address(this)) */\n      0x04\n      dup3\n      add\n        /* \"#utility.yul\":7477:7528   */\n      mstore\n        /* \"RouterInterface.sol\":9168:9200  uint256 balanceAfterTransferFrom */\n      0x00\n      swap1\n      sub(shl(0xa0, 0x01), 0x01)\n        /* \"RouterInterface.sol\":9203:9226  IERC20(token).balanceOf */\n      dup7\n      and\n      swap1\n      0x70a08231\n      swap1\n        /* \"#utility.yul\":7450:7468   */\n      0x24\n      add\n        /* \"RouterInterface.sol\":9203:9241  IERC20(token).balanceOf(address(this)) */\n      0x20\n      mload(0x40)\n      dup1\n      dup4\n      sub\n      dup2\n      dup7\n      gas\n      staticcall\n      iszero\n      dup1\n      iszero\n      tag_469\n      jumpi\n      returndatasize\n      0x00\n      dup1\n      returndatacopy\n      revert(0x00, returndatasize)\n    tag_469:\n      pop\n      pop\n      pop\n      pop\n      mload(0x40)\n      returndatasize\n      not(0x1f)\n      0x1f\n      dup3\n      add\n      and\n      dup3\n      add\n      dup1\n      0x40\n      mstore\n      pop\n      dup2\n      add\n      swap1\n      tag_470\n      swap2\n      swap1\n      tag_185\n      jump\t// in\n    tag_470:\n        /* \"RouterInterface.sol\":9168:9241  uint256 balanceAfterTransferFrom = IERC20(token).balanceOf(address(this)) */\n      swap1\n      pop\n        /* \"RouterInterface.sol\":9251:9275  uint256 amountDeposisted */\n      0x00\n        /* \"RouterInterface.sol\":9278:9333  balanceAfterTransferFrom.sub(balanceBeforeTransferFrom) */\n      tag_194\n        /* \"RouterInterface.sol\":9168:9241  uint256 balanceAfterTransferFrom = IERC20(token).balanceOf(address(this)) */\n      dup3\n        /* \"RouterInterface.sol\":9307:9332  balanceBeforeTransferFrom */\n      dup5\n        /* \"RouterInterface.sol\":9278:9306  balanceAfterTransferFrom.sub */\n      tag_146\n        /* \"RouterInterface.sol\":9278:9333  balanceAfterTransferFrom.sub(balanceBeforeTransferFrom) */\n      jump\t// in\n        /* \"RouterInterface.sol\":10509:10676  function _processWithdraw(address user, address pool, uint256 amount) internal{... */\n    tag_422:\n        /* \"RouterInterface.sol\":10614:10615  0 */\n      0x00\n        /* \"RouterInterface.sol\":10605:10611  amount */\n      dup2\n        /* \"RouterInterface.sol\":10605:10615  amount > 0 */\n      gt\n        /* \"RouterInterface.sol\":10597:10616  require(amount > 0) */\n      tag_473\n      jumpi\n      0x00\n      dup1\n      revert\n    tag_473:\n        /* \"RouterInterface.sol\":10626:10669  IMutualPool(pool).withdrawFor(user, amount) */\n      mload(0x40)\n      shl(0xe1, 0x6da8c6d9)\n      dup2\n      mstore\n      sub(shl(0xa0, 0x01), 0x01)\n        /* \"#utility.yul\":12037:12069   */\n      dup5\n      dup2\n      and\n        /* \"RouterInterface.sol\":10626:10669  IMutualPool(pool).withdrawFor(user, amount) */\n      0x04\n      dup4\n      add\n        /* \"#utility.yul\":12019:12070   */\n      mstore\n        /* \"#utility.yul\":12086:12104   */\n      0x24\n      dup3\n      add\n        /* \"#utility.yul\":12079:12113   */\n      dup4\n      swap1\n      mstore\n        /* \"RouterInterface.sol\":10626:10655  IMutualPool(pool).withdrawFor */\n      dup4\n      and\n      swap1\n      0xdb518db2\n      swap1\n        /* \"#utility.yul\":11992:12010   */\n      0x44\n      add\n        /* \"RouterInterface.sol\":10626:10669  IMutualPool(pool).withdrawFor(user, amount) */\n    tag_474:\n      0x00\n      mload(0x40)\n      dup1\n      dup4\n      sub\n      dup2\n      0x00\n      dup8\n      dup1\n      extcodesize\n      iszero\n      dup1\n      iszero\n      tag_476\n      jumpi\n      0x00\n      dup1\n      revert\n    tag_476:\n      pop\n      gas\n      call\n      iszero\n      dup1\n      iszero\n      tag_428\n      jumpi\n      returndatasize\n      0x00\n      dup1\n      returndatacopy\n      revert(0x00, returndatasize)\n        /* \"RouterInterface.sol\":14045:14850  function _performSwap(address tokenToSwap, uint256 amountIn, bytes calldata swapData) internal{... */\n    tag_435:\n      sub(shl(0xa0, 0x01), 0x01)\n        /* \"RouterInterface.sol\":14152:14209  tokenToSwap == 0x0000000000000000000000000000000000000000 */\n      dup5\n      and\n        /* \"RouterInterface.sol\":14167:14209  0x0000000000000000000000000000000000000000 */\n      0x00\n        /* \"RouterInterface.sol\":14152:14209  tokenToSwap == 0x0000000000000000000000000000000000000000 */\n      sub\n        /* \"RouterInterface.sol\":14149:14844  if(tokenToSwap == 0x0000000000000000000000000000000000000000){... */\n      tag_480\n      jumpi\n        /* \"RouterInterface.sol\":14244:14252  amountIn */\n      dup3\n        /* \"RouterInterface.sol\":14232:14241  msg.value */\n      callvalue\n        /* \"RouterInterface.sol\":14232:14252  msg.value>= amountIn */\n      lt\n      iszero\n        /* \"RouterInterface.sol\":14224:14253  require(msg.value>= amountIn) */\n      tag_481\n      jumpi\n      0x00\n      dup1\n      revert\n    tag_481:\n        /* \"RouterInterface.sol\":14286:14301  KyberAggregator */\n      sload(0x03)\n        /* \"RouterInterface.sol\":14286:14333  KyberAggregator.call{value: amountIn}(swapData) */\n      mload(0x40)\n        /* \"RouterInterface.sol\":14268:14280  bool success */\n      0x00\n      swap2\n      sub(shl(0xa0, 0x01), 0x01)\n        /* \"RouterInterface.sol\":14286:14301  KyberAggregator */\n      and\n      swap1\n        /* \"RouterInterface.sol\":14314:14322  amountIn */\n      dup6\n      swap1\n        /* \"RouterInterface.sol\":14286:14333  KyberAggregator.call{value: amountIn}(swapData) */\n      tag_482\n      swap1\n        /* \"RouterInterface.sol\":14324:14332  swapData */\n      dup7\n      swap1\n      dup7\n      swap1\n        /* \"RouterInterface.sol\":14286:14333  KyberAggregator.call{value: amountIn}(swapData) */\n      tag_483\n      jump\t// in\n    tag_482:\n      0x00\n      mload(0x40)\n      dup1\n      dup4\n      sub\n      dup2\n      dup6\n      dup8\n      gas\n      call\n      swap3\n      pop\n      pop\n      pop\n      returndatasize\n      dup1\n      0x00\n      dup2\n      eq\n      tag_486\n      jumpi\n      mload(0x40)\n      swap2\n      pop\n      and(add(returndatasize, 0x3f), not(0x1f))\n      dup3\n      add\n      0x40\n      mstore\n      returndatasize\n      dup3\n      mstore\n      returndatasize\n      0x00\n      0x20\n      dup5\n      add\n      returndatacopy\n      jump(tag_485)\n    tag_486:\n      0x60\n      swap2\n      pop\n    tag_485:\n      pop\n        /* \"RouterInterface.sol\":14267:14333  (bool success, ) = KyberAggregator.call{value: amountIn}(swapData) */\n      pop\n      swap1\n      pop\n        /* \"RouterInterface.sol\":14355:14362  success */\n      dup1\n        /* \"RouterInterface.sol\":14347:14379  require(success,\"Couldn't swap\") */\n      tag_487\n      jumpi\n      mload(0x40)\n      shl(0xe5, 0x461bcd)\n      dup2\n      mstore\n        /* \"#utility.yul\":12602:12604   */\n      0x20\n        /* \"RouterInterface.sol\":14347:14379  require(success,\"Couldn't swap\") */\n      0x04\n      dup3\n      add\n        /* \"#utility.yul\":12584:12605   */\n      mstore\n        /* \"#utility.yul\":12641:12643   */\n      0x0d\n        /* \"#utility.yul\":12621:12639   */\n      0x24\n      dup3\n      add\n        /* \"#utility.yul\":12614:12644   */\n      mstore\n      shl(0x9c, 0x0436f756c646e2774207377617)\n        /* \"#utility.yul\":12660:12678   */\n      0x44\n      dup3\n      add\n        /* \"#utility.yul\":12653:12696   */\n      mstore\n        /* \"#utility.yul\":12713:12731   */\n      0x64\n      add\n        /* \"RouterInterface.sol\":14347:14379  require(success,\"Couldn't swap\") */\n      tag_141\n        /* \"#utility.yul\":12400:12737   */\n      jump\n        /* \"RouterInterface.sol\":14347:14379  require(success,\"Couldn't swap\") */\n    tag_487:\n        /* \"RouterInterface.sol\":14210:14390  {... */\n      pop\n        /* \"RouterInterface.sol\":14149:14844  if(tokenToSwap == 0x0000000000000000000000000000000000000000){... */\n      jump(tag_445)\n    tag_480:\n        /* \"RouterInterface.sol\":14426:14435  msg.value */\n      callvalue\n        /* \"RouterInterface.sol\":14426:14440  msg.value == 0 */\n      iszero\n        /* \"RouterInterface.sol\":14418:14441  require(msg.value == 0) */\n      tag_491\n      jumpi\n      0x00\n      dup1\n      revert\n    tag_491:\n        /* \"RouterInterface.sol\":14455:14472  uint256 toApprove */\n      0x00\n        /* \"RouterInterface.sol\":14475:14514  getTokenFromUser(tokenToSwap, amountIn) */\n      tag_492\n        /* \"RouterInterface.sol\":14492:14503  tokenToSwap */\n      dup6\n        /* \"RouterInterface.sol\":14505:14513  amountIn */\n      dup6\n        /* \"RouterInterface.sol\":14475:14491  getTokenFromUser */\n      tag_317\n        /* \"RouterInterface.sol\":14475:14514  getTokenFromUser(tokenToSwap, amountIn) */\n      jump\t// in\n    tag_492:\n        /* \"RouterInterface.sol\":14560:14575  KyberAggregator */\n      sload(0x03)\n        /* \"RouterInterface.sol\":14455:14514  uint256 toApprove = getTokenFromUser(tokenToSwap, amountIn) */\n      swap1\n      swap2\n      pop\n        /* \"RouterInterface.sol\":14528:14578  IERC20(tokenToSwap).safeApprove(KyberAggregator,0) */\n      tag_493\n      swap1\n      sub(shl(0xa0, 0x01), 0x01)\n        /* \"RouterInterface.sol\":14528:14559  IERC20(tokenToSwap).safeApprove */\n      dup8\n      dup2\n      and\n      swap2\n        /* \"RouterInterface.sol\":14560:14575  KyberAggregator */\n      and\n      0x00\n        /* \"RouterInterface.sol\":14528:14559  IERC20(tokenToSwap).safeApprove */\n      tag_494\n        /* \"RouterInterface.sol\":14528:14578  IERC20(tokenToSwap).safeApprove(KyberAggregator,0) */\n      jump\t// in\n    tag_493:\n        /* \"RouterInterface.sol\":14624:14639  KyberAggregator */\n      sload(0x03)\n        /* \"RouterInterface.sol\":14592:14650  IERC20(tokenToSwap).safeApprove(KyberAggregator,toApprove) */\n      tag_495\n      swap1\n      sub(shl(0xa0, 0x01), 0x01)\n        /* \"RouterInterface.sol\":14592:14623  IERC20(tokenToSwap).safeApprove */\n      dup8\n      dup2\n      and\n      swap2\n        /* \"RouterInterface.sol\":14624:14639  KyberAggregator */\n      and\n        /* \"RouterInterface.sol\":14640:14649  toApprove */\n      dup4\n        /* \"RouterInterface.sol\":14592:14623  IERC20(tokenToSwap).safeApprove */\n      tag_494\n        /* \"RouterInterface.sol\":14592:14650  IERC20(tokenToSwap).safeApprove(KyberAggregator,toApprove) */\n      jump\t// in\n    tag_495:\n        /* \"RouterInterface.sol\":14683:14698  KyberAggregator */\n      sload(0x03)\n        /* \"RouterInterface.sol\":14683:14723  KyberAggregator.call{value: 0}(swapData) */\n      mload(0x40)\n        /* \"RouterInterface.sol\":14665:14677  bool success */\n      0x00\n      swap2\n      sub(shl(0xa0, 0x01), 0x01)\n        /* \"RouterInterface.sol\":14683:14698  KyberAggregator */\n      and\n      swap1\n        /* \"RouterInterface.sol\":14665:14677  bool success */\n      dup3\n      swap1\n        /* \"RouterInterface.sol\":14683:14723  KyberAggregator.call{value: 0}(swapData) */\n      tag_496\n      swap1\n        /* \"RouterInterface.sol\":14714:14722  swapData */\n      dup8\n      swap1\n      dup8\n      swap1\n        /* \"RouterInterface.sol\":14683:14723  KyberAggregator.call{value: 0}(swapData) */\n      tag_483\n      jump\t// in\n    tag_496:\n      0x00\n      mload(0x40)\n      dup1\n      dup4\n      sub\n      dup2\n      dup6\n      dup8\n      gas\n      call\n      swap3\n      pop\n      pop\n      pop\n      returndatasize\n      dup1\n      0x00\n      dup2\n      eq\n      tag_499\n      jumpi\n      mload(0x40)\n      swap2\n      pop\n      and(add(returndatasize, 0x3f), not(0x1f))\n      dup3\n      add\n      0x40\n      mstore\n      returndatasize\n      dup3\n      mstore\n      returndatasize\n      0x00\n      0x20\n      dup5\n      add\n      returndatacopy\n      jump(tag_498)\n    tag_499:\n      0x60\n      swap2\n      pop\n    tag_498:\n      pop\n      pop\n        /* \"RouterInterface.sol\":14769:14784  KyberAggregator */\n      sload(0x03)\n        /* \"RouterInterface.sol\":14664:14723  (bool success, ) = KyberAggregator.call{value: 0}(swapData) */\n      swap1\n      swap2\n      pop\n        /* \"RouterInterface.sol\":14737:14787  IERC20(tokenToSwap).safeApprove(KyberAggregator,0) */\n      tag_500\n      swap1\n      sub(shl(0xa0, 0x01), 0x01)\n        /* \"RouterInterface.sol\":14737:14768  IERC20(tokenToSwap).safeApprove */\n      dup9\n      dup2\n      and\n      swap2\n        /* \"RouterInterface.sol\":14769:14784  KyberAggregator */\n      and\n      0x00\n        /* \"RouterInterface.sol\":14737:14768  IERC20(tokenToSwap).safeApprove */\n      tag_494\n        /* \"RouterInterface.sol\":14737:14787  IERC20(tokenToSwap).safeApprove(KyberAggregator,0) */\n      jump\t// in\n    tag_500:\n        /* \"RouterInterface.sol\":14809:14816  success */\n      dup1\n        /* \"RouterInterface.sol\":14801:14833  require(success,\"Couldn't swap\") */\n      tag_501\n      jumpi\n      mload(0x40)\n      shl(0xe5, 0x461bcd)\n      dup2\n      mstore\n        /* \"#utility.yul\":12602:12604   */\n      0x20\n        /* \"RouterInterface.sol\":14801:14833  require(success,\"Couldn't swap\") */\n      0x04\n      dup3\n      add\n        /* \"#utility.yul\":12584:12605   */\n      mstore\n        /* \"#utility.yul\":12641:12643   */\n      0x0d\n        /* \"#utility.yul\":12621:12639   */\n      0x24\n      dup3\n      add\n        /* \"#utility.yul\":12614:12644   */\n      mstore\n      shl(0x9c, 0x0436f756c646e2774207377617)\n        /* \"#utility.yul\":12660:12678   */\n      0x44\n      dup3\n      add\n        /* \"#utility.yul\":12653:12696   */\n      mstore\n        /* \"#utility.yul\":12713:12731   */\n      0x64\n      add\n        /* \"RouterInterface.sol\":14801:14833  require(success,\"Couldn't swap\") */\n      tag_141\n        /* \"#utility.yul\":12400:12737   */\n      jump\n        /* \"RouterInterface.sol\":14801:14833  require(success,\"Couldn't swap\") */\n    tag_501:\n        /* \"RouterInterface.sol\":14404:14844  {... */\n      pop\n      pop\n        /* \"RouterInterface.sol\":14045:14850  function _performSwap(address tokenToSwap, uint256 amountIn, bytes calldata swapData) internal{... */\n      pop\n      pop\n      pop\n      pop\n      jump\t// out\n        /* \"RouterInterface.sol\":8706:8883  function _approveToPool(address pool, address token, uint256 amount) internal{... */\n    tag_444:\n        /* \"RouterInterface.sol\":8793:8827  IERC20(token).safeApprove(pool, 0) */\n      tag_504\n      sub(shl(0xa0, 0x01), 0x01)\n        /* \"RouterInterface.sol\":8793:8818  IERC20(token).safeApprove */\n      dup4\n      and\n        /* \"RouterInterface.sol\":8819:8823  pool */\n      dup5\n        /* \"RouterInterface.sol\":8825:8826  0 */\n      0x00\n        /* \"RouterInterface.sol\":8793:8818  IERC20(token).safeApprove */\n      tag_494\n        /* \"RouterInterface.sol\":8793:8827  IERC20(token).safeApprove(pool, 0) */\n      jump\t// in\n    tag_504:\n        /* \"RouterInterface.sol\":8837:8876  IERC20(token).safeApprove(pool, amount) */\n      tag_456\n      sub(shl(0xa0, 0x01), 0x01)\n        /* \"RouterInterface.sol\":8837:8862  IERC20(token).safeApprove */\n      dup4\n      and\n        /* \"RouterInterface.sol\":8863:8867  pool */\n      dup5\n        /* \"RouterInterface.sol\":8869:8875  amount */\n      dup4\n        /* \"RouterInterface.sol\":8837:8862  IERC20(token).safeApprove */\n      tag_494\n        /* \"RouterInterface.sol\":8837:8876  IERC20(token).safeApprove(pool, amount) */\n      jump\t// in\n        /* \"RouterInterface.sol\":8564:8700  function _processDeposit(address user, address pool, uint256 amount) internal{... */\n    tag_446:\n        /* \"RouterInterface.sol\":8651:8693  IMutualPool(pool).depositFor(user, amount) */\n      mload(0x40)\n      shl(0xe1, 0x17a790f1)\n      dup2\n      mstore\n      sub(shl(0xa0, 0x01), 0x01)\n        /* \"#utility.yul\":12037:12069   */\n      dup5\n      dup2\n      and\n        /* \"RouterInterface.sol\":8651:8693  IMutualPool(pool).depositFor(user, amount) */\n      0x04\n      dup4\n      add\n        /* \"#utility.yul\":12019:12070   */\n      mstore\n        /* \"#utility.yul\":12086:12104   */\n      0x24\n      dup3\n      add\n        /* \"#utility.yul\":12079:12113   */\n      dup4\n      swap1\n      mstore\n        /* \"RouterInterface.sol\":8651:8679  IMutualPool(pool).depositFor */\n      dup4\n      and\n      swap1\n      0x2f4f21e2\n      swap1\n        /* \"#utility.yul\":11992:12010   */\n      0x44\n      add\n        /* \"RouterInterface.sol\":8651:8693  IMutualPool(pool).depositFor(user, amount) */\n      tag_474\n        /* \"#utility.yul\":11845:12119   */\n      jump\n        /* \"@openzeppelin/contracts/token/ERC20/utils/SafeERC20.sol\":941:1116  function safeTransfer(IERC20 token, address to, uint256 value) internal {... */\n    tag_457:\n        /* \"@openzeppelin/contracts/token/ERC20/utils/SafeERC20.sol\":1050:1108  abi.encodeWithSelector(token.transfer.selector, to, value) */\n      mload(0x40)\n      sub(shl(0xa0, 0x01), 0x01)\n        /* \"#utility.yul\":12037:12069   */\n      dup4\n      and\n        /* \"@openzeppelin/contracts/token/ERC20/utils/SafeERC20.sol\":1050:1108  abi.encodeWithSelector(token.transfer.selector, to, value) */\n      0x24\n      dup3\n      add\n        /* \"#utility.yul\":12019:12070   */\n      mstore\n        /* \"#utility.yul\":12086:12104   */\n      0x44\n      dup2\n      add\n        /* \"#utility.yul\":12079:12113   */\n      dup3\n      swap1\n      mstore\n        /* \"@openzeppelin/contracts/token/ERC20/utils/SafeERC20.sol\":1023:1109  _callOptionalReturn(token, abi.encodeWithSelector(token.transfer.selector, to, value)) */\n      tag_456\n      swap1\n        /* \"@openzeppelin/contracts/token/ERC20/utils/SafeERC20.sol\":1043:1048  token */\n      dup5\n      swap1\n      shl(0xe0, 0xa9059cbb)\n        /* \"@openzeppelin/contracts/token/ERC20/utils/SafeERC20.sol\":1073:1096  token.transfer.selector */\n      swap1\n        /* \"#utility.yul\":11992:12010   */\n      0x64\n      add\n        /* \"@openzeppelin/contracts/token/ERC20/utils/SafeERC20.sol\":1050:1108  abi.encodeWithSelector(token.transfer.selector, to, value) */\n    tag_513:\n      0x40\n      dup1\n      mload\n      not(0x1f)\n      dup2\n      dup5\n      sub\n      add\n      dup2\n      mstore\n      swap2\n      swap1\n      mstore\n      0x20\n      dup2\n      add\n      dup1\n      mload\n      sub(shl(0xe0, 0x01), 0x01)\n      and\n      not(sub(shl(0xe0, 0x01), 0x01))\n      swap1\n      swap4\n      and\n      swap3\n      swap1\n      swap3\n      or\n      swap1\n      swap2\n      mstore\n        /* \"@openzeppelin/contracts/token/ERC20/utils/SafeERC20.sol\":1023:1042  _callOptionalReturn */\n      tag_514\n        /* \"@openzeppelin/contracts/token/ERC20/utils/SafeERC20.sol\":1023:1109  _callOptionalReturn(token, abi.encodeWithSelector(token.transfer.selector, to, value)) */\n      jump\t// in\n        /* \"@openzeppelin/contracts/token/ERC20/utils/SafeERC20.sol\":1355:1558  function safeTransferFrom(IERC20 token, address from, address to, uint256 value) internal {... */\n    tag_466:\n        /* \"@openzeppelin/contracts/token/ERC20/utils/SafeERC20.sol\":1482:1550  abi.encodeWithSelector(token.transferFrom.selector, from, to, value) */\n      mload(0x40)\n      sub(shl(0xa0, 0x01), 0x01)\n        /* \"#utility.yul\":6741:6756   */\n      dup1\n      dup6\n      and\n        /* \"@openzeppelin/contracts/token/ERC20/utils/SafeERC20.sol\":1482:1550  abi.encodeWithSelector(token.transferFrom.selector, from, to, value) */\n      0x24\n      dup4\n      add\n        /* \"#utility.yul\":6723:6757   */\n      mstore\n        /* \"#utility.yul\":6793:6808   */\n      dup4\n      and\n        /* \"#utility.yul\":6773:6791   */\n      0x44\n      dup3\n      add\n        /* \"#utility.yul\":6766:6809   */\n      mstore\n        /* \"#utility.yul\":6825:6843   */\n      0x64\n      dup2\n      add\n        /* \"#utility.yul\":6818:6852   */\n      dup3\n      swap1\n      mstore\n        /* \"@openzeppelin/contracts/token/ERC20/utils/SafeERC20.sol\":1455:1551  _callOptionalReturn(token, abi.encodeWithSelector(token.transferFrom.selector, from, to, value)) */\n      tag_445\n      swap1\n        /* \"@openzeppelin/contracts/token/ERC20/utils/SafeERC20.sol\":1475:1480  token */\n      dup6\n      swap1\n      shl(0xe0, 0x23b872dd)\n        /* \"@openzeppelin/contracts/token/ERC20/utils/SafeERC20.sol\":1505:1532  token.transferFrom.selector */\n      swap1\n        /* \"#utility.yul\":6658:6676   */\n      0x84\n      add\n        /* \"@openzeppelin/contracts/token/ERC20/utils/SafeERC20.sol\":1482:1550  abi.encodeWithSelector(token.transferFrom.selector, from, to, value) */\n      tag_513\n        /* \"#utility.yul\":6483:6858   */\n      jump\n        /* \"@openzeppelin/contracts/token/ERC20/utils/SafeERC20.sol\":1818:2391  function safeApprove(IERC20 token, address spender, uint256 value) internal {... */\n    tag_494:\n        /* \"@openzeppelin/contracts/token/ERC20/utils/SafeERC20.sol\":2143:2153  value == 0 */\n      dup1\n      iszero\n      dup1\n        /* \"@openzeppelin/contracts/token/ERC20/utils/SafeERC20.sol\":2142:2204  (value == 0) || (token.allowance(address(this), spender) == 0) */\n      tag_519\n      jumpi\n      pop\n        /* \"@openzeppelin/contracts/token/ERC20/utils/SafeERC20.sol\":2159:2198  token.allowance(address(this), spender) */\n      mload(0x40)\n      shl(0xe1, 0x6eb1769f)\n      dup2\n      mstore\n        /* \"@openzeppelin/contracts/token/ERC20/utils/SafeERC20.sol\":2183:2187  this */\n      address\n        /* \"@openzeppelin/contracts/token/ERC20/utils/SafeERC20.sol\":2159:2198  token.allowance(address(this), spender) */\n      0x04\n      dup3\n      add\n        /* \"#utility.yul\":12954:12988   */\n      mstore\n      sub(shl(0xa0, 0x01), 0x01)\n        /* \"#utility.yul\":13024:13039   */\n      dup4\n      dup2\n      and\n        /* \"#utility.yul\":13004:13022   */\n      0x24\n      dup4\n      add\n        /* \"#utility.yul\":12997:13040   */\n      mstore\n        /* \"@openzeppelin/contracts/token/ERC20/utils/SafeERC20.sol\":2159:2174  token.allowance */\n      dup5\n      and\n      swap1\n      0xdd62ed3e\n      swap1\n        /* \"#utility.yul\":12889:12907   */\n      0x44\n      add\n        /* \"@openzeppelin/contracts/token/ERC20/utils/SafeERC20.sol\":2159:2198  token.allowance(address(this), spender) */\n      0x20\n      mload(0x40)\n      dup1\n      dup4\n      sub\n      dup2\n      dup7\n      gas\n      staticcall\n      iszero\n      dup1\n      iszero\n      tag_523\n      jumpi\n      returndatasize\n      0x00\n      dup1\n      returndatacopy\n      revert(0x00, returndatasize)\n    tag_523:\n      pop\n      pop\n      pop\n      pop\n      mload(0x40)\n      returndatasize\n      not(0x1f)\n      0x1f\n      dup3\n      add\n      and\n      dup3\n      add\n      dup1\n      0x40\n      mstore\n      pop\n      dup2\n      add\n      swap1\n      tag_524\n      swap2\n      swap1\n      tag_185\n      jump\t// in\n    tag_524:\n        /* \"@openzeppelin/contracts/token/ERC20/utils/SafeERC20.sol\":2159:2203  token.allowance(address(this), spender) == 0 */\n      iszero\n        /* \"@openzeppelin/contracts/token/ERC20/utils/SafeERC20.sol\":2142:2204  (value == 0) || (token.allowance(address(this), spender) == 0) */\n    tag_519:\n        /* \"@openzeppelin/contracts/token/ERC20/utils/SafeERC20.sol\":2121:2284  require(... */\n      tag_525\n      jumpi\n      mload(0x40)\n      shl(0xe5, 0x461bcd)\n      dup2\n      mstore\n        /* \"#utility.yul\":13253:13255   */\n      0x20\n        /* \"@openzeppelin/contracts/token/ERC20/utils/SafeERC20.sol\":2121:2284  require(... */\n      0x04\n      dup3\n      add\n        /* \"#utility.yul\":13235:13256   */\n      mstore\n        /* \"#utility.yul\":13292:13294   */\n      0x36\n        /* \"#utility.yul\":13272:13290   */\n      0x24\n      dup3\n      add\n        /* \"#utility.yul\":13265:13295   */\n      mstore\n        /* \"#utility.yul\":13331:13365   */\n      0x5361666545524332303a20617070726f76652066726f6d206e6f6e2d7a65726f\n        /* \"#utility.yul\":13311:13329   */\n      0x44\n      dup3\n      add\n        /* \"#utility.yul\":13304:13366   */\n      mstore\n      shl(0x50, 0x20746f206e6f6e2d7a65726f20616c6c6f77616e6365)\n        /* \"#utility.yul\":13382:13400   */\n      0x64\n      dup3\n      add\n        /* \"#utility.yul\":13375:13427   */\n      mstore\n        /* \"#utility.yul\":13444:13463   */\n      0x84\n      add\n        /* \"@openzeppelin/contracts/token/ERC20/utils/SafeERC20.sol\":2121:2284  require(... */\n      tag_141\n        /* \"#utility.yul\":13051:13469   */\n      jump\n        /* \"@openzeppelin/contracts/token/ERC20/utils/SafeERC20.sol\":2121:2284  require(... */\n    tag_525:\n        /* \"@openzeppelin/contracts/token/ERC20/utils/SafeERC20.sol\":2321:2383  abi.encodeWithSelector(token.approve.selector, spender, value) */\n      mload(0x40)\n      sub(shl(0xa0, 0x01), 0x01)\n        /* \"#utility.yul\":12037:12069   */\n      dup4\n      and\n        /* \"@openzeppelin/contracts/token/ERC20/utils/SafeERC20.sol\":2321:2383  abi.encodeWithSelector(token.approve.selector, spender, value) */\n      0x24\n      dup3\n      add\n        /* \"#utility.yul\":12019:12070   */\n      mstore\n        /* \"#utility.yul\":12086:12104   */\n      0x44\n      dup2\n      add\n        /* \"#utility.yul\":12079:12113   */\n      dup3\n      swap1\n      mstore\n        /* \"@openzeppelin/contracts/token/ERC20/utils/SafeERC20.sol\":2294:2384  _callOptionalReturn(token, abi.encodeWithSelector(token.approve.selector, spender, value)) */\n      tag_456\n      swap1\n        /* \"@openzeppelin/contracts/token/ERC20/utils/SafeERC20.sol\":2314:2319  token */\n      dup5\n      swap1\n      shl(0xe0, 0x095ea7b3)\n        /* \"@openzeppelin/contracts/token/ERC20/utils/SafeERC20.sol\":2344:2366  token.approve.selector */\n      swap1\n        /* \"#utility.yul\":11992:12010   */\n      0x64\n      add\n        /* \"@openzeppelin/contracts/token/ERC20/utils/SafeERC20.sol\":2321:2383  abi.encodeWithSelector(token.approve.selector, spender, value) */\n      tag_513\n        /* \"#utility.yul\":11845:12119   */\n      jump\n        /* \"@openzeppelin/contracts/token/ERC20/utils/SafeERC20.sol\":5196:5838  function _callOptionalReturn(IERC20 token, bytes memory data) private {... */\n    tag_514:\n        /* \"@openzeppelin/contracts/token/ERC20/utils/SafeERC20.sol\":5615:5638  bytes memory returndata */\n      0x00\n        /* \"@openzeppelin/contracts/token/ERC20/utils/SafeERC20.sol\":5641:5710  address(token).functionCall(data, \"SafeERC20: low-level call failed\") */\n      tag_531\n        /* \"@openzeppelin/contracts/token/ERC20/utils/SafeERC20.sol\":5669:5673  data */\n      dup3\n        /* \"@openzeppelin/contracts/token/ERC20/utils/SafeERC20.sol\":5641:5710  address(token).functionCall(data, \"SafeERC20: low-level call failed\") */\n      mload(0x40)\n      dup1\n      0x40\n      add\n      0x40\n      mstore\n      dup1\n      0x20\n      dup2\n      mstore\n      0x20\n      add\n      0x5361666545524332303a206c6f772d6c6576656c2063616c6c206661696c6564\n      dup2\n      mstore\n      pop\n        /* \"@openzeppelin/contracts/token/ERC20/utils/SafeERC20.sol\":5649:5654  token */\n      dup6\n      sub(shl(0xa0, 0x01), 0x01)\n        /* \"@openzeppelin/contracts/token/ERC20/utils/SafeERC20.sol\":5641:5668  address(token).functionCall */\n      and\n      tag_532\n      swap1\n        /* \"@openzeppelin/contracts/token/ERC20/utils/SafeERC20.sol\":5641:5710  address(token).functionCall(data, \"SafeERC20: low-level call failed\") */\n      swap3\n      swap2\n      swap1\n      0xffffffff\n      and\n      jump\t// in\n    tag_531:\n        /* \"@openzeppelin/contracts/token/ERC20/utils/SafeERC20.sol\":5615:5710  bytes memory returndata = address(token).functionCall(data, \"SafeERC20: low-level call failed\") */\n      swap1\n      pop\n        /* \"@openzeppelin/contracts/token/ERC20/utils/SafeERC20.sol\":5728:5738  returndata */\n      dup1\n        /* \"@openzeppelin/contracts/token/ERC20/utils/SafeERC20.sol\":5728:5745  returndata.length */\n      mload\n        /* \"@openzeppelin/contracts/token/ERC20/utils/SafeERC20.sol\":5749:5750  0 */\n      0x00\n        /* \"@openzeppelin/contracts/token/ERC20/utils/SafeERC20.sol\":5728:5750  returndata.length == 0 */\n      eq\n        /* \"@openzeppelin/contracts/token/ERC20/utils/SafeERC20.sol\":5728:5784  returndata.length == 0 || abi.decode(returndata, (bool)) */\n      dup1\n      tag_534\n      jumpi\n      pop\n        /* \"@openzeppelin/contracts/token/ERC20/utils/SafeERC20.sol\":5765:5775  returndata */\n      dup1\n        /* \"@openzeppelin/contracts/token/ERC20/utils/SafeERC20.sol\":5754:5784  abi.decode(returndata, (bool)) */\n      dup1\n      0x20\n      add\n      swap1\n      mload\n      dup2\n      add\n      swap1\n      tag_534\n      swap2\n      swap1\n      tag_535\n      jump\t// in\n    tag_534:\n        /* \"@openzeppelin/contracts/token/ERC20/utils/SafeERC20.sol\":5720:5831  require(returndata.length == 0 || abi.decode(returndata, (bool)), \"SafeERC20: ERC20 operation did not succeed\") */\n      tag_456\n      jumpi\n      mload(0x40)\n      shl(0xe5, 0x461bcd)\n      dup2\n      mstore\n        /* \"#utility.yul\":13883:13885   */\n      0x20\n        /* \"@openzeppelin/contracts/token/ERC20/utils/SafeERC20.sol\":5720:5831  require(returndata.length == 0 || abi.decode(returndata, (bool)), \"SafeERC20: ERC20 operation did not succeed\") */\n      0x04\n      dup3\n      add\n        /* \"#utility.yul\":13865:13886   */\n      mstore\n        /* \"#utility.yul\":13922:13924   */\n      0x2a\n        /* \"#utility.yul\":13902:13920   */\n      0x24\n      dup3\n      add\n        /* \"#utility.yul\":13895:13925   */\n      mstore\n        /* \"#utility.yul\":13961:13995   */\n      0x5361666545524332303a204552433230206f7065726174696f6e20646964206e\n        /* \"#utility.yul\":13941:13959   */\n      0x44\n      dup3\n      add\n        /* \"#utility.yul\":13934:13996   */\n      mstore\n      shl(0xb2, 0x1bdd081cdd58d8d95959)\n        /* \"#utility.yul\":14012:14030   */\n      0x64\n      dup3\n      add\n        /* \"#utility.yul\":14005:14045   */\n      mstore\n        /* \"#utility.yul\":14062:14081   */\n      0x84\n      add\n        /* \"@openzeppelin/contracts/token/ERC20/utils/SafeERC20.sol\":5720:5831  require(returndata.length == 0 || abi.decode(returndata, (bool)), \"SafeERC20: ERC20 operation did not succeed\") */\n      tag_141\n        /* \"#utility.yul\":13681:14087   */\n      jump\n        /* \"@openzeppelin/contracts/utils/Address.sol\":4108:4331  function functionCall(... */\n    tag_532:\n        /* \"@openzeppelin/contracts/utils/Address.sol\":4241:4253  bytes memory */\n      0x60\n        /* \"@openzeppelin/contracts/utils/Address.sol\":4272:4324  functionCallWithValue(target, data, 0, errorMessage) */\n      tag_540\n        /* \"@openzeppelin/contracts/utils/Address.sol\":4294:4300  target */\n      dup5\n        /* \"@openzeppelin/contracts/utils/Address.sol\":4302:4306  data */\n      dup5\n        /* \"@openzeppelin/contracts/utils/Address.sol\":4308:4309  0 */\n      0x00\n        /* \"@openzeppelin/contracts/utils/Address.sol\":4311:4323  errorMessage */\n      dup6\n        /* \"@openzeppelin/contracts/utils/Address.sol\":4272:4293  functionCallWithValue */\n      tag_541\n        /* \"@openzeppelin/contracts/utils/Address.sol\":4272:4324  functionCallWithValue(target, data, 0, errorMessage) */\n      jump\t// in\n    tag_540:\n        /* \"@openzeppelin/contracts/utils/Address.sol\":4265:4324  return functionCallWithValue(target, data, 0, errorMessage) */\n      swap5\n        /* \"@openzeppelin/contracts/utils/Address.sol\":4108:4331  function functionCall(... */\n      swap4\n      pop\n      pop\n      pop\n      pop\n      jump\t// out\n        /* \"@openzeppelin/contracts/utils/Address.sol\":5165:5611  function functionCallWithValue(... */\n    tag_541:\n        /* \"@openzeppelin/contracts/utils/Address.sol\":5330:5342  bytes memory */\n      0x60\n        /* \"@openzeppelin/contracts/utils/Address.sol\":5387:5392  value */\n      dup3\n        /* \"@openzeppelin/contracts/utils/Address.sol\":5362:5383  address(this).balance */\n      selfbalance\n        /* \"@openzeppelin/contracts/utils/Address.sol\":5362:5392  address(this).balance >= value */\n      lt\n      iszero\n        /* \"@openzeppelin/contracts/utils/Address.sol\":5354:5435  require(address(this).balance >= value, \"Address: insufficient balance for call\") */\n      tag_543\n      jumpi\n      mload(0x40)\n      shl(0xe5, 0x461bcd)\n      dup2\n      mstore\n        /* \"#utility.yul\":14294:14296   */\n      0x20\n        /* \"@openzeppelin/contracts/utils/Address.sol\":5354:5435  require(address(this).balance >= value, \"Address: insufficient balance for call\") */\n      0x04\n      dup3\n      add\n        /* \"#utility.yul\":14276:14297   */\n      mstore\n        /* \"#utility.yul\":14333:14335   */\n      0x26\n        /* \"#utility.yul\":14313:14331   */\n      0x24\n      dup3\n      add\n        /* \"#utility.yul\":14306:14336   */\n      mstore\n        /* \"#utility.yul\":14372:14406   */\n      0x416464726573733a20696e73756666696369656e742062616c616e636520666f\n        /* \"#utility.yul\":14352:14370   */\n      0x44\n      dup3\n      add\n        /* \"#utility.yul\":14345:14407   */\n      mstore\n      shl(0xd2, 0x1c8818d85b1b)\n        /* \"#utility.yul\":14423:14441   */\n      0x64\n      dup3\n      add\n        /* \"#utility.yul\":14416:14452   */\n      mstore\n        /* \"#utility.yul\":14469:14488   */\n      0x84\n      add\n        /* \"@openzeppelin/contracts/utils/Address.sol\":5354:5435  require(address(this).balance >= value, \"Address: insufficient balance for call\") */\n      tag_141\n        /* \"#utility.yul\":14092:14494   */\n      jump\n        /* \"@openzeppelin/contracts/utils/Address.sol\":5354:5435  require(address(this).balance >= value, \"Address: insufficient balance for call\") */\n    tag_543:\n        /* \"@openzeppelin/contracts/utils/Address.sol\":5446:5458  bool success */\n      0x00\n        /* \"@openzeppelin/contracts/utils/Address.sol\":5460:5483  bytes memory returndata */\n      dup1\n        /* \"@openzeppelin/contracts/utils/Address.sol\":5487:5493  target */\n      dup7\n      sub(shl(0xa0, 0x01), 0x01)\n        /* \"@openzeppelin/contracts/utils/Address.sol\":5487:5498  target.call */\n      and\n        /* \"@openzeppelin/contracts/utils/Address.sol\":5506:5511  value */\n      dup6\n        /* \"@openzeppelin/contracts/utils/Address.sol\":5513:5517  data */\n      dup8\n        /* \"@openzeppelin/contracts/utils/Address.sol\":5487:5518  target.call{value: value}(data) */\n      mload(0x40)\n      tag_546\n      swap2\n      swap1\n      tag_547\n      jump\t// in\n    tag_546:\n      0x00\n      mload(0x40)\n      dup1\n      dup4\n      sub\n      dup2\n      dup6\n      dup8\n      gas\n      call\n      swap3\n      pop\n      pop\n      pop\n      returndatasize\n      dup1\n      0x00\n      dup2\n      eq\n      tag_550\n      jumpi\n      mload(0x40)\n      swap2\n      pop\n      and(add(returndatasize, 0x3f), not(0x1f))\n      dup3\n      add\n      0x40\n      mstore\n      returndatasize\n      dup3\n      mstore\n      returndatasize\n      0x00\n      0x20\n      dup5\n      add\n      returndatacopy\n      jump(tag_549)\n    tag_550:\n      0x60\n      swap2\n      pop\n    tag_549:\n      pop\n        /* \"@openzeppelin/contracts/utils/Address.sol\":5445:5518  (bool success, bytes memory returndata) = target.call{value: value}(data) */\n      swap2\n      pop\n      swap2\n      pop\n        /* \"@openzeppelin/contracts/utils/Address.sol\":5535:5604  verifyCallResultFromTarget(target, success, returndata, errorMessage) */\n      tag_223\n        /* \"@openzeppelin/contracts/utils/Address.sol\":5562:5568  target */\n      dup8\n        /* \"@openzeppelin/contracts/utils/Address.sol\":5570:5577  success */\n      dup4\n        /* \"@openzeppelin/contracts/utils/Address.sol\":5579:5589  returndata */\n      dup4\n        /* \"@openzeppelin/contracts/utils/Address.sol\":5591:5603  errorMessage */\n      dup8\n        /* \"@openzeppelin/contracts/utils/Address.sol\":7851:7863  bytes memory */\n      0x60\n        /* \"@openzeppelin/contracts/utils/Address.sol\":7879:7886  success */\n      dup4\n        /* \"@openzeppelin/contracts/utils/Address.sol\":7875:8293  if (success) {... */\n      iszero\n      tag_554\n      jumpi\n        /* \"@openzeppelin/contracts/utils/Address.sol\":7906:7916  returndata */\n      dup3\n        /* \"@openzeppelin/contracts/utils/Address.sol\":7906:7923  returndata.length */\n      mload\n        /* \"@openzeppelin/contracts/utils/Address.sol\":7927:7928  0 */\n      0x00\n        /* \"@openzeppelin/contracts/utils/Address.sol\":7906:7928  returndata.length == 0 */\n      sub\n        /* \"@openzeppelin/contracts/utils/Address.sol\":7902:8188  if (returndata.length == 0) {... */\n      tag_558\n      jumpi\n      sub(shl(0xa0, 0x01), 0x01)\n        /* \"@openzeppelin/contracts/utils/Address.sol\":1702:1721  account.code.length */\n      dup6\n      and\n      extcodesize\n        /* \"@openzeppelin/contracts/utils/Address.sol\":8113:8173  require(isContract(target), \"Address: call to non-contract\") */\n      tag_558\n      jumpi\n      mload(0x40)\n      shl(0xe5, 0x461bcd)\n      dup2\n      mstore\n        /* \"#utility.yul\":15248:15250   */\n      0x20\n        /* \"@openzeppelin/contracts/utils/Address.sol\":8113:8173  require(isContract(target), \"Address: call to non-contract\") */\n      0x04\n      dup3\n      add\n        /* \"#utility.yul\":15230:15251   */\n      mstore\n        /* \"#utility.yul\":15287:15289   */\n      0x1d\n        /* \"#utility.yul\":15267:15285   */\n      0x24\n      dup3\n      add\n        /* \"#utility.yul\":15260:15290   */\n      mstore\n        /* \"#utility.yul\":15326:15357   */\n      0x416464726573733a2063616c6c20746f206e6f6e2d636f6e7472616374000000\n        /* \"#utility.yul\":15306:15324   */\n      0x44\n      dup3\n      add\n        /* \"#utility.yul\":15299:15358   */\n      mstore\n        /* \"#utility.yul\":15375:15393   */\n      0x64\n      add\n        /* \"@openzeppelin/contracts/utils/Address.sol\":8113:8173  require(isContract(target), \"Address: call to non-contract\") */\n      tag_141\n        /* \"#utility.yul\":15046:15399   */\n      jump\n        /* \"@openzeppelin/contracts/utils/Address.sol\":8113:8173  require(isContract(target), \"Address: call to non-contract\") */\n    tag_558:\n      pop\n        /* \"@openzeppelin/contracts/utils/Address.sol\":8208:8218  returndata */\n      dup2\n        /* \"@openzeppelin/contracts/utils/Address.sol\":8201:8218  return returndata */\n      jump(tag_540)\n        /* \"@openzeppelin/contracts/utils/Address.sol\":7875:8293  if (success) {... */\n    tag_554:\n        /* \"@openzeppelin/contracts/utils/Address.sol\":8249:8282  _revert(returndata, errorMessage) */\n      tag_540\n        /* \"@openzeppelin/contracts/utils/Address.sol\":8257:8267  returndata */\n      dup4\n        /* \"@openzeppelin/contracts/utils/Address.sol\":8269:8281  errorMessage */\n      dup4\n        /* \"@openzeppelin/contracts/utils/Address.sol\":8980:8997  returndata.length */\n      dup2\n      mload\n        /* \"@openzeppelin/contracts/utils/Address.sol\":8980:9001  returndata.length > 0 */\n      iszero\n        /* \"@openzeppelin/contracts/utils/Address.sol\":8976:9355  if (returndata.length > 0) {... */\n      tag_566\n      jumpi\n        /* \"@openzeppelin/contracts/utils/Address.sol\":9208:9218  returndata */\n      dup2\n        /* \"@openzeppelin/contracts/utils/Address.sol\":9202:9219  mload(returndata) */\n      mload\n        /* \"@openzeppelin/contracts/utils/Address.sol\":9264:9279  returndata_size */\n      dup1\n        /* \"@openzeppelin/contracts/utils/Address.sol\":9251:9261  returndata */\n      dup4\n        /* \"@openzeppelin/contracts/utils/Address.sol\":9247:9249  32 */\n      0x20\n        /* \"@openzeppelin/contracts/utils/Address.sol\":9243:9262  add(32, returndata) */\n      add\n        /* \"@openzeppelin/contracts/utils/Address.sol\":9236:9280  revert(add(32, returndata), returndata_size) */\n      revert\n        /* \"@openzeppelin/contracts/utils/Address.sol\":8976:9355  if (returndata.length > 0) {... */\n    tag_566:\n        /* \"@openzeppelin/contracts/utils/Address.sol\":9331:9343  errorMessage */\n      dup1\n        /* \"@openzeppelin/contracts/utils/Address.sol\":9324:9344  revert(errorMessage) */\n      mload(0x40)\n      shl(0xe5, 0x461bcd)\n      dup2\n      mstore\n      0x04\n      add\n      tag_141\n      swap2\n      swap1\n      tag_569\n      jump\t// in\n        /* \"#utility.yul\":14:145   */\n    tag_574:\n      sub(shl(0xa0, 0x01), 0x01)\n        /* \"#utility.yul\":89:120   */\n      dup2\n      and\n        /* \"#utility.yul\":79:121   */\n      dup2\n      eq\n        /* \"#utility.yul\":69:139   */\n      tag_582\n      jumpi\n        /* \"#utility.yul\":135:136   */\n      0x00\n        /* \"#utility.yul\":132:133   */\n      dup1\n        /* \"#utility.yul\":125:137   */\n      revert\n        /* \"#utility.yul\":69:139   */\n    tag_582:\n        /* \"#utility.yul\":14:145   */\n      pop\n      jump\t// out\n        /* \"#utility.yul\":150:397   */\n    tag_32:\n        /* \"#utility.yul\":209:215   */\n      0x00\n        /* \"#utility.yul\":262:264   */\n      0x20\n        /* \"#utility.yul\":250:259   */\n      dup3\n        /* \"#utility.yul\":241:248   */\n      dup5\n        /* \"#utility.yul\":237:260   */\n      sub\n        /* \"#utility.yul\":233:265   */\n      slt\n        /* \"#utility.yul\":230:282   */\n      iszero\n      tag_584\n      jumpi\n        /* \"#utility.yul\":278:279   */\n      0x00\n        /* \"#utility.yul\":275:276   */\n      dup1\n        /* \"#utility.yul\":268:280   */\n      revert\n        /* \"#utility.yul\":230:282   */\n    tag_584:\n        /* \"#utility.yul\":317:326   */\n      dup2\n        /* \"#utility.yul\":304:327   */\n      calldataload\n        /* \"#utility.yul\":336:367   */\n      tag_415\n        /* \"#utility.yul\":361:366   */\n      dup2\n        /* \"#utility.yul\":336:367   */\n      tag_574\n      jump\t// in\n        /* \"#utility.yul\":402:650   */\n    tag_37:\n        /* \"#utility.yul\":470:476   */\n      0x00\n        /* \"#utility.yul\":478:484   */\n      dup1\n        /* \"#utility.yul\":531:533   */\n      0x40\n        /* \"#utility.yul\":519:528   */\n      dup4\n        /* \"#utility.yul\":510:517   */\n      dup6\n        /* \"#utility.yul\":506:529   */\n      sub\n        /* \"#utility.yul\":502:534   */\n      slt\n        /* \"#utility.yul\":499:551   */\n      iszero\n      tag_587\n      jumpi\n        /* \"#utility.yul\":547:548   */\n      0x00\n        /* \"#utility.yul\":544:545   */\n      dup1\n        /* \"#utility.yul\":537:549   */\n      revert\n        /* \"#utility.yul\":499:551   */\n    tag_587:\n      pop\n      pop\n        /* \"#utility.yul\":570:593   */\n      dup1\n      calldataload\n      swap3\n        /* \"#utility.yul\":640:642   */\n      0x20\n        /* \"#utility.yul\":625:643   */\n      swap1\n      swap2\n      add\n        /* \"#utility.yul\":612:644   */\n      calldataload\n      swap2\n      pop\n        /* \"#utility.yul\":402:650   */\n      jump\t// out\n        /* \"#utility.yul\":655:1518   */\n    tag_41:\n        /* \"#utility.yul\":752:758   */\n      0x00\n        /* \"#utility.yul\":760:766   */\n      dup1\n        /* \"#utility.yul\":768:774   */\n      0x00\n        /* \"#utility.yul\":776:782   */\n      dup1\n        /* \"#utility.yul\":784:790   */\n      0x00\n        /* \"#utility.yul\":837:840   */\n      0x80\n        /* \"#utility.yul\":825:834   */\n      dup7\n        /* \"#utility.yul\":816:823   */\n      dup9\n        /* \"#utility.yul\":812:835   */\n      sub\n        /* \"#utility.yul\":808:841   */\n      slt\n        /* \"#utility.yul\":805:858   */\n      iszero\n      tag_589\n      jumpi\n        /* \"#utility.yul\":854:855   */\n      0x00\n        /* \"#utility.yul\":851:852   */\n      dup1\n        /* \"#utility.yul\":844:856   */\n      revert\n        /* \"#utility.yul\":805:858   */\n    tag_589:\n        /* \"#utility.yul\":890:899   */\n      dup6\n        /* \"#utility.yul\":877:900   */\n      calldataload\n        /* \"#utility.yul\":867:900   */\n      swap5\n      pop\n        /* \"#utility.yul\":950:952   */\n      0x20\n        /* \"#utility.yul\":939:948   */\n      dup7\n        /* \"#utility.yul\":935:953   */\n      add\n        /* \"#utility.yul\":922:954   */\n      calldataload\n        /* \"#utility.yul\":963:994   */\n      tag_590\n        /* \"#utility.yul\":988:993   */\n      dup2\n        /* \"#utility.yul\":963:994   */\n      tag_574\n      jump\t// in\n    tag_590:\n        /* \"#utility.yul\":1013:1018   */\n      swap4\n      pop\n        /* \"#utility.yul\":1065:1067   */\n      0x40\n        /* \"#utility.yul\":1050:1068   */\n      dup7\n      add\n        /* \"#utility.yul\":1037:1069   */\n      calldataload\n      swap3\n      pop\n        /* \"#utility.yul\":1120:1122   */\n      0x60\n        /* \"#utility.yul\":1105:1123   */\n      dup7\n      add\n        /* \"#utility.yul\":1092:1124   */\n      calldataload\n        /* \"#utility.yul\":1143:1161   */\n      0xffffffffffffffff\n        /* \"#utility.yul\":1173:1187   */\n      dup1\n      dup3\n      gt\n        /* \"#utility.yul\":1170:1204   */\n      iszero\n      tag_591\n      jumpi\n        /* \"#utility.yul\":1200:1201   */\n      0x00\n        /* \"#utility.yul\":1197:1198   */\n      dup1\n        /* \"#utility.yul\":1190:1202   */\n      revert\n        /* \"#utility.yul\":1170:1204   */\n    tag_591:\n        /* \"#utility.yul\":1238:1244   */\n      dup2\n        /* \"#utility.yul\":1227:1236   */\n      dup9\n        /* \"#utility.yul\":1223:1245   */\n      add\n        /* \"#utility.yul\":1213:1245   */\n      swap2\n      pop\n        /* \"#utility.yul\":1283:1290   */\n      dup9\n        /* \"#utility.yul\":1276:1280   */\n      0x1f\n        /* \"#utility.yul\":1272:1274   */\n      dup4\n        /* \"#utility.yul\":1268:1281   */\n      add\n        /* \"#utility.yul\":1264:1291   */\n      slt\n        /* \"#utility.yul\":1254:1309   */\n      tag_592\n      jumpi\n        /* \"#utility.yul\":1305:1306   */\n      0x00\n        /* \"#utility.yul\":1302:1303   */\n      dup1\n        /* \"#utility.yul\":1295:1307   */\n      revert\n        /* \"#utility.yul\":1254:1309   */\n    tag_592:\n        /* \"#utility.yul\":1345:1347   */\n      dup2\n        /* \"#utility.yul\":1332:1348   */\n      calldataload\n        /* \"#utility.yul\":1371:1373   */\n      dup2\n        /* \"#utility.yul\":1363:1369   */\n      dup2\n        /* \"#utility.yul\":1360:1374   */\n      gt\n        /* \"#utility.yul\":1357:1391   */\n      iszero\n      tag_593\n      jumpi\n        /* \"#utility.yul\":1387:1388   */\n      0x00\n        /* \"#utility.yul\":1384:1385   */\n      dup1\n        /* \"#utility.yul\":1377:1389   */\n      revert\n        /* \"#utility.yul\":1357:1391   */\n    tag_593:\n        /* \"#utility.yul\":1432:1439   */\n      dup10\n        /* \"#utility.yul\":1427:1429   */\n      0x20\n        /* \"#utility.yul\":1418:1424   */\n      dup3\n        /* \"#utility.yul\":1414:1416   */\n      dup6\n        /* \"#utility.yul\":1410:1425   */\n      add\n        /* \"#utility.yul\":1406:1430   */\n      add\n        /* \"#utility.yul\":1403:1440   */\n      gt\n        /* \"#utility.yul\":1400:1457   */\n      iszero\n      tag_594\n      jumpi\n        /* \"#utility.yul\":1453:1454   */\n      0x00\n        /* \"#utility.yul\":1450:1451   */\n      dup1\n        /* \"#utility.yul\":1443:1455   */\n      revert\n        /* \"#utility.yul\":1400:1457   */\n    tag_594:\n        /* \"#utility.yul\":655:1518   */\n      swap7\n      swap10\n      swap6\n      swap9\n      pop\n      swap4\n      swap7\n      pop\n        /* \"#utility.yul\":1484:1486   */\n      0x20\n        /* \"#utility.yul\":1476:1487   */\n      add\n      swap5\n        /* \"#utility.yul\":1506:1512   */\n      swap4\n        /* \"#utility.yul\":655:1518   */\n      swap3\n      pop\n      pop\n      pop\n      jump\t// out\n        /* \"#utility.yul\":1523:1906   */\n    tag_46:\n        /* \"#utility.yul\":1600:1606   */\n      0x00\n        /* \"#utility.yul\":1608:1614   */\n      dup1\n        /* \"#utility.yul\":1616:1622   */\n      0x00\n        /* \"#utility.yul\":1669:1671   */\n      0x60\n        /* \"#utility.yul\":1657:1666   */\n      dup5\n        /* \"#utility.yul\":1648:1655   */\n      dup7\n        /* \"#utility.yul\":1644:1667   */\n      sub\n        /* \"#utility.yul\":1640:1672   */\n      slt\n        /* \"#utility.yul\":1637:1689   */\n      iszero\n      tag_596\n      jumpi\n        /* \"#utility.yul\":1685:1686   */\n      0x00\n        /* \"#utility.yul\":1682:1683   */\n      dup1\n        /* \"#utility.yul\":1675:1687   */\n      revert\n        /* \"#utility.yul\":1637:1689   */\n    tag_596:\n        /* \"#utility.yul\":1721:1730   */\n      dup4\n        /* \"#utility.yul\":1708:1731   */\n      calldataload\n        /* \"#utility.yul\":1698:1731   */\n      swap3\n      pop\n        /* \"#utility.yul\":1778:1780   */\n      0x20\n        /* \"#utility.yul\":1767:1776   */\n      dup5\n        /* \"#utility.yul\":1763:1781   */\n      add\n        /* \"#utility.yul\":1750:1782   */\n      calldataload\n        /* \"#utility.yul\":1740:1782   */\n      swap2\n      pop\n        /* \"#utility.yul\":1832:1834   */\n      0x40\n        /* \"#utility.yul\":1821:1830   */\n      dup5\n        /* \"#utility.yul\":1817:1835   */\n      add\n        /* \"#utility.yul\":1804:1836   */\n      calldataload\n        /* \"#utility.yul\":1845:1876   */\n      tag_597\n        /* \"#utility.yul\":1870:1875   */\n      dup2\n        /* \"#utility.yul\":1845:1876   */\n      tag_574\n      jump\t// in\n    tag_597:\n        /* \"#utility.yul\":1895:1900   */\n      dup1\n        /* \"#utility.yul\":1885:1900   */\n      swap2\n      pop\n      pop\n        /* \"#utility.yul\":1523:1906   */\n      swap3\n      pop\n      swap3\n      pop\n      swap3\n      jump\t// out\n        /* \"#utility.yul\":2093:2273   */\n    tag_53:\n        /* \"#utility.yul\":2152:2158   */\n      0x00\n        /* \"#utility.yul\":2205:2207   */\n      0x20\n        /* \"#utility.yul\":2193:2202   */\n      dup3\n        /* \"#utility.yul\":2184:2191   */\n      dup5\n        /* \"#utility.yul\":2180:2203   */\n      sub\n        /* \"#utility.yul\":2176:2208   */\n      slt\n        /* \"#utility.yul\":2173:2225   */\n      iszero\n      tag_600\n      jumpi\n        /* \"#utility.yul\":2221:2222   */\n      0x00\n        /* \"#utility.yul\":2218:2219   */\n      dup1\n        /* \"#utility.yul\":2211:2223   */\n      revert\n        /* \"#utility.yul\":2173:2225   */\n    tag_600:\n      pop\n        /* \"#utility.yul\":2244:2267   */\n      calldataload\n      swap2\n        /* \"#utility.yul\":2093:2273   */\n      swap1\n      pop\n      jump\t// out\n        /* \"#utility.yul\":2278:2593   */\n    tag_69:\n        /* \"#utility.yul\":2346:2352   */\n      0x00\n        /* \"#utility.yul\":2354:2360   */\n      dup1\n        /* \"#utility.yul\":2407:2409   */\n      0x40\n        /* \"#utility.yul\":2395:2404   */\n      dup4\n        /* \"#utility.yul\":2386:2393   */\n      dup6\n        /* \"#utility.yul\":2382:2405   */\n      sub\n        /* \"#utility.yul\":2378:2410   */\n      slt\n        /* \"#utility.yul\":2375:2427   */\n      iszero\n      tag_602\n      jumpi\n        /* \"#utility.yul\":2423:2424   */\n      0x00\n        /* \"#utility.yul\":2420:2421   */\n      dup1\n        /* \"#utility.yul\":2413:2425   */\n      revert\n        /* \"#utility.yul\":2375:2427   */\n    tag_602:\n        /* \"#utility.yul\":2462:2471   */\n      dup3\n        /* \"#utility.yul\":2449:2472   */\n      calldataload\n        /* \"#utility.yul\":2481:2512   */\n      tag_603\n        /* \"#utility.yul\":2506:2511   */\n      dup2\n        /* \"#utility.yul\":2481:2512   */\n      tag_574\n      jump\t// in\n    tag_603:\n        /* \"#utility.yul\":2531:2536   */\n      swap5\n        /* \"#utility.yul\":2583:2585   */\n      0x20\n        /* \"#utility.yul\":2568:2586   */\n      swap4\n      swap1\n      swap4\n      add\n        /* \"#utility.yul\":2555:2587   */\n      calldataload\n      swap4\n      pop\n      pop\n      pop\n        /* \"#utility.yul\":2278:2593   */\n      jump\t// out\n        /* \"#utility.yul\":3158:3473   */\n    tag_125:\n        /* \"#utility.yul\":3226:3232   */\n      0x00\n        /* \"#utility.yul\":3234:3240   */\n      dup1\n        /* \"#utility.yul\":3287:3289   */\n      0x40\n        /* \"#utility.yul\":3275:3284   */\n      dup4\n        /* \"#utility.yul\":3266:3273   */\n      dup6\n        /* \"#utility.yul\":3262:3285   */\n      sub\n        /* \"#utility.yul\":3258:3290   */\n      slt\n        /* \"#utility.yul\":3255:3307   */\n      iszero\n      tag_607\n      jumpi\n        /* \"#utility.yul\":3303:3304   */\n      0x00\n        /* \"#utility.yul\":3300:3301   */\n      dup1\n        /* \"#utility.yul\":3293:3305   */\n      revert\n        /* \"#utility.yul\":3255:3307   */\n    tag_607:\n        /* \"#utility.yul\":3339:3348   */\n      dup3\n        /* \"#utility.yul\":3326:3349   */\n      calldataload\n        /* \"#utility.yul\":3316:3349   */\n      swap2\n      pop\n        /* \"#utility.yul\":3399:3401   */\n      0x20\n        /* \"#utility.yul\":3388:3397   */\n      dup4\n        /* \"#utility.yul\":3384:3402   */\n      add\n        /* \"#utility.yul\":3371:3403   */\n      calldataload\n        /* \"#utility.yul\":3412:3443   */\n      tag_608\n        /* \"#utility.yul\":3437:3442   */\n      dup2\n        /* \"#utility.yul\":3412:3443   */\n      tag_574\n      jump\t// in\n    tag_608:\n        /* \"#utility.yul\":3462:3467   */\n      dup1\n        /* \"#utility.yul\":3452:3467   */\n      swap2\n      pop\n      pop\n        /* \"#utility.yul\":3158:3473   */\n      swap3\n      pop\n      swap3\n      swap1\n      pop\n      jump\t// out\n        /* \"#utility.yul\":5064:5315   */\n    tag_139:\n        /* \"#utility.yul\":5134:5140   */\n      0x00\n        /* \"#utility.yul\":5187:5189   */\n      0x20\n        /* \"#utility.yul\":5175:5184   */\n      dup3\n        /* \"#utility.yul\":5166:5173   */\n      dup5\n        /* \"#utility.yul\":5162:5185   */\n      sub\n        /* \"#utility.yul\":5158:5190   */\n      slt\n        /* \"#utility.yul\":5155:5207   */\n      iszero\n      tag_616\n      jumpi\n        /* \"#utility.yul\":5203:5204   */\n      0x00\n        /* \"#utility.yul\":5200:5201   */\n      dup1\n        /* \"#utility.yul\":5193:5205   */\n      revert\n        /* \"#utility.yul\":5155:5207   */\n    tag_616:\n        /* \"#utility.yul\":5235:5244   */\n      dup2\n        /* \"#utility.yul\":5229:5245   */\n      mload\n        /* \"#utility.yul\":5254:5285   */\n      tag_415\n        /* \"#utility.yul\":5279:5284   */\n      dup2\n        /* \"#utility.yul\":5254:5285   */\n      tag_574\n      jump\t// in\n        /* \"#utility.yul\":5320:5658   */\n    tag_142:\n        /* \"#utility.yul\":5522:5524   */\n      0x20\n        /* \"#utility.yul\":5504:5525   */\n      dup1\n      dup3\n      mstore\n        /* \"#utility.yul\":5561:5563   */\n      0x0e\n        /* \"#utility.yul\":5541:5559   */\n      swap1\n      dup3\n      add\n        /* \"#utility.yul\":5534:5564   */\n      mstore\n      shl(0x91, 0x24b73b30b634b21031b0b63632b9)\n        /* \"#utility.yul\":5595:5597   */\n      0x40\n        /* \"#utility.yul\":5580:5598   */\n      dup3\n      add\n        /* \"#utility.yul\":5573:5617   */\n      mstore\n        /* \"#utility.yul\":5649:5651   */\n      0x60\n        /* \"#utility.yul\":5634:5652   */\n      add\n      swap1\n        /* \"#utility.yul\":5320:5658   */\n      jump\t// out\n        /* \"#utility.yul\":5663:6005   */\n    tag_149:\n        /* \"#utility.yul\":5865:5867   */\n      0x20\n        /* \"#utility.yul\":5847:5868   */\n      dup1\n      dup3\n      mstore\n        /* \"#utility.yul\":5904:5906   */\n      0x12\n        /* \"#utility.yul\":5884:5902   */\n      swap1\n      dup3\n      add\n        /* \"#utility.yul\":5877:5907   */\n      mstore\n      shl(0x72, 0x141bdbdb08191bd95cdb89dd08195e1a5cdd)\n        /* \"#utility.yul\":5938:5940   */\n      0x40\n        /* \"#utility.yul\":5923:5941   */\n      dup3\n      add\n        /* \"#utility.yul\":5916:5964   */\n      mstore\n        /* \"#utility.yul\":5996:5998   */\n      0x60\n        /* \"#utility.yul\":5981:5999   */\n      add\n      swap1\n        /* \"#utility.yul\":5663:6005   */\n      jump\t// out\n        /* \"#utility.yul\":6010:6346   */\n    tag_153:\n        /* \"#utility.yul\":6212:6214   */\n      0x20\n        /* \"#utility.yul\":6194:6215   */\n      dup1\n      dup3\n      mstore\n        /* \"#utility.yul\":6251:6253   */\n      0x0c\n        /* \"#utility.yul\":6231:6249   */\n      swap1\n      dup3\n      add\n        /* \"#utility.yul\":6224:6254   */\n      mstore\n      shl(0xa2, 0x125b1b1959d85b0818d85b1b)\n        /* \"#utility.yul\":6285:6287   */\n      0x40\n        /* \"#utility.yul\":6270:6288   */\n      dup3\n      add\n        /* \"#utility.yul\":6263:6305   */\n      mstore\n        /* \"#utility.yul\":6337:6339   */\n      0x60\n        /* \"#utility.yul\":6322:6340   */\n      add\n      swap1\n        /* \"#utility.yul\":6010:6346   */\n      jump\t// out\n        /* \"#utility.yul\":6351:6478   */\n    tag_157:\n        /* \"#utility.yul\":6412:6422   */\n      0x4e487b71\n        /* \"#utility.yul\":6407:6410   */\n      0xe0\n        /* \"#utility.yul\":6403:6423   */\n      shl\n        /* \"#utility.yul\":6400:6401   */\n      0x00\n        /* \"#utility.yul\":6393:6424   */\n      mstore\n        /* \"#utility.yul\":6443:6447   */\n      0x32\n        /* \"#utility.yul\":6440:6441   */\n      0x04\n        /* \"#utility.yul\":6433:6448   */\n      mstore\n        /* \"#utility.yul\":6467:6471   */\n      0x24\n        /* \"#utility.yul\":6464:6465   */\n      0x00\n        /* \"#utility.yul\":6457:6472   */\n      revert\n        /* \"#utility.yul\":7142:7326   */\n    tag_185:\n        /* \"#utility.yul\":7212:7218   */\n      0x00\n        /* \"#utility.yul\":7265:7267   */\n      0x20\n        /* \"#utility.yul\":7253:7262   */\n      dup3\n        /* \"#utility.yul\":7244:7251   */\n      dup5\n        /* \"#utility.yul\":7240:7263   */\n      sub\n        /* \"#utility.yul\":7236:7268   */\n      slt\n        /* \"#utility.yul\":7233:7285   */\n      iszero\n      tag_625\n      jumpi\n        /* \"#utility.yul\":7281:7282   */\n      0x00\n        /* \"#utility.yul\":7278:7279   */\n      dup1\n        /* \"#utility.yul\":7271:7283   */\n      revert\n        /* \"#utility.yul\":7233:7285   */\n    tag_625:\n      pop\n        /* \"#utility.yul\":7304:7320   */\n      mload\n      swap2\n        /* \"#utility.yul\":7142:7326   */\n      swap1\n      pop\n      jump\t// out\n        /* \"#utility.yul\":7539:7764   */\n    tag_241:\n        /* \"#utility.yul\":7606:7615   */\n      dup2\n      dup2\n      sub\n        /* \"#utility.yul\":7627:7638   */\n      dup2\n      dup2\n      gt\n        /* \"#utility.yul\":7624:7758   */\n      iszero\n      tag_414\n      jumpi\n        /* \"#utility.yul\":7680:7690   */\n      0x4e487b71\n        /* \"#utility.yul\":7675:7678   */\n      0xe0\n        /* \"#utility.yul\":7671:7691   */\n      shl\n        /* \"#utility.yul\":7668:7669   */\n      0x00\n        /* \"#utility.yul\":7661:7692   */\n      mstore\n        /* \"#utility.yul\":7715:7719   */\n      0x11\n        /* \"#utility.yul\":7712:7713   */\n      0x04\n        /* \"#utility.yul\":7705:7720   */\n      mstore\n        /* \"#utility.yul\":7743:7747   */\n      0x24\n        /* \"#utility.yul\":7740:7741   */\n      0x00\n        /* \"#utility.yul\":7733:7748   */\n      revert\n        /* \"#utility.yul\":8590:8937   */\n    tag_576:\n        /* \"#utility.yul\":8657:8659   */\n      0x40\n        /* \"#utility.yul\":8651:8660   */\n      mload\n        /* \"#utility.yul\":8699:8705   */\n      0x0100\n        /* \"#utility.yul\":8687:8706   */\n      dup2\n      add\n        /* \"#utility.yul\":8736:8754   */\n      0xffffffffffffffff\n        /* \"#utility.yul\":8721:8755   */\n      dup2\n      gt\n        /* \"#utility.yul\":8757:8779   */\n      dup3\n      dup3\n      lt\n        /* \"#utility.yul\":8718:8780   */\n      or\n        /* \"#utility.yul\":8715:8900   */\n      iszero\n      tag_632\n      jumpi\n        /* \"#utility.yul\":8822:8832   */\n      0x4e487b71\n        /* \"#utility.yul\":8817:8820   */\n      0xe0\n        /* \"#utility.yul\":8813:8833   */\n      shl\n        /* \"#utility.yul\":8810:8811   */\n      0x00\n        /* \"#utility.yul\":8803:8834   */\n      mstore\n        /* \"#utility.yul\":8857:8861   */\n      0x41\n        /* \"#utility.yul\":8854:8855   */\n      0x04\n        /* \"#utility.yul\":8847:8862   */\n      mstore\n        /* \"#utility.yul\":8885:8889   */\n      0x24\n        /* \"#utility.yul\":8882:8883   */\n      0x00\n        /* \"#utility.yul\":8875:8890   */\n      revert\n        /* \"#utility.yul\":8715:8900   */\n    tag_632:\n        /* \"#utility.yul\":8916:8918   */\n      0x40\n        /* \"#utility.yul\":8909:8931   */\n      mstore\n        /* \"#utility.yul\":8590:8937   */\n      swap1\n      jump\t// out\n        /* \"#utility.yul\":8942:9728   */\n    tag_340:\n        /* \"#utility.yul\":9038:9044   */\n      0x00\n        /* \"#utility.yul\":9091:9094   */\n      0x80\n        /* \"#utility.yul\":9079:9088   */\n      dup3\n        /* \"#utility.yul\":9070:9077   */\n      dup5\n        /* \"#utility.yul\":9066:9089   */\n      sub\n        /* \"#utility.yul\":9062:9095   */\n      slt\n        /* \"#utility.yul\":9059:9112   */\n      iszero\n      tag_634\n      jumpi\n        /* \"#utility.yul\":9108:9109   */\n      0x00\n        /* \"#utility.yul\":9105:9106   */\n      dup1\n        /* \"#utility.yul\":9098:9110   */\n      revert\n        /* \"#utility.yul\":9059:9112   */\n    tag_634:\n        /* \"#utility.yul\":9141:9143   */\n      0x40\n        /* \"#utility.yul\":9135:9144   */\n      mload\n        /* \"#utility.yul\":9183:9186   */\n      0x80\n        /* \"#utility.yul\":9175:9181   */\n      dup2\n        /* \"#utility.yul\":9171:9187   */\n      add\n        /* \"#utility.yul\":9253:9259   */\n      dup2\n        /* \"#utility.yul\":9241:9251   */\n      dup2\n        /* \"#utility.yul\":9238:9260   */\n      lt\n        /* \"#utility.yul\":9217:9235   */\n      0xffffffffffffffff\n        /* \"#utility.yul\":9205:9215   */\n      dup3\n        /* \"#utility.yul\":9202:9236   */\n      gt\n        /* \"#utility.yul\":9199:9261   */\n      or\n        /* \"#utility.yul\":9196:9381   */\n      iszero\n      tag_635\n      jumpi\n        /* \"#utility.yul\":9303:9313   */\n      0x4e487b71\n        /* \"#utility.yul\":9298:9301   */\n      0xe0\n        /* \"#utility.yul\":9294:9314   */\n      shl\n        /* \"#utility.yul\":9291:9292   */\n      0x00\n        /* \"#utility.yul\":9284:9315   */\n      mstore\n        /* \"#utility.yul\":9338:9342   */\n      0x41\n        /* \"#utility.yul\":9335:9336   */\n      0x04\n        /* \"#utility.yul\":9328:9343   */\n      mstore\n        /* \"#utility.yul\":9366:9370   */\n      0x24\n        /* \"#utility.yul\":9363:9364   */\n      0x00\n        /* \"#utility.yul\":9356:9371   */\n      revert\n        /* \"#utility.yul\":9196:9381   */\n    tag_635:\n        /* \"#utility.yul\":9397:9399   */\n      0x40\n        /* \"#utility.yul\":9390:9412   */\n      mstore\n        /* \"#utility.yul\":9434:9450   */\n      dup3\n      mload\n        /* \"#utility.yul\":9459:9490   */\n      tag_636\n        /* \"#utility.yul\":9434:9450   */\n      dup2\n        /* \"#utility.yul\":9459:9490   */\n      tag_574\n      jump\t// in\n    tag_636:\n        /* \"#utility.yul\":9514:9519   */\n      dup1\n        /* \"#utility.yul\":9506:9512   */\n      dup3\n        /* \"#utility.yul\":9499:9520   */\n      mstore\n      pop\n        /* \"#utility.yul\":9574:9576   */\n      0x20\n        /* \"#utility.yul\":9563:9572   */\n      dup4\n        /* \"#utility.yul\":9559:9577   */\n      add\n        /* \"#utility.yul\":9553:9578   */\n      mload\n        /* \"#utility.yul\":9548:9550   */\n      0x20\n        /* \"#utility.yul\":9540:9546   */\n      dup3\n        /* \"#utility.yul\":9536:9551   */\n      add\n        /* \"#utility.yul\":9529:9579   */\n      mstore\n        /* \"#utility.yul\":9633:9635   */\n      0x40\n        /* \"#utility.yul\":9622:9631   */\n      dup4\n        /* \"#utility.yul\":9618:9636   */\n      add\n        /* \"#utility.yul\":9612:9637   */\n      mload\n        /* \"#utility.yul\":9607:9609   */\n      0x40\n        /* \"#utility.yul\":9599:9605   */\n      dup3\n        /* \"#utility.yul\":9595:9610   */\n      add\n        /* \"#utility.yul\":9588:9638   */\n      mstore\n        /* \"#utility.yul\":9692:9694   */\n      0x60\n        /* \"#utility.yul\":9681:9690   */\n      dup4\n        /* \"#utility.yul\":9677:9695   */\n      add\n        /* \"#utility.yul\":9671:9696   */\n      mload\n        /* \"#utility.yul\":9666:9668   */\n      0x60\n        /* \"#utility.yul\":9658:9664   */\n      dup3\n        /* \"#utility.yul\":9654:9669   */\n      add\n        /* \"#utility.yul\":9647:9697   */\n      mstore\n        /* \"#utility.yul\":9716:9722   */\n      dup1\n        /* \"#utility.yul\":9706:9722   */\n      swap2\n      pop\n      pop\n        /* \"#utility.yul\":8942:9728   */\n      swap3\n      swap2\n      pop\n      pop\n      jump\t// out\n        /* \"#utility.yul\":9733:9897   */\n    tag_577:\n        /* \"#utility.yul\":9809:9822   */\n      dup1\n      mload\n        /* \"#utility.yul\":9858:9871   */\n      dup1\n      iszero\n        /* \"#utility.yul\":9851:9872   */\n      iszero\n        /* \"#utility.yul\":9841:9873   */\n      dup2\n      eq\n        /* \"#utility.yul\":9831:9891   */\n      tag_638\n      jumpi\n        /* \"#utility.yul\":9887:9888   */\n      0x00\n        /* \"#utility.yul\":9884:9885   */\n      dup1\n        /* \"#utility.yul\":9877:9889   */\n      revert\n        /* \"#utility.yul\":9831:9891   */\n    tag_638:\n        /* \"#utility.yul\":9733:9897   */\n      swap2\n      swap1\n      pop\n      jump\t// out\n        /* \"#utility.yul\":9902:10626   */\n    tag_578:\n        /* \"#utility.yul\":9972:9977   */\n      0x00\n        /* \"#utility.yul\":10020:10024   */\n      0x60\n        /* \"#utility.yul\":10008:10017   */\n      dup3\n        /* \"#utility.yul\":10003:10006   */\n      dup5\n        /* \"#utility.yul\":9999:10018   */\n      sub\n        /* \"#utility.yul\":9995:10025   */\n      slt\n        /* \"#utility.yul\":9992:10042   */\n      iszero\n      tag_640\n      jumpi\n        /* \"#utility.yul\":10038:10039   */\n      0x00\n        /* \"#utility.yul\":10035:10036   */\n      dup1\n        /* \"#utility.yul\":10028:10040   */\n      revert\n        /* \"#utility.yul\":9992:10042   */\n    tag_640:\n        /* \"#utility.yul\":10071:10073   */\n      0x40\n        /* \"#utility.yul\":10065:10074   */\n      mload\n        /* \"#utility.yul\":10113:10117   */\n      0x60\n        /* \"#utility.yul\":10105:10111   */\n      dup2\n        /* \"#utility.yul\":10101:10118   */\n      add\n        /* \"#utility.yul\":10184:10190   */\n      dup2\n        /* \"#utility.yul\":10172:10182   */\n      dup2\n        /* \"#utility.yul\":10169:10191   */\n      lt\n        /* \"#utility.yul\":10148:10166   */\n      0xffffffffffffffff\n        /* \"#utility.yul\":10136:10146   */\n      dup3\n        /* \"#utility.yul\":10133:10167   */\n      gt\n        /* \"#utility.yul\":10130:10192   */\n      or\n        /* \"#utility.yul\":10127:10312   */\n      iszero\n      tag_641\n      jumpi\n        /* \"#utility.yul\":10234:10244   */\n      0x4e487b71\n        /* \"#utility.yul\":10229:10232   */\n      0xe0\n        /* \"#utility.yul\":10225:10245   */\n      shl\n        /* \"#utility.yul\":10222:10223   */\n      0x00\n        /* \"#utility.yul\":10215:10246   */\n      mstore\n        /* \"#utility.yul\":10269:10273   */\n      0x41\n        /* \"#utility.yul\":10266:10267   */\n      0x04\n        /* \"#utility.yul\":10259:10274   */\n      mstore\n        /* \"#utility.yul\":10297:10301   */\n      0x24\n        /* \"#utility.yul\":10294:10295   */\n      0x00\n        /* \"#utility.yul\":10287:10302   */\n      revert\n        /* \"#utility.yul\":10127:10312   */\n    tag_641:\n        /* \"#utility.yul\":10332:10342   */\n      dup1\n        /* \"#utility.yul\":10328:10330   */\n      0x40\n        /* \"#utility.yul\":10321:10343   */\n      mstore\n      pop\n        /* \"#utility.yul\":10361:10367   */\n      dup1\n        /* \"#utility.yul\":10352:10367   */\n      swap2\n      pop\n        /* \"#utility.yul\":10397:10406   */\n      dup3\n        /* \"#utility.yul\":10391:10407   */\n      mload\n        /* \"#utility.yul\":10416:10449   */\n      tag_642\n        /* \"#utility.yul\":10441:10448   */\n      dup2\n        /* \"#utility.yul\":10416:10449   */\n      tag_574\n      jump\t// in\n    tag_642:\n        /* \"#utility.yul\":10458:10481   */\n      dup2\n      mstore\n        /* \"#utility.yul\":10535:10537   */\n      0x20\n        /* \"#utility.yul\":10520:10538   */\n      dup4\n      dup2\n      add\n        /* \"#utility.yul\":10514:10539   */\n      mload\n        /* \"#utility.yul\":10497:10512   */\n      swap1\n      dup3\n      add\n        /* \"#utility.yul\":10490:10540   */\n      mstore\n        /* \"#utility.yul\":10573:10619   */\n      tag_643\n        /* \"#utility.yul\":10615:10617   */\n      0x40\n        /* \"#utility.yul\":10600:10618   */\n      dup5\n      add\n        /* \"#utility.yul\":10573:10619   */\n      tag_577\n      jump\t// in\n    tag_643:\n        /* \"#utility.yul\":10568:10570   */\n      0x40\n        /* \"#utility.yul\":10560:10566   */\n      dup3\n        /* \"#utility.yul\":10556:10571   */\n      add\n        /* \"#utility.yul\":10549:10620   */\n      mstore\n      pop\n        /* \"#utility.yul\":9902:10626   */\n      swap3\n      swap2\n      pop\n      pop\n      jump\t// out\n        /* \"#utility.yul\":10631:11492   */\n    tag_361:\n        /* \"#utility.yul\":10730:10736   */\n      0x00\n        /* \"#utility.yul\":10783:10786   */\n      0x01c0\n        /* \"#utility.yul\":10771:10780   */\n      dup3\n        /* \"#utility.yul\":10762:10769   */\n      dup5\n        /* \"#utility.yul\":10758:10781   */\n      sub\n        /* \"#utility.yul\":10754:10787   */\n      slt\n        /* \"#utility.yul\":10751:10804   */\n      iszero\n      tag_645\n      jumpi\n        /* \"#utility.yul\":10800:10801   */\n      0x00\n        /* \"#utility.yul\":10797:10798   */\n      dup1\n        /* \"#utility.yul\":10790:10802   */\n      revert\n        /* \"#utility.yul\":10751:10804   */\n    tag_645:\n        /* \"#utility.yul\":10826:10843   */\n      tag_646\n      tag_576\n      jump\t// in\n    tag_646:\n        /* \"#utility.yul\":10866:10927   */\n      tag_647\n        /* \"#utility.yul\":10919:10926   */\n      dup5\n        /* \"#utility.yul\":10908:10917   */\n      dup5\n        /* \"#utility.yul\":10866:10927   */\n      tag_578\n      jump\t// in\n    tag_647:\n        /* \"#utility.yul\":10859:10864   */\n      dup2\n        /* \"#utility.yul\":10852:10928   */\n      mstore\n        /* \"#utility.yul\":10962:11032   */\n      tag_648\n        /* \"#utility.yul\":11024:11031   */\n      dup5\n        /* \"#utility.yul\":11019:11021   */\n      0x60\n        /* \"#utility.yul\":11008:11017   */\n      dup6\n        /* \"#utility.yul\":11004:11022   */\n      add\n        /* \"#utility.yul\":10962:11032   */\n      tag_578\n      jump\t// in\n    tag_648:\n        /* \"#utility.yul\":10955:10959   */\n      0x20\n        /* \"#utility.yul\":10948:10953   */\n      dup3\n        /* \"#utility.yul\":10944:10960   */\n      add\n        /* \"#utility.yul\":10937:11033   */\n      mstore\n        /* \"#utility.yul\":11067:11138   */\n      tag_649\n        /* \"#utility.yul\":11130:11137   */\n      dup5\n        /* \"#utility.yul\":11124:11127   */\n      0xc0\n        /* \"#utility.yul\":11113:11122   */\n      dup6\n        /* \"#utility.yul\":11109:11128   */\n      add\n        /* \"#utility.yul\":11067:11138   */\n      tag_578\n      jump\t// in\n    tag_649:\n        /* \"#utility.yul\":11060:11064   */\n      0x40\n        /* \"#utility.yul\":11053:11058   */\n      dup3\n        /* \"#utility.yul\":11049:11065   */\n      add\n        /* \"#utility.yul\":11042:11139   */\n      mstore\n        /* \"#utility.yul\":11171:11218   */\n      tag_650\n        /* \"#utility.yul\":11213:11216   */\n      0x0120\n        /* \"#utility.yul\":11202:11211   */\n      dup5\n        /* \"#utility.yul\":11198:11217   */\n      add\n        /* \"#utility.yul\":11171:11218   */\n      tag_577\n      jump\t// in\n    tag_650:\n        /* \"#utility.yul\":11166:11168   */\n      0x60\n        /* \"#utility.yul\":11155:11169   */\n      dup3\n      add\n        /* \"#utility.yul\":11148:11219   */\n      mstore\n        /* \"#utility.yul\":11274:11277   */\n      0x0140\n        /* \"#utility.yul\":11259:11278   */\n      dup4\n      add\n        /* \"#utility.yul\":11253:11279   */\n      mload\n        /* \"#utility.yul\":11246:11250   */\n      0x80\n        /* \"#utility.yul\":11235:11251   */\n      dup3\n      add\n        /* \"#utility.yul\":11228:11280   */\n      mstore\n        /* \"#utility.yul\":11335:11338   */\n      0x0160\n        /* \"#utility.yul\":11320:11339   */\n      dup4\n      add\n        /* \"#utility.yul\":11314:11340   */\n      mload\n        /* \"#utility.yul\":11307:11311   */\n      0xa0\n        /* \"#utility.yul\":11296:11312   */\n      dup3\n      add\n        /* \"#utility.yul\":11289:11341   */\n      mstore\n        /* \"#utility.yul\":11395:11398   */\n      0x0180\n        /* \"#utility.yul\":11380:11399   */\n      dup4\n      add\n        /* \"#utility.yul\":11374:11400   */\n      mload\n      0xc0\n        /* \"#utility.yul\":11357:11372   */\n      dup3\n      add\n        /* \"#utility.yul\":11350:11401   */\n      mstore\n        /* \"#utility.yul\":11456:11459   */\n      0x01a0\n        /* \"#utility.yul\":11441:11460   */\n      swap1\n      swap3\n      add\n        /* \"#utility.yul\":11435:11461   */\n      mload\n        /* \"#utility.yul\":11428:11432   */\n      0xe0\n        /* \"#utility.yul\":11417:11433   */\n      dup4\n      add\n        /* \"#utility.yul\":11410:11462   */\n      mstore\n      pop\n        /* \"#utility.yul\":11159:11164   */\n      swap2\n        /* \"#utility.yul\":10631:11492   */\n      swap1\n      pop\n      jump\t// out\n        /* \"#utility.yul\":12124:12395   */\n    tag_483:\n        /* \"#utility.yul\":12307:12313   */\n      dup2\n        /* \"#utility.yul\":12299:12305   */\n      dup4\n        /* \"#utility.yul\":12294:12297   */\n      dup3\n        /* \"#utility.yul\":12281:12314   */\n      calldatacopy\n        /* \"#utility.yul\":12263:12266   */\n      0x00\n        /* \"#utility.yul\":12333:12349   */\n      swap2\n      add\n        /* \"#utility.yul\":12358:12371   */\n      swap1\n      dup2\n      mstore\n        /* \"#utility.yul\":12333:12349   */\n      swap2\n        /* \"#utility.yul\":12124:12395   */\n      swap1\n      pop\n      jump\t// out\n        /* \"#utility.yul\":13474:13676   */\n    tag_535:\n        /* \"#utility.yul\":13541:13547   */\n      0x00\n        /* \"#utility.yul\":13594:13596   */\n      0x20\n        /* \"#utility.yul\":13582:13591   */\n      dup3\n        /* \"#utility.yul\":13573:13580   */\n      dup5\n        /* \"#utility.yul\":13569:13592   */\n      sub\n        /* \"#utility.yul\":13565:13597   */\n      slt\n        /* \"#utility.yul\":13562:13614   */\n      iszero\n      tag_658\n      jumpi\n        /* \"#utility.yul\":13610:13611   */\n      0x00\n        /* \"#utility.yul\":13607:13608   */\n      dup1\n        /* \"#utility.yul\":13600:13612   */\n      revert\n        /* \"#utility.yul\":13562:13614   */\n    tag_658:\n        /* \"#utility.yul\":13633:13670   */\n      tag_415\n        /* \"#utility.yul\":13660:13669   */\n      dup3\n        /* \"#utility.yul\":13633:13670   */\n      tag_577\n      jump\t// in\n        /* \"#utility.yul\":14499:14749   */\n    tag_579:\n        /* \"#utility.yul\":14584:14585   */\n      0x00\n        /* \"#utility.yul\":14594:14707   */\n    tag_663:\n        /* \"#utility.yul\":14608:14614   */\n      dup4\n        /* \"#utility.yul\":14605:14606   */\n      dup2\n        /* \"#utility.yul\":14602:14615   */\n      lt\n        /* \"#utility.yul\":14594:14707   */\n      iszero\n      tag_665\n      jumpi\n        /* \"#utility.yul\":14684:14695   */\n      dup2\n      dup2\n      add\n        /* \"#utility.yul\":14678:14696   */\n      mload\n        /* \"#utility.yul\":14665:14676   */\n      dup4\n      dup3\n      add\n        /* \"#utility.yul\":14658:14697   */\n      mstore\n        /* \"#utility.yul\":14630:14632   */\n      0x20\n        /* \"#utility.yul\":14623:14633   */\n      add\n        /* \"#utility.yul\":14594:14707   */\n      jump(tag_663)\n    tag_665:\n      pop\n      pop\n        /* \"#utility.yul\":14741:14742   */\n      0x00\n        /* \"#utility.yul\":14723:14739   */\n      swap2\n      add\n        /* \"#utility.yul\":14716:14743   */\n      mstore\n        /* \"#utility.yul\":14499:14749   */\n      jump\t// out\n        /* \"#utility.yul\":14754:15041   */\n    tag_547:\n        /* \"#utility.yul\":14883:14886   */\n      0x00\n        /* \"#utility.yul\":14921:14927   */\n      dup3\n        /* \"#utility.yul\":14915:14928   */\n      mload\n        /* \"#utility.yul\":14937:15003   */\n      tag_667\n        /* \"#utility.yul\":14996:15002   */\n      dup2\n        /* \"#utility.yul\":14991:14994   */\n      dup5\n        /* \"#utility.yul\":14984:14988   */\n      0x20\n        /* \"#utility.yul\":14976:14982   */\n      dup8\n        /* \"#utility.yul\":14972:14989   */\n      add\n        /* \"#utility.yul\":14937:15003   */\n      tag_579\n      jump\t// in\n    tag_667:\n        /* \"#utility.yul\":15019:15035   */\n      swap2\n      swap1\n      swap2\n      add\n      swap3\n        /* \"#utility.yul\":14754:15041   */\n      swap2\n      pop\n      pop\n      jump\t// out\n        /* \"#utility.yul\":15404:15800   */\n    tag_569:\n        /* \"#utility.yul\":15553:15555   */\n      0x20\n        /* \"#utility.yul\":15542:15551   */\n      dup2\n        /* \"#utility.yul\":15535:15556   */\n      mstore\n        /* \"#utility.yul\":15516:15520   */\n      0x00\n        /* \"#utility.yul\":15585:15591   */\n      dup3\n        /* \"#utility.yul\":15579:15592   */\n      mload\n        /* \"#utility.yul\":15628:15634   */\n      dup1\n        /* \"#utility.yul\":15623:15625   */\n      0x20\n        /* \"#utility.yul\":15612:15621   */\n      dup5\n        /* \"#utility.yul\":15608:15626   */\n      add\n        /* \"#utility.yul\":15601:15635   */\n      mstore\n        /* \"#utility.yul\":15644:15723   */\n      tag_670\n        /* \"#utility.yul\":15716:15722   */\n      dup2\n        /* \"#utility.yul\":15711:15713   */\n      0x40\n        /* \"#utility.yul\":15700:15709   */\n      dup6\n        /* \"#utility.yul\":15696:15714   */\n      add\n        /* \"#utility.yul\":15691:15693   */\n      0x20\n        /* \"#utility.yul\":15683:15689   */\n      dup8\n        /* \"#utility.yul\":15679:15694   */\n      add\n        /* \"#utility.yul\":15644:15723   */\n      tag_579\n      jump\t// in\n    tag_670:\n        /* \"#utility.yul\":15784:15786   */\n      0x1f\n        /* \"#utility.yul\":15763:15778   */\n      add\n      not(0x1f)\n        /* \"#utility.yul\":15759:15788   */\n      and\n        /* \"#utility.yul\":15744:15789   */\n      swap2\n      swap1\n      swap2\n      add\n        /* \"#utility.yul\":15791:15793   */\n      0x40\n        /* \"#utility.yul\":15740:15794   */\n      add\n      swap3\n        /* \"#utility.yul\":15404:15800   */\n      swap2\n      pop\n      pop\n      jump\t// out\n\n    auxdata: 0xa2646970667358221220a74cd7143ebb2d8b1ea01acf47d1d30251c83e461a000e00f3a1e9a0b9e72f7464736f6c63430008150033\n}\n",
				"bytecode": {
					"linkReferences": {},
					"object": "608060405234801561000f575f80fd5b50612c138061001d5f395ff3fe608060405260043610610120575f3560e01c8063ae169a50116100a4578063d914cd4b1161006b578063d914cd4b1461033e578063e2bbb1581461035d578063f50a93511461037c578063fa7c828a146103aa578063fac4348b146103c9578063fdc9ccfa1461042457005b8063ae169a501461025f578063b3944d521461027e578063b8764c3914610292578063c4d66de8146102d8578063d1e71c94146102f757005b80635f311150116100e85780635f311150146101c457806360ab49ea146101e3578063888d7bdd146102025780638f24463014610221578063a38dcbd01461024057005b80633e7eae7f14610122578063441a3e70146101415780634d5d336e1461016057806357ba8dde146101735780635922f9c9146101a5575b005b34801561012d575f80fd5b5061012061013c366004612732565b61050c565b34801561014c575f80fd5b5061012061015b36600461274d565b6105cd565b61012061016e36600461276d565b6106d3565b34801561017e575f80fd5b5061019261018d3660046127fb565b610771565b6040519081526020015b60405180910390f35b3480156101b0575f80fd5b506101926101bf366004612831565b61082f565b3480156101cf575f80fd5b506101926101de366004612831565b6108dc565b3480156101ee575f80fd5b506101926101fd366004612831565b61095b565b34801561020d575f80fd5b5061019261021c366004612848565b6109da565b34801561022c575f80fd5b5061019261023b366004612831565b610a90565b34801561024b575f80fd5b5061012061025a366004612831565b610b0f565b34801561026a575f80fd5b50610120610279366004612831565b610c69565b348015610289575f80fd5b50600154610192565b34801561029d575f80fd5b506102b16102ac366004612831565b610e5e565b6040805182516001600160a01b03908116825260209384015116928101929092520161019c565b3480156102e3575f80fd5b506101206102f2366004612732565b610ef6565b348015610302575f80fd5b5061032e610311366004612732565b6001600160a01b03165f9081526004602052604090205460ff1690565b604051901515815260200161019c565b348015610349575f80fd5b50610120610358366004612732565b610f6f565b348015610368575f80fd5b5061012061037736600461274d565b611122565b348015610387575f80fd5b5061032e610396366004612732565b60046020525f908152604090205460ff1681565b3480156103b5575f80fd5b506101206103c4366004612732565b611234565b3480156103d4575f80fd5b506103e86103e3366004612872565b6112d6565b60405161019c919081516001600160a01b0316815260208083015190820152604080830151908201526060918201519181019190915260800190565b34801561042f575f80fd5b5061044361043e36600461274d565b6114be565b60405161019c9190815180516001600160a01b03168252602080820151908301526040908101511515908201526101c0810160208381015180516001600160a01b031660608501529081015160808401526040810151151560a08401525060408381015180516001600160a01b031660c0850152602081015160e08501529081015115156101008401525060608301511515610120830152608083015161014083015260a083015161016083015260c083015161018083015260e0909201516101a09091015290565b60025460408051633018205f60e01b815290515f926001600160a01b031691633018205f9160048083019260209291908290030181865afa158015610553573d5f803e3d5ffd5b505050506040513d601f19601f8201168201806040525081019061057791906128a0565b9050336001600160a01b038216146105aa5760405162461bcd60e51b81526004016105a1906128bb565b60405180910390fd5b50600380546001600160a01b0319166001600160a01b0392909216919091179055565b6001805483916105de908290611c72565b8211156105fd5760405162461bcd60e51b81526004016105a1906128e3565b5f541561061c5760405162461bcd60e51b81526004016105a19061290f565b60015f819055505f6001858154811061063757610637612935565b5f9182526020918290206040805180820190915260029092020180546001600160a01b03908116808452600190920154169282018390529092509061067e33838389611c86565b604080513381526001600160a01b03841660208201529081018790527f53f917d4e27ae27751aa814f667aa2382dc59d7dd33b9b9b887abec7b2da18289060600160405180910390a150505f80555050505050565b5f54156106f25760405162461bcd60e51b81526004016105a19061290f565b60015f819055505f6001868154811061070d5761070d612935565b5f91825260208083206040805180820190915260029093020180546001600160a01b039081168085526001909201541691830182905291935090916107558289898989611d86565b905061076333848484611e80565b50505f805550505050505050565b600180545f91849190610785908290611c72565b8211156107a45760405162461bcd60e51b81526004016105a1906128e3565b5f6107ae86610e5e565b5160405163d474fbf760e01b8152600481018990526001600160a01b0387811660248301529192505f9183169063d474fbf790604401602060405180830381865afa1580156107ff573d5f803e3d5ffd5b505050506040513d601f19601f820116820180604052508101906108239190612949565b98975050505050505050565b600180545f91839190610843908290611c72565b8211156108625760405162461bcd60e51b81526004016105a1906128e3565b5f61086c85610e5e565b5f015190505f816001600160a01b031663a3d74f066040518163ffffffff1660e01b8152600401602060405180830381865afa1580156108ae573d5f803e3d5ffd5b505050506040513d601f19601f820116820180604052508101906108d29190612949565b9695505050505050565b600180545f918391906108f0908290611c72565b82111561090f5760405162461bcd60e51b81526004016105a1906128e3565b5f61091985610e5e565b5f015190505f816001600160a01b031663361f1ad36040518163ffffffff1660e01b8152600401602060405180830381865afa1580156108ae573d5f803e3d5ffd5b600180545f9183919061096f908290611c72565b82111561098e5760405162461bcd60e51b81526004016105a1906128e3565b5f61099885610e5e565b5f015190505f816001600160a01b031663fd2324de6040518163ffffffff1660e01b8152600401602060405180830381865afa1580156108ae573d5f803e3d5ffd5b600180545f918391906109ee908290611c72565b821115610a0d5760405162461bcd60e51b81526004016105a1906128e3565b5f610a1785610e5e565b5160405163a583024b60e01b81526001600160a01b0388811660048301529192505f9183169063a583024b90602401602060405180830381865afa158015610a61573d5f803e3d5ffd5b505050506040513d601f19601f82011682018060405250810190610a859190612949565b979650505050505050565b600180545f91839190610aa4908290611c72565b821115610ac35760405162461bcd60e51b81526004016105a1906128e3565b5f610acd85610e5e565b5f015190505f816001600160a01b03166326be90bf6040518163ffffffff1660e01b8152600401602060405180830381865afa1580156108ae573d5f803e3d5ffd5b60025460408051633018205f60e01b815290515f926001600160a01b031691633018205f9160048083019260209291908290030181865afa158015610b56573d5f803e3d5ffd5b505050506040513d601f19601f82011682018060405250810190610b7a91906128a0565b9050336001600160a01b03821614610ba45760405162461bcd60e51b81526004016105a1906128bb565b6001805490610bb39082612960565b831115610bd25760405162461bcd60e51b81526004016105a1906128e3565b5f60018481548110610be657610be6612935565b5f918252602090912060029091020154600180546001600160a01b0390921692509085908110610c1857610c18612935565b5f9182526020808320600290920290910180546001600160a01b031990811682556001909101805490911690556001600160a01b03929092168152600490915260409020805460ff19169055505050565b600180548291610c7a908290611c72565b821115610c995760405162461bcd60e51b81526004016105a1906128e3565b5f5415610cb85760405162461bcd60e51b81526004016105a19061290f565b60015f819055505f60018481548110610cd357610cd3612935565b5f918252602080832060408051808201825260029490940290910180546001600160a01b039081168086526001909201541692840183905290516370a0823160e01b815230600482015292945092909182906370a0823190602401602060405180830381865afa158015610d49573d5f803e3d5ffd5b505050506040513d601f19601f82011682018060405250810190610d6d9190612949565b90505f610d7a3385611e9c565b6040516370a0823160e01b81523060048201529091505f906001600160a01b038516906370a0823190602401602060405180830381865afa158015610dc1573d5f803e3d5ffd5b505050506040513d601f19601f82011682018060405250810190610de59190612949565b90505f610df28285611c72565b9050610dff338683611f50565b604080513381526001600160a01b0388811660208301528716818301526060810185905290517ff5a48ea938b5e8d78be0d8d0d1e277621d4854f2b208ee83ae3702ce61828ab59181900360800190a150505f80555050505050505050565b604080518082019091525f8082526020820152600180548391610e82908290611c72565b821115610ea15760405162461bcd60e51b81526004016105a1906128e3565b5f60018581548110610eb557610eb5612935565b5f9182526020918290206040805180820190915260029092020180546001600160a01b03908116835260019091015416918101919091529350505050919050565b600254600160a01b900460ff1615610f505760405162461bcd60e51b815260206004820152601f60248201527f436f6e747261637420697320696e697469616c697a656420616c72656164790060448201526064016105a1565b610f5981611f69565b506002805460ff60a01b1916600160a01b179055565b60025460408051633018205f60e01b815290515f926001600160a01b031691633018205f9160048083019260209291908290030181865afa158015610fb6573d5f803e3d5ffd5b505050506040513d601f19601f82011682018060405250810190610fda91906128a0565b9050336001600160a01b038216146110045760405162461bcd60e51b81526004016105a1906128bb565b5f826001600160a01b0316630fce03b96040518163ffffffff1660e01b8152600401602060405180830381865afa158015611041573d5f803e3d5ffd5b505050506040513d601f19601f8201168201806040525081019061106591906128a0565b6040805180820182526001600160a01b0395861680825292861660208083019182526001805480820182555f828152945160029091027fb10e2d527612073b26eecdfd717e6a320cf44b4afac2b0732d9fcbe2b7fa0cf681018054928c166001600160a01b031993841617905593517fb10e2d527612073b26eecdfd717e6a320cf44b4afac2b0732d9fcbe2b7fa0cf7909401805494909a169316929092179097559281526004909552909320805460ff19169093179092555050565b600180548391611133908290611c72565b8211156111525760405162461bcd60e51b81526004016105a1906128e3565b5f54156111715760405162461bcd60e51b81526004016105a19061290f565b60015f819055505f6001858154811061118c5761118c612935565b5f91825260208083206040805180820190915260029093020180546001600160a01b039081168085526001909201541691830182905291935090916111d18288611f8b565b90506111df33848484611e80565b604080513381526001600160a01b03851660208201529081018290527e8fa12fdef5e29f599717a6d129ca52c2d8a902498312eab6a78c6090b8e8e09060600160405180910390a150505f8055505050505050565b60025460408051631127a41d60e31b815290515f926001600160a01b03169163893d20e89160048083019260209291908290030181865afa15801561127b573d5f803e3d5ffd5b505050506040513d601f19601f8201168201806040525081019061129f91906128a0565b9050336001600160a01b038216146112c95760405162461bcd60e51b81526004016105a1906128bb565b6112d282611f69565b5050565b61130660405180608001604052805f6001600160a01b031681526020015f81526020015f81526020015f81525090565b600180548491611317908290611c72565b8211156113365760405162461bcd60e51b81526004016105a1906128e3565b5f61134086610e5e565b51604080516080810182526001600160a01b03808916808352925163b3a7834d60e01b815260048101939093529293505f929091602083019185169063b3a7834d90602401608060405180830381865afa1580156113a0573d5f803e3d5ffd5b505050506040513d601f19601f820116820180604052508101906113c491906129b5565b602090810151825260405163b3a7834d60e01b81526001600160a01b038a81166004830152929091019185169063b3a7834d90602401608060405180830381865afa158015611415573d5f803e3d5ffd5b505050506040513d601f19601f8201168201806040525081019061143991906129b5565b60409081015182525163b3a7834d60e01b81526001600160a01b03898116600483015260209092019185169063b3a7834d90602401608060405180830381865afa158015611489573d5f803e3d5ffd5b505050506040513d601f19601f820116820180604052508101906114ad91906129b5565b606001519052979650505050505050565b60408051610160810182525f610100820181815261012083018290526101408301829052825282516060808201855282825260208083018490528286018490528085019290925284518082018652838152918201839052818501839052938301529181018290526080810182905260a0810182905260c0810182905260e0810191909152600180548391611553908290611c72565b8211156115725760405162461bcd60e51b81526004016105a1906128e3565b5f61157c85610e5e565b516040805160608101918290526309a8116160e11b909152606481018890529091505f90806001600160a01b03841663135022c2608483016101c060405180830381865afa1580156115d0573d5f803e3d5ffd5b505050506040513d601f19601f820116820180604052508101906115f49190612ab8565b51516001600160a01b0390811682526040516309a8116160e11b8152600481018b90526020909201919085169063135022c2906024016101c060405180830381865afa158015611646573d5f803e3d5ffd5b505050506040513d601f19601f8201168201806040525081019061166a9190612ab8565b5160209081015182526040516309a8116160e11b8152600481018b90529101906001600160a01b0385169063135022c2906024016101c060405180830381865afa1580156116ba573d5f803e3d5ffd5b505050506040513d601f19601f820116820180604052508101906116de9190612ab8565b516040908101511515909152805160608101918290526309a8116160e11b909152606481018990529091505f90806001600160a01b03851663135022c2608483016101c060405180830381865afa15801561173b573d5f803e3d5ffd5b505050506040513d601f19601f8201168201806040525081019061175f9190612ab8565b602001515f01516001600160a01b03168152602001846001600160a01b031663135022c28b6040518263ffffffff1660e01b81526004016117a291815260200190565b6101c060405180830381865afa1580156117be573d5f803e3d5ffd5b505050506040513d601f19601f820116820180604052508101906117e29190612ab8565b60200151602001518152602001846001600160a01b031663135022c28b6040518263ffffffff1660e01b815260040161181d91815260200190565b6101c060405180830381865afa158015611839573d5f803e3d5ffd5b505050506040513d601f19601f8201168201806040525081019061185d9190612ab8565b6020015160400151151581525090505f6040518060600160405280856001600160a01b031663135022c28c6040518263ffffffff1660e01b81526004016118a691815260200190565b6101c060405180830381865afa1580156118c2573d5f803e3d5ffd5b505050506040513d601f19601f820116820180604052508101906118e69190612ab8565b604001515f01516001600160a01b03168152602001856001600160a01b031663135022c28c6040518263ffffffff1660e01b815260040161192991815260200190565b6101c060405180830381865afa158015611945573d5f803e3d5ffd5b505050506040513d601f19601f820116820180604052508101906119699190612ab8565b60400151602001518152602001856001600160a01b031663135022c28c6040518263ffffffff1660e01b81526004016119a491815260200190565b6101c060405180830381865afa1580156119c0573d5f803e3d5ffd5b505050506040513d601f19601f820116820180604052508101906119e49190612ab8565b6040015160400151151581525090505f604051806101000160405280858152602001848152602001838152602001866001600160a01b031663135022c28d6040518263ffffffff1660e01b8152600401611a4091815260200190565b6101c060405180830381865afa158015611a5c573d5f803e3d5ffd5b505050506040513d601f19601f82011682018060405250810190611a809190612ab8565b6060015115158152602001866001600160a01b031663135022c28d6040518263ffffffff1660e01b8152600401611ab991815260200190565b6101c060405180830381865afa158015611ad5573d5f803e3d5ffd5b505050506040513d601f19601f82011682018060405250810190611af99190612ab8565b608001518152602001866001600160a01b031663135022c28d6040518263ffffffff1660e01b8152600401611b3091815260200190565b6101c060405180830381865afa158015611b4c573d5f803e3d5ffd5b505050506040513d601f19601f82011682018060405250810190611b709190612ab8565b60a001518152602001866001600160a01b031663135022c28d6040518263ffffffff1660e01b8152600401611ba791815260200190565b6101c060405180830381865afa158015611bc3573d5f803e3d5ffd5b505050506040513d601f19601f82011682018060405250810190611be79190612ab8565b60c001518152602001866001600160a01b031663135022c28d6040518263ffffffff1660e01b8152600401611c1e91815260200190565b6101c060405180830381865afa158015611c3a573d5f803e3d5ffd5b505050506040513d601f19601f82011682018060405250810190611c5e9190612ab8565b60e0015190529a9950505050505050505050565b5f611c7d8284612960565b90505b92915050565b6040516370a0823160e01b81523060048201525f906001600160a01b038416906370a0823190602401602060405180830381865afa158015611cca573d5f803e3d5ffd5b505050506040513d601f19601f82011682018060405250810190611cee9190612949565b9050611cfb85858461208b565b6040516370a0823160e01b81523060048201525f906001600160a01b038516906370a0823190602401602060405180830381865afa158015611d3f573d5f803e3d5ffd5b505050506040513d601f19601f82011682018060405250810190611d639190612949565b90505f611d708284611c72565b9050611d7d878683611f50565b50505050505050565b6040516370a0823160e01b81523060048201525f9081906001600160a01b038816906370a0823190602401602060405180830381865afa158015611dcc573d5f803e3d5ffd5b505050506040513d601f19601f82011682018060405250810190611df09190612949565b9050611dfe868686866120f0565b6040516370a0823160e01b81523060048201525f906001600160a01b038916906370a0823190602401602060405180830381865afa158015611e42573d5f803e3d5ffd5b505050506040513d601f19601f82011682018060405250810190611e669190612949565b90505f611e738284611c72565b90505f8111610823575f80fd5b611e8b8383836122c3565b611e968484836122eb565b50505050565b604051631ac6d19d60e01b81526001600160a01b0383811660048301525f918291841690631ac6d19d906024016020604051808303815f875af1158015611ee5573d5f803e3d5ffd5b505050506040513d601f19601f82011682018060405250810190611f099190612949565b90505f8111611c7d5760405162461bcd60e51b81526020600482015260136024820152724e6f207265776172647320746f20636c61696d60681b60448201526064016105a1565b611f646001600160a01b0383168483612320565b505050565b600280546001600160a01b0319166001600160a01b0392909216919091179055565b5f808211611f97575f80fd5b6040516370a0823160e01b81523060048201525f906001600160a01b038516906370a0823190602401602060405180830381865afa158015611fdb573d5f803e3d5ffd5b505050506040513d601f19601f82011682018060405250810190611fff9190612949565b90506120166001600160a01b038516333086612383565b6040516370a0823160e01b81523060048201525f906001600160a01b038616906370a0823190602401602060405180830381865afa15801561205a573d5f803e3d5ffd5b505050506040513d601f19601f8201168201806040525081019061207e9190612949565b90505f6108d28284611c72565b5f8111612096575f80fd5b604051636da8c6d960e11b81526001600160a01b0384811660048301526024820183905283169063db518db2906044015b5f604051808303815f87803b1580156120de575f80fd5b505af1158015611d7d573d5f803e3d5ffd5b6001600160a01b0384165f036121b3578234101561210c575f80fd5b6003546040515f916001600160a01b031690859061212d9086908690612b46565b5f6040518083038185875af1925050503d805f8114612167576040519150601f19603f3d011682016040523d82523d5f602084013e61216c565b606091505b50509050806121ad5760405162461bcd60e51b815260206004820152600d60248201526c0436f756c646e2774207377617609c1b60448201526064016105a1565b50611e96565b34156121bd575f80fd5b5f6121c88585611f8b565b6003549091506121e5906001600160a01b0387811691165f6123bb565b6003546121ff906001600160a01b038781169116836123bb565b6003546040515f916001600160a01b03169082906122209087908790612b46565b5f6040518083038185875af1925050503d805f811461225a576040519150601f19603f3d011682016040523d82523d5f602084013e61225f565b606091505b505060035490915061227e906001600160a01b0388811691165f6123bb565b806122bb5760405162461bcd60e51b815260206004820152600d60248201526c0436f756c646e2774207377617609c1b60448201526064016105a1565b505050505050565b6122d76001600160a01b038316845f6123bb565b611f646001600160a01b03831684836123bb565b6040516317a790f160e11b81526001600160a01b03848116600483015260248201839052831690632f4f21e2906044016120c7565b6040516001600160a01b038316602482015260448101829052611f6490849063a9059cbb60e01b906064015b60408051601f198184030181529190526020810180516001600160e01b03166001600160e01b0319909316929092179091526124ce565b6040516001600160a01b0380851660248301528316604482015260648101829052611e969085906323b872dd60e01b9060840161234c565b8015806124335750604051636eb1769f60e11b81523060048201526001600160a01b03838116602483015284169063dd62ed3e90604401602060405180830381865afa15801561240d573d5f803e3d5ffd5b505050506040513d601f19601f820116820180604052508101906124319190612949565b155b61249e5760405162461bcd60e51b815260206004820152603660248201527f5361666545524332303a20617070726f76652066726f6d206e6f6e2d7a65726f60448201527520746f206e6f6e2d7a65726f20616c6c6f77616e636560501b60648201526084016105a1565b6040516001600160a01b038316602482015260448101829052611f6490849063095ea7b360e01b9060640161234c565b5f612522826040518060400160405280602081526020017f5361666545524332303a206c6f772d6c6576656c2063616c6c206661696c6564815250856001600160a01b03166125a19092919063ffffffff16565b905080515f14806125425750808060200190518101906125429190612b55565b611f645760405162461bcd60e51b815260206004820152602a60248201527f5361666545524332303a204552433230206f7065726174696f6e20646964206e6044820152691bdd081cdd58d8d9595960b21b60648201526084016105a1565b60606125af84845f856125b7565b949350505050565b6060824710156126185760405162461bcd60e51b815260206004820152602660248201527f416464726573733a20696e73756666696369656e742062616c616e636520666f6044820152651c8818d85b1b60d21b60648201526084016105a1565b5f80866001600160a01b031685876040516126339190612b90565b5f6040518083038185875af1925050503d805f811461266d576040519150601f19603f3d011682016040523d82523d5f602084013e612672565b606091505b5091509150610a8587838387606083156126ec5782515f036126e5576001600160a01b0385163b6126e55760405162461bcd60e51b815260206004820152601d60248201527f416464726573733a2063616c6c20746f206e6f6e2d636f6e747261637400000060448201526064016105a1565b50816125af565b6125af83838151156127015781518083602001fd5b8060405162461bcd60e51b81526004016105a19190612bab565b6001600160a01b038116811461272f575f80fd5b50565b5f60208284031215612742575f80fd5b8135611c7d8161271b565b5f806040838503121561275e575f80fd5b50508035926020909101359150565b5f805f805f60808688031215612781575f80fd5b8535945060208601356127938161271b565b935060408601359250606086013567ffffffffffffffff808211156127b6575f80fd5b818801915088601f8301126127c9575f80fd5b8135818111156127d7575f80fd5b8960208285010111156127e8575f80fd5b9699959850939650602001949392505050565b5f805f6060848603121561280d575f80fd5b833592506020840135915060408401356128268161271b565b809150509250925092565b5f60208284031215612841575f80fd5b5035919050565b5f8060408385031215612859575f80fd5b82356128648161271b565b946020939093013593505050565b5f8060408385031215612883575f80fd5b8235915060208301356128958161271b565b809150509250929050565b5f602082840312156128b0575f80fd5b8151611c7d8161271b565b6020808252600e908201526d24b73b30b634b21031b0b63632b960911b604082015260600190565b602080825260129082015271141bdbdb08191bd95cdb89dd08195e1a5cdd60721b604082015260600190565b6020808252600c908201526b125b1b1959d85b0818d85b1b60a21b604082015260600190565b634e487b7160e01b5f52603260045260245ffd5b5f60208284031215612959575f80fd5b5051919050565b81810381811115611c8057634e487b7160e01b5f52601160045260245ffd5b604051610100810167ffffffffffffffff811182821017156129af57634e487b7160e01b5f52604160045260245ffd5b60405290565b5f608082840312156129c5575f80fd5b6040516080810181811067ffffffffffffffff821117156129f457634e487b7160e01b5f52604160045260245ffd5b6040528251612a028161271b565b808252506020830151602082015260408301516040820152606083015160608201528091505092915050565b80518015158114612a3d575f80fd5b919050565b5f60608284031215612a52575f80fd5b6040516060810181811067ffffffffffffffff82111715612a8157634e487b7160e01b5f52604160045260245ffd5b80604052508091508251612a948161271b565b815260208381015190820152612aac60408401612a2e565b60408201525092915050565b5f6101c08284031215612ac9575f80fd5b612ad161297f565b612adb8484612a42565b8152612aea8460608501612a42565b6020820152612afc8460c08501612a42565b6040820152612b0e6101208401612a2e565b6060820152610140830151608082015261016083015160a082015261018083015160c08201526101a09092015160e083015250919050565b818382375f9101908152919050565b5f60208284031215612b65575f80fd5b611c7d82612a2e565b5f5b83811015612b88578181015183820152602001612b70565b50505f910152565b5f8251612ba1818460208701612b6e565b9190910192915050565b602081525f8251806020840152612bc9816040850160208701612b6e565b601f01601f1916919091016040019291505056fea2646970667358221220a74cd7143ebb2d8b1ea01acf47d1d30251c83e461a000e00f3a1e9a0b9e72f7464736f6c63430008150033",
					"opcodes": "PUSH1 0x80 PUSH1 0x40 MSTORE CALLVALUE DUP1 ISZERO PUSH2 0xF JUMPI PUSH0 DUP1 REVERT JUMPDEST POP PUSH2 0x2C13 DUP1 PUSH2 0x1D PUSH0 CODECOPY PUSH0 RETURN INVALID PUSH1 0x80 PUSH1 0x40 MSTORE PUSH1 0x4 CALLDATASIZE LT PUSH2 0x120 JUMPI PUSH0 CALLDATALOAD PUSH1 0xE0 SHR DUP1 PUSH4 0xAE169A50 GT PUSH2 0xA4 JUMPI DUP1 PUSH4 0xD914CD4B GT PUSH2 0x6B JUMPI DUP1 PUSH4 0xD914CD4B EQ PUSH2 0x33E JUMPI DUP1 PUSH4 0xE2BBB158 EQ PUSH2 0x35D JUMPI DUP1 PUSH4 0xF50A9351 EQ PUSH2 0x37C JUMPI DUP1 PUSH4 0xFA7C828A EQ PUSH2 0x3AA JUMPI DUP1 PUSH4 0xFAC4348B EQ PUSH2 0x3C9 JUMPI DUP1 PUSH4 0xFDC9CCFA EQ PUSH2 0x424 JUMPI STOP JUMPDEST DUP1 PUSH4 0xAE169A50 EQ PUSH2 0x25F JUMPI DUP1 PUSH4 0xB3944D52 EQ PUSH2 0x27E JUMPI DUP1 PUSH4 0xB8764C39 EQ PUSH2 0x292 JUMPI DUP1 PUSH4 0xC4D66DE8 EQ PUSH2 0x2D8 JUMPI DUP1 PUSH4 0xD1E71C94 EQ PUSH2 0x2F7 JUMPI STOP JUMPDEST DUP1 PUSH4 0x5F311150 GT PUSH2 0xE8 JUMPI DUP1 PUSH4 0x5F311150 EQ PUSH2 0x1C4 JUMPI DUP1 PUSH4 0x60AB49EA EQ PUSH2 0x1E3 JUMPI DUP1 PUSH4 0x888D7BDD EQ PUSH2 0x202 JUMPI DUP1 PUSH4 0x8F244630 EQ PUSH2 0x221 JUMPI DUP1 PUSH4 0xA38DCBD0 EQ PUSH2 0x240 JUMPI STOP JUMPDEST DUP1 PUSH4 0x3E7EAE7F EQ PUSH2 0x122 JUMPI DUP1 PUSH4 0x441A3E70 EQ PUSH2 0x141 JUMPI DUP1 PUSH4 0x4D5D336E EQ PUSH2 0x160 JUMPI DUP1 PUSH4 0x57BA8DDE EQ PUSH2 0x173 JUMPI DUP1 PUSH4 0x5922F9C9 EQ PUSH2 0x1A5 JUMPI JUMPDEST STOP JUMPDEST CALLVALUE DUP1 ISZERO PUSH2 0x12D JUMPI PUSH0 DUP1 REVERT JUMPDEST POP PUSH2 0x120 PUSH2 0x13C CALLDATASIZE PUSH1 0x4 PUSH2 0x2732 JUMP JUMPDEST PUSH2 0x50C JUMP JUMPDEST CALLVALUE DUP1 ISZERO PUSH2 0x14C JUMPI PUSH0 DUP1 REVERT JUMPDEST POP PUSH2 0x120 PUSH2 0x15B CALLDATASIZE PUSH1 0x4 PUSH2 0x274D JUMP JUMPDEST PUSH2 0x5CD JUMP JUMPDEST PUSH2 0x120 PUSH2 0x16E CALLDATASIZE PUSH1 0x4 PUSH2 0x276D JUMP JUMPDEST PUSH2 0x6D3 JUMP JUMPDEST CALLVALUE DUP1 ISZERO PUSH2 0x17E JUMPI PUSH0 DUP1 REVERT JUMPDEST POP PUSH2 0x192 PUSH2 0x18D CALLDATASIZE PUSH1 0x4 PUSH2 0x27FB JUMP JUMPDEST PUSH2 0x771 JUMP JUMPDEST PUSH1 0x40 MLOAD SWAP1 DUP2 MSTORE PUSH1 0x20 ADD JUMPDEST PUSH1 0x40 MLOAD DUP1 SWAP2 SUB SWAP1 RETURN JUMPDEST CALLVALUE DUP1 ISZERO PUSH2 0x1B0 JUMPI PUSH0 DUP1 REVERT JUMPDEST POP PUSH2 0x192 PUSH2 0x1BF CALLDATASIZE PUSH1 0x4 PUSH2 0x2831 JUMP JUMPDEST PUSH2 0x82F JUMP JUMPDEST CALLVALUE DUP1 ISZERO PUSH2 0x1CF JUMPI PUSH0 DUP1 REVERT JUMPDEST POP PUSH2 0x192 PUSH2 0x1DE CALLDATASIZE PUSH1 0x4 PUSH2 0x2831 JUMP JUMPDEST PUSH2 0x8DC JUMP JUMPDEST CALLVALUE DUP1 ISZERO PUSH2 0x1EE JUMPI PUSH0 DUP1 REVERT JUMPDEST POP PUSH2 0x192 PUSH2 0x1FD CALLDATASIZE PUSH1 0x4 PUSH2 0x2831 JUMP JUMPDEST PUSH2 0x95B JUMP JUMPDEST CALLVALUE DUP1 ISZERO PUSH2 0x20D JUMPI PUSH0 DUP1 REVERT JUMPDEST POP PUSH2 0x192 PUSH2 0x21C CALLDATASIZE PUSH1 0x4 PUSH2 0x2848 JUMP JUMPDEST PUSH2 0x9DA JUMP JUMPDEST CALLVALUE DUP1 ISZERO PUSH2 0x22C JUMPI PUSH0 DUP1 REVERT JUMPDEST POP PUSH2 0x192 PUSH2 0x23B CALLDATASIZE PUSH1 0x4 PUSH2 0x2831 JUMP JUMPDEST PUSH2 0xA90 JUMP JUMPDEST CALLVALUE DUP1 ISZERO PUSH2 0x24B JUMPI PUSH0 DUP1 REVERT JUMPDEST POP PUSH2 0x120 PUSH2 0x25A CALLDATASIZE PUSH1 0x4 PUSH2 0x2831 JUMP JUMPDEST PUSH2 0xB0F JUMP JUMPDEST CALLVALUE DUP1 ISZERO PUSH2 0x26A JUMPI PUSH0 DUP1 REVERT JUMPDEST POP PUSH2 0x120 PUSH2 0x279 CALLDATASIZE PUSH1 0x4 PUSH2 0x2831 JUMP JUMPDEST PUSH2 0xC69 JUMP JUMPDEST CALLVALUE DUP1 ISZERO PUSH2 0x289 JUMPI PUSH0 DUP1 REVERT JUMPDEST POP PUSH1 0x1 SLOAD PUSH2 0x192 JUMP JUMPDEST CALLVALUE DUP1 ISZERO PUSH2 0x29D JUMPI PUSH0 DUP1 REVERT JUMPDEST POP PUSH2 0x2B1 PUSH2 0x2AC CALLDATASIZE PUSH1 0x4 PUSH2 0x2831 JUMP JUMPDEST PUSH2 0xE5E JUMP JUMPDEST PUSH1 0x40 DUP1 MLOAD DUP3 MLOAD PUSH1 0x1 PUSH1 0x1 PUSH1 0xA0 SHL SUB SWAP1 DUP2 AND DUP3 MSTORE PUSH1 0x20 SWAP4 DUP5 ADD MLOAD AND SWAP3 DUP2 ADD SWAP3 SWAP1 SWAP3 MSTORE ADD PUSH2 0x19C JUMP JUMPDEST CALLVALUE DUP1 ISZERO PUSH2 0x2E3 JUMPI PUSH0 DUP1 REVERT JUMPDEST POP PUSH2 0x120 PUSH2 0x2F2 CALLDATASIZE PUSH1 0x4 PUSH2 0x2732 JUMP JUMPDEST PUSH2 0xEF6 JUMP JUMPDEST CALLVALUE DUP1 ISZERO PUSH2 0x302 JUMPI PUSH0 DUP1 REVERT JUMPDEST POP PUSH2 0x32E PUSH2 0x311 CALLDATASIZE PUSH1 0x4 PUSH2 0x2732 JUMP JUMPDEST PUSH1 0x1 PUSH1 0x1 PUSH1 0xA0 SHL SUB AND PUSH0 SWAP1 DUP2 MSTORE PUSH1 0x4 PUSH1 0x20 MSTORE PUSH1 0x40 SWAP1 KECCAK256 SLOAD PUSH1 0xFF AND SWAP1 JUMP JUMPDEST PUSH1 0x40 MLOAD SWAP1 ISZERO ISZERO DUP2 MSTORE PUSH1 0x20 ADD PUSH2 0x19C JUMP JUMPDEST CALLVALUE DUP1 ISZERO PUSH2 0x349 JUMPI PUSH0 DUP1 REVERT JUMPDEST POP PUSH2 0x120 PUSH2 0x358 CALLDATASIZE PUSH1 0x4 PUSH2 0x2732 JUMP JUMPDEST PUSH2 0xF6F JUMP JUMPDEST CALLVALUE DUP1 ISZERO PUSH2 0x368 JUMPI PUSH0 DUP1 REVERT JUMPDEST POP PUSH2 0x120 PUSH2 0x377 CALLDATASIZE PUSH1 0x4 PUSH2 0x274D JUMP JUMPDEST PUSH2 0x1122 JUMP JUMPDEST CALLVALUE DUP1 ISZERO PUSH2 0x387 JUMPI PUSH0 DUP1 REVERT JUMPDEST POP PUSH2 0x32E PUSH2 0x396 CALLDATASIZE PUSH1 0x4 PUSH2 0x2732 JUMP JUMPDEST PUSH1 0x4 PUSH1 0x20 MSTORE PUSH0 SWAP1 DUP2 MSTORE PUSH1 0x40 SWAP1 KECCAK256 SLOAD PUSH1 0xFF AND DUP2 JUMP JUMPDEST CALLVALUE DUP1 ISZERO PUSH2 0x3B5 JUMPI PUSH0 DUP1 REVERT JUMPDEST POP PUSH2 0x120 PUSH2 0x3C4 CALLDATASIZE PUSH1 0x4 PUSH2 0x2732 JUMP JUMPDEST PUSH2 0x1234 JUMP JUMPDEST CALLVALUE DUP1 ISZERO PUSH2 0x3D4 JUMPI PUSH0 DUP1 REVERT JUMPDEST POP PUSH2 0x3E8 PUSH2 0x3E3 CALLDATASIZE PUSH1 0x4 PUSH2 0x2872 JUMP JUMPDEST PUSH2 0x12D6 JUMP JUMPDEST PUSH1 0x40 MLOAD PUSH2 0x19C SWAP2 SWAP1 DUP2 MLOAD PUSH1 0x1 PUSH1 0x1 PUSH1 0xA0 SHL SUB AND DUP2 MSTORE PUSH1 0x20 DUP1 DUP4 ADD MLOAD SWAP1 DUP3 ADD MSTORE PUSH1 0x40 DUP1 DUP4 ADD MLOAD SWAP1 DUP3 ADD MSTORE PUSH1 0x60 SWAP2 DUP3 ADD MLOAD SWAP2 DUP2 ADD SWAP2 SWAP1 SWAP2 MSTORE PUSH1 0x80 ADD SWAP1 JUMP JUMPDEST CALLVALUE DUP1 ISZERO PUSH2 0x42F JUMPI PUSH0 DUP1 REVERT JUMPDEST POP PUSH2 0x443 PUSH2 0x43E CALLDATASIZE PUSH1 0x4 PUSH2 0x274D JUMP JUMPDEST PUSH2 0x14BE JUMP JUMPDEST PUSH1 0x40 MLOAD PUSH2 0x19C SWAP2 SWAP1 DUP2 MLOAD DUP1 MLOAD PUSH1 0x1 PUSH1 0x1 PUSH1 0xA0 SHL SUB AND DUP3 MSTORE PUSH1 0x20 DUP1 DUP3 ADD MLOAD SWAP1 DUP4 ADD MSTORE PUSH1 0x40 SWAP1 DUP2 ADD MLOAD ISZERO ISZERO SWAP1 DUP3 ADD MSTORE PUSH2 0x1C0 DUP2 ADD PUSH1 0x20 DUP4 DUP2 ADD MLOAD DUP1 MLOAD PUSH1 0x1 PUSH1 0x1 PUSH1 0xA0 SHL SUB AND PUSH1 0x60 DUP6 ADD MSTORE SWAP1 DUP2 ADD MLOAD PUSH1 0x80 DUP5 ADD MSTORE PUSH1 0x40 DUP2 ADD MLOAD ISZERO ISZERO PUSH1 0xA0 DUP5 ADD MSTORE POP PUSH1 0x40 DUP4 DUP2 ADD MLOAD DUP1 MLOAD PUSH1 0x1 PUSH1 0x1 PUSH1 0xA0 SHL SUB AND PUSH1 0xC0 DUP6 ADD MSTORE PUSH1 0x20 DUP2 ADD MLOAD PUSH1 0xE0 DUP6 ADD MSTORE SWAP1 DUP2 ADD MLOAD ISZERO ISZERO PUSH2 0x100 DUP5 ADD MSTORE POP PUSH1 0x60 DUP4 ADD MLOAD ISZERO ISZERO PUSH2 0x120 DUP4 ADD MSTORE PUSH1 0x80 DUP4 ADD MLOAD PUSH2 0x140 DUP4 ADD MSTORE PUSH1 0xA0 DUP4 ADD MLOAD PUSH2 0x160 DUP4 ADD MSTORE PUSH1 0xC0 DUP4 ADD MLOAD PUSH2 0x180 DUP4 ADD MSTORE PUSH1 0xE0 SWAP1 SWAP3 ADD MLOAD PUSH2 0x1A0 SWAP1 SWAP2 ADD MSTORE SWAP1 JUMP JUMPDEST PUSH1 0x2 SLOAD PUSH1 0x40 DUP1 MLOAD PUSH4 0x3018205F PUSH1 0xE0 SHL DUP2 MSTORE SWAP1 MLOAD PUSH0 SWAP3 PUSH1 0x1 PUSH1 0x1 PUSH1 0xA0 SHL SUB AND SWAP2 PUSH4 0x3018205F SWAP2 PUSH1 0x4 DUP1 DUP4 ADD SWAP3 PUSH1 0x20 SWAP3 SWAP2 SWAP1 DUP3 SWAP1 SUB ADD DUP2 DUP7 GAS STATICCALL ISZERO DUP1 ISZERO PUSH2 0x553 JUMPI RETURNDATASIZE PUSH0 DUP1 RETURNDATACOPY RETURNDATASIZE PUSH0 REVERT JUMPDEST POP POP POP POP PUSH1 0x40 MLOAD RETURNDATASIZE PUSH1 0x1F NOT PUSH1 0x1F DUP3 ADD AND DUP3 ADD DUP1 PUSH1 0x40 MSTORE POP DUP2 ADD SWAP1 PUSH2 0x577 SWAP2 SWAP1 PUSH2 0x28A0 JUMP JUMPDEST SWAP1 POP CALLER PUSH1 0x1 PUSH1 0x1 PUSH1 0xA0 SHL SUB DUP3 AND EQ PUSH2 0x5AA JUMPI PUSH1 0x40 MLOAD PUSH3 0x461BCD PUSH1 0xE5 SHL DUP2 MSTORE PUSH1 0x4 ADD PUSH2 0x5A1 SWAP1 PUSH2 0x28BB JUMP JUMPDEST PUSH1 0x40 MLOAD DUP1 SWAP2 SUB SWAP1 REVERT JUMPDEST POP PUSH1 0x3 DUP1 SLOAD PUSH1 0x1 PUSH1 0x1 PUSH1 0xA0 SHL SUB NOT AND PUSH1 0x1 PUSH1 0x1 PUSH1 0xA0 SHL SUB SWAP3 SWAP1 SWAP3 AND SWAP2 SWAP1 SWAP2 OR SWAP1 SSTORE JUMP JUMPDEST PUSH1 0x1 DUP1 SLOAD DUP4 SWAP2 PUSH2 0x5DE SWAP1 DUP3 SWAP1 PUSH2 0x1C72 JUMP JUMPDEST DUP3 GT ISZERO PUSH2 0x5FD JUMPI PUSH1 0x40 MLOAD PUSH3 0x461BCD PUSH1 0xE5 SHL DUP2 MSTORE PUSH1 0x4 ADD PUSH2 0x5A1 SWAP1 PUSH2 0x28E3 JUMP JUMPDEST PUSH0 SLOAD ISZERO PUSH2 0x61C JUMPI PUSH1 0x40 MLOAD PUSH3 0x461BCD PUSH1 0xE5 SHL DUP2 MSTORE PUSH1 0x4 ADD PUSH2 0x5A1 SWAP1 PUSH2 0x290F JUMP JUMPDEST PUSH1 0x1 PUSH0 DUP2 SWAP1 SSTORE POP PUSH0 PUSH1 0x1 DUP6 DUP2 SLOAD DUP2 LT PUSH2 0x637 JUMPI PUSH2 0x637 PUSH2 0x2935 JUMP JUMPDEST PUSH0 SWAP2 DUP3 MSTORE PUSH1 0x20 SWAP2 DUP3 SWAP1 KECCAK256 PUSH1 0x40 DUP1 MLOAD DUP1 DUP3 ADD SWAP1 SWAP2 MSTORE PUSH1 0x2 SWAP1 SWAP3 MUL ADD DUP1 SLOAD PUSH1 0x1 PUSH1 0x1 PUSH1 0xA0 SHL SUB SWAP1 DUP2 AND DUP1 DUP5 MSTORE PUSH1 0x1 SWAP1 SWAP3 ADD SLOAD AND SWAP3 DUP3 ADD DUP4 SWAP1 MSTORE SWAP1 SWAP3 POP SWAP1 PUSH2 0x67E CALLER DUP4 DUP4 DUP10 PUSH2 0x1C86 JUMP JUMPDEST PUSH1 0x40 DUP1 MLOAD CALLER DUP2 MSTORE PUSH1 0x1 PUSH1 0x1 PUSH1 0xA0 SHL SUB DUP5 AND PUSH1 0x20 DUP3 ADD MSTORE SWAP1 DUP2 ADD DUP8 SWAP1 MSTORE PUSH32 0x53F917D4E27AE27751AA814F667AA2382DC59D7DD33B9B9B887ABEC7B2DA1828 SWAP1 PUSH1 0x60 ADD PUSH1 0x40 MLOAD DUP1 SWAP2 SUB SWAP1 LOG1 POP POP PUSH0 DUP1 SSTORE POP POP POP POP POP JUMP JUMPDEST PUSH0 SLOAD ISZERO PUSH2 0x6F2 JUMPI PUSH1 0x40 MLOAD PUSH3 0x461BCD PUSH1 0xE5 SHL DUP2 MSTORE PUSH1 0x4 ADD PUSH2 0x5A1 SWAP1 PUSH2 0x290F JUMP JUMPDEST PUSH1 0x1 PUSH0 DUP2 SWAP1 SSTORE POP PUSH0 PUSH1 0x1 DUP7 DUP2 SLOAD DUP2 LT PUSH2 0x70D JUMPI PUSH2 0x70D PUSH2 0x2935 JUMP JUMPDEST PUSH0 SWAP2 DUP3 MSTORE PUSH1 0x20 DUP1 DUP4 KECCAK256 PUSH1 0x40 DUP1 MLOAD DUP1 DUP3 ADD SWAP1 SWAP2 MSTORE PUSH1 0x2 SWAP1 SWAP4 MUL ADD DUP1 SLOAD PUSH1 0x1 PUSH1 0x1 PUSH1 0xA0 SHL SUB SWAP1 DUP2 AND DUP1 DUP6 MSTORE PUSH1 0x1 SWAP1 SWAP3 ADD SLOAD AND SWAP2 DUP4 ADD DUP3 SWAP1 MSTORE SWAP2 SWAP4 POP SWAP1 SWAP2 PUSH2 0x755 DUP3 DUP10 DUP10 DUP10 DUP10 PUSH2 0x1D86 JUMP JUMPDEST SWAP1 POP PUSH2 0x763 CALLER DUP5 DUP5 DUP5 PUSH2 0x1E80 JUMP JUMPDEST POP POP PUSH0 DUP1 SSTORE POP POP POP POP POP POP POP JUMP JUMPDEST PUSH1 0x1 DUP1 SLOAD PUSH0 SWAP2 DUP5 SWAP2 SWAP1 PUSH2 0x785 SWAP1 DUP3 SWAP1 PUSH2 0x1C72 JUMP JUMPDEST DUP3 GT ISZERO PUSH2 0x7A4 JUMPI PUSH1 0x40 MLOAD PUSH3 0x461BCD PUSH1 0xE5 SHL DUP2 MSTORE PUSH1 0x4 ADD PUSH2 0x5A1 SWAP1 PUSH2 0x28E3 JUMP JUMPDEST PUSH0 PUSH2 0x7AE DUP7 PUSH2 0xE5E JUMP JUMPDEST MLOAD PUSH1 0x40 MLOAD PUSH4 0xD474FBF7 PUSH1 0xE0 SHL DUP2 MSTORE PUSH1 0x4 DUP2 ADD DUP10 SWAP1 MSTORE PUSH1 0x1 PUSH1 0x1 PUSH1 0xA0 SHL SUB DUP8 DUP2 AND PUSH1 0x24 DUP4 ADD MSTORE SWAP2 SWAP3 POP PUSH0 SWAP2 DUP4 AND SWAP1 PUSH4 0xD474FBF7 SWAP1 PUSH1 0x44 ADD PUSH1 0x20 PUSH1 0x40 MLOAD DUP1 DUP4 SUB DUP2 DUP7 GAS STATICCALL ISZERO DUP1 ISZERO PUSH2 0x7FF JUMPI RETURNDATASIZE PUSH0 DUP1 RETURNDATACOPY RETURNDATASIZE PUSH0 REVERT JUMPDEST POP POP POP POP PUSH1 0x40 MLOAD RETURNDATASIZE PUSH1 0x1F NOT PUSH1 0x1F DUP3 ADD AND DUP3 ADD DUP1 PUSH1 0x40 MSTORE POP DUP2 ADD SWAP1 PUSH2 0x823 SWAP2 SWAP1 PUSH2 0x2949 JUMP JUMPDEST SWAP9 SWAP8 POP POP POP POP POP POP POP POP JUMP JUMPDEST PUSH1 0x1 DUP1 SLOAD PUSH0 SWAP2 DUP4 SWAP2 SWAP1 PUSH2 0x843 SWAP1 DUP3 SWAP1 PUSH2 0x1C72 JUMP JUMPDEST DUP3 GT ISZERO PUSH2 0x862 JUMPI PUSH1 0x40 MLOAD PUSH3 0x461BCD PUSH1 0xE5 SHL DUP2 MSTORE PUSH1 0x4 ADD PUSH2 0x5A1 SWAP1 PUSH2 0x28E3 JUMP JUMPDEST PUSH0 PUSH2 0x86C DUP6 PUSH2 0xE5E JUMP JUMPDEST PUSH0 ADD MLOAD SWAP1 POP PUSH0 DUP2 PUSH1 0x1 PUSH1 0x1 PUSH1 0xA0 SHL SUB AND PUSH4 0xA3D74F06 PUSH1 0x40 MLOAD DUP2 PUSH4 0xFFFFFFFF AND PUSH1 0xE0 SHL DUP2 MSTORE PUSH1 0x4 ADD PUSH1 0x20 PUSH1 0x40 MLOAD DUP1 DUP4 SUB DUP2 DUP7 GAS STATICCALL ISZERO DUP1 ISZERO PUSH2 0x8AE JUMPI RETURNDATASIZE PUSH0 DUP1 RETURNDATACOPY RETURNDATASIZE PUSH0 REVERT JUMPDEST POP POP POP POP PUSH1 0x40 MLOAD RETURNDATASIZE PUSH1 0x1F NOT PUSH1 0x1F DUP3 ADD AND DUP3 ADD DUP1 PUSH1 0x40 MSTORE POP DUP2 ADD SWAP1 PUSH2 0x8D2 SWAP2 SWAP1 PUSH2 0x2949 JUMP JUMPDEST SWAP7 SWAP6 POP POP POP POP POP POP JUMP JUMPDEST PUSH1 0x1 DUP1 SLOAD PUSH0 SWAP2 DUP4 SWAP2 SWAP1 PUSH2 0x8F0 SWAP1 DUP3 SWAP1 PUSH2 0x1C72 JUMP JUMPDEST DUP3 GT ISZERO PUSH2 0x90F JUMPI PUSH1 0x40 MLOAD PUSH3 0x461BCD PUSH1 0xE5 SHL DUP2 MSTORE PUSH1 0x4 ADD PUSH2 0x5A1 SWAP1 PUSH2 0x28E3 JUMP JUMPDEST PUSH0 PUSH2 0x919 DUP6 PUSH2 0xE5E JUMP JUMPDEST PUSH0 ADD MLOAD SWAP1 POP PUSH0 DUP2 PUSH1 0x1 PUSH1 0x1 PUSH1 0xA0 SHL SUB AND PUSH4 0x361F1AD3 PUSH1 0x40 MLOAD DUP2 PUSH4 0xFFFFFFFF AND PUSH1 0xE0 SHL DUP2 MSTORE PUSH1 0x4 ADD PUSH1 0x20 PUSH1 0x40 MLOAD DUP1 DUP4 SUB DUP2 DUP7 GAS STATICCALL ISZERO DUP1 ISZERO PUSH2 0x8AE JUMPI RETURNDATASIZE PUSH0 DUP1 RETURNDATACOPY RETURNDATASIZE PUSH0 REVERT JUMPDEST PUSH1 0x1 DUP1 SLOAD PUSH0 SWAP2 DUP4 SWAP2 SWAP1 PUSH2 0x96F SWAP1 DUP3 SWAP1 PUSH2 0x1C72 JUMP JUMPDEST DUP3 GT ISZERO PUSH2 0x98E JUMPI PUSH1 0x40 MLOAD PUSH3 0x461BCD PUSH1 0xE5 SHL DUP2 MSTORE PUSH1 0x4 ADD PUSH2 0x5A1 SWAP1 PUSH2 0x28E3 JUMP JUMPDEST PUSH0 PUSH2 0x998 DUP6 PUSH2 0xE5E JUMP JUMPDEST PUSH0 ADD MLOAD SWAP1 POP PUSH0 DUP2 PUSH1 0x1 PUSH1 0x1 PUSH1 0xA0 SHL SUB AND PUSH4 0xFD2324DE PUSH1 0x40 MLOAD DUP2 PUSH4 0xFFFFFFFF AND PUSH1 0xE0 SHL DUP2 MSTORE PUSH1 0x4 ADD PUSH1 0x20 PUSH1 0x40 MLOAD DUP1 DUP4 SUB DUP2 DUP7 GAS STATICCALL ISZERO DUP1 ISZERO PUSH2 0x8AE JUMPI RETURNDATASIZE PUSH0 DUP1 RETURNDATACOPY RETURNDATASIZE PUSH0 REVERT JUMPDEST PUSH1 0x1 DUP1 SLOAD PUSH0 SWAP2 DUP4 SWAP2 SWAP1 PUSH2 0x9EE SWAP1 DUP3 SWAP1 PUSH2 0x1C72 JUMP JUMPDEST DUP3 GT ISZERO PUSH2 0xA0D JUMPI PUSH1 0x40 MLOAD PUSH3 0x461BCD PUSH1 0xE5 SHL DUP2 MSTORE PUSH1 0x4 ADD PUSH2 0x5A1 SWAP1 PUSH2 0x28E3 JUMP JUMPDEST PUSH0 PUSH2 0xA17 DUP6 PUSH2 0xE5E JUMP JUMPDEST MLOAD PUSH1 0x40 MLOAD PUSH4 0xA583024B PUSH1 0xE0 SHL DUP2 MSTORE PUSH1 0x1 PUSH1 0x1 PUSH1 0xA0 SHL SUB DUP9 DUP2 AND PUSH1 0x4 DUP4 ADD MSTORE SWAP2 SWAP3 POP PUSH0 SWAP2 DUP4 AND SWAP1 PUSH4 0xA583024B SWAP1 PUSH1 0x24 ADD PUSH1 0x20 PUSH1 0x40 MLOAD DUP1 DUP4 SUB DUP2 DUP7 GAS STATICCALL ISZERO DUP1 ISZERO PUSH2 0xA61 JUMPI RETURNDATASIZE PUSH0 DUP1 RETURNDATACOPY RETURNDATASIZE PUSH0 REVERT JUMPDEST POP POP POP POP PUSH1 0x40 MLOAD RETURNDATASIZE PUSH1 0x1F NOT PUSH1 0x1F DUP3 ADD AND DUP3 ADD DUP1 PUSH1 0x40 MSTORE POP DUP2 ADD SWAP1 PUSH2 0xA85 SWAP2 SWAP1 PUSH2 0x2949 JUMP JUMPDEST SWAP8 SWAP7 POP POP POP POP POP POP POP JUMP JUMPDEST PUSH1 0x1 DUP1 SLOAD PUSH0 SWAP2 DUP4 SWAP2 SWAP1 PUSH2 0xAA4 SWAP1 DUP3 SWAP1 PUSH2 0x1C72 JUMP JUMPDEST DUP3 GT ISZERO PUSH2 0xAC3 JUMPI PUSH1 0x40 MLOAD PUSH3 0x461BCD PUSH1 0xE5 SHL DUP2 MSTORE PUSH1 0x4 ADD PUSH2 0x5A1 SWAP1 PUSH2 0x28E3 JUMP JUMPDEST PUSH0 PUSH2 0xACD DUP6 PUSH2 0xE5E JUMP JUMPDEST PUSH0 ADD MLOAD SWAP1 POP PUSH0 DUP2 PUSH1 0x1 PUSH1 0x1 PUSH1 0xA0 SHL SUB AND PUSH4 0x26BE90BF PUSH1 0x40 MLOAD DUP2 PUSH4 0xFFFFFFFF AND PUSH1 0xE0 SHL DUP2 MSTORE PUSH1 0x4 ADD PUSH1 0x20 PUSH1 0x40 MLOAD DUP1 DUP4 SUB DUP2 DUP7 GAS STATICCALL ISZERO DUP1 ISZERO PUSH2 0x8AE JUMPI RETURNDATASIZE PUSH0 DUP1 RETURNDATACOPY RETURNDATASIZE PUSH0 REVERT JUMPDEST PUSH1 0x2 SLOAD PUSH1 0x40 DUP1 MLOAD PUSH4 0x3018205F PUSH1 0xE0 SHL DUP2 MSTORE SWAP1 MLOAD PUSH0 SWAP3 PUSH1 0x1 PUSH1 0x1 PUSH1 0xA0 SHL SUB AND SWAP2 PUSH4 0x3018205F SWAP2 PUSH1 0x4 DUP1 DUP4 ADD SWAP3 PUSH1 0x20 SWAP3 SWAP2 SWAP1 DUP3 SWAP1 SUB ADD DUP2 DUP7 GAS STATICCALL ISZERO DUP1 ISZERO PUSH2 0xB56 JUMPI RETURNDATASIZE PUSH0 DUP1 RETURNDATACOPY RETURNDATASIZE PUSH0 REVERT JUMPDEST POP POP POP POP PUSH1 0x40 MLOAD RETURNDATASIZE PUSH1 0x1F NOT PUSH1 0x1F DUP3 ADD AND DUP3 ADD DUP1 PUSH1 0x40 MSTORE POP DUP2 ADD SWAP1 PUSH2 0xB7A SWAP2 SWAP1 PUSH2 0x28A0 JUMP JUMPDEST SWAP1 POP CALLER PUSH1 0x1 PUSH1 0x1 PUSH1 0xA0 SHL SUB DUP3 AND EQ PUSH2 0xBA4 JUMPI PUSH1 0x40 MLOAD PUSH3 0x461BCD PUSH1 0xE5 SHL DUP2 MSTORE PUSH1 0x4 ADD PUSH2 0x5A1 SWAP1 PUSH2 0x28BB JUMP JUMPDEST PUSH1 0x1 DUP1 SLOAD SWAP1 PUSH2 0xBB3 SWAP1 DUP3 PUSH2 0x2960 JUMP JUMPDEST DUP4 GT ISZERO PUSH2 0xBD2 JUMPI PUSH1 0x40 MLOAD PUSH3 0x461BCD PUSH1 0xE5 SHL DUP2 MSTORE PUSH1 0x4 ADD PUSH2 0x5A1 SWAP1 PUSH2 0x28E3 JUMP JUMPDEST PUSH0 PUSH1 0x1 DUP5 DUP2 SLOAD DUP2 LT PUSH2 0xBE6 JUMPI PUSH2 0xBE6 PUSH2 0x2935 JUMP JUMPDEST PUSH0 SWAP2 DUP3 MSTORE PUSH1 0x20 SWAP1 SWAP2 KECCAK256 PUSH1 0x2 SWAP1 SWAP2 MUL ADD SLOAD PUSH1 0x1 DUP1 SLOAD PUSH1 0x1 PUSH1 0x1 PUSH1 0xA0 SHL SUB SWAP1 SWAP3 AND SWAP3 POP SWAP1 DUP6 SWAP1 DUP2 LT PUSH2 0xC18 JUMPI PUSH2 0xC18 PUSH2 0x2935 JUMP JUMPDEST PUSH0 SWAP2 DUP3 MSTORE PUSH1 0x20 DUP1 DUP4 KECCAK256 PUSH1 0x2 SWAP1 SWAP3 MUL SWAP1 SWAP2 ADD DUP1 SLOAD PUSH1 0x1 PUSH1 0x1 PUSH1 0xA0 SHL SUB NOT SWAP1 DUP2 AND DUP3 SSTORE PUSH1 0x1 SWAP1 SWAP2 ADD DUP1 SLOAD SWAP1 SWAP2 AND SWAP1 SSTORE PUSH1 0x1 PUSH1 0x1 PUSH1 0xA0 SHL SUB SWAP3 SWAP1 SWAP3 AND DUP2 MSTORE PUSH1 0x4 SWAP1 SWAP2 MSTORE PUSH1 0x40 SWAP1 KECCAK256 DUP1 SLOAD PUSH1 0xFF NOT AND SWAP1 SSTORE POP POP POP JUMP JUMPDEST PUSH1 0x1 DUP1 SLOAD DUP3 SWAP2 PUSH2 0xC7A SWAP1 DUP3 SWAP1 PUSH2 0x1C72 JUMP JUMPDEST DUP3 GT ISZERO PUSH2 0xC99 JUMPI PUSH1 0x40 MLOAD PUSH3 0x461BCD PUSH1 0xE5 SHL DUP2 MSTORE PUSH1 0x4 ADD PUSH2 0x5A1 SWAP1 PUSH2 0x28E3 JUMP JUMPDEST PUSH0 SLOAD ISZERO PUSH2 0xCB8 JUMPI PUSH1 0x40 MLOAD PUSH3 0x461BCD PUSH1 0xE5 SHL DUP2 MSTORE PUSH1 0x4 ADD PUSH2 0x5A1 SWAP1 PUSH2 0x290F JUMP JUMPDEST PUSH1 0x1 PUSH0 DUP2 SWAP1 SSTORE POP PUSH0 PUSH1 0x1 DUP5 DUP2 SLOAD DUP2 LT PUSH2 0xCD3 JUMPI PUSH2 0xCD3 PUSH2 0x2935 JUMP JUMPDEST PUSH0 SWAP2 DUP3 MSTORE PUSH1 0x20 DUP1 DUP4 KECCAK256 PUSH1 0x40 DUP1 MLOAD DUP1 DUP3 ADD DUP3 MSTORE PUSH1 0x2 SWAP5 SWAP1 SWAP5 MUL SWAP1 SWAP2 ADD DUP1 SLOAD PUSH1 0x1 PUSH1 0x1 PUSH1 0xA0 SHL SUB SWAP1 DUP2 AND DUP1 DUP7 MSTORE PUSH1 0x1 SWAP1 SWAP3 ADD SLOAD AND SWAP3 DUP5 ADD DUP4 SWAP1 MSTORE SWAP1 MLOAD PUSH4 0x70A08231 PUSH1 0xE0 SHL DUP2 MSTORE ADDRESS PUSH1 0x4 DUP3 ADD MSTORE SWAP3 SWAP5 POP SWAP3 SWAP1 SWAP2 DUP3 SWAP1 PUSH4 0x70A08231 SWAP1 PUSH1 0x24 ADD PUSH1 0x20 PUSH1 0x40 MLOAD DUP1 DUP4 SUB DUP2 DUP7 GAS STATICCALL ISZERO DUP1 ISZERO PUSH2 0xD49 JUMPI RETURNDATASIZE PUSH0 DUP1 RETURNDATACOPY RETURNDATASIZE PUSH0 REVERT JUMPDEST POP POP POP POP PUSH1 0x40 MLOAD RETURNDATASIZE PUSH1 0x1F NOT PUSH1 0x1F DUP3 ADD AND DUP3 ADD DUP1 PUSH1 0x40 MSTORE POP DUP2 ADD SWAP1 PUSH2 0xD6D SWAP2 SWAP1 PUSH2 0x2949 JUMP JUMPDEST SWAP1 POP PUSH0 PUSH2 0xD7A CALLER DUP6 PUSH2 0x1E9C JUMP JUMPDEST PUSH1 0x40 MLOAD PUSH4 0x70A08231 PUSH1 0xE0 SHL DUP2 MSTORE ADDRESS PUSH1 0x4 DUP3 ADD MSTORE SWAP1 SWAP2 POP PUSH0 SWAP1 PUSH1 0x1 PUSH1 0x1 PUSH1 0xA0 SHL SUB DUP6 AND SWAP1 PUSH4 0x70A08231 SWAP1 PUSH1 0x24 ADD PUSH1 0x20 PUSH1 0x40 MLOAD DUP1 DUP4 SUB DUP2 DUP7 GAS STATICCALL ISZERO DUP1 ISZERO PUSH2 0xDC1 JUMPI RETURNDATASIZE PUSH0 DUP1 RETURNDATACOPY RETURNDATASIZE PUSH0 REVERT JUMPDEST POP POP POP POP PUSH1 0x40 MLOAD RETURNDATASIZE PUSH1 0x1F NOT PUSH1 0x1F DUP3 ADD AND DUP3 ADD DUP1 PUSH1 0x40 MSTORE POP DUP2 ADD SWAP1 PUSH2 0xDE5 SWAP2 SWAP1 PUSH2 0x2949 JUMP JUMPDEST SWAP1 POP PUSH0 PUSH2 0xDF2 DUP3 DUP6 PUSH2 0x1C72 JUMP JUMPDEST SWAP1 POP PUSH2 0xDFF CALLER DUP7 DUP4 PUSH2 0x1F50 JUMP JUMPDEST PUSH1 0x40 DUP1 MLOAD CALLER DUP2 MSTORE PUSH1 0x1 PUSH1 0x1 PUSH1 0xA0 SHL SUB DUP9 DUP2 AND PUSH1 0x20 DUP4 ADD MSTORE DUP8 AND DUP2 DUP4 ADD MSTORE PUSH1 0x60 DUP2 ADD DUP6 SWAP1 MSTORE SWAP1 MLOAD PUSH32 0xF5A48EA938B5E8D78BE0D8D0D1E277621D4854F2B208EE83AE3702CE61828AB5 SWAP2 DUP2 SWAP1 SUB PUSH1 0x80 ADD SWAP1 LOG1 POP POP PUSH0 DUP1 SSTORE POP POP POP POP POP POP POP POP JUMP JUMPDEST PUSH1 0x40 DUP1 MLOAD DUP1 DUP3 ADD SWAP1 SWAP2 MSTORE PUSH0 DUP1 DUP3 MSTORE PUSH1 0x20 DUP3 ADD MSTORE PUSH1 0x1 DUP1 SLOAD DUP4 SWAP2 PUSH2 0xE82 SWAP1 DUP3 SWAP1 PUSH2 0x1C72 JUMP JUMPDEST DUP3 GT ISZERO PUSH2 0xEA1 JUMPI PUSH1 0x40 MLOAD PUSH3 0x461BCD PUSH1 0xE5 SHL DUP2 MSTORE PUSH1 0x4 ADD PUSH2 0x5A1 SWAP1 PUSH2 0x28E3 JUMP JUMPDEST PUSH0 PUSH1 0x1 DUP6 DUP2 SLOAD DUP2 LT PUSH2 0xEB5 JUMPI PUSH2 0xEB5 PUSH2 0x2935 JUMP JUMPDEST PUSH0 SWAP2 DUP3 MSTORE PUSH1 0x20 SWAP2 DUP3 SWAP1 KECCAK256 PUSH1 0x40 DUP1 MLOAD DUP1 DUP3 ADD SWAP1 SWAP2 MSTORE PUSH1 0x2 SWAP1 SWAP3 MUL ADD DUP1 SLOAD PUSH1 0x1 PUSH1 0x1 PUSH1 0xA0 SHL SUB SWAP1 DUP2 AND DUP4 MSTORE PUSH1 0x1 SWAP1 SWAP2 ADD SLOAD AND SWAP2 DUP2 ADD SWAP2 SWAP1 SWAP2 MSTORE SWAP4 POP POP POP POP SWAP2 SWAP1 POP JUMP JUMPDEST PUSH1 0x2 SLOAD PUSH1 0x1 PUSH1 0xA0 SHL SWAP1 DIV PUSH1 0xFF AND ISZERO PUSH2 0xF50 JUMPI PUSH1 0x40 MLOAD PUSH3 0x461BCD PUSH1 0xE5 SHL DUP2 MSTORE PUSH1 0x20 PUSH1 0x4 DUP3 ADD MSTORE PUSH1 0x1F PUSH1 0x24 DUP3 ADD MSTORE PUSH32 0x436F6E747261637420697320696E697469616C697A656420616C726561647900 PUSH1 0x44 DUP3 ADD MSTORE PUSH1 0x64 ADD PUSH2 0x5A1 JUMP JUMPDEST PUSH2 0xF59 DUP2 PUSH2 0x1F69 JUMP JUMPDEST POP PUSH1 0x2 DUP1 SLOAD PUSH1 0xFF PUSH1 0xA0 SHL NOT AND PUSH1 0x1 PUSH1 0xA0 SHL OR SWAP1 SSTORE JUMP JUMPDEST PUSH1 0x2 SLOAD PUSH1 0x40 DUP1 MLOAD PUSH4 0x3018205F PUSH1 0xE0 SHL DUP2 MSTORE SWAP1 MLOAD PUSH0 SWAP3 PUSH1 0x1 PUSH1 0x1 PUSH1 0xA0 SHL SUB AND SWAP2 PUSH4 0x3018205F SWAP2 PUSH1 0x4 DUP1 DUP4 ADD SWAP3 PUSH1 0x20 SWAP3 SWAP2 SWAP1 DUP3 SWAP1 SUB ADD DUP2 DUP7 GAS STATICCALL ISZERO DUP1 ISZERO PUSH2 0xFB6 JUMPI RETURNDATASIZE PUSH0 DUP1 RETURNDATACOPY RETURNDATASIZE PUSH0 REVERT JUMPDEST POP POP POP POP PUSH1 0x40 MLOAD RETURNDATASIZE PUSH1 0x1F NOT PUSH1 0x1F DUP3 ADD AND DUP3 ADD DUP1 PUSH1 0x40 MSTORE POP DUP2 ADD SWAP1 PUSH2 0xFDA SWAP2 SWAP1 PUSH2 0x28A0 JUMP JUMPDEST SWAP1 POP CALLER PUSH1 0x1 PUSH1 0x1 PUSH1 0xA0 SHL SUB DUP3 AND EQ PUSH2 0x1004 JUMPI PUSH1 0x40 MLOAD PUSH3 0x461BCD PUSH1 0xE5 SHL DUP2 MSTORE PUSH1 0x4 ADD PUSH2 0x5A1 SWAP1 PUSH2 0x28BB JUMP JUMPDEST PUSH0 DUP3 PUSH1 0x1 PUSH1 0x1 PUSH1 0xA0 SHL SUB AND PUSH4 0xFCE03B9 PUSH1 0x40 MLOAD DUP2 PUSH4 0xFFFFFFFF AND PUSH1 0xE0 SHL DUP2 MSTORE PUSH1 0x4 ADD PUSH1 0x20 PUSH1 0x40 MLOAD DUP1 DUP4 SUB DUP2 DUP7 GAS STATICCALL ISZERO DUP1 ISZERO PUSH2 0x1041 JUMPI RETURNDATASIZE PUSH0 DUP1 RETURNDATACOPY RETURNDATASIZE PUSH0 REVERT JUMPDEST POP POP POP POP PUSH1 0x40 MLOAD RETURNDATASIZE PUSH1 0x1F NOT PUSH1 0x1F DUP3 ADD AND DUP3 ADD DUP1 PUSH1 0x40 MSTORE POP DUP2 ADD SWAP1 PUSH2 0x1065 SWAP2 SWAP1 PUSH2 0x28A0 JUMP JUMPDEST PUSH1 0x40 DUP1 MLOAD DUP1 DUP3 ADD DUP3 MSTORE PUSH1 0x1 PUSH1 0x1 PUSH1 0xA0 SHL SUB SWAP6 DUP7 AND DUP1 DUP3 MSTORE SWAP3 DUP7 AND PUSH1 0x20 DUP1 DUP4 ADD SWAP2 DUP3 MSTORE PUSH1 0x1 DUP1 SLOAD DUP1 DUP3 ADD DUP3 SSTORE PUSH0 DUP3 DUP2 MSTORE SWAP5 MLOAD PUSH1 0x2 SWAP1 SWAP2 MUL PUSH32 0xB10E2D527612073B26EECDFD717E6A320CF44B4AFAC2B0732D9FCBE2B7FA0CF6 DUP2 ADD DUP1 SLOAD SWAP3 DUP13 AND PUSH1 0x1 PUSH1 0x1 PUSH1 0xA0 SHL SUB NOT SWAP4 DUP5 AND OR SWAP1 SSTORE SWAP4 MLOAD PUSH32 0xB10E2D527612073B26EECDFD717E6A320CF44B4AFAC2B0732D9FCBE2B7FA0CF7 SWAP1 SWAP5 ADD DUP1 SLOAD SWAP5 SWAP1 SWAP11 AND SWAP4 AND SWAP3 SWAP1 SWAP3 OR SWAP1 SWAP8 SSTORE SWAP3 DUP2 MSTORE PUSH1 0x4 SWAP1 SWAP6 MSTORE SWAP1 SWAP4 KECCAK256 DUP1 SLOAD PUSH1 0xFF NOT AND SWAP1 SWAP4 OR SWAP1 SWAP3 SSTORE POP POP JUMP JUMPDEST PUSH1 0x1 DUP1 SLOAD DUP4 SWAP2 PUSH2 0x1133 SWAP1 DUP3 SWAP1 PUSH2 0x1C72 JUMP JUMPDEST DUP3 GT ISZERO PUSH2 0x1152 JUMPI PUSH1 0x40 MLOAD PUSH3 0x461BCD PUSH1 0xE5 SHL DUP2 MSTORE PUSH1 0x4 ADD PUSH2 0x5A1 SWAP1 PUSH2 0x28E3 JUMP JUMPDEST PUSH0 SLOAD ISZERO PUSH2 0x1171 JUMPI PUSH1 0x40 MLOAD PUSH3 0x461BCD PUSH1 0xE5 SHL DUP2 MSTORE PUSH1 0x4 ADD PUSH2 0x5A1 SWAP1 PUSH2 0x290F JUMP JUMPDEST PUSH1 0x1 PUSH0 DUP2 SWAP1 SSTORE POP PUSH0 PUSH1 0x1 DUP6 DUP2 SLOAD DUP2 LT PUSH2 0x118C JUMPI PUSH2 0x118C PUSH2 0x2935 JUMP JUMPDEST PUSH0 SWAP2 DUP3 MSTORE PUSH1 0x20 DUP1 DUP4 KECCAK256 PUSH1 0x40 DUP1 MLOAD DUP1 DUP3 ADD SWAP1 SWAP2 MSTORE PUSH1 0x2 SWAP1 SWAP4 MUL ADD DUP1 SLOAD PUSH1 0x1 PUSH1 0x1 PUSH1 0xA0 SHL SUB SWAP1 DUP2 AND DUP1 DUP6 MSTORE PUSH1 0x1 SWAP1 SWAP3 ADD SLOAD AND SWAP2 DUP4 ADD DUP3 SWAP1 MSTORE SWAP2 SWAP4 POP SWAP1 SWAP2 PUSH2 0x11D1 DUP3 DUP9 PUSH2 0x1F8B JUMP JUMPDEST SWAP1 POP PUSH2 0x11DF CALLER DUP5 DUP5 DUP5 PUSH2 0x1E80 JUMP JUMPDEST PUSH1 0x40 DUP1 MLOAD CALLER DUP2 MSTORE PUSH1 0x1 PUSH1 0x1 PUSH1 0xA0 SHL SUB DUP6 AND PUSH1 0x20 DUP3 ADD MSTORE SWAP1 DUP2 ADD DUP3 SWAP1 MSTORE PUSH31 0x8FA12FDEF5E29F599717A6D129CA52C2D8A902498312EAB6A78C6090B8E8E0 SWAP1 PUSH1 0x60 ADD PUSH1 0x40 MLOAD DUP1 SWAP2 SUB SWAP1 LOG1 POP POP PUSH0 DUP1 SSTORE POP POP POP POP POP POP JUMP JUMPDEST PUSH1 0x2 SLOAD PUSH1 0x40 DUP1 MLOAD PUSH4 0x1127A41D PUSH1 0xE3 SHL DUP2 MSTORE SWAP1 MLOAD PUSH0 SWAP3 PUSH1 0x1 PUSH1 0x1 PUSH1 0xA0 SHL SUB AND SWAP2 PUSH4 0x893D20E8 SWAP2 PUSH1 0x4 DUP1 DUP4 ADD SWAP3 PUSH1 0x20 SWAP3 SWAP2 SWAP1 DUP3 SWAP1 SUB ADD DUP2 DUP7 GAS STATICCALL ISZERO DUP1 ISZERO PUSH2 0x127B JUMPI RETURNDATASIZE PUSH0 DUP1 RETURNDATACOPY RETURNDATASIZE PUSH0 REVERT JUMPDEST POP POP POP POP PUSH1 0x40 MLOAD RETURNDATASIZE PUSH1 0x1F NOT PUSH1 0x1F DUP3 ADD AND DUP3 ADD DUP1 PUSH1 0x40 MSTORE POP DUP2 ADD SWAP1 PUSH2 0x129F SWAP2 SWAP1 PUSH2 0x28A0 JUMP JUMPDEST SWAP1 POP CALLER PUSH1 0x1 PUSH1 0x1 PUSH1 0xA0 SHL SUB DUP3 AND EQ PUSH2 0x12C9 JUMPI PUSH1 0x40 MLOAD PUSH3 0x461BCD PUSH1 0xE5 SHL DUP2 MSTORE PUSH1 0x4 ADD PUSH2 0x5A1 SWAP1 PUSH2 0x28BB JUMP JUMPDEST PUSH2 0x12D2 DUP3 PUSH2 0x1F69 JUMP JUMPDEST POP POP JUMP JUMPDEST PUSH2 0x1306 PUSH1 0x40 MLOAD DUP1 PUSH1 0x80 ADD PUSH1 0x40 MSTORE DUP1 PUSH0 PUSH1 0x1 PUSH1 0x1 PUSH1 0xA0 SHL SUB AND DUP2 MSTORE PUSH1 0x20 ADD PUSH0 DUP2 MSTORE PUSH1 0x20 ADD PUSH0 DUP2 MSTORE PUSH1 0x20 ADD PUSH0 DUP2 MSTORE POP SWAP1 JUMP JUMPDEST PUSH1 0x1 DUP1 SLOAD DUP5 SWAP2 PUSH2 0x1317 SWAP1 DUP3 SWAP1 PUSH2 0x1C72 JUMP JUMPDEST DUP3 GT ISZERO PUSH2 0x1336 JUMPI PUSH1 0x40 MLOAD PUSH3 0x461BCD PUSH1 0xE5 SHL DUP2 MSTORE PUSH1 0x4 ADD PUSH2 0x5A1 SWAP1 PUSH2 0x28E3 JUMP JUMPDEST PUSH0 PUSH2 0x1340 DUP7 PUSH2 0xE5E JUMP JUMPDEST MLOAD PUSH1 0x40 DUP1 MLOAD PUSH1 0x80 DUP2 ADD DUP3 MSTORE PUSH1 0x1 PUSH1 0x1 PUSH1 0xA0 SHL SUB DUP1 DUP10 AND DUP1 DUP4 MSTORE SWAP3 MLOAD PUSH4 0xB3A7834D PUSH1 0xE0 SHL DUP2 MSTORE PUSH1 0x4 DUP2 ADD SWAP4 SWAP1 SWAP4 MSTORE SWAP3 SWAP4 POP PUSH0 SWAP3 SWAP1 SWAP2 PUSH1 0x20 DUP4 ADD SWAP2 DUP6 AND SWAP1 PUSH4 0xB3A7834D SWAP1 PUSH1 0x24 ADD PUSH1 0x80 PUSH1 0x40 MLOAD DUP1 DUP4 SUB DUP2 DUP7 GAS STATICCALL ISZERO DUP1 ISZERO PUSH2 0x13A0 JUMPI RETURNDATASIZE PUSH0 DUP1 RETURNDATACOPY RETURNDATASIZE PUSH0 REVERT JUMPDEST POP POP POP POP PUSH1 0x40 MLOAD RETURNDATASIZE PUSH1 0x1F NOT PUSH1 0x1F DUP3 ADD AND DUP3 ADD DUP1 PUSH1 0x40 MSTORE POP DUP2 ADD SWAP1 PUSH2 0x13C4 SWAP2 SWAP1 PUSH2 0x29B5 JUMP JUMPDEST PUSH1 0x20 SWAP1 DUP2 ADD MLOAD DUP3 MSTORE PUSH1 0x40 MLOAD PUSH4 0xB3A7834D PUSH1 0xE0 SHL DUP2 MSTORE PUSH1 0x1 PUSH1 0x1 PUSH1 0xA0 SHL SUB DUP11 DUP2 AND PUSH1 0x4 DUP4 ADD MSTORE SWAP3 SWAP1 SWAP2 ADD SWAP2 DUP6 AND SWAP1 PUSH4 0xB3A7834D SWAP1 PUSH1 0x24 ADD PUSH1 0x80 PUSH1 0x40 MLOAD DUP1 DUP4 SUB DUP2 DUP7 GAS STATICCALL ISZERO DUP1 ISZERO PUSH2 0x1415 JUMPI RETURNDATASIZE PUSH0 DUP1 RETURNDATACOPY RETURNDATASIZE PUSH0 REVERT JUMPDEST POP POP POP POP PUSH1 0x40 MLOAD RETURNDATASIZE PUSH1 0x1F NOT PUSH1 0x1F DUP3 ADD AND DUP3 ADD DUP1 PUSH1 0x40 MSTORE POP DUP2 ADD SWAP1 PUSH2 0x1439 SWAP2 SWAP1 PUSH2 0x29B5 JUMP JUMPDEST PUSH1 0x40 SWAP1 DUP2 ADD MLOAD DUP3 MSTORE MLOAD PUSH4 0xB3A7834D PUSH1 0xE0 SHL DUP2 MSTORE PUSH1 0x1 PUSH1 0x1 PUSH1 0xA0 SHL SUB DUP10 DUP2 AND PUSH1 0x4 DUP4 ADD MSTORE PUSH1 0x20 SWAP1 SWAP3 ADD SWAP2 DUP6 AND SWAP1 PUSH4 0xB3A7834D SWAP1 PUSH1 0x24 ADD PUSH1 0x80 PUSH1 0x40 MLOAD DUP1 DUP4 SUB DUP2 DUP7 GAS STATICCALL ISZERO DUP1 ISZERO PUSH2 0x1489 JUMPI RETURNDATASIZE PUSH0 DUP1 RETURNDATACOPY RETURNDATASIZE PUSH0 REVERT JUMPDEST POP POP POP POP PUSH1 0x40 MLOAD RETURNDATASIZE PUSH1 0x1F NOT PUSH1 0x1F DUP3 ADD AND DUP3 ADD DUP1 PUSH1 0x40 MSTORE POP DUP2 ADD SWAP1 PUSH2 0x14AD SWAP2 SWAP1 PUSH2 0x29B5 JUMP JUMPDEST PUSH1 0x60 ADD MLOAD SWAP1 MSTORE SWAP8 SWAP7 POP POP POP POP POP POP POP JUMP JUMPDEST PUSH1 0x40 DUP1 MLOAD PUSH2 0x160 DUP2 ADD DUP3 MSTORE PUSH0 PUSH2 0x100 DUP3 ADD DUP2 DUP2 MSTORE PUSH2 0x120 DUP4 ADD DUP3 SWAP1 MSTORE PUSH2 0x140 DUP4 ADD DUP3 SWAP1 MSTORE DUP3 MSTORE DUP3 MLOAD PUSH1 0x60 DUP1 DUP3 ADD DUP6 MSTORE DUP3 DUP3 MSTORE PUSH1 0x20 DUP1 DUP4 ADD DUP5 SWAP1 MSTORE DUP3 DUP7 ADD DUP5 SWAP1 MSTORE DUP1 DUP6 ADD SWAP3 SWAP1 SWAP3 MSTORE DUP5 MLOAD DUP1 DUP3 ADD DUP7 MSTORE DUP4 DUP2 MSTORE SWAP2 DUP3 ADD DUP4 SWAP1 MSTORE DUP2 DUP6 ADD DUP4 SWAP1 MSTORE SWAP4 DUP4 ADD MSTORE SWAP2 DUP2 ADD DUP3 SWAP1 MSTORE PUSH1 0x80 DUP2 ADD DUP3 SWAP1 MSTORE PUSH1 0xA0 DUP2 ADD DUP3 SWAP1 MSTORE PUSH1 0xC0 DUP2 ADD DUP3 SWAP1 MSTORE PUSH1 0xE0 DUP2 ADD SWAP2 SWAP1 SWAP2 MSTORE PUSH1 0x1 DUP1 SLOAD DUP4 SWAP2 PUSH2 0x1553 SWAP1 DUP3 SWAP1 PUSH2 0x1C72 JUMP JUMPDEST DUP3 GT ISZERO PUSH2 0x1572 JUMPI PUSH1 0x40 MLOAD PUSH3 0x461BCD PUSH1 0xE5 SHL DUP2 MSTORE PUSH1 0x4 ADD PUSH2 0x5A1 SWAP1 PUSH2 0x28E3 JUMP JUMPDEST PUSH0 PUSH2 0x157C DUP6 PUSH2 0xE5E JUMP JUMPDEST MLOAD PUSH1 0x40 DUP1 MLOAD PUSH1 0x60 DUP2 ADD SWAP2 DUP3 SWAP1 MSTORE PUSH4 0x9A81161 PUSH1 0xE1 SHL SWAP1 SWAP2 MSTORE PUSH1 0x64 DUP2 ADD DUP9 SWAP1 MSTORE SWAP1 SWAP2 POP PUSH0 SWAP1 DUP1 PUSH1 0x1 PUSH1 0x1 PUSH1 0xA0 SHL SUB DUP5 AND PUSH4 0x135022C2 PUSH1 0x84 DUP4 ADD PUSH2 0x1C0 PUSH1 0x40 MLOAD DUP1 DUP4 SUB DUP2 DUP7 GAS STATICCALL ISZERO DUP1 ISZERO PUSH2 0x15D0 JUMPI RETURNDATASIZE PUSH0 DUP1 RETURNDATACOPY RETURNDATASIZE PUSH0 REVERT JUMPDEST POP POP POP POP PUSH1 0x40 MLOAD RETURNDATASIZE PUSH1 0x1F NOT PUSH1 0x1F DUP3 ADD AND DUP3 ADD DUP1 PUSH1 0x40 MSTORE POP DUP2 ADD SWAP1 PUSH2 0x15F4 SWAP2 SWAP1 PUSH2 0x2AB8 JUMP JUMPDEST MLOAD MLOAD PUSH1 0x1 PUSH1 0x1 PUSH1 0xA0 SHL SUB SWAP1 DUP2 AND DUP3 MSTORE PUSH1 0x40 MLOAD PUSH4 0x9A81161 PUSH1 0xE1 SHL DUP2 MSTORE PUSH1 0x4 DUP2 ADD DUP12 SWAP1 MSTORE PUSH1 0x20 SWAP1 SWAP3 ADD SWAP2 SWAP1 DUP6 AND SWAP1 PUSH4 0x135022C2 SWAP1 PUSH1 0x24 ADD PUSH2 0x1C0 PUSH1 0x40 MLOAD DUP1 DUP4 SUB DUP2 DUP7 GAS STATICCALL ISZERO DUP1 ISZERO PUSH2 0x1646 JUMPI RETURNDATASIZE PUSH0 DUP1 RETURNDATACOPY RETURNDATASIZE PUSH0 REVERT JUMPDEST POP POP POP POP PUSH1 0x40 MLOAD RETURNDATASIZE PUSH1 0x1F NOT PUSH1 0x1F DUP3 ADD AND DUP3 ADD DUP1 PUSH1 0x40 MSTORE POP DUP2 ADD SWAP1 PUSH2 0x166A SWAP2 SWAP1 PUSH2 0x2AB8 JUMP JUMPDEST MLOAD PUSH1 0x20 SWAP1 DUP2 ADD MLOAD DUP3 MSTORE PUSH1 0x40 MLOAD PUSH4 0x9A81161 PUSH1 0xE1 SHL DUP2 MSTORE PUSH1 0x4 DUP2 ADD DUP12 SWAP1 MSTORE SWAP2 ADD SWAP1 PUSH1 0x1 PUSH1 0x1 PUSH1 0xA0 SHL SUB DUP6 AND SWAP1 PUSH4 0x135022C2 SWAP1 PUSH1 0x24 ADD PUSH2 0x1C0 PUSH1 0x40 MLOAD DUP1 DUP4 SUB DUP2 DUP7 GAS STATICCALL ISZERO DUP1 ISZERO PUSH2 0x16BA JUMPI RETURNDATASIZE PUSH0 DUP1 RETURNDATACOPY RETURNDATASIZE PUSH0 REVERT JUMPDEST POP POP POP POP PUSH1 0x40 MLOAD RETURNDATASIZE PUSH1 0x1F NOT PUSH1 0x1F DUP3 ADD AND DUP3 ADD DUP1 PUSH1 0x40 MSTORE POP DUP2 ADD SWAP1 PUSH2 0x16DE SWAP2 SWAP1 PUSH2 0x2AB8 JUMP JUMPDEST MLOAD PUSH1 0x40 SWAP1 DUP2 ADD MLOAD ISZERO ISZERO SWAP1 SWAP2 MSTORE DUP1 MLOAD PUSH1 0x60 DUP2 ADD SWAP2 DUP3 SWAP1 MSTORE PUSH4 0x9A81161 PUSH1 0xE1 SHL SWAP1 SWAP2 MSTORE PUSH1 0x64 DUP2 ADD DUP10 SWAP1 MSTORE SWAP1 SWAP2 POP PUSH0 SWAP1 DUP1 PUSH1 0x1 PUSH1 0x1 PUSH1 0xA0 SHL SUB DUP6 AND PUSH4 0x135022C2 PUSH1 0x84 DUP4 ADD PUSH2 0x1C0 PUSH1 0x40 MLOAD DUP1 DUP4 SUB DUP2 DUP7 GAS STATICCALL ISZERO DUP1 ISZERO PUSH2 0x173B JUMPI RETURNDATASIZE PUSH0 DUP1 RETURNDATACOPY RETURNDATASIZE PUSH0 REVERT JUMPDEST POP POP POP POP PUSH1 0x40 MLOAD RETURNDATASIZE PUSH1 0x1F NOT PUSH1 0x1F DUP3 ADD AND DUP3 ADD DUP1 PUSH1 0x40 MSTORE POP DUP2 ADD SWAP1 PUSH2 0x175F SWAP2 SWAP1 PUSH2 0x2AB8 JUMP JUMPDEST PUSH1 0x20 ADD MLOAD PUSH0 ADD MLOAD PUSH1 0x1 PUSH1 0x1 PUSH1 0xA0 SHL SUB AND DUP2 MSTORE PUSH1 0x20 ADD DUP5 PUSH1 0x1 PUSH1 0x1 PUSH1 0xA0 SHL SUB AND PUSH4 0x135022C2 DUP12 PUSH1 0x40 MLOAD DUP3 PUSH4 0xFFFFFFFF AND PUSH1 0xE0 SHL DUP2 MSTORE PUSH1 0x4 ADD PUSH2 0x17A2 SWAP2 DUP2 MSTORE PUSH1 0x20 ADD SWAP1 JUMP JUMPDEST PUSH2 0x1C0 PUSH1 0x40 MLOAD DUP1 DUP4 SUB DUP2 DUP7 GAS STATICCALL ISZERO DUP1 ISZERO PUSH2 0x17BE JUMPI RETURNDATASIZE PUSH0 DUP1 RETURNDATACOPY RETURNDATASIZE PUSH0 REVERT JUMPDEST POP POP POP POP PUSH1 0x40 MLOAD RETURNDATASIZE PUSH1 0x1F NOT PUSH1 0x1F DUP3 ADD AND DUP3 ADD DUP1 PUSH1 0x40 MSTORE POP DUP2 ADD SWAP1 PUSH2 0x17E2 SWAP2 SWAP1 PUSH2 0x2AB8 JUMP JUMPDEST PUSH1 0x20 ADD MLOAD PUSH1 0x20 ADD MLOAD DUP2 MSTORE PUSH1 0x20 ADD DUP5 PUSH1 0x1 PUSH1 0x1 PUSH1 0xA0 SHL SUB AND PUSH4 0x135022C2 DUP12 PUSH1 0x40 MLOAD DUP3 PUSH4 0xFFFFFFFF AND PUSH1 0xE0 SHL DUP2 MSTORE PUSH1 0x4 ADD PUSH2 0x181D SWAP2 DUP2 MSTORE PUSH1 0x20 ADD SWAP1 JUMP JUMPDEST PUSH2 0x1C0 PUSH1 0x40 MLOAD DUP1 DUP4 SUB DUP2 DUP7 GAS STATICCALL ISZERO DUP1 ISZERO PUSH2 0x1839 JUMPI RETURNDATASIZE PUSH0 DUP1 RETURNDATACOPY RETURNDATASIZE PUSH0 REVERT JUMPDEST POP POP POP POP PUSH1 0x40 MLOAD RETURNDATASIZE PUSH1 0x1F NOT PUSH1 0x1F DUP3 ADD AND DUP3 ADD DUP1 PUSH1 0x40 MSTORE POP DUP2 ADD SWAP1 PUSH2 0x185D SWAP2 SWAP1 PUSH2 0x2AB8 JUMP JUMPDEST PUSH1 0x20 ADD MLOAD PUSH1 0x40 ADD MLOAD ISZERO ISZERO DUP2 MSTORE POP SWAP1 POP PUSH0 PUSH1 0x40 MLOAD DUP1 PUSH1 0x60 ADD PUSH1 0x40 MSTORE DUP1 DUP6 PUSH1 0x1 PUSH1 0x1 PUSH1 0xA0 SHL SUB AND PUSH4 0x135022C2 DUP13 PUSH1 0x40 MLOAD DUP3 PUSH4 0xFFFFFFFF AND PUSH1 0xE0 SHL DUP2 MSTORE PUSH1 0x4 ADD PUSH2 0x18A6 SWAP2 DUP2 MSTORE PUSH1 0x20 ADD SWAP1 JUMP JUMPDEST PUSH2 0x1C0 PUSH1 0x40 MLOAD DUP1 DUP4 SUB DUP2 DUP7 GAS STATICCALL ISZERO DUP1 ISZERO PUSH2 0x18C2 JUMPI RETURNDATASIZE PUSH0 DUP1 RETURNDATACOPY RETURNDATASIZE PUSH0 REVERT JUMPDEST POP POP POP POP PUSH1 0x40 MLOAD RETURNDATASIZE PUSH1 0x1F NOT PUSH1 0x1F DUP3 ADD AND DUP3 ADD DUP1 PUSH1 0x40 MSTORE POP DUP2 ADD SWAP1 PUSH2 0x18E6 SWAP2 SWAP1 PUSH2 0x2AB8 JUMP JUMPDEST PUSH1 0x40 ADD MLOAD PUSH0 ADD MLOAD PUSH1 0x1 PUSH1 0x1 PUSH1 0xA0 SHL SUB AND DUP2 MSTORE PUSH1 0x20 ADD DUP6 PUSH1 0x1 PUSH1 0x1 PUSH1 0xA0 SHL SUB AND PUSH4 0x135022C2 DUP13 PUSH1 0x40 MLOAD DUP3 PUSH4 0xFFFFFFFF AND PUSH1 0xE0 SHL DUP2 MSTORE PUSH1 0x4 ADD PUSH2 0x1929 SWAP2 DUP2 MSTORE PUSH1 0x20 ADD SWAP1 JUMP JUMPDEST PUSH2 0x1C0 PUSH1 0x40 MLOAD DUP1 DUP4 SUB DUP2 DUP7 GAS STATICCALL ISZERO DUP1 ISZERO PUSH2 0x1945 JUMPI RETURNDATASIZE PUSH0 DUP1 RETURNDATACOPY RETURNDATASIZE PUSH0 REVERT JUMPDEST POP POP POP POP PUSH1 0x40 MLOAD RETURNDATASIZE PUSH1 0x1F NOT PUSH1 0x1F DUP3 ADD AND DUP3 ADD DUP1 PUSH1 0x40 MSTORE POP DUP2 ADD SWAP1 PUSH2 0x1969 SWAP2 SWAP1 PUSH2 0x2AB8 JUMP JUMPDEST PUSH1 0x40 ADD MLOAD PUSH1 0x20 ADD MLOAD DUP2 MSTORE PUSH1 0x20 ADD DUP6 PUSH1 0x1 PUSH1 0x1 PUSH1 0xA0 SHL SUB AND PUSH4 0x135022C2 DUP13 PUSH1 0x40 MLOAD DUP3 PUSH4 0xFFFFFFFF AND PUSH1 0xE0 SHL DUP2 MSTORE PUSH1 0x4 ADD PUSH2 0x19A4 SWAP2 DUP2 MSTORE PUSH1 0x20 ADD SWAP1 JUMP JUMPDEST PUSH2 0x1C0 PUSH1 0x40 MLOAD DUP1 DUP4 SUB DUP2 DUP7 GAS STATICCALL ISZERO DUP1 ISZERO PUSH2 0x19C0 JUMPI RETURNDATASIZE PUSH0 DUP1 RETURNDATACOPY RETURNDATASIZE PUSH0 REVERT JUMPDEST POP POP POP POP PUSH1 0x40 MLOAD RETURNDATASIZE PUSH1 0x1F NOT PUSH1 0x1F DUP3 ADD AND DUP3 ADD DUP1 PUSH1 0x40 MSTORE POP DUP2 ADD SWAP1 PUSH2 0x19E4 SWAP2 SWAP1 PUSH2 0x2AB8 JUMP JUMPDEST PUSH1 0x40 ADD MLOAD PUSH1 0x40 ADD MLOAD ISZERO ISZERO DUP2 MSTORE POP SWAP1 POP PUSH0 PUSH1 0x40 MLOAD DUP1 PUSH2 0x100 ADD PUSH1 0x40 MSTORE DUP1 DUP6 DUP2 MSTORE PUSH1 0x20 ADD DUP5 DUP2 MSTORE PUSH1 0x20 ADD DUP4 DUP2 MSTORE PUSH1 0x20 ADD DUP7 PUSH1 0x1 PUSH1 0x1 PUSH1 0xA0 SHL SUB AND PUSH4 0x135022C2 DUP14 PUSH1 0x40 MLOAD DUP3 PUSH4 0xFFFFFFFF AND PUSH1 0xE0 SHL DUP2 MSTORE PUSH1 0x4 ADD PUSH2 0x1A40 SWAP2 DUP2 MSTORE PUSH1 0x20 ADD SWAP1 JUMP JUMPDEST PUSH2 0x1C0 PUSH1 0x40 MLOAD DUP1 DUP4 SUB DUP2 DUP7 GAS STATICCALL ISZERO DUP1 ISZERO PUSH2 0x1A5C JUMPI RETURNDATASIZE PUSH0 DUP1 RETURNDATACOPY RETURNDATASIZE PUSH0 REVERT JUMPDEST POP POP POP POP PUSH1 0x40 MLOAD RETURNDATASIZE PUSH1 0x1F NOT PUSH1 0x1F DUP3 ADD AND DUP3 ADD DUP1 PUSH1 0x40 MSTORE POP DUP2 ADD SWAP1 PUSH2 0x1A80 SWAP2 SWAP1 PUSH2 0x2AB8 JUMP JUMPDEST PUSH1 0x60 ADD MLOAD ISZERO ISZERO DUP2 MSTORE PUSH1 0x20 ADD DUP7 PUSH1 0x1 PUSH1 0x1 PUSH1 0xA0 SHL SUB AND PUSH4 0x135022C2 DUP14 PUSH1 0x40 MLOAD DUP3 PUSH4 0xFFFFFFFF AND PUSH1 0xE0 SHL DUP2 MSTORE PUSH1 0x4 ADD PUSH2 0x1AB9 SWAP2 DUP2 MSTORE PUSH1 0x20 ADD SWAP1 JUMP JUMPDEST PUSH2 0x1C0 PUSH1 0x40 MLOAD DUP1 DUP4 SUB DUP2 DUP7 GAS STATICCALL ISZERO DUP1 ISZERO PUSH2 0x1AD5 JUMPI RETURNDATASIZE PUSH0 DUP1 RETURNDATACOPY RETURNDATASIZE PUSH0 REVERT JUMPDEST POP POP POP POP PUSH1 0x40 MLOAD RETURNDATASIZE PUSH1 0x1F NOT PUSH1 0x1F DUP3 ADD AND DUP3 ADD DUP1 PUSH1 0x40 MSTORE POP DUP2 ADD SWAP1 PUSH2 0x1AF9 SWAP2 SWAP1 PUSH2 0x2AB8 JUMP JUMPDEST PUSH1 0x80 ADD MLOAD DUP2 MSTORE PUSH1 0x20 ADD DUP7 PUSH1 0x1 PUSH1 0x1 PUSH1 0xA0 SHL SUB AND PUSH4 0x135022C2 DUP14 PUSH1 0x40 MLOAD DUP3 PUSH4 0xFFFFFFFF AND PUSH1 0xE0 SHL DUP2 MSTORE PUSH1 0x4 ADD PUSH2 0x1B30 SWAP2 DUP2 MSTORE PUSH1 0x20 ADD SWAP1 JUMP JUMPDEST PUSH2 0x1C0 PUSH1 0x40 MLOAD DUP1 DUP4 SUB DUP2 DUP7 GAS STATICCALL ISZERO DUP1 ISZERO PUSH2 0x1B4C JUMPI RETURNDATASIZE PUSH0 DUP1 RETURNDATACOPY RETURNDATASIZE PUSH0 REVERT JUMPDEST POP POP POP POP PUSH1 0x40 MLOAD RETURNDATASIZE PUSH1 0x1F NOT PUSH1 0x1F DUP3 ADD AND DUP3 ADD DUP1 PUSH1 0x40 MSTORE POP DUP2 ADD SWAP1 PUSH2 0x1B70 SWAP2 SWAP1 PUSH2 0x2AB8 JUMP JUMPDEST PUSH1 0xA0 ADD MLOAD DUP2 MSTORE PUSH1 0x20 ADD DUP7 PUSH1 0x1 PUSH1 0x1 PUSH1 0xA0 SHL SUB AND PUSH4 0x135022C2 DUP14 PUSH1 0x40 MLOAD DUP3 PUSH4 0xFFFFFFFF AND PUSH1 0xE0 SHL DUP2 MSTORE PUSH1 0x4 ADD PUSH2 0x1BA7 SWAP2 DUP2 MSTORE PUSH1 0x20 ADD SWAP1 JUMP JUMPDEST PUSH2 0x1C0 PUSH1 0x40 MLOAD DUP1 DUP4 SUB DUP2 DUP7 GAS STATICCALL ISZERO DUP1 ISZERO PUSH2 0x1BC3 JUMPI RETURNDATASIZE PUSH0 DUP1 RETURNDATACOPY RETURNDATASIZE PUSH0 REVERT JUMPDEST POP POP POP POP PUSH1 0x40 MLOAD RETURNDATASIZE PUSH1 0x1F NOT PUSH1 0x1F DUP3 ADD AND DUP3 ADD DUP1 PUSH1 0x40 MSTORE POP DUP2 ADD SWAP1 PUSH2 0x1BE7 SWAP2 SWAP1 PUSH2 0x2AB8 JUMP JUMPDEST PUSH1 0xC0 ADD MLOAD DUP2 MSTORE PUSH1 0x20 ADD DUP7 PUSH1 0x1 PUSH1 0x1 PUSH1 0xA0 SHL SUB AND PUSH4 0x135022C2 DUP14 PUSH1 0x40 MLOAD DUP3 PUSH4 0xFFFFFFFF AND PUSH1 0xE0 SHL DUP2 MSTORE PUSH1 0x4 ADD PUSH2 0x1C1E SWAP2 DUP2 MSTORE PUSH1 0x20 ADD SWAP1 JUMP JUMPDEST PUSH2 0x1C0 PUSH1 0x40 MLOAD DUP1 DUP4 SUB DUP2 DUP7 GAS STATICCALL ISZERO DUP1 ISZERO PUSH2 0x1C3A JUMPI RETURNDATASIZE PUSH0 DUP1 RETURNDATACOPY RETURNDATASIZE PUSH0 REVERT JUMPDEST POP POP POP POP PUSH1 0x40 MLOAD RETURNDATASIZE PUSH1 0x1F NOT PUSH1 0x1F DUP3 ADD AND DUP3 ADD DUP1 PUSH1 0x40 MSTORE POP DUP2 ADD SWAP1 PUSH2 0x1C5E SWAP2 SWAP1 PUSH2 0x2AB8 JUMP JUMPDEST PUSH1 0xE0 ADD MLOAD SWAP1 MSTORE SWAP11 SWAP10 POP POP POP POP POP POP POP POP POP POP JUMP JUMPDEST PUSH0 PUSH2 0x1C7D DUP3 DUP5 PUSH2 0x2960 JUMP JUMPDEST SWAP1 POP JUMPDEST SWAP3 SWAP2 POP POP JUMP JUMPDEST PUSH1 0x40 MLOAD PUSH4 0x70A08231 PUSH1 0xE0 SHL DUP2 MSTORE ADDRESS PUSH1 0x4 DUP3 ADD MSTORE PUSH0 SWAP1 PUSH1 0x1 PUSH1 0x1 PUSH1 0xA0 SHL SUB DUP5 AND SWAP1 PUSH4 0x70A08231 SWAP1 PUSH1 0x24 ADD PUSH1 0x20 PUSH1 0x40 MLOAD DUP1 DUP4 SUB DUP2 DUP7 GAS STATICCALL ISZERO DUP1 ISZERO PUSH2 0x1CCA JUMPI RETURNDATASIZE PUSH0 DUP1 RETURNDATACOPY RETURNDATASIZE PUSH0 REVERT JUMPDEST POP POP POP POP PUSH1 0x40 MLOAD RETURNDATASIZE PUSH1 0x1F NOT PUSH1 0x1F DUP3 ADD AND DUP3 ADD DUP1 PUSH1 0x40 MSTORE POP DUP2 ADD SWAP1 PUSH2 0x1CEE SWAP2 SWAP1 PUSH2 0x2949 JUMP JUMPDEST SWAP1 POP PUSH2 0x1CFB DUP6 DUP6 DUP5 PUSH2 0x208B JUMP JUMPDEST PUSH1 0x40 MLOAD PUSH4 0x70A08231 PUSH1 0xE0 SHL DUP2 MSTORE ADDRESS PUSH1 0x4 DUP3 ADD MSTORE PUSH0 SWAP1 PUSH1 0x1 PUSH1 0x1 PUSH1 0xA0 SHL SUB DUP6 AND SWAP1 PUSH4 0x70A08231 SWAP1 PUSH1 0x24 ADD PUSH1 0x20 PUSH1 0x40 MLOAD DUP1 DUP4 SUB DUP2 DUP7 GAS STATICCALL ISZERO DUP1 ISZERO PUSH2 0x1D3F JUMPI RETURNDATASIZE PUSH0 DUP1 RETURNDATACOPY RETURNDATASIZE PUSH0 REVERT JUMPDEST POP POP POP POP PUSH1 0x40 MLOAD RETURNDATASIZE PUSH1 0x1F NOT PUSH1 0x1F DUP3 ADD AND DUP3 ADD DUP1 PUSH1 0x40 MSTORE POP DUP2 ADD SWAP1 PUSH2 0x1D63 SWAP2 SWAP1 PUSH2 0x2949 JUMP JUMPDEST SWAP1 POP PUSH0 PUSH2 0x1D70 DUP3 DUP5 PUSH2 0x1C72 JUMP JUMPDEST SWAP1 POP PUSH2 0x1D7D DUP8 DUP7 DUP4 PUSH2 0x1F50 JUMP JUMPDEST POP POP POP POP POP POP POP JUMP JUMPDEST PUSH1 0x40 MLOAD PUSH4 0x70A08231 PUSH1 0xE0 SHL DUP2 MSTORE ADDRESS PUSH1 0x4 DUP3 ADD MSTORE PUSH0 SWAP1 DUP2 SWAP1 PUSH1 0x1 PUSH1 0x1 PUSH1 0xA0 SHL SUB DUP9 AND SWAP1 PUSH4 0x70A08231 SWAP1 PUSH1 0x24 ADD PUSH1 0x20 PUSH1 0x40 MLOAD DUP1 DUP4 SUB DUP2 DUP7 GAS STATICCALL ISZERO DUP1 ISZERO PUSH2 0x1DCC JUMPI RETURNDATASIZE PUSH0 DUP1 RETURNDATACOPY RETURNDATASIZE PUSH0 REVERT JUMPDEST POP POP POP POP PUSH1 0x40 MLOAD RETURNDATASIZE PUSH1 0x1F NOT PUSH1 0x1F DUP3 ADD AND DUP3 ADD DUP1 PUSH1 0x40 MSTORE POP DUP2 ADD SWAP1 PUSH2 0x1DF0 SWAP2 SWAP1 PUSH2 0x2949 JUMP JUMPDEST SWAP1 POP PUSH2 0x1DFE DUP7 DUP7 DUP7 DUP7 PUSH2 0x20F0 JUMP JUMPDEST PUSH1 0x40 MLOAD PUSH4 0x70A08231 PUSH1 0xE0 SHL DUP2 MSTORE ADDRESS PUSH1 0x4 DUP3 ADD MSTORE PUSH0 SWAP1 PUSH1 0x1 PUSH1 0x1 PUSH1 0xA0 SHL SUB DUP10 AND SWAP1 PUSH4 0x70A08231 SWAP1 PUSH1 0x24 ADD PUSH1 0x20 PUSH1 0x40 MLOAD DUP1 DUP4 SUB DUP2 DUP7 GAS STATICCALL ISZERO DUP1 ISZERO PUSH2 0x1E42 JUMPI RETURNDATASIZE PUSH0 DUP1 RETURNDATACOPY RETURNDATASIZE PUSH0 REVERT JUMPDEST POP POP POP POP PUSH1 0x40 MLOAD RETURNDATASIZE PUSH1 0x1F NOT PUSH1 0x1F DUP3 ADD AND DUP3 ADD DUP1 PUSH1 0x40 MSTORE POP DUP2 ADD SWAP1 PUSH2 0x1E66 SWAP2 SWAP1 PUSH2 0x2949 JUMP JUMPDEST SWAP1 POP PUSH0 PUSH2 0x1E73 DUP3 DUP5 PUSH2 0x1C72 JUMP JUMPDEST SWAP1 POP PUSH0 DUP2 GT PUSH2 0x823 JUMPI PUSH0 DUP1 REVERT JUMPDEST PUSH2 0x1E8B DUP4 DUP4 DUP4 PUSH2 0x22C3 JUMP JUMPDEST PUSH2 0x1E96 DUP5 DUP5 DUP4 PUSH2 0x22EB JUMP JUMPDEST POP POP POP POP JUMP JUMPDEST PUSH1 0x40 MLOAD PUSH4 0x1AC6D19D PUSH1 0xE0 SHL DUP2 MSTORE PUSH1 0x1 PUSH1 0x1 PUSH1 0xA0 SHL SUB DUP4 DUP2 AND PUSH1 0x4 DUP4 ADD MSTORE PUSH0 SWAP2 DUP3 SWAP2 DUP5 AND SWAP1 PUSH4 0x1AC6D19D SWAP1 PUSH1 0x24 ADD PUSH1 0x20 PUSH1 0x40 MLOAD DUP1 DUP4 SUB DUP2 PUSH0 DUP8 GAS CALL ISZERO DUP1 ISZERO PUSH2 0x1EE5 JUMPI RETURNDATASIZE PUSH0 DUP1 RETURNDATACOPY RETURNDATASIZE PUSH0 REVERT JUMPDEST POP POP POP POP PUSH1 0x40 MLOAD RETURNDATASIZE PUSH1 0x1F NOT PUSH1 0x1F DUP3 ADD AND DUP3 ADD DUP1 PUSH1 0x40 MSTORE POP DUP2 ADD SWAP1 PUSH2 0x1F09 SWAP2 SWAP1 PUSH2 0x2949 JUMP JUMPDEST SWAP1 POP PUSH0 DUP2 GT PUSH2 0x1C7D JUMPI PUSH1 0x40 MLOAD PUSH3 0x461BCD PUSH1 0xE5 SHL DUP2 MSTORE PUSH1 0x20 PUSH1 0x4 DUP3 ADD MSTORE PUSH1 0x13 PUSH1 0x24 DUP3 ADD MSTORE PUSH19 0x4E6F207265776172647320746F20636C61696D PUSH1 0x68 SHL PUSH1 0x44 DUP3 ADD MSTORE PUSH1 0x64 ADD PUSH2 0x5A1 JUMP JUMPDEST PUSH2 0x1F64 PUSH1 0x1 PUSH1 0x1 PUSH1 0xA0 SHL SUB DUP4 AND DUP5 DUP4 PUSH2 0x2320 JUMP JUMPDEST POP POP POP JUMP JUMPDEST PUSH1 0x2 DUP1 SLOAD PUSH1 0x1 PUSH1 0x1 PUSH1 0xA0 SHL SUB NOT AND PUSH1 0x1 PUSH1 0x1 PUSH1 0xA0 SHL SUB SWAP3 SWAP1 SWAP3 AND SWAP2 SWAP1 SWAP2 OR SWAP1 SSTORE JUMP JUMPDEST PUSH0 DUP1 DUP3 GT PUSH2 0x1F97 JUMPI PUSH0 DUP1 REVERT JUMPDEST PUSH1 0x40 MLOAD PUSH4 0x70A08231 PUSH1 0xE0 SHL DUP2 MSTORE ADDRESS PUSH1 0x4 DUP3 ADD MSTORE PUSH0 SWAP1 PUSH1 0x1 PUSH1 0x1 PUSH1 0xA0 SHL SUB DUP6 AND SWAP1 PUSH4 0x70A08231 SWAP1 PUSH1 0x24 ADD PUSH1 0x20 PUSH1 0x40 MLOAD DUP1 DUP4 SUB DUP2 DUP7 GAS STATICCALL ISZERO DUP1 ISZERO PUSH2 0x1FDB JUMPI RETURNDATASIZE PUSH0 DUP1 RETURNDATACOPY RETURNDATASIZE PUSH0 REVERT JUMPDEST POP POP POP POP PUSH1 0x40 MLOAD RETURNDATASIZE PUSH1 0x1F NOT PUSH1 0x1F DUP3 ADD AND DUP3 ADD DUP1 PUSH1 0x40 MSTORE POP DUP2 ADD SWAP1 PUSH2 0x1FFF SWAP2 SWAP1 PUSH2 0x2949 JUMP JUMPDEST SWAP1 POP PUSH2 0x2016 PUSH1 0x1 PUSH1 0x1 PUSH1 0xA0 SHL SUB DUP6 AND CALLER ADDRESS DUP7 PUSH2 0x2383 JUMP JUMPDEST PUSH1 0x40 MLOAD PUSH4 0x70A08231 PUSH1 0xE0 SHL DUP2 MSTORE ADDRESS PUSH1 0x4 DUP3 ADD MSTORE PUSH0 SWAP1 PUSH1 0x1 PUSH1 0x1 PUSH1 0xA0 SHL SUB DUP7 AND SWAP1 PUSH4 0x70A08231 SWAP1 PUSH1 0x24 ADD PUSH1 0x20 PUSH1 0x40 MLOAD DUP1 DUP4 SUB DUP2 DUP7 GAS STATICCALL ISZERO DUP1 ISZERO PUSH2 0x205A JUMPI RETURNDATASIZE PUSH0 DUP1 RETURNDATACOPY RETURNDATASIZE PUSH0 REVERT JUMPDEST POP POP POP POP PUSH1 0x40 MLOAD RETURNDATASIZE PUSH1 0x1F NOT PUSH1 0x1F DUP3 ADD AND DUP3 ADD DUP1 PUSH1 0x40 MSTORE POP DUP2 ADD SWAP1 PUSH2 0x207E SWAP2 SWAP1 PUSH2 0x2949 JUMP JUMPDEST SWAP1 POP PUSH0 PUSH2 0x8D2 DUP3 DUP5 PUSH2 0x1C72 JUMP JUMPDEST PUSH0 DUP2 GT PUSH2 0x2096 JUMPI PUSH0 DUP1 REVERT JUMPDEST PUSH1 0x40 MLOAD PUSH4 0x6DA8C6D9 PUSH1 0xE1 SHL DUP2 MSTORE PUSH1 0x1 PUSH1 0x1 PUSH1 0xA0 SHL SUB DUP5 DUP2 AND PUSH1 0x4 DUP4 ADD MSTORE PUSH1 0x24 DUP3 ADD DUP4 SWAP1 MSTORE DUP4 AND SWAP1 PUSH4 0xDB518DB2 SWAP1 PUSH1 0x44 ADD JUMPDEST PUSH0 PUSH1 0x40 MLOAD DUP1 DUP4 SUB DUP2 PUSH0 DUP8 DUP1 EXTCODESIZE ISZERO DUP1 ISZERO PUSH2 0x20DE JUMPI PUSH0 DUP1 REVERT JUMPDEST POP GAS CALL ISZERO DUP1 ISZERO PUSH2 0x1D7D JUMPI RETURNDATASIZE PUSH0 DUP1 RETURNDATACOPY RETURNDATASIZE PUSH0 REVERT JUMPDEST PUSH1 0x1 PUSH1 0x1 PUSH1 0xA0 SHL SUB DUP5 AND PUSH0 SUB PUSH2 0x21B3 JUMPI DUP3 CALLVALUE LT ISZERO PUSH2 0x210C JUMPI PUSH0 DUP1 REVERT JUMPDEST PUSH1 0x3 SLOAD PUSH1 0x40 MLOAD PUSH0 SWAP2 PUSH1 0x1 PUSH1 0x1 PUSH1 0xA0 SHL SUB AND SWAP1 DUP6 SWAP1 PUSH2 0x212D SWAP1 DUP7 SWAP1 DUP7 SWAP1 PUSH2 0x2B46 JUMP JUMPDEST PUSH0 PUSH1 0x40 MLOAD DUP1 DUP4 SUB DUP2 DUP6 DUP8 GAS CALL SWAP3 POP POP POP RETURNDATASIZE DUP1 PUSH0 DUP2 EQ PUSH2 0x2167 JUMPI PUSH1 0x40 MLOAD SWAP2 POP PUSH1 0x1F NOT PUSH1 0x3F RETURNDATASIZE ADD AND DUP3 ADD PUSH1 0x40 MSTORE RETURNDATASIZE DUP3 MSTORE RETURNDATASIZE PUSH0 PUSH1 0x20 DUP5 ADD RETURNDATACOPY PUSH2 0x216C JUMP JUMPDEST PUSH1 0x60 SWAP2 POP JUMPDEST POP POP SWAP1 POP DUP1 PUSH2 0x21AD JUMPI PUSH1 0x40 MLOAD PUSH3 0x461BCD PUSH1 0xE5 SHL DUP2 MSTORE PUSH1 0x20 PUSH1 0x4 DUP3 ADD MSTORE PUSH1 0xD PUSH1 0x24 DUP3 ADD MSTORE PUSH13 0x436F756C646E2774207377617 PUSH1 0x9C SHL PUSH1 0x44 DUP3 ADD MSTORE PUSH1 0x64 ADD PUSH2 0x5A1 JUMP JUMPDEST POP PUSH2 0x1E96 JUMP JUMPDEST CALLVALUE ISZERO PUSH2 0x21BD JUMPI PUSH0 DUP1 REVERT JUMPDEST PUSH0 PUSH2 0x21C8 DUP6 DUP6 PUSH2 0x1F8B JUMP JUMPDEST PUSH1 0x3 SLOAD SWAP1 SWAP2 POP PUSH2 0x21E5 SWAP1 PUSH1 0x1 PUSH1 0x1 PUSH1 0xA0 SHL SUB DUP8 DUP2 AND SWAP2 AND PUSH0 PUSH2 0x23BB JUMP JUMPDEST PUSH1 0x3 SLOAD PUSH2 0x21FF SWAP1 PUSH1 0x1 PUSH1 0x1 PUSH1 0xA0 SHL SUB DUP8 DUP2 AND SWAP2 AND DUP4 PUSH2 0x23BB JUMP JUMPDEST PUSH1 0x3 SLOAD PUSH1 0x40 MLOAD PUSH0 SWAP2 PUSH1 0x1 PUSH1 0x1 PUSH1 0xA0 SHL SUB AND SWAP1 DUP3 SWAP1 PUSH2 0x2220 SWAP1 DUP8 SWAP1 DUP8 SWAP1 PUSH2 0x2B46 JUMP JUMPDEST PUSH0 PUSH1 0x40 MLOAD DUP1 DUP4 SUB DUP2 DUP6 DUP8 GAS CALL SWAP3 POP POP POP RETURNDATASIZE DUP1 PUSH0 DUP2 EQ PUSH2 0x225A JUMPI PUSH1 0x40 MLOAD SWAP2 POP PUSH1 0x1F NOT PUSH1 0x3F RETURNDATASIZE ADD AND DUP3 ADD PUSH1 0x40 MSTORE RETURNDATASIZE DUP3 MSTORE RETURNDATASIZE PUSH0 PUSH1 0x20 DUP5 ADD RETURNDATACOPY PUSH2 0x225F JUMP JUMPDEST PUSH1 0x60 SWAP2 POP JUMPDEST POP POP PUSH1 0x3 SLOAD SWAP1 SWAP2 POP PUSH2 0x227E SWAP1 PUSH1 0x1 PUSH1 0x1 PUSH1 0xA0 SHL SUB DUP9 DUP2 AND SWAP2 AND PUSH0 PUSH2 0x23BB JUMP JUMPDEST DUP1 PUSH2 0x22BB JUMPI PUSH1 0x40 MLOAD PUSH3 0x461BCD PUSH1 0xE5 SHL DUP2 MSTORE PUSH1 0x20 PUSH1 0x4 DUP3 ADD MSTORE PUSH1 0xD PUSH1 0x24 DUP3 ADD MSTORE PUSH13 0x436F756C646E2774207377617 PUSH1 0x9C SHL PUSH1 0x44 DUP3 ADD MSTORE PUSH1 0x64 ADD PUSH2 0x5A1 JUMP JUMPDEST POP POP POP POP POP POP JUMP JUMPDEST PUSH2 0x22D7 PUSH1 0x1 PUSH1 0x1 PUSH1 0xA0 SHL SUB DUP4 AND DUP5 PUSH0 PUSH2 0x23BB JUMP JUMPDEST PUSH2 0x1F64 PUSH1 0x1 PUSH1 0x1 PUSH1 0xA0 SHL SUB DUP4 AND DUP5 DUP4 PUSH2 0x23BB JUMP JUMPDEST PUSH1 0x40 MLOAD PUSH4 0x17A790F1 PUSH1 0xE1 SHL DUP2 MSTORE PUSH1 0x1 PUSH1 0x1 PUSH1 0xA0 SHL SUB DUP5 DUP2 AND PUSH1 0x4 DUP4 ADD MSTORE PUSH1 0x24 DUP3 ADD DUP4 SWAP1 MSTORE DUP4 AND SWAP1 PUSH4 0x2F4F21E2 SWAP1 PUSH1 0x44 ADD PUSH2 0x20C7 JUMP JUMPDEST PUSH1 0x40 MLOAD PUSH1 0x1 PUSH1 0x1 PUSH1 0xA0 SHL SUB DUP4 AND PUSH1 0x24 DUP3 ADD MSTORE PUSH1 0x44 DUP2 ADD DUP3 SWAP1 MSTORE PUSH2 0x1F64 SWAP1 DUP5 SWAP1 PUSH4 0xA9059CBB PUSH1 0xE0 SHL SWAP1 PUSH1 0x64 ADD JUMPDEST PUSH1 0x40 DUP1 MLOAD PUSH1 0x1F NOT DUP2 DUP5 SUB ADD DUP2 MSTORE SWAP2 SWAP1 MSTORE PUSH1 0x20 DUP2 ADD DUP1 MLOAD PUSH1 0x1 PUSH1 0x1 PUSH1 0xE0 SHL SUB AND PUSH1 0x1 PUSH1 0x1 PUSH1 0xE0 SHL SUB NOT SWAP1 SWAP4 AND SWAP3 SWAP1 SWAP3 OR SWAP1 SWAP2 MSTORE PUSH2 0x24CE JUMP JUMPDEST PUSH1 0x40 MLOAD PUSH1 0x1 PUSH1 0x1 PUSH1 0xA0 SHL SUB DUP1 DUP6 AND PUSH1 0x24 DUP4 ADD MSTORE DUP4 AND PUSH1 0x44 DUP3 ADD MSTORE PUSH1 0x64 DUP2 ADD DUP3 SWAP1 MSTORE PUSH2 0x1E96 SWAP1 DUP6 SWAP1 PUSH4 0x23B872DD PUSH1 0xE0 SHL SWAP1 PUSH1 0x84 ADD PUSH2 0x234C JUMP JUMPDEST DUP1 ISZERO DUP1 PUSH2 0x2433 JUMPI POP PUSH1 0x40 MLOAD PUSH4 0x6EB1769F PUSH1 0xE1 SHL DUP2 MSTORE ADDRESS PUSH1 0x4 DUP3 ADD MSTORE PUSH1 0x1 PUSH1 0x1 PUSH1 0xA0 SHL SUB DUP4 DUP2 AND PUSH1 0x24 DUP4 ADD MSTORE DUP5 AND SWAP1 PUSH4 0xDD62ED3E SWAP1 PUSH1 0x44 ADD PUSH1 0x20 PUSH1 0x40 MLOAD DUP1 DUP4 SUB DUP2 DUP7 GAS STATICCALL ISZERO DUP1 ISZERO PUSH2 0x240D JUMPI RETURNDATASIZE PUSH0 DUP1 RETURNDATACOPY RETURNDATASIZE PUSH0 REVERT JUMPDEST POP POP POP POP PUSH1 0x40 MLOAD RETURNDATASIZE PUSH1 0x1F NOT PUSH1 0x1F DUP3 ADD AND DUP3 ADD DUP1 PUSH1 0x40 MSTORE POP DUP2 ADD SWAP1 PUSH2 0x2431 SWAP2 SWAP1 PUSH2 0x2949 JUMP JUMPDEST ISZERO JUMPDEST PUSH2 0x249E JUMPI PUSH1 0x40 MLOAD PUSH3 0x461BCD PUSH1 0xE5 SHL DUP2 MSTORE PUSH1 0x20 PUSH1 0x4 DUP3 ADD MSTORE PUSH1 0x36 PUSH1 0x24 DUP3 ADD MSTORE PUSH32 0x5361666545524332303A20617070726F76652066726F6D206E6F6E2D7A65726F PUSH1 0x44 DUP3 ADD MSTORE PUSH22 0x20746F206E6F6E2D7A65726F20616C6C6F77616E6365 PUSH1 0x50 SHL PUSH1 0x64 DUP3 ADD MSTORE PUSH1 0x84 ADD PUSH2 0x5A1 JUMP JUMPDEST PUSH1 0x40 MLOAD PUSH1 0x1 PUSH1 0x1 PUSH1 0xA0 SHL SUB DUP4 AND PUSH1 0x24 DUP3 ADD MSTORE PUSH1 0x44 DUP2 ADD DUP3 SWAP1 MSTORE PUSH2 0x1F64 SWAP1 DUP5 SWAP1 PUSH4 0x95EA7B3 PUSH1 0xE0 SHL SWAP1 PUSH1 0x64 ADD PUSH2 0x234C JUMP JUMPDEST PUSH0 PUSH2 0x2522 DUP3 PUSH1 0x40 MLOAD DUP1 PUSH1 0x40 ADD PUSH1 0x40 MSTORE DUP1 PUSH1 0x20 DUP2 MSTORE PUSH1 0x20 ADD PUSH32 0x5361666545524332303A206C6F772D6C6576656C2063616C6C206661696C6564 DUP2 MSTORE POP DUP6 PUSH1 0x1 PUSH1 0x1 PUSH1 0xA0 SHL SUB AND PUSH2 0x25A1 SWAP1 SWAP3 SWAP2 SWAP1 PUSH4 0xFFFFFFFF AND JUMP JUMPDEST SWAP1 POP DUP1 MLOAD PUSH0 EQ DUP1 PUSH2 0x2542 JUMPI POP DUP1 DUP1 PUSH1 0x20 ADD SWAP1 MLOAD DUP2 ADD SWAP1 PUSH2 0x2542 SWAP2 SWAP1 PUSH2 0x2B55 JUMP JUMPDEST PUSH2 0x1F64 JUMPI PUSH1 0x40 MLOAD PUSH3 0x461BCD PUSH1 0xE5 SHL DUP2 MSTORE PUSH1 0x20 PUSH1 0x4 DUP3 ADD MSTORE PUSH1 0x2A PUSH1 0x24 DUP3 ADD MSTORE PUSH32 0x5361666545524332303A204552433230206F7065726174696F6E20646964206E PUSH1 0x44 DUP3 ADD MSTORE PUSH10 0x1BDD081CDD58D8D95959 PUSH1 0xB2 SHL PUSH1 0x64 DUP3 ADD MSTORE PUSH1 0x84 ADD PUSH2 0x5A1 JUMP JUMPDEST PUSH1 0x60 PUSH2 0x25AF DUP5 DUP5 PUSH0 DUP6 PUSH2 0x25B7 JUMP JUMPDEST SWAP5 SWAP4 POP POP POP POP JUMP JUMPDEST PUSH1 0x60 DUP3 SELFBALANCE LT ISZERO PUSH2 0x2618 JUMPI PUSH1 0x40 MLOAD PUSH3 0x461BCD PUSH1 0xE5 SHL DUP2 MSTORE PUSH1 0x20 PUSH1 0x4 DUP3 ADD MSTORE PUSH1 0x26 PUSH1 0x24 DUP3 ADD MSTORE PUSH32 0x416464726573733A20696E73756666696369656E742062616C616E636520666F PUSH1 0x44 DUP3 ADD MSTORE PUSH6 0x1C8818D85B1B PUSH1 0xD2 SHL PUSH1 0x64 DUP3 ADD MSTORE PUSH1 0x84 ADD PUSH2 0x5A1 JUMP JUMPDEST PUSH0 DUP1 DUP7 PUSH1 0x1 PUSH1 0x1 PUSH1 0xA0 SHL SUB AND DUP6 DUP8 PUSH1 0x40 MLOAD PUSH2 0x2633 SWAP2 SWAP1 PUSH2 0x2B90 JUMP JUMPDEST PUSH0 PUSH1 0x40 MLOAD DUP1 DUP4 SUB DUP2 DUP6 DUP8 GAS CALL SWAP3 POP POP POP RETURNDATASIZE DUP1 PUSH0 DUP2 EQ PUSH2 0x266D JUMPI PUSH1 0x40 MLOAD SWAP2 POP PUSH1 0x1F NOT PUSH1 0x3F RETURNDATASIZE ADD AND DUP3 ADD PUSH1 0x40 MSTORE RETURNDATASIZE DUP3 MSTORE RETURNDATASIZE PUSH0 PUSH1 0x20 DUP5 ADD RETURNDATACOPY PUSH2 0x2672 JUMP JUMPDEST PUSH1 0x60 SWAP2 POP JUMPDEST POP SWAP2 POP SWAP2 POP PUSH2 0xA85 DUP8 DUP4 DUP4 DUP8 PUSH1 0x60 DUP4 ISZERO PUSH2 0x26EC JUMPI DUP3 MLOAD PUSH0 SUB PUSH2 0x26E5 JUMPI PUSH1 0x1 PUSH1 0x1 PUSH1 0xA0 SHL SUB DUP6 AND EXTCODESIZE PUSH2 0x26E5 JUMPI PUSH1 0x40 MLOAD PUSH3 0x461BCD PUSH1 0xE5 SHL DUP2 MSTORE PUSH1 0x20 PUSH1 0x4 DUP3 ADD MSTORE PUSH1 0x1D PUSH1 0x24 DUP3 ADD MSTORE PUSH32 0x416464726573733A2063616C6C20746F206E6F6E2D636F6E7472616374000000 PUSH1 0x44 DUP3 ADD MSTORE PUSH1 0x64 ADD PUSH2 0x5A1 JUMP JUMPDEST POP DUP2 PUSH2 0x25AF JUMP JUMPDEST PUSH2 0x25AF DUP4 DUP4 DUP2 MLOAD ISZERO PUSH2 0x2701 JUMPI DUP2 MLOAD DUP1 DUP4 PUSH1 0x20 ADD REVERT JUMPDEST DUP1 PUSH1 0x40 MLOAD PUSH3 0x461BCD PUSH1 0xE5 SHL DUP2 MSTORE PUSH1 0x4 ADD PUSH2 0x5A1 SWAP2 SWAP1 PUSH2 0x2BAB JUMP JUMPDEST PUSH1 0x1 PUSH1 0x1 PUSH1 0xA0 SHL SUB DUP2 AND DUP2 EQ PUSH2 0x272F JUMPI PUSH0 DUP1 REVERT JUMPDEST POP JUMP JUMPDEST PUSH0 PUSH1 0x20 DUP3 DUP5 SUB SLT ISZERO PUSH2 0x2742 JUMPI PUSH0 DUP1 REVERT JUMPDEST DUP2 CALLDATALOAD PUSH2 0x1C7D DUP2 PUSH2 0x271B JUMP JUMPDEST PUSH0 DUP1 PUSH1 0x40 DUP4 DUP6 SUB SLT ISZERO PUSH2 0x275E JUMPI PUSH0 DUP1 REVERT JUMPDEST POP POP DUP1 CALLDATALOAD SWAP3 PUSH1 0x20 SWAP1 SWAP2 ADD CALLDATALOAD SWAP2 POP JUMP JUMPDEST PUSH0 DUP1 PUSH0 DUP1 PUSH0 PUSH1 0x80 DUP7 DUP9 SUB SLT ISZERO PUSH2 0x2781 JUMPI PUSH0 DUP1 REVERT JUMPDEST DUP6 CALLDATALOAD SWAP5 POP PUSH1 0x20 DUP7 ADD CALLDATALOAD PUSH2 0x2793 DUP2 PUSH2 0x271B JUMP JUMPDEST SWAP4 POP PUSH1 0x40 DUP7 ADD CALLDATALOAD SWAP3 POP PUSH1 0x60 DUP7 ADD CALLDATALOAD PUSH8 0xFFFFFFFFFFFFFFFF DUP1 DUP3 GT ISZERO PUSH2 0x27B6 JUMPI PUSH0 DUP1 REVERT JUMPDEST DUP2 DUP9 ADD SWAP2 POP DUP9 PUSH1 0x1F DUP4 ADD SLT PUSH2 0x27C9 JUMPI PUSH0 DUP1 REVERT JUMPDEST DUP2 CALLDATALOAD DUP2 DUP2 GT ISZERO PUSH2 0x27D7 JUMPI PUSH0 DUP1 REVERT JUMPDEST DUP10 PUSH1 0x20 DUP3 DUP6 ADD ADD GT ISZERO PUSH2 0x27E8 JUMPI PUSH0 DUP1 REVERT JUMPDEST SWAP7 SWAP10 SWAP6 SWAP9 POP SWAP4 SWAP7 POP PUSH1 0x20 ADD SWAP5 SWAP4 SWAP3 POP POP POP JUMP JUMPDEST PUSH0 DUP1 PUSH0 PUSH1 0x60 DUP5 DUP7 SUB SLT ISZERO PUSH2 0x280D JUMPI PUSH0 DUP1 REVERT JUMPDEST DUP4 CALLDATALOAD SWAP3 POP PUSH1 0x20 DUP5 ADD CALLDATALOAD SWAP2 POP PUSH1 0x40 DUP5 ADD CALLDATALOAD PUSH2 0x2826 DUP2 PUSH2 0x271B JUMP JUMPDEST DUP1 SWAP2 POP POP SWAP3 POP SWAP3 POP SWAP3 JUMP JUMPDEST PUSH0 PUSH1 0x20 DUP3 DUP5 SUB SLT ISZERO PUSH2 0x2841 JUMPI PUSH0 DUP1 REVERT JUMPDEST POP CALLDATALOAD SWAP2 SWAP1 POP JUMP JUMPDEST PUSH0 DUP1 PUSH1 0x40 DUP4 DUP6 SUB SLT ISZERO PUSH2 0x2859 JUMPI PUSH0 DUP1 REVERT JUMPDEST DUP3 CALLDATALOAD PUSH2 0x2864 DUP2 PUSH2 0x271B JUMP JUMPDEST SWAP5 PUSH1 0x20 SWAP4 SWAP1 SWAP4 ADD CALLDATALOAD SWAP4 POP POP POP JUMP JUMPDEST PUSH0 DUP1 PUSH1 0x40 DUP4 DUP6 SUB SLT ISZERO PUSH2 0x2883 JUMPI PUSH0 DUP1 REVERT JUMPDEST DUP3 CALLDATALOAD SWAP2 POP PUSH1 0x20 DUP4 ADD CALLDATALOAD PUSH2 0x2895 DUP2 PUSH2 0x271B JUMP JUMPDEST DUP1 SWAP2 POP POP SWAP3 POP SWAP3 SWAP1 POP JUMP JUMPDEST PUSH0 PUSH1 0x20 DUP3 DUP5 SUB SLT ISZERO PUSH2 0x28B0 JUMPI PUSH0 DUP1 REVERT JUMPDEST DUP2 MLOAD PUSH2 0x1C7D DUP2 PUSH2 0x271B JUMP JUMPDEST PUSH1 0x20 DUP1 DUP3 MSTORE PUSH1 0xE SWAP1 DUP3 ADD MSTORE PUSH14 0x24B73B30B634B21031B0B63632B9 PUSH1 0x91 SHL PUSH1 0x40 DUP3 ADD MSTORE PUSH1 0x60 ADD SWAP1 JUMP JUMPDEST PUSH1 0x20 DUP1 DUP3 MSTORE PUSH1 0x12 SWAP1 DUP3 ADD MSTORE PUSH18 0x141BDBDB08191BD95CDB89DD08195E1A5CDD PUSH1 0x72 SHL PUSH1 0x40 DUP3 ADD MSTORE PUSH1 0x60 ADD SWAP1 JUMP JUMPDEST PUSH1 0x20 DUP1 DUP3 MSTORE PUSH1 0xC SWAP1 DUP3 ADD MSTORE PUSH12 0x125B1B1959D85B0818D85B1B PUSH1 0xA2 SHL PUSH1 0x40 DUP3 ADD MSTORE PUSH1 0x60 ADD SWAP1 JUMP JUMPDEST PUSH4 0x4E487B71 PUSH1 0xE0 SHL PUSH0 MSTORE PUSH1 0x32 PUSH1 0x4 MSTORE PUSH1 0x24 PUSH0 REVERT JUMPDEST PUSH0 PUSH1 0x20 DUP3 DUP5 SUB SLT ISZERO PUSH2 0x2959 JUMPI PUSH0 DUP1 REVERT JUMPDEST POP MLOAD SWAP2 SWAP1 POP JUMP JUMPDEST DUP2 DUP2 SUB DUP2 DUP2 GT ISZERO PUSH2 0x1C80 JUMPI PUSH4 0x4E487B71 PUSH1 0xE0 SHL PUSH0 MSTORE PUSH1 0x11 PUSH1 0x4 MSTORE PUSH1 0x24 PUSH0 REVERT JUMPDEST PUSH1 0x40 MLOAD PUSH2 0x100 DUP2 ADD PUSH8 0xFFFFFFFFFFFFFFFF DUP2 GT DUP3 DUP3 LT OR ISZERO PUSH2 0x29AF JUMPI PUSH4 0x4E487B71 PUSH1 0xE0 SHL PUSH0 MSTORE PUSH1 0x41 PUSH1 0x4 MSTORE PUSH1 0x24 PUSH0 REVERT JUMPDEST PUSH1 0x40 MSTORE SWAP1 JUMP JUMPDEST PUSH0 PUSH1 0x80 DUP3 DUP5 SUB SLT ISZERO PUSH2 0x29C5 JUMPI PUSH0 DUP1 REVERT JUMPDEST PUSH1 0x40 MLOAD PUSH1 0x80 DUP2 ADD DUP2 DUP2 LT PUSH8 0xFFFFFFFFFFFFFFFF DUP3 GT OR ISZERO PUSH2 0x29F4 JUMPI PUSH4 0x4E487B71 PUSH1 0xE0 SHL PUSH0 MSTORE PUSH1 0x41 PUSH1 0x4 MSTORE PUSH1 0x24 PUSH0 REVERT JUMPDEST PUSH1 0x40 MSTORE DUP3 MLOAD PUSH2 0x2A02 DUP2 PUSH2 0x271B JUMP JUMPDEST DUP1 DUP3 MSTORE POP PUSH1 0x20 DUP4 ADD MLOAD PUSH1 0x20 DUP3 ADD MSTORE PUSH1 0x40 DUP4 ADD MLOAD PUSH1 0x40 DUP3 ADD MSTORE PUSH1 0x60 DUP4 ADD MLOAD PUSH1 0x60 DUP3 ADD MSTORE DUP1 SWAP2 POP POP SWAP3 SWAP2 POP POP JUMP JUMPDEST DUP1 MLOAD DUP1 ISZERO ISZERO DUP2 EQ PUSH2 0x2A3D JUMPI PUSH0 DUP1 REVERT JUMPDEST SWAP2 SWAP1 POP JUMP JUMPDEST PUSH0 PUSH1 0x60 DUP3 DUP5 SUB SLT ISZERO PUSH2 0x2A52 JUMPI PUSH0 DUP1 REVERT JUMPDEST PUSH1 0x40 MLOAD PUSH1 0x60 DUP2 ADD DUP2 DUP2 LT PUSH8 0xFFFFFFFFFFFFFFFF DUP3 GT OR ISZERO PUSH2 0x2A81 JUMPI PUSH4 0x4E487B71 PUSH1 0xE0 SHL PUSH0 MSTORE PUSH1 0x41 PUSH1 0x4 MSTORE PUSH1 0x24 PUSH0 REVERT JUMPDEST DUP1 PUSH1 0x40 MSTORE POP DUP1 SWAP2 POP DUP3 MLOAD PUSH2 0x2A94 DUP2 PUSH2 0x271B JUMP JUMPDEST DUP2 MSTORE PUSH1 0x20 DUP4 DUP2 ADD MLOAD SWAP1 DUP3 ADD MSTORE PUSH2 0x2AAC PUSH1 0x40 DUP5 ADD PUSH2 0x2A2E JUMP JUMPDEST PUSH1 0x40 DUP3 ADD MSTORE POP SWAP3 SWAP2 POP POP JUMP JUMPDEST PUSH0 PUSH2 0x1C0 DUP3 DUP5 SUB SLT ISZERO PUSH2 0x2AC9 JUMPI PUSH0 DUP1 REVERT JUMPDEST PUSH2 0x2AD1 PUSH2 0x297F JUMP JUMPDEST PUSH2 0x2ADB DUP5 DUP5 PUSH2 0x2A42 JUMP JUMPDEST DUP2 MSTORE PUSH2 0x2AEA DUP5 PUSH1 0x60 DUP6 ADD PUSH2 0x2A42 JUMP JUMPDEST PUSH1 0x20 DUP3 ADD MSTORE PUSH2 0x2AFC DUP5 PUSH1 0xC0 DUP6 ADD PUSH2 0x2A42 JUMP JUMPDEST PUSH1 0x40 DUP3 ADD MSTORE PUSH2 0x2B0E PUSH2 0x120 DUP5 ADD PUSH2 0x2A2E JUMP JUMPDEST PUSH1 0x60 DUP3 ADD MSTORE PUSH2 0x140 DUP4 ADD MLOAD PUSH1 0x80 DUP3 ADD MSTORE PUSH2 0x160 DUP4 ADD MLOAD PUSH1 0xA0 DUP3 ADD MSTORE PUSH2 0x180 DUP4 ADD MLOAD PUSH1 0xC0 DUP3 ADD MSTORE PUSH2 0x1A0 SWAP1 SWAP3 ADD MLOAD PUSH1 0xE0 DUP4 ADD MSTORE POP SWAP2 SWAP1 POP JUMP JUMPDEST DUP2 DUP4 DUP3 CALLDATACOPY PUSH0 SWAP2 ADD SWAP1 DUP2 MSTORE SWAP2 SWAP1 POP JUMP JUMPDEST PUSH0 PUSH1 0x20 DUP3 DUP5 SUB SLT ISZERO PUSH2 0x2B65 JUMPI PUSH0 DUP1 REVERT JUMPDEST PUSH2 0x1C7D DUP3 PUSH2 0x2A2E JUMP JUMPDEST PUSH0 JUMPDEST DUP4 DUP2 LT ISZERO PUSH2 0x2B88 JUMPI DUP2 DUP2 ADD MLOAD DUP4 DUP3 ADD MSTORE PUSH1 0x20 ADD PUSH2 0x2B70 JUMP JUMPDEST POP POP PUSH0 SWAP2 ADD MSTORE JUMP JUMPDEST PUSH0 DUP3 MLOAD PUSH2 0x2BA1 DUP2 DUP5 PUSH1 0x20 DUP8 ADD PUSH2 0x2B6E JUMP JUMPDEST SWAP2 SWAP1 SWAP2 ADD SWAP3 SWAP2 POP POP JUMP JUMPDEST PUSH1 0x20 DUP2 MSTORE PUSH0 DUP3 MLOAD DUP1 PUSH1 0x20 DUP5 ADD MSTORE PUSH2 0x2BC9 DUP2 PUSH1 0x40 DUP6 ADD PUSH1 0x20 DUP8 ADD PUSH2 0x2B6E JUMP JUMPDEST PUSH1 0x1F ADD PUSH1 0x1F NOT AND SWAP2 SWAP1 SWAP2 ADD PUSH1 0x40 ADD SWAP3 SWAP2 POP POP JUMP INVALID LOG2 PUSH5 0x6970667358 0x22 SLT KECCAK256 0xA7 0x4C 0xD7 EQ RETURNDATACOPY 0xBB 0x2D DUP12 0x1E LOG0 BYTE 0xCF SELFBALANCE 0xD1 0xD3 MUL MLOAD 0xC8 RETURNDATACOPY CHAINID BYTE STOP 0xE STOP RETURN LOG1 0xE9 LOG0 0xB9 0xE7 0x2F PUSH21 0x64736F6C6343000815003300000000000000000000 "
				},
				"gasEstimates": {
					"creation": {
						"codeDepositCost": "2256600",
						"executionCost": "2410",
						"totalCost": "2259010"
					},
					"external": {
						"": "207",
						"addPool(address)": "infinite",
						"allowedPool(address)": "2592",
						"changeAggregatorAddress(address)": "infinite",
						"changeRegistryContractAddr(address)": "infinite",
						"claimReward(uint256)": "infinite",
						"deposit(uint256,uint256)": "infinite",
						"getMinToDeposit(uint256)": "infinite",
						"getPoolCurrentYield(uint256)": "infinite",
						"getPoolDetails(uint256)": "infinite",
						"getPoolDrawInfo(uint256,uint256)": "infinite",
						"getPoolLatestEpoch(uint256)": "infinite",
						"getPoolLength()": "2325",
						"getPoolTVL(uint256)": "infinite",
						"getRewardClaimable(address,uint256)": "infinite",
						"getUserDepositInfo(uint256,address)": "infinite",
						"getUserTicketAmountByPoolID(uint256,uint256,address)": "infinite",
						"initialize(address)": "51064",
						"isPoolAllowed(address)": "2655",
						"removePool(uint256)": "infinite",
						"withdraw(uint256,uint256)": "infinite",
						"zap(uint256,address,uint256,bytes)": "infinite"
					},
					"internal": {
						"_approveToPool(address,address,uint256)": "infinite",
						"_performSwap(address,uint256,bytes calldata)": "infinite",
						"_processClaimReward(address,address)": "infinite",
						"_processDeposit(address,address,uint256)": "infinite",
						"_processTransferBacktoUser(address,address,uint256)": "infinite",
						"_processWithdraw(address,address,uint256)": "infinite",
						"_transferRegistryAddr(address)": "24278",
						"depositToPool(address,address,address,uint256)": "infinite",
						"getTokenFromUser(address,uint256)": "infinite",
						"performSwap(address,address,uint256,bytes calldata)": "infinite",
						"withdrawFromPool(address,address,address,uint256)": "infinite"
					}
				},
				"methodIdentifiers": {
					"addPool(address)": "d914cd4b",
					"allowedPool(address)": "f50a9351",
					"changeAggregatorAddress(address)": "3e7eae7f",
					"changeRegistryContractAddr(address)": "fa7c828a",
					"claimReward(uint256)": "ae169a50",
					"deposit(uint256,uint256)": "e2bbb158",
					"getMinToDeposit(uint256)": "5f311150",
					"getPoolCurrentYield(uint256)": "60ab49ea",
					"getPoolDetails(uint256)": "b8764c39",
					"getPoolDrawInfo(uint256,uint256)": "fdc9ccfa",
					"getPoolLatestEpoch(uint256)": "5922f9c9",
					"getPoolLength()": "b3944d52",
					"getPoolTVL(uint256)": "8f244630",
					"getRewardClaimable(address,uint256)": "888d7bdd",
					"getUserDepositInfo(uint256,address)": "fac4348b",
					"getUserTicketAmountByPoolID(uint256,uint256,address)": "57ba8dde",
					"initialize(address)": "c4d66de8",
					"isPoolAllowed(address)": "d1e71c94",
					"removePool(uint256)": "a38dcbd0",
					"withdraw(uint256,uint256)": "441a3e70",
					"zap(uint256,address,uint256,bytes)": "4d5d336e"
				}
			},
			"storageLayout": {
				"storage": [
					{
						"astId": 1602,
						"contract": "RouterInterface.sol:Router",
						"label": "status",
						"offset": 0,
						"slot": "0",
						"type": "t_uint256"
					},
					{
						"astId": 1611,
						"contract": "RouterInterface.sol:Router",
						"label": "PoolDetail",
						"offset": 0,
						"slot": "1",
						"type": "t_array(t_struct(_PoolDetails)1607_storage)dyn_storage"
					},
					{
						"astId": 1613,
						"contract": "RouterInterface.sol:Router",
						"label": "registryContract",
						"offset": 0,
						"slot": "2",
						"type": "t_address"
					},
					{
						"astId": 1615,
						"contract": "RouterInterface.sol:Router",
						"label": "initialized",
						"offset": 20,
						"slot": "2",
						"type": "t_bool"
					},
					{
						"astId": 1617,
						"contract": "RouterInterface.sol:Router",
						"label": "KyberAggregator",
						"offset": 0,
						"slot": "3",
						"type": "t_address"
					},
					{
						"astId": 1621,
						"contract": "RouterInterface.sol:Router",
						"label": "allowedPool",
						"offset": 0,
						"slot": "4",
						"type": "t_mapping(t_address,t_bool)"
					}
				],
				"types": {
					"t_address": {
						"encoding": "inplace",
						"label": "address",
						"numberOfBytes": "20"
					},
					"t_array(t_struct(_PoolDetails)1607_storage)dyn_storage": {
						"base": "t_struct(_PoolDetails)1607_storage",
						"encoding": "dynamic_array",
						"label": "struct Router._PoolDetails[]",
						"numberOfBytes": "32"
					},
					"t_bool": {
						"encoding": "inplace",
						"label": "bool",
						"numberOfBytes": "1"
					},
					"t_mapping(t_address,t_bool)": {
						"encoding": "mapping",
						"key": "t_address",
						"label": "mapping(address => bool)",
						"numberOfBytes": "32",
						"value": "t_bool"
					},
					"t_struct(_PoolDetails)1607_storage": {
						"encoding": "inplace",
						"label": "struct Router._PoolDetails",
						"members": [
							{
								"astId": 1604,
								"contract": "RouterInterface.sol:Router",
								"label": "PoolAddress",
								"offset": 0,
								"slot": "0",
								"type": "t_address"
							},
							{
								"astId": 1606,
								"contract": "RouterInterface.sol:Router",
								"label": "PoolTokenToUse",
								"offset": 0,
								"slot": "1",
								"type": "t_address"
							}
						],
						"numberOfBytes": "64"
					},
					"t_uint256": {
						"encoding": "inplace",
						"label": "uint256",
						"numberOfBytes": "32"
					}
				}
			},
			"userdoc": {
				"kind": "user",
				"methods": {},
				"version": 1
			}
		}
	}
}