{
	"ContractDeploymentFactory.sol": {
		"ContractDeploymentFactory": {
			"abi": [
				{
					"inputs": [
						{
							"internalType": "address",
							"name": "owner",
							"type": "address"
						}
					],
					"stateMutability": "nonpayable",
					"type": "constructor"
				},
				{
					"anonymous": false,
					"inputs": [
						{
							"indexed": false,
							"internalType": "address",
							"name": "addressContract",
							"type": "address"
						},
						{
							"indexed": false,
							"internalType": "uint256",
							"name": "salt",
							"type": "uint256"
						}
					],
					"name": "Deployed",
					"type": "event"
				},
				{
					"inputs": [
						{
							"internalType": "bytes",
							"name": "bytecode",
							"type": "bytes"
						},
						{
							"internalType": "uint256",
							"name": "_salt",
							"type": "uint256"
						},
						{
							"internalType": "bytes",
							"name": "initData",
							"type": "bytes"
						}
					],
					"name": "deploy",
					"outputs": [],
					"stateMutability": "payable",
					"type": "function"
				},
				{
					"inputs": [
						{
							"internalType": "address",
							"name": "_logic",
							"type": "address"
						},
						{
							"internalType": "address",
							"name": "_admin",
							"type": "address"
						},
						{
							"internalType": "bytes",
							"name": "optionalData",
							"type": "bytes"
						}
					],
					"name": "getBytecode",
					"outputs": [
						{
							"internalType": "bytes",
							"name": "",
							"type": "bytes"
						}
					],
					"stateMutability": "view",
					"type": "function"
				},
				{
					"inputs": [],
					"name": "getOwner",
					"outputs": [
						{
							"internalType": "address",
							"name": "",
							"type": "address"
						}
					],
					"stateMutability": "view",
					"type": "function"
				}
			],
			"devdoc": {
				"kind": "dev",
				"methods": {},
				"version": 1
			},
			"evm": {
				"assembly": "    /* \"ContractDeploymentFactory.sol\":147:1486  contract ContractDeploymentFactory{... */\n  mstore(0x40, 0x80)\n    /* \"ContractDeploymentFactory.sol\":244:319  constructor(address owner) public{... */\n  callvalue\n  dup1\n  iszero\n  tag_1\n  jumpi\n  0x00\n  dup1\n  revert\ntag_1:\n  pop\n  mload(0x40)\n  sub(codesize, bytecodeSize)\n  dup1\n  bytecodeSize\n  dup4\n  codecopy\n  dup2\n  add\n  0x40\n  dup2\n  swap1\n  mstore\n  tag_2\n  swap2\n  tag_3\n  jump\t// in\ntag_2:\n    /* \"ContractDeploymentFactory.sol\":1084:1089  owner */\n  0x00\n    /* \"ContractDeploymentFactory.sol\":1084:1100  owner = newOwner */\n  dup1\n  sload\n  not(sub(shl(0xa0, 0x01), 0x01))\n  and\n  sub(shl(0xa0, 0x01), 0x01)\n  dup4\n  and\n  or\n  swap1\n  sstore\n    /* \"ContractDeploymentFactory.sol\":244:319  constructor(address owner) public{... */\n  pop\n    /* \"ContractDeploymentFactory.sol\":147:1486  contract ContractDeploymentFactory{... */\n  jump(tag_10)\n    /* \"#utility.yul\":14:304   */\ntag_3:\n    /* \"#utility.yul\":84:90   */\n  0x00\n    /* \"#utility.yul\":137:139   */\n  0x20\n    /* \"#utility.yul\":125:134   */\n  dup3\n    /* \"#utility.yul\":116:123   */\n  dup5\n    /* \"#utility.yul\":112:135   */\n  sub\n    /* \"#utility.yul\":108:140   */\n  slt\n    /* \"#utility.yul\":105:157   */\n  iszero\n  tag_12\n  jumpi\n    /* \"#utility.yul\":153:154   */\n  0x00\n    /* \"#utility.yul\":150:151   */\n  dup1\n    /* \"#utility.yul\":143:155   */\n  revert\n    /* \"#utility.yul\":105:157   */\ntag_12:\n    /* \"#utility.yul\":179:195   */\n  dup2\n  mload\n  sub(shl(0xa0, 0x01), 0x01)\n    /* \"#utility.yul\":224:255   */\n  dup2\n  and\n    /* \"#utility.yul\":214:256   */\n  dup2\n  eq\n    /* \"#utility.yul\":204:274   */\n  tag_13\n  jumpi\n    /* \"#utility.yul\":270:271   */\n  0x00\n    /* \"#utility.yul\":267:268   */\n  dup1\n    /* \"#utility.yul\":260:272   */\n  revert\n    /* \"#utility.yul\":204:274   */\ntag_13:\n    /* \"#utility.yul\":293:298   */\n  swap4\n    /* \"#utility.yul\":14:304   */\n  swap3\n  pop\n  pop\n  pop\n  jump\t// out\ntag_10:\n    /* \"ContractDeploymentFactory.sol\":147:1486  contract ContractDeploymentFactory{... */\n  dataSize(sub_0)\n  dup1\n  dataOffset(sub_0)\n  0x00\n  codecopy\n  0x00\n  return\nstop\n\nsub_0: assembly {\n        /* \"ContractDeploymentFactory.sol\":147:1486  contract ContractDeploymentFactory{... */\n      mstore(0x40, 0x80)\n      jumpi(tag_1, lt(calldatasize, 0x04))\n      shr(0xe0, calldataload(0x00))\n      dup1\n      0x3a69475a\n      eq\n      tag_2\n      jumpi\n      dup1\n      0x893d20e8\n      eq\n      tag_3\n      jumpi\n      dup1\n      0xe22c6b44\n      eq\n      tag_4\n      jumpi\n    tag_1:\n      0x00\n      dup1\n      revert\n        /* \"ContractDeploymentFactory.sol\":449:1014  function deploy(bytes memory bytecode, uint _salt, bytes calldata initData) public onlyOwner payable {... */\n    tag_2:\n      tag_5\n      tag_6\n      calldatasize\n      0x04\n      tag_7\n      jump\t// in\n    tag_6:\n      tag_8\n      jump\t// in\n    tag_5:\n      stop\n        /* \"ContractDeploymentFactory.sol\":1113:1192  function getOwner() external view returns(address){... */\n    tag_3:\n      callvalue\n      dup1\n      iszero\n      tag_9\n      jumpi\n      0x00\n      dup1\n      revert\n    tag_9:\n      pop\n        /* \"ContractDeploymentFactory.sol\":1155:1162  address */\n      0x00\n        /* \"ContractDeploymentFactory.sol\":1180:1185  owner */\n      sload\n        /* \"ContractDeploymentFactory.sol\":1113:1192  function getOwner() external view returns(address){... */\n      mload(0x40)\n      sub(shl(0xa0, 0x01), 0x01)\n        /* \"ContractDeploymentFactory.sol\":1180:1185  owner */\n      swap1\n      swap2\n      and\n        /* \"#utility.yul\":1877:1928   */\n      dup2\n      mstore\n        /* \"#utility.yul\":1865:1867   */\n      0x20\n        /* \"#utility.yul\":1850:1868   */\n      add\n        /* \"ContractDeploymentFactory.sol\":1113:1192  function getOwner() external view returns(address){... */\n    tag_12:\n      mload(0x40)\n      dup1\n      swap2\n      sub\n      swap1\n      return\n        /* \"ContractDeploymentFactory.sol\":1198:1484  function getBytecode(address _logic, address _admin, bytes memory optionalData) external view returns(bytes memory){... */\n    tag_4:\n      callvalue\n      dup1\n      iszero\n      tag_14\n      jumpi\n      0x00\n      dup1\n      revert\n    tag_14:\n      pop\n      tag_15\n      tag_16\n      calldatasize\n      0x04\n      tag_17\n      jump\t// in\n    tag_16:\n      tag_18\n      jump\t// in\n    tag_15:\n      mload(0x40)\n      tag_12\n      swap2\n      swap1\n      tag_20\n      jump\t// in\n        /* \"ContractDeploymentFactory.sol\":449:1014  function deploy(bytes memory bytecode, uint _salt, bytes calldata initData) public onlyOwner payable {... */\n    tag_8:\n        /* \"ContractDeploymentFactory.sol\":397:402  owner */\n      and(sub(shl(0xa0, 0x01), 0x01), sload(0x00))\n        /* \"ContractDeploymentFactory.sol\":383:393  msg.sender */\n      caller\n        /* \"ContractDeploymentFactory.sol\":383:402  msg.sender == owner */\n      eq\n        /* \"ContractDeploymentFactory.sol\":375:421  require(msg.sender == owner, \"Invalid caller\") */\n      tag_22\n      jumpi\n      mload(0x40)\n      shl(0xe5, 0x461bcd)\n      dup2\n      mstore\n        /* \"#utility.yul\":3544:3546   */\n      0x20\n        /* \"ContractDeploymentFactory.sol\":375:421  require(msg.sender == owner, \"Invalid caller\") */\n      0x04\n      dup3\n      add\n        /* \"#utility.yul\":3526:3547   */\n      mstore\n        /* \"#utility.yul\":3583:3585   */\n      0x0e\n        /* \"#utility.yul\":3563:3581   */\n      0x24\n      dup3\n      add\n        /* \"#utility.yul\":3556:3586   */\n      mstore\n      shl(0x91, 0x24b73b30b634b21031b0b63632b9)\n        /* \"#utility.yul\":3602:3620   */\n      0x44\n      dup3\n      add\n        /* \"#utility.yul\":3595:3639   */\n      mstore\n        /* \"#utility.yul\":3656:3674   */\n      0x64\n      add\n        /* \"ContractDeploymentFactory.sol\":375:421  require(msg.sender == owner, \"Invalid caller\") */\n      mload(0x40)\n      dup1\n      swap2\n      sub\n      swap1\n      revert\n    tag_22:\n        /* \"ContractDeploymentFactory.sol\":560:572  address addr */\n      0x00\n        /* \"ContractDeploymentFactory.sol\":781:786  _salt */\n      dup4\n        /* \"ContractDeploymentFactory.sol\":753:761  bytecode */\n      dup6\n        /* \"ContractDeploymentFactory.sol\":747:762  mload(bytecode) */\n      mload\n        /* \"ContractDeploymentFactory.sol\":724:728  0x20 */\n      0x20\n        /* \"ContractDeploymentFactory.sol\":714:722  bytecode */\n      dup8\n        /* \"ContractDeploymentFactory.sol\":710:729  add(bytecode, 0x20) */\n      add\n        /* \"ContractDeploymentFactory.sol\":681:692  callvalue() */\n      callvalue\n        /* \"ContractDeploymentFactory.sol\":656:800  create2(... */\n      create2\n        /* \"ContractDeploymentFactory.sol\":648:800  addr := create2(... */\n      swap1\n      pop\n        /* \"ContractDeploymentFactory.sol\":836:840  addr */\n      dup1\n        /* \"ContractDeploymentFactory.sol\":824:841  extcodesize(addr) */\n      extcodesize\n        /* \"ContractDeploymentFactory.sol\":814:887  if iszero(extcodesize(addr)) {... */\n      tag_26\n      jumpi\n        /* \"ContractDeploymentFactory.sol\":871:872  0 */\n      0x00\n        /* \"ContractDeploymentFactory.sol\":868:869  0 */\n      dup1\n        /* \"ContractDeploymentFactory.sol\":861:873  revert(0, 0) */\n      revert\n        /* \"ContractDeploymentFactory.sol\":814:887  if iszero(extcodesize(addr)) {... */\n    tag_26:\n        /* \"ContractDeploymentFactory.sol\":912:933  Deployed(addr, _salt) */\n      0x40\n      dup1\n      mload\n      sub(shl(0xa0, 0x01), 0x01)\n        /* \"#utility.yul\":3877:3909   */\n      dup4\n      and\n        /* \"#utility.yul\":3859:3910   */\n      dup2\n      mstore\n        /* \"#utility.yul\":3941:3943   */\n      0x20\n        /* \"#utility.yul\":3926:3944   */\n      dup2\n      add\n        /* \"#utility.yul\":3919:3953   */\n      dup7\n      swap1\n      mstore\n        /* \"ContractDeploymentFactory.sol\":912:933  Deployed(addr, _salt) */\n      0xb03c53b28e78a88e31607a27e1fa48234dce28d5d9d9ec7b295aeb02e674a1e1\n      swap2\n        /* \"#utility.yul\":3832:3850   */\n      add\n        /* \"ContractDeploymentFactory.sol\":912:933  Deployed(addr, _salt) */\n      mload(0x40)\n      dup1\n      swap2\n      sub\n      swap1\n      log1\n        /* \"ContractDeploymentFactory.sol\":944:956  bool success */\n      0x00\n        /* \"ContractDeploymentFactory.sol\":962:966  addr */\n      dup2\n      sub(shl(0xa0, 0x01), 0x01)\n        /* \"ContractDeploymentFactory.sol\":962:971  addr.call */\n      and\n        /* \"ContractDeploymentFactory.sol\":972:980  initData */\n      dup5\n      dup5\n        /* \"ContractDeploymentFactory.sol\":962:981  addr.call(initData) */\n      mload(0x40)\n      tag_29\n      swap3\n      swap2\n      swap1\n      tag_30\n      jump\t// in\n    tag_29:\n      0x00\n      mload(0x40)\n      dup1\n      dup4\n      sub\n      dup2\n      0x00\n      dup7\n      gas\n      call\n      swap2\n      pop\n      pop\n      returndatasize\n      dup1\n      0x00\n      dup2\n      eq\n      tag_33\n      jumpi\n      mload(0x40)\n      swap2\n      pop\n      and(add(returndatasize, 0x3f), not(0x1f))\n      dup3\n      add\n      0x40\n      mstore\n      returndatasize\n      dup3\n      mstore\n      returndatasize\n      0x00\n      0x20\n      dup5\n      add\n      returndatacopy\n      jump(tag_32)\n    tag_33:\n      0x60\n      swap2\n      pop\n    tag_32:\n      pop\n        /* \"ContractDeploymentFactory.sol\":943:981  (bool success, ) = addr.call(initData) */\n      pop\n      swap1\n      pop\n        /* \"ContractDeploymentFactory.sol\":999:1006  success */\n      dup1\n        /* \"ContractDeploymentFactory.sol\":991:1007  require(success) */\n      tag_34\n      jumpi\n      0x00\n      dup1\n      revert\n    tag_34:\n        /* \"ContractDeploymentFactory.sol\":550:1014  {... */\n      pop\n      pop\n        /* \"ContractDeploymentFactory.sol\":449:1014  function deploy(bytes memory bytecode, uint _salt, bytes calldata initData) public onlyOwner payable {... */\n      pop\n      pop\n      pop\n      pop\n      jump\t// out\n        /* \"ContractDeploymentFactory.sol\":1198:1484  function getBytecode(address _logic, address _admin, bytes memory optionalData) external view returns(bytes memory){... */\n    tag_18:\n        /* \"ContractDeploymentFactory.sol\":1300:1312  bytes memory */\n      0x60\n        /* \"ContractDeploymentFactory.sol\":1323:1344  bytes memory bytecode */\n      0x00\n        /* \"ContractDeploymentFactory.sol\":1347:1393  type(TransparentUpgradeableProxy).creationCode */\n      mload(0x40)\n      dup1\n      0x20\n      add\n      tag_37\n      swap1\n      tag_38\n      jump\t// in\n    tag_37:\n      0x20\n      dup3\n      add\n      dup2\n      sub\n      dup3\n      mstore\n      not(0x1f)\n      0x1f\n      dup3\n      add\n      and\n      0x40\n      mstore\n      pop\n        /* \"ContractDeploymentFactory.sol\":1323:1393  bytes memory bytecode = type(TransparentUpgradeableProxy).creationCode */\n      swap1\n      pop\n        /* \"ContractDeploymentFactory.sol\":1427:1435  bytecode */\n      dup1\n        /* \"ContractDeploymentFactory.sol\":1448:1454  _logic */\n      dup6\n        /* \"ContractDeploymentFactory.sol\":1456:1462  _admin */\n      dup6\n        /* \"ContractDeploymentFactory.sol\":1463:1475  optionalData */\n      dup6\n        /* \"ContractDeploymentFactory.sol\":1437:1476  abi.encode(_logic, _admin,optionalData) */\n      add(0x20, mload(0x40))\n      tag_39\n      swap4\n      swap3\n      swap2\n      swap1\n      tag_40\n      jump\t// in\n    tag_39:\n      0x40\n      dup1\n      mload\n      not(0x1f)\n      dup2\n      dup5\n      sub\n      add\n      dup2\n      mstore\n      swap1\n      dup3\n      swap1\n      mstore\n        /* \"ContractDeploymentFactory.sol\":1410:1477  abi.encodePacked(bytecode, abi.encode(_logic, _admin,optionalData)) */\n      tag_41\n      swap3\n      swap2\n        /* \"ContractDeploymentFactory.sol\":1437:1476  abi.encode(_logic, _admin,optionalData) */\n      0x20\n        /* \"ContractDeploymentFactory.sol\":1410:1477  abi.encodePacked(bytecode, abi.encode(_logic, _admin,optionalData)) */\n      add\n      tag_42\n      jump\t// in\n    tag_41:\n      mload(0x40)\n      0x20\n      dup2\n      dup4\n      sub\n      sub\n      dup2\n      mstore\n      swap1\n      0x40\n      mstore\n        /* \"ContractDeploymentFactory.sol\":1403:1477  return abi.encodePacked(bytecode, abi.encode(_logic, _admin,optionalData)) */\n      swap2\n      pop\n      pop\n        /* \"ContractDeploymentFactory.sol\":1198:1484  function getBytecode(address _logic, address _admin, bytes memory optionalData) external view returns(bytes memory){... */\n      swap4\n      swap3\n      pop\n      pop\n      pop\n      jump\t// out\n    tag_38:\n      dataSize(sub_0)\n      dup1\n      dataOffset(sub_0)\n      dup4\n      codecopy\n      add\n      swap1\n      jump\t// out\n        /* \"#utility.yul\":14:141   */\n    tag_43:\n        /* \"#utility.yul\":75:85   */\n      0x4e487b71\n        /* \"#utility.yul\":70:73   */\n      0xe0\n        /* \"#utility.yul\":66:86   */\n      shl\n        /* \"#utility.yul\":63:64   */\n      0x00\n        /* \"#utility.yul\":56:87   */\n      mstore\n        /* \"#utility.yul\":106:110   */\n      0x41\n        /* \"#utility.yul\":103:104   */\n      0x04\n        /* \"#utility.yul\":96:111   */\n      mstore\n        /* \"#utility.yul\":130:134   */\n      0x24\n        /* \"#utility.yul\":127:128   */\n      0x00\n        /* \"#utility.yul\":120:135   */\n      revert\n        /* \"#utility.yul\":146:864   */\n    tag_44:\n        /* \"#utility.yul\":188:193   */\n      0x00\n        /* \"#utility.yul\":241:244   */\n      dup3\n        /* \"#utility.yul\":234:238   */\n      0x1f\n        /* \"#utility.yul\":226:232   */\n      dup4\n        /* \"#utility.yul\":222:239   */\n      add\n        /* \"#utility.yul\":218:245   */\n      slt\n        /* \"#utility.yul\":208:263   */\n      tag_51\n      jumpi\n        /* \"#utility.yul\":259:260   */\n      0x00\n        /* \"#utility.yul\":256:257   */\n      dup1\n        /* \"#utility.yul\":249:261   */\n      revert\n        /* \"#utility.yul\":208:263   */\n    tag_51:\n        /* \"#utility.yul\":295:301   */\n      dup2\n        /* \"#utility.yul\":282:302   */\n      calldataload\n        /* \"#utility.yul\":321:339   */\n      0xffffffffffffffff\n        /* \"#utility.yul\":358:360   */\n      dup1\n        /* \"#utility.yul\":354:356   */\n      dup3\n        /* \"#utility.yul\":351:361   */\n      gt\n        /* \"#utility.yul\":348:384   */\n      iszero\n      tag_53\n      jumpi\n        /* \"#utility.yul\":364:382   */\n      tag_53\n      tag_43\n      jump\t// in\n    tag_53:\n        /* \"#utility.yul\":439:441   */\n      0x40\n        /* \"#utility.yul\":433:442   */\n      mload\n        /* \"#utility.yul\":407:409   */\n      0x1f\n        /* \"#utility.yul\":493:506   */\n      dup4\n      add\n      not(0x1f)\n        /* \"#utility.yul\":489:511   */\n      swap1\n      dup2\n      and\n        /* \"#utility.yul\":513:515   */\n      0x3f\n        /* \"#utility.yul\":485:516   */\n      add\n        /* \"#utility.yul\":481:521   */\n      and\n        /* \"#utility.yul\":469:522   */\n      dup2\n      add\n      swap1\n        /* \"#utility.yul\":537:555   */\n      dup3\n      dup3\n      gt\n        /* \"#utility.yul\":557:579   */\n      dup2\n      dup4\n      lt\n        /* \"#utility.yul\":534:580   */\n      or\n        /* \"#utility.yul\":531:603   */\n      iszero\n      tag_55\n      jumpi\n        /* \"#utility.yul\":583:601   */\n      tag_55\n      tag_43\n      jump\t// in\n    tag_55:\n        /* \"#utility.yul\":623:633   */\n      dup2\n        /* \"#utility.yul\":619:621   */\n      0x40\n        /* \"#utility.yul\":612:634   */\n      mstore\n        /* \"#utility.yul\":658:660   */\n      dup4\n        /* \"#utility.yul\":650:656   */\n      dup2\n        /* \"#utility.yul\":643:661   */\n      mstore\n        /* \"#utility.yul\":704:707   */\n      dup7\n        /* \"#utility.yul\":697:701   */\n      0x20\n        /* \"#utility.yul\":692:694   */\n      dup6\n        /* \"#utility.yul\":684:690   */\n      dup9\n        /* \"#utility.yul\":680:695   */\n      add\n        /* \"#utility.yul\":676:702   */\n      add\n        /* \"#utility.yul\":673:708   */\n      gt\n        /* \"#utility.yul\":670:725   */\n      iszero\n      tag_56\n      jumpi\n        /* \"#utility.yul\":721:722   */\n      0x00\n        /* \"#utility.yul\":718:719   */\n      dup1\n        /* \"#utility.yul\":711:723   */\n      revert\n        /* \"#utility.yul\":670:725   */\n    tag_56:\n        /* \"#utility.yul\":785:787   */\n      dup4\n        /* \"#utility.yul\":778:782   */\n      0x20\n        /* \"#utility.yul\":770:776   */\n      dup8\n        /* \"#utility.yul\":766:783   */\n      add\n        /* \"#utility.yul\":759:763   */\n      0x20\n        /* \"#utility.yul\":751:757   */\n      dup4\n        /* \"#utility.yul\":747:764   */\n      add\n        /* \"#utility.yul\":734:788   */\n      calldatacopy\n        /* \"#utility.yul\":832:833   */\n      0x00\n        /* \"#utility.yul\":825:829   */\n      0x20\n        /* \"#utility.yul\":820:822   */\n      dup6\n        /* \"#utility.yul\":812:818   */\n      dup4\n        /* \"#utility.yul\":808:823   */\n      add\n        /* \"#utility.yul\":804:830   */\n      add\n        /* \"#utility.yul\":797:834   */\n      mstore\n        /* \"#utility.yul\":852:858   */\n      dup1\n        /* \"#utility.yul\":843:858   */\n      swap5\n      pop\n      pop\n      pop\n      pop\n      pop\n        /* \"#utility.yul\":146:864   */\n      swap3\n      swap2\n      pop\n      pop\n      jump\t// out\n        /* \"#utility.yul\":869:1726   */\n    tag_7:\n        /* \"#utility.yul\":966:972   */\n      0x00\n        /* \"#utility.yul\":974:980   */\n      dup1\n        /* \"#utility.yul\":982:988   */\n      0x00\n        /* \"#utility.yul\":990:996   */\n      dup1\n        /* \"#utility.yul\":1043:1045   */\n      0x60\n        /* \"#utility.yul\":1031:1040   */\n      dup6\n        /* \"#utility.yul\":1022:1029   */\n      dup8\n        /* \"#utility.yul\":1018:1041   */\n      sub\n        /* \"#utility.yul\":1014:1046   */\n      slt\n        /* \"#utility.yul\":1011:1063   */\n      iszero\n      tag_58\n      jumpi\n        /* \"#utility.yul\":1059:1060   */\n      0x00\n        /* \"#utility.yul\":1056:1057   */\n      dup1\n        /* \"#utility.yul\":1049:1061   */\n      revert\n        /* \"#utility.yul\":1011:1063   */\n    tag_58:\n        /* \"#utility.yul\":1099:1108   */\n      dup5\n        /* \"#utility.yul\":1086:1109   */\n      calldataload\n        /* \"#utility.yul\":1128:1146   */\n      0xffffffffffffffff\n        /* \"#utility.yul\":1169:1171   */\n      dup1\n        /* \"#utility.yul\":1161:1167   */\n      dup3\n        /* \"#utility.yul\":1158:1172   */\n      gt\n        /* \"#utility.yul\":1155:1189   */\n      iszero\n      tag_59\n      jumpi\n        /* \"#utility.yul\":1185:1186   */\n      0x00\n        /* \"#utility.yul\":1182:1183   */\n      dup1\n        /* \"#utility.yul\":1175:1187   */\n      revert\n        /* \"#utility.yul\":1155:1189   */\n    tag_59:\n        /* \"#utility.yul\":1208:1257   */\n      tag_60\n        /* \"#utility.yul\":1249:1256   */\n      dup9\n        /* \"#utility.yul\":1240:1246   */\n      dup4\n        /* \"#utility.yul\":1229:1238   */\n      dup10\n        /* \"#utility.yul\":1225:1247   */\n      add\n        /* \"#utility.yul\":1208:1257   */\n      tag_44\n      jump\t// in\n    tag_60:\n        /* \"#utility.yul\":1198:1257   */\n      swap6\n      pop\n        /* \"#utility.yul\":1304:1306   */\n      0x20\n        /* \"#utility.yul\":1293:1302   */\n      dup8\n        /* \"#utility.yul\":1289:1307   */\n      add\n        /* \"#utility.yul\":1276:1308   */\n      calldataload\n        /* \"#utility.yul\":1266:1308   */\n      swap5\n      pop\n        /* \"#utility.yul\":1361:1363   */\n      0x40\n        /* \"#utility.yul\":1350:1359   */\n      dup8\n        /* \"#utility.yul\":1346:1364   */\n      add\n        /* \"#utility.yul\":1333:1365   */\n      calldataload\n        /* \"#utility.yul\":1317:1365   */\n      swap2\n      pop\n        /* \"#utility.yul\":1390:1392   */\n      dup1\n        /* \"#utility.yul\":1380:1388   */\n      dup3\n        /* \"#utility.yul\":1377:1393   */\n      gt\n        /* \"#utility.yul\":1374:1410   */\n      iszero\n      tag_61\n      jumpi\n        /* \"#utility.yul\":1406:1407   */\n      0x00\n        /* \"#utility.yul\":1403:1404   */\n      dup1\n        /* \"#utility.yul\":1396:1408   */\n      revert\n        /* \"#utility.yul\":1374:1410   */\n    tag_61:\n        /* \"#utility.yul\":1444:1452   */\n      dup2\n        /* \"#utility.yul\":1433:1442   */\n      dup8\n        /* \"#utility.yul\":1429:1453   */\n      add\n        /* \"#utility.yul\":1419:1453   */\n      swap2\n      pop\n        /* \"#utility.yul\":1491:1498   */\n      dup8\n        /* \"#utility.yul\":1484:1488   */\n      0x1f\n        /* \"#utility.yul\":1480:1482   */\n      dup4\n        /* \"#utility.yul\":1476:1489   */\n      add\n        /* \"#utility.yul\":1472:1499   */\n      slt\n        /* \"#utility.yul\":1462:1517   */\n      tag_62\n      jumpi\n        /* \"#utility.yul\":1513:1514   */\n      0x00\n        /* \"#utility.yul\":1510:1511   */\n      dup1\n        /* \"#utility.yul\":1503:1515   */\n      revert\n        /* \"#utility.yul\":1462:1517   */\n    tag_62:\n        /* \"#utility.yul\":1553:1555   */\n      dup2\n        /* \"#utility.yul\":1540:1556   */\n      calldataload\n        /* \"#utility.yul\":1579:1581   */\n      dup2\n        /* \"#utility.yul\":1571:1577   */\n      dup2\n        /* \"#utility.yul\":1568:1582   */\n      gt\n        /* \"#utility.yul\":1565:1599   */\n      iszero\n      tag_63\n      jumpi\n        /* \"#utility.yul\":1595:1596   */\n      0x00\n        /* \"#utility.yul\":1592:1593   */\n      dup1\n        /* \"#utility.yul\":1585:1597   */\n      revert\n        /* \"#utility.yul\":1565:1599   */\n    tag_63:\n        /* \"#utility.yul\":1640:1647   */\n      dup9\n        /* \"#utility.yul\":1635:1637   */\n      0x20\n        /* \"#utility.yul\":1626:1632   */\n      dup3\n        /* \"#utility.yul\":1622:1624   */\n      dup6\n        /* \"#utility.yul\":1618:1633   */\n      add\n        /* \"#utility.yul\":1614:1638   */\n      add\n        /* \"#utility.yul\":1611:1648   */\n      gt\n        /* \"#utility.yul\":1608:1665   */\n      iszero\n      tag_64\n      jumpi\n        /* \"#utility.yul\":1661:1662   */\n      0x00\n        /* \"#utility.yul\":1658:1659   */\n      dup1\n        /* \"#utility.yul\":1651:1663   */\n      revert\n        /* \"#utility.yul\":1608:1665   */\n    tag_64:\n        /* \"#utility.yul\":869:1726   */\n      swap6\n      swap9\n      swap5\n      swap8\n      pop\n      pop\n        /* \"#utility.yul\":1692:1694   */\n      0x20\n        /* \"#utility.yul\":1684:1695   */\n      add\n      swap5\n      pop\n      pop\n      pop\n        /* \"#utility.yul\":869:1726   */\n      jump\t// out\n        /* \"#utility.yul\":1939:2112   */\n    tag_45:\n        /* \"#utility.yul\":2007:2027   */\n      dup1\n      calldataload\n      sub(shl(0xa0, 0x01), 0x01)\n        /* \"#utility.yul\":2056:2087   */\n      dup2\n      and\n        /* \"#utility.yul\":2046:2088   */\n      dup2\n      eq\n        /* \"#utility.yul\":2036:2106   */\n      tag_67\n      jumpi\n        /* \"#utility.yul\":2102:2103   */\n      0x00\n        /* \"#utility.yul\":2099:2100   */\n      dup1\n        /* \"#utility.yul\":2092:2104   */\n      revert\n        /* \"#utility.yul\":2036:2106   */\n    tag_67:\n        /* \"#utility.yul\":1939:2112   */\n      swap2\n      swap1\n      pop\n      jump\t// out\n        /* \"#utility.yul\":2117:2585   */\n    tag_17:\n        /* \"#utility.yul\":2203:2209   */\n      0x00\n        /* \"#utility.yul\":2211:2217   */\n      dup1\n        /* \"#utility.yul\":2219:2225   */\n      0x00\n        /* \"#utility.yul\":2272:2274   */\n      0x60\n        /* \"#utility.yul\":2260:2269   */\n      dup5\n        /* \"#utility.yul\":2251:2258   */\n      dup7\n        /* \"#utility.yul\":2247:2270   */\n      sub\n        /* \"#utility.yul\":2243:2275   */\n      slt\n        /* \"#utility.yul\":2240:2292   */\n      iszero\n      tag_69\n      jumpi\n        /* \"#utility.yul\":2288:2289   */\n      0x00\n        /* \"#utility.yul\":2285:2286   */\n      dup1\n        /* \"#utility.yul\":2278:2290   */\n      revert\n        /* \"#utility.yul\":2240:2292   */\n    tag_69:\n        /* \"#utility.yul\":2311:2340   */\n      tag_70\n        /* \"#utility.yul\":2330:2339   */\n      dup5\n        /* \"#utility.yul\":2311:2340   */\n      tag_45\n      jump\t// in\n    tag_70:\n        /* \"#utility.yul\":2301:2340   */\n      swap3\n      pop\n        /* \"#utility.yul\":2359:2397   */\n      tag_71\n        /* \"#utility.yul\":2393:2395   */\n      0x20\n        /* \"#utility.yul\":2382:2391   */\n      dup6\n        /* \"#utility.yul\":2378:2396   */\n      add\n        /* \"#utility.yul\":2359:2397   */\n      tag_45\n      jump\t// in\n    tag_71:\n        /* \"#utility.yul\":2349:2397   */\n      swap2\n      pop\n        /* \"#utility.yul\":2448:2450   */\n      0x40\n        /* \"#utility.yul\":2437:2446   */\n      dup5\n        /* \"#utility.yul\":2433:2451   */\n      add\n        /* \"#utility.yul\":2420:2452   */\n      calldataload\n        /* \"#utility.yul\":2475:2493   */\n      0xffffffffffffffff\n        /* \"#utility.yul\":2467:2473   */\n      dup2\n        /* \"#utility.yul\":2464:2494   */\n      gt\n        /* \"#utility.yul\":2461:2511   */\n      iszero\n      tag_72\n      jumpi\n        /* \"#utility.yul\":2507:2508   */\n      0x00\n        /* \"#utility.yul\":2504:2505   */\n      dup1\n        /* \"#utility.yul\":2497:2509   */\n      revert\n        /* \"#utility.yul\":2461:2511   */\n    tag_72:\n        /* \"#utility.yul\":2530:2579   */\n      tag_73\n        /* \"#utility.yul\":2571:2578   */\n      dup7\n        /* \"#utility.yul\":2562:2568   */\n      dup3\n        /* \"#utility.yul\":2551:2560   */\n      dup8\n        /* \"#utility.yul\":2547:2569   */\n      add\n        /* \"#utility.yul\":2530:2579   */\n      tag_44\n      jump\t// in\n    tag_73:\n        /* \"#utility.yul\":2520:2579   */\n      swap2\n      pop\n      pop\n        /* \"#utility.yul\":2117:2585   */\n      swap3\n      pop\n      swap3\n      pop\n      swap3\n      jump\t// out\n        /* \"#utility.yul\":2590:2840   */\n    tag_46:\n        /* \"#utility.yul\":2675:2676   */\n      0x00\n        /* \"#utility.yul\":2685:2798   */\n    tag_75:\n        /* \"#utility.yul\":2699:2705   */\n      dup4\n        /* \"#utility.yul\":2696:2697   */\n      dup2\n        /* \"#utility.yul\":2693:2706   */\n      lt\n        /* \"#utility.yul\":2685:2798   */\n      iszero\n      tag_77\n      jumpi\n        /* \"#utility.yul\":2775:2786   */\n      dup2\n      dup2\n      add\n        /* \"#utility.yul\":2769:2787   */\n      mload\n        /* \"#utility.yul\":2756:2767   */\n      dup4\n      dup3\n      add\n        /* \"#utility.yul\":2749:2788   */\n      mstore\n        /* \"#utility.yul\":2721:2723   */\n      0x20\n        /* \"#utility.yul\":2714:2724   */\n      add\n        /* \"#utility.yul\":2685:2798   */\n      jump(tag_75)\n    tag_77:\n      pop\n      pop\n        /* \"#utility.yul\":2832:2833   */\n      0x00\n        /* \"#utility.yul\":2814:2830   */\n      swap2\n      add\n        /* \"#utility.yul\":2807:2834   */\n      mstore\n        /* \"#utility.yul\":2590:2840   */\n      jump\t// out\n        /* \"#utility.yul\":2845:3115   */\n    tag_47:\n        /* \"#utility.yul\":2886:2889   */\n      0x00\n        /* \"#utility.yul\":2924:2929   */\n      dup2\n        /* \"#utility.yul\":2918:2930   */\n      mload\n        /* \"#utility.yul\":2951:2957   */\n      dup1\n        /* \"#utility.yul\":2946:2949   */\n      dup5\n        /* \"#utility.yul\":2939:2958   */\n      mstore\n        /* \"#utility.yul\":2967:3043   */\n      tag_79\n        /* \"#utility.yul\":3036:3042   */\n      dup2\n        /* \"#utility.yul\":3029:3033   */\n      0x20\n        /* \"#utility.yul\":3024:3027   */\n      dup7\n        /* \"#utility.yul\":3020:3034   */\n      add\n        /* \"#utility.yul\":3013:3017   */\n      0x20\n        /* \"#utility.yul\":3006:3011   */\n      dup7\n        /* \"#utility.yul\":3002:3018   */\n      add\n        /* \"#utility.yul\":2967:3043   */\n      tag_46\n      jump\t// in\n    tag_79:\n        /* \"#utility.yul\":3097:3099   */\n      0x1f\n        /* \"#utility.yul\":3076:3091   */\n      add\n      not(0x1f)\n        /* \"#utility.yul\":3072:3101   */\n      and\n        /* \"#utility.yul\":3063:3102   */\n      swap3\n      swap1\n      swap3\n      add\n        /* \"#utility.yul\":3104:3108   */\n      0x20\n        /* \"#utility.yul\":3059:3109   */\n      add\n      swap3\n        /* \"#utility.yul\":2845:3115   */\n      swap2\n      pop\n      pop\n      jump\t// out\n        /* \"#utility.yul\":3120:3337   */\n    tag_20:\n        /* \"#utility.yul\":3267:3269   */\n      0x20\n        /* \"#utility.yul\":3256:3265   */\n      dup2\n        /* \"#utility.yul\":3249:3270   */\n      mstore\n        /* \"#utility.yul\":3230:3234   */\n      0x00\n        /* \"#utility.yul\":3287:3331   */\n      tag_81\n        /* \"#utility.yul\":3327:3329   */\n      0x20\n        /* \"#utility.yul\":3316:3325   */\n      dup4\n        /* \"#utility.yul\":3312:3330   */\n      add\n        /* \"#utility.yul\":3304:3310   */\n      dup5\n        /* \"#utility.yul\":3287:3331   */\n      tag_47\n      jump\t// in\n    tag_81:\n        /* \"#utility.yul\":3279:3331   */\n      swap4\n        /* \"#utility.yul\":3120:3337   */\n      swap3\n      pop\n      pop\n      pop\n      jump\t// out\n        /* \"#utility.yul\":3964:4235   */\n    tag_30:\n        /* \"#utility.yul\":4147:4153   */\n      dup2\n        /* \"#utility.yul\":4139:4145   */\n      dup4\n        /* \"#utility.yul\":4134:4137   */\n      dup3\n        /* \"#utility.yul\":4121:4154   */\n      calldatacopy\n        /* \"#utility.yul\":4103:4106   */\n      0x00\n        /* \"#utility.yul\":4173:4189   */\n      swap2\n      add\n        /* \"#utility.yul\":4198:4211   */\n      swap1\n      dup2\n      mstore\n        /* \"#utility.yul\":4173:4189   */\n      swap2\n        /* \"#utility.yul\":3964:4235   */\n      swap1\n      pop\n      jump\t// out\n        /* \"#utility.yul\":4240:4655   */\n    tag_40:\n      sub(shl(0xa0, 0x01), 0x01)\n        /* \"#utility.yul\":4481:4496   */\n      dup5\n      dup2\n      and\n        /* \"#utility.yul\":4463:4497   */\n      dup3\n      mstore\n        /* \"#utility.yul\":4533:4548   */\n      dup4\n      and\n        /* \"#utility.yul\":4528:4530   */\n      0x20\n        /* \"#utility.yul\":4513:4531   */\n      dup3\n      add\n        /* \"#utility.yul\":4506:4549   */\n      mstore\n        /* \"#utility.yul\":4585:4587   */\n      0x60\n        /* \"#utility.yul\":4580:4582   */\n      0x40\n        /* \"#utility.yul\":4565:4583   */\n      dup3\n      add\n        /* \"#utility.yul\":4558:4588   */\n      dup2\n      swap1\n      mstore\n        /* \"#utility.yul\":4406:4410   */\n      0x00\n      swap1\n        /* \"#utility.yul\":4605:4649   */\n      tag_86\n      swap1\n        /* \"#utility.yul\":4630:4648   */\n      dup4\n      add\n        /* \"#utility.yul\":4622:4628   */\n      dup5\n        /* \"#utility.yul\":4605:4649   */\n      tag_47\n      jump\t// in\n    tag_86:\n        /* \"#utility.yul\":4597:4649   */\n      swap6\n        /* \"#utility.yul\":4240:4655   */\n      swap5\n      pop\n      pop\n      pop\n      pop\n      pop\n      jump\t// out\n        /* \"#utility.yul\":4660:5152   */\n    tag_42:\n        /* \"#utility.yul\":4835:4838   */\n      0x00\n        /* \"#utility.yul\":4873:4879   */\n      dup4\n        /* \"#utility.yul\":4867:4880   */\n      mload\n        /* \"#utility.yul\":4889:4955   */\n      tag_88\n        /* \"#utility.yul\":4948:4954   */\n      dup2\n        /* \"#utility.yul\":4943:4946   */\n      dup5\n        /* \"#utility.yul\":4936:4940   */\n      0x20\n        /* \"#utility.yul\":4928:4934   */\n      dup9\n        /* \"#utility.yul\":4924:4941   */\n      add\n        /* \"#utility.yul\":4889:4955   */\n      tag_46\n      jump\t// in\n    tag_88:\n        /* \"#utility.yul\":5018:5031   */\n      dup4\n      mload\n        /* \"#utility.yul\":4977:4993   */\n      swap1\n      dup4\n      add\n      swap1\n        /* \"#utility.yul\":5040:5110   */\n      tag_89\n        /* \"#utility.yul\":5018:5031   */\n      dup2\n        /* \"#utility.yul\":4977:4993   */\n      dup4\n        /* \"#utility.yul\":5087:5091   */\n      0x20\n        /* \"#utility.yul\":5075:5092   */\n      dup9\n      add\n        /* \"#utility.yul\":5040:5110   */\n      tag_46\n      jump\t// in\n    tag_89:\n        /* \"#utility.yul\":5126:5146   */\n      add\n      swap5\n        /* \"#utility.yul\":4660:5152   */\n      swap4\n      pop\n      pop\n      pop\n      pop\n      jump\t// out\n    stop\n\n    sub_0: assembly {\n            /* \"@openzeppelin/contracts/proxy/transparent/TransparentUpgradeableProxy.sol\":3389:8340  contract TransparentUpgradeableProxy is ERC1967Proxy {... */\n          mstore(0x40, 0x80)\n            /* \"@openzeppelin/contracts/proxy/transparent/TransparentUpgradeableProxy.sol\":3663:3800  constructor(address _logic, address admin_, bytes memory _data) payable ERC1967Proxy(_logic, _data) {... */\n          mload(0x40)\n          sub(codesize, bytecodeSize)\n          dup1\n          bytecodeSize\n          dup4\n          codecopy\n          dup2\n          add\n          0x40\n          dup2\n          swap1\n          mstore\n          tag_1\n          swap2\n          tag_2\n          jump\t// in\n        tag_1:\n            /* \"@openzeppelin/contracts/proxy/transparent/TransparentUpgradeableProxy.sol\":3748:3754  _logic */\n          dup3\n            /* \"@openzeppelin/contracts/proxy/transparent/TransparentUpgradeableProxy.sol\":3756:3761  _data */\n          dup2\n            /* \"@openzeppelin/contracts/proxy/ERC1967/ERC1967Proxy.sol\":1024:1063  _upgradeToAndCall(_logic, _data, false) */\n          tag_6\n            /* \"@openzeppelin/contracts/proxy/transparent/TransparentUpgradeableProxy.sol\":3748:3754  _logic */\n          dup3\n            /* \"@openzeppelin/contracts/proxy/transparent/TransparentUpgradeableProxy.sol\":3756:3761  _data */\n          dup3\n            /* \"@openzeppelin/contracts/proxy/ERC1967/ERC1967Proxy.sol\":1057:1062  false */\n          0x00\n            /* \"@openzeppelin/contracts/proxy/ERC1967/ERC1967Proxy.sol\":1024:1041  _upgradeToAndCall */\n          tag_7\n            /* \"@openzeppelin/contracts/proxy/ERC1967/ERC1967Proxy.sol\":1024:1063  _upgradeToAndCall(_logic, _data, false) */\n          jump\t// in\n        tag_6:\n          pop\n            /* \"@openzeppelin/contracts/proxy/transparent/TransparentUpgradeableProxy.sol\":3773:3793  _changeAdmin(admin_) */\n          tag_9\n          swap1\n          pop\n            /* \"@openzeppelin/contracts/proxy/transparent/TransparentUpgradeableProxy.sol\":3786:3792  admin_ */\n          dup3\n            /* \"@openzeppelin/contracts/proxy/transparent/TransparentUpgradeableProxy.sol\":3773:3785  _changeAdmin */\n          tag_10\n            /* \"@openzeppelin/contracts/proxy/transparent/TransparentUpgradeableProxy.sol\":3773:3793  _changeAdmin(admin_) */\n          jump\t// in\n        tag_9:\n            /* \"@openzeppelin/contracts/proxy/transparent/TransparentUpgradeableProxy.sol\":3663:3800  constructor(address _logic, address admin_, bytes memory _data) payable ERC1967Proxy(_logic, _data) {... */\n          pop\n          pop\n          pop\n            /* \"@openzeppelin/contracts/proxy/transparent/TransparentUpgradeableProxy.sol\":3389:8340  contract TransparentUpgradeableProxy is ERC1967Proxy {... */\n          jump(tag_75)\n            /* \"@openzeppelin/contracts/proxy/ERC1967/ERC1967Upgrade.sol\":2057:2322  function _upgradeToAndCall(address newImplementation, bytes memory data, bool forceCall) internal {... */\n        tag_7:\n            /* \"@openzeppelin/contracts/proxy/ERC1967/ERC1967Upgrade.sol\":2165:2194  _upgradeTo(newImplementation) */\n          tag_13\n            /* \"@openzeppelin/contracts/proxy/ERC1967/ERC1967Upgrade.sol\":2176:2193  newImplementation */\n          dup4\n            /* \"@openzeppelin/contracts/proxy/ERC1967/ERC1967Upgrade.sol\":2165:2175  _upgradeTo */\n          tag_14\n            /* \"@openzeppelin/contracts/proxy/ERC1967/ERC1967Upgrade.sol\":2165:2194  _upgradeTo(newImplementation) */\n          jump\t// in\n        tag_13:\n            /* \"@openzeppelin/contracts/proxy/ERC1967/ERC1967Upgrade.sol\":2222:2223  0 */\n          0x00\n            /* \"@openzeppelin/contracts/proxy/ERC1967/ERC1967Upgrade.sol\":2208:2212  data */\n          dup3\n            /* \"@openzeppelin/contracts/proxy/ERC1967/ERC1967Upgrade.sol\":2208:2219  data.length */\n          mload\n            /* \"@openzeppelin/contracts/proxy/ERC1967/ERC1967Upgrade.sol\":2208:2223  data.length > 0 */\n          gt\n            /* \"@openzeppelin/contracts/proxy/ERC1967/ERC1967Upgrade.sol\":2208:2236  data.length > 0 || forceCall */\n          dup1\n          tag_15\n          jumpi\n          pop\n            /* \"@openzeppelin/contracts/proxy/ERC1967/ERC1967Upgrade.sol\":2227:2236  forceCall */\n          dup1\n            /* \"@openzeppelin/contracts/proxy/ERC1967/ERC1967Upgrade.sol\":2208:2236  data.length > 0 || forceCall */\n        tag_15:\n            /* \"@openzeppelin/contracts/proxy/ERC1967/ERC1967Upgrade.sol\":2204:2316  if (data.length > 0 || forceCall) {... */\n          iszero\n          tag_16\n          jumpi\n            /* \"@openzeppelin/contracts/proxy/ERC1967/ERC1967Upgrade.sol\":2252:2305  Address.functionDelegateCall(newImplementation, data) */\n          tag_17\n            /* \"@openzeppelin/contracts/proxy/ERC1967/ERC1967Upgrade.sol\":2281:2298  newImplementation */\n          dup4\n            /* \"@openzeppelin/contracts/proxy/ERC1967/ERC1967Upgrade.sol\":2300:2304  data */\n          dup4\n            /* \"@openzeppelin/contracts/proxy/ERC1967/ERC1967Upgrade.sol\":2252:2280  Address.functionDelegateCall */\n          tag_18\n            /* \"@openzeppelin/contracts/proxy/ERC1967/ERC1967Upgrade.sol\":2252:2305  Address.functionDelegateCall(newImplementation, data) */\n          jump\t// in\n        tag_17:\n          pop\n            /* \"@openzeppelin/contracts/proxy/ERC1967/ERC1967Upgrade.sol\":2204:2316  if (data.length > 0 || forceCall) {... */\n        tag_16:\n            /* \"@openzeppelin/contracts/proxy/ERC1967/ERC1967Upgrade.sol\":2057:2322  function _upgradeToAndCall(address newImplementation, bytes memory data, bool forceCall) internal {... */\n          pop\n          pop\n          pop\n          jump\t// out\n            /* \"@openzeppelin/contracts/proxy/ERC1967/ERC1967Upgrade.sol\":4300:4435  function _changeAdmin(address newAdmin) internal {... */\n        tag_10:\n            /* \"@openzeppelin/contracts/proxy/ERC1967/ERC1967Upgrade.sol\":4364:4399  AdminChanged(_getAdmin(), newAdmin) */\n          0x7e644d79422f17c01e4894b5f4f588d331ebfa28653d42ae832dc59e38c9798f\n            /* \"@openzeppelin/contracts/proxy/ERC1967/ERC1967Upgrade.sol\":4377:4388  _getAdmin() */\n          tag_20\n          0x00\n          dup1\n          mload\n          0x20\n          data_52df0bdf5a5f92d8037cf11e50f13d8017aefc99d20a73c826416df79570d481\n          dup4\n          codecopy\n          dup2\n          mload\n          swap2\n          mstore\n            /* \"@openzeppelin/contracts/proxy/ERC1967/ERC1967Upgrade.sol\":3854:3899  StorageSlot.getAddressSlot(_ADMIN_SLOT).value */\n          sload\n          sub(shl(0xa0, 0x01), 0x01)\n          and\n          swap1\n            /* \"@openzeppelin/contracts/proxy/ERC1967/ERC1967Upgrade.sol\":3784:3906  function _getAdmin() internal view returns (address) {... */\n          jump\n            /* \"@openzeppelin/contracts/proxy/ERC1967/ERC1967Upgrade.sol\":4377:4388  _getAdmin() */\n        tag_20:\n            /* \"@openzeppelin/contracts/proxy/ERC1967/ERC1967Upgrade.sol\":4364:4399  AdminChanged(_getAdmin(), newAdmin) */\n          0x40\n          dup1\n          mload\n          sub(shl(0xa0, 0x01), 0x01)\n            /* \"#utility.yul\":1884:1899   */\n          swap3\n          dup4\n          and\n            /* \"#utility.yul\":1866:1900   */\n          dup2\n          mstore\n            /* \"#utility.yul\":1936:1951   */\n          swap2\n          dup5\n          and\n            /* \"#utility.yul\":1931:1933   */\n          0x20\n            /* \"#utility.yul\":1916:1934   */\n          dup4\n          add\n            /* \"#utility.yul\":1909:1952   */\n          mstore\n            /* \"#utility.yul\":1801:1819   */\n          add\n            /* \"@openzeppelin/contracts/proxy/ERC1967/ERC1967Upgrade.sol\":4364:4399  AdminChanged(_getAdmin(), newAdmin) */\n          mload(0x40)\n          dup1\n          swap2\n          sub\n          swap1\n          log1\n            /* \"@openzeppelin/contracts/proxy/ERC1967/ERC1967Upgrade.sol\":4409:4428  _setAdmin(newAdmin) */\n          tag_24\n            /* \"@openzeppelin/contracts/proxy/ERC1967/ERC1967Upgrade.sol\":4419:4427  newAdmin */\n          dup2\n            /* \"@openzeppelin/contracts/proxy/ERC1967/ERC1967Upgrade.sol\":4409:4418  _setAdmin */\n          tag_25\n            /* \"@openzeppelin/contracts/proxy/ERC1967/ERC1967Upgrade.sol\":4409:4428  _setAdmin(newAdmin) */\n          jump\t// in\n        tag_24:\n            /* \"@openzeppelin/contracts/proxy/ERC1967/ERC1967Upgrade.sol\":4300:4435  function _changeAdmin(address newAdmin) internal {... */\n          pop\n          jump\t// out\n            /* \"@openzeppelin/contracts/proxy/ERC1967/ERC1967Upgrade.sol\":1771:1923  function _upgradeTo(address newImplementation) internal {... */\n        tag_14:\n            /* \"@openzeppelin/contracts/proxy/ERC1967/ERC1967Upgrade.sol\":1837:1874  _setImplementation(newImplementation) */\n          tag_27\n            /* \"@openzeppelin/contracts/proxy/ERC1967/ERC1967Upgrade.sol\":1856:1873  newImplementation */\n          dup2\n            /* \"@openzeppelin/contracts/proxy/ERC1967/ERC1967Upgrade.sol\":1837:1855  _setImplementation */\n          tag_28\n            /* \"@openzeppelin/contracts/proxy/ERC1967/ERC1967Upgrade.sol\":1837:1874  _setImplementation(newImplementation) */\n          jump\t// in\n        tag_27:\n            /* \"@openzeppelin/contracts/proxy/ERC1967/ERC1967Upgrade.sol\":1889:1916  Upgraded(newImplementation) */\n          mload(0x40)\n          sub(shl(0xa0, 0x01), 0x01)\n          dup3\n          and\n          swap1\n          0xbc7cd75a20ee27fd9adebab32041f755214dbc6bffa90cc0225b39da2e5c2d3b\n          swap1\n          0x00\n          swap1\n          log2\n            /* \"@openzeppelin/contracts/proxy/ERC1967/ERC1967Upgrade.sol\":1771:1923  function _upgradeTo(address newImplementation) internal {... */\n          pop\n          jump\t// out\n            /* \"@openzeppelin/contracts/utils/Address.sol\":6674:6872  function functionDelegateCall(address target, bytes memory data) internal returns (bytes memory) {... */\n        tag_18:\n            /* \"@openzeppelin/contracts/utils/Address.sol\":6757:6769  bytes memory */\n          0x60\n            /* \"@openzeppelin/contracts/utils/Address.sol\":6788:6865  functionDelegateCall(target, data, \"Address: low-level delegate call failed\") */\n          tag_30\n            /* \"@openzeppelin/contracts/utils/Address.sol\":6809:6815  target */\n          dup4\n            /* \"@openzeppelin/contracts/utils/Address.sol\":6817:6821  data */\n          dup4\n            /* \"@openzeppelin/contracts/utils/Address.sol\":6788:6865  functionDelegateCall(target, data, \"Address: low-level delegate call failed\") */\n          mload(0x40)\n          dup1\n          0x60\n          add\n          0x40\n          mstore\n          dup1\n          0x27\n          dup2\n          mstore\n          0x20\n          add\n          data_9fdcd12e4b726339b32a442b0a448365d5d85c96b2d2cff917b4f66c63110398\n          0x27\n          swap2\n          codecopy\n            /* \"@openzeppelin/contracts/utils/Address.sol\":6788:6808  functionDelegateCall */\n          tag_31\n            /* \"@openzeppelin/contracts/utils/Address.sol\":6788:6865  functionDelegateCall(target, data, \"Address: low-level delegate call failed\") */\n          jump\t// in\n        tag_30:\n            /* \"@openzeppelin/contracts/utils/Address.sol\":6781:6865  return functionDelegateCall(target, data, \"Address: low-level delegate call failed\") */\n          swap4\n            /* \"@openzeppelin/contracts/utils/Address.sol\":6674:6872  function functionDelegateCall(address target, bytes memory data) internal returns (bytes memory) {... */\n          swap3\n          pop\n          pop\n          pop\n          jump\t// out\n            /* \"@openzeppelin/contracts/proxy/ERC1967/ERC1967Upgrade.sol\":3988:4189  function _setAdmin(address newAdmin) private {... */\n        tag_25:\n          sub(shl(0xa0, 0x01), 0x01)\n            /* \"@openzeppelin/contracts/proxy/ERC1967/ERC1967Upgrade.sol\":4051:4073  newAdmin != address(0) */\n          dup2\n          and\n            /* \"@openzeppelin/contracts/proxy/ERC1967/ERC1967Upgrade.sol\":4043:4116  require(newAdmin != address(0), \"ERC1967: new admin is the zero address\") */\n          tag_36\n          jumpi\n          mload(0x40)\n          shl(0xe5, 0x461bcd)\n          dup2\n          mstore\n            /* \"#utility.yul\":2165:2167   */\n          0x20\n            /* \"@openzeppelin/contracts/proxy/ERC1967/ERC1967Upgrade.sol\":4043:4116  require(newAdmin != address(0), \"ERC1967: new admin is the zero address\") */\n          0x04\n          dup3\n          add\n            /* \"#utility.yul\":2147:2168   */\n          mstore\n            /* \"#utility.yul\":2204:2206   */\n          0x26\n            /* \"#utility.yul\":2184:2202   */\n          0x24\n          dup3\n          add\n            /* \"#utility.yul\":2177:2207   */\n          mstore\n            /* \"#utility.yul\":2243:2277   */\n          0x455243313936373a206e65772061646d696e20697320746865207a65726f2061\n            /* \"#utility.yul\":2223:2241   */\n          0x44\n          dup3\n          add\n            /* \"#utility.yul\":2216:2278   */\n          mstore\n          shl(0xd0, 0x646472657373)\n            /* \"#utility.yul\":2294:2312   */\n          0x64\n          dup3\n          add\n            /* \"#utility.yul\":2287:2323   */\n          mstore\n            /* \"#utility.yul\":2340:2359   */\n          0x84\n          add\n            /* \"@openzeppelin/contracts/proxy/ERC1967/ERC1967Upgrade.sol\":4043:4116  require(newAdmin != address(0), \"ERC1967: new admin is the zero address\") */\n        tag_37:\n          mload(0x40)\n          dup1\n          swap2\n          sub\n          swap1\n          revert\n        tag_36:\n            /* \"@openzeppelin/contracts/proxy/ERC1967/ERC1967Upgrade.sol\":4174:4182  newAdmin */\n          dup1\n          0x00\n          dup1\n          mload\n          0x20\n          data_52df0bdf5a5f92d8037cf11e50f13d8017aefc99d20a73c826416df79570d481\n          dup4\n          codecopy\n          dup2\n          mload\n          swap2\n          mstore\n            /* \"@openzeppelin/contracts/proxy/ERC1967/ERC1967Upgrade.sol\":4126:4165  StorageSlot.getAddressSlot(_ADMIN_SLOT) */\n        tag_39:\n            /* \"@openzeppelin/contracts/proxy/ERC1967/ERC1967Upgrade.sol\":4126:4182  StorageSlot.getAddressSlot(_ADMIN_SLOT).value = newAdmin */\n          dup1\n          sload\n          not(sub(shl(0xa0, 0x01), 0x01))\n          and\n          sub(shl(0xa0, 0x01), 0x01)\n          swap3\n          swap1\n          swap3\n          and\n          swap2\n          swap1\n          swap2\n          or\n          swap1\n          sstore\n          pop\n            /* \"@openzeppelin/contracts/proxy/ERC1967/ERC1967Upgrade.sol\":3988:4189  function _setAdmin(address newAdmin) private {... */\n          jump\t// out\n            /* \"@openzeppelin/contracts/proxy/ERC1967/ERC1967Upgrade.sol\":1406:1665  function _setImplementation(address newImplementation) private {... */\n        tag_28:\n          sub(shl(0xa0, 0x01), 0x01)\n            /* \"@openzeppelin/contracts/utils/Address.sol\":1702:1721  account.code.length */\n          dup2\n          and\n          extcodesize\n            /* \"@openzeppelin/contracts/proxy/ERC1967/ERC1967Upgrade.sol\":1479:1574  require(Address.isContract(newImplementation), \"ERC1967: new implementation is not a contract\") */\n          tag_43\n          jumpi\n          mload(0x40)\n          shl(0xe5, 0x461bcd)\n          dup2\n          mstore\n            /* \"#utility.yul\":2572:2574   */\n          0x20\n            /* \"@openzeppelin/contracts/proxy/ERC1967/ERC1967Upgrade.sol\":1479:1574  require(Address.isContract(newImplementation), \"ERC1967: new implementation is not a contract\") */\n          0x04\n          dup3\n          add\n            /* \"#utility.yul\":2554:2575   */\n          mstore\n            /* \"#utility.yul\":2611:2613   */\n          0x2d\n            /* \"#utility.yul\":2591:2609   */\n          0x24\n          dup3\n          add\n            /* \"#utility.yul\":2584:2614   */\n          mstore\n            /* \"#utility.yul\":2650:2684   */\n          0x455243313936373a206e657720696d706c656d656e746174696f6e206973206e\n            /* \"#utility.yul\":2630:2648   */\n          0x44\n          dup3\n          add\n            /* \"#utility.yul\":2623:2685   */\n          mstore\n          shl(0x9a, 0x1bdd08184818dbdb9d1c9858dd)\n            /* \"#utility.yul\":2701:2719   */\n          0x64\n          dup3\n          add\n            /* \"#utility.yul\":2694:2737   */\n          mstore\n            /* \"#utility.yul\":2754:2773   */\n          0x84\n          add\n            /* \"@openzeppelin/contracts/proxy/ERC1967/ERC1967Upgrade.sol\":1479:1574  require(Address.isContract(newImplementation), \"ERC1967: new implementation is not a contract\") */\n          tag_37\n            /* \"#utility.yul\":2370:2779   */\n          jump\n            /* \"@openzeppelin/contracts/proxy/ERC1967/ERC1967Upgrade.sol\":1479:1574  require(Address.isContract(newImplementation), \"ERC1967: new implementation is not a contract\") */\n        tag_43:\n            /* \"@openzeppelin/contracts/proxy/ERC1967/ERC1967Upgrade.sol\":1641:1658  newImplementation */\n          dup1\n            /* \"@openzeppelin/contracts/proxy/ERC1967/ERC1967Upgrade.sol\":1030:1096  0x360894a13ba1a3210667c828492db98dca3e2076cc3735a920a3ca505d382bbc */\n          0x360894a13ba1a3210667c828492db98dca3e2076cc3735a920a3ca505d382bbc\n            /* \"@openzeppelin/contracts/proxy/ERC1967/ERC1967Upgrade.sol\":1584:1632  StorageSlot.getAddressSlot(_IMPLEMENTATION_SLOT) */\n          tag_39\n            /* \"@openzeppelin/contracts/utils/StorageSlot.sol\":1859:2049  function getAddressSlot(bytes32 slot) internal pure returns (AddressSlot storage r) {... */\n          jump\n            /* \"@openzeppelin/contracts/utils/Address.sol\":7058:7383  function functionDelegateCall(... */\n        tag_31:\n            /* \"@openzeppelin/contracts/utils/Address.sol\":7199:7211  bytes memory */\n          0x60\n            /* \"@openzeppelin/contracts/utils/Address.sol\":7224:7236  bool success */\n          0x00\n            /* \"@openzeppelin/contracts/utils/Address.sol\":7238:7261  bytes memory returndata */\n          dup1\n            /* \"@openzeppelin/contracts/utils/Address.sol\":7265:7271  target */\n          dup6\n          sub(shl(0xa0, 0x01), 0x01)\n            /* \"@openzeppelin/contracts/utils/Address.sol\":7265:7284  target.delegatecall */\n          and\n            /* \"@openzeppelin/contracts/utils/Address.sol\":7285:7289  data */\n          dup6\n            /* \"@openzeppelin/contracts/utils/Address.sol\":7265:7290  target.delegatecall(data) */\n          mload(0x40)\n          tag_48\n          swap2\n          swap1\n          tag_49\n          jump\t// in\n        tag_48:\n          0x00\n          mload(0x40)\n          dup1\n          dup4\n          sub\n          dup2\n          dup6\n          gas\n          delegatecall\n          swap2\n          pop\n          pop\n          returndatasize\n          dup1\n          0x00\n          dup2\n          eq\n          tag_52\n          jumpi\n          mload(0x40)\n          swap2\n          pop\n          and(add(returndatasize, 0x3f), not(0x1f))\n          dup3\n          add\n          0x40\n          mstore\n          returndatasize\n          dup3\n          mstore\n          returndatasize\n          0x00\n          0x20\n          dup5\n          add\n          returndatacopy\n          jump(tag_51)\n        tag_52:\n          0x60\n          swap2\n          pop\n        tag_51:\n          pop\n            /* \"@openzeppelin/contracts/utils/Address.sol\":7223:7290  (bool success, bytes memory returndata) = target.delegatecall(data) */\n          swap1\n          swap3\n          pop\n          swap1\n          pop\n            /* \"@openzeppelin/contracts/utils/Address.sol\":7307:7376  verifyCallResultFromTarget(target, success, returndata, errorMessage) */\n          tag_53\n            /* \"@openzeppelin/contracts/utils/Address.sol\":7334:7340  target */\n          dup7\n            /* \"@openzeppelin/contracts/utils/Address.sol\":7223:7290  (bool success, bytes memory returndata) = target.delegatecall(data) */\n          dup4\n          dup4\n            /* \"@openzeppelin/contracts/utils/Address.sol\":7363:7375  errorMessage */\n          dup8\n            /* \"@openzeppelin/contracts/utils/Address.sol\":7307:7333  verifyCallResultFromTarget */\n          tag_54\n            /* \"@openzeppelin/contracts/utils/Address.sol\":7307:7376  verifyCallResultFromTarget(target, success, returndata, errorMessage) */\n          jump\t// in\n        tag_53:\n            /* \"@openzeppelin/contracts/utils/Address.sol\":7300:7376  return verifyCallResultFromTarget(target, success, returndata, errorMessage) */\n          swap7\n            /* \"@openzeppelin/contracts/utils/Address.sol\":7058:7383  function functionDelegateCall(... */\n          swap6\n          pop\n          pop\n          pop\n          pop\n          pop\n          pop\n          jump\t// out\n            /* \"@openzeppelin/contracts/utils/Address.sol\":7671:8299  function verifyCallResultFromTarget(... */\n        tag_54:\n            /* \"@openzeppelin/contracts/utils/Address.sol\":7851:7863  bytes memory */\n          0x60\n            /* \"@openzeppelin/contracts/utils/Address.sol\":7879:7886  success */\n          dup4\n            /* \"@openzeppelin/contracts/utils/Address.sol\":7875:8293  if (success) {... */\n          iszero\n          tag_58\n          jumpi\n            /* \"@openzeppelin/contracts/utils/Address.sol\":7906:7916  returndata */\n          dup3\n            /* \"@openzeppelin/contracts/utils/Address.sol\":7906:7923  returndata.length */\n          mload\n            /* \"@openzeppelin/contracts/utils/Address.sol\":7927:7928  0 */\n          0x00\n            /* \"@openzeppelin/contracts/utils/Address.sol\":7906:7928  returndata.length == 0 */\n          sub\n            /* \"@openzeppelin/contracts/utils/Address.sol\":7902:8188  if (returndata.length == 0) {... */\n          tag_61\n          jumpi\n          sub(shl(0xa0, 0x01), 0x01)\n            /* \"@openzeppelin/contracts/utils/Address.sol\":1702:1721  account.code.length */\n          dup6\n          and\n          extcodesize\n            /* \"@openzeppelin/contracts/utils/Address.sol\":8113:8173  require(isContract(target), \"Address: call to non-contract\") */\n          tag_61\n          jumpi\n          mload(0x40)\n          shl(0xe5, 0x461bcd)\n          dup2\n          mstore\n            /* \"#utility.yul\":3278:3280   */\n          0x20\n            /* \"@openzeppelin/contracts/utils/Address.sol\":8113:8173  require(isContract(target), \"Address: call to non-contract\") */\n          0x04\n          dup3\n          add\n            /* \"#utility.yul\":3260:3281   */\n          mstore\n            /* \"#utility.yul\":3317:3319   */\n          0x1d\n            /* \"#utility.yul\":3297:3315   */\n          0x24\n          dup3\n          add\n            /* \"#utility.yul\":3290:3320   */\n          mstore\n            /* \"#utility.yul\":3356:3387   */\n          0x416464726573733a2063616c6c20746f206e6f6e2d636f6e7472616374000000\n            /* \"#utility.yul\":3336:3354   */\n          0x44\n          dup3\n          add\n            /* \"#utility.yul\":3329:3388   */\n          mstore\n            /* \"#utility.yul\":3405:3423   */\n          0x64\n          add\n            /* \"@openzeppelin/contracts/utils/Address.sol\":8113:8173  require(isContract(target), \"Address: call to non-contract\") */\n          tag_37\n            /* \"#utility.yul\":3076:3429   */\n          jump\n            /* \"@openzeppelin/contracts/utils/Address.sol\":8113:8173  require(isContract(target), \"Address: call to non-contract\") */\n        tag_61:\n          pop\n            /* \"@openzeppelin/contracts/utils/Address.sol\":8208:8218  returndata */\n          dup2\n            /* \"@openzeppelin/contracts/utils/Address.sol\":8201:8218  return returndata */\n          jump(tag_65)\n            /* \"@openzeppelin/contracts/utils/Address.sol\":7875:8293  if (success) {... */\n        tag_58:\n            /* \"@openzeppelin/contracts/utils/Address.sol\":8249:8282  _revert(returndata, errorMessage) */\n          tag_65\n            /* \"@openzeppelin/contracts/utils/Address.sol\":8257:8267  returndata */\n          dup4\n            /* \"@openzeppelin/contracts/utils/Address.sol\":8269:8281  errorMessage */\n          dup4\n            /* \"@openzeppelin/contracts/utils/Address.sol\":8249:8256  _revert */\n          tag_66\n            /* \"@openzeppelin/contracts/utils/Address.sol\":8249:8282  _revert(returndata, errorMessage) */\n          jump\t// in\n        tag_65:\n            /* \"@openzeppelin/contracts/utils/Address.sol\":7671:8299  function verifyCallResultFromTarget(... */\n          swap5\n          swap4\n          pop\n          pop\n          pop\n          pop\n          jump\t// out\n            /* \"@openzeppelin/contracts/utils/Address.sol\":8821:9361  function _revert(bytes memory returndata, string memory errorMessage) private pure {... */\n        tag_66:\n            /* \"@openzeppelin/contracts/utils/Address.sol\":8980:8997  returndata.length */\n          dup2\n          mload\n            /* \"@openzeppelin/contracts/utils/Address.sol\":8980:9001  returndata.length > 0 */\n          iszero\n            /* \"@openzeppelin/contracts/utils/Address.sol\":8976:9355  if (returndata.length > 0) {... */\n          tag_68\n          jumpi\n            /* \"@openzeppelin/contracts/utils/Address.sol\":9208:9218  returndata */\n          dup2\n            /* \"@openzeppelin/contracts/utils/Address.sol\":9202:9219  mload(returndata) */\n          mload\n            /* \"@openzeppelin/contracts/utils/Address.sol\":9264:9279  returndata_size */\n          dup1\n            /* \"@openzeppelin/contracts/utils/Address.sol\":9251:9261  returndata */\n          dup4\n            /* \"@openzeppelin/contracts/utils/Address.sol\":9247:9249  32 */\n          0x20\n            /* \"@openzeppelin/contracts/utils/Address.sol\":9243:9262  add(32, returndata) */\n          add\n            /* \"@openzeppelin/contracts/utils/Address.sol\":9236:9280  revert(add(32, returndata), returndata_size) */\n          revert\n            /* \"@openzeppelin/contracts/utils/Address.sol\":8976:9355  if (returndata.length > 0) {... */\n        tag_68:\n            /* \"@openzeppelin/contracts/utils/Address.sol\":9331:9343  errorMessage */\n          dup1\n            /* \"@openzeppelin/contracts/utils/Address.sol\":9324:9344  revert(errorMessage) */\n          mload(0x40)\n          shl(0xe5, 0x461bcd)\n          dup2\n          mstore\n          0x04\n          add\n          tag_37\n          swap2\n          swap1\n          tag_71\n          jump\t// in\n            /* \"#utility.yul\":14:191   */\n        tag_72:\n            /* \"#utility.yul\":93:106   */\n          dup1\n          mload\n          sub(shl(0xa0, 0x01), 0x01)\n            /* \"#utility.yul\":135:166   */\n          dup2\n          and\n            /* \"#utility.yul\":125:167   */\n          dup2\n          eq\n            /* \"#utility.yul\":115:185   */\n          tag_77\n          jumpi\n            /* \"#utility.yul\":181:182   */\n          0x00\n            /* \"#utility.yul\":178:179   */\n          dup1\n            /* \"#utility.yul\":171:183   */\n          revert\n            /* \"#utility.yul\":115:185   */\n        tag_77:\n            /* \"#utility.yul\":14:191   */\n          swap2\n          swap1\n          pop\n          jump\t// out\n            /* \"#utility.yul\":196:323   */\n        tag_73:\n            /* \"#utility.yul\":257:267   */\n          0x4e487b71\n            /* \"#utility.yul\":252:255   */\n          0xe0\n            /* \"#utility.yul\":248:268   */\n          shl\n            /* \"#utility.yul\":245:246   */\n          0x00\n            /* \"#utility.yul\":238:269   */\n          mstore\n            /* \"#utility.yul\":288:292   */\n          0x41\n            /* \"#utility.yul\":285:286   */\n          0x04\n            /* \"#utility.yul\":278:293   */\n          mstore\n            /* \"#utility.yul\":312:316   */\n          0x24\n            /* \"#utility.yul\":309:310   */\n          0x00\n            /* \"#utility.yul\":302:317   */\n          revert\n            /* \"#utility.yul\":328:578   */\n        tag_74:\n            /* \"#utility.yul\":413:414   */\n          0x00\n            /* \"#utility.yul\":423:536   */\n        tag_80:\n            /* \"#utility.yul\":437:443   */\n          dup4\n            /* \"#utility.yul\":434:435   */\n          dup2\n            /* \"#utility.yul\":431:444   */\n          lt\n            /* \"#utility.yul\":423:536   */\n          iszero\n          tag_82\n          jumpi\n            /* \"#utility.yul\":513:524   */\n          dup2\n          dup2\n          add\n            /* \"#utility.yul\":507:525   */\n          mload\n            /* \"#utility.yul\":494:505   */\n          dup4\n          dup3\n          add\n            /* \"#utility.yul\":487:526   */\n          mstore\n            /* \"#utility.yul\":459:461   */\n          0x20\n            /* \"#utility.yul\":452:462   */\n          add\n            /* \"#utility.yul\":423:536   */\n          jump(tag_80)\n        tag_82:\n          pop\n          pop\n            /* \"#utility.yul\":570:571   */\n          0x00\n            /* \"#utility.yul\":552:568   */\n          swap2\n          add\n            /* \"#utility.yul\":545:572   */\n          mstore\n            /* \"#utility.yul\":328:578   */\n          jump\t// out\n            /* \"#utility.yul\":583:1649   */\n        tag_2:\n            /* \"#utility.yul\":680:686   */\n          0x00\n            /* \"#utility.yul\":688:694   */\n          dup1\n            /* \"#utility.yul\":696:702   */\n          0x00\n            /* \"#utility.yul\":749:751   */\n          0x60\n            /* \"#utility.yul\":737:746   */\n          dup5\n            /* \"#utility.yul\":728:735   */\n          dup7\n            /* \"#utility.yul\":724:747   */\n          sub\n            /* \"#utility.yul\":720:752   */\n          slt\n            /* \"#utility.yul\":717:769   */\n          iszero\n          tag_84\n          jumpi\n            /* \"#utility.yul\":765:766   */\n          0x00\n            /* \"#utility.yul\":762:763   */\n          dup1\n            /* \"#utility.yul\":755:767   */\n          revert\n            /* \"#utility.yul\":717:769   */\n        tag_84:\n            /* \"#utility.yul\":788:828   */\n          tag_85\n            /* \"#utility.yul\":818:827   */\n          dup5\n            /* \"#utility.yul\":788:828   */\n          tag_72\n          jump\t// in\n        tag_85:\n            /* \"#utility.yul\":778:828   */\n          swap3\n          pop\n            /* \"#utility.yul\":847:896   */\n          tag_86\n            /* \"#utility.yul\":892:894   */\n          0x20\n            /* \"#utility.yul\":881:890   */\n          dup6\n            /* \"#utility.yul\":877:895   */\n          add\n            /* \"#utility.yul\":847:896   */\n          tag_72\n          jump\t// in\n        tag_86:\n            /* \"#utility.yul\":940:942   */\n          0x40\n            /* \"#utility.yul\":925:943   */\n          dup6\n          add\n            /* \"#utility.yul\":919:944   */\n          mload\n            /* \"#utility.yul\":837:896   */\n          swap1\n          swap3\n          pop\n          sub(shl(0x40, 0x01), 0x01)\n            /* \"#utility.yul\":993:1007   */\n          dup1\n          dup3\n          gt\n            /* \"#utility.yul\":990:1024   */\n          iszero\n          tag_87\n          jumpi\n            /* \"#utility.yul\":1020:1021   */\n          0x00\n            /* \"#utility.yul\":1017:1018   */\n          dup1\n            /* \"#utility.yul\":1010:1022   */\n          revert\n            /* \"#utility.yul\":990:1024   */\n        tag_87:\n            /* \"#utility.yul\":1058:1064   */\n          dup2\n            /* \"#utility.yul\":1047:1056   */\n          dup7\n            /* \"#utility.yul\":1043:1065   */\n          add\n            /* \"#utility.yul\":1033:1065   */\n          swap2\n          pop\n            /* \"#utility.yul\":1103:1110   */\n          dup7\n            /* \"#utility.yul\":1096:1100   */\n          0x1f\n            /* \"#utility.yul\":1092:1094   */\n          dup4\n            /* \"#utility.yul\":1088:1101   */\n          add\n            /* \"#utility.yul\":1084:1111   */\n          slt\n            /* \"#utility.yul\":1074:1129   */\n          tag_88\n          jumpi\n            /* \"#utility.yul\":1125:1126   */\n          0x00\n            /* \"#utility.yul\":1122:1123   */\n          dup1\n            /* \"#utility.yul\":1115:1127   */\n          revert\n            /* \"#utility.yul\":1074:1129   */\n        tag_88:\n            /* \"#utility.yul\":1154:1156   */\n          dup2\n            /* \"#utility.yul\":1148:1157   */\n          mload\n            /* \"#utility.yul\":1176:1178   */\n          dup2\n            /* \"#utility.yul\":1172:1174   */\n          dup2\n            /* \"#utility.yul\":1169:1179   */\n          gt\n            /* \"#utility.yul\":1166:1202   */\n          iszero\n          tag_90\n          jumpi\n            /* \"#utility.yul\":1182:1200   */\n          tag_90\n          tag_73\n          jump\t// in\n        tag_90:\n            /* \"#utility.yul\":1257:1259   */\n          0x40\n            /* \"#utility.yul\":1251:1260   */\n          mload\n            /* \"#utility.yul\":1225:1227   */\n          0x1f\n            /* \"#utility.yul\":1311:1324   */\n          dup3\n          add\n          not(0x1f)\n            /* \"#utility.yul\":1307:1329   */\n          swap1\n          dup2\n          and\n            /* \"#utility.yul\":1331:1333   */\n          0x3f\n            /* \"#utility.yul\":1303:1334   */\n          add\n            /* \"#utility.yul\":1299:1339   */\n          and\n            /* \"#utility.yul\":1287:1340   */\n          dup2\n          add\n          swap1\n            /* \"#utility.yul\":1355:1373   */\n          dup4\n          dup3\n          gt\n            /* \"#utility.yul\":1375:1397   */\n          dup2\n          dup4\n          lt\n            /* \"#utility.yul\":1352:1398   */\n          or\n            /* \"#utility.yul\":1349:1421   */\n          iszero\n          tag_92\n          jumpi\n            /* \"#utility.yul\":1401:1419   */\n          tag_92\n          tag_73\n          jump\t// in\n        tag_92:\n            /* \"#utility.yul\":1441:1451   */\n          dup2\n            /* \"#utility.yul\":1437:1439   */\n          0x40\n            /* \"#utility.yul\":1430:1452   */\n          mstore\n            /* \"#utility.yul\":1476:1478   */\n          dup3\n            /* \"#utility.yul\":1468:1474   */\n          dup2\n            /* \"#utility.yul\":1461:1479   */\n          mstore\n            /* \"#utility.yul\":1516:1523   */\n          dup10\n            /* \"#utility.yul\":1511:1513   */\n          0x20\n            /* \"#utility.yul\":1506:1508   */\n          dup5\n            /* \"#utility.yul\":1502:1504   */\n          dup8\n            /* \"#utility.yul\":1498:1509   */\n          add\n            /* \"#utility.yul\":1494:1514   */\n          add\n            /* \"#utility.yul\":1491:1524   */\n          gt\n            /* \"#utility.yul\":1488:1541   */\n          iszero\n          tag_93\n          jumpi\n            /* \"#utility.yul\":1537:1538   */\n          0x00\n            /* \"#utility.yul\":1534:1535   */\n          dup1\n            /* \"#utility.yul\":1527:1539   */\n          revert\n            /* \"#utility.yul\":1488:1541   */\n        tag_93:\n            /* \"#utility.yul\":1550:1618   */\n          tag_94\n            /* \"#utility.yul\":1615:1617   */\n          dup4\n            /* \"#utility.yul\":1610:1612   */\n          0x20\n            /* \"#utility.yul\":1602:1608   */\n          dup4\n            /* \"#utility.yul\":1598:1613   */\n          add\n            /* \"#utility.yul\":1593:1595   */\n          0x20\n            /* \"#utility.yul\":1589:1591   */\n          dup9\n            /* \"#utility.yul\":1585:1596   */\n          add\n            /* \"#utility.yul\":1550:1618   */\n          tag_74\n          jump\t// in\n        tag_94:\n            /* \"#utility.yul\":1637:1643   */\n          dup1\n            /* \"#utility.yul\":1627:1643   */\n          swap6\n          pop\n          pop\n          pop\n          pop\n          pop\n          pop\n            /* \"#utility.yul\":583:1649   */\n          swap3\n          pop\n          swap3\n          pop\n          swap3\n          jump\t// out\n            /* \"#utility.yul\":2784:3071   */\n        tag_49:\n            /* \"#utility.yul\":2913:2916   */\n          0x00\n            /* \"#utility.yul\":2951:2957   */\n          dup3\n            /* \"#utility.yul\":2945:2958   */\n          mload\n            /* \"#utility.yul\":2967:3033   */\n          tag_99\n            /* \"#utility.yul\":3026:3032   */\n          dup2\n            /* \"#utility.yul\":3021:3024   */\n          dup5\n            /* \"#utility.yul\":3014:3018   */\n          0x20\n            /* \"#utility.yul\":3006:3012   */\n          dup8\n            /* \"#utility.yul\":3002:3019   */\n          add\n            /* \"#utility.yul\":2967:3033   */\n          tag_74\n          jump\t// in\n        tag_99:\n            /* \"#utility.yul\":3049:3065   */\n          swap2\n          swap1\n          swap2\n          add\n          swap3\n            /* \"#utility.yul\":2784:3071   */\n          swap2\n          pop\n          pop\n          jump\t// out\n            /* \"#utility.yul\":3434:3830   */\n        tag_71:\n            /* \"#utility.yul\":3583:3585   */\n          0x20\n            /* \"#utility.yul\":3572:3581   */\n          dup2\n            /* \"#utility.yul\":3565:3586   */\n          mstore\n            /* \"#utility.yul\":3546:3550   */\n          0x00\n            /* \"#utility.yul\":3615:3621   */\n          dup3\n            /* \"#utility.yul\":3609:3622   */\n          mload\n            /* \"#utility.yul\":3658:3664   */\n          dup1\n            /* \"#utility.yul\":3653:3655   */\n          0x20\n            /* \"#utility.yul\":3642:3651   */\n          dup5\n            /* \"#utility.yul\":3638:3656   */\n          add\n            /* \"#utility.yul\":3631:3665   */\n          mstore\n            /* \"#utility.yul\":3674:3753   */\n          tag_102\n            /* \"#utility.yul\":3746:3752   */\n          dup2\n            /* \"#utility.yul\":3741:3743   */\n          0x40\n            /* \"#utility.yul\":3730:3739   */\n          dup6\n            /* \"#utility.yul\":3726:3744   */\n          add\n            /* \"#utility.yul\":3721:3723   */\n          0x20\n            /* \"#utility.yul\":3713:3719   */\n          dup8\n            /* \"#utility.yul\":3709:3724   */\n          add\n            /* \"#utility.yul\":3674:3753   */\n          tag_74\n          jump\t// in\n        tag_102:\n            /* \"#utility.yul\":3814:3816   */\n          0x1f\n            /* \"#utility.yul\":3793:3808   */\n          add\n          not(0x1f)\n            /* \"#utility.yul\":3789:3818   */\n          and\n            /* \"#utility.yul\":3774:3819   */\n          swap2\n          swap1\n          swap2\n          add\n            /* \"#utility.yul\":3821:3823   */\n          0x40\n            /* \"#utility.yul\":3770:3824   */\n          add\n          swap3\n            /* \"#utility.yul\":3434:3830   */\n          swap2\n          pop\n          pop\n          jump\t// out\n        tag_75:\n            /* \"@openzeppelin/contracts/proxy/transparent/TransparentUpgradeableProxy.sol\":3389:8340  contract TransparentUpgradeableProxy is ERC1967Proxy {... */\n          dataSize(sub_0)\n          dup1\n          dataOffset(sub_0)\n          0x00\n          codecopy\n          0x00\n          return\n        stop\n        data_52df0bdf5a5f92d8037cf11e50f13d8017aefc99d20a73c826416df79570d481 b53127684a568b3173ae13b9f8a6016e243e63b6e8ee1178d6a717850b5d6103\n        data_9fdcd12e4b726339b32a442b0a448365d5d85c96b2d2cff917b4f66c63110398 416464726573733a206c6f772d6c6576656c2064656c65676174652063616c6c206661696c6564\n\n        sub_0: assembly {\n                /* \"@openzeppelin/contracts/proxy/transparent/TransparentUpgradeableProxy.sol\":3389:8340  contract TransparentUpgradeableProxy is ERC1967Proxy {... */\n              mstore(0x40, 0x80)\n              jumpi(tag_2, calldatasize)\n                /* \"@openzeppelin/contracts/proxy/Proxy.sol\":2898:2909  _fallback() */\n              tag_5\n                /* \"@openzeppelin/contracts/proxy/Proxy.sol\":2898:2907  _fallback */\n              tag_6\n                /* \"@openzeppelin/contracts/proxy/Proxy.sol\":2898:2909  _fallback() */\n              jump\t// in\n            tag_5:\n                /* \"@openzeppelin/contracts/proxy/transparent/TransparentUpgradeableProxy.sol\":3389:8340  contract TransparentUpgradeableProxy is ERC1967Proxy {... */\n              stop\n            tag_2:\n                /* \"@openzeppelin/contracts/proxy/Proxy.sol\":2675:2686  _fallback() */\n              tag_5\n                /* \"@openzeppelin/contracts/proxy/transparent/TransparentUpgradeableProxy.sol\":4407:5509  function _fallback() internal virtual override {... */\n            tag_6:\n                /* \"@openzeppelin/contracts/proxy/transparent/TransparentUpgradeableProxy.sol\":4482:4493  _getAdmin() */\n              tag_11\n                /* \"@openzeppelin/contracts/proxy/transparent/TransparentUpgradeableProxy.sol\":4482:4491  _getAdmin */\n              tag_12\n                /* \"@openzeppelin/contracts/proxy/transparent/TransparentUpgradeableProxy.sol\":4482:4493  _getAdmin() */\n              jump\t// in\n            tag_11:\n              sub(shl(0xa0, 0x01), 0x01)\n                /* \"@openzeppelin/contracts/proxy/transparent/TransparentUpgradeableProxy.sol\":4468:4493  msg.sender == _getAdmin() */\n              and\n                /* \"@openzeppelin/contracts/proxy/transparent/TransparentUpgradeableProxy.sol\":4468:4478  msg.sender */\n              caller\n                /* \"@openzeppelin/contracts/proxy/transparent/TransparentUpgradeableProxy.sol\":4468:4493  msg.sender == _getAdmin() */\n              sub\n                /* \"@openzeppelin/contracts/proxy/transparent/TransparentUpgradeableProxy.sol\":4464:5503  if (msg.sender == _getAdmin()) {... */\n              tag_13\n              jumpi\n                /* \"@openzeppelin/contracts/proxy/transparent/TransparentUpgradeableProxy.sol\":4509:4525  bytes memory ret */\n              0x60\n              not(sub(shl(0xe0, 0x01), 0x01))\n                /* \"@openzeppelin/contracts/proxy/transparent/TransparentUpgradeableProxy.sol\":4539:4554  bytes4 selector */\n              0x00\n                /* \"@openzeppelin/contracts/proxy/transparent/TransparentUpgradeableProxy.sol\":4557:4564  msg.sig */\n              calldataload\n              and\n              shl(0xe1, 0x64d3180d)\n                /* \"@openzeppelin/contracts/proxy/transparent/TransparentUpgradeableProxy.sol\":4582:4641  selector == ITransparentUpgradeableProxy.upgradeTo.selector */\n              dup2\n              add\n                /* \"@openzeppelin/contracts/proxy/transparent/TransparentUpgradeableProxy.sol\":4578:5357  if (selector == ITransparentUpgradeableProxy.upgradeTo.selector) {... */\n              tag_14\n              jumpi\n                /* \"@openzeppelin/contracts/proxy/transparent/TransparentUpgradeableProxy.sol\":4667:4687  _dispatchUpgradeTo() */\n              tag_15\n                /* \"@openzeppelin/contracts/proxy/transparent/TransparentUpgradeableProxy.sol\":4667:4685  _dispatchUpgradeTo */\n              tag_16\n                /* \"@openzeppelin/contracts/proxy/transparent/TransparentUpgradeableProxy.sol\":4667:4687  _dispatchUpgradeTo() */\n              jump\t// in\n            tag_15:\n                /* \"@openzeppelin/contracts/proxy/transparent/TransparentUpgradeableProxy.sol\":4661:4687  ret = _dispatchUpgradeTo() */\n              swap2\n              pop\n                /* \"@openzeppelin/contracts/proxy/transparent/TransparentUpgradeableProxy.sol\":4578:5357  if (selector == ITransparentUpgradeableProxy.upgradeTo.selector) {... */\n              jump(tag_33)\n            tag_14:\n              shl(0xe1, 0x587086bd)\n              not(sub(shl(0xe0, 0x01), 0x01))\n                /* \"@openzeppelin/contracts/proxy/transparent/TransparentUpgradeableProxy.sol\":4712:4778  selector == ITransparentUpgradeableProxy.upgradeToAndCall.selector */\n              dup3\n              and\n              add\n                /* \"@openzeppelin/contracts/proxy/transparent/TransparentUpgradeableProxy.sol\":4708:5357  if (selector == ITransparentUpgradeableProxy.upgradeToAndCall.selector) {... */\n              tag_18\n              jumpi\n                /* \"@openzeppelin/contracts/proxy/transparent/TransparentUpgradeableProxy.sol\":4804:4831  _dispatchUpgradeToAndCall() */\n              tag_15\n                /* \"@openzeppelin/contracts/proxy/transparent/TransparentUpgradeableProxy.sol\":4804:4829  _dispatchUpgradeToAndCall */\n              tag_20\n                /* \"@openzeppelin/contracts/proxy/transparent/TransparentUpgradeableProxy.sol\":4804:4831  _dispatchUpgradeToAndCall() */\n              jump\t// in\n                /* \"@openzeppelin/contracts/proxy/transparent/TransparentUpgradeableProxy.sol\":4708:5357  if (selector == ITransparentUpgradeableProxy.upgradeToAndCall.selector) {... */\n            tag_18:\n              shl(0xe4, 0x070d7c69)\n              not(sub(shl(0xe0, 0x01), 0x01))\n                /* \"@openzeppelin/contracts/proxy/transparent/TransparentUpgradeableProxy.sol\":4856:4917  selector == ITransparentUpgradeableProxy.changeAdmin.selector */\n              dup3\n              and\n              add\n                /* \"@openzeppelin/contracts/proxy/transparent/TransparentUpgradeableProxy.sol\":4852:5357  if (selector == ITransparentUpgradeableProxy.changeAdmin.selector) {... */\n              tag_22\n              jumpi\n                /* \"@openzeppelin/contracts/proxy/transparent/TransparentUpgradeableProxy.sol\":4943:4965  _dispatchChangeAdmin() */\n              tag_15\n                /* \"@openzeppelin/contracts/proxy/transparent/TransparentUpgradeableProxy.sol\":4943:4963  _dispatchChangeAdmin */\n              tag_24\n                /* \"@openzeppelin/contracts/proxy/transparent/TransparentUpgradeableProxy.sol\":4943:4965  _dispatchChangeAdmin() */\n              jump\t// in\n                /* \"@openzeppelin/contracts/proxy/transparent/TransparentUpgradeableProxy.sol\":4852:5357  if (selector == ITransparentUpgradeableProxy.changeAdmin.selector) {... */\n            tag_22:\n              shl(0xe6, 0x1eb96f)\n              not(sub(shl(0xe0, 0x01), 0x01))\n                /* \"@openzeppelin/contracts/proxy/transparent/TransparentUpgradeableProxy.sol\":4990:5045  selector == ITransparentUpgradeableProxy.admin.selector */\n              dup3\n              and\n              add\n                /* \"@openzeppelin/contracts/proxy/transparent/TransparentUpgradeableProxy.sol\":4986:5357  if (selector == ITransparentUpgradeableProxy.admin.selector) {... */\n              tag_26\n              jumpi\n                /* \"@openzeppelin/contracts/proxy/transparent/TransparentUpgradeableProxy.sol\":5071:5087  _dispatchAdmin() */\n              tag_15\n                /* \"@openzeppelin/contracts/proxy/transparent/TransparentUpgradeableProxy.sol\":5071:5085  _dispatchAdmin */\n              tag_28\n                /* \"@openzeppelin/contracts/proxy/transparent/TransparentUpgradeableProxy.sol\":5071:5087  _dispatchAdmin() */\n              jump\t// in\n                /* \"@openzeppelin/contracts/proxy/transparent/TransparentUpgradeableProxy.sol\":4986:5357  if (selector == ITransparentUpgradeableProxy.admin.selector) {... */\n            tag_26:\n              shl(0xe0, 0xa39f25e5)\n              not(sub(shl(0xe0, 0x01), 0x01))\n                /* \"@openzeppelin/contracts/proxy/transparent/TransparentUpgradeableProxy.sol\":5112:5176  selector == ITransparentUpgradeableProxy.implementation.selector */\n              dup3\n              and\n              add\n                /* \"@openzeppelin/contracts/proxy/transparent/TransparentUpgradeableProxy.sol\":5108:5357  if (selector == ITransparentUpgradeableProxy.implementation.selector) {... */\n              tag_30\n              jumpi\n                /* \"@openzeppelin/contracts/proxy/transparent/TransparentUpgradeableProxy.sol\":5202:5227  _dispatchImplementation() */\n              tag_15\n                /* \"@openzeppelin/contracts/proxy/transparent/TransparentUpgradeableProxy.sol\":5202:5225  _dispatchImplementation */\n              tag_32\n                /* \"@openzeppelin/contracts/proxy/transparent/TransparentUpgradeableProxy.sol\":5202:5227  _dispatchImplementation() */\n              jump\t// in\n                /* \"@openzeppelin/contracts/proxy/transparent/TransparentUpgradeableProxy.sol\":5108:5357  if (selector == ITransparentUpgradeableProxy.implementation.selector) {... */\n            tag_30:\n                /* \"@openzeppelin/contracts/proxy/transparent/TransparentUpgradeableProxy.sol\":5266:5342  revert(\"TransparentUpgradeableProxy: admin cannot fallback to proxy target\") */\n              mload(0x40)\n              shl(0xe5, 0x461bcd)\n              dup2\n              mstore\n                /* \"#utility.yul\":216:218   */\n              0x20\n                /* \"@openzeppelin/contracts/proxy/transparent/TransparentUpgradeableProxy.sol\":5266:5342  revert(\"TransparentUpgradeableProxy: admin cannot fallback to proxy target\") */\n              0x04\n              dup3\n              add\n                /* \"#utility.yul\":198:219   */\n              mstore\n                /* \"#utility.yul\":255:257   */\n              0x42\n                /* \"#utility.yul\":235:253   */\n              0x24\n              dup3\n              add\n                /* \"#utility.yul\":228:258   */\n              mstore\n                /* \"#utility.yul\":294:328   */\n              0x5472616e73706172656e745570677261646561626c6550726f78793a2061646d\n                /* \"#utility.yul\":274:292   */\n              0x44\n              dup3\n              add\n                /* \"#utility.yul\":267:329   */\n              mstore\n                /* \"#utility.yul\":365:399   */\n              0x696e2063616e6e6f742066616c6c6261636b20746f2070726f78792074617267\n                /* \"#utility.yul\":345:363   */\n              0x64\n              dup3\n              add\n                /* \"#utility.yul\":338:400   */\n              mstore\n              shl(0xf2, 0x195d)\n                /* \"#utility.yul\":416:435   */\n              0x84\n              dup3\n              add\n                /* \"#utility.yul\":409:442   */\n              mstore\n                /* \"#utility.yul\":459:478   */\n              0xa4\n              add\n                /* \"@openzeppelin/contracts/proxy/transparent/TransparentUpgradeableProxy.sol\":5266:5342  revert(\"TransparentUpgradeableProxy: admin cannot fallback to proxy target\") */\n            tag_34:\n              mload(0x40)\n              dup1\n              swap2\n              sub\n              swap1\n              revert\n                /* \"@openzeppelin/contracts/proxy/transparent/TransparentUpgradeableProxy.sol\":5108:5357  if (selector == ITransparentUpgradeableProxy.implementation.selector) {... */\n            tag_33:\n                /* \"@openzeppelin/contracts/proxy/transparent/TransparentUpgradeableProxy.sol\":5426:5429  ret */\n              dup2\n                /* \"@openzeppelin/contracts/proxy/transparent/TransparentUpgradeableProxy.sol\":5420:5430  mload(ret) */\n              mload\n                /* \"@openzeppelin/contracts/proxy/transparent/TransparentUpgradeableProxy.sol\":5413:5417  0x20 */\n              0x20\n                /* \"@openzeppelin/contracts/proxy/transparent/TransparentUpgradeableProxy.sol\":5408:5411  ret */\n              dup4\n                /* \"@openzeppelin/contracts/proxy/transparent/TransparentUpgradeableProxy.sol\":5404:5418  add(ret, 0x20) */\n              add\n                /* \"@openzeppelin/contracts/proxy/transparent/TransparentUpgradeableProxy.sol\":5397:5431  return(add(ret, 0x20), mload(ret)) */\n              return\n                /* \"@openzeppelin/contracts/proxy/transparent/TransparentUpgradeableProxy.sol\":4464:5503  if (msg.sender == _getAdmin()) {... */\n            tag_13:\n                /* \"@openzeppelin/contracts/proxy/transparent/TransparentUpgradeableProxy.sol\":5475:5492  super._fallback() */\n              tag_37\n                /* \"@openzeppelin/contracts/proxy/transparent/TransparentUpgradeableProxy.sol\":5475:5490  super._fallback */\n              tag_38\n                /* \"@openzeppelin/contracts/proxy/transparent/TransparentUpgradeableProxy.sol\":5475:5492  super._fallback() */\n              jump\t// in\n            tag_37:\n                /* \"@openzeppelin/contracts/proxy/transparent/TransparentUpgradeableProxy.sol\":4407:5509  function _fallback() internal virtual override {... */\n              jump\t// out\n                /* \"@openzeppelin/contracts/proxy/ERC1967/ERC1967Upgrade.sol\":3784:3906  function _getAdmin() internal view returns (address) {... */\n            tag_12:\n                /* \"@openzeppelin/contracts/proxy/ERC1967/ERC1967Upgrade.sol\":3828:3835  address */\n              0x00\n                /* \"@openzeppelin/contracts/proxy/ERC1967/ERC1967Upgrade.sol\":3656:3722  0xb53127684a568b3173ae13b9f8a6016e243e63b6e8ee1178d6a717850b5d6103 */\n              0xb53127684a568b3173ae13b9f8a6016e243e63b6e8ee1178d6a717850b5d6103\n                /* \"@openzeppelin/contracts/proxy/ERC1967/ERC1967Upgrade.sol\":3854:3893  StorageSlot.getAddressSlot(_ADMIN_SLOT) */\n            tag_40:\n                /* \"@openzeppelin/contracts/proxy/ERC1967/ERC1967Upgrade.sol\":3854:3899  StorageSlot.getAddressSlot(_ADMIN_SLOT).value */\n              sload\n              sub(shl(0xa0, 0x01), 0x01)\n              and\n              swap2\n                /* \"@openzeppelin/contracts/proxy/ERC1967/ERC1967Upgrade.sol\":3784:3906  function _getAdmin() internal view returns (address) {... */\n              swap1\n              pop\n              jump\t// out\n                /* \"@openzeppelin/contracts/proxy/transparent/TransparentUpgradeableProxy.sol\":6985:7240  function _dispatchUpgradeTo() private returns (bytes memory) {... */\n            tag_16:\n                /* \"@openzeppelin/contracts/proxy/transparent/TransparentUpgradeableProxy.sol\":7032:7044  bytes memory */\n              0x60\n                /* \"@openzeppelin/contracts/proxy/transparent/TransparentUpgradeableProxy.sol\":7056:7075  _requireZeroValue() */\n              tag_43\n                /* \"@openzeppelin/contracts/proxy/transparent/TransparentUpgradeableProxy.sol\":7056:7073  _requireZeroValue */\n              tag_44\n                /* \"@openzeppelin/contracts/proxy/transparent/TransparentUpgradeableProxy.sol\":7056:7075  _requireZeroValue() */\n              jump\t// in\n            tag_43:\n                /* \"@openzeppelin/contracts/proxy/transparent/TransparentUpgradeableProxy.sol\":7086:7111  address newImplementation */\n              0x00\n                /* \"@openzeppelin/contracts/proxy/transparent/TransparentUpgradeableProxy.sol\":7125:7137  msg.data[4:] */\n              tag_45\n                /* \"@openzeppelin/contracts/proxy/transparent/TransparentUpgradeableProxy.sol\":7125:7133  msg.data */\n              calldatasize\n                /* \"@openzeppelin/contracts/proxy/transparent/TransparentUpgradeableProxy.sol\":7134:7135  4 */\n              0x04\n                /* \"@openzeppelin/contracts/proxy/transparent/TransparentUpgradeableProxy.sol\":7125:7133  msg.data */\n              dup2\n                /* \"@openzeppelin/contracts/proxy/transparent/TransparentUpgradeableProxy.sol\":7086:7111  address newImplementation */\n              dup5\n                /* \"@openzeppelin/contracts/proxy/transparent/TransparentUpgradeableProxy.sol\":7125:7137  msg.data[4:] */\n              tag_46\n              jump\t// in\n            tag_45:\n                /* \"@openzeppelin/contracts/proxy/transparent/TransparentUpgradeableProxy.sol\":7114:7149  abi.decode(msg.data[4:], (address)) */\n              dup2\n              add\n              swap1\n              tag_47\n              swap2\n              swap1\n              tag_48\n              jump\t// in\n            tag_47:\n                /* \"@openzeppelin/contracts/proxy/transparent/TransparentUpgradeableProxy.sol\":7086:7149  address newImplementation = abi.decode(msg.data[4:], (address)) */\n              swap1\n              pop\n                /* \"@openzeppelin/contracts/proxy/transparent/TransparentUpgradeableProxy.sol\":7159:7213  _upgradeToAndCall(newImplementation, bytes(\"\"), false) */\n              tag_49\n                /* \"@openzeppelin/contracts/proxy/transparent/TransparentUpgradeableProxy.sol\":7177:7194  newImplementation */\n              dup2\n                /* \"@openzeppelin/contracts/proxy/transparent/TransparentUpgradeableProxy.sol\":7196:7205  bytes(\"\") */\n              mload(0x40)\n              dup1\n              0x20\n              add\n              0x40\n              mstore\n              dup1\n              0x00\n              dup2\n              mstore\n              pop\n                /* \"@openzeppelin/contracts/proxy/transparent/TransparentUpgradeableProxy.sol\":7207:7212  false */\n              0x00\n                /* \"@openzeppelin/contracts/proxy/transparent/TransparentUpgradeableProxy.sol\":7159:7176  _upgradeToAndCall */\n              tag_50\n                /* \"@openzeppelin/contracts/proxy/transparent/TransparentUpgradeableProxy.sol\":7159:7213  _upgradeToAndCall(newImplementation, bytes(\"\"), false) */\n              jump\t// in\n            tag_49:\n              pop\n              pop\n                /* \"@openzeppelin/contracts/proxy/transparent/TransparentUpgradeableProxy.sol\":7224:7233  return \"\" */\n              0x40\n              dup1\n              mload\n              0x20\n              dup2\n              add\n              swap1\n              swap2\n              mstore\n              0x00\n              dup2\n              mstore\n              swap1\n                /* \"@openzeppelin/contracts/proxy/transparent/TransparentUpgradeableProxy.sol\":6985:7240  function _dispatchUpgradeTo() private returns (bytes memory) {... */\n              jump\t// out\n                /* \"@openzeppelin/contracts/proxy/transparent/TransparentUpgradeableProxy.sol\":7524:7778  function _dispatchUpgradeToAndCall() private returns (bytes memory) {... */\n            tag_20:\n                /* \"@openzeppelin/contracts/proxy/transparent/TransparentUpgradeableProxy.sol\":7578:7590  bytes memory */\n              0x60\n                /* \"@openzeppelin/contracts/proxy/transparent/TransparentUpgradeableProxy.sol\":7603:7628  address newImplementation */\n              0x00\n              dup1\n                /* \"@openzeppelin/contracts/proxy/transparent/TransparentUpgradeableProxy.sol\":7662:7674  msg.data[4:] */\n              tag_52\n                /* \"@openzeppelin/contracts/proxy/transparent/TransparentUpgradeableProxy.sol\":7662:7670  msg.data */\n              calldatasize\n                /* \"@openzeppelin/contracts/proxy/transparent/TransparentUpgradeableProxy.sol\":7671:7672  4 */\n              0x04\n                /* \"@openzeppelin/contracts/proxy/transparent/TransparentUpgradeableProxy.sol\":7662:7670  msg.data */\n              dup2\n                /* \"@openzeppelin/contracts/proxy/transparent/TransparentUpgradeableProxy.sol\":7603:7628  address newImplementation */\n              dup5\n                /* \"@openzeppelin/contracts/proxy/transparent/TransparentUpgradeableProxy.sol\":7662:7674  msg.data[4:] */\n              tag_46\n              jump\t// in\n            tag_52:\n                /* \"@openzeppelin/contracts/proxy/transparent/TransparentUpgradeableProxy.sol\":7651:7693  abi.decode(msg.data[4:], (address, bytes)) */\n              dup2\n              add\n              swap1\n              tag_53\n              swap2\n              swap1\n              tag_54\n              jump\t// in\n            tag_53:\n                /* \"@openzeppelin/contracts/proxy/transparent/TransparentUpgradeableProxy.sol\":7602:7693  (address newImplementation, bytes memory data) = abi.decode(msg.data[4:], (address, bytes)) */\n              swap2\n              pop\n              swap2\n              pop\n                /* \"@openzeppelin/contracts/proxy/transparent/TransparentUpgradeableProxy.sol\":7703:7751  _upgradeToAndCall(newImplementation, data, true) */\n              tag_55\n                /* \"@openzeppelin/contracts/proxy/transparent/TransparentUpgradeableProxy.sol\":7721:7738  newImplementation */\n              dup3\n                /* \"@openzeppelin/contracts/proxy/transparent/TransparentUpgradeableProxy.sol\":7740:7744  data */\n              dup3\n                /* \"@openzeppelin/contracts/proxy/transparent/TransparentUpgradeableProxy.sol\":7746:7750  true */\n              0x01\n                /* \"@openzeppelin/contracts/proxy/transparent/TransparentUpgradeableProxy.sol\":7703:7720  _upgradeToAndCall */\n              tag_50\n                /* \"@openzeppelin/contracts/proxy/transparent/TransparentUpgradeableProxy.sol\":7703:7751  _upgradeToAndCall(newImplementation, data, true) */\n              jump\t// in\n            tag_55:\n                /* \"@openzeppelin/contracts/proxy/transparent/TransparentUpgradeableProxy.sol\":7762:7771  return \"\" */\n              mload(0x40)\n              dup1\n              0x20\n              add\n              0x40\n              mstore\n              dup1\n              0x00\n              dup2\n              mstore\n              pop\n              swap3\n              pop\n              pop\n              pop\n                /* \"@openzeppelin/contracts/proxy/transparent/TransparentUpgradeableProxy.sol\":7524:7778  function _dispatchUpgradeToAndCall() private returns (bytes memory) {... */\n              swap1\n              jump\t// out\n                /* \"@openzeppelin/contracts/proxy/transparent/TransparentUpgradeableProxy.sol\":6694:6910  function _dispatchChangeAdmin() private returns (bytes memory) {... */\n            tag_24:\n                /* \"@openzeppelin/contracts/proxy/transparent/TransparentUpgradeableProxy.sol\":6743:6755  bytes memory */\n              0x60\n                /* \"@openzeppelin/contracts/proxy/transparent/TransparentUpgradeableProxy.sol\":6767:6786  _requireZeroValue() */\n              tag_57\n                /* \"@openzeppelin/contracts/proxy/transparent/TransparentUpgradeableProxy.sol\":6767:6784  _requireZeroValue */\n              tag_44\n                /* \"@openzeppelin/contracts/proxy/transparent/TransparentUpgradeableProxy.sol\":6767:6786  _requireZeroValue() */\n              jump\t// in\n            tag_57:\n                /* \"@openzeppelin/contracts/proxy/transparent/TransparentUpgradeableProxy.sol\":6797:6813  address newAdmin */\n              0x00\n                /* \"@openzeppelin/contracts/proxy/transparent/TransparentUpgradeableProxy.sol\":6827:6839  msg.data[4:] */\n              tag_58\n                /* \"@openzeppelin/contracts/proxy/transparent/TransparentUpgradeableProxy.sol\":6827:6835  msg.data */\n              calldatasize\n                /* \"@openzeppelin/contracts/proxy/transparent/TransparentUpgradeableProxy.sol\":6836:6837  4 */\n              0x04\n                /* \"@openzeppelin/contracts/proxy/transparent/TransparentUpgradeableProxy.sol\":6827:6835  msg.data */\n              dup2\n                /* \"@openzeppelin/contracts/proxy/transparent/TransparentUpgradeableProxy.sol\":6797:6813  address newAdmin */\n              dup5\n                /* \"@openzeppelin/contracts/proxy/transparent/TransparentUpgradeableProxy.sol\":6827:6839  msg.data[4:] */\n              tag_46\n              jump\t// in\n            tag_58:\n                /* \"@openzeppelin/contracts/proxy/transparent/TransparentUpgradeableProxy.sol\":6816:6851  abi.decode(msg.data[4:], (address)) */\n              dup2\n              add\n              swap1\n              tag_59\n              swap2\n              swap1\n              tag_48\n              jump\t// in\n            tag_59:\n                /* \"@openzeppelin/contracts/proxy/transparent/TransparentUpgradeableProxy.sol\":6797:6851  address newAdmin = abi.decode(msg.data[4:], (address)) */\n              swap1\n              pop\n                /* \"@openzeppelin/contracts/proxy/transparent/TransparentUpgradeableProxy.sol\":6861:6883  _changeAdmin(newAdmin) */\n              tag_49\n                /* \"@openzeppelin/contracts/proxy/transparent/TransparentUpgradeableProxy.sol\":6874:6882  newAdmin */\n              dup2\n                /* \"@openzeppelin/contracts/proxy/transparent/TransparentUpgradeableProxy.sol\":6861:6873  _changeAdmin */\n              tag_61\n                /* \"@openzeppelin/contracts/proxy/transparent/TransparentUpgradeableProxy.sol\":6861:6883  _changeAdmin(newAdmin) */\n              jump\t// in\n                /* \"@openzeppelin/contracts/proxy/transparent/TransparentUpgradeableProxy.sol\":5860:6025  function _dispatchAdmin() private returns (bytes memory) {... */\n            tag_28:\n                /* \"@openzeppelin/contracts/proxy/transparent/TransparentUpgradeableProxy.sol\":5903:5915  bytes memory */\n              0x60\n                /* \"@openzeppelin/contracts/proxy/transparent/TransparentUpgradeableProxy.sol\":5927:5946  _requireZeroValue() */\n              tag_63\n                /* \"@openzeppelin/contracts/proxy/transparent/TransparentUpgradeableProxy.sol\":5927:5944  _requireZeroValue */\n              tag_44\n                /* \"@openzeppelin/contracts/proxy/transparent/TransparentUpgradeableProxy.sol\":5927:5946  _requireZeroValue() */\n              jump\t// in\n            tag_63:\n                /* \"@openzeppelin/contracts/proxy/transparent/TransparentUpgradeableProxy.sol\":5957:5970  address admin */\n              0x00\n                /* \"@openzeppelin/contracts/proxy/transparent/TransparentUpgradeableProxy.sol\":5973:5984  _getAdmin() */\n              tag_64\n                /* \"@openzeppelin/contracts/proxy/transparent/TransparentUpgradeableProxy.sol\":5973:5982  _getAdmin */\n              tag_12\n                /* \"@openzeppelin/contracts/proxy/transparent/TransparentUpgradeableProxy.sol\":5973:5984  _getAdmin() */\n              jump\t// in\n            tag_64:\n                /* \"@openzeppelin/contracts/proxy/transparent/TransparentUpgradeableProxy.sol\":6001:6018  abi.encode(admin) */\n              0x40\n              dup1\n              mload\n              sub(shl(0xa0, 0x01), 0x01)\n                /* \"#utility.yul\":2530:2562   */\n              dup4\n              and\n                /* \"@openzeppelin/contracts/proxy/transparent/TransparentUpgradeableProxy.sol\":6001:6018  abi.encode(admin) */\n              0x20\n              dup3\n              add\n                /* \"#utility.yul\":2512:2563   */\n              mstore\n                /* \"@openzeppelin/contracts/proxy/transparent/TransparentUpgradeableProxy.sol\":5957:5984  address admin = _getAdmin() */\n              swap2\n              swap3\n              pop\n                /* \"#utility.yul\":2485:2503   */\n              add\n                /* \"@openzeppelin/contracts/proxy/transparent/TransparentUpgradeableProxy.sol\":6001:6018  abi.encode(admin) */\n              mload(0x40)\n              0x20\n              dup2\n              dup4\n              sub\n              sub\n              dup2\n              mstore\n              swap1\n              0x40\n              mstore\n                /* \"@openzeppelin/contracts/proxy/transparent/TransparentUpgradeableProxy.sol\":5994:6018  return abi.encode(admin) */\n              swap2\n              pop\n              pop\n                /* \"@openzeppelin/contracts/proxy/transparent/TransparentUpgradeableProxy.sol\":5860:6025  function _dispatchAdmin() private returns (bytes memory) {... */\n              swap1\n              jump\t// out\n                /* \"@openzeppelin/contracts/proxy/transparent/TransparentUpgradeableProxy.sol\":6385:6583  function _dispatchImplementation() private returns (bytes memory) {... */\n            tag_32:\n                /* \"@openzeppelin/contracts/proxy/transparent/TransparentUpgradeableProxy.sol\":6437:6449  bytes memory */\n              0x60\n                /* \"@openzeppelin/contracts/proxy/transparent/TransparentUpgradeableProxy.sol\":6461:6480  _requireZeroValue() */\n              tag_68\n                /* \"@openzeppelin/contracts/proxy/transparent/TransparentUpgradeableProxy.sol\":6461:6478  _requireZeroValue */\n              tag_44\n                /* \"@openzeppelin/contracts/proxy/transparent/TransparentUpgradeableProxy.sol\":6461:6480  _requireZeroValue() */\n              jump\t// in\n            tag_68:\n                /* \"@openzeppelin/contracts/proxy/transparent/TransparentUpgradeableProxy.sol\":6491:6513  address implementation */\n              0x00\n                /* \"@openzeppelin/contracts/proxy/transparent/TransparentUpgradeableProxy.sol\":6516:6533  _implementation() */\n              tag_64\n                /* \"@openzeppelin/contracts/proxy/transparent/TransparentUpgradeableProxy.sol\":6516:6531  _implementation */\n              tag_70\n                /* \"@openzeppelin/contracts/proxy/transparent/TransparentUpgradeableProxy.sol\":6516:6533  _implementation() */\n              jump\t// in\n                /* \"@openzeppelin/contracts/proxy/Proxy.sol\":2322:2432  function _fallback() internal virtual {... */\n            tag_38:\n                /* \"@openzeppelin/contracts/proxy/Proxy.sol\":2397:2425  _delegate(_implementation()) */\n              tag_37\n                /* \"@openzeppelin/contracts/proxy/Proxy.sol\":2407:2424  _implementation() */\n              tag_76\n                /* \"@openzeppelin/contracts/proxy/Proxy.sol\":2407:2422  _implementation */\n              tag_70\n                /* \"@openzeppelin/contracts/proxy/Proxy.sol\":2407:2424  _implementation() */\n              jump\t// in\n            tag_76:\n                /* \"@openzeppelin/contracts/proxy/Proxy.sol\":2397:2406  _delegate */\n              tag_77\n                /* \"@openzeppelin/contracts/proxy/Proxy.sol\":2397:2425  _delegate(_implementation()) */\n              jump\t// in\n                /* \"@openzeppelin/contracts/proxy/transparent/TransparentUpgradeableProxy.sol\":8261:8338  function _requireZeroValue() private {... */\n            tag_44:\n                /* \"@openzeppelin/contracts/proxy/transparent/TransparentUpgradeableProxy.sol\":8316:8325  msg.value */\n              callvalue\n                /* \"@openzeppelin/contracts/proxy/transparent/TransparentUpgradeableProxy.sol\":8316:8330  msg.value == 0 */\n              iszero\n                /* \"@openzeppelin/contracts/proxy/transparent/TransparentUpgradeableProxy.sol\":8308:8331  require(msg.value == 0) */\n              tag_37\n              jumpi\n              0x00\n              dup1\n              revert\n                /* \"@openzeppelin/contracts/proxy/ERC1967/ERC1967Upgrade.sol\":2057:2322  function _upgradeToAndCall(address newImplementation, bytes memory data, bool forceCall) internal {... */\n            tag_50:\n                /* \"@openzeppelin/contracts/proxy/ERC1967/ERC1967Upgrade.sol\":2165:2194  _upgradeTo(newImplementation) */\n              tag_82\n                /* \"@openzeppelin/contracts/proxy/ERC1967/ERC1967Upgrade.sol\":2176:2193  newImplementation */\n              dup4\n                /* \"@openzeppelin/contracts/proxy/ERC1967/ERC1967Upgrade.sol\":2165:2175  _upgradeTo */\n              tag_83\n                /* \"@openzeppelin/contracts/proxy/ERC1967/ERC1967Upgrade.sol\":2165:2194  _upgradeTo(newImplementation) */\n              jump\t// in\n            tag_82:\n                /* \"@openzeppelin/contracts/proxy/ERC1967/ERC1967Upgrade.sol\":2222:2223  0 */\n              0x00\n                /* \"@openzeppelin/contracts/proxy/ERC1967/ERC1967Upgrade.sol\":2208:2212  data */\n              dup3\n                /* \"@openzeppelin/contracts/proxy/ERC1967/ERC1967Upgrade.sol\":2208:2219  data.length */\n              mload\n                /* \"@openzeppelin/contracts/proxy/ERC1967/ERC1967Upgrade.sol\":2208:2223  data.length > 0 */\n              gt\n                /* \"@openzeppelin/contracts/proxy/ERC1967/ERC1967Upgrade.sol\":2208:2236  data.length > 0 || forceCall */\n              dup1\n              tag_84\n              jumpi\n              pop\n                /* \"@openzeppelin/contracts/proxy/ERC1967/ERC1967Upgrade.sol\":2227:2236  forceCall */\n              dup1\n                /* \"@openzeppelin/contracts/proxy/ERC1967/ERC1967Upgrade.sol\":2208:2236  data.length > 0 || forceCall */\n            tag_84:\n                /* \"@openzeppelin/contracts/proxy/ERC1967/ERC1967Upgrade.sol\":2204:2316  if (data.length > 0 || forceCall) {... */\n              iszero\n              tag_85\n              jumpi\n                /* \"@openzeppelin/contracts/proxy/ERC1967/ERC1967Upgrade.sol\":2252:2305  Address.functionDelegateCall(newImplementation, data) */\n              tag_86\n                /* \"@openzeppelin/contracts/proxy/ERC1967/ERC1967Upgrade.sol\":2281:2298  newImplementation */\n              dup4\n                /* \"@openzeppelin/contracts/proxy/ERC1967/ERC1967Upgrade.sol\":2300:2304  data */\n              dup4\n                /* \"@openzeppelin/contracts/proxy/ERC1967/ERC1967Upgrade.sol\":2252:2280  Address.functionDelegateCall */\n              tag_87\n                /* \"@openzeppelin/contracts/proxy/ERC1967/ERC1967Upgrade.sol\":2252:2305  Address.functionDelegateCall(newImplementation, data) */\n              jump\t// in\n            tag_86:\n              pop\n                /* \"@openzeppelin/contracts/proxy/ERC1967/ERC1967Upgrade.sol\":2204:2316  if (data.length > 0 || forceCall) {... */\n            tag_85:\n                /* \"@openzeppelin/contracts/proxy/ERC1967/ERC1967Upgrade.sol\":2057:2322  function _upgradeToAndCall(address newImplementation, bytes memory data, bool forceCall) internal {... */\n              pop\n              pop\n              pop\n              jump\t// out\n                /* \"@openzeppelin/contracts/proxy/ERC1967/ERC1967Upgrade.sol\":4300:4435  function _changeAdmin(address newAdmin) internal {... */\n            tag_61:\n                /* \"@openzeppelin/contracts/proxy/ERC1967/ERC1967Upgrade.sol\":4364:4399  AdminChanged(_getAdmin(), newAdmin) */\n              0x7e644d79422f17c01e4894b5f4f588d331ebfa28653d42ae832dc59e38c9798f\n                /* \"@openzeppelin/contracts/proxy/ERC1967/ERC1967Upgrade.sol\":4377:4388  _getAdmin() */\n              tag_89\n                /* \"@openzeppelin/contracts/proxy/ERC1967/ERC1967Upgrade.sol\":4377:4386  _getAdmin */\n              tag_12\n                /* \"@openzeppelin/contracts/proxy/ERC1967/ERC1967Upgrade.sol\":4377:4388  _getAdmin() */\n              jump\t// in\n            tag_89:\n                /* \"@openzeppelin/contracts/proxy/ERC1967/ERC1967Upgrade.sol\":4364:4399  AdminChanged(_getAdmin(), newAdmin) */\n              0x40\n              dup1\n              mload\n              sub(shl(0xa0, 0x01), 0x01)\n                /* \"#utility.yul\":2804:2819   */\n              swap3\n              dup4\n              and\n                /* \"#utility.yul\":2786:2820   */\n              dup2\n              mstore\n                /* \"#utility.yul\":2856:2871   */\n              swap2\n              dup5\n              and\n                /* \"#utility.yul\":2851:2853   */\n              0x20\n                /* \"#utility.yul\":2836:2854   */\n              dup4\n              add\n                /* \"#utility.yul\":2829:2872   */\n              mstore\n                /* \"#utility.yul\":2721:2739   */\n              add\n                /* \"@openzeppelin/contracts/proxy/ERC1967/ERC1967Upgrade.sol\":4364:4399  AdminChanged(_getAdmin(), newAdmin) */\n              mload(0x40)\n              dup1\n              swap2\n              sub\n              swap1\n              log1\n                /* \"@openzeppelin/contracts/proxy/ERC1967/ERC1967Upgrade.sol\":4409:4428  _setAdmin(newAdmin) */\n              tag_92\n                /* \"@openzeppelin/contracts/proxy/ERC1967/ERC1967Upgrade.sol\":4419:4427  newAdmin */\n              dup2\n                /* \"@openzeppelin/contracts/proxy/ERC1967/ERC1967Upgrade.sol\":4409:4418  _setAdmin */\n              tag_93\n                /* \"@openzeppelin/contracts/proxy/ERC1967/ERC1967Upgrade.sol\":4409:4428  _setAdmin(newAdmin) */\n              jump\t// in\n            tag_92:\n                /* \"@openzeppelin/contracts/proxy/ERC1967/ERC1967Upgrade.sol\":4300:4435  function _changeAdmin(address newAdmin) internal {... */\n              pop\n              jump\t// out\n                /* \"@openzeppelin/contracts/proxy/ERC1967/ERC1967Proxy.sol\":1148:1288  function _implementation() internal view virtual override returns (address impl) {... */\n            tag_70:\n                /* \"@openzeppelin/contracts/proxy/ERC1967/ERC1967Proxy.sol\":1215:1227  address impl */\n              0x00\n                /* \"@openzeppelin/contracts/proxy/ERC1967/ERC1967Proxy.sol\":1246:1281  ERC1967Upgrade._getImplementation() */\n              tag_95\n                /* \"@openzeppelin/contracts/proxy/ERC1967/ERC1967Proxy.sol\":1246:1279  ERC1967Upgrade._getImplementation */\n              tag_96\n                /* \"@openzeppelin/contracts/proxy/ERC1967/ERC1967Proxy.sol\":1246:1281  ERC1967Upgrade._getImplementation() */\n              jump\t// in\n            tag_95:\n                /* \"@openzeppelin/contracts/proxy/ERC1967/ERC1967Proxy.sol\":1239:1281  return ERC1967Upgrade._getImplementation() */\n              swap1\n              pop\n                /* \"@openzeppelin/contracts/proxy/ERC1967/ERC1967Proxy.sol\":1148:1288  function _implementation() internal view virtual override returns (address impl) {... */\n              swap1\n              jump\t// out\n                /* \"@openzeppelin/contracts/proxy/Proxy.sol\":948:1843  function _delegate(address implementation) internal virtual {... */\n            tag_77:\n                /* \"@openzeppelin/contracts/proxy/Proxy.sol\":1286:1300  calldatasize() */\n              calldatasize\n                /* \"@openzeppelin/contracts/proxy/Proxy.sol\":1283:1284  0 */\n              0x00\n                /* \"@openzeppelin/contracts/proxy/Proxy.sol\":1280:1281  0 */\n              dup1\n                /* \"@openzeppelin/contracts/proxy/Proxy.sol\":1267:1301  calldatacopy(0, 0, calldatasize()) */\n              calldatacopy\n                /* \"@openzeppelin/contracts/proxy/Proxy.sol\":1500:1501  0 */\n              0x00\n                /* \"@openzeppelin/contracts/proxy/Proxy.sol\":1497:1498  0 */\n              dup1\n                /* \"@openzeppelin/contracts/proxy/Proxy.sol\":1481:1495  calldatasize() */\n              calldatasize\n                /* \"@openzeppelin/contracts/proxy/Proxy.sol\":1478:1479  0 */\n              0x00\n                /* \"@openzeppelin/contracts/proxy/Proxy.sol\":1462:1476  implementation */\n              dup5\n                /* \"@openzeppelin/contracts/proxy/Proxy.sol\":1455:1460  gas() */\n              gas\n                /* \"@openzeppelin/contracts/proxy/Proxy.sol\":1442:1502  delegatecall(gas(), implementation, 0, calldatasize(), 0, 0) */\n              delegatecall\n                /* \"@openzeppelin/contracts/proxy/Proxy.sol\":1576:1592  returndatasize() */\n              returndatasize\n                /* \"@openzeppelin/contracts/proxy/Proxy.sol\":1573:1574  0 */\n              0x00\n                /* \"@openzeppelin/contracts/proxy/Proxy.sol\":1570:1571  0 */\n              dup1\n                /* \"@openzeppelin/contracts/proxy/Proxy.sol\":1555:1593  returndatacopy(0, 0, returndatasize()) */\n              returndatacopy\n                /* \"@openzeppelin/contracts/proxy/Proxy.sol\":1614:1620  result */\n              dup1\n                /* \"@openzeppelin/contracts/proxy/Proxy.sol\":1681:1747  case 0 {... */\n              dup1\n              iszero\n              tag_100\n              jumpi\n                /* \"@openzeppelin/contracts/proxy/Proxy.sol\":1796:1812  returndatasize() */\n              returndatasize\n                /* \"@openzeppelin/contracts/proxy/Proxy.sol\":1793:1794  0 */\n              0x00\n                /* \"@openzeppelin/contracts/proxy/Proxy.sol\":1786:1813  return(0, returndatasize()) */\n              return\n                /* \"@openzeppelin/contracts/proxy/Proxy.sol\":1681:1747  case 0 {... */\n            tag_100:\n                /* \"@openzeppelin/contracts/proxy/Proxy.sol\":1716:1732  returndatasize() */\n              returndatasize\n                /* \"@openzeppelin/contracts/proxy/Proxy.sol\":1713:1714  0 */\n              0x00\n                /* \"@openzeppelin/contracts/proxy/Proxy.sol\":1706:1733  revert(0, returndatasize()) */\n              revert\n                /* \"@openzeppelin/contracts/proxy/ERC1967/ERC1967Upgrade.sol\":1771:1923  function _upgradeTo(address newImplementation) internal {... */\n            tag_83:\n                /* \"@openzeppelin/contracts/proxy/ERC1967/ERC1967Upgrade.sol\":1837:1874  _setImplementation(newImplementation) */\n              tag_102\n                /* \"@openzeppelin/contracts/proxy/ERC1967/ERC1967Upgrade.sol\":1856:1873  newImplementation */\n              dup2\n                /* \"@openzeppelin/contracts/proxy/ERC1967/ERC1967Upgrade.sol\":1837:1855  _setImplementation */\n              tag_103\n                /* \"@openzeppelin/contracts/proxy/ERC1967/ERC1967Upgrade.sol\":1837:1874  _setImplementation(newImplementation) */\n              jump\t// in\n            tag_102:\n                /* \"@openzeppelin/contracts/proxy/ERC1967/ERC1967Upgrade.sol\":1889:1916  Upgraded(newImplementation) */\n              mload(0x40)\n              sub(shl(0xa0, 0x01), 0x01)\n              dup3\n              and\n              swap1\n              0xbc7cd75a20ee27fd9adebab32041f755214dbc6bffa90cc0225b39da2e5c2d3b\n              swap1\n              0x00\n              swap1\n              log2\n                /* \"@openzeppelin/contracts/proxy/ERC1967/ERC1967Upgrade.sol\":1771:1923  function _upgradeTo(address newImplementation) internal {... */\n              pop\n              jump\t// out\n                /* \"@openzeppelin/contracts/utils/Address.sol\":6674:6872  function functionDelegateCall(address target, bytes memory data) internal returns (bytes memory) {... */\n            tag_87:\n                /* \"@openzeppelin/contracts/utils/Address.sol\":6757:6769  bytes memory */\n              0x60\n                /* \"@openzeppelin/contracts/utils/Address.sol\":6788:6865  functionDelegateCall(target, data, \"Address: low-level delegate call failed\") */\n              tag_105\n                /* \"@openzeppelin/contracts/utils/Address.sol\":6809:6815  target */\n              dup4\n                /* \"@openzeppelin/contracts/utils/Address.sol\":6817:6821  data */\n              dup4\n                /* \"@openzeppelin/contracts/utils/Address.sol\":6788:6865  functionDelegateCall(target, data, \"Address: low-level delegate call failed\") */\n              mload(0x40)\n              dup1\n              0x60\n              add\n              0x40\n              mstore\n              dup1\n              0x27\n              dup2\n              mstore\n              0x20\n              add\n              data_9fdcd12e4b726339b32a442b0a448365d5d85c96b2d2cff917b4f66c63110398\n              0x27\n              swap2\n              codecopy\n                /* \"@openzeppelin/contracts/utils/Address.sol\":6788:6808  functionDelegateCall */\n              tag_106\n                /* \"@openzeppelin/contracts/utils/Address.sol\":6788:6865  functionDelegateCall(target, data, \"Address: low-level delegate call failed\") */\n              jump\t// in\n            tag_105:\n                /* \"@openzeppelin/contracts/utils/Address.sol\":6781:6865  return functionDelegateCall(target, data, \"Address: low-level delegate call failed\") */\n              swap4\n                /* \"@openzeppelin/contracts/utils/Address.sol\":6674:6872  function functionDelegateCall(address target, bytes memory data) internal returns (bytes memory) {... */\n              swap3\n              pop\n              pop\n              pop\n              jump\t// out\n                /* \"@openzeppelin/contracts/proxy/ERC1967/ERC1967Upgrade.sol\":3988:4189  function _setAdmin(address newAdmin) private {... */\n            tag_93:\n              sub(shl(0xa0, 0x01), 0x01)\n                /* \"@openzeppelin/contracts/proxy/ERC1967/ERC1967Upgrade.sol\":4051:4073  newAdmin != address(0) */\n              dup2\n              and\n                /* \"@openzeppelin/contracts/proxy/ERC1967/ERC1967Upgrade.sol\":4043:4116  require(newAdmin != address(0), \"ERC1967: new admin is the zero address\") */\n              tag_108\n              jumpi\n              mload(0x40)\n              shl(0xe5, 0x461bcd)\n              dup2\n              mstore\n                /* \"#utility.yul\":3085:3087   */\n              0x20\n                /* \"@openzeppelin/contracts/proxy/ERC1967/ERC1967Upgrade.sol\":4043:4116  require(newAdmin != address(0), \"ERC1967: new admin is the zero address\") */\n              0x04\n              dup3\n              add\n                /* \"#utility.yul\":3067:3088   */\n              mstore\n                /* \"#utility.yul\":3124:3126   */\n              0x26\n                /* \"#utility.yul\":3104:3122   */\n              0x24\n              dup3\n              add\n                /* \"#utility.yul\":3097:3127   */\n              mstore\n                /* \"#utility.yul\":3163:3197   */\n              0x455243313936373a206e65772061646d696e20697320746865207a65726f2061\n                /* \"#utility.yul\":3143:3161   */\n              0x44\n              dup3\n              add\n                /* \"#utility.yul\":3136:3198   */\n              mstore\n              shl(0xd0, 0x646472657373)\n                /* \"#utility.yul\":3214:3232   */\n              0x64\n              dup3\n              add\n                /* \"#utility.yul\":3207:3243   */\n              mstore\n                /* \"#utility.yul\":3260:3279   */\n              0x84\n              add\n                /* \"@openzeppelin/contracts/proxy/ERC1967/ERC1967Upgrade.sol\":4043:4116  require(newAdmin != address(0), \"ERC1967: new admin is the zero address\") */\n              tag_34\n                /* \"#utility.yul\":2883:3285   */\n              jump\n                /* \"@openzeppelin/contracts/proxy/ERC1967/ERC1967Upgrade.sol\":4043:4116  require(newAdmin != address(0), \"ERC1967: new admin is the zero address\") */\n            tag_108:\n                /* \"@openzeppelin/contracts/proxy/ERC1967/ERC1967Upgrade.sol\":4174:4182  newAdmin */\n              dup1\n                /* \"@openzeppelin/contracts/proxy/ERC1967/ERC1967Upgrade.sol\":3656:3722  0xb53127684a568b3173ae13b9f8a6016e243e63b6e8ee1178d6a717850b5d6103 */\n              0xb53127684a568b3173ae13b9f8a6016e243e63b6e8ee1178d6a717850b5d6103\n                /* \"@openzeppelin/contracts/proxy/ERC1967/ERC1967Upgrade.sol\":4126:4165  StorageSlot.getAddressSlot(_ADMIN_SLOT) */\n            tag_111:\n                /* \"@openzeppelin/contracts/proxy/ERC1967/ERC1967Upgrade.sol\":4126:4182  StorageSlot.getAddressSlot(_ADMIN_SLOT).value = newAdmin */\n              dup1\n              sload\n              not(sub(shl(0xa0, 0x01), 0x01))\n              and\n              sub(shl(0xa0, 0x01), 0x01)\n              swap3\n              swap1\n              swap3\n              and\n              swap2\n              swap1\n              swap2\n              or\n              swap1\n              sstore\n              pop\n                /* \"@openzeppelin/contracts/proxy/ERC1967/ERC1967Upgrade.sol\":3988:4189  function _setAdmin(address newAdmin) private {... */\n              jump\t// out\n                /* \"@openzeppelin/contracts/proxy/ERC1967/ERC1967Upgrade.sol\":1175:1315  function _getImplementation() internal view returns (address) {... */\n            tag_96:\n                /* \"@openzeppelin/contracts/proxy/ERC1967/ERC1967Upgrade.sol\":1228:1235  address */\n              0x00\n                /* \"@openzeppelin/contracts/proxy/ERC1967/ERC1967Upgrade.sol\":1030:1096  0x360894a13ba1a3210667c828492db98dca3e2076cc3735a920a3ca505d382bbc */\n              0x360894a13ba1a3210667c828492db98dca3e2076cc3735a920a3ca505d382bbc\n                /* \"@openzeppelin/contracts/proxy/ERC1967/ERC1967Upgrade.sol\":1254:1302  StorageSlot.getAddressSlot(_IMPLEMENTATION_SLOT) */\n              tag_40\n                /* \"@openzeppelin/contracts/utils/StorageSlot.sol\":1859:2049  function getAddressSlot(bytes32 slot) internal pure returns (AddressSlot storage r) {... */\n              jump\n                /* \"@openzeppelin/contracts/proxy/ERC1967/ERC1967Upgrade.sol\":1406:1665  function _setImplementation(address newImplementation) private {... */\n            tag_103:\n              sub(shl(0xa0, 0x01), 0x01)\n                /* \"@openzeppelin/contracts/utils/Address.sol\":1702:1721  account.code.length */\n              dup2\n              and\n              extcodesize\n                /* \"@openzeppelin/contracts/proxy/ERC1967/ERC1967Upgrade.sol\":1479:1574  require(Address.isContract(newImplementation), \"ERC1967: new implementation is not a contract\") */\n              tag_117\n              jumpi\n              mload(0x40)\n              shl(0xe5, 0x461bcd)\n              dup2\n              mstore\n                /* \"#utility.yul\":3492:3494   */\n              0x20\n                /* \"@openzeppelin/contracts/proxy/ERC1967/ERC1967Upgrade.sol\":1479:1574  require(Address.isContract(newImplementation), \"ERC1967: new implementation is not a contract\") */\n              0x04\n              dup3\n              add\n                /* \"#utility.yul\":3474:3495   */\n              mstore\n                /* \"#utility.yul\":3531:3533   */\n              0x2d\n                /* \"#utility.yul\":3511:3529   */\n              0x24\n              dup3\n              add\n                /* \"#utility.yul\":3504:3534   */\n              mstore\n                /* \"#utility.yul\":3570:3604   */\n              0x455243313936373a206e657720696d706c656d656e746174696f6e206973206e\n                /* \"#utility.yul\":3550:3568   */\n              0x44\n              dup3\n              add\n                /* \"#utility.yul\":3543:3605   */\n              mstore\n              shl(0x9a, 0x1bdd08184818dbdb9d1c9858dd)\n                /* \"#utility.yul\":3621:3639   */\n              0x64\n              dup3\n              add\n                /* \"#utility.yul\":3614:3657   */\n              mstore\n                /* \"#utility.yul\":3674:3693   */\n              0x84\n              add\n                /* \"@openzeppelin/contracts/proxy/ERC1967/ERC1967Upgrade.sol\":1479:1574  require(Address.isContract(newImplementation), \"ERC1967: new implementation is not a contract\") */\n              tag_34\n                /* \"#utility.yul\":3290:3699   */\n              jump\n                /* \"@openzeppelin/contracts/proxy/ERC1967/ERC1967Upgrade.sol\":1479:1574  require(Address.isContract(newImplementation), \"ERC1967: new implementation is not a contract\") */\n            tag_117:\n                /* \"@openzeppelin/contracts/proxy/ERC1967/ERC1967Upgrade.sol\":1641:1658  newImplementation */\n              dup1\n                /* \"@openzeppelin/contracts/proxy/ERC1967/ERC1967Upgrade.sol\":1030:1096  0x360894a13ba1a3210667c828492db98dca3e2076cc3735a920a3ca505d382bbc */\n              0x360894a13ba1a3210667c828492db98dca3e2076cc3735a920a3ca505d382bbc\n                /* \"@openzeppelin/contracts/proxy/ERC1967/ERC1967Upgrade.sol\":1584:1632  StorageSlot.getAddressSlot(_IMPLEMENTATION_SLOT) */\n              tag_111\n                /* \"@openzeppelin/contracts/utils/StorageSlot.sol\":1859:2049  function getAddressSlot(bytes32 slot) internal pure returns (AddressSlot storage r) {... */\n              jump\n                /* \"@openzeppelin/contracts/utils/Address.sol\":7058:7383  function functionDelegateCall(... */\n            tag_106:\n                /* \"@openzeppelin/contracts/utils/Address.sol\":7199:7211  bytes memory */\n              0x60\n                /* \"@openzeppelin/contracts/utils/Address.sol\":7224:7236  bool success */\n              0x00\n                /* \"@openzeppelin/contracts/utils/Address.sol\":7238:7261  bytes memory returndata */\n              dup1\n                /* \"@openzeppelin/contracts/utils/Address.sol\":7265:7271  target */\n              dup6\n              sub(shl(0xa0, 0x01), 0x01)\n                /* \"@openzeppelin/contracts/utils/Address.sol\":7265:7284  target.delegatecall */\n              and\n                /* \"@openzeppelin/contracts/utils/Address.sol\":7285:7289  data */\n              dup6\n                /* \"@openzeppelin/contracts/utils/Address.sol\":7265:7290  target.delegatecall(data) */\n              mload(0x40)\n              tag_122\n              swap2\n              swap1\n              tag_123\n              jump\t// in\n            tag_122:\n              0x00\n              mload(0x40)\n              dup1\n              dup4\n              sub\n              dup2\n              dup6\n              gas\n              delegatecall\n              swap2\n              pop\n              pop\n              returndatasize\n              dup1\n              0x00\n              dup2\n              eq\n              tag_126\n              jumpi\n              mload(0x40)\n              swap2\n              pop\n              and(add(returndatasize, 0x3f), not(0x1f))\n              dup3\n              add\n              0x40\n              mstore\n              returndatasize\n              dup3\n              mstore\n              returndatasize\n              0x00\n              0x20\n              dup5\n              add\n              returndatacopy\n              jump(tag_125)\n            tag_126:\n              0x60\n              swap2\n              pop\n            tag_125:\n              pop\n                /* \"@openzeppelin/contracts/utils/Address.sol\":7223:7290  (bool success, bytes memory returndata) = target.delegatecall(data) */\n              swap2\n              pop\n              swap2\n              pop\n                /* \"@openzeppelin/contracts/utils/Address.sol\":7307:7376  verifyCallResultFromTarget(target, success, returndata, errorMessage) */\n              tag_127\n                /* \"@openzeppelin/contracts/utils/Address.sol\":7334:7340  target */\n              dup7\n                /* \"@openzeppelin/contracts/utils/Address.sol\":7342:7349  success */\n              dup4\n                /* \"@openzeppelin/contracts/utils/Address.sol\":7351:7361  returndata */\n              dup4\n                /* \"@openzeppelin/contracts/utils/Address.sol\":7363:7375  errorMessage */\n              dup8\n                /* \"@openzeppelin/contracts/utils/Address.sol\":7307:7333  verifyCallResultFromTarget */\n              tag_128\n                /* \"@openzeppelin/contracts/utils/Address.sol\":7307:7376  verifyCallResultFromTarget(target, success, returndata, errorMessage) */\n              jump\t// in\n            tag_127:\n                /* \"@openzeppelin/contracts/utils/Address.sol\":7300:7376  return verifyCallResultFromTarget(target, success, returndata, errorMessage) */\n              swap7\n                /* \"@openzeppelin/contracts/utils/Address.sol\":7058:7383  function functionDelegateCall(... */\n              swap6\n              pop\n              pop\n              pop\n              pop\n              pop\n              pop\n              jump\t// out\n                /* \"@openzeppelin/contracts/utils/Address.sol\":7671:8299  function verifyCallResultFromTarget(... */\n            tag_128:\n                /* \"@openzeppelin/contracts/utils/Address.sol\":7851:7863  bytes memory */\n              0x60\n                /* \"@openzeppelin/contracts/utils/Address.sol\":7879:7886  success */\n              dup4\n                /* \"@openzeppelin/contracts/utils/Address.sol\":7875:8293  if (success) {... */\n              iszero\n              tag_131\n              jumpi\n                /* \"@openzeppelin/contracts/utils/Address.sol\":7906:7916  returndata */\n              dup3\n                /* \"@openzeppelin/contracts/utils/Address.sol\":7906:7923  returndata.length */\n              mload\n                /* \"@openzeppelin/contracts/utils/Address.sol\":7927:7928  0 */\n              0x00\n                /* \"@openzeppelin/contracts/utils/Address.sol\":7906:7928  returndata.length == 0 */\n              sub\n                /* \"@openzeppelin/contracts/utils/Address.sol\":7902:8188  if (returndata.length == 0) {... */\n              tag_134\n              jumpi\n              sub(shl(0xa0, 0x01), 0x01)\n                /* \"@openzeppelin/contracts/utils/Address.sol\":1702:1721  account.code.length */\n              dup6\n              and\n              extcodesize\n                /* \"@openzeppelin/contracts/utils/Address.sol\":8113:8173  require(isContract(target), \"Address: call to non-contract\") */\n              tag_134\n              jumpi\n              mload(0x40)\n              shl(0xe5, 0x461bcd)\n              dup2\n              mstore\n                /* \"#utility.yul\":4453:4455   */\n              0x20\n                /* \"@openzeppelin/contracts/utils/Address.sol\":8113:8173  require(isContract(target), \"Address: call to non-contract\") */\n              0x04\n              dup3\n              add\n                /* \"#utility.yul\":4435:4456   */\n              mstore\n                /* \"#utility.yul\":4492:4494   */\n              0x1d\n                /* \"#utility.yul\":4472:4490   */\n              0x24\n              dup3\n              add\n                /* \"#utility.yul\":4465:4495   */\n              mstore\n                /* \"#utility.yul\":4531:4562   */\n              0x416464726573733a2063616c6c20746f206e6f6e2d636f6e7472616374000000\n                /* \"#utility.yul\":4511:4529   */\n              0x44\n              dup3\n              add\n                /* \"#utility.yul\":4504:4563   */\n              mstore\n                /* \"#utility.yul\":4580:4598   */\n              0x64\n              add\n                /* \"@openzeppelin/contracts/utils/Address.sol\":8113:8173  require(isContract(target), \"Address: call to non-contract\") */\n              tag_34\n                /* \"#utility.yul\":4251:4604   */\n              jump\n                /* \"@openzeppelin/contracts/utils/Address.sol\":8113:8173  require(isContract(target), \"Address: call to non-contract\") */\n            tag_134:\n              pop\n                /* \"@openzeppelin/contracts/utils/Address.sol\":8208:8218  returndata */\n              dup2\n                /* \"@openzeppelin/contracts/utils/Address.sol\":8201:8218  return returndata */\n              jump(tag_138)\n                /* \"@openzeppelin/contracts/utils/Address.sol\":7875:8293  if (success) {... */\n            tag_131:\n                /* \"@openzeppelin/contracts/utils/Address.sol\":8249:8282  _revert(returndata, errorMessage) */\n              tag_138\n                /* \"@openzeppelin/contracts/utils/Address.sol\":8257:8267  returndata */\n              dup4\n                /* \"@openzeppelin/contracts/utils/Address.sol\":8269:8281  errorMessage */\n              dup4\n                /* \"@openzeppelin/contracts/utils/Address.sol\":8249:8256  _revert */\n              tag_139\n                /* \"@openzeppelin/contracts/utils/Address.sol\":8249:8282  _revert(returndata, errorMessage) */\n              jump\t// in\n            tag_138:\n                /* \"@openzeppelin/contracts/utils/Address.sol\":7671:8299  function verifyCallResultFromTarget(... */\n              swap5\n              swap4\n              pop\n              pop\n              pop\n              pop\n              jump\t// out\n                /* \"@openzeppelin/contracts/utils/Address.sol\":8821:9361  function _revert(bytes memory returndata, string memory errorMessage) private pure {... */\n            tag_139:\n                /* \"@openzeppelin/contracts/utils/Address.sol\":8980:8997  returndata.length */\n              dup2\n              mload\n                /* \"@openzeppelin/contracts/utils/Address.sol\":8980:9001  returndata.length > 0 */\n              iszero\n                /* \"@openzeppelin/contracts/utils/Address.sol\":8976:9355  if (returndata.length > 0) {... */\n              tag_141\n              jumpi\n                /* \"@openzeppelin/contracts/utils/Address.sol\":9208:9218  returndata */\n              dup2\n                /* \"@openzeppelin/contracts/utils/Address.sol\":9202:9219  mload(returndata) */\n              mload\n                /* \"@openzeppelin/contracts/utils/Address.sol\":9264:9279  returndata_size */\n              dup1\n                /* \"@openzeppelin/contracts/utils/Address.sol\":9251:9261  returndata */\n              dup4\n                /* \"@openzeppelin/contracts/utils/Address.sol\":9247:9249  32 */\n              0x20\n                /* \"@openzeppelin/contracts/utils/Address.sol\":9243:9262  add(32, returndata) */\n              add\n                /* \"@openzeppelin/contracts/utils/Address.sol\":9236:9280  revert(add(32, returndata), returndata_size) */\n              revert\n                /* \"@openzeppelin/contracts/utils/Address.sol\":8976:9355  if (returndata.length > 0) {... */\n            tag_141:\n                /* \"@openzeppelin/contracts/utils/Address.sol\":9331:9343  errorMessage */\n              dup1\n                /* \"@openzeppelin/contracts/utils/Address.sol\":9324:9344  revert(errorMessage) */\n              mload(0x40)\n              shl(0xe5, 0x461bcd)\n              dup2\n              mstore\n              0x04\n              add\n              tag_34\n              swap2\n              swap1\n              tag_144\n              jump\t// in\n                /* \"#utility.yul\":489:820   */\n            tag_46:\n                /* \"#utility.yul\":594:603   */\n              0x00\n                /* \"#utility.yul\":605:614   */\n              dup1\n                /* \"#utility.yul\":647:655   */\n              dup6\n                /* \"#utility.yul\":635:645   */\n              dup6\n                /* \"#utility.yul\":632:656   */\n              gt\n                /* \"#utility.yul\":629:673   */\n              iszero\n              tag_151\n              jumpi\n                /* \"#utility.yul\":669:670   */\n              0x00\n                /* \"#utility.yul\":666:667   */\n              dup1\n                /* \"#utility.yul\":659:671   */\n              revert\n                /* \"#utility.yul\":629:673   */\n            tag_151:\n                /* \"#utility.yul\":698:704   */\n              dup4\n                /* \"#utility.yul\":688:696   */\n              dup7\n                /* \"#utility.yul\":685:705   */\n              gt\n                /* \"#utility.yul\":682:722   */\n              iszero\n              tag_152\n              jumpi\n                /* \"#utility.yul\":718:719   */\n              0x00\n                /* \"#utility.yul\":715:716   */\n              dup1\n                /* \"#utility.yul\":708:720   */\n              revert\n                /* \"#utility.yul\":682:722   */\n            tag_152:\n              pop\n              pop\n                /* \"#utility.yul\":744:767   */\n              dup3\n              add\n              swap4\n                /* \"#utility.yul\":789:814   */\n              swap2\n              swap1\n              swap3\n              sub\n              swap2\n              pop\n                /* \"#utility.yul\":489:820   */\n              jump\t// out\n                /* \"#utility.yul\":825:1006   */\n            tag_145:\n                /* \"#utility.yul\":901:921   */\n              dup1\n              calldataload\n              sub(shl(0xa0, 0x01), 0x01)\n                /* \"#utility.yul\":950:981   */\n              dup2\n              and\n                /* \"#utility.yul\":940:982   */\n              dup2\n              eq\n                /* \"#utility.yul\":930:1000   */\n              tag_154\n              jumpi\n                /* \"#utility.yul\":996:997   */\n              0x00\n                /* \"#utility.yul\":993:994   */\n              dup1\n                /* \"#utility.yul\":986:998   */\n              revert\n                /* \"#utility.yul\":930:1000   */\n            tag_154:\n                /* \"#utility.yul\":825:1006   */\n              swap2\n              swap1\n              pop\n              jump\t// out\n                /* \"#utility.yul\":1011:1213   */\n            tag_48:\n                /* \"#utility.yul\":1078:1084   */\n              0x00\n                /* \"#utility.yul\":1131:1133   */\n              0x20\n                /* \"#utility.yul\":1119:1128   */\n              dup3\n                /* \"#utility.yul\":1110:1117   */\n              dup5\n                /* \"#utility.yul\":1106:1129   */\n              sub\n                /* \"#utility.yul\":1102:1134   */\n              slt\n                /* \"#utility.yul\":1099:1151   */\n              iszero\n              tag_156\n              jumpi\n                /* \"#utility.yul\":1147:1148   */\n              0x00\n                /* \"#utility.yul\":1144:1145   */\n              dup1\n                /* \"#utility.yul\":1137:1149   */\n              revert\n                /* \"#utility.yul\":1099:1151   */\n            tag_156:\n                /* \"#utility.yul\":1170:1207   */\n              tag_105\n                /* \"#utility.yul\":1197:1206   */\n              dup3\n                /* \"#utility.yul\":1170:1207   */\n              tag_145\n              jump\t// in\n                /* \"#utility.yul\":1218:1345   */\n            tag_146:\n                /* \"#utility.yul\":1279:1289   */\n              0x4e487b71\n                /* \"#utility.yul\":1274:1277   */\n              0xe0\n                /* \"#utility.yul\":1270:1290   */\n              shl\n                /* \"#utility.yul\":1267:1268   */\n              0x00\n                /* \"#utility.yul\":1260:1291   */\n              mstore\n                /* \"#utility.yul\":1310:1314   */\n              0x41\n                /* \"#utility.yul\":1307:1308   */\n              0x04\n                /* \"#utility.yul\":1300:1315   */\n              mstore\n                /* \"#utility.yul\":1334:1338   */\n              0x24\n                /* \"#utility.yul\":1331:1332   */\n              0x00\n                /* \"#utility.yul\":1324:1339   */\n              revert\n                /* \"#utility.yul\":1350:2361   */\n            tag_54:\n                /* \"#utility.yul\":1435:1441   */\n              0x00\n                /* \"#utility.yul\":1443:1449   */\n              dup1\n                /* \"#utility.yul\":1496:1498   */\n              0x40\n                /* \"#utility.yul\":1484:1493   */\n              dup4\n                /* \"#utility.yul\":1475:1482   */\n              dup6\n                /* \"#utility.yul\":1471:1494   */\n              sub\n                /* \"#utility.yul\":1467:1499   */\n              slt\n                /* \"#utility.yul\":1464:1516   */\n              iszero\n              tag_160\n              jumpi\n                /* \"#utility.yul\":1512:1513   */\n              0x00\n                /* \"#utility.yul\":1509:1510   */\n              dup1\n                /* \"#utility.yul\":1502:1514   */\n              revert\n                /* \"#utility.yul\":1464:1516   */\n            tag_160:\n                /* \"#utility.yul\":1535:1572   */\n              tag_161\n                /* \"#utility.yul\":1562:1571   */\n              dup4\n                /* \"#utility.yul\":1535:1572   */\n              tag_145\n              jump\t// in\n            tag_161:\n                /* \"#utility.yul\":1525:1572   */\n              swap2\n              pop\n                /* \"#utility.yul\":1623:1625   */\n              0x20\n                /* \"#utility.yul\":1612:1621   */\n              dup4\n                /* \"#utility.yul\":1608:1626   */\n              add\n                /* \"#utility.yul\":1595:1627   */\n              calldataload\n                /* \"#utility.yul\":1646:1664   */\n              0xffffffffffffffff\n                /* \"#utility.yul\":1687:1689   */\n              dup1\n                /* \"#utility.yul\":1679:1685   */\n              dup3\n                /* \"#utility.yul\":1676:1690   */\n              gt\n                /* \"#utility.yul\":1673:1707   */\n              iszero\n              tag_162\n              jumpi\n                /* \"#utility.yul\":1703:1704   */\n              0x00\n                /* \"#utility.yul\":1700:1701   */\n              dup1\n                /* \"#utility.yul\":1693:1705   */\n              revert\n                /* \"#utility.yul\":1673:1707   */\n            tag_162:\n                /* \"#utility.yul\":1741:1747   */\n              dup2\n                /* \"#utility.yul\":1730:1739   */\n              dup6\n                /* \"#utility.yul\":1726:1748   */\n              add\n                /* \"#utility.yul\":1716:1748   */\n              swap2\n              pop\n                /* \"#utility.yul\":1786:1793   */\n              dup6\n                /* \"#utility.yul\":1779:1783   */\n              0x1f\n                /* \"#utility.yul\":1775:1777   */\n              dup4\n                /* \"#utility.yul\":1771:1784   */\n              add\n                /* \"#utility.yul\":1767:1794   */\n              slt\n                /* \"#utility.yul\":1757:1812   */\n              tag_163\n              jumpi\n                /* \"#utility.yul\":1808:1809   */\n              0x00\n                /* \"#utility.yul\":1805:1806   */\n              dup1\n                /* \"#utility.yul\":1798:1810   */\n              revert\n                /* \"#utility.yul\":1757:1812   */\n            tag_163:\n                /* \"#utility.yul\":1844:1846   */\n              dup2\n                /* \"#utility.yul\":1831:1847   */\n              calldataload\n                /* \"#utility.yul\":1866:1868   */\n              dup2\n                /* \"#utility.yul\":1862:1864   */\n              dup2\n                /* \"#utility.yul\":1859:1869   */\n              gt\n                /* \"#utility.yul\":1856:1892   */\n              iszero\n              tag_165\n              jumpi\n                /* \"#utility.yul\":1872:1890   */\n              tag_165\n              tag_146\n              jump\t// in\n            tag_165:\n                /* \"#utility.yul\":1947:1949   */\n              0x40\n                /* \"#utility.yul\":1941:1950   */\n              mload\n                /* \"#utility.yul\":1915:1917   */\n              0x1f\n                /* \"#utility.yul\":2001:2014   */\n              dup3\n              add\n              not(0x1f)\n                /* \"#utility.yul\":1997:2019   */\n              swap1\n              dup2\n              and\n                /* \"#utility.yul\":2021:2023   */\n              0x3f\n                /* \"#utility.yul\":1993:2024   */\n              add\n                /* \"#utility.yul\":1989:2029   */\n              and\n                /* \"#utility.yul\":1977:2030   */\n              dup2\n              add\n              swap1\n                /* \"#utility.yul\":2045:2063   */\n              dup4\n              dup3\n              gt\n                /* \"#utility.yul\":2065:2087   */\n              dup2\n              dup4\n              lt\n                /* \"#utility.yul\":2042:2088   */\n              or\n                /* \"#utility.yul\":2039:2111   */\n              iszero\n              tag_167\n              jumpi\n                /* \"#utility.yul\":2091:2109   */\n              tag_167\n              tag_146\n              jump\t// in\n            tag_167:\n                /* \"#utility.yul\":2131:2141   */\n              dup2\n                /* \"#utility.yul\":2127:2129   */\n              0x40\n                /* \"#utility.yul\":2120:2142   */\n              mstore\n                /* \"#utility.yul\":2166:2168   */\n              dup3\n                /* \"#utility.yul\":2158:2164   */\n              dup2\n                /* \"#utility.yul\":2151:2169   */\n              mstore\n                /* \"#utility.yul\":2206:2213   */\n              dup9\n                /* \"#utility.yul\":2201:2203   */\n              0x20\n                /* \"#utility.yul\":2196:2198   */\n              dup5\n                /* \"#utility.yul\":2192:2194   */\n              dup8\n                /* \"#utility.yul\":2188:2199   */\n              add\n                /* \"#utility.yul\":2184:2204   */\n              add\n                /* \"#utility.yul\":2181:2214   */\n              gt\n                /* \"#utility.yul\":2178:2231   */\n              iszero\n              tag_168\n              jumpi\n                /* \"#utility.yul\":2227:2228   */\n              0x00\n                /* \"#utility.yul\":2224:2225   */\n              dup1\n                /* \"#utility.yul\":2217:2229   */\n              revert\n                /* \"#utility.yul\":2178:2231   */\n            tag_168:\n                /* \"#utility.yul\":2283:2285   */\n              dup3\n                /* \"#utility.yul\":2278:2280   */\n              0x20\n                /* \"#utility.yul\":2274:2276   */\n              dup7\n                /* \"#utility.yul\":2270:2281   */\n              add\n                /* \"#utility.yul\":2265:2267   */\n              0x20\n                /* \"#utility.yul\":2257:2263   */\n              dup4\n                /* \"#utility.yul\":2253:2268   */\n              add\n                /* \"#utility.yul\":2240:2286   */\n              calldatacopy\n                /* \"#utility.yul\":2328:2329   */\n              0x00\n                /* \"#utility.yul\":2323:2325   */\n              0x20\n                /* \"#utility.yul\":2318:2320   */\n              dup5\n                /* \"#utility.yul\":2310:2316   */\n              dup4\n                /* \"#utility.yul\":2306:2321   */\n              add\n                /* \"#utility.yul\":2302:2326   */\n              add\n                /* \"#utility.yul\":2295:2330   */\n              mstore\n                /* \"#utility.yul\":2349:2355   */\n              dup1\n                /* \"#utility.yul\":2339:2355   */\n              swap6\n              pop\n              pop\n              pop\n              pop\n              pop\n              pop\n                /* \"#utility.yul\":1350:2361   */\n              swap3\n              pop\n              swap3\n              swap1\n              pop\n              jump\t// out\n                /* \"#utility.yul\":3704:3954   */\n            tag_147:\n                /* \"#utility.yul\":3789:3790   */\n              0x00\n                /* \"#utility.yul\":3799:3912   */\n            tag_174:\n                /* \"#utility.yul\":3813:3819   */\n              dup4\n                /* \"#utility.yul\":3810:3811   */\n              dup2\n                /* \"#utility.yul\":3807:3820   */\n              lt\n                /* \"#utility.yul\":3799:3912   */\n              iszero\n              tag_176\n              jumpi\n                /* \"#utility.yul\":3889:3900   */\n              dup2\n              dup2\n              add\n                /* \"#utility.yul\":3883:3901   */\n              mload\n                /* \"#utility.yul\":3870:3881   */\n              dup4\n              dup3\n              add\n                /* \"#utility.yul\":3863:3902   */\n              mstore\n                /* \"#utility.yul\":3835:3837   */\n              0x20\n                /* \"#utility.yul\":3828:3838   */\n              add\n                /* \"#utility.yul\":3799:3912   */\n              jump(tag_174)\n            tag_176:\n              pop\n              pop\n                /* \"#utility.yul\":3946:3947   */\n              0x00\n                /* \"#utility.yul\":3928:3944   */\n              swap2\n              add\n                /* \"#utility.yul\":3921:3948   */\n              mstore\n                /* \"#utility.yul\":3704:3954   */\n              jump\t// out\n                /* \"#utility.yul\":3959:4246   */\n            tag_123:\n                /* \"#utility.yul\":4088:4091   */\n              0x00\n                /* \"#utility.yul\":4126:4132   */\n              dup3\n                /* \"#utility.yul\":4120:4133   */\n              mload\n                /* \"#utility.yul\":4142:4208   */\n              tag_178\n                /* \"#utility.yul\":4201:4207   */\n              dup2\n                /* \"#utility.yul\":4196:4199   */\n              dup5\n                /* \"#utility.yul\":4189:4193   */\n              0x20\n                /* \"#utility.yul\":4181:4187   */\n              dup8\n                /* \"#utility.yul\":4177:4194   */\n              add\n                /* \"#utility.yul\":4142:4208   */\n              tag_147\n              jump\t// in\n            tag_178:\n                /* \"#utility.yul\":4224:4240   */\n              swap2\n              swap1\n              swap2\n              add\n              swap3\n                /* \"#utility.yul\":3959:4246   */\n              swap2\n              pop\n              pop\n              jump\t// out\n                /* \"#utility.yul\":4609:5005   */\n            tag_144:\n                /* \"#utility.yul\":4758:4760   */\n              0x20\n                /* \"#utility.yul\":4747:4756   */\n              dup2\n                /* \"#utility.yul\":4740:4761   */\n              mstore\n                /* \"#utility.yul\":4721:4725   */\n              0x00\n                /* \"#utility.yul\":4790:4796   */\n              dup3\n                /* \"#utility.yul\":4784:4797   */\n              mload\n                /* \"#utility.yul\":4833:4839   */\n              dup1\n                /* \"#utility.yul\":4828:4830   */\n              0x20\n                /* \"#utility.yul\":4817:4826   */\n              dup5\n                /* \"#utility.yul\":4813:4831   */\n              add\n                /* \"#utility.yul\":4806:4840   */\n              mstore\n                /* \"#utility.yul\":4849:4928   */\n              tag_181\n                /* \"#utility.yul\":4921:4927   */\n              dup2\n                /* \"#utility.yul\":4916:4918   */\n              0x40\n                /* \"#utility.yul\":4905:4914   */\n              dup6\n                /* \"#utility.yul\":4901:4919   */\n              add\n                /* \"#utility.yul\":4896:4898   */\n              0x20\n                /* \"#utility.yul\":4888:4894   */\n              dup8\n                /* \"#utility.yul\":4884:4899   */\n              add\n                /* \"#utility.yul\":4849:4928   */\n              tag_147\n              jump\t// in\n            tag_181:\n                /* \"#utility.yul\":4989:4991   */\n              0x1f\n                /* \"#utility.yul\":4968:4983   */\n              add\n              not(0x1f)\n                /* \"#utility.yul\":4964:4993   */\n              and\n                /* \"#utility.yul\":4949:4994   */\n              swap2\n              swap1\n              swap2\n              add\n                /* \"#utility.yul\":4996:4998   */\n              0x40\n                /* \"#utility.yul\":4945:4999   */\n              add\n              swap3\n                /* \"#utility.yul\":4609:5005   */\n              swap2\n              pop\n              pop\n              jump\t// out\n            stop\n            data_9fdcd12e4b726339b32a442b0a448365d5d85c96b2d2cff917b4f66c63110398 416464726573733a206c6f772d6c6576656c2064656c65676174652063616c6c206661696c6564\n\n            auxdata: 0xa2646970667358221220c5ca2cc09e59742b53089849170e12633873cf05dad70488a817dd371ddf806c64736f6c63430008150033\n        }\n    }\n\n    auxdata: 0xa26469706673582212203ae5d72f7d99c43ccf587bcd6bcd2111aeb034a19cf1580c367d0bd860a8ddf664736f6c63430008150033\n}\n",
				"bytecode": {
					"linkReferences": {},
					"object": "608060405234801561000f575f80fd5b506040516113ab3803806113ab83398101604081905261002e9161004e565b5f80546001600160a01b0319166001600160a01b0383161790555061007b565b5f6020828403121561005e575f80fd5b81516001600160a01b0381168114610074575f80fd5b9392505050565b611323806100885f395ff3fe60806040526004361062000037575f3560e01c80633a69475a146200003b578063893d20e81462000054578063e22c6b441462000080575b5f80fd5b620000526200004c366004620002fd565b620000b3565b005b34801562000060575f80fd5b505f546040516001600160a01b0390911681526020015b60405180910390f35b3480156200008c575f80fd5b50620000a46200009e366004620003b4565b620001ce565b60405162000077919062000467565b5f546001600160a01b03163314620001025760405162461bcd60e51b815260206004820152600e60248201526d24b73b30b634b21031b0b63632b960911b604482015260640160405180910390fd5b5f8385516020870134f59050803b62000119575f80fd5b604080516001600160a01b0383168152602081018690527fb03c53b28e78a88e31607a27e1fa48234dce28d5d9d9ec7b295aeb02e674a1e1910160405180910390a15f816001600160a01b031684846040516200017892919062000482565b5f604051808303815f865af19150503d805f8114620001b3576040519150601f19603f3d011682016040523d82523d5f602084013e620001b8565b606091505b5050905080620001c6575f80fd5b505050505050565b60605f60405180602001620001e3906200024a565b6020820181038252601f19601f82011660405250905080858585604051602001620002119392919062000491565b60408051601f1981840301815290829052620002319291602001620004c7565b6040516020818303038152906040529150509392505050565b610df480620004fa83390190565b634e487b7160e01b5f52604160045260245ffd5b5f82601f8301126200027c575f80fd5b813567ffffffffffffffff808211156200029a576200029a62000258565b604051601f8301601f19908116603f01168101908282118183101715620002c557620002c562000258565b81604052838152866020858801011115620002de575f80fd5b836020870160208301375f602085830101528094505050505092915050565b5f805f806060858703121562000311575f80fd5b843567ffffffffffffffff8082111562000329575f80fd5b62000337888389016200026c565b955060208701359450604087013591508082111562000354575f80fd5b818701915087601f83011262000368575f80fd5b81358181111562000377575f80fd5b88602082850101111562000389575f80fd5b95989497505060200194505050565b80356001600160a01b0381168114620003af575f80fd5b919050565b5f805f60608486031215620003c7575f80fd5b620003d28462000398565b9250620003e26020850162000398565b9150604084013567ffffffffffffffff811115620003fe575f80fd5b6200040c868287016200026c565b9150509250925092565b5f5b838110156200043257818101518382015260200162000418565b50505f910152565b5f81518084526200045381602086016020860162000416565b601f01601f19169290920160200192915050565b602081525f6200047b60208301846200043a565b9392505050565b818382375f9101908152919050565b6001600160a01b038481168252831660208201526060604082018190525f90620004be908301846200043a565b95945050505050565b5f8351620004da81846020880162000416565b835190830190620004f081836020880162000416565b0194935050505056fe608060405260405162000df438038062000df4833981016040819052620000269162000415565b82816200003582825f6200004c565b50620000439050826200007d565b50505062000540565b6200005783620000ee565b5f82511180620000645750805b1562000078576200007683836200012f565b505b505050565b7f7e644d79422f17c01e4894b5f4f588d331ebfa28653d42ae832dc59e38c9798f620000be5f8051602062000dad833981519152546001600160a01b031690565b604080516001600160a01b03928316815291841660208301520160405180910390a1620000eb816200015e565b50565b620000f981620001fb565b6040516001600160a01b038216907fbc7cd75a20ee27fd9adebab32041f755214dbc6bffa90cc0225b39da2e5c2d3b905f90a250565b606062000157838360405180606001604052806027815260200162000dcd6027913962000292565b9392505050565b6001600160a01b038116620001c95760405162461bcd60e51b815260206004820152602660248201527f455243313936373a206e65772061646d696e20697320746865207a65726f206160448201526564647265737360d01b60648201526084015b60405180910390fd5b805f8051602062000dad8339815191525b80546001600160a01b0319166001600160a01b039290921691909117905550565b6001600160a01b0381163b6200026a5760405162461bcd60e51b815260206004820152602d60248201527f455243313936373a206e657720696d706c656d656e746174696f6e206973206e60448201526c1bdd08184818dbdb9d1c9858dd609a1b6064820152608401620001c0565b807f360894a13ba1a3210667c828492db98dca3e2076cc3735a920a3ca505d382bbc620001da565b60605f80856001600160a01b031685604051620002b09190620004ef565b5f60405180830381855af49150503d805f8114620002ea576040519150601f19603f3d011682016040523d82523d5f602084013e620002ef565b606091505b50909250905062000303868383876200030d565b9695505050505050565b60608315620003805782515f0362000378576001600160a01b0385163b620003785760405162461bcd60e51b815260206004820152601d60248201527f416464726573733a2063616c6c20746f206e6f6e2d636f6e74726163740000006044820152606401620001c0565b50816200038c565b6200038c838362000394565b949350505050565b815115620003a55781518083602001fd5b8060405162461bcd60e51b8152600401620001c091906200050c565b80516001600160a01b0381168114620003d8575f80fd5b919050565b634e487b7160e01b5f52604160045260245ffd5b5f5b838110156200040d578181015183820152602001620003f3565b50505f910152565b5f805f6060848603121562000428575f80fd5b6200043384620003c1565b92506200044360208501620003c1565b60408501519092506001600160401b038082111562000460575f80fd5b818601915086601f83011262000474575f80fd5b815181811115620004895762000489620003dd565b604051601f8201601f19908116603f01168101908382118183101715620004b457620004b4620003dd565b81604052828152896020848701011115620004cd575f80fd5b620004e0836020830160208801620003f1565b80955050505050509250925092565b5f825162000502818460208701620003f1565b9190910192915050565b602081525f82518060208401526200052c816040850160208701620003f1565b601f01601f19169190910160400192915050565b61085f806200054e5f395ff3fe60806040523661001357610011610017565b005b6100115b61001f610168565b6001600160a01b0316330361015e5760606001600160e01b03195f35166364d3180d60e11b81016100595761005261019a565b9150610156565b63587086bd60e11b6001600160e01b0319821601610079576100526101ed565b63070d7c6960e41b6001600160e01b031982160161009957610052610231565b621eb96f60e61b6001600160e01b03198216016100b857610052610261565b63a39f25e560e01b6001600160e01b03198216016100d8576100526102a0565b60405162461bcd60e51b815260206004820152604260248201527f5472616e73706172656e745570677261646561626c6550726f78793a2061646d60448201527f696e2063616e6e6f742066616c6c6261636b20746f2070726f78792074617267606482015261195d60f21b608482015260a4015b60405180910390fd5b815160208301f35b6101666102b3565b565b5f7fb53127684a568b3173ae13b9f8a6016e243e63b6e8ee1178d6a717850b5d61035b546001600160a01b0316919050565b60606101a46102c3565b5f6101b23660048184610668565b8101906101bf91906106aa565b90506101da8160405180602001604052805f8152505f6102cd565b505060408051602081019091525f815290565b60605f806101fe3660048184610668565b81019061020b91906106d7565b9150915061021b828260016102cd565b60405180602001604052805f8152509250505090565b606061023b6102c3565b5f6102493660048184610668565b81019061025691906106aa565b90506101da816102f8565b606061026b6102c3565b5f610274610168565b604080516001600160a01b03831660208201529192500160405160208183030381529060405291505090565b60606102aa6102c3565b5f61027461034f565b6101666102be61034f565b61035d565b3415610166575f80fd5b6102d68361037b565b5f825111806102e25750805b156102f3576102f183836103ba565b505b505050565b7f7e644d79422f17c01e4894b5f4f588d331ebfa28653d42ae832dc59e38c9798f610321610168565b604080516001600160a01b03928316815291841660208301520160405180910390a161034c816103e6565b50565b5f61035861048f565b905090565b365f80375f80365f845af43d5f803e808015610377573d5ff35b3d5ffd5b610384816104b6565b6040516001600160a01b038216907fbc7cd75a20ee27fd9adebab32041f755214dbc6bffa90cc0225b39da2e5c2d3b905f90a250565b60606103df83836040518060600160405280602781526020016108036027913961054a565b9392505050565b6001600160a01b03811661044b5760405162461bcd60e51b815260206004820152602660248201527f455243313936373a206e65772061646d696e20697320746865207a65726f206160448201526564647265737360d01b606482015260840161014d565b807fb53127684a568b3173ae13b9f8a6016e243e63b6e8ee1178d6a717850b5d61035b80546001600160a01b0319166001600160a01b039290921691909117905550565b5f7f360894a13ba1a3210667c828492db98dca3e2076cc3735a920a3ca505d382bbc61018b565b6001600160a01b0381163b6105235760405162461bcd60e51b815260206004820152602d60248201527f455243313936373a206e657720696d706c656d656e746174696f6e206973206e60448201526c1bdd08184818dbdb9d1c9858dd609a1b606482015260840161014d565b807f360894a13ba1a3210667c828492db98dca3e2076cc3735a920a3ca505d382bbc61046e565b60605f80856001600160a01b03168560405161056691906107b5565b5f60405180830381855af49150503d805f811461059e576040519150601f19603f3d011682016040523d82523d5f602084013e6105a3565b606091505b50915091506105b4868383876105be565b9695505050505050565b6060831561062c5782515f03610625576001600160a01b0385163b6106255760405162461bcd60e51b815260206004820152601d60248201527f416464726573733a2063616c6c20746f206e6f6e2d636f6e7472616374000000604482015260640161014d565b5081610636565b610636838361063e565b949350505050565b81511561064e5781518083602001fd5b8060405162461bcd60e51b815260040161014d91906107d0565b5f8085851115610676575f80fd5b83861115610682575f80fd5b5050820193919092039150565b80356001600160a01b03811681146106a5575f80fd5b919050565b5f602082840312156106ba575f80fd5b6103df8261068f565b634e487b7160e01b5f52604160045260245ffd5b5f80604083850312156106e8575f80fd5b6106f18361068f565b9150602083013567ffffffffffffffff8082111561070d575f80fd5b818501915085601f830112610720575f80fd5b813581811115610732576107326106c3565b604051601f8201601f19908116603f0116810190838211818310171561075a5761075a6106c3565b81604052828152886020848701011115610772575f80fd5b826020860160208301375f6020848301015280955050505050509250929050565b5f5b838110156107ad578181015183820152602001610795565b50505f910152565b5f82516107c6818460208701610793565b9190910192915050565b602081525f82518060208401526107ee816040850160208701610793565b601f01601f1916919091016040019291505056fe416464726573733a206c6f772d6c6576656c2064656c65676174652063616c6c206661696c6564a2646970667358221220c5ca2cc09e59742b53089849170e12633873cf05dad70488a817dd371ddf806c64736f6c63430008150033b53127684a568b3173ae13b9f8a6016e243e63b6e8ee1178d6a717850b5d6103416464726573733a206c6f772d6c6576656c2064656c65676174652063616c6c206661696c6564a26469706673582212203ae5d72f7d99c43ccf587bcd6bcd2111aeb034a19cf1580c367d0bd860a8ddf664736f6c63430008150033",
					"opcodes": "PUSH1 0x80 PUSH1 0x40 MSTORE CALLVALUE DUP1 ISZERO PUSH2 0xF JUMPI PUSH0 DUP1 REVERT JUMPDEST POP PUSH1 0x40 MLOAD PUSH2 0x13AB CODESIZE SUB DUP1 PUSH2 0x13AB DUP4 CODECOPY DUP2 ADD PUSH1 0x40 DUP2 SWAP1 MSTORE PUSH2 0x2E SWAP2 PUSH2 0x4E JUMP JUMPDEST PUSH0 DUP1 SLOAD PUSH1 0x1 PUSH1 0x1 PUSH1 0xA0 SHL SUB NOT AND PUSH1 0x1 PUSH1 0x1 PUSH1 0xA0 SHL SUB DUP4 AND OR SWAP1 SSTORE POP PUSH2 0x7B JUMP JUMPDEST PUSH0 PUSH1 0x20 DUP3 DUP5 SUB SLT ISZERO PUSH2 0x5E JUMPI PUSH0 DUP1 REVERT JUMPDEST DUP2 MLOAD PUSH1 0x1 PUSH1 0x1 PUSH1 0xA0 SHL SUB DUP2 AND DUP2 EQ PUSH2 0x74 JUMPI PUSH0 DUP1 REVERT JUMPDEST SWAP4 SWAP3 POP POP POP JUMP JUMPDEST PUSH2 0x1323 DUP1 PUSH2 0x88 PUSH0 CODECOPY PUSH0 RETURN INVALID PUSH1 0x80 PUSH1 0x40 MSTORE PUSH1 0x4 CALLDATASIZE LT PUSH3 0x37 JUMPI PUSH0 CALLDATALOAD PUSH1 0xE0 SHR DUP1 PUSH4 0x3A69475A EQ PUSH3 0x3B JUMPI DUP1 PUSH4 0x893D20E8 EQ PUSH3 0x54 JUMPI DUP1 PUSH4 0xE22C6B44 EQ PUSH3 0x80 JUMPI JUMPDEST PUSH0 DUP1 REVERT JUMPDEST PUSH3 0x52 PUSH3 0x4C CALLDATASIZE PUSH1 0x4 PUSH3 0x2FD JUMP JUMPDEST PUSH3 0xB3 JUMP JUMPDEST STOP JUMPDEST CALLVALUE DUP1 ISZERO PUSH3 0x60 JUMPI PUSH0 DUP1 REVERT JUMPDEST POP PUSH0 SLOAD PUSH1 0x40 MLOAD PUSH1 0x1 PUSH1 0x1 PUSH1 0xA0 SHL SUB SWAP1 SWAP2 AND DUP2 MSTORE PUSH1 0x20 ADD JUMPDEST PUSH1 0x40 MLOAD DUP1 SWAP2 SUB SWAP1 RETURN JUMPDEST CALLVALUE DUP1 ISZERO PUSH3 0x8C JUMPI PUSH0 DUP1 REVERT JUMPDEST POP PUSH3 0xA4 PUSH3 0x9E CALLDATASIZE PUSH1 0x4 PUSH3 0x3B4 JUMP JUMPDEST PUSH3 0x1CE JUMP JUMPDEST PUSH1 0x40 MLOAD PUSH3 0x77 SWAP2 SWAP1 PUSH3 0x467 JUMP JUMPDEST PUSH0 SLOAD PUSH1 0x1 PUSH1 0x1 PUSH1 0xA0 SHL SUB AND CALLER EQ PUSH3 0x102 JUMPI PUSH1 0x40 MLOAD PUSH3 0x461BCD PUSH1 0xE5 SHL DUP2 MSTORE PUSH1 0x20 PUSH1 0x4 DUP3 ADD MSTORE PUSH1 0xE PUSH1 0x24 DUP3 ADD MSTORE PUSH14 0x24B73B30B634B21031B0B63632B9 PUSH1 0x91 SHL PUSH1 0x44 DUP3 ADD MSTORE PUSH1 0x64 ADD PUSH1 0x40 MLOAD DUP1 SWAP2 SUB SWAP1 REVERT JUMPDEST PUSH0 DUP4 DUP6 MLOAD PUSH1 0x20 DUP8 ADD CALLVALUE CREATE2 SWAP1 POP DUP1 EXTCODESIZE PUSH3 0x119 JUMPI PUSH0 DUP1 REVERT JUMPDEST PUSH1 0x40 DUP1 MLOAD PUSH1 0x1 PUSH1 0x1 PUSH1 0xA0 SHL SUB DUP4 AND DUP2 MSTORE PUSH1 0x20 DUP2 ADD DUP7 SWAP1 MSTORE PUSH32 0xB03C53B28E78A88E31607A27E1FA48234DCE28D5D9D9EC7B295AEB02E674A1E1 SWAP2 ADD PUSH1 0x40 MLOAD DUP1 SWAP2 SUB SWAP1 LOG1 PUSH0 DUP2 PUSH1 0x1 PUSH1 0x1 PUSH1 0xA0 SHL SUB AND DUP5 DUP5 PUSH1 0x40 MLOAD PUSH3 0x178 SWAP3 SWAP2 SWAP1 PUSH3 0x482 JUMP JUMPDEST PUSH0 PUSH1 0x40 MLOAD DUP1 DUP4 SUB DUP2 PUSH0 DUP7 GAS CALL SWAP2 POP POP RETURNDATASIZE DUP1 PUSH0 DUP2 EQ PUSH3 0x1B3 JUMPI PUSH1 0x40 MLOAD SWAP2 POP PUSH1 0x1F NOT PUSH1 0x3F RETURNDATASIZE ADD AND DUP3 ADD PUSH1 0x40 MSTORE RETURNDATASIZE DUP3 MSTORE RETURNDATASIZE PUSH0 PUSH1 0x20 DUP5 ADD RETURNDATACOPY PUSH3 0x1B8 JUMP JUMPDEST PUSH1 0x60 SWAP2 POP JUMPDEST POP POP SWAP1 POP DUP1 PUSH3 0x1C6 JUMPI PUSH0 DUP1 REVERT JUMPDEST POP POP POP POP POP POP JUMP JUMPDEST PUSH1 0x60 PUSH0 PUSH1 0x40 MLOAD DUP1 PUSH1 0x20 ADD PUSH3 0x1E3 SWAP1 PUSH3 0x24A JUMP JUMPDEST PUSH1 0x20 DUP3 ADD DUP2 SUB DUP3 MSTORE PUSH1 0x1F NOT PUSH1 0x1F DUP3 ADD AND PUSH1 0x40 MSTORE POP SWAP1 POP DUP1 DUP6 DUP6 DUP6 PUSH1 0x40 MLOAD PUSH1 0x20 ADD PUSH3 0x211 SWAP4 SWAP3 SWAP2 SWAP1 PUSH3 0x491 JUMP JUMPDEST PUSH1 0x40 DUP1 MLOAD PUSH1 0x1F NOT DUP2 DUP5 SUB ADD DUP2 MSTORE SWAP1 DUP3 SWAP1 MSTORE PUSH3 0x231 SWAP3 SWAP2 PUSH1 0x20 ADD PUSH3 0x4C7 JUMP JUMPDEST PUSH1 0x40 MLOAD PUSH1 0x20 DUP2 DUP4 SUB SUB DUP2 MSTORE SWAP1 PUSH1 0x40 MSTORE SWAP2 POP POP SWAP4 SWAP3 POP POP POP JUMP JUMPDEST PUSH2 0xDF4 DUP1 PUSH3 0x4FA DUP4 CODECOPY ADD SWAP1 JUMP JUMPDEST PUSH4 0x4E487B71 PUSH1 0xE0 SHL PUSH0 MSTORE PUSH1 0x41 PUSH1 0x4 MSTORE PUSH1 0x24 PUSH0 REVERT JUMPDEST PUSH0 DUP3 PUSH1 0x1F DUP4 ADD SLT PUSH3 0x27C JUMPI PUSH0 DUP1 REVERT JUMPDEST DUP2 CALLDATALOAD PUSH8 0xFFFFFFFFFFFFFFFF DUP1 DUP3 GT ISZERO PUSH3 0x29A JUMPI PUSH3 0x29A PUSH3 0x258 JUMP JUMPDEST PUSH1 0x40 MLOAD PUSH1 0x1F DUP4 ADD PUSH1 0x1F NOT SWAP1 DUP2 AND PUSH1 0x3F ADD AND DUP2 ADD SWAP1 DUP3 DUP3 GT DUP2 DUP4 LT OR ISZERO PUSH3 0x2C5 JUMPI PUSH3 0x2C5 PUSH3 0x258 JUMP JUMPDEST DUP2 PUSH1 0x40 MSTORE DUP4 DUP2 MSTORE DUP7 PUSH1 0x20 DUP6 DUP9 ADD ADD GT ISZERO PUSH3 0x2DE JUMPI PUSH0 DUP1 REVERT JUMPDEST DUP4 PUSH1 0x20 DUP8 ADD PUSH1 0x20 DUP4 ADD CALLDATACOPY PUSH0 PUSH1 0x20 DUP6 DUP4 ADD ADD MSTORE DUP1 SWAP5 POP POP POP POP POP SWAP3 SWAP2 POP POP JUMP JUMPDEST PUSH0 DUP1 PUSH0 DUP1 PUSH1 0x60 DUP6 DUP8 SUB SLT ISZERO PUSH3 0x311 JUMPI PUSH0 DUP1 REVERT JUMPDEST DUP5 CALLDATALOAD PUSH8 0xFFFFFFFFFFFFFFFF DUP1 DUP3 GT ISZERO PUSH3 0x329 JUMPI PUSH0 DUP1 REVERT JUMPDEST PUSH3 0x337 DUP9 DUP4 DUP10 ADD PUSH3 0x26C JUMP JUMPDEST SWAP6 POP PUSH1 0x20 DUP8 ADD CALLDATALOAD SWAP5 POP PUSH1 0x40 DUP8 ADD CALLDATALOAD SWAP2 POP DUP1 DUP3 GT ISZERO PUSH3 0x354 JUMPI PUSH0 DUP1 REVERT JUMPDEST DUP2 DUP8 ADD SWAP2 POP DUP8 PUSH1 0x1F DUP4 ADD SLT PUSH3 0x368 JUMPI PUSH0 DUP1 REVERT JUMPDEST DUP2 CALLDATALOAD DUP2 DUP2 GT ISZERO PUSH3 0x377 JUMPI PUSH0 DUP1 REVERT JUMPDEST DUP9 PUSH1 0x20 DUP3 DUP6 ADD ADD GT ISZERO PUSH3 0x389 JUMPI PUSH0 DUP1 REVERT JUMPDEST SWAP6 SWAP9 SWAP5 SWAP8 POP POP PUSH1 0x20 ADD SWAP5 POP POP POP JUMP JUMPDEST DUP1 CALLDATALOAD PUSH1 0x1 PUSH1 0x1 PUSH1 0xA0 SHL SUB DUP2 AND DUP2 EQ PUSH3 0x3AF JUMPI PUSH0 DUP1 REVERT JUMPDEST SWAP2 SWAP1 POP JUMP JUMPDEST PUSH0 DUP1 PUSH0 PUSH1 0x60 DUP5 DUP7 SUB SLT ISZERO PUSH3 0x3C7 JUMPI PUSH0 DUP1 REVERT JUMPDEST PUSH3 0x3D2 DUP5 PUSH3 0x398 JUMP JUMPDEST SWAP3 POP PUSH3 0x3E2 PUSH1 0x20 DUP6 ADD PUSH3 0x398 JUMP JUMPDEST SWAP2 POP PUSH1 0x40 DUP5 ADD CALLDATALOAD PUSH8 0xFFFFFFFFFFFFFFFF DUP2 GT ISZERO PUSH3 0x3FE JUMPI PUSH0 DUP1 REVERT JUMPDEST PUSH3 0x40C DUP7 DUP3 DUP8 ADD PUSH3 0x26C JUMP JUMPDEST SWAP2 POP POP SWAP3 POP SWAP3 POP SWAP3 JUMP JUMPDEST PUSH0 JUMPDEST DUP4 DUP2 LT ISZERO PUSH3 0x432 JUMPI DUP2 DUP2 ADD MLOAD DUP4 DUP3 ADD MSTORE PUSH1 0x20 ADD PUSH3 0x418 JUMP JUMPDEST POP POP PUSH0 SWAP2 ADD MSTORE JUMP JUMPDEST PUSH0 DUP2 MLOAD DUP1 DUP5 MSTORE PUSH3 0x453 DUP2 PUSH1 0x20 DUP7 ADD PUSH1 0x20 DUP7 ADD PUSH3 0x416 JUMP JUMPDEST PUSH1 0x1F ADD PUSH1 0x1F NOT AND SWAP3 SWAP1 SWAP3 ADD PUSH1 0x20 ADD SWAP3 SWAP2 POP POP JUMP JUMPDEST PUSH1 0x20 DUP2 MSTORE PUSH0 PUSH3 0x47B PUSH1 0x20 DUP4 ADD DUP5 PUSH3 0x43A JUMP JUMPDEST SWAP4 SWAP3 POP POP POP JUMP JUMPDEST DUP2 DUP4 DUP3 CALLDATACOPY PUSH0 SWAP2 ADD SWAP1 DUP2 MSTORE SWAP2 SWAP1 POP JUMP JUMPDEST PUSH1 0x1 PUSH1 0x1 PUSH1 0xA0 SHL SUB DUP5 DUP2 AND DUP3 MSTORE DUP4 AND PUSH1 0x20 DUP3 ADD MSTORE PUSH1 0x60 PUSH1 0x40 DUP3 ADD DUP2 SWAP1 MSTORE PUSH0 SWAP1 PUSH3 0x4BE SWAP1 DUP4 ADD DUP5 PUSH3 0x43A JUMP JUMPDEST SWAP6 SWAP5 POP POP POP POP POP JUMP JUMPDEST PUSH0 DUP4 MLOAD PUSH3 0x4DA DUP2 DUP5 PUSH1 0x20 DUP9 ADD PUSH3 0x416 JUMP JUMPDEST DUP4 MLOAD SWAP1 DUP4 ADD SWAP1 PUSH3 0x4F0 DUP2 DUP4 PUSH1 0x20 DUP9 ADD PUSH3 0x416 JUMP JUMPDEST ADD SWAP5 SWAP4 POP POP POP POP JUMP INVALID PUSH1 0x80 PUSH1 0x40 MSTORE PUSH1 0x40 MLOAD PUSH3 0xDF4 CODESIZE SUB DUP1 PUSH3 0xDF4 DUP4 CODECOPY DUP2 ADD PUSH1 0x40 DUP2 SWAP1 MSTORE PUSH3 0x26 SWAP2 PUSH3 0x415 JUMP JUMPDEST DUP3 DUP2 PUSH3 0x35 DUP3 DUP3 PUSH0 PUSH3 0x4C JUMP JUMPDEST POP PUSH3 0x43 SWAP1 POP DUP3 PUSH3 0x7D JUMP JUMPDEST POP POP POP PUSH3 0x540 JUMP JUMPDEST PUSH3 0x57 DUP4 PUSH3 0xEE JUMP JUMPDEST PUSH0 DUP3 MLOAD GT DUP1 PUSH3 0x64 JUMPI POP DUP1 JUMPDEST ISZERO PUSH3 0x78 JUMPI PUSH3 0x76 DUP4 DUP4 PUSH3 0x12F JUMP JUMPDEST POP JUMPDEST POP POP POP JUMP JUMPDEST PUSH32 0x7E644D79422F17C01E4894B5F4F588D331EBFA28653D42AE832DC59E38C9798F PUSH3 0xBE PUSH0 DUP1 MLOAD PUSH1 0x20 PUSH3 0xDAD DUP4 CODECOPY DUP2 MLOAD SWAP2 MSTORE SLOAD PUSH1 0x1 PUSH1 0x1 PUSH1 0xA0 SHL SUB AND SWAP1 JUMP JUMPDEST PUSH1 0x40 DUP1 MLOAD PUSH1 0x1 PUSH1 0x1 PUSH1 0xA0 SHL SUB SWAP3 DUP4 AND DUP2 MSTORE SWAP2 DUP5 AND PUSH1 0x20 DUP4 ADD MSTORE ADD PUSH1 0x40 MLOAD DUP1 SWAP2 SUB SWAP1 LOG1 PUSH3 0xEB DUP2 PUSH3 0x15E JUMP JUMPDEST POP JUMP JUMPDEST PUSH3 0xF9 DUP2 PUSH3 0x1FB JUMP JUMPDEST PUSH1 0x40 MLOAD PUSH1 0x1 PUSH1 0x1 PUSH1 0xA0 SHL SUB DUP3 AND SWAP1 PUSH32 0xBC7CD75A20EE27FD9ADEBAB32041F755214DBC6BFFA90CC0225B39DA2E5C2D3B SWAP1 PUSH0 SWAP1 LOG2 POP JUMP JUMPDEST PUSH1 0x60 PUSH3 0x157 DUP4 DUP4 PUSH1 0x40 MLOAD DUP1 PUSH1 0x60 ADD PUSH1 0x40 MSTORE DUP1 PUSH1 0x27 DUP2 MSTORE PUSH1 0x20 ADD PUSH3 0xDCD PUSH1 0x27 SWAP2 CODECOPY PUSH3 0x292 JUMP JUMPDEST SWAP4 SWAP3 POP POP POP JUMP JUMPDEST PUSH1 0x1 PUSH1 0x1 PUSH1 0xA0 SHL SUB DUP2 AND PUSH3 0x1C9 JUMPI PUSH1 0x40 MLOAD PUSH3 0x461BCD PUSH1 0xE5 SHL DUP2 MSTORE PUSH1 0x20 PUSH1 0x4 DUP3 ADD MSTORE PUSH1 0x26 PUSH1 0x24 DUP3 ADD MSTORE PUSH32 0x455243313936373A206E65772061646D696E20697320746865207A65726F2061 PUSH1 0x44 DUP3 ADD MSTORE PUSH6 0x646472657373 PUSH1 0xD0 SHL PUSH1 0x64 DUP3 ADD MSTORE PUSH1 0x84 ADD JUMPDEST PUSH1 0x40 MLOAD DUP1 SWAP2 SUB SWAP1 REVERT JUMPDEST DUP1 PUSH0 DUP1 MLOAD PUSH1 0x20 PUSH3 0xDAD DUP4 CODECOPY DUP2 MLOAD SWAP2 MSTORE JUMPDEST DUP1 SLOAD PUSH1 0x1 PUSH1 0x1 PUSH1 0xA0 SHL SUB NOT AND PUSH1 0x1 PUSH1 0x1 PUSH1 0xA0 SHL SUB SWAP3 SWAP1 SWAP3 AND SWAP2 SWAP1 SWAP2 OR SWAP1 SSTORE POP JUMP JUMPDEST PUSH1 0x1 PUSH1 0x1 PUSH1 0xA0 SHL SUB DUP2 AND EXTCODESIZE PUSH3 0x26A JUMPI PUSH1 0x40 MLOAD PUSH3 0x461BCD PUSH1 0xE5 SHL DUP2 MSTORE PUSH1 0x20 PUSH1 0x4 DUP3 ADD MSTORE PUSH1 0x2D PUSH1 0x24 DUP3 ADD MSTORE PUSH32 0x455243313936373A206E657720696D706C656D656E746174696F6E206973206E PUSH1 0x44 DUP3 ADD MSTORE PUSH13 0x1BDD08184818DBDB9D1C9858DD PUSH1 0x9A SHL PUSH1 0x64 DUP3 ADD MSTORE PUSH1 0x84 ADD PUSH3 0x1C0 JUMP JUMPDEST DUP1 PUSH32 0x360894A13BA1A3210667C828492DB98DCA3E2076CC3735A920A3CA505D382BBC PUSH3 0x1DA JUMP JUMPDEST PUSH1 0x60 PUSH0 DUP1 DUP6 PUSH1 0x1 PUSH1 0x1 PUSH1 0xA0 SHL SUB AND DUP6 PUSH1 0x40 MLOAD PUSH3 0x2B0 SWAP2 SWAP1 PUSH3 0x4EF JUMP JUMPDEST PUSH0 PUSH1 0x40 MLOAD DUP1 DUP4 SUB DUP2 DUP6 GAS DELEGATECALL SWAP2 POP POP RETURNDATASIZE DUP1 PUSH0 DUP2 EQ PUSH3 0x2EA JUMPI PUSH1 0x40 MLOAD SWAP2 POP PUSH1 0x1F NOT PUSH1 0x3F RETURNDATASIZE ADD AND DUP3 ADD PUSH1 0x40 MSTORE RETURNDATASIZE DUP3 MSTORE RETURNDATASIZE PUSH0 PUSH1 0x20 DUP5 ADD RETURNDATACOPY PUSH3 0x2EF JUMP JUMPDEST PUSH1 0x60 SWAP2 POP JUMPDEST POP SWAP1 SWAP3 POP SWAP1 POP PUSH3 0x303 DUP7 DUP4 DUP4 DUP8 PUSH3 0x30D JUMP JUMPDEST SWAP7 SWAP6 POP POP POP POP POP POP JUMP JUMPDEST PUSH1 0x60 DUP4 ISZERO PUSH3 0x380 JUMPI DUP3 MLOAD PUSH0 SUB PUSH3 0x378 JUMPI PUSH1 0x1 PUSH1 0x1 PUSH1 0xA0 SHL SUB DUP6 AND EXTCODESIZE PUSH3 0x378 JUMPI PUSH1 0x40 MLOAD PUSH3 0x461BCD PUSH1 0xE5 SHL DUP2 MSTORE PUSH1 0x20 PUSH1 0x4 DUP3 ADD MSTORE PUSH1 0x1D PUSH1 0x24 DUP3 ADD MSTORE PUSH32 0x416464726573733A2063616C6C20746F206E6F6E2D636F6E7472616374000000 PUSH1 0x44 DUP3 ADD MSTORE PUSH1 0x64 ADD PUSH3 0x1C0 JUMP JUMPDEST POP DUP2 PUSH3 0x38C JUMP JUMPDEST PUSH3 0x38C DUP4 DUP4 PUSH3 0x394 JUMP JUMPDEST SWAP5 SWAP4 POP POP POP POP JUMP JUMPDEST DUP2 MLOAD ISZERO PUSH3 0x3A5 JUMPI DUP2 MLOAD DUP1 DUP4 PUSH1 0x20 ADD REVERT JUMPDEST DUP1 PUSH1 0x40 MLOAD PUSH3 0x461BCD PUSH1 0xE5 SHL DUP2 MSTORE PUSH1 0x4 ADD PUSH3 0x1C0 SWAP2 SWAP1 PUSH3 0x50C JUMP JUMPDEST DUP1 MLOAD PUSH1 0x1 PUSH1 0x1 PUSH1 0xA0 SHL SUB DUP2 AND DUP2 EQ PUSH3 0x3D8 JUMPI PUSH0 DUP1 REVERT JUMPDEST SWAP2 SWAP1 POP JUMP JUMPDEST PUSH4 0x4E487B71 PUSH1 0xE0 SHL PUSH0 MSTORE PUSH1 0x41 PUSH1 0x4 MSTORE PUSH1 0x24 PUSH0 REVERT JUMPDEST PUSH0 JUMPDEST DUP4 DUP2 LT ISZERO PUSH3 0x40D JUMPI DUP2 DUP2 ADD MLOAD DUP4 DUP3 ADD MSTORE PUSH1 0x20 ADD PUSH3 0x3F3 JUMP JUMPDEST POP POP PUSH0 SWAP2 ADD MSTORE JUMP JUMPDEST PUSH0 DUP1 PUSH0 PUSH1 0x60 DUP5 DUP7 SUB SLT ISZERO PUSH3 0x428 JUMPI PUSH0 DUP1 REVERT JUMPDEST PUSH3 0x433 DUP5 PUSH3 0x3C1 JUMP JUMPDEST SWAP3 POP PUSH3 0x443 PUSH1 0x20 DUP6 ADD PUSH3 0x3C1 JUMP JUMPDEST PUSH1 0x40 DUP6 ADD MLOAD SWAP1 SWAP3 POP PUSH1 0x1 PUSH1 0x1 PUSH1 0x40 SHL SUB DUP1 DUP3 GT ISZERO PUSH3 0x460 JUMPI PUSH0 DUP1 REVERT JUMPDEST DUP2 DUP7 ADD SWAP2 POP DUP7 PUSH1 0x1F DUP4 ADD SLT PUSH3 0x474 JUMPI PUSH0 DUP1 REVERT JUMPDEST DUP2 MLOAD DUP2 DUP2 GT ISZERO PUSH3 0x489 JUMPI PUSH3 0x489 PUSH3 0x3DD JUMP JUMPDEST PUSH1 0x40 MLOAD PUSH1 0x1F DUP3 ADD PUSH1 0x1F NOT SWAP1 DUP2 AND PUSH1 0x3F ADD AND DUP2 ADD SWAP1 DUP4 DUP3 GT DUP2 DUP4 LT OR ISZERO PUSH3 0x4B4 JUMPI PUSH3 0x4B4 PUSH3 0x3DD JUMP JUMPDEST DUP2 PUSH1 0x40 MSTORE DUP3 DUP2 MSTORE DUP10 PUSH1 0x20 DUP5 DUP8 ADD ADD GT ISZERO PUSH3 0x4CD JUMPI PUSH0 DUP1 REVERT JUMPDEST PUSH3 0x4E0 DUP4 PUSH1 0x20 DUP4 ADD PUSH1 0x20 DUP9 ADD PUSH3 0x3F1 JUMP JUMPDEST DUP1 SWAP6 POP POP POP POP POP POP SWAP3 POP SWAP3 POP SWAP3 JUMP JUMPDEST PUSH0 DUP3 MLOAD PUSH3 0x502 DUP2 DUP5 PUSH1 0x20 DUP8 ADD PUSH3 0x3F1 JUMP JUMPDEST SWAP2 SWAP1 SWAP2 ADD SWAP3 SWAP2 POP POP JUMP JUMPDEST PUSH1 0x20 DUP2 MSTORE PUSH0 DUP3 MLOAD DUP1 PUSH1 0x20 DUP5 ADD MSTORE PUSH3 0x52C DUP2 PUSH1 0x40 DUP6 ADD PUSH1 0x20 DUP8 ADD PUSH3 0x3F1 JUMP JUMPDEST PUSH1 0x1F ADD PUSH1 0x1F NOT AND SWAP2 SWAP1 SWAP2 ADD PUSH1 0x40 ADD SWAP3 SWAP2 POP POP JUMP JUMPDEST PUSH2 0x85F DUP1 PUSH3 0x54E PUSH0 CODECOPY PUSH0 RETURN INVALID PUSH1 0x80 PUSH1 0x40 MSTORE CALLDATASIZE PUSH2 0x13 JUMPI PUSH2 0x11 PUSH2 0x17 JUMP JUMPDEST STOP JUMPDEST PUSH2 0x11 JUMPDEST PUSH2 0x1F PUSH2 0x168 JUMP JUMPDEST PUSH1 0x1 PUSH1 0x1 PUSH1 0xA0 SHL SUB AND CALLER SUB PUSH2 0x15E JUMPI PUSH1 0x60 PUSH1 0x1 PUSH1 0x1 PUSH1 0xE0 SHL SUB NOT PUSH0 CALLDATALOAD AND PUSH4 0x64D3180D PUSH1 0xE1 SHL DUP2 ADD PUSH2 0x59 JUMPI PUSH2 0x52 PUSH2 0x19A JUMP JUMPDEST SWAP2 POP PUSH2 0x156 JUMP JUMPDEST PUSH4 0x587086BD PUSH1 0xE1 SHL PUSH1 0x1 PUSH1 0x1 PUSH1 0xE0 SHL SUB NOT DUP3 AND ADD PUSH2 0x79 JUMPI PUSH2 0x52 PUSH2 0x1ED JUMP JUMPDEST PUSH4 0x70D7C69 PUSH1 0xE4 SHL PUSH1 0x1 PUSH1 0x1 PUSH1 0xE0 SHL SUB NOT DUP3 AND ADD PUSH2 0x99 JUMPI PUSH2 0x52 PUSH2 0x231 JUMP JUMPDEST PUSH3 0x1EB96F PUSH1 0xE6 SHL PUSH1 0x1 PUSH1 0x1 PUSH1 0xE0 SHL SUB NOT DUP3 AND ADD PUSH2 0xB8 JUMPI PUSH2 0x52 PUSH2 0x261 JUMP JUMPDEST PUSH4 0xA39F25E5 PUSH1 0xE0 SHL PUSH1 0x1 PUSH1 0x1 PUSH1 0xE0 SHL SUB NOT DUP3 AND ADD PUSH2 0xD8 JUMPI PUSH2 0x52 PUSH2 0x2A0 JUMP JUMPDEST PUSH1 0x40 MLOAD PUSH3 0x461BCD PUSH1 0xE5 SHL DUP2 MSTORE PUSH1 0x20 PUSH1 0x4 DUP3 ADD MSTORE PUSH1 0x42 PUSH1 0x24 DUP3 ADD MSTORE PUSH32 0x5472616E73706172656E745570677261646561626C6550726F78793A2061646D PUSH1 0x44 DUP3 ADD MSTORE PUSH32 0x696E2063616E6E6F742066616C6C6261636B20746F2070726F78792074617267 PUSH1 0x64 DUP3 ADD MSTORE PUSH2 0x195D PUSH1 0xF2 SHL PUSH1 0x84 DUP3 ADD MSTORE PUSH1 0xA4 ADD JUMPDEST PUSH1 0x40 MLOAD DUP1 SWAP2 SUB SWAP1 REVERT JUMPDEST DUP2 MLOAD PUSH1 0x20 DUP4 ADD RETURN JUMPDEST PUSH2 0x166 PUSH2 0x2B3 JUMP JUMPDEST JUMP JUMPDEST PUSH0 PUSH32 0xB53127684A568B3173AE13B9F8A6016E243E63B6E8EE1178D6A717850B5D6103 JUMPDEST SLOAD PUSH1 0x1 PUSH1 0x1 PUSH1 0xA0 SHL SUB AND SWAP2 SWAP1 POP JUMP JUMPDEST PUSH1 0x60 PUSH2 0x1A4 PUSH2 0x2C3 JUMP JUMPDEST PUSH0 PUSH2 0x1B2 CALLDATASIZE PUSH1 0x4 DUP2 DUP5 PUSH2 0x668 JUMP JUMPDEST DUP2 ADD SWAP1 PUSH2 0x1BF SWAP2 SWAP1 PUSH2 0x6AA JUMP JUMPDEST SWAP1 POP PUSH2 0x1DA DUP2 PUSH1 0x40 MLOAD DUP1 PUSH1 0x20 ADD PUSH1 0x40 MSTORE DUP1 PUSH0 DUP2 MSTORE POP PUSH0 PUSH2 0x2CD JUMP JUMPDEST POP POP PUSH1 0x40 DUP1 MLOAD PUSH1 0x20 DUP2 ADD SWAP1 SWAP2 MSTORE PUSH0 DUP2 MSTORE SWAP1 JUMP JUMPDEST PUSH1 0x60 PUSH0 DUP1 PUSH2 0x1FE CALLDATASIZE PUSH1 0x4 DUP2 DUP5 PUSH2 0x668 JUMP JUMPDEST DUP2 ADD SWAP1 PUSH2 0x20B SWAP2 SWAP1 PUSH2 0x6D7 JUMP JUMPDEST SWAP2 POP SWAP2 POP PUSH2 0x21B DUP3 DUP3 PUSH1 0x1 PUSH2 0x2CD JUMP JUMPDEST PUSH1 0x40 MLOAD DUP1 PUSH1 0x20 ADD PUSH1 0x40 MSTORE DUP1 PUSH0 DUP2 MSTORE POP SWAP3 POP POP POP SWAP1 JUMP JUMPDEST PUSH1 0x60 PUSH2 0x23B PUSH2 0x2C3 JUMP JUMPDEST PUSH0 PUSH2 0x249 CALLDATASIZE PUSH1 0x4 DUP2 DUP5 PUSH2 0x668 JUMP JUMPDEST DUP2 ADD SWAP1 PUSH2 0x256 SWAP2 SWAP1 PUSH2 0x6AA JUMP JUMPDEST SWAP1 POP PUSH2 0x1DA DUP2 PUSH2 0x2F8 JUMP JUMPDEST PUSH1 0x60 PUSH2 0x26B PUSH2 0x2C3 JUMP JUMPDEST PUSH0 PUSH2 0x274 PUSH2 0x168 JUMP JUMPDEST PUSH1 0x40 DUP1 MLOAD PUSH1 0x1 PUSH1 0x1 PUSH1 0xA0 SHL SUB DUP4 AND PUSH1 0x20 DUP3 ADD MSTORE SWAP2 SWAP3 POP ADD PUSH1 0x40 MLOAD PUSH1 0x20 DUP2 DUP4 SUB SUB DUP2 MSTORE SWAP1 PUSH1 0x40 MSTORE SWAP2 POP POP SWAP1 JUMP JUMPDEST PUSH1 0x60 PUSH2 0x2AA PUSH2 0x2C3 JUMP JUMPDEST PUSH0 PUSH2 0x274 PUSH2 0x34F JUMP JUMPDEST PUSH2 0x166 PUSH2 0x2BE PUSH2 0x34F JUMP JUMPDEST PUSH2 0x35D JUMP JUMPDEST CALLVALUE ISZERO PUSH2 0x166 JUMPI PUSH0 DUP1 REVERT JUMPDEST PUSH2 0x2D6 DUP4 PUSH2 0x37B JUMP JUMPDEST PUSH0 DUP3 MLOAD GT DUP1 PUSH2 0x2E2 JUMPI POP DUP1 JUMPDEST ISZERO PUSH2 0x2F3 JUMPI PUSH2 0x2F1 DUP4 DUP4 PUSH2 0x3BA JUMP JUMPDEST POP JUMPDEST POP POP POP JUMP JUMPDEST PUSH32 0x7E644D79422F17C01E4894B5F4F588D331EBFA28653D42AE832DC59E38C9798F PUSH2 0x321 PUSH2 0x168 JUMP JUMPDEST PUSH1 0x40 DUP1 MLOAD PUSH1 0x1 PUSH1 0x1 PUSH1 0xA0 SHL SUB SWAP3 DUP4 AND DUP2 MSTORE SWAP2 DUP5 AND PUSH1 0x20 DUP4 ADD MSTORE ADD PUSH1 0x40 MLOAD DUP1 SWAP2 SUB SWAP1 LOG1 PUSH2 0x34C DUP2 PUSH2 0x3E6 JUMP JUMPDEST POP JUMP JUMPDEST PUSH0 PUSH2 0x358 PUSH2 0x48F JUMP JUMPDEST SWAP1 POP SWAP1 JUMP JUMPDEST CALLDATASIZE PUSH0 DUP1 CALLDATACOPY PUSH0 DUP1 CALLDATASIZE PUSH0 DUP5 GAS DELEGATECALL RETURNDATASIZE PUSH0 DUP1 RETURNDATACOPY DUP1 DUP1 ISZERO PUSH2 0x377 JUMPI RETURNDATASIZE PUSH0 RETURN JUMPDEST RETURNDATASIZE PUSH0 REVERT JUMPDEST PUSH2 0x384 DUP2 PUSH2 0x4B6 JUMP JUMPDEST PUSH1 0x40 MLOAD PUSH1 0x1 PUSH1 0x1 PUSH1 0xA0 SHL SUB DUP3 AND SWAP1 PUSH32 0xBC7CD75A20EE27FD9ADEBAB32041F755214DBC6BFFA90CC0225B39DA2E5C2D3B SWAP1 PUSH0 SWAP1 LOG2 POP JUMP JUMPDEST PUSH1 0x60 PUSH2 0x3DF DUP4 DUP4 PUSH1 0x40 MLOAD DUP1 PUSH1 0x60 ADD PUSH1 0x40 MSTORE DUP1 PUSH1 0x27 DUP2 MSTORE PUSH1 0x20 ADD PUSH2 0x803 PUSH1 0x27 SWAP2 CODECOPY PUSH2 0x54A JUMP JUMPDEST SWAP4 SWAP3 POP POP POP JUMP JUMPDEST PUSH1 0x1 PUSH1 0x1 PUSH1 0xA0 SHL SUB DUP2 AND PUSH2 0x44B JUMPI PUSH1 0x40 MLOAD PUSH3 0x461BCD PUSH1 0xE5 SHL DUP2 MSTORE PUSH1 0x20 PUSH1 0x4 DUP3 ADD MSTORE PUSH1 0x26 PUSH1 0x24 DUP3 ADD MSTORE PUSH32 0x455243313936373A206E65772061646D696E20697320746865207A65726F2061 PUSH1 0x44 DUP3 ADD MSTORE PUSH6 0x646472657373 PUSH1 0xD0 SHL PUSH1 0x64 DUP3 ADD MSTORE PUSH1 0x84 ADD PUSH2 0x14D JUMP JUMPDEST DUP1 PUSH32 0xB53127684A568B3173AE13B9F8A6016E243E63B6E8EE1178D6A717850B5D6103 JUMPDEST DUP1 SLOAD PUSH1 0x1 PUSH1 0x1 PUSH1 0xA0 SHL SUB NOT AND PUSH1 0x1 PUSH1 0x1 PUSH1 0xA0 SHL SUB SWAP3 SWAP1 SWAP3 AND SWAP2 SWAP1 SWAP2 OR SWAP1 SSTORE POP JUMP JUMPDEST PUSH0 PUSH32 0x360894A13BA1A3210667C828492DB98DCA3E2076CC3735A920A3CA505D382BBC PUSH2 0x18B JUMP JUMPDEST PUSH1 0x1 PUSH1 0x1 PUSH1 0xA0 SHL SUB DUP2 AND EXTCODESIZE PUSH2 0x523 JUMPI PUSH1 0x40 MLOAD PUSH3 0x461BCD PUSH1 0xE5 SHL DUP2 MSTORE PUSH1 0x20 PUSH1 0x4 DUP3 ADD MSTORE PUSH1 0x2D PUSH1 0x24 DUP3 ADD MSTORE PUSH32 0x455243313936373A206E657720696D706C656D656E746174696F6E206973206E PUSH1 0x44 DUP3 ADD MSTORE PUSH13 0x1BDD08184818DBDB9D1C9858DD PUSH1 0x9A SHL PUSH1 0x64 DUP3 ADD MSTORE PUSH1 0x84 ADD PUSH2 0x14D JUMP JUMPDEST DUP1 PUSH32 0x360894A13BA1A3210667C828492DB98DCA3E2076CC3735A920A3CA505D382BBC PUSH2 0x46E JUMP JUMPDEST PUSH1 0x60 PUSH0 DUP1 DUP6 PUSH1 0x1 PUSH1 0x1 PUSH1 0xA0 SHL SUB AND DUP6 PUSH1 0x40 MLOAD PUSH2 0x566 SWAP2 SWAP1 PUSH2 0x7B5 JUMP JUMPDEST PUSH0 PUSH1 0x40 MLOAD DUP1 DUP4 SUB DUP2 DUP6 GAS DELEGATECALL SWAP2 POP POP RETURNDATASIZE DUP1 PUSH0 DUP2 EQ PUSH2 0x59E JUMPI PUSH1 0x40 MLOAD SWAP2 POP PUSH1 0x1F NOT PUSH1 0x3F RETURNDATASIZE ADD AND DUP3 ADD PUSH1 0x40 MSTORE RETURNDATASIZE DUP3 MSTORE RETURNDATASIZE PUSH0 PUSH1 0x20 DUP5 ADD RETURNDATACOPY PUSH2 0x5A3 JUMP JUMPDEST PUSH1 0x60 SWAP2 POP JUMPDEST POP SWAP2 POP SWAP2 POP PUSH2 0x5B4 DUP7 DUP4 DUP4 DUP8 PUSH2 0x5BE JUMP JUMPDEST SWAP7 SWAP6 POP POP POP POP POP POP JUMP JUMPDEST PUSH1 0x60 DUP4 ISZERO PUSH2 0x62C JUMPI DUP3 MLOAD PUSH0 SUB PUSH2 0x625 JUMPI PUSH1 0x1 PUSH1 0x1 PUSH1 0xA0 SHL SUB DUP6 AND EXTCODESIZE PUSH2 0x625 JUMPI PUSH1 0x40 MLOAD PUSH3 0x461BCD PUSH1 0xE5 SHL DUP2 MSTORE PUSH1 0x20 PUSH1 0x4 DUP3 ADD MSTORE PUSH1 0x1D PUSH1 0x24 DUP3 ADD MSTORE PUSH32 0x416464726573733A2063616C6C20746F206E6F6E2D636F6E7472616374000000 PUSH1 0x44 DUP3 ADD MSTORE PUSH1 0x64 ADD PUSH2 0x14D JUMP JUMPDEST POP DUP2 PUSH2 0x636 JUMP JUMPDEST PUSH2 0x636 DUP4 DUP4 PUSH2 0x63E JUMP JUMPDEST SWAP5 SWAP4 POP POP POP POP JUMP JUMPDEST DUP2 MLOAD ISZERO PUSH2 0x64E JUMPI DUP2 MLOAD DUP1 DUP4 PUSH1 0x20 ADD REVERT JUMPDEST DUP1 PUSH1 0x40 MLOAD PUSH3 0x461BCD PUSH1 0xE5 SHL DUP2 MSTORE PUSH1 0x4 ADD PUSH2 0x14D SWAP2 SWAP1 PUSH2 0x7D0 JUMP JUMPDEST PUSH0 DUP1 DUP6 DUP6 GT ISZERO PUSH2 0x676 JUMPI PUSH0 DUP1 REVERT JUMPDEST DUP4 DUP7 GT ISZERO PUSH2 0x682 JUMPI PUSH0 DUP1 REVERT JUMPDEST POP POP DUP3 ADD SWAP4 SWAP2 SWAP1 SWAP3 SUB SWAP2 POP JUMP JUMPDEST DUP1 CALLDATALOAD PUSH1 0x1 PUSH1 0x1 PUSH1 0xA0 SHL SUB DUP2 AND DUP2 EQ PUSH2 0x6A5 JUMPI PUSH0 DUP1 REVERT JUMPDEST SWAP2 SWAP1 POP JUMP JUMPDEST PUSH0 PUSH1 0x20 DUP3 DUP5 SUB SLT ISZERO PUSH2 0x6BA JUMPI PUSH0 DUP1 REVERT JUMPDEST PUSH2 0x3DF DUP3 PUSH2 0x68F JUMP JUMPDEST PUSH4 0x4E487B71 PUSH1 0xE0 SHL PUSH0 MSTORE PUSH1 0x41 PUSH1 0x4 MSTORE PUSH1 0x24 PUSH0 REVERT JUMPDEST PUSH0 DUP1 PUSH1 0x40 DUP4 DUP6 SUB SLT ISZERO PUSH2 0x6E8 JUMPI PUSH0 DUP1 REVERT JUMPDEST PUSH2 0x6F1 DUP4 PUSH2 0x68F JUMP JUMPDEST SWAP2 POP PUSH1 0x20 DUP4 ADD CALLDATALOAD PUSH8 0xFFFFFFFFFFFFFFFF DUP1 DUP3 GT ISZERO PUSH2 0x70D JUMPI PUSH0 DUP1 REVERT JUMPDEST DUP2 DUP6 ADD SWAP2 POP DUP6 PUSH1 0x1F DUP4 ADD SLT PUSH2 0x720 JUMPI PUSH0 DUP1 REVERT JUMPDEST DUP2 CALLDATALOAD DUP2 DUP2 GT ISZERO PUSH2 0x732 JUMPI PUSH2 0x732 PUSH2 0x6C3 JUMP JUMPDEST PUSH1 0x40 MLOAD PUSH1 0x1F DUP3 ADD PUSH1 0x1F NOT SWAP1 DUP2 AND PUSH1 0x3F ADD AND DUP2 ADD SWAP1 DUP4 DUP3 GT DUP2 DUP4 LT OR ISZERO PUSH2 0x75A JUMPI PUSH2 0x75A PUSH2 0x6C3 JUMP JUMPDEST DUP2 PUSH1 0x40 MSTORE DUP3 DUP2 MSTORE DUP9 PUSH1 0x20 DUP5 DUP8 ADD ADD GT ISZERO PUSH2 0x772 JUMPI PUSH0 DUP1 REVERT JUMPDEST DUP3 PUSH1 0x20 DUP7 ADD PUSH1 0x20 DUP4 ADD CALLDATACOPY PUSH0 PUSH1 0x20 DUP5 DUP4 ADD ADD MSTORE DUP1 SWAP6 POP POP POP POP POP POP SWAP3 POP SWAP3 SWAP1 POP JUMP JUMPDEST PUSH0 JUMPDEST DUP4 DUP2 LT ISZERO PUSH2 0x7AD JUMPI DUP2 DUP2 ADD MLOAD DUP4 DUP3 ADD MSTORE PUSH1 0x20 ADD PUSH2 0x795 JUMP JUMPDEST POP POP PUSH0 SWAP2 ADD MSTORE JUMP JUMPDEST PUSH0 DUP3 MLOAD PUSH2 0x7C6 DUP2 DUP5 PUSH1 0x20 DUP8 ADD PUSH2 0x793 JUMP JUMPDEST SWAP2 SWAP1 SWAP2 ADD SWAP3 SWAP2 POP POP JUMP JUMPDEST PUSH1 0x20 DUP2 MSTORE PUSH0 DUP3 MLOAD DUP1 PUSH1 0x20 DUP5 ADD MSTORE PUSH2 0x7EE DUP2 PUSH1 0x40 DUP6 ADD PUSH1 0x20 DUP8 ADD PUSH2 0x793 JUMP JUMPDEST PUSH1 0x1F ADD PUSH1 0x1F NOT AND SWAP2 SWAP1 SWAP2 ADD PUSH1 0x40 ADD SWAP3 SWAP2 POP POP JUMP INVALID COINBASE PUSH5 0x6472657373 GASPRICE KECCAK256 PUSH13 0x6F772D6C6576656C2064656C65 PUSH8 0x6174652063616C6C KECCAK256 PUSH7 0x61696C6564A264 PUSH10 0x70667358221220C5CA2C 0xC0 SWAP15 MSIZE PUSH21 0x2B53089849170E12633873CF05DAD70488A817DD37 SAR 0xDF DUP1 PUSH13 0x64736F6C63430008150033B531 0x27 PUSH9 0x4A568B3173AE13B9F8 0xA6 ADD PUSH15 0x243E63B6E8EE1178D6A717850B5D61 SUB COINBASE PUSH5 0x6472657373 GASPRICE KECCAK256 PUSH13 0x6F772D6C6576656C2064656C65 PUSH8 0x6174652063616C6C KECCAK256 PUSH7 0x61696C6564A264 PUSH10 0x706673582212203AE5D7 0x2F PUSH30 0x99C43CCF587BCD6BCD2111AEB034A19CF1580C367D0BD860A8DDF664736F PUSH13 0x63430008150033000000000000 "
				},
				"gasEstimates": {
					"creation": {
						"codeDepositCost": "979800",
						"executionCost": "infinite",
						"totalCost": "infinite"
					},
					"external": {
						"deploy(bytes,uint256,bytes)": "infinite",
						"getBytecode(address,address,bytes)": "infinite",
						"getOwner()": "2288"
					},
					"internal": {
						"_transferOwnerShip(address)": "infinite"
					}
				},
				"methodIdentifiers": {
					"deploy(bytes,uint256,bytes)": "3a69475a",
					"getBytecode(address,address,bytes)": "e22c6b44",
					"getOwner()": "893d20e8"
				}
			},
			"storageLayout": {
				"storage": [
					{
						"astId": 1217,
						"contract": "ContractDeploymentFactory.sol:ContractDeploymentFactory",
						"label": "owner",
						"offset": 0,
						"slot": "0",
						"type": "t_address"
					}
				],
				"types": {
					"t_address": {
						"encoding": "inplace",
						"label": "address",
						"numberOfBytes": "20"
					}
				}
			},
			"userdoc": {
				"kind": "user",
				"methods": {},
				"version": 1
			}
		}
	}
}