{
	"data": {
		"bytecode": {
			"linkReferences": {},
			"object": "60806040525f6012555f601355348015610017575f80fd5b50613a5e806100255f395ff3fe608060405234801561000f575f80fd5b50600436106101c6575f3560e01c8063a3058071116100fe578063c51475b91161009e578063db518db21161006e578063db518db2146104d5578063ec20c2e5146104e8578063fa7c828a146104f0578063fd2324de14610503575f80fd5b8063c51475b91461047f578063ca6d83df14610492578063cfe8a73b146104ba578063d474fbf7146104c2575f80fd5b8063a583024b116100d9578063a583024b146103e2578063ad954e1a1461040a578063b3a7834d1461041d578063c4d66de81461046c575f80fd5b8063a3058071146103b4578063a3d74f06146103c7578063a3fb7050146103cf575f80fd5b80631e46baf7116101695780632f4f21e2116101445780632f4f21e214610366578063361f1ad314610379578063858c758514610381578063a2122bf7146103a1575f80fd5b80631e46baf71461034157806326be90bf146103495780632c26eb4614610351575f80fd5b80630fce03b9116101a45780630fce03b91461020d578063135022c21461023257806318703da51461030e5780631ac6d19d1461032e575f80fd5b8063039da66e146101ca578063095d0c94146101e85780630ef12aa9146101fa575b5f80fd5b6101d261050b565b6040516101df91906134b2565b60405180910390f35b6001545b6040519081526020016101df565b6101ec6102083660046134e7565b610551565b600f546001600160a01b03165b6040516001600160a01b0390911681526020016101df565b610245610240366004613502565b61056b565b6040516101df9190815180516001600160a01b03168252602080820151908301526040908101511515908201526101c0810160208381015180516001600160a01b031660608501529081015160808401526040810151151560a08401525060408381015180516001600160a01b031660c0850152602081015160e08501529081015115156101008401525060608301511515610120830152608083015161014083015260a083015161016083015260c083015161018083015260e0909201516101a09091015290565b61032161031c3660046134e7565b6106f3565b6040516101df9190613519565b6101ec61033c3660046134e7565b610783565b6101ec610a70565b6008546101ec565b61036461035f366004613502565b610bfa565b005b61036461037436600461357a565b610cf0565b6011546101ec565b61039461038f36600461357a565b610e0a565b6040516101df91906135a4565b6103646103af36600461361d565b610f6a565b6103646103c2366004613655565b61103b565b6101ec61146e565b6101ec6103dd3660046136ac565b6114ad565b6101ec6103f03660046134e7565b6001600160a01b03165f9081526006602052604090205490565b6103646104183660046134e7565b61157a565b61043061042b3660046134e7565b61163b565b6040516101df919081516001600160a01b0316815260208083015190820152604080830151908201526060918201519181019190915260800190565b61036461047a3660046134e7565b6116c2565b61036461048d3660046136da565b611739565b61021a6104a0366004613502565b5f908152600260205260409020546001600160a01b031690565b600d546101ec565b6101ec6104d03660046136ac565b611851565b6103646104e336600461357a565b611bb3565b610364611e40565b6103646104fe3660046134e7565b612304565b6101ec6123af565b61052c60405180606001604052805f81526020015f81526020015f81525090565b50604080516060810182526009548152600a546020820152600b549181019190915290565b6001600160a01b03165f9081526003602052604090205490565b60408051610160810182525f610100820181815261012083018290526101408301829052825282516060808201855282825260208083018490528286018490528085019290925284518082018652838152918201839052818501839052938301529181018290526080810182905260a0810182905260c0810182905260e08101919091525f600d838154811061060357610603613709565b5f9182526020918290206040805161016081018252600e90930290910180546001600160a01b0390811661010085019081526001830154610120860152600283015460ff90811615156101408701529085528351606081810186526003850154841682526004850154828901526005850154831615158287015286880191909152845180820186526006850154909316835260078401549683019690965260088301548116151582850152928401526009810154909116151592820192909252600a8201546080820152600b82015460a0820152600c82015460c0820152600d9091015460e08201529392505050565b6001600160a01b0381165f908152600660209081526040808320600101805482518185028101850190935280835260609493849084015b82821015610777578382905f5260205f2090600302016040518060600160405290815f8201548152602001600182015481526020016002820154815250508152602001906001019061072a565b50929695505050505050565b5f80546040805163b0f479a160e01b8152905183926001600160a01b03169163b0f479a19160048083019260209291908290030181865afa1580156107ca573d5f803e3d5ffd5b505050506040513d601f19601f820116820180604052508101906107ee919061371d565b9050336001600160a01b038216146108215760405162461bcd60e51b815260040161081890613738565b60405180910390fd5b600754156108415760405162461bcd60e51b815260040161081890613760565b60016007555f610850600d5490565b90505f81116108715760405162461bcd60e51b815260040161081890613786565b6001600160a01b0384165f90815260066020526040902054806108cc5760405162461bcd60e51b81526020600482015260136024820152724e6f207265776172647320746f20636c61696d60681b6044820152606401610818565b6001600160a01b0385165f90815260066020526040812081815560020154905b81811015610a30576001600160a01b0387165f90815260066020526040812060020180548390811061092057610920613709565b905f5260205f20015490505f60065f8a6001600160a01b03166001600160a01b031681526020019081526020015f20600101838154811061096357610963613709565b905f5260205f2090600302016001015490505f80600d848154811061098a5761098a613709565b905f5260205f2090600e02019050826001036109c557600281015460ff1615155f036109c05760028101805460ff191660011790555b610a19565b826002036109f157600581015460ff1615155f036109c05760058101805460ff19166001179055610a19565b82600303610a1957600881015460ff1615155f03610a195760088101805460ff191660011790555b505050508080610a28906137c8565b9150506108ec565b506001600160a01b0386165f908152600660205260408120610a5791600290910190613488565b5f610a6183612430565b5f600755979650505050505050565b5f8054604080516367906c3960e11b8152905183926001600160a01b03169163cf20d8729160048083019260209291908290030181865afa158015610ab7573d5f803e3d5ffd5b505050506040513d601f19601f82011682018060405250810190610adb919061371d565b9050336001600160a01b03821614610b055760405162461bcd60e51b815260040161081890613738565b600f546040516370a0823160e01b81523060048201525f916001600160a01b0316906370a0823190602401602060405180830381865afa158015610b4b573d5f803e3d5ffd5b505050506040513d601f19601f82011682018060405250810190610b6f91906137e0565b9050610b79612673565b600f546040516370a0823160e01b81523060048201525f916001600160a01b0316906370a0823190602401602060405180830381865afa158015610bbf573d5f803e3d5ffd5b505050506040513d601f19601f82011682018060405250810190610be391906137e0565b90505f610bf082846126d7565b94505050505b5090565b5f805f9054906101000a90046001600160a01b03166001600160a01b031663cf20d8726040518163ffffffff1660e01b8152600401602060405180830381865afa158015610c4a573d5f803e3d5ffd5b505050506040513d601f19601f82011682018060405250810190610c6e919061371d565b9050336001600160a01b03821614610c985760405162461bcd60e51b815260040161081890613738565b5f600d8381548110610cac57610cac613709565b905f5260205f2090600e020190505f610cd682600b015483600c01546126e290919063ffffffff16565b9050610ce284826126ed565b82600d018190555050505050565b5f805f9054906101000a90046001600160a01b03166001600160a01b031663b0f479a16040518163ffffffff1660e01b8152600401602060405180830381865afa158015610d40573d5f803e3d5ffd5b505050506040513d601f19601f82011682018060405250810190610d64919061371d565b9050336001600160a01b03821614610d8e5760405162461bcd60e51b815260040161081890613738565b60075415610dae5760405162461bcd60e51b815260040161081890613760565b60016007555f610dbd600d5490565b90505f8111610dde5760405162461bcd60e51b815260040161081890613786565b5f610de884612762565b9050610df38161286b565b610dff85826001612880565b50505f600755505050565b604080518082019091525f815260606020820152600d5480610e3e5760405162461bcd60e51b815260040161081890613786565b825f610e4861146e565b905080821115610e915760405162461bcd60e51b815260206004820152601460248201527324b73b30b634b21032b837b1b410373ab6b132b960611b6044820152606401610818565b5f610e9b87610551565b9050805f03610ebc5760405162461bcd60e51b8152600401610818906137f7565b5f868152600560209081526040808320848452825280832081518083018352815460ff16151581526001820180548451818702810187019095528085529194929385840193909290879084015b82821015610f56578382905f5260205f2090600302016040518060600160405290815f82015481526020016001820154815260200160028201548152505081526020019060010190610f09565b505050915250909998505050505050505050565b5f805f9054906101000a90046001600160a01b03166001600160a01b0316633018205f6040518163ffffffff1660e01b8152600401602060405180830381865afa158015610fba573d5f803e3d5ffd5b505050506040513d601f19601f82011682018060405250810190610fde919061371d565b9050336001600160a01b038216146110085760405162461bcd60e51b815260040161081890613738565b50600f80546001600160a01b0319166001600160a01b039590951694909417909355601491909155600e91909155601155565b5f805f9054906101000a90046001600160a01b03166001600160a01b031663cf20d8726040518163ffffffff1660e01b8152600401602060405180830381865afa15801561108b573d5f803e3d5ffd5b505050506040513d601f19601f820116820180604052508101906110af919061371d565b9050336001600160a01b038216146110d95760405162461bcd60e51b815260040161081890613738565b6110e285610551565b5f036111005760405162461bcd60e51b815260040161081890613827565b61110984610551565b5f036111275760405162461bcd60e51b815260040161081890613827565b61113083610551565b5f0361114e5760405162461bcd60e51b815260040161081890613827565b5f600d878154811061116257611162613709565b5f9182526020909120600e90910201600981015490915060ff1680156111ba5760405162461bcd60e51b815260206004820152600d60248201526c45706f636820697320646f6e6560981b6044820152606401610818565b5f6111d683600b015484600c01546126e290919063ffffffff16565b905080421161121a5760405162461bcd60e51b815260206004820152601060248201526f45706f63682069736e277420646f6e6560801b6044820152606401610818565b60098301805460ff191660011790555f61123386612999565b600a850181905584546001600160a01b0319166001600160a01b038b16178555600c546009549192506112719161126b908490612b12565b90612b1d565b600185015560028401805460ff191690556003840180546001600160a01b0319166001600160a01b038a16179055600c54600a546112b5919061126b908490612b12565b600485015560058401805460ff191690556006840180546001600160a01b0319166001600160a01b038916179055600c54600b546112f9919061126b908490612b12565b600785015560088401805460ff19169055604080516003808252608082019092525f916020820160608036833701905050905089815f8151811061133f5761133f613709565b60200260200101906001600160a01b031690816001600160a01b031681525050888160018151811061137357611373613709565b60200260200101906001600160a01b031690816001600160a01b03168152505087816002815181106113a7576113a7613709565b6001600160a01b0392909216602092830291909101820152604080516003808252608082019092525f929091908201606080368337019050509050855f0160010154815f815181106113fb576113fb613709565b60200260200101818152505085600301600101548160018151811061142257611422613709565b60200260200101818152505085600601600101548160028151811061144957611449613709565b6020026020010181815250506114608c8383612b28565b505050505050505050505050565b5f80611479600d5490565b90505f811161149a5760405162461bcd60e51b815260040161081890613786565b5f6114a68260016126d7565b9392505050565b5f806114b8600d5490565b90505f81116114d95760405162461bcd60e51b815260040161081890613786565b835f6114e361146e565b90508082111561152c5760405162461bcd60e51b815260206004820152601460248201527324b73b30b634b21032b837b1b410373ab6b132b960611b6044820152606401610818565b5f61153686610551565b9050805f036115575760405162461bcd60e51b8152600401610818906137f7565b5f8781526004602090815260408083209383529290522054935050505092915050565b5f805f9054906101000a90046001600160a01b03166001600160a01b0316633018205f6040518163ffffffff1660e01b8152600401602060405180830381865afa1580156115ca573d5f803e3d5ffd5b505050506040513d601f19601f820116820180604052508101906115ee919061371d565b9050336001600160a01b038216146116185760405162461bcd60e51b815260040161081890613738565b50601080546001600160a01b0319166001600160a01b0392909216919091179055565b61166b60405180608001604052805f6001600160a01b031681526020015f81526020015f81526020015f81525090565b5f61167583610551565b5f90815260026020818152604092839020835160808101855281546001600160a01b0316815260018201549281019290925291820154928101929092526003015460608201529392505050565b5f54600160a01b900460ff161561171b5760405162461bcd60e51b815260206004820152601f60248201527f436f6e747261637420697320696e697469616c697a656420616c7265616479006044820152606401610818565b61172481612cc1565b505f805460ff60a01b1916600160a01b179055565b5f805f9054906101000a90046001600160a01b03166001600160a01b0316633018205f6040518163ffffffff1660e01b8152600401602060405180830381865afa158015611789573d5f803e3d5ffd5b505050506040513d601f19601f820116820180604052508101906117ad919061371d565b9050336001600160a01b038216146117d75760405162461bcd60e51b815260040161081890613738565b816117ec846117e688886126e2565b906126e2565b146117f5575f80fd5b6009859055600a849055600b839055600c82905560408051868152602081018690529081018490527f276fb89d8224ffd75e667ef77aa3b75f5d7064a6dd5b8c9b9b8761b8b303a3469060600160405180910390a15050505050565b5f805f8061185f86866114ad565b90505f61186b8761056b565b90505f6118898260c001518360a001516126e290919063ffffffff16565b90505f61189588610551565b9050805f036118b65760405162461bcd60e51b8152600401610818906137f7565b5f81815260026020819052604090912060038101546001820154919092015484116119325760405162461bcd60e51b815260206004820152602660248201527f5573657220686173206e6f742070617274696369706174656420696e20746865604482015265040cae0dec6d60d31b6064820152608401610818565b5f61193d8b8d610e0a565b90508560c0015142101580156119535750844211155b156119e3578560c00151831015801561196c5750848311155b1561198c576119858261197f42866126d7565b90612b12565b97506119b6565b8560c001518310156119b6576119b38261197f8860c00151426126d790919063ffffffff16565b97505b6119d2601454600a6119c89190613933565b61126b898b6126e2565b9950611bad98505050505050505050565b84421115611ba0578560c00151831015611a16576119d2601454600a611a099190613933565b600e5461126b9085612b12565b805115611ac2576020810151515f90611a309060016126d7565b90505f82602001518281518110611a4957611a49613709565b60200260200101516040015190505f611a9084602001518481518110611a7157611a71613709565b60200260200101516020015161197f848b6126d790919063ffffffff16565b9050611aae601454600a611aa49190613933565b61126b8c846126e2565b9c50611bad9b505050505050505050505050565b805115155f03611ba0575f611ad88d60016126d7565b90505f5b8d811015611b8d575f611aef8e84610e0a565b805190915015611b6c576020810151515f90611b0c9060016126d7565b90505f611b4783602001518381518110611b2857611b28613709565b6020026020010151602001518c60a00151612b1290919063ffffffff16565b9050611b62601454600a611b5b9190613933565b8290612b1d565b9d50505050611b8d565b611b7760018461393e565b9250508080611b85906137c8565b915050611adc565b50899a5050505050505050505050611bad565b505f985050505050505050505b92915050565b5f805f9054906101000a90046001600160a01b03166001600160a01b031663b0f479a16040518163ffffffff1660e01b8152600401602060405180830381865afa158015611c03573d5f803e3d5ffd5b505050506040513d601f19601f82011682018060405250810190611c27919061371d565b9050336001600160a01b03821614611c515760405162461bcd60e51b815260040161081890613738565b60075415611c715760405162461bcd60e51b815260040161081890613760565b60016007555f611c80600d5490565b90505f8111611ca15760405162461bcd60e51b815260040161081890613786565b5f8311611ce15760405162461bcd60e51b815260206004820152600e60248201526d125b9d985b1a5908185b5bdd5b9d60921b6044820152606401610818565b611cec84845f612880565b600f546040516370a0823160e01b81523060048201525f916001600160a01b0316906370a0823190602401602060405180830381865afa158015611d32573d5f803e3d5ffd5b505050506040513d601f19601f82011682018060405250810190611d5691906137e0565b9050611d6184612ce2565b600f546040516370a0823160e01b81523060048201525f916001600160a01b0316906370a0823190602401602060405180830381865afa158015611da7573d5f803e3d5ffd5b505050506040513d601f19601f82011682018060405250810190611dcb91906137e0565b90505f611dd882846126d7565b905085811015611e2a5760405162461bcd60e51b815260206004820152601f60248201527f436f756c646e27742077697468647261772066726f6d2041706520506f6f6c006044820152606401610818565b611e3386612ceb565b50505f6007555050505050565b5f805f9054906101000a90046001600160a01b03166001600160a01b031663cf20d8726040518163ffffffff1660e01b8152600401602060405180830381865afa158015611e90573d5f803e3d5ffd5b505050506040513d601f19601f82011682018060405250810190611eb4919061371d565b9050336001600160a01b03821614611ede5760405162461bcd60e51b815260040161081890613738565b5f611ee8600d5490565b90508015612007575f611efc8260016126d7565b90505f600d8281548110611f1257611f12613709565b5f9182526020918290206040805161016081018252600e90930290910180546001600160a01b0390811661010085019081526001830154610120860152600283015460ff908116151561014087015290855283516060818101865260038501548416825260048501548289015260058501548316151582870152868801919091528451808201865260068501549093168352600784015496830196909652600883015481161515828501529284015260098101549091161515928201839052600a8101546080830152600b81015460a0830152600c81015460c0830152600d015460e0820152915080612003575f80fd5b5050505b505060408051606080820183525f808352602080840182905283850182905284516101008101865284815280820185815281870195865293810183815260808201848152600e805460a085019081524260c0860190815260e08601888152600d80546001810182559952955180517fd7b6990105719101dabeb77144f2a3385c8033acd3af97e9423a695e81ad1eb59990940298890180546001600160a01b03199081166001600160a01b0396871617909155818901517fd7b6990105719101dabeb77144f2a3385c8033acd3af97e9423a695e81ad1eb68b0155908c01517fd7b6990105719101dabeb77144f2a3385c8033acd3af97e9423a695e81ad1eb78a01805460ff19908116921515929092179055995180517fd7b6990105719101dabeb77144f2a3385c8033acd3af97e9423a695e81ad1eb88b0180548416918716919091179055808901517fd7b6990105719101dabeb77144f2a3385c8033acd3af97e9423a695e81ad1eb98b01558c01517fd7b6990105719101dabeb77144f2a3385c8033acd3af97e9423a695e81ad1eba8a0180548c16911515919091179055995180517fd7b6990105719101dabeb77144f2a3385c8033acd3af97e9423a695e81ad1ebb8a018054909c16941693909317909955948101517fd7b6990105719101dabeb77144f2a3385c8033acd3af97e9423a695e81ad1ebc870155909701517fd7b6990105719101dabeb77144f2a3385c8033acd3af97e9423a695e81ad1ebd850180548716911515919091179055517fd7b6990105719101dabeb77144f2a3385c8033acd3af97e9423a695e81ad1ebe840180549095169015151790935593517fd7b6990105719101dabeb77144f2a3385c8033acd3af97e9423a695e81ad1ebf82015592517fd7b6990105719101dabeb77144f2a3385c8033acd3af97e9423a695e81ad1ec084015590517fd7b6990105719101dabeb77144f2a3385c8033acd3af97e9423a695e81ad1ec1830155517fd7b6990105719101dabeb77144f2a3385c8033acd3af97e9423a695e81ad1ec290910155565b5f805f9054906101000a90046001600160a01b03166001600160a01b031663893d20e86040518163ffffffff1660e01b8152600401602060405180830381865afa158015612354573d5f803e3d5ffd5b505050506040513d601f19601f82011682018060405250810190612378919061371d565b9050336001600160a01b038216146123a25760405162461bcd60e51b815260040161081890613738565b6123ab82612cc1565b5050565b601054601254601354604051632c018f9160e01b8152600481019290925230602483015260448201525f9182916001600160a01b0390911690632c018f9190606401602060405180830381865afa15801561240c573d5f803e3d5ffd5b505050506040513d601f19601f82011682018060405250810190611bad91906137e0565b5f80546040805163b0f479a160e01b8152905183926001600160a01b03169163b0f479a19160048083019260209291908290030181865afa158015612477573d5f803e3d5ffd5b505050506040513d601f19601f8201168201806040525081019061249b919061371d565b600f546040516370a0823160e01b81526001600160a01b0380841660048301529293505f92909116906370a0823190602401602060405180830381865afa1580156124e8573d5f803e3d5ffd5b505050506040513d601f19601f8201168201806040525081019061250c91906137e0565b90505f805f9054906101000a90046001600160a01b03166001600160a01b0316639960d7426040518163ffffffff1660e01b8152600401602060405180830381865afa15801561255e573d5f803e3d5ffd5b505050506040513d601f19601f82011682018060405250810190612582919061371d565b600f54604051630431a08b60e41b81526001600160a01b03918216600482015260248101889052858216604482015291925082169063431a08b0906064015f604051808303815f87803b1580156125d7575f80fd5b505af11580156125e9573d5f803e3d5ffd5b5050600f546040516370a0823160e01b81526001600160a01b0387811660048301525f945090911691506370a0823190602401602060405180830381865afa158015612637573d5f803e3d5ffd5b505050506040513d601f19601f8201168201806040525081019061265b91906137e0565b90505f61266882856126d7565b979650505050505050565b60105f9054906101000a90046001600160a01b03166001600160a01b0316638279e7606040518163ffffffff1660e01b81526004015f604051808303815f87803b1580156126bf575f80fd5b505af11580156126d1573d5f803e3d5ffd5b50505050565b5f6114a6828461393e565b5f6114a68284613951565b5f8060015b60015481101561275a575f8181526002602081905260409091209081015490546001600160a01b0316858211612745575f61272d8883611851565b9050801561274357612740600186613951565b94505b505b50508080612752906137c8565b9150506126f2565b509392505050565b600f546040516370a0823160e01b81523060048201525f9182916001600160a01b03909116906370a0823190602401602060405180830381865afa1580156127ac573d5f803e3d5ffd5b505050506040513d601f19601f820116820180604052508101906127d091906137e0565b600f549091506127eb906001600160a01b0316333086612d02565b600f546040516370a0823160e01b81523060048201525f916001600160a01b0316906370a0823190602401602060405180830381865afa158015612831573d5f803e3d5ffd5b505050506040513d601f19601f8201168201806040525081019061285591906137e0565b90505f61286282846126d7565b95945050505050565b61287481612d6d565b61287d81612da7565b50565b801561292f575f61289084610551565b90505f815f0361290b576128a385612dfd565b6001905060115484101561290b5760405162461bcd60e51b815260206004820152602960248201527f546865206d696e696d756d20616d6f756e7420746f20726567697374657220696044820152681cc81b9bdd081b595d60ba1b6064820152608401610818565b801561291d5761291a85610551565b91505b612928828585612e82565b5050505050565b8015155f03612994575f61294284610551565b9050805f036129895760405162461bcd60e51b8152602060048201526013602482015272155cd95c881b9bdd081c9959da5cdd195c9959606a1b6044820152606401610818565b6126d1818484612e82565b505050565b5f805460408051634cb06ba160e11b8152905183926001600160a01b031691639960d7429160048083019260209291908290030181865afa1580156129e0573d5f803e3d5ffd5b505050506040513d601f19601f82011682018060405250810190612a04919061371d565b600f546040516370a0823160e01b81526001600160a01b0380841660048301529293505f92909116906370a0823190602401602060405180830381865afa158015612a51573d5f803e3d5ffd5b505050506040513d601f19601f82011682018060405250810190612a7591906137e0565b600f54909150612a8f906001600160a01b0316838661301d565b600f546040516370a0823160e01b81526001600160a01b0384811660048301525f9216906370a0823190602401602060405180830381865afa158015612ad7573d5f803e3d5ffd5b505050506040513d601f19601f82011682018060405250810190612afb91906137e0565b90505f612b0882846126d7565b9695505050505050565b5f6114a68284613964565b5f6114a6828461397b565b81515f5b8181101561292857828181518110612b4657612b46613709565b602002602001015160065f868481518110612b6357612b63613709565b60200260200101516001600160a01b03166001600160a01b031681526020019081526020015f205f015f828254612b9a9190613951565b9250508190555060065f858381518110612bb657612bb6613709565b60200260200101516001600160a01b03166001600160a01b031681526020019081526020015f206001016040518060600160405280878152602001612c056001856126e290919063ffffffff16565b8152602001858481518110612c1c57612c1c613709565b6020908102919091018101519091528254600181810185555f94855282852084516003909302019182559183015191810191909155604090910151600290910155845160069190869084908110612c7557612c75613709565b6020908102919091018101516001600160a01b03168252818101929092526040015f90812060020180546001810182559082529190200185905580612cb9816137c8565b915050612b2c565b5f80546001600160a01b0319166001600160a01b0392909216919091179055565b61287d8161304d565b600f5461287d906001600160a01b0316338361301d565b6040516001600160a01b03808516602483015283166044820152606481018290526126d19085906323b872dd60e01b906084015b60408051601f198184030181529190526020810180516001600160e01b03166001600160e01b03199093169290921790915261307e565b601054600f54612d8a916001600160a01b0391821691165f613151565b601054600f5461287d916001600160a01b03918216911683613151565b601054604051632772abed60e21b8152600481018390526001600160a01b0390911690639dcaafb4906024015b5f604051808303815f87803b158015612deb575f80fd5b505af1158015612928573d5f803e3d5ffd5b6001805f828254612e0e9190613951565b90915550506001546001600160a01b0382165f90815260036020526040812091909155612e3a82610551565b5f908152600260208190526040822080546001600160a01b0319166001600160a01b039590951694909417845560018401919091554290830181905560039092019190915550565b5f838152600260205260409020600101548115612edc575f8481526002602052604081206001018054859290612eb9908490613951565b925050819055508260085f828254612ed19190613951565b90915550612f749050565b8115155f03612f74575f84815260026020526040902060010154831115612f365760405162461bcd60e51b815260206004820152600e60248201526d125b9d985b1a5908185b5bdd5b9d60921b6044820152606401610818565b5f8481526002602052604081206001018054859290612f5690849061393e565b925050819055508260085f828254612f6e919061393e565b90915550505b5f848152600260205260408120600381018054429091556001909101549091612f9b61146e565b5f8181526005602090815260408083208b84528252808320805460ff19166001908117825582516060810184528a81528085018981524294820194855292820180548084018255908752949095209451600390940290940192835551928201929092559051600290910155905061301487858584613264565b50505050505050565b6040516001600160a01b03831660248201526044810182905261299490849063a9059cbb60e01b90606401612d36565b601054604051630fec1a6760e31b8152600481018390526001600160a01b0390911690637f60d33890602401612dd4565b5f6130d2826040518060400160405280602081526020017f5361666545524332303a206c6f772d6c6576656c2063616c6c206661696c6564815250856001600160a01b031661330e9092919063ffffffff16565b905080515f14806130f25750808060200190518101906130f2919061399a565b6129945760405162461bcd60e51b815260206004820152602a60248201527f5361666545524332303a204552433230206f7065726174696f6e20646964206e6044820152691bdd081cdd58d8d9595960b21b6064820152608401610818565b8015806131c95750604051636eb1769f60e11b81523060048201526001600160a01b03838116602483015284169063dd62ed3e90604401602060405180830381865afa1580156131a3573d5f803e3d5ffd5b505050506040513d601f19601f820116820180604052508101906131c791906137e0565b155b6132345760405162461bcd60e51b815260206004820152603660248201527f5361666545524332303a20617070726f76652066726f6d206e6f6e2d7a65726f60448201527520746f206e6f6e2d7a65726f20616c6c6f77616e636560501b6064820152608401610818565b6040516001600160a01b03831660248201526044810182905261299490849063095ea7b360e01b90606401612d36565b5f61326e8261056b565b60c081015160a0820151919250905f61328782846126e2565b90505f838710156132a35761329c42856126d7565b90506132c5565b8387101580156132b35750818711155b156132c5576132c242886126d7565b90505b5f6132d0828a612b12565b5f8881526004602090815260408083208e84529091528120805492935083929091906132fd908490613951565b909155505050505050505050505050565b606061331c84845f85613324565b949350505050565b6060824710156133855760405162461bcd60e51b815260206004820152602660248201527f416464726573733a20696e73756666696369656e742062616c616e636520666f6044820152651c8818d85b1b60d21b6064820152608401610818565b5f80866001600160a01b031685876040516133a091906139db565b5f6040518083038185875af1925050503d805f81146133da576040519150601f19603f3d011682016040523d82523d5f602084013e6133df565b606091505b509150915061266887838387606083156134595782515f03613452576001600160a01b0385163b6134525760405162461bcd60e51b815260206004820152601d60248201527f416464726573733a2063616c6c20746f206e6f6e2d636f6e74726163740000006044820152606401610818565b508161331c565b61331c838381511561346e5781518083602001fd5b8060405162461bcd60e51b815260040161081891906139f6565b5080545f8255905f5260205f209081019061287d91905b80821115610bf6575f815560010161349f565b81518152602080830151908201526040808301519082015260608101611bad565b6001600160a01b038116811461287d575f80fd5b5f602082840312156134f7575f80fd5b81356114a6816134d3565b5f60208284031215613512575f80fd5b5035919050565b602080825282518282018190525f9190848201906040850190845b8181101561356e5761355b8385518051825260208082015190830152604090810151910152565b9284019260609290920191600101613534565b50909695505050505050565b5f806040838503121561358b575f80fd5b8235613596816134d3565b946020939093013593505050565b5f6020808352606080840185511515838601528286015160408087015281815180845260808801915085830193505f92505b80831015613611576135fd8285518051825260208082015190830152604090810151910152565b9285019260019290920191908401906135d6565b50979650505050505050565b5f805f8060808587031215613630575f80fd5b843561363b816134d3565b966020860135965060408601359560600135945092505050565b5f805f805f60a08688031215613669575f80fd5b85359450602086013561367b816134d3565b9350604086013561368b816134d3565b9250606086013561369b816134d3565b949793965091946080013592915050565b5f80604083850312156136bd575f80fd5b8235915060208301356136cf816134d3565b809150509250929050565b5f805f80608085870312156136ed575f80fd5b5050823594602084013594506040840135936060013592509050565b634e487b7160e01b5f52603260045260245ffd5b5f6020828403121561372d575f80fd5b81516114a6816134d3565b6020808252600e908201526d24b73b30b634b21031b0b63632b960911b604082015260600190565b6020808252600c908201526b125b1b1959d85b0818d85b1b60a21b604082015260600190565b60208082526014908201527310dbdb9d1c9858dd081b9bdd081cdd185c9d195960621b604082015260600190565b634e487b7160e01b5f52601160045260245ffd5b5f600182016137d9576137d96137b4565b5060010190565b5f602082840312156137f0575f80fd5b5051919050565b602080825260169082015275155cd95c881a185cdb89dd081c9959da5cdd195c995960521b604082015260600190565b602080825260129082015271155cd95c88191bd95cdb89dd08195e1a5cdd60721b604082015260600190565b600181815b8085111561388d57815f1904821115613873576138736137b4565b8085161561388057918102915b93841c9390800290613858565b509250929050565b5f826138a357506001611bad565b816138af57505f611bad565b81600181146138c557600281146138cf576138eb565b6001915050611bad565b60ff8411156138e0576138e06137b4565b50506001821b611bad565b5060208310610133831016604e8410600b841016171561390e575081810a611bad565b6139188383613853565b805f190482111561392b5761392b6137b4565b029392505050565b5f6114a68383613895565b81810381811115611bad57611bad6137b4565b80820180821115611bad57611bad6137b4565b8082028115828204841417611bad57611bad6137b4565b5f8261399557634e487b7160e01b5f52601260045260245ffd5b500490565b5f602082840312156139aa575f80fd5b815180151581146114a6575f80fd5b5f5b838110156139d35781810151838201526020016139bb565b50505f910152565b5f82516139ec8184602087016139b9565b9190910192915050565b602081525f8251806020840152613a148160408501602087016139b9565b601f01601f1916919091016040019291505056fea2646970667358221220227f089bcf0f84e749e159d58db20e8b552563c6150ec526a5e4491def6554d364736f6c63430008150033",
			"opcodes": "PUSH1 0x80 PUSH1 0x40 MSTORE PUSH0 PUSH1 0x12 SSTORE PUSH0 PUSH1 0x13 SSTORE CALLVALUE DUP1 ISZERO PUSH2 0x17 JUMPI PUSH0 DUP1 REVERT JUMPDEST POP PUSH2 0x3A5E DUP1 PUSH2 0x25 PUSH0 CODECOPY PUSH0 RETURN INVALID PUSH1 0x80 PUSH1 0x40 MSTORE CALLVALUE DUP1 ISZERO PUSH2 0xF JUMPI PUSH0 DUP1 REVERT JUMPDEST POP PUSH1 0x4 CALLDATASIZE LT PUSH2 0x1C6 JUMPI PUSH0 CALLDATALOAD PUSH1 0xE0 SHR DUP1 PUSH4 0xA3058071 GT PUSH2 0xFE JUMPI DUP1 PUSH4 0xC51475B9 GT PUSH2 0x9E JUMPI DUP1 PUSH4 0xDB518DB2 GT PUSH2 0x6E JUMPI DUP1 PUSH4 0xDB518DB2 EQ PUSH2 0x4D5 JUMPI DUP1 PUSH4 0xEC20C2E5 EQ PUSH2 0x4E8 JUMPI DUP1 PUSH4 0xFA7C828A EQ PUSH2 0x4F0 JUMPI DUP1 PUSH4 0xFD2324DE EQ PUSH2 0x503 JUMPI PUSH0 DUP1 REVERT JUMPDEST DUP1 PUSH4 0xC51475B9 EQ PUSH2 0x47F JUMPI DUP1 PUSH4 0xCA6D83DF EQ PUSH2 0x492 JUMPI DUP1 PUSH4 0xCFE8A73B EQ PUSH2 0x4BA JUMPI DUP1 PUSH4 0xD474FBF7 EQ PUSH2 0x4C2 JUMPI PUSH0 DUP1 REVERT JUMPDEST DUP1 PUSH4 0xA583024B GT PUSH2 0xD9 JUMPI DUP1 PUSH4 0xA583024B EQ PUSH2 0x3E2 JUMPI DUP1 PUSH4 0xAD954E1A EQ PUSH2 0x40A JUMPI DUP1 PUSH4 0xB3A7834D EQ PUSH2 0x41D JUMPI DUP1 PUSH4 0xC4D66DE8 EQ PUSH2 0x46C JUMPI PUSH0 DUP1 REVERT JUMPDEST DUP1 PUSH4 0xA3058071 EQ PUSH2 0x3B4 JUMPI DUP1 PUSH4 0xA3D74F06 EQ PUSH2 0x3C7 JUMPI DUP1 PUSH4 0xA3FB7050 EQ PUSH2 0x3CF JUMPI PUSH0 DUP1 REVERT JUMPDEST DUP1 PUSH4 0x1E46BAF7 GT PUSH2 0x169 JUMPI DUP1 PUSH4 0x2F4F21E2 GT PUSH2 0x144 JUMPI DUP1 PUSH4 0x2F4F21E2 EQ PUSH2 0x366 JUMPI DUP1 PUSH4 0x361F1AD3 EQ PUSH2 0x379 JUMPI DUP1 PUSH4 0x858C7585 EQ PUSH2 0x381 JUMPI DUP1 PUSH4 0xA2122BF7 EQ PUSH2 0x3A1 JUMPI PUSH0 DUP1 REVERT JUMPDEST DUP1 PUSH4 0x1E46BAF7 EQ PUSH2 0x341 JUMPI DUP1 PUSH4 0x26BE90BF EQ PUSH2 0x349 JUMPI DUP1 PUSH4 0x2C26EB46 EQ PUSH2 0x351 JUMPI PUSH0 DUP1 REVERT JUMPDEST DUP1 PUSH4 0xFCE03B9 GT PUSH2 0x1A4 JUMPI DUP1 PUSH4 0xFCE03B9 EQ PUSH2 0x20D JUMPI DUP1 PUSH4 0x135022C2 EQ PUSH2 0x232 JUMPI DUP1 PUSH4 0x18703DA5 EQ PUSH2 0x30E JUMPI DUP1 PUSH4 0x1AC6D19D EQ PUSH2 0x32E JUMPI PUSH0 DUP1 REVERT JUMPDEST DUP1 PUSH4 0x39DA66E EQ PUSH2 0x1CA JUMPI DUP1 PUSH4 0x95D0C94 EQ PUSH2 0x1E8 JUMPI DUP1 PUSH4 0xEF12AA9 EQ PUSH2 0x1FA JUMPI JUMPDEST PUSH0 DUP1 REVERT JUMPDEST PUSH2 0x1D2 PUSH2 0x50B JUMP JUMPDEST PUSH1 0x40 MLOAD PUSH2 0x1DF SWAP2 SWAP1 PUSH2 0x34B2 JUMP JUMPDEST PUSH1 0x40 MLOAD DUP1 SWAP2 SUB SWAP1 RETURN JUMPDEST PUSH1 0x1 SLOAD JUMPDEST PUSH1 0x40 MLOAD SWAP1 DUP2 MSTORE PUSH1 0x20 ADD PUSH2 0x1DF JUMP JUMPDEST PUSH2 0x1EC PUSH2 0x208 CALLDATASIZE PUSH1 0x4 PUSH2 0x34E7 JUMP JUMPDEST PUSH2 0x551 JUMP JUMPDEST PUSH1 0xF SLOAD PUSH1 0x1 PUSH1 0x1 PUSH1 0xA0 SHL SUB AND JUMPDEST PUSH1 0x40 MLOAD PUSH1 0x1 PUSH1 0x1 PUSH1 0xA0 SHL SUB SWAP1 SWAP2 AND DUP2 MSTORE PUSH1 0x20 ADD PUSH2 0x1DF JUMP JUMPDEST PUSH2 0x245 PUSH2 0x240 CALLDATASIZE PUSH1 0x4 PUSH2 0x3502 JUMP JUMPDEST PUSH2 0x56B JUMP JUMPDEST PUSH1 0x40 MLOAD PUSH2 0x1DF SWAP2 SWAP1 DUP2 MLOAD DUP1 MLOAD PUSH1 0x1 PUSH1 0x1 PUSH1 0xA0 SHL SUB AND DUP3 MSTORE PUSH1 0x20 DUP1 DUP3 ADD MLOAD SWAP1 DUP4 ADD MSTORE PUSH1 0x40 SWAP1 DUP2 ADD MLOAD ISZERO ISZERO SWAP1 DUP3 ADD MSTORE PUSH2 0x1C0 DUP2 ADD PUSH1 0x20 DUP4 DUP2 ADD MLOAD DUP1 MLOAD PUSH1 0x1 PUSH1 0x1 PUSH1 0xA0 SHL SUB AND PUSH1 0x60 DUP6 ADD MSTORE SWAP1 DUP2 ADD MLOAD PUSH1 0x80 DUP5 ADD MSTORE PUSH1 0x40 DUP2 ADD MLOAD ISZERO ISZERO PUSH1 0xA0 DUP5 ADD MSTORE POP PUSH1 0x40 DUP4 DUP2 ADD MLOAD DUP1 MLOAD PUSH1 0x1 PUSH1 0x1 PUSH1 0xA0 SHL SUB AND PUSH1 0xC0 DUP6 ADD MSTORE PUSH1 0x20 DUP2 ADD MLOAD PUSH1 0xE0 DUP6 ADD MSTORE SWAP1 DUP2 ADD MLOAD ISZERO ISZERO PUSH2 0x100 DUP5 ADD MSTORE POP PUSH1 0x60 DUP4 ADD MLOAD ISZERO ISZERO PUSH2 0x120 DUP4 ADD MSTORE PUSH1 0x80 DUP4 ADD MLOAD PUSH2 0x140 DUP4 ADD MSTORE PUSH1 0xA0 DUP4 ADD MLOAD PUSH2 0x160 DUP4 ADD MSTORE PUSH1 0xC0 DUP4 ADD MLOAD PUSH2 0x180 DUP4 ADD MSTORE PUSH1 0xE0 SWAP1 SWAP3 ADD MLOAD PUSH2 0x1A0 SWAP1 SWAP2 ADD MSTORE SWAP1 JUMP JUMPDEST PUSH2 0x321 PUSH2 0x31C CALLDATASIZE PUSH1 0x4 PUSH2 0x34E7 JUMP JUMPDEST PUSH2 0x6F3 JUMP JUMPDEST PUSH1 0x40 MLOAD PUSH2 0x1DF SWAP2 SWAP1 PUSH2 0x3519 JUMP JUMPDEST PUSH2 0x1EC PUSH2 0x33C CALLDATASIZE PUSH1 0x4 PUSH2 0x34E7 JUMP JUMPDEST PUSH2 0x783 JUMP JUMPDEST PUSH2 0x1EC PUSH2 0xA70 JUMP JUMPDEST PUSH1 0x8 SLOAD PUSH2 0x1EC JUMP JUMPDEST PUSH2 0x364 PUSH2 0x35F CALLDATASIZE PUSH1 0x4 PUSH2 0x3502 JUMP JUMPDEST PUSH2 0xBFA JUMP JUMPDEST STOP JUMPDEST PUSH2 0x364 PUSH2 0x374 CALLDATASIZE PUSH1 0x4 PUSH2 0x357A JUMP JUMPDEST PUSH2 0xCF0 JUMP JUMPDEST PUSH1 0x11 SLOAD PUSH2 0x1EC JUMP JUMPDEST PUSH2 0x394 PUSH2 0x38F CALLDATASIZE PUSH1 0x4 PUSH2 0x357A JUMP JUMPDEST PUSH2 0xE0A JUMP JUMPDEST PUSH1 0x40 MLOAD PUSH2 0x1DF SWAP2 SWAP1 PUSH2 0x35A4 JUMP JUMPDEST PUSH2 0x364 PUSH2 0x3AF CALLDATASIZE PUSH1 0x4 PUSH2 0x361D JUMP JUMPDEST PUSH2 0xF6A JUMP JUMPDEST PUSH2 0x364 PUSH2 0x3C2 CALLDATASIZE PUSH1 0x4 PUSH2 0x3655 JUMP JUMPDEST PUSH2 0x103B JUMP JUMPDEST PUSH2 0x1EC PUSH2 0x146E JUMP JUMPDEST PUSH2 0x1EC PUSH2 0x3DD CALLDATASIZE PUSH1 0x4 PUSH2 0x36AC JUMP JUMPDEST PUSH2 0x14AD JUMP JUMPDEST PUSH2 0x1EC PUSH2 0x3F0 CALLDATASIZE PUSH1 0x4 PUSH2 0x34E7 JUMP JUMPDEST PUSH1 0x1 PUSH1 0x1 PUSH1 0xA0 SHL SUB AND PUSH0 SWAP1 DUP2 MSTORE PUSH1 0x6 PUSH1 0x20 MSTORE PUSH1 0x40 SWAP1 KECCAK256 SLOAD SWAP1 JUMP JUMPDEST PUSH2 0x364 PUSH2 0x418 CALLDATASIZE PUSH1 0x4 PUSH2 0x34E7 JUMP JUMPDEST PUSH2 0x157A JUMP JUMPDEST PUSH2 0x430 PUSH2 0x42B CALLDATASIZE PUSH1 0x4 PUSH2 0x34E7 JUMP JUMPDEST PUSH2 0x163B JUMP JUMPDEST PUSH1 0x40 MLOAD PUSH2 0x1DF SWAP2 SWAP1 DUP2 MLOAD PUSH1 0x1 PUSH1 0x1 PUSH1 0xA0 SHL SUB AND DUP2 MSTORE PUSH1 0x20 DUP1 DUP4 ADD MLOAD SWAP1 DUP3 ADD MSTORE PUSH1 0x40 DUP1 DUP4 ADD MLOAD SWAP1 DUP3 ADD MSTORE PUSH1 0x60 SWAP2 DUP3 ADD MLOAD SWAP2 DUP2 ADD SWAP2 SWAP1 SWAP2 MSTORE PUSH1 0x80 ADD SWAP1 JUMP JUMPDEST PUSH2 0x364 PUSH2 0x47A CALLDATASIZE PUSH1 0x4 PUSH2 0x34E7 JUMP JUMPDEST PUSH2 0x16C2 JUMP JUMPDEST PUSH2 0x364 PUSH2 0x48D CALLDATASIZE PUSH1 0x4 PUSH2 0x36DA JUMP JUMPDEST PUSH2 0x1739 JUMP JUMPDEST PUSH2 0x21A PUSH2 0x4A0 CALLDATASIZE PUSH1 0x4 PUSH2 0x3502 JUMP JUMPDEST PUSH0 SWAP1 DUP2 MSTORE PUSH1 0x2 PUSH1 0x20 MSTORE PUSH1 0x40 SWAP1 KECCAK256 SLOAD PUSH1 0x1 PUSH1 0x1 PUSH1 0xA0 SHL SUB AND SWAP1 JUMP JUMPDEST PUSH1 0xD SLOAD PUSH2 0x1EC JUMP JUMPDEST PUSH2 0x1EC PUSH2 0x4D0 CALLDATASIZE PUSH1 0x4 PUSH2 0x36AC JUMP JUMPDEST PUSH2 0x1851 JUMP JUMPDEST PUSH2 0x364 PUSH2 0x4E3 CALLDATASIZE PUSH1 0x4 PUSH2 0x357A JUMP JUMPDEST PUSH2 0x1BB3 JUMP JUMPDEST PUSH2 0x364 PUSH2 0x1E40 JUMP JUMPDEST PUSH2 0x364 PUSH2 0x4FE CALLDATASIZE PUSH1 0x4 PUSH2 0x34E7 JUMP JUMPDEST PUSH2 0x2304 JUMP JUMPDEST PUSH2 0x1EC PUSH2 0x23AF JUMP JUMPDEST PUSH2 0x52C PUSH1 0x40 MLOAD DUP1 PUSH1 0x60 ADD PUSH1 0x40 MSTORE DUP1 PUSH0 DUP2 MSTORE PUSH1 0x20 ADD PUSH0 DUP2 MSTORE PUSH1 0x20 ADD PUSH0 DUP2 MSTORE POP SWAP1 JUMP JUMPDEST POP PUSH1 0x40 DUP1 MLOAD PUSH1 0x60 DUP2 ADD DUP3 MSTORE PUSH1 0x9 SLOAD DUP2 MSTORE PUSH1 0xA SLOAD PUSH1 0x20 DUP3 ADD MSTORE PUSH1 0xB SLOAD SWAP2 DUP2 ADD SWAP2 SWAP1 SWAP2 MSTORE SWAP1 JUMP JUMPDEST PUSH1 0x1 PUSH1 0x1 PUSH1 0xA0 SHL SUB AND PUSH0 SWAP1 DUP2 MSTORE PUSH1 0x3 PUSH1 0x20 MSTORE PUSH1 0x40 SWAP1 KECCAK256 SLOAD SWAP1 JUMP JUMPDEST PUSH1 0x40 DUP1 MLOAD PUSH2 0x160 DUP2 ADD DUP3 MSTORE PUSH0 PUSH2 0x100 DUP3 ADD DUP2 DUP2 MSTORE PUSH2 0x120 DUP4 ADD DUP3 SWAP1 MSTORE PUSH2 0x140 DUP4 ADD DUP3 SWAP1 MSTORE DUP3 MSTORE DUP3 MLOAD PUSH1 0x60 DUP1 DUP3 ADD DUP6 MSTORE DUP3 DUP3 MSTORE PUSH1 0x20 DUP1 DUP4 ADD DUP5 SWAP1 MSTORE DUP3 DUP7 ADD DUP5 SWAP1 MSTORE DUP1 DUP6 ADD SWAP3 SWAP1 SWAP3 MSTORE DUP5 MLOAD DUP1 DUP3 ADD DUP7 MSTORE DUP4 DUP2 MSTORE SWAP2 DUP3 ADD DUP4 SWAP1 MSTORE DUP2 DUP6 ADD DUP4 SWAP1 MSTORE SWAP4 DUP4 ADD MSTORE SWAP2 DUP2 ADD DUP3 SWAP1 MSTORE PUSH1 0x80 DUP2 ADD DUP3 SWAP1 MSTORE PUSH1 0xA0 DUP2 ADD DUP3 SWAP1 MSTORE PUSH1 0xC0 DUP2 ADD DUP3 SWAP1 MSTORE PUSH1 0xE0 DUP2 ADD SWAP2 SWAP1 SWAP2 MSTORE PUSH0 PUSH1 0xD DUP4 DUP2 SLOAD DUP2 LT PUSH2 0x603 JUMPI PUSH2 0x603 PUSH2 0x3709 JUMP JUMPDEST PUSH0 SWAP2 DUP3 MSTORE PUSH1 0x20 SWAP2 DUP3 SWAP1 KECCAK256 PUSH1 0x40 DUP1 MLOAD PUSH2 0x160 DUP2 ADD DUP3 MSTORE PUSH1 0xE SWAP1 SWAP4 MUL SWAP1 SWAP2 ADD DUP1 SLOAD PUSH1 0x1 PUSH1 0x1 PUSH1 0xA0 SHL SUB SWAP1 DUP2 AND PUSH2 0x100 DUP6 ADD SWAP1 DUP2 MSTORE PUSH1 0x1 DUP4 ADD SLOAD PUSH2 0x120 DUP7 ADD MSTORE PUSH1 0x2 DUP4 ADD SLOAD PUSH1 0xFF SWAP1 DUP2 AND ISZERO ISZERO PUSH2 0x140 DUP8 ADD MSTORE SWAP1 DUP6 MSTORE DUP4 MLOAD PUSH1 0x60 DUP2 DUP2 ADD DUP7 MSTORE PUSH1 0x3 DUP6 ADD SLOAD DUP5 AND DUP3 MSTORE PUSH1 0x4 DUP6 ADD SLOAD DUP3 DUP10 ADD MSTORE PUSH1 0x5 DUP6 ADD SLOAD DUP4 AND ISZERO ISZERO DUP3 DUP8 ADD MSTORE DUP7 DUP9 ADD SWAP2 SWAP1 SWAP2 MSTORE DUP5 MLOAD DUP1 DUP3 ADD DUP7 MSTORE PUSH1 0x6 DUP6 ADD SLOAD SWAP1 SWAP4 AND DUP4 MSTORE PUSH1 0x7 DUP5 ADD SLOAD SWAP7 DUP4 ADD SWAP7 SWAP1 SWAP7 MSTORE PUSH1 0x8 DUP4 ADD SLOAD DUP2 AND ISZERO ISZERO DUP3 DUP6 ADD MSTORE SWAP3 DUP5 ADD MSTORE PUSH1 0x9 DUP2 ADD SLOAD SWAP1 SWAP2 AND ISZERO ISZERO SWAP3 DUP3 ADD SWAP3 SWAP1 SWAP3 MSTORE PUSH1 0xA DUP3 ADD SLOAD PUSH1 0x80 DUP3 ADD MSTORE PUSH1 0xB DUP3 ADD SLOAD PUSH1 0xA0 DUP3 ADD MSTORE PUSH1 0xC DUP3 ADD SLOAD PUSH1 0xC0 DUP3 ADD MSTORE PUSH1 0xD SWAP1 SWAP2 ADD SLOAD PUSH1 0xE0 DUP3 ADD MSTORE SWAP4 SWAP3 POP POP POP JUMP JUMPDEST PUSH1 0x1 PUSH1 0x1 PUSH1 0xA0 SHL SUB DUP2 AND PUSH0 SWAP1 DUP2 MSTORE PUSH1 0x6 PUSH1 0x20 SWAP1 DUP2 MSTORE PUSH1 0x40 DUP1 DUP4 KECCAK256 PUSH1 0x1 ADD DUP1 SLOAD DUP3 MLOAD DUP2 DUP6 MUL DUP2 ADD DUP6 ADD SWAP1 SWAP4 MSTORE DUP1 DUP4 MSTORE PUSH1 0x60 SWAP5 SWAP4 DUP5 SWAP1 DUP5 ADD JUMPDEST DUP3 DUP3 LT ISZERO PUSH2 0x777 JUMPI DUP4 DUP3 SWAP1 PUSH0 MSTORE PUSH1 0x20 PUSH0 KECCAK256 SWAP1 PUSH1 0x3 MUL ADD PUSH1 0x40 MLOAD DUP1 PUSH1 0x60 ADD PUSH1 0x40 MSTORE SWAP1 DUP2 PUSH0 DUP3 ADD SLOAD DUP2 MSTORE PUSH1 0x20 ADD PUSH1 0x1 DUP3 ADD SLOAD DUP2 MSTORE PUSH1 0x20 ADD PUSH1 0x2 DUP3 ADD SLOAD DUP2 MSTORE POP POP DUP2 MSTORE PUSH1 0x20 ADD SWAP1 PUSH1 0x1 ADD SWAP1 PUSH2 0x72A JUMP JUMPDEST POP SWAP3 SWAP7 SWAP6 POP POP POP POP POP POP JUMP JUMPDEST PUSH0 DUP1 SLOAD PUSH1 0x40 DUP1 MLOAD PUSH4 0xB0F479A1 PUSH1 0xE0 SHL DUP2 MSTORE SWAP1 MLOAD DUP4 SWAP3 PUSH1 0x1 PUSH1 0x1 PUSH1 0xA0 SHL SUB AND SWAP2 PUSH4 0xB0F479A1 SWAP2 PUSH1 0x4 DUP1 DUP4 ADD SWAP3 PUSH1 0x20 SWAP3 SWAP2 SWAP1 DUP3 SWAP1 SUB ADD DUP2 DUP7 GAS STATICCALL ISZERO DUP1 ISZERO PUSH2 0x7CA JUMPI RETURNDATASIZE PUSH0 DUP1 RETURNDATACOPY RETURNDATASIZE PUSH0 REVERT JUMPDEST POP POP POP POP PUSH1 0x40 MLOAD RETURNDATASIZE PUSH1 0x1F NOT PUSH1 0x1F DUP3 ADD AND DUP3 ADD DUP1 PUSH1 0x40 MSTORE POP DUP2 ADD SWAP1 PUSH2 0x7EE SWAP2 SWAP1 PUSH2 0x371D JUMP JUMPDEST SWAP1 POP CALLER PUSH1 0x1 PUSH1 0x1 PUSH1 0xA0 SHL SUB DUP3 AND EQ PUSH2 0x821 JUMPI PUSH1 0x40 MLOAD PUSH3 0x461BCD PUSH1 0xE5 SHL DUP2 MSTORE PUSH1 0x4 ADD PUSH2 0x818 SWAP1 PUSH2 0x3738 JUMP JUMPDEST PUSH1 0x40 MLOAD DUP1 SWAP2 SUB SWAP1 REVERT JUMPDEST PUSH1 0x7 SLOAD ISZERO PUSH2 0x841 JUMPI PUSH1 0x40 MLOAD PUSH3 0x461BCD PUSH1 0xE5 SHL DUP2 MSTORE PUSH1 0x4 ADD PUSH2 0x818 SWAP1 PUSH2 0x3760 JUMP JUMPDEST PUSH1 0x1 PUSH1 0x7 SSTORE PUSH0 PUSH2 0x850 PUSH1 0xD SLOAD SWAP1 JUMP JUMPDEST SWAP1 POP PUSH0 DUP2 GT PUSH2 0x871 JUMPI PUSH1 0x40 MLOAD PUSH3 0x461BCD PUSH1 0xE5 SHL DUP2 MSTORE PUSH1 0x4 ADD PUSH2 0x818 SWAP1 PUSH2 0x3786 JUMP JUMPDEST PUSH1 0x1 PUSH1 0x1 PUSH1 0xA0 SHL SUB DUP5 AND PUSH0 SWAP1 DUP2 MSTORE PUSH1 0x6 PUSH1 0x20 MSTORE PUSH1 0x40 SWAP1 KECCAK256 SLOAD DUP1 PUSH2 0x8CC JUMPI PUSH1 0x40 MLOAD PUSH3 0x461BCD PUSH1 0xE5 SHL DUP2 MSTORE PUSH1 0x20 PUSH1 0x4 DUP3 ADD MSTORE PUSH1 0x13 PUSH1 0x24 DUP3 ADD MSTORE PUSH19 0x4E6F207265776172647320746F20636C61696D PUSH1 0x68 SHL PUSH1 0x44 DUP3 ADD MSTORE PUSH1 0x64 ADD PUSH2 0x818 JUMP JUMPDEST PUSH1 0x1 PUSH1 0x1 PUSH1 0xA0 SHL SUB DUP6 AND PUSH0 SWAP1 DUP2 MSTORE PUSH1 0x6 PUSH1 0x20 MSTORE PUSH1 0x40 DUP2 KECCAK256 DUP2 DUP2 SSTORE PUSH1 0x2 ADD SLOAD SWAP1 JUMPDEST DUP2 DUP2 LT ISZERO PUSH2 0xA30 JUMPI PUSH1 0x1 PUSH1 0x1 PUSH1 0xA0 SHL SUB DUP8 AND PUSH0 SWAP1 DUP2 MSTORE PUSH1 0x6 PUSH1 0x20 MSTORE PUSH1 0x40 DUP2 KECCAK256 PUSH1 0x2 ADD DUP1 SLOAD DUP4 SWAP1 DUP2 LT PUSH2 0x920 JUMPI PUSH2 0x920 PUSH2 0x3709 JUMP JUMPDEST SWAP1 PUSH0 MSTORE PUSH1 0x20 PUSH0 KECCAK256 ADD SLOAD SWAP1 POP PUSH0 PUSH1 0x6 PUSH0 DUP11 PUSH1 0x1 PUSH1 0x1 PUSH1 0xA0 SHL SUB AND PUSH1 0x1 PUSH1 0x1 PUSH1 0xA0 SHL SUB AND DUP2 MSTORE PUSH1 0x20 ADD SWAP1 DUP2 MSTORE PUSH1 0x20 ADD PUSH0 KECCAK256 PUSH1 0x1 ADD DUP4 DUP2 SLOAD DUP2 LT PUSH2 0x963 JUMPI PUSH2 0x963 PUSH2 0x3709 JUMP JUMPDEST SWAP1 PUSH0 MSTORE PUSH1 0x20 PUSH0 KECCAK256 SWAP1 PUSH1 0x3 MUL ADD PUSH1 0x1 ADD SLOAD SWAP1 POP PUSH0 DUP1 PUSH1 0xD DUP5 DUP2 SLOAD DUP2 LT PUSH2 0x98A JUMPI PUSH2 0x98A PUSH2 0x3709 JUMP JUMPDEST SWAP1 PUSH0 MSTORE PUSH1 0x20 PUSH0 KECCAK256 SWAP1 PUSH1 0xE MUL ADD SWAP1 POP DUP3 PUSH1 0x1 SUB PUSH2 0x9C5 JUMPI PUSH1 0x2 DUP2 ADD SLOAD PUSH1 0xFF AND ISZERO ISZERO PUSH0 SUB PUSH2 0x9C0 JUMPI PUSH1 0x2 DUP2 ADD DUP1 SLOAD PUSH1 0xFF NOT AND PUSH1 0x1 OR SWAP1 SSTORE JUMPDEST PUSH2 0xA19 JUMP JUMPDEST DUP3 PUSH1 0x2 SUB PUSH2 0x9F1 JUMPI PUSH1 0x5 DUP2 ADD SLOAD PUSH1 0xFF AND ISZERO ISZERO PUSH0 SUB PUSH2 0x9C0 JUMPI PUSH1 0x5 DUP2 ADD DUP1 SLOAD PUSH1 0xFF NOT AND PUSH1 0x1 OR SWAP1 SSTORE PUSH2 0xA19 JUMP JUMPDEST DUP3 PUSH1 0x3 SUB PUSH2 0xA19 JUMPI PUSH1 0x8 DUP2 ADD SLOAD PUSH1 0xFF AND ISZERO ISZERO PUSH0 SUB PUSH2 0xA19 JUMPI PUSH1 0x8 DUP2 ADD DUP1 SLOAD PUSH1 0xFF NOT AND PUSH1 0x1 OR SWAP1 SSTORE JUMPDEST POP POP POP POP DUP1 DUP1 PUSH2 0xA28 SWAP1 PUSH2 0x37C8 JUMP JUMPDEST SWAP2 POP POP PUSH2 0x8EC JUMP JUMPDEST POP PUSH1 0x1 PUSH1 0x1 PUSH1 0xA0 SHL SUB DUP7 AND PUSH0 SWAP1 DUP2 MSTORE PUSH1 0x6 PUSH1 0x20 MSTORE PUSH1 0x40 DUP2 KECCAK256 PUSH2 0xA57 SWAP2 PUSH1 0x2 SWAP1 SWAP2 ADD SWAP1 PUSH2 0x3488 JUMP JUMPDEST PUSH0 PUSH2 0xA61 DUP4 PUSH2 0x2430 JUMP JUMPDEST PUSH0 PUSH1 0x7 SSTORE SWAP8 SWAP7 POP POP POP POP POP POP POP JUMP JUMPDEST PUSH0 DUP1 SLOAD PUSH1 0x40 DUP1 MLOAD PUSH4 0x67906C39 PUSH1 0xE1 SHL DUP2 MSTORE SWAP1 MLOAD DUP4 SWAP3 PUSH1 0x1 PUSH1 0x1 PUSH1 0xA0 SHL SUB AND SWAP2 PUSH4 0xCF20D872 SWAP2 PUSH1 0x4 DUP1 DUP4 ADD SWAP3 PUSH1 0x20 SWAP3 SWAP2 SWAP1 DUP3 SWAP1 SUB ADD DUP2 DUP7 GAS STATICCALL ISZERO DUP1 ISZERO PUSH2 0xAB7 JUMPI RETURNDATASIZE PUSH0 DUP1 RETURNDATACOPY RETURNDATASIZE PUSH0 REVERT JUMPDEST POP POP POP POP PUSH1 0x40 MLOAD RETURNDATASIZE PUSH1 0x1F NOT PUSH1 0x1F DUP3 ADD AND DUP3 ADD DUP1 PUSH1 0x40 MSTORE POP DUP2 ADD SWAP1 PUSH2 0xADB SWAP2 SWAP1 PUSH2 0x371D JUMP JUMPDEST SWAP1 POP CALLER PUSH1 0x1 PUSH1 0x1 PUSH1 0xA0 SHL SUB DUP3 AND EQ PUSH2 0xB05 JUMPI PUSH1 0x40 MLOAD PUSH3 0x461BCD PUSH1 0xE5 SHL DUP2 MSTORE PUSH1 0x4 ADD PUSH2 0x818 SWAP1 PUSH2 0x3738 JUMP JUMPDEST PUSH1 0xF SLOAD PUSH1 0x40 MLOAD PUSH4 0x70A08231 PUSH1 0xE0 SHL DUP2 MSTORE ADDRESS PUSH1 0x4 DUP3 ADD MSTORE PUSH0 SWAP2 PUSH1 0x1 PUSH1 0x1 PUSH1 0xA0 SHL SUB AND SWAP1 PUSH4 0x70A08231 SWAP1 PUSH1 0x24 ADD PUSH1 0x20 PUSH1 0x40 MLOAD DUP1 DUP4 SUB DUP2 DUP7 GAS STATICCALL ISZERO DUP1 ISZERO PUSH2 0xB4B JUMPI RETURNDATASIZE PUSH0 DUP1 RETURNDATACOPY RETURNDATASIZE PUSH0 REVERT JUMPDEST POP POP POP POP PUSH1 0x40 MLOAD RETURNDATASIZE PUSH1 0x1F NOT PUSH1 0x1F DUP3 ADD AND DUP3 ADD DUP1 PUSH1 0x40 MSTORE POP DUP2 ADD SWAP1 PUSH2 0xB6F SWAP2 SWAP1 PUSH2 0x37E0 JUMP JUMPDEST SWAP1 POP PUSH2 0xB79 PUSH2 0x2673 JUMP JUMPDEST PUSH1 0xF SLOAD PUSH1 0x40 MLOAD PUSH4 0x70A08231 PUSH1 0xE0 SHL DUP2 MSTORE ADDRESS PUSH1 0x4 DUP3 ADD MSTORE PUSH0 SWAP2 PUSH1 0x1 PUSH1 0x1 PUSH1 0xA0 SHL SUB AND SWAP1 PUSH4 0x70A08231 SWAP1 PUSH1 0x24 ADD PUSH1 0x20 PUSH1 0x40 MLOAD DUP1 DUP4 SUB DUP2 DUP7 GAS STATICCALL ISZERO DUP1 ISZERO PUSH2 0xBBF JUMPI RETURNDATASIZE PUSH0 DUP1 RETURNDATACOPY RETURNDATASIZE PUSH0 REVERT JUMPDEST POP POP POP POP PUSH1 0x40 MLOAD RETURNDATASIZE PUSH1 0x1F NOT PUSH1 0x1F DUP3 ADD AND DUP3 ADD DUP1 PUSH1 0x40 MSTORE POP DUP2 ADD SWAP1 PUSH2 0xBE3 SWAP2 SWAP1 PUSH2 0x37E0 JUMP JUMPDEST SWAP1 POP PUSH0 PUSH2 0xBF0 DUP3 DUP5 PUSH2 0x26D7 JUMP JUMPDEST SWAP5 POP POP POP POP JUMPDEST POP SWAP1 JUMP JUMPDEST PUSH0 DUP1 PUSH0 SWAP1 SLOAD SWAP1 PUSH2 0x100 EXP SWAP1 DIV PUSH1 0x1 PUSH1 0x1 PUSH1 0xA0 SHL SUB AND PUSH1 0x1 PUSH1 0x1 PUSH1 0xA0 SHL SUB AND PUSH4 0xCF20D872 PUSH1 0x40 MLOAD DUP2 PUSH4 0xFFFFFFFF AND PUSH1 0xE0 SHL DUP2 MSTORE PUSH1 0x4 ADD PUSH1 0x20 PUSH1 0x40 MLOAD DUP1 DUP4 SUB DUP2 DUP7 GAS STATICCALL ISZERO DUP1 ISZERO PUSH2 0xC4A JUMPI RETURNDATASIZE PUSH0 DUP1 RETURNDATACOPY RETURNDATASIZE PUSH0 REVERT JUMPDEST POP POP POP POP PUSH1 0x40 MLOAD RETURNDATASIZE PUSH1 0x1F NOT PUSH1 0x1F DUP3 ADD AND DUP3 ADD DUP1 PUSH1 0x40 MSTORE POP DUP2 ADD SWAP1 PUSH2 0xC6E SWAP2 SWAP1 PUSH2 0x371D JUMP JUMPDEST SWAP1 POP CALLER PUSH1 0x1 PUSH1 0x1 PUSH1 0xA0 SHL SUB DUP3 AND EQ PUSH2 0xC98 JUMPI PUSH1 0x40 MLOAD PUSH3 0x461BCD PUSH1 0xE5 SHL DUP2 MSTORE PUSH1 0x4 ADD PUSH2 0x818 SWAP1 PUSH2 0x3738 JUMP JUMPDEST PUSH0 PUSH1 0xD DUP4 DUP2 SLOAD DUP2 LT PUSH2 0xCAC JUMPI PUSH2 0xCAC PUSH2 0x3709 JUMP JUMPDEST SWAP1 PUSH0 MSTORE PUSH1 0x20 PUSH0 KECCAK256 SWAP1 PUSH1 0xE MUL ADD SWAP1 POP PUSH0 PUSH2 0xCD6 DUP3 PUSH1 0xB ADD SLOAD DUP4 PUSH1 0xC ADD SLOAD PUSH2 0x26E2 SWAP1 SWAP2 SWAP1 PUSH4 0xFFFFFFFF AND JUMP JUMPDEST SWAP1 POP PUSH2 0xCE2 DUP5 DUP3 PUSH2 0x26ED JUMP JUMPDEST DUP3 PUSH1 0xD ADD DUP2 SWAP1 SSTORE POP POP POP POP POP JUMP JUMPDEST PUSH0 DUP1 PUSH0 SWAP1 SLOAD SWAP1 PUSH2 0x100 EXP SWAP1 DIV PUSH1 0x1 PUSH1 0x1 PUSH1 0xA0 SHL SUB AND PUSH1 0x1 PUSH1 0x1 PUSH1 0xA0 SHL SUB AND PUSH4 0xB0F479A1 PUSH1 0x40 MLOAD DUP2 PUSH4 0xFFFFFFFF AND PUSH1 0xE0 SHL DUP2 MSTORE PUSH1 0x4 ADD PUSH1 0x20 PUSH1 0x40 MLOAD DUP1 DUP4 SUB DUP2 DUP7 GAS STATICCALL ISZERO DUP1 ISZERO PUSH2 0xD40 JUMPI RETURNDATASIZE PUSH0 DUP1 RETURNDATACOPY RETURNDATASIZE PUSH0 REVERT JUMPDEST POP POP POP POP PUSH1 0x40 MLOAD RETURNDATASIZE PUSH1 0x1F NOT PUSH1 0x1F DUP3 ADD AND DUP3 ADD DUP1 PUSH1 0x40 MSTORE POP DUP2 ADD SWAP1 PUSH2 0xD64 SWAP2 SWAP1 PUSH2 0x371D JUMP JUMPDEST SWAP1 POP CALLER PUSH1 0x1 PUSH1 0x1 PUSH1 0xA0 SHL SUB DUP3 AND EQ PUSH2 0xD8E JUMPI PUSH1 0x40 MLOAD PUSH3 0x461BCD PUSH1 0xE5 SHL DUP2 MSTORE PUSH1 0x4 ADD PUSH2 0x818 SWAP1 PUSH2 0x3738 JUMP JUMPDEST PUSH1 0x7 SLOAD ISZERO PUSH2 0xDAE JUMPI PUSH1 0x40 MLOAD PUSH3 0x461BCD PUSH1 0xE5 SHL DUP2 MSTORE PUSH1 0x4 ADD PUSH2 0x818 SWAP1 PUSH2 0x3760 JUMP JUMPDEST PUSH1 0x1 PUSH1 0x7 SSTORE PUSH0 PUSH2 0xDBD PUSH1 0xD SLOAD SWAP1 JUMP JUMPDEST SWAP1 POP PUSH0 DUP2 GT PUSH2 0xDDE JUMPI PUSH1 0x40 MLOAD PUSH3 0x461BCD PUSH1 0xE5 SHL DUP2 MSTORE PUSH1 0x4 ADD PUSH2 0x818 SWAP1 PUSH2 0x3786 JUMP JUMPDEST PUSH0 PUSH2 0xDE8 DUP5 PUSH2 0x2762 JUMP JUMPDEST SWAP1 POP PUSH2 0xDF3 DUP2 PUSH2 0x286B JUMP JUMPDEST PUSH2 0xDFF DUP6 DUP3 PUSH1 0x1 PUSH2 0x2880 JUMP JUMPDEST POP POP PUSH0 PUSH1 0x7 SSTORE POP POP POP JUMP JUMPDEST PUSH1 0x40 DUP1 MLOAD DUP1 DUP3 ADD SWAP1 SWAP2 MSTORE PUSH0 DUP2 MSTORE PUSH1 0x60 PUSH1 0x20 DUP3 ADD MSTORE PUSH1 0xD SLOAD DUP1 PUSH2 0xE3E JUMPI PUSH1 0x40 MLOAD PUSH3 0x461BCD PUSH1 0xE5 SHL DUP2 MSTORE PUSH1 0x4 ADD PUSH2 0x818 SWAP1 PUSH2 0x3786 JUMP JUMPDEST DUP3 PUSH0 PUSH2 0xE48 PUSH2 0x146E JUMP JUMPDEST SWAP1 POP DUP1 DUP3 GT ISZERO PUSH2 0xE91 JUMPI PUSH1 0x40 MLOAD PUSH3 0x461BCD PUSH1 0xE5 SHL DUP2 MSTORE PUSH1 0x20 PUSH1 0x4 DUP3 ADD MSTORE PUSH1 0x14 PUSH1 0x24 DUP3 ADD MSTORE PUSH20 0x24B73B30B634B21032B837B1B410373AB6B132B9 PUSH1 0x61 SHL PUSH1 0x44 DUP3 ADD MSTORE PUSH1 0x64 ADD PUSH2 0x818 JUMP JUMPDEST PUSH0 PUSH2 0xE9B DUP8 PUSH2 0x551 JUMP JUMPDEST SWAP1 POP DUP1 PUSH0 SUB PUSH2 0xEBC JUMPI PUSH1 0x40 MLOAD PUSH3 0x461BCD PUSH1 0xE5 SHL DUP2 MSTORE PUSH1 0x4 ADD PUSH2 0x818 SWAP1 PUSH2 0x37F7 JUMP JUMPDEST PUSH0 DUP7 DUP2 MSTORE PUSH1 0x5 PUSH1 0x20 SWAP1 DUP2 MSTORE PUSH1 0x40 DUP1 DUP4 KECCAK256 DUP5 DUP5 MSTORE DUP3 MSTORE DUP1 DUP4 KECCAK256 DUP2 MLOAD DUP1 DUP4 ADD DUP4 MSTORE DUP2 SLOAD PUSH1 0xFF AND ISZERO ISZERO DUP2 MSTORE PUSH1 0x1 DUP3 ADD DUP1 SLOAD DUP5 MLOAD DUP2 DUP8 MUL DUP2 ADD DUP8 ADD SWAP1 SWAP6 MSTORE DUP1 DUP6 MSTORE SWAP2 SWAP5 SWAP3 SWAP4 DUP6 DUP5 ADD SWAP4 SWAP1 SWAP3 SWAP1 DUP8 SWAP1 DUP5 ADD JUMPDEST DUP3 DUP3 LT ISZERO PUSH2 0xF56 JUMPI DUP4 DUP3 SWAP1 PUSH0 MSTORE PUSH1 0x20 PUSH0 KECCAK256 SWAP1 PUSH1 0x3 MUL ADD PUSH1 0x40 MLOAD DUP1 PUSH1 0x60 ADD PUSH1 0x40 MSTORE SWAP1 DUP2 PUSH0 DUP3 ADD SLOAD DUP2 MSTORE PUSH1 0x20 ADD PUSH1 0x1 DUP3 ADD SLOAD DUP2 MSTORE PUSH1 0x20 ADD PUSH1 0x2 DUP3 ADD SLOAD DUP2 MSTORE POP POP DUP2 MSTORE PUSH1 0x20 ADD SWAP1 PUSH1 0x1 ADD SWAP1 PUSH2 0xF09 JUMP JUMPDEST POP POP POP SWAP2 MSTORE POP SWAP1 SWAP10 SWAP9 POP POP POP POP POP POP POP POP POP JUMP JUMPDEST PUSH0 DUP1 PUSH0 SWAP1 SLOAD SWAP1 PUSH2 0x100 EXP SWAP1 DIV PUSH1 0x1 PUSH1 0x1 PUSH1 0xA0 SHL SUB AND PUSH1 0x1 PUSH1 0x1 PUSH1 0xA0 SHL SUB AND PUSH4 0x3018205F PUSH1 0x40 MLOAD DUP2 PUSH4 0xFFFFFFFF AND PUSH1 0xE0 SHL DUP2 MSTORE PUSH1 0x4 ADD PUSH1 0x20 PUSH1 0x40 MLOAD DUP1 DUP4 SUB DUP2 DUP7 GAS STATICCALL ISZERO DUP1 ISZERO PUSH2 0xFBA JUMPI RETURNDATASIZE PUSH0 DUP1 RETURNDATACOPY RETURNDATASIZE PUSH0 REVERT JUMPDEST POP POP POP POP PUSH1 0x40 MLOAD RETURNDATASIZE PUSH1 0x1F NOT PUSH1 0x1F DUP3 ADD AND DUP3 ADD DUP1 PUSH1 0x40 MSTORE POP DUP2 ADD SWAP1 PUSH2 0xFDE SWAP2 SWAP1 PUSH2 0x371D JUMP JUMPDEST SWAP1 POP CALLER PUSH1 0x1 PUSH1 0x1 PUSH1 0xA0 SHL SUB DUP3 AND EQ PUSH2 0x1008 JUMPI PUSH1 0x40 MLOAD PUSH3 0x461BCD PUSH1 0xE5 SHL DUP2 MSTORE PUSH1 0x4 ADD PUSH2 0x818 SWAP1 PUSH2 0x3738 JUMP JUMPDEST POP PUSH1 0xF DUP1 SLOAD PUSH1 0x1 PUSH1 0x1 PUSH1 0xA0 SHL SUB NOT AND PUSH1 0x1 PUSH1 0x1 PUSH1 0xA0 SHL SUB SWAP6 SWAP1 SWAP6 AND SWAP5 SWAP1 SWAP5 OR SWAP1 SWAP4 SSTORE PUSH1 0x14 SWAP2 SWAP1 SWAP2 SSTORE PUSH1 0xE SWAP2 SWAP1 SWAP2 SSTORE PUSH1 0x11 SSTORE JUMP JUMPDEST PUSH0 DUP1 PUSH0 SWAP1 SLOAD SWAP1 PUSH2 0x100 EXP SWAP1 DIV PUSH1 0x1 PUSH1 0x1 PUSH1 0xA0 SHL SUB AND PUSH1 0x1 PUSH1 0x1 PUSH1 0xA0 SHL SUB AND PUSH4 0xCF20D872 PUSH1 0x40 MLOAD DUP2 PUSH4 0xFFFFFFFF AND PUSH1 0xE0 SHL DUP2 MSTORE PUSH1 0x4 ADD PUSH1 0x20 PUSH1 0x40 MLOAD DUP1 DUP4 SUB DUP2 DUP7 GAS STATICCALL ISZERO DUP1 ISZERO PUSH2 0x108B JUMPI RETURNDATASIZE PUSH0 DUP1 RETURNDATACOPY RETURNDATASIZE PUSH0 REVERT JUMPDEST POP POP POP POP PUSH1 0x40 MLOAD RETURNDATASIZE PUSH1 0x1F NOT PUSH1 0x1F DUP3 ADD AND DUP3 ADD DUP1 PUSH1 0x40 MSTORE POP DUP2 ADD SWAP1 PUSH2 0x10AF SWAP2 SWAP1 PUSH2 0x371D JUMP JUMPDEST SWAP1 POP CALLER PUSH1 0x1 PUSH1 0x1 PUSH1 0xA0 SHL SUB DUP3 AND EQ PUSH2 0x10D9 JUMPI PUSH1 0x40 MLOAD PUSH3 0x461BCD PUSH1 0xE5 SHL DUP2 MSTORE PUSH1 0x4 ADD PUSH2 0x818 SWAP1 PUSH2 0x3738 JUMP JUMPDEST PUSH2 0x10E2 DUP6 PUSH2 0x551 JUMP JUMPDEST PUSH0 SUB PUSH2 0x1100 JUMPI PUSH1 0x40 MLOAD PUSH3 0x461BCD PUSH1 0xE5 SHL DUP2 MSTORE PUSH1 0x4 ADD PUSH2 0x818 SWAP1 PUSH2 0x3827 JUMP JUMPDEST PUSH2 0x1109 DUP5 PUSH2 0x551 JUMP JUMPDEST PUSH0 SUB PUSH2 0x1127 JUMPI PUSH1 0x40 MLOAD PUSH3 0x461BCD PUSH1 0xE5 SHL DUP2 MSTORE PUSH1 0x4 ADD PUSH2 0x818 SWAP1 PUSH2 0x3827 JUMP JUMPDEST PUSH2 0x1130 DUP4 PUSH2 0x551 JUMP JUMPDEST PUSH0 SUB PUSH2 0x114E JUMPI PUSH1 0x40 MLOAD PUSH3 0x461BCD PUSH1 0xE5 SHL DUP2 MSTORE PUSH1 0x4 ADD PUSH2 0x818 SWAP1 PUSH2 0x3827 JUMP JUMPDEST PUSH0 PUSH1 0xD DUP8 DUP2 SLOAD DUP2 LT PUSH2 0x1162 JUMPI PUSH2 0x1162 PUSH2 0x3709 JUMP JUMPDEST PUSH0 SWAP2 DUP3 MSTORE PUSH1 0x20 SWAP1 SWAP2 KECCAK256 PUSH1 0xE SWAP1 SWAP2 MUL ADD PUSH1 0x9 DUP2 ADD SLOAD SWAP1 SWAP2 POP PUSH1 0xFF AND DUP1 ISZERO PUSH2 0x11BA JUMPI PUSH1 0x40 MLOAD PUSH3 0x461BCD PUSH1 0xE5 SHL DUP2 MSTORE PUSH1 0x20 PUSH1 0x4 DUP3 ADD MSTORE PUSH1 0xD PUSH1 0x24 DUP3 ADD MSTORE PUSH13 0x45706F636820697320646F6E65 PUSH1 0x98 SHL PUSH1 0x44 DUP3 ADD MSTORE PUSH1 0x64 ADD PUSH2 0x818 JUMP JUMPDEST PUSH0 PUSH2 0x11D6 DUP4 PUSH1 0xB ADD SLOAD DUP5 PUSH1 0xC ADD SLOAD PUSH2 0x26E2 SWAP1 SWAP2 SWAP1 PUSH4 0xFFFFFFFF AND JUMP JUMPDEST SWAP1 POP DUP1 TIMESTAMP GT PUSH2 0x121A JUMPI PUSH1 0x40 MLOAD PUSH3 0x461BCD PUSH1 0xE5 SHL DUP2 MSTORE PUSH1 0x20 PUSH1 0x4 DUP3 ADD MSTORE PUSH1 0x10 PUSH1 0x24 DUP3 ADD MSTORE PUSH16 0x45706F63682069736E277420646F6E65 PUSH1 0x80 SHL PUSH1 0x44 DUP3 ADD MSTORE PUSH1 0x64 ADD PUSH2 0x818 JUMP JUMPDEST PUSH1 0x9 DUP4 ADD DUP1 SLOAD PUSH1 0xFF NOT AND PUSH1 0x1 OR SWAP1 SSTORE PUSH0 PUSH2 0x1233 DUP7 PUSH2 0x2999 JUMP JUMPDEST PUSH1 0xA DUP6 ADD DUP2 SWAP1 SSTORE DUP5 SLOAD PUSH1 0x1 PUSH1 0x1 PUSH1 0xA0 SHL SUB NOT AND PUSH1 0x1 PUSH1 0x1 PUSH1 0xA0 SHL SUB DUP12 AND OR DUP6 SSTORE PUSH1 0xC SLOAD PUSH1 0x9 SLOAD SWAP2 SWAP3 POP PUSH2 0x1271 SWAP2 PUSH2 0x126B SWAP1 DUP5 SWAP1 PUSH2 0x2B12 JUMP JUMPDEST SWAP1 PUSH2 0x2B1D JUMP JUMPDEST PUSH1 0x1 DUP6 ADD SSTORE PUSH1 0x2 DUP5 ADD DUP1 SLOAD PUSH1 0xFF NOT AND SWAP1 SSTORE PUSH1 0x3 DUP5 ADD DUP1 SLOAD PUSH1 0x1 PUSH1 0x1 PUSH1 0xA0 SHL SUB NOT AND PUSH1 0x1 PUSH1 0x1 PUSH1 0xA0 SHL SUB DUP11 AND OR SWAP1 SSTORE PUSH1 0xC SLOAD PUSH1 0xA SLOAD PUSH2 0x12B5 SWAP2 SWAP1 PUSH2 0x126B SWAP1 DUP5 SWAP1 PUSH2 0x2B12 JUMP JUMPDEST PUSH1 0x4 DUP6 ADD SSTORE PUSH1 0x5 DUP5 ADD DUP1 SLOAD PUSH1 0xFF NOT AND SWAP1 SSTORE PUSH1 0x6 DUP5 ADD DUP1 SLOAD PUSH1 0x1 PUSH1 0x1 PUSH1 0xA0 SHL SUB NOT AND PUSH1 0x1 PUSH1 0x1 PUSH1 0xA0 SHL SUB DUP10 AND OR SWAP1 SSTORE PUSH1 0xC SLOAD PUSH1 0xB SLOAD PUSH2 0x12F9 SWAP2 SWAP1 PUSH2 0x126B SWAP1 DUP5 SWAP1 PUSH2 0x2B12 JUMP JUMPDEST PUSH1 0x7 DUP6 ADD SSTORE PUSH1 0x8 DUP5 ADD DUP1 SLOAD PUSH1 0xFF NOT AND SWAP1 SSTORE PUSH1 0x40 DUP1 MLOAD PUSH1 0x3 DUP1 DUP3 MSTORE PUSH1 0x80 DUP3 ADD SWAP1 SWAP3 MSTORE PUSH0 SWAP2 PUSH1 0x20 DUP3 ADD PUSH1 0x60 DUP1 CALLDATASIZE DUP4 CALLDATACOPY ADD SWAP1 POP POP SWAP1 POP DUP10 DUP2 PUSH0 DUP2 MLOAD DUP2 LT PUSH2 0x133F JUMPI PUSH2 0x133F PUSH2 0x3709 JUMP JUMPDEST PUSH1 0x20 MUL PUSH1 0x20 ADD ADD SWAP1 PUSH1 0x1 PUSH1 0x1 PUSH1 0xA0 SHL SUB AND SWAP1 DUP2 PUSH1 0x1 PUSH1 0x1 PUSH1 0xA0 SHL SUB AND DUP2 MSTORE POP POP DUP9 DUP2 PUSH1 0x1 DUP2 MLOAD DUP2 LT PUSH2 0x1373 JUMPI PUSH2 0x1373 PUSH2 0x3709 JUMP JUMPDEST PUSH1 0x20 MUL PUSH1 0x20 ADD ADD SWAP1 PUSH1 0x1 PUSH1 0x1 PUSH1 0xA0 SHL SUB AND SWAP1 DUP2 PUSH1 0x1 PUSH1 0x1 PUSH1 0xA0 SHL SUB AND DUP2 MSTORE POP POP DUP8 DUP2 PUSH1 0x2 DUP2 MLOAD DUP2 LT PUSH2 0x13A7 JUMPI PUSH2 0x13A7 PUSH2 0x3709 JUMP JUMPDEST PUSH1 0x1 PUSH1 0x1 PUSH1 0xA0 SHL SUB SWAP3 SWAP1 SWAP3 AND PUSH1 0x20 SWAP3 DUP4 MUL SWAP2 SWAP1 SWAP2 ADD DUP3 ADD MSTORE PUSH1 0x40 DUP1 MLOAD PUSH1 0x3 DUP1 DUP3 MSTORE PUSH1 0x80 DUP3 ADD SWAP1 SWAP3 MSTORE PUSH0 SWAP3 SWAP1 SWAP2 SWAP1 DUP3 ADD PUSH1 0x60 DUP1 CALLDATASIZE DUP4 CALLDATACOPY ADD SWAP1 POP POP SWAP1 POP DUP6 PUSH0 ADD PUSH1 0x1 ADD SLOAD DUP2 PUSH0 DUP2 MLOAD DUP2 LT PUSH2 0x13FB JUMPI PUSH2 0x13FB PUSH2 0x3709 JUMP JUMPDEST PUSH1 0x20 MUL PUSH1 0x20 ADD ADD DUP2 DUP2 MSTORE POP POP DUP6 PUSH1 0x3 ADD PUSH1 0x1 ADD SLOAD DUP2 PUSH1 0x1 DUP2 MLOAD DUP2 LT PUSH2 0x1422 JUMPI PUSH2 0x1422 PUSH2 0x3709 JUMP JUMPDEST PUSH1 0x20 MUL PUSH1 0x20 ADD ADD DUP2 DUP2 MSTORE POP POP DUP6 PUSH1 0x6 ADD PUSH1 0x1 ADD SLOAD DUP2 PUSH1 0x2 DUP2 MLOAD DUP2 LT PUSH2 0x1449 JUMPI PUSH2 0x1449 PUSH2 0x3709 JUMP JUMPDEST PUSH1 0x20 MUL PUSH1 0x20 ADD ADD DUP2 DUP2 MSTORE POP POP PUSH2 0x1460 DUP13 DUP4 DUP4 PUSH2 0x2B28 JUMP JUMPDEST POP POP POP POP POP POP POP POP POP POP POP POP JUMP JUMPDEST PUSH0 DUP1 PUSH2 0x1479 PUSH1 0xD SLOAD SWAP1 JUMP JUMPDEST SWAP1 POP PUSH0 DUP2 GT PUSH2 0x149A JUMPI PUSH1 0x40 MLOAD PUSH3 0x461BCD PUSH1 0xE5 SHL DUP2 MSTORE PUSH1 0x4 ADD PUSH2 0x818 SWAP1 PUSH2 0x3786 JUMP JUMPDEST PUSH0 PUSH2 0x14A6 DUP3 PUSH1 0x1 PUSH2 0x26D7 JUMP JUMPDEST SWAP4 SWAP3 POP POP POP JUMP JUMPDEST PUSH0 DUP1 PUSH2 0x14B8 PUSH1 0xD SLOAD SWAP1 JUMP JUMPDEST SWAP1 POP PUSH0 DUP2 GT PUSH2 0x14D9 JUMPI PUSH1 0x40 MLOAD PUSH3 0x461BCD PUSH1 0xE5 SHL DUP2 MSTORE PUSH1 0x4 ADD PUSH2 0x818 SWAP1 PUSH2 0x3786 JUMP JUMPDEST DUP4 PUSH0 PUSH2 0x14E3 PUSH2 0x146E JUMP JUMPDEST SWAP1 POP DUP1 DUP3 GT ISZERO PUSH2 0x152C JUMPI PUSH1 0x40 MLOAD PUSH3 0x461BCD PUSH1 0xE5 SHL DUP2 MSTORE PUSH1 0x20 PUSH1 0x4 DUP3 ADD MSTORE PUSH1 0x14 PUSH1 0x24 DUP3 ADD MSTORE PUSH20 0x24B73B30B634B21032B837B1B410373AB6B132B9 PUSH1 0x61 SHL PUSH1 0x44 DUP3 ADD MSTORE PUSH1 0x64 ADD PUSH2 0x818 JUMP JUMPDEST PUSH0 PUSH2 0x1536 DUP7 PUSH2 0x551 JUMP JUMPDEST SWAP1 POP DUP1 PUSH0 SUB PUSH2 0x1557 JUMPI PUSH1 0x40 MLOAD PUSH3 0x461BCD PUSH1 0xE5 SHL DUP2 MSTORE PUSH1 0x4 ADD PUSH2 0x818 SWAP1 PUSH2 0x37F7 JUMP JUMPDEST PUSH0 DUP8 DUP2 MSTORE PUSH1 0x4 PUSH1 0x20 SWAP1 DUP2 MSTORE PUSH1 0x40 DUP1 DUP4 KECCAK256 SWAP4 DUP4 MSTORE SWAP3 SWAP1 MSTORE KECCAK256 SLOAD SWAP4 POP POP POP POP SWAP3 SWAP2 POP POP JUMP JUMPDEST PUSH0 DUP1 PUSH0 SWAP1 SLOAD SWAP1 PUSH2 0x100 EXP SWAP1 DIV PUSH1 0x1 PUSH1 0x1 PUSH1 0xA0 SHL SUB AND PUSH1 0x1 PUSH1 0x1 PUSH1 0xA0 SHL SUB AND PUSH4 0x3018205F PUSH1 0x40 MLOAD DUP2 PUSH4 0xFFFFFFFF AND PUSH1 0xE0 SHL DUP2 MSTORE PUSH1 0x4 ADD PUSH1 0x20 PUSH1 0x40 MLOAD DUP1 DUP4 SUB DUP2 DUP7 GAS STATICCALL ISZERO DUP1 ISZERO PUSH2 0x15CA JUMPI RETURNDATASIZE PUSH0 DUP1 RETURNDATACOPY RETURNDATASIZE PUSH0 REVERT JUMPDEST POP POP POP POP PUSH1 0x40 MLOAD RETURNDATASIZE PUSH1 0x1F NOT PUSH1 0x1F DUP3 ADD AND DUP3 ADD DUP1 PUSH1 0x40 MSTORE POP DUP2 ADD SWAP1 PUSH2 0x15EE SWAP2 SWAP1 PUSH2 0x371D JUMP JUMPDEST SWAP1 POP CALLER PUSH1 0x1 PUSH1 0x1 PUSH1 0xA0 SHL SUB DUP3 AND EQ PUSH2 0x1618 JUMPI PUSH1 0x40 MLOAD PUSH3 0x461BCD PUSH1 0xE5 SHL DUP2 MSTORE PUSH1 0x4 ADD PUSH2 0x818 SWAP1 PUSH2 0x3738 JUMP JUMPDEST POP PUSH1 0x10 DUP1 SLOAD PUSH1 0x1 PUSH1 0x1 PUSH1 0xA0 SHL SUB NOT AND PUSH1 0x1 PUSH1 0x1 PUSH1 0xA0 SHL SUB SWAP3 SWAP1 SWAP3 AND SWAP2 SWAP1 SWAP2 OR SWAP1 SSTORE JUMP JUMPDEST PUSH2 0x166B PUSH1 0x40 MLOAD DUP1 PUSH1 0x80 ADD PUSH1 0x40 MSTORE DUP1 PUSH0 PUSH1 0x1 PUSH1 0x1 PUSH1 0xA0 SHL SUB AND DUP2 MSTORE PUSH1 0x20 ADD PUSH0 DUP2 MSTORE PUSH1 0x20 ADD PUSH0 DUP2 MSTORE PUSH1 0x20 ADD PUSH0 DUP2 MSTORE POP SWAP1 JUMP JUMPDEST PUSH0 PUSH2 0x1675 DUP4 PUSH2 0x551 JUMP JUMPDEST PUSH0 SWAP1 DUP2 MSTORE PUSH1 0x2 PUSH1 0x20 DUP2 DUP2 MSTORE PUSH1 0x40 SWAP3 DUP4 SWAP1 KECCAK256 DUP4 MLOAD PUSH1 0x80 DUP2 ADD DUP6 MSTORE DUP2 SLOAD PUSH1 0x1 PUSH1 0x1 PUSH1 0xA0 SHL SUB AND DUP2 MSTORE PUSH1 0x1 DUP3 ADD SLOAD SWAP3 DUP2 ADD SWAP3 SWAP1 SWAP3 MSTORE SWAP2 DUP3 ADD SLOAD SWAP3 DUP2 ADD SWAP3 SWAP1 SWAP3 MSTORE PUSH1 0x3 ADD SLOAD PUSH1 0x60 DUP3 ADD MSTORE SWAP4 SWAP3 POP POP POP JUMP JUMPDEST PUSH0 SLOAD PUSH1 0x1 PUSH1 0xA0 SHL SWAP1 DIV PUSH1 0xFF AND ISZERO PUSH2 0x171B JUMPI PUSH1 0x40 MLOAD PUSH3 0x461BCD PUSH1 0xE5 SHL DUP2 MSTORE PUSH1 0x20 PUSH1 0x4 DUP3 ADD MSTORE PUSH1 0x1F PUSH1 0x24 DUP3 ADD MSTORE PUSH32 0x436F6E747261637420697320696E697469616C697A656420616C726561647900 PUSH1 0x44 DUP3 ADD MSTORE PUSH1 0x64 ADD PUSH2 0x818 JUMP JUMPDEST PUSH2 0x1724 DUP2 PUSH2 0x2CC1 JUMP JUMPDEST POP PUSH0 DUP1 SLOAD PUSH1 0xFF PUSH1 0xA0 SHL NOT AND PUSH1 0x1 PUSH1 0xA0 SHL OR SWAP1 SSTORE JUMP JUMPDEST PUSH0 DUP1 PUSH0 SWAP1 SLOAD SWAP1 PUSH2 0x100 EXP SWAP1 DIV PUSH1 0x1 PUSH1 0x1 PUSH1 0xA0 SHL SUB AND PUSH1 0x1 PUSH1 0x1 PUSH1 0xA0 SHL SUB AND PUSH4 0x3018205F PUSH1 0x40 MLOAD DUP2 PUSH4 0xFFFFFFFF AND PUSH1 0xE0 SHL DUP2 MSTORE PUSH1 0x4 ADD PUSH1 0x20 PUSH1 0x40 MLOAD DUP1 DUP4 SUB DUP2 DUP7 GAS STATICCALL ISZERO DUP1 ISZERO PUSH2 0x1789 JUMPI RETURNDATASIZE PUSH0 DUP1 RETURNDATACOPY RETURNDATASIZE PUSH0 REVERT JUMPDEST POP POP POP POP PUSH1 0x40 MLOAD RETURNDATASIZE PUSH1 0x1F NOT PUSH1 0x1F DUP3 ADD AND DUP3 ADD DUP1 PUSH1 0x40 MSTORE POP DUP2 ADD SWAP1 PUSH2 0x17AD SWAP2 SWAP1 PUSH2 0x371D JUMP JUMPDEST SWAP1 POP CALLER PUSH1 0x1 PUSH1 0x1 PUSH1 0xA0 SHL SUB DUP3 AND EQ PUSH2 0x17D7 JUMPI PUSH1 0x40 MLOAD PUSH3 0x461BCD PUSH1 0xE5 SHL DUP2 MSTORE PUSH1 0x4 ADD PUSH2 0x818 SWAP1 PUSH2 0x3738 JUMP JUMPDEST DUP2 PUSH2 0x17EC DUP5 PUSH2 0x17E6 DUP9 DUP9 PUSH2 0x26E2 JUMP JUMPDEST SWAP1 PUSH2 0x26E2 JUMP JUMPDEST EQ PUSH2 0x17F5 JUMPI PUSH0 DUP1 REVERT JUMPDEST PUSH1 0x9 DUP6 SWAP1 SSTORE PUSH1 0xA DUP5 SWAP1 SSTORE PUSH1 0xB DUP4 SWAP1 SSTORE PUSH1 0xC DUP3 SWAP1 SSTORE PUSH1 0x40 DUP1 MLOAD DUP7 DUP2 MSTORE PUSH1 0x20 DUP2 ADD DUP7 SWAP1 MSTORE SWAP1 DUP2 ADD DUP5 SWAP1 MSTORE PUSH32 0x276FB89D8224FFD75E667EF77AA3B75F5D7064A6DD5B8C9B9B8761B8B303A346 SWAP1 PUSH1 0x60 ADD PUSH1 0x40 MLOAD DUP1 SWAP2 SUB SWAP1 LOG1 POP POP POP POP POP JUMP JUMPDEST PUSH0 DUP1 PUSH0 DUP1 PUSH2 0x185F DUP7 DUP7 PUSH2 0x14AD JUMP JUMPDEST SWAP1 POP PUSH0 PUSH2 0x186B DUP8 PUSH2 0x56B JUMP JUMPDEST SWAP1 POP PUSH0 PUSH2 0x1889 DUP3 PUSH1 0xC0 ADD MLOAD DUP4 PUSH1 0xA0 ADD MLOAD PUSH2 0x26E2 SWAP1 SWAP2 SWAP1 PUSH4 0xFFFFFFFF AND JUMP JUMPDEST SWAP1 POP PUSH0 PUSH2 0x1895 DUP9 PUSH2 0x551 JUMP JUMPDEST SWAP1 POP DUP1 PUSH0 SUB PUSH2 0x18B6 JUMPI PUSH1 0x40 MLOAD PUSH3 0x461BCD PUSH1 0xE5 SHL DUP2 MSTORE PUSH1 0x4 ADD PUSH2 0x818 SWAP1 PUSH2 0x37F7 JUMP JUMPDEST PUSH0 DUP2 DUP2 MSTORE PUSH1 0x2 PUSH1 0x20 DUP2 SWAP1 MSTORE PUSH1 0x40 SWAP1 SWAP2 KECCAK256 PUSH1 0x3 DUP2 ADD SLOAD PUSH1 0x1 DUP3 ADD SLOAD SWAP2 SWAP1 SWAP3 ADD SLOAD DUP5 GT PUSH2 0x1932 JUMPI PUSH1 0x40 MLOAD PUSH3 0x461BCD PUSH1 0xE5 SHL DUP2 MSTORE PUSH1 0x20 PUSH1 0x4 DUP3 ADD MSTORE PUSH1 0x26 PUSH1 0x24 DUP3 ADD MSTORE PUSH32 0x5573657220686173206E6F742070617274696369706174656420696E20746865 PUSH1 0x44 DUP3 ADD MSTORE PUSH6 0x40CAE0DEC6D PUSH1 0xD3 SHL PUSH1 0x64 DUP3 ADD MSTORE PUSH1 0x84 ADD PUSH2 0x818 JUMP JUMPDEST PUSH0 PUSH2 0x193D DUP12 DUP14 PUSH2 0xE0A JUMP JUMPDEST SWAP1 POP DUP6 PUSH1 0xC0 ADD MLOAD TIMESTAMP LT ISZERO DUP1 ISZERO PUSH2 0x1953 JUMPI POP DUP5 TIMESTAMP GT ISZERO JUMPDEST ISZERO PUSH2 0x19E3 JUMPI DUP6 PUSH1 0xC0 ADD MLOAD DUP4 LT ISZERO DUP1 ISZERO PUSH2 0x196C JUMPI POP DUP5 DUP4 GT ISZERO JUMPDEST ISZERO PUSH2 0x198C JUMPI PUSH2 0x1985 DUP3 PUSH2 0x197F TIMESTAMP DUP7 PUSH2 0x26D7 JUMP JUMPDEST SWAP1 PUSH2 0x2B12 JUMP JUMPDEST SWAP8 POP PUSH2 0x19B6 JUMP JUMPDEST DUP6 PUSH1 0xC0 ADD MLOAD DUP4 LT ISZERO PUSH2 0x19B6 JUMPI PUSH2 0x19B3 DUP3 PUSH2 0x197F DUP9 PUSH1 0xC0 ADD MLOAD TIMESTAMP PUSH2 0x26D7 SWAP1 SWAP2 SWAP1 PUSH4 0xFFFFFFFF AND JUMP JUMPDEST SWAP8 POP JUMPDEST PUSH2 0x19D2 PUSH1 0x14 SLOAD PUSH1 0xA PUSH2 0x19C8 SWAP2 SWAP1 PUSH2 0x3933 JUMP JUMPDEST PUSH2 0x126B DUP10 DUP12 PUSH2 0x26E2 JUMP JUMPDEST SWAP10 POP PUSH2 0x1BAD SWAP9 POP POP POP POP POP POP POP POP POP JUMP JUMPDEST DUP5 TIMESTAMP GT ISZERO PUSH2 0x1BA0 JUMPI DUP6 PUSH1 0xC0 ADD MLOAD DUP4 LT ISZERO PUSH2 0x1A16 JUMPI PUSH2 0x19D2 PUSH1 0x14 SLOAD PUSH1 0xA PUSH2 0x1A09 SWAP2 SWAP1 PUSH2 0x3933 JUMP JUMPDEST PUSH1 0xE SLOAD PUSH2 0x126B SWAP1 DUP6 PUSH2 0x2B12 JUMP JUMPDEST DUP1 MLOAD ISZERO PUSH2 0x1AC2 JUMPI PUSH1 0x20 DUP2 ADD MLOAD MLOAD PUSH0 SWAP1 PUSH2 0x1A30 SWAP1 PUSH1 0x1 PUSH2 0x26D7 JUMP JUMPDEST SWAP1 POP PUSH0 DUP3 PUSH1 0x20 ADD MLOAD DUP3 DUP2 MLOAD DUP2 LT PUSH2 0x1A49 JUMPI PUSH2 0x1A49 PUSH2 0x3709 JUMP JUMPDEST PUSH1 0x20 MUL PUSH1 0x20 ADD ADD MLOAD PUSH1 0x40 ADD MLOAD SWAP1 POP PUSH0 PUSH2 0x1A90 DUP5 PUSH1 0x20 ADD MLOAD DUP5 DUP2 MLOAD DUP2 LT PUSH2 0x1A71 JUMPI PUSH2 0x1A71 PUSH2 0x3709 JUMP JUMPDEST PUSH1 0x20 MUL PUSH1 0x20 ADD ADD MLOAD PUSH1 0x20 ADD MLOAD PUSH2 0x197F DUP5 DUP12 PUSH2 0x26D7 SWAP1 SWAP2 SWAP1 PUSH4 0xFFFFFFFF AND JUMP JUMPDEST SWAP1 POP PUSH2 0x1AAE PUSH1 0x14 SLOAD PUSH1 0xA PUSH2 0x1AA4 SWAP2 SWAP1 PUSH2 0x3933 JUMP JUMPDEST PUSH2 0x126B DUP13 DUP5 PUSH2 0x26E2 JUMP JUMPDEST SWAP13 POP PUSH2 0x1BAD SWAP12 POP POP POP POP POP POP POP POP POP POP POP POP JUMP JUMPDEST DUP1 MLOAD ISZERO ISZERO PUSH0 SUB PUSH2 0x1BA0 JUMPI PUSH0 PUSH2 0x1AD8 DUP14 PUSH1 0x1 PUSH2 0x26D7 JUMP JUMPDEST SWAP1 POP PUSH0 JUMPDEST DUP14 DUP2 LT ISZERO PUSH2 0x1B8D JUMPI PUSH0 PUSH2 0x1AEF DUP15 DUP5 PUSH2 0xE0A JUMP JUMPDEST DUP1 MLOAD SWAP1 SWAP2 POP ISZERO PUSH2 0x1B6C JUMPI PUSH1 0x20 DUP2 ADD MLOAD MLOAD PUSH0 SWAP1 PUSH2 0x1B0C SWAP1 PUSH1 0x1 PUSH2 0x26D7 JUMP JUMPDEST SWAP1 POP PUSH0 PUSH2 0x1B47 DUP4 PUSH1 0x20 ADD MLOAD DUP4 DUP2 MLOAD DUP2 LT PUSH2 0x1B28 JUMPI PUSH2 0x1B28 PUSH2 0x3709 JUMP JUMPDEST PUSH1 0x20 MUL PUSH1 0x20 ADD ADD MLOAD PUSH1 0x20 ADD MLOAD DUP13 PUSH1 0xA0 ADD MLOAD PUSH2 0x2B12 SWAP1 SWAP2 SWAP1 PUSH4 0xFFFFFFFF AND JUMP JUMPDEST SWAP1 POP PUSH2 0x1B62 PUSH1 0x14 SLOAD PUSH1 0xA PUSH2 0x1B5B SWAP2 SWAP1 PUSH2 0x3933 JUMP JUMPDEST DUP3 SWAP1 PUSH2 0x2B1D JUMP JUMPDEST SWAP14 POP POP POP POP PUSH2 0x1B8D JUMP JUMPDEST PUSH2 0x1B77 PUSH1 0x1 DUP5 PUSH2 0x393E JUMP JUMPDEST SWAP3 POP POP DUP1 DUP1 PUSH2 0x1B85 SWAP1 PUSH2 0x37C8 JUMP JUMPDEST SWAP2 POP POP PUSH2 0x1ADC JUMP JUMPDEST POP DUP10 SWAP11 POP POP POP POP POP POP POP POP POP POP POP PUSH2 0x1BAD JUMP JUMPDEST POP PUSH0 SWAP9 POP POP POP POP POP POP POP POP POP JUMPDEST SWAP3 SWAP2 POP POP JUMP JUMPDEST PUSH0 DUP1 PUSH0 SWAP1 SLOAD SWAP1 PUSH2 0x100 EXP SWAP1 DIV PUSH1 0x1 PUSH1 0x1 PUSH1 0xA0 SHL SUB AND PUSH1 0x1 PUSH1 0x1 PUSH1 0xA0 SHL SUB AND PUSH4 0xB0F479A1 PUSH1 0x40 MLOAD DUP2 PUSH4 0xFFFFFFFF AND PUSH1 0xE0 SHL DUP2 MSTORE PUSH1 0x4 ADD PUSH1 0x20 PUSH1 0x40 MLOAD DUP1 DUP4 SUB DUP2 DUP7 GAS STATICCALL ISZERO DUP1 ISZERO PUSH2 0x1C03 JUMPI RETURNDATASIZE PUSH0 DUP1 RETURNDATACOPY RETURNDATASIZE PUSH0 REVERT JUMPDEST POP POP POP POP PUSH1 0x40 MLOAD RETURNDATASIZE PUSH1 0x1F NOT PUSH1 0x1F DUP3 ADD AND DUP3 ADD DUP1 PUSH1 0x40 MSTORE POP DUP2 ADD SWAP1 PUSH2 0x1C27 SWAP2 SWAP1 PUSH2 0x371D JUMP JUMPDEST SWAP1 POP CALLER PUSH1 0x1 PUSH1 0x1 PUSH1 0xA0 SHL SUB DUP3 AND EQ PUSH2 0x1C51 JUMPI PUSH1 0x40 MLOAD PUSH3 0x461BCD PUSH1 0xE5 SHL DUP2 MSTORE PUSH1 0x4 ADD PUSH2 0x818 SWAP1 PUSH2 0x3738 JUMP JUMPDEST PUSH1 0x7 SLOAD ISZERO PUSH2 0x1C71 JUMPI PUSH1 0x40 MLOAD PUSH3 0x461BCD PUSH1 0xE5 SHL DUP2 MSTORE PUSH1 0x4 ADD PUSH2 0x818 SWAP1 PUSH2 0x3760 JUMP JUMPDEST PUSH1 0x1 PUSH1 0x7 SSTORE PUSH0 PUSH2 0x1C80 PUSH1 0xD SLOAD SWAP1 JUMP JUMPDEST SWAP1 POP PUSH0 DUP2 GT PUSH2 0x1CA1 JUMPI PUSH1 0x40 MLOAD PUSH3 0x461BCD PUSH1 0xE5 SHL DUP2 MSTORE PUSH1 0x4 ADD PUSH2 0x818 SWAP1 PUSH2 0x3786 JUMP JUMPDEST PUSH0 DUP4 GT PUSH2 0x1CE1 JUMPI PUSH1 0x40 MLOAD PUSH3 0x461BCD PUSH1 0xE5 SHL DUP2 MSTORE PUSH1 0x20 PUSH1 0x4 DUP3 ADD MSTORE PUSH1 0xE PUSH1 0x24 DUP3 ADD MSTORE PUSH14 0x125B9D985B1A5908185B5BDD5B9D PUSH1 0x92 SHL PUSH1 0x44 DUP3 ADD MSTORE PUSH1 0x64 ADD PUSH2 0x818 JUMP JUMPDEST PUSH2 0x1CEC DUP5 DUP5 PUSH0 PUSH2 0x2880 JUMP JUMPDEST PUSH1 0xF SLOAD PUSH1 0x40 MLOAD PUSH4 0x70A08231 PUSH1 0xE0 SHL DUP2 MSTORE ADDRESS PUSH1 0x4 DUP3 ADD MSTORE PUSH0 SWAP2 PUSH1 0x1 PUSH1 0x1 PUSH1 0xA0 SHL SUB AND SWAP1 PUSH4 0x70A08231 SWAP1 PUSH1 0x24 ADD PUSH1 0x20 PUSH1 0x40 MLOAD DUP1 DUP4 SUB DUP2 DUP7 GAS STATICCALL ISZERO DUP1 ISZERO PUSH2 0x1D32 JUMPI RETURNDATASIZE PUSH0 DUP1 RETURNDATACOPY RETURNDATASIZE PUSH0 REVERT JUMPDEST POP POP POP POP PUSH1 0x40 MLOAD RETURNDATASIZE PUSH1 0x1F NOT PUSH1 0x1F DUP3 ADD AND DUP3 ADD DUP1 PUSH1 0x40 MSTORE POP DUP2 ADD SWAP1 PUSH2 0x1D56 SWAP2 SWAP1 PUSH2 0x37E0 JUMP JUMPDEST SWAP1 POP PUSH2 0x1D61 DUP5 PUSH2 0x2CE2 JUMP JUMPDEST PUSH1 0xF SLOAD PUSH1 0x40 MLOAD PUSH4 0x70A08231 PUSH1 0xE0 SHL DUP2 MSTORE ADDRESS PUSH1 0x4 DUP3 ADD MSTORE PUSH0 SWAP2 PUSH1 0x1 PUSH1 0x1 PUSH1 0xA0 SHL SUB AND SWAP1 PUSH4 0x70A08231 SWAP1 PUSH1 0x24 ADD PUSH1 0x20 PUSH1 0x40 MLOAD DUP1 DUP4 SUB DUP2 DUP7 GAS STATICCALL ISZERO DUP1 ISZERO PUSH2 0x1DA7 JUMPI RETURNDATASIZE PUSH0 DUP1 RETURNDATACOPY RETURNDATASIZE PUSH0 REVERT JUMPDEST POP POP POP POP PUSH1 0x40 MLOAD RETURNDATASIZE PUSH1 0x1F NOT PUSH1 0x1F DUP3 ADD AND DUP3 ADD DUP1 PUSH1 0x40 MSTORE POP DUP2 ADD SWAP1 PUSH2 0x1DCB SWAP2 SWAP1 PUSH2 0x37E0 JUMP JUMPDEST SWAP1 POP PUSH0 PUSH2 0x1DD8 DUP3 DUP5 PUSH2 0x26D7 JUMP JUMPDEST SWAP1 POP DUP6 DUP2 LT ISZERO PUSH2 0x1E2A JUMPI PUSH1 0x40 MLOAD PUSH3 0x461BCD PUSH1 0xE5 SHL DUP2 MSTORE PUSH1 0x20 PUSH1 0x4 DUP3 ADD MSTORE PUSH1 0x1F PUSH1 0x24 DUP3 ADD MSTORE PUSH32 0x436F756C646E27742077697468647261772066726F6D2041706520506F6F6C00 PUSH1 0x44 DUP3 ADD MSTORE PUSH1 0x64 ADD PUSH2 0x818 JUMP JUMPDEST PUSH2 0x1E33 DUP7 PUSH2 0x2CEB JUMP JUMPDEST POP POP PUSH0 PUSH1 0x7 SSTORE POP POP POP POP POP JUMP JUMPDEST PUSH0 DUP1 PUSH0 SWAP1 SLOAD SWAP1 PUSH2 0x100 EXP SWAP1 DIV PUSH1 0x1 PUSH1 0x1 PUSH1 0xA0 SHL SUB AND PUSH1 0x1 PUSH1 0x1 PUSH1 0xA0 SHL SUB AND PUSH4 0xCF20D872 PUSH1 0x40 MLOAD DUP2 PUSH4 0xFFFFFFFF AND PUSH1 0xE0 SHL DUP2 MSTORE PUSH1 0x4 ADD PUSH1 0x20 PUSH1 0x40 MLOAD DUP1 DUP4 SUB DUP2 DUP7 GAS STATICCALL ISZERO DUP1 ISZERO PUSH2 0x1E90 JUMPI RETURNDATASIZE PUSH0 DUP1 RETURNDATACOPY RETURNDATASIZE PUSH0 REVERT JUMPDEST POP POP POP POP PUSH1 0x40 MLOAD RETURNDATASIZE PUSH1 0x1F NOT PUSH1 0x1F DUP3 ADD AND DUP3 ADD DUP1 PUSH1 0x40 MSTORE POP DUP2 ADD SWAP1 PUSH2 0x1EB4 SWAP2 SWAP1 PUSH2 0x371D JUMP JUMPDEST SWAP1 POP CALLER PUSH1 0x1 PUSH1 0x1 PUSH1 0xA0 SHL SUB DUP3 AND EQ PUSH2 0x1EDE JUMPI PUSH1 0x40 MLOAD PUSH3 0x461BCD PUSH1 0xE5 SHL DUP2 MSTORE PUSH1 0x4 ADD PUSH2 0x818 SWAP1 PUSH2 0x3738 JUMP JUMPDEST PUSH0 PUSH2 0x1EE8 PUSH1 0xD SLOAD SWAP1 JUMP JUMPDEST SWAP1 POP DUP1 ISZERO PUSH2 0x2007 JUMPI PUSH0 PUSH2 0x1EFC DUP3 PUSH1 0x1 PUSH2 0x26D7 JUMP JUMPDEST SWAP1 POP PUSH0 PUSH1 0xD DUP3 DUP2 SLOAD DUP2 LT PUSH2 0x1F12 JUMPI PUSH2 0x1F12 PUSH2 0x3709 JUMP JUMPDEST PUSH0 SWAP2 DUP3 MSTORE PUSH1 0x20 SWAP2 DUP3 SWAP1 KECCAK256 PUSH1 0x40 DUP1 MLOAD PUSH2 0x160 DUP2 ADD DUP3 MSTORE PUSH1 0xE SWAP1 SWAP4 MUL SWAP1 SWAP2 ADD DUP1 SLOAD PUSH1 0x1 PUSH1 0x1 PUSH1 0xA0 SHL SUB SWAP1 DUP2 AND PUSH2 0x100 DUP6 ADD SWAP1 DUP2 MSTORE PUSH1 0x1 DUP4 ADD SLOAD PUSH2 0x120 DUP7 ADD MSTORE PUSH1 0x2 DUP4 ADD SLOAD PUSH1 0xFF SWAP1 DUP2 AND ISZERO ISZERO PUSH2 0x140 DUP8 ADD MSTORE SWAP1 DUP6 MSTORE DUP4 MLOAD PUSH1 0x60 DUP2 DUP2 ADD DUP7 MSTORE PUSH1 0x3 DUP6 ADD SLOAD DUP5 AND DUP3 MSTORE PUSH1 0x4 DUP6 ADD SLOAD DUP3 DUP10 ADD MSTORE PUSH1 0x5 DUP6 ADD SLOAD DUP4 AND ISZERO ISZERO DUP3 DUP8 ADD MSTORE DUP7 DUP9 ADD SWAP2 SWAP1 SWAP2 MSTORE DUP5 MLOAD DUP1 DUP3 ADD DUP7 MSTORE PUSH1 0x6 DUP6 ADD SLOAD SWAP1 SWAP4 AND DUP4 MSTORE PUSH1 0x7 DUP5 ADD SLOAD SWAP7 DUP4 ADD SWAP7 SWAP1 SWAP7 MSTORE PUSH1 0x8 DUP4 ADD SLOAD DUP2 AND ISZERO ISZERO DUP3 DUP6 ADD MSTORE SWAP3 DUP5 ADD MSTORE PUSH1 0x9 DUP2 ADD SLOAD SWAP1 SWAP2 AND ISZERO ISZERO SWAP3 DUP3 ADD DUP4 SWAP1 MSTORE PUSH1 0xA DUP2 ADD SLOAD PUSH1 0x80 DUP4 ADD MSTORE PUSH1 0xB DUP2 ADD SLOAD PUSH1 0xA0 DUP4 ADD MSTORE PUSH1 0xC DUP2 ADD SLOAD PUSH1 0xC0 DUP4 ADD MSTORE PUSH1 0xD ADD SLOAD PUSH1 0xE0 DUP3 ADD MSTORE SWAP2 POP DUP1 PUSH2 0x2003 JUMPI PUSH0 DUP1 REVERT JUMPDEST POP POP POP JUMPDEST POP POP PUSH1 0x40 DUP1 MLOAD PUSH1 0x60 DUP1 DUP3 ADD DUP4 MSTORE PUSH0 DUP1 DUP4 MSTORE PUSH1 0x20 DUP1 DUP5 ADD DUP3 SWAP1 MSTORE DUP4 DUP6 ADD DUP3 SWAP1 MSTORE DUP5 MLOAD PUSH2 0x100 DUP2 ADD DUP7 MSTORE DUP5 DUP2 MSTORE DUP1 DUP3 ADD DUP6 DUP2 MSTORE DUP2 DUP8 ADD SWAP6 DUP7 MSTORE SWAP4 DUP2 ADD DUP4 DUP2 MSTORE PUSH1 0x80 DUP3 ADD DUP5 DUP2 MSTORE PUSH1 0xE DUP1 SLOAD PUSH1 0xA0 DUP6 ADD SWAP1 DUP2 MSTORE TIMESTAMP PUSH1 0xC0 DUP7 ADD SWAP1 DUP2 MSTORE PUSH1 0xE0 DUP7 ADD DUP9 DUP2 MSTORE PUSH1 0xD DUP1 SLOAD PUSH1 0x1 DUP2 ADD DUP3 SSTORE SWAP10 MSTORE SWAP6 MLOAD DUP1 MLOAD PUSH32 0xD7B6990105719101DABEB77144F2A3385C8033ACD3AF97E9423A695E81AD1EB5 SWAP10 SWAP1 SWAP5 MUL SWAP9 DUP10 ADD DUP1 SLOAD PUSH1 0x1 PUSH1 0x1 PUSH1 0xA0 SHL SUB NOT SWAP1 DUP2 AND PUSH1 0x1 PUSH1 0x1 PUSH1 0xA0 SHL SUB SWAP7 DUP8 AND OR SWAP1 SWAP2 SSTORE DUP2 DUP10 ADD MLOAD PUSH32 0xD7B6990105719101DABEB77144F2A3385C8033ACD3AF97E9423A695E81AD1EB6 DUP12 ADD SSTORE SWAP1 DUP13 ADD MLOAD PUSH32 0xD7B6990105719101DABEB77144F2A3385C8033ACD3AF97E9423A695E81AD1EB7 DUP11 ADD DUP1 SLOAD PUSH1 0xFF NOT SWAP1 DUP2 AND SWAP3 ISZERO ISZERO SWAP3 SWAP1 SWAP3 OR SWAP1 SSTORE SWAP10 MLOAD DUP1 MLOAD PUSH32 0xD7B6990105719101DABEB77144F2A3385C8033ACD3AF97E9423A695E81AD1EB8 DUP12 ADD DUP1 SLOAD DUP5 AND SWAP2 DUP8 AND SWAP2 SWAP1 SWAP2 OR SWAP1 SSTORE DUP1 DUP10 ADD MLOAD PUSH32 0xD7B6990105719101DABEB77144F2A3385C8033ACD3AF97E9423A695E81AD1EB9 DUP12 ADD SSTORE DUP13 ADD MLOAD PUSH32 0xD7B6990105719101DABEB77144F2A3385C8033ACD3AF97E9423A695E81AD1EBA DUP11 ADD DUP1 SLOAD DUP13 AND SWAP2 ISZERO ISZERO SWAP2 SWAP1 SWAP2 OR SWAP1 SSTORE SWAP10 MLOAD DUP1 MLOAD PUSH32 0xD7B6990105719101DABEB77144F2A3385C8033ACD3AF97E9423A695E81AD1EBB DUP11 ADD DUP1 SLOAD SWAP1 SWAP13 AND SWAP5 AND SWAP4 SWAP1 SWAP4 OR SWAP1 SWAP10 SSTORE SWAP5 DUP2 ADD MLOAD PUSH32 0xD7B6990105719101DABEB77144F2A3385C8033ACD3AF97E9423A695E81AD1EBC DUP8 ADD SSTORE SWAP1 SWAP8 ADD MLOAD PUSH32 0xD7B6990105719101DABEB77144F2A3385C8033ACD3AF97E9423A695E81AD1EBD DUP6 ADD DUP1 SLOAD DUP8 AND SWAP2 ISZERO ISZERO SWAP2 SWAP1 SWAP2 OR SWAP1 SSTORE MLOAD PUSH32 0xD7B6990105719101DABEB77144F2A3385C8033ACD3AF97E9423A695E81AD1EBE DUP5 ADD DUP1 SLOAD SWAP1 SWAP6 AND SWAP1 ISZERO ISZERO OR SWAP1 SWAP4 SSTORE SWAP4 MLOAD PUSH32 0xD7B6990105719101DABEB77144F2A3385C8033ACD3AF97E9423A695E81AD1EBF DUP3 ADD SSTORE SWAP3 MLOAD PUSH32 0xD7B6990105719101DABEB77144F2A3385C8033ACD3AF97E9423A695E81AD1EC0 DUP5 ADD SSTORE SWAP1 MLOAD PUSH32 0xD7B6990105719101DABEB77144F2A3385C8033ACD3AF97E9423A695E81AD1EC1 DUP4 ADD SSTORE MLOAD PUSH32 0xD7B6990105719101DABEB77144F2A3385C8033ACD3AF97E9423A695E81AD1EC2 SWAP1 SWAP2 ADD SSTORE JUMP JUMPDEST PUSH0 DUP1 PUSH0 SWAP1 SLOAD SWAP1 PUSH2 0x100 EXP SWAP1 DIV PUSH1 0x1 PUSH1 0x1 PUSH1 0xA0 SHL SUB AND PUSH1 0x1 PUSH1 0x1 PUSH1 0xA0 SHL SUB AND PUSH4 0x893D20E8 PUSH1 0x40 MLOAD DUP2 PUSH4 0xFFFFFFFF AND PUSH1 0xE0 SHL DUP2 MSTORE PUSH1 0x4 ADD PUSH1 0x20 PUSH1 0x40 MLOAD DUP1 DUP4 SUB DUP2 DUP7 GAS STATICCALL ISZERO DUP1 ISZERO PUSH2 0x2354 JUMPI RETURNDATASIZE PUSH0 DUP1 RETURNDATACOPY RETURNDATASIZE PUSH0 REVERT JUMPDEST POP POP POP POP PUSH1 0x40 MLOAD RETURNDATASIZE PUSH1 0x1F NOT PUSH1 0x1F DUP3 ADD AND DUP3 ADD DUP1 PUSH1 0x40 MSTORE POP DUP2 ADD SWAP1 PUSH2 0x2378 SWAP2 SWAP1 PUSH2 0x371D JUMP JUMPDEST SWAP1 POP CALLER PUSH1 0x1 PUSH1 0x1 PUSH1 0xA0 SHL SUB DUP3 AND EQ PUSH2 0x23A2 JUMPI PUSH1 0x40 MLOAD PUSH3 0x461BCD PUSH1 0xE5 SHL DUP2 MSTORE PUSH1 0x4 ADD PUSH2 0x818 SWAP1 PUSH2 0x3738 JUMP JUMPDEST PUSH2 0x23AB DUP3 PUSH2 0x2CC1 JUMP JUMPDEST POP POP JUMP JUMPDEST PUSH1 0x10 SLOAD PUSH1 0x12 SLOAD PUSH1 0x13 SLOAD PUSH1 0x40 MLOAD PUSH4 0x2C018F91 PUSH1 0xE0 SHL DUP2 MSTORE PUSH1 0x4 DUP2 ADD SWAP3 SWAP1 SWAP3 MSTORE ADDRESS PUSH1 0x24 DUP4 ADD MSTORE PUSH1 0x44 DUP3 ADD MSTORE PUSH0 SWAP2 DUP3 SWAP2 PUSH1 0x1 PUSH1 0x1 PUSH1 0xA0 SHL SUB SWAP1 SWAP2 AND SWAP1 PUSH4 0x2C018F91 SWAP1 PUSH1 0x64 ADD PUSH1 0x20 PUSH1 0x40 MLOAD DUP1 DUP4 SUB DUP2 DUP7 GAS STATICCALL ISZERO DUP1 ISZERO PUSH2 0x240C JUMPI RETURNDATASIZE PUSH0 DUP1 RETURNDATACOPY RETURNDATASIZE PUSH0 REVERT JUMPDEST POP POP POP POP PUSH1 0x40 MLOAD RETURNDATASIZE PUSH1 0x1F NOT PUSH1 0x1F DUP3 ADD AND DUP3 ADD DUP1 PUSH1 0x40 MSTORE POP DUP2 ADD SWAP1 PUSH2 0x1BAD SWAP2 SWAP1 PUSH2 0x37E0 JUMP JUMPDEST PUSH0 DUP1 SLOAD PUSH1 0x40 DUP1 MLOAD PUSH4 0xB0F479A1 PUSH1 0xE0 SHL DUP2 MSTORE SWAP1 MLOAD DUP4 SWAP3 PUSH1 0x1 PUSH1 0x1 PUSH1 0xA0 SHL SUB AND SWAP2 PUSH4 0xB0F479A1 SWAP2 PUSH1 0x4 DUP1 DUP4 ADD SWAP3 PUSH1 0x20 SWAP3 SWAP2 SWAP1 DUP3 SWAP1 SUB ADD DUP2 DUP7 GAS STATICCALL ISZERO DUP1 ISZERO PUSH2 0x2477 JUMPI RETURNDATASIZE PUSH0 DUP1 RETURNDATACOPY RETURNDATASIZE PUSH0 REVERT JUMPDEST POP POP POP POP PUSH1 0x40 MLOAD RETURNDATASIZE PUSH1 0x1F NOT PUSH1 0x1F DUP3 ADD AND DUP3 ADD DUP1 PUSH1 0x40 MSTORE POP DUP2 ADD SWAP1 PUSH2 0x249B SWAP2 SWAP1 PUSH2 0x371D JUMP JUMPDEST PUSH1 0xF SLOAD PUSH1 0x40 MLOAD PUSH4 0x70A08231 PUSH1 0xE0 SHL DUP2 MSTORE PUSH1 0x1 PUSH1 0x1 PUSH1 0xA0 SHL SUB DUP1 DUP5 AND PUSH1 0x4 DUP4 ADD MSTORE SWAP3 SWAP4 POP PUSH0 SWAP3 SWAP1 SWAP2 AND SWAP1 PUSH4 0x70A08231 SWAP1 PUSH1 0x24 ADD PUSH1 0x20 PUSH1 0x40 MLOAD DUP1 DUP4 SUB DUP2 DUP7 GAS STATICCALL ISZERO DUP1 ISZERO PUSH2 0x24E8 JUMPI RETURNDATASIZE PUSH0 DUP1 RETURNDATACOPY RETURNDATASIZE PUSH0 REVERT JUMPDEST POP POP POP POP PUSH1 0x40 MLOAD RETURNDATASIZE PUSH1 0x1F NOT PUSH1 0x1F DUP3 ADD AND DUP3 ADD DUP1 PUSH1 0x40 MSTORE POP DUP2 ADD SWAP1 PUSH2 0x250C SWAP2 SWAP1 PUSH2 0x37E0 JUMP JUMPDEST SWAP1 POP PUSH0 DUP1 PUSH0 SWAP1 SLOAD SWAP1 PUSH2 0x100 EXP SWAP1 DIV PUSH1 0x1 PUSH1 0x1 PUSH1 0xA0 SHL SUB AND PUSH1 0x1 PUSH1 0x1 PUSH1 0xA0 SHL SUB AND PUSH4 0x9960D742 PUSH1 0x40 MLOAD DUP2 PUSH4 0xFFFFFFFF AND PUSH1 0xE0 SHL DUP2 MSTORE PUSH1 0x4 ADD PUSH1 0x20 PUSH1 0x40 MLOAD DUP1 DUP4 SUB DUP2 DUP7 GAS STATICCALL ISZERO DUP1 ISZERO PUSH2 0x255E JUMPI RETURNDATASIZE PUSH0 DUP1 RETURNDATACOPY RETURNDATASIZE PUSH0 REVERT JUMPDEST POP POP POP POP PUSH1 0x40 MLOAD RETURNDATASIZE PUSH1 0x1F NOT PUSH1 0x1F DUP3 ADD AND DUP3 ADD DUP1 PUSH1 0x40 MSTORE POP DUP2 ADD SWAP1 PUSH2 0x2582 SWAP2 SWAP1 PUSH2 0x371D JUMP JUMPDEST PUSH1 0xF SLOAD PUSH1 0x40 MLOAD PUSH4 0x431A08B PUSH1 0xE4 SHL DUP2 MSTORE PUSH1 0x1 PUSH1 0x1 PUSH1 0xA0 SHL SUB SWAP2 DUP3 AND PUSH1 0x4 DUP3 ADD MSTORE PUSH1 0x24 DUP2 ADD DUP9 SWAP1 MSTORE DUP6 DUP3 AND PUSH1 0x44 DUP3 ADD MSTORE SWAP2 SWAP3 POP DUP3 AND SWAP1 PUSH4 0x431A08B0 SWAP1 PUSH1 0x64 ADD PUSH0 PUSH1 0x40 MLOAD DUP1 DUP4 SUB DUP2 PUSH0 DUP8 DUP1 EXTCODESIZE ISZERO DUP1 ISZERO PUSH2 0x25D7 JUMPI PUSH0 DUP1 REVERT JUMPDEST POP GAS CALL ISZERO DUP1 ISZERO PUSH2 0x25E9 JUMPI RETURNDATASIZE PUSH0 DUP1 RETURNDATACOPY RETURNDATASIZE PUSH0 REVERT JUMPDEST POP POP PUSH1 0xF SLOAD PUSH1 0x40 MLOAD PUSH4 0x70A08231 PUSH1 0xE0 SHL DUP2 MSTORE PUSH1 0x1 PUSH1 0x1 PUSH1 0xA0 SHL SUB DUP8 DUP2 AND PUSH1 0x4 DUP4 ADD MSTORE PUSH0 SWAP5 POP SWAP1 SWAP2 AND SWAP2 POP PUSH4 0x70A08231 SWAP1 PUSH1 0x24 ADD PUSH1 0x20 PUSH1 0x40 MLOAD DUP1 DUP4 SUB DUP2 DUP7 GAS STATICCALL ISZERO DUP1 ISZERO PUSH2 0x2637 JUMPI RETURNDATASIZE PUSH0 DUP1 RETURNDATACOPY RETURNDATASIZE PUSH0 REVERT JUMPDEST POP POP POP POP PUSH1 0x40 MLOAD RETURNDATASIZE PUSH1 0x1F NOT PUSH1 0x1F DUP3 ADD AND DUP3 ADD DUP1 PUSH1 0x40 MSTORE POP DUP2 ADD SWAP1 PUSH2 0x265B SWAP2 SWAP1 PUSH2 0x37E0 JUMP JUMPDEST SWAP1 POP PUSH0 PUSH2 0x2668 DUP3 DUP6 PUSH2 0x26D7 JUMP JUMPDEST SWAP8 SWAP7 POP POP POP POP POP POP POP JUMP JUMPDEST PUSH1 0x10 PUSH0 SWAP1 SLOAD SWAP1 PUSH2 0x100 EXP SWAP1 DIV PUSH1 0x1 PUSH1 0x1 PUSH1 0xA0 SHL SUB AND PUSH1 0x1 PUSH1 0x1 PUSH1 0xA0 SHL SUB AND PUSH4 0x8279E760 PUSH1 0x40 MLOAD DUP2 PUSH4 0xFFFFFFFF AND PUSH1 0xE0 SHL DUP2 MSTORE PUSH1 0x4 ADD PUSH0 PUSH1 0x40 MLOAD DUP1 DUP4 SUB DUP2 PUSH0 DUP8 DUP1 EXTCODESIZE ISZERO DUP1 ISZERO PUSH2 0x26BF JUMPI PUSH0 DUP1 REVERT JUMPDEST POP GAS CALL ISZERO DUP1 ISZERO PUSH2 0x26D1 JUMPI RETURNDATASIZE PUSH0 DUP1 RETURNDATACOPY RETURNDATASIZE PUSH0 REVERT JUMPDEST POP POP POP POP JUMP JUMPDEST PUSH0 PUSH2 0x14A6 DUP3 DUP5 PUSH2 0x393E JUMP JUMPDEST PUSH0 PUSH2 0x14A6 DUP3 DUP5 PUSH2 0x3951 JUMP JUMPDEST PUSH0 DUP1 PUSH1 0x1 JUMPDEST PUSH1 0x1 SLOAD DUP2 LT ISZERO PUSH2 0x275A JUMPI PUSH0 DUP2 DUP2 MSTORE PUSH1 0x2 PUSH1 0x20 DUP2 SWAP1 MSTORE PUSH1 0x40 SWAP1 SWAP2 KECCAK256 SWAP1 DUP2 ADD SLOAD SWAP1 SLOAD PUSH1 0x1 PUSH1 0x1 PUSH1 0xA0 SHL SUB AND DUP6 DUP3 GT PUSH2 0x2745 JUMPI PUSH0 PUSH2 0x272D DUP9 DUP4 PUSH2 0x1851 JUMP JUMPDEST SWAP1 POP DUP1 ISZERO PUSH2 0x2743 JUMPI PUSH2 0x2740 PUSH1 0x1 DUP7 PUSH2 0x3951 JUMP JUMPDEST SWAP5 POP JUMPDEST POP JUMPDEST POP POP DUP1 DUP1 PUSH2 0x2752 SWAP1 PUSH2 0x37C8 JUMP JUMPDEST SWAP2 POP POP PUSH2 0x26F2 JUMP JUMPDEST POP SWAP4 SWAP3 POP POP POP JUMP JUMPDEST PUSH1 0xF SLOAD PUSH1 0x40 MLOAD PUSH4 0x70A08231 PUSH1 0xE0 SHL DUP2 MSTORE ADDRESS PUSH1 0x4 DUP3 ADD MSTORE PUSH0 SWAP2 DUP3 SWAP2 PUSH1 0x1 PUSH1 0x1 PUSH1 0xA0 SHL SUB SWAP1 SWAP2 AND SWAP1 PUSH4 0x70A08231 SWAP1 PUSH1 0x24 ADD PUSH1 0x20 PUSH1 0x40 MLOAD DUP1 DUP4 SUB DUP2 DUP7 GAS STATICCALL ISZERO DUP1 ISZERO PUSH2 0x27AC JUMPI RETURNDATASIZE PUSH0 DUP1 RETURNDATACOPY RETURNDATASIZE PUSH0 REVERT JUMPDEST POP POP POP POP PUSH1 0x40 MLOAD RETURNDATASIZE PUSH1 0x1F NOT PUSH1 0x1F DUP3 ADD AND DUP3 ADD DUP1 PUSH1 0x40 MSTORE POP DUP2 ADD SWAP1 PUSH2 0x27D0 SWAP2 SWAP1 PUSH2 0x37E0 JUMP JUMPDEST PUSH1 0xF SLOAD SWAP1 SWAP2 POP PUSH2 0x27EB SWAP1 PUSH1 0x1 PUSH1 0x1 PUSH1 0xA0 SHL SUB AND CALLER ADDRESS DUP7 PUSH2 0x2D02 JUMP JUMPDEST PUSH1 0xF SLOAD PUSH1 0x40 MLOAD PUSH4 0x70A08231 PUSH1 0xE0 SHL DUP2 MSTORE ADDRESS PUSH1 0x4 DUP3 ADD MSTORE PUSH0 SWAP2 PUSH1 0x1 PUSH1 0x1 PUSH1 0xA0 SHL SUB AND SWAP1 PUSH4 0x70A08231 SWAP1 PUSH1 0x24 ADD PUSH1 0x20 PUSH1 0x40 MLOAD DUP1 DUP4 SUB DUP2 DUP7 GAS STATICCALL ISZERO DUP1 ISZERO PUSH2 0x2831 JUMPI RETURNDATASIZE PUSH0 DUP1 RETURNDATACOPY RETURNDATASIZE PUSH0 REVERT JUMPDEST POP POP POP POP PUSH1 0x40 MLOAD RETURNDATASIZE PUSH1 0x1F NOT PUSH1 0x1F DUP3 ADD AND DUP3 ADD DUP1 PUSH1 0x40 MSTORE POP DUP2 ADD SWAP1 PUSH2 0x2855 SWAP2 SWAP1 PUSH2 0x37E0 JUMP JUMPDEST SWAP1 POP PUSH0 PUSH2 0x2862 DUP3 DUP5 PUSH2 0x26D7 JUMP JUMPDEST SWAP6 SWAP5 POP POP POP POP POP JUMP JUMPDEST PUSH2 0x2874 DUP2 PUSH2 0x2D6D JUMP JUMPDEST PUSH2 0x287D DUP2 PUSH2 0x2DA7 JUMP JUMPDEST POP JUMP JUMPDEST DUP1 ISZERO PUSH2 0x292F JUMPI PUSH0 PUSH2 0x2890 DUP5 PUSH2 0x551 JUMP JUMPDEST SWAP1 POP PUSH0 DUP2 PUSH0 SUB PUSH2 0x290B JUMPI PUSH2 0x28A3 DUP6 PUSH2 0x2DFD JUMP JUMPDEST PUSH1 0x1 SWAP1 POP PUSH1 0x11 SLOAD DUP5 LT ISZERO PUSH2 0x290B JUMPI PUSH1 0x40 MLOAD PUSH3 0x461BCD PUSH1 0xE5 SHL DUP2 MSTORE PUSH1 0x20 PUSH1 0x4 DUP3 ADD MSTORE PUSH1 0x29 PUSH1 0x24 DUP3 ADD MSTORE PUSH32 0x546865206D696E696D756D20616D6F756E7420746F2072656769737465722069 PUSH1 0x44 DUP3 ADD MSTORE PUSH9 0x1CC81B9BDD081B595D PUSH1 0xBA SHL PUSH1 0x64 DUP3 ADD MSTORE PUSH1 0x84 ADD PUSH2 0x818 JUMP JUMPDEST DUP1 ISZERO PUSH2 0x291D JUMPI PUSH2 0x291A DUP6 PUSH2 0x551 JUMP JUMPDEST SWAP2 POP JUMPDEST PUSH2 0x2928 DUP3 DUP6 DUP6 PUSH2 0x2E82 JUMP JUMPDEST POP POP POP POP POP JUMP JUMPDEST DUP1 ISZERO ISZERO PUSH0 SUB PUSH2 0x2994 JUMPI PUSH0 PUSH2 0x2942 DUP5 PUSH2 0x551 JUMP JUMPDEST SWAP1 POP DUP1 PUSH0 SUB PUSH2 0x2989 JUMPI PUSH1 0x40 MLOAD PUSH3 0x461BCD PUSH1 0xE5 SHL DUP2 MSTORE PUSH1 0x20 PUSH1 0x4 DUP3 ADD MSTORE PUSH1 0x13 PUSH1 0x24 DUP3 ADD MSTORE PUSH19 0x155CD95C881B9BDD081C9959DA5CDD195C9959 PUSH1 0x6A SHL PUSH1 0x44 DUP3 ADD MSTORE PUSH1 0x64 ADD PUSH2 0x818 JUMP JUMPDEST PUSH2 0x26D1 DUP2 DUP5 DUP5 PUSH2 0x2E82 JUMP JUMPDEST POP POP POP JUMP JUMPDEST PUSH0 DUP1 SLOAD PUSH1 0x40 DUP1 MLOAD PUSH4 0x4CB06BA1 PUSH1 0xE1 SHL DUP2 MSTORE SWAP1 MLOAD DUP4 SWAP3 PUSH1 0x1 PUSH1 0x1 PUSH1 0xA0 SHL SUB AND SWAP2 PUSH4 0x9960D742 SWAP2 PUSH1 0x4 DUP1 DUP4 ADD SWAP3 PUSH1 0x20 SWAP3 SWAP2 SWAP1 DUP3 SWAP1 SUB ADD DUP2 DUP7 GAS STATICCALL ISZERO DUP1 ISZERO PUSH2 0x29E0 JUMPI RETURNDATASIZE PUSH0 DUP1 RETURNDATACOPY RETURNDATASIZE PUSH0 REVERT JUMPDEST POP POP POP POP PUSH1 0x40 MLOAD RETURNDATASIZE PUSH1 0x1F NOT PUSH1 0x1F DUP3 ADD AND DUP3 ADD DUP1 PUSH1 0x40 MSTORE POP DUP2 ADD SWAP1 PUSH2 0x2A04 SWAP2 SWAP1 PUSH2 0x371D JUMP JUMPDEST PUSH1 0xF SLOAD PUSH1 0x40 MLOAD PUSH4 0x70A08231 PUSH1 0xE0 SHL DUP2 MSTORE PUSH1 0x1 PUSH1 0x1 PUSH1 0xA0 SHL SUB DUP1 DUP5 AND PUSH1 0x4 DUP4 ADD MSTORE SWAP3 SWAP4 POP PUSH0 SWAP3 SWAP1 SWAP2 AND SWAP1 PUSH4 0x70A08231 SWAP1 PUSH1 0x24 ADD PUSH1 0x20 PUSH1 0x40 MLOAD DUP1 DUP4 SUB DUP2 DUP7 GAS STATICCALL ISZERO DUP1 ISZERO PUSH2 0x2A51 JUMPI RETURNDATASIZE PUSH0 DUP1 RETURNDATACOPY RETURNDATASIZE PUSH0 REVERT JUMPDEST POP POP POP POP PUSH1 0x40 MLOAD RETURNDATASIZE PUSH1 0x1F NOT PUSH1 0x1F DUP3 ADD AND DUP3 ADD DUP1 PUSH1 0x40 MSTORE POP DUP2 ADD SWAP1 PUSH2 0x2A75 SWAP2 SWAP1 PUSH2 0x37E0 JUMP JUMPDEST PUSH1 0xF SLOAD SWAP1 SWAP2 POP PUSH2 0x2A8F SWAP1 PUSH1 0x1 PUSH1 0x1 PUSH1 0xA0 SHL SUB AND DUP4 DUP7 PUSH2 0x301D JUMP JUMPDEST PUSH1 0xF SLOAD PUSH1 0x40 MLOAD PUSH4 0x70A08231 PUSH1 0xE0 SHL DUP2 MSTORE PUSH1 0x1 PUSH1 0x1 PUSH1 0xA0 SHL SUB DUP5 DUP2 AND PUSH1 0x4 DUP4 ADD MSTORE PUSH0 SWAP3 AND SWAP1 PUSH4 0x70A08231 SWAP1 PUSH1 0x24 ADD PUSH1 0x20 PUSH1 0x40 MLOAD DUP1 DUP4 SUB DUP2 DUP7 GAS STATICCALL ISZERO DUP1 ISZERO PUSH2 0x2AD7 JUMPI RETURNDATASIZE PUSH0 DUP1 RETURNDATACOPY RETURNDATASIZE PUSH0 REVERT JUMPDEST POP POP POP POP PUSH1 0x40 MLOAD RETURNDATASIZE PUSH1 0x1F NOT PUSH1 0x1F DUP3 ADD AND DUP3 ADD DUP1 PUSH1 0x40 MSTORE POP DUP2 ADD SWAP1 PUSH2 0x2AFB SWAP2 SWAP1 PUSH2 0x37E0 JUMP JUMPDEST SWAP1 POP PUSH0 PUSH2 0x2B08 DUP3 DUP5 PUSH2 0x26D7 JUMP JUMPDEST SWAP7 SWAP6 POP POP POP POP POP POP JUMP JUMPDEST PUSH0 PUSH2 0x14A6 DUP3 DUP5 PUSH2 0x3964 JUMP JUMPDEST PUSH0 PUSH2 0x14A6 DUP3 DUP5 PUSH2 0x397B JUMP JUMPDEST DUP2 MLOAD PUSH0 JUMPDEST DUP2 DUP2 LT ISZERO PUSH2 0x2928 JUMPI DUP3 DUP2 DUP2 MLOAD DUP2 LT PUSH2 0x2B46 JUMPI PUSH2 0x2B46 PUSH2 0x3709 JUMP JUMPDEST PUSH1 0x20 MUL PUSH1 0x20 ADD ADD MLOAD PUSH1 0x6 PUSH0 DUP7 DUP5 DUP2 MLOAD DUP2 LT PUSH2 0x2B63 JUMPI PUSH2 0x2B63 PUSH2 0x3709 JUMP JUMPDEST PUSH1 0x20 MUL PUSH1 0x20 ADD ADD MLOAD PUSH1 0x1 PUSH1 0x1 PUSH1 0xA0 SHL SUB AND PUSH1 0x1 PUSH1 0x1 PUSH1 0xA0 SHL SUB AND DUP2 MSTORE PUSH1 0x20 ADD SWAP1 DUP2 MSTORE PUSH1 0x20 ADD PUSH0 KECCAK256 PUSH0 ADD PUSH0 DUP3 DUP3 SLOAD PUSH2 0x2B9A SWAP2 SWAP1 PUSH2 0x3951 JUMP JUMPDEST SWAP3 POP POP DUP2 SWAP1 SSTORE POP PUSH1 0x6 PUSH0 DUP6 DUP4 DUP2 MLOAD DUP2 LT PUSH2 0x2BB6 JUMPI PUSH2 0x2BB6 PUSH2 0x3709 JUMP JUMPDEST PUSH1 0x20 MUL PUSH1 0x20 ADD ADD MLOAD PUSH1 0x1 PUSH1 0x1 PUSH1 0xA0 SHL SUB AND PUSH1 0x1 PUSH1 0x1 PUSH1 0xA0 SHL SUB AND DUP2 MSTORE PUSH1 0x20 ADD SWAP1 DUP2 MSTORE PUSH1 0x20 ADD PUSH0 KECCAK256 PUSH1 0x1 ADD PUSH1 0x40 MLOAD DUP1 PUSH1 0x60 ADD PUSH1 0x40 MSTORE DUP1 DUP8 DUP2 MSTORE PUSH1 0x20 ADD PUSH2 0x2C05 PUSH1 0x1 DUP6 PUSH2 0x26E2 SWAP1 SWAP2 SWAP1 PUSH4 0xFFFFFFFF AND JUMP JUMPDEST DUP2 MSTORE PUSH1 0x20 ADD DUP6 DUP5 DUP2 MLOAD DUP2 LT PUSH2 0x2C1C JUMPI PUSH2 0x2C1C PUSH2 0x3709 JUMP JUMPDEST PUSH1 0x20 SWAP1 DUP2 MUL SWAP2 SWAP1 SWAP2 ADD DUP2 ADD MLOAD SWAP1 SWAP2 MSTORE DUP3 SLOAD PUSH1 0x1 DUP2 DUP2 ADD DUP6 SSTORE PUSH0 SWAP5 DUP6 MSTORE DUP3 DUP6 KECCAK256 DUP5 MLOAD PUSH1 0x3 SWAP1 SWAP4 MUL ADD SWAP2 DUP3 SSTORE SWAP2 DUP4 ADD MLOAD SWAP2 DUP2 ADD SWAP2 SWAP1 SWAP2 SSTORE PUSH1 0x40 SWAP1 SWAP2 ADD MLOAD PUSH1 0x2 SWAP1 SWAP2 ADD SSTORE DUP5 MLOAD PUSH1 0x6 SWAP2 SWAP1 DUP7 SWAP1 DUP5 SWAP1 DUP2 LT PUSH2 0x2C75 JUMPI PUSH2 0x2C75 PUSH2 0x3709 JUMP JUMPDEST PUSH1 0x20 SWAP1 DUP2 MUL SWAP2 SWAP1 SWAP2 ADD DUP2 ADD MLOAD PUSH1 0x1 PUSH1 0x1 PUSH1 0xA0 SHL SUB AND DUP3 MSTORE DUP2 DUP2 ADD SWAP3 SWAP1 SWAP3 MSTORE PUSH1 0x40 ADD PUSH0 SWAP1 DUP2 KECCAK256 PUSH1 0x2 ADD DUP1 SLOAD PUSH1 0x1 DUP2 ADD DUP3 SSTORE SWAP1 DUP3 MSTORE SWAP2 SWAP1 KECCAK256 ADD DUP6 SWAP1 SSTORE DUP1 PUSH2 0x2CB9 DUP2 PUSH2 0x37C8 JUMP JUMPDEST SWAP2 POP POP PUSH2 0x2B2C JUMP JUMPDEST PUSH0 DUP1 SLOAD PUSH1 0x1 PUSH1 0x1 PUSH1 0xA0 SHL SUB NOT AND PUSH1 0x1 PUSH1 0x1 PUSH1 0xA0 SHL SUB SWAP3 SWAP1 SWAP3 AND SWAP2 SWAP1 SWAP2 OR SWAP1 SSTORE JUMP JUMPDEST PUSH2 0x287D DUP2 PUSH2 0x304D JUMP JUMPDEST PUSH1 0xF SLOAD PUSH2 0x287D SWAP1 PUSH1 0x1 PUSH1 0x1 PUSH1 0xA0 SHL SUB AND CALLER DUP4 PUSH2 0x301D JUMP JUMPDEST PUSH1 0x40 MLOAD PUSH1 0x1 PUSH1 0x1 PUSH1 0xA0 SHL SUB DUP1 DUP6 AND PUSH1 0x24 DUP4 ADD MSTORE DUP4 AND PUSH1 0x44 DUP3 ADD MSTORE PUSH1 0x64 DUP2 ADD DUP3 SWAP1 MSTORE PUSH2 0x26D1 SWAP1 DUP6 SWAP1 PUSH4 0x23B872DD PUSH1 0xE0 SHL SWAP1 PUSH1 0x84 ADD JUMPDEST PUSH1 0x40 DUP1 MLOAD PUSH1 0x1F NOT DUP2 DUP5 SUB ADD DUP2 MSTORE SWAP2 SWAP1 MSTORE PUSH1 0x20 DUP2 ADD DUP1 MLOAD PUSH1 0x1 PUSH1 0x1 PUSH1 0xE0 SHL SUB AND PUSH1 0x1 PUSH1 0x1 PUSH1 0xE0 SHL SUB NOT SWAP1 SWAP4 AND SWAP3 SWAP1 SWAP3 OR SWAP1 SWAP2 MSTORE PUSH2 0x307E JUMP JUMPDEST PUSH1 0x10 SLOAD PUSH1 0xF SLOAD PUSH2 0x2D8A SWAP2 PUSH1 0x1 PUSH1 0x1 PUSH1 0xA0 SHL SUB SWAP2 DUP3 AND SWAP2 AND PUSH0 PUSH2 0x3151 JUMP JUMPDEST PUSH1 0x10 SLOAD PUSH1 0xF SLOAD PUSH2 0x287D SWAP2 PUSH1 0x1 PUSH1 0x1 PUSH1 0xA0 SHL SUB SWAP2 DUP3 AND SWAP2 AND DUP4 PUSH2 0x3151 JUMP JUMPDEST PUSH1 0x10 SLOAD PUSH1 0x40 MLOAD PUSH4 0x2772ABED PUSH1 0xE2 SHL DUP2 MSTORE PUSH1 0x4 DUP2 ADD DUP4 SWAP1 MSTORE PUSH1 0x1 PUSH1 0x1 PUSH1 0xA0 SHL SUB SWAP1 SWAP2 AND SWAP1 PUSH4 0x9DCAAFB4 SWAP1 PUSH1 0x24 ADD JUMPDEST PUSH0 PUSH1 0x40 MLOAD DUP1 DUP4 SUB DUP2 PUSH0 DUP8 DUP1 EXTCODESIZE ISZERO DUP1 ISZERO PUSH2 0x2DEB JUMPI PUSH0 DUP1 REVERT JUMPDEST POP GAS CALL ISZERO DUP1 ISZERO PUSH2 0x2928 JUMPI RETURNDATASIZE PUSH0 DUP1 RETURNDATACOPY RETURNDATASIZE PUSH0 REVERT JUMPDEST PUSH1 0x1 DUP1 PUSH0 DUP3 DUP3 SLOAD PUSH2 0x2E0E SWAP2 SWAP1 PUSH2 0x3951 JUMP JUMPDEST SWAP1 SWAP2 SSTORE POP POP PUSH1 0x1 SLOAD PUSH1 0x1 PUSH1 0x1 PUSH1 0xA0 SHL SUB DUP3 AND PUSH0 SWAP1 DUP2 MSTORE PUSH1 0x3 PUSH1 0x20 MSTORE PUSH1 0x40 DUP2 KECCAK256 SWAP2 SWAP1 SWAP2 SSTORE PUSH2 0x2E3A DUP3 PUSH2 0x551 JUMP JUMPDEST PUSH0 SWAP1 DUP2 MSTORE PUSH1 0x2 PUSH1 0x20 DUP2 SWAP1 MSTORE PUSH1 0x40 DUP3 KECCAK256 DUP1 SLOAD PUSH1 0x1 PUSH1 0x1 PUSH1 0xA0 SHL SUB NOT AND PUSH1 0x1 PUSH1 0x1 PUSH1 0xA0 SHL SUB SWAP6 SWAP1 SWAP6 AND SWAP5 SWAP1 SWAP5 OR DUP5 SSTORE PUSH1 0x1 DUP5 ADD SWAP2 SWAP1 SWAP2 SSTORE TIMESTAMP SWAP1 DUP4 ADD DUP2 SWAP1 SSTORE PUSH1 0x3 SWAP1 SWAP3 ADD SWAP2 SWAP1 SWAP2 SSTORE POP JUMP JUMPDEST PUSH0 DUP4 DUP2 MSTORE PUSH1 0x2 PUSH1 0x20 MSTORE PUSH1 0x40 SWAP1 KECCAK256 PUSH1 0x1 ADD SLOAD DUP2 ISZERO PUSH2 0x2EDC JUMPI PUSH0 DUP5 DUP2 MSTORE PUSH1 0x2 PUSH1 0x20 MSTORE PUSH1 0x40 DUP2 KECCAK256 PUSH1 0x1 ADD DUP1 SLOAD DUP6 SWAP3 SWAP1 PUSH2 0x2EB9 SWAP1 DUP5 SWAP1 PUSH2 0x3951 JUMP JUMPDEST SWAP3 POP POP DUP2 SWAP1 SSTORE POP DUP3 PUSH1 0x8 PUSH0 DUP3 DUP3 SLOAD PUSH2 0x2ED1 SWAP2 SWAP1 PUSH2 0x3951 JUMP JUMPDEST SWAP1 SWAP2 SSTORE POP PUSH2 0x2F74 SWAP1 POP JUMP JUMPDEST DUP2 ISZERO ISZERO PUSH0 SUB PUSH2 0x2F74 JUMPI PUSH0 DUP5 DUP2 MSTORE PUSH1 0x2 PUSH1 0x20 MSTORE PUSH1 0x40 SWAP1 KECCAK256 PUSH1 0x1 ADD SLOAD DUP4 GT ISZERO PUSH2 0x2F36 JUMPI PUSH1 0x40 MLOAD PUSH3 0x461BCD PUSH1 0xE5 SHL DUP2 MSTORE PUSH1 0x20 PUSH1 0x4 DUP3 ADD MSTORE PUSH1 0xE PUSH1 0x24 DUP3 ADD MSTORE PUSH14 0x125B9D985B1A5908185B5BDD5B9D PUSH1 0x92 SHL PUSH1 0x44 DUP3 ADD MSTORE PUSH1 0x64 ADD PUSH2 0x818 JUMP JUMPDEST PUSH0 DUP5 DUP2 MSTORE PUSH1 0x2 PUSH1 0x20 MSTORE PUSH1 0x40 DUP2 KECCAK256 PUSH1 0x1 ADD DUP1 SLOAD DUP6 SWAP3 SWAP1 PUSH2 0x2F56 SWAP1 DUP5 SWAP1 PUSH2 0x393E JUMP JUMPDEST SWAP3 POP POP DUP2 SWAP1 SSTORE POP DUP3 PUSH1 0x8 PUSH0 DUP3 DUP3 SLOAD PUSH2 0x2F6E SWAP2 SWAP1 PUSH2 0x393E JUMP JUMPDEST SWAP1 SWAP2 SSTORE POP POP JUMPDEST PUSH0 DUP5 DUP2 MSTORE PUSH1 0x2 PUSH1 0x20 MSTORE PUSH1 0x40 DUP2 KECCAK256 PUSH1 0x3 DUP2 ADD DUP1 SLOAD TIMESTAMP SWAP1 SWAP2 SSTORE PUSH1 0x1 SWAP1 SWAP2 ADD SLOAD SWAP1 SWAP2 PUSH2 0x2F9B PUSH2 0x146E JUMP JUMPDEST PUSH0 DUP2 DUP2 MSTORE PUSH1 0x5 PUSH1 0x20 SWAP1 DUP2 MSTORE PUSH1 0x40 DUP1 DUP4 KECCAK256 DUP12 DUP5 MSTORE DUP3 MSTORE DUP1 DUP4 KECCAK256 DUP1 SLOAD PUSH1 0xFF NOT AND PUSH1 0x1 SWAP1 DUP2 OR DUP3 SSTORE DUP3 MLOAD PUSH1 0x60 DUP2 ADD DUP5 MSTORE DUP11 DUP2 MSTORE DUP1 DUP6 ADD DUP10 DUP2 MSTORE TIMESTAMP SWAP5 DUP3 ADD SWAP5 DUP6 MSTORE SWAP3 DUP3 ADD DUP1 SLOAD DUP1 DUP5 ADD DUP3 SSTORE SWAP1 DUP8 MSTORE SWAP5 SWAP1 SWAP6 KECCAK256 SWAP5 MLOAD PUSH1 0x3 SWAP1 SWAP5 MUL SWAP1 SWAP5 ADD SWAP3 DUP4 SSTORE MLOAD SWAP3 DUP3 ADD SWAP3 SWAP1 SWAP3 SSTORE SWAP1 MLOAD PUSH1 0x2 SWAP1 SWAP2 ADD SSTORE SWAP1 POP PUSH2 0x3014 DUP8 DUP6 DUP6 DUP5 PUSH2 0x3264 JUMP JUMPDEST POP POP POP POP POP POP POP JUMP JUMPDEST PUSH1 0x40 MLOAD PUSH1 0x1 PUSH1 0x1 PUSH1 0xA0 SHL SUB DUP4 AND PUSH1 0x24 DUP3 ADD MSTORE PUSH1 0x44 DUP2 ADD DUP3 SWAP1 MSTORE PUSH2 0x2994 SWAP1 DUP5 SWAP1 PUSH4 0xA9059CBB PUSH1 0xE0 SHL SWAP1 PUSH1 0x64 ADD PUSH2 0x2D36 JUMP JUMPDEST PUSH1 0x10 SLOAD PUSH1 0x40 MLOAD PUSH4 0xFEC1A67 PUSH1 0xE3 SHL DUP2 MSTORE PUSH1 0x4 DUP2 ADD DUP4 SWAP1 MSTORE PUSH1 0x1 PUSH1 0x1 PUSH1 0xA0 SHL SUB SWAP1 SWAP2 AND SWAP1 PUSH4 0x7F60D338 SWAP1 PUSH1 0x24 ADD PUSH2 0x2DD4 JUMP JUMPDEST PUSH0 PUSH2 0x30D2 DUP3 PUSH1 0x40 MLOAD DUP1 PUSH1 0x40 ADD PUSH1 0x40 MSTORE DUP1 PUSH1 0x20 DUP2 MSTORE PUSH1 0x20 ADD PUSH32 0x5361666545524332303A206C6F772D6C6576656C2063616C6C206661696C6564 DUP2 MSTORE POP DUP6 PUSH1 0x1 PUSH1 0x1 PUSH1 0xA0 SHL SUB AND PUSH2 0x330E SWAP1 SWAP3 SWAP2 SWAP1 PUSH4 0xFFFFFFFF AND JUMP JUMPDEST SWAP1 POP DUP1 MLOAD PUSH0 EQ DUP1 PUSH2 0x30F2 JUMPI POP DUP1 DUP1 PUSH1 0x20 ADD SWAP1 MLOAD DUP2 ADD SWAP1 PUSH2 0x30F2 SWAP2 SWAP1 PUSH2 0x399A JUMP JUMPDEST PUSH2 0x2994 JUMPI PUSH1 0x40 MLOAD PUSH3 0x461BCD PUSH1 0xE5 SHL DUP2 MSTORE PUSH1 0x20 PUSH1 0x4 DUP3 ADD MSTORE PUSH1 0x2A PUSH1 0x24 DUP3 ADD MSTORE PUSH32 0x5361666545524332303A204552433230206F7065726174696F6E20646964206E PUSH1 0x44 DUP3 ADD MSTORE PUSH10 0x1BDD081CDD58D8D95959 PUSH1 0xB2 SHL PUSH1 0x64 DUP3 ADD MSTORE PUSH1 0x84 ADD PUSH2 0x818 JUMP JUMPDEST DUP1 ISZERO DUP1 PUSH2 0x31C9 JUMPI POP PUSH1 0x40 MLOAD PUSH4 0x6EB1769F PUSH1 0xE1 SHL DUP2 MSTORE ADDRESS PUSH1 0x4 DUP3 ADD MSTORE PUSH1 0x1 PUSH1 0x1 PUSH1 0xA0 SHL SUB DUP4 DUP2 AND PUSH1 0x24 DUP4 ADD MSTORE DUP5 AND SWAP1 PUSH4 0xDD62ED3E SWAP1 PUSH1 0x44 ADD PUSH1 0x20 PUSH1 0x40 MLOAD DUP1 DUP4 SUB DUP2 DUP7 GAS STATICCALL ISZERO DUP1 ISZERO PUSH2 0x31A3 JUMPI RETURNDATASIZE PUSH0 DUP1 RETURNDATACOPY RETURNDATASIZE PUSH0 REVERT JUMPDEST POP POP POP POP PUSH1 0x40 MLOAD RETURNDATASIZE PUSH1 0x1F NOT PUSH1 0x1F DUP3 ADD AND DUP3 ADD DUP1 PUSH1 0x40 MSTORE POP DUP2 ADD SWAP1 PUSH2 0x31C7 SWAP2 SWAP1 PUSH2 0x37E0 JUMP JUMPDEST ISZERO JUMPDEST PUSH2 0x3234 JUMPI PUSH1 0x40 MLOAD PUSH3 0x461BCD PUSH1 0xE5 SHL DUP2 MSTORE PUSH1 0x20 PUSH1 0x4 DUP3 ADD MSTORE PUSH1 0x36 PUSH1 0x24 DUP3 ADD MSTORE PUSH32 0x5361666545524332303A20617070726F76652066726F6D206E6F6E2D7A65726F PUSH1 0x44 DUP3 ADD MSTORE PUSH22 0x20746F206E6F6E2D7A65726F20616C6C6F77616E6365 PUSH1 0x50 SHL PUSH1 0x64 DUP3 ADD MSTORE PUSH1 0x84 ADD PUSH2 0x818 JUMP JUMPDEST PUSH1 0x40 MLOAD PUSH1 0x1 PUSH1 0x1 PUSH1 0xA0 SHL SUB DUP4 AND PUSH1 0x24 DUP3 ADD MSTORE PUSH1 0x44 DUP2 ADD DUP3 SWAP1 MSTORE PUSH2 0x2994 SWAP1 DUP5 SWAP1 PUSH4 0x95EA7B3 PUSH1 0xE0 SHL SWAP1 PUSH1 0x64 ADD PUSH2 0x2D36 JUMP JUMPDEST PUSH0 PUSH2 0x326E DUP3 PUSH2 0x56B JUMP JUMPDEST PUSH1 0xC0 DUP2 ADD MLOAD PUSH1 0xA0 DUP3 ADD MLOAD SWAP2 SWAP3 POP SWAP1 PUSH0 PUSH2 0x3287 DUP3 DUP5 PUSH2 0x26E2 JUMP JUMPDEST SWAP1 POP PUSH0 DUP4 DUP8 LT ISZERO PUSH2 0x32A3 JUMPI PUSH2 0x329C TIMESTAMP DUP6 PUSH2 0x26D7 JUMP JUMPDEST SWAP1 POP PUSH2 0x32C5 JUMP JUMPDEST DUP4 DUP8 LT ISZERO DUP1 ISZERO PUSH2 0x32B3 JUMPI POP DUP2 DUP8 GT ISZERO JUMPDEST ISZERO PUSH2 0x32C5 JUMPI PUSH2 0x32C2 TIMESTAMP DUP9 PUSH2 0x26D7 JUMP JUMPDEST SWAP1 POP JUMPDEST PUSH0 PUSH2 0x32D0 DUP3 DUP11 PUSH2 0x2B12 JUMP JUMPDEST PUSH0 DUP9 DUP2 MSTORE PUSH1 0x4 PUSH1 0x20 SWAP1 DUP2 MSTORE PUSH1 0x40 DUP1 DUP4 KECCAK256 DUP15 DUP5 MSTORE SWAP1 SWAP2 MSTORE DUP2 KECCAK256 DUP1 SLOAD SWAP3 SWAP4 POP DUP4 SWAP3 SWAP1 SWAP2 SWAP1 PUSH2 0x32FD SWAP1 DUP5 SWAP1 PUSH2 0x3951 JUMP JUMPDEST SWAP1 SWAP2 SSTORE POP POP POP POP POP POP POP POP POP POP POP POP JUMP JUMPDEST PUSH1 0x60 PUSH2 0x331C DUP5 DUP5 PUSH0 DUP6 PUSH2 0x3324 JUMP JUMPDEST SWAP5 SWAP4 POP POP POP POP JUMP JUMPDEST PUSH1 0x60 DUP3 SELFBALANCE LT ISZERO PUSH2 0x3385 JUMPI PUSH1 0x40 MLOAD PUSH3 0x461BCD PUSH1 0xE5 SHL DUP2 MSTORE PUSH1 0x20 PUSH1 0x4 DUP3 ADD MSTORE PUSH1 0x26 PUSH1 0x24 DUP3 ADD MSTORE PUSH32 0x416464726573733A20696E73756666696369656E742062616C616E636520666F PUSH1 0x44 DUP3 ADD MSTORE PUSH6 0x1C8818D85B1B PUSH1 0xD2 SHL PUSH1 0x64 DUP3 ADD MSTORE PUSH1 0x84 ADD PUSH2 0x818 JUMP JUMPDEST PUSH0 DUP1 DUP7 PUSH1 0x1 PUSH1 0x1 PUSH1 0xA0 SHL SUB AND DUP6 DUP8 PUSH1 0x40 MLOAD PUSH2 0x33A0 SWAP2 SWAP1 PUSH2 0x39DB JUMP JUMPDEST PUSH0 PUSH1 0x40 MLOAD DUP1 DUP4 SUB DUP2 DUP6 DUP8 GAS CALL SWAP3 POP POP POP RETURNDATASIZE DUP1 PUSH0 DUP2 EQ PUSH2 0x33DA JUMPI PUSH1 0x40 MLOAD SWAP2 POP PUSH1 0x1F NOT PUSH1 0x3F RETURNDATASIZE ADD AND DUP3 ADD PUSH1 0x40 MSTORE RETURNDATASIZE DUP3 MSTORE RETURNDATASIZE PUSH0 PUSH1 0x20 DUP5 ADD RETURNDATACOPY PUSH2 0x33DF JUMP JUMPDEST PUSH1 0x60 SWAP2 POP JUMPDEST POP SWAP2 POP SWAP2 POP PUSH2 0x2668 DUP8 DUP4 DUP4 DUP8 PUSH1 0x60 DUP4 ISZERO PUSH2 0x3459 JUMPI DUP3 MLOAD PUSH0 SUB PUSH2 0x3452 JUMPI PUSH1 0x1 PUSH1 0x1 PUSH1 0xA0 SHL SUB DUP6 AND EXTCODESIZE PUSH2 0x3452 JUMPI PUSH1 0x40 MLOAD PUSH3 0x461BCD PUSH1 0xE5 SHL DUP2 MSTORE PUSH1 0x20 PUSH1 0x4 DUP3 ADD MSTORE PUSH1 0x1D PUSH1 0x24 DUP3 ADD MSTORE PUSH32 0x416464726573733A2063616C6C20746F206E6F6E2D636F6E7472616374000000 PUSH1 0x44 DUP3 ADD MSTORE PUSH1 0x64 ADD PUSH2 0x818 JUMP JUMPDEST POP DUP2 PUSH2 0x331C JUMP JUMPDEST PUSH2 0x331C DUP4 DUP4 DUP2 MLOAD ISZERO PUSH2 0x346E JUMPI DUP2 MLOAD DUP1 DUP4 PUSH1 0x20 ADD REVERT JUMPDEST DUP1 PUSH1 0x40 MLOAD PUSH3 0x461BCD PUSH1 0xE5 SHL DUP2 MSTORE PUSH1 0x4 ADD PUSH2 0x818 SWAP2 SWAP1 PUSH2 0x39F6 JUMP JUMPDEST POP DUP1 SLOAD PUSH0 DUP3 SSTORE SWAP1 PUSH0 MSTORE PUSH1 0x20 PUSH0 KECCAK256 SWAP1 DUP2 ADD SWAP1 PUSH2 0x287D SWAP2 SWAP1 JUMPDEST DUP1 DUP3 GT ISZERO PUSH2 0xBF6 JUMPI PUSH0 DUP2 SSTORE PUSH1 0x1 ADD PUSH2 0x349F JUMP JUMPDEST DUP2 MLOAD DUP2 MSTORE PUSH1 0x20 DUP1 DUP4 ADD MLOAD SWAP1 DUP3 ADD MSTORE PUSH1 0x40 DUP1 DUP4 ADD MLOAD SWAP1 DUP3 ADD MSTORE PUSH1 0x60 DUP2 ADD PUSH2 0x1BAD JUMP JUMPDEST PUSH1 0x1 PUSH1 0x1 PUSH1 0xA0 SHL SUB DUP2 AND DUP2 EQ PUSH2 0x287D JUMPI PUSH0 DUP1 REVERT JUMPDEST PUSH0 PUSH1 0x20 DUP3 DUP5 SUB SLT ISZERO PUSH2 0x34F7 JUMPI PUSH0 DUP1 REVERT JUMPDEST DUP2 CALLDATALOAD PUSH2 0x14A6 DUP2 PUSH2 0x34D3 JUMP JUMPDEST PUSH0 PUSH1 0x20 DUP3 DUP5 SUB SLT ISZERO PUSH2 0x3512 JUMPI PUSH0 DUP1 REVERT JUMPDEST POP CALLDATALOAD SWAP2 SWAP1 POP JUMP JUMPDEST PUSH1 0x20 DUP1 DUP3 MSTORE DUP3 MLOAD DUP3 DUP3 ADD DUP2 SWAP1 MSTORE PUSH0 SWAP2 SWAP1 DUP5 DUP3 ADD SWAP1 PUSH1 0x40 DUP6 ADD SWAP1 DUP5 JUMPDEST DUP2 DUP2 LT ISZERO PUSH2 0x356E JUMPI PUSH2 0x355B DUP4 DUP6 MLOAD DUP1 MLOAD DUP3 MSTORE PUSH1 0x20 DUP1 DUP3 ADD MLOAD SWAP1 DUP4 ADD MSTORE PUSH1 0x40 SWAP1 DUP2 ADD MLOAD SWAP2 ADD MSTORE JUMP JUMPDEST SWAP3 DUP5 ADD SWAP3 PUSH1 0x60 SWAP3 SWAP1 SWAP3 ADD SWAP2 PUSH1 0x1 ADD PUSH2 0x3534 JUMP JUMPDEST POP SWAP1 SWAP7 SWAP6 POP POP POP POP POP POP JUMP JUMPDEST PUSH0 DUP1 PUSH1 0x40 DUP4 DUP6 SUB SLT ISZERO PUSH2 0x358B JUMPI PUSH0 DUP1 REVERT JUMPDEST DUP3 CALLDATALOAD PUSH2 0x3596 DUP2 PUSH2 0x34D3 JUMP JUMPDEST SWAP5 PUSH1 0x20 SWAP4 SWAP1 SWAP4 ADD CALLDATALOAD SWAP4 POP POP POP JUMP JUMPDEST PUSH0 PUSH1 0x20 DUP1 DUP4 MSTORE PUSH1 0x60 DUP1 DUP5 ADD DUP6 MLOAD ISZERO ISZERO DUP4 DUP7 ADD MSTORE DUP3 DUP7 ADD MLOAD PUSH1 0x40 DUP1 DUP8 ADD MSTORE DUP2 DUP2 MLOAD DUP1 DUP5 MSTORE PUSH1 0x80 DUP9 ADD SWAP2 POP DUP6 DUP4 ADD SWAP4 POP PUSH0 SWAP3 POP JUMPDEST DUP1 DUP4 LT ISZERO PUSH2 0x3611 JUMPI PUSH2 0x35FD DUP3 DUP6 MLOAD DUP1 MLOAD DUP3 MSTORE PUSH1 0x20 DUP1 DUP3 ADD MLOAD SWAP1 DUP4 ADD MSTORE PUSH1 0x40 SWAP1 DUP2 ADD MLOAD SWAP2 ADD MSTORE JUMP JUMPDEST SWAP3 DUP6 ADD SWAP3 PUSH1 0x1 SWAP3 SWAP1 SWAP3 ADD SWAP2 SWAP1 DUP5 ADD SWAP1 PUSH2 0x35D6 JUMP JUMPDEST POP SWAP8 SWAP7 POP POP POP POP POP POP POP JUMP JUMPDEST PUSH0 DUP1 PUSH0 DUP1 PUSH1 0x80 DUP6 DUP8 SUB SLT ISZERO PUSH2 0x3630 JUMPI PUSH0 DUP1 REVERT JUMPDEST DUP5 CALLDATALOAD PUSH2 0x363B DUP2 PUSH2 0x34D3 JUMP JUMPDEST SWAP7 PUSH1 0x20 DUP7 ADD CALLDATALOAD SWAP7 POP PUSH1 0x40 DUP7 ADD CALLDATALOAD SWAP6 PUSH1 0x60 ADD CALLDATALOAD SWAP5 POP SWAP3 POP POP POP JUMP JUMPDEST PUSH0 DUP1 PUSH0 DUP1 PUSH0 PUSH1 0xA0 DUP7 DUP9 SUB SLT ISZERO PUSH2 0x3669 JUMPI PUSH0 DUP1 REVERT JUMPDEST DUP6 CALLDATALOAD SWAP5 POP PUSH1 0x20 DUP7 ADD CALLDATALOAD PUSH2 0x367B DUP2 PUSH2 0x34D3 JUMP JUMPDEST SWAP4 POP PUSH1 0x40 DUP7 ADD CALLDATALOAD PUSH2 0x368B DUP2 PUSH2 0x34D3 JUMP JUMPDEST SWAP3 POP PUSH1 0x60 DUP7 ADD CALLDATALOAD PUSH2 0x369B DUP2 PUSH2 0x34D3 JUMP JUMPDEST SWAP5 SWAP8 SWAP4 SWAP7 POP SWAP2 SWAP5 PUSH1 0x80 ADD CALLDATALOAD SWAP3 SWAP2 POP POP JUMP JUMPDEST PUSH0 DUP1 PUSH1 0x40 DUP4 DUP6 SUB SLT ISZERO PUSH2 0x36BD JUMPI PUSH0 DUP1 REVERT JUMPDEST DUP3 CALLDATALOAD SWAP2 POP PUSH1 0x20 DUP4 ADD CALLDATALOAD PUSH2 0x36CF DUP2 PUSH2 0x34D3 JUMP JUMPDEST DUP1 SWAP2 POP POP SWAP3 POP SWAP3 SWAP1 POP JUMP JUMPDEST PUSH0 DUP1 PUSH0 DUP1 PUSH1 0x80 DUP6 DUP8 SUB SLT ISZERO PUSH2 0x36ED JUMPI PUSH0 DUP1 REVERT JUMPDEST POP POP DUP3 CALLDATALOAD SWAP5 PUSH1 0x20 DUP5 ADD CALLDATALOAD SWAP5 POP PUSH1 0x40 DUP5 ADD CALLDATALOAD SWAP4 PUSH1 0x60 ADD CALLDATALOAD SWAP3 POP SWAP1 POP JUMP JUMPDEST PUSH4 0x4E487B71 PUSH1 0xE0 SHL PUSH0 MSTORE PUSH1 0x32 PUSH1 0x4 MSTORE PUSH1 0x24 PUSH0 REVERT JUMPDEST PUSH0 PUSH1 0x20 DUP3 DUP5 SUB SLT ISZERO PUSH2 0x372D JUMPI PUSH0 DUP1 REVERT JUMPDEST DUP2 MLOAD PUSH2 0x14A6 DUP2 PUSH2 0x34D3 JUMP JUMPDEST PUSH1 0x20 DUP1 DUP3 MSTORE PUSH1 0xE SWAP1 DUP3 ADD MSTORE PUSH14 0x24B73B30B634B21031B0B63632B9 PUSH1 0x91 SHL PUSH1 0x40 DUP3 ADD MSTORE PUSH1 0x60 ADD SWAP1 JUMP JUMPDEST PUSH1 0x20 DUP1 DUP3 MSTORE PUSH1 0xC SWAP1 DUP3 ADD MSTORE PUSH12 0x125B1B1959D85B0818D85B1B PUSH1 0xA2 SHL PUSH1 0x40 DUP3 ADD MSTORE PUSH1 0x60 ADD SWAP1 JUMP JUMPDEST PUSH1 0x20 DUP1 DUP3 MSTORE PUSH1 0x14 SWAP1 DUP3 ADD MSTORE PUSH20 0x10DBDB9D1C9858DD081B9BDD081CDD185C9D1959 PUSH1 0x62 SHL PUSH1 0x40 DUP3 ADD MSTORE PUSH1 0x60 ADD SWAP1 JUMP JUMPDEST PUSH4 0x4E487B71 PUSH1 0xE0 SHL PUSH0 MSTORE PUSH1 0x11 PUSH1 0x4 MSTORE PUSH1 0x24 PUSH0 REVERT JUMPDEST PUSH0 PUSH1 0x1 DUP3 ADD PUSH2 0x37D9 JUMPI PUSH2 0x37D9 PUSH2 0x37B4 JUMP JUMPDEST POP PUSH1 0x1 ADD SWAP1 JUMP JUMPDEST PUSH0 PUSH1 0x20 DUP3 DUP5 SUB SLT ISZERO PUSH2 0x37F0 JUMPI PUSH0 DUP1 REVERT JUMPDEST POP MLOAD SWAP2 SWAP1 POP JUMP JUMPDEST PUSH1 0x20 DUP1 DUP3 MSTORE PUSH1 0x16 SWAP1 DUP3 ADD MSTORE PUSH22 0x155CD95C881A185CDB89DD081C9959DA5CDD195C9959 PUSH1 0x52 SHL PUSH1 0x40 DUP3 ADD MSTORE PUSH1 0x60 ADD SWAP1 JUMP JUMPDEST PUSH1 0x20 DUP1 DUP3 MSTORE PUSH1 0x12 SWAP1 DUP3 ADD MSTORE PUSH18 0x155CD95C88191BD95CDB89DD08195E1A5CDD PUSH1 0x72 SHL PUSH1 0x40 DUP3 ADD MSTORE PUSH1 0x60 ADD SWAP1 JUMP JUMPDEST PUSH1 0x1 DUP2 DUP2 JUMPDEST DUP1 DUP6 GT ISZERO PUSH2 0x388D JUMPI DUP2 PUSH0 NOT DIV DUP3 GT ISZERO PUSH2 0x3873 JUMPI PUSH2 0x3873 PUSH2 0x37B4 JUMP JUMPDEST DUP1 DUP6 AND ISZERO PUSH2 0x3880 JUMPI SWAP2 DUP2 MUL SWAP2 JUMPDEST SWAP4 DUP5 SHR SWAP4 SWAP1 DUP1 MUL SWAP1 PUSH2 0x3858 JUMP JUMPDEST POP SWAP3 POP SWAP3 SWAP1 POP JUMP JUMPDEST PUSH0 DUP3 PUSH2 0x38A3 JUMPI POP PUSH1 0x1 PUSH2 0x1BAD JUMP JUMPDEST DUP2 PUSH2 0x38AF JUMPI POP PUSH0 PUSH2 0x1BAD JUMP JUMPDEST DUP2 PUSH1 0x1 DUP2 EQ PUSH2 0x38C5 JUMPI PUSH1 0x2 DUP2 EQ PUSH2 0x38CF JUMPI PUSH2 0x38EB JUMP JUMPDEST PUSH1 0x1 SWAP2 POP POP PUSH2 0x1BAD JUMP JUMPDEST PUSH1 0xFF DUP5 GT ISZERO PUSH2 0x38E0 JUMPI PUSH2 0x38E0 PUSH2 0x37B4 JUMP JUMPDEST POP POP PUSH1 0x1 DUP3 SHL PUSH2 0x1BAD JUMP JUMPDEST POP PUSH1 0x20 DUP4 LT PUSH2 0x133 DUP4 LT AND PUSH1 0x4E DUP5 LT PUSH1 0xB DUP5 LT AND OR ISZERO PUSH2 0x390E JUMPI POP DUP2 DUP2 EXP PUSH2 0x1BAD JUMP JUMPDEST PUSH2 0x3918 DUP4 DUP4 PUSH2 0x3853 JUMP JUMPDEST DUP1 PUSH0 NOT DIV DUP3 GT ISZERO PUSH2 0x392B JUMPI PUSH2 0x392B PUSH2 0x37B4 JUMP JUMPDEST MUL SWAP4 SWAP3 POP POP POP JUMP JUMPDEST PUSH0 PUSH2 0x14A6 DUP4 DUP4 PUSH2 0x3895 JUMP JUMPDEST DUP2 DUP2 SUB DUP2 DUP2 GT ISZERO PUSH2 0x1BAD JUMPI PUSH2 0x1BAD PUSH2 0x37B4 JUMP JUMPDEST DUP1 DUP3 ADD DUP1 DUP3 GT ISZERO PUSH2 0x1BAD JUMPI PUSH2 0x1BAD PUSH2 0x37B4 JUMP JUMPDEST DUP1 DUP3 MUL DUP2 ISZERO DUP3 DUP3 DIV DUP5 EQ OR PUSH2 0x1BAD JUMPI PUSH2 0x1BAD PUSH2 0x37B4 JUMP JUMPDEST PUSH0 DUP3 PUSH2 0x3995 JUMPI PUSH4 0x4E487B71 PUSH1 0xE0 SHL PUSH0 MSTORE PUSH1 0x12 PUSH1 0x4 MSTORE PUSH1 0x24 PUSH0 REVERT JUMPDEST POP DIV SWAP1 JUMP JUMPDEST PUSH0 PUSH1 0x20 DUP3 DUP5 SUB SLT ISZERO PUSH2 0x39AA JUMPI PUSH0 DUP1 REVERT JUMPDEST DUP2 MLOAD DUP1 ISZERO ISZERO DUP2 EQ PUSH2 0x14A6 JUMPI PUSH0 DUP1 REVERT JUMPDEST PUSH0 JUMPDEST DUP4 DUP2 LT ISZERO PUSH2 0x39D3 JUMPI DUP2 DUP2 ADD MLOAD DUP4 DUP3 ADD MSTORE PUSH1 0x20 ADD PUSH2 0x39BB JUMP JUMPDEST POP POP PUSH0 SWAP2 ADD MSTORE JUMP JUMPDEST PUSH0 DUP3 MLOAD PUSH2 0x39EC DUP2 DUP5 PUSH1 0x20 DUP8 ADD PUSH2 0x39B9 JUMP JUMPDEST SWAP2 SWAP1 SWAP2 ADD SWAP3 SWAP2 POP POP JUMP JUMPDEST PUSH1 0x20 DUP2 MSTORE PUSH0 DUP3 MLOAD DUP1 PUSH1 0x20 DUP5 ADD MSTORE PUSH2 0x3A14 DUP2 PUSH1 0x40 DUP6 ADD PUSH1 0x20 DUP8 ADD PUSH2 0x39B9 JUMP JUMPDEST PUSH1 0x1F ADD PUSH1 0x1F NOT AND SWAP2 SWAP1 SWAP2 ADD PUSH1 0x40 ADD SWAP3 SWAP2 POP POP JUMP INVALID LOG2 PUSH5 0x6970667358 0x22 SLT KECCAK256 0x22 PUSH32 0x89BCF0F84E749E159D58DB20E8B552563C6150EC526A5E4491DEF6554D36473 PUSH16 0x6C634300081500330000000000000000 "
		},
		"gasEstimates": {
			"creation": {
				"codeDepositCost": "2988400",
				"executionCost": "13286",
				"totalCost": "3001686"
			},
			"external": {
				"changeRegistryContractAddr(address)": "infinite",
				"claimRewardFromPool()": "infinite",
				"claimRewardsFor(address)": "infinite",
				"config(address,uint256,uint256,uint256)": "infinite",
				"createNewEpoch()": "infinite",
				"depositFor(address,uint256)": "infinite",
				"finalizeEpoch(uint256,address,address,address,uint256)": "infinite",
				"finalizeEpochTicketandParticipantInfo(uint256)": "infinite",
				"getAccumulatedTicketwithoutDecimal(uint256,address)": "infinite",
				"getBalanceChangeHistory(address,uint256)": "infinite",
				"getClaimable(address)": "2573",
				"getCurrentEpochReward()": "infinite",
				"getEpochInfo(uint256)": "33420",
				"getEpochLength()": "2380",
				"getLatestEpoch()": "infinite",
				"getMinAmountToDeposit()": "2358",
				"getPoolTVL()": "2359",
				"getRewardAllocationPercentage()": "6825",
				"getTicketAmount(uint256,address)": "infinite",
				"getTokenUsing()": "2365",
				"getUserAmount()": "2349",
				"getUserDepositInfo(address)": "11538",
				"getUserID(address)": "2631",
				"getWinningHistory(address)": "infinite",
				"getuserByID(uint256)": "2541",
				"initialize(address)": "51079",
				"setRewardRatio(uint256,uint256,uint256,uint256)": "infinite",
				"setStakePoolAddress(address)": "infinite",
				"withdrawFor(address,uint256)": "infinite"
			},
			"internal": {
				"_approveToStakePool(uint256)": "infinite",
				"_proceedUpdate(uint256,uint256,bool)": "infinite",
				"_processClaim()": "infinite",
				"_processStake(uint256)": "infinite",
				"_processUnstake(uint256)": "infinite",
				"_transferRegistryAddr(address)": "24277",
				"_updateAccumulatedTicket(uint256,uint256,uint256,uint256)": "infinite",
				"_updateBalanceChange(uint256,uint256,uint256,uint256)": "infinite",
				"getTokenFromMsgsender(uint256)": "infinite",
				"registerNewUser(address)": "124429",
				"sendRewardToRouter(uint256)": "infinite",
				"sendTokenToMsgsender(uint256)": "infinite",
				"setClaimableRewards(uint256,address[] memory,uint256[] memory)": "infinite",
				"stakeToPool(uint256)": "infinite",
				"sumUptotalParticipant(uint256,uint256)": "infinite",
				"transferRewardToReserve(uint256)": "infinite",
				"unstakeFromPool(uint256)": "infinite",
				"updateUserInfo(address,uint256,bool)": "infinite"
			}
		},
		"methodIdentifiers": {
			"changeRegistryContractAddr(address)": "fa7c828a",
			"claimRewardFromPool()": "1e46baf7",
			"claimRewardsFor(address)": "1ac6d19d",
			"config(address,uint256,uint256,uint256)": "a2122bf7",
			"createNewEpoch()": "ec20c2e5",
			"depositFor(address,uint256)": "2f4f21e2",
			"finalizeEpoch(uint256,address,address,address,uint256)": "a3058071",
			"finalizeEpochTicketandParticipantInfo(uint256)": "2c26eb46",
			"getAccumulatedTicketwithoutDecimal(uint256,address)": "a3fb7050",
			"getBalanceChangeHistory(address,uint256)": "858c7585",
			"getClaimable(address)": "a583024b",
			"getCurrentEpochReward()": "fd2324de",
			"getEpochInfo(uint256)": "135022c2",
			"getEpochLength()": "cfe8a73b",
			"getLatestEpoch()": "a3d74f06",
			"getMinAmountToDeposit()": "361f1ad3",
			"getPoolTVL()": "26be90bf",
			"getRewardAllocationPercentage()": "039da66e",
			"getTicketAmount(uint256,address)": "d474fbf7",
			"getTokenUsing()": "0fce03b9",
			"getUserAmount()": "095d0c94",
			"getUserDepositInfo(address)": "b3a7834d",
			"getUserID(address)": "0ef12aa9",
			"getWinningHistory(address)": "18703da5",
			"getuserByID(uint256)": "ca6d83df",
			"initialize(address)": "c4d66de8",
			"setRewardRatio(uint256,uint256,uint256,uint256)": "c51475b9",
			"setStakePoolAddress(address)": "ad954e1a",
			"withdrawFor(address,uint256)": "db518db2"
		}
	},
	"abi": [
		{
			"anonymous": false,
			"inputs": [
				{
					"indexed": false,
					"internalType": "address",
					"name": "oldController",
					"type": "address"
				},
				{
					"indexed": false,
					"internalType": "address",
					"name": "newController",
					"type": "address"
				}
			],
			"name": "ControllerRoleTransferred",
			"type": "event"
		},
		{
			"anonymous": false,
			"inputs": [
				{
					"indexed": false,
					"internalType": "address",
					"name": "oldOwner",
					"type": "address"
				},
				{
					"indexed": false,
					"internalType": "address",
					"name": "newOwner",
					"type": "address"
				}
			],
			"name": "OwnershipTransferred",
			"type": "event"
		},
		{
			"anonymous": false,
			"inputs": [
				{
					"indexed": false,
					"internalType": "address",
					"name": "oldRouter",
					"type": "address"
				},
				{
					"indexed": false,
					"internalType": "address",
					"name": "newRouter",
					"type": "address"
				}
			],
			"name": "changedRouter",
			"type": "event"
		},
		{
			"anonymous": false,
			"inputs": [
				{
					"indexed": false,
					"internalType": "uint256",
					"name": "first",
					"type": "uint256"
				},
				{
					"indexed": false,
					"internalType": "uint256",
					"name": "second",
					"type": "uint256"
				},
				{
					"indexed": false,
					"internalType": "uint256",
					"name": "third",
					"type": "uint256"
				}
			],
			"name": "rewardPortionUpdated",
			"type": "event"
		},
		{
			"inputs": [
				{
					"internalType": "address",
					"name": "registryAddress",
					"type": "address"
				}
			],
			"name": "changeRegistryContractAddr",
			"outputs": [],
			"stateMutability": "nonpayable",
			"type": "function"
		},
		{
			"inputs": [],
			"name": "claimRewardFromPool",
			"outputs": [
				{
					"internalType": "uint256",
					"name": "",
					"type": "uint256"
				}
			],
			"stateMutability": "nonpayable",
			"type": "function"
		},
		{
			"inputs": [
				{
					"internalType": "address",
					"name": "user",
					"type": "address"
				}
			],
			"name": "claimRewardsFor",
			"outputs": [
				{
					"internalType": "uint256",
					"name": "",
					"type": "uint256"
				}
			],
			"stateMutability": "nonpayable",
			"type": "function"
		},
		{
			"inputs": [
				{
					"internalType": "address",
					"name": "token",
					"type": "address"
				},
				{
					"internalType": "uint256",
					"name": "decimal",
					"type": "uint256"
				},
				{
					"internalType": "uint256",
					"name": "minAmount",
					"type": "uint256"
				},
				{
					"internalType": "uint256",
					"name": "duration",
					"type": "uint256"
				}
			],
			"name": "config",
			"outputs": [],
			"stateMutability": "nonpayable",
			"type": "function"
		},
		{
			"inputs": [],
			"name": "createNewEpoch",
			"outputs": [],
			"stateMutability": "nonpayable",
			"type": "function"
		},
		{
			"inputs": [
				{
					"internalType": "address",
					"name": "user",
					"type": "address"
				},
				{
					"internalType": "uint256",
					"name": "amount",
					"type": "uint256"
				}
			],
			"name": "depositFor",
			"outputs": [],
			"stateMutability": "nonpayable",
			"type": "function"
		},
		{
			"inputs": [
				{
					"internalType": "uint256",
					"name": "epochNumber",
					"type": "uint256"
				},
				{
					"internalType": "address",
					"name": "firstWinner",
					"type": "address"
				},
				{
					"internalType": "address",
					"name": "secondWinner",
					"type": "address"
				},
				{
					"internalType": "address",
					"name": "thirdWinner",
					"type": "address"
				},
				{
					"internalType": "uint256",
					"name": "totalPrize",
					"type": "uint256"
				}
			],
			"name": "finalizeEpoch",
			"outputs": [],
			"stateMutability": "nonpayable",
			"type": "function"
		},
		{
			"inputs": [
				{
					"internalType": "uint256",
					"name": "epochNumber",
					"type": "uint256"
				}
			],
			"name": "finalizeEpochTicketandParticipantInfo",
			"outputs": [],
			"stateMutability": "nonpayable",
			"type": "function"
		},
		{
			"inputs": [
				{
					"internalType": "uint256",
					"name": "epochNumber",
					"type": "uint256"
				},
				{
					"internalType": "address",
					"name": "user",
					"type": "address"
				}
			],
			"name": "getAccumulatedTicketwithoutDecimal",
			"outputs": [
				{
					"internalType": "uint256",
					"name": "",
					"type": "uint256"
				}
			],
			"stateMutability": "view",
			"type": "function"
		},
		{
			"inputs": [
				{
					"internalType": "address",
					"name": "user",
					"type": "address"
				},
				{
					"internalType": "uint256",
					"name": "epochNumber",
					"type": "uint256"
				}
			],
			"name": "getBalanceChangeHistory",
			"outputs": [
				{
					"components": [
						{
							"internalType": "bool",
							"name": "changedwithinEpoch",
							"type": "bool"
						},
						{
							"components": [
								{
									"internalType": "uint256",
									"name": "oldAmount",
									"type": "uint256"
								},
								{
									"internalType": "uint256",
									"name": "newAmount",
									"type": "uint256"
								},
								{
									"internalType": "uint256",
									"name": "updatedBlock",
									"type": "uint256"
								}
							],
							"internalType": "struct ApePool.ChangeArray[]",
							"name": "historyArray",
							"type": "tuple[]"
						}
					],
					"internalType": "struct ApePool.userChangeHistory",
					"name": "",
					"type": "tuple"
				}
			],
			"stateMutability": "view",
			"type": "function"
		},
		{
			"inputs": [
				{
					"internalType": "address",
					"name": "user",
					"type": "address"
				}
			],
			"name": "getClaimable",
			"outputs": [
				{
					"internalType": "uint256",
					"name": "",
					"type": "uint256"
				}
			],
			"stateMutability": "view",
			"type": "function"
		},
		{
			"inputs": [],
			"name": "getCurrentEpochReward",
			"outputs": [
				{
					"internalType": "uint256",
					"name": "",
					"type": "uint256"
				}
			],
			"stateMutability": "view",
			"type": "function"
		},
		{
			"inputs": [
				{
					"internalType": "uint256",
					"name": "epochNumber",
					"type": "uint256"
				}
			],
			"name": "getEpochInfo",
			"outputs": [
				{
					"components": [
						{
							"components": [
								{
									"internalType": "address",
									"name": "winner",
									"type": "address"
								},
								{
									"internalType": "uint256",
									"name": "prizeAmount",
									"type": "uint256"
								},
								{
									"internalType": "bool",
									"name": "claimed",
									"type": "bool"
								}
							],
							"internalType": "struct ApePool.PrizeDetails",
							"name": "first",
							"type": "tuple"
						},
						{
							"components": [
								{
									"internalType": "address",
									"name": "winner",
									"type": "address"
								},
								{
									"internalType": "uint256",
									"name": "prizeAmount",
									"type": "uint256"
								},
								{
									"internalType": "bool",
									"name": "claimed",
									"type": "bool"
								}
							],
							"internalType": "struct ApePool.PrizeDetails",
							"name": "second",
							"type": "tuple"
						},
						{
							"components": [
								{
									"internalType": "address",
									"name": "winner",
									"type": "address"
								},
								{
									"internalType": "uint256",
									"name": "prizeAmount",
									"type": "uint256"
								},
								{
									"internalType": "bool",
									"name": "claimed",
									"type": "bool"
								}
							],
							"internalType": "struct ApePool.PrizeDetails",
							"name": "third",
							"type": "tuple"
						},
						{
							"internalType": "bool",
							"name": "finalized",
							"type": "bool"
						},
						{
							"internalType": "uint256",
							"name": "totalPrize",
							"type": "uint256"
						},
						{
							"internalType": "uint256",
							"name": "duration",
							"type": "uint256"
						},
						{
							"internalType": "uint256",
							"name": "createdTimeStamp",
							"type": "uint256"
						},
						{
							"internalType": "uint256",
							"name": "totalParticipant",
							"type": "uint256"
						}
					],
					"internalType": "struct ApePool.EpochResult",
					"name": "",
					"type": "tuple"
				}
			],
			"stateMutability": "view",
			"type": "function"
		},
		{
			"inputs": [],
			"name": "getEpochLength",
			"outputs": [
				{
					"internalType": "uint256",
					"name": "",
					"type": "uint256"
				}
			],
			"stateMutability": "view",
			"type": "function"
		},
		{
			"inputs": [],
			"name": "getLatestEpoch",
			"outputs": [
				{
					"internalType": "uint256",
					"name": "",
					"type": "uint256"
				}
			],
			"stateMutability": "view",
			"type": "function"
		},
		{
			"inputs": [],
			"name": "getMinAmountToDeposit",
			"outputs": [
				{
					"internalType": "uint256",
					"name": "",
					"type": "uint256"
				}
			],
			"stateMutability": "view",
			"type": "function"
		},
		{
			"inputs": [],
			"name": "getPoolTVL",
			"outputs": [
				{
					"internalType": "uint256",
					"name": "",
					"type": "uint256"
				}
			],
			"stateMutability": "view",
			"type": "function"
		},
		{
			"inputs": [],
			"name": "getRewardAllocationPercentage",
			"outputs": [
				{
					"components": [
						{
							"internalType": "uint256",
							"name": "first",
							"type": "uint256"
						},
						{
							"internalType": "uint256",
							"name": "second",
							"type": "uint256"
						},
						{
							"internalType": "uint256",
							"name": "third",
							"type": "uint256"
						}
					],
					"internalType": "struct ApePool.rewardAllocation",
					"name": "",
					"type": "tuple"
				}
			],
			"stateMutability": "view",
			"type": "function"
		},
		{
			"inputs": [
				{
					"internalType": "uint256",
					"name": "epochNumber",
					"type": "uint256"
				},
				{
					"internalType": "address",
					"name": "user",
					"type": "address"
				}
			],
			"name": "getTicketAmount",
			"outputs": [
				{
					"internalType": "uint256",
					"name": "",
					"type": "uint256"
				}
			],
			"stateMutability": "view",
			"type": "function"
		},
		{
			"inputs": [],
			"name": "getTokenUsing",
			"outputs": [
				{
					"internalType": "address",
					"name": "",
					"type": "address"
				}
			],
			"stateMutability": "view",
			"type": "function"
		},
		{
			"inputs": [],
			"name": "getUserAmount",
			"outputs": [
				{
					"internalType": "uint256",
					"name": "",
					"type": "uint256"
				}
			],
			"stateMutability": "view",
			"type": "function"
		},
		{
			"inputs": [
				{
					"internalType": "address",
					"name": "user",
					"type": "address"
				}
			],
			"name": "getUserDepositInfo",
			"outputs": [
				{
					"components": [
						{
							"internalType": "address",
							"name": "userAddress",
							"type": "address"
						},
						{
							"internalType": "uint256",
							"name": "DepositAmount",
							"type": "uint256"
						},
						{
							"internalType": "uint256",
							"name": "registeredDate",
							"type": "uint256"
						},
						{
							"internalType": "uint256",
							"name": "Lastupdated",
							"type": "uint256"
						}
					],
					"internalType": "struct ApePool.userInfo",
					"name": "",
					"type": "tuple"
				}
			],
			"stateMutability": "view",
			"type": "function"
		},
		{
			"inputs": [
				{
					"internalType": "address",
					"name": "user",
					"type": "address"
				}
			],
			"name": "getUserID",
			"outputs": [
				{
					"internalType": "uint256",
					"name": "",
					"type": "uint256"
				}
			],
			"stateMutability": "view",
			"type": "function"
		},
		{
			"inputs": [
				{
					"internalType": "address",
					"name": "user",
					"type": "address"
				}
			],
			"name": "getWinningHistory",
			"outputs": [
				{
					"components": [
						{
							"internalType": "uint256",
							"name": "EpochNumber",
							"type": "uint256"
						},
						{
							"internalType": "uint256",
							"name": "position",
							"type": "uint256"
						},
						{
							"internalType": "uint256",
							"name": "PrizeAmount",
							"type": "uint256"
						}
					],
					"internalType": "struct ApePool.rewardHistory[]",
					"name": "",
					"type": "tuple[]"
				}
			],
			"stateMutability": "view",
			"type": "function"
		},
		{
			"inputs": [
				{
					"internalType": "uint256",
					"name": "userID",
					"type": "uint256"
				}
			],
			"name": "getuserByID",
			"outputs": [
				{
					"internalType": "address",
					"name": "",
					"type": "address"
				}
			],
			"stateMutability": "view",
			"type": "function"
		},
		{
			"inputs": [
				{
					"internalType": "address",
					"name": "registryAddress",
					"type": "address"
				}
			],
			"name": "initialize",
			"outputs": [],
			"stateMutability": "nonpayable",
			"type": "function"
		},
		{
			"inputs": [
				{
					"internalType": "uint256",
					"name": "firstP",
					"type": "uint256"
				},
				{
					"internalType": "uint256",
					"name": "secondP",
					"type": "uint256"
				},
				{
					"internalType": "uint256",
					"name": "thirdP",
					"type": "uint256"
				},
				{
					"internalType": "uint256",
					"name": "percentageSUM",
					"type": "uint256"
				}
			],
			"name": "setRewardRatio",
			"outputs": [],
			"stateMutability": "nonpayable",
			"type": "function"
		},
		{
			"inputs": [
				{
					"internalType": "address",
					"name": "StakePoolAdd",
					"type": "address"
				}
			],
			"name": "setStakePoolAddress",
			"outputs": [],
			"stateMutability": "nonpayable",
			"type": "function"
		},
		{
			"inputs": [
				{
					"internalType": "address",
					"name": "user",
					"type": "address"
				},
				{
					"internalType": "uint256",
					"name": "amount",
					"type": "uint256"
				}
			],
			"name": "withdrawFor",
			"outputs": [],
			"stateMutability": "nonpayable",
			"type": "function"
		}
	]
}