{
	"data": {
		"bytecode": {
			"linkReferences": {},
			"object": "608060405234801561000f575f80fd5b506106428061001d5f395ff3fe608060405234801561000f575f80fd5b50600436106100f0575f3560e01c80639960d74211610093578063e7f43c6811610063578063e7f43c68146101d4578063edd3159d146101e5578063f2fde38b146101f6578063f5a62e1914610209575f80fd5b80639960d7421461018e578063b0f479a11461019f578063c0d78655146101b0578063cf20d872146101c3575f80fd5b80634cf8a130116100ce5780634cf8a13014610145578063893d20e8146101585780638e2b44c51461016857806392eefe9b1461017b575f80fd5b80630a93a7d8146100f45780633018205f146101095780633587647614610132575b5f80fd5b610107610102366004610543565b61021c565b005b6001546001600160a01b03165b6040516001600160a01b03909116815260200160405180910390f35b610107610140366004610563565b61025a565b610107610153366004610543565b61030f565b5f546001600160a01b0316610116565b610107610176366004610543565b610341565b610107610189366004610543565b610373565b6006546001600160a01b0316610116565b6003546001600160a01b0316610116565b6101076101be366004610543565b6103a5565b6002546001600160a01b0316610116565b6004546001600160a01b0316610116565b6005546001600160a01b0316610116565b610107610204366004610543565b6103d7565b610107610217366004610543565b610409565b5f546001600160a01b0316331461024e5760405162461bcd60e51b8152600401610245906105e4565b60405180910390fd5b6102578161043b565b50565b600654600160a01b900460ff16156102b45760405162461bcd60e51b815260206004820152601f60248201527f436f6e747261637420697320696e697469616c697a656420616c7265616479006044820152606401610245565b6102bd8761045d565b6102c68661047e565b6102cf8561043b565b6102d8846104a0565b6102e1836104c2565b6102ea816104e4565b6102f382610506565b50506006805460ff60a01b1916600160a01b1790555050505050565b5f546001600160a01b031633146103385760405162461bcd60e51b8152600401610245906105e4565b610257816104c2565b5f546001600160a01b0316331461036a5760405162461bcd60e51b8152600401610245906105e4565b610257816104e4565b5f546001600160a01b0316331461039c5760405162461bcd60e51b8152600401610245906105e4565b6102578161047e565b5f546001600160a01b031633146103ce5760405162461bcd60e51b8152600401610245906105e4565b610257816104a0565b5f546001600160a01b031633146104005760405162461bcd60e51b8152600401610245906105e4565b6102578161045d565b5f546001600160a01b031633146104325760405162461bcd60e51b8152600401610245906105e4565b61025781610506565b600280546001600160a01b0319166001600160a01b0392909216919091179055565b5f80546001600160a01b0319166001600160a01b0392909216919091179055565b600180546001600160a01b0319166001600160a01b0392909216919091179055565b600380546001600160a01b0319166001600160a01b0392909216919091179055565b600480546001600160a01b0319166001600160a01b0392909216919091179055565b600680546001600160a01b0319166001600160a01b0392909216919091179055565b600580546001600160a01b0319166001600160a01b0392909216919091179055565b80356001600160a01b038116811461053e575f80fd5b919050565b5f60208284031215610553575f80fd5b61055c82610528565b9392505050565b5f805f805f805f60e0888a031215610579575f80fd5b61058288610528565b965061059060208901610528565b955061059e60408901610528565b94506105ac60608901610528565b93506105ba60808901610528565b92506105c860a08901610528565b91506105d660c08901610528565b905092959891949750929550565b6020808252600e908201526d24b73b30b634b21031b0b63632b960911b60408201526060019056fea2646970667358221220a85789738c78b441891da7e7d966c3c1ef5b831562f4314a0d76d8cc1d3662cf64736f6c63430008150033",
			"opcodes": "PUSH1 0x80 PUSH1 0x40 MSTORE CALLVALUE DUP1 ISZERO PUSH2 0xF JUMPI PUSH0 DUP1 REVERT JUMPDEST POP PUSH2 0x642 DUP1 PUSH2 0x1D PUSH0 CODECOPY PUSH0 RETURN INVALID PUSH1 0x80 PUSH1 0x40 MSTORE CALLVALUE DUP1 ISZERO PUSH2 0xF JUMPI PUSH0 DUP1 REVERT JUMPDEST POP PUSH1 0x4 CALLDATASIZE LT PUSH2 0xF0 JUMPI PUSH0 CALLDATALOAD PUSH1 0xE0 SHR DUP1 PUSH4 0x9960D742 GT PUSH2 0x93 JUMPI DUP1 PUSH4 0xE7F43C68 GT PUSH2 0x63 JUMPI DUP1 PUSH4 0xE7F43C68 EQ PUSH2 0x1D4 JUMPI DUP1 PUSH4 0xEDD3159D EQ PUSH2 0x1E5 JUMPI DUP1 PUSH4 0xF2FDE38B EQ PUSH2 0x1F6 JUMPI DUP1 PUSH4 0xF5A62E19 EQ PUSH2 0x209 JUMPI PUSH0 DUP1 REVERT JUMPDEST DUP1 PUSH4 0x9960D742 EQ PUSH2 0x18E JUMPI DUP1 PUSH4 0xB0F479A1 EQ PUSH2 0x19F JUMPI DUP1 PUSH4 0xC0D78655 EQ PUSH2 0x1B0 JUMPI DUP1 PUSH4 0xCF20D872 EQ PUSH2 0x1C3 JUMPI PUSH0 DUP1 REVERT JUMPDEST DUP1 PUSH4 0x4CF8A130 GT PUSH2 0xCE JUMPI DUP1 PUSH4 0x4CF8A130 EQ PUSH2 0x145 JUMPI DUP1 PUSH4 0x893D20E8 EQ PUSH2 0x158 JUMPI DUP1 PUSH4 0x8E2B44C5 EQ PUSH2 0x168 JUMPI DUP1 PUSH4 0x92EEFE9B EQ PUSH2 0x17B JUMPI PUSH0 DUP1 REVERT JUMPDEST DUP1 PUSH4 0xA93A7D8 EQ PUSH2 0xF4 JUMPI DUP1 PUSH4 0x3018205F EQ PUSH2 0x109 JUMPI DUP1 PUSH4 0x35876476 EQ PUSH2 0x132 JUMPI JUMPDEST PUSH0 DUP1 REVERT JUMPDEST PUSH2 0x107 PUSH2 0x102 CALLDATASIZE PUSH1 0x4 PUSH2 0x543 JUMP JUMPDEST PUSH2 0x21C JUMP JUMPDEST STOP JUMPDEST PUSH1 0x1 SLOAD PUSH1 0x1 PUSH1 0x1 PUSH1 0xA0 SHL SUB AND JUMPDEST PUSH1 0x40 MLOAD PUSH1 0x1 PUSH1 0x1 PUSH1 0xA0 SHL SUB SWAP1 SWAP2 AND DUP2 MSTORE PUSH1 0x20 ADD PUSH1 0x40 MLOAD DUP1 SWAP2 SUB SWAP1 RETURN JUMPDEST PUSH2 0x107 PUSH2 0x140 CALLDATASIZE PUSH1 0x4 PUSH2 0x563 JUMP JUMPDEST PUSH2 0x25A JUMP JUMPDEST PUSH2 0x107 PUSH2 0x153 CALLDATASIZE PUSH1 0x4 PUSH2 0x543 JUMP JUMPDEST PUSH2 0x30F JUMP JUMPDEST PUSH0 SLOAD PUSH1 0x1 PUSH1 0x1 PUSH1 0xA0 SHL SUB AND PUSH2 0x116 JUMP JUMPDEST PUSH2 0x107 PUSH2 0x176 CALLDATASIZE PUSH1 0x4 PUSH2 0x543 JUMP JUMPDEST PUSH2 0x341 JUMP JUMPDEST PUSH2 0x107 PUSH2 0x189 CALLDATASIZE PUSH1 0x4 PUSH2 0x543 JUMP JUMPDEST PUSH2 0x373 JUMP JUMPDEST PUSH1 0x6 SLOAD PUSH1 0x1 PUSH1 0x1 PUSH1 0xA0 SHL SUB AND PUSH2 0x116 JUMP JUMPDEST PUSH1 0x3 SLOAD PUSH1 0x1 PUSH1 0x1 PUSH1 0xA0 SHL SUB AND PUSH2 0x116 JUMP JUMPDEST PUSH2 0x107 PUSH2 0x1BE CALLDATASIZE PUSH1 0x4 PUSH2 0x543 JUMP JUMPDEST PUSH2 0x3A5 JUMP JUMPDEST PUSH1 0x2 SLOAD PUSH1 0x1 PUSH1 0x1 PUSH1 0xA0 SHL SUB AND PUSH2 0x116 JUMP JUMPDEST PUSH1 0x4 SLOAD PUSH1 0x1 PUSH1 0x1 PUSH1 0xA0 SHL SUB AND PUSH2 0x116 JUMP JUMPDEST PUSH1 0x5 SLOAD PUSH1 0x1 PUSH1 0x1 PUSH1 0xA0 SHL SUB AND PUSH2 0x116 JUMP JUMPDEST PUSH2 0x107 PUSH2 0x204 CALLDATASIZE PUSH1 0x4 PUSH2 0x543 JUMP JUMPDEST PUSH2 0x3D7 JUMP JUMPDEST PUSH2 0x107 PUSH2 0x217 CALLDATASIZE PUSH1 0x4 PUSH2 0x543 JUMP JUMPDEST PUSH2 0x409 JUMP JUMPDEST PUSH0 SLOAD PUSH1 0x1 PUSH1 0x1 PUSH1 0xA0 SHL SUB AND CALLER EQ PUSH2 0x24E JUMPI PUSH1 0x40 MLOAD PUSH3 0x461BCD PUSH1 0xE5 SHL DUP2 MSTORE PUSH1 0x4 ADD PUSH2 0x245 SWAP1 PUSH2 0x5E4 JUMP JUMPDEST PUSH1 0x40 MLOAD DUP1 SWAP2 SUB SWAP1 REVERT JUMPDEST PUSH2 0x257 DUP2 PUSH2 0x43B JUMP JUMPDEST POP JUMP JUMPDEST PUSH1 0x6 SLOAD PUSH1 0x1 PUSH1 0xA0 SHL SWAP1 DIV PUSH1 0xFF AND ISZERO PUSH2 0x2B4 JUMPI PUSH1 0x40 MLOAD PUSH3 0x461BCD PUSH1 0xE5 SHL DUP2 MSTORE PUSH1 0x20 PUSH1 0x4 DUP3 ADD MSTORE PUSH1 0x1F PUSH1 0x24 DUP3 ADD MSTORE PUSH32 0x436F6E747261637420697320696E697469616C697A656420616C726561647900 PUSH1 0x44 DUP3 ADD MSTORE PUSH1 0x64 ADD PUSH2 0x245 JUMP JUMPDEST PUSH2 0x2BD DUP8 PUSH2 0x45D JUMP JUMPDEST PUSH2 0x2C6 DUP7 PUSH2 0x47E JUMP JUMPDEST PUSH2 0x2CF DUP6 PUSH2 0x43B JUMP JUMPDEST PUSH2 0x2D8 DUP5 PUSH2 0x4A0 JUMP JUMPDEST PUSH2 0x2E1 DUP4 PUSH2 0x4C2 JUMP JUMPDEST PUSH2 0x2EA DUP2 PUSH2 0x4E4 JUMP JUMPDEST PUSH2 0x2F3 DUP3 PUSH2 0x506 JUMP JUMPDEST POP POP PUSH1 0x6 DUP1 SLOAD PUSH1 0xFF PUSH1 0xA0 SHL NOT AND PUSH1 0x1 PUSH1 0xA0 SHL OR SWAP1 SSTORE POP POP POP POP POP JUMP JUMPDEST PUSH0 SLOAD PUSH1 0x1 PUSH1 0x1 PUSH1 0xA0 SHL SUB AND CALLER EQ PUSH2 0x338 JUMPI PUSH1 0x40 MLOAD PUSH3 0x461BCD PUSH1 0xE5 SHL DUP2 MSTORE PUSH1 0x4 ADD PUSH2 0x245 SWAP1 PUSH2 0x5E4 JUMP JUMPDEST PUSH2 0x257 DUP2 PUSH2 0x4C2 JUMP JUMPDEST PUSH0 SLOAD PUSH1 0x1 PUSH1 0x1 PUSH1 0xA0 SHL SUB AND CALLER EQ PUSH2 0x36A JUMPI PUSH1 0x40 MLOAD PUSH3 0x461BCD PUSH1 0xE5 SHL DUP2 MSTORE PUSH1 0x4 ADD PUSH2 0x245 SWAP1 PUSH2 0x5E4 JUMP JUMPDEST PUSH2 0x257 DUP2 PUSH2 0x4E4 JUMP JUMPDEST PUSH0 SLOAD PUSH1 0x1 PUSH1 0x1 PUSH1 0xA0 SHL SUB AND CALLER EQ PUSH2 0x39C JUMPI PUSH1 0x40 MLOAD PUSH3 0x461BCD PUSH1 0xE5 SHL DUP2 MSTORE PUSH1 0x4 ADD PUSH2 0x245 SWAP1 PUSH2 0x5E4 JUMP JUMPDEST PUSH2 0x257 DUP2 PUSH2 0x47E JUMP JUMPDEST PUSH0 SLOAD PUSH1 0x1 PUSH1 0x1 PUSH1 0xA0 SHL SUB AND CALLER EQ PUSH2 0x3CE JUMPI PUSH1 0x40 MLOAD PUSH3 0x461BCD PUSH1 0xE5 SHL DUP2 MSTORE PUSH1 0x4 ADD PUSH2 0x245 SWAP1 PUSH2 0x5E4 JUMP JUMPDEST PUSH2 0x257 DUP2 PUSH2 0x4A0 JUMP JUMPDEST PUSH0 SLOAD PUSH1 0x1 PUSH1 0x1 PUSH1 0xA0 SHL SUB AND CALLER EQ PUSH2 0x400 JUMPI PUSH1 0x40 MLOAD PUSH3 0x461BCD PUSH1 0xE5 SHL DUP2 MSTORE PUSH1 0x4 ADD PUSH2 0x245 SWAP1 PUSH2 0x5E4 JUMP JUMPDEST PUSH2 0x257 DUP2 PUSH2 0x45D JUMP JUMPDEST PUSH0 SLOAD PUSH1 0x1 PUSH1 0x1 PUSH1 0xA0 SHL SUB AND CALLER EQ PUSH2 0x432 JUMPI PUSH1 0x40 MLOAD PUSH3 0x461BCD PUSH1 0xE5 SHL DUP2 MSTORE PUSH1 0x4 ADD PUSH2 0x245 SWAP1 PUSH2 0x5E4 JUMP JUMPDEST PUSH2 0x257 DUP2 PUSH2 0x506 JUMP JUMPDEST PUSH1 0x2 DUP1 SLOAD PUSH1 0x1 PUSH1 0x1 PUSH1 0xA0 SHL SUB NOT AND PUSH1 0x1 PUSH1 0x1 PUSH1 0xA0 SHL SUB SWAP3 SWAP1 SWAP3 AND SWAP2 SWAP1 SWAP2 OR SWAP1 SSTORE JUMP JUMPDEST PUSH0 DUP1 SLOAD PUSH1 0x1 PUSH1 0x1 PUSH1 0xA0 SHL SUB NOT AND PUSH1 0x1 PUSH1 0x1 PUSH1 0xA0 SHL SUB SWAP3 SWAP1 SWAP3 AND SWAP2 SWAP1 SWAP2 OR SWAP1 SSTORE JUMP JUMPDEST PUSH1 0x1 DUP1 SLOAD PUSH1 0x1 PUSH1 0x1 PUSH1 0xA0 SHL SUB NOT AND PUSH1 0x1 PUSH1 0x1 PUSH1 0xA0 SHL SUB SWAP3 SWAP1 SWAP3 AND SWAP2 SWAP1 SWAP2 OR SWAP1 SSTORE JUMP JUMPDEST PUSH1 0x3 DUP1 SLOAD PUSH1 0x1 PUSH1 0x1 PUSH1 0xA0 SHL SUB NOT AND PUSH1 0x1 PUSH1 0x1 PUSH1 0xA0 SHL SUB SWAP3 SWAP1 SWAP3 AND SWAP2 SWAP1 SWAP2 OR SWAP1 SSTORE JUMP JUMPDEST PUSH1 0x4 DUP1 SLOAD PUSH1 0x1 PUSH1 0x1 PUSH1 0xA0 SHL SUB NOT AND PUSH1 0x1 PUSH1 0x1 PUSH1 0xA0 SHL SUB SWAP3 SWAP1 SWAP3 AND SWAP2 SWAP1 SWAP2 OR SWAP1 SSTORE JUMP JUMPDEST PUSH1 0x6 DUP1 SLOAD PUSH1 0x1 PUSH1 0x1 PUSH1 0xA0 SHL SUB NOT AND PUSH1 0x1 PUSH1 0x1 PUSH1 0xA0 SHL SUB SWAP3 SWAP1 SWAP3 AND SWAP2 SWAP1 SWAP2 OR SWAP1 SSTORE JUMP JUMPDEST PUSH1 0x5 DUP1 SLOAD PUSH1 0x1 PUSH1 0x1 PUSH1 0xA0 SHL SUB NOT AND PUSH1 0x1 PUSH1 0x1 PUSH1 0xA0 SHL SUB SWAP3 SWAP1 SWAP3 AND SWAP2 SWAP1 SWAP2 OR SWAP1 SSTORE JUMP JUMPDEST DUP1 CALLDATALOAD PUSH1 0x1 PUSH1 0x1 PUSH1 0xA0 SHL SUB DUP2 AND DUP2 EQ PUSH2 0x53E JUMPI PUSH0 DUP1 REVERT JUMPDEST SWAP2 SWAP1 POP JUMP JUMPDEST PUSH0 PUSH1 0x20 DUP3 DUP5 SUB SLT ISZERO PUSH2 0x553 JUMPI PUSH0 DUP1 REVERT JUMPDEST PUSH2 0x55C DUP3 PUSH2 0x528 JUMP JUMPDEST SWAP4 SWAP3 POP POP POP JUMP JUMPDEST PUSH0 DUP1 PUSH0 DUP1 PUSH0 DUP1 PUSH0 PUSH1 0xE0 DUP9 DUP11 SUB SLT ISZERO PUSH2 0x579 JUMPI PUSH0 DUP1 REVERT JUMPDEST PUSH2 0x582 DUP9 PUSH2 0x528 JUMP JUMPDEST SWAP7 POP PUSH2 0x590 PUSH1 0x20 DUP10 ADD PUSH2 0x528 JUMP JUMPDEST SWAP6 POP PUSH2 0x59E PUSH1 0x40 DUP10 ADD PUSH2 0x528 JUMP JUMPDEST SWAP5 POP PUSH2 0x5AC PUSH1 0x60 DUP10 ADD PUSH2 0x528 JUMP JUMPDEST SWAP4 POP PUSH2 0x5BA PUSH1 0x80 DUP10 ADD PUSH2 0x528 JUMP JUMPDEST SWAP3 POP PUSH2 0x5C8 PUSH1 0xA0 DUP10 ADD PUSH2 0x528 JUMP JUMPDEST SWAP2 POP PUSH2 0x5D6 PUSH1 0xC0 DUP10 ADD PUSH2 0x528 JUMP JUMPDEST SWAP1 POP SWAP3 SWAP6 SWAP9 SWAP2 SWAP5 SWAP8 POP SWAP3 SWAP6 POP JUMP JUMPDEST PUSH1 0x20 DUP1 DUP3 MSTORE PUSH1 0xE SWAP1 DUP3 ADD MSTORE PUSH14 0x24B73B30B634B21031B0B63632B9 PUSH1 0x91 SHL PUSH1 0x40 DUP3 ADD MSTORE PUSH1 0x60 ADD SWAP1 JUMP INVALID LOG2 PUSH5 0x6970667358 0x22 SLT KECCAK256 0xA8 JUMPI DUP10 PUSH20 0x8C78B441891DA7E7D966C3C1EF5B831562F4314A 0xD PUSH23 0xD8CC1D3662CF64736F6C63430008150033000000000000 "
		},
		"gasEstimates": {
			"creation": {
				"codeDepositCost": "320400",
				"executionCost": "360",
				"totalCost": "320760"
			},
			"external": {
				"getController()": "2353",
				"getOperator()": "2340",
				"getOwner()": "2362",
				"getReserveAddress()": "2341",
				"getRewardDistributor()": "2407",
				"getRouter()": "2363",
				"getVRF()": "2362",
				"initialize(address,address,address,address,address,address,address)": "infinite",
				"setController(address)": "26826",
				"setOperatorRole(address)": "26760",
				"setRouter(address)": "26804",
				"setVRF(address)": "26825",
				"setrewardDistributor(address)": "26761",
				"transferOwnership(address)": "26802",
				"transferReserveAddr(address)": "26804"
			},
			"internal": {
				"_transferControllerRole(address)": "24278",
				"_transferOperatorRole(address)": "24278",
				"_transferOwnerShip(address)": "24277",
				"_transferReserveAddr(address)": "24278",
				"_transferRewardDistributorRole(address)": "24278",
				"_transferRouter(address)": "24278",
				"_transferVRF(address)": "24278"
			}
		},
		"methodIdentifiers": {
			"getController()": "3018205f",
			"getOperator()": "e7f43c68",
			"getOwner()": "893d20e8",
			"getReserveAddress()": "9960d742",
			"getRewardDistributor()": "cf20d872",
			"getRouter()": "b0f479a1",
			"getVRF()": "edd3159d",
			"initialize(address,address,address,address,address,address,address)": "35876476",
			"setController(address)": "92eefe9b",
			"setOperatorRole(address)": "4cf8a130",
			"setRouter(address)": "c0d78655",
			"setVRF(address)": "f5a62e19",
			"setrewardDistributor(address)": "0a93a7d8",
			"transferOwnership(address)": "f2fde38b",
			"transferReserveAddr(address)": "8e2b44c5"
		}
	},
	"abi": [
		{
			"inputs": [],
			"name": "getController",
			"outputs": [
				{
					"internalType": "address",
					"name": "",
					"type": "address"
				}
			],
			"stateMutability": "view",
			"type": "function"
		},
		{
			"inputs": [],
			"name": "getOperator",
			"outputs": [
				{
					"internalType": "address",
					"name": "",
					"type": "address"
				}
			],
			"stateMutability": "view",
			"type": "function"
		},
		{
			"inputs": [],
			"name": "getOwner",
			"outputs": [
				{
					"internalType": "address",
					"name": "",
					"type": "address"
				}
			],
			"stateMutability": "view",
			"type": "function"
		},
		{
			"inputs": [],
			"name": "getReserveAddress",
			"outputs": [
				{
					"internalType": "address",
					"name": "",
					"type": "address"
				}
			],
			"stateMutability": "view",
			"type": "function"
		},
		{
			"inputs": [],
			"name": "getRewardDistributor",
			"outputs": [
				{
					"internalType": "address",
					"name": "",
					"type": "address"
				}
			],
			"stateMutability": "view",
			"type": "function"
		},
		{
			"inputs": [],
			"name": "getRouter",
			"outputs": [
				{
					"internalType": "address",
					"name": "",
					"type": "address"
				}
			],
			"stateMutability": "view",
			"type": "function"
		},
		{
			"inputs": [],
			"name": "getVRF",
			"outputs": [
				{
					"internalType": "address",
					"name": "",
					"type": "address"
				}
			],
			"stateMutability": "view",
			"type": "function"
		},
		{
			"inputs": [
				{
					"internalType": "address",
					"name": "ownerAddr",
					"type": "address"
				},
				{
					"internalType": "address",
					"name": "controllerAddr",
					"type": "address"
				},
				{
					"internalType": "address",
					"name": "distributorAddr",
					"type": "address"
				},
				{
					"internalType": "address",
					"name": "routerAddr",
					"type": "address"
				},
				{
					"internalType": "address",
					"name": "operatorAddr",
					"type": "address"
				},
				{
					"internalType": "address",
					"name": "VRFv2DirectFundingConsumerAddress",
					"type": "address"
				},
				{
					"internalType": "address",
					"name": "reserveAddr",
					"type": "address"
				}
			],
			"name": "initialize",
			"outputs": [],
			"stateMutability": "nonpayable",
			"type": "function"
		},
		{
			"inputs": [
				{
					"internalType": "address",
					"name": "newController",
					"type": "address"
				}
			],
			"name": "setController",
			"outputs": [],
			"stateMutability": "nonpayable",
			"type": "function"
		},
		{
			"inputs": [
				{
					"internalType": "address",
					"name": "operatorAddr",
					"type": "address"
				}
			],
			"name": "setOperatorRole",
			"outputs": [],
			"stateMutability": "nonpayable",
			"type": "function"
		},
		{
			"inputs": [
				{
					"internalType": "address",
					"name": "newRouter",
					"type": "address"
				}
			],
			"name": "setRouter",
			"outputs": [],
			"stateMutability": "nonpayable",
			"type": "function"
		},
		{
			"inputs": [
				{
					"internalType": "address",
					"name": "newVRF",
					"type": "address"
				}
			],
			"name": "setVRF",
			"outputs": [],
			"stateMutability": "nonpayable",
			"type": "function"
		},
		{
			"inputs": [
				{
					"internalType": "address",
					"name": "newDistributor",
					"type": "address"
				}
			],
			"name": "setrewardDistributor",
			"outputs": [],
			"stateMutability": "nonpayable",
			"type": "function"
		},
		{
			"inputs": [
				{
					"internalType": "address",
					"name": "newOwner",
					"type": "address"
				}
			],
			"name": "transferOwnership",
			"outputs": [],
			"stateMutability": "nonpayable",
			"type": "function"
		},
		{
			"inputs": [
				{
					"internalType": "address",
					"name": "reserveAddr",
					"type": "address"
				}
			],
			"name": "transferReserveAddr",
			"outputs": [],
			"stateMutability": "nonpayable",
			"type": "function"
		}
	]
}