{
	"data": {
		"bytecode": {
			"linkReferences": {},
			"object": "608060405234801561000f575f80fd5b50612c138061001d5f395ff3fe608060405260043610610120575f3560e01c8063ae169a50116100a4578063d914cd4b1161006b578063d914cd4b1461033e578063e2bbb1581461035d578063f50a93511461037c578063fa7c828a146103aa578063fac4348b146103c9578063fdc9ccfa1461042457005b8063ae169a501461025f578063b3944d521461027e578063b8764c3914610292578063c4d66de8146102d8578063d1e71c94146102f757005b80635f311150116100e85780635f311150146101c457806360ab49ea146101e3578063888d7bdd146102025780638f24463014610221578063a38dcbd01461024057005b80633e7eae7f14610122578063441a3e70146101415780634d5d336e1461016057806357ba8dde146101735780635922f9c9146101a5575b005b34801561012d575f80fd5b5061012061013c366004612732565b61050c565b34801561014c575f80fd5b5061012061015b36600461274d565b6105cd565b61012061016e36600461276d565b6106d3565b34801561017e575f80fd5b5061019261018d3660046127fb565b610771565b6040519081526020015b60405180910390f35b3480156101b0575f80fd5b506101926101bf366004612831565b61082f565b3480156101cf575f80fd5b506101926101de366004612831565b6108dc565b3480156101ee575f80fd5b506101926101fd366004612831565b61095b565b34801561020d575f80fd5b5061019261021c366004612848565b6109da565b34801561022c575f80fd5b5061019261023b366004612831565b610a90565b34801561024b575f80fd5b5061012061025a366004612831565b610b0f565b34801561026a575f80fd5b50610120610279366004612831565b610c69565b348015610289575f80fd5b50600154610192565b34801561029d575f80fd5b506102b16102ac366004612831565b610e5e565b6040805182516001600160a01b03908116825260209384015116928101929092520161019c565b3480156102e3575f80fd5b506101206102f2366004612732565b610ef6565b348015610302575f80fd5b5061032e610311366004612732565b6001600160a01b03165f9081526004602052604090205460ff1690565b604051901515815260200161019c565b348015610349575f80fd5b50610120610358366004612732565b610f6f565b348015610368575f80fd5b5061012061037736600461274d565b611122565b348015610387575f80fd5b5061032e610396366004612732565b60046020525f908152604090205460ff1681565b3480156103b5575f80fd5b506101206103c4366004612732565b611234565b3480156103d4575f80fd5b506103e86103e3366004612872565b6112d6565b60405161019c919081516001600160a01b0316815260208083015190820152604080830151908201526060918201519181019190915260800190565b34801561042f575f80fd5b5061044361043e36600461274d565b6114be565b60405161019c9190815180516001600160a01b03168252602080820151908301526040908101511515908201526101c0810160208381015180516001600160a01b031660608501529081015160808401526040810151151560a08401525060408381015180516001600160a01b031660c0850152602081015160e08501529081015115156101008401525060608301511515610120830152608083015161014083015260a083015161016083015260c083015161018083015260e0909201516101a09091015290565b60025460408051633018205f60e01b815290515f926001600160a01b031691633018205f9160048083019260209291908290030181865afa158015610553573d5f803e3d5ffd5b505050506040513d601f19601f8201168201806040525081019061057791906128a0565b9050336001600160a01b038216146105aa5760405162461bcd60e51b81526004016105a1906128bb565b60405180910390fd5b50600380546001600160a01b0319166001600160a01b0392909216919091179055565b6001805483916105de908290611c72565b8211156105fd5760405162461bcd60e51b81526004016105a1906128e3565b5f541561061c5760405162461bcd60e51b81526004016105a19061290f565b60015f819055505f6001858154811061063757610637612935565b5f9182526020918290206040805180820190915260029092020180546001600160a01b03908116808452600190920154169282018390529092509061067e33838389611c86565b604080513381526001600160a01b03841660208201529081018790527f53f917d4e27ae27751aa814f667aa2382dc59d7dd33b9b9b887abec7b2da18289060600160405180910390a150505f80555050505050565b5f54156106f25760405162461bcd60e51b81526004016105a19061290f565b60015f819055505f6001868154811061070d5761070d612935565b5f91825260208083206040805180820190915260029093020180546001600160a01b039081168085526001909201541691830182905291935090916107558289898989611d86565b905061076333848484611e80565b50505f805550505050505050565b600180545f91849190610785908290611c72565b8211156107a45760405162461bcd60e51b81526004016105a1906128e3565b5f6107ae86610e5e565b5160405163d474fbf760e01b8152600481018990526001600160a01b0387811660248301529192505f9183169063d474fbf790604401602060405180830381865afa1580156107ff573d5f803e3d5ffd5b505050506040513d601f19601f820116820180604052508101906108239190612949565b98975050505050505050565b600180545f91839190610843908290611c72565b8211156108625760405162461bcd60e51b81526004016105a1906128e3565b5f61086c85610e5e565b5f015190505f816001600160a01b031663a3d74f066040518163ffffffff1660e01b8152600401602060405180830381865afa1580156108ae573d5f803e3d5ffd5b505050506040513d601f19601f820116820180604052508101906108d29190612949565b9695505050505050565b600180545f918391906108f0908290611c72565b82111561090f5760405162461bcd60e51b81526004016105a1906128e3565b5f61091985610e5e565b5f015190505f816001600160a01b031663361f1ad36040518163ffffffff1660e01b8152600401602060405180830381865afa1580156108ae573d5f803e3d5ffd5b600180545f9183919061096f908290611c72565b82111561098e5760405162461bcd60e51b81526004016105a1906128e3565b5f61099885610e5e565b5f015190505f816001600160a01b031663fd2324de6040518163ffffffff1660e01b8152600401602060405180830381865afa1580156108ae573d5f803e3d5ffd5b600180545f918391906109ee908290611c72565b821115610a0d5760405162461bcd60e51b81526004016105a1906128e3565b5f610a1785610e5e565b5160405163a583024b60e01b81526001600160a01b0388811660048301529192505f9183169063a583024b90602401602060405180830381865afa158015610a61573d5f803e3d5ffd5b505050506040513d601f19601f82011682018060405250810190610a859190612949565b979650505050505050565b600180545f91839190610aa4908290611c72565b821115610ac35760405162461bcd60e51b81526004016105a1906128e3565b5f610acd85610e5e565b5f015190505f816001600160a01b03166326be90bf6040518163ffffffff1660e01b8152600401602060405180830381865afa1580156108ae573d5f803e3d5ffd5b60025460408051633018205f60e01b815290515f926001600160a01b031691633018205f9160048083019260209291908290030181865afa158015610b56573d5f803e3d5ffd5b505050506040513d601f19601f82011682018060405250810190610b7a91906128a0565b9050336001600160a01b03821614610ba45760405162461bcd60e51b81526004016105a1906128bb565b6001805490610bb39082612960565b831115610bd25760405162461bcd60e51b81526004016105a1906128e3565b5f60018481548110610be657610be6612935565b5f918252602090912060029091020154600180546001600160a01b0390921692509085908110610c1857610c18612935565b5f9182526020808320600290920290910180546001600160a01b031990811682556001909101805490911690556001600160a01b03929092168152600490915260409020805460ff19169055505050565b600180548291610c7a908290611c72565b821115610c995760405162461bcd60e51b81526004016105a1906128e3565b5f5415610cb85760405162461bcd60e51b81526004016105a19061290f565b60015f819055505f60018481548110610cd357610cd3612935565b5f918252602080832060408051808201825260029490940290910180546001600160a01b039081168086526001909201541692840183905290516370a0823160e01b815230600482015292945092909182906370a0823190602401602060405180830381865afa158015610d49573d5f803e3d5ffd5b505050506040513d601f19601f82011682018060405250810190610d6d9190612949565b90505f610d7a3385611e9c565b6040516370a0823160e01b81523060048201529091505f906001600160a01b038516906370a0823190602401602060405180830381865afa158015610dc1573d5f803e3d5ffd5b505050506040513d601f19601f82011682018060405250810190610de59190612949565b90505f610df28285611c72565b9050610dff338683611f50565b604080513381526001600160a01b0388811660208301528716818301526060810185905290517ff5a48ea938b5e8d78be0d8d0d1e277621d4854f2b208ee83ae3702ce61828ab59181900360800190a150505f80555050505050505050565b604080518082019091525f8082526020820152600180548391610e82908290611c72565b821115610ea15760405162461bcd60e51b81526004016105a1906128e3565b5f60018581548110610eb557610eb5612935565b5f9182526020918290206040805180820190915260029092020180546001600160a01b03908116835260019091015416918101919091529350505050919050565b600254600160a01b900460ff1615610f505760405162461bcd60e51b815260206004820152601f60248201527f436f6e747261637420697320696e697469616c697a656420616c72656164790060448201526064016105a1565b610f5981611f69565b506002805460ff60a01b1916600160a01b179055565b60025460408051633018205f60e01b815290515f926001600160a01b031691633018205f9160048083019260209291908290030181865afa158015610fb6573d5f803e3d5ffd5b505050506040513d601f19601f82011682018060405250810190610fda91906128a0565b9050336001600160a01b038216146110045760405162461bcd60e51b81526004016105a1906128bb565b5f826001600160a01b0316630fce03b96040518163ffffffff1660e01b8152600401602060405180830381865afa158015611041573d5f803e3d5ffd5b505050506040513d601f19601f8201168201806040525081019061106591906128a0565b6040805180820182526001600160a01b0395861680825292861660208083019182526001805480820182555f828152945160029091027fb10e2d527612073b26eecdfd717e6a320cf44b4afac2b0732d9fcbe2b7fa0cf681018054928c166001600160a01b031993841617905593517fb10e2d527612073b26eecdfd717e6a320cf44b4afac2b0732d9fcbe2b7fa0cf7909401805494909a169316929092179097559281526004909552909320805460ff19169093179092555050565b600180548391611133908290611c72565b8211156111525760405162461bcd60e51b81526004016105a1906128e3565b5f54156111715760405162461bcd60e51b81526004016105a19061290f565b60015f819055505f6001858154811061118c5761118c612935565b5f91825260208083206040805180820190915260029093020180546001600160a01b039081168085526001909201541691830182905291935090916111d18288611f8b565b90506111df33848484611e80565b604080513381526001600160a01b03851660208201529081018290527e8fa12fdef5e29f599717a6d129ca52c2d8a902498312eab6a78c6090b8e8e09060600160405180910390a150505f8055505050505050565b60025460408051631127a41d60e31b815290515f926001600160a01b03169163893d20e89160048083019260209291908290030181865afa15801561127b573d5f803e3d5ffd5b505050506040513d601f19601f8201168201806040525081019061129f91906128a0565b9050336001600160a01b038216146112c95760405162461bcd60e51b81526004016105a1906128bb565b6112d282611f69565b5050565b61130660405180608001604052805f6001600160a01b031681526020015f81526020015f81526020015f81525090565b600180548491611317908290611c72565b8211156113365760405162461bcd60e51b81526004016105a1906128e3565b5f61134086610e5e565b51604080516080810182526001600160a01b03808916808352925163b3a7834d60e01b815260048101939093529293505f929091602083019185169063b3a7834d90602401608060405180830381865afa1580156113a0573d5f803e3d5ffd5b505050506040513d601f19601f820116820180604052508101906113c491906129b5565b602090810151825260405163b3a7834d60e01b81526001600160a01b038a81166004830152929091019185169063b3a7834d90602401608060405180830381865afa158015611415573d5f803e3d5ffd5b505050506040513d601f19601f8201168201806040525081019061143991906129b5565b60409081015182525163b3a7834d60e01b81526001600160a01b03898116600483015260209092019185169063b3a7834d90602401608060405180830381865afa158015611489573d5f803e3d5ffd5b505050506040513d601f19601f820116820180604052508101906114ad91906129b5565b606001519052979650505050505050565b60408051610160810182525f610100820181815261012083018290526101408301829052825282516060808201855282825260208083018490528286018490528085019290925284518082018652838152918201839052818501839052938301529181018290526080810182905260a0810182905260c0810182905260e0810191909152600180548391611553908290611c72565b8211156115725760405162461bcd60e51b81526004016105a1906128e3565b5f61157c85610e5e565b516040805160608101918290526309a8116160e11b909152606481018890529091505f90806001600160a01b03841663135022c2608483016101c060405180830381865afa1580156115d0573d5f803e3d5ffd5b505050506040513d601f19601f820116820180604052508101906115f49190612ab8565b51516001600160a01b0390811682526040516309a8116160e11b8152600481018b90526020909201919085169063135022c2906024016101c060405180830381865afa158015611646573d5f803e3d5ffd5b505050506040513d601f19601f8201168201806040525081019061166a9190612ab8565b5160209081015182526040516309a8116160e11b8152600481018b90529101906001600160a01b0385169063135022c2906024016101c060405180830381865afa1580156116ba573d5f803e3d5ffd5b505050506040513d601f19601f820116820180604052508101906116de9190612ab8565b516040908101511515909152805160608101918290526309a8116160e11b909152606481018990529091505f90806001600160a01b03851663135022c2608483016101c060405180830381865afa15801561173b573d5f803e3d5ffd5b505050506040513d601f19601f8201168201806040525081019061175f9190612ab8565b602001515f01516001600160a01b03168152602001846001600160a01b031663135022c28b6040518263ffffffff1660e01b81526004016117a291815260200190565b6101c060405180830381865afa1580156117be573d5f803e3d5ffd5b505050506040513d601f19601f820116820180604052508101906117e29190612ab8565b60200151602001518152602001846001600160a01b031663135022c28b6040518263ffffffff1660e01b815260040161181d91815260200190565b6101c060405180830381865afa158015611839573d5f803e3d5ffd5b505050506040513d601f19601f8201168201806040525081019061185d9190612ab8565b6020015160400151151581525090505f6040518060600160405280856001600160a01b031663135022c28c6040518263ffffffff1660e01b81526004016118a691815260200190565b6101c060405180830381865afa1580156118c2573d5f803e3d5ffd5b505050506040513d601f19601f820116820180604052508101906118e69190612ab8565b604001515f01516001600160a01b03168152602001856001600160a01b031663135022c28c6040518263ffffffff1660e01b815260040161192991815260200190565b6101c060405180830381865afa158015611945573d5f803e3d5ffd5b505050506040513d601f19601f820116820180604052508101906119699190612ab8565b60400151602001518152602001856001600160a01b031663135022c28c6040518263ffffffff1660e01b81526004016119a491815260200190565b6101c060405180830381865afa1580156119c0573d5f803e3d5ffd5b505050506040513d601f19601f820116820180604052508101906119e49190612ab8565b6040015160400151151581525090505f604051806101000160405280858152602001848152602001838152602001866001600160a01b031663135022c28d6040518263ffffffff1660e01b8152600401611a4091815260200190565b6101c060405180830381865afa158015611a5c573d5f803e3d5ffd5b505050506040513d601f19601f82011682018060405250810190611a809190612ab8565b6060015115158152602001866001600160a01b031663135022c28d6040518263ffffffff1660e01b8152600401611ab991815260200190565b6101c060405180830381865afa158015611ad5573d5f803e3d5ffd5b505050506040513d601f19601f82011682018060405250810190611af99190612ab8565b608001518152602001866001600160a01b031663135022c28d6040518263ffffffff1660e01b8152600401611b3091815260200190565b6101c060405180830381865afa158015611b4c573d5f803e3d5ffd5b505050506040513d601f19601f82011682018060405250810190611b709190612ab8565b60a001518152602001866001600160a01b031663135022c28d6040518263ffffffff1660e01b8152600401611ba791815260200190565b6101c060405180830381865afa158015611bc3573d5f803e3d5ffd5b505050506040513d601f19601f82011682018060405250810190611be79190612ab8565b60c001518152602001866001600160a01b031663135022c28d6040518263ffffffff1660e01b8152600401611c1e91815260200190565b6101c060405180830381865afa158015611c3a573d5f803e3d5ffd5b505050506040513d601f19601f82011682018060405250810190611c5e9190612ab8565b60e0015190529a9950505050505050505050565b5f611c7d8284612960565b90505b92915050565b6040516370a0823160e01b81523060048201525f906001600160a01b038416906370a0823190602401602060405180830381865afa158015611cca573d5f803e3d5ffd5b505050506040513d601f19601f82011682018060405250810190611cee9190612949565b9050611cfb85858461208b565b6040516370a0823160e01b81523060048201525f906001600160a01b038516906370a0823190602401602060405180830381865afa158015611d3f573d5f803e3d5ffd5b505050506040513d601f19601f82011682018060405250810190611d639190612949565b90505f611d708284611c72565b9050611d7d878683611f50565b50505050505050565b6040516370a0823160e01b81523060048201525f9081906001600160a01b038816906370a0823190602401602060405180830381865afa158015611dcc573d5f803e3d5ffd5b505050506040513d601f19601f82011682018060405250810190611df09190612949565b9050611dfe868686866120f0565b6040516370a0823160e01b81523060048201525f906001600160a01b038916906370a0823190602401602060405180830381865afa158015611e42573d5f803e3d5ffd5b505050506040513d601f19601f82011682018060405250810190611e669190612949565b90505f611e738284611c72565b90505f8111610823575f80fd5b611e8b8383836122c3565b611e968484836122eb565b50505050565b604051631ac6d19d60e01b81526001600160a01b0383811660048301525f918291841690631ac6d19d906024016020604051808303815f875af1158015611ee5573d5f803e3d5ffd5b505050506040513d601f19601f82011682018060405250810190611f099190612949565b90505f8111611c7d5760405162461bcd60e51b81526020600482015260136024820152724e6f207265776172647320746f20636c61696d60681b60448201526064016105a1565b611f646001600160a01b0383168483612320565b505050565b600280546001600160a01b0319166001600160a01b0392909216919091179055565b5f808211611f97575f80fd5b6040516370a0823160e01b81523060048201525f906001600160a01b038516906370a0823190602401602060405180830381865afa158015611fdb573d5f803e3d5ffd5b505050506040513d601f19601f82011682018060405250810190611fff9190612949565b90506120166001600160a01b038516333086612383565b6040516370a0823160e01b81523060048201525f906001600160a01b038616906370a0823190602401602060405180830381865afa15801561205a573d5f803e3d5ffd5b505050506040513d601f19601f8201168201806040525081019061207e9190612949565b90505f6108d28284611c72565b5f8111612096575f80fd5b604051636da8c6d960e11b81526001600160a01b0384811660048301526024820183905283169063db518db2906044015b5f604051808303815f87803b1580156120de575f80fd5b505af1158015611d7d573d5f803e3d5ffd5b6001600160a01b0384165f036121b3578234101561210c575f80fd5b6003546040515f916001600160a01b031690859061212d9086908690612b46565b5f6040518083038185875af1925050503d805f8114612167576040519150601f19603f3d011682016040523d82523d5f602084013e61216c565b606091505b50509050806121ad5760405162461bcd60e51b815260206004820152600d60248201526c0436f756c646e2774207377617609c1b60448201526064016105a1565b50611e96565b34156121bd575f80fd5b5f6121c88585611f8b565b6003549091506121e5906001600160a01b0387811691165f6123bb565b6003546121ff906001600160a01b038781169116836123bb565b6003546040515f916001600160a01b03169082906122209087908790612b46565b5f6040518083038185875af1925050503d805f811461225a576040519150601f19603f3d011682016040523d82523d5f602084013e61225f565b606091505b505060035490915061227e906001600160a01b0388811691165f6123bb565b806122bb5760405162461bcd60e51b815260206004820152600d60248201526c0436f756c646e2774207377617609c1b60448201526064016105a1565b505050505050565b6122d76001600160a01b038316845f6123bb565b611f646001600160a01b03831684836123bb565b6040516317a790f160e11b81526001600160a01b03848116600483015260248201839052831690632f4f21e2906044016120c7565b6040516001600160a01b038316602482015260448101829052611f6490849063a9059cbb60e01b906064015b60408051601f198184030181529190526020810180516001600160e01b03166001600160e01b0319909316929092179091526124ce565b6040516001600160a01b0380851660248301528316604482015260648101829052611e969085906323b872dd60e01b9060840161234c565b8015806124335750604051636eb1769f60e11b81523060048201526001600160a01b03838116602483015284169063dd62ed3e90604401602060405180830381865afa15801561240d573d5f803e3d5ffd5b505050506040513d601f19601f820116820180604052508101906124319190612949565b155b61249e5760405162461bcd60e51b815260206004820152603660248201527f5361666545524332303a20617070726f76652066726f6d206e6f6e2d7a65726f60448201527520746f206e6f6e2d7a65726f20616c6c6f77616e636560501b60648201526084016105a1565b6040516001600160a01b038316602482015260448101829052611f6490849063095ea7b360e01b9060640161234c565b5f612522826040518060400160405280602081526020017f5361666545524332303a206c6f772d6c6576656c2063616c6c206661696c6564815250856001600160a01b03166125a19092919063ffffffff16565b905080515f14806125425750808060200190518101906125429190612b55565b611f645760405162461bcd60e51b815260206004820152602a60248201527f5361666545524332303a204552433230206f7065726174696f6e20646964206e6044820152691bdd081cdd58d8d9595960b21b60648201526084016105a1565b60606125af84845f856125b7565b949350505050565b6060824710156126185760405162461bcd60e51b815260206004820152602660248201527f416464726573733a20696e73756666696369656e742062616c616e636520666f6044820152651c8818d85b1b60d21b60648201526084016105a1565b5f80866001600160a01b031685876040516126339190612b90565b5f6040518083038185875af1925050503d805f811461266d576040519150601f19603f3d011682016040523d82523d5f602084013e612672565b606091505b5091509150610a8587838387606083156126ec5782515f036126e5576001600160a01b0385163b6126e55760405162461bcd60e51b815260206004820152601d60248201527f416464726573733a2063616c6c20746f206e6f6e2d636f6e747261637400000060448201526064016105a1565b50816125af565b6125af83838151156127015781518083602001fd5b8060405162461bcd60e51b81526004016105a19190612bab565b6001600160a01b038116811461272f575f80fd5b50565b5f60208284031215612742575f80fd5b8135611c7d8161271b565b5f806040838503121561275e575f80fd5b50508035926020909101359150565b5f805f805f60808688031215612781575f80fd5b8535945060208601356127938161271b565b935060408601359250606086013567ffffffffffffffff808211156127b6575f80fd5b818801915088601f8301126127c9575f80fd5b8135818111156127d7575f80fd5b8960208285010111156127e8575f80fd5b9699959850939650602001949392505050565b5f805f6060848603121561280d575f80fd5b833592506020840135915060408401356128268161271b565b809150509250925092565b5f60208284031215612841575f80fd5b5035919050565b5f8060408385031215612859575f80fd5b82356128648161271b565b946020939093013593505050565b5f8060408385031215612883575f80fd5b8235915060208301356128958161271b565b809150509250929050565b5f602082840312156128b0575f80fd5b8151611c7d8161271b565b6020808252600e908201526d24b73b30b634b21031b0b63632b960911b604082015260600190565b602080825260129082015271141bdbdb08191bd95cdb89dd08195e1a5cdd60721b604082015260600190565b6020808252600c908201526b125b1b1959d85b0818d85b1b60a21b604082015260600190565b634e487b7160e01b5f52603260045260245ffd5b5f60208284031215612959575f80fd5b5051919050565b81810381811115611c8057634e487b7160e01b5f52601160045260245ffd5b604051610100810167ffffffffffffffff811182821017156129af57634e487b7160e01b5f52604160045260245ffd5b60405290565b5f608082840312156129c5575f80fd5b6040516080810181811067ffffffffffffffff821117156129f457634e487b7160e01b5f52604160045260245ffd5b6040528251612a028161271b565b808252506020830151602082015260408301516040820152606083015160608201528091505092915050565b80518015158114612a3d575f80fd5b919050565b5f60608284031215612a52575f80fd5b6040516060810181811067ffffffffffffffff82111715612a8157634e487b7160e01b5f52604160045260245ffd5b80604052508091508251612a948161271b565b815260208381015190820152612aac60408401612a2e565b60408201525092915050565b5f6101c08284031215612ac9575f80fd5b612ad161297f565b612adb8484612a42565b8152612aea8460608501612a42565b6020820152612afc8460c08501612a42565b6040820152612b0e6101208401612a2e565b6060820152610140830151608082015261016083015160a082015261018083015160c08201526101a09092015160e083015250919050565b818382375f9101908152919050565b5f60208284031215612b65575f80fd5b611c7d82612a2e565b5f5b83811015612b88578181015183820152602001612b70565b50505f910152565b5f8251612ba1818460208701612b6e565b9190910192915050565b602081525f8251806020840152612bc9816040850160208701612b6e565b601f01601f1916919091016040019291505056fea2646970667358221220a74cd7143ebb2d8b1ea01acf47d1d30251c83e461a000e00f3a1e9a0b9e72f7464736f6c63430008150033",
			"opcodes": "PUSH1 0x80 PUSH1 0x40 MSTORE CALLVALUE DUP1 ISZERO PUSH2 0xF JUMPI PUSH0 DUP1 REVERT JUMPDEST POP PUSH2 0x2C13 DUP1 PUSH2 0x1D PUSH0 CODECOPY PUSH0 RETURN INVALID PUSH1 0x80 PUSH1 0x40 MSTORE PUSH1 0x4 CALLDATASIZE LT PUSH2 0x120 JUMPI PUSH0 CALLDATALOAD PUSH1 0xE0 SHR DUP1 PUSH4 0xAE169A50 GT PUSH2 0xA4 JUMPI DUP1 PUSH4 0xD914CD4B GT PUSH2 0x6B JUMPI DUP1 PUSH4 0xD914CD4B EQ PUSH2 0x33E JUMPI DUP1 PUSH4 0xE2BBB158 EQ PUSH2 0x35D JUMPI DUP1 PUSH4 0xF50A9351 EQ PUSH2 0x37C JUMPI DUP1 PUSH4 0xFA7C828A EQ PUSH2 0x3AA JUMPI DUP1 PUSH4 0xFAC4348B EQ PUSH2 0x3C9 JUMPI DUP1 PUSH4 0xFDC9CCFA EQ PUSH2 0x424 JUMPI STOP JUMPDEST DUP1 PUSH4 0xAE169A50 EQ PUSH2 0x25F JUMPI DUP1 PUSH4 0xB3944D52 EQ PUSH2 0x27E JUMPI DUP1 PUSH4 0xB8764C39 EQ PUSH2 0x292 JUMPI DUP1 PUSH4 0xC4D66DE8 EQ PUSH2 0x2D8 JUMPI DUP1 PUSH4 0xD1E71C94 EQ PUSH2 0x2F7 JUMPI STOP JUMPDEST DUP1 PUSH4 0x5F311150 GT PUSH2 0xE8 JUMPI DUP1 PUSH4 0x5F311150 EQ PUSH2 0x1C4 JUMPI DUP1 PUSH4 0x60AB49EA EQ PUSH2 0x1E3 JUMPI DUP1 PUSH4 0x888D7BDD EQ PUSH2 0x202 JUMPI DUP1 PUSH4 0x8F244630 EQ PUSH2 0x221 JUMPI DUP1 PUSH4 0xA38DCBD0 EQ PUSH2 0x240 JUMPI STOP JUMPDEST DUP1 PUSH4 0x3E7EAE7F EQ PUSH2 0x122 JUMPI DUP1 PUSH4 0x441A3E70 EQ PUSH2 0x141 JUMPI DUP1 PUSH4 0x4D5D336E EQ PUSH2 0x160 JUMPI DUP1 PUSH4 0x57BA8DDE EQ PUSH2 0x173 JUMPI DUP1 PUSH4 0x5922F9C9 EQ PUSH2 0x1A5 JUMPI JUMPDEST STOP JUMPDEST CALLVALUE DUP1 ISZERO PUSH2 0x12D JUMPI PUSH0 DUP1 REVERT JUMPDEST POP PUSH2 0x120 PUSH2 0x13C CALLDATASIZE PUSH1 0x4 PUSH2 0x2732 JUMP JUMPDEST PUSH2 0x50C JUMP JUMPDEST CALLVALUE DUP1 ISZERO PUSH2 0x14C JUMPI PUSH0 DUP1 REVERT JUMPDEST POP PUSH2 0x120 PUSH2 0x15B CALLDATASIZE PUSH1 0x4 PUSH2 0x274D JUMP JUMPDEST PUSH2 0x5CD JUMP JUMPDEST PUSH2 0x120 PUSH2 0x16E CALLDATASIZE PUSH1 0x4 PUSH2 0x276D JUMP JUMPDEST PUSH2 0x6D3 JUMP JUMPDEST CALLVALUE DUP1 ISZERO PUSH2 0x17E JUMPI PUSH0 DUP1 REVERT JUMPDEST POP PUSH2 0x192 PUSH2 0x18D CALLDATASIZE PUSH1 0x4 PUSH2 0x27FB JUMP JUMPDEST PUSH2 0x771 JUMP JUMPDEST PUSH1 0x40 MLOAD SWAP1 DUP2 MSTORE PUSH1 0x20 ADD JUMPDEST PUSH1 0x40 MLOAD DUP1 SWAP2 SUB SWAP1 RETURN JUMPDEST CALLVALUE DUP1 ISZERO PUSH2 0x1B0 JUMPI PUSH0 DUP1 REVERT JUMPDEST POP PUSH2 0x192 PUSH2 0x1BF CALLDATASIZE PUSH1 0x4 PUSH2 0x2831 JUMP JUMPDEST PUSH2 0x82F JUMP JUMPDEST CALLVALUE DUP1 ISZERO PUSH2 0x1CF JUMPI PUSH0 DUP1 REVERT JUMPDEST POP PUSH2 0x192 PUSH2 0x1DE CALLDATASIZE PUSH1 0x4 PUSH2 0x2831 JUMP JUMPDEST PUSH2 0x8DC JUMP JUMPDEST CALLVALUE DUP1 ISZERO PUSH2 0x1EE JUMPI PUSH0 DUP1 REVERT JUMPDEST POP PUSH2 0x192 PUSH2 0x1FD CALLDATASIZE PUSH1 0x4 PUSH2 0x2831 JUMP JUMPDEST PUSH2 0x95B JUMP JUMPDEST CALLVALUE DUP1 ISZERO PUSH2 0x20D JUMPI PUSH0 DUP1 REVERT JUMPDEST POP PUSH2 0x192 PUSH2 0x21C CALLDATASIZE PUSH1 0x4 PUSH2 0x2848 JUMP JUMPDEST PUSH2 0x9DA JUMP JUMPDEST CALLVALUE DUP1 ISZERO PUSH2 0x22C JUMPI PUSH0 DUP1 REVERT JUMPDEST POP PUSH2 0x192 PUSH2 0x23B CALLDATASIZE PUSH1 0x4 PUSH2 0x2831 JUMP JUMPDEST PUSH2 0xA90 JUMP JUMPDEST CALLVALUE DUP1 ISZERO PUSH2 0x24B JUMPI PUSH0 DUP1 REVERT JUMPDEST POP PUSH2 0x120 PUSH2 0x25A CALLDATASIZE PUSH1 0x4 PUSH2 0x2831 JUMP JUMPDEST PUSH2 0xB0F JUMP JUMPDEST CALLVALUE DUP1 ISZERO PUSH2 0x26A JUMPI PUSH0 DUP1 REVERT JUMPDEST POP PUSH2 0x120 PUSH2 0x279 CALLDATASIZE PUSH1 0x4 PUSH2 0x2831 JUMP JUMPDEST PUSH2 0xC69 JUMP JUMPDEST CALLVALUE DUP1 ISZERO PUSH2 0x289 JUMPI PUSH0 DUP1 REVERT JUMPDEST POP PUSH1 0x1 SLOAD PUSH2 0x192 JUMP JUMPDEST CALLVALUE DUP1 ISZERO PUSH2 0x29D JUMPI PUSH0 DUP1 REVERT JUMPDEST POP PUSH2 0x2B1 PUSH2 0x2AC CALLDATASIZE PUSH1 0x4 PUSH2 0x2831 JUMP JUMPDEST PUSH2 0xE5E JUMP JUMPDEST PUSH1 0x40 DUP1 MLOAD DUP3 MLOAD PUSH1 0x1 PUSH1 0x1 PUSH1 0xA0 SHL SUB SWAP1 DUP2 AND DUP3 MSTORE PUSH1 0x20 SWAP4 DUP5 ADD MLOAD AND SWAP3 DUP2 ADD SWAP3 SWAP1 SWAP3 MSTORE ADD PUSH2 0x19C JUMP JUMPDEST CALLVALUE DUP1 ISZERO PUSH2 0x2E3 JUMPI PUSH0 DUP1 REVERT JUMPDEST POP PUSH2 0x120 PUSH2 0x2F2 CALLDATASIZE PUSH1 0x4 PUSH2 0x2732 JUMP JUMPDEST PUSH2 0xEF6 JUMP JUMPDEST CALLVALUE DUP1 ISZERO PUSH2 0x302 JUMPI PUSH0 DUP1 REVERT JUMPDEST POP PUSH2 0x32E PUSH2 0x311 CALLDATASIZE PUSH1 0x4 PUSH2 0x2732 JUMP JUMPDEST PUSH1 0x1 PUSH1 0x1 PUSH1 0xA0 SHL SUB AND PUSH0 SWAP1 DUP2 MSTORE PUSH1 0x4 PUSH1 0x20 MSTORE PUSH1 0x40 SWAP1 KECCAK256 SLOAD PUSH1 0xFF AND SWAP1 JUMP JUMPDEST PUSH1 0x40 MLOAD SWAP1 ISZERO ISZERO DUP2 MSTORE PUSH1 0x20 ADD PUSH2 0x19C JUMP JUMPDEST CALLVALUE DUP1 ISZERO PUSH2 0x349 JUMPI PUSH0 DUP1 REVERT JUMPDEST POP PUSH2 0x120 PUSH2 0x358 CALLDATASIZE PUSH1 0x4 PUSH2 0x2732 JUMP JUMPDEST PUSH2 0xF6F JUMP JUMPDEST CALLVALUE DUP1 ISZERO PUSH2 0x368 JUMPI PUSH0 DUP1 REVERT JUMPDEST POP PUSH2 0x120 PUSH2 0x377 CALLDATASIZE PUSH1 0x4 PUSH2 0x274D JUMP JUMPDEST PUSH2 0x1122 JUMP JUMPDEST CALLVALUE DUP1 ISZERO PUSH2 0x387 JUMPI PUSH0 DUP1 REVERT JUMPDEST POP PUSH2 0x32E PUSH2 0x396 CALLDATASIZE PUSH1 0x4 PUSH2 0x2732 JUMP JUMPDEST PUSH1 0x4 PUSH1 0x20 MSTORE PUSH0 SWAP1 DUP2 MSTORE PUSH1 0x40 SWAP1 KECCAK256 SLOAD PUSH1 0xFF AND DUP2 JUMP JUMPDEST CALLVALUE DUP1 ISZERO PUSH2 0x3B5 JUMPI PUSH0 DUP1 REVERT JUMPDEST POP PUSH2 0x120 PUSH2 0x3C4 CALLDATASIZE PUSH1 0x4 PUSH2 0x2732 JUMP JUMPDEST PUSH2 0x1234 JUMP JUMPDEST CALLVALUE DUP1 ISZERO PUSH2 0x3D4 JUMPI PUSH0 DUP1 REVERT JUMPDEST POP PUSH2 0x3E8 PUSH2 0x3E3 CALLDATASIZE PUSH1 0x4 PUSH2 0x2872 JUMP JUMPDEST PUSH2 0x12D6 JUMP JUMPDEST PUSH1 0x40 MLOAD PUSH2 0x19C SWAP2 SWAP1 DUP2 MLOAD PUSH1 0x1 PUSH1 0x1 PUSH1 0xA0 SHL SUB AND DUP2 MSTORE PUSH1 0x20 DUP1 DUP4 ADD MLOAD SWAP1 DUP3 ADD MSTORE PUSH1 0x40 DUP1 DUP4 ADD MLOAD SWAP1 DUP3 ADD MSTORE PUSH1 0x60 SWAP2 DUP3 ADD MLOAD SWAP2 DUP2 ADD SWAP2 SWAP1 SWAP2 MSTORE PUSH1 0x80 ADD SWAP1 JUMP JUMPDEST CALLVALUE DUP1 ISZERO PUSH2 0x42F JUMPI PUSH0 DUP1 REVERT JUMPDEST POP PUSH2 0x443 PUSH2 0x43E CALLDATASIZE PUSH1 0x4 PUSH2 0x274D JUMP JUMPDEST PUSH2 0x14BE JUMP JUMPDEST PUSH1 0x40 MLOAD PUSH2 0x19C SWAP2 SWAP1 DUP2 MLOAD DUP1 MLOAD PUSH1 0x1 PUSH1 0x1 PUSH1 0xA0 SHL SUB AND DUP3 MSTORE PUSH1 0x20 DUP1 DUP3 ADD MLOAD SWAP1 DUP4 ADD MSTORE PUSH1 0x40 SWAP1 DUP2 ADD MLOAD ISZERO ISZERO SWAP1 DUP3 ADD MSTORE PUSH2 0x1C0 DUP2 ADD PUSH1 0x20 DUP4 DUP2 ADD MLOAD DUP1 MLOAD PUSH1 0x1 PUSH1 0x1 PUSH1 0xA0 SHL SUB AND PUSH1 0x60 DUP6 ADD MSTORE SWAP1 DUP2 ADD MLOAD PUSH1 0x80 DUP5 ADD MSTORE PUSH1 0x40 DUP2 ADD MLOAD ISZERO ISZERO PUSH1 0xA0 DUP5 ADD MSTORE POP PUSH1 0x40 DUP4 DUP2 ADD MLOAD DUP1 MLOAD PUSH1 0x1 PUSH1 0x1 PUSH1 0xA0 SHL SUB AND PUSH1 0xC0 DUP6 ADD MSTORE PUSH1 0x20 DUP2 ADD MLOAD PUSH1 0xE0 DUP6 ADD MSTORE SWAP1 DUP2 ADD MLOAD ISZERO ISZERO PUSH2 0x100 DUP5 ADD MSTORE POP PUSH1 0x60 DUP4 ADD MLOAD ISZERO ISZERO PUSH2 0x120 DUP4 ADD MSTORE PUSH1 0x80 DUP4 ADD MLOAD PUSH2 0x140 DUP4 ADD MSTORE PUSH1 0xA0 DUP4 ADD MLOAD PUSH2 0x160 DUP4 ADD MSTORE PUSH1 0xC0 DUP4 ADD MLOAD PUSH2 0x180 DUP4 ADD MSTORE PUSH1 0xE0 SWAP1 SWAP3 ADD MLOAD PUSH2 0x1A0 SWAP1 SWAP2 ADD MSTORE SWAP1 JUMP JUMPDEST PUSH1 0x2 SLOAD PUSH1 0x40 DUP1 MLOAD PUSH4 0x3018205F PUSH1 0xE0 SHL DUP2 MSTORE SWAP1 MLOAD PUSH0 SWAP3 PUSH1 0x1 PUSH1 0x1 PUSH1 0xA0 SHL SUB AND SWAP2 PUSH4 0x3018205F SWAP2 PUSH1 0x4 DUP1 DUP4 ADD SWAP3 PUSH1 0x20 SWAP3 SWAP2 SWAP1 DUP3 SWAP1 SUB ADD DUP2 DUP7 GAS STATICCALL ISZERO DUP1 ISZERO PUSH2 0x553 JUMPI RETURNDATASIZE PUSH0 DUP1 RETURNDATACOPY RETURNDATASIZE PUSH0 REVERT JUMPDEST POP POP POP POP PUSH1 0x40 MLOAD RETURNDATASIZE PUSH1 0x1F NOT PUSH1 0x1F DUP3 ADD AND DUP3 ADD DUP1 PUSH1 0x40 MSTORE POP DUP2 ADD SWAP1 PUSH2 0x577 SWAP2 SWAP1 PUSH2 0x28A0 JUMP JUMPDEST SWAP1 POP CALLER PUSH1 0x1 PUSH1 0x1 PUSH1 0xA0 SHL SUB DUP3 AND EQ PUSH2 0x5AA JUMPI PUSH1 0x40 MLOAD PUSH3 0x461BCD PUSH1 0xE5 SHL DUP2 MSTORE PUSH1 0x4 ADD PUSH2 0x5A1 SWAP1 PUSH2 0x28BB JUMP JUMPDEST PUSH1 0x40 MLOAD DUP1 SWAP2 SUB SWAP1 REVERT JUMPDEST POP PUSH1 0x3 DUP1 SLOAD PUSH1 0x1 PUSH1 0x1 PUSH1 0xA0 SHL SUB NOT AND PUSH1 0x1 PUSH1 0x1 PUSH1 0xA0 SHL SUB SWAP3 SWAP1 SWAP3 AND SWAP2 SWAP1 SWAP2 OR SWAP1 SSTORE JUMP JUMPDEST PUSH1 0x1 DUP1 SLOAD DUP4 SWAP2 PUSH2 0x5DE SWAP1 DUP3 SWAP1 PUSH2 0x1C72 JUMP JUMPDEST DUP3 GT ISZERO PUSH2 0x5FD JUMPI PUSH1 0x40 MLOAD PUSH3 0x461BCD PUSH1 0xE5 SHL DUP2 MSTORE PUSH1 0x4 ADD PUSH2 0x5A1 SWAP1 PUSH2 0x28E3 JUMP JUMPDEST PUSH0 SLOAD ISZERO PUSH2 0x61C JUMPI PUSH1 0x40 MLOAD PUSH3 0x461BCD PUSH1 0xE5 SHL DUP2 MSTORE PUSH1 0x4 ADD PUSH2 0x5A1 SWAP1 PUSH2 0x290F JUMP JUMPDEST PUSH1 0x1 PUSH0 DUP2 SWAP1 SSTORE POP PUSH0 PUSH1 0x1 DUP6 DUP2 SLOAD DUP2 LT PUSH2 0x637 JUMPI PUSH2 0x637 PUSH2 0x2935 JUMP JUMPDEST PUSH0 SWAP2 DUP3 MSTORE PUSH1 0x20 SWAP2 DUP3 SWAP1 KECCAK256 PUSH1 0x40 DUP1 MLOAD DUP1 DUP3 ADD SWAP1 SWAP2 MSTORE PUSH1 0x2 SWAP1 SWAP3 MUL ADD DUP1 SLOAD PUSH1 0x1 PUSH1 0x1 PUSH1 0xA0 SHL SUB SWAP1 DUP2 AND DUP1 DUP5 MSTORE PUSH1 0x1 SWAP1 SWAP3 ADD SLOAD AND SWAP3 DUP3 ADD DUP4 SWAP1 MSTORE SWAP1 SWAP3 POP SWAP1 PUSH2 0x67E CALLER DUP4 DUP4 DUP10 PUSH2 0x1C86 JUMP JUMPDEST PUSH1 0x40 DUP1 MLOAD CALLER DUP2 MSTORE PUSH1 0x1 PUSH1 0x1 PUSH1 0xA0 SHL SUB DUP5 AND PUSH1 0x20 DUP3 ADD MSTORE SWAP1 DUP2 ADD DUP8 SWAP1 MSTORE PUSH32 0x53F917D4E27AE27751AA814F667AA2382DC59D7DD33B9B9B887ABEC7B2DA1828 SWAP1 PUSH1 0x60 ADD PUSH1 0x40 MLOAD DUP1 SWAP2 SUB SWAP1 LOG1 POP POP PUSH0 DUP1 SSTORE POP POP POP POP POP JUMP JUMPDEST PUSH0 SLOAD ISZERO PUSH2 0x6F2 JUMPI PUSH1 0x40 MLOAD PUSH3 0x461BCD PUSH1 0xE5 SHL DUP2 MSTORE PUSH1 0x4 ADD PUSH2 0x5A1 SWAP1 PUSH2 0x290F JUMP JUMPDEST PUSH1 0x1 PUSH0 DUP2 SWAP1 SSTORE POP PUSH0 PUSH1 0x1 DUP7 DUP2 SLOAD DUP2 LT PUSH2 0x70D JUMPI PUSH2 0x70D PUSH2 0x2935 JUMP JUMPDEST PUSH0 SWAP2 DUP3 MSTORE PUSH1 0x20 DUP1 DUP4 KECCAK256 PUSH1 0x40 DUP1 MLOAD DUP1 DUP3 ADD SWAP1 SWAP2 MSTORE PUSH1 0x2 SWAP1 SWAP4 MUL ADD DUP1 SLOAD PUSH1 0x1 PUSH1 0x1 PUSH1 0xA0 SHL SUB SWAP1 DUP2 AND DUP1 DUP6 MSTORE PUSH1 0x1 SWAP1 SWAP3 ADD SLOAD AND SWAP2 DUP4 ADD DUP3 SWAP1 MSTORE SWAP2 SWAP4 POP SWAP1 SWAP2 PUSH2 0x755 DUP3 DUP10 DUP10 DUP10 DUP10 PUSH2 0x1D86 JUMP JUMPDEST SWAP1 POP PUSH2 0x763 CALLER DUP5 DUP5 DUP5 PUSH2 0x1E80 JUMP JUMPDEST POP POP PUSH0 DUP1 SSTORE POP POP POP POP POP POP POP JUMP JUMPDEST PUSH1 0x1 DUP1 SLOAD PUSH0 SWAP2 DUP5 SWAP2 SWAP1 PUSH2 0x785 SWAP1 DUP3 SWAP1 PUSH2 0x1C72 JUMP JUMPDEST DUP3 GT ISZERO PUSH2 0x7A4 JUMPI PUSH1 0x40 MLOAD PUSH3 0x461BCD PUSH1 0xE5 SHL DUP2 MSTORE PUSH1 0x4 ADD PUSH2 0x5A1 SWAP1 PUSH2 0x28E3 JUMP JUMPDEST PUSH0 PUSH2 0x7AE DUP7 PUSH2 0xE5E JUMP JUMPDEST MLOAD PUSH1 0x40 MLOAD PUSH4 0xD474FBF7 PUSH1 0xE0 SHL DUP2 MSTORE PUSH1 0x4 DUP2 ADD DUP10 SWAP1 MSTORE PUSH1 0x1 PUSH1 0x1 PUSH1 0xA0 SHL SUB DUP8 DUP2 AND PUSH1 0x24 DUP4 ADD MSTORE SWAP2 SWAP3 POP PUSH0 SWAP2 DUP4 AND SWAP1 PUSH4 0xD474FBF7 SWAP1 PUSH1 0x44 ADD PUSH1 0x20 PUSH1 0x40 MLOAD DUP1 DUP4 SUB DUP2 DUP7 GAS STATICCALL ISZERO DUP1 ISZERO PUSH2 0x7FF JUMPI RETURNDATASIZE PUSH0 DUP1 RETURNDATACOPY RETURNDATASIZE PUSH0 REVERT JUMPDEST POP POP POP POP PUSH1 0x40 MLOAD RETURNDATASIZE PUSH1 0x1F NOT PUSH1 0x1F DUP3 ADD AND DUP3 ADD DUP1 PUSH1 0x40 MSTORE POP DUP2 ADD SWAP1 PUSH2 0x823 SWAP2 SWAP1 PUSH2 0x2949 JUMP JUMPDEST SWAP9 SWAP8 POP POP POP POP POP POP POP POP JUMP JUMPDEST PUSH1 0x1 DUP1 SLOAD PUSH0 SWAP2 DUP4 SWAP2 SWAP1 PUSH2 0x843 SWAP1 DUP3 SWAP1 PUSH2 0x1C72 JUMP JUMPDEST DUP3 GT ISZERO PUSH2 0x862 JUMPI PUSH1 0x40 MLOAD PUSH3 0x461BCD PUSH1 0xE5 SHL DUP2 MSTORE PUSH1 0x4 ADD PUSH2 0x5A1 SWAP1 PUSH2 0x28E3 JUMP JUMPDEST PUSH0 PUSH2 0x86C DUP6 PUSH2 0xE5E JUMP JUMPDEST PUSH0 ADD MLOAD SWAP1 POP PUSH0 DUP2 PUSH1 0x1 PUSH1 0x1 PUSH1 0xA0 SHL SUB AND PUSH4 0xA3D74F06 PUSH1 0x40 MLOAD DUP2 PUSH4 0xFFFFFFFF AND PUSH1 0xE0 SHL DUP2 MSTORE PUSH1 0x4 ADD PUSH1 0x20 PUSH1 0x40 MLOAD DUP1 DUP4 SUB DUP2 DUP7 GAS STATICCALL ISZERO DUP1 ISZERO PUSH2 0x8AE JUMPI RETURNDATASIZE PUSH0 DUP1 RETURNDATACOPY RETURNDATASIZE PUSH0 REVERT JUMPDEST POP POP POP POP PUSH1 0x40 MLOAD RETURNDATASIZE PUSH1 0x1F NOT PUSH1 0x1F DUP3 ADD AND DUP3 ADD DUP1 PUSH1 0x40 MSTORE POP DUP2 ADD SWAP1 PUSH2 0x8D2 SWAP2 SWAP1 PUSH2 0x2949 JUMP JUMPDEST SWAP7 SWAP6 POP POP POP POP POP POP JUMP JUMPDEST PUSH1 0x1 DUP1 SLOAD PUSH0 SWAP2 DUP4 SWAP2 SWAP1 PUSH2 0x8F0 SWAP1 DUP3 SWAP1 PUSH2 0x1C72 JUMP JUMPDEST DUP3 GT ISZERO PUSH2 0x90F JUMPI PUSH1 0x40 MLOAD PUSH3 0x461BCD PUSH1 0xE5 SHL DUP2 MSTORE PUSH1 0x4 ADD PUSH2 0x5A1 SWAP1 PUSH2 0x28E3 JUMP JUMPDEST PUSH0 PUSH2 0x919 DUP6 PUSH2 0xE5E JUMP JUMPDEST PUSH0 ADD MLOAD SWAP1 POP PUSH0 DUP2 PUSH1 0x1 PUSH1 0x1 PUSH1 0xA0 SHL SUB AND PUSH4 0x361F1AD3 PUSH1 0x40 MLOAD DUP2 PUSH4 0xFFFFFFFF AND PUSH1 0xE0 SHL DUP2 MSTORE PUSH1 0x4 ADD PUSH1 0x20 PUSH1 0x40 MLOAD DUP1 DUP4 SUB DUP2 DUP7 GAS STATICCALL ISZERO DUP1 ISZERO PUSH2 0x8AE JUMPI RETURNDATASIZE PUSH0 DUP1 RETURNDATACOPY RETURNDATASIZE PUSH0 REVERT JUMPDEST PUSH1 0x1 DUP1 SLOAD PUSH0 SWAP2 DUP4 SWAP2 SWAP1 PUSH2 0x96F SWAP1 DUP3 SWAP1 PUSH2 0x1C72 JUMP JUMPDEST DUP3 GT ISZERO PUSH2 0x98E JUMPI PUSH1 0x40 MLOAD PUSH3 0x461BCD PUSH1 0xE5 SHL DUP2 MSTORE PUSH1 0x4 ADD PUSH2 0x5A1 SWAP1 PUSH2 0x28E3 JUMP JUMPDEST PUSH0 PUSH2 0x998 DUP6 PUSH2 0xE5E JUMP JUMPDEST PUSH0 ADD MLOAD SWAP1 POP PUSH0 DUP2 PUSH1 0x1 PUSH1 0x1 PUSH1 0xA0 SHL SUB AND PUSH4 0xFD2324DE PUSH1 0x40 MLOAD DUP2 PUSH4 0xFFFFFFFF AND PUSH1 0xE0 SHL DUP2 MSTORE PUSH1 0x4 ADD PUSH1 0x20 PUSH1 0x40 MLOAD DUP1 DUP4 SUB DUP2 DUP7 GAS STATICCALL ISZERO DUP1 ISZERO PUSH2 0x8AE JUMPI RETURNDATASIZE PUSH0 DUP1 RETURNDATACOPY RETURNDATASIZE PUSH0 REVERT JUMPDEST PUSH1 0x1 DUP1 SLOAD PUSH0 SWAP2 DUP4 SWAP2 SWAP1 PUSH2 0x9EE SWAP1 DUP3 SWAP1 PUSH2 0x1C72 JUMP JUMPDEST DUP3 GT ISZERO PUSH2 0xA0D JUMPI PUSH1 0x40 MLOAD PUSH3 0x461BCD PUSH1 0xE5 SHL DUP2 MSTORE PUSH1 0x4 ADD PUSH2 0x5A1 SWAP1 PUSH2 0x28E3 JUMP JUMPDEST PUSH0 PUSH2 0xA17 DUP6 PUSH2 0xE5E JUMP JUMPDEST MLOAD PUSH1 0x40 MLOAD PUSH4 0xA583024B PUSH1 0xE0 SHL DUP2 MSTORE PUSH1 0x1 PUSH1 0x1 PUSH1 0xA0 SHL SUB DUP9 DUP2 AND PUSH1 0x4 DUP4 ADD MSTORE SWAP2 SWAP3 POP PUSH0 SWAP2 DUP4 AND SWAP1 PUSH4 0xA583024B SWAP1 PUSH1 0x24 ADD PUSH1 0x20 PUSH1 0x40 MLOAD DUP1 DUP4 SUB DUP2 DUP7 GAS STATICCALL ISZERO DUP1 ISZERO PUSH2 0xA61 JUMPI RETURNDATASIZE PUSH0 DUP1 RETURNDATACOPY RETURNDATASIZE PUSH0 REVERT JUMPDEST POP POP POP POP PUSH1 0x40 MLOAD RETURNDATASIZE PUSH1 0x1F NOT PUSH1 0x1F DUP3 ADD AND DUP3 ADD DUP1 PUSH1 0x40 MSTORE POP DUP2 ADD SWAP1 PUSH2 0xA85 SWAP2 SWAP1 PUSH2 0x2949 JUMP JUMPDEST SWAP8 SWAP7 POP POP POP POP POP POP POP JUMP JUMPDEST PUSH1 0x1 DUP1 SLOAD PUSH0 SWAP2 DUP4 SWAP2 SWAP1 PUSH2 0xAA4 SWAP1 DUP3 SWAP1 PUSH2 0x1C72 JUMP JUMPDEST DUP3 GT ISZERO PUSH2 0xAC3 JUMPI PUSH1 0x40 MLOAD PUSH3 0x461BCD PUSH1 0xE5 SHL DUP2 MSTORE PUSH1 0x4 ADD PUSH2 0x5A1 SWAP1 PUSH2 0x28E3 JUMP JUMPDEST PUSH0 PUSH2 0xACD DUP6 PUSH2 0xE5E JUMP JUMPDEST PUSH0 ADD MLOAD SWAP1 POP PUSH0 DUP2 PUSH1 0x1 PUSH1 0x1 PUSH1 0xA0 SHL SUB AND PUSH4 0x26BE90BF PUSH1 0x40 MLOAD DUP2 PUSH4 0xFFFFFFFF AND PUSH1 0xE0 SHL DUP2 MSTORE PUSH1 0x4 ADD PUSH1 0x20 PUSH1 0x40 MLOAD DUP1 DUP4 SUB DUP2 DUP7 GAS STATICCALL ISZERO DUP1 ISZERO PUSH2 0x8AE JUMPI RETURNDATASIZE PUSH0 DUP1 RETURNDATACOPY RETURNDATASIZE PUSH0 REVERT JUMPDEST PUSH1 0x2 SLOAD PUSH1 0x40 DUP1 MLOAD PUSH4 0x3018205F PUSH1 0xE0 SHL DUP2 MSTORE SWAP1 MLOAD PUSH0 SWAP3 PUSH1 0x1 PUSH1 0x1 PUSH1 0xA0 SHL SUB AND SWAP2 PUSH4 0x3018205F SWAP2 PUSH1 0x4 DUP1 DUP4 ADD SWAP3 PUSH1 0x20 SWAP3 SWAP2 SWAP1 DUP3 SWAP1 SUB ADD DUP2 DUP7 GAS STATICCALL ISZERO DUP1 ISZERO PUSH2 0xB56 JUMPI RETURNDATASIZE PUSH0 DUP1 RETURNDATACOPY RETURNDATASIZE PUSH0 REVERT JUMPDEST POP POP POP POP PUSH1 0x40 MLOAD RETURNDATASIZE PUSH1 0x1F NOT PUSH1 0x1F DUP3 ADD AND DUP3 ADD DUP1 PUSH1 0x40 MSTORE POP DUP2 ADD SWAP1 PUSH2 0xB7A SWAP2 SWAP1 PUSH2 0x28A0 JUMP JUMPDEST SWAP1 POP CALLER PUSH1 0x1 PUSH1 0x1 PUSH1 0xA0 SHL SUB DUP3 AND EQ PUSH2 0xBA4 JUMPI PUSH1 0x40 MLOAD PUSH3 0x461BCD PUSH1 0xE5 SHL DUP2 MSTORE PUSH1 0x4 ADD PUSH2 0x5A1 SWAP1 PUSH2 0x28BB JUMP JUMPDEST PUSH1 0x1 DUP1 SLOAD SWAP1 PUSH2 0xBB3 SWAP1 DUP3 PUSH2 0x2960 JUMP JUMPDEST DUP4 GT ISZERO PUSH2 0xBD2 JUMPI PUSH1 0x40 MLOAD PUSH3 0x461BCD PUSH1 0xE5 SHL DUP2 MSTORE PUSH1 0x4 ADD PUSH2 0x5A1 SWAP1 PUSH2 0x28E3 JUMP JUMPDEST PUSH0 PUSH1 0x1 DUP5 DUP2 SLOAD DUP2 LT PUSH2 0xBE6 JUMPI PUSH2 0xBE6 PUSH2 0x2935 JUMP JUMPDEST PUSH0 SWAP2 DUP3 MSTORE PUSH1 0x20 SWAP1 SWAP2 KECCAK256 PUSH1 0x2 SWAP1 SWAP2 MUL ADD SLOAD PUSH1 0x1 DUP1 SLOAD PUSH1 0x1 PUSH1 0x1 PUSH1 0xA0 SHL SUB SWAP1 SWAP3 AND SWAP3 POP SWAP1 DUP6 SWAP1 DUP2 LT PUSH2 0xC18 JUMPI PUSH2 0xC18 PUSH2 0x2935 JUMP JUMPDEST PUSH0 SWAP2 DUP3 MSTORE PUSH1 0x20 DUP1 DUP4 KECCAK256 PUSH1 0x2 SWAP1 SWAP3 MUL SWAP1 SWAP2 ADD DUP1 SLOAD PUSH1 0x1 PUSH1 0x1 PUSH1 0xA0 SHL SUB NOT SWAP1 DUP2 AND DUP3 SSTORE PUSH1 0x1 SWAP1 SWAP2 ADD DUP1 SLOAD SWAP1 SWAP2 AND SWAP1 SSTORE PUSH1 0x1 PUSH1 0x1 PUSH1 0xA0 SHL SUB SWAP3 SWAP1 SWAP3 AND DUP2 MSTORE PUSH1 0x4 SWAP1 SWAP2 MSTORE PUSH1 0x40 SWAP1 KECCAK256 DUP1 SLOAD PUSH1 0xFF NOT AND SWAP1 SSTORE POP POP POP JUMP JUMPDEST PUSH1 0x1 DUP1 SLOAD DUP3 SWAP2 PUSH2 0xC7A SWAP1 DUP3 SWAP1 PUSH2 0x1C72 JUMP JUMPDEST DUP3 GT ISZERO PUSH2 0xC99 JUMPI PUSH1 0x40 MLOAD PUSH3 0x461BCD PUSH1 0xE5 SHL DUP2 MSTORE PUSH1 0x4 ADD PUSH2 0x5A1 SWAP1 PUSH2 0x28E3 JUMP JUMPDEST PUSH0 SLOAD ISZERO PUSH2 0xCB8 JUMPI PUSH1 0x40 MLOAD PUSH3 0x461BCD PUSH1 0xE5 SHL DUP2 MSTORE PUSH1 0x4 ADD PUSH2 0x5A1 SWAP1 PUSH2 0x290F JUMP JUMPDEST PUSH1 0x1 PUSH0 DUP2 SWAP1 SSTORE POP PUSH0 PUSH1 0x1 DUP5 DUP2 SLOAD DUP2 LT PUSH2 0xCD3 JUMPI PUSH2 0xCD3 PUSH2 0x2935 JUMP JUMPDEST PUSH0 SWAP2 DUP3 MSTORE PUSH1 0x20 DUP1 DUP4 KECCAK256 PUSH1 0x40 DUP1 MLOAD DUP1 DUP3 ADD DUP3 MSTORE PUSH1 0x2 SWAP5 SWAP1 SWAP5 MUL SWAP1 SWAP2 ADD DUP1 SLOAD PUSH1 0x1 PUSH1 0x1 PUSH1 0xA0 SHL SUB SWAP1 DUP2 AND DUP1 DUP7 MSTORE PUSH1 0x1 SWAP1 SWAP3 ADD SLOAD AND SWAP3 DUP5 ADD DUP4 SWAP1 MSTORE SWAP1 MLOAD PUSH4 0x70A08231 PUSH1 0xE0 SHL DUP2 MSTORE ADDRESS PUSH1 0x4 DUP3 ADD MSTORE SWAP3 SWAP5 POP SWAP3 SWAP1 SWAP2 DUP3 SWAP1 PUSH4 0x70A08231 SWAP1 PUSH1 0x24 ADD PUSH1 0x20 PUSH1 0x40 MLOAD DUP1 DUP4 SUB DUP2 DUP7 GAS STATICCALL ISZERO DUP1 ISZERO PUSH2 0xD49 JUMPI RETURNDATASIZE PUSH0 DUP1 RETURNDATACOPY RETURNDATASIZE PUSH0 REVERT JUMPDEST POP POP POP POP PUSH1 0x40 MLOAD RETURNDATASIZE PUSH1 0x1F NOT PUSH1 0x1F DUP3 ADD AND DUP3 ADD DUP1 PUSH1 0x40 MSTORE POP DUP2 ADD SWAP1 PUSH2 0xD6D SWAP2 SWAP1 PUSH2 0x2949 JUMP JUMPDEST SWAP1 POP PUSH0 PUSH2 0xD7A CALLER DUP6 PUSH2 0x1E9C JUMP JUMPDEST PUSH1 0x40 MLOAD PUSH4 0x70A08231 PUSH1 0xE0 SHL DUP2 MSTORE ADDRESS PUSH1 0x4 DUP3 ADD MSTORE SWAP1 SWAP2 POP PUSH0 SWAP1 PUSH1 0x1 PUSH1 0x1 PUSH1 0xA0 SHL SUB DUP6 AND SWAP1 PUSH4 0x70A08231 SWAP1 PUSH1 0x24 ADD PUSH1 0x20 PUSH1 0x40 MLOAD DUP1 DUP4 SUB DUP2 DUP7 GAS STATICCALL ISZERO DUP1 ISZERO PUSH2 0xDC1 JUMPI RETURNDATASIZE PUSH0 DUP1 RETURNDATACOPY RETURNDATASIZE PUSH0 REVERT JUMPDEST POP POP POP POP PUSH1 0x40 MLOAD RETURNDATASIZE PUSH1 0x1F NOT PUSH1 0x1F DUP3 ADD AND DUP3 ADD DUP1 PUSH1 0x40 MSTORE POP DUP2 ADD SWAP1 PUSH2 0xDE5 SWAP2 SWAP1 PUSH2 0x2949 JUMP JUMPDEST SWAP1 POP PUSH0 PUSH2 0xDF2 DUP3 DUP6 PUSH2 0x1C72 JUMP JUMPDEST SWAP1 POP PUSH2 0xDFF CALLER DUP7 DUP4 PUSH2 0x1F50 JUMP JUMPDEST PUSH1 0x40 DUP1 MLOAD CALLER DUP2 MSTORE PUSH1 0x1 PUSH1 0x1 PUSH1 0xA0 SHL SUB DUP9 DUP2 AND PUSH1 0x20 DUP4 ADD MSTORE DUP8 AND DUP2 DUP4 ADD MSTORE PUSH1 0x60 DUP2 ADD DUP6 SWAP1 MSTORE SWAP1 MLOAD PUSH32 0xF5A48EA938B5E8D78BE0D8D0D1E277621D4854F2B208EE83AE3702CE61828AB5 SWAP2 DUP2 SWAP1 SUB PUSH1 0x80 ADD SWAP1 LOG1 POP POP PUSH0 DUP1 SSTORE POP POP POP POP POP POP POP POP JUMP JUMPDEST PUSH1 0x40 DUP1 MLOAD DUP1 DUP3 ADD SWAP1 SWAP2 MSTORE PUSH0 DUP1 DUP3 MSTORE PUSH1 0x20 DUP3 ADD MSTORE PUSH1 0x1 DUP1 SLOAD DUP4 SWAP2 PUSH2 0xE82 SWAP1 DUP3 SWAP1 PUSH2 0x1C72 JUMP JUMPDEST DUP3 GT ISZERO PUSH2 0xEA1 JUMPI PUSH1 0x40 MLOAD PUSH3 0x461BCD PUSH1 0xE5 SHL DUP2 MSTORE PUSH1 0x4 ADD PUSH2 0x5A1 SWAP1 PUSH2 0x28E3 JUMP JUMPDEST PUSH0 PUSH1 0x1 DUP6 DUP2 SLOAD DUP2 LT PUSH2 0xEB5 JUMPI PUSH2 0xEB5 PUSH2 0x2935 JUMP JUMPDEST PUSH0 SWAP2 DUP3 MSTORE PUSH1 0x20 SWAP2 DUP3 SWAP1 KECCAK256 PUSH1 0x40 DUP1 MLOAD DUP1 DUP3 ADD SWAP1 SWAP2 MSTORE PUSH1 0x2 SWAP1 SWAP3 MUL ADD DUP1 SLOAD PUSH1 0x1 PUSH1 0x1 PUSH1 0xA0 SHL SUB SWAP1 DUP2 AND DUP4 MSTORE PUSH1 0x1 SWAP1 SWAP2 ADD SLOAD AND SWAP2 DUP2 ADD SWAP2 SWAP1 SWAP2 MSTORE SWAP4 POP POP POP POP SWAP2 SWAP1 POP JUMP JUMPDEST PUSH1 0x2 SLOAD PUSH1 0x1 PUSH1 0xA0 SHL SWAP1 DIV PUSH1 0xFF AND ISZERO PUSH2 0xF50 JUMPI PUSH1 0x40 MLOAD PUSH3 0x461BCD PUSH1 0xE5 SHL DUP2 MSTORE PUSH1 0x20 PUSH1 0x4 DUP3 ADD MSTORE PUSH1 0x1F PUSH1 0x24 DUP3 ADD MSTORE PUSH32 0x436F6E747261637420697320696E697469616C697A656420616C726561647900 PUSH1 0x44 DUP3 ADD MSTORE PUSH1 0x64 ADD PUSH2 0x5A1 JUMP JUMPDEST PUSH2 0xF59 DUP2 PUSH2 0x1F69 JUMP JUMPDEST POP PUSH1 0x2 DUP1 SLOAD PUSH1 0xFF PUSH1 0xA0 SHL NOT AND PUSH1 0x1 PUSH1 0xA0 SHL OR SWAP1 SSTORE JUMP JUMPDEST PUSH1 0x2 SLOAD PUSH1 0x40 DUP1 MLOAD PUSH4 0x3018205F PUSH1 0xE0 SHL DUP2 MSTORE SWAP1 MLOAD PUSH0 SWAP3 PUSH1 0x1 PUSH1 0x1 PUSH1 0xA0 SHL SUB AND SWAP2 PUSH4 0x3018205F SWAP2 PUSH1 0x4 DUP1 DUP4 ADD SWAP3 PUSH1 0x20 SWAP3 SWAP2 SWAP1 DUP3 SWAP1 SUB ADD DUP2 DUP7 GAS STATICCALL ISZERO DUP1 ISZERO PUSH2 0xFB6 JUMPI RETURNDATASIZE PUSH0 DUP1 RETURNDATACOPY RETURNDATASIZE PUSH0 REVERT JUMPDEST POP POP POP POP PUSH1 0x40 MLOAD RETURNDATASIZE PUSH1 0x1F NOT PUSH1 0x1F DUP3 ADD AND DUP3 ADD DUP1 PUSH1 0x40 MSTORE POP DUP2 ADD SWAP1 PUSH2 0xFDA SWAP2 SWAP1 PUSH2 0x28A0 JUMP JUMPDEST SWAP1 POP CALLER PUSH1 0x1 PUSH1 0x1 PUSH1 0xA0 SHL SUB DUP3 AND EQ PUSH2 0x1004 JUMPI PUSH1 0x40 MLOAD PUSH3 0x461BCD PUSH1 0xE5 SHL DUP2 MSTORE PUSH1 0x4 ADD PUSH2 0x5A1 SWAP1 PUSH2 0x28BB JUMP JUMPDEST PUSH0 DUP3 PUSH1 0x1 PUSH1 0x1 PUSH1 0xA0 SHL SUB AND PUSH4 0xFCE03B9 PUSH1 0x40 MLOAD DUP2 PUSH4 0xFFFFFFFF AND PUSH1 0xE0 SHL DUP2 MSTORE PUSH1 0x4 ADD PUSH1 0x20 PUSH1 0x40 MLOAD DUP1 DUP4 SUB DUP2 DUP7 GAS STATICCALL ISZERO DUP1 ISZERO PUSH2 0x1041 JUMPI RETURNDATASIZE PUSH0 DUP1 RETURNDATACOPY RETURNDATASIZE PUSH0 REVERT JUMPDEST POP POP POP POP PUSH1 0x40 MLOAD RETURNDATASIZE PUSH1 0x1F NOT PUSH1 0x1F DUP3 ADD AND DUP3 ADD DUP1 PUSH1 0x40 MSTORE POP DUP2 ADD SWAP1 PUSH2 0x1065 SWAP2 SWAP1 PUSH2 0x28A0 JUMP JUMPDEST PUSH1 0x40 DUP1 MLOAD DUP1 DUP3 ADD DUP3 MSTORE PUSH1 0x1 PUSH1 0x1 PUSH1 0xA0 SHL SUB SWAP6 DUP7 AND DUP1 DUP3 MSTORE SWAP3 DUP7 AND PUSH1 0x20 DUP1 DUP4 ADD SWAP2 DUP3 MSTORE PUSH1 0x1 DUP1 SLOAD DUP1 DUP3 ADD DUP3 SSTORE PUSH0 DUP3 DUP2 MSTORE SWAP5 MLOAD PUSH1 0x2 SWAP1 SWAP2 MUL PUSH32 0xB10E2D527612073B26EECDFD717E6A320CF44B4AFAC2B0732D9FCBE2B7FA0CF6 DUP2 ADD DUP1 SLOAD SWAP3 DUP13 AND PUSH1 0x1 PUSH1 0x1 PUSH1 0xA0 SHL SUB NOT SWAP4 DUP5 AND OR SWAP1 SSTORE SWAP4 MLOAD PUSH32 0xB10E2D527612073B26EECDFD717E6A320CF44B4AFAC2B0732D9FCBE2B7FA0CF7 SWAP1 SWAP5 ADD DUP1 SLOAD SWAP5 SWAP1 SWAP11 AND SWAP4 AND SWAP3 SWAP1 SWAP3 OR SWAP1 SWAP8 SSTORE SWAP3 DUP2 MSTORE PUSH1 0x4 SWAP1 SWAP6 MSTORE SWAP1 SWAP4 KECCAK256 DUP1 SLOAD PUSH1 0xFF NOT AND SWAP1 SWAP4 OR SWAP1 SWAP3 SSTORE POP POP JUMP JUMPDEST PUSH1 0x1 DUP1 SLOAD DUP4 SWAP2 PUSH2 0x1133 SWAP1 DUP3 SWAP1 PUSH2 0x1C72 JUMP JUMPDEST DUP3 GT ISZERO PUSH2 0x1152 JUMPI PUSH1 0x40 MLOAD PUSH3 0x461BCD PUSH1 0xE5 SHL DUP2 MSTORE PUSH1 0x4 ADD PUSH2 0x5A1 SWAP1 PUSH2 0x28E3 JUMP JUMPDEST PUSH0 SLOAD ISZERO PUSH2 0x1171 JUMPI PUSH1 0x40 MLOAD PUSH3 0x461BCD PUSH1 0xE5 SHL DUP2 MSTORE PUSH1 0x4 ADD PUSH2 0x5A1 SWAP1 PUSH2 0x290F JUMP JUMPDEST PUSH1 0x1 PUSH0 DUP2 SWAP1 SSTORE POP PUSH0 PUSH1 0x1 DUP6 DUP2 SLOAD DUP2 LT PUSH2 0x118C JUMPI PUSH2 0x118C PUSH2 0x2935 JUMP JUMPDEST PUSH0 SWAP2 DUP3 MSTORE PUSH1 0x20 DUP1 DUP4 KECCAK256 PUSH1 0x40 DUP1 MLOAD DUP1 DUP3 ADD SWAP1 SWAP2 MSTORE PUSH1 0x2 SWAP1 SWAP4 MUL ADD DUP1 SLOAD PUSH1 0x1 PUSH1 0x1 PUSH1 0xA0 SHL SUB SWAP1 DUP2 AND DUP1 DUP6 MSTORE PUSH1 0x1 SWAP1 SWAP3 ADD SLOAD AND SWAP2 DUP4 ADD DUP3 SWAP1 MSTORE SWAP2 SWAP4 POP SWAP1 SWAP2 PUSH2 0x11D1 DUP3 DUP9 PUSH2 0x1F8B JUMP JUMPDEST SWAP1 POP PUSH2 0x11DF CALLER DUP5 DUP5 DUP5 PUSH2 0x1E80 JUMP JUMPDEST PUSH1 0x40 DUP1 MLOAD CALLER DUP2 MSTORE PUSH1 0x1 PUSH1 0x1 PUSH1 0xA0 SHL SUB DUP6 AND PUSH1 0x20 DUP3 ADD MSTORE SWAP1 DUP2 ADD DUP3 SWAP1 MSTORE PUSH31 0x8FA12FDEF5E29F599717A6D129CA52C2D8A902498312EAB6A78C6090B8E8E0 SWAP1 PUSH1 0x60 ADD PUSH1 0x40 MLOAD DUP1 SWAP2 SUB SWAP1 LOG1 POP POP PUSH0 DUP1 SSTORE POP POP POP POP POP POP JUMP JUMPDEST PUSH1 0x2 SLOAD PUSH1 0x40 DUP1 MLOAD PUSH4 0x1127A41D PUSH1 0xE3 SHL DUP2 MSTORE SWAP1 MLOAD PUSH0 SWAP3 PUSH1 0x1 PUSH1 0x1 PUSH1 0xA0 SHL SUB AND SWAP2 PUSH4 0x893D20E8 SWAP2 PUSH1 0x4 DUP1 DUP4 ADD SWAP3 PUSH1 0x20 SWAP3 SWAP2 SWAP1 DUP3 SWAP1 SUB ADD DUP2 DUP7 GAS STATICCALL ISZERO DUP1 ISZERO PUSH2 0x127B JUMPI RETURNDATASIZE PUSH0 DUP1 RETURNDATACOPY RETURNDATASIZE PUSH0 REVERT JUMPDEST POP POP POP POP PUSH1 0x40 MLOAD RETURNDATASIZE PUSH1 0x1F NOT PUSH1 0x1F DUP3 ADD AND DUP3 ADD DUP1 PUSH1 0x40 MSTORE POP DUP2 ADD SWAP1 PUSH2 0x129F SWAP2 SWAP1 PUSH2 0x28A0 JUMP JUMPDEST SWAP1 POP CALLER PUSH1 0x1 PUSH1 0x1 PUSH1 0xA0 SHL SUB DUP3 AND EQ PUSH2 0x12C9 JUMPI PUSH1 0x40 MLOAD PUSH3 0x461BCD PUSH1 0xE5 SHL DUP2 MSTORE PUSH1 0x4 ADD PUSH2 0x5A1 SWAP1 PUSH2 0x28BB JUMP JUMPDEST PUSH2 0x12D2 DUP3 PUSH2 0x1F69 JUMP JUMPDEST POP POP JUMP JUMPDEST PUSH2 0x1306 PUSH1 0x40 MLOAD DUP1 PUSH1 0x80 ADD PUSH1 0x40 MSTORE DUP1 PUSH0 PUSH1 0x1 PUSH1 0x1 PUSH1 0xA0 SHL SUB AND DUP2 MSTORE PUSH1 0x20 ADD PUSH0 DUP2 MSTORE PUSH1 0x20 ADD PUSH0 DUP2 MSTORE PUSH1 0x20 ADD PUSH0 DUP2 MSTORE POP SWAP1 JUMP JUMPDEST PUSH1 0x1 DUP1 SLOAD DUP5 SWAP2 PUSH2 0x1317 SWAP1 DUP3 SWAP1 PUSH2 0x1C72 JUMP JUMPDEST DUP3 GT ISZERO PUSH2 0x1336 JUMPI PUSH1 0x40 MLOAD PUSH3 0x461BCD PUSH1 0xE5 SHL DUP2 MSTORE PUSH1 0x4 ADD PUSH2 0x5A1 SWAP1 PUSH2 0x28E3 JUMP JUMPDEST PUSH0 PUSH2 0x1340 DUP7 PUSH2 0xE5E JUMP JUMPDEST MLOAD PUSH1 0x40 DUP1 MLOAD PUSH1 0x80 DUP2 ADD DUP3 MSTORE PUSH1 0x1 PUSH1 0x1 PUSH1 0xA0 SHL SUB DUP1 DUP10 AND DUP1 DUP4 MSTORE SWAP3 MLOAD PUSH4 0xB3A7834D PUSH1 0xE0 SHL DUP2 MSTORE PUSH1 0x4 DUP2 ADD SWAP4 SWAP1 SWAP4 MSTORE SWAP3 SWAP4 POP PUSH0 SWAP3 SWAP1 SWAP2 PUSH1 0x20 DUP4 ADD SWAP2 DUP6 AND SWAP1 PUSH4 0xB3A7834D SWAP1 PUSH1 0x24 ADD PUSH1 0x80 PUSH1 0x40 MLOAD DUP1 DUP4 SUB DUP2 DUP7 GAS STATICCALL ISZERO DUP1 ISZERO PUSH2 0x13A0 JUMPI RETURNDATASIZE PUSH0 DUP1 RETURNDATACOPY RETURNDATASIZE PUSH0 REVERT JUMPDEST POP POP POP POP PUSH1 0x40 MLOAD RETURNDATASIZE PUSH1 0x1F NOT PUSH1 0x1F DUP3 ADD AND DUP3 ADD DUP1 PUSH1 0x40 MSTORE POP DUP2 ADD SWAP1 PUSH2 0x13C4 SWAP2 SWAP1 PUSH2 0x29B5 JUMP JUMPDEST PUSH1 0x20 SWAP1 DUP2 ADD MLOAD DUP3 MSTORE PUSH1 0x40 MLOAD PUSH4 0xB3A7834D PUSH1 0xE0 SHL DUP2 MSTORE PUSH1 0x1 PUSH1 0x1 PUSH1 0xA0 SHL SUB DUP11 DUP2 AND PUSH1 0x4 DUP4 ADD MSTORE SWAP3 SWAP1 SWAP2 ADD SWAP2 DUP6 AND SWAP1 PUSH4 0xB3A7834D SWAP1 PUSH1 0x24 ADD PUSH1 0x80 PUSH1 0x40 MLOAD DUP1 DUP4 SUB DUP2 DUP7 GAS STATICCALL ISZERO DUP1 ISZERO PUSH2 0x1415 JUMPI RETURNDATASIZE PUSH0 DUP1 RETURNDATACOPY RETURNDATASIZE PUSH0 REVERT JUMPDEST POP POP POP POP PUSH1 0x40 MLOAD RETURNDATASIZE PUSH1 0x1F NOT PUSH1 0x1F DUP3 ADD AND DUP3 ADD DUP1 PUSH1 0x40 MSTORE POP DUP2 ADD SWAP1 PUSH2 0x1439 SWAP2 SWAP1 PUSH2 0x29B5 JUMP JUMPDEST PUSH1 0x40 SWAP1 DUP2 ADD MLOAD DUP3 MSTORE MLOAD PUSH4 0xB3A7834D PUSH1 0xE0 SHL DUP2 MSTORE PUSH1 0x1 PUSH1 0x1 PUSH1 0xA0 SHL SUB DUP10 DUP2 AND PUSH1 0x4 DUP4 ADD MSTORE PUSH1 0x20 SWAP1 SWAP3 ADD SWAP2 DUP6 AND SWAP1 PUSH4 0xB3A7834D SWAP1 PUSH1 0x24 ADD PUSH1 0x80 PUSH1 0x40 MLOAD DUP1 DUP4 SUB DUP2 DUP7 GAS STATICCALL ISZERO DUP1 ISZERO PUSH2 0x1489 JUMPI RETURNDATASIZE PUSH0 DUP1 RETURNDATACOPY RETURNDATASIZE PUSH0 REVERT JUMPDEST POP POP POP POP PUSH1 0x40 MLOAD RETURNDATASIZE PUSH1 0x1F NOT PUSH1 0x1F DUP3 ADD AND DUP3 ADD DUP1 PUSH1 0x40 MSTORE POP DUP2 ADD SWAP1 PUSH2 0x14AD SWAP2 SWAP1 PUSH2 0x29B5 JUMP JUMPDEST PUSH1 0x60 ADD MLOAD SWAP1 MSTORE SWAP8 SWAP7 POP POP POP POP POP POP POP JUMP JUMPDEST PUSH1 0x40 DUP1 MLOAD PUSH2 0x160 DUP2 ADD DUP3 MSTORE PUSH0 PUSH2 0x100 DUP3 ADD DUP2 DUP2 MSTORE PUSH2 0x120 DUP4 ADD DUP3 SWAP1 MSTORE PUSH2 0x140 DUP4 ADD DUP3 SWAP1 MSTORE DUP3 MSTORE DUP3 MLOAD PUSH1 0x60 DUP1 DUP3 ADD DUP6 MSTORE DUP3 DUP3 MSTORE PUSH1 0x20 DUP1 DUP4 ADD DUP5 SWAP1 MSTORE DUP3 DUP7 ADD DUP5 SWAP1 MSTORE DUP1 DUP6 ADD SWAP3 SWAP1 SWAP3 MSTORE DUP5 MLOAD DUP1 DUP3 ADD DUP7 MSTORE DUP4 DUP2 MSTORE SWAP2 DUP3 ADD DUP4 SWAP1 MSTORE DUP2 DUP6 ADD DUP4 SWAP1 MSTORE SWAP4 DUP4 ADD MSTORE SWAP2 DUP2 ADD DUP3 SWAP1 MSTORE PUSH1 0x80 DUP2 ADD DUP3 SWAP1 MSTORE PUSH1 0xA0 DUP2 ADD DUP3 SWAP1 MSTORE PUSH1 0xC0 DUP2 ADD DUP3 SWAP1 MSTORE PUSH1 0xE0 DUP2 ADD SWAP2 SWAP1 SWAP2 MSTORE PUSH1 0x1 DUP1 SLOAD DUP4 SWAP2 PUSH2 0x1553 SWAP1 DUP3 SWAP1 PUSH2 0x1C72 JUMP JUMPDEST DUP3 GT ISZERO PUSH2 0x1572 JUMPI PUSH1 0x40 MLOAD PUSH3 0x461BCD PUSH1 0xE5 SHL DUP2 MSTORE PUSH1 0x4 ADD PUSH2 0x5A1 SWAP1 PUSH2 0x28E3 JUMP JUMPDEST PUSH0 PUSH2 0x157C DUP6 PUSH2 0xE5E JUMP JUMPDEST MLOAD PUSH1 0x40 DUP1 MLOAD PUSH1 0x60 DUP2 ADD SWAP2 DUP3 SWAP1 MSTORE PUSH4 0x9A81161 PUSH1 0xE1 SHL SWAP1 SWAP2 MSTORE PUSH1 0x64 DUP2 ADD DUP9 SWAP1 MSTORE SWAP1 SWAP2 POP PUSH0 SWAP1 DUP1 PUSH1 0x1 PUSH1 0x1 PUSH1 0xA0 SHL SUB DUP5 AND PUSH4 0x135022C2 PUSH1 0x84 DUP4 ADD PUSH2 0x1C0 PUSH1 0x40 MLOAD DUP1 DUP4 SUB DUP2 DUP7 GAS STATICCALL ISZERO DUP1 ISZERO PUSH2 0x15D0 JUMPI RETURNDATASIZE PUSH0 DUP1 RETURNDATACOPY RETURNDATASIZE PUSH0 REVERT JUMPDEST POP POP POP POP PUSH1 0x40 MLOAD RETURNDATASIZE PUSH1 0x1F NOT PUSH1 0x1F DUP3 ADD AND DUP3 ADD DUP1 PUSH1 0x40 MSTORE POP DUP2 ADD SWAP1 PUSH2 0x15F4 SWAP2 SWAP1 PUSH2 0x2AB8 JUMP JUMPDEST MLOAD MLOAD PUSH1 0x1 PUSH1 0x1 PUSH1 0xA0 SHL SUB SWAP1 DUP2 AND DUP3 MSTORE PUSH1 0x40 MLOAD PUSH4 0x9A81161 PUSH1 0xE1 SHL DUP2 MSTORE PUSH1 0x4 DUP2 ADD DUP12 SWAP1 MSTORE PUSH1 0x20 SWAP1 SWAP3 ADD SWAP2 SWAP1 DUP6 AND SWAP1 PUSH4 0x135022C2 SWAP1 PUSH1 0x24 ADD PUSH2 0x1C0 PUSH1 0x40 MLOAD DUP1 DUP4 SUB DUP2 DUP7 GAS STATICCALL ISZERO DUP1 ISZERO PUSH2 0x1646 JUMPI RETURNDATASIZE PUSH0 DUP1 RETURNDATACOPY RETURNDATASIZE PUSH0 REVERT JUMPDEST POP POP POP POP PUSH1 0x40 MLOAD RETURNDATASIZE PUSH1 0x1F NOT PUSH1 0x1F DUP3 ADD AND DUP3 ADD DUP1 PUSH1 0x40 MSTORE POP DUP2 ADD SWAP1 PUSH2 0x166A SWAP2 SWAP1 PUSH2 0x2AB8 JUMP JUMPDEST MLOAD PUSH1 0x20 SWAP1 DUP2 ADD MLOAD DUP3 MSTORE PUSH1 0x40 MLOAD PUSH4 0x9A81161 PUSH1 0xE1 SHL DUP2 MSTORE PUSH1 0x4 DUP2 ADD DUP12 SWAP1 MSTORE SWAP2 ADD SWAP1 PUSH1 0x1 PUSH1 0x1 PUSH1 0xA0 SHL SUB DUP6 AND SWAP1 PUSH4 0x135022C2 SWAP1 PUSH1 0x24 ADD PUSH2 0x1C0 PUSH1 0x40 MLOAD DUP1 DUP4 SUB DUP2 DUP7 GAS STATICCALL ISZERO DUP1 ISZERO PUSH2 0x16BA JUMPI RETURNDATASIZE PUSH0 DUP1 RETURNDATACOPY RETURNDATASIZE PUSH0 REVERT JUMPDEST POP POP POP POP PUSH1 0x40 MLOAD RETURNDATASIZE PUSH1 0x1F NOT PUSH1 0x1F DUP3 ADD AND DUP3 ADD DUP1 PUSH1 0x40 MSTORE POP DUP2 ADD SWAP1 PUSH2 0x16DE SWAP2 SWAP1 PUSH2 0x2AB8 JUMP JUMPDEST MLOAD PUSH1 0x40 SWAP1 DUP2 ADD MLOAD ISZERO ISZERO SWAP1 SWAP2 MSTORE DUP1 MLOAD PUSH1 0x60 DUP2 ADD SWAP2 DUP3 SWAP1 MSTORE PUSH4 0x9A81161 PUSH1 0xE1 SHL SWAP1 SWAP2 MSTORE PUSH1 0x64 DUP2 ADD DUP10 SWAP1 MSTORE SWAP1 SWAP2 POP PUSH0 SWAP1 DUP1 PUSH1 0x1 PUSH1 0x1 PUSH1 0xA0 SHL SUB DUP6 AND PUSH4 0x135022C2 PUSH1 0x84 DUP4 ADD PUSH2 0x1C0 PUSH1 0x40 MLOAD DUP1 DUP4 SUB DUP2 DUP7 GAS STATICCALL ISZERO DUP1 ISZERO PUSH2 0x173B JUMPI RETURNDATASIZE PUSH0 DUP1 RETURNDATACOPY RETURNDATASIZE PUSH0 REVERT JUMPDEST POP POP POP POP PUSH1 0x40 MLOAD RETURNDATASIZE PUSH1 0x1F NOT PUSH1 0x1F DUP3 ADD AND DUP3 ADD DUP1 PUSH1 0x40 MSTORE POP DUP2 ADD SWAP1 PUSH2 0x175F SWAP2 SWAP1 PUSH2 0x2AB8 JUMP JUMPDEST PUSH1 0x20 ADD MLOAD PUSH0 ADD MLOAD PUSH1 0x1 PUSH1 0x1 PUSH1 0xA0 SHL SUB AND DUP2 MSTORE PUSH1 0x20 ADD DUP5 PUSH1 0x1 PUSH1 0x1 PUSH1 0xA0 SHL SUB AND PUSH4 0x135022C2 DUP12 PUSH1 0x40 MLOAD DUP3 PUSH4 0xFFFFFFFF AND PUSH1 0xE0 SHL DUP2 MSTORE PUSH1 0x4 ADD PUSH2 0x17A2 SWAP2 DUP2 MSTORE PUSH1 0x20 ADD SWAP1 JUMP JUMPDEST PUSH2 0x1C0 PUSH1 0x40 MLOAD DUP1 DUP4 SUB DUP2 DUP7 GAS STATICCALL ISZERO DUP1 ISZERO PUSH2 0x17BE JUMPI RETURNDATASIZE PUSH0 DUP1 RETURNDATACOPY RETURNDATASIZE PUSH0 REVERT JUMPDEST POP POP POP POP PUSH1 0x40 MLOAD RETURNDATASIZE PUSH1 0x1F NOT PUSH1 0x1F DUP3 ADD AND DUP3 ADD DUP1 PUSH1 0x40 MSTORE POP DUP2 ADD SWAP1 PUSH2 0x17E2 SWAP2 SWAP1 PUSH2 0x2AB8 JUMP JUMPDEST PUSH1 0x20 ADD MLOAD PUSH1 0x20 ADD MLOAD DUP2 MSTORE PUSH1 0x20 ADD DUP5 PUSH1 0x1 PUSH1 0x1 PUSH1 0xA0 SHL SUB AND PUSH4 0x135022C2 DUP12 PUSH1 0x40 MLOAD DUP3 PUSH4 0xFFFFFFFF AND PUSH1 0xE0 SHL DUP2 MSTORE PUSH1 0x4 ADD PUSH2 0x181D SWAP2 DUP2 MSTORE PUSH1 0x20 ADD SWAP1 JUMP JUMPDEST PUSH2 0x1C0 PUSH1 0x40 MLOAD DUP1 DUP4 SUB DUP2 DUP7 GAS STATICCALL ISZERO DUP1 ISZERO PUSH2 0x1839 JUMPI RETURNDATASIZE PUSH0 DUP1 RETURNDATACOPY RETURNDATASIZE PUSH0 REVERT JUMPDEST POP POP POP POP PUSH1 0x40 MLOAD RETURNDATASIZE PUSH1 0x1F NOT PUSH1 0x1F DUP3 ADD AND DUP3 ADD DUP1 PUSH1 0x40 MSTORE POP DUP2 ADD SWAP1 PUSH2 0x185D SWAP2 SWAP1 PUSH2 0x2AB8 JUMP JUMPDEST PUSH1 0x20 ADD MLOAD PUSH1 0x40 ADD MLOAD ISZERO ISZERO DUP2 MSTORE POP SWAP1 POP PUSH0 PUSH1 0x40 MLOAD DUP1 PUSH1 0x60 ADD PUSH1 0x40 MSTORE DUP1 DUP6 PUSH1 0x1 PUSH1 0x1 PUSH1 0xA0 SHL SUB AND PUSH4 0x135022C2 DUP13 PUSH1 0x40 MLOAD DUP3 PUSH4 0xFFFFFFFF AND PUSH1 0xE0 SHL DUP2 MSTORE PUSH1 0x4 ADD PUSH2 0x18A6 SWAP2 DUP2 MSTORE PUSH1 0x20 ADD SWAP1 JUMP JUMPDEST PUSH2 0x1C0 PUSH1 0x40 MLOAD DUP1 DUP4 SUB DUP2 DUP7 GAS STATICCALL ISZERO DUP1 ISZERO PUSH2 0x18C2 JUMPI RETURNDATASIZE PUSH0 DUP1 RETURNDATACOPY RETURNDATASIZE PUSH0 REVERT JUMPDEST POP POP POP POP PUSH1 0x40 MLOAD RETURNDATASIZE PUSH1 0x1F NOT PUSH1 0x1F DUP3 ADD AND DUP3 ADD DUP1 PUSH1 0x40 MSTORE POP DUP2 ADD SWAP1 PUSH2 0x18E6 SWAP2 SWAP1 PUSH2 0x2AB8 JUMP JUMPDEST PUSH1 0x40 ADD MLOAD PUSH0 ADD MLOAD PUSH1 0x1 PUSH1 0x1 PUSH1 0xA0 SHL SUB AND DUP2 MSTORE PUSH1 0x20 ADD DUP6 PUSH1 0x1 PUSH1 0x1 PUSH1 0xA0 SHL SUB AND PUSH4 0x135022C2 DUP13 PUSH1 0x40 MLOAD DUP3 PUSH4 0xFFFFFFFF AND PUSH1 0xE0 SHL DUP2 MSTORE PUSH1 0x4 ADD PUSH2 0x1929 SWAP2 DUP2 MSTORE PUSH1 0x20 ADD SWAP1 JUMP JUMPDEST PUSH2 0x1C0 PUSH1 0x40 MLOAD DUP1 DUP4 SUB DUP2 DUP7 GAS STATICCALL ISZERO DUP1 ISZERO PUSH2 0x1945 JUMPI RETURNDATASIZE PUSH0 DUP1 RETURNDATACOPY RETURNDATASIZE PUSH0 REVERT JUMPDEST POP POP POP POP PUSH1 0x40 MLOAD RETURNDATASIZE PUSH1 0x1F NOT PUSH1 0x1F DUP3 ADD AND DUP3 ADD DUP1 PUSH1 0x40 MSTORE POP DUP2 ADD SWAP1 PUSH2 0x1969 SWAP2 SWAP1 PUSH2 0x2AB8 JUMP JUMPDEST PUSH1 0x40 ADD MLOAD PUSH1 0x20 ADD MLOAD DUP2 MSTORE PUSH1 0x20 ADD DUP6 PUSH1 0x1 PUSH1 0x1 PUSH1 0xA0 SHL SUB AND PUSH4 0x135022C2 DUP13 PUSH1 0x40 MLOAD DUP3 PUSH4 0xFFFFFFFF AND PUSH1 0xE0 SHL DUP2 MSTORE PUSH1 0x4 ADD PUSH2 0x19A4 SWAP2 DUP2 MSTORE PUSH1 0x20 ADD SWAP1 JUMP JUMPDEST PUSH2 0x1C0 PUSH1 0x40 MLOAD DUP1 DUP4 SUB DUP2 DUP7 GAS STATICCALL ISZERO DUP1 ISZERO PUSH2 0x19C0 JUMPI RETURNDATASIZE PUSH0 DUP1 RETURNDATACOPY RETURNDATASIZE PUSH0 REVERT JUMPDEST POP POP POP POP PUSH1 0x40 MLOAD RETURNDATASIZE PUSH1 0x1F NOT PUSH1 0x1F DUP3 ADD AND DUP3 ADD DUP1 PUSH1 0x40 MSTORE POP DUP2 ADD SWAP1 PUSH2 0x19E4 SWAP2 SWAP1 PUSH2 0x2AB8 JUMP JUMPDEST PUSH1 0x40 ADD MLOAD PUSH1 0x40 ADD MLOAD ISZERO ISZERO DUP2 MSTORE POP SWAP1 POP PUSH0 PUSH1 0x40 MLOAD DUP1 PUSH2 0x100 ADD PUSH1 0x40 MSTORE DUP1 DUP6 DUP2 MSTORE PUSH1 0x20 ADD DUP5 DUP2 MSTORE PUSH1 0x20 ADD DUP4 DUP2 MSTORE PUSH1 0x20 ADD DUP7 PUSH1 0x1 PUSH1 0x1 PUSH1 0xA0 SHL SUB AND PUSH4 0x135022C2 DUP14 PUSH1 0x40 MLOAD DUP3 PUSH4 0xFFFFFFFF AND PUSH1 0xE0 SHL DUP2 MSTORE PUSH1 0x4 ADD PUSH2 0x1A40 SWAP2 DUP2 MSTORE PUSH1 0x20 ADD SWAP1 JUMP JUMPDEST PUSH2 0x1C0 PUSH1 0x40 MLOAD DUP1 DUP4 SUB DUP2 DUP7 GAS STATICCALL ISZERO DUP1 ISZERO PUSH2 0x1A5C JUMPI RETURNDATASIZE PUSH0 DUP1 RETURNDATACOPY RETURNDATASIZE PUSH0 REVERT JUMPDEST POP POP POP POP PUSH1 0x40 MLOAD RETURNDATASIZE PUSH1 0x1F NOT PUSH1 0x1F DUP3 ADD AND DUP3 ADD DUP1 PUSH1 0x40 MSTORE POP DUP2 ADD SWAP1 PUSH2 0x1A80 SWAP2 SWAP1 PUSH2 0x2AB8 JUMP JUMPDEST PUSH1 0x60 ADD MLOAD ISZERO ISZERO DUP2 MSTORE PUSH1 0x20 ADD DUP7 PUSH1 0x1 PUSH1 0x1 PUSH1 0xA0 SHL SUB AND PUSH4 0x135022C2 DUP14 PUSH1 0x40 MLOAD DUP3 PUSH4 0xFFFFFFFF AND PUSH1 0xE0 SHL DUP2 MSTORE PUSH1 0x4 ADD PUSH2 0x1AB9 SWAP2 DUP2 MSTORE PUSH1 0x20 ADD SWAP1 JUMP JUMPDEST PUSH2 0x1C0 PUSH1 0x40 MLOAD DUP1 DUP4 SUB DUP2 DUP7 GAS STATICCALL ISZERO DUP1 ISZERO PUSH2 0x1AD5 JUMPI RETURNDATASIZE PUSH0 DUP1 RETURNDATACOPY RETURNDATASIZE PUSH0 REVERT JUMPDEST POP POP POP POP PUSH1 0x40 MLOAD RETURNDATASIZE PUSH1 0x1F NOT PUSH1 0x1F DUP3 ADD AND DUP3 ADD DUP1 PUSH1 0x40 MSTORE POP DUP2 ADD SWAP1 PUSH2 0x1AF9 SWAP2 SWAP1 PUSH2 0x2AB8 JUMP JUMPDEST PUSH1 0x80 ADD MLOAD DUP2 MSTORE PUSH1 0x20 ADD DUP7 PUSH1 0x1 PUSH1 0x1 PUSH1 0xA0 SHL SUB AND PUSH4 0x135022C2 DUP14 PUSH1 0x40 MLOAD DUP3 PUSH4 0xFFFFFFFF AND PUSH1 0xE0 SHL DUP2 MSTORE PUSH1 0x4 ADD PUSH2 0x1B30 SWAP2 DUP2 MSTORE PUSH1 0x20 ADD SWAP1 JUMP JUMPDEST PUSH2 0x1C0 PUSH1 0x40 MLOAD DUP1 DUP4 SUB DUP2 DUP7 GAS STATICCALL ISZERO DUP1 ISZERO PUSH2 0x1B4C JUMPI RETURNDATASIZE PUSH0 DUP1 RETURNDATACOPY RETURNDATASIZE PUSH0 REVERT JUMPDEST POP POP POP POP PUSH1 0x40 MLOAD RETURNDATASIZE PUSH1 0x1F NOT PUSH1 0x1F DUP3 ADD AND DUP3 ADD DUP1 PUSH1 0x40 MSTORE POP DUP2 ADD SWAP1 PUSH2 0x1B70 SWAP2 SWAP1 PUSH2 0x2AB8 JUMP JUMPDEST PUSH1 0xA0 ADD MLOAD DUP2 MSTORE PUSH1 0x20 ADD DUP7 PUSH1 0x1 PUSH1 0x1 PUSH1 0xA0 SHL SUB AND PUSH4 0x135022C2 DUP14 PUSH1 0x40 MLOAD DUP3 PUSH4 0xFFFFFFFF AND PUSH1 0xE0 SHL DUP2 MSTORE PUSH1 0x4 ADD PUSH2 0x1BA7 SWAP2 DUP2 MSTORE PUSH1 0x20 ADD SWAP1 JUMP JUMPDEST PUSH2 0x1C0 PUSH1 0x40 MLOAD DUP1 DUP4 SUB DUP2 DUP7 GAS STATICCALL ISZERO DUP1 ISZERO PUSH2 0x1BC3 JUMPI RETURNDATASIZE PUSH0 DUP1 RETURNDATACOPY RETURNDATASIZE PUSH0 REVERT JUMPDEST POP POP POP POP PUSH1 0x40 MLOAD RETURNDATASIZE PUSH1 0x1F NOT PUSH1 0x1F DUP3 ADD AND DUP3 ADD DUP1 PUSH1 0x40 MSTORE POP DUP2 ADD SWAP1 PUSH2 0x1BE7 SWAP2 SWAP1 PUSH2 0x2AB8 JUMP JUMPDEST PUSH1 0xC0 ADD MLOAD DUP2 MSTORE PUSH1 0x20 ADD DUP7 PUSH1 0x1 PUSH1 0x1 PUSH1 0xA0 SHL SUB AND PUSH4 0x135022C2 DUP14 PUSH1 0x40 MLOAD DUP3 PUSH4 0xFFFFFFFF AND PUSH1 0xE0 SHL DUP2 MSTORE PUSH1 0x4 ADD PUSH2 0x1C1E SWAP2 DUP2 MSTORE PUSH1 0x20 ADD SWAP1 JUMP JUMPDEST PUSH2 0x1C0 PUSH1 0x40 MLOAD DUP1 DUP4 SUB DUP2 DUP7 GAS STATICCALL ISZERO DUP1 ISZERO PUSH2 0x1C3A JUMPI RETURNDATASIZE PUSH0 DUP1 RETURNDATACOPY RETURNDATASIZE PUSH0 REVERT JUMPDEST POP POP POP POP PUSH1 0x40 MLOAD RETURNDATASIZE PUSH1 0x1F NOT PUSH1 0x1F DUP3 ADD AND DUP3 ADD DUP1 PUSH1 0x40 MSTORE POP DUP2 ADD SWAP1 PUSH2 0x1C5E SWAP2 SWAP1 PUSH2 0x2AB8 JUMP JUMPDEST PUSH1 0xE0 ADD MLOAD SWAP1 MSTORE SWAP11 SWAP10 POP POP POP POP POP POP POP POP POP POP JUMP JUMPDEST PUSH0 PUSH2 0x1C7D DUP3 DUP5 PUSH2 0x2960 JUMP JUMPDEST SWAP1 POP JUMPDEST SWAP3 SWAP2 POP POP JUMP JUMPDEST PUSH1 0x40 MLOAD PUSH4 0x70A08231 PUSH1 0xE0 SHL DUP2 MSTORE ADDRESS PUSH1 0x4 DUP3 ADD MSTORE PUSH0 SWAP1 PUSH1 0x1 PUSH1 0x1 PUSH1 0xA0 SHL SUB DUP5 AND SWAP1 PUSH4 0x70A08231 SWAP1 PUSH1 0x24 ADD PUSH1 0x20 PUSH1 0x40 MLOAD DUP1 DUP4 SUB DUP2 DUP7 GAS STATICCALL ISZERO DUP1 ISZERO PUSH2 0x1CCA JUMPI RETURNDATASIZE PUSH0 DUP1 RETURNDATACOPY RETURNDATASIZE PUSH0 REVERT JUMPDEST POP POP POP POP PUSH1 0x40 MLOAD RETURNDATASIZE PUSH1 0x1F NOT PUSH1 0x1F DUP3 ADD AND DUP3 ADD DUP1 PUSH1 0x40 MSTORE POP DUP2 ADD SWAP1 PUSH2 0x1CEE SWAP2 SWAP1 PUSH2 0x2949 JUMP JUMPDEST SWAP1 POP PUSH2 0x1CFB DUP6 DUP6 DUP5 PUSH2 0x208B JUMP JUMPDEST PUSH1 0x40 MLOAD PUSH4 0x70A08231 PUSH1 0xE0 SHL DUP2 MSTORE ADDRESS PUSH1 0x4 DUP3 ADD MSTORE PUSH0 SWAP1 PUSH1 0x1 PUSH1 0x1 PUSH1 0xA0 SHL SUB DUP6 AND SWAP1 PUSH4 0x70A08231 SWAP1 PUSH1 0x24 ADD PUSH1 0x20 PUSH1 0x40 MLOAD DUP1 DUP4 SUB DUP2 DUP7 GAS STATICCALL ISZERO DUP1 ISZERO PUSH2 0x1D3F JUMPI RETURNDATASIZE PUSH0 DUP1 RETURNDATACOPY RETURNDATASIZE PUSH0 REVERT JUMPDEST POP POP POP POP PUSH1 0x40 MLOAD RETURNDATASIZE PUSH1 0x1F NOT PUSH1 0x1F DUP3 ADD AND DUP3 ADD DUP1 PUSH1 0x40 MSTORE POP DUP2 ADD SWAP1 PUSH2 0x1D63 SWAP2 SWAP1 PUSH2 0x2949 JUMP JUMPDEST SWAP1 POP PUSH0 PUSH2 0x1D70 DUP3 DUP5 PUSH2 0x1C72 JUMP JUMPDEST SWAP1 POP PUSH2 0x1D7D DUP8 DUP7 DUP4 PUSH2 0x1F50 JUMP JUMPDEST POP POP POP POP POP POP POP JUMP JUMPDEST PUSH1 0x40 MLOAD PUSH4 0x70A08231 PUSH1 0xE0 SHL DUP2 MSTORE ADDRESS PUSH1 0x4 DUP3 ADD MSTORE PUSH0 SWAP1 DUP2 SWAP1 PUSH1 0x1 PUSH1 0x1 PUSH1 0xA0 SHL SUB DUP9 AND SWAP1 PUSH4 0x70A08231 SWAP1 PUSH1 0x24 ADD PUSH1 0x20 PUSH1 0x40 MLOAD DUP1 DUP4 SUB DUP2 DUP7 GAS STATICCALL ISZERO DUP1 ISZERO PUSH2 0x1DCC JUMPI RETURNDATASIZE PUSH0 DUP1 RETURNDATACOPY RETURNDATASIZE PUSH0 REVERT JUMPDEST POP POP POP POP PUSH1 0x40 MLOAD RETURNDATASIZE PUSH1 0x1F NOT PUSH1 0x1F DUP3 ADD AND DUP3 ADD DUP1 PUSH1 0x40 MSTORE POP DUP2 ADD SWAP1 PUSH2 0x1DF0 SWAP2 SWAP1 PUSH2 0x2949 JUMP JUMPDEST SWAP1 POP PUSH2 0x1DFE DUP7 DUP7 DUP7 DUP7 PUSH2 0x20F0 JUMP JUMPDEST PUSH1 0x40 MLOAD PUSH4 0x70A08231 PUSH1 0xE0 SHL DUP2 MSTORE ADDRESS PUSH1 0x4 DUP3 ADD MSTORE PUSH0 SWAP1 PUSH1 0x1 PUSH1 0x1 PUSH1 0xA0 SHL SUB DUP10 AND SWAP1 PUSH4 0x70A08231 SWAP1 PUSH1 0x24 ADD PUSH1 0x20 PUSH1 0x40 MLOAD DUP1 DUP4 SUB DUP2 DUP7 GAS STATICCALL ISZERO DUP1 ISZERO PUSH2 0x1E42 JUMPI RETURNDATASIZE PUSH0 DUP1 RETURNDATACOPY RETURNDATASIZE PUSH0 REVERT JUMPDEST POP POP POP POP PUSH1 0x40 MLOAD RETURNDATASIZE PUSH1 0x1F NOT PUSH1 0x1F DUP3 ADD AND DUP3 ADD DUP1 PUSH1 0x40 MSTORE POP DUP2 ADD SWAP1 PUSH2 0x1E66 SWAP2 SWAP1 PUSH2 0x2949 JUMP JUMPDEST SWAP1 POP PUSH0 PUSH2 0x1E73 DUP3 DUP5 PUSH2 0x1C72 JUMP JUMPDEST SWAP1 POP PUSH0 DUP2 GT PUSH2 0x823 JUMPI PUSH0 DUP1 REVERT JUMPDEST PUSH2 0x1E8B DUP4 DUP4 DUP4 PUSH2 0x22C3 JUMP JUMPDEST PUSH2 0x1E96 DUP5 DUP5 DUP4 PUSH2 0x22EB JUMP JUMPDEST POP POP POP POP JUMP JUMPDEST PUSH1 0x40 MLOAD PUSH4 0x1AC6D19D PUSH1 0xE0 SHL DUP2 MSTORE PUSH1 0x1 PUSH1 0x1 PUSH1 0xA0 SHL SUB DUP4 DUP2 AND PUSH1 0x4 DUP4 ADD MSTORE PUSH0 SWAP2 DUP3 SWAP2 DUP5 AND SWAP1 PUSH4 0x1AC6D19D SWAP1 PUSH1 0x24 ADD PUSH1 0x20 PUSH1 0x40 MLOAD DUP1 DUP4 SUB DUP2 PUSH0 DUP8 GAS CALL ISZERO DUP1 ISZERO PUSH2 0x1EE5 JUMPI RETURNDATASIZE PUSH0 DUP1 RETURNDATACOPY RETURNDATASIZE PUSH0 REVERT JUMPDEST POP POP POP POP PUSH1 0x40 MLOAD RETURNDATASIZE PUSH1 0x1F NOT PUSH1 0x1F DUP3 ADD AND DUP3 ADD DUP1 PUSH1 0x40 MSTORE POP DUP2 ADD SWAP1 PUSH2 0x1F09 SWAP2 SWAP1 PUSH2 0x2949 JUMP JUMPDEST SWAP1 POP PUSH0 DUP2 GT PUSH2 0x1C7D JUMPI PUSH1 0x40 MLOAD PUSH3 0x461BCD PUSH1 0xE5 SHL DUP2 MSTORE PUSH1 0x20 PUSH1 0x4 DUP3 ADD MSTORE PUSH1 0x13 PUSH1 0x24 DUP3 ADD MSTORE PUSH19 0x4E6F207265776172647320746F20636C61696D PUSH1 0x68 SHL PUSH1 0x44 DUP3 ADD MSTORE PUSH1 0x64 ADD PUSH2 0x5A1 JUMP JUMPDEST PUSH2 0x1F64 PUSH1 0x1 PUSH1 0x1 PUSH1 0xA0 SHL SUB DUP4 AND DUP5 DUP4 PUSH2 0x2320 JUMP JUMPDEST POP POP POP JUMP JUMPDEST PUSH1 0x2 DUP1 SLOAD PUSH1 0x1 PUSH1 0x1 PUSH1 0xA0 SHL SUB NOT AND PUSH1 0x1 PUSH1 0x1 PUSH1 0xA0 SHL SUB SWAP3 SWAP1 SWAP3 AND SWAP2 SWAP1 SWAP2 OR SWAP1 SSTORE JUMP JUMPDEST PUSH0 DUP1 DUP3 GT PUSH2 0x1F97 JUMPI PUSH0 DUP1 REVERT JUMPDEST PUSH1 0x40 MLOAD PUSH4 0x70A08231 PUSH1 0xE0 SHL DUP2 MSTORE ADDRESS PUSH1 0x4 DUP3 ADD MSTORE PUSH0 SWAP1 PUSH1 0x1 PUSH1 0x1 PUSH1 0xA0 SHL SUB DUP6 AND SWAP1 PUSH4 0x70A08231 SWAP1 PUSH1 0x24 ADD PUSH1 0x20 PUSH1 0x40 MLOAD DUP1 DUP4 SUB DUP2 DUP7 GAS STATICCALL ISZERO DUP1 ISZERO PUSH2 0x1FDB JUMPI RETURNDATASIZE PUSH0 DUP1 RETURNDATACOPY RETURNDATASIZE PUSH0 REVERT JUMPDEST POP POP POP POP PUSH1 0x40 MLOAD RETURNDATASIZE PUSH1 0x1F NOT PUSH1 0x1F DUP3 ADD AND DUP3 ADD DUP1 PUSH1 0x40 MSTORE POP DUP2 ADD SWAP1 PUSH2 0x1FFF SWAP2 SWAP1 PUSH2 0x2949 JUMP JUMPDEST SWAP1 POP PUSH2 0x2016 PUSH1 0x1 PUSH1 0x1 PUSH1 0xA0 SHL SUB DUP6 AND CALLER ADDRESS DUP7 PUSH2 0x2383 JUMP JUMPDEST PUSH1 0x40 MLOAD PUSH4 0x70A08231 PUSH1 0xE0 SHL DUP2 MSTORE ADDRESS PUSH1 0x4 DUP3 ADD MSTORE PUSH0 SWAP1 PUSH1 0x1 PUSH1 0x1 PUSH1 0xA0 SHL SUB DUP7 AND SWAP1 PUSH4 0x70A08231 SWAP1 PUSH1 0x24 ADD PUSH1 0x20 PUSH1 0x40 MLOAD DUP1 DUP4 SUB DUP2 DUP7 GAS STATICCALL ISZERO DUP1 ISZERO PUSH2 0x205A JUMPI RETURNDATASIZE PUSH0 DUP1 RETURNDATACOPY RETURNDATASIZE PUSH0 REVERT JUMPDEST POP POP POP POP PUSH1 0x40 MLOAD RETURNDATASIZE PUSH1 0x1F NOT PUSH1 0x1F DUP3 ADD AND DUP3 ADD DUP1 PUSH1 0x40 MSTORE POP DUP2 ADD SWAP1 PUSH2 0x207E SWAP2 SWAP1 PUSH2 0x2949 JUMP JUMPDEST SWAP1 POP PUSH0 PUSH2 0x8D2 DUP3 DUP5 PUSH2 0x1C72 JUMP JUMPDEST PUSH0 DUP2 GT PUSH2 0x2096 JUMPI PUSH0 DUP1 REVERT JUMPDEST PUSH1 0x40 MLOAD PUSH4 0x6DA8C6D9 PUSH1 0xE1 SHL DUP2 MSTORE PUSH1 0x1 PUSH1 0x1 PUSH1 0xA0 SHL SUB DUP5 DUP2 AND PUSH1 0x4 DUP4 ADD MSTORE PUSH1 0x24 DUP3 ADD DUP4 SWAP1 MSTORE DUP4 AND SWAP1 PUSH4 0xDB518DB2 SWAP1 PUSH1 0x44 ADD JUMPDEST PUSH0 PUSH1 0x40 MLOAD DUP1 DUP4 SUB DUP2 PUSH0 DUP8 DUP1 EXTCODESIZE ISZERO DUP1 ISZERO PUSH2 0x20DE JUMPI PUSH0 DUP1 REVERT JUMPDEST POP GAS CALL ISZERO DUP1 ISZERO PUSH2 0x1D7D JUMPI RETURNDATASIZE PUSH0 DUP1 RETURNDATACOPY RETURNDATASIZE PUSH0 REVERT JUMPDEST PUSH1 0x1 PUSH1 0x1 PUSH1 0xA0 SHL SUB DUP5 AND PUSH0 SUB PUSH2 0x21B3 JUMPI DUP3 CALLVALUE LT ISZERO PUSH2 0x210C JUMPI PUSH0 DUP1 REVERT JUMPDEST PUSH1 0x3 SLOAD PUSH1 0x40 MLOAD PUSH0 SWAP2 PUSH1 0x1 PUSH1 0x1 PUSH1 0xA0 SHL SUB AND SWAP1 DUP6 SWAP1 PUSH2 0x212D SWAP1 DUP7 SWAP1 DUP7 SWAP1 PUSH2 0x2B46 JUMP JUMPDEST PUSH0 PUSH1 0x40 MLOAD DUP1 DUP4 SUB DUP2 DUP6 DUP8 GAS CALL SWAP3 POP POP POP RETURNDATASIZE DUP1 PUSH0 DUP2 EQ PUSH2 0x2167 JUMPI PUSH1 0x40 MLOAD SWAP2 POP PUSH1 0x1F NOT PUSH1 0x3F RETURNDATASIZE ADD AND DUP3 ADD PUSH1 0x40 MSTORE RETURNDATASIZE DUP3 MSTORE RETURNDATASIZE PUSH0 PUSH1 0x20 DUP5 ADD RETURNDATACOPY PUSH2 0x216C JUMP JUMPDEST PUSH1 0x60 SWAP2 POP JUMPDEST POP POP SWAP1 POP DUP1 PUSH2 0x21AD JUMPI PUSH1 0x40 MLOAD PUSH3 0x461BCD PUSH1 0xE5 SHL DUP2 MSTORE PUSH1 0x20 PUSH1 0x4 DUP3 ADD MSTORE PUSH1 0xD PUSH1 0x24 DUP3 ADD MSTORE PUSH13 0x436F756C646E2774207377617 PUSH1 0x9C SHL PUSH1 0x44 DUP3 ADD MSTORE PUSH1 0x64 ADD PUSH2 0x5A1 JUMP JUMPDEST POP PUSH2 0x1E96 JUMP JUMPDEST CALLVALUE ISZERO PUSH2 0x21BD JUMPI PUSH0 DUP1 REVERT JUMPDEST PUSH0 PUSH2 0x21C8 DUP6 DUP6 PUSH2 0x1F8B JUMP JUMPDEST PUSH1 0x3 SLOAD SWAP1 SWAP2 POP PUSH2 0x21E5 SWAP1 PUSH1 0x1 PUSH1 0x1 PUSH1 0xA0 SHL SUB DUP8 DUP2 AND SWAP2 AND PUSH0 PUSH2 0x23BB JUMP JUMPDEST PUSH1 0x3 SLOAD PUSH2 0x21FF SWAP1 PUSH1 0x1 PUSH1 0x1 PUSH1 0xA0 SHL SUB DUP8 DUP2 AND SWAP2 AND DUP4 PUSH2 0x23BB JUMP JUMPDEST PUSH1 0x3 SLOAD PUSH1 0x40 MLOAD PUSH0 SWAP2 PUSH1 0x1 PUSH1 0x1 PUSH1 0xA0 SHL SUB AND SWAP1 DUP3 SWAP1 PUSH2 0x2220 SWAP1 DUP8 SWAP1 DUP8 SWAP1 PUSH2 0x2B46 JUMP JUMPDEST PUSH0 PUSH1 0x40 MLOAD DUP1 DUP4 SUB DUP2 DUP6 DUP8 GAS CALL SWAP3 POP POP POP RETURNDATASIZE DUP1 PUSH0 DUP2 EQ PUSH2 0x225A JUMPI PUSH1 0x40 MLOAD SWAP2 POP PUSH1 0x1F NOT PUSH1 0x3F RETURNDATASIZE ADD AND DUP3 ADD PUSH1 0x40 MSTORE RETURNDATASIZE DUP3 MSTORE RETURNDATASIZE PUSH0 PUSH1 0x20 DUP5 ADD RETURNDATACOPY PUSH2 0x225F JUMP JUMPDEST PUSH1 0x60 SWAP2 POP JUMPDEST POP POP PUSH1 0x3 SLOAD SWAP1 SWAP2 POP PUSH2 0x227E SWAP1 PUSH1 0x1 PUSH1 0x1 PUSH1 0xA0 SHL SUB DUP9 DUP2 AND SWAP2 AND PUSH0 PUSH2 0x23BB JUMP JUMPDEST DUP1 PUSH2 0x22BB JUMPI PUSH1 0x40 MLOAD PUSH3 0x461BCD PUSH1 0xE5 SHL DUP2 MSTORE PUSH1 0x20 PUSH1 0x4 DUP3 ADD MSTORE PUSH1 0xD PUSH1 0x24 DUP3 ADD MSTORE PUSH13 0x436F756C646E2774207377617 PUSH1 0x9C SHL PUSH1 0x44 DUP3 ADD MSTORE PUSH1 0x64 ADD PUSH2 0x5A1 JUMP JUMPDEST POP POP POP POP POP POP JUMP JUMPDEST PUSH2 0x22D7 PUSH1 0x1 PUSH1 0x1 PUSH1 0xA0 SHL SUB DUP4 AND DUP5 PUSH0 PUSH2 0x23BB JUMP JUMPDEST PUSH2 0x1F64 PUSH1 0x1 PUSH1 0x1 PUSH1 0xA0 SHL SUB DUP4 AND DUP5 DUP4 PUSH2 0x23BB JUMP JUMPDEST PUSH1 0x40 MLOAD PUSH4 0x17A790F1 PUSH1 0xE1 SHL DUP2 MSTORE PUSH1 0x1 PUSH1 0x1 PUSH1 0xA0 SHL SUB DUP5 DUP2 AND PUSH1 0x4 DUP4 ADD MSTORE PUSH1 0x24 DUP3 ADD DUP4 SWAP1 MSTORE DUP4 AND SWAP1 PUSH4 0x2F4F21E2 SWAP1 PUSH1 0x44 ADD PUSH2 0x20C7 JUMP JUMPDEST PUSH1 0x40 MLOAD PUSH1 0x1 PUSH1 0x1 PUSH1 0xA0 SHL SUB DUP4 AND PUSH1 0x24 DUP3 ADD MSTORE PUSH1 0x44 DUP2 ADD DUP3 SWAP1 MSTORE PUSH2 0x1F64 SWAP1 DUP5 SWAP1 PUSH4 0xA9059CBB PUSH1 0xE0 SHL SWAP1 PUSH1 0x64 ADD JUMPDEST PUSH1 0x40 DUP1 MLOAD PUSH1 0x1F NOT DUP2 DUP5 SUB ADD DUP2 MSTORE SWAP2 SWAP1 MSTORE PUSH1 0x20 DUP2 ADD DUP1 MLOAD PUSH1 0x1 PUSH1 0x1 PUSH1 0xE0 SHL SUB AND PUSH1 0x1 PUSH1 0x1 PUSH1 0xE0 SHL SUB NOT SWAP1 SWAP4 AND SWAP3 SWAP1 SWAP3 OR SWAP1 SWAP2 MSTORE PUSH2 0x24CE JUMP JUMPDEST PUSH1 0x40 MLOAD PUSH1 0x1 PUSH1 0x1 PUSH1 0xA0 SHL SUB DUP1 DUP6 AND PUSH1 0x24 DUP4 ADD MSTORE DUP4 AND PUSH1 0x44 DUP3 ADD MSTORE PUSH1 0x64 DUP2 ADD DUP3 SWAP1 MSTORE PUSH2 0x1E96 SWAP1 DUP6 SWAP1 PUSH4 0x23B872DD PUSH1 0xE0 SHL SWAP1 PUSH1 0x84 ADD PUSH2 0x234C JUMP JUMPDEST DUP1 ISZERO DUP1 PUSH2 0x2433 JUMPI POP PUSH1 0x40 MLOAD PUSH4 0x6EB1769F PUSH1 0xE1 SHL DUP2 MSTORE ADDRESS PUSH1 0x4 DUP3 ADD MSTORE PUSH1 0x1 PUSH1 0x1 PUSH1 0xA0 SHL SUB DUP4 DUP2 AND PUSH1 0x24 DUP4 ADD MSTORE DUP5 AND SWAP1 PUSH4 0xDD62ED3E SWAP1 PUSH1 0x44 ADD PUSH1 0x20 PUSH1 0x40 MLOAD DUP1 DUP4 SUB DUP2 DUP7 GAS STATICCALL ISZERO DUP1 ISZERO PUSH2 0x240D JUMPI RETURNDATASIZE PUSH0 DUP1 RETURNDATACOPY RETURNDATASIZE PUSH0 REVERT JUMPDEST POP POP POP POP PUSH1 0x40 MLOAD RETURNDATASIZE PUSH1 0x1F NOT PUSH1 0x1F DUP3 ADD AND DUP3 ADD DUP1 PUSH1 0x40 MSTORE POP DUP2 ADD SWAP1 PUSH2 0x2431 SWAP2 SWAP1 PUSH2 0x2949 JUMP JUMPDEST ISZERO JUMPDEST PUSH2 0x249E JUMPI PUSH1 0x40 MLOAD PUSH3 0x461BCD PUSH1 0xE5 SHL DUP2 MSTORE PUSH1 0x20 PUSH1 0x4 DUP3 ADD MSTORE PUSH1 0x36 PUSH1 0x24 DUP3 ADD MSTORE PUSH32 0x5361666545524332303A20617070726F76652066726F6D206E6F6E2D7A65726F PUSH1 0x44 DUP3 ADD MSTORE PUSH22 0x20746F206E6F6E2D7A65726F20616C6C6F77616E6365 PUSH1 0x50 SHL PUSH1 0x64 DUP3 ADD MSTORE PUSH1 0x84 ADD PUSH2 0x5A1 JUMP JUMPDEST PUSH1 0x40 MLOAD PUSH1 0x1 PUSH1 0x1 PUSH1 0xA0 SHL SUB DUP4 AND PUSH1 0x24 DUP3 ADD MSTORE PUSH1 0x44 DUP2 ADD DUP3 SWAP1 MSTORE PUSH2 0x1F64 SWAP1 DUP5 SWAP1 PUSH4 0x95EA7B3 PUSH1 0xE0 SHL SWAP1 PUSH1 0x64 ADD PUSH2 0x234C JUMP JUMPDEST PUSH0 PUSH2 0x2522 DUP3 PUSH1 0x40 MLOAD DUP1 PUSH1 0x40 ADD PUSH1 0x40 MSTORE DUP1 PUSH1 0x20 DUP2 MSTORE PUSH1 0x20 ADD PUSH32 0x5361666545524332303A206C6F772D6C6576656C2063616C6C206661696C6564 DUP2 MSTORE POP DUP6 PUSH1 0x1 PUSH1 0x1 PUSH1 0xA0 SHL SUB AND PUSH2 0x25A1 SWAP1 SWAP3 SWAP2 SWAP1 PUSH4 0xFFFFFFFF AND JUMP JUMPDEST SWAP1 POP DUP1 MLOAD PUSH0 EQ DUP1 PUSH2 0x2542 JUMPI POP DUP1 DUP1 PUSH1 0x20 ADD SWAP1 MLOAD DUP2 ADD SWAP1 PUSH2 0x2542 SWAP2 SWAP1 PUSH2 0x2B55 JUMP JUMPDEST PUSH2 0x1F64 JUMPI PUSH1 0x40 MLOAD PUSH3 0x461BCD PUSH1 0xE5 SHL DUP2 MSTORE PUSH1 0x20 PUSH1 0x4 DUP3 ADD MSTORE PUSH1 0x2A PUSH1 0x24 DUP3 ADD MSTORE PUSH32 0x5361666545524332303A204552433230206F7065726174696F6E20646964206E PUSH1 0x44 DUP3 ADD MSTORE PUSH10 0x1BDD081CDD58D8D95959 PUSH1 0xB2 SHL PUSH1 0x64 DUP3 ADD MSTORE PUSH1 0x84 ADD PUSH2 0x5A1 JUMP JUMPDEST PUSH1 0x60 PUSH2 0x25AF DUP5 DUP5 PUSH0 DUP6 PUSH2 0x25B7 JUMP JUMPDEST SWAP5 SWAP4 POP POP POP POP JUMP JUMPDEST PUSH1 0x60 DUP3 SELFBALANCE LT ISZERO PUSH2 0x2618 JUMPI PUSH1 0x40 MLOAD PUSH3 0x461BCD PUSH1 0xE5 SHL DUP2 MSTORE PUSH1 0x20 PUSH1 0x4 DUP3 ADD MSTORE PUSH1 0x26 PUSH1 0x24 DUP3 ADD MSTORE PUSH32 0x416464726573733A20696E73756666696369656E742062616C616E636520666F PUSH1 0x44 DUP3 ADD MSTORE PUSH6 0x1C8818D85B1B PUSH1 0xD2 SHL PUSH1 0x64 DUP3 ADD MSTORE PUSH1 0x84 ADD PUSH2 0x5A1 JUMP JUMPDEST PUSH0 DUP1 DUP7 PUSH1 0x1 PUSH1 0x1 PUSH1 0xA0 SHL SUB AND DUP6 DUP8 PUSH1 0x40 MLOAD PUSH2 0x2633 SWAP2 SWAP1 PUSH2 0x2B90 JUMP JUMPDEST PUSH0 PUSH1 0x40 MLOAD DUP1 DUP4 SUB DUP2 DUP6 DUP8 GAS CALL SWAP3 POP POP POP RETURNDATASIZE DUP1 PUSH0 DUP2 EQ PUSH2 0x266D JUMPI PUSH1 0x40 MLOAD SWAP2 POP PUSH1 0x1F NOT PUSH1 0x3F RETURNDATASIZE ADD AND DUP3 ADD PUSH1 0x40 MSTORE RETURNDATASIZE DUP3 MSTORE RETURNDATASIZE PUSH0 PUSH1 0x20 DUP5 ADD RETURNDATACOPY PUSH2 0x2672 JUMP JUMPDEST PUSH1 0x60 SWAP2 POP JUMPDEST POP SWAP2 POP SWAP2 POP PUSH2 0xA85 DUP8 DUP4 DUP4 DUP8 PUSH1 0x60 DUP4 ISZERO PUSH2 0x26EC JUMPI DUP3 MLOAD PUSH0 SUB PUSH2 0x26E5 JUMPI PUSH1 0x1 PUSH1 0x1 PUSH1 0xA0 SHL SUB DUP6 AND EXTCODESIZE PUSH2 0x26E5 JUMPI PUSH1 0x40 MLOAD PUSH3 0x461BCD PUSH1 0xE5 SHL DUP2 MSTORE PUSH1 0x20 PUSH1 0x4 DUP3 ADD MSTORE PUSH1 0x1D PUSH1 0x24 DUP3 ADD MSTORE PUSH32 0x416464726573733A2063616C6C20746F206E6F6E2D636F6E7472616374000000 PUSH1 0x44 DUP3 ADD MSTORE PUSH1 0x64 ADD PUSH2 0x5A1 JUMP JUMPDEST POP DUP2 PUSH2 0x25AF JUMP JUMPDEST PUSH2 0x25AF DUP4 DUP4 DUP2 MLOAD ISZERO PUSH2 0x2701 JUMPI DUP2 MLOAD DUP1 DUP4 PUSH1 0x20 ADD REVERT JUMPDEST DUP1 PUSH1 0x40 MLOAD PUSH3 0x461BCD PUSH1 0xE5 SHL DUP2 MSTORE PUSH1 0x4 ADD PUSH2 0x5A1 SWAP2 SWAP1 PUSH2 0x2BAB JUMP JUMPDEST PUSH1 0x1 PUSH1 0x1 PUSH1 0xA0 SHL SUB DUP2 AND DUP2 EQ PUSH2 0x272F JUMPI PUSH0 DUP1 REVERT JUMPDEST POP JUMP JUMPDEST PUSH0 PUSH1 0x20 DUP3 DUP5 SUB SLT ISZERO PUSH2 0x2742 JUMPI PUSH0 DUP1 REVERT JUMPDEST DUP2 CALLDATALOAD PUSH2 0x1C7D DUP2 PUSH2 0x271B JUMP JUMPDEST PUSH0 DUP1 PUSH1 0x40 DUP4 DUP6 SUB SLT ISZERO PUSH2 0x275E JUMPI PUSH0 DUP1 REVERT JUMPDEST POP POP DUP1 CALLDATALOAD SWAP3 PUSH1 0x20 SWAP1 SWAP2 ADD CALLDATALOAD SWAP2 POP JUMP JUMPDEST PUSH0 DUP1 PUSH0 DUP1 PUSH0 PUSH1 0x80 DUP7 DUP9 SUB SLT ISZERO PUSH2 0x2781 JUMPI PUSH0 DUP1 REVERT JUMPDEST DUP6 CALLDATALOAD SWAP5 POP PUSH1 0x20 DUP7 ADD CALLDATALOAD PUSH2 0x2793 DUP2 PUSH2 0x271B JUMP JUMPDEST SWAP4 POP PUSH1 0x40 DUP7 ADD CALLDATALOAD SWAP3 POP PUSH1 0x60 DUP7 ADD CALLDATALOAD PUSH8 0xFFFFFFFFFFFFFFFF DUP1 DUP3 GT ISZERO PUSH2 0x27B6 JUMPI PUSH0 DUP1 REVERT JUMPDEST DUP2 DUP9 ADD SWAP2 POP DUP9 PUSH1 0x1F DUP4 ADD SLT PUSH2 0x27C9 JUMPI PUSH0 DUP1 REVERT JUMPDEST DUP2 CALLDATALOAD DUP2 DUP2 GT ISZERO PUSH2 0x27D7 JUMPI PUSH0 DUP1 REVERT JUMPDEST DUP10 PUSH1 0x20 DUP3 DUP6 ADD ADD GT ISZERO PUSH2 0x27E8 JUMPI PUSH0 DUP1 REVERT JUMPDEST SWAP7 SWAP10 SWAP6 SWAP9 POP SWAP4 SWAP7 POP PUSH1 0x20 ADD SWAP5 SWAP4 SWAP3 POP POP POP JUMP JUMPDEST PUSH0 DUP1 PUSH0 PUSH1 0x60 DUP5 DUP7 SUB SLT ISZERO PUSH2 0x280D JUMPI PUSH0 DUP1 REVERT JUMPDEST DUP4 CALLDATALOAD SWAP3 POP PUSH1 0x20 DUP5 ADD CALLDATALOAD SWAP2 POP PUSH1 0x40 DUP5 ADD CALLDATALOAD PUSH2 0x2826 DUP2 PUSH2 0x271B JUMP JUMPDEST DUP1 SWAP2 POP POP SWAP3 POP SWAP3 POP SWAP3 JUMP JUMPDEST PUSH0 PUSH1 0x20 DUP3 DUP5 SUB SLT ISZERO PUSH2 0x2841 JUMPI PUSH0 DUP1 REVERT JUMPDEST POP CALLDATALOAD SWAP2 SWAP1 POP JUMP JUMPDEST PUSH0 DUP1 PUSH1 0x40 DUP4 DUP6 SUB SLT ISZERO PUSH2 0x2859 JUMPI PUSH0 DUP1 REVERT JUMPDEST DUP3 CALLDATALOAD PUSH2 0x2864 DUP2 PUSH2 0x271B JUMP JUMPDEST SWAP5 PUSH1 0x20 SWAP4 SWAP1 SWAP4 ADD CALLDATALOAD SWAP4 POP POP POP JUMP JUMPDEST PUSH0 DUP1 PUSH1 0x40 DUP4 DUP6 SUB SLT ISZERO PUSH2 0x2883 JUMPI PUSH0 DUP1 REVERT JUMPDEST DUP3 CALLDATALOAD SWAP2 POP PUSH1 0x20 DUP4 ADD CALLDATALOAD PUSH2 0x2895 DUP2 PUSH2 0x271B JUMP JUMPDEST DUP1 SWAP2 POP POP SWAP3 POP SWAP3 SWAP1 POP JUMP JUMPDEST PUSH0 PUSH1 0x20 DUP3 DUP5 SUB SLT ISZERO PUSH2 0x28B0 JUMPI PUSH0 DUP1 REVERT JUMPDEST DUP2 MLOAD PUSH2 0x1C7D DUP2 PUSH2 0x271B JUMP JUMPDEST PUSH1 0x20 DUP1 DUP3 MSTORE PUSH1 0xE SWAP1 DUP3 ADD MSTORE PUSH14 0x24B73B30B634B21031B0B63632B9 PUSH1 0x91 SHL PUSH1 0x40 DUP3 ADD MSTORE PUSH1 0x60 ADD SWAP1 JUMP JUMPDEST PUSH1 0x20 DUP1 DUP3 MSTORE PUSH1 0x12 SWAP1 DUP3 ADD MSTORE PUSH18 0x141BDBDB08191BD95CDB89DD08195E1A5CDD PUSH1 0x72 SHL PUSH1 0x40 DUP3 ADD MSTORE PUSH1 0x60 ADD SWAP1 JUMP JUMPDEST PUSH1 0x20 DUP1 DUP3 MSTORE PUSH1 0xC SWAP1 DUP3 ADD MSTORE PUSH12 0x125B1B1959D85B0818D85B1B PUSH1 0xA2 SHL PUSH1 0x40 DUP3 ADD MSTORE PUSH1 0x60 ADD SWAP1 JUMP JUMPDEST PUSH4 0x4E487B71 PUSH1 0xE0 SHL PUSH0 MSTORE PUSH1 0x32 PUSH1 0x4 MSTORE PUSH1 0x24 PUSH0 REVERT JUMPDEST PUSH0 PUSH1 0x20 DUP3 DUP5 SUB SLT ISZERO PUSH2 0x2959 JUMPI PUSH0 DUP1 REVERT JUMPDEST POP MLOAD SWAP2 SWAP1 POP JUMP JUMPDEST DUP2 DUP2 SUB DUP2 DUP2 GT ISZERO PUSH2 0x1C80 JUMPI PUSH4 0x4E487B71 PUSH1 0xE0 SHL PUSH0 MSTORE PUSH1 0x11 PUSH1 0x4 MSTORE PUSH1 0x24 PUSH0 REVERT JUMPDEST PUSH1 0x40 MLOAD PUSH2 0x100 DUP2 ADD PUSH8 0xFFFFFFFFFFFFFFFF DUP2 GT DUP3 DUP3 LT OR ISZERO PUSH2 0x29AF JUMPI PUSH4 0x4E487B71 PUSH1 0xE0 SHL PUSH0 MSTORE PUSH1 0x41 PUSH1 0x4 MSTORE PUSH1 0x24 PUSH0 REVERT JUMPDEST PUSH1 0x40 MSTORE SWAP1 JUMP JUMPDEST PUSH0 PUSH1 0x80 DUP3 DUP5 SUB SLT ISZERO PUSH2 0x29C5 JUMPI PUSH0 DUP1 REVERT JUMPDEST PUSH1 0x40 MLOAD PUSH1 0x80 DUP2 ADD DUP2 DUP2 LT PUSH8 0xFFFFFFFFFFFFFFFF DUP3 GT OR ISZERO PUSH2 0x29F4 JUMPI PUSH4 0x4E487B71 PUSH1 0xE0 SHL PUSH0 MSTORE PUSH1 0x41 PUSH1 0x4 MSTORE PUSH1 0x24 PUSH0 REVERT JUMPDEST PUSH1 0x40 MSTORE DUP3 MLOAD PUSH2 0x2A02 DUP2 PUSH2 0x271B JUMP JUMPDEST DUP1 DUP3 MSTORE POP PUSH1 0x20 DUP4 ADD MLOAD PUSH1 0x20 DUP3 ADD MSTORE PUSH1 0x40 DUP4 ADD MLOAD PUSH1 0x40 DUP3 ADD MSTORE PUSH1 0x60 DUP4 ADD MLOAD PUSH1 0x60 DUP3 ADD MSTORE DUP1 SWAP2 POP POP SWAP3 SWAP2 POP POP JUMP JUMPDEST DUP1 MLOAD DUP1 ISZERO ISZERO DUP2 EQ PUSH2 0x2A3D JUMPI PUSH0 DUP1 REVERT JUMPDEST SWAP2 SWAP1 POP JUMP JUMPDEST PUSH0 PUSH1 0x60 DUP3 DUP5 SUB SLT ISZERO PUSH2 0x2A52 JUMPI PUSH0 DUP1 REVERT JUMPDEST PUSH1 0x40 MLOAD PUSH1 0x60 DUP2 ADD DUP2 DUP2 LT PUSH8 0xFFFFFFFFFFFFFFFF DUP3 GT OR ISZERO PUSH2 0x2A81 JUMPI PUSH4 0x4E487B71 PUSH1 0xE0 SHL PUSH0 MSTORE PUSH1 0x41 PUSH1 0x4 MSTORE PUSH1 0x24 PUSH0 REVERT JUMPDEST DUP1 PUSH1 0x40 MSTORE POP DUP1 SWAP2 POP DUP3 MLOAD PUSH2 0x2A94 DUP2 PUSH2 0x271B JUMP JUMPDEST DUP2 MSTORE PUSH1 0x20 DUP4 DUP2 ADD MLOAD SWAP1 DUP3 ADD MSTORE PUSH2 0x2AAC PUSH1 0x40 DUP5 ADD PUSH2 0x2A2E JUMP JUMPDEST PUSH1 0x40 DUP3 ADD MSTORE POP SWAP3 SWAP2 POP POP JUMP JUMPDEST PUSH0 PUSH2 0x1C0 DUP3 DUP5 SUB SLT ISZERO PUSH2 0x2AC9 JUMPI PUSH0 DUP1 REVERT JUMPDEST PUSH2 0x2AD1 PUSH2 0x297F JUMP JUMPDEST PUSH2 0x2ADB DUP5 DUP5 PUSH2 0x2A42 JUMP JUMPDEST DUP2 MSTORE PUSH2 0x2AEA DUP5 PUSH1 0x60 DUP6 ADD PUSH2 0x2A42 JUMP JUMPDEST PUSH1 0x20 DUP3 ADD MSTORE PUSH2 0x2AFC DUP5 PUSH1 0xC0 DUP6 ADD PUSH2 0x2A42 JUMP JUMPDEST PUSH1 0x40 DUP3 ADD MSTORE PUSH2 0x2B0E PUSH2 0x120 DUP5 ADD PUSH2 0x2A2E JUMP JUMPDEST PUSH1 0x60 DUP3 ADD MSTORE PUSH2 0x140 DUP4 ADD MLOAD PUSH1 0x80 DUP3 ADD MSTORE PUSH2 0x160 DUP4 ADD MLOAD PUSH1 0xA0 DUP3 ADD MSTORE PUSH2 0x180 DUP4 ADD MLOAD PUSH1 0xC0 DUP3 ADD MSTORE PUSH2 0x1A0 SWAP1 SWAP3 ADD MLOAD PUSH1 0xE0 DUP4 ADD MSTORE POP SWAP2 SWAP1 POP JUMP JUMPDEST DUP2 DUP4 DUP3 CALLDATACOPY PUSH0 SWAP2 ADD SWAP1 DUP2 MSTORE SWAP2 SWAP1 POP JUMP JUMPDEST PUSH0 PUSH1 0x20 DUP3 DUP5 SUB SLT ISZERO PUSH2 0x2B65 JUMPI PUSH0 DUP1 REVERT JUMPDEST PUSH2 0x1C7D DUP3 PUSH2 0x2A2E JUMP JUMPDEST PUSH0 JUMPDEST DUP4 DUP2 LT ISZERO PUSH2 0x2B88 JUMPI DUP2 DUP2 ADD MLOAD DUP4 DUP3 ADD MSTORE PUSH1 0x20 ADD PUSH2 0x2B70 JUMP JUMPDEST POP POP PUSH0 SWAP2 ADD MSTORE JUMP JUMPDEST PUSH0 DUP3 MLOAD PUSH2 0x2BA1 DUP2 DUP5 PUSH1 0x20 DUP8 ADD PUSH2 0x2B6E JUMP JUMPDEST SWAP2 SWAP1 SWAP2 ADD SWAP3 SWAP2 POP POP JUMP JUMPDEST PUSH1 0x20 DUP2 MSTORE PUSH0 DUP3 MLOAD DUP1 PUSH1 0x20 DUP5 ADD MSTORE PUSH2 0x2BC9 DUP2 PUSH1 0x40 DUP6 ADD PUSH1 0x20 DUP8 ADD PUSH2 0x2B6E JUMP JUMPDEST PUSH1 0x1F ADD PUSH1 0x1F NOT AND SWAP2 SWAP1 SWAP2 ADD PUSH1 0x40 ADD SWAP3 SWAP2 POP POP JUMP INVALID LOG2 PUSH5 0x6970667358 0x22 SLT KECCAK256 0xA7 0x4C 0xD7 EQ RETURNDATACOPY 0xBB 0x2D DUP12 0x1E LOG0 BYTE 0xCF SELFBALANCE 0xD1 0xD3 MUL MLOAD 0xC8 RETURNDATACOPY CHAINID BYTE STOP 0xE STOP RETURN LOG1 0xE9 LOG0 0xB9 0xE7 0x2F PUSH21 0x64736F6C6343000815003300000000000000000000 "
		},
		"gasEstimates": {
			"creation": {
				"codeDepositCost": "2256600",
				"executionCost": "2410",
				"totalCost": "2259010"
			},
			"external": {
				"": "207",
				"addPool(address)": "infinite",
				"allowedPool(address)": "2592",
				"changeAggregatorAddress(address)": "infinite",
				"changeRegistryContractAddr(address)": "infinite",
				"claimReward(uint256)": "infinite",
				"deposit(uint256,uint256)": "infinite",
				"getMinToDeposit(uint256)": "infinite",
				"getPoolCurrentYield(uint256)": "infinite",
				"getPoolDetails(uint256)": "infinite",
				"getPoolDrawInfo(uint256,uint256)": "infinite",
				"getPoolLatestEpoch(uint256)": "infinite",
				"getPoolLength()": "2325",
				"getPoolTVL(uint256)": "infinite",
				"getRewardClaimable(address,uint256)": "infinite",
				"getUserDepositInfo(uint256,address)": "infinite",
				"getUserTicketAmountByPoolID(uint256,uint256,address)": "infinite",
				"initialize(address)": "51064",
				"isPoolAllowed(address)": "2655",
				"removePool(uint256)": "infinite",
				"withdraw(uint256,uint256)": "infinite",
				"zap(uint256,address,uint256,bytes)": "infinite"
			},
			"internal": {
				"_approveToPool(address,address,uint256)": "infinite",
				"_performSwap(address,uint256,bytes calldata)": "infinite",
				"_processClaimReward(address,address)": "infinite",
				"_processDeposit(address,address,uint256)": "infinite",
				"_processTransferBacktoUser(address,address,uint256)": "infinite",
				"_processWithdraw(address,address,uint256)": "infinite",
				"_transferRegistryAddr(address)": "24278",
				"depositToPool(address,address,address,uint256)": "infinite",
				"getTokenFromUser(address,uint256)": "infinite",
				"performSwap(address,address,uint256,bytes calldata)": "infinite",
				"withdrawFromPool(address,address,address,uint256)": "infinite"
			}
		},
		"methodIdentifiers": {
			"addPool(address)": "d914cd4b",
			"allowedPool(address)": "f50a9351",
			"changeAggregatorAddress(address)": "3e7eae7f",
			"changeRegistryContractAddr(address)": "fa7c828a",
			"claimReward(uint256)": "ae169a50",
			"deposit(uint256,uint256)": "e2bbb158",
			"getMinToDeposit(uint256)": "5f311150",
			"getPoolCurrentYield(uint256)": "60ab49ea",
			"getPoolDetails(uint256)": "b8764c39",
			"getPoolDrawInfo(uint256,uint256)": "fdc9ccfa",
			"getPoolLatestEpoch(uint256)": "5922f9c9",
			"getPoolLength()": "b3944d52",
			"getPoolTVL(uint256)": "8f244630",
			"getRewardClaimable(address,uint256)": "888d7bdd",
			"getUserDepositInfo(uint256,address)": "fac4348b",
			"getUserTicketAmountByPoolID(uint256,uint256,address)": "57ba8dde",
			"initialize(address)": "c4d66de8",
			"isPoolAllowed(address)": "d1e71c94",
			"removePool(uint256)": "a38dcbd0",
			"withdraw(uint256,uint256)": "441a3e70",
			"zap(uint256,address,uint256,bytes)": "4d5d336e"
		}
	},
	"abi": [
		{
			"anonymous": false,
			"inputs": [
				{
					"indexed": false,
					"internalType": "address",
					"name": "oldController",
					"type": "address"
				},
				{
					"indexed": false,
					"internalType": "address",
					"name": "newController",
					"type": "address"
				}
			],
			"name": "ControllerRoleTransferred",
			"type": "event"
		},
		{
			"anonymous": false,
			"inputs": [
				{
					"indexed": false,
					"internalType": "address",
					"name": "who",
					"type": "address"
				},
				{
					"indexed": false,
					"internalType": "address",
					"name": "poolAddress",
					"type": "address"
				},
				{
					"indexed": false,
					"internalType": "address",
					"name": "Token",
					"type": "address"
				},
				{
					"indexed": false,
					"internalType": "uint256",
					"name": "amount",
					"type": "uint256"
				}
			],
			"name": "EpochRewardClaimed",
			"type": "event"
		},
		{
			"anonymous": false,
			"inputs": [
				{
					"indexed": false,
					"internalType": "address",
					"name": "oldOwner",
					"type": "address"
				},
				{
					"indexed": false,
					"internalType": "address",
					"name": "newOwner",
					"type": "address"
				}
			],
			"name": "OwnershipTransferred",
			"type": "event"
		},
		{
			"anonymous": false,
			"inputs": [
				{
					"indexed": false,
					"internalType": "address",
					"name": "who",
					"type": "address"
				},
				{
					"indexed": false,
					"internalType": "address",
					"name": "poolAddress",
					"type": "address"
				},
				{
					"indexed": false,
					"internalType": "uint256",
					"name": "amount",
					"type": "uint256"
				}
			],
			"name": "deposited",
			"type": "event"
		},
		{
			"anonymous": false,
			"inputs": [
				{
					"indexed": false,
					"internalType": "address",
					"name": "who",
					"type": "address"
				},
				{
					"indexed": false,
					"internalType": "address",
					"name": "poolAddress",
					"type": "address"
				},
				{
					"indexed": false,
					"internalType": "uint256",
					"name": "amount",
					"type": "uint256"
				}
			],
			"name": "withdrawn",
			"type": "event"
		},
		{
			"stateMutability": "payable",
			"type": "fallback"
		},
		{
			"inputs": [
				{
					"internalType": "address",
					"name": "_poolAddress",
					"type": "address"
				}
			],
			"name": "addPool",
			"outputs": [],
			"stateMutability": "nonpayable",
			"type": "function"
		},
		{
			"inputs": [
				{
					"internalType": "address",
					"name": "",
					"type": "address"
				}
			],
			"name": "allowedPool",
			"outputs": [
				{
					"internalType": "bool",
					"name": "",
					"type": "bool"
				}
			],
			"stateMutability": "view",
			"type": "function"
		},
		{
			"inputs": [
				{
					"internalType": "address",
					"name": "router",
					"type": "address"
				}
			],
			"name": "changeAggregatorAddress",
			"outputs": [],
			"stateMutability": "nonpayable",
			"type": "function"
		},
		{
			"inputs": [
				{
					"internalType": "address",
					"name": "registryAddress",
					"type": "address"
				}
			],
			"name": "changeRegistryContractAddr",
			"outputs": [],
			"stateMutability": "nonpayable",
			"type": "function"
		},
		{
			"inputs": [
				{
					"internalType": "uint256",
					"name": "poolID",
					"type": "uint256"
				}
			],
			"name": "claimReward",
			"outputs": [],
			"stateMutability": "nonpayable",
			"type": "function"
		},
		{
			"inputs": [
				{
					"internalType": "uint256",
					"name": "poolID",
					"type": "uint256"
				},
				{
					"internalType": "uint256",
					"name": "amount",
					"type": "uint256"
				}
			],
			"name": "deposit",
			"outputs": [],
			"stateMutability": "nonpayable",
			"type": "function"
		},
		{
			"inputs": [
				{
					"internalType": "uint256",
					"name": "poolID",
					"type": "uint256"
				}
			],
			"name": "getMinToDeposit",
			"outputs": [
				{
					"internalType": "uint256",
					"name": "",
					"type": "uint256"
				}
			],
			"stateMutability": "view",
			"type": "function"
		},
		{
			"inputs": [
				{
					"internalType": "uint256",
					"name": "poolID",
					"type": "uint256"
				}
			],
			"name": "getPoolCurrentYield",
			"outputs": [
				{
					"internalType": "uint256",
					"name": "",
					"type": "uint256"
				}
			],
			"stateMutability": "view",
			"type": "function"
		},
		{
			"inputs": [
				{
					"internalType": "uint256",
					"name": "poolID",
					"type": "uint256"
				}
			],
			"name": "getPoolDetails",
			"outputs": [
				{
					"components": [
						{
							"internalType": "address",
							"name": "PoolAddress",
							"type": "address"
						},
						{
							"internalType": "address",
							"name": "PoolTokenToUse",
							"type": "address"
						}
					],
					"internalType": "struct Router._PoolDetails",
					"name": "",
					"type": "tuple"
				}
			],
			"stateMutability": "view",
			"type": "function"
		},
		{
			"inputs": [
				{
					"internalType": "uint256",
					"name": "epochNumber",
					"type": "uint256"
				},
				{
					"internalType": "uint256",
					"name": "poolID",
					"type": "uint256"
				}
			],
			"name": "getPoolDrawInfo",
			"outputs": [
				{
					"components": [
						{
							"components": [
								{
									"internalType": "address",
									"name": "winner",
									"type": "address"
								},
								{
									"internalType": "uint256",
									"name": "prizeAmount",
									"type": "uint256"
								},
								{
									"internalType": "bool",
									"name": "claimed",
									"type": "bool"
								}
							],
							"internalType": "struct Router.PrizeDetails",
							"name": "first",
							"type": "tuple"
						},
						{
							"components": [
								{
									"internalType": "address",
									"name": "winner",
									"type": "address"
								},
								{
									"internalType": "uint256",
									"name": "prizeAmount",
									"type": "uint256"
								},
								{
									"internalType": "bool",
									"name": "claimed",
									"type": "bool"
								}
							],
							"internalType": "struct Router.PrizeDetails",
							"name": "second",
							"type": "tuple"
						},
						{
							"components": [
								{
									"internalType": "address",
									"name": "winner",
									"type": "address"
								},
								{
									"internalType": "uint256",
									"name": "prizeAmount",
									"type": "uint256"
								},
								{
									"internalType": "bool",
									"name": "claimed",
									"type": "bool"
								}
							],
							"internalType": "struct Router.PrizeDetails",
							"name": "third",
							"type": "tuple"
						},
						{
							"internalType": "bool",
							"name": "finalized",
							"type": "bool"
						},
						{
							"internalType": "uint256",
							"name": "totalPrize",
							"type": "uint256"
						},
						{
							"internalType": "uint256",
							"name": "duration",
							"type": "uint256"
						},
						{
							"internalType": "uint256",
							"name": "createdTimeStamp",
							"type": "uint256"
						},
						{
							"internalType": "uint256",
							"name": "totalParticipant",
							"type": "uint256"
						}
					],
					"internalType": "struct Router.EpochResult",
					"name": "",
					"type": "tuple"
				}
			],
			"stateMutability": "view",
			"type": "function"
		},
		{
			"inputs": [
				{
					"internalType": "uint256",
					"name": "poolID",
					"type": "uint256"
				}
			],
			"name": "getPoolLatestEpoch",
			"outputs": [
				{
					"internalType": "uint256",
					"name": "",
					"type": "uint256"
				}
			],
			"stateMutability": "view",
			"type": "function"
		},
		{
			"inputs": [],
			"name": "getPoolLength",
			"outputs": [
				{
					"internalType": "uint256",
					"name": "",
					"type": "uint256"
				}
			],
			"stateMutability": "view",
			"type": "function"
		},
		{
			"inputs": [
				{
					"internalType": "uint256",
					"name": "poolID",
					"type": "uint256"
				}
			],
			"name": "getPoolTVL",
			"outputs": [
				{
					"internalType": "uint256",
					"name": "",
					"type": "uint256"
				}
			],
			"stateMutability": "view",
			"type": "function"
		},
		{
			"inputs": [
				{
					"internalType": "address",
					"name": "user",
					"type": "address"
				},
				{
					"internalType": "uint256",
					"name": "poolID",
					"type": "uint256"
				}
			],
			"name": "getRewardClaimable",
			"outputs": [
				{
					"internalType": "uint256",
					"name": "",
					"type": "uint256"
				}
			],
			"stateMutability": "view",
			"type": "function"
		},
		{
			"inputs": [
				{
					"internalType": "uint256",
					"name": "poolID",
					"type": "uint256"
				},
				{
					"internalType": "address",
					"name": "user",
					"type": "address"
				}
			],
			"name": "getUserDepositInfo",
			"outputs": [
				{
					"components": [
						{
							"internalType": "address",
							"name": "userAddress",
							"type": "address"
						},
						{
							"internalType": "uint256",
							"name": "DepositAmount",
							"type": "uint256"
						},
						{
							"internalType": "uint256",
							"name": "registeredDate",
							"type": "uint256"
						},
						{
							"internalType": "uint256",
							"name": "Lastupdated",
							"type": "uint256"
						}
					],
					"internalType": "struct Router.userInfo",
					"name": "",
					"type": "tuple"
				}
			],
			"stateMutability": "view",
			"type": "function"
		},
		{
			"inputs": [
				{
					"internalType": "uint256",
					"name": "epochNumber",
					"type": "uint256"
				},
				{
					"internalType": "uint256",
					"name": "poolID",
					"type": "uint256"
				},
				{
					"internalType": "address",
					"name": "user",
					"type": "address"
				}
			],
			"name": "getUserTicketAmountByPoolID",
			"outputs": [
				{
					"internalType": "uint256",
					"name": "",
					"type": "uint256"
				}
			],
			"stateMutability": "view",
			"type": "function"
		},
		{
			"inputs": [
				{
					"internalType": "address",
					"name": "registryAddress",
					"type": "address"
				}
			],
			"name": "initialize",
			"outputs": [],
			"stateMutability": "nonpayable",
			"type": "function"
		},
		{
			"inputs": [
				{
					"internalType": "address",
					"name": "_poolAddress",
					"type": "address"
				}
			],
			"name": "isPoolAllowed",
			"outputs": [
				{
					"internalType": "bool",
					"name": "",
					"type": "bool"
				}
			],
			"stateMutability": "view",
			"type": "function"
		},
		{
			"inputs": [
				{
					"internalType": "uint256",
					"name": "poolID",
					"type": "uint256"
				}
			],
			"name": "removePool",
			"outputs": [],
			"stateMutability": "nonpayable",
			"type": "function"
		},
		{
			"inputs": [
				{
					"internalType": "uint256",
					"name": "poolID",
					"type": "uint256"
				},
				{
					"internalType": "uint256",
					"name": "amount",
					"type": "uint256"
				}
			],
			"name": "withdraw",
			"outputs": [],
			"stateMutability": "nonpayable",
			"type": "function"
		},
		{
			"inputs": [
				{
					"internalType": "uint256",
					"name": "poolID",
					"type": "uint256"
				},
				{
					"internalType": "address",
					"name": "tokenIn",
					"type": "address"
				},
				{
					"internalType": "uint256",
					"name": "amount",
					"type": "uint256"
				},
				{
					"internalType": "bytes",
					"name": "swapData",
					"type": "bytes"
				}
			],
			"name": "zap",
			"outputs": [],
			"stateMutability": "payable",
			"type": "function"
		}
	]
}