{
	"data": {
		"bytecode": {
			"linkReferences": {},
			"object": "608060405234801561000f575f80fd5b506136f68061001d5f395ff3fe608060405234801561000f575f80fd5b50600436106101a1575f3560e01c8063a3058071116100f3578063ca6d83df11610093578063db518db21161006e578063db518db2146104aa578063ec20c2e5146104bd578063fa7c828a146104c5578063fd2324de146104d8575f80fd5b8063ca6d83df14610467578063cfe8a73b1461048f578063d474fbf714610497575f80fd5b8063a583024b116100ce578063a583024b146103ca578063b3a7834d146103f2578063c4d66de814610441578063c51475b914610454575f80fd5b8063a30580711461039c578063a3d74f06146103af578063a3fb7050146103b7575f80fd5b80631ac6d19d1161015e5780632f4f21e2116101395780632f4f21e21461034e578063361f1ad314610361578063858c758514610369578063a2122bf714610389575f80fd5b80631ac6d19d1461031e57806326be90bf146103315780632c26eb4614610339575f80fd5b8063039da66e146101a5578063095d0c94146101c35780630ef12aa9146101d55780630fce03b9146101fd578063135022c21461022257806318703da5146102fe575b5f80fd5b6101ad6104e0565b6040516101ba919061314a565b60405180910390f35b6001545b6040519081526020016101ba565b6101c76101e336600461317f565b6001600160a01b03165f9081526003602052604090205490565b600f546001600160a01b03165b6040516001600160a01b0390911681526020016101ba565b61023561023036600461319a565b610526565b6040516101ba9190815180516001600160a01b03168252602080820151908301526040908101511515908201526101c0810160208381015180516001600160a01b031660608501529081015160808401526040810151151560a08401525060408381015180516001600160a01b031660c0850152602081015160e08501529081015115156101008401525060608301511515610120830152608083015161014083015260a083015161016083015260c083015161018083015260e0909201516101a09091015290565b61031161030c36600461317f565b6106ae565b6040516101ba91906131b1565b6101c761032c36600461317f565b61073e565b6008546101c7565b61034c61034736600461319a565b610a29565b005b61034c61035c366004613212565b610b1f565b6010546101c7565b61037c610377366004613212565b610c30565b6040516101ba919061323c565b61034c6103973660046132b5565b610d9d565b61034c6103aa3660046132ed565b610e6e565b6101c76112ce565b6101c76103c5366004613344565b61130d565b6101c76103d836600461317f565b6001600160a01b03165f9081526006602052604090205490565b61040561040036600461317f565b6113e7565b6040516101ba919081516001600160a01b0316815260208083015190820152604080830151908201526060918201519181019190915260800190565b61034c61044f36600461317f565b61146f565b61034c610462366004613372565b6114e6565b61020a61047536600461319a565b5f908152600260205260409020546001600160a01b031690565b600d546101c7565b6101c76104a5366004613344565b6115fe565b61034c6104b8366004613212565b611a77565b61034c611bc3565b61034c6104d336600461317f565b612087565b6101c7612132565b61050160405180606001604052805f81526020015f81526020015f81525090565b50604080516060810182526009548152600a546020820152600b549181019190915290565b60408051610160810182525f610100820181815261012083018290526101408301829052825282516060808201855282825260208083018490528286018490528085019290925284518082018652838152918201839052818501839052938301529181018290526080810182905260a0810182905260c0810182905260e08101919091525f600d83815481106105be576105be6133a1565b5f9182526020918290206040805161016081018252600e90930290910180546001600160a01b0390811661010085019081526001830154610120860152600283015460ff90811615156101408701529085528351606081810186526003850154841682526004850154828901526005850154831615158287015286880191909152845180820186526006850154909316835260078401549683019690965260088301548116151582850152928401526009810154909116151592820192909252600a8201546080820152600b82015460a0820152600c82015460c0820152600d9091015460e08201529392505050565b6001600160a01b0381165f908152600660209081526040808320600101805482518185028101850190935280835260609493849084015b82821015610732578382905f5260205f2090600302016040518060600160405290815f820154815260200160018201548152602001600282015481525050815260200190600101906106e5565b50929695505050505050565b5f80546040805163b0f479a160e01b8152905183926001600160a01b03169163b0f479a19160048083019260209291908290030181865afa158015610785573d5f803e3d5ffd5b505050506040513d601f19601f820116820180604052508101906107a991906133b5565b9050336001600160a01b038216146107dc5760405162461bcd60e51b81526004016107d3906133d0565b60405180910390fd5b600754156107fc5760405162461bcd60e51b81526004016107d3906133f8565b60016007555f61080b600d5490565b90505f811161082c5760405162461bcd60e51b81526004016107d39061341e565b6001600160a01b0384165f90815260066020526040902054806108875760405162461bcd60e51b81526020600482015260136024820152724e6f207265776172647320746f20636c61696d60681b60448201526064016107d3565b6001600160a01b0385165f90815260066020526040812081815560020154905b818110156109e9576001600160a01b0387165f9081526006602052604081206002018054839081106108db576108db6133a1565b905f5260205f20015490505f60065f8a6001600160a01b03166001600160a01b031681526020019081526020015f20600101838154811061091e5761091e6133a1565b905f5260205f2090600302016001015490505f600d8381548110610944576109446133a1565b905f5260205f2090600e020190508160010361097f57600281015460ff1615155f0361097a5760028101805460ff191660011790555b6109d3565b816002036109ab57600581015460ff1615155f0361097a5760058101805460ff191660011790556109d3565b816003036109d357600881015460ff1615155f036109d35760088101805460ff191660011790555b50505080806109e190613460565b9150506108a7565b506001600160a01b0386165f908152600660205260408120610a109160029091019061311c565b5f610a1a836121b8565b5f600755979650505050505050565b5f805f9054906101000a90046001600160a01b03166001600160a01b031663cf20d8726040518163ffffffff1660e01b8152600401602060405180830381865afa158015610a79573d5f803e3d5ffd5b505050506040513d601f19601f82011682018060405250810190610a9d91906133b5565b9050336001600160a01b03821614610ac75760405162461bcd60e51b81526004016107d3906133d0565b5f600d8381548110610adb57610adb6133a1565b905f5260205f2090600e020190505f610b0582600b015483600c01546123fb90919063ffffffff16565b9050610b118482612406565b82600d018190555050505050565b5f805f9054906101000a90046001600160a01b03166001600160a01b031663b0f479a16040518163ffffffff1660e01b8152600401602060405180830381865afa158015610b6f573d5f803e3d5ffd5b505050506040513d601f19601f82011682018060405250810190610b9391906133b5565b9050336001600160a01b03821614610bbd5760405162461bcd60e51b81526004016107d3906133d0565b60075415610bdd5760405162461bcd60e51b81526004016107d3906133f8565b60016007555f610bec600d5490565b90505f8111610c0d5760405162461bcd60e51b81526004016107d39061341e565b5f610c178461247b565b9050610c2585826001612584565b50505f600755505050565b604080518082019091525f815260606020820152600d5480610c645760405162461bcd60e51b81526004016107d39061341e565b825f610c6e6112ce565b905080821115610cb75760405162461bcd60e51b815260206004820152601460248201527324b73b30b634b21032b837b1b410373ab6b132b960611b60448201526064016107d3565b6001600160a01b0386165f9081526003602052604081205490819003610cef5760405162461bcd60e51b81526004016107d390613478565b5f868152600560209081526040808320848452825280832081518083018352815460ff16151581526001820180548451818702810187019095528085529194929385840193909290879084015b82821015610d89578382905f5260205f2090600302016040518060600160405290815f82015481526020016001820154815260200160028201548152505081526020019060010190610d3c565b505050915250909998505050505050505050565b5f805f9054906101000a90046001600160a01b03166001600160a01b0316633018205f6040518163ffffffff1660e01b8152600401602060405180830381865afa158015610ded573d5f803e3d5ffd5b505050506040513d601f19601f82011682018060405250810190610e1191906133b5565b9050336001600160a01b03821614610e3b5760405162461bcd60e51b81526004016107d3906133d0565b50600f80546001600160a01b0319166001600160a01b039590951694909417909355601191909155600e91909155601055565b5f805f9054906101000a90046001600160a01b03166001600160a01b031663cf20d8726040518163ffffffff1660e01b8152600401602060405180830381865afa158015610ebe573d5f803e3d5ffd5b505050506040513d601f19601f82011682018060405250810190610ee291906133b5565b9050336001600160a01b03821614610f0c5760405162461bcd60e51b81526004016107d3906133d0565b6001600160a01b0385165f908152600360205260409020545f03610f425760405162461bcd60e51b81526004016107d3906134a8565b6001600160a01b0384165f908152600360205260409020545f03610f785760405162461bcd60e51b81526004016107d3906134a8565b6001600160a01b0383165f908152600360205260409020545f03610fae5760405162461bcd60e51b81526004016107d3906134a8565b5f600d8781548110610fc257610fc26133a1565b5f9182526020909120600e90910201600981015490915060ff16801561101a5760405162461bcd60e51b815260206004820152600d60248201526c45706f636820697320646f6e6560981b60448201526064016107d3565b5f61103683600b015484600c01546123fb90919063ffffffff16565b905080421161107a5760405162461bcd60e51b815260206004820152601060248201526f45706f63682069736e277420646f6e6560801b60448201526064016107d3565b60098301805460ff191660011790555f61109386612663565b600a850181905584546001600160a01b0319166001600160a01b038b16178555600c546009549192506110d1916110cb9084906127dc565b906127e7565b600185015560028401805460ff191690556003840180546001600160a01b0319166001600160a01b038a16179055600c54600a5461111591906110cb9084906127dc565b600485015560058401805460ff191690556006840180546001600160a01b0319166001600160a01b038916179055600c54600b5461115991906110cb9084906127dc565b600785015560088401805460ff19169055604080516003808252608082019092525f916020820160608036833701905050905089815f8151811061119f5761119f6133a1565b60200260200101906001600160a01b031690816001600160a01b03168152505088816001815181106111d3576111d36133a1565b60200260200101906001600160a01b031690816001600160a01b0316815250508781600281518110611207576112076133a1565b6001600160a01b0392909216602092830291909101820152604080516003808252608082019092525f929091908201606080368337019050509050855f0160010154815f8151811061125b5761125b6133a1565b602002602001018181525050856003016001015481600181518110611282576112826133a1565b6020026020010181815250508560060160010154816002815181106112a9576112a96133a1565b6020026020010181815250506112c08c83836127f2565b505050505050505050505050565b5f806112d9600d5490565b90505f81116112fa5760405162461bcd60e51b81526004016107d39061341e565b5f61130682600161298b565b9392505050565b5f80611318600d5490565b90505f81116113395760405162461bcd60e51b81526004016107d39061341e565b835f6113436112ce565b90508082111561138c5760405162461bcd60e51b815260206004820152601460248201527324b73b30b634b21032b837b1b410373ab6b132b960611b60448201526064016107d3565b6001600160a01b0385165f90815260036020526040812054908190036113c45760405162461bcd60e51b81526004016107d390613478565b5f8781526004602090815260408083209383529290522054935050505092915050565b61141760405180608001604052805f6001600160a01b031681526020015f81526020015f81526020015f81525090565b506001600160a01b039081165f90815260036020818152604080842054845260028083529381902081516080810183528154909616865260018101549286019290925292810154928401929092520154606082015290565b5f54600160a01b900460ff16156114c85760405162461bcd60e51b815260206004820152601f60248201527f436f6e747261637420697320696e697469616c697a656420616c72656164790060448201526064016107d3565b6114d181612996565b505f805460ff60a01b1916600160a01b179055565b5f805f9054906101000a90046001600160a01b03166001600160a01b0316633018205f6040518163ffffffff1660e01b8152600401602060405180830381865afa158015611536573d5f803e3d5ffd5b505050506040513d601f19601f8201168201806040525081019061155a91906133b5565b9050336001600160a01b038216146115845760405162461bcd60e51b81526004016107d3906133d0565b816115998461159388886123fb565b906123fb565b146115a2575f80fd5b6009859055600a849055600b839055600c82905560408051868152602081018690529081018490527f276fb89d8224ffd75e667ef77aa3b75f5d7064a6dd5b8c9b9b8761b8b303a3469060600160405180910390a15050505050565b5f8281526004602090815260408083206001600160a01b038516845260038352818420548452909152812054600d805483928392909183919088908110611647576116476133a1565b5f91825260208083206040805161016081018252600e90940290910180546001600160a01b0390811661010086019081526001830154610120870152600283015460ff90811615156101408801529086528351606081810186526003850154841682526004850154828801526005850154831615158287015287870191909152845180820186526006850154909316835260078401549583019590955260088301548116151582850152928501526009810154909116151591830191909152600a8101546080830152600b81015460a08301819052600c82015460c08401819052600d9092015460e084015291935061174091906123fb565b6001600160a01b0388165f9081526003602052604081205491925081900361177a5760405162461bcd60e51b81526004016107d390613478565b5f81815260026020819052604090912060038101546001820154919092015484116117f65760405162461bcd60e51b815260206004820152602660248201527f5573657220686173206e6f742070617274696369706174656420696e20746865604482015265040cae0dec6d60d31b60648201526084016107d3565b5f6118018b8d610c30565b90508560c0015142101580156118175750844211155b156118a7578560c0015183101580156118305750848311155b156118505761184982611843428661298b565b906127dc565b975061187a565b8560c0015183101561187a57611877826118438860c001514261298b90919063ffffffff16565b97505b611896601154600a61188c91906135b4565b6110cb898b6123fb565b9950611a7198505050505050505050565b84421115611a64578560c001518310156118da57611896601154600a6118cd91906135b4565b600e546110cb90856127dc565b805115611986576020810151515f906118f490600161298b565b90505f8260200151828151811061190d5761190d6133a1565b60200260200101516040015190505f61195484602001518481518110611935576119356133a1565b602002602001015160200151611843848b61298b90919063ffffffff16565b9050611972601154600a61196891906135b4565b6110cb8c846123fb565b9c50611a719b505050505050505050505050565b805115155f03611a64575f61199c8d600161298b565b90505f5b8d811015611a51575f6119b38e84610c30565b805190915015611a30576020810151515f906119d090600161298b565b90505f611a0b836020015183815181106119ec576119ec6133a1565b6020026020010151602001518c60a001516127dc90919063ffffffff16565b9050611a26601154600a611a1f91906135b4565b82906127e7565b9d50505050611a51565b611a3b6001846135bf565b9250508080611a4990613460565b9150506119a0565b50899a5050505050505050505050611a71565b505f985050505050505050505b92915050565b5f805f9054906101000a90046001600160a01b03166001600160a01b031663b0f479a16040518163ffffffff1660e01b8152600401602060405180830381865afa158015611ac7573d5f803e3d5ffd5b505050506040513d601f19601f82011682018060405250810190611aeb91906133b5565b9050336001600160a01b03821614611b155760405162461bcd60e51b81526004016107d3906133d0565b60075415611b355760405162461bcd60e51b81526004016107d3906133f8565b60016007555f611b44600d5490565b90505f8111611b655760405162461bcd60e51b81526004016107d39061341e565b5f8311611ba55760405162461bcd60e51b815260206004820152600e60248201526d125b9d985b1a5908185b5bdd5b9d60921b60448201526064016107d3565b611bb084845f612584565b611bb9836129b7565b50505f6007555050565b5f805f9054906101000a90046001600160a01b03166001600160a01b031663cf20d8726040518163ffffffff1660e01b8152600401602060405180830381865afa158015611c13573d5f803e3d5ffd5b505050506040513d601f19601f82011682018060405250810190611c3791906133b5565b9050336001600160a01b03821614611c615760405162461bcd60e51b81526004016107d3906133d0565b5f611c6b600d5490565b90508015611d8a575f611c7f82600161298b565b90505f600d8281548110611c9557611c956133a1565b5f9182526020918290206040805161016081018252600e90930290910180546001600160a01b0390811661010085019081526001830154610120860152600283015460ff908116151561014087015290855283516060818101865260038501548416825260048501548289015260058501548316151582870152868801919091528451808201865260068501549093168352600784015496830196909652600883015481161515828501529284015260098101549091161515928201839052600a8101546080830152600b81015460a0830152600c81015460c0830152600d015460e0820152915080611d86575f80fd5b5050505b505060408051606080820183525f808352602080840182905283850182905284516101008101865284815280820185815281870195865293810183815260808201848152600e805460a085019081524260c0860190815260e08601888152600d80546001810182559952955180517fd7b6990105719101dabeb77144f2a3385c8033acd3af97e9423a695e81ad1eb59990940298890180546001600160a01b03199081166001600160a01b0396871617909155818901517fd7b6990105719101dabeb77144f2a3385c8033acd3af97e9423a695e81ad1eb68b0155908c01517fd7b6990105719101dabeb77144f2a3385c8033acd3af97e9423a695e81ad1eb78a01805460ff19908116921515929092179055995180517fd7b6990105719101dabeb77144f2a3385c8033acd3af97e9423a695e81ad1eb88b0180548416918716919091179055808901517fd7b6990105719101dabeb77144f2a3385c8033acd3af97e9423a695e81ad1eb98b01558c01517fd7b6990105719101dabeb77144f2a3385c8033acd3af97e9423a695e81ad1eba8a0180548c16911515919091179055995180517fd7b6990105719101dabeb77144f2a3385c8033acd3af97e9423a695e81ad1ebb8a018054909c16941693909317909955948101517fd7b6990105719101dabeb77144f2a3385c8033acd3af97e9423a695e81ad1ebc870155909701517fd7b6990105719101dabeb77144f2a3385c8033acd3af97e9423a695e81ad1ebd850180548716911515919091179055517fd7b6990105719101dabeb77144f2a3385c8033acd3af97e9423a695e81ad1ebe840180549095169015151790935593517fd7b6990105719101dabeb77144f2a3385c8033acd3af97e9423a695e81ad1ebf82015592517fd7b6990105719101dabeb77144f2a3385c8033acd3af97e9423a695e81ad1ec084015590517fd7b6990105719101dabeb77144f2a3385c8033acd3af97e9423a695e81ad1ec1830155517fd7b6990105719101dabeb77144f2a3385c8033acd3af97e9423a695e81ad1ec290910155565b5f805f9054906101000a90046001600160a01b03166001600160a01b031663893d20e86040518163ffffffff1660e01b8152600401602060405180830381865afa1580156120d7573d5f803e3d5ffd5b505050506040513d601f19601f820116820180604052508101906120fb91906133b5565b9050336001600160a01b038216146121255760405162461bcd60e51b81526004016107d3906133d0565b61212e82612996565b5050565b600f546040516370a0823160e01b81523060048201525f9182916001600160a01b03909116906370a0823190602401602060405180830381865afa15801561217c573d5f803e3d5ffd5b505050506040513d601f19601f820116820180604052508101906121a091906135d2565b90505f6113066008548361298b90919063ffffffff16565b5f80546040805163b0f479a160e01b8152905183926001600160a01b03169163b0f479a19160048083019260209291908290030181865afa1580156121ff573d5f803e3d5ffd5b505050506040513d601f19601f8201168201806040525081019061222391906133b5565b600f546040516370a0823160e01b81526001600160a01b0380841660048301529293505f92909116906370a0823190602401602060405180830381865afa158015612270573d5f803e3d5ffd5b505050506040513d601f19601f8201168201806040525081019061229491906135d2565b90505f805f9054906101000a90046001600160a01b03166001600160a01b0316639960d7426040518163ffffffff1660e01b8152600401602060405180830381865afa1580156122e6573d5f803e3d5ffd5b505050506040513d601f19601f8201168201806040525081019061230a91906133b5565b600f54604051630431a08b60e41b81526001600160a01b03918216600482015260248101889052858216604482015291925082169063431a08b0906064015f604051808303815f87803b15801561235f575f80fd5b505af1158015612371573d5f803e3d5ffd5b5050600f546040516370a0823160e01b81526001600160a01b0387811660048301525f945090911691506370a0823190602401602060405180830381865afa1580156123bf573d5f803e3d5ffd5b505050506040513d601f19601f820116820180604052508101906123e391906135d2565b90505f6123f0828561298b565b979650505050505050565b5f61130682846135e9565b5f8060015b600154811015612473575f8181526002602081905260409091209081015490546001600160a01b031685821161245e575f61244688836115fe565b9050801561245c576124596001866135e9565b94505b505b5050808061246b90613460565b91505061240b565b509392505050565b600f546040516370a0823160e01b81523060048201525f9182916001600160a01b03909116906370a0823190602401602060405180830381865afa1580156124c5573d5f803e3d5ffd5b505050506040513d601f19601f820116820180604052508101906124e991906135d2565b600f54909150612504906001600160a01b03163330866129d1565b600f546040516370a0823160e01b81523060048201525f916001600160a01b0316906370a0823190602401602060405180830381865afa15801561254a573d5f803e3d5ffd5b505050506040513d601f19601f8201168201806040525081019061256e91906135d2565b90505f61257b828461298b565b95945050505050565b80156125ea576001600160a01b0383165f90815260036020526040812054908181036125b7576125b385612a3c565b5060015b80156125d8576001600160a01b0385165f9081526003602052604090205491505b6125e3828585612aa1565b5050505050565b8015155f0361265e576001600160a01b0383165f90815260036020526040812054908190036126515760405162461bcd60e51b8152602060048201526013602482015272155cd95c881b9bdd081c9959da5cdd195c9959606a1b60448201526064016107d3565b61265c818484612aa1565b505b505050565b5f805460408051634cb06ba160e11b8152905183926001600160a01b031691639960d7429160048083019260209291908290030181865afa1580156126aa573d5f803e3d5ffd5b505050506040513d601f19601f820116820180604052508101906126ce91906133b5565b600f546040516370a0823160e01b81526001600160a01b0380841660048301529293505f92909116906370a0823190602401602060405180830381865afa15801561271b573d5f803e3d5ffd5b505050506040513d601f19601f8201168201806040525081019061273f91906135d2565b600f54909150612759906001600160a01b03168386612d0a565b600f546040516370a0823160e01b81526001600160a01b0384811660048301525f9216906370a0823190602401602060405180830381865afa1580156127a1573d5f803e3d5ffd5b505050506040513d601f19601f820116820180604052508101906127c591906135d2565b90505f6127d2828461298b565b9695505050505050565b5f61130682846135fc565b5f6113068284613613565b81515f5b818110156125e357828181518110612810576128106133a1565b602002602001015160065f86848151811061282d5761282d6133a1565b60200260200101516001600160a01b03166001600160a01b031681526020019081526020015f205f015f82825461286491906135e9565b9250508190555060065f858381518110612880576128806133a1565b60200260200101516001600160a01b03166001600160a01b031681526020019081526020015f2060010160405180606001604052808781526020016128cf6001856123fb90919063ffffffff16565b81526020018584815181106128e6576128e66133a1565b6020908102919091018101519091528254600181810185555f9485528285208451600390930201918255918301519181019190915560409091015160029091015584516006919086908490811061293f5761293f6133a1565b6020908102919091018101516001600160a01b03168252818101929092526040015f9081206002018054600181018255908252919020018590558061298381613460565b9150506127f6565b5f61130682846135bf565b5f80546001600160a01b0319166001600160a01b0392909216919091179055565b600f546129ce906001600160a01b03163383612d0a565b50565b6040516001600160a01b038085166024830152831660448201526064810182905261265c9085906323b872dd60e01b906084015b60408051601f198184030181529190526020810180516001600160e01b03166001600160e01b031990931692909217909152612d3a565b6001805f828254612a4d91906135e9565b9091555050600180546001600160a01b03929092165f81815260036020818152604080842087905595835260029081905294822080546001600160a01b031916909317835592820155429281018390550155565b5f838152600260205260409020600101548115612afb575f8481526002602052604081206001018054859290612ad89084906135e9565b925050819055508260085f828254612af091906135e9565b90915550612b939050565b8115155f03612b93575f84815260026020526040902060010154831115612b555760405162461bcd60e51b815260206004820152600e60248201526d125b9d985b1a5908185b5bdd5b9d60921b60448201526064016107d3565b5f8481526002602052604081206001018054859290612b759084906135bf565b925050819055508260085f828254612b8d91906135bf565b90915550505b5f848152600260205260408120600381018054429091556001909101549091612bba6112ce565b90505f600d8281548110612bd057612bd06133a1565b905f5260205f2090600e020190505f612bfa82600b015483600c01546123fb90919063ffffffff16565b905080421115612c885760405162461bcd60e51b815260206004820152604d60248201527f436f6e747261637420697320696e207468652070726f63657373206f6620757060448201527f646174696e672e20506c65617365207761697420666f722061207768696c652060648201526c30b732103a393c9030b3b0b4b760991b608482015260a4016107d3565b5f8381526005602090815260408083208c84528252808320805460ff19166001908117825582516060810184528b81528085018a81524294820194855292820180548084018255908752949095209451600390940290940192835551928201929092559051600290910155612cff89878786612e0d565b505050505050505050565b6040516001600160a01b03831660248201526044810182905261265e90849063a9059cbb60e01b90606401612a05565b5f612d8e826040518060400160405280602081526020017f5361666545524332303a206c6f772d6c6576656c2063616c6c206661696c6564815250856001600160a01b0316612fa29092919063ffffffff16565b905080515f1480612dae575080806020019051810190612dae9190613632565b61265e5760405162461bcd60e51b815260206004820152602a60248201527f5361666545524332303a204552433230206f7065726174696f6e20646964206e6044820152691bdd081cdd58d8d9595960b21b60648201526084016107d3565b5f600d8281548110612e2157612e216133a1565b5f91825260208083206040805161016081018252600e90940290910180546001600160a01b0390811661010086019081526001830154610120870152600283015460ff90811615156101408801529086528351606081810186526003850154841682526004850154828801526005850154831615158287015287870191909152845180820186526006850154909316835260078401549583019590955260088301548116151582850152928501526009810154909116151591830191909152600a8101546080830152600b81015460a08301819052600c82015460c08401819052600d9092015460e08401529193509190612f1c90836123fb565b90505f82861015612f3857612f31428461298b565b9050612f5a565b828610158015612f485750818611155b15612f5a57612f57428761298b565b90505b5f612f6582896127dc565b5f8781526004602090815260408083208d8452909152812080549293508392909190612f929084906135e9565b9091555050505050505050505050565b6060612fb084845f85612fb8565b949350505050565b6060824710156130195760405162461bcd60e51b815260206004820152602660248201527f416464726573733a20696e73756666696369656e742062616c616e636520666f6044820152651c8818d85b1b60d21b60648201526084016107d3565b5f80866001600160a01b031685876040516130349190613673565b5f6040518083038185875af1925050503d805f811461306e576040519150601f19603f3d011682016040523d82523d5f602084013e613073565b606091505b50915091506123f087838387606083156130ed5782515f036130e6576001600160a01b0385163b6130e65760405162461bcd60e51b815260206004820152601d60248201527f416464726573733a2063616c6c20746f206e6f6e2d636f6e747261637400000060448201526064016107d3565b5081612fb0565b612fb083838151156131025781518083602001fd5b8060405162461bcd60e51b81526004016107d3919061368e565b5080545f8255905f5260205f20908101906129ce91905b80821115613146575f8155600101613133565b5090565b81518152602080830151908201526040808301519082015260608101611a71565b6001600160a01b03811681146129ce575f80fd5b5f6020828403121561318f575f80fd5b81356113068161316b565b5f602082840312156131aa575f80fd5b5035919050565b602080825282518282018190525f9190848201906040850190845b81811015613206576131f38385518051825260208082015190830152604090810151910152565b92840192606092909201916001016131cc565b50909695505050505050565b5f8060408385031215613223575f80fd5b823561322e8161316b565b946020939093013593505050565b5f6020808352606080840185511515838601528286015160408087015281815180845260808801915085830193505f92505b808310156132a9576132958285518051825260208082015190830152604090810151910152565b92850192600192909201919084019061326e565b50979650505050505050565b5f805f80608085870312156132c8575f80fd5b84356132d38161316b565b966020860135965060408601359560600135945092505050565b5f805f805f60a08688031215613301575f80fd5b8535945060208601356133138161316b565b935060408601356133238161316b565b925060608601356133338161316b565b949793965091946080013592915050565b5f8060408385031215613355575f80fd5b8235915060208301356133678161316b565b809150509250929050565b5f805f8060808587031215613385575f80fd5b5050823594602084013594506040840135936060013592509050565b634e487b7160e01b5f52603260045260245ffd5b5f602082840312156133c5575f80fd5b81516113068161316b565b6020808252600e908201526d24b73b30b634b21031b0b63632b960911b604082015260600190565b6020808252600c908201526b125b1b1959d85b0818d85b1b60a21b604082015260600190565b60208082526014908201527310dbdb9d1c9858dd081b9bdd081cdd185c9d195960621b604082015260600190565b634e487b7160e01b5f52601160045260245ffd5b5f600182016134715761347161344c565b5060010190565b602080825260169082015275155cd95c881a185cdb89dd081c9959da5cdd195c995960521b604082015260600190565b602080825260129082015271155cd95c88191bd95cdb89dd08195e1a5cdd60721b604082015260600190565b600181815b8085111561350e57815f19048211156134f4576134f461344c565b8085161561350157918102915b93841c93908002906134d9565b509250929050565b5f8261352457506001611a71565b8161353057505f611a71565b816001811461354657600281146135505761356c565b6001915050611a71565b60ff8411156135615761356161344c565b50506001821b611a71565b5060208310610133831016604e8410600b841016171561358f575081810a611a71565b61359983836134d4565b805f19048211156135ac576135ac61344c565b029392505050565b5f6113068383613516565b81810381811115611a7157611a7161344c565b5f602082840312156135e2575f80fd5b5051919050565b80820180821115611a7157611a7161344c565b8082028115828204841417611a7157611a7161344c565b5f8261362d57634e487b7160e01b5f52601260045260245ffd5b500490565b5f60208284031215613642575f80fd5b81518015158114611306575f80fd5b5f5b8381101561366b578181015183820152602001613653565b50505f910152565b5f8251613684818460208701613651565b9190910192915050565b602081525f82518060208401526136ac816040850160208701613651565b601f01601f1916919091016040019291505056fea2646970667358221220637b40f2b4b518532068b0b324c09a8a6ab7c3119a49dd9a57ad277f35cb274e64736f6c63430008150033",
			"opcodes": "PUSH1 0x80 PUSH1 0x40 MSTORE CALLVALUE DUP1 ISZERO PUSH2 0xF JUMPI PUSH0 DUP1 REVERT JUMPDEST POP PUSH2 0x36F6 DUP1 PUSH2 0x1D PUSH0 CODECOPY PUSH0 RETURN INVALID PUSH1 0x80 PUSH1 0x40 MSTORE CALLVALUE DUP1 ISZERO PUSH2 0xF JUMPI PUSH0 DUP1 REVERT JUMPDEST POP PUSH1 0x4 CALLDATASIZE LT PUSH2 0x1A1 JUMPI PUSH0 CALLDATALOAD PUSH1 0xE0 SHR DUP1 PUSH4 0xA3058071 GT PUSH2 0xF3 JUMPI DUP1 PUSH4 0xCA6D83DF GT PUSH2 0x93 JUMPI DUP1 PUSH4 0xDB518DB2 GT PUSH2 0x6E JUMPI DUP1 PUSH4 0xDB518DB2 EQ PUSH2 0x4AA JUMPI DUP1 PUSH4 0xEC20C2E5 EQ PUSH2 0x4BD JUMPI DUP1 PUSH4 0xFA7C828A EQ PUSH2 0x4C5 JUMPI DUP1 PUSH4 0xFD2324DE EQ PUSH2 0x4D8 JUMPI PUSH0 DUP1 REVERT JUMPDEST DUP1 PUSH4 0xCA6D83DF EQ PUSH2 0x467 JUMPI DUP1 PUSH4 0xCFE8A73B EQ PUSH2 0x48F JUMPI DUP1 PUSH4 0xD474FBF7 EQ PUSH2 0x497 JUMPI PUSH0 DUP1 REVERT JUMPDEST DUP1 PUSH4 0xA583024B GT PUSH2 0xCE JUMPI DUP1 PUSH4 0xA583024B EQ PUSH2 0x3CA JUMPI DUP1 PUSH4 0xB3A7834D EQ PUSH2 0x3F2 JUMPI DUP1 PUSH4 0xC4D66DE8 EQ PUSH2 0x441 JUMPI DUP1 PUSH4 0xC51475B9 EQ PUSH2 0x454 JUMPI PUSH0 DUP1 REVERT JUMPDEST DUP1 PUSH4 0xA3058071 EQ PUSH2 0x39C JUMPI DUP1 PUSH4 0xA3D74F06 EQ PUSH2 0x3AF JUMPI DUP1 PUSH4 0xA3FB7050 EQ PUSH2 0x3B7 JUMPI PUSH0 DUP1 REVERT JUMPDEST DUP1 PUSH4 0x1AC6D19D GT PUSH2 0x15E JUMPI DUP1 PUSH4 0x2F4F21E2 GT PUSH2 0x139 JUMPI DUP1 PUSH4 0x2F4F21E2 EQ PUSH2 0x34E JUMPI DUP1 PUSH4 0x361F1AD3 EQ PUSH2 0x361 JUMPI DUP1 PUSH4 0x858C7585 EQ PUSH2 0x369 JUMPI DUP1 PUSH4 0xA2122BF7 EQ PUSH2 0x389 JUMPI PUSH0 DUP1 REVERT JUMPDEST DUP1 PUSH4 0x1AC6D19D EQ PUSH2 0x31E JUMPI DUP1 PUSH4 0x26BE90BF EQ PUSH2 0x331 JUMPI DUP1 PUSH4 0x2C26EB46 EQ PUSH2 0x339 JUMPI PUSH0 DUP1 REVERT JUMPDEST DUP1 PUSH4 0x39DA66E EQ PUSH2 0x1A5 JUMPI DUP1 PUSH4 0x95D0C94 EQ PUSH2 0x1C3 JUMPI DUP1 PUSH4 0xEF12AA9 EQ PUSH2 0x1D5 JUMPI DUP1 PUSH4 0xFCE03B9 EQ PUSH2 0x1FD JUMPI DUP1 PUSH4 0x135022C2 EQ PUSH2 0x222 JUMPI DUP1 PUSH4 0x18703DA5 EQ PUSH2 0x2FE JUMPI JUMPDEST PUSH0 DUP1 REVERT JUMPDEST PUSH2 0x1AD PUSH2 0x4E0 JUMP JUMPDEST PUSH1 0x40 MLOAD PUSH2 0x1BA SWAP2 SWAP1 PUSH2 0x314A JUMP JUMPDEST PUSH1 0x40 MLOAD DUP1 SWAP2 SUB SWAP1 RETURN JUMPDEST PUSH1 0x1 SLOAD JUMPDEST PUSH1 0x40 MLOAD SWAP1 DUP2 MSTORE PUSH1 0x20 ADD PUSH2 0x1BA JUMP JUMPDEST PUSH2 0x1C7 PUSH2 0x1E3 CALLDATASIZE PUSH1 0x4 PUSH2 0x317F JUMP JUMPDEST PUSH1 0x1 PUSH1 0x1 PUSH1 0xA0 SHL SUB AND PUSH0 SWAP1 DUP2 MSTORE PUSH1 0x3 PUSH1 0x20 MSTORE PUSH1 0x40 SWAP1 KECCAK256 SLOAD SWAP1 JUMP JUMPDEST PUSH1 0xF SLOAD PUSH1 0x1 PUSH1 0x1 PUSH1 0xA0 SHL SUB AND JUMPDEST PUSH1 0x40 MLOAD PUSH1 0x1 PUSH1 0x1 PUSH1 0xA0 SHL SUB SWAP1 SWAP2 AND DUP2 MSTORE PUSH1 0x20 ADD PUSH2 0x1BA JUMP JUMPDEST PUSH2 0x235 PUSH2 0x230 CALLDATASIZE PUSH1 0x4 PUSH2 0x319A JUMP JUMPDEST PUSH2 0x526 JUMP JUMPDEST PUSH1 0x40 MLOAD PUSH2 0x1BA SWAP2 SWAP1 DUP2 MLOAD DUP1 MLOAD PUSH1 0x1 PUSH1 0x1 PUSH1 0xA0 SHL SUB AND DUP3 MSTORE PUSH1 0x20 DUP1 DUP3 ADD MLOAD SWAP1 DUP4 ADD MSTORE PUSH1 0x40 SWAP1 DUP2 ADD MLOAD ISZERO ISZERO SWAP1 DUP3 ADD MSTORE PUSH2 0x1C0 DUP2 ADD PUSH1 0x20 DUP4 DUP2 ADD MLOAD DUP1 MLOAD PUSH1 0x1 PUSH1 0x1 PUSH1 0xA0 SHL SUB AND PUSH1 0x60 DUP6 ADD MSTORE SWAP1 DUP2 ADD MLOAD PUSH1 0x80 DUP5 ADD MSTORE PUSH1 0x40 DUP2 ADD MLOAD ISZERO ISZERO PUSH1 0xA0 DUP5 ADD MSTORE POP PUSH1 0x40 DUP4 DUP2 ADD MLOAD DUP1 MLOAD PUSH1 0x1 PUSH1 0x1 PUSH1 0xA0 SHL SUB AND PUSH1 0xC0 DUP6 ADD MSTORE PUSH1 0x20 DUP2 ADD MLOAD PUSH1 0xE0 DUP6 ADD MSTORE SWAP1 DUP2 ADD MLOAD ISZERO ISZERO PUSH2 0x100 DUP5 ADD MSTORE POP PUSH1 0x60 DUP4 ADD MLOAD ISZERO ISZERO PUSH2 0x120 DUP4 ADD MSTORE PUSH1 0x80 DUP4 ADD MLOAD PUSH2 0x140 DUP4 ADD MSTORE PUSH1 0xA0 DUP4 ADD MLOAD PUSH2 0x160 DUP4 ADD MSTORE PUSH1 0xC0 DUP4 ADD MLOAD PUSH2 0x180 DUP4 ADD MSTORE PUSH1 0xE0 SWAP1 SWAP3 ADD MLOAD PUSH2 0x1A0 SWAP1 SWAP2 ADD MSTORE SWAP1 JUMP JUMPDEST PUSH2 0x311 PUSH2 0x30C CALLDATASIZE PUSH1 0x4 PUSH2 0x317F JUMP JUMPDEST PUSH2 0x6AE JUMP JUMPDEST PUSH1 0x40 MLOAD PUSH2 0x1BA SWAP2 SWAP1 PUSH2 0x31B1 JUMP JUMPDEST PUSH2 0x1C7 PUSH2 0x32C CALLDATASIZE PUSH1 0x4 PUSH2 0x317F JUMP JUMPDEST PUSH2 0x73E JUMP JUMPDEST PUSH1 0x8 SLOAD PUSH2 0x1C7 JUMP JUMPDEST PUSH2 0x34C PUSH2 0x347 CALLDATASIZE PUSH1 0x4 PUSH2 0x319A JUMP JUMPDEST PUSH2 0xA29 JUMP JUMPDEST STOP JUMPDEST PUSH2 0x34C PUSH2 0x35C CALLDATASIZE PUSH1 0x4 PUSH2 0x3212 JUMP JUMPDEST PUSH2 0xB1F JUMP JUMPDEST PUSH1 0x10 SLOAD PUSH2 0x1C7 JUMP JUMPDEST PUSH2 0x37C PUSH2 0x377 CALLDATASIZE PUSH1 0x4 PUSH2 0x3212 JUMP JUMPDEST PUSH2 0xC30 JUMP JUMPDEST PUSH1 0x40 MLOAD PUSH2 0x1BA SWAP2 SWAP1 PUSH2 0x323C JUMP JUMPDEST PUSH2 0x34C PUSH2 0x397 CALLDATASIZE PUSH1 0x4 PUSH2 0x32B5 JUMP JUMPDEST PUSH2 0xD9D JUMP JUMPDEST PUSH2 0x34C PUSH2 0x3AA CALLDATASIZE PUSH1 0x4 PUSH2 0x32ED JUMP JUMPDEST PUSH2 0xE6E JUMP JUMPDEST PUSH2 0x1C7 PUSH2 0x12CE JUMP JUMPDEST PUSH2 0x1C7 PUSH2 0x3C5 CALLDATASIZE PUSH1 0x4 PUSH2 0x3344 JUMP JUMPDEST PUSH2 0x130D JUMP JUMPDEST PUSH2 0x1C7 PUSH2 0x3D8 CALLDATASIZE PUSH1 0x4 PUSH2 0x317F JUMP JUMPDEST PUSH1 0x1 PUSH1 0x1 PUSH1 0xA0 SHL SUB AND PUSH0 SWAP1 DUP2 MSTORE PUSH1 0x6 PUSH1 0x20 MSTORE PUSH1 0x40 SWAP1 KECCAK256 SLOAD SWAP1 JUMP JUMPDEST PUSH2 0x405 PUSH2 0x400 CALLDATASIZE PUSH1 0x4 PUSH2 0x317F JUMP JUMPDEST PUSH2 0x13E7 JUMP JUMPDEST PUSH1 0x40 MLOAD PUSH2 0x1BA SWAP2 SWAP1 DUP2 MLOAD PUSH1 0x1 PUSH1 0x1 PUSH1 0xA0 SHL SUB AND DUP2 MSTORE PUSH1 0x20 DUP1 DUP4 ADD MLOAD SWAP1 DUP3 ADD MSTORE PUSH1 0x40 DUP1 DUP4 ADD MLOAD SWAP1 DUP3 ADD MSTORE PUSH1 0x60 SWAP2 DUP3 ADD MLOAD SWAP2 DUP2 ADD SWAP2 SWAP1 SWAP2 MSTORE PUSH1 0x80 ADD SWAP1 JUMP JUMPDEST PUSH2 0x34C PUSH2 0x44F CALLDATASIZE PUSH1 0x4 PUSH2 0x317F JUMP JUMPDEST PUSH2 0x146F JUMP JUMPDEST PUSH2 0x34C PUSH2 0x462 CALLDATASIZE PUSH1 0x4 PUSH2 0x3372 JUMP JUMPDEST PUSH2 0x14E6 JUMP JUMPDEST PUSH2 0x20A PUSH2 0x475 CALLDATASIZE PUSH1 0x4 PUSH2 0x319A JUMP JUMPDEST PUSH0 SWAP1 DUP2 MSTORE PUSH1 0x2 PUSH1 0x20 MSTORE PUSH1 0x40 SWAP1 KECCAK256 SLOAD PUSH1 0x1 PUSH1 0x1 PUSH1 0xA0 SHL SUB AND SWAP1 JUMP JUMPDEST PUSH1 0xD SLOAD PUSH2 0x1C7 JUMP JUMPDEST PUSH2 0x1C7 PUSH2 0x4A5 CALLDATASIZE PUSH1 0x4 PUSH2 0x3344 JUMP JUMPDEST PUSH2 0x15FE JUMP JUMPDEST PUSH2 0x34C PUSH2 0x4B8 CALLDATASIZE PUSH1 0x4 PUSH2 0x3212 JUMP JUMPDEST PUSH2 0x1A77 JUMP JUMPDEST PUSH2 0x34C PUSH2 0x1BC3 JUMP JUMPDEST PUSH2 0x34C PUSH2 0x4D3 CALLDATASIZE PUSH1 0x4 PUSH2 0x317F JUMP JUMPDEST PUSH2 0x2087 JUMP JUMPDEST PUSH2 0x1C7 PUSH2 0x2132 JUMP JUMPDEST PUSH2 0x501 PUSH1 0x40 MLOAD DUP1 PUSH1 0x60 ADD PUSH1 0x40 MSTORE DUP1 PUSH0 DUP2 MSTORE PUSH1 0x20 ADD PUSH0 DUP2 MSTORE PUSH1 0x20 ADD PUSH0 DUP2 MSTORE POP SWAP1 JUMP JUMPDEST POP PUSH1 0x40 DUP1 MLOAD PUSH1 0x60 DUP2 ADD DUP3 MSTORE PUSH1 0x9 SLOAD DUP2 MSTORE PUSH1 0xA SLOAD PUSH1 0x20 DUP3 ADD MSTORE PUSH1 0xB SLOAD SWAP2 DUP2 ADD SWAP2 SWAP1 SWAP2 MSTORE SWAP1 JUMP JUMPDEST PUSH1 0x40 DUP1 MLOAD PUSH2 0x160 DUP2 ADD DUP3 MSTORE PUSH0 PUSH2 0x100 DUP3 ADD DUP2 DUP2 MSTORE PUSH2 0x120 DUP4 ADD DUP3 SWAP1 MSTORE PUSH2 0x140 DUP4 ADD DUP3 SWAP1 MSTORE DUP3 MSTORE DUP3 MLOAD PUSH1 0x60 DUP1 DUP3 ADD DUP6 MSTORE DUP3 DUP3 MSTORE PUSH1 0x20 DUP1 DUP4 ADD DUP5 SWAP1 MSTORE DUP3 DUP7 ADD DUP5 SWAP1 MSTORE DUP1 DUP6 ADD SWAP3 SWAP1 SWAP3 MSTORE DUP5 MLOAD DUP1 DUP3 ADD DUP7 MSTORE DUP4 DUP2 MSTORE SWAP2 DUP3 ADD DUP4 SWAP1 MSTORE DUP2 DUP6 ADD DUP4 SWAP1 MSTORE SWAP4 DUP4 ADD MSTORE SWAP2 DUP2 ADD DUP3 SWAP1 MSTORE PUSH1 0x80 DUP2 ADD DUP3 SWAP1 MSTORE PUSH1 0xA0 DUP2 ADD DUP3 SWAP1 MSTORE PUSH1 0xC0 DUP2 ADD DUP3 SWAP1 MSTORE PUSH1 0xE0 DUP2 ADD SWAP2 SWAP1 SWAP2 MSTORE PUSH0 PUSH1 0xD DUP4 DUP2 SLOAD DUP2 LT PUSH2 0x5BE JUMPI PUSH2 0x5BE PUSH2 0x33A1 JUMP JUMPDEST PUSH0 SWAP2 DUP3 MSTORE PUSH1 0x20 SWAP2 DUP3 SWAP1 KECCAK256 PUSH1 0x40 DUP1 MLOAD PUSH2 0x160 DUP2 ADD DUP3 MSTORE PUSH1 0xE SWAP1 SWAP4 MUL SWAP1 SWAP2 ADD DUP1 SLOAD PUSH1 0x1 PUSH1 0x1 PUSH1 0xA0 SHL SUB SWAP1 DUP2 AND PUSH2 0x100 DUP6 ADD SWAP1 DUP2 MSTORE PUSH1 0x1 DUP4 ADD SLOAD PUSH2 0x120 DUP7 ADD MSTORE PUSH1 0x2 DUP4 ADD SLOAD PUSH1 0xFF SWAP1 DUP2 AND ISZERO ISZERO PUSH2 0x140 DUP8 ADD MSTORE SWAP1 DUP6 MSTORE DUP4 MLOAD PUSH1 0x60 DUP2 DUP2 ADD DUP7 MSTORE PUSH1 0x3 DUP6 ADD SLOAD DUP5 AND DUP3 MSTORE PUSH1 0x4 DUP6 ADD SLOAD DUP3 DUP10 ADD MSTORE PUSH1 0x5 DUP6 ADD SLOAD DUP4 AND ISZERO ISZERO DUP3 DUP8 ADD MSTORE DUP7 DUP9 ADD SWAP2 SWAP1 SWAP2 MSTORE DUP5 MLOAD DUP1 DUP3 ADD DUP7 MSTORE PUSH1 0x6 DUP6 ADD SLOAD SWAP1 SWAP4 AND DUP4 MSTORE PUSH1 0x7 DUP5 ADD SLOAD SWAP7 DUP4 ADD SWAP7 SWAP1 SWAP7 MSTORE PUSH1 0x8 DUP4 ADD SLOAD DUP2 AND ISZERO ISZERO DUP3 DUP6 ADD MSTORE SWAP3 DUP5 ADD MSTORE PUSH1 0x9 DUP2 ADD SLOAD SWAP1 SWAP2 AND ISZERO ISZERO SWAP3 DUP3 ADD SWAP3 SWAP1 SWAP3 MSTORE PUSH1 0xA DUP3 ADD SLOAD PUSH1 0x80 DUP3 ADD MSTORE PUSH1 0xB DUP3 ADD SLOAD PUSH1 0xA0 DUP3 ADD MSTORE PUSH1 0xC DUP3 ADD SLOAD PUSH1 0xC0 DUP3 ADD MSTORE PUSH1 0xD SWAP1 SWAP2 ADD SLOAD PUSH1 0xE0 DUP3 ADD MSTORE SWAP4 SWAP3 POP POP POP JUMP JUMPDEST PUSH1 0x1 PUSH1 0x1 PUSH1 0xA0 SHL SUB DUP2 AND PUSH0 SWAP1 DUP2 MSTORE PUSH1 0x6 PUSH1 0x20 SWAP1 DUP2 MSTORE PUSH1 0x40 DUP1 DUP4 KECCAK256 PUSH1 0x1 ADD DUP1 SLOAD DUP3 MLOAD DUP2 DUP6 MUL DUP2 ADD DUP6 ADD SWAP1 SWAP4 MSTORE DUP1 DUP4 MSTORE PUSH1 0x60 SWAP5 SWAP4 DUP5 SWAP1 DUP5 ADD JUMPDEST DUP3 DUP3 LT ISZERO PUSH2 0x732 JUMPI DUP4 DUP3 SWAP1 PUSH0 MSTORE PUSH1 0x20 PUSH0 KECCAK256 SWAP1 PUSH1 0x3 MUL ADD PUSH1 0x40 MLOAD DUP1 PUSH1 0x60 ADD PUSH1 0x40 MSTORE SWAP1 DUP2 PUSH0 DUP3 ADD SLOAD DUP2 MSTORE PUSH1 0x20 ADD PUSH1 0x1 DUP3 ADD SLOAD DUP2 MSTORE PUSH1 0x20 ADD PUSH1 0x2 DUP3 ADD SLOAD DUP2 MSTORE POP POP DUP2 MSTORE PUSH1 0x20 ADD SWAP1 PUSH1 0x1 ADD SWAP1 PUSH2 0x6E5 JUMP JUMPDEST POP SWAP3 SWAP7 SWAP6 POP POP POP POP POP POP JUMP JUMPDEST PUSH0 DUP1 SLOAD PUSH1 0x40 DUP1 MLOAD PUSH4 0xB0F479A1 PUSH1 0xE0 SHL DUP2 MSTORE SWAP1 MLOAD DUP4 SWAP3 PUSH1 0x1 PUSH1 0x1 PUSH1 0xA0 SHL SUB AND SWAP2 PUSH4 0xB0F479A1 SWAP2 PUSH1 0x4 DUP1 DUP4 ADD SWAP3 PUSH1 0x20 SWAP3 SWAP2 SWAP1 DUP3 SWAP1 SUB ADD DUP2 DUP7 GAS STATICCALL ISZERO DUP1 ISZERO PUSH2 0x785 JUMPI RETURNDATASIZE PUSH0 DUP1 RETURNDATACOPY RETURNDATASIZE PUSH0 REVERT JUMPDEST POP POP POP POP PUSH1 0x40 MLOAD RETURNDATASIZE PUSH1 0x1F NOT PUSH1 0x1F DUP3 ADD AND DUP3 ADD DUP1 PUSH1 0x40 MSTORE POP DUP2 ADD SWAP1 PUSH2 0x7A9 SWAP2 SWAP1 PUSH2 0x33B5 JUMP JUMPDEST SWAP1 POP CALLER PUSH1 0x1 PUSH1 0x1 PUSH1 0xA0 SHL SUB DUP3 AND EQ PUSH2 0x7DC JUMPI PUSH1 0x40 MLOAD PUSH3 0x461BCD PUSH1 0xE5 SHL DUP2 MSTORE PUSH1 0x4 ADD PUSH2 0x7D3 SWAP1 PUSH2 0x33D0 JUMP JUMPDEST PUSH1 0x40 MLOAD DUP1 SWAP2 SUB SWAP1 REVERT JUMPDEST PUSH1 0x7 SLOAD ISZERO PUSH2 0x7FC JUMPI PUSH1 0x40 MLOAD PUSH3 0x461BCD PUSH1 0xE5 SHL DUP2 MSTORE PUSH1 0x4 ADD PUSH2 0x7D3 SWAP1 PUSH2 0x33F8 JUMP JUMPDEST PUSH1 0x1 PUSH1 0x7 SSTORE PUSH0 PUSH2 0x80B PUSH1 0xD SLOAD SWAP1 JUMP JUMPDEST SWAP1 POP PUSH0 DUP2 GT PUSH2 0x82C JUMPI PUSH1 0x40 MLOAD PUSH3 0x461BCD PUSH1 0xE5 SHL DUP2 MSTORE PUSH1 0x4 ADD PUSH2 0x7D3 SWAP1 PUSH2 0x341E JUMP JUMPDEST PUSH1 0x1 PUSH1 0x1 PUSH1 0xA0 SHL SUB DUP5 AND PUSH0 SWAP1 DUP2 MSTORE PUSH1 0x6 PUSH1 0x20 MSTORE PUSH1 0x40 SWAP1 KECCAK256 SLOAD DUP1 PUSH2 0x887 JUMPI PUSH1 0x40 MLOAD PUSH3 0x461BCD PUSH1 0xE5 SHL DUP2 MSTORE PUSH1 0x20 PUSH1 0x4 DUP3 ADD MSTORE PUSH1 0x13 PUSH1 0x24 DUP3 ADD MSTORE PUSH19 0x4E6F207265776172647320746F20636C61696D PUSH1 0x68 SHL PUSH1 0x44 DUP3 ADD MSTORE PUSH1 0x64 ADD PUSH2 0x7D3 JUMP JUMPDEST PUSH1 0x1 PUSH1 0x1 PUSH1 0xA0 SHL SUB DUP6 AND PUSH0 SWAP1 DUP2 MSTORE PUSH1 0x6 PUSH1 0x20 MSTORE PUSH1 0x40 DUP2 KECCAK256 DUP2 DUP2 SSTORE PUSH1 0x2 ADD SLOAD SWAP1 JUMPDEST DUP2 DUP2 LT ISZERO PUSH2 0x9E9 JUMPI PUSH1 0x1 PUSH1 0x1 PUSH1 0xA0 SHL SUB DUP8 AND PUSH0 SWAP1 DUP2 MSTORE PUSH1 0x6 PUSH1 0x20 MSTORE PUSH1 0x40 DUP2 KECCAK256 PUSH1 0x2 ADD DUP1 SLOAD DUP4 SWAP1 DUP2 LT PUSH2 0x8DB JUMPI PUSH2 0x8DB PUSH2 0x33A1 JUMP JUMPDEST SWAP1 PUSH0 MSTORE PUSH1 0x20 PUSH0 KECCAK256 ADD SLOAD SWAP1 POP PUSH0 PUSH1 0x6 PUSH0 DUP11 PUSH1 0x1 PUSH1 0x1 PUSH1 0xA0 SHL SUB AND PUSH1 0x1 PUSH1 0x1 PUSH1 0xA0 SHL SUB AND DUP2 MSTORE PUSH1 0x20 ADD SWAP1 DUP2 MSTORE PUSH1 0x20 ADD PUSH0 KECCAK256 PUSH1 0x1 ADD DUP4 DUP2 SLOAD DUP2 LT PUSH2 0x91E JUMPI PUSH2 0x91E PUSH2 0x33A1 JUMP JUMPDEST SWAP1 PUSH0 MSTORE PUSH1 0x20 PUSH0 KECCAK256 SWAP1 PUSH1 0x3 MUL ADD PUSH1 0x1 ADD SLOAD SWAP1 POP PUSH0 PUSH1 0xD DUP4 DUP2 SLOAD DUP2 LT PUSH2 0x944 JUMPI PUSH2 0x944 PUSH2 0x33A1 JUMP JUMPDEST SWAP1 PUSH0 MSTORE PUSH1 0x20 PUSH0 KECCAK256 SWAP1 PUSH1 0xE MUL ADD SWAP1 POP DUP2 PUSH1 0x1 SUB PUSH2 0x97F JUMPI PUSH1 0x2 DUP2 ADD SLOAD PUSH1 0xFF AND ISZERO ISZERO PUSH0 SUB PUSH2 0x97A JUMPI PUSH1 0x2 DUP2 ADD DUP1 SLOAD PUSH1 0xFF NOT AND PUSH1 0x1 OR SWAP1 SSTORE JUMPDEST PUSH2 0x9D3 JUMP JUMPDEST DUP2 PUSH1 0x2 SUB PUSH2 0x9AB JUMPI PUSH1 0x5 DUP2 ADD SLOAD PUSH1 0xFF AND ISZERO ISZERO PUSH0 SUB PUSH2 0x97A JUMPI PUSH1 0x5 DUP2 ADD DUP1 SLOAD PUSH1 0xFF NOT AND PUSH1 0x1 OR SWAP1 SSTORE PUSH2 0x9D3 JUMP JUMPDEST DUP2 PUSH1 0x3 SUB PUSH2 0x9D3 JUMPI PUSH1 0x8 DUP2 ADD SLOAD PUSH1 0xFF AND ISZERO ISZERO PUSH0 SUB PUSH2 0x9D3 JUMPI PUSH1 0x8 DUP2 ADD DUP1 SLOAD PUSH1 0xFF NOT AND PUSH1 0x1 OR SWAP1 SSTORE JUMPDEST POP POP POP DUP1 DUP1 PUSH2 0x9E1 SWAP1 PUSH2 0x3460 JUMP JUMPDEST SWAP2 POP POP PUSH2 0x8A7 JUMP JUMPDEST POP PUSH1 0x1 PUSH1 0x1 PUSH1 0xA0 SHL SUB DUP7 AND PUSH0 SWAP1 DUP2 MSTORE PUSH1 0x6 PUSH1 0x20 MSTORE PUSH1 0x40 DUP2 KECCAK256 PUSH2 0xA10 SWAP2 PUSH1 0x2 SWAP1 SWAP2 ADD SWAP1 PUSH2 0x311C JUMP JUMPDEST PUSH0 PUSH2 0xA1A DUP4 PUSH2 0x21B8 JUMP JUMPDEST PUSH0 PUSH1 0x7 SSTORE SWAP8 SWAP7 POP POP POP POP POP POP POP JUMP JUMPDEST PUSH0 DUP1 PUSH0 SWAP1 SLOAD SWAP1 PUSH2 0x100 EXP SWAP1 DIV PUSH1 0x1 PUSH1 0x1 PUSH1 0xA0 SHL SUB AND PUSH1 0x1 PUSH1 0x1 PUSH1 0xA0 SHL SUB AND PUSH4 0xCF20D872 PUSH1 0x40 MLOAD DUP2 PUSH4 0xFFFFFFFF AND PUSH1 0xE0 SHL DUP2 MSTORE PUSH1 0x4 ADD PUSH1 0x20 PUSH1 0x40 MLOAD DUP1 DUP4 SUB DUP2 DUP7 GAS STATICCALL ISZERO DUP1 ISZERO PUSH2 0xA79 JUMPI RETURNDATASIZE PUSH0 DUP1 RETURNDATACOPY RETURNDATASIZE PUSH0 REVERT JUMPDEST POP POP POP POP PUSH1 0x40 MLOAD RETURNDATASIZE PUSH1 0x1F NOT PUSH1 0x1F DUP3 ADD AND DUP3 ADD DUP1 PUSH1 0x40 MSTORE POP DUP2 ADD SWAP1 PUSH2 0xA9D SWAP2 SWAP1 PUSH2 0x33B5 JUMP JUMPDEST SWAP1 POP CALLER PUSH1 0x1 PUSH1 0x1 PUSH1 0xA0 SHL SUB DUP3 AND EQ PUSH2 0xAC7 JUMPI PUSH1 0x40 MLOAD PUSH3 0x461BCD PUSH1 0xE5 SHL DUP2 MSTORE PUSH1 0x4 ADD PUSH2 0x7D3 SWAP1 PUSH2 0x33D0 JUMP JUMPDEST PUSH0 PUSH1 0xD DUP4 DUP2 SLOAD DUP2 LT PUSH2 0xADB JUMPI PUSH2 0xADB PUSH2 0x33A1 JUMP JUMPDEST SWAP1 PUSH0 MSTORE PUSH1 0x20 PUSH0 KECCAK256 SWAP1 PUSH1 0xE MUL ADD SWAP1 POP PUSH0 PUSH2 0xB05 DUP3 PUSH1 0xB ADD SLOAD DUP4 PUSH1 0xC ADD SLOAD PUSH2 0x23FB SWAP1 SWAP2 SWAP1 PUSH4 0xFFFFFFFF AND JUMP JUMPDEST SWAP1 POP PUSH2 0xB11 DUP5 DUP3 PUSH2 0x2406 JUMP JUMPDEST DUP3 PUSH1 0xD ADD DUP2 SWAP1 SSTORE POP POP POP POP POP JUMP JUMPDEST PUSH0 DUP1 PUSH0 SWAP1 SLOAD SWAP1 PUSH2 0x100 EXP SWAP1 DIV PUSH1 0x1 PUSH1 0x1 PUSH1 0xA0 SHL SUB AND PUSH1 0x1 PUSH1 0x1 PUSH1 0xA0 SHL SUB AND PUSH4 0xB0F479A1 PUSH1 0x40 MLOAD DUP2 PUSH4 0xFFFFFFFF AND PUSH1 0xE0 SHL DUP2 MSTORE PUSH1 0x4 ADD PUSH1 0x20 PUSH1 0x40 MLOAD DUP1 DUP4 SUB DUP2 DUP7 GAS STATICCALL ISZERO DUP1 ISZERO PUSH2 0xB6F JUMPI RETURNDATASIZE PUSH0 DUP1 RETURNDATACOPY RETURNDATASIZE PUSH0 REVERT JUMPDEST POP POP POP POP PUSH1 0x40 MLOAD RETURNDATASIZE PUSH1 0x1F NOT PUSH1 0x1F DUP3 ADD AND DUP3 ADD DUP1 PUSH1 0x40 MSTORE POP DUP2 ADD SWAP1 PUSH2 0xB93 SWAP2 SWAP1 PUSH2 0x33B5 JUMP JUMPDEST SWAP1 POP CALLER PUSH1 0x1 PUSH1 0x1 PUSH1 0xA0 SHL SUB DUP3 AND EQ PUSH2 0xBBD JUMPI PUSH1 0x40 MLOAD PUSH3 0x461BCD PUSH1 0xE5 SHL DUP2 MSTORE PUSH1 0x4 ADD PUSH2 0x7D3 SWAP1 PUSH2 0x33D0 JUMP JUMPDEST PUSH1 0x7 SLOAD ISZERO PUSH2 0xBDD JUMPI PUSH1 0x40 MLOAD PUSH3 0x461BCD PUSH1 0xE5 SHL DUP2 MSTORE PUSH1 0x4 ADD PUSH2 0x7D3 SWAP1 PUSH2 0x33F8 JUMP JUMPDEST PUSH1 0x1 PUSH1 0x7 SSTORE PUSH0 PUSH2 0xBEC PUSH1 0xD SLOAD SWAP1 JUMP JUMPDEST SWAP1 POP PUSH0 DUP2 GT PUSH2 0xC0D JUMPI PUSH1 0x40 MLOAD PUSH3 0x461BCD PUSH1 0xE5 SHL DUP2 MSTORE PUSH1 0x4 ADD PUSH2 0x7D3 SWAP1 PUSH2 0x341E JUMP JUMPDEST PUSH0 PUSH2 0xC17 DUP5 PUSH2 0x247B JUMP JUMPDEST SWAP1 POP PUSH2 0xC25 DUP6 DUP3 PUSH1 0x1 PUSH2 0x2584 JUMP JUMPDEST POP POP PUSH0 PUSH1 0x7 SSTORE POP POP POP JUMP JUMPDEST PUSH1 0x40 DUP1 MLOAD DUP1 DUP3 ADD SWAP1 SWAP2 MSTORE PUSH0 DUP2 MSTORE PUSH1 0x60 PUSH1 0x20 DUP3 ADD MSTORE PUSH1 0xD SLOAD DUP1 PUSH2 0xC64 JUMPI PUSH1 0x40 MLOAD PUSH3 0x461BCD PUSH1 0xE5 SHL DUP2 MSTORE PUSH1 0x4 ADD PUSH2 0x7D3 SWAP1 PUSH2 0x341E JUMP JUMPDEST DUP3 PUSH0 PUSH2 0xC6E PUSH2 0x12CE JUMP JUMPDEST SWAP1 POP DUP1 DUP3 GT ISZERO PUSH2 0xCB7 JUMPI PUSH1 0x40 MLOAD PUSH3 0x461BCD PUSH1 0xE5 SHL DUP2 MSTORE PUSH1 0x20 PUSH1 0x4 DUP3 ADD MSTORE PUSH1 0x14 PUSH1 0x24 DUP3 ADD MSTORE PUSH20 0x24B73B30B634B21032B837B1B410373AB6B132B9 PUSH1 0x61 SHL PUSH1 0x44 DUP3 ADD MSTORE PUSH1 0x64 ADD PUSH2 0x7D3 JUMP JUMPDEST PUSH1 0x1 PUSH1 0x1 PUSH1 0xA0 SHL SUB DUP7 AND PUSH0 SWAP1 DUP2 MSTORE PUSH1 0x3 PUSH1 0x20 MSTORE PUSH1 0x40 DUP2 KECCAK256 SLOAD SWAP1 DUP2 SWAP1 SUB PUSH2 0xCEF JUMPI PUSH1 0x40 MLOAD PUSH3 0x461BCD PUSH1 0xE5 SHL DUP2 MSTORE PUSH1 0x4 ADD PUSH2 0x7D3 SWAP1 PUSH2 0x3478 JUMP JUMPDEST PUSH0 DUP7 DUP2 MSTORE PUSH1 0x5 PUSH1 0x20 SWAP1 DUP2 MSTORE PUSH1 0x40 DUP1 DUP4 KECCAK256 DUP5 DUP5 MSTORE DUP3 MSTORE DUP1 DUP4 KECCAK256 DUP2 MLOAD DUP1 DUP4 ADD DUP4 MSTORE DUP2 SLOAD PUSH1 0xFF AND ISZERO ISZERO DUP2 MSTORE PUSH1 0x1 DUP3 ADD DUP1 SLOAD DUP5 MLOAD DUP2 DUP8 MUL DUP2 ADD DUP8 ADD SWAP1 SWAP6 MSTORE DUP1 DUP6 MSTORE SWAP2 SWAP5 SWAP3 SWAP4 DUP6 DUP5 ADD SWAP4 SWAP1 SWAP3 SWAP1 DUP8 SWAP1 DUP5 ADD JUMPDEST DUP3 DUP3 LT ISZERO PUSH2 0xD89 JUMPI DUP4 DUP3 SWAP1 PUSH0 MSTORE PUSH1 0x20 PUSH0 KECCAK256 SWAP1 PUSH1 0x3 MUL ADD PUSH1 0x40 MLOAD DUP1 PUSH1 0x60 ADD PUSH1 0x40 MSTORE SWAP1 DUP2 PUSH0 DUP3 ADD SLOAD DUP2 MSTORE PUSH1 0x20 ADD PUSH1 0x1 DUP3 ADD SLOAD DUP2 MSTORE PUSH1 0x20 ADD PUSH1 0x2 DUP3 ADD SLOAD DUP2 MSTORE POP POP DUP2 MSTORE PUSH1 0x20 ADD SWAP1 PUSH1 0x1 ADD SWAP1 PUSH2 0xD3C JUMP JUMPDEST POP POP POP SWAP2 MSTORE POP SWAP1 SWAP10 SWAP9 POP POP POP POP POP POP POP POP POP JUMP JUMPDEST PUSH0 DUP1 PUSH0 SWAP1 SLOAD SWAP1 PUSH2 0x100 EXP SWAP1 DIV PUSH1 0x1 PUSH1 0x1 PUSH1 0xA0 SHL SUB AND PUSH1 0x1 PUSH1 0x1 PUSH1 0xA0 SHL SUB AND PUSH4 0x3018205F PUSH1 0x40 MLOAD DUP2 PUSH4 0xFFFFFFFF AND PUSH1 0xE0 SHL DUP2 MSTORE PUSH1 0x4 ADD PUSH1 0x20 PUSH1 0x40 MLOAD DUP1 DUP4 SUB DUP2 DUP7 GAS STATICCALL ISZERO DUP1 ISZERO PUSH2 0xDED JUMPI RETURNDATASIZE PUSH0 DUP1 RETURNDATACOPY RETURNDATASIZE PUSH0 REVERT JUMPDEST POP POP POP POP PUSH1 0x40 MLOAD RETURNDATASIZE PUSH1 0x1F NOT PUSH1 0x1F DUP3 ADD AND DUP3 ADD DUP1 PUSH1 0x40 MSTORE POP DUP2 ADD SWAP1 PUSH2 0xE11 SWAP2 SWAP1 PUSH2 0x33B5 JUMP JUMPDEST SWAP1 POP CALLER PUSH1 0x1 PUSH1 0x1 PUSH1 0xA0 SHL SUB DUP3 AND EQ PUSH2 0xE3B JUMPI PUSH1 0x40 MLOAD PUSH3 0x461BCD PUSH1 0xE5 SHL DUP2 MSTORE PUSH1 0x4 ADD PUSH2 0x7D3 SWAP1 PUSH2 0x33D0 JUMP JUMPDEST POP PUSH1 0xF DUP1 SLOAD PUSH1 0x1 PUSH1 0x1 PUSH1 0xA0 SHL SUB NOT AND PUSH1 0x1 PUSH1 0x1 PUSH1 0xA0 SHL SUB SWAP6 SWAP1 SWAP6 AND SWAP5 SWAP1 SWAP5 OR SWAP1 SWAP4 SSTORE PUSH1 0x11 SWAP2 SWAP1 SWAP2 SSTORE PUSH1 0xE SWAP2 SWAP1 SWAP2 SSTORE PUSH1 0x10 SSTORE JUMP JUMPDEST PUSH0 DUP1 PUSH0 SWAP1 SLOAD SWAP1 PUSH2 0x100 EXP SWAP1 DIV PUSH1 0x1 PUSH1 0x1 PUSH1 0xA0 SHL SUB AND PUSH1 0x1 PUSH1 0x1 PUSH1 0xA0 SHL SUB AND PUSH4 0xCF20D872 PUSH1 0x40 MLOAD DUP2 PUSH4 0xFFFFFFFF AND PUSH1 0xE0 SHL DUP2 MSTORE PUSH1 0x4 ADD PUSH1 0x20 PUSH1 0x40 MLOAD DUP1 DUP4 SUB DUP2 DUP7 GAS STATICCALL ISZERO DUP1 ISZERO PUSH2 0xEBE JUMPI RETURNDATASIZE PUSH0 DUP1 RETURNDATACOPY RETURNDATASIZE PUSH0 REVERT JUMPDEST POP POP POP POP PUSH1 0x40 MLOAD RETURNDATASIZE PUSH1 0x1F NOT PUSH1 0x1F DUP3 ADD AND DUP3 ADD DUP1 PUSH1 0x40 MSTORE POP DUP2 ADD SWAP1 PUSH2 0xEE2 SWAP2 SWAP1 PUSH2 0x33B5 JUMP JUMPDEST SWAP1 POP CALLER PUSH1 0x1 PUSH1 0x1 PUSH1 0xA0 SHL SUB DUP3 AND EQ PUSH2 0xF0C JUMPI PUSH1 0x40 MLOAD PUSH3 0x461BCD PUSH1 0xE5 SHL DUP2 MSTORE PUSH1 0x4 ADD PUSH2 0x7D3 SWAP1 PUSH2 0x33D0 JUMP JUMPDEST PUSH1 0x1 PUSH1 0x1 PUSH1 0xA0 SHL SUB DUP6 AND PUSH0 SWAP1 DUP2 MSTORE PUSH1 0x3 PUSH1 0x20 MSTORE PUSH1 0x40 SWAP1 KECCAK256 SLOAD PUSH0 SUB PUSH2 0xF42 JUMPI PUSH1 0x40 MLOAD PUSH3 0x461BCD PUSH1 0xE5 SHL DUP2 MSTORE PUSH1 0x4 ADD PUSH2 0x7D3 SWAP1 PUSH2 0x34A8 JUMP JUMPDEST PUSH1 0x1 PUSH1 0x1 PUSH1 0xA0 SHL SUB DUP5 AND PUSH0 SWAP1 DUP2 MSTORE PUSH1 0x3 PUSH1 0x20 MSTORE PUSH1 0x40 SWAP1 KECCAK256 SLOAD PUSH0 SUB PUSH2 0xF78 JUMPI PUSH1 0x40 MLOAD PUSH3 0x461BCD PUSH1 0xE5 SHL DUP2 MSTORE PUSH1 0x4 ADD PUSH2 0x7D3 SWAP1 PUSH2 0x34A8 JUMP JUMPDEST PUSH1 0x1 PUSH1 0x1 PUSH1 0xA0 SHL SUB DUP4 AND PUSH0 SWAP1 DUP2 MSTORE PUSH1 0x3 PUSH1 0x20 MSTORE PUSH1 0x40 SWAP1 KECCAK256 SLOAD PUSH0 SUB PUSH2 0xFAE JUMPI PUSH1 0x40 MLOAD PUSH3 0x461BCD PUSH1 0xE5 SHL DUP2 MSTORE PUSH1 0x4 ADD PUSH2 0x7D3 SWAP1 PUSH2 0x34A8 JUMP JUMPDEST PUSH0 PUSH1 0xD DUP8 DUP2 SLOAD DUP2 LT PUSH2 0xFC2 JUMPI PUSH2 0xFC2 PUSH2 0x33A1 JUMP JUMPDEST PUSH0 SWAP2 DUP3 MSTORE PUSH1 0x20 SWAP1 SWAP2 KECCAK256 PUSH1 0xE SWAP1 SWAP2 MUL ADD PUSH1 0x9 DUP2 ADD SLOAD SWAP1 SWAP2 POP PUSH1 0xFF AND DUP1 ISZERO PUSH2 0x101A JUMPI PUSH1 0x40 MLOAD PUSH3 0x461BCD PUSH1 0xE5 SHL DUP2 MSTORE PUSH1 0x20 PUSH1 0x4 DUP3 ADD MSTORE PUSH1 0xD PUSH1 0x24 DUP3 ADD MSTORE PUSH13 0x45706F636820697320646F6E65 PUSH1 0x98 SHL PUSH1 0x44 DUP3 ADD MSTORE PUSH1 0x64 ADD PUSH2 0x7D3 JUMP JUMPDEST PUSH0 PUSH2 0x1036 DUP4 PUSH1 0xB ADD SLOAD DUP5 PUSH1 0xC ADD SLOAD PUSH2 0x23FB SWAP1 SWAP2 SWAP1 PUSH4 0xFFFFFFFF AND JUMP JUMPDEST SWAP1 POP DUP1 TIMESTAMP GT PUSH2 0x107A JUMPI PUSH1 0x40 MLOAD PUSH3 0x461BCD PUSH1 0xE5 SHL DUP2 MSTORE PUSH1 0x20 PUSH1 0x4 DUP3 ADD MSTORE PUSH1 0x10 PUSH1 0x24 DUP3 ADD MSTORE PUSH16 0x45706F63682069736E277420646F6E65 PUSH1 0x80 SHL PUSH1 0x44 DUP3 ADD MSTORE PUSH1 0x64 ADD PUSH2 0x7D3 JUMP JUMPDEST PUSH1 0x9 DUP4 ADD DUP1 SLOAD PUSH1 0xFF NOT AND PUSH1 0x1 OR SWAP1 SSTORE PUSH0 PUSH2 0x1093 DUP7 PUSH2 0x2663 JUMP JUMPDEST PUSH1 0xA DUP6 ADD DUP2 SWAP1 SSTORE DUP5 SLOAD PUSH1 0x1 PUSH1 0x1 PUSH1 0xA0 SHL SUB NOT AND PUSH1 0x1 PUSH1 0x1 PUSH1 0xA0 SHL SUB DUP12 AND OR DUP6 SSTORE PUSH1 0xC SLOAD PUSH1 0x9 SLOAD SWAP2 SWAP3 POP PUSH2 0x10D1 SWAP2 PUSH2 0x10CB SWAP1 DUP5 SWAP1 PUSH2 0x27DC JUMP JUMPDEST SWAP1 PUSH2 0x27E7 JUMP JUMPDEST PUSH1 0x1 DUP6 ADD SSTORE PUSH1 0x2 DUP5 ADD DUP1 SLOAD PUSH1 0xFF NOT AND SWAP1 SSTORE PUSH1 0x3 DUP5 ADD DUP1 SLOAD PUSH1 0x1 PUSH1 0x1 PUSH1 0xA0 SHL SUB NOT AND PUSH1 0x1 PUSH1 0x1 PUSH1 0xA0 SHL SUB DUP11 AND OR SWAP1 SSTORE PUSH1 0xC SLOAD PUSH1 0xA SLOAD PUSH2 0x1115 SWAP2 SWAP1 PUSH2 0x10CB SWAP1 DUP5 SWAP1 PUSH2 0x27DC JUMP JUMPDEST PUSH1 0x4 DUP6 ADD SSTORE PUSH1 0x5 DUP5 ADD DUP1 SLOAD PUSH1 0xFF NOT AND SWAP1 SSTORE PUSH1 0x6 DUP5 ADD DUP1 SLOAD PUSH1 0x1 PUSH1 0x1 PUSH1 0xA0 SHL SUB NOT AND PUSH1 0x1 PUSH1 0x1 PUSH1 0xA0 SHL SUB DUP10 AND OR SWAP1 SSTORE PUSH1 0xC SLOAD PUSH1 0xB SLOAD PUSH2 0x1159 SWAP2 SWAP1 PUSH2 0x10CB SWAP1 DUP5 SWAP1 PUSH2 0x27DC JUMP JUMPDEST PUSH1 0x7 DUP6 ADD SSTORE PUSH1 0x8 DUP5 ADD DUP1 SLOAD PUSH1 0xFF NOT AND SWAP1 SSTORE PUSH1 0x40 DUP1 MLOAD PUSH1 0x3 DUP1 DUP3 MSTORE PUSH1 0x80 DUP3 ADD SWAP1 SWAP3 MSTORE PUSH0 SWAP2 PUSH1 0x20 DUP3 ADD PUSH1 0x60 DUP1 CALLDATASIZE DUP4 CALLDATACOPY ADD SWAP1 POP POP SWAP1 POP DUP10 DUP2 PUSH0 DUP2 MLOAD DUP2 LT PUSH2 0x119F JUMPI PUSH2 0x119F PUSH2 0x33A1 JUMP JUMPDEST PUSH1 0x20 MUL PUSH1 0x20 ADD ADD SWAP1 PUSH1 0x1 PUSH1 0x1 PUSH1 0xA0 SHL SUB AND SWAP1 DUP2 PUSH1 0x1 PUSH1 0x1 PUSH1 0xA0 SHL SUB AND DUP2 MSTORE POP POP DUP9 DUP2 PUSH1 0x1 DUP2 MLOAD DUP2 LT PUSH2 0x11D3 JUMPI PUSH2 0x11D3 PUSH2 0x33A1 JUMP JUMPDEST PUSH1 0x20 MUL PUSH1 0x20 ADD ADD SWAP1 PUSH1 0x1 PUSH1 0x1 PUSH1 0xA0 SHL SUB AND SWAP1 DUP2 PUSH1 0x1 PUSH1 0x1 PUSH1 0xA0 SHL SUB AND DUP2 MSTORE POP POP DUP8 DUP2 PUSH1 0x2 DUP2 MLOAD DUP2 LT PUSH2 0x1207 JUMPI PUSH2 0x1207 PUSH2 0x33A1 JUMP JUMPDEST PUSH1 0x1 PUSH1 0x1 PUSH1 0xA0 SHL SUB SWAP3 SWAP1 SWAP3 AND PUSH1 0x20 SWAP3 DUP4 MUL SWAP2 SWAP1 SWAP2 ADD DUP3 ADD MSTORE PUSH1 0x40 DUP1 MLOAD PUSH1 0x3 DUP1 DUP3 MSTORE PUSH1 0x80 DUP3 ADD SWAP1 SWAP3 MSTORE PUSH0 SWAP3 SWAP1 SWAP2 SWAP1 DUP3 ADD PUSH1 0x60 DUP1 CALLDATASIZE DUP4 CALLDATACOPY ADD SWAP1 POP POP SWAP1 POP DUP6 PUSH0 ADD PUSH1 0x1 ADD SLOAD DUP2 PUSH0 DUP2 MLOAD DUP2 LT PUSH2 0x125B JUMPI PUSH2 0x125B PUSH2 0x33A1 JUMP JUMPDEST PUSH1 0x20 MUL PUSH1 0x20 ADD ADD DUP2 DUP2 MSTORE POP POP DUP6 PUSH1 0x3 ADD PUSH1 0x1 ADD SLOAD DUP2 PUSH1 0x1 DUP2 MLOAD DUP2 LT PUSH2 0x1282 JUMPI PUSH2 0x1282 PUSH2 0x33A1 JUMP JUMPDEST PUSH1 0x20 MUL PUSH1 0x20 ADD ADD DUP2 DUP2 MSTORE POP POP DUP6 PUSH1 0x6 ADD PUSH1 0x1 ADD SLOAD DUP2 PUSH1 0x2 DUP2 MLOAD DUP2 LT PUSH2 0x12A9 JUMPI PUSH2 0x12A9 PUSH2 0x33A1 JUMP JUMPDEST PUSH1 0x20 MUL PUSH1 0x20 ADD ADD DUP2 DUP2 MSTORE POP POP PUSH2 0x12C0 DUP13 DUP4 DUP4 PUSH2 0x27F2 JUMP JUMPDEST POP POP POP POP POP POP POP POP POP POP POP POP JUMP JUMPDEST PUSH0 DUP1 PUSH2 0x12D9 PUSH1 0xD SLOAD SWAP1 JUMP JUMPDEST SWAP1 POP PUSH0 DUP2 GT PUSH2 0x12FA JUMPI PUSH1 0x40 MLOAD PUSH3 0x461BCD PUSH1 0xE5 SHL DUP2 MSTORE PUSH1 0x4 ADD PUSH2 0x7D3 SWAP1 PUSH2 0x341E JUMP JUMPDEST PUSH0 PUSH2 0x1306 DUP3 PUSH1 0x1 PUSH2 0x298B JUMP JUMPDEST SWAP4 SWAP3 POP POP POP JUMP JUMPDEST PUSH0 DUP1 PUSH2 0x1318 PUSH1 0xD SLOAD SWAP1 JUMP JUMPDEST SWAP1 POP PUSH0 DUP2 GT PUSH2 0x1339 JUMPI PUSH1 0x40 MLOAD PUSH3 0x461BCD PUSH1 0xE5 SHL DUP2 MSTORE PUSH1 0x4 ADD PUSH2 0x7D3 SWAP1 PUSH2 0x341E JUMP JUMPDEST DUP4 PUSH0 PUSH2 0x1343 PUSH2 0x12CE JUMP JUMPDEST SWAP1 POP DUP1 DUP3 GT ISZERO PUSH2 0x138C JUMPI PUSH1 0x40 MLOAD PUSH3 0x461BCD PUSH1 0xE5 SHL DUP2 MSTORE PUSH1 0x20 PUSH1 0x4 DUP3 ADD MSTORE PUSH1 0x14 PUSH1 0x24 DUP3 ADD MSTORE PUSH20 0x24B73B30B634B21032B837B1B410373AB6B132B9 PUSH1 0x61 SHL PUSH1 0x44 DUP3 ADD MSTORE PUSH1 0x64 ADD PUSH2 0x7D3 JUMP JUMPDEST PUSH1 0x1 PUSH1 0x1 PUSH1 0xA0 SHL SUB DUP6 AND PUSH0 SWAP1 DUP2 MSTORE PUSH1 0x3 PUSH1 0x20 MSTORE PUSH1 0x40 DUP2 KECCAK256 SLOAD SWAP1 DUP2 SWAP1 SUB PUSH2 0x13C4 JUMPI PUSH1 0x40 MLOAD PUSH3 0x461BCD PUSH1 0xE5 SHL DUP2 MSTORE PUSH1 0x4 ADD PUSH2 0x7D3 SWAP1 PUSH2 0x3478 JUMP JUMPDEST PUSH0 DUP8 DUP2 MSTORE PUSH1 0x4 PUSH1 0x20 SWAP1 DUP2 MSTORE PUSH1 0x40 DUP1 DUP4 KECCAK256 SWAP4 DUP4 MSTORE SWAP3 SWAP1 MSTORE KECCAK256 SLOAD SWAP4 POP POP POP POP SWAP3 SWAP2 POP POP JUMP JUMPDEST PUSH2 0x1417 PUSH1 0x40 MLOAD DUP1 PUSH1 0x80 ADD PUSH1 0x40 MSTORE DUP1 PUSH0 PUSH1 0x1 PUSH1 0x1 PUSH1 0xA0 SHL SUB AND DUP2 MSTORE PUSH1 0x20 ADD PUSH0 DUP2 MSTORE PUSH1 0x20 ADD PUSH0 DUP2 MSTORE PUSH1 0x20 ADD PUSH0 DUP2 MSTORE POP SWAP1 JUMP JUMPDEST POP PUSH1 0x1 PUSH1 0x1 PUSH1 0xA0 SHL SUB SWAP1 DUP2 AND PUSH0 SWAP1 DUP2 MSTORE PUSH1 0x3 PUSH1 0x20 DUP2 DUP2 MSTORE PUSH1 0x40 DUP1 DUP5 KECCAK256 SLOAD DUP5 MSTORE PUSH1 0x2 DUP1 DUP4 MSTORE SWAP4 DUP2 SWAP1 KECCAK256 DUP2 MLOAD PUSH1 0x80 DUP2 ADD DUP4 MSTORE DUP2 SLOAD SWAP1 SWAP7 AND DUP7 MSTORE PUSH1 0x1 DUP2 ADD SLOAD SWAP3 DUP7 ADD SWAP3 SWAP1 SWAP3 MSTORE SWAP3 DUP2 ADD SLOAD SWAP3 DUP5 ADD SWAP3 SWAP1 SWAP3 MSTORE ADD SLOAD PUSH1 0x60 DUP3 ADD MSTORE SWAP1 JUMP JUMPDEST PUSH0 SLOAD PUSH1 0x1 PUSH1 0xA0 SHL SWAP1 DIV PUSH1 0xFF AND ISZERO PUSH2 0x14C8 JUMPI PUSH1 0x40 MLOAD PUSH3 0x461BCD PUSH1 0xE5 SHL DUP2 MSTORE PUSH1 0x20 PUSH1 0x4 DUP3 ADD MSTORE PUSH1 0x1F PUSH1 0x24 DUP3 ADD MSTORE PUSH32 0x436F6E747261637420697320696E697469616C697A656420616C726561647900 PUSH1 0x44 DUP3 ADD MSTORE PUSH1 0x64 ADD PUSH2 0x7D3 JUMP JUMPDEST PUSH2 0x14D1 DUP2 PUSH2 0x2996 JUMP JUMPDEST POP PUSH0 DUP1 SLOAD PUSH1 0xFF PUSH1 0xA0 SHL NOT AND PUSH1 0x1 PUSH1 0xA0 SHL OR SWAP1 SSTORE JUMP JUMPDEST PUSH0 DUP1 PUSH0 SWAP1 SLOAD SWAP1 PUSH2 0x100 EXP SWAP1 DIV PUSH1 0x1 PUSH1 0x1 PUSH1 0xA0 SHL SUB AND PUSH1 0x1 PUSH1 0x1 PUSH1 0xA0 SHL SUB AND PUSH4 0x3018205F PUSH1 0x40 MLOAD DUP2 PUSH4 0xFFFFFFFF AND PUSH1 0xE0 SHL DUP2 MSTORE PUSH1 0x4 ADD PUSH1 0x20 PUSH1 0x40 MLOAD DUP1 DUP4 SUB DUP2 DUP7 GAS STATICCALL ISZERO DUP1 ISZERO PUSH2 0x1536 JUMPI RETURNDATASIZE PUSH0 DUP1 RETURNDATACOPY RETURNDATASIZE PUSH0 REVERT JUMPDEST POP POP POP POP PUSH1 0x40 MLOAD RETURNDATASIZE PUSH1 0x1F NOT PUSH1 0x1F DUP3 ADD AND DUP3 ADD DUP1 PUSH1 0x40 MSTORE POP DUP2 ADD SWAP1 PUSH2 0x155A SWAP2 SWAP1 PUSH2 0x33B5 JUMP JUMPDEST SWAP1 POP CALLER PUSH1 0x1 PUSH1 0x1 PUSH1 0xA0 SHL SUB DUP3 AND EQ PUSH2 0x1584 JUMPI PUSH1 0x40 MLOAD PUSH3 0x461BCD PUSH1 0xE5 SHL DUP2 MSTORE PUSH1 0x4 ADD PUSH2 0x7D3 SWAP1 PUSH2 0x33D0 JUMP JUMPDEST DUP2 PUSH2 0x1599 DUP5 PUSH2 0x1593 DUP9 DUP9 PUSH2 0x23FB JUMP JUMPDEST SWAP1 PUSH2 0x23FB JUMP JUMPDEST EQ PUSH2 0x15A2 JUMPI PUSH0 DUP1 REVERT JUMPDEST PUSH1 0x9 DUP6 SWAP1 SSTORE PUSH1 0xA DUP5 SWAP1 SSTORE PUSH1 0xB DUP4 SWAP1 SSTORE PUSH1 0xC DUP3 SWAP1 SSTORE PUSH1 0x40 DUP1 MLOAD DUP7 DUP2 MSTORE PUSH1 0x20 DUP2 ADD DUP7 SWAP1 MSTORE SWAP1 DUP2 ADD DUP5 SWAP1 MSTORE PUSH32 0x276FB89D8224FFD75E667EF77AA3B75F5D7064A6DD5B8C9B9B8761B8B303A346 SWAP1 PUSH1 0x60 ADD PUSH1 0x40 MLOAD DUP1 SWAP2 SUB SWAP1 LOG1 POP POP POP POP POP JUMP JUMPDEST PUSH0 DUP3 DUP2 MSTORE PUSH1 0x4 PUSH1 0x20 SWAP1 DUP2 MSTORE PUSH1 0x40 DUP1 DUP4 KECCAK256 PUSH1 0x1 PUSH1 0x1 PUSH1 0xA0 SHL SUB DUP6 AND DUP5 MSTORE PUSH1 0x3 DUP4 MSTORE DUP2 DUP5 KECCAK256 SLOAD DUP5 MSTORE SWAP1 SWAP2 MSTORE DUP2 KECCAK256 SLOAD PUSH1 0xD DUP1 SLOAD DUP4 SWAP3 DUP4 SWAP3 SWAP1 SWAP2 DUP4 SWAP2 SWAP1 DUP9 SWAP1 DUP2 LT PUSH2 0x1647 JUMPI PUSH2 0x1647 PUSH2 0x33A1 JUMP JUMPDEST PUSH0 SWAP2 DUP3 MSTORE PUSH1 0x20 DUP1 DUP4 KECCAK256 PUSH1 0x40 DUP1 MLOAD PUSH2 0x160 DUP2 ADD DUP3 MSTORE PUSH1 0xE SWAP1 SWAP5 MUL SWAP1 SWAP2 ADD DUP1 SLOAD PUSH1 0x1 PUSH1 0x1 PUSH1 0xA0 SHL SUB SWAP1 DUP2 AND PUSH2 0x100 DUP7 ADD SWAP1 DUP2 MSTORE PUSH1 0x1 DUP4 ADD SLOAD PUSH2 0x120 DUP8 ADD MSTORE PUSH1 0x2 DUP4 ADD SLOAD PUSH1 0xFF SWAP1 DUP2 AND ISZERO ISZERO PUSH2 0x140 DUP9 ADD MSTORE SWAP1 DUP7 MSTORE DUP4 MLOAD PUSH1 0x60 DUP2 DUP2 ADD DUP7 MSTORE PUSH1 0x3 DUP6 ADD SLOAD DUP5 AND DUP3 MSTORE PUSH1 0x4 DUP6 ADD SLOAD DUP3 DUP9 ADD MSTORE PUSH1 0x5 DUP6 ADD SLOAD DUP4 AND ISZERO ISZERO DUP3 DUP8 ADD MSTORE DUP8 DUP8 ADD SWAP2 SWAP1 SWAP2 MSTORE DUP5 MLOAD DUP1 DUP3 ADD DUP7 MSTORE PUSH1 0x6 DUP6 ADD SLOAD SWAP1 SWAP4 AND DUP4 MSTORE PUSH1 0x7 DUP5 ADD SLOAD SWAP6 DUP4 ADD SWAP6 SWAP1 SWAP6 MSTORE PUSH1 0x8 DUP4 ADD SLOAD DUP2 AND ISZERO ISZERO DUP3 DUP6 ADD MSTORE SWAP3 DUP6 ADD MSTORE PUSH1 0x9 DUP2 ADD SLOAD SWAP1 SWAP2 AND ISZERO ISZERO SWAP2 DUP4 ADD SWAP2 SWAP1 SWAP2 MSTORE PUSH1 0xA DUP2 ADD SLOAD PUSH1 0x80 DUP4 ADD MSTORE PUSH1 0xB DUP2 ADD SLOAD PUSH1 0xA0 DUP4 ADD DUP2 SWAP1 MSTORE PUSH1 0xC DUP3 ADD SLOAD PUSH1 0xC0 DUP5 ADD DUP2 SWAP1 MSTORE PUSH1 0xD SWAP1 SWAP3 ADD SLOAD PUSH1 0xE0 DUP5 ADD MSTORE SWAP2 SWAP4 POP PUSH2 0x1740 SWAP2 SWAP1 PUSH2 0x23FB JUMP JUMPDEST PUSH1 0x1 PUSH1 0x1 PUSH1 0xA0 SHL SUB DUP9 AND PUSH0 SWAP1 DUP2 MSTORE PUSH1 0x3 PUSH1 0x20 MSTORE PUSH1 0x40 DUP2 KECCAK256 SLOAD SWAP2 SWAP3 POP DUP2 SWAP1 SUB PUSH2 0x177A JUMPI PUSH1 0x40 MLOAD PUSH3 0x461BCD PUSH1 0xE5 SHL DUP2 MSTORE PUSH1 0x4 ADD PUSH2 0x7D3 SWAP1 PUSH2 0x3478 JUMP JUMPDEST PUSH0 DUP2 DUP2 MSTORE PUSH1 0x2 PUSH1 0x20 DUP2 SWAP1 MSTORE PUSH1 0x40 SWAP1 SWAP2 KECCAK256 PUSH1 0x3 DUP2 ADD SLOAD PUSH1 0x1 DUP3 ADD SLOAD SWAP2 SWAP1 SWAP3 ADD SLOAD DUP5 GT PUSH2 0x17F6 JUMPI PUSH1 0x40 MLOAD PUSH3 0x461BCD PUSH1 0xE5 SHL DUP2 MSTORE PUSH1 0x20 PUSH1 0x4 DUP3 ADD MSTORE PUSH1 0x26 PUSH1 0x24 DUP3 ADD MSTORE PUSH32 0x5573657220686173206E6F742070617274696369706174656420696E20746865 PUSH1 0x44 DUP3 ADD MSTORE PUSH6 0x40CAE0DEC6D PUSH1 0xD3 SHL PUSH1 0x64 DUP3 ADD MSTORE PUSH1 0x84 ADD PUSH2 0x7D3 JUMP JUMPDEST PUSH0 PUSH2 0x1801 DUP12 DUP14 PUSH2 0xC30 JUMP JUMPDEST SWAP1 POP DUP6 PUSH1 0xC0 ADD MLOAD TIMESTAMP LT ISZERO DUP1 ISZERO PUSH2 0x1817 JUMPI POP DUP5 TIMESTAMP GT ISZERO JUMPDEST ISZERO PUSH2 0x18A7 JUMPI DUP6 PUSH1 0xC0 ADD MLOAD DUP4 LT ISZERO DUP1 ISZERO PUSH2 0x1830 JUMPI POP DUP5 DUP4 GT ISZERO JUMPDEST ISZERO PUSH2 0x1850 JUMPI PUSH2 0x1849 DUP3 PUSH2 0x1843 TIMESTAMP DUP7 PUSH2 0x298B JUMP JUMPDEST SWAP1 PUSH2 0x27DC JUMP JUMPDEST SWAP8 POP PUSH2 0x187A JUMP JUMPDEST DUP6 PUSH1 0xC0 ADD MLOAD DUP4 LT ISZERO PUSH2 0x187A JUMPI PUSH2 0x1877 DUP3 PUSH2 0x1843 DUP9 PUSH1 0xC0 ADD MLOAD TIMESTAMP PUSH2 0x298B SWAP1 SWAP2 SWAP1 PUSH4 0xFFFFFFFF AND JUMP JUMPDEST SWAP8 POP JUMPDEST PUSH2 0x1896 PUSH1 0x11 SLOAD PUSH1 0xA PUSH2 0x188C SWAP2 SWAP1 PUSH2 0x35B4 JUMP JUMPDEST PUSH2 0x10CB DUP10 DUP12 PUSH2 0x23FB JUMP JUMPDEST SWAP10 POP PUSH2 0x1A71 SWAP9 POP POP POP POP POP POP POP POP POP JUMP JUMPDEST DUP5 TIMESTAMP GT ISZERO PUSH2 0x1A64 JUMPI DUP6 PUSH1 0xC0 ADD MLOAD DUP4 LT ISZERO PUSH2 0x18DA JUMPI PUSH2 0x1896 PUSH1 0x11 SLOAD PUSH1 0xA PUSH2 0x18CD SWAP2 SWAP1 PUSH2 0x35B4 JUMP JUMPDEST PUSH1 0xE SLOAD PUSH2 0x10CB SWAP1 DUP6 PUSH2 0x27DC JUMP JUMPDEST DUP1 MLOAD ISZERO PUSH2 0x1986 JUMPI PUSH1 0x20 DUP2 ADD MLOAD MLOAD PUSH0 SWAP1 PUSH2 0x18F4 SWAP1 PUSH1 0x1 PUSH2 0x298B JUMP JUMPDEST SWAP1 POP PUSH0 DUP3 PUSH1 0x20 ADD MLOAD DUP3 DUP2 MLOAD DUP2 LT PUSH2 0x190D JUMPI PUSH2 0x190D PUSH2 0x33A1 JUMP JUMPDEST PUSH1 0x20 MUL PUSH1 0x20 ADD ADD MLOAD PUSH1 0x40 ADD MLOAD SWAP1 POP PUSH0 PUSH2 0x1954 DUP5 PUSH1 0x20 ADD MLOAD DUP5 DUP2 MLOAD DUP2 LT PUSH2 0x1935 JUMPI PUSH2 0x1935 PUSH2 0x33A1 JUMP JUMPDEST PUSH1 0x20 MUL PUSH1 0x20 ADD ADD MLOAD PUSH1 0x20 ADD MLOAD PUSH2 0x1843 DUP5 DUP12 PUSH2 0x298B SWAP1 SWAP2 SWAP1 PUSH4 0xFFFFFFFF AND JUMP JUMPDEST SWAP1 POP PUSH2 0x1972 PUSH1 0x11 SLOAD PUSH1 0xA PUSH2 0x1968 SWAP2 SWAP1 PUSH2 0x35B4 JUMP JUMPDEST PUSH2 0x10CB DUP13 DUP5 PUSH2 0x23FB JUMP JUMPDEST SWAP13 POP PUSH2 0x1A71 SWAP12 POP POP POP POP POP POP POP POP POP POP POP POP JUMP JUMPDEST DUP1 MLOAD ISZERO ISZERO PUSH0 SUB PUSH2 0x1A64 JUMPI PUSH0 PUSH2 0x199C DUP14 PUSH1 0x1 PUSH2 0x298B JUMP JUMPDEST SWAP1 POP PUSH0 JUMPDEST DUP14 DUP2 LT ISZERO PUSH2 0x1A51 JUMPI PUSH0 PUSH2 0x19B3 DUP15 DUP5 PUSH2 0xC30 JUMP JUMPDEST DUP1 MLOAD SWAP1 SWAP2 POP ISZERO PUSH2 0x1A30 JUMPI PUSH1 0x20 DUP2 ADD MLOAD MLOAD PUSH0 SWAP1 PUSH2 0x19D0 SWAP1 PUSH1 0x1 PUSH2 0x298B JUMP JUMPDEST SWAP1 POP PUSH0 PUSH2 0x1A0B DUP4 PUSH1 0x20 ADD MLOAD DUP4 DUP2 MLOAD DUP2 LT PUSH2 0x19EC JUMPI PUSH2 0x19EC PUSH2 0x33A1 JUMP JUMPDEST PUSH1 0x20 MUL PUSH1 0x20 ADD ADD MLOAD PUSH1 0x20 ADD MLOAD DUP13 PUSH1 0xA0 ADD MLOAD PUSH2 0x27DC SWAP1 SWAP2 SWAP1 PUSH4 0xFFFFFFFF AND JUMP JUMPDEST SWAP1 POP PUSH2 0x1A26 PUSH1 0x11 SLOAD PUSH1 0xA PUSH2 0x1A1F SWAP2 SWAP1 PUSH2 0x35B4 JUMP JUMPDEST DUP3 SWAP1 PUSH2 0x27E7 JUMP JUMPDEST SWAP14 POP POP POP POP PUSH2 0x1A51 JUMP JUMPDEST PUSH2 0x1A3B PUSH1 0x1 DUP5 PUSH2 0x35BF JUMP JUMPDEST SWAP3 POP POP DUP1 DUP1 PUSH2 0x1A49 SWAP1 PUSH2 0x3460 JUMP JUMPDEST SWAP2 POP POP PUSH2 0x19A0 JUMP JUMPDEST POP DUP10 SWAP11 POP POP POP POP POP POP POP POP POP POP POP PUSH2 0x1A71 JUMP JUMPDEST POP PUSH0 SWAP9 POP POP POP POP POP POP POP POP POP JUMPDEST SWAP3 SWAP2 POP POP JUMP JUMPDEST PUSH0 DUP1 PUSH0 SWAP1 SLOAD SWAP1 PUSH2 0x100 EXP SWAP1 DIV PUSH1 0x1 PUSH1 0x1 PUSH1 0xA0 SHL SUB AND PUSH1 0x1 PUSH1 0x1 PUSH1 0xA0 SHL SUB AND PUSH4 0xB0F479A1 PUSH1 0x40 MLOAD DUP2 PUSH4 0xFFFFFFFF AND PUSH1 0xE0 SHL DUP2 MSTORE PUSH1 0x4 ADD PUSH1 0x20 PUSH1 0x40 MLOAD DUP1 DUP4 SUB DUP2 DUP7 GAS STATICCALL ISZERO DUP1 ISZERO PUSH2 0x1AC7 JUMPI RETURNDATASIZE PUSH0 DUP1 RETURNDATACOPY RETURNDATASIZE PUSH0 REVERT JUMPDEST POP POP POP POP PUSH1 0x40 MLOAD RETURNDATASIZE PUSH1 0x1F NOT PUSH1 0x1F DUP3 ADD AND DUP3 ADD DUP1 PUSH1 0x40 MSTORE POP DUP2 ADD SWAP1 PUSH2 0x1AEB SWAP2 SWAP1 PUSH2 0x33B5 JUMP JUMPDEST SWAP1 POP CALLER PUSH1 0x1 PUSH1 0x1 PUSH1 0xA0 SHL SUB DUP3 AND EQ PUSH2 0x1B15 JUMPI PUSH1 0x40 MLOAD PUSH3 0x461BCD PUSH1 0xE5 SHL DUP2 MSTORE PUSH1 0x4 ADD PUSH2 0x7D3 SWAP1 PUSH2 0x33D0 JUMP JUMPDEST PUSH1 0x7 SLOAD ISZERO PUSH2 0x1B35 JUMPI PUSH1 0x40 MLOAD PUSH3 0x461BCD PUSH1 0xE5 SHL DUP2 MSTORE PUSH1 0x4 ADD PUSH2 0x7D3 SWAP1 PUSH2 0x33F8 JUMP JUMPDEST PUSH1 0x1 PUSH1 0x7 SSTORE PUSH0 PUSH2 0x1B44 PUSH1 0xD SLOAD SWAP1 JUMP JUMPDEST SWAP1 POP PUSH0 DUP2 GT PUSH2 0x1B65 JUMPI PUSH1 0x40 MLOAD PUSH3 0x461BCD PUSH1 0xE5 SHL DUP2 MSTORE PUSH1 0x4 ADD PUSH2 0x7D3 SWAP1 PUSH2 0x341E JUMP JUMPDEST PUSH0 DUP4 GT PUSH2 0x1BA5 JUMPI PUSH1 0x40 MLOAD PUSH3 0x461BCD PUSH1 0xE5 SHL DUP2 MSTORE PUSH1 0x20 PUSH1 0x4 DUP3 ADD MSTORE PUSH1 0xE PUSH1 0x24 DUP3 ADD MSTORE PUSH14 0x125B9D985B1A5908185B5BDD5B9D PUSH1 0x92 SHL PUSH1 0x44 DUP3 ADD MSTORE PUSH1 0x64 ADD PUSH2 0x7D3 JUMP JUMPDEST PUSH2 0x1BB0 DUP5 DUP5 PUSH0 PUSH2 0x2584 JUMP JUMPDEST PUSH2 0x1BB9 DUP4 PUSH2 0x29B7 JUMP JUMPDEST POP POP PUSH0 PUSH1 0x7 SSTORE POP POP JUMP JUMPDEST PUSH0 DUP1 PUSH0 SWAP1 SLOAD SWAP1 PUSH2 0x100 EXP SWAP1 DIV PUSH1 0x1 PUSH1 0x1 PUSH1 0xA0 SHL SUB AND PUSH1 0x1 PUSH1 0x1 PUSH1 0xA0 SHL SUB AND PUSH4 0xCF20D872 PUSH1 0x40 MLOAD DUP2 PUSH4 0xFFFFFFFF AND PUSH1 0xE0 SHL DUP2 MSTORE PUSH1 0x4 ADD PUSH1 0x20 PUSH1 0x40 MLOAD DUP1 DUP4 SUB DUP2 DUP7 GAS STATICCALL ISZERO DUP1 ISZERO PUSH2 0x1C13 JUMPI RETURNDATASIZE PUSH0 DUP1 RETURNDATACOPY RETURNDATASIZE PUSH0 REVERT JUMPDEST POP POP POP POP PUSH1 0x40 MLOAD RETURNDATASIZE PUSH1 0x1F NOT PUSH1 0x1F DUP3 ADD AND DUP3 ADD DUP1 PUSH1 0x40 MSTORE POP DUP2 ADD SWAP1 PUSH2 0x1C37 SWAP2 SWAP1 PUSH2 0x33B5 JUMP JUMPDEST SWAP1 POP CALLER PUSH1 0x1 PUSH1 0x1 PUSH1 0xA0 SHL SUB DUP3 AND EQ PUSH2 0x1C61 JUMPI PUSH1 0x40 MLOAD PUSH3 0x461BCD PUSH1 0xE5 SHL DUP2 MSTORE PUSH1 0x4 ADD PUSH2 0x7D3 SWAP1 PUSH2 0x33D0 JUMP JUMPDEST PUSH0 PUSH2 0x1C6B PUSH1 0xD SLOAD SWAP1 JUMP JUMPDEST SWAP1 POP DUP1 ISZERO PUSH2 0x1D8A JUMPI PUSH0 PUSH2 0x1C7F DUP3 PUSH1 0x1 PUSH2 0x298B JUMP JUMPDEST SWAP1 POP PUSH0 PUSH1 0xD DUP3 DUP2 SLOAD DUP2 LT PUSH2 0x1C95 JUMPI PUSH2 0x1C95 PUSH2 0x33A1 JUMP JUMPDEST PUSH0 SWAP2 DUP3 MSTORE PUSH1 0x20 SWAP2 DUP3 SWAP1 KECCAK256 PUSH1 0x40 DUP1 MLOAD PUSH2 0x160 DUP2 ADD DUP3 MSTORE PUSH1 0xE SWAP1 SWAP4 MUL SWAP1 SWAP2 ADD DUP1 SLOAD PUSH1 0x1 PUSH1 0x1 PUSH1 0xA0 SHL SUB SWAP1 DUP2 AND PUSH2 0x100 DUP6 ADD SWAP1 DUP2 MSTORE PUSH1 0x1 DUP4 ADD SLOAD PUSH2 0x120 DUP7 ADD MSTORE PUSH1 0x2 DUP4 ADD SLOAD PUSH1 0xFF SWAP1 DUP2 AND ISZERO ISZERO PUSH2 0x140 DUP8 ADD MSTORE SWAP1 DUP6 MSTORE DUP4 MLOAD PUSH1 0x60 DUP2 DUP2 ADD DUP7 MSTORE PUSH1 0x3 DUP6 ADD SLOAD DUP5 AND DUP3 MSTORE PUSH1 0x4 DUP6 ADD SLOAD DUP3 DUP10 ADD MSTORE PUSH1 0x5 DUP6 ADD SLOAD DUP4 AND ISZERO ISZERO DUP3 DUP8 ADD MSTORE DUP7 DUP9 ADD SWAP2 SWAP1 SWAP2 MSTORE DUP5 MLOAD DUP1 DUP3 ADD DUP7 MSTORE PUSH1 0x6 DUP6 ADD SLOAD SWAP1 SWAP4 AND DUP4 MSTORE PUSH1 0x7 DUP5 ADD SLOAD SWAP7 DUP4 ADD SWAP7 SWAP1 SWAP7 MSTORE PUSH1 0x8 DUP4 ADD SLOAD DUP2 AND ISZERO ISZERO DUP3 DUP6 ADD MSTORE SWAP3 DUP5 ADD MSTORE PUSH1 0x9 DUP2 ADD SLOAD SWAP1 SWAP2 AND ISZERO ISZERO SWAP3 DUP3 ADD DUP4 SWAP1 MSTORE PUSH1 0xA DUP2 ADD SLOAD PUSH1 0x80 DUP4 ADD MSTORE PUSH1 0xB DUP2 ADD SLOAD PUSH1 0xA0 DUP4 ADD MSTORE PUSH1 0xC DUP2 ADD SLOAD PUSH1 0xC0 DUP4 ADD MSTORE PUSH1 0xD ADD SLOAD PUSH1 0xE0 DUP3 ADD MSTORE SWAP2 POP DUP1 PUSH2 0x1D86 JUMPI PUSH0 DUP1 REVERT JUMPDEST POP POP POP JUMPDEST POP POP PUSH1 0x40 DUP1 MLOAD PUSH1 0x60 DUP1 DUP3 ADD DUP4 MSTORE PUSH0 DUP1 DUP4 MSTORE PUSH1 0x20 DUP1 DUP5 ADD DUP3 SWAP1 MSTORE DUP4 DUP6 ADD DUP3 SWAP1 MSTORE DUP5 MLOAD PUSH2 0x100 DUP2 ADD DUP7 MSTORE DUP5 DUP2 MSTORE DUP1 DUP3 ADD DUP6 DUP2 MSTORE DUP2 DUP8 ADD SWAP6 DUP7 MSTORE SWAP4 DUP2 ADD DUP4 DUP2 MSTORE PUSH1 0x80 DUP3 ADD DUP5 DUP2 MSTORE PUSH1 0xE DUP1 SLOAD PUSH1 0xA0 DUP6 ADD SWAP1 DUP2 MSTORE TIMESTAMP PUSH1 0xC0 DUP7 ADD SWAP1 DUP2 MSTORE PUSH1 0xE0 DUP7 ADD DUP9 DUP2 MSTORE PUSH1 0xD DUP1 SLOAD PUSH1 0x1 DUP2 ADD DUP3 SSTORE SWAP10 MSTORE SWAP6 MLOAD DUP1 MLOAD PUSH32 0xD7B6990105719101DABEB77144F2A3385C8033ACD3AF97E9423A695E81AD1EB5 SWAP10 SWAP1 SWAP5 MUL SWAP9 DUP10 ADD DUP1 SLOAD PUSH1 0x1 PUSH1 0x1 PUSH1 0xA0 SHL SUB NOT SWAP1 DUP2 AND PUSH1 0x1 PUSH1 0x1 PUSH1 0xA0 SHL SUB SWAP7 DUP8 AND OR SWAP1 SWAP2 SSTORE DUP2 DUP10 ADD MLOAD PUSH32 0xD7B6990105719101DABEB77144F2A3385C8033ACD3AF97E9423A695E81AD1EB6 DUP12 ADD SSTORE SWAP1 DUP13 ADD MLOAD PUSH32 0xD7B6990105719101DABEB77144F2A3385C8033ACD3AF97E9423A695E81AD1EB7 DUP11 ADD DUP1 SLOAD PUSH1 0xFF NOT SWAP1 DUP2 AND SWAP3 ISZERO ISZERO SWAP3 SWAP1 SWAP3 OR SWAP1 SSTORE SWAP10 MLOAD DUP1 MLOAD PUSH32 0xD7B6990105719101DABEB77144F2A3385C8033ACD3AF97E9423A695E81AD1EB8 DUP12 ADD DUP1 SLOAD DUP5 AND SWAP2 DUP8 AND SWAP2 SWAP1 SWAP2 OR SWAP1 SSTORE DUP1 DUP10 ADD MLOAD PUSH32 0xD7B6990105719101DABEB77144F2A3385C8033ACD3AF97E9423A695E81AD1EB9 DUP12 ADD SSTORE DUP13 ADD MLOAD PUSH32 0xD7B6990105719101DABEB77144F2A3385C8033ACD3AF97E9423A695E81AD1EBA DUP11 ADD DUP1 SLOAD DUP13 AND SWAP2 ISZERO ISZERO SWAP2 SWAP1 SWAP2 OR SWAP1 SSTORE SWAP10 MLOAD DUP1 MLOAD PUSH32 0xD7B6990105719101DABEB77144F2A3385C8033ACD3AF97E9423A695E81AD1EBB DUP11 ADD DUP1 SLOAD SWAP1 SWAP13 AND SWAP5 AND SWAP4 SWAP1 SWAP4 OR SWAP1 SWAP10 SSTORE SWAP5 DUP2 ADD MLOAD PUSH32 0xD7B6990105719101DABEB77144F2A3385C8033ACD3AF97E9423A695E81AD1EBC DUP8 ADD SSTORE SWAP1 SWAP8 ADD MLOAD PUSH32 0xD7B6990105719101DABEB77144F2A3385C8033ACD3AF97E9423A695E81AD1EBD DUP6 ADD DUP1 SLOAD DUP8 AND SWAP2 ISZERO ISZERO SWAP2 SWAP1 SWAP2 OR SWAP1 SSTORE MLOAD PUSH32 0xD7B6990105719101DABEB77144F2A3385C8033ACD3AF97E9423A695E81AD1EBE DUP5 ADD DUP1 SLOAD SWAP1 SWAP6 AND SWAP1 ISZERO ISZERO OR SWAP1 SWAP4 SSTORE SWAP4 MLOAD PUSH32 0xD7B6990105719101DABEB77144F2A3385C8033ACD3AF97E9423A695E81AD1EBF DUP3 ADD SSTORE SWAP3 MLOAD PUSH32 0xD7B6990105719101DABEB77144F2A3385C8033ACD3AF97E9423A695E81AD1EC0 DUP5 ADD SSTORE SWAP1 MLOAD PUSH32 0xD7B6990105719101DABEB77144F2A3385C8033ACD3AF97E9423A695E81AD1EC1 DUP4 ADD SSTORE MLOAD PUSH32 0xD7B6990105719101DABEB77144F2A3385C8033ACD3AF97E9423A695E81AD1EC2 SWAP1 SWAP2 ADD SSTORE JUMP JUMPDEST PUSH0 DUP1 PUSH0 SWAP1 SLOAD SWAP1 PUSH2 0x100 EXP SWAP1 DIV PUSH1 0x1 PUSH1 0x1 PUSH1 0xA0 SHL SUB AND PUSH1 0x1 PUSH1 0x1 PUSH1 0xA0 SHL SUB AND PUSH4 0x893D20E8 PUSH1 0x40 MLOAD DUP2 PUSH4 0xFFFFFFFF AND PUSH1 0xE0 SHL DUP2 MSTORE PUSH1 0x4 ADD PUSH1 0x20 PUSH1 0x40 MLOAD DUP1 DUP4 SUB DUP2 DUP7 GAS STATICCALL ISZERO DUP1 ISZERO PUSH2 0x20D7 JUMPI RETURNDATASIZE PUSH0 DUP1 RETURNDATACOPY RETURNDATASIZE PUSH0 REVERT JUMPDEST POP POP POP POP PUSH1 0x40 MLOAD RETURNDATASIZE PUSH1 0x1F NOT PUSH1 0x1F DUP3 ADD AND DUP3 ADD DUP1 PUSH1 0x40 MSTORE POP DUP2 ADD SWAP1 PUSH2 0x20FB SWAP2 SWAP1 PUSH2 0x33B5 JUMP JUMPDEST SWAP1 POP CALLER PUSH1 0x1 PUSH1 0x1 PUSH1 0xA0 SHL SUB DUP3 AND EQ PUSH2 0x2125 JUMPI PUSH1 0x40 MLOAD PUSH3 0x461BCD PUSH1 0xE5 SHL DUP2 MSTORE PUSH1 0x4 ADD PUSH2 0x7D3 SWAP1 PUSH2 0x33D0 JUMP JUMPDEST PUSH2 0x212E DUP3 PUSH2 0x2996 JUMP JUMPDEST POP POP JUMP JUMPDEST PUSH1 0xF SLOAD PUSH1 0x40 MLOAD PUSH4 0x70A08231 PUSH1 0xE0 SHL DUP2 MSTORE ADDRESS PUSH1 0x4 DUP3 ADD MSTORE PUSH0 SWAP2 DUP3 SWAP2 PUSH1 0x1 PUSH1 0x1 PUSH1 0xA0 SHL SUB SWAP1 SWAP2 AND SWAP1 PUSH4 0x70A08231 SWAP1 PUSH1 0x24 ADD PUSH1 0x20 PUSH1 0x40 MLOAD DUP1 DUP4 SUB DUP2 DUP7 GAS STATICCALL ISZERO DUP1 ISZERO PUSH2 0x217C JUMPI RETURNDATASIZE PUSH0 DUP1 RETURNDATACOPY RETURNDATASIZE PUSH0 REVERT JUMPDEST POP POP POP POP PUSH1 0x40 MLOAD RETURNDATASIZE PUSH1 0x1F NOT PUSH1 0x1F DUP3 ADD AND DUP3 ADD DUP1 PUSH1 0x40 MSTORE POP DUP2 ADD SWAP1 PUSH2 0x21A0 SWAP2 SWAP1 PUSH2 0x35D2 JUMP JUMPDEST SWAP1 POP PUSH0 PUSH2 0x1306 PUSH1 0x8 SLOAD DUP4 PUSH2 0x298B SWAP1 SWAP2 SWAP1 PUSH4 0xFFFFFFFF AND JUMP JUMPDEST PUSH0 DUP1 SLOAD PUSH1 0x40 DUP1 MLOAD PUSH4 0xB0F479A1 PUSH1 0xE0 SHL DUP2 MSTORE SWAP1 MLOAD DUP4 SWAP3 PUSH1 0x1 PUSH1 0x1 PUSH1 0xA0 SHL SUB AND SWAP2 PUSH4 0xB0F479A1 SWAP2 PUSH1 0x4 DUP1 DUP4 ADD SWAP3 PUSH1 0x20 SWAP3 SWAP2 SWAP1 DUP3 SWAP1 SUB ADD DUP2 DUP7 GAS STATICCALL ISZERO DUP1 ISZERO PUSH2 0x21FF JUMPI RETURNDATASIZE PUSH0 DUP1 RETURNDATACOPY RETURNDATASIZE PUSH0 REVERT JUMPDEST POP POP POP POP PUSH1 0x40 MLOAD RETURNDATASIZE PUSH1 0x1F NOT PUSH1 0x1F DUP3 ADD AND DUP3 ADD DUP1 PUSH1 0x40 MSTORE POP DUP2 ADD SWAP1 PUSH2 0x2223 SWAP2 SWAP1 PUSH2 0x33B5 JUMP JUMPDEST PUSH1 0xF SLOAD PUSH1 0x40 MLOAD PUSH4 0x70A08231 PUSH1 0xE0 SHL DUP2 MSTORE PUSH1 0x1 PUSH1 0x1 PUSH1 0xA0 SHL SUB DUP1 DUP5 AND PUSH1 0x4 DUP4 ADD MSTORE SWAP3 SWAP4 POP PUSH0 SWAP3 SWAP1 SWAP2 AND SWAP1 PUSH4 0x70A08231 SWAP1 PUSH1 0x24 ADD PUSH1 0x20 PUSH1 0x40 MLOAD DUP1 DUP4 SUB DUP2 DUP7 GAS STATICCALL ISZERO DUP1 ISZERO PUSH2 0x2270 JUMPI RETURNDATASIZE PUSH0 DUP1 RETURNDATACOPY RETURNDATASIZE PUSH0 REVERT JUMPDEST POP POP POP POP PUSH1 0x40 MLOAD RETURNDATASIZE PUSH1 0x1F NOT PUSH1 0x1F DUP3 ADD AND DUP3 ADD DUP1 PUSH1 0x40 MSTORE POP DUP2 ADD SWAP1 PUSH2 0x2294 SWAP2 SWAP1 PUSH2 0x35D2 JUMP JUMPDEST SWAP1 POP PUSH0 DUP1 PUSH0 SWAP1 SLOAD SWAP1 PUSH2 0x100 EXP SWAP1 DIV PUSH1 0x1 PUSH1 0x1 PUSH1 0xA0 SHL SUB AND PUSH1 0x1 PUSH1 0x1 PUSH1 0xA0 SHL SUB AND PUSH4 0x9960D742 PUSH1 0x40 MLOAD DUP2 PUSH4 0xFFFFFFFF AND PUSH1 0xE0 SHL DUP2 MSTORE PUSH1 0x4 ADD PUSH1 0x20 PUSH1 0x40 MLOAD DUP1 DUP4 SUB DUP2 DUP7 GAS STATICCALL ISZERO DUP1 ISZERO PUSH2 0x22E6 JUMPI RETURNDATASIZE PUSH0 DUP1 RETURNDATACOPY RETURNDATASIZE PUSH0 REVERT JUMPDEST POP POP POP POP PUSH1 0x40 MLOAD RETURNDATASIZE PUSH1 0x1F NOT PUSH1 0x1F DUP3 ADD AND DUP3 ADD DUP1 PUSH1 0x40 MSTORE POP DUP2 ADD SWAP1 PUSH2 0x230A SWAP2 SWAP1 PUSH2 0x33B5 JUMP JUMPDEST PUSH1 0xF SLOAD PUSH1 0x40 MLOAD PUSH4 0x431A08B PUSH1 0xE4 SHL DUP2 MSTORE PUSH1 0x1 PUSH1 0x1 PUSH1 0xA0 SHL SUB SWAP2 DUP3 AND PUSH1 0x4 DUP3 ADD MSTORE PUSH1 0x24 DUP2 ADD DUP9 SWAP1 MSTORE DUP6 DUP3 AND PUSH1 0x44 DUP3 ADD MSTORE SWAP2 SWAP3 POP DUP3 AND SWAP1 PUSH4 0x431A08B0 SWAP1 PUSH1 0x64 ADD PUSH0 PUSH1 0x40 MLOAD DUP1 DUP4 SUB DUP2 PUSH0 DUP8 DUP1 EXTCODESIZE ISZERO DUP1 ISZERO PUSH2 0x235F JUMPI PUSH0 DUP1 REVERT JUMPDEST POP GAS CALL ISZERO DUP1 ISZERO PUSH2 0x2371 JUMPI RETURNDATASIZE PUSH0 DUP1 RETURNDATACOPY RETURNDATASIZE PUSH0 REVERT JUMPDEST POP POP PUSH1 0xF SLOAD PUSH1 0x40 MLOAD PUSH4 0x70A08231 PUSH1 0xE0 SHL DUP2 MSTORE PUSH1 0x1 PUSH1 0x1 PUSH1 0xA0 SHL SUB DUP8 DUP2 AND PUSH1 0x4 DUP4 ADD MSTORE PUSH0 SWAP5 POP SWAP1 SWAP2 AND SWAP2 POP PUSH4 0x70A08231 SWAP1 PUSH1 0x24 ADD PUSH1 0x20 PUSH1 0x40 MLOAD DUP1 DUP4 SUB DUP2 DUP7 GAS STATICCALL ISZERO DUP1 ISZERO PUSH2 0x23BF JUMPI RETURNDATASIZE PUSH0 DUP1 RETURNDATACOPY RETURNDATASIZE PUSH0 REVERT JUMPDEST POP POP POP POP PUSH1 0x40 MLOAD RETURNDATASIZE PUSH1 0x1F NOT PUSH1 0x1F DUP3 ADD AND DUP3 ADD DUP1 PUSH1 0x40 MSTORE POP DUP2 ADD SWAP1 PUSH2 0x23E3 SWAP2 SWAP1 PUSH2 0x35D2 JUMP JUMPDEST SWAP1 POP PUSH0 PUSH2 0x23F0 DUP3 DUP6 PUSH2 0x298B JUMP JUMPDEST SWAP8 SWAP7 POP POP POP POP POP POP POP JUMP JUMPDEST PUSH0 PUSH2 0x1306 DUP3 DUP5 PUSH2 0x35E9 JUMP JUMPDEST PUSH0 DUP1 PUSH1 0x1 JUMPDEST PUSH1 0x1 SLOAD DUP2 LT ISZERO PUSH2 0x2473 JUMPI PUSH0 DUP2 DUP2 MSTORE PUSH1 0x2 PUSH1 0x20 DUP2 SWAP1 MSTORE PUSH1 0x40 SWAP1 SWAP2 KECCAK256 SWAP1 DUP2 ADD SLOAD SWAP1 SLOAD PUSH1 0x1 PUSH1 0x1 PUSH1 0xA0 SHL SUB AND DUP6 DUP3 GT PUSH2 0x245E JUMPI PUSH0 PUSH2 0x2446 DUP9 DUP4 PUSH2 0x15FE JUMP JUMPDEST SWAP1 POP DUP1 ISZERO PUSH2 0x245C JUMPI PUSH2 0x2459 PUSH1 0x1 DUP7 PUSH2 0x35E9 JUMP JUMPDEST SWAP5 POP JUMPDEST POP JUMPDEST POP POP DUP1 DUP1 PUSH2 0x246B SWAP1 PUSH2 0x3460 JUMP JUMPDEST SWAP2 POP POP PUSH2 0x240B JUMP JUMPDEST POP SWAP4 SWAP3 POP POP POP JUMP JUMPDEST PUSH1 0xF SLOAD PUSH1 0x40 MLOAD PUSH4 0x70A08231 PUSH1 0xE0 SHL DUP2 MSTORE ADDRESS PUSH1 0x4 DUP3 ADD MSTORE PUSH0 SWAP2 DUP3 SWAP2 PUSH1 0x1 PUSH1 0x1 PUSH1 0xA0 SHL SUB SWAP1 SWAP2 AND SWAP1 PUSH4 0x70A08231 SWAP1 PUSH1 0x24 ADD PUSH1 0x20 PUSH1 0x40 MLOAD DUP1 DUP4 SUB DUP2 DUP7 GAS STATICCALL ISZERO DUP1 ISZERO PUSH2 0x24C5 JUMPI RETURNDATASIZE PUSH0 DUP1 RETURNDATACOPY RETURNDATASIZE PUSH0 REVERT JUMPDEST POP POP POP POP PUSH1 0x40 MLOAD RETURNDATASIZE PUSH1 0x1F NOT PUSH1 0x1F DUP3 ADD AND DUP3 ADD DUP1 PUSH1 0x40 MSTORE POP DUP2 ADD SWAP1 PUSH2 0x24E9 SWAP2 SWAP1 PUSH2 0x35D2 JUMP JUMPDEST PUSH1 0xF SLOAD SWAP1 SWAP2 POP PUSH2 0x2504 SWAP1 PUSH1 0x1 PUSH1 0x1 PUSH1 0xA0 SHL SUB AND CALLER ADDRESS DUP7 PUSH2 0x29D1 JUMP JUMPDEST PUSH1 0xF SLOAD PUSH1 0x40 MLOAD PUSH4 0x70A08231 PUSH1 0xE0 SHL DUP2 MSTORE ADDRESS PUSH1 0x4 DUP3 ADD MSTORE PUSH0 SWAP2 PUSH1 0x1 PUSH1 0x1 PUSH1 0xA0 SHL SUB AND SWAP1 PUSH4 0x70A08231 SWAP1 PUSH1 0x24 ADD PUSH1 0x20 PUSH1 0x40 MLOAD DUP1 DUP4 SUB DUP2 DUP7 GAS STATICCALL ISZERO DUP1 ISZERO PUSH2 0x254A JUMPI RETURNDATASIZE PUSH0 DUP1 RETURNDATACOPY RETURNDATASIZE PUSH0 REVERT JUMPDEST POP POP POP POP PUSH1 0x40 MLOAD RETURNDATASIZE PUSH1 0x1F NOT PUSH1 0x1F DUP3 ADD AND DUP3 ADD DUP1 PUSH1 0x40 MSTORE POP DUP2 ADD SWAP1 PUSH2 0x256E SWAP2 SWAP1 PUSH2 0x35D2 JUMP JUMPDEST SWAP1 POP PUSH0 PUSH2 0x257B DUP3 DUP5 PUSH2 0x298B JUMP JUMPDEST SWAP6 SWAP5 POP POP POP POP POP JUMP JUMPDEST DUP1 ISZERO PUSH2 0x25EA JUMPI PUSH1 0x1 PUSH1 0x1 PUSH1 0xA0 SHL SUB DUP4 AND PUSH0 SWAP1 DUP2 MSTORE PUSH1 0x3 PUSH1 0x20 MSTORE PUSH1 0x40 DUP2 KECCAK256 SLOAD SWAP1 DUP2 DUP2 SUB PUSH2 0x25B7 JUMPI PUSH2 0x25B3 DUP6 PUSH2 0x2A3C JUMP JUMPDEST POP PUSH1 0x1 JUMPDEST DUP1 ISZERO PUSH2 0x25D8 JUMPI PUSH1 0x1 PUSH1 0x1 PUSH1 0xA0 SHL SUB DUP6 AND PUSH0 SWAP1 DUP2 MSTORE PUSH1 0x3 PUSH1 0x20 MSTORE PUSH1 0x40 SWAP1 KECCAK256 SLOAD SWAP2 POP JUMPDEST PUSH2 0x25E3 DUP3 DUP6 DUP6 PUSH2 0x2AA1 JUMP JUMPDEST POP POP POP POP POP JUMP JUMPDEST DUP1 ISZERO ISZERO PUSH0 SUB PUSH2 0x265E JUMPI PUSH1 0x1 PUSH1 0x1 PUSH1 0xA0 SHL SUB DUP4 AND PUSH0 SWAP1 DUP2 MSTORE PUSH1 0x3 PUSH1 0x20 MSTORE PUSH1 0x40 DUP2 KECCAK256 SLOAD SWAP1 DUP2 SWAP1 SUB PUSH2 0x2651 JUMPI PUSH1 0x40 MLOAD PUSH3 0x461BCD PUSH1 0xE5 SHL DUP2 MSTORE PUSH1 0x20 PUSH1 0x4 DUP3 ADD MSTORE PUSH1 0x13 PUSH1 0x24 DUP3 ADD MSTORE PUSH19 0x155CD95C881B9BDD081C9959DA5CDD195C9959 PUSH1 0x6A SHL PUSH1 0x44 DUP3 ADD MSTORE PUSH1 0x64 ADD PUSH2 0x7D3 JUMP JUMPDEST PUSH2 0x265C DUP2 DUP5 DUP5 PUSH2 0x2AA1 JUMP JUMPDEST POP JUMPDEST POP POP POP JUMP JUMPDEST PUSH0 DUP1 SLOAD PUSH1 0x40 DUP1 MLOAD PUSH4 0x4CB06BA1 PUSH1 0xE1 SHL DUP2 MSTORE SWAP1 MLOAD DUP4 SWAP3 PUSH1 0x1 PUSH1 0x1 PUSH1 0xA0 SHL SUB AND SWAP2 PUSH4 0x9960D742 SWAP2 PUSH1 0x4 DUP1 DUP4 ADD SWAP3 PUSH1 0x20 SWAP3 SWAP2 SWAP1 DUP3 SWAP1 SUB ADD DUP2 DUP7 GAS STATICCALL ISZERO DUP1 ISZERO PUSH2 0x26AA JUMPI RETURNDATASIZE PUSH0 DUP1 RETURNDATACOPY RETURNDATASIZE PUSH0 REVERT JUMPDEST POP POP POP POP PUSH1 0x40 MLOAD RETURNDATASIZE PUSH1 0x1F NOT PUSH1 0x1F DUP3 ADD AND DUP3 ADD DUP1 PUSH1 0x40 MSTORE POP DUP2 ADD SWAP1 PUSH2 0x26CE SWAP2 SWAP1 PUSH2 0x33B5 JUMP JUMPDEST PUSH1 0xF SLOAD PUSH1 0x40 MLOAD PUSH4 0x70A08231 PUSH1 0xE0 SHL DUP2 MSTORE PUSH1 0x1 PUSH1 0x1 PUSH1 0xA0 SHL SUB DUP1 DUP5 AND PUSH1 0x4 DUP4 ADD MSTORE SWAP3 SWAP4 POP PUSH0 SWAP3 SWAP1 SWAP2 AND SWAP1 PUSH4 0x70A08231 SWAP1 PUSH1 0x24 ADD PUSH1 0x20 PUSH1 0x40 MLOAD DUP1 DUP4 SUB DUP2 DUP7 GAS STATICCALL ISZERO DUP1 ISZERO PUSH2 0x271B JUMPI RETURNDATASIZE PUSH0 DUP1 RETURNDATACOPY RETURNDATASIZE PUSH0 REVERT JUMPDEST POP POP POP POP PUSH1 0x40 MLOAD RETURNDATASIZE PUSH1 0x1F NOT PUSH1 0x1F DUP3 ADD AND DUP3 ADD DUP1 PUSH1 0x40 MSTORE POP DUP2 ADD SWAP1 PUSH2 0x273F SWAP2 SWAP1 PUSH2 0x35D2 JUMP JUMPDEST PUSH1 0xF SLOAD SWAP1 SWAP2 POP PUSH2 0x2759 SWAP1 PUSH1 0x1 PUSH1 0x1 PUSH1 0xA0 SHL SUB AND DUP4 DUP7 PUSH2 0x2D0A JUMP JUMPDEST PUSH1 0xF SLOAD PUSH1 0x40 MLOAD PUSH4 0x70A08231 PUSH1 0xE0 SHL DUP2 MSTORE PUSH1 0x1 PUSH1 0x1 PUSH1 0xA0 SHL SUB DUP5 DUP2 AND PUSH1 0x4 DUP4 ADD MSTORE PUSH0 SWAP3 AND SWAP1 PUSH4 0x70A08231 SWAP1 PUSH1 0x24 ADD PUSH1 0x20 PUSH1 0x40 MLOAD DUP1 DUP4 SUB DUP2 DUP7 GAS STATICCALL ISZERO DUP1 ISZERO PUSH2 0x27A1 JUMPI RETURNDATASIZE PUSH0 DUP1 RETURNDATACOPY RETURNDATASIZE PUSH0 REVERT JUMPDEST POP POP POP POP PUSH1 0x40 MLOAD RETURNDATASIZE PUSH1 0x1F NOT PUSH1 0x1F DUP3 ADD AND DUP3 ADD DUP1 PUSH1 0x40 MSTORE POP DUP2 ADD SWAP1 PUSH2 0x27C5 SWAP2 SWAP1 PUSH2 0x35D2 JUMP JUMPDEST SWAP1 POP PUSH0 PUSH2 0x27D2 DUP3 DUP5 PUSH2 0x298B JUMP JUMPDEST SWAP7 SWAP6 POP POP POP POP POP POP JUMP JUMPDEST PUSH0 PUSH2 0x1306 DUP3 DUP5 PUSH2 0x35FC JUMP JUMPDEST PUSH0 PUSH2 0x1306 DUP3 DUP5 PUSH2 0x3613 JUMP JUMPDEST DUP2 MLOAD PUSH0 JUMPDEST DUP2 DUP2 LT ISZERO PUSH2 0x25E3 JUMPI DUP3 DUP2 DUP2 MLOAD DUP2 LT PUSH2 0x2810 JUMPI PUSH2 0x2810 PUSH2 0x33A1 JUMP JUMPDEST PUSH1 0x20 MUL PUSH1 0x20 ADD ADD MLOAD PUSH1 0x6 PUSH0 DUP7 DUP5 DUP2 MLOAD DUP2 LT PUSH2 0x282D JUMPI PUSH2 0x282D PUSH2 0x33A1 JUMP JUMPDEST PUSH1 0x20 MUL PUSH1 0x20 ADD ADD MLOAD PUSH1 0x1 PUSH1 0x1 PUSH1 0xA0 SHL SUB AND PUSH1 0x1 PUSH1 0x1 PUSH1 0xA0 SHL SUB AND DUP2 MSTORE PUSH1 0x20 ADD SWAP1 DUP2 MSTORE PUSH1 0x20 ADD PUSH0 KECCAK256 PUSH0 ADD PUSH0 DUP3 DUP3 SLOAD PUSH2 0x2864 SWAP2 SWAP1 PUSH2 0x35E9 JUMP JUMPDEST SWAP3 POP POP DUP2 SWAP1 SSTORE POP PUSH1 0x6 PUSH0 DUP6 DUP4 DUP2 MLOAD DUP2 LT PUSH2 0x2880 JUMPI PUSH2 0x2880 PUSH2 0x33A1 JUMP JUMPDEST PUSH1 0x20 MUL PUSH1 0x20 ADD ADD MLOAD PUSH1 0x1 PUSH1 0x1 PUSH1 0xA0 SHL SUB AND PUSH1 0x1 PUSH1 0x1 PUSH1 0xA0 SHL SUB AND DUP2 MSTORE PUSH1 0x20 ADD SWAP1 DUP2 MSTORE PUSH1 0x20 ADD PUSH0 KECCAK256 PUSH1 0x1 ADD PUSH1 0x40 MLOAD DUP1 PUSH1 0x60 ADD PUSH1 0x40 MSTORE DUP1 DUP8 DUP2 MSTORE PUSH1 0x20 ADD PUSH2 0x28CF PUSH1 0x1 DUP6 PUSH2 0x23FB SWAP1 SWAP2 SWAP1 PUSH4 0xFFFFFFFF AND JUMP JUMPDEST DUP2 MSTORE PUSH1 0x20 ADD DUP6 DUP5 DUP2 MLOAD DUP2 LT PUSH2 0x28E6 JUMPI PUSH2 0x28E6 PUSH2 0x33A1 JUMP JUMPDEST PUSH1 0x20 SWAP1 DUP2 MUL SWAP2 SWAP1 SWAP2 ADD DUP2 ADD MLOAD SWAP1 SWAP2 MSTORE DUP3 SLOAD PUSH1 0x1 DUP2 DUP2 ADD DUP6 SSTORE PUSH0 SWAP5 DUP6 MSTORE DUP3 DUP6 KECCAK256 DUP5 MLOAD PUSH1 0x3 SWAP1 SWAP4 MUL ADD SWAP2 DUP3 SSTORE SWAP2 DUP4 ADD MLOAD SWAP2 DUP2 ADD SWAP2 SWAP1 SWAP2 SSTORE PUSH1 0x40 SWAP1 SWAP2 ADD MLOAD PUSH1 0x2 SWAP1 SWAP2 ADD SSTORE DUP5 MLOAD PUSH1 0x6 SWAP2 SWAP1 DUP7 SWAP1 DUP5 SWAP1 DUP2 LT PUSH2 0x293F JUMPI PUSH2 0x293F PUSH2 0x33A1 JUMP JUMPDEST PUSH1 0x20 SWAP1 DUP2 MUL SWAP2 SWAP1 SWAP2 ADD DUP2 ADD MLOAD PUSH1 0x1 PUSH1 0x1 PUSH1 0xA0 SHL SUB AND DUP3 MSTORE DUP2 DUP2 ADD SWAP3 SWAP1 SWAP3 MSTORE PUSH1 0x40 ADD PUSH0 SWAP1 DUP2 KECCAK256 PUSH1 0x2 ADD DUP1 SLOAD PUSH1 0x1 DUP2 ADD DUP3 SSTORE SWAP1 DUP3 MSTORE SWAP2 SWAP1 KECCAK256 ADD DUP6 SWAP1 SSTORE DUP1 PUSH2 0x2983 DUP2 PUSH2 0x3460 JUMP JUMPDEST SWAP2 POP POP PUSH2 0x27F6 JUMP JUMPDEST PUSH0 PUSH2 0x1306 DUP3 DUP5 PUSH2 0x35BF JUMP JUMPDEST PUSH0 DUP1 SLOAD PUSH1 0x1 PUSH1 0x1 PUSH1 0xA0 SHL SUB NOT AND PUSH1 0x1 PUSH1 0x1 PUSH1 0xA0 SHL SUB SWAP3 SWAP1 SWAP3 AND SWAP2 SWAP1 SWAP2 OR SWAP1 SSTORE JUMP JUMPDEST PUSH1 0xF SLOAD PUSH2 0x29CE SWAP1 PUSH1 0x1 PUSH1 0x1 PUSH1 0xA0 SHL SUB AND CALLER DUP4 PUSH2 0x2D0A JUMP JUMPDEST POP JUMP JUMPDEST PUSH1 0x40 MLOAD PUSH1 0x1 PUSH1 0x1 PUSH1 0xA0 SHL SUB DUP1 DUP6 AND PUSH1 0x24 DUP4 ADD MSTORE DUP4 AND PUSH1 0x44 DUP3 ADD MSTORE PUSH1 0x64 DUP2 ADD DUP3 SWAP1 MSTORE PUSH2 0x265C SWAP1 DUP6 SWAP1 PUSH4 0x23B872DD PUSH1 0xE0 SHL SWAP1 PUSH1 0x84 ADD JUMPDEST PUSH1 0x40 DUP1 MLOAD PUSH1 0x1F NOT DUP2 DUP5 SUB ADD DUP2 MSTORE SWAP2 SWAP1 MSTORE PUSH1 0x20 DUP2 ADD DUP1 MLOAD PUSH1 0x1 PUSH1 0x1 PUSH1 0xE0 SHL SUB AND PUSH1 0x1 PUSH1 0x1 PUSH1 0xE0 SHL SUB NOT SWAP1 SWAP4 AND SWAP3 SWAP1 SWAP3 OR SWAP1 SWAP2 MSTORE PUSH2 0x2D3A JUMP JUMPDEST PUSH1 0x1 DUP1 PUSH0 DUP3 DUP3 SLOAD PUSH2 0x2A4D SWAP2 SWAP1 PUSH2 0x35E9 JUMP JUMPDEST SWAP1 SWAP2 SSTORE POP POP PUSH1 0x1 DUP1 SLOAD PUSH1 0x1 PUSH1 0x1 PUSH1 0xA0 SHL SUB SWAP3 SWAP1 SWAP3 AND PUSH0 DUP2 DUP2 MSTORE PUSH1 0x3 PUSH1 0x20 DUP2 DUP2 MSTORE PUSH1 0x40 DUP1 DUP5 KECCAK256 DUP8 SWAP1 SSTORE SWAP6 DUP4 MSTORE PUSH1 0x2 SWAP1 DUP2 SWAP1 MSTORE SWAP5 DUP3 KECCAK256 DUP1 SLOAD PUSH1 0x1 PUSH1 0x1 PUSH1 0xA0 SHL SUB NOT AND SWAP1 SWAP4 OR DUP4 SSTORE SWAP3 DUP3 ADD SSTORE TIMESTAMP SWAP3 DUP2 ADD DUP4 SWAP1 SSTORE ADD SSTORE JUMP JUMPDEST PUSH0 DUP4 DUP2 MSTORE PUSH1 0x2 PUSH1 0x20 MSTORE PUSH1 0x40 SWAP1 KECCAK256 PUSH1 0x1 ADD SLOAD DUP2 ISZERO PUSH2 0x2AFB JUMPI PUSH0 DUP5 DUP2 MSTORE PUSH1 0x2 PUSH1 0x20 MSTORE PUSH1 0x40 DUP2 KECCAK256 PUSH1 0x1 ADD DUP1 SLOAD DUP6 SWAP3 SWAP1 PUSH2 0x2AD8 SWAP1 DUP5 SWAP1 PUSH2 0x35E9 JUMP JUMPDEST SWAP3 POP POP DUP2 SWAP1 SSTORE POP DUP3 PUSH1 0x8 PUSH0 DUP3 DUP3 SLOAD PUSH2 0x2AF0 SWAP2 SWAP1 PUSH2 0x35E9 JUMP JUMPDEST SWAP1 SWAP2 SSTORE POP PUSH2 0x2B93 SWAP1 POP JUMP JUMPDEST DUP2 ISZERO ISZERO PUSH0 SUB PUSH2 0x2B93 JUMPI PUSH0 DUP5 DUP2 MSTORE PUSH1 0x2 PUSH1 0x20 MSTORE PUSH1 0x40 SWAP1 KECCAK256 PUSH1 0x1 ADD SLOAD DUP4 GT ISZERO PUSH2 0x2B55 JUMPI PUSH1 0x40 MLOAD PUSH3 0x461BCD PUSH1 0xE5 SHL DUP2 MSTORE PUSH1 0x20 PUSH1 0x4 DUP3 ADD MSTORE PUSH1 0xE PUSH1 0x24 DUP3 ADD MSTORE PUSH14 0x125B9D985B1A5908185B5BDD5B9D PUSH1 0x92 SHL PUSH1 0x44 DUP3 ADD MSTORE PUSH1 0x64 ADD PUSH2 0x7D3 JUMP JUMPDEST PUSH0 DUP5 DUP2 MSTORE PUSH1 0x2 PUSH1 0x20 MSTORE PUSH1 0x40 DUP2 KECCAK256 PUSH1 0x1 ADD DUP1 SLOAD DUP6 SWAP3 SWAP1 PUSH2 0x2B75 SWAP1 DUP5 SWAP1 PUSH2 0x35BF JUMP JUMPDEST SWAP3 POP POP DUP2 SWAP1 SSTORE POP DUP3 PUSH1 0x8 PUSH0 DUP3 DUP3 SLOAD PUSH2 0x2B8D SWAP2 SWAP1 PUSH2 0x35BF JUMP JUMPDEST SWAP1 SWAP2 SSTORE POP POP JUMPDEST PUSH0 DUP5 DUP2 MSTORE PUSH1 0x2 PUSH1 0x20 MSTORE PUSH1 0x40 DUP2 KECCAK256 PUSH1 0x3 DUP2 ADD DUP1 SLOAD TIMESTAMP SWAP1 SWAP2 SSTORE PUSH1 0x1 SWAP1 SWAP2 ADD SLOAD SWAP1 SWAP2 PUSH2 0x2BBA PUSH2 0x12CE JUMP JUMPDEST SWAP1 POP PUSH0 PUSH1 0xD DUP3 DUP2 SLOAD DUP2 LT PUSH2 0x2BD0 JUMPI PUSH2 0x2BD0 PUSH2 0x33A1 JUMP JUMPDEST SWAP1 PUSH0 MSTORE PUSH1 0x20 PUSH0 KECCAK256 SWAP1 PUSH1 0xE MUL ADD SWAP1 POP PUSH0 PUSH2 0x2BFA DUP3 PUSH1 0xB ADD SLOAD DUP4 PUSH1 0xC ADD SLOAD PUSH2 0x23FB SWAP1 SWAP2 SWAP1 PUSH4 0xFFFFFFFF AND JUMP JUMPDEST SWAP1 POP DUP1 TIMESTAMP GT ISZERO PUSH2 0x2C88 JUMPI PUSH1 0x40 MLOAD PUSH3 0x461BCD PUSH1 0xE5 SHL DUP2 MSTORE PUSH1 0x20 PUSH1 0x4 DUP3 ADD MSTORE PUSH1 0x4D PUSH1 0x24 DUP3 ADD MSTORE PUSH32 0x436F6E747261637420697320696E207468652070726F63657373206F66207570 PUSH1 0x44 DUP3 ADD MSTORE PUSH32 0x646174696E672E20506C65617365207761697420666F722061207768696C6520 PUSH1 0x64 DUP3 ADD MSTORE PUSH13 0x30B732103A393C9030B3B0B4B7 PUSH1 0x99 SHL PUSH1 0x84 DUP3 ADD MSTORE PUSH1 0xA4 ADD PUSH2 0x7D3 JUMP JUMPDEST PUSH0 DUP4 DUP2 MSTORE PUSH1 0x5 PUSH1 0x20 SWAP1 DUP2 MSTORE PUSH1 0x40 DUP1 DUP4 KECCAK256 DUP13 DUP5 MSTORE DUP3 MSTORE DUP1 DUP4 KECCAK256 DUP1 SLOAD PUSH1 0xFF NOT AND PUSH1 0x1 SWAP1 DUP2 OR DUP3 SSTORE DUP3 MLOAD PUSH1 0x60 DUP2 ADD DUP5 MSTORE DUP12 DUP2 MSTORE DUP1 DUP6 ADD DUP11 DUP2 MSTORE TIMESTAMP SWAP5 DUP3 ADD SWAP5 DUP6 MSTORE SWAP3 DUP3 ADD DUP1 SLOAD DUP1 DUP5 ADD DUP3 SSTORE SWAP1 DUP8 MSTORE SWAP5 SWAP1 SWAP6 KECCAK256 SWAP5 MLOAD PUSH1 0x3 SWAP1 SWAP5 MUL SWAP1 SWAP5 ADD SWAP3 DUP4 SSTORE MLOAD SWAP3 DUP3 ADD SWAP3 SWAP1 SWAP3 SSTORE SWAP1 MLOAD PUSH1 0x2 SWAP1 SWAP2 ADD SSTORE PUSH2 0x2CFF DUP10 DUP8 DUP8 DUP7 PUSH2 0x2E0D JUMP JUMPDEST POP POP POP POP POP POP POP POP POP JUMP JUMPDEST PUSH1 0x40 MLOAD PUSH1 0x1 PUSH1 0x1 PUSH1 0xA0 SHL SUB DUP4 AND PUSH1 0x24 DUP3 ADD MSTORE PUSH1 0x44 DUP2 ADD DUP3 SWAP1 MSTORE PUSH2 0x265E SWAP1 DUP5 SWAP1 PUSH4 0xA9059CBB PUSH1 0xE0 SHL SWAP1 PUSH1 0x64 ADD PUSH2 0x2A05 JUMP JUMPDEST PUSH0 PUSH2 0x2D8E DUP3 PUSH1 0x40 MLOAD DUP1 PUSH1 0x40 ADD PUSH1 0x40 MSTORE DUP1 PUSH1 0x20 DUP2 MSTORE PUSH1 0x20 ADD PUSH32 0x5361666545524332303A206C6F772D6C6576656C2063616C6C206661696C6564 DUP2 MSTORE POP DUP6 PUSH1 0x1 PUSH1 0x1 PUSH1 0xA0 SHL SUB AND PUSH2 0x2FA2 SWAP1 SWAP3 SWAP2 SWAP1 PUSH4 0xFFFFFFFF AND JUMP JUMPDEST SWAP1 POP DUP1 MLOAD PUSH0 EQ DUP1 PUSH2 0x2DAE JUMPI POP DUP1 DUP1 PUSH1 0x20 ADD SWAP1 MLOAD DUP2 ADD SWAP1 PUSH2 0x2DAE SWAP2 SWAP1 PUSH2 0x3632 JUMP JUMPDEST PUSH2 0x265E JUMPI PUSH1 0x40 MLOAD PUSH3 0x461BCD PUSH1 0xE5 SHL DUP2 MSTORE PUSH1 0x20 PUSH1 0x4 DUP3 ADD MSTORE PUSH1 0x2A PUSH1 0x24 DUP3 ADD MSTORE PUSH32 0x5361666545524332303A204552433230206F7065726174696F6E20646964206E PUSH1 0x44 DUP3 ADD MSTORE PUSH10 0x1BDD081CDD58D8D95959 PUSH1 0xB2 SHL PUSH1 0x64 DUP3 ADD MSTORE PUSH1 0x84 ADD PUSH2 0x7D3 JUMP JUMPDEST PUSH0 PUSH1 0xD DUP3 DUP2 SLOAD DUP2 LT PUSH2 0x2E21 JUMPI PUSH2 0x2E21 PUSH2 0x33A1 JUMP JUMPDEST PUSH0 SWAP2 DUP3 MSTORE PUSH1 0x20 DUP1 DUP4 KECCAK256 PUSH1 0x40 DUP1 MLOAD PUSH2 0x160 DUP2 ADD DUP3 MSTORE PUSH1 0xE SWAP1 SWAP5 MUL SWAP1 SWAP2 ADD DUP1 SLOAD PUSH1 0x1 PUSH1 0x1 PUSH1 0xA0 SHL SUB SWAP1 DUP2 AND PUSH2 0x100 DUP7 ADD SWAP1 DUP2 MSTORE PUSH1 0x1 DUP4 ADD SLOAD PUSH2 0x120 DUP8 ADD MSTORE PUSH1 0x2 DUP4 ADD SLOAD PUSH1 0xFF SWAP1 DUP2 AND ISZERO ISZERO PUSH2 0x140 DUP9 ADD MSTORE SWAP1 DUP7 MSTORE DUP4 MLOAD PUSH1 0x60 DUP2 DUP2 ADD DUP7 MSTORE PUSH1 0x3 DUP6 ADD SLOAD DUP5 AND DUP3 MSTORE PUSH1 0x4 DUP6 ADD SLOAD DUP3 DUP9 ADD MSTORE PUSH1 0x5 DUP6 ADD SLOAD DUP4 AND ISZERO ISZERO DUP3 DUP8 ADD MSTORE DUP8 DUP8 ADD SWAP2 SWAP1 SWAP2 MSTORE DUP5 MLOAD DUP1 DUP3 ADD DUP7 MSTORE PUSH1 0x6 DUP6 ADD SLOAD SWAP1 SWAP4 AND DUP4 MSTORE PUSH1 0x7 DUP5 ADD SLOAD SWAP6 DUP4 ADD SWAP6 SWAP1 SWAP6 MSTORE PUSH1 0x8 DUP4 ADD SLOAD DUP2 AND ISZERO ISZERO DUP3 DUP6 ADD MSTORE SWAP3 DUP6 ADD MSTORE PUSH1 0x9 DUP2 ADD SLOAD SWAP1 SWAP2 AND ISZERO ISZERO SWAP2 DUP4 ADD SWAP2 SWAP1 SWAP2 MSTORE PUSH1 0xA DUP2 ADD SLOAD PUSH1 0x80 DUP4 ADD MSTORE PUSH1 0xB DUP2 ADD SLOAD PUSH1 0xA0 DUP4 ADD DUP2 SWAP1 MSTORE PUSH1 0xC DUP3 ADD SLOAD PUSH1 0xC0 DUP5 ADD DUP2 SWAP1 MSTORE PUSH1 0xD SWAP1 SWAP3 ADD SLOAD PUSH1 0xE0 DUP5 ADD MSTORE SWAP2 SWAP4 POP SWAP2 SWAP1 PUSH2 0x2F1C SWAP1 DUP4 PUSH2 0x23FB JUMP JUMPDEST SWAP1 POP PUSH0 DUP3 DUP7 LT ISZERO PUSH2 0x2F38 JUMPI PUSH2 0x2F31 TIMESTAMP DUP5 PUSH2 0x298B JUMP JUMPDEST SWAP1 POP PUSH2 0x2F5A JUMP JUMPDEST DUP3 DUP7 LT ISZERO DUP1 ISZERO PUSH2 0x2F48 JUMPI POP DUP2 DUP7 GT ISZERO JUMPDEST ISZERO PUSH2 0x2F5A JUMPI PUSH2 0x2F57 TIMESTAMP DUP8 PUSH2 0x298B JUMP JUMPDEST SWAP1 POP JUMPDEST PUSH0 PUSH2 0x2F65 DUP3 DUP10 PUSH2 0x27DC JUMP JUMPDEST PUSH0 DUP8 DUP2 MSTORE PUSH1 0x4 PUSH1 0x20 SWAP1 DUP2 MSTORE PUSH1 0x40 DUP1 DUP4 KECCAK256 DUP14 DUP5 MSTORE SWAP1 SWAP2 MSTORE DUP2 KECCAK256 DUP1 SLOAD SWAP3 SWAP4 POP DUP4 SWAP3 SWAP1 SWAP2 SWAP1 PUSH2 0x2F92 SWAP1 DUP5 SWAP1 PUSH2 0x35E9 JUMP JUMPDEST SWAP1 SWAP2 SSTORE POP POP POP POP POP POP POP POP POP POP POP JUMP JUMPDEST PUSH1 0x60 PUSH2 0x2FB0 DUP5 DUP5 PUSH0 DUP6 PUSH2 0x2FB8 JUMP JUMPDEST SWAP5 SWAP4 POP POP POP POP JUMP JUMPDEST PUSH1 0x60 DUP3 SELFBALANCE LT ISZERO PUSH2 0x3019 JUMPI PUSH1 0x40 MLOAD PUSH3 0x461BCD PUSH1 0xE5 SHL DUP2 MSTORE PUSH1 0x20 PUSH1 0x4 DUP3 ADD MSTORE PUSH1 0x26 PUSH1 0x24 DUP3 ADD MSTORE PUSH32 0x416464726573733A20696E73756666696369656E742062616C616E636520666F PUSH1 0x44 DUP3 ADD MSTORE PUSH6 0x1C8818D85B1B PUSH1 0xD2 SHL PUSH1 0x64 DUP3 ADD MSTORE PUSH1 0x84 ADD PUSH2 0x7D3 JUMP JUMPDEST PUSH0 DUP1 DUP7 PUSH1 0x1 PUSH1 0x1 PUSH1 0xA0 SHL SUB AND DUP6 DUP8 PUSH1 0x40 MLOAD PUSH2 0x3034 SWAP2 SWAP1 PUSH2 0x3673 JUMP JUMPDEST PUSH0 PUSH1 0x40 MLOAD DUP1 DUP4 SUB DUP2 DUP6 DUP8 GAS CALL SWAP3 POP POP POP RETURNDATASIZE DUP1 PUSH0 DUP2 EQ PUSH2 0x306E JUMPI PUSH1 0x40 MLOAD SWAP2 POP PUSH1 0x1F NOT PUSH1 0x3F RETURNDATASIZE ADD AND DUP3 ADD PUSH1 0x40 MSTORE RETURNDATASIZE DUP3 MSTORE RETURNDATASIZE PUSH0 PUSH1 0x20 DUP5 ADD RETURNDATACOPY PUSH2 0x3073 JUMP JUMPDEST PUSH1 0x60 SWAP2 POP JUMPDEST POP SWAP2 POP SWAP2 POP PUSH2 0x23F0 DUP8 DUP4 DUP4 DUP8 PUSH1 0x60 DUP4 ISZERO PUSH2 0x30ED JUMPI DUP3 MLOAD PUSH0 SUB PUSH2 0x30E6 JUMPI PUSH1 0x1 PUSH1 0x1 PUSH1 0xA0 SHL SUB DUP6 AND EXTCODESIZE PUSH2 0x30E6 JUMPI PUSH1 0x40 MLOAD PUSH3 0x461BCD PUSH1 0xE5 SHL DUP2 MSTORE PUSH1 0x20 PUSH1 0x4 DUP3 ADD MSTORE PUSH1 0x1D PUSH1 0x24 DUP3 ADD MSTORE PUSH32 0x416464726573733A2063616C6C20746F206E6F6E2D636F6E7472616374000000 PUSH1 0x44 DUP3 ADD MSTORE PUSH1 0x64 ADD PUSH2 0x7D3 JUMP JUMPDEST POP DUP2 PUSH2 0x2FB0 JUMP JUMPDEST PUSH2 0x2FB0 DUP4 DUP4 DUP2 MLOAD ISZERO PUSH2 0x3102 JUMPI DUP2 MLOAD DUP1 DUP4 PUSH1 0x20 ADD REVERT JUMPDEST DUP1 PUSH1 0x40 MLOAD PUSH3 0x461BCD PUSH1 0xE5 SHL DUP2 MSTORE PUSH1 0x4 ADD PUSH2 0x7D3 SWAP2 SWAP1 PUSH2 0x368E JUMP JUMPDEST POP DUP1 SLOAD PUSH0 DUP3 SSTORE SWAP1 PUSH0 MSTORE PUSH1 0x20 PUSH0 KECCAK256 SWAP1 DUP2 ADD SWAP1 PUSH2 0x29CE SWAP2 SWAP1 JUMPDEST DUP1 DUP3 GT ISZERO PUSH2 0x3146 JUMPI PUSH0 DUP2 SSTORE PUSH1 0x1 ADD PUSH2 0x3133 JUMP JUMPDEST POP SWAP1 JUMP JUMPDEST DUP2 MLOAD DUP2 MSTORE PUSH1 0x20 DUP1 DUP4 ADD MLOAD SWAP1 DUP3 ADD MSTORE PUSH1 0x40 DUP1 DUP4 ADD MLOAD SWAP1 DUP3 ADD MSTORE PUSH1 0x60 DUP2 ADD PUSH2 0x1A71 JUMP JUMPDEST PUSH1 0x1 PUSH1 0x1 PUSH1 0xA0 SHL SUB DUP2 AND DUP2 EQ PUSH2 0x29CE JUMPI PUSH0 DUP1 REVERT JUMPDEST PUSH0 PUSH1 0x20 DUP3 DUP5 SUB SLT ISZERO PUSH2 0x318F JUMPI PUSH0 DUP1 REVERT JUMPDEST DUP2 CALLDATALOAD PUSH2 0x1306 DUP2 PUSH2 0x316B JUMP JUMPDEST PUSH0 PUSH1 0x20 DUP3 DUP5 SUB SLT ISZERO PUSH2 0x31AA JUMPI PUSH0 DUP1 REVERT JUMPDEST POP CALLDATALOAD SWAP2 SWAP1 POP JUMP JUMPDEST PUSH1 0x20 DUP1 DUP3 MSTORE DUP3 MLOAD DUP3 DUP3 ADD DUP2 SWAP1 MSTORE PUSH0 SWAP2 SWAP1 DUP5 DUP3 ADD SWAP1 PUSH1 0x40 DUP6 ADD SWAP1 DUP5 JUMPDEST DUP2 DUP2 LT ISZERO PUSH2 0x3206 JUMPI PUSH2 0x31F3 DUP4 DUP6 MLOAD DUP1 MLOAD DUP3 MSTORE PUSH1 0x20 DUP1 DUP3 ADD MLOAD SWAP1 DUP4 ADD MSTORE PUSH1 0x40 SWAP1 DUP2 ADD MLOAD SWAP2 ADD MSTORE JUMP JUMPDEST SWAP3 DUP5 ADD SWAP3 PUSH1 0x60 SWAP3 SWAP1 SWAP3 ADD SWAP2 PUSH1 0x1 ADD PUSH2 0x31CC JUMP JUMPDEST POP SWAP1 SWAP7 SWAP6 POP POP POP POP POP POP JUMP JUMPDEST PUSH0 DUP1 PUSH1 0x40 DUP4 DUP6 SUB SLT ISZERO PUSH2 0x3223 JUMPI PUSH0 DUP1 REVERT JUMPDEST DUP3 CALLDATALOAD PUSH2 0x322E DUP2 PUSH2 0x316B JUMP JUMPDEST SWAP5 PUSH1 0x20 SWAP4 SWAP1 SWAP4 ADD CALLDATALOAD SWAP4 POP POP POP JUMP JUMPDEST PUSH0 PUSH1 0x20 DUP1 DUP4 MSTORE PUSH1 0x60 DUP1 DUP5 ADD DUP6 MLOAD ISZERO ISZERO DUP4 DUP7 ADD MSTORE DUP3 DUP7 ADD MLOAD PUSH1 0x40 DUP1 DUP8 ADD MSTORE DUP2 DUP2 MLOAD DUP1 DUP5 MSTORE PUSH1 0x80 DUP9 ADD SWAP2 POP DUP6 DUP4 ADD SWAP4 POP PUSH0 SWAP3 POP JUMPDEST DUP1 DUP4 LT ISZERO PUSH2 0x32A9 JUMPI PUSH2 0x3295 DUP3 DUP6 MLOAD DUP1 MLOAD DUP3 MSTORE PUSH1 0x20 DUP1 DUP3 ADD MLOAD SWAP1 DUP4 ADD MSTORE PUSH1 0x40 SWAP1 DUP2 ADD MLOAD SWAP2 ADD MSTORE JUMP JUMPDEST SWAP3 DUP6 ADD SWAP3 PUSH1 0x1 SWAP3 SWAP1 SWAP3 ADD SWAP2 SWAP1 DUP5 ADD SWAP1 PUSH2 0x326E JUMP JUMPDEST POP SWAP8 SWAP7 POP POP POP POP POP POP POP JUMP JUMPDEST PUSH0 DUP1 PUSH0 DUP1 PUSH1 0x80 DUP6 DUP8 SUB SLT ISZERO PUSH2 0x32C8 JUMPI PUSH0 DUP1 REVERT JUMPDEST DUP5 CALLDATALOAD PUSH2 0x32D3 DUP2 PUSH2 0x316B JUMP JUMPDEST SWAP7 PUSH1 0x20 DUP7 ADD CALLDATALOAD SWAP7 POP PUSH1 0x40 DUP7 ADD CALLDATALOAD SWAP6 PUSH1 0x60 ADD CALLDATALOAD SWAP5 POP SWAP3 POP POP POP JUMP JUMPDEST PUSH0 DUP1 PUSH0 DUP1 PUSH0 PUSH1 0xA0 DUP7 DUP9 SUB SLT ISZERO PUSH2 0x3301 JUMPI PUSH0 DUP1 REVERT JUMPDEST DUP6 CALLDATALOAD SWAP5 POP PUSH1 0x20 DUP7 ADD CALLDATALOAD PUSH2 0x3313 DUP2 PUSH2 0x316B JUMP JUMPDEST SWAP4 POP PUSH1 0x40 DUP7 ADD CALLDATALOAD PUSH2 0x3323 DUP2 PUSH2 0x316B JUMP JUMPDEST SWAP3 POP PUSH1 0x60 DUP7 ADD CALLDATALOAD PUSH2 0x3333 DUP2 PUSH2 0x316B JUMP JUMPDEST SWAP5 SWAP8 SWAP4 SWAP7 POP SWAP2 SWAP5 PUSH1 0x80 ADD CALLDATALOAD SWAP3 SWAP2 POP POP JUMP JUMPDEST PUSH0 DUP1 PUSH1 0x40 DUP4 DUP6 SUB SLT ISZERO PUSH2 0x3355 JUMPI PUSH0 DUP1 REVERT JUMPDEST DUP3 CALLDATALOAD SWAP2 POP PUSH1 0x20 DUP4 ADD CALLDATALOAD PUSH2 0x3367 DUP2 PUSH2 0x316B JUMP JUMPDEST DUP1 SWAP2 POP POP SWAP3 POP SWAP3 SWAP1 POP JUMP JUMPDEST PUSH0 DUP1 PUSH0 DUP1 PUSH1 0x80 DUP6 DUP8 SUB SLT ISZERO PUSH2 0x3385 JUMPI PUSH0 DUP1 REVERT JUMPDEST POP POP DUP3 CALLDATALOAD SWAP5 PUSH1 0x20 DUP5 ADD CALLDATALOAD SWAP5 POP PUSH1 0x40 DUP5 ADD CALLDATALOAD SWAP4 PUSH1 0x60 ADD CALLDATALOAD SWAP3 POP SWAP1 POP JUMP JUMPDEST PUSH4 0x4E487B71 PUSH1 0xE0 SHL PUSH0 MSTORE PUSH1 0x32 PUSH1 0x4 MSTORE PUSH1 0x24 PUSH0 REVERT JUMPDEST PUSH0 PUSH1 0x20 DUP3 DUP5 SUB SLT ISZERO PUSH2 0x33C5 JUMPI PUSH0 DUP1 REVERT JUMPDEST DUP2 MLOAD PUSH2 0x1306 DUP2 PUSH2 0x316B JUMP JUMPDEST PUSH1 0x20 DUP1 DUP3 MSTORE PUSH1 0xE SWAP1 DUP3 ADD MSTORE PUSH14 0x24B73B30B634B21031B0B63632B9 PUSH1 0x91 SHL PUSH1 0x40 DUP3 ADD MSTORE PUSH1 0x60 ADD SWAP1 JUMP JUMPDEST PUSH1 0x20 DUP1 DUP3 MSTORE PUSH1 0xC SWAP1 DUP3 ADD MSTORE PUSH12 0x125B1B1959D85B0818D85B1B PUSH1 0xA2 SHL PUSH1 0x40 DUP3 ADD MSTORE PUSH1 0x60 ADD SWAP1 JUMP JUMPDEST PUSH1 0x20 DUP1 DUP3 MSTORE PUSH1 0x14 SWAP1 DUP3 ADD MSTORE PUSH20 0x10DBDB9D1C9858DD081B9BDD081CDD185C9D1959 PUSH1 0x62 SHL PUSH1 0x40 DUP3 ADD MSTORE PUSH1 0x60 ADD SWAP1 JUMP JUMPDEST PUSH4 0x4E487B71 PUSH1 0xE0 SHL PUSH0 MSTORE PUSH1 0x11 PUSH1 0x4 MSTORE PUSH1 0x24 PUSH0 REVERT JUMPDEST PUSH0 PUSH1 0x1 DUP3 ADD PUSH2 0x3471 JUMPI PUSH2 0x3471 PUSH2 0x344C JUMP JUMPDEST POP PUSH1 0x1 ADD SWAP1 JUMP JUMPDEST PUSH1 0x20 DUP1 DUP3 MSTORE PUSH1 0x16 SWAP1 DUP3 ADD MSTORE PUSH22 0x155CD95C881A185CDB89DD081C9959DA5CDD195C9959 PUSH1 0x52 SHL PUSH1 0x40 DUP3 ADD MSTORE PUSH1 0x60 ADD SWAP1 JUMP JUMPDEST PUSH1 0x20 DUP1 DUP3 MSTORE PUSH1 0x12 SWAP1 DUP3 ADD MSTORE PUSH18 0x155CD95C88191BD95CDB89DD08195E1A5CDD PUSH1 0x72 SHL PUSH1 0x40 DUP3 ADD MSTORE PUSH1 0x60 ADD SWAP1 JUMP JUMPDEST PUSH1 0x1 DUP2 DUP2 JUMPDEST DUP1 DUP6 GT ISZERO PUSH2 0x350E JUMPI DUP2 PUSH0 NOT DIV DUP3 GT ISZERO PUSH2 0x34F4 JUMPI PUSH2 0x34F4 PUSH2 0x344C JUMP JUMPDEST DUP1 DUP6 AND ISZERO PUSH2 0x3501 JUMPI SWAP2 DUP2 MUL SWAP2 JUMPDEST SWAP4 DUP5 SHR SWAP4 SWAP1 DUP1 MUL SWAP1 PUSH2 0x34D9 JUMP JUMPDEST POP SWAP3 POP SWAP3 SWAP1 POP JUMP JUMPDEST PUSH0 DUP3 PUSH2 0x3524 JUMPI POP PUSH1 0x1 PUSH2 0x1A71 JUMP JUMPDEST DUP2 PUSH2 0x3530 JUMPI POP PUSH0 PUSH2 0x1A71 JUMP JUMPDEST DUP2 PUSH1 0x1 DUP2 EQ PUSH2 0x3546 JUMPI PUSH1 0x2 DUP2 EQ PUSH2 0x3550 JUMPI PUSH2 0x356C JUMP JUMPDEST PUSH1 0x1 SWAP2 POP POP PUSH2 0x1A71 JUMP JUMPDEST PUSH1 0xFF DUP5 GT ISZERO PUSH2 0x3561 JUMPI PUSH2 0x3561 PUSH2 0x344C JUMP JUMPDEST POP POP PUSH1 0x1 DUP3 SHL PUSH2 0x1A71 JUMP JUMPDEST POP PUSH1 0x20 DUP4 LT PUSH2 0x133 DUP4 LT AND PUSH1 0x4E DUP5 LT PUSH1 0xB DUP5 LT AND OR ISZERO PUSH2 0x358F JUMPI POP DUP2 DUP2 EXP PUSH2 0x1A71 JUMP JUMPDEST PUSH2 0x3599 DUP4 DUP4 PUSH2 0x34D4 JUMP JUMPDEST DUP1 PUSH0 NOT DIV DUP3 GT ISZERO PUSH2 0x35AC JUMPI PUSH2 0x35AC PUSH2 0x344C JUMP JUMPDEST MUL SWAP4 SWAP3 POP POP POP JUMP JUMPDEST PUSH0 PUSH2 0x1306 DUP4 DUP4 PUSH2 0x3516 JUMP JUMPDEST DUP2 DUP2 SUB DUP2 DUP2 GT ISZERO PUSH2 0x1A71 JUMPI PUSH2 0x1A71 PUSH2 0x344C JUMP JUMPDEST PUSH0 PUSH1 0x20 DUP3 DUP5 SUB SLT ISZERO PUSH2 0x35E2 JUMPI PUSH0 DUP1 REVERT JUMPDEST POP MLOAD SWAP2 SWAP1 POP JUMP JUMPDEST DUP1 DUP3 ADD DUP1 DUP3 GT ISZERO PUSH2 0x1A71 JUMPI PUSH2 0x1A71 PUSH2 0x344C JUMP JUMPDEST DUP1 DUP3 MUL DUP2 ISZERO DUP3 DUP3 DIV DUP5 EQ OR PUSH2 0x1A71 JUMPI PUSH2 0x1A71 PUSH2 0x344C JUMP JUMPDEST PUSH0 DUP3 PUSH2 0x362D JUMPI PUSH4 0x4E487B71 PUSH1 0xE0 SHL PUSH0 MSTORE PUSH1 0x12 PUSH1 0x4 MSTORE PUSH1 0x24 PUSH0 REVERT JUMPDEST POP DIV SWAP1 JUMP JUMPDEST PUSH0 PUSH1 0x20 DUP3 DUP5 SUB SLT ISZERO PUSH2 0x3642 JUMPI PUSH0 DUP1 REVERT JUMPDEST DUP2 MLOAD DUP1 ISZERO ISZERO DUP2 EQ PUSH2 0x1306 JUMPI PUSH0 DUP1 REVERT JUMPDEST PUSH0 JUMPDEST DUP4 DUP2 LT ISZERO PUSH2 0x366B JUMPI DUP2 DUP2 ADD MLOAD DUP4 DUP3 ADD MSTORE PUSH1 0x20 ADD PUSH2 0x3653 JUMP JUMPDEST POP POP PUSH0 SWAP2 ADD MSTORE JUMP JUMPDEST PUSH0 DUP3 MLOAD PUSH2 0x3684 DUP2 DUP5 PUSH1 0x20 DUP8 ADD PUSH2 0x3651 JUMP JUMPDEST SWAP2 SWAP1 SWAP2 ADD SWAP3 SWAP2 POP POP JUMP JUMPDEST PUSH1 0x20 DUP2 MSTORE PUSH0 DUP3 MLOAD DUP1 PUSH1 0x20 DUP5 ADD MSTORE PUSH2 0x36AC DUP2 PUSH1 0x40 DUP6 ADD PUSH1 0x20 DUP8 ADD PUSH2 0x3651 JUMP JUMPDEST PUSH1 0x1F ADD PUSH1 0x1F NOT AND SWAP2 SWAP1 SWAP2 ADD PUSH1 0x40 ADD SWAP3 SWAP2 POP POP JUMP INVALID LOG2 PUSH5 0x6970667358 0x22 SLT KECCAK256 PUSH4 0x7B40F2B4 0xB5 XOR MSTORE8 KECCAK256 PUSH9 0xB0B324C09A8A6AB7C3 GT SWAP11 0x49 0xDD SWAP11 JUMPI 0xAD 0x27 PUSH32 0x35CB274E64736F6C634300081500330000000000000000000000000000000000 "
		},
		"gasEstimates": {
			"creation": {
				"codeDepositCost": "2814000",
				"executionCost": "3067",
				"totalCost": "2817067"
			},
			"external": {
				"changeRegistryContractAddr(address)": "infinite",
				"claimRewardsFor(address)": "infinite",
				"config(address,uint256,uint256,uint256)": "infinite",
				"createNewEpoch()": "infinite",
				"depositFor(address,uint256)": "infinite",
				"finalizeEpoch(uint256,address,address,address,uint256)": "infinite",
				"finalizeEpochTicketandParticipantInfo(uint256)": "infinite",
				"getAccumulatedTicketwithoutDecimal(uint256,address)": "infinite",
				"getBalanceChangeHistory(address,uint256)": "infinite",
				"getClaimable(address)": "2573",
				"getCurrentEpochReward()": "infinite",
				"getEpochInfo(uint256)": "33464",
				"getEpochLength()": "2358",
				"getLatestEpoch()": "infinite",
				"getMinAmountToDeposit()": "2358",
				"getPoolTVL()": "2359",
				"getRewardAllocationPercentage()": "6802",
				"getTicketAmount(uint256,address)": "infinite",
				"getTokenUsing()": "2409",
				"getUserAmount()": "2326",
				"getUserDepositInfo(address)": "11469",
				"getUserID(address)": "2596",
				"getWinningHistory(address)": "infinite",
				"getuserByID(uint256)": "2519",
				"initialize(address)": "51057",
				"setRewardRatio(uint256,uint256,uint256,uint256)": "infinite",
				"withdrawFor(address,uint256)": "infinite"
			},
			"internal": {
				"_proceedUpdate(uint256,uint256,bool)": "infinite",
				"_transferRegistryAddr(address)": "24277",
				"_updateAccumulatedTicket(uint256,uint256,uint256,uint256)": "infinite",
				"_updateBalanceChange(uint256,uint256,uint256,uint256)": "infinite",
				"getTokenFromMsgsender(uint256)": "infinite",
				"registerNewUser(address)": "122167",
				"sendRewardToRouter(uint256)": "infinite",
				"sendTokenToMsgsender(uint256)": "infinite",
				"setClaimableRewards(uint256,address[] memory,uint256[] memory)": "infinite",
				"sumUptotalParticipant(uint256,uint256)": "infinite",
				"transferRewardToReserve(uint256)": "infinite",
				"updateUserInfo(address,uint256,bool)": "infinite"
			}
		},
		"methodIdentifiers": {
			"changeRegistryContractAddr(address)": "fa7c828a",
			"claimRewardsFor(address)": "1ac6d19d",
			"config(address,uint256,uint256,uint256)": "a2122bf7",
			"createNewEpoch()": "ec20c2e5",
			"depositFor(address,uint256)": "2f4f21e2",
			"finalizeEpoch(uint256,address,address,address,uint256)": "a3058071",
			"finalizeEpochTicketandParticipantInfo(uint256)": "2c26eb46",
			"getAccumulatedTicketwithoutDecimal(uint256,address)": "a3fb7050",
			"getBalanceChangeHistory(address,uint256)": "858c7585",
			"getClaimable(address)": "a583024b",
			"getCurrentEpochReward()": "fd2324de",
			"getEpochInfo(uint256)": "135022c2",
			"getEpochLength()": "cfe8a73b",
			"getLatestEpoch()": "a3d74f06",
			"getMinAmountToDeposit()": "361f1ad3",
			"getPoolTVL()": "26be90bf",
			"getRewardAllocationPercentage()": "039da66e",
			"getTicketAmount(uint256,address)": "d474fbf7",
			"getTokenUsing()": "0fce03b9",
			"getUserAmount()": "095d0c94",
			"getUserDepositInfo(address)": "b3a7834d",
			"getUserID(address)": "0ef12aa9",
			"getWinningHistory(address)": "18703da5",
			"getuserByID(uint256)": "ca6d83df",
			"initialize(address)": "c4d66de8",
			"setRewardRatio(uint256,uint256,uint256,uint256)": "c51475b9",
			"withdrawFor(address,uint256)": "db518db2"
		}
	},
	"abi": [
		{
			"anonymous": false,
			"inputs": [
				{
					"indexed": false,
					"internalType": "address",
					"name": "oldController",
					"type": "address"
				},
				{
					"indexed": false,
					"internalType": "address",
					"name": "newController",
					"type": "address"
				}
			],
			"name": "ControllerRoleTransferred",
			"type": "event"
		},
		{
			"anonymous": false,
			"inputs": [
				{
					"indexed": false,
					"internalType": "address",
					"name": "oldOwner",
					"type": "address"
				},
				{
					"indexed": false,
					"internalType": "address",
					"name": "newOwner",
					"type": "address"
				}
			],
			"name": "OwnershipTransferred",
			"type": "event"
		},
		{
			"anonymous": false,
			"inputs": [
				{
					"indexed": false,
					"internalType": "address",
					"name": "oldRouter",
					"type": "address"
				},
				{
					"indexed": false,
					"internalType": "address",
					"name": "newRouter",
					"type": "address"
				}
			],
			"name": "changedRouter",
			"type": "event"
		},
		{
			"anonymous": false,
			"inputs": [
				{
					"indexed": false,
					"internalType": "uint256",
					"name": "first",
					"type": "uint256"
				},
				{
					"indexed": false,
					"internalType": "uint256",
					"name": "second",
					"type": "uint256"
				},
				{
					"indexed": false,
					"internalType": "uint256",
					"name": "third",
					"type": "uint256"
				}
			],
			"name": "rewardPortionUpdated",
			"type": "event"
		},
		{
			"inputs": [
				{
					"internalType": "address",
					"name": "registryAddress",
					"type": "address"
				}
			],
			"name": "changeRegistryContractAddr",
			"outputs": [],
			"stateMutability": "nonpayable",
			"type": "function"
		},
		{
			"inputs": [
				{
					"internalType": "address",
					"name": "user",
					"type": "address"
				}
			],
			"name": "claimRewardsFor",
			"outputs": [
				{
					"internalType": "uint256",
					"name": "",
					"type": "uint256"
				}
			],
			"stateMutability": "nonpayable",
			"type": "function"
		},
		{
			"inputs": [
				{
					"internalType": "address",
					"name": "token",
					"type": "address"
				},
				{
					"internalType": "uint256",
					"name": "decimal",
					"type": "uint256"
				},
				{
					"internalType": "uint256",
					"name": "minAmount",
					"type": "uint256"
				},
				{
					"internalType": "uint256",
					"name": "duration",
					"type": "uint256"
				}
			],
			"name": "config",
			"outputs": [],
			"stateMutability": "nonpayable",
			"type": "function"
		},
		{
			"inputs": [],
			"name": "createNewEpoch",
			"outputs": [],
			"stateMutability": "nonpayable",
			"type": "function"
		},
		{
			"inputs": [
				{
					"internalType": "address",
					"name": "user",
					"type": "address"
				},
				{
					"internalType": "uint256",
					"name": "amount",
					"type": "uint256"
				}
			],
			"name": "depositFor",
			"outputs": [],
			"stateMutability": "nonpayable",
			"type": "function"
		},
		{
			"inputs": [
				{
					"internalType": "uint256",
					"name": "epochNumber",
					"type": "uint256"
				},
				{
					"internalType": "address",
					"name": "firstWinner",
					"type": "address"
				},
				{
					"internalType": "address",
					"name": "secondWinner",
					"type": "address"
				},
				{
					"internalType": "address",
					"name": "thirdWinner",
					"type": "address"
				},
				{
					"internalType": "uint256",
					"name": "totalPrize",
					"type": "uint256"
				}
			],
			"name": "finalizeEpoch",
			"outputs": [],
			"stateMutability": "nonpayable",
			"type": "function"
		},
		{
			"inputs": [
				{
					"internalType": "uint256",
					"name": "epochNumber",
					"type": "uint256"
				}
			],
			"name": "finalizeEpochTicketandParticipantInfo",
			"outputs": [],
			"stateMutability": "nonpayable",
			"type": "function"
		},
		{
			"inputs": [
				{
					"internalType": "uint256",
					"name": "epochNumber",
					"type": "uint256"
				},
				{
					"internalType": "address",
					"name": "user",
					"type": "address"
				}
			],
			"name": "getAccumulatedTicketwithoutDecimal",
			"outputs": [
				{
					"internalType": "uint256",
					"name": "",
					"type": "uint256"
				}
			],
			"stateMutability": "view",
			"type": "function"
		},
		{
			"inputs": [
				{
					"internalType": "address",
					"name": "user",
					"type": "address"
				},
				{
					"internalType": "uint256",
					"name": "epochNumber",
					"type": "uint256"
				}
			],
			"name": "getBalanceChangeHistory",
			"outputs": [
				{
					"components": [
						{
							"internalType": "bool",
							"name": "changedwithinEpoch",
							"type": "bool"
						},
						{
							"components": [
								{
									"internalType": "uint256",
									"name": "oldAmount",
									"type": "uint256"
								},
								{
									"internalType": "uint256",
									"name": "newAmount",
									"type": "uint256"
								},
								{
									"internalType": "uint256",
									"name": "updatedBlock",
									"type": "uint256"
								}
							],
							"internalType": "struct stETHPool.ChangeArray[]",
							"name": "historyArray",
							"type": "tuple[]"
						}
					],
					"internalType": "struct stETHPool.userChangeHistory",
					"name": "",
					"type": "tuple"
				}
			],
			"stateMutability": "view",
			"type": "function"
		},
		{
			"inputs": [
				{
					"internalType": "address",
					"name": "user",
					"type": "address"
				}
			],
			"name": "getClaimable",
			"outputs": [
				{
					"internalType": "uint256",
					"name": "",
					"type": "uint256"
				}
			],
			"stateMutability": "view",
			"type": "function"
		},
		{
			"inputs": [],
			"name": "getCurrentEpochReward",
			"outputs": [
				{
					"internalType": "uint256",
					"name": "",
					"type": "uint256"
				}
			],
			"stateMutability": "view",
			"type": "function"
		},
		{
			"inputs": [
				{
					"internalType": "uint256",
					"name": "epochNumber",
					"type": "uint256"
				}
			],
			"name": "getEpochInfo",
			"outputs": [
				{
					"components": [
						{
							"components": [
								{
									"internalType": "address",
									"name": "winner",
									"type": "address"
								},
								{
									"internalType": "uint256",
									"name": "prizeAmount",
									"type": "uint256"
								},
								{
									"internalType": "bool",
									"name": "claimed",
									"type": "bool"
								}
							],
							"internalType": "struct stETHPool.PrizeDetails",
							"name": "first",
							"type": "tuple"
						},
						{
							"components": [
								{
									"internalType": "address",
									"name": "winner",
									"type": "address"
								},
								{
									"internalType": "uint256",
									"name": "prizeAmount",
									"type": "uint256"
								},
								{
									"internalType": "bool",
									"name": "claimed",
									"type": "bool"
								}
							],
							"internalType": "struct stETHPool.PrizeDetails",
							"name": "second",
							"type": "tuple"
						},
						{
							"components": [
								{
									"internalType": "address",
									"name": "winner",
									"type": "address"
								},
								{
									"internalType": "uint256",
									"name": "prizeAmount",
									"type": "uint256"
								},
								{
									"internalType": "bool",
									"name": "claimed",
									"type": "bool"
								}
							],
							"internalType": "struct stETHPool.PrizeDetails",
							"name": "third",
							"type": "tuple"
						},
						{
							"internalType": "bool",
							"name": "finalized",
							"type": "bool"
						},
						{
							"internalType": "uint256",
							"name": "totalPrize",
							"type": "uint256"
						},
						{
							"internalType": "uint256",
							"name": "duration",
							"type": "uint256"
						},
						{
							"internalType": "uint256",
							"name": "createdTimeStamp",
							"type": "uint256"
						},
						{
							"internalType": "uint256",
							"name": "totalParticipant",
							"type": "uint256"
						}
					],
					"internalType": "struct stETHPool.EpochResult",
					"name": "",
					"type": "tuple"
				}
			],
			"stateMutability": "view",
			"type": "function"
		},
		{
			"inputs": [],
			"name": "getEpochLength",
			"outputs": [
				{
					"internalType": "uint256",
					"name": "",
					"type": "uint256"
				}
			],
			"stateMutability": "view",
			"type": "function"
		},
		{
			"inputs": [],
			"name": "getLatestEpoch",
			"outputs": [
				{
					"internalType": "uint256",
					"name": "",
					"type": "uint256"
				}
			],
			"stateMutability": "view",
			"type": "function"
		},
		{
			"inputs": [],
			"name": "getMinAmountToDeposit",
			"outputs": [
				{
					"internalType": "uint256",
					"name": "",
					"type": "uint256"
				}
			],
			"stateMutability": "view",
			"type": "function"
		},
		{
			"inputs": [],
			"name": "getPoolTVL",
			"outputs": [
				{
					"internalType": "uint256",
					"name": "",
					"type": "uint256"
				}
			],
			"stateMutability": "view",
			"type": "function"
		},
		{
			"inputs": [],
			"name": "getRewardAllocationPercentage",
			"outputs": [
				{
					"components": [
						{
							"internalType": "uint256",
							"name": "first",
							"type": "uint256"
						},
						{
							"internalType": "uint256",
							"name": "second",
							"type": "uint256"
						},
						{
							"internalType": "uint256",
							"name": "third",
							"type": "uint256"
						}
					],
					"internalType": "struct stETHPool.rewardAllocation",
					"name": "",
					"type": "tuple"
				}
			],
			"stateMutability": "view",
			"type": "function"
		},
		{
			"inputs": [
				{
					"internalType": "uint256",
					"name": "epochNumber",
					"type": "uint256"
				},
				{
					"internalType": "address",
					"name": "user",
					"type": "address"
				}
			],
			"name": "getTicketAmount",
			"outputs": [
				{
					"internalType": "uint256",
					"name": "",
					"type": "uint256"
				}
			],
			"stateMutability": "view",
			"type": "function"
		},
		{
			"inputs": [],
			"name": "getTokenUsing",
			"outputs": [
				{
					"internalType": "address",
					"name": "",
					"type": "address"
				}
			],
			"stateMutability": "view",
			"type": "function"
		},
		{
			"inputs": [],
			"name": "getUserAmount",
			"outputs": [
				{
					"internalType": "uint256",
					"name": "",
					"type": "uint256"
				}
			],
			"stateMutability": "view",
			"type": "function"
		},
		{
			"inputs": [
				{
					"internalType": "address",
					"name": "user",
					"type": "address"
				}
			],
			"name": "getUserDepositInfo",
			"outputs": [
				{
					"components": [
						{
							"internalType": "address",
							"name": "userAddress",
							"type": "address"
						},
						{
							"internalType": "uint256",
							"name": "DepositAmount",
							"type": "uint256"
						},
						{
							"internalType": "uint256",
							"name": "registeredDate",
							"type": "uint256"
						},
						{
							"internalType": "uint256",
							"name": "Lastupdated",
							"type": "uint256"
						}
					],
					"internalType": "struct stETHPool.userInfo",
					"name": "",
					"type": "tuple"
				}
			],
			"stateMutability": "view",
			"type": "function"
		},
		{
			"inputs": [
				{
					"internalType": "address",
					"name": "user",
					"type": "address"
				}
			],
			"name": "getUserID",
			"outputs": [
				{
					"internalType": "uint256",
					"name": "",
					"type": "uint256"
				}
			],
			"stateMutability": "view",
			"type": "function"
		},
		{
			"inputs": [
				{
					"internalType": "address",
					"name": "user",
					"type": "address"
				}
			],
			"name": "getWinningHistory",
			"outputs": [
				{
					"components": [
						{
							"internalType": "uint256",
							"name": "EpochNumber",
							"type": "uint256"
						},
						{
							"internalType": "uint256",
							"name": "position",
							"type": "uint256"
						},
						{
							"internalType": "uint256",
							"name": "PrizeAmount",
							"type": "uint256"
						}
					],
					"internalType": "struct stETHPool.rewardHistory[]",
					"name": "",
					"type": "tuple[]"
				}
			],
			"stateMutability": "view",
			"type": "function"
		},
		{
			"inputs": [
				{
					"internalType": "uint256",
					"name": "userIDnow",
					"type": "uint256"
				}
			],
			"name": "getuserByID",
			"outputs": [
				{
					"internalType": "address",
					"name": "",
					"type": "address"
				}
			],
			"stateMutability": "view",
			"type": "function"
		},
		{
			"inputs": [
				{
					"internalType": "address",
					"name": "registryAddress",
					"type": "address"
				}
			],
			"name": "initialize",
			"outputs": [],
			"stateMutability": "nonpayable",
			"type": "function"
		},
		{
			"inputs": [
				{
					"internalType": "uint256",
					"name": "firstP",
					"type": "uint256"
				},
				{
					"internalType": "uint256",
					"name": "secondP",
					"type": "uint256"
				},
				{
					"internalType": "uint256",
					"name": "thirdP",
					"type": "uint256"
				},
				{
					"internalType": "uint256",
					"name": "percentageSUM",
					"type": "uint256"
				}
			],
			"name": "setRewardRatio",
			"outputs": [],
			"stateMutability": "nonpayable",
			"type": "function"
		},
		{
			"inputs": [
				{
					"internalType": "address",
					"name": "user",
					"type": "address"
				},
				{
					"internalType": "uint256",
					"name": "amount",
					"type": "uint256"
				}
			],
			"name": "withdrawFor",
			"outputs": [],
			"stateMutability": "nonpayable",
			"type": "function"
		}
	]
}