{
	"data": {
		"bytecode": {
			"linkReferences": {},
			"object": "608060405234801561000f575f80fd5b50614f528061001d5f395ff3fe608060405234801561000f575f80fd5b50600436106101e3575f3560e01c8063a30580711161010d578063ca6d83df116100a0578063ec20c2e51161006f578063ec20c2e5146105b1578063fa7c828a146105bb578063fad8a559146105d7578063fd2324de146105f3576101e3565b8063ca6d83df14610517578063cfe8a73b14610547578063d474fbf714610565578063db518db214610595576101e3565b8063ad954e1a116100dc578063ad954e1a14610493578063b3a7834d146104af578063c4d66de8146104df578063c51475b9146104fb576101e3565b8063a3058071146103f9578063a3d74f0614610415578063a3fb705014610433578063a583024b14610463576101e3565b80631ac6d19d116101855780632d6552b3116101545780632d6552b3146103755780632f4f21e21461039157806330024dfe146103ad578063858c7585146103c9576101e3565b80631ac6d19d146102ed5780631e46baf71461031d57806326be90bf1461033b5780632c26eb4614610359576101e3565b80630fce03b9116101c15780630fce03b914610253578063135022c214610271578063144fa6d7146102a157806318703da5146102bd576101e3565b8063039da66e146101e7578063095d0c94146102055780630ef12aa914610223575b5f80fd5b6101ef610611565b6040516101fc9190613e0b565b60405180910390f35b61020d610648565b60405161021a9190613e33565b60405180910390f35b61023d60048036038101906102389190613eaa565b610656565b60405161024a9190613e33565b60405180910390f35b61025b6106a1565b6040516102689190613ee4565b60405180910390f35b61028b60048036038101906102869190613f27565b6106c9565b6040516102989190614060565b60405180910390f35b6102bb60048036038101906102b69190613eaa565b6108ee565b005b6102d760048036038101906102d29190613eaa565b610a30565b6040516102e49190614162565b60405180910390f35b61030760048036038101906103029190613eaa565b610aee565b6040516103149190613e33565b60405180910390f35b610325610f9d565b6040516103329190613e33565b60405180910390f35b61034361109f565b6040516103509190613e33565b60405180910390f35b610373600480360381019061036e9190613f27565b6110ad565b005b61038f600480360381019061038a9190613f27565b6111fd565b005b6103ab60048036038101906103a69190614182565b611306565b005b6103c760048036038101906103c29190613f27565b611508565b005b6103e360048036038101906103de9190614182565b611611565b6040516103f091906142e2565b60405180910390f35b610413600480360381019061040e9190614302565b6117d1565b005b61041d611d80565b60405161042a9190613e33565b60405180910390f35b61044d60048036038101906104489190614379565b611de6565b60405161045a9190613e33565b60405180910390f35b61047d60048036038101906104789190613eaa565b611f03565b60405161048a9190613e33565b60405180910390f35b6104ad60048036038101906104a89190613eaa565b611f50565b005b6104c960048036038101906104c49190613eaa565b612092565b6040516104d6919061440a565b60405180910390f35b6104f960048036038101906104f49190613eaa565b612141565b005b61051560048036038101906105109190614423565b6121bb565b005b610531600480360381019061052c9190613f27565b612345565b60405161053e9190613ee4565b60405180910390f35b61054f612385565b60405161055c9190613e33565b60405180910390f35b61057f600480360381019061057a9190614379565b612396565b60405161058c9190613e33565b60405180910390f35b6105af60048036038101906105aa9190614182565b61275f565b005b6105b9612ae6565b005b6105d560048036038101906105d09190613eaa565b6130a3565b005b6105f160048036038101906105ec9190613f27565b6131ae565b005b6105fb6132b7565b6040516106089190613e33565b60405180910390f35b610619613cb6565b60096040518060600160405290815f820154815260200160018201548152602001600282015481525050905090565b5f8060015490508091505090565b5f8060035f8473ffffffffffffffffffffffffffffffffffffffff1673ffffffffffffffffffffffffffffffffffffffff1681526020019081526020015f2054905080915050919050565b5f600f5f9054906101000a900473ffffffffffffffffffffffffffffffffffffffff16905090565b6106d1613cd4565b5f600d83815481106106e6576106e5614487565b5b905f5260205f2090600e0201604051806101000160405290815f82016040518060600160405290815f82015f9054906101000a900473ffffffffffffffffffffffffffffffffffffffff1673ffffffffffffffffffffffffffffffffffffffff1673ffffffffffffffffffffffffffffffffffffffff16815260200160018201548152602001600282015f9054906101000a900460ff1615151515815250508152602001600382016040518060600160405290815f82015f9054906101000a900473ffffffffffffffffffffffffffffffffffffffff1673ffffffffffffffffffffffffffffffffffffffff1673ffffffffffffffffffffffffffffffffffffffff16815260200160018201548152602001600282015f9054906101000a900460ff1615151515815250508152602001600682016040518060600160405290815f82015f9054906101000a900473ffffffffffffffffffffffffffffffffffffffff1673ffffffffffffffffffffffffffffffffffffffff1673ffffffffffffffffffffffffffffffffffffffff16815260200160018201548152602001600282015f9054906101000a900460ff1615151515815250508152602001600982015f9054906101000a900460ff16151515158152602001600a8201548152602001600b8201548152602001600c8201548152602001600d82015481525050905080915050919050565b5f805f9054906101000a900473ffffffffffffffffffffffffffffffffffffffff1673ffffffffffffffffffffffffffffffffffffffff16633018205f6040518163ffffffff1660e01b8152600401602060405180830381865afa158015610958573d5f803e3d5ffd5b505050506040513d601f19601f8201168201806040525081019061097c91906144c8565b90508073ffffffffffffffffffffffffffffffffffffffff163373ffffffffffffffffffffffffffffffffffffffff16146109ec576040517f08c379a00000000000000000000000000000000000000000000000000000000081526004016109e39061454d565b60405180910390fd5b81600f5f6101000a81548173ffffffffffffffffffffffffffffffffffffffff021916908373ffffffffffffffffffffffffffffffffffffffff1602179055505050565b60605f60065f8473ffffffffffffffffffffffffffffffffffffffff1673ffffffffffffffffffffffffffffffffffffffff1681526020019081526020015f20600101805480602002602001604051908101604052809291908181526020015f905b82821015610adf578382905f5260205f2090600302016040518060600160405290815f82015481526020016001820154815260200160028201548152505081526020019060010190610a92565b50505050905080915050919050565b5f805f8054906101000a900473ffffffffffffffffffffffffffffffffffffffff1673ffffffffffffffffffffffffffffffffffffffff1663b0f479a16040518163ffffffff1660e01b8152600401602060405180830381865afa158015610b58573d5f803e3d5ffd5b505050506040513d601f19601f82011682018060405250810190610b7c91906144c8565b90508073ffffffffffffffffffffffffffffffffffffffff163373ffffffffffffffffffffffffffffffffffffffff1614610bec576040517f08c379a0000000000000000000000000000000000000000000000000000000008152600401610be39061454d565b60405180910390fd5b5f60075414610c30576040517f08c379a0000000000000000000000000000000000000000000000000000000008152600401610c27906145b5565b60405180910390fd5b60016007819055505f610c41612385565b90505f8111610c85576040517f08c379a0000000000000000000000000000000000000000000000000000000008152600401610c7c9061461d565b60405180910390fd5b5f60065f8673ffffffffffffffffffffffffffffffffffffffff1673ffffffffffffffffffffffffffffffffffffffff1681526020019081526020015f205f015490505f8111610d0a576040517f08c379a0000000000000000000000000000000000000000000000000000000008152600401610d0190614685565b60405180910390fd5b5f60065f8773ffffffffffffffffffffffffffffffffffffffff1673ffffffffffffffffffffffffffffffffffffffff1681526020019081526020015f205f01819055505f60065f8773ffffffffffffffffffffffffffffffffffffffff1673ffffffffffffffffffffffffffffffffffffffff1681526020019081526020015f206001018054905090505f5b81811015610f80575f60065f8973ffffffffffffffffffffffffffffffffffffffff1673ffffffffffffffffffffffffffffffffffffffff1681526020019081526020015f206001018281548110610df257610df1614487565b5b905f5260205f2090600302015f015490505f60065f8a73ffffffffffffffffffffffffffffffffffffffff1673ffffffffffffffffffffffffffffffffffffffff1681526020019081526020015f206001018381548110610e5657610e55614487565b5b905f5260205f2090600302016001015490505f80600d8481548110610e7e57610e7d614487565b5b905f5260205f2090600e0201905060018303610ed5575f1515815f016002015f9054906101000a900460ff16151503610ed0576001815f016002015f6101000a81548160ff0219169083151502179055505b610f69565b60028303610f20575f1515816003016002015f9054906101000a900460ff16151503610f1b576001816003016002015f6101000a81548160ff0219169083151502179055505b610f68565b60038303610f67575f1515816006016002015f9054906101000a900460ff16151503610f66576001816006016002015f6101000a81548160ff0219169083151502179055505b5b5b5b505050508080610f78906146d0565b915050610d97565b50610f8a826132c0565b8194505050505f60078190555050919050565b5f805f8054906101000a900473ffffffffffffffffffffffffffffffffffffffff1673ffffffffffffffffffffffffffffffffffffffff1663cf20d8726040518163ffffffff1660e01b8152600401602060405180830381865afa158015611007573d5f803e3d5ffd5b505050506040513d601f19601f8201168201806040525081019061102b91906144c8565b90508073ffffffffffffffffffffffffffffffffffffffff163373ffffffffffffffffffffffffffffffffffffffff161461109b576040517f08c379a00000000000000000000000000000000000000000000000000000000081526004016110929061454d565b60405180910390fd5b5090565b5f8060085490508091505090565b5f805f9054906101000a900473ffffffffffffffffffffffffffffffffffffffff1673ffffffffffffffffffffffffffffffffffffffff1663cf20d8726040518163ffffffff1660e01b8152600401602060405180830381865afa158015611117573d5f803e3d5ffd5b505050506040513d601f19601f8201168201806040525081019061113b91906144c8565b90508073ffffffffffffffffffffffffffffffffffffffff163373ffffffffffffffffffffffffffffffffffffffff16146111ab576040517f08c379a00000000000000000000000000000000000000000000000000000000081526004016111a29061454d565b60405180910390fd5b5f600d83815481106111c0576111bf614487565b5b905f5260205f2090600e020190505f81600b015482600c01546111e39190614717565b90506111ef848261336c565b82600d018190555050505050565b5f805f9054906101000a900473ffffffffffffffffffffffffffffffffffffffff1673ffffffffffffffffffffffffffffffffffffffff16633018205f6040518163ffffffff1660e01b8152600401602060405180830381865afa158015611267573d5f803e3d5ffd5b505050506040513d601f19601f8201168201806040525081019061128b91906144c8565b90508073ffffffffffffffffffffffffffffffffffffffff163373ffffffffffffffffffffffffffffffffffffffff16146112fb576040517f08c379a00000000000000000000000000000000000000000000000000000000081526004016112f29061454d565b60405180910390fd5b816012819055505050565b5f805f9054906101000a900473ffffffffffffffffffffffffffffffffffffffff1673ffffffffffffffffffffffffffffffffffffffff1663b0f479a16040518163ffffffff1660e01b8152600401602060405180830381865afa158015611370573d5f803e3d5ffd5b505050506040513d601f19601f8201168201806040525081019061139491906144c8565b90508073ffffffffffffffffffffffffffffffffffffffff163373ffffffffffffffffffffffffffffffffffffffff1614611404576040517f08c379a00000000000000000000000000000000000000000000000000000000081526004016113fb9061454d565b60405180910390fd5b5f60075414611448576040517f08c379a000000000000000000000000000000000000000000000000000000000815260040161143f906145b5565b60405180910390fd5b60016007819055505f611459612385565b90505f811161149d576040517f08c379a00000000000000000000000000000000000000000000000000000000081526004016114949061461d565b60405180910390fd5b6011548310156114e2576040517f08c379a00000000000000000000000000000000000000000000000000000000081526004016114d990614794565b60405180910390fd5b5f6114ec8461341a565b90506114fa85856001613624565b50505f600781905550505050565b5f805f9054906101000a900473ffffffffffffffffffffffffffffffffffffffff1673ffffffffffffffffffffffffffffffffffffffff16633018205f6040518163ffffffff1660e01b8152600401602060405180830381865afa158015611572573d5f803e3d5ffd5b505050506040513d601f19601f8201168201806040525081019061159691906144c8565b90508073ffffffffffffffffffffffffffffffffffffffff163373ffffffffffffffffffffffffffffffffffffffff1614611606576040517f08c379a00000000000000000000000000000000000000000000000000000000081526004016115fd9061454d565b60405180910390fd5b81600e819055505050565b611619613d28565b5f611622612385565b90505f8111611666576040517f08c379a000000000000000000000000000000000000000000000000000000000815260040161165d9061461d565b60405180910390fd5b825f611670611d80565b9050808211156116b5576040517f08c379a00000000000000000000000000000000000000000000000000000000081526004016116ac906147fc565b60405180910390fd5b5f6116bf87610656565b90505f8103611703576040517f08c379a00000000000000000000000000000000000000000000000000000000081526004016116fa90614864565b60405180910390fd5b5f60055f8881526020019081526020015f205f8381526020019081526020015f206040518060400160405290815f82015f9054906101000a900460ff1615151515815260200160018201805480602002602001604051908101604052809291908181526020015f905b828210156117b9578382905f5260205f2090600302016040518060600160405290815f8201548152602001600182015481526020016002820154815250508152602001906001019061176c565b50505050815250509050809550505050505092915050565b5f805f9054906101000a900473ffffffffffffffffffffffffffffffffffffffff1673ffffffffffffffffffffffffffffffffffffffff1663cf20d8726040518163ffffffff1660e01b8152600401602060405180830381865afa15801561183b573d5f803e3d5ffd5b505050506040513d601f19601f8201168201806040525081019061185f91906144c8565b90508073ffffffffffffffffffffffffffffffffffffffff163373ffffffffffffffffffffffffffffffffffffffff16146118cf576040517f08c379a00000000000000000000000000000000000000000000000000000000081526004016118c69061454d565b60405180910390fd5b5f600d87815481106118e4576118e3614487565b5b905f5260205f2090600e020190505f816009015f9054906101000a900460ff1690505f15158115151461194c576040517f08c379a0000000000000000000000000000000000000000000000000000000008152600401611943906148cc565b60405180910390fd5b5f4290505f83600b015484600c01546119659190614717565b90508082116119a9576040517f08c379a00000000000000000000000000000000000000000000000000000000081526004016119a090614934565b60405180910390fd5b6001846009015f6101000a81548160ff0219169083151502179055508584600a018190555088845f015f015f6101000a81548173ffffffffffffffffffffffffffffffffffffffff021916908373ffffffffffffffffffffffffffffffffffffffff160217905550600c5460095f015487611a249190614952565b611a2e91906149c0565b845f01600101819055505f845f016002015f6101000a81548160ff02191690831515021790555087846003015f015f6101000a81548173ffffffffffffffffffffffffffffffffffffffff021916908373ffffffffffffffffffffffffffffffffffffffff160217905550600c5460096001015487611aad9190614952565b611ab791906149c0565b84600301600101819055505f846003016002015f6101000a81548160ff02191690831515021790555086846006015f015f6101000a81548173ffffffffffffffffffffffffffffffffffffffff021916908373ffffffffffffffffffffffffffffffffffffffff160217905550600c5460096002015487611b389190614952565b611b4291906149c0565b84600601600101819055505f846006016002015f6101000a81548160ff0219169083151502179055505f600367ffffffffffffffff811115611b8757611b866149f0565b5b604051908082528060200260200182016040528015611bb55781602001602082028036833780820191505090505b50905089815f81518110611bcc57611bcb614487565b5b602002602001019073ffffffffffffffffffffffffffffffffffffffff16908173ffffffffffffffffffffffffffffffffffffffff16815250508881600181518110611c1b57611c1a614487565b5b602002602001019073ffffffffffffffffffffffffffffffffffffffff16908173ffffffffffffffffffffffffffffffffffffffff16815250508781600281518110611c6a57611c69614487565b5b602002602001019073ffffffffffffffffffffffffffffffffffffffff16908173ffffffffffffffffffffffffffffffffffffffff16815250505f600367ffffffffffffffff811115611cc057611cbf6149f0565b5b604051908082528060200260200182016040528015611cee5781602001602082028036833780820191505090505b509050855f0160010154815f81518110611d0b57611d0a614487565b5b602002602001018181525050856003016001015481600181518110611d3357611d32614487565b5b602002602001018181525050856006016001015481600281518110611d5b57611d5a614487565b5b602002602001018181525050611d728c83836136dc565b505050505050505050505050565b5f80611d8a612385565b90505f8111611dce576040517f08c379a0000000000000000000000000000000000000000000000000000000008152600401611dc59061461d565b60405180910390fd5b5f600182611ddc9190614a1d565b9050809250505090565b5f80611df0612385565b90505f8111611e34576040517f08c379a0000000000000000000000000000000000000000000000000000000008152600401611e2b9061461d565b60405180910390fd5b835f611e3e611d80565b905080821115611e83576040517f08c379a0000000000000000000000000000000000000000000000000000000008152600401611e7a906147fc565b60405180910390fd5b5f611e8d86610656565b90505f8103611ed1576040517f08c379a0000000000000000000000000000000000000000000000000000000008152600401611ec890614864565b60405180910390fd5b5f60045f8981526020019081526020015f205f8381526020019081526020015f20549050809550505050505092915050565b5f8060065f8473ffffffffffffffffffffffffffffffffffffffff1673ffffffffffffffffffffffffffffffffffffffff1681526020019081526020015f205f0154905080915050919050565b5f805f9054906101000a900473ffffffffffffffffffffffffffffffffffffffff1673ffffffffffffffffffffffffffffffffffffffff16633018205f6040518163ffffffff1660e01b8152600401602060405180830381865afa158015611fba573d5f803e3d5ffd5b505050506040513d601f19601f82011682018060405250810190611fde91906144c8565b90508073ffffffffffffffffffffffffffffffffffffffff163373ffffffffffffffffffffffffffffffffffffffff161461204e576040517f08c379a00000000000000000000000000000000000000000000000000000000081526004016120459061454d565b60405180910390fd5b8160105f6101000a81548173ffffffffffffffffffffffffffffffffffffffff021916908373ffffffffffffffffffffffffffffffffffffffff1602179055505050565b61209a613d43565b5f6120a483610656565b90505f60025f8381526020019081526020015f206040518060800160405290815f82015f9054906101000a900473ffffffffffffffffffffffffffffffffffffffff1673ffffffffffffffffffffffffffffffffffffffff1673ffffffffffffffffffffffffffffffffffffffff168152602001600182015481526020016002820154815260200160038201548152505090508092505050919050565b5f15155f60149054906101000a900460ff16151514612195576040517f08c379a000000000000000000000000000000000000000000000000000000000815260040161218c90614a9a565b60405180910390fd5b61219e8161386d565b60015f60146101000a81548160ff02191690831515021790555050565b5f805f9054906101000a900473ffffffffffffffffffffffffffffffffffffffff1673ffffffffffffffffffffffffffffffffffffffff16633018205f6040518163ffffffff1660e01b8152600401602060405180830381865afa158015612225573d5f803e3d5ffd5b505050506040513d601f19601f8201168201806040525081019061224991906144c8565b90508073ffffffffffffffffffffffffffffffffffffffff163373ffffffffffffffffffffffffffffffffffffffff16146122b9576040517f08c379a00000000000000000000000000000000000000000000000000000000081526004016122b09061454d565b60405180910390fd5b5f8385876122c79190614717565b6122d19190614717565b90508281146122de575f80fd5b8560095f0181905550846009600101819055508360096002018190555082600c819055507f276fb89d8224ffd75e667ef77aa3b75f5d7064a6dd5b8c9b9b8761b8b303a34686868660405161233593929190614ab8565b60405180910390a1505050505050565b5f8060025f8481526020019081526020015f205f015f9054906101000a900473ffffffffffffffffffffffffffffffffffffffff16905080915050919050565b5f80600d8054905090508091505090565b5f805f806123a48686611de6565b90505f6123b0876106c9565b90505f8160c001518260a001516123c79190614717565b90505f6123d388610656565b90505f8103612417576040517f08c379a000000000000000000000000000000000000000000000000000000000815260040161240e90614864565b60405180910390fd5b5f60025f8381526020019081526020015f206003015490505f60025f8481526020019081526020015f206001015490508360025f8581526020019081526020015f20600201541061249d576040517f08c379a000000000000000000000000000000000000000000000000000000000815260040161249490614b5d565b60405180910390fd5b5f6124a88b8d611611565b90508560c0015142101580156124be5750844211155b1561255d578560c0015183101580156124d75750848311155b156124fa578183426124e99190614a1d565b6124f39190614952565b9750612525565b8560c0015183101561252457818660c00151426125179190614a1d565b6125219190614952565b97505b5b601254600a6125349190614caa565b88886125409190614717565b61254a91906149c0565b9850889950505050505050505050612759565b84421115612749578560c001518310156125ab57601254600a6125809190614caa565b82600e5461258e9190614952565b61259891906149c0565b9850889950505050505050505050612759565b805f015115612666575f60018260200151516125c79190614a1d565b90505f826020015182815181106125e1576125e0614487565b5b60200260200101516040015190505f8360200151838151811061260757612606614487565b5b602002602001015160200151828961261f9190614a1d565b6126299190614952565b9050601254600a61263a9190614caa565b818b6126469190614717565b61265091906149c0565b9b508b9c50505050505050505050505050612759565b5f1515815f0151151503612748575f60018d6126829190614a1d565b90505f5b8d811015612735575f6126998e84611611565b9050805f015115612712575f60018260200151516126b79190614a1d565b90505f826020015182815181106126d1576126d0614487565b5b6020026020010151602001518b60a001516126ec9190614952565b9050601254600a6126fd9190614caa565b8161270891906149c0565b9d50505050612735565b60018361271f9190614a1d565b925050808061272d906146d0565b915050612686565b50899a5050505050505050505050612759565b5b5f98508899505050505050505050505b92915050565b5f805f9054906101000a900473ffffffffffffffffffffffffffffffffffffffff1673ffffffffffffffffffffffffffffffffffffffff1663b0f479a16040518163ffffffff1660e01b8152600401602060405180830381865afa1580156127c9573d5f803e3d5ffd5b505050506040513d601f19601f820116820180604052508101906127ed91906144c8565b90508073ffffffffffffffffffffffffffffffffffffffff163373ffffffffffffffffffffffffffffffffffffffff161461285d576040517f08c379a00000000000000000000000000000000000000000000000000000000081526004016128549061454d565b60405180910390fd5b5f600754146128a1576040517f08c379a0000000000000000000000000000000000000000000000000000000008152600401612898906145b5565b60405180910390fd5b60016007819055505f6128b2612385565b90505f81116128f6576040517f08c379a00000000000000000000000000000000000000000000000000000000081526004016128ed9061461d565b60405180910390fd5b5f8311612938576040517f08c379a000000000000000000000000000000000000000000000000000000000815260040161292f90614d3e565b60405180910390fd5b61294384845f613624565b5f600f5f9054906101000a900473ffffffffffffffffffffffffffffffffffffffff1673ffffffffffffffffffffffffffffffffffffffff166370a08231306040518263ffffffff1660e01b815260040161299e9190613ee4565b602060405180830381865afa1580156129b9573d5f803e3d5ffd5b505050506040513d601f19601f820116820180604052508101906129dd9190614d70565b90505f600f5f9054906101000a900473ffffffffffffffffffffffffffffffffffffffff1673ffffffffffffffffffffffffffffffffffffffff166370a08231306040518263ffffffff1660e01b8152600401612a3a9190613ee4565b602060405180830381865afa158015612a55573d5f803e3d5ffd5b505050506040513d601f19601f82011682018060405250810190612a799190614d70565b90505f8282612a889190614a1d565b905085811015612acd576040517f08c379a0000000000000000000000000000000000000000000000000000000008152600401612ac490614de5565b60405180910390fd5b612ad6866132c0565b505050505f600781905550505050565b5f805f9054906101000a900473ffffffffffffffffffffffffffffffffffffffff1673ffffffffffffffffffffffffffffffffffffffff1663cf20d8726040518163ffffffff1660e01b8152600401602060405180830381865afa158015612b50573d5f803e3d5ffd5b505050506040513d601f19601f82011682018060405250810190612b7491906144c8565b90508073ffffffffffffffffffffffffffffffffffffffff163373ffffffffffffffffffffffffffffffffffffffff1614612be4576040517f08c379a0000000000000000000000000000000000000000000000000000000008152600401612bdb9061454d565b60405180910390fd5b5f612bed612385565b90505f811115612e30575f600182612c059190614a1d565b90505f600d8281548110612c1c57612c1b614487565b5b905f5260205f2090600e0201604051806101000160405290815f82016040518060600160405290815f82015f9054906101000a900473ffffffffffffffffffffffffffffffffffffffff1673ffffffffffffffffffffffffffffffffffffffff1673ffffffffffffffffffffffffffffffffffffffff16815260200160018201548152602001600282015f9054906101000a900460ff1615151515815250508152602001600382016040518060600160405290815f82015f9054906101000a900473ffffffffffffffffffffffffffffffffffffffff1673ffffffffffffffffffffffffffffffffffffffff1673ffffffffffffffffffffffffffffffffffffffff16815260200160018201548152602001600282015f9054906101000a900460ff1615151515815250508152602001600682016040518060600160405290815f82015f9054906101000a900473ffffffffffffffffffffffffffffffffffffffff1673ffffffffffffffffffffffffffffffffffffffff1673ffffffffffffffffffffffffffffffffffffffff16815260200160018201548152602001600282015f9054906101000a900460ff1615151515815250508152602001600982015f9054906101000a900460ff16151515158152602001600a8201548152602001600b8201548152602001600c8201548152602001600d8201548152505090505f8160600151905080612e2c575f80fd5b5050505b612e38613d7d565b5f815f019073ffffffffffffffffffffffffffffffffffffffff16908173ffffffffffffffffffffffffffffffffffffffff16815250505f8160400190151590811515815250505f816020018181525050600d6040518061010001604052808381526020018381526020018381526020015f151581526020015f8152602001600e5481526020014281526020015f815250908060018154018082558091505060019003905f5260205f2090600e02015f909190919091505f820151815f015f820151815f015f6101000a81548173ffffffffffffffffffffffffffffffffffffffff021916908373ffffffffffffffffffffffffffffffffffffffff160217905550602082015181600101556040820151816002015f6101000a81548160ff02191690831515021790555050506020820151816003015f820151815f015f6101000a81548173ffffffffffffffffffffffffffffffffffffffff021916908373ffffffffffffffffffffffffffffffffffffffff160217905550602082015181600101556040820151816002015f6101000a81548160ff02191690831515021790555050506040820151816006015f820151815f015f6101000a81548173ffffffffffffffffffffffffffffffffffffffff021916908373ffffffffffffffffffffffffffffffffffffffff160217905550602082015181600101556040820151816002015f6101000a81548160ff02191690831515021790555050506060820151816009015f6101000a81548160ff021916908315150217905550608082015181600a015560a082015181600b015560c082015181600c015560e082015181600d01555050505050565b5f805f9054906101000a900473ffffffffffffffffffffffffffffffffffffffff1673ffffffffffffffffffffffffffffffffffffffff1663893d20e86040518163ffffffff1660e01b8152600401602060405180830381865afa15801561310d573d5f803e3d5ffd5b505050506040513d601f19601f8201168201806040525081019061313191906144c8565b90508073ffffffffffffffffffffffffffffffffffffffff163373ffffffffffffffffffffffffffffffffffffffff16146131a1576040517f08c379a00000000000000000000000000000000000000000000000000000000081526004016131989061454d565b60405180910390fd5b6131aa8261386d565b5050565b5f805f9054906101000a900473ffffffffffffffffffffffffffffffffffffffff1673ffffffffffffffffffffffffffffffffffffffff16633018205f6040518163ffffffff1660e01b8152600401602060405180830381865afa158015613218573d5f803e3d5ffd5b505050506040513d601f19601f8201168201806040525081019061323c91906144c8565b90508073ffffffffffffffffffffffffffffffffffffffff163373ffffffffffffffffffffffffffffffffffffffff16146132ac576040517f08c379a00000000000000000000000000000000000000000000000000000000081526004016132a39061454d565b60405180910390fd5b816011819055505050565b5f808091505090565b5f600f5f9054906101000a900473ffffffffffffffffffffffffffffffffffffffff1673ffffffffffffffffffffffffffffffffffffffff1663a9059cbb33846040518363ffffffff1660e01b815260040161331d929190614e03565b6020604051808303815f875af1158015613339573d5f803e3d5ffd5b505050506040513d601f19601f8201168201806040525081019061335d9190614e54565b905080613368575f80fd5b5050565b5f805f600190505b60015481101561340f575f60025f8381526020019081526020015f206002015490505f60025f8481526020019081526020015f205f015f9054906101000a900473ffffffffffffffffffffffffffffffffffffffff1690508582116133fa575f6133de8883612396565b90505f8111156133f8576001856133f59190614717565b94505b505b50508080613407906146d0565b915050613374565b508091505092915050565b5f80600f5f9054906101000a900473ffffffffffffffffffffffffffffffffffffffff1673ffffffffffffffffffffffffffffffffffffffff166370a08231306040518263ffffffff1660e01b81526004016134769190613ee4565b602060405180830381865afa158015613491573d5f803e3d5ffd5b505050506040513d601f19601f820116820180604052508101906134b59190614d70565b90505f600f5f9054906101000a900473ffffffffffffffffffffffffffffffffffffffff1673ffffffffffffffffffffffffffffffffffffffff166323b872dd3330876040518463ffffffff1660e01b815260040161351693929190614e7f565b6020604051808303815f875af1158015613532573d5f803e3d5ffd5b505050506040513d601f19601f820116820180604052508101906135569190614e54565b905080613561575f80fd5b5f600f5f9054906101000a900473ffffffffffffffffffffffffffffffffffffffff1673ffffffffffffffffffffffffffffffffffffffff166370a08231306040518263ffffffff1660e01b81526004016135bc9190613ee4565b602060405180830381865afa1580156135d7573d5f803e3d5ffd5b505050506040513d601f19601f820116820180604052508101906135fb9190614d70565b90505f838261360a9190614a1d565b905085811015613618575f80fd5b80945050505050919050565b8015613670575f61363484610656565b90505f80820361364c57613647856138af565b600190505b801561365e5761365b85610656565b91505b6136698285856139b7565b50506136d7565b5f1515811515036136d6575f61368584610656565b90505f81036136c9576040517f08c379a00000000000000000000000000000000000000000000000000000000081526004016136c090614efe565b60405180910390fd5b6136d48184846139b7565b505b5b505050565b5f825190505f5b81811015613866578281815181106136fe576136fd614487565b5b602002602001015160065f86848151811061371c5761371b614487565b5b602002602001015173ffffffffffffffffffffffffffffffffffffffff1673ffffffffffffffffffffffffffffffffffffffff1681526020019081526020015f205f015f82825461376d9190614717565b9250508190555060065f85838151811061378a57613789614487565b5b602002602001015173ffffffffffffffffffffffffffffffffffffffff1673ffffffffffffffffffffffffffffffffffffffff1681526020019081526020015f2060010160405180606001604052808781526020016001846137ec9190614717565b815260200185848151811061380457613803614487565b5b6020026020010151815250908060018154018082558091505060019003905f5260205f2090600302015f909190919091505f820151815f015560208201518160010155604082015181600201555050808061385e906146d0565b9150506136e3565b5050505050565b805f806101000a81548173ffffffffffffffffffffffffffffffffffffffff021916908373ffffffffffffffffffffffffffffffffffffffff16021790555050565b6001805f8282546138c09190614717565b9250508190555060015460035f8373ffffffffffffffffffffffffffffffffffffffff1673ffffffffffffffffffffffffffffffffffffffff1681526020019081526020015f20819055505f61391582610656565b90508160025f8381526020019081526020015f205f015f6101000a81548173ffffffffffffffffffffffffffffffffffffffff021916908373ffffffffffffffffffffffffffffffffffffffff1602179055505f60025f8381526020019081526020015f20600101819055504260025f8381526020019081526020015f20600201819055504260025f8381526020019081526020015f20600301819055505050565b5f60025f8581526020019081526020015f206001015490508115613a1c578260025f8681526020019081526020015f206001015f8282546139f89190614717565b925050819055508260085f828254613a109190614717565b92505081905550613ac2565b5f151582151503613ac15760025f8581526020019081526020015f2060010154831115613a7e576040517f08c379a0000000000000000000000000000000000000000000000000000000008152600401613a7590614d3e565b60405180910390fd5b8260025f8681526020019081526020015f206001015f828254613aa19190614a1d565b925050819055508260085f828254613ab99190614a1d565b925050819055505b5b5f60025f8681526020019081526020015f206003015490504260025f8781526020019081526020015f20600301819055505f60025f8781526020019081526020015f206001015490505f613b14611d80565b9050613b2287858484613b37565b613b2e87858584613bf9565b50505050505050565b600160055f8381526020019081526020015f205f8681526020019081526020015f205f015f6101000a81548160ff02191690831515021790555060055f8281526020019081526020015f205f8581526020019081526020015f20600101604051806060016040528085815260200184815260200142815250908060018154018082558091505060019003905f5260205f2090600302015f909190919091505f820151815f01556020820151816001015560408201518160020155505050505050565b5f613c03826106c9565b90505f8160c0015190505f8260a0015190505f8282613c229190614717565b90505f83871015613c40578342613c399190614a1d565b9050613c65565b838710158015613c505750818711155b15613c64578642613c619190614a1d565b90505b5b5f8882613c729190614952565b90508060045f8981526020019081526020015f205f8c81526020019081526020015f205f828254613ca39190614717565b9250508190555050505050505050505050565b60405180606001604052805f81526020015f81526020015f81525090565b604051806101000160405280613ce8613d7d565b8152602001613cf5613d7d565b8152602001613d02613d7d565b81526020015f151581526020015f81526020015f81526020015f81526020015f81525090565b60405180604001604052805f15158152602001606081525090565b60405180608001604052805f73ffffffffffffffffffffffffffffffffffffffff1681526020015f81526020015f81526020015f81525090565b60405180606001604052805f73ffffffffffffffffffffffffffffffffffffffff1681526020015f81526020015f151581525090565b5f819050919050565b613dc581613db3565b82525050565b606082015f820151613ddf5f850182613dbc565b506020820151613df26020850182613dbc565b506040820151613e056040850182613dbc565b50505050565b5f606082019050613e1e5f830184613dcb565b92915050565b613e2d81613db3565b82525050565b5f602082019050613e465f830184613e24565b92915050565b5f80fd5b5f73ffffffffffffffffffffffffffffffffffffffff82169050919050565b5f613e7982613e50565b9050919050565b613e8981613e6f565b8114613e93575f80fd5b50565b5f81359050613ea481613e80565b92915050565b5f60208284031215613ebf57613ebe613e4c565b5b5f613ecc84828501613e96565b91505092915050565b613ede81613e6f565b82525050565b5f602082019050613ef75f830184613ed5565b92915050565b613f0681613db3565b8114613f10575f80fd5b50565b5f81359050613f2181613efd565b92915050565b5f60208284031215613f3c57613f3b613e4c565b5b5f613f4984828501613f13565b91505092915050565b613f5b81613e6f565b82525050565b5f8115159050919050565b613f7581613f61565b82525050565b606082015f820151613f8f5f850182613f52565b506020820151613fa26020850182613dbc565b506040820151613fb56040850182613f6c565b50505050565b6101c082015f820151613fd05f850182613f7b565b506020820151613fe36060850182613f7b565b506040820151613ff660c0850182613f7b565b50606082015161400a610120850182613f6c565b50608082015161401e610140850182613dbc565b5060a0820151614032610160850182613dbc565b5060c0820151614046610180850182613dbc565b5060e082015161405a6101a0850182613dbc565b50505050565b5f6101c0820190506140745f830184613fbb565b92915050565b5f81519050919050565b5f82825260208201905092915050565b5f819050602082019050919050565b606082015f8201516140b75f850182613dbc565b5060208201516140ca6020850182613dbc565b5060408201516140dd6040850182613dbc565b50505050565b5f6140ee83836140a3565b60608301905092915050565b5f602082019050919050565b5f6141108261407a565b61411a8185614084565b935061412583614094565b805f5b8381101561415557815161413c88826140e3565b9750614147836140fa565b925050600181019050614128565b5085935050505092915050565b5f6020820190508181035f83015261417a8184614106565b905092915050565b5f806040838503121561419857614197613e4c565b5b5f6141a585828601613e96565b92505060206141b685828601613f13565b9150509250929050565b5f81519050919050565b5f82825260208201905092915050565b5f819050602082019050919050565b606082015f8201516141fd5f850182613dbc565b5060208201516142106020850182613dbc565b5060408201516142236040850182613dbc565b50505050565b5f61423483836141e9565b60608301905092915050565b5f602082019050919050565b5f614256826141c0565b61426081856141ca565b935061426b836141da565b805f5b8381101561429b5781516142828882614229565b975061428d83614240565b92505060018101905061426e565b5085935050505092915050565b5f604083015f8301516142bd5f860182613f6c565b50602083015184820360208601526142d5828261424c565b9150508091505092915050565b5f6020820190508181035f8301526142fa81846142a8565b905092915050565b5f805f805f60a0868803121561431b5761431a613e4c565b5b5f61432888828901613f13565b955050602061433988828901613e96565b945050604061434a88828901613e96565b935050606061435b88828901613e96565b925050608061436c88828901613f13565b9150509295509295909350565b5f806040838503121561438f5761438e613e4c565b5b5f61439c85828601613f13565b92505060206143ad85828601613e96565b9150509250929050565b608082015f8201516143cb5f850182613f52565b5060208201516143de6020850182613dbc565b5060408201516143f16040850182613dbc565b5060608201516144046060850182613dbc565b50505050565b5f60808201905061441d5f8301846143b7565b92915050565b5f805f806080858703121561443b5761443a613e4c565b5b5f61444887828801613f13565b945050602061445987828801613f13565b935050604061446a87828801613f13565b925050606061447b87828801613f13565b91505092959194509250565b7f4e487b71000000000000000000000000000000000000000000000000000000005f52603260045260245ffd5b5f815190506144c281613e80565b92915050565b5f602082840312156144dd576144dc613e4c565b5b5f6144ea848285016144b4565b91505092915050565b5f82825260208201905092915050565b7f496e76616c69642063616c6c65720000000000000000000000000000000000005f82015250565b5f614537600e836144f3565b915061454282614503565b602082019050919050565b5f6020820190508181035f8301526145648161452b565b9050919050565b7f496c6c6567616c2063616c6c00000000000000000000000000000000000000005f82015250565b5f61459f600c836144f3565b91506145aa8261456b565b602082019050919050565b5f6020820190508181035f8301526145cc81614593565b9050919050565b7f436f6e7472616374206e6f7420737461727465640000000000000000000000005f82015250565b5f6146076014836144f3565b9150614612826145d3565b602082019050919050565b5f6020820190508181035f830152614634816145fb565b9050919050565b7f4e6f207265776172647320746f20636c61696d000000000000000000000000005f82015250565b5f61466f6013836144f3565b915061467a8261463b565b602082019050919050565b5f6020820190508181035f83015261469c81614663565b9050919050565b7f4e487b71000000000000000000000000000000000000000000000000000000005f52601160045260245ffd5b5f6146da82613db3565b91507fffffffffffffffffffffffffffffffffffffffffffffffffffffffffffffffff820361470c5761470b6146a3565b5b600182019050919050565b5f61472182613db3565b915061472c83613db3565b9250828201905080821115614744576147436146a3565b5b92915050565b7f546865206d696e696d756d20616d6f756e74206973206e6f74206d65740000005f82015250565b5f61477e601d836144f3565b91506147898261474a565b602082019050919050565b5f6020820190508181035f8301526147ab81614772565b9050919050565b7f496e76616c69642065706f6368206e756d6265720000000000000000000000005f82015250565b5f6147e66014836144f3565b91506147f1826147b2565b602082019050919050565b5f6020820190508181035f830152614813816147da565b9050919050565b7f55736572206861736e27742072656769737465726564000000000000000000005f82015250565b5f61484e6016836144f3565b91506148598261481a565b602082019050919050565b5f6020820190508181035f83015261487b81614842565b9050919050565b7f45706f636820697320646f6e65000000000000000000000000000000000000005f82015250565b5f6148b6600d836144f3565b91506148c182614882565b602082019050919050565b5f6020820190508181035f8301526148e3816148aa565b9050919050565b7f45706f63682069736e277420646f6e65000000000000000000000000000000005f82015250565b5f61491e6010836144f3565b9150614929826148ea565b602082019050919050565b5f6020820190508181035f83015261494b81614912565b9050919050565b5f61495c82613db3565b915061496783613db3565b925082820261497581613db3565b9150828204841483151761498c5761498b6146a3565b5b5092915050565b7f4e487b71000000000000000000000000000000000000000000000000000000005f52601260045260245ffd5b5f6149ca82613db3565b91506149d583613db3565b9250826149e5576149e4614993565b5b828204905092915050565b7f4e487b71000000000000000000000000000000000000000000000000000000005f52604160045260245ffd5b5f614a2782613db3565b9150614a3283613db3565b9250828203905081811115614a4a57614a496146a3565b5b92915050565b7f436f6e747261637420697320696e697469616c697a656420616c7265616479005f82015250565b5f614a84601f836144f3565b9150614a8f82614a50565b602082019050919050565b5f6020820190508181035f830152614ab181614a78565b9050919050565b5f606082019050614acb5f830186613e24565b614ad86020830185613e24565b614ae56040830184613e24565b949350505050565b7f5573657220686173206e6f742070617274696369706174656420696e207468655f8201527f2065706f63680000000000000000000000000000000000000000000000000000602082015250565b5f614b476026836144f3565b9150614b5282614aed565b604082019050919050565b5f6020820190508181035f830152614b7481614b3b565b9050919050565b5f8160011c9050919050565b5f808291508390505b6001851115614bd057808604811115614bac57614bab6146a3565b5b6001851615614bbb5780820291505b8081029050614bc985614b7b565b9450614b90565b94509492505050565b5f82614be85760019050614ca3565b81614bf5575f9050614ca3565b8160018114614c0b5760028114614c1557614c44565b6001915050614ca3565b60ff841115614c2757614c266146a3565b5b8360020a915084821115614c3e57614c3d6146a3565b5b50614ca3565b5060208310610133831016604e8410600b8410161715614c795782820a905083811115614c7457614c736146a3565b5b614ca3565b614c868484846001614b87565b92509050818404811115614c9d57614c9c6146a3565b5b81810290505b9392505050565b5f614cb482613db3565b9150614cbf83613db3565b9250614cec7fffffffffffffffffffffffffffffffffffffffffffffffffffffffffffffffff8484614bd9565b905092915050565b7f496e76616c696420616d6f756e740000000000000000000000000000000000005f82015250565b5f614d28600e836144f3565b9150614d3382614cf4565b602082019050919050565b5f6020820190508181035f830152614d5581614d1c565b9050919050565b5f81519050614d6a81613efd565b92915050565b5f60208284031215614d8557614d84613e4c565b5b5f614d9284828501614d5c565b91505092915050565b7f436f756c646e27742077697468647261772066726f6d2041706520506f6f6c005f82015250565b5f614dcf601f836144f3565b9150614dda82614d9b565b602082019050919050565b5f6020820190508181035f830152614dfc81614dc3565b9050919050565b5f604082019050614e165f830185613ed5565b614e236020830184613e24565b9392505050565b614e3381613f61565b8114614e3d575f80fd5b50565b5f81519050614e4e81614e2a565b92915050565b5f60208284031215614e6957614e68613e4c565b5b5f614e7684828501614e40565b91505092915050565b5f606082019050614e925f830186613ed5565b614e9f6020830185613ed5565b614eac6040830184613e24565b949350505050565b7f55736572206e6f742072656769737465726564000000000000000000000000005f82015250565b5f614ee86013836144f3565b9150614ef382614eb4565b602082019050919050565b5f6020820190508181035f830152614f1581614edc565b905091905056fea2646970667358221220c91db8f68ff14ca74506330cc8bd3c5570b91daa361962d869abddf4d16549f964736f6c63430008150033",
			"opcodes": "PUSH1 0x80 PUSH1 0x40 MSTORE CALLVALUE DUP1 ISZERO PUSH2 0xF JUMPI PUSH0 DUP1 REVERT JUMPDEST POP PUSH2 0x4F52 DUP1 PUSH2 0x1D PUSH0 CODECOPY PUSH0 RETURN INVALID PUSH1 0x80 PUSH1 0x40 MSTORE CALLVALUE DUP1 ISZERO PUSH2 0xF JUMPI PUSH0 DUP1 REVERT JUMPDEST POP PUSH1 0x4 CALLDATASIZE LT PUSH2 0x1E3 JUMPI PUSH0 CALLDATALOAD PUSH1 0xE0 SHR DUP1 PUSH4 0xA3058071 GT PUSH2 0x10D JUMPI DUP1 PUSH4 0xCA6D83DF GT PUSH2 0xA0 JUMPI DUP1 PUSH4 0xEC20C2E5 GT PUSH2 0x6F JUMPI DUP1 PUSH4 0xEC20C2E5 EQ PUSH2 0x5B1 JUMPI DUP1 PUSH4 0xFA7C828A EQ PUSH2 0x5BB JUMPI DUP1 PUSH4 0xFAD8A559 EQ PUSH2 0x5D7 JUMPI DUP1 PUSH4 0xFD2324DE EQ PUSH2 0x5F3 JUMPI PUSH2 0x1E3 JUMP JUMPDEST DUP1 PUSH4 0xCA6D83DF EQ PUSH2 0x517 JUMPI DUP1 PUSH4 0xCFE8A73B EQ PUSH2 0x547 JUMPI DUP1 PUSH4 0xD474FBF7 EQ PUSH2 0x565 JUMPI DUP1 PUSH4 0xDB518DB2 EQ PUSH2 0x595 JUMPI PUSH2 0x1E3 JUMP JUMPDEST DUP1 PUSH4 0xAD954E1A GT PUSH2 0xDC JUMPI DUP1 PUSH4 0xAD954E1A EQ PUSH2 0x493 JUMPI DUP1 PUSH4 0xB3A7834D EQ PUSH2 0x4AF JUMPI DUP1 PUSH4 0xC4D66DE8 EQ PUSH2 0x4DF JUMPI DUP1 PUSH4 0xC51475B9 EQ PUSH2 0x4FB JUMPI PUSH2 0x1E3 JUMP JUMPDEST DUP1 PUSH4 0xA3058071 EQ PUSH2 0x3F9 JUMPI DUP1 PUSH4 0xA3D74F06 EQ PUSH2 0x415 JUMPI DUP1 PUSH4 0xA3FB7050 EQ PUSH2 0x433 JUMPI DUP1 PUSH4 0xA583024B EQ PUSH2 0x463 JUMPI PUSH2 0x1E3 JUMP JUMPDEST DUP1 PUSH4 0x1AC6D19D GT PUSH2 0x185 JUMPI DUP1 PUSH4 0x2D6552B3 GT PUSH2 0x154 JUMPI DUP1 PUSH4 0x2D6552B3 EQ PUSH2 0x375 JUMPI DUP1 PUSH4 0x2F4F21E2 EQ PUSH2 0x391 JUMPI DUP1 PUSH4 0x30024DFE EQ PUSH2 0x3AD JUMPI DUP1 PUSH4 0x858C7585 EQ PUSH2 0x3C9 JUMPI PUSH2 0x1E3 JUMP JUMPDEST DUP1 PUSH4 0x1AC6D19D EQ PUSH2 0x2ED JUMPI DUP1 PUSH4 0x1E46BAF7 EQ PUSH2 0x31D JUMPI DUP1 PUSH4 0x26BE90BF EQ PUSH2 0x33B JUMPI DUP1 PUSH4 0x2C26EB46 EQ PUSH2 0x359 JUMPI PUSH2 0x1E3 JUMP JUMPDEST DUP1 PUSH4 0xFCE03B9 GT PUSH2 0x1C1 JUMPI DUP1 PUSH4 0xFCE03B9 EQ PUSH2 0x253 JUMPI DUP1 PUSH4 0x135022C2 EQ PUSH2 0x271 JUMPI DUP1 PUSH4 0x144FA6D7 EQ PUSH2 0x2A1 JUMPI DUP1 PUSH4 0x18703DA5 EQ PUSH2 0x2BD JUMPI PUSH2 0x1E3 JUMP JUMPDEST DUP1 PUSH4 0x39DA66E EQ PUSH2 0x1E7 JUMPI DUP1 PUSH4 0x95D0C94 EQ PUSH2 0x205 JUMPI DUP1 PUSH4 0xEF12AA9 EQ PUSH2 0x223 JUMPI JUMPDEST PUSH0 DUP1 REVERT JUMPDEST PUSH2 0x1EF PUSH2 0x611 JUMP JUMPDEST PUSH1 0x40 MLOAD PUSH2 0x1FC SWAP2 SWAP1 PUSH2 0x3E0B JUMP JUMPDEST PUSH1 0x40 MLOAD DUP1 SWAP2 SUB SWAP1 RETURN JUMPDEST PUSH2 0x20D PUSH2 0x648 JUMP JUMPDEST PUSH1 0x40 MLOAD PUSH2 0x21A SWAP2 SWAP1 PUSH2 0x3E33 JUMP JUMPDEST PUSH1 0x40 MLOAD DUP1 SWAP2 SUB SWAP1 RETURN JUMPDEST PUSH2 0x23D PUSH1 0x4 DUP1 CALLDATASIZE SUB DUP2 ADD SWAP1 PUSH2 0x238 SWAP2 SWAP1 PUSH2 0x3EAA JUMP JUMPDEST PUSH2 0x656 JUMP JUMPDEST PUSH1 0x40 MLOAD PUSH2 0x24A SWAP2 SWAP1 PUSH2 0x3E33 JUMP JUMPDEST PUSH1 0x40 MLOAD DUP1 SWAP2 SUB SWAP1 RETURN JUMPDEST PUSH2 0x25B PUSH2 0x6A1 JUMP JUMPDEST PUSH1 0x40 MLOAD PUSH2 0x268 SWAP2 SWAP1 PUSH2 0x3EE4 JUMP JUMPDEST PUSH1 0x40 MLOAD DUP1 SWAP2 SUB SWAP1 RETURN JUMPDEST PUSH2 0x28B PUSH1 0x4 DUP1 CALLDATASIZE SUB DUP2 ADD SWAP1 PUSH2 0x286 SWAP2 SWAP1 PUSH2 0x3F27 JUMP JUMPDEST PUSH2 0x6C9 JUMP JUMPDEST PUSH1 0x40 MLOAD PUSH2 0x298 SWAP2 SWAP1 PUSH2 0x4060 JUMP JUMPDEST PUSH1 0x40 MLOAD DUP1 SWAP2 SUB SWAP1 RETURN JUMPDEST PUSH2 0x2BB PUSH1 0x4 DUP1 CALLDATASIZE SUB DUP2 ADD SWAP1 PUSH2 0x2B6 SWAP2 SWAP1 PUSH2 0x3EAA JUMP JUMPDEST PUSH2 0x8EE JUMP JUMPDEST STOP JUMPDEST PUSH2 0x2D7 PUSH1 0x4 DUP1 CALLDATASIZE SUB DUP2 ADD SWAP1 PUSH2 0x2D2 SWAP2 SWAP1 PUSH2 0x3EAA JUMP JUMPDEST PUSH2 0xA30 JUMP JUMPDEST PUSH1 0x40 MLOAD PUSH2 0x2E4 SWAP2 SWAP1 PUSH2 0x4162 JUMP JUMPDEST PUSH1 0x40 MLOAD DUP1 SWAP2 SUB SWAP1 RETURN JUMPDEST PUSH2 0x307 PUSH1 0x4 DUP1 CALLDATASIZE SUB DUP2 ADD SWAP1 PUSH2 0x302 SWAP2 SWAP1 PUSH2 0x3EAA JUMP JUMPDEST PUSH2 0xAEE JUMP JUMPDEST PUSH1 0x40 MLOAD PUSH2 0x314 SWAP2 SWAP1 PUSH2 0x3E33 JUMP JUMPDEST PUSH1 0x40 MLOAD DUP1 SWAP2 SUB SWAP1 RETURN JUMPDEST PUSH2 0x325 PUSH2 0xF9D JUMP JUMPDEST PUSH1 0x40 MLOAD PUSH2 0x332 SWAP2 SWAP1 PUSH2 0x3E33 JUMP JUMPDEST PUSH1 0x40 MLOAD DUP1 SWAP2 SUB SWAP1 RETURN JUMPDEST PUSH2 0x343 PUSH2 0x109F JUMP JUMPDEST PUSH1 0x40 MLOAD PUSH2 0x350 SWAP2 SWAP1 PUSH2 0x3E33 JUMP JUMPDEST PUSH1 0x40 MLOAD DUP1 SWAP2 SUB SWAP1 RETURN JUMPDEST PUSH2 0x373 PUSH1 0x4 DUP1 CALLDATASIZE SUB DUP2 ADD SWAP1 PUSH2 0x36E SWAP2 SWAP1 PUSH2 0x3F27 JUMP JUMPDEST PUSH2 0x10AD JUMP JUMPDEST STOP JUMPDEST PUSH2 0x38F PUSH1 0x4 DUP1 CALLDATASIZE SUB DUP2 ADD SWAP1 PUSH2 0x38A SWAP2 SWAP1 PUSH2 0x3F27 JUMP JUMPDEST PUSH2 0x11FD JUMP JUMPDEST STOP JUMPDEST PUSH2 0x3AB PUSH1 0x4 DUP1 CALLDATASIZE SUB DUP2 ADD SWAP1 PUSH2 0x3A6 SWAP2 SWAP1 PUSH2 0x4182 JUMP JUMPDEST PUSH2 0x1306 JUMP JUMPDEST STOP JUMPDEST PUSH2 0x3C7 PUSH1 0x4 DUP1 CALLDATASIZE SUB DUP2 ADD SWAP1 PUSH2 0x3C2 SWAP2 SWAP1 PUSH2 0x3F27 JUMP JUMPDEST PUSH2 0x1508 JUMP JUMPDEST STOP JUMPDEST PUSH2 0x3E3 PUSH1 0x4 DUP1 CALLDATASIZE SUB DUP2 ADD SWAP1 PUSH2 0x3DE SWAP2 SWAP1 PUSH2 0x4182 JUMP JUMPDEST PUSH2 0x1611 JUMP JUMPDEST PUSH1 0x40 MLOAD PUSH2 0x3F0 SWAP2 SWAP1 PUSH2 0x42E2 JUMP JUMPDEST PUSH1 0x40 MLOAD DUP1 SWAP2 SUB SWAP1 RETURN JUMPDEST PUSH2 0x413 PUSH1 0x4 DUP1 CALLDATASIZE SUB DUP2 ADD SWAP1 PUSH2 0x40E SWAP2 SWAP1 PUSH2 0x4302 JUMP JUMPDEST PUSH2 0x17D1 JUMP JUMPDEST STOP JUMPDEST PUSH2 0x41D PUSH2 0x1D80 JUMP JUMPDEST PUSH1 0x40 MLOAD PUSH2 0x42A SWAP2 SWAP1 PUSH2 0x3E33 JUMP JUMPDEST PUSH1 0x40 MLOAD DUP1 SWAP2 SUB SWAP1 RETURN JUMPDEST PUSH2 0x44D PUSH1 0x4 DUP1 CALLDATASIZE SUB DUP2 ADD SWAP1 PUSH2 0x448 SWAP2 SWAP1 PUSH2 0x4379 JUMP JUMPDEST PUSH2 0x1DE6 JUMP JUMPDEST PUSH1 0x40 MLOAD PUSH2 0x45A SWAP2 SWAP1 PUSH2 0x3E33 JUMP JUMPDEST PUSH1 0x40 MLOAD DUP1 SWAP2 SUB SWAP1 RETURN JUMPDEST PUSH2 0x47D PUSH1 0x4 DUP1 CALLDATASIZE SUB DUP2 ADD SWAP1 PUSH2 0x478 SWAP2 SWAP1 PUSH2 0x3EAA JUMP JUMPDEST PUSH2 0x1F03 JUMP JUMPDEST PUSH1 0x40 MLOAD PUSH2 0x48A SWAP2 SWAP1 PUSH2 0x3E33 JUMP JUMPDEST PUSH1 0x40 MLOAD DUP1 SWAP2 SUB SWAP1 RETURN JUMPDEST PUSH2 0x4AD PUSH1 0x4 DUP1 CALLDATASIZE SUB DUP2 ADD SWAP1 PUSH2 0x4A8 SWAP2 SWAP1 PUSH2 0x3EAA JUMP JUMPDEST PUSH2 0x1F50 JUMP JUMPDEST STOP JUMPDEST PUSH2 0x4C9 PUSH1 0x4 DUP1 CALLDATASIZE SUB DUP2 ADD SWAP1 PUSH2 0x4C4 SWAP2 SWAP1 PUSH2 0x3EAA JUMP JUMPDEST PUSH2 0x2092 JUMP JUMPDEST PUSH1 0x40 MLOAD PUSH2 0x4D6 SWAP2 SWAP1 PUSH2 0x440A JUMP JUMPDEST PUSH1 0x40 MLOAD DUP1 SWAP2 SUB SWAP1 RETURN JUMPDEST PUSH2 0x4F9 PUSH1 0x4 DUP1 CALLDATASIZE SUB DUP2 ADD SWAP1 PUSH2 0x4F4 SWAP2 SWAP1 PUSH2 0x3EAA JUMP JUMPDEST PUSH2 0x2141 JUMP JUMPDEST STOP JUMPDEST PUSH2 0x515 PUSH1 0x4 DUP1 CALLDATASIZE SUB DUP2 ADD SWAP1 PUSH2 0x510 SWAP2 SWAP1 PUSH2 0x4423 JUMP JUMPDEST PUSH2 0x21BB JUMP JUMPDEST STOP JUMPDEST PUSH2 0x531 PUSH1 0x4 DUP1 CALLDATASIZE SUB DUP2 ADD SWAP1 PUSH2 0x52C SWAP2 SWAP1 PUSH2 0x3F27 JUMP JUMPDEST PUSH2 0x2345 JUMP JUMPDEST PUSH1 0x40 MLOAD PUSH2 0x53E SWAP2 SWAP1 PUSH2 0x3EE4 JUMP JUMPDEST PUSH1 0x40 MLOAD DUP1 SWAP2 SUB SWAP1 RETURN JUMPDEST PUSH2 0x54F PUSH2 0x2385 JUMP JUMPDEST PUSH1 0x40 MLOAD PUSH2 0x55C SWAP2 SWAP1 PUSH2 0x3E33 JUMP JUMPDEST PUSH1 0x40 MLOAD DUP1 SWAP2 SUB SWAP1 RETURN JUMPDEST PUSH2 0x57F PUSH1 0x4 DUP1 CALLDATASIZE SUB DUP2 ADD SWAP1 PUSH2 0x57A SWAP2 SWAP1 PUSH2 0x4379 JUMP JUMPDEST PUSH2 0x2396 JUMP JUMPDEST PUSH1 0x40 MLOAD PUSH2 0x58C SWAP2 SWAP1 PUSH2 0x3E33 JUMP JUMPDEST PUSH1 0x40 MLOAD DUP1 SWAP2 SUB SWAP1 RETURN JUMPDEST PUSH2 0x5AF PUSH1 0x4 DUP1 CALLDATASIZE SUB DUP2 ADD SWAP1 PUSH2 0x5AA SWAP2 SWAP1 PUSH2 0x4182 JUMP JUMPDEST PUSH2 0x275F JUMP JUMPDEST STOP JUMPDEST PUSH2 0x5B9 PUSH2 0x2AE6 JUMP JUMPDEST STOP JUMPDEST PUSH2 0x5D5 PUSH1 0x4 DUP1 CALLDATASIZE SUB DUP2 ADD SWAP1 PUSH2 0x5D0 SWAP2 SWAP1 PUSH2 0x3EAA JUMP JUMPDEST PUSH2 0x30A3 JUMP JUMPDEST STOP JUMPDEST PUSH2 0x5F1 PUSH1 0x4 DUP1 CALLDATASIZE SUB DUP2 ADD SWAP1 PUSH2 0x5EC SWAP2 SWAP1 PUSH2 0x3F27 JUMP JUMPDEST PUSH2 0x31AE JUMP JUMPDEST STOP JUMPDEST PUSH2 0x5FB PUSH2 0x32B7 JUMP JUMPDEST PUSH1 0x40 MLOAD PUSH2 0x608 SWAP2 SWAP1 PUSH2 0x3E33 JUMP JUMPDEST PUSH1 0x40 MLOAD DUP1 SWAP2 SUB SWAP1 RETURN JUMPDEST PUSH2 0x619 PUSH2 0x3CB6 JUMP JUMPDEST PUSH1 0x9 PUSH1 0x40 MLOAD DUP1 PUSH1 0x60 ADD PUSH1 0x40 MSTORE SWAP1 DUP2 PUSH0 DUP3 ADD SLOAD DUP2 MSTORE PUSH1 0x20 ADD PUSH1 0x1 DUP3 ADD SLOAD DUP2 MSTORE PUSH1 0x20 ADD PUSH1 0x2 DUP3 ADD SLOAD DUP2 MSTORE POP POP SWAP1 POP SWAP1 JUMP JUMPDEST PUSH0 DUP1 PUSH1 0x1 SLOAD SWAP1 POP DUP1 SWAP2 POP POP SWAP1 JUMP JUMPDEST PUSH0 DUP1 PUSH1 0x3 PUSH0 DUP5 PUSH20 0xFFFFFFFFFFFFFFFFFFFFFFFFFFFFFFFFFFFFFFFF AND PUSH20 0xFFFFFFFFFFFFFFFFFFFFFFFFFFFFFFFFFFFFFFFF AND DUP2 MSTORE PUSH1 0x20 ADD SWAP1 DUP2 MSTORE PUSH1 0x20 ADD PUSH0 KECCAK256 SLOAD SWAP1 POP DUP1 SWAP2 POP POP SWAP2 SWAP1 POP JUMP JUMPDEST PUSH0 PUSH1 0xF PUSH0 SWAP1 SLOAD SWAP1 PUSH2 0x100 EXP SWAP1 DIV PUSH20 0xFFFFFFFFFFFFFFFFFFFFFFFFFFFFFFFFFFFFFFFF AND SWAP1 POP SWAP1 JUMP JUMPDEST PUSH2 0x6D1 PUSH2 0x3CD4 JUMP JUMPDEST PUSH0 PUSH1 0xD DUP4 DUP2 SLOAD DUP2 LT PUSH2 0x6E6 JUMPI PUSH2 0x6E5 PUSH2 0x4487 JUMP JUMPDEST JUMPDEST SWAP1 PUSH0 MSTORE PUSH1 0x20 PUSH0 KECCAK256 SWAP1 PUSH1 0xE MUL ADD PUSH1 0x40 MLOAD DUP1 PUSH2 0x100 ADD PUSH1 0x40 MSTORE SWAP1 DUP2 PUSH0 DUP3 ADD PUSH1 0x40 MLOAD DUP1 PUSH1 0x60 ADD PUSH1 0x40 MSTORE SWAP1 DUP2 PUSH0 DUP3 ADD PUSH0 SWAP1 SLOAD SWAP1 PUSH2 0x100 EXP SWAP1 DIV PUSH20 0xFFFFFFFFFFFFFFFFFFFFFFFFFFFFFFFFFFFFFFFF AND PUSH20 0xFFFFFFFFFFFFFFFFFFFFFFFFFFFFFFFFFFFFFFFF AND PUSH20 0xFFFFFFFFFFFFFFFFFFFFFFFFFFFFFFFFFFFFFFFF AND DUP2 MSTORE PUSH1 0x20 ADD PUSH1 0x1 DUP3 ADD SLOAD DUP2 MSTORE PUSH1 0x20 ADD PUSH1 0x2 DUP3 ADD PUSH0 SWAP1 SLOAD SWAP1 PUSH2 0x100 EXP SWAP1 DIV PUSH1 0xFF AND ISZERO ISZERO ISZERO ISZERO DUP2 MSTORE POP POP DUP2 MSTORE PUSH1 0x20 ADD PUSH1 0x3 DUP3 ADD PUSH1 0x40 MLOAD DUP1 PUSH1 0x60 ADD PUSH1 0x40 MSTORE SWAP1 DUP2 PUSH0 DUP3 ADD PUSH0 SWAP1 SLOAD SWAP1 PUSH2 0x100 EXP SWAP1 DIV PUSH20 0xFFFFFFFFFFFFFFFFFFFFFFFFFFFFFFFFFFFFFFFF AND PUSH20 0xFFFFFFFFFFFFFFFFFFFFFFFFFFFFFFFFFFFFFFFF AND PUSH20 0xFFFFFFFFFFFFFFFFFFFFFFFFFFFFFFFFFFFFFFFF AND DUP2 MSTORE PUSH1 0x20 ADD PUSH1 0x1 DUP3 ADD SLOAD DUP2 MSTORE PUSH1 0x20 ADD PUSH1 0x2 DUP3 ADD PUSH0 SWAP1 SLOAD SWAP1 PUSH2 0x100 EXP SWAP1 DIV PUSH1 0xFF AND ISZERO ISZERO ISZERO ISZERO DUP2 MSTORE POP POP DUP2 MSTORE PUSH1 0x20 ADD PUSH1 0x6 DUP3 ADD PUSH1 0x40 MLOAD DUP1 PUSH1 0x60 ADD PUSH1 0x40 MSTORE SWAP1 DUP2 PUSH0 DUP3 ADD PUSH0 SWAP1 SLOAD SWAP1 PUSH2 0x100 EXP SWAP1 DIV PUSH20 0xFFFFFFFFFFFFFFFFFFFFFFFFFFFFFFFFFFFFFFFF AND PUSH20 0xFFFFFFFFFFFFFFFFFFFFFFFFFFFFFFFFFFFFFFFF AND PUSH20 0xFFFFFFFFFFFFFFFFFFFFFFFFFFFFFFFFFFFFFFFF AND DUP2 MSTORE PUSH1 0x20 ADD PUSH1 0x1 DUP3 ADD SLOAD DUP2 MSTORE PUSH1 0x20 ADD PUSH1 0x2 DUP3 ADD PUSH0 SWAP1 SLOAD SWAP1 PUSH2 0x100 EXP SWAP1 DIV PUSH1 0xFF AND ISZERO ISZERO ISZERO ISZERO DUP2 MSTORE POP POP DUP2 MSTORE PUSH1 0x20 ADD PUSH1 0x9 DUP3 ADD PUSH0 SWAP1 SLOAD SWAP1 PUSH2 0x100 EXP SWAP1 DIV PUSH1 0xFF AND ISZERO ISZERO ISZERO ISZERO DUP2 MSTORE PUSH1 0x20 ADD PUSH1 0xA DUP3 ADD SLOAD DUP2 MSTORE PUSH1 0x20 ADD PUSH1 0xB DUP3 ADD SLOAD DUP2 MSTORE PUSH1 0x20 ADD PUSH1 0xC DUP3 ADD SLOAD DUP2 MSTORE PUSH1 0x20 ADD PUSH1 0xD DUP3 ADD SLOAD DUP2 MSTORE POP POP SWAP1 POP DUP1 SWAP2 POP POP SWAP2 SWAP1 POP JUMP JUMPDEST PUSH0 DUP1 PUSH0 SWAP1 SLOAD SWAP1 PUSH2 0x100 EXP SWAP1 DIV PUSH20 0xFFFFFFFFFFFFFFFFFFFFFFFFFFFFFFFFFFFFFFFF AND PUSH20 0xFFFFFFFFFFFFFFFFFFFFFFFFFFFFFFFFFFFFFFFF AND PUSH4 0x3018205F PUSH1 0x40 MLOAD DUP2 PUSH4 0xFFFFFFFF AND PUSH1 0xE0 SHL DUP2 MSTORE PUSH1 0x4 ADD PUSH1 0x20 PUSH1 0x40 MLOAD DUP1 DUP4 SUB DUP2 DUP7 GAS STATICCALL ISZERO DUP1 ISZERO PUSH2 0x958 JUMPI RETURNDATASIZE PUSH0 DUP1 RETURNDATACOPY RETURNDATASIZE PUSH0 REVERT JUMPDEST POP POP POP POP PUSH1 0x40 MLOAD RETURNDATASIZE PUSH1 0x1F NOT PUSH1 0x1F DUP3 ADD AND DUP3 ADD DUP1 PUSH1 0x40 MSTORE POP DUP2 ADD SWAP1 PUSH2 0x97C SWAP2 SWAP1 PUSH2 0x44C8 JUMP JUMPDEST SWAP1 POP DUP1 PUSH20 0xFFFFFFFFFFFFFFFFFFFFFFFFFFFFFFFFFFFFFFFF AND CALLER PUSH20 0xFFFFFFFFFFFFFFFFFFFFFFFFFFFFFFFFFFFFFFFF AND EQ PUSH2 0x9EC JUMPI PUSH1 0x40 MLOAD PUSH32 0x8C379A000000000000000000000000000000000000000000000000000000000 DUP2 MSTORE PUSH1 0x4 ADD PUSH2 0x9E3 SWAP1 PUSH2 0x454D JUMP JUMPDEST PUSH1 0x40 MLOAD DUP1 SWAP2 SUB SWAP1 REVERT JUMPDEST DUP2 PUSH1 0xF PUSH0 PUSH2 0x100 EXP DUP2 SLOAD DUP2 PUSH20 0xFFFFFFFFFFFFFFFFFFFFFFFFFFFFFFFFFFFFFFFF MUL NOT AND SWAP1 DUP4 PUSH20 0xFFFFFFFFFFFFFFFFFFFFFFFFFFFFFFFFFFFFFFFF AND MUL OR SWAP1 SSTORE POP POP POP JUMP JUMPDEST PUSH1 0x60 PUSH0 PUSH1 0x6 PUSH0 DUP5 PUSH20 0xFFFFFFFFFFFFFFFFFFFFFFFFFFFFFFFFFFFFFFFF AND PUSH20 0xFFFFFFFFFFFFFFFFFFFFFFFFFFFFFFFFFFFFFFFF AND DUP2 MSTORE PUSH1 0x20 ADD SWAP1 DUP2 MSTORE PUSH1 0x20 ADD PUSH0 KECCAK256 PUSH1 0x1 ADD DUP1 SLOAD DUP1 PUSH1 0x20 MUL PUSH1 0x20 ADD PUSH1 0x40 MLOAD SWAP1 DUP2 ADD PUSH1 0x40 MSTORE DUP1 SWAP3 SWAP2 SWAP1 DUP2 DUP2 MSTORE PUSH1 0x20 ADD PUSH0 SWAP1 JUMPDEST DUP3 DUP3 LT ISZERO PUSH2 0xADF JUMPI DUP4 DUP3 SWAP1 PUSH0 MSTORE PUSH1 0x20 PUSH0 KECCAK256 SWAP1 PUSH1 0x3 MUL ADD PUSH1 0x40 MLOAD DUP1 PUSH1 0x60 ADD PUSH1 0x40 MSTORE SWAP1 DUP2 PUSH0 DUP3 ADD SLOAD DUP2 MSTORE PUSH1 0x20 ADD PUSH1 0x1 DUP3 ADD SLOAD DUP2 MSTORE PUSH1 0x20 ADD PUSH1 0x2 DUP3 ADD SLOAD DUP2 MSTORE POP POP DUP2 MSTORE PUSH1 0x20 ADD SWAP1 PUSH1 0x1 ADD SWAP1 PUSH2 0xA92 JUMP JUMPDEST POP POP POP POP SWAP1 POP DUP1 SWAP2 POP POP SWAP2 SWAP1 POP JUMP JUMPDEST PUSH0 DUP1 PUSH0 DUP1 SLOAD SWAP1 PUSH2 0x100 EXP SWAP1 DIV PUSH20 0xFFFFFFFFFFFFFFFFFFFFFFFFFFFFFFFFFFFFFFFF AND PUSH20 0xFFFFFFFFFFFFFFFFFFFFFFFFFFFFFFFFFFFFFFFF AND PUSH4 0xB0F479A1 PUSH1 0x40 MLOAD DUP2 PUSH4 0xFFFFFFFF AND PUSH1 0xE0 SHL DUP2 MSTORE PUSH1 0x4 ADD PUSH1 0x20 PUSH1 0x40 MLOAD DUP1 DUP4 SUB DUP2 DUP7 GAS STATICCALL ISZERO DUP1 ISZERO PUSH2 0xB58 JUMPI RETURNDATASIZE PUSH0 DUP1 RETURNDATACOPY RETURNDATASIZE PUSH0 REVERT JUMPDEST POP POP POP POP PUSH1 0x40 MLOAD RETURNDATASIZE PUSH1 0x1F NOT PUSH1 0x1F DUP3 ADD AND DUP3 ADD DUP1 PUSH1 0x40 MSTORE POP DUP2 ADD SWAP1 PUSH2 0xB7C SWAP2 SWAP1 PUSH2 0x44C8 JUMP JUMPDEST SWAP1 POP DUP1 PUSH20 0xFFFFFFFFFFFFFFFFFFFFFFFFFFFFFFFFFFFFFFFF AND CALLER PUSH20 0xFFFFFFFFFFFFFFFFFFFFFFFFFFFFFFFFFFFFFFFF AND EQ PUSH2 0xBEC JUMPI PUSH1 0x40 MLOAD PUSH32 0x8C379A000000000000000000000000000000000000000000000000000000000 DUP2 MSTORE PUSH1 0x4 ADD PUSH2 0xBE3 SWAP1 PUSH2 0x454D JUMP JUMPDEST PUSH1 0x40 MLOAD DUP1 SWAP2 SUB SWAP1 REVERT JUMPDEST PUSH0 PUSH1 0x7 SLOAD EQ PUSH2 0xC30 JUMPI PUSH1 0x40 MLOAD PUSH32 0x8C379A000000000000000000000000000000000000000000000000000000000 DUP2 MSTORE PUSH1 0x4 ADD PUSH2 0xC27 SWAP1 PUSH2 0x45B5 JUMP JUMPDEST PUSH1 0x40 MLOAD DUP1 SWAP2 SUB SWAP1 REVERT JUMPDEST PUSH1 0x1 PUSH1 0x7 DUP2 SWAP1 SSTORE POP PUSH0 PUSH2 0xC41 PUSH2 0x2385 JUMP JUMPDEST SWAP1 POP PUSH0 DUP2 GT PUSH2 0xC85 JUMPI PUSH1 0x40 MLOAD PUSH32 0x8C379A000000000000000000000000000000000000000000000000000000000 DUP2 MSTORE PUSH1 0x4 ADD PUSH2 0xC7C SWAP1 PUSH2 0x461D JUMP JUMPDEST PUSH1 0x40 MLOAD DUP1 SWAP2 SUB SWAP1 REVERT JUMPDEST PUSH0 PUSH1 0x6 PUSH0 DUP7 PUSH20 0xFFFFFFFFFFFFFFFFFFFFFFFFFFFFFFFFFFFFFFFF AND PUSH20 0xFFFFFFFFFFFFFFFFFFFFFFFFFFFFFFFFFFFFFFFF AND DUP2 MSTORE PUSH1 0x20 ADD SWAP1 DUP2 MSTORE PUSH1 0x20 ADD PUSH0 KECCAK256 PUSH0 ADD SLOAD SWAP1 POP PUSH0 DUP2 GT PUSH2 0xD0A JUMPI PUSH1 0x40 MLOAD PUSH32 0x8C379A000000000000000000000000000000000000000000000000000000000 DUP2 MSTORE PUSH1 0x4 ADD PUSH2 0xD01 SWAP1 PUSH2 0x4685 JUMP JUMPDEST PUSH1 0x40 MLOAD DUP1 SWAP2 SUB SWAP1 REVERT JUMPDEST PUSH0 PUSH1 0x6 PUSH0 DUP8 PUSH20 0xFFFFFFFFFFFFFFFFFFFFFFFFFFFFFFFFFFFFFFFF AND PUSH20 0xFFFFFFFFFFFFFFFFFFFFFFFFFFFFFFFFFFFFFFFF AND DUP2 MSTORE PUSH1 0x20 ADD SWAP1 DUP2 MSTORE PUSH1 0x20 ADD PUSH0 KECCAK256 PUSH0 ADD DUP2 SWAP1 SSTORE POP PUSH0 PUSH1 0x6 PUSH0 DUP8 PUSH20 0xFFFFFFFFFFFFFFFFFFFFFFFFFFFFFFFFFFFFFFFF AND PUSH20 0xFFFFFFFFFFFFFFFFFFFFFFFFFFFFFFFFFFFFFFFF AND DUP2 MSTORE PUSH1 0x20 ADD SWAP1 DUP2 MSTORE PUSH1 0x20 ADD PUSH0 KECCAK256 PUSH1 0x1 ADD DUP1 SLOAD SWAP1 POP SWAP1 POP PUSH0 JUMPDEST DUP2 DUP2 LT ISZERO PUSH2 0xF80 JUMPI PUSH0 PUSH1 0x6 PUSH0 DUP10 PUSH20 0xFFFFFFFFFFFFFFFFFFFFFFFFFFFFFFFFFFFFFFFF AND PUSH20 0xFFFFFFFFFFFFFFFFFFFFFFFFFFFFFFFFFFFFFFFF AND DUP2 MSTORE PUSH1 0x20 ADD SWAP1 DUP2 MSTORE PUSH1 0x20 ADD PUSH0 KECCAK256 PUSH1 0x1 ADD DUP3 DUP2 SLOAD DUP2 LT PUSH2 0xDF2 JUMPI PUSH2 0xDF1 PUSH2 0x4487 JUMP JUMPDEST JUMPDEST SWAP1 PUSH0 MSTORE PUSH1 0x20 PUSH0 KECCAK256 SWAP1 PUSH1 0x3 MUL ADD PUSH0 ADD SLOAD SWAP1 POP PUSH0 PUSH1 0x6 PUSH0 DUP11 PUSH20 0xFFFFFFFFFFFFFFFFFFFFFFFFFFFFFFFFFFFFFFFF AND PUSH20 0xFFFFFFFFFFFFFFFFFFFFFFFFFFFFFFFFFFFFFFFF AND DUP2 MSTORE PUSH1 0x20 ADD SWAP1 DUP2 MSTORE PUSH1 0x20 ADD PUSH0 KECCAK256 PUSH1 0x1 ADD DUP4 DUP2 SLOAD DUP2 LT PUSH2 0xE56 JUMPI PUSH2 0xE55 PUSH2 0x4487 JUMP JUMPDEST JUMPDEST SWAP1 PUSH0 MSTORE PUSH1 0x20 PUSH0 KECCAK256 SWAP1 PUSH1 0x3 MUL ADD PUSH1 0x1 ADD SLOAD SWAP1 POP PUSH0 DUP1 PUSH1 0xD DUP5 DUP2 SLOAD DUP2 LT PUSH2 0xE7E JUMPI PUSH2 0xE7D PUSH2 0x4487 JUMP JUMPDEST JUMPDEST SWAP1 PUSH0 MSTORE PUSH1 0x20 PUSH0 KECCAK256 SWAP1 PUSH1 0xE MUL ADD SWAP1 POP PUSH1 0x1 DUP4 SUB PUSH2 0xED5 JUMPI PUSH0 ISZERO ISZERO DUP2 PUSH0 ADD PUSH1 0x2 ADD PUSH0 SWAP1 SLOAD SWAP1 PUSH2 0x100 EXP SWAP1 DIV PUSH1 0xFF AND ISZERO ISZERO SUB PUSH2 0xED0 JUMPI PUSH1 0x1 DUP2 PUSH0 ADD PUSH1 0x2 ADD PUSH0 PUSH2 0x100 EXP DUP2 SLOAD DUP2 PUSH1 0xFF MUL NOT AND SWAP1 DUP4 ISZERO ISZERO MUL OR SWAP1 SSTORE POP JUMPDEST PUSH2 0xF69 JUMP JUMPDEST PUSH1 0x2 DUP4 SUB PUSH2 0xF20 JUMPI PUSH0 ISZERO ISZERO DUP2 PUSH1 0x3 ADD PUSH1 0x2 ADD PUSH0 SWAP1 SLOAD SWAP1 PUSH2 0x100 EXP SWAP1 DIV PUSH1 0xFF AND ISZERO ISZERO SUB PUSH2 0xF1B JUMPI PUSH1 0x1 DUP2 PUSH1 0x3 ADD PUSH1 0x2 ADD PUSH0 PUSH2 0x100 EXP DUP2 SLOAD DUP2 PUSH1 0xFF MUL NOT AND SWAP1 DUP4 ISZERO ISZERO MUL OR SWAP1 SSTORE POP JUMPDEST PUSH2 0xF68 JUMP JUMPDEST PUSH1 0x3 DUP4 SUB PUSH2 0xF67 JUMPI PUSH0 ISZERO ISZERO DUP2 PUSH1 0x6 ADD PUSH1 0x2 ADD PUSH0 SWAP1 SLOAD SWAP1 PUSH2 0x100 EXP SWAP1 DIV PUSH1 0xFF AND ISZERO ISZERO SUB PUSH2 0xF66 JUMPI PUSH1 0x1 DUP2 PUSH1 0x6 ADD PUSH1 0x2 ADD PUSH0 PUSH2 0x100 EXP DUP2 SLOAD DUP2 PUSH1 0xFF MUL NOT AND SWAP1 DUP4 ISZERO ISZERO MUL OR SWAP1 SSTORE POP JUMPDEST JUMPDEST JUMPDEST JUMPDEST POP POP POP POP DUP1 DUP1 PUSH2 0xF78 SWAP1 PUSH2 0x46D0 JUMP JUMPDEST SWAP2 POP POP PUSH2 0xD97 JUMP JUMPDEST POP PUSH2 0xF8A DUP3 PUSH2 0x32C0 JUMP JUMPDEST DUP2 SWAP5 POP POP POP POP PUSH0 PUSH1 0x7 DUP2 SWAP1 SSTORE POP POP SWAP2 SWAP1 POP JUMP JUMPDEST PUSH0 DUP1 PUSH0 DUP1 SLOAD SWAP1 PUSH2 0x100 EXP SWAP1 DIV PUSH20 0xFFFFFFFFFFFFFFFFFFFFFFFFFFFFFFFFFFFFFFFF AND PUSH20 0xFFFFFFFFFFFFFFFFFFFFFFFFFFFFFFFFFFFFFFFF AND PUSH4 0xCF20D872 PUSH1 0x40 MLOAD DUP2 PUSH4 0xFFFFFFFF AND PUSH1 0xE0 SHL DUP2 MSTORE PUSH1 0x4 ADD PUSH1 0x20 PUSH1 0x40 MLOAD DUP1 DUP4 SUB DUP2 DUP7 GAS STATICCALL ISZERO DUP1 ISZERO PUSH2 0x1007 JUMPI RETURNDATASIZE PUSH0 DUP1 RETURNDATACOPY RETURNDATASIZE PUSH0 REVERT JUMPDEST POP POP POP POP PUSH1 0x40 MLOAD RETURNDATASIZE PUSH1 0x1F NOT PUSH1 0x1F DUP3 ADD AND DUP3 ADD DUP1 PUSH1 0x40 MSTORE POP DUP2 ADD SWAP1 PUSH2 0x102B SWAP2 SWAP1 PUSH2 0x44C8 JUMP JUMPDEST SWAP1 POP DUP1 PUSH20 0xFFFFFFFFFFFFFFFFFFFFFFFFFFFFFFFFFFFFFFFF AND CALLER PUSH20 0xFFFFFFFFFFFFFFFFFFFFFFFFFFFFFFFFFFFFFFFF AND EQ PUSH2 0x109B JUMPI PUSH1 0x40 MLOAD PUSH32 0x8C379A000000000000000000000000000000000000000000000000000000000 DUP2 MSTORE PUSH1 0x4 ADD PUSH2 0x1092 SWAP1 PUSH2 0x454D JUMP JUMPDEST PUSH1 0x40 MLOAD DUP1 SWAP2 SUB SWAP1 REVERT JUMPDEST POP SWAP1 JUMP JUMPDEST PUSH0 DUP1 PUSH1 0x8 SLOAD SWAP1 POP DUP1 SWAP2 POP POP SWAP1 JUMP JUMPDEST PUSH0 DUP1 PUSH0 SWAP1 SLOAD SWAP1 PUSH2 0x100 EXP SWAP1 DIV PUSH20 0xFFFFFFFFFFFFFFFFFFFFFFFFFFFFFFFFFFFFFFFF AND PUSH20 0xFFFFFFFFFFFFFFFFFFFFFFFFFFFFFFFFFFFFFFFF AND PUSH4 0xCF20D872 PUSH1 0x40 MLOAD DUP2 PUSH4 0xFFFFFFFF AND PUSH1 0xE0 SHL DUP2 MSTORE PUSH1 0x4 ADD PUSH1 0x20 PUSH1 0x40 MLOAD DUP1 DUP4 SUB DUP2 DUP7 GAS STATICCALL ISZERO DUP1 ISZERO PUSH2 0x1117 JUMPI RETURNDATASIZE PUSH0 DUP1 RETURNDATACOPY RETURNDATASIZE PUSH0 REVERT JUMPDEST POP POP POP POP PUSH1 0x40 MLOAD RETURNDATASIZE PUSH1 0x1F NOT PUSH1 0x1F DUP3 ADD AND DUP3 ADD DUP1 PUSH1 0x40 MSTORE POP DUP2 ADD SWAP1 PUSH2 0x113B SWAP2 SWAP1 PUSH2 0x44C8 JUMP JUMPDEST SWAP1 POP DUP1 PUSH20 0xFFFFFFFFFFFFFFFFFFFFFFFFFFFFFFFFFFFFFFFF AND CALLER PUSH20 0xFFFFFFFFFFFFFFFFFFFFFFFFFFFFFFFFFFFFFFFF AND EQ PUSH2 0x11AB JUMPI PUSH1 0x40 MLOAD PUSH32 0x8C379A000000000000000000000000000000000000000000000000000000000 DUP2 MSTORE PUSH1 0x4 ADD PUSH2 0x11A2 SWAP1 PUSH2 0x454D JUMP JUMPDEST PUSH1 0x40 MLOAD DUP1 SWAP2 SUB SWAP1 REVERT JUMPDEST PUSH0 PUSH1 0xD DUP4 DUP2 SLOAD DUP2 LT PUSH2 0x11C0 JUMPI PUSH2 0x11BF PUSH2 0x4487 JUMP JUMPDEST JUMPDEST SWAP1 PUSH0 MSTORE PUSH1 0x20 PUSH0 KECCAK256 SWAP1 PUSH1 0xE MUL ADD SWAP1 POP PUSH0 DUP2 PUSH1 0xB ADD SLOAD DUP3 PUSH1 0xC ADD SLOAD PUSH2 0x11E3 SWAP2 SWAP1 PUSH2 0x4717 JUMP JUMPDEST SWAP1 POP PUSH2 0x11EF DUP5 DUP3 PUSH2 0x336C JUMP JUMPDEST DUP3 PUSH1 0xD ADD DUP2 SWAP1 SSTORE POP POP POP POP POP JUMP JUMPDEST PUSH0 DUP1 PUSH0 SWAP1 SLOAD SWAP1 PUSH2 0x100 EXP SWAP1 DIV PUSH20 0xFFFFFFFFFFFFFFFFFFFFFFFFFFFFFFFFFFFFFFFF AND PUSH20 0xFFFFFFFFFFFFFFFFFFFFFFFFFFFFFFFFFFFFFFFF AND PUSH4 0x3018205F PUSH1 0x40 MLOAD DUP2 PUSH4 0xFFFFFFFF AND PUSH1 0xE0 SHL DUP2 MSTORE PUSH1 0x4 ADD PUSH1 0x20 PUSH1 0x40 MLOAD DUP1 DUP4 SUB DUP2 DUP7 GAS STATICCALL ISZERO DUP1 ISZERO PUSH2 0x1267 JUMPI RETURNDATASIZE PUSH0 DUP1 RETURNDATACOPY RETURNDATASIZE PUSH0 REVERT JUMPDEST POP POP POP POP PUSH1 0x40 MLOAD RETURNDATASIZE PUSH1 0x1F NOT PUSH1 0x1F DUP3 ADD AND DUP3 ADD DUP1 PUSH1 0x40 MSTORE POP DUP2 ADD SWAP1 PUSH2 0x128B SWAP2 SWAP1 PUSH2 0x44C8 JUMP JUMPDEST SWAP1 POP DUP1 PUSH20 0xFFFFFFFFFFFFFFFFFFFFFFFFFFFFFFFFFFFFFFFF AND CALLER PUSH20 0xFFFFFFFFFFFFFFFFFFFFFFFFFFFFFFFFFFFFFFFF AND EQ PUSH2 0x12FB JUMPI PUSH1 0x40 MLOAD PUSH32 0x8C379A000000000000000000000000000000000000000000000000000000000 DUP2 MSTORE PUSH1 0x4 ADD PUSH2 0x12F2 SWAP1 PUSH2 0x454D JUMP JUMPDEST PUSH1 0x40 MLOAD DUP1 SWAP2 SUB SWAP1 REVERT JUMPDEST DUP2 PUSH1 0x12 DUP2 SWAP1 SSTORE POP POP POP JUMP JUMPDEST PUSH0 DUP1 PUSH0 SWAP1 SLOAD SWAP1 PUSH2 0x100 EXP SWAP1 DIV PUSH20 0xFFFFFFFFFFFFFFFFFFFFFFFFFFFFFFFFFFFFFFFF AND PUSH20 0xFFFFFFFFFFFFFFFFFFFFFFFFFFFFFFFFFFFFFFFF AND PUSH4 0xB0F479A1 PUSH1 0x40 MLOAD DUP2 PUSH4 0xFFFFFFFF AND PUSH1 0xE0 SHL DUP2 MSTORE PUSH1 0x4 ADD PUSH1 0x20 PUSH1 0x40 MLOAD DUP1 DUP4 SUB DUP2 DUP7 GAS STATICCALL ISZERO DUP1 ISZERO PUSH2 0x1370 JUMPI RETURNDATASIZE PUSH0 DUP1 RETURNDATACOPY RETURNDATASIZE PUSH0 REVERT JUMPDEST POP POP POP POP PUSH1 0x40 MLOAD RETURNDATASIZE PUSH1 0x1F NOT PUSH1 0x1F DUP3 ADD AND DUP3 ADD DUP1 PUSH1 0x40 MSTORE POP DUP2 ADD SWAP1 PUSH2 0x1394 SWAP2 SWAP1 PUSH2 0x44C8 JUMP JUMPDEST SWAP1 POP DUP1 PUSH20 0xFFFFFFFFFFFFFFFFFFFFFFFFFFFFFFFFFFFFFFFF AND CALLER PUSH20 0xFFFFFFFFFFFFFFFFFFFFFFFFFFFFFFFFFFFFFFFF AND EQ PUSH2 0x1404 JUMPI PUSH1 0x40 MLOAD PUSH32 0x8C379A000000000000000000000000000000000000000000000000000000000 DUP2 MSTORE PUSH1 0x4 ADD PUSH2 0x13FB SWAP1 PUSH2 0x454D JUMP JUMPDEST PUSH1 0x40 MLOAD DUP1 SWAP2 SUB SWAP1 REVERT JUMPDEST PUSH0 PUSH1 0x7 SLOAD EQ PUSH2 0x1448 JUMPI PUSH1 0x40 MLOAD PUSH32 0x8C379A000000000000000000000000000000000000000000000000000000000 DUP2 MSTORE PUSH1 0x4 ADD PUSH2 0x143F SWAP1 PUSH2 0x45B5 JUMP JUMPDEST PUSH1 0x40 MLOAD DUP1 SWAP2 SUB SWAP1 REVERT JUMPDEST PUSH1 0x1 PUSH1 0x7 DUP2 SWAP1 SSTORE POP PUSH0 PUSH2 0x1459 PUSH2 0x2385 JUMP JUMPDEST SWAP1 POP PUSH0 DUP2 GT PUSH2 0x149D JUMPI PUSH1 0x40 MLOAD PUSH32 0x8C379A000000000000000000000000000000000000000000000000000000000 DUP2 MSTORE PUSH1 0x4 ADD PUSH2 0x1494 SWAP1 PUSH2 0x461D JUMP JUMPDEST PUSH1 0x40 MLOAD DUP1 SWAP2 SUB SWAP1 REVERT JUMPDEST PUSH1 0x11 SLOAD DUP4 LT ISZERO PUSH2 0x14E2 JUMPI PUSH1 0x40 MLOAD PUSH32 0x8C379A000000000000000000000000000000000000000000000000000000000 DUP2 MSTORE PUSH1 0x4 ADD PUSH2 0x14D9 SWAP1 PUSH2 0x4794 JUMP JUMPDEST PUSH1 0x40 MLOAD DUP1 SWAP2 SUB SWAP1 REVERT JUMPDEST PUSH0 PUSH2 0x14EC DUP5 PUSH2 0x341A JUMP JUMPDEST SWAP1 POP PUSH2 0x14FA DUP6 DUP6 PUSH1 0x1 PUSH2 0x3624 JUMP JUMPDEST POP POP PUSH0 PUSH1 0x7 DUP2 SWAP1 SSTORE POP POP POP POP JUMP JUMPDEST PUSH0 DUP1 PUSH0 SWAP1 SLOAD SWAP1 PUSH2 0x100 EXP SWAP1 DIV PUSH20 0xFFFFFFFFFFFFFFFFFFFFFFFFFFFFFFFFFFFFFFFF AND PUSH20 0xFFFFFFFFFFFFFFFFFFFFFFFFFFFFFFFFFFFFFFFF AND PUSH4 0x3018205F PUSH1 0x40 MLOAD DUP2 PUSH4 0xFFFFFFFF AND PUSH1 0xE0 SHL DUP2 MSTORE PUSH1 0x4 ADD PUSH1 0x20 PUSH1 0x40 MLOAD DUP1 DUP4 SUB DUP2 DUP7 GAS STATICCALL ISZERO DUP1 ISZERO PUSH2 0x1572 JUMPI RETURNDATASIZE PUSH0 DUP1 RETURNDATACOPY RETURNDATASIZE PUSH0 REVERT JUMPDEST POP POP POP POP PUSH1 0x40 MLOAD RETURNDATASIZE PUSH1 0x1F NOT PUSH1 0x1F DUP3 ADD AND DUP3 ADD DUP1 PUSH1 0x40 MSTORE POP DUP2 ADD SWAP1 PUSH2 0x1596 SWAP2 SWAP1 PUSH2 0x44C8 JUMP JUMPDEST SWAP1 POP DUP1 PUSH20 0xFFFFFFFFFFFFFFFFFFFFFFFFFFFFFFFFFFFFFFFF AND CALLER PUSH20 0xFFFFFFFFFFFFFFFFFFFFFFFFFFFFFFFFFFFFFFFF AND EQ PUSH2 0x1606 JUMPI PUSH1 0x40 MLOAD PUSH32 0x8C379A000000000000000000000000000000000000000000000000000000000 DUP2 MSTORE PUSH1 0x4 ADD PUSH2 0x15FD SWAP1 PUSH2 0x454D JUMP JUMPDEST PUSH1 0x40 MLOAD DUP1 SWAP2 SUB SWAP1 REVERT JUMPDEST DUP2 PUSH1 0xE DUP2 SWAP1 SSTORE POP POP POP JUMP JUMPDEST PUSH2 0x1619 PUSH2 0x3D28 JUMP JUMPDEST PUSH0 PUSH2 0x1622 PUSH2 0x2385 JUMP JUMPDEST SWAP1 POP PUSH0 DUP2 GT PUSH2 0x1666 JUMPI PUSH1 0x40 MLOAD PUSH32 0x8C379A000000000000000000000000000000000000000000000000000000000 DUP2 MSTORE PUSH1 0x4 ADD PUSH2 0x165D SWAP1 PUSH2 0x461D JUMP JUMPDEST PUSH1 0x40 MLOAD DUP1 SWAP2 SUB SWAP1 REVERT JUMPDEST DUP3 PUSH0 PUSH2 0x1670 PUSH2 0x1D80 JUMP JUMPDEST SWAP1 POP DUP1 DUP3 GT ISZERO PUSH2 0x16B5 JUMPI PUSH1 0x40 MLOAD PUSH32 0x8C379A000000000000000000000000000000000000000000000000000000000 DUP2 MSTORE PUSH1 0x4 ADD PUSH2 0x16AC SWAP1 PUSH2 0x47FC JUMP JUMPDEST PUSH1 0x40 MLOAD DUP1 SWAP2 SUB SWAP1 REVERT JUMPDEST PUSH0 PUSH2 0x16BF DUP8 PUSH2 0x656 JUMP JUMPDEST SWAP1 POP PUSH0 DUP2 SUB PUSH2 0x1703 JUMPI PUSH1 0x40 MLOAD PUSH32 0x8C379A000000000000000000000000000000000000000000000000000000000 DUP2 MSTORE PUSH1 0x4 ADD PUSH2 0x16FA SWAP1 PUSH2 0x4864 JUMP JUMPDEST PUSH1 0x40 MLOAD DUP1 SWAP2 SUB SWAP1 REVERT JUMPDEST PUSH0 PUSH1 0x5 PUSH0 DUP9 DUP2 MSTORE PUSH1 0x20 ADD SWAP1 DUP2 MSTORE PUSH1 0x20 ADD PUSH0 KECCAK256 PUSH0 DUP4 DUP2 MSTORE PUSH1 0x20 ADD SWAP1 DUP2 MSTORE PUSH1 0x20 ADD PUSH0 KECCAK256 PUSH1 0x40 MLOAD DUP1 PUSH1 0x40 ADD PUSH1 0x40 MSTORE SWAP1 DUP2 PUSH0 DUP3 ADD PUSH0 SWAP1 SLOAD SWAP1 PUSH2 0x100 EXP SWAP1 DIV PUSH1 0xFF AND ISZERO ISZERO ISZERO ISZERO DUP2 MSTORE PUSH1 0x20 ADD PUSH1 0x1 DUP3 ADD DUP1 SLOAD DUP1 PUSH1 0x20 MUL PUSH1 0x20 ADD PUSH1 0x40 MLOAD SWAP1 DUP2 ADD PUSH1 0x40 MSTORE DUP1 SWAP3 SWAP2 SWAP1 DUP2 DUP2 MSTORE PUSH1 0x20 ADD PUSH0 SWAP1 JUMPDEST DUP3 DUP3 LT ISZERO PUSH2 0x17B9 JUMPI DUP4 DUP3 SWAP1 PUSH0 MSTORE PUSH1 0x20 PUSH0 KECCAK256 SWAP1 PUSH1 0x3 MUL ADD PUSH1 0x40 MLOAD DUP1 PUSH1 0x60 ADD PUSH1 0x40 MSTORE SWAP1 DUP2 PUSH0 DUP3 ADD SLOAD DUP2 MSTORE PUSH1 0x20 ADD PUSH1 0x1 DUP3 ADD SLOAD DUP2 MSTORE PUSH1 0x20 ADD PUSH1 0x2 DUP3 ADD SLOAD DUP2 MSTORE POP POP DUP2 MSTORE PUSH1 0x20 ADD SWAP1 PUSH1 0x1 ADD SWAP1 PUSH2 0x176C JUMP JUMPDEST POP POP POP POP DUP2 MSTORE POP POP SWAP1 POP DUP1 SWAP6 POP POP POP POP POP POP SWAP3 SWAP2 POP POP JUMP JUMPDEST PUSH0 DUP1 PUSH0 SWAP1 SLOAD SWAP1 PUSH2 0x100 EXP SWAP1 DIV PUSH20 0xFFFFFFFFFFFFFFFFFFFFFFFFFFFFFFFFFFFFFFFF AND PUSH20 0xFFFFFFFFFFFFFFFFFFFFFFFFFFFFFFFFFFFFFFFF AND PUSH4 0xCF20D872 PUSH1 0x40 MLOAD DUP2 PUSH4 0xFFFFFFFF AND PUSH1 0xE0 SHL DUP2 MSTORE PUSH1 0x4 ADD PUSH1 0x20 PUSH1 0x40 MLOAD DUP1 DUP4 SUB DUP2 DUP7 GAS STATICCALL ISZERO DUP1 ISZERO PUSH2 0x183B JUMPI RETURNDATASIZE PUSH0 DUP1 RETURNDATACOPY RETURNDATASIZE PUSH0 REVERT JUMPDEST POP POP POP POP PUSH1 0x40 MLOAD RETURNDATASIZE PUSH1 0x1F NOT PUSH1 0x1F DUP3 ADD AND DUP3 ADD DUP1 PUSH1 0x40 MSTORE POP DUP2 ADD SWAP1 PUSH2 0x185F SWAP2 SWAP1 PUSH2 0x44C8 JUMP JUMPDEST SWAP1 POP DUP1 PUSH20 0xFFFFFFFFFFFFFFFFFFFFFFFFFFFFFFFFFFFFFFFF AND CALLER PUSH20 0xFFFFFFFFFFFFFFFFFFFFFFFFFFFFFFFFFFFFFFFF AND EQ PUSH2 0x18CF JUMPI PUSH1 0x40 MLOAD PUSH32 0x8C379A000000000000000000000000000000000000000000000000000000000 DUP2 MSTORE PUSH1 0x4 ADD PUSH2 0x18C6 SWAP1 PUSH2 0x454D JUMP JUMPDEST PUSH1 0x40 MLOAD DUP1 SWAP2 SUB SWAP1 REVERT JUMPDEST PUSH0 PUSH1 0xD DUP8 DUP2 SLOAD DUP2 LT PUSH2 0x18E4 JUMPI PUSH2 0x18E3 PUSH2 0x4487 JUMP JUMPDEST JUMPDEST SWAP1 PUSH0 MSTORE PUSH1 0x20 PUSH0 KECCAK256 SWAP1 PUSH1 0xE MUL ADD SWAP1 POP PUSH0 DUP2 PUSH1 0x9 ADD PUSH0 SWAP1 SLOAD SWAP1 PUSH2 0x100 EXP SWAP1 DIV PUSH1 0xFF AND SWAP1 POP PUSH0 ISZERO ISZERO DUP2 ISZERO ISZERO EQ PUSH2 0x194C JUMPI PUSH1 0x40 MLOAD PUSH32 0x8C379A000000000000000000000000000000000000000000000000000000000 DUP2 MSTORE PUSH1 0x4 ADD PUSH2 0x1943 SWAP1 PUSH2 0x48CC JUMP JUMPDEST PUSH1 0x40 MLOAD DUP1 SWAP2 SUB SWAP1 REVERT JUMPDEST PUSH0 TIMESTAMP SWAP1 POP PUSH0 DUP4 PUSH1 0xB ADD SLOAD DUP5 PUSH1 0xC ADD SLOAD PUSH2 0x1965 SWAP2 SWAP1 PUSH2 0x4717 JUMP JUMPDEST SWAP1 POP DUP1 DUP3 GT PUSH2 0x19A9 JUMPI PUSH1 0x40 MLOAD PUSH32 0x8C379A000000000000000000000000000000000000000000000000000000000 DUP2 MSTORE PUSH1 0x4 ADD PUSH2 0x19A0 SWAP1 PUSH2 0x4934 JUMP JUMPDEST PUSH1 0x40 MLOAD DUP1 SWAP2 SUB SWAP1 REVERT JUMPDEST PUSH1 0x1 DUP5 PUSH1 0x9 ADD PUSH0 PUSH2 0x100 EXP DUP2 SLOAD DUP2 PUSH1 0xFF MUL NOT AND SWAP1 DUP4 ISZERO ISZERO MUL OR SWAP1 SSTORE POP DUP6 DUP5 PUSH1 0xA ADD DUP2 SWAP1 SSTORE POP DUP9 DUP5 PUSH0 ADD PUSH0 ADD PUSH0 PUSH2 0x100 EXP DUP2 SLOAD DUP2 PUSH20 0xFFFFFFFFFFFFFFFFFFFFFFFFFFFFFFFFFFFFFFFF MUL NOT AND SWAP1 DUP4 PUSH20 0xFFFFFFFFFFFFFFFFFFFFFFFFFFFFFFFFFFFFFFFF AND MUL OR SWAP1 SSTORE POP PUSH1 0xC SLOAD PUSH1 0x9 PUSH0 ADD SLOAD DUP8 PUSH2 0x1A24 SWAP2 SWAP1 PUSH2 0x4952 JUMP JUMPDEST PUSH2 0x1A2E SWAP2 SWAP1 PUSH2 0x49C0 JUMP JUMPDEST DUP5 PUSH0 ADD PUSH1 0x1 ADD DUP2 SWAP1 SSTORE POP PUSH0 DUP5 PUSH0 ADD PUSH1 0x2 ADD PUSH0 PUSH2 0x100 EXP DUP2 SLOAD DUP2 PUSH1 0xFF MUL NOT AND SWAP1 DUP4 ISZERO ISZERO MUL OR SWAP1 SSTORE POP DUP8 DUP5 PUSH1 0x3 ADD PUSH0 ADD PUSH0 PUSH2 0x100 EXP DUP2 SLOAD DUP2 PUSH20 0xFFFFFFFFFFFFFFFFFFFFFFFFFFFFFFFFFFFFFFFF MUL NOT AND SWAP1 DUP4 PUSH20 0xFFFFFFFFFFFFFFFFFFFFFFFFFFFFFFFFFFFFFFFF AND MUL OR SWAP1 SSTORE POP PUSH1 0xC SLOAD PUSH1 0x9 PUSH1 0x1 ADD SLOAD DUP8 PUSH2 0x1AAD SWAP2 SWAP1 PUSH2 0x4952 JUMP JUMPDEST PUSH2 0x1AB7 SWAP2 SWAP1 PUSH2 0x49C0 JUMP JUMPDEST DUP5 PUSH1 0x3 ADD PUSH1 0x1 ADD DUP2 SWAP1 SSTORE POP PUSH0 DUP5 PUSH1 0x3 ADD PUSH1 0x2 ADD PUSH0 PUSH2 0x100 EXP DUP2 SLOAD DUP2 PUSH1 0xFF MUL NOT AND SWAP1 DUP4 ISZERO ISZERO MUL OR SWAP1 SSTORE POP DUP7 DUP5 PUSH1 0x6 ADD PUSH0 ADD PUSH0 PUSH2 0x100 EXP DUP2 SLOAD DUP2 PUSH20 0xFFFFFFFFFFFFFFFFFFFFFFFFFFFFFFFFFFFFFFFF MUL NOT AND SWAP1 DUP4 PUSH20 0xFFFFFFFFFFFFFFFFFFFFFFFFFFFFFFFFFFFFFFFF AND MUL OR SWAP1 SSTORE POP PUSH1 0xC SLOAD PUSH1 0x9 PUSH1 0x2 ADD SLOAD DUP8 PUSH2 0x1B38 SWAP2 SWAP1 PUSH2 0x4952 JUMP JUMPDEST PUSH2 0x1B42 SWAP2 SWAP1 PUSH2 0x49C0 JUMP JUMPDEST DUP5 PUSH1 0x6 ADD PUSH1 0x1 ADD DUP2 SWAP1 SSTORE POP PUSH0 DUP5 PUSH1 0x6 ADD PUSH1 0x2 ADD PUSH0 PUSH2 0x100 EXP DUP2 SLOAD DUP2 PUSH1 0xFF MUL NOT AND SWAP1 DUP4 ISZERO ISZERO MUL OR SWAP1 SSTORE POP PUSH0 PUSH1 0x3 PUSH8 0xFFFFFFFFFFFFFFFF DUP2 GT ISZERO PUSH2 0x1B87 JUMPI PUSH2 0x1B86 PUSH2 0x49F0 JUMP JUMPDEST JUMPDEST PUSH1 0x40 MLOAD SWAP1 DUP1 DUP3 MSTORE DUP1 PUSH1 0x20 MUL PUSH1 0x20 ADD DUP3 ADD PUSH1 0x40 MSTORE DUP1 ISZERO PUSH2 0x1BB5 JUMPI DUP2 PUSH1 0x20 ADD PUSH1 0x20 DUP3 MUL DUP1 CALLDATASIZE DUP4 CALLDATACOPY DUP1 DUP3 ADD SWAP2 POP POP SWAP1 POP JUMPDEST POP SWAP1 POP DUP10 DUP2 PUSH0 DUP2 MLOAD DUP2 LT PUSH2 0x1BCC JUMPI PUSH2 0x1BCB PUSH2 0x4487 JUMP JUMPDEST JUMPDEST PUSH1 0x20 MUL PUSH1 0x20 ADD ADD SWAP1 PUSH20 0xFFFFFFFFFFFFFFFFFFFFFFFFFFFFFFFFFFFFFFFF AND SWAP1 DUP2 PUSH20 0xFFFFFFFFFFFFFFFFFFFFFFFFFFFFFFFFFFFFFFFF AND DUP2 MSTORE POP POP DUP9 DUP2 PUSH1 0x1 DUP2 MLOAD DUP2 LT PUSH2 0x1C1B JUMPI PUSH2 0x1C1A PUSH2 0x4487 JUMP JUMPDEST JUMPDEST PUSH1 0x20 MUL PUSH1 0x20 ADD ADD SWAP1 PUSH20 0xFFFFFFFFFFFFFFFFFFFFFFFFFFFFFFFFFFFFFFFF AND SWAP1 DUP2 PUSH20 0xFFFFFFFFFFFFFFFFFFFFFFFFFFFFFFFFFFFFFFFF AND DUP2 MSTORE POP POP DUP8 DUP2 PUSH1 0x2 DUP2 MLOAD DUP2 LT PUSH2 0x1C6A JUMPI PUSH2 0x1C69 PUSH2 0x4487 JUMP JUMPDEST JUMPDEST PUSH1 0x20 MUL PUSH1 0x20 ADD ADD SWAP1 PUSH20 0xFFFFFFFFFFFFFFFFFFFFFFFFFFFFFFFFFFFFFFFF AND SWAP1 DUP2 PUSH20 0xFFFFFFFFFFFFFFFFFFFFFFFFFFFFFFFFFFFFFFFF AND DUP2 MSTORE POP POP PUSH0 PUSH1 0x3 PUSH8 0xFFFFFFFFFFFFFFFF DUP2 GT ISZERO PUSH2 0x1CC0 JUMPI PUSH2 0x1CBF PUSH2 0x49F0 JUMP JUMPDEST JUMPDEST PUSH1 0x40 MLOAD SWAP1 DUP1 DUP3 MSTORE DUP1 PUSH1 0x20 MUL PUSH1 0x20 ADD DUP3 ADD PUSH1 0x40 MSTORE DUP1 ISZERO PUSH2 0x1CEE JUMPI DUP2 PUSH1 0x20 ADD PUSH1 0x20 DUP3 MUL DUP1 CALLDATASIZE DUP4 CALLDATACOPY DUP1 DUP3 ADD SWAP2 POP POP SWAP1 POP JUMPDEST POP SWAP1 POP DUP6 PUSH0 ADD PUSH1 0x1 ADD SLOAD DUP2 PUSH0 DUP2 MLOAD DUP2 LT PUSH2 0x1D0B JUMPI PUSH2 0x1D0A PUSH2 0x4487 JUMP JUMPDEST JUMPDEST PUSH1 0x20 MUL PUSH1 0x20 ADD ADD DUP2 DUP2 MSTORE POP POP DUP6 PUSH1 0x3 ADD PUSH1 0x1 ADD SLOAD DUP2 PUSH1 0x1 DUP2 MLOAD DUP2 LT PUSH2 0x1D33 JUMPI PUSH2 0x1D32 PUSH2 0x4487 JUMP JUMPDEST JUMPDEST PUSH1 0x20 MUL PUSH1 0x20 ADD ADD DUP2 DUP2 MSTORE POP POP DUP6 PUSH1 0x6 ADD PUSH1 0x1 ADD SLOAD DUP2 PUSH1 0x2 DUP2 MLOAD DUP2 LT PUSH2 0x1D5B JUMPI PUSH2 0x1D5A PUSH2 0x4487 JUMP JUMPDEST JUMPDEST PUSH1 0x20 MUL PUSH1 0x20 ADD ADD DUP2 DUP2 MSTORE POP POP PUSH2 0x1D72 DUP13 DUP4 DUP4 PUSH2 0x36DC JUMP JUMPDEST POP POP POP POP POP POP POP POP POP POP POP POP JUMP JUMPDEST PUSH0 DUP1 PUSH2 0x1D8A PUSH2 0x2385 JUMP JUMPDEST SWAP1 POP PUSH0 DUP2 GT PUSH2 0x1DCE JUMPI PUSH1 0x40 MLOAD PUSH32 0x8C379A000000000000000000000000000000000000000000000000000000000 DUP2 MSTORE PUSH1 0x4 ADD PUSH2 0x1DC5 SWAP1 PUSH2 0x461D JUMP JUMPDEST PUSH1 0x40 MLOAD DUP1 SWAP2 SUB SWAP1 REVERT JUMPDEST PUSH0 PUSH1 0x1 DUP3 PUSH2 0x1DDC SWAP2 SWAP1 PUSH2 0x4A1D JUMP JUMPDEST SWAP1 POP DUP1 SWAP3 POP POP POP SWAP1 JUMP JUMPDEST PUSH0 DUP1 PUSH2 0x1DF0 PUSH2 0x2385 JUMP JUMPDEST SWAP1 POP PUSH0 DUP2 GT PUSH2 0x1E34 JUMPI PUSH1 0x40 MLOAD PUSH32 0x8C379A000000000000000000000000000000000000000000000000000000000 DUP2 MSTORE PUSH1 0x4 ADD PUSH2 0x1E2B SWAP1 PUSH2 0x461D JUMP JUMPDEST PUSH1 0x40 MLOAD DUP1 SWAP2 SUB SWAP1 REVERT JUMPDEST DUP4 PUSH0 PUSH2 0x1E3E PUSH2 0x1D80 JUMP JUMPDEST SWAP1 POP DUP1 DUP3 GT ISZERO PUSH2 0x1E83 JUMPI PUSH1 0x40 MLOAD PUSH32 0x8C379A000000000000000000000000000000000000000000000000000000000 DUP2 MSTORE PUSH1 0x4 ADD PUSH2 0x1E7A SWAP1 PUSH2 0x47FC JUMP JUMPDEST PUSH1 0x40 MLOAD DUP1 SWAP2 SUB SWAP1 REVERT JUMPDEST PUSH0 PUSH2 0x1E8D DUP7 PUSH2 0x656 JUMP JUMPDEST SWAP1 POP PUSH0 DUP2 SUB PUSH2 0x1ED1 JUMPI PUSH1 0x40 MLOAD PUSH32 0x8C379A000000000000000000000000000000000000000000000000000000000 DUP2 MSTORE PUSH1 0x4 ADD PUSH2 0x1EC8 SWAP1 PUSH2 0x4864 JUMP JUMPDEST PUSH1 0x40 MLOAD DUP1 SWAP2 SUB SWAP1 REVERT JUMPDEST PUSH0 PUSH1 0x4 PUSH0 DUP10 DUP2 MSTORE PUSH1 0x20 ADD SWAP1 DUP2 MSTORE PUSH1 0x20 ADD PUSH0 KECCAK256 PUSH0 DUP4 DUP2 MSTORE PUSH1 0x20 ADD SWAP1 DUP2 MSTORE PUSH1 0x20 ADD PUSH0 KECCAK256 SLOAD SWAP1 POP DUP1 SWAP6 POP POP POP POP POP POP SWAP3 SWAP2 POP POP JUMP JUMPDEST PUSH0 DUP1 PUSH1 0x6 PUSH0 DUP5 PUSH20 0xFFFFFFFFFFFFFFFFFFFFFFFFFFFFFFFFFFFFFFFF AND PUSH20 0xFFFFFFFFFFFFFFFFFFFFFFFFFFFFFFFFFFFFFFFF AND DUP2 MSTORE PUSH1 0x20 ADD SWAP1 DUP2 MSTORE PUSH1 0x20 ADD PUSH0 KECCAK256 PUSH0 ADD SLOAD SWAP1 POP DUP1 SWAP2 POP POP SWAP2 SWAP1 POP JUMP JUMPDEST PUSH0 DUP1 PUSH0 SWAP1 SLOAD SWAP1 PUSH2 0x100 EXP SWAP1 DIV PUSH20 0xFFFFFFFFFFFFFFFFFFFFFFFFFFFFFFFFFFFFFFFF AND PUSH20 0xFFFFFFFFFFFFFFFFFFFFFFFFFFFFFFFFFFFFFFFF AND PUSH4 0x3018205F PUSH1 0x40 MLOAD DUP2 PUSH4 0xFFFFFFFF AND PUSH1 0xE0 SHL DUP2 MSTORE PUSH1 0x4 ADD PUSH1 0x20 PUSH1 0x40 MLOAD DUP1 DUP4 SUB DUP2 DUP7 GAS STATICCALL ISZERO DUP1 ISZERO PUSH2 0x1FBA JUMPI RETURNDATASIZE PUSH0 DUP1 RETURNDATACOPY RETURNDATASIZE PUSH0 REVERT JUMPDEST POP POP POP POP PUSH1 0x40 MLOAD RETURNDATASIZE PUSH1 0x1F NOT PUSH1 0x1F DUP3 ADD AND DUP3 ADD DUP1 PUSH1 0x40 MSTORE POP DUP2 ADD SWAP1 PUSH2 0x1FDE SWAP2 SWAP1 PUSH2 0x44C8 JUMP JUMPDEST SWAP1 POP DUP1 PUSH20 0xFFFFFFFFFFFFFFFFFFFFFFFFFFFFFFFFFFFFFFFF AND CALLER PUSH20 0xFFFFFFFFFFFFFFFFFFFFFFFFFFFFFFFFFFFFFFFF AND EQ PUSH2 0x204E JUMPI PUSH1 0x40 MLOAD PUSH32 0x8C379A000000000000000000000000000000000000000000000000000000000 DUP2 MSTORE PUSH1 0x4 ADD PUSH2 0x2045 SWAP1 PUSH2 0x454D JUMP JUMPDEST PUSH1 0x40 MLOAD DUP1 SWAP2 SUB SWAP1 REVERT JUMPDEST DUP2 PUSH1 0x10 PUSH0 PUSH2 0x100 EXP DUP2 SLOAD DUP2 PUSH20 0xFFFFFFFFFFFFFFFFFFFFFFFFFFFFFFFFFFFFFFFF MUL NOT AND SWAP1 DUP4 PUSH20 0xFFFFFFFFFFFFFFFFFFFFFFFFFFFFFFFFFFFFFFFF AND MUL OR SWAP1 SSTORE POP POP POP JUMP JUMPDEST PUSH2 0x209A PUSH2 0x3D43 JUMP JUMPDEST PUSH0 PUSH2 0x20A4 DUP4 PUSH2 0x656 JUMP JUMPDEST SWAP1 POP PUSH0 PUSH1 0x2 PUSH0 DUP4 DUP2 MSTORE PUSH1 0x20 ADD SWAP1 DUP2 MSTORE PUSH1 0x20 ADD PUSH0 KECCAK256 PUSH1 0x40 MLOAD DUP1 PUSH1 0x80 ADD PUSH1 0x40 MSTORE SWAP1 DUP2 PUSH0 DUP3 ADD PUSH0 SWAP1 SLOAD SWAP1 PUSH2 0x100 EXP SWAP1 DIV PUSH20 0xFFFFFFFFFFFFFFFFFFFFFFFFFFFFFFFFFFFFFFFF AND PUSH20 0xFFFFFFFFFFFFFFFFFFFFFFFFFFFFFFFFFFFFFFFF AND PUSH20 0xFFFFFFFFFFFFFFFFFFFFFFFFFFFFFFFFFFFFFFFF AND DUP2 MSTORE PUSH1 0x20 ADD PUSH1 0x1 DUP3 ADD SLOAD DUP2 MSTORE PUSH1 0x20 ADD PUSH1 0x2 DUP3 ADD SLOAD DUP2 MSTORE PUSH1 0x20 ADD PUSH1 0x3 DUP3 ADD SLOAD DUP2 MSTORE POP POP SWAP1 POP DUP1 SWAP3 POP POP POP SWAP2 SWAP1 POP JUMP JUMPDEST PUSH0 ISZERO ISZERO PUSH0 PUSH1 0x14 SWAP1 SLOAD SWAP1 PUSH2 0x100 EXP SWAP1 DIV PUSH1 0xFF AND ISZERO ISZERO EQ PUSH2 0x2195 JUMPI PUSH1 0x40 MLOAD PUSH32 0x8C379A000000000000000000000000000000000000000000000000000000000 DUP2 MSTORE PUSH1 0x4 ADD PUSH2 0x218C SWAP1 PUSH2 0x4A9A JUMP JUMPDEST PUSH1 0x40 MLOAD DUP1 SWAP2 SUB SWAP1 REVERT JUMPDEST PUSH2 0x219E DUP2 PUSH2 0x386D JUMP JUMPDEST PUSH1 0x1 PUSH0 PUSH1 0x14 PUSH2 0x100 EXP DUP2 SLOAD DUP2 PUSH1 0xFF MUL NOT AND SWAP1 DUP4 ISZERO ISZERO MUL OR SWAP1 SSTORE POP POP JUMP JUMPDEST PUSH0 DUP1 PUSH0 SWAP1 SLOAD SWAP1 PUSH2 0x100 EXP SWAP1 DIV PUSH20 0xFFFFFFFFFFFFFFFFFFFFFFFFFFFFFFFFFFFFFFFF AND PUSH20 0xFFFFFFFFFFFFFFFFFFFFFFFFFFFFFFFFFFFFFFFF AND PUSH4 0x3018205F PUSH1 0x40 MLOAD DUP2 PUSH4 0xFFFFFFFF AND PUSH1 0xE0 SHL DUP2 MSTORE PUSH1 0x4 ADD PUSH1 0x20 PUSH1 0x40 MLOAD DUP1 DUP4 SUB DUP2 DUP7 GAS STATICCALL ISZERO DUP1 ISZERO PUSH2 0x2225 JUMPI RETURNDATASIZE PUSH0 DUP1 RETURNDATACOPY RETURNDATASIZE PUSH0 REVERT JUMPDEST POP POP POP POP PUSH1 0x40 MLOAD RETURNDATASIZE PUSH1 0x1F NOT PUSH1 0x1F DUP3 ADD AND DUP3 ADD DUP1 PUSH1 0x40 MSTORE POP DUP2 ADD SWAP1 PUSH2 0x2249 SWAP2 SWAP1 PUSH2 0x44C8 JUMP JUMPDEST SWAP1 POP DUP1 PUSH20 0xFFFFFFFFFFFFFFFFFFFFFFFFFFFFFFFFFFFFFFFF AND CALLER PUSH20 0xFFFFFFFFFFFFFFFFFFFFFFFFFFFFFFFFFFFFFFFF AND EQ PUSH2 0x22B9 JUMPI PUSH1 0x40 MLOAD PUSH32 0x8C379A000000000000000000000000000000000000000000000000000000000 DUP2 MSTORE PUSH1 0x4 ADD PUSH2 0x22B0 SWAP1 PUSH2 0x454D JUMP JUMPDEST PUSH1 0x40 MLOAD DUP1 SWAP2 SUB SWAP1 REVERT JUMPDEST PUSH0 DUP4 DUP6 DUP8 PUSH2 0x22C7 SWAP2 SWAP1 PUSH2 0x4717 JUMP JUMPDEST PUSH2 0x22D1 SWAP2 SWAP1 PUSH2 0x4717 JUMP JUMPDEST SWAP1 POP DUP3 DUP2 EQ PUSH2 0x22DE JUMPI PUSH0 DUP1 REVERT JUMPDEST DUP6 PUSH1 0x9 PUSH0 ADD DUP2 SWAP1 SSTORE POP DUP5 PUSH1 0x9 PUSH1 0x1 ADD DUP2 SWAP1 SSTORE POP DUP4 PUSH1 0x9 PUSH1 0x2 ADD DUP2 SWAP1 SSTORE POP DUP3 PUSH1 0xC DUP2 SWAP1 SSTORE POP PUSH32 0x276FB89D8224FFD75E667EF77AA3B75F5D7064A6DD5B8C9B9B8761B8B303A346 DUP7 DUP7 DUP7 PUSH1 0x40 MLOAD PUSH2 0x2335 SWAP4 SWAP3 SWAP2 SWAP1 PUSH2 0x4AB8 JUMP JUMPDEST PUSH1 0x40 MLOAD DUP1 SWAP2 SUB SWAP1 LOG1 POP POP POP POP POP POP JUMP JUMPDEST PUSH0 DUP1 PUSH1 0x2 PUSH0 DUP5 DUP2 MSTORE PUSH1 0x20 ADD SWAP1 DUP2 MSTORE PUSH1 0x20 ADD PUSH0 KECCAK256 PUSH0 ADD PUSH0 SWAP1 SLOAD SWAP1 PUSH2 0x100 EXP SWAP1 DIV PUSH20 0xFFFFFFFFFFFFFFFFFFFFFFFFFFFFFFFFFFFFFFFF AND SWAP1 POP DUP1 SWAP2 POP POP SWAP2 SWAP1 POP JUMP JUMPDEST PUSH0 DUP1 PUSH1 0xD DUP1 SLOAD SWAP1 POP SWAP1 POP DUP1 SWAP2 POP POP SWAP1 JUMP JUMPDEST PUSH0 DUP1 PUSH0 DUP1 PUSH2 0x23A4 DUP7 DUP7 PUSH2 0x1DE6 JUMP JUMPDEST SWAP1 POP PUSH0 PUSH2 0x23B0 DUP8 PUSH2 0x6C9 JUMP JUMPDEST SWAP1 POP PUSH0 DUP2 PUSH1 0xC0 ADD MLOAD DUP3 PUSH1 0xA0 ADD MLOAD PUSH2 0x23C7 SWAP2 SWAP1 PUSH2 0x4717 JUMP JUMPDEST SWAP1 POP PUSH0 PUSH2 0x23D3 DUP9 PUSH2 0x656 JUMP JUMPDEST SWAP1 POP PUSH0 DUP2 SUB PUSH2 0x2417 JUMPI PUSH1 0x40 MLOAD PUSH32 0x8C379A000000000000000000000000000000000000000000000000000000000 DUP2 MSTORE PUSH1 0x4 ADD PUSH2 0x240E SWAP1 PUSH2 0x4864 JUMP JUMPDEST PUSH1 0x40 MLOAD DUP1 SWAP2 SUB SWAP1 REVERT JUMPDEST PUSH0 PUSH1 0x2 PUSH0 DUP4 DUP2 MSTORE PUSH1 0x20 ADD SWAP1 DUP2 MSTORE PUSH1 0x20 ADD PUSH0 KECCAK256 PUSH1 0x3 ADD SLOAD SWAP1 POP PUSH0 PUSH1 0x2 PUSH0 DUP5 DUP2 MSTORE PUSH1 0x20 ADD SWAP1 DUP2 MSTORE PUSH1 0x20 ADD PUSH0 KECCAK256 PUSH1 0x1 ADD SLOAD SWAP1 POP DUP4 PUSH1 0x2 PUSH0 DUP6 DUP2 MSTORE PUSH1 0x20 ADD SWAP1 DUP2 MSTORE PUSH1 0x20 ADD PUSH0 KECCAK256 PUSH1 0x2 ADD SLOAD LT PUSH2 0x249D JUMPI PUSH1 0x40 MLOAD PUSH32 0x8C379A000000000000000000000000000000000000000000000000000000000 DUP2 MSTORE PUSH1 0x4 ADD PUSH2 0x2494 SWAP1 PUSH2 0x4B5D JUMP JUMPDEST PUSH1 0x40 MLOAD DUP1 SWAP2 SUB SWAP1 REVERT JUMPDEST PUSH0 PUSH2 0x24A8 DUP12 DUP14 PUSH2 0x1611 JUMP JUMPDEST SWAP1 POP DUP6 PUSH1 0xC0 ADD MLOAD TIMESTAMP LT ISZERO DUP1 ISZERO PUSH2 0x24BE JUMPI POP DUP5 TIMESTAMP GT ISZERO JUMPDEST ISZERO PUSH2 0x255D JUMPI DUP6 PUSH1 0xC0 ADD MLOAD DUP4 LT ISZERO DUP1 ISZERO PUSH2 0x24D7 JUMPI POP DUP5 DUP4 GT ISZERO JUMPDEST ISZERO PUSH2 0x24FA JUMPI DUP2 DUP4 TIMESTAMP PUSH2 0x24E9 SWAP2 SWAP1 PUSH2 0x4A1D JUMP JUMPDEST PUSH2 0x24F3 SWAP2 SWAP1 PUSH2 0x4952 JUMP JUMPDEST SWAP8 POP PUSH2 0x2525 JUMP JUMPDEST DUP6 PUSH1 0xC0 ADD MLOAD DUP4 LT ISZERO PUSH2 0x2524 JUMPI DUP2 DUP7 PUSH1 0xC0 ADD MLOAD TIMESTAMP PUSH2 0x2517 SWAP2 SWAP1 PUSH2 0x4A1D JUMP JUMPDEST PUSH2 0x2521 SWAP2 SWAP1 PUSH2 0x4952 JUMP JUMPDEST SWAP8 POP JUMPDEST JUMPDEST PUSH1 0x12 SLOAD PUSH1 0xA PUSH2 0x2534 SWAP2 SWAP1 PUSH2 0x4CAA JUMP JUMPDEST DUP9 DUP9 PUSH2 0x2540 SWAP2 SWAP1 PUSH2 0x4717 JUMP JUMPDEST PUSH2 0x254A SWAP2 SWAP1 PUSH2 0x49C0 JUMP JUMPDEST SWAP9 POP DUP9 SWAP10 POP POP POP POP POP POP POP POP POP POP PUSH2 0x2759 JUMP JUMPDEST DUP5 TIMESTAMP GT ISZERO PUSH2 0x2749 JUMPI DUP6 PUSH1 0xC0 ADD MLOAD DUP4 LT ISZERO PUSH2 0x25AB JUMPI PUSH1 0x12 SLOAD PUSH1 0xA PUSH2 0x2580 SWAP2 SWAP1 PUSH2 0x4CAA JUMP JUMPDEST DUP3 PUSH1 0xE SLOAD PUSH2 0x258E SWAP2 SWAP1 PUSH2 0x4952 JUMP JUMPDEST PUSH2 0x2598 SWAP2 SWAP1 PUSH2 0x49C0 JUMP JUMPDEST SWAP9 POP DUP9 SWAP10 POP POP POP POP POP POP POP POP POP POP PUSH2 0x2759 JUMP JUMPDEST DUP1 PUSH0 ADD MLOAD ISZERO PUSH2 0x2666 JUMPI PUSH0 PUSH1 0x1 DUP3 PUSH1 0x20 ADD MLOAD MLOAD PUSH2 0x25C7 SWAP2 SWAP1 PUSH2 0x4A1D JUMP JUMPDEST SWAP1 POP PUSH0 DUP3 PUSH1 0x20 ADD MLOAD DUP3 DUP2 MLOAD DUP2 LT PUSH2 0x25E1 JUMPI PUSH2 0x25E0 PUSH2 0x4487 JUMP JUMPDEST JUMPDEST PUSH1 0x20 MUL PUSH1 0x20 ADD ADD MLOAD PUSH1 0x40 ADD MLOAD SWAP1 POP PUSH0 DUP4 PUSH1 0x20 ADD MLOAD DUP4 DUP2 MLOAD DUP2 LT PUSH2 0x2607 JUMPI PUSH2 0x2606 PUSH2 0x4487 JUMP JUMPDEST JUMPDEST PUSH1 0x20 MUL PUSH1 0x20 ADD ADD MLOAD PUSH1 0x20 ADD MLOAD DUP3 DUP10 PUSH2 0x261F SWAP2 SWAP1 PUSH2 0x4A1D JUMP JUMPDEST PUSH2 0x2629 SWAP2 SWAP1 PUSH2 0x4952 JUMP JUMPDEST SWAP1 POP PUSH1 0x12 SLOAD PUSH1 0xA PUSH2 0x263A SWAP2 SWAP1 PUSH2 0x4CAA JUMP JUMPDEST DUP2 DUP12 PUSH2 0x2646 SWAP2 SWAP1 PUSH2 0x4717 JUMP JUMPDEST PUSH2 0x2650 SWAP2 SWAP1 PUSH2 0x49C0 JUMP JUMPDEST SWAP12 POP DUP12 SWAP13 POP POP POP POP POP POP POP POP POP POP POP POP POP PUSH2 0x2759 JUMP JUMPDEST PUSH0 ISZERO ISZERO DUP2 PUSH0 ADD MLOAD ISZERO ISZERO SUB PUSH2 0x2748 JUMPI PUSH0 PUSH1 0x1 DUP14 PUSH2 0x2682 SWAP2 SWAP1 PUSH2 0x4A1D JUMP JUMPDEST SWAP1 POP PUSH0 JUMPDEST DUP14 DUP2 LT ISZERO PUSH2 0x2735 JUMPI PUSH0 PUSH2 0x2699 DUP15 DUP5 PUSH2 0x1611 JUMP JUMPDEST SWAP1 POP DUP1 PUSH0 ADD MLOAD ISZERO PUSH2 0x2712 JUMPI PUSH0 PUSH1 0x1 DUP3 PUSH1 0x20 ADD MLOAD MLOAD PUSH2 0x26B7 SWAP2 SWAP1 PUSH2 0x4A1D JUMP JUMPDEST SWAP1 POP PUSH0 DUP3 PUSH1 0x20 ADD MLOAD DUP3 DUP2 MLOAD DUP2 LT PUSH2 0x26D1 JUMPI PUSH2 0x26D0 PUSH2 0x4487 JUMP JUMPDEST JUMPDEST PUSH1 0x20 MUL PUSH1 0x20 ADD ADD MLOAD PUSH1 0x20 ADD MLOAD DUP12 PUSH1 0xA0 ADD MLOAD PUSH2 0x26EC SWAP2 SWAP1 PUSH2 0x4952 JUMP JUMPDEST SWAP1 POP PUSH1 0x12 SLOAD PUSH1 0xA PUSH2 0x26FD SWAP2 SWAP1 PUSH2 0x4CAA JUMP JUMPDEST DUP2 PUSH2 0x2708 SWAP2 SWAP1 PUSH2 0x49C0 JUMP JUMPDEST SWAP14 POP POP POP POP PUSH2 0x2735 JUMP JUMPDEST PUSH1 0x1 DUP4 PUSH2 0x271F SWAP2 SWAP1 PUSH2 0x4A1D JUMP JUMPDEST SWAP3 POP POP DUP1 DUP1 PUSH2 0x272D SWAP1 PUSH2 0x46D0 JUMP JUMPDEST SWAP2 POP POP PUSH2 0x2686 JUMP JUMPDEST POP DUP10 SWAP11 POP POP POP POP POP POP POP POP POP POP POP PUSH2 0x2759 JUMP JUMPDEST JUMPDEST PUSH0 SWAP9 POP DUP9 SWAP10 POP POP POP POP POP POP POP POP POP POP JUMPDEST SWAP3 SWAP2 POP POP JUMP JUMPDEST PUSH0 DUP1 PUSH0 SWAP1 SLOAD SWAP1 PUSH2 0x100 EXP SWAP1 DIV PUSH20 0xFFFFFFFFFFFFFFFFFFFFFFFFFFFFFFFFFFFFFFFF AND PUSH20 0xFFFFFFFFFFFFFFFFFFFFFFFFFFFFFFFFFFFFFFFF AND PUSH4 0xB0F479A1 PUSH1 0x40 MLOAD DUP2 PUSH4 0xFFFFFFFF AND PUSH1 0xE0 SHL DUP2 MSTORE PUSH1 0x4 ADD PUSH1 0x20 PUSH1 0x40 MLOAD DUP1 DUP4 SUB DUP2 DUP7 GAS STATICCALL ISZERO DUP1 ISZERO PUSH2 0x27C9 JUMPI RETURNDATASIZE PUSH0 DUP1 RETURNDATACOPY RETURNDATASIZE PUSH0 REVERT JUMPDEST POP POP POP POP PUSH1 0x40 MLOAD RETURNDATASIZE PUSH1 0x1F NOT PUSH1 0x1F DUP3 ADD AND DUP3 ADD DUP1 PUSH1 0x40 MSTORE POP DUP2 ADD SWAP1 PUSH2 0x27ED SWAP2 SWAP1 PUSH2 0x44C8 JUMP JUMPDEST SWAP1 POP DUP1 PUSH20 0xFFFFFFFFFFFFFFFFFFFFFFFFFFFFFFFFFFFFFFFF AND CALLER PUSH20 0xFFFFFFFFFFFFFFFFFFFFFFFFFFFFFFFFFFFFFFFF AND EQ PUSH2 0x285D JUMPI PUSH1 0x40 MLOAD PUSH32 0x8C379A000000000000000000000000000000000000000000000000000000000 DUP2 MSTORE PUSH1 0x4 ADD PUSH2 0x2854 SWAP1 PUSH2 0x454D JUMP JUMPDEST PUSH1 0x40 MLOAD DUP1 SWAP2 SUB SWAP1 REVERT JUMPDEST PUSH0 PUSH1 0x7 SLOAD EQ PUSH2 0x28A1 JUMPI PUSH1 0x40 MLOAD PUSH32 0x8C379A000000000000000000000000000000000000000000000000000000000 DUP2 MSTORE PUSH1 0x4 ADD PUSH2 0x2898 SWAP1 PUSH2 0x45B5 JUMP JUMPDEST PUSH1 0x40 MLOAD DUP1 SWAP2 SUB SWAP1 REVERT JUMPDEST PUSH1 0x1 PUSH1 0x7 DUP2 SWAP1 SSTORE POP PUSH0 PUSH2 0x28B2 PUSH2 0x2385 JUMP JUMPDEST SWAP1 POP PUSH0 DUP2 GT PUSH2 0x28F6 JUMPI PUSH1 0x40 MLOAD PUSH32 0x8C379A000000000000000000000000000000000000000000000000000000000 DUP2 MSTORE PUSH1 0x4 ADD PUSH2 0x28ED SWAP1 PUSH2 0x461D JUMP JUMPDEST PUSH1 0x40 MLOAD DUP1 SWAP2 SUB SWAP1 REVERT JUMPDEST PUSH0 DUP4 GT PUSH2 0x2938 JUMPI PUSH1 0x40 MLOAD PUSH32 0x8C379A000000000000000000000000000000000000000000000000000000000 DUP2 MSTORE PUSH1 0x4 ADD PUSH2 0x292F SWAP1 PUSH2 0x4D3E JUMP JUMPDEST PUSH1 0x40 MLOAD DUP1 SWAP2 SUB SWAP1 REVERT JUMPDEST PUSH2 0x2943 DUP5 DUP5 PUSH0 PUSH2 0x3624 JUMP JUMPDEST PUSH0 PUSH1 0xF PUSH0 SWAP1 SLOAD SWAP1 PUSH2 0x100 EXP SWAP1 DIV PUSH20 0xFFFFFFFFFFFFFFFFFFFFFFFFFFFFFFFFFFFFFFFF AND PUSH20 0xFFFFFFFFFFFFFFFFFFFFFFFFFFFFFFFFFFFFFFFF AND PUSH4 0x70A08231 ADDRESS PUSH1 0x40 MLOAD DUP3 PUSH4 0xFFFFFFFF AND PUSH1 0xE0 SHL DUP2 MSTORE PUSH1 0x4 ADD PUSH2 0x299E SWAP2 SWAP1 PUSH2 0x3EE4 JUMP JUMPDEST PUSH1 0x20 PUSH1 0x40 MLOAD DUP1 DUP4 SUB DUP2 DUP7 GAS STATICCALL ISZERO DUP1 ISZERO PUSH2 0x29B9 JUMPI RETURNDATASIZE PUSH0 DUP1 RETURNDATACOPY RETURNDATASIZE PUSH0 REVERT JUMPDEST POP POP POP POP PUSH1 0x40 MLOAD RETURNDATASIZE PUSH1 0x1F NOT PUSH1 0x1F DUP3 ADD AND DUP3 ADD DUP1 PUSH1 0x40 MSTORE POP DUP2 ADD SWAP1 PUSH2 0x29DD SWAP2 SWAP1 PUSH2 0x4D70 JUMP JUMPDEST SWAP1 POP PUSH0 PUSH1 0xF PUSH0 SWAP1 SLOAD SWAP1 PUSH2 0x100 EXP SWAP1 DIV PUSH20 0xFFFFFFFFFFFFFFFFFFFFFFFFFFFFFFFFFFFFFFFF AND PUSH20 0xFFFFFFFFFFFFFFFFFFFFFFFFFFFFFFFFFFFFFFFF AND PUSH4 0x70A08231 ADDRESS PUSH1 0x40 MLOAD DUP3 PUSH4 0xFFFFFFFF AND PUSH1 0xE0 SHL DUP2 MSTORE PUSH1 0x4 ADD PUSH2 0x2A3A SWAP2 SWAP1 PUSH2 0x3EE4 JUMP JUMPDEST PUSH1 0x20 PUSH1 0x40 MLOAD DUP1 DUP4 SUB DUP2 DUP7 GAS STATICCALL ISZERO DUP1 ISZERO PUSH2 0x2A55 JUMPI RETURNDATASIZE PUSH0 DUP1 RETURNDATACOPY RETURNDATASIZE PUSH0 REVERT JUMPDEST POP POP POP POP PUSH1 0x40 MLOAD RETURNDATASIZE PUSH1 0x1F NOT PUSH1 0x1F DUP3 ADD AND DUP3 ADD DUP1 PUSH1 0x40 MSTORE POP DUP2 ADD SWAP1 PUSH2 0x2A79 SWAP2 SWAP1 PUSH2 0x4D70 JUMP JUMPDEST SWAP1 POP PUSH0 DUP3 DUP3 PUSH2 0x2A88 SWAP2 SWAP1 PUSH2 0x4A1D JUMP JUMPDEST SWAP1 POP DUP6 DUP2 LT ISZERO PUSH2 0x2ACD JUMPI PUSH1 0x40 MLOAD PUSH32 0x8C379A000000000000000000000000000000000000000000000000000000000 DUP2 MSTORE PUSH1 0x4 ADD PUSH2 0x2AC4 SWAP1 PUSH2 0x4DE5 JUMP JUMPDEST PUSH1 0x40 MLOAD DUP1 SWAP2 SUB SWAP1 REVERT JUMPDEST PUSH2 0x2AD6 DUP7 PUSH2 0x32C0 JUMP JUMPDEST POP POP POP POP PUSH0 PUSH1 0x7 DUP2 SWAP1 SSTORE POP POP POP POP JUMP JUMPDEST PUSH0 DUP1 PUSH0 SWAP1 SLOAD SWAP1 PUSH2 0x100 EXP SWAP1 DIV PUSH20 0xFFFFFFFFFFFFFFFFFFFFFFFFFFFFFFFFFFFFFFFF AND PUSH20 0xFFFFFFFFFFFFFFFFFFFFFFFFFFFFFFFFFFFFFFFF AND PUSH4 0xCF20D872 PUSH1 0x40 MLOAD DUP2 PUSH4 0xFFFFFFFF AND PUSH1 0xE0 SHL DUP2 MSTORE PUSH1 0x4 ADD PUSH1 0x20 PUSH1 0x40 MLOAD DUP1 DUP4 SUB DUP2 DUP7 GAS STATICCALL ISZERO DUP1 ISZERO PUSH2 0x2B50 JUMPI RETURNDATASIZE PUSH0 DUP1 RETURNDATACOPY RETURNDATASIZE PUSH0 REVERT JUMPDEST POP POP POP POP PUSH1 0x40 MLOAD RETURNDATASIZE PUSH1 0x1F NOT PUSH1 0x1F DUP3 ADD AND DUP3 ADD DUP1 PUSH1 0x40 MSTORE POP DUP2 ADD SWAP1 PUSH2 0x2B74 SWAP2 SWAP1 PUSH2 0x44C8 JUMP JUMPDEST SWAP1 POP DUP1 PUSH20 0xFFFFFFFFFFFFFFFFFFFFFFFFFFFFFFFFFFFFFFFF AND CALLER PUSH20 0xFFFFFFFFFFFFFFFFFFFFFFFFFFFFFFFFFFFFFFFF AND EQ PUSH2 0x2BE4 JUMPI PUSH1 0x40 MLOAD PUSH32 0x8C379A000000000000000000000000000000000000000000000000000000000 DUP2 MSTORE PUSH1 0x4 ADD PUSH2 0x2BDB SWAP1 PUSH2 0x454D JUMP JUMPDEST PUSH1 0x40 MLOAD DUP1 SWAP2 SUB SWAP1 REVERT JUMPDEST PUSH0 PUSH2 0x2BED PUSH2 0x2385 JUMP JUMPDEST SWAP1 POP PUSH0 DUP2 GT ISZERO PUSH2 0x2E30 JUMPI PUSH0 PUSH1 0x1 DUP3 PUSH2 0x2C05 SWAP2 SWAP1 PUSH2 0x4A1D JUMP JUMPDEST SWAP1 POP PUSH0 PUSH1 0xD DUP3 DUP2 SLOAD DUP2 LT PUSH2 0x2C1C JUMPI PUSH2 0x2C1B PUSH2 0x4487 JUMP JUMPDEST JUMPDEST SWAP1 PUSH0 MSTORE PUSH1 0x20 PUSH0 KECCAK256 SWAP1 PUSH1 0xE MUL ADD PUSH1 0x40 MLOAD DUP1 PUSH2 0x100 ADD PUSH1 0x40 MSTORE SWAP1 DUP2 PUSH0 DUP3 ADD PUSH1 0x40 MLOAD DUP1 PUSH1 0x60 ADD PUSH1 0x40 MSTORE SWAP1 DUP2 PUSH0 DUP3 ADD PUSH0 SWAP1 SLOAD SWAP1 PUSH2 0x100 EXP SWAP1 DIV PUSH20 0xFFFFFFFFFFFFFFFFFFFFFFFFFFFFFFFFFFFFFFFF AND PUSH20 0xFFFFFFFFFFFFFFFFFFFFFFFFFFFFFFFFFFFFFFFF AND PUSH20 0xFFFFFFFFFFFFFFFFFFFFFFFFFFFFFFFFFFFFFFFF AND DUP2 MSTORE PUSH1 0x20 ADD PUSH1 0x1 DUP3 ADD SLOAD DUP2 MSTORE PUSH1 0x20 ADD PUSH1 0x2 DUP3 ADD PUSH0 SWAP1 SLOAD SWAP1 PUSH2 0x100 EXP SWAP1 DIV PUSH1 0xFF AND ISZERO ISZERO ISZERO ISZERO DUP2 MSTORE POP POP DUP2 MSTORE PUSH1 0x20 ADD PUSH1 0x3 DUP3 ADD PUSH1 0x40 MLOAD DUP1 PUSH1 0x60 ADD PUSH1 0x40 MSTORE SWAP1 DUP2 PUSH0 DUP3 ADD PUSH0 SWAP1 SLOAD SWAP1 PUSH2 0x100 EXP SWAP1 DIV PUSH20 0xFFFFFFFFFFFFFFFFFFFFFFFFFFFFFFFFFFFFFFFF AND PUSH20 0xFFFFFFFFFFFFFFFFFFFFFFFFFFFFFFFFFFFFFFFF AND PUSH20 0xFFFFFFFFFFFFFFFFFFFFFFFFFFFFFFFFFFFFFFFF AND DUP2 MSTORE PUSH1 0x20 ADD PUSH1 0x1 DUP3 ADD SLOAD DUP2 MSTORE PUSH1 0x20 ADD PUSH1 0x2 DUP3 ADD PUSH0 SWAP1 SLOAD SWAP1 PUSH2 0x100 EXP SWAP1 DIV PUSH1 0xFF AND ISZERO ISZERO ISZERO ISZERO DUP2 MSTORE POP POP DUP2 MSTORE PUSH1 0x20 ADD PUSH1 0x6 DUP3 ADD PUSH1 0x40 MLOAD DUP1 PUSH1 0x60 ADD PUSH1 0x40 MSTORE SWAP1 DUP2 PUSH0 DUP3 ADD PUSH0 SWAP1 SLOAD SWAP1 PUSH2 0x100 EXP SWAP1 DIV PUSH20 0xFFFFFFFFFFFFFFFFFFFFFFFFFFFFFFFFFFFFFFFF AND PUSH20 0xFFFFFFFFFFFFFFFFFFFFFFFFFFFFFFFFFFFFFFFF AND PUSH20 0xFFFFFFFFFFFFFFFFFFFFFFFFFFFFFFFFFFFFFFFF AND DUP2 MSTORE PUSH1 0x20 ADD PUSH1 0x1 DUP3 ADD SLOAD DUP2 MSTORE PUSH1 0x20 ADD PUSH1 0x2 DUP3 ADD PUSH0 SWAP1 SLOAD SWAP1 PUSH2 0x100 EXP SWAP1 DIV PUSH1 0xFF AND ISZERO ISZERO ISZERO ISZERO DUP2 MSTORE POP POP DUP2 MSTORE PUSH1 0x20 ADD PUSH1 0x9 DUP3 ADD PUSH0 SWAP1 SLOAD SWAP1 PUSH2 0x100 EXP SWAP1 DIV PUSH1 0xFF AND ISZERO ISZERO ISZERO ISZERO DUP2 MSTORE PUSH1 0x20 ADD PUSH1 0xA DUP3 ADD SLOAD DUP2 MSTORE PUSH1 0x20 ADD PUSH1 0xB DUP3 ADD SLOAD DUP2 MSTORE PUSH1 0x20 ADD PUSH1 0xC DUP3 ADD SLOAD DUP2 MSTORE PUSH1 0x20 ADD PUSH1 0xD DUP3 ADD SLOAD DUP2 MSTORE POP POP SWAP1 POP PUSH0 DUP2 PUSH1 0x60 ADD MLOAD SWAP1 POP DUP1 PUSH2 0x2E2C JUMPI PUSH0 DUP1 REVERT JUMPDEST POP POP POP JUMPDEST PUSH2 0x2E38 PUSH2 0x3D7D JUMP JUMPDEST PUSH0 DUP2 PUSH0 ADD SWAP1 PUSH20 0xFFFFFFFFFFFFFFFFFFFFFFFFFFFFFFFFFFFFFFFF AND SWAP1 DUP2 PUSH20 0xFFFFFFFFFFFFFFFFFFFFFFFFFFFFFFFFFFFFFFFF AND DUP2 MSTORE POP POP PUSH0 DUP2 PUSH1 0x40 ADD SWAP1 ISZERO ISZERO SWAP1 DUP2 ISZERO ISZERO DUP2 MSTORE POP POP PUSH0 DUP2 PUSH1 0x20 ADD DUP2 DUP2 MSTORE POP POP PUSH1 0xD PUSH1 0x40 MLOAD DUP1 PUSH2 0x100 ADD PUSH1 0x40 MSTORE DUP1 DUP4 DUP2 MSTORE PUSH1 0x20 ADD DUP4 DUP2 MSTORE PUSH1 0x20 ADD DUP4 DUP2 MSTORE PUSH1 0x20 ADD PUSH0 ISZERO ISZERO DUP2 MSTORE PUSH1 0x20 ADD PUSH0 DUP2 MSTORE PUSH1 0x20 ADD PUSH1 0xE SLOAD DUP2 MSTORE PUSH1 0x20 ADD TIMESTAMP DUP2 MSTORE PUSH1 0x20 ADD PUSH0 DUP2 MSTORE POP SWAP1 DUP1 PUSH1 0x1 DUP2 SLOAD ADD DUP1 DUP3 SSTORE DUP1 SWAP2 POP POP PUSH1 0x1 SWAP1 SUB SWAP1 PUSH0 MSTORE PUSH1 0x20 PUSH0 KECCAK256 SWAP1 PUSH1 0xE MUL ADD PUSH0 SWAP1 SWAP2 SWAP1 SWAP2 SWAP1 SWAP2 POP PUSH0 DUP3 ADD MLOAD DUP2 PUSH0 ADD PUSH0 DUP3 ADD MLOAD DUP2 PUSH0 ADD PUSH0 PUSH2 0x100 EXP DUP2 SLOAD DUP2 PUSH20 0xFFFFFFFFFFFFFFFFFFFFFFFFFFFFFFFFFFFFFFFF MUL NOT AND SWAP1 DUP4 PUSH20 0xFFFFFFFFFFFFFFFFFFFFFFFFFFFFFFFFFFFFFFFF AND MUL OR SWAP1 SSTORE POP PUSH1 0x20 DUP3 ADD MLOAD DUP2 PUSH1 0x1 ADD SSTORE PUSH1 0x40 DUP3 ADD MLOAD DUP2 PUSH1 0x2 ADD PUSH0 PUSH2 0x100 EXP DUP2 SLOAD DUP2 PUSH1 0xFF MUL NOT AND SWAP1 DUP4 ISZERO ISZERO MUL OR SWAP1 SSTORE POP POP POP PUSH1 0x20 DUP3 ADD MLOAD DUP2 PUSH1 0x3 ADD PUSH0 DUP3 ADD MLOAD DUP2 PUSH0 ADD PUSH0 PUSH2 0x100 EXP DUP2 SLOAD DUP2 PUSH20 0xFFFFFFFFFFFFFFFFFFFFFFFFFFFFFFFFFFFFFFFF MUL NOT AND SWAP1 DUP4 PUSH20 0xFFFFFFFFFFFFFFFFFFFFFFFFFFFFFFFFFFFFFFFF AND MUL OR SWAP1 SSTORE POP PUSH1 0x20 DUP3 ADD MLOAD DUP2 PUSH1 0x1 ADD SSTORE PUSH1 0x40 DUP3 ADD MLOAD DUP2 PUSH1 0x2 ADD PUSH0 PUSH2 0x100 EXP DUP2 SLOAD DUP2 PUSH1 0xFF MUL NOT AND SWAP1 DUP4 ISZERO ISZERO MUL OR SWAP1 SSTORE POP POP POP PUSH1 0x40 DUP3 ADD MLOAD DUP2 PUSH1 0x6 ADD PUSH0 DUP3 ADD MLOAD DUP2 PUSH0 ADD PUSH0 PUSH2 0x100 EXP DUP2 SLOAD DUP2 PUSH20 0xFFFFFFFFFFFFFFFFFFFFFFFFFFFFFFFFFFFFFFFF MUL NOT AND SWAP1 DUP4 PUSH20 0xFFFFFFFFFFFFFFFFFFFFFFFFFFFFFFFFFFFFFFFF AND MUL OR SWAP1 SSTORE POP PUSH1 0x20 DUP3 ADD MLOAD DUP2 PUSH1 0x1 ADD SSTORE PUSH1 0x40 DUP3 ADD MLOAD DUP2 PUSH1 0x2 ADD PUSH0 PUSH2 0x100 EXP DUP2 SLOAD DUP2 PUSH1 0xFF MUL NOT AND SWAP1 DUP4 ISZERO ISZERO MUL OR SWAP1 SSTORE POP POP POP PUSH1 0x60 DUP3 ADD MLOAD DUP2 PUSH1 0x9 ADD PUSH0 PUSH2 0x100 EXP DUP2 SLOAD DUP2 PUSH1 0xFF MUL NOT AND SWAP1 DUP4 ISZERO ISZERO MUL OR SWAP1 SSTORE POP PUSH1 0x80 DUP3 ADD MLOAD DUP2 PUSH1 0xA ADD SSTORE PUSH1 0xA0 DUP3 ADD MLOAD DUP2 PUSH1 0xB ADD SSTORE PUSH1 0xC0 DUP3 ADD MLOAD DUP2 PUSH1 0xC ADD SSTORE PUSH1 0xE0 DUP3 ADD MLOAD DUP2 PUSH1 0xD ADD SSTORE POP POP POP POP POP JUMP JUMPDEST PUSH0 DUP1 PUSH0 SWAP1 SLOAD SWAP1 PUSH2 0x100 EXP SWAP1 DIV PUSH20 0xFFFFFFFFFFFFFFFFFFFFFFFFFFFFFFFFFFFFFFFF AND PUSH20 0xFFFFFFFFFFFFFFFFFFFFFFFFFFFFFFFFFFFFFFFF AND PUSH4 0x893D20E8 PUSH1 0x40 MLOAD DUP2 PUSH4 0xFFFFFFFF AND PUSH1 0xE0 SHL DUP2 MSTORE PUSH1 0x4 ADD PUSH1 0x20 PUSH1 0x40 MLOAD DUP1 DUP4 SUB DUP2 DUP7 GAS STATICCALL ISZERO DUP1 ISZERO PUSH2 0x310D JUMPI RETURNDATASIZE PUSH0 DUP1 RETURNDATACOPY RETURNDATASIZE PUSH0 REVERT JUMPDEST POP POP POP POP PUSH1 0x40 MLOAD RETURNDATASIZE PUSH1 0x1F NOT PUSH1 0x1F DUP3 ADD AND DUP3 ADD DUP1 PUSH1 0x40 MSTORE POP DUP2 ADD SWAP1 PUSH2 0x3131 SWAP2 SWAP1 PUSH2 0x44C8 JUMP JUMPDEST SWAP1 POP DUP1 PUSH20 0xFFFFFFFFFFFFFFFFFFFFFFFFFFFFFFFFFFFFFFFF AND CALLER PUSH20 0xFFFFFFFFFFFFFFFFFFFFFFFFFFFFFFFFFFFFFFFF AND EQ PUSH2 0x31A1 JUMPI PUSH1 0x40 MLOAD PUSH32 0x8C379A000000000000000000000000000000000000000000000000000000000 DUP2 MSTORE PUSH1 0x4 ADD PUSH2 0x3198 SWAP1 PUSH2 0x454D JUMP JUMPDEST PUSH1 0x40 MLOAD DUP1 SWAP2 SUB SWAP1 REVERT JUMPDEST PUSH2 0x31AA DUP3 PUSH2 0x386D JUMP JUMPDEST POP POP JUMP JUMPDEST PUSH0 DUP1 PUSH0 SWAP1 SLOAD SWAP1 PUSH2 0x100 EXP SWAP1 DIV PUSH20 0xFFFFFFFFFFFFFFFFFFFFFFFFFFFFFFFFFFFFFFFF AND PUSH20 0xFFFFFFFFFFFFFFFFFFFFFFFFFFFFFFFFFFFFFFFF AND PUSH4 0x3018205F PUSH1 0x40 MLOAD DUP2 PUSH4 0xFFFFFFFF AND PUSH1 0xE0 SHL DUP2 MSTORE PUSH1 0x4 ADD PUSH1 0x20 PUSH1 0x40 MLOAD DUP1 DUP4 SUB DUP2 DUP7 GAS STATICCALL ISZERO DUP1 ISZERO PUSH2 0x3218 JUMPI RETURNDATASIZE PUSH0 DUP1 RETURNDATACOPY RETURNDATASIZE PUSH0 REVERT JUMPDEST POP POP POP POP PUSH1 0x40 MLOAD RETURNDATASIZE PUSH1 0x1F NOT PUSH1 0x1F DUP3 ADD AND DUP3 ADD DUP1 PUSH1 0x40 MSTORE POP DUP2 ADD SWAP1 PUSH2 0x323C SWAP2 SWAP1 PUSH2 0x44C8 JUMP JUMPDEST SWAP1 POP DUP1 PUSH20 0xFFFFFFFFFFFFFFFFFFFFFFFFFFFFFFFFFFFFFFFF AND CALLER PUSH20 0xFFFFFFFFFFFFFFFFFFFFFFFFFFFFFFFFFFFFFFFF AND EQ PUSH2 0x32AC JUMPI PUSH1 0x40 MLOAD PUSH32 0x8C379A000000000000000000000000000000000000000000000000000000000 DUP2 MSTORE PUSH1 0x4 ADD PUSH2 0x32A3 SWAP1 PUSH2 0x454D JUMP JUMPDEST PUSH1 0x40 MLOAD DUP1 SWAP2 SUB SWAP1 REVERT JUMPDEST DUP2 PUSH1 0x11 DUP2 SWAP1 SSTORE POP POP POP JUMP JUMPDEST PUSH0 DUP1 DUP1 SWAP2 POP POP SWAP1 JUMP JUMPDEST PUSH0 PUSH1 0xF PUSH0 SWAP1 SLOAD SWAP1 PUSH2 0x100 EXP SWAP1 DIV PUSH20 0xFFFFFFFFFFFFFFFFFFFFFFFFFFFFFFFFFFFFFFFF AND PUSH20 0xFFFFFFFFFFFFFFFFFFFFFFFFFFFFFFFFFFFFFFFF AND PUSH4 0xA9059CBB CALLER DUP5 PUSH1 0x40 MLOAD DUP4 PUSH4 0xFFFFFFFF AND PUSH1 0xE0 SHL DUP2 MSTORE PUSH1 0x4 ADD PUSH2 0x331D SWAP3 SWAP2 SWAP1 PUSH2 0x4E03 JUMP JUMPDEST PUSH1 0x20 PUSH1 0x40 MLOAD DUP1 DUP4 SUB DUP2 PUSH0 DUP8 GAS CALL ISZERO DUP1 ISZERO PUSH2 0x3339 JUMPI RETURNDATASIZE PUSH0 DUP1 RETURNDATACOPY RETURNDATASIZE PUSH0 REVERT JUMPDEST POP POP POP POP PUSH1 0x40 MLOAD RETURNDATASIZE PUSH1 0x1F NOT PUSH1 0x1F DUP3 ADD AND DUP3 ADD DUP1 PUSH1 0x40 MSTORE POP DUP2 ADD SWAP1 PUSH2 0x335D SWAP2 SWAP1 PUSH2 0x4E54 JUMP JUMPDEST SWAP1 POP DUP1 PUSH2 0x3368 JUMPI PUSH0 DUP1 REVERT JUMPDEST POP POP JUMP JUMPDEST PUSH0 DUP1 PUSH0 PUSH1 0x1 SWAP1 POP JUMPDEST PUSH1 0x1 SLOAD DUP2 LT ISZERO PUSH2 0x340F JUMPI PUSH0 PUSH1 0x2 PUSH0 DUP4 DUP2 MSTORE PUSH1 0x20 ADD SWAP1 DUP2 MSTORE PUSH1 0x20 ADD PUSH0 KECCAK256 PUSH1 0x2 ADD SLOAD SWAP1 POP PUSH0 PUSH1 0x2 PUSH0 DUP5 DUP2 MSTORE PUSH1 0x20 ADD SWAP1 DUP2 MSTORE PUSH1 0x20 ADD PUSH0 KECCAK256 PUSH0 ADD PUSH0 SWAP1 SLOAD SWAP1 PUSH2 0x100 EXP SWAP1 DIV PUSH20 0xFFFFFFFFFFFFFFFFFFFFFFFFFFFFFFFFFFFFFFFF AND SWAP1 POP DUP6 DUP3 GT PUSH2 0x33FA JUMPI PUSH0 PUSH2 0x33DE DUP9 DUP4 PUSH2 0x2396 JUMP JUMPDEST SWAP1 POP PUSH0 DUP2 GT ISZERO PUSH2 0x33F8 JUMPI PUSH1 0x1 DUP6 PUSH2 0x33F5 SWAP2 SWAP1 PUSH2 0x4717 JUMP JUMPDEST SWAP5 POP JUMPDEST POP JUMPDEST POP POP DUP1 DUP1 PUSH2 0x3407 SWAP1 PUSH2 0x46D0 JUMP JUMPDEST SWAP2 POP POP PUSH2 0x3374 JUMP JUMPDEST POP DUP1 SWAP2 POP POP SWAP3 SWAP2 POP POP JUMP JUMPDEST PUSH0 DUP1 PUSH1 0xF PUSH0 SWAP1 SLOAD SWAP1 PUSH2 0x100 EXP SWAP1 DIV PUSH20 0xFFFFFFFFFFFFFFFFFFFFFFFFFFFFFFFFFFFFFFFF AND PUSH20 0xFFFFFFFFFFFFFFFFFFFFFFFFFFFFFFFFFFFFFFFF AND PUSH4 0x70A08231 ADDRESS PUSH1 0x40 MLOAD DUP3 PUSH4 0xFFFFFFFF AND PUSH1 0xE0 SHL DUP2 MSTORE PUSH1 0x4 ADD PUSH2 0x3476 SWAP2 SWAP1 PUSH2 0x3EE4 JUMP JUMPDEST PUSH1 0x20 PUSH1 0x40 MLOAD DUP1 DUP4 SUB DUP2 DUP7 GAS STATICCALL ISZERO DUP1 ISZERO PUSH2 0x3491 JUMPI RETURNDATASIZE PUSH0 DUP1 RETURNDATACOPY RETURNDATASIZE PUSH0 REVERT JUMPDEST POP POP POP POP PUSH1 0x40 MLOAD RETURNDATASIZE PUSH1 0x1F NOT PUSH1 0x1F DUP3 ADD AND DUP3 ADD DUP1 PUSH1 0x40 MSTORE POP DUP2 ADD SWAP1 PUSH2 0x34B5 SWAP2 SWAP1 PUSH2 0x4D70 JUMP JUMPDEST SWAP1 POP PUSH0 PUSH1 0xF PUSH0 SWAP1 SLOAD SWAP1 PUSH2 0x100 EXP SWAP1 DIV PUSH20 0xFFFFFFFFFFFFFFFFFFFFFFFFFFFFFFFFFFFFFFFF AND PUSH20 0xFFFFFFFFFFFFFFFFFFFFFFFFFFFFFFFFFFFFFFFF AND PUSH4 0x23B872DD CALLER ADDRESS DUP8 PUSH1 0x40 MLOAD DUP5 PUSH4 0xFFFFFFFF AND PUSH1 0xE0 SHL DUP2 MSTORE PUSH1 0x4 ADD PUSH2 0x3516 SWAP4 SWAP3 SWAP2 SWAP1 PUSH2 0x4E7F JUMP JUMPDEST PUSH1 0x20 PUSH1 0x40 MLOAD DUP1 DUP4 SUB DUP2 PUSH0 DUP8 GAS CALL ISZERO DUP1 ISZERO PUSH2 0x3532 JUMPI RETURNDATASIZE PUSH0 DUP1 RETURNDATACOPY RETURNDATASIZE PUSH0 REVERT JUMPDEST POP POP POP POP PUSH1 0x40 MLOAD RETURNDATASIZE PUSH1 0x1F NOT PUSH1 0x1F DUP3 ADD AND DUP3 ADD DUP1 PUSH1 0x40 MSTORE POP DUP2 ADD SWAP1 PUSH2 0x3556 SWAP2 SWAP1 PUSH2 0x4E54 JUMP JUMPDEST SWAP1 POP DUP1 PUSH2 0x3561 JUMPI PUSH0 DUP1 REVERT JUMPDEST PUSH0 PUSH1 0xF PUSH0 SWAP1 SLOAD SWAP1 PUSH2 0x100 EXP SWAP1 DIV PUSH20 0xFFFFFFFFFFFFFFFFFFFFFFFFFFFFFFFFFFFFFFFF AND PUSH20 0xFFFFFFFFFFFFFFFFFFFFFFFFFFFFFFFFFFFFFFFF AND PUSH4 0x70A08231 ADDRESS PUSH1 0x40 MLOAD DUP3 PUSH4 0xFFFFFFFF AND PUSH1 0xE0 SHL DUP2 MSTORE PUSH1 0x4 ADD PUSH2 0x35BC SWAP2 SWAP1 PUSH2 0x3EE4 JUMP JUMPDEST PUSH1 0x20 PUSH1 0x40 MLOAD DUP1 DUP4 SUB DUP2 DUP7 GAS STATICCALL ISZERO DUP1 ISZERO PUSH2 0x35D7 JUMPI RETURNDATASIZE PUSH0 DUP1 RETURNDATACOPY RETURNDATASIZE PUSH0 REVERT JUMPDEST POP POP POP POP PUSH1 0x40 MLOAD RETURNDATASIZE PUSH1 0x1F NOT PUSH1 0x1F DUP3 ADD AND DUP3 ADD DUP1 PUSH1 0x40 MSTORE POP DUP2 ADD SWAP1 PUSH2 0x35FB SWAP2 SWAP1 PUSH2 0x4D70 JUMP JUMPDEST SWAP1 POP PUSH0 DUP4 DUP3 PUSH2 0x360A SWAP2 SWAP1 PUSH2 0x4A1D JUMP JUMPDEST SWAP1 POP DUP6 DUP2 LT ISZERO PUSH2 0x3618 JUMPI PUSH0 DUP1 REVERT JUMPDEST DUP1 SWAP5 POP POP POP POP POP SWAP2 SWAP1 POP JUMP JUMPDEST DUP1 ISZERO PUSH2 0x3670 JUMPI PUSH0 PUSH2 0x3634 DUP5 PUSH2 0x656 JUMP JUMPDEST SWAP1 POP PUSH0 DUP1 DUP3 SUB PUSH2 0x364C JUMPI PUSH2 0x3647 DUP6 PUSH2 0x38AF JUMP JUMPDEST PUSH1 0x1 SWAP1 POP JUMPDEST DUP1 ISZERO PUSH2 0x365E JUMPI PUSH2 0x365B DUP6 PUSH2 0x656 JUMP JUMPDEST SWAP2 POP JUMPDEST PUSH2 0x3669 DUP3 DUP6 DUP6 PUSH2 0x39B7 JUMP JUMPDEST POP POP PUSH2 0x36D7 JUMP JUMPDEST PUSH0 ISZERO ISZERO DUP2 ISZERO ISZERO SUB PUSH2 0x36D6 JUMPI PUSH0 PUSH2 0x3685 DUP5 PUSH2 0x656 JUMP JUMPDEST SWAP1 POP PUSH0 DUP2 SUB PUSH2 0x36C9 JUMPI PUSH1 0x40 MLOAD PUSH32 0x8C379A000000000000000000000000000000000000000000000000000000000 DUP2 MSTORE PUSH1 0x4 ADD PUSH2 0x36C0 SWAP1 PUSH2 0x4EFE JUMP JUMPDEST PUSH1 0x40 MLOAD DUP1 SWAP2 SUB SWAP1 REVERT JUMPDEST PUSH2 0x36D4 DUP2 DUP5 DUP5 PUSH2 0x39B7 JUMP JUMPDEST POP JUMPDEST JUMPDEST POP POP POP JUMP JUMPDEST PUSH0 DUP3 MLOAD SWAP1 POP PUSH0 JUMPDEST DUP2 DUP2 LT ISZERO PUSH2 0x3866 JUMPI DUP3 DUP2 DUP2 MLOAD DUP2 LT PUSH2 0x36FE JUMPI PUSH2 0x36FD PUSH2 0x4487 JUMP JUMPDEST JUMPDEST PUSH1 0x20 MUL PUSH1 0x20 ADD ADD MLOAD PUSH1 0x6 PUSH0 DUP7 DUP5 DUP2 MLOAD DUP2 LT PUSH2 0x371C JUMPI PUSH2 0x371B PUSH2 0x4487 JUMP JUMPDEST JUMPDEST PUSH1 0x20 MUL PUSH1 0x20 ADD ADD MLOAD PUSH20 0xFFFFFFFFFFFFFFFFFFFFFFFFFFFFFFFFFFFFFFFF AND PUSH20 0xFFFFFFFFFFFFFFFFFFFFFFFFFFFFFFFFFFFFFFFF AND DUP2 MSTORE PUSH1 0x20 ADD SWAP1 DUP2 MSTORE PUSH1 0x20 ADD PUSH0 KECCAK256 PUSH0 ADD PUSH0 DUP3 DUP3 SLOAD PUSH2 0x376D SWAP2 SWAP1 PUSH2 0x4717 JUMP JUMPDEST SWAP3 POP POP DUP2 SWAP1 SSTORE POP PUSH1 0x6 PUSH0 DUP6 DUP4 DUP2 MLOAD DUP2 LT PUSH2 0x378A JUMPI PUSH2 0x3789 PUSH2 0x4487 JUMP JUMPDEST JUMPDEST PUSH1 0x20 MUL PUSH1 0x20 ADD ADD MLOAD PUSH20 0xFFFFFFFFFFFFFFFFFFFFFFFFFFFFFFFFFFFFFFFF AND PUSH20 0xFFFFFFFFFFFFFFFFFFFFFFFFFFFFFFFFFFFFFFFF AND DUP2 MSTORE PUSH1 0x20 ADD SWAP1 DUP2 MSTORE PUSH1 0x20 ADD PUSH0 KECCAK256 PUSH1 0x1 ADD PUSH1 0x40 MLOAD DUP1 PUSH1 0x60 ADD PUSH1 0x40 MSTORE DUP1 DUP8 DUP2 MSTORE PUSH1 0x20 ADD PUSH1 0x1 DUP5 PUSH2 0x37EC SWAP2 SWAP1 PUSH2 0x4717 JUMP JUMPDEST DUP2 MSTORE PUSH1 0x20 ADD DUP6 DUP5 DUP2 MLOAD DUP2 LT PUSH2 0x3804 JUMPI PUSH2 0x3803 PUSH2 0x4487 JUMP JUMPDEST JUMPDEST PUSH1 0x20 MUL PUSH1 0x20 ADD ADD MLOAD DUP2 MSTORE POP SWAP1 DUP1 PUSH1 0x1 DUP2 SLOAD ADD DUP1 DUP3 SSTORE DUP1 SWAP2 POP POP PUSH1 0x1 SWAP1 SUB SWAP1 PUSH0 MSTORE PUSH1 0x20 PUSH0 KECCAK256 SWAP1 PUSH1 0x3 MUL ADD PUSH0 SWAP1 SWAP2 SWAP1 SWAP2 SWAP1 SWAP2 POP PUSH0 DUP3 ADD MLOAD DUP2 PUSH0 ADD SSTORE PUSH1 0x20 DUP3 ADD MLOAD DUP2 PUSH1 0x1 ADD SSTORE PUSH1 0x40 DUP3 ADD MLOAD DUP2 PUSH1 0x2 ADD SSTORE POP POP DUP1 DUP1 PUSH2 0x385E SWAP1 PUSH2 0x46D0 JUMP JUMPDEST SWAP2 POP POP PUSH2 0x36E3 JUMP JUMPDEST POP POP POP POP POP JUMP JUMPDEST DUP1 PUSH0 DUP1 PUSH2 0x100 EXP DUP2 SLOAD DUP2 PUSH20 0xFFFFFFFFFFFFFFFFFFFFFFFFFFFFFFFFFFFFFFFF MUL NOT AND SWAP1 DUP4 PUSH20 0xFFFFFFFFFFFFFFFFFFFFFFFFFFFFFFFFFFFFFFFF AND MUL OR SWAP1 SSTORE POP POP JUMP JUMPDEST PUSH1 0x1 DUP1 PUSH0 DUP3 DUP3 SLOAD PUSH2 0x38C0 SWAP2 SWAP1 PUSH2 0x4717 JUMP JUMPDEST SWAP3 POP POP DUP2 SWAP1 SSTORE POP PUSH1 0x1 SLOAD PUSH1 0x3 PUSH0 DUP4 PUSH20 0xFFFFFFFFFFFFFFFFFFFFFFFFFFFFFFFFFFFFFFFF AND PUSH20 0xFFFFFFFFFFFFFFFFFFFFFFFFFFFFFFFFFFFFFFFF AND DUP2 MSTORE PUSH1 0x20 ADD SWAP1 DUP2 MSTORE PUSH1 0x20 ADD PUSH0 KECCAK256 DUP2 SWAP1 SSTORE POP PUSH0 PUSH2 0x3915 DUP3 PUSH2 0x656 JUMP JUMPDEST SWAP1 POP DUP2 PUSH1 0x2 PUSH0 DUP4 DUP2 MSTORE PUSH1 0x20 ADD SWAP1 DUP2 MSTORE PUSH1 0x20 ADD PUSH0 KECCAK256 PUSH0 ADD PUSH0 PUSH2 0x100 EXP DUP2 SLOAD DUP2 PUSH20 0xFFFFFFFFFFFFFFFFFFFFFFFFFFFFFFFFFFFFFFFF MUL NOT AND SWAP1 DUP4 PUSH20 0xFFFFFFFFFFFFFFFFFFFFFFFFFFFFFFFFFFFFFFFF AND MUL OR SWAP1 SSTORE POP PUSH0 PUSH1 0x2 PUSH0 DUP4 DUP2 MSTORE PUSH1 0x20 ADD SWAP1 DUP2 MSTORE PUSH1 0x20 ADD PUSH0 KECCAK256 PUSH1 0x1 ADD DUP2 SWAP1 SSTORE POP TIMESTAMP PUSH1 0x2 PUSH0 DUP4 DUP2 MSTORE PUSH1 0x20 ADD SWAP1 DUP2 MSTORE PUSH1 0x20 ADD PUSH0 KECCAK256 PUSH1 0x2 ADD DUP2 SWAP1 SSTORE POP TIMESTAMP PUSH1 0x2 PUSH0 DUP4 DUP2 MSTORE PUSH1 0x20 ADD SWAP1 DUP2 MSTORE PUSH1 0x20 ADD PUSH0 KECCAK256 PUSH1 0x3 ADD DUP2 SWAP1 SSTORE POP POP POP JUMP JUMPDEST PUSH0 PUSH1 0x2 PUSH0 DUP6 DUP2 MSTORE PUSH1 0x20 ADD SWAP1 DUP2 MSTORE PUSH1 0x20 ADD PUSH0 KECCAK256 PUSH1 0x1 ADD SLOAD SWAP1 POP DUP2 ISZERO PUSH2 0x3A1C JUMPI DUP3 PUSH1 0x2 PUSH0 DUP7 DUP2 MSTORE PUSH1 0x20 ADD SWAP1 DUP2 MSTORE PUSH1 0x20 ADD PUSH0 KECCAK256 PUSH1 0x1 ADD PUSH0 DUP3 DUP3 SLOAD PUSH2 0x39F8 SWAP2 SWAP1 PUSH2 0x4717 JUMP JUMPDEST SWAP3 POP POP DUP2 SWAP1 SSTORE POP DUP3 PUSH1 0x8 PUSH0 DUP3 DUP3 SLOAD PUSH2 0x3A10 SWAP2 SWAP1 PUSH2 0x4717 JUMP JUMPDEST SWAP3 POP POP DUP2 SWAP1 SSTORE POP PUSH2 0x3AC2 JUMP JUMPDEST PUSH0 ISZERO ISZERO DUP3 ISZERO ISZERO SUB PUSH2 0x3AC1 JUMPI PUSH1 0x2 PUSH0 DUP6 DUP2 MSTORE PUSH1 0x20 ADD SWAP1 DUP2 MSTORE PUSH1 0x20 ADD PUSH0 KECCAK256 PUSH1 0x1 ADD SLOAD DUP4 GT ISZERO PUSH2 0x3A7E JUMPI PUSH1 0x40 MLOAD PUSH32 0x8C379A000000000000000000000000000000000000000000000000000000000 DUP2 MSTORE PUSH1 0x4 ADD PUSH2 0x3A75 SWAP1 PUSH2 0x4D3E JUMP JUMPDEST PUSH1 0x40 MLOAD DUP1 SWAP2 SUB SWAP1 REVERT JUMPDEST DUP3 PUSH1 0x2 PUSH0 DUP7 DUP2 MSTORE PUSH1 0x20 ADD SWAP1 DUP2 MSTORE PUSH1 0x20 ADD PUSH0 KECCAK256 PUSH1 0x1 ADD PUSH0 DUP3 DUP3 SLOAD PUSH2 0x3AA1 SWAP2 SWAP1 PUSH2 0x4A1D JUMP JUMPDEST SWAP3 POP POP DUP2 SWAP1 SSTORE POP DUP3 PUSH1 0x8 PUSH0 DUP3 DUP3 SLOAD PUSH2 0x3AB9 SWAP2 SWAP1 PUSH2 0x4A1D JUMP JUMPDEST SWAP3 POP POP DUP2 SWAP1 SSTORE POP JUMPDEST JUMPDEST PUSH0 PUSH1 0x2 PUSH0 DUP7 DUP2 MSTORE PUSH1 0x20 ADD SWAP1 DUP2 MSTORE PUSH1 0x20 ADD PUSH0 KECCAK256 PUSH1 0x3 ADD SLOAD SWAP1 POP TIMESTAMP PUSH1 0x2 PUSH0 DUP8 DUP2 MSTORE PUSH1 0x20 ADD SWAP1 DUP2 MSTORE PUSH1 0x20 ADD PUSH0 KECCAK256 PUSH1 0x3 ADD DUP2 SWAP1 SSTORE POP PUSH0 PUSH1 0x2 PUSH0 DUP8 DUP2 MSTORE PUSH1 0x20 ADD SWAP1 DUP2 MSTORE PUSH1 0x20 ADD PUSH0 KECCAK256 PUSH1 0x1 ADD SLOAD SWAP1 POP PUSH0 PUSH2 0x3B14 PUSH2 0x1D80 JUMP JUMPDEST SWAP1 POP PUSH2 0x3B22 DUP8 DUP6 DUP5 DUP5 PUSH2 0x3B37 JUMP JUMPDEST PUSH2 0x3B2E DUP8 DUP6 DUP6 DUP5 PUSH2 0x3BF9 JUMP JUMPDEST POP POP POP POP POP POP POP JUMP JUMPDEST PUSH1 0x1 PUSH1 0x5 PUSH0 DUP4 DUP2 MSTORE PUSH1 0x20 ADD SWAP1 DUP2 MSTORE PUSH1 0x20 ADD PUSH0 KECCAK256 PUSH0 DUP7 DUP2 MSTORE PUSH1 0x20 ADD SWAP1 DUP2 MSTORE PUSH1 0x20 ADD PUSH0 KECCAK256 PUSH0 ADD PUSH0 PUSH2 0x100 EXP DUP2 SLOAD DUP2 PUSH1 0xFF MUL NOT AND SWAP1 DUP4 ISZERO ISZERO MUL OR SWAP1 SSTORE POP PUSH1 0x5 PUSH0 DUP3 DUP2 MSTORE PUSH1 0x20 ADD SWAP1 DUP2 MSTORE PUSH1 0x20 ADD PUSH0 KECCAK256 PUSH0 DUP6 DUP2 MSTORE PUSH1 0x20 ADD SWAP1 DUP2 MSTORE PUSH1 0x20 ADD PUSH0 KECCAK256 PUSH1 0x1 ADD PUSH1 0x40 MLOAD DUP1 PUSH1 0x60 ADD PUSH1 0x40 MSTORE DUP1 DUP6 DUP2 MSTORE PUSH1 0x20 ADD DUP5 DUP2 MSTORE PUSH1 0x20 ADD TIMESTAMP DUP2 MSTORE POP SWAP1 DUP1 PUSH1 0x1 DUP2 SLOAD ADD DUP1 DUP3 SSTORE DUP1 SWAP2 POP POP PUSH1 0x1 SWAP1 SUB SWAP1 PUSH0 MSTORE PUSH1 0x20 PUSH0 KECCAK256 SWAP1 PUSH1 0x3 MUL ADD PUSH0 SWAP1 SWAP2 SWAP1 SWAP2 SWAP1 SWAP2 POP PUSH0 DUP3 ADD MLOAD DUP2 PUSH0 ADD SSTORE PUSH1 0x20 DUP3 ADD MLOAD DUP2 PUSH1 0x1 ADD SSTORE PUSH1 0x40 DUP3 ADD MLOAD DUP2 PUSH1 0x2 ADD SSTORE POP POP POP POP POP POP JUMP JUMPDEST PUSH0 PUSH2 0x3C03 DUP3 PUSH2 0x6C9 JUMP JUMPDEST SWAP1 POP PUSH0 DUP2 PUSH1 0xC0 ADD MLOAD SWAP1 POP PUSH0 DUP3 PUSH1 0xA0 ADD MLOAD SWAP1 POP PUSH0 DUP3 DUP3 PUSH2 0x3C22 SWAP2 SWAP1 PUSH2 0x4717 JUMP JUMPDEST SWAP1 POP PUSH0 DUP4 DUP8 LT ISZERO PUSH2 0x3C40 JUMPI DUP4 TIMESTAMP PUSH2 0x3C39 SWAP2 SWAP1 PUSH2 0x4A1D JUMP JUMPDEST SWAP1 POP PUSH2 0x3C65 JUMP JUMPDEST DUP4 DUP8 LT ISZERO DUP1 ISZERO PUSH2 0x3C50 JUMPI POP DUP2 DUP8 GT ISZERO JUMPDEST ISZERO PUSH2 0x3C64 JUMPI DUP7 TIMESTAMP PUSH2 0x3C61 SWAP2 SWAP1 PUSH2 0x4A1D JUMP JUMPDEST SWAP1 POP JUMPDEST JUMPDEST PUSH0 DUP9 DUP3 PUSH2 0x3C72 SWAP2 SWAP1 PUSH2 0x4952 JUMP JUMPDEST SWAP1 POP DUP1 PUSH1 0x4 PUSH0 DUP10 DUP2 MSTORE PUSH1 0x20 ADD SWAP1 DUP2 MSTORE PUSH1 0x20 ADD PUSH0 KECCAK256 PUSH0 DUP13 DUP2 MSTORE PUSH1 0x20 ADD SWAP1 DUP2 MSTORE PUSH1 0x20 ADD PUSH0 KECCAK256 PUSH0 DUP3 DUP3 SLOAD PUSH2 0x3CA3 SWAP2 SWAP1 PUSH2 0x4717 JUMP JUMPDEST SWAP3 POP POP DUP2 SWAP1 SSTORE POP POP POP POP POP POP POP POP POP POP POP JUMP JUMPDEST PUSH1 0x40 MLOAD DUP1 PUSH1 0x60 ADD PUSH1 0x40 MSTORE DUP1 PUSH0 DUP2 MSTORE PUSH1 0x20 ADD PUSH0 DUP2 MSTORE PUSH1 0x20 ADD PUSH0 DUP2 MSTORE POP SWAP1 JUMP JUMPDEST PUSH1 0x40 MLOAD DUP1 PUSH2 0x100 ADD PUSH1 0x40 MSTORE DUP1 PUSH2 0x3CE8 PUSH2 0x3D7D JUMP JUMPDEST DUP2 MSTORE PUSH1 0x20 ADD PUSH2 0x3CF5 PUSH2 0x3D7D JUMP JUMPDEST DUP2 MSTORE PUSH1 0x20 ADD PUSH2 0x3D02 PUSH2 0x3D7D JUMP JUMPDEST DUP2 MSTORE PUSH1 0x20 ADD PUSH0 ISZERO ISZERO DUP2 MSTORE PUSH1 0x20 ADD PUSH0 DUP2 MSTORE PUSH1 0x20 ADD PUSH0 DUP2 MSTORE PUSH1 0x20 ADD PUSH0 DUP2 MSTORE PUSH1 0x20 ADD PUSH0 DUP2 MSTORE POP SWAP1 JUMP JUMPDEST PUSH1 0x40 MLOAD DUP1 PUSH1 0x40 ADD PUSH1 0x40 MSTORE DUP1 PUSH0 ISZERO ISZERO DUP2 MSTORE PUSH1 0x20 ADD PUSH1 0x60 DUP2 MSTORE POP SWAP1 JUMP JUMPDEST PUSH1 0x40 MLOAD DUP1 PUSH1 0x80 ADD PUSH1 0x40 MSTORE DUP1 PUSH0 PUSH20 0xFFFFFFFFFFFFFFFFFFFFFFFFFFFFFFFFFFFFFFFF AND DUP2 MSTORE PUSH1 0x20 ADD PUSH0 DUP2 MSTORE PUSH1 0x20 ADD PUSH0 DUP2 MSTORE PUSH1 0x20 ADD PUSH0 DUP2 MSTORE POP SWAP1 JUMP JUMPDEST PUSH1 0x40 MLOAD DUP1 PUSH1 0x60 ADD PUSH1 0x40 MSTORE DUP1 PUSH0 PUSH20 0xFFFFFFFFFFFFFFFFFFFFFFFFFFFFFFFFFFFFFFFF AND DUP2 MSTORE PUSH1 0x20 ADD PUSH0 DUP2 MSTORE PUSH1 0x20 ADD PUSH0 ISZERO ISZERO DUP2 MSTORE POP SWAP1 JUMP JUMPDEST PUSH0 DUP2 SWAP1 POP SWAP2 SWAP1 POP JUMP JUMPDEST PUSH2 0x3DC5 DUP2 PUSH2 0x3DB3 JUMP JUMPDEST DUP3 MSTORE POP POP JUMP JUMPDEST PUSH1 0x60 DUP3 ADD PUSH0 DUP3 ADD MLOAD PUSH2 0x3DDF PUSH0 DUP6 ADD DUP3 PUSH2 0x3DBC JUMP JUMPDEST POP PUSH1 0x20 DUP3 ADD MLOAD PUSH2 0x3DF2 PUSH1 0x20 DUP6 ADD DUP3 PUSH2 0x3DBC JUMP JUMPDEST POP PUSH1 0x40 DUP3 ADD MLOAD PUSH2 0x3E05 PUSH1 0x40 DUP6 ADD DUP3 PUSH2 0x3DBC JUMP JUMPDEST POP POP POP POP JUMP JUMPDEST PUSH0 PUSH1 0x60 DUP3 ADD SWAP1 POP PUSH2 0x3E1E PUSH0 DUP4 ADD DUP5 PUSH2 0x3DCB JUMP JUMPDEST SWAP3 SWAP2 POP POP JUMP JUMPDEST PUSH2 0x3E2D DUP2 PUSH2 0x3DB3 JUMP JUMPDEST DUP3 MSTORE POP POP JUMP JUMPDEST PUSH0 PUSH1 0x20 DUP3 ADD SWAP1 POP PUSH2 0x3E46 PUSH0 DUP4 ADD DUP5 PUSH2 0x3E24 JUMP JUMPDEST SWAP3 SWAP2 POP POP JUMP JUMPDEST PUSH0 DUP1 REVERT JUMPDEST PUSH0 PUSH20 0xFFFFFFFFFFFFFFFFFFFFFFFFFFFFFFFFFFFFFFFF DUP3 AND SWAP1 POP SWAP2 SWAP1 POP JUMP JUMPDEST PUSH0 PUSH2 0x3E79 DUP3 PUSH2 0x3E50 JUMP JUMPDEST SWAP1 POP SWAP2 SWAP1 POP JUMP JUMPDEST PUSH2 0x3E89 DUP2 PUSH2 0x3E6F JUMP JUMPDEST DUP2 EQ PUSH2 0x3E93 JUMPI PUSH0 DUP1 REVERT JUMPDEST POP JUMP JUMPDEST PUSH0 DUP2 CALLDATALOAD SWAP1 POP PUSH2 0x3EA4 DUP2 PUSH2 0x3E80 JUMP JUMPDEST SWAP3 SWAP2 POP POP JUMP JUMPDEST PUSH0 PUSH1 0x20 DUP3 DUP5 SUB SLT ISZERO PUSH2 0x3EBF JUMPI PUSH2 0x3EBE PUSH2 0x3E4C JUMP JUMPDEST JUMPDEST PUSH0 PUSH2 0x3ECC DUP5 DUP3 DUP6 ADD PUSH2 0x3E96 JUMP JUMPDEST SWAP2 POP POP SWAP3 SWAP2 POP POP JUMP JUMPDEST PUSH2 0x3EDE DUP2 PUSH2 0x3E6F JUMP JUMPDEST DUP3 MSTORE POP POP JUMP JUMPDEST PUSH0 PUSH1 0x20 DUP3 ADD SWAP1 POP PUSH2 0x3EF7 PUSH0 DUP4 ADD DUP5 PUSH2 0x3ED5 JUMP JUMPDEST SWAP3 SWAP2 POP POP JUMP JUMPDEST PUSH2 0x3F06 DUP2 PUSH2 0x3DB3 JUMP JUMPDEST DUP2 EQ PUSH2 0x3F10 JUMPI PUSH0 DUP1 REVERT JUMPDEST POP JUMP JUMPDEST PUSH0 DUP2 CALLDATALOAD SWAP1 POP PUSH2 0x3F21 DUP2 PUSH2 0x3EFD JUMP JUMPDEST SWAP3 SWAP2 POP POP JUMP JUMPDEST PUSH0 PUSH1 0x20 DUP3 DUP5 SUB SLT ISZERO PUSH2 0x3F3C JUMPI PUSH2 0x3F3B PUSH2 0x3E4C JUMP JUMPDEST JUMPDEST PUSH0 PUSH2 0x3F49 DUP5 DUP3 DUP6 ADD PUSH2 0x3F13 JUMP JUMPDEST SWAP2 POP POP SWAP3 SWAP2 POP POP JUMP JUMPDEST PUSH2 0x3F5B DUP2 PUSH2 0x3E6F JUMP JUMPDEST DUP3 MSTORE POP POP JUMP JUMPDEST PUSH0 DUP2 ISZERO ISZERO SWAP1 POP SWAP2 SWAP1 POP JUMP JUMPDEST PUSH2 0x3F75 DUP2 PUSH2 0x3F61 JUMP JUMPDEST DUP3 MSTORE POP POP JUMP JUMPDEST PUSH1 0x60 DUP3 ADD PUSH0 DUP3 ADD MLOAD PUSH2 0x3F8F PUSH0 DUP6 ADD DUP3 PUSH2 0x3F52 JUMP JUMPDEST POP PUSH1 0x20 DUP3 ADD MLOAD PUSH2 0x3FA2 PUSH1 0x20 DUP6 ADD DUP3 PUSH2 0x3DBC JUMP JUMPDEST POP PUSH1 0x40 DUP3 ADD MLOAD PUSH2 0x3FB5 PUSH1 0x40 DUP6 ADD DUP3 PUSH2 0x3F6C JUMP JUMPDEST POP POP POP POP JUMP JUMPDEST PUSH2 0x1C0 DUP3 ADD PUSH0 DUP3 ADD MLOAD PUSH2 0x3FD0 PUSH0 DUP6 ADD DUP3 PUSH2 0x3F7B JUMP JUMPDEST POP PUSH1 0x20 DUP3 ADD MLOAD PUSH2 0x3FE3 PUSH1 0x60 DUP6 ADD DUP3 PUSH2 0x3F7B JUMP JUMPDEST POP PUSH1 0x40 DUP3 ADD MLOAD PUSH2 0x3FF6 PUSH1 0xC0 DUP6 ADD DUP3 PUSH2 0x3F7B JUMP JUMPDEST POP PUSH1 0x60 DUP3 ADD MLOAD PUSH2 0x400A PUSH2 0x120 DUP6 ADD DUP3 PUSH2 0x3F6C JUMP JUMPDEST POP PUSH1 0x80 DUP3 ADD MLOAD PUSH2 0x401E PUSH2 0x140 DUP6 ADD DUP3 PUSH2 0x3DBC JUMP JUMPDEST POP PUSH1 0xA0 DUP3 ADD MLOAD PUSH2 0x4032 PUSH2 0x160 DUP6 ADD DUP3 PUSH2 0x3DBC JUMP JUMPDEST POP PUSH1 0xC0 DUP3 ADD MLOAD PUSH2 0x4046 PUSH2 0x180 DUP6 ADD DUP3 PUSH2 0x3DBC JUMP JUMPDEST POP PUSH1 0xE0 DUP3 ADD MLOAD PUSH2 0x405A PUSH2 0x1A0 DUP6 ADD DUP3 PUSH2 0x3DBC JUMP JUMPDEST POP POP POP POP JUMP JUMPDEST PUSH0 PUSH2 0x1C0 DUP3 ADD SWAP1 POP PUSH2 0x4074 PUSH0 DUP4 ADD DUP5 PUSH2 0x3FBB JUMP JUMPDEST SWAP3 SWAP2 POP POP JUMP JUMPDEST PUSH0 DUP2 MLOAD SWAP1 POP SWAP2 SWAP1 POP JUMP JUMPDEST PUSH0 DUP3 DUP3 MSTORE PUSH1 0x20 DUP3 ADD SWAP1 POP SWAP3 SWAP2 POP POP JUMP JUMPDEST PUSH0 DUP2 SWAP1 POP PUSH1 0x20 DUP3 ADD SWAP1 POP SWAP2 SWAP1 POP JUMP JUMPDEST PUSH1 0x60 DUP3 ADD PUSH0 DUP3 ADD MLOAD PUSH2 0x40B7 PUSH0 DUP6 ADD DUP3 PUSH2 0x3DBC JUMP JUMPDEST POP PUSH1 0x20 DUP3 ADD MLOAD PUSH2 0x40CA PUSH1 0x20 DUP6 ADD DUP3 PUSH2 0x3DBC JUMP JUMPDEST POP PUSH1 0x40 DUP3 ADD MLOAD PUSH2 0x40DD PUSH1 0x40 DUP6 ADD DUP3 PUSH2 0x3DBC JUMP JUMPDEST POP POP POP POP JUMP JUMPDEST PUSH0 PUSH2 0x40EE DUP4 DUP4 PUSH2 0x40A3 JUMP JUMPDEST PUSH1 0x60 DUP4 ADD SWAP1 POP SWAP3 SWAP2 POP POP JUMP JUMPDEST PUSH0 PUSH1 0x20 DUP3 ADD SWAP1 POP SWAP2 SWAP1 POP JUMP JUMPDEST PUSH0 PUSH2 0x4110 DUP3 PUSH2 0x407A JUMP JUMPDEST PUSH2 0x411A DUP2 DUP6 PUSH2 0x4084 JUMP JUMPDEST SWAP4 POP PUSH2 0x4125 DUP4 PUSH2 0x4094 JUMP JUMPDEST DUP1 PUSH0 JUMPDEST DUP4 DUP2 LT ISZERO PUSH2 0x4155 JUMPI DUP2 MLOAD PUSH2 0x413C DUP9 DUP3 PUSH2 0x40E3 JUMP JUMPDEST SWAP8 POP PUSH2 0x4147 DUP4 PUSH2 0x40FA JUMP JUMPDEST SWAP3 POP POP PUSH1 0x1 DUP2 ADD SWAP1 POP PUSH2 0x4128 JUMP JUMPDEST POP DUP6 SWAP4 POP POP POP POP SWAP3 SWAP2 POP POP JUMP JUMPDEST PUSH0 PUSH1 0x20 DUP3 ADD SWAP1 POP DUP2 DUP2 SUB PUSH0 DUP4 ADD MSTORE PUSH2 0x417A DUP2 DUP5 PUSH2 0x4106 JUMP JUMPDEST SWAP1 POP SWAP3 SWAP2 POP POP JUMP JUMPDEST PUSH0 DUP1 PUSH1 0x40 DUP4 DUP6 SUB SLT ISZERO PUSH2 0x4198 JUMPI PUSH2 0x4197 PUSH2 0x3E4C JUMP JUMPDEST JUMPDEST PUSH0 PUSH2 0x41A5 DUP6 DUP3 DUP7 ADD PUSH2 0x3E96 JUMP JUMPDEST SWAP3 POP POP PUSH1 0x20 PUSH2 0x41B6 DUP6 DUP3 DUP7 ADD PUSH2 0x3F13 JUMP JUMPDEST SWAP2 POP POP SWAP3 POP SWAP3 SWAP1 POP JUMP JUMPDEST PUSH0 DUP2 MLOAD SWAP1 POP SWAP2 SWAP1 POP JUMP JUMPDEST PUSH0 DUP3 DUP3 MSTORE PUSH1 0x20 DUP3 ADD SWAP1 POP SWAP3 SWAP2 POP POP JUMP JUMPDEST PUSH0 DUP2 SWAP1 POP PUSH1 0x20 DUP3 ADD SWAP1 POP SWAP2 SWAP1 POP JUMP JUMPDEST PUSH1 0x60 DUP3 ADD PUSH0 DUP3 ADD MLOAD PUSH2 0x41FD PUSH0 DUP6 ADD DUP3 PUSH2 0x3DBC JUMP JUMPDEST POP PUSH1 0x20 DUP3 ADD MLOAD PUSH2 0x4210 PUSH1 0x20 DUP6 ADD DUP3 PUSH2 0x3DBC JUMP JUMPDEST POP PUSH1 0x40 DUP3 ADD MLOAD PUSH2 0x4223 PUSH1 0x40 DUP6 ADD DUP3 PUSH2 0x3DBC JUMP JUMPDEST POP POP POP POP JUMP JUMPDEST PUSH0 PUSH2 0x4234 DUP4 DUP4 PUSH2 0x41E9 JUMP JUMPDEST PUSH1 0x60 DUP4 ADD SWAP1 POP SWAP3 SWAP2 POP POP JUMP JUMPDEST PUSH0 PUSH1 0x20 DUP3 ADD SWAP1 POP SWAP2 SWAP1 POP JUMP JUMPDEST PUSH0 PUSH2 0x4256 DUP3 PUSH2 0x41C0 JUMP JUMPDEST PUSH2 0x4260 DUP2 DUP6 PUSH2 0x41CA JUMP JUMPDEST SWAP4 POP PUSH2 0x426B DUP4 PUSH2 0x41DA JUMP JUMPDEST DUP1 PUSH0 JUMPDEST DUP4 DUP2 LT ISZERO PUSH2 0x429B JUMPI DUP2 MLOAD PUSH2 0x4282 DUP9 DUP3 PUSH2 0x4229 JUMP JUMPDEST SWAP8 POP PUSH2 0x428D DUP4 PUSH2 0x4240 JUMP JUMPDEST SWAP3 POP POP PUSH1 0x1 DUP2 ADD SWAP1 POP PUSH2 0x426E JUMP JUMPDEST POP DUP6 SWAP4 POP POP POP POP SWAP3 SWAP2 POP POP JUMP JUMPDEST PUSH0 PUSH1 0x40 DUP4 ADD PUSH0 DUP4 ADD MLOAD PUSH2 0x42BD PUSH0 DUP7 ADD DUP3 PUSH2 0x3F6C JUMP JUMPDEST POP PUSH1 0x20 DUP4 ADD MLOAD DUP5 DUP3 SUB PUSH1 0x20 DUP7 ADD MSTORE PUSH2 0x42D5 DUP3 DUP3 PUSH2 0x424C JUMP JUMPDEST SWAP2 POP POP DUP1 SWAP2 POP POP SWAP3 SWAP2 POP POP JUMP JUMPDEST PUSH0 PUSH1 0x20 DUP3 ADD SWAP1 POP DUP2 DUP2 SUB PUSH0 DUP4 ADD MSTORE PUSH2 0x42FA DUP2 DUP5 PUSH2 0x42A8 JUMP JUMPDEST SWAP1 POP SWAP3 SWAP2 POP POP JUMP JUMPDEST PUSH0 DUP1 PUSH0 DUP1 PUSH0 PUSH1 0xA0 DUP7 DUP9 SUB SLT ISZERO PUSH2 0x431B JUMPI PUSH2 0x431A PUSH2 0x3E4C JUMP JUMPDEST JUMPDEST PUSH0 PUSH2 0x4328 DUP9 DUP3 DUP10 ADD PUSH2 0x3F13 JUMP JUMPDEST SWAP6 POP POP PUSH1 0x20 PUSH2 0x4339 DUP9 DUP3 DUP10 ADD PUSH2 0x3E96 JUMP JUMPDEST SWAP5 POP POP PUSH1 0x40 PUSH2 0x434A DUP9 DUP3 DUP10 ADD PUSH2 0x3E96 JUMP JUMPDEST SWAP4 POP POP PUSH1 0x60 PUSH2 0x435B DUP9 DUP3 DUP10 ADD PUSH2 0x3E96 JUMP JUMPDEST SWAP3 POP POP PUSH1 0x80 PUSH2 0x436C DUP9 DUP3 DUP10 ADD PUSH2 0x3F13 JUMP JUMPDEST SWAP2 POP POP SWAP3 SWAP6 POP SWAP3 SWAP6 SWAP1 SWAP4 POP JUMP JUMPDEST PUSH0 DUP1 PUSH1 0x40 DUP4 DUP6 SUB SLT ISZERO PUSH2 0x438F JUMPI PUSH2 0x438E PUSH2 0x3E4C JUMP JUMPDEST JUMPDEST PUSH0 PUSH2 0x439C DUP6 DUP3 DUP7 ADD PUSH2 0x3F13 JUMP JUMPDEST SWAP3 POP POP PUSH1 0x20 PUSH2 0x43AD DUP6 DUP3 DUP7 ADD PUSH2 0x3E96 JUMP JUMPDEST SWAP2 POP POP SWAP3 POP SWAP3 SWAP1 POP JUMP JUMPDEST PUSH1 0x80 DUP3 ADD PUSH0 DUP3 ADD MLOAD PUSH2 0x43CB PUSH0 DUP6 ADD DUP3 PUSH2 0x3F52 JUMP JUMPDEST POP PUSH1 0x20 DUP3 ADD MLOAD PUSH2 0x43DE PUSH1 0x20 DUP6 ADD DUP3 PUSH2 0x3DBC JUMP JUMPDEST POP PUSH1 0x40 DUP3 ADD MLOAD PUSH2 0x43F1 PUSH1 0x40 DUP6 ADD DUP3 PUSH2 0x3DBC JUMP JUMPDEST POP PUSH1 0x60 DUP3 ADD MLOAD PUSH2 0x4404 PUSH1 0x60 DUP6 ADD DUP3 PUSH2 0x3DBC JUMP JUMPDEST POP POP POP POP JUMP JUMPDEST PUSH0 PUSH1 0x80 DUP3 ADD SWAP1 POP PUSH2 0x441D PUSH0 DUP4 ADD DUP5 PUSH2 0x43B7 JUMP JUMPDEST SWAP3 SWAP2 POP POP JUMP JUMPDEST PUSH0 DUP1 PUSH0 DUP1 PUSH1 0x80 DUP6 DUP8 SUB SLT ISZERO PUSH2 0x443B JUMPI PUSH2 0x443A PUSH2 0x3E4C JUMP JUMPDEST JUMPDEST PUSH0 PUSH2 0x4448 DUP8 DUP3 DUP9 ADD PUSH2 0x3F13 JUMP JUMPDEST SWAP5 POP POP PUSH1 0x20 PUSH2 0x4459 DUP8 DUP3 DUP9 ADD PUSH2 0x3F13 JUMP JUMPDEST SWAP4 POP POP PUSH1 0x40 PUSH2 0x446A DUP8 DUP3 DUP9 ADD PUSH2 0x3F13 JUMP JUMPDEST SWAP3 POP POP PUSH1 0x60 PUSH2 0x447B DUP8 DUP3 DUP9 ADD PUSH2 0x3F13 JUMP JUMPDEST SWAP2 POP POP SWAP3 SWAP6 SWAP2 SWAP5 POP SWAP3 POP JUMP JUMPDEST PUSH32 0x4E487B7100000000000000000000000000000000000000000000000000000000 PUSH0 MSTORE PUSH1 0x32 PUSH1 0x4 MSTORE PUSH1 0x24 PUSH0 REVERT JUMPDEST PUSH0 DUP2 MLOAD SWAP1 POP PUSH2 0x44C2 DUP2 PUSH2 0x3E80 JUMP JUMPDEST SWAP3 SWAP2 POP POP JUMP JUMPDEST PUSH0 PUSH1 0x20 DUP3 DUP5 SUB SLT ISZERO PUSH2 0x44DD JUMPI PUSH2 0x44DC PUSH2 0x3E4C JUMP JUMPDEST JUMPDEST PUSH0 PUSH2 0x44EA DUP5 DUP3 DUP6 ADD PUSH2 0x44B4 JUMP JUMPDEST SWAP2 POP POP SWAP3 SWAP2 POP POP JUMP JUMPDEST PUSH0 DUP3 DUP3 MSTORE PUSH1 0x20 DUP3 ADD SWAP1 POP SWAP3 SWAP2 POP POP JUMP JUMPDEST PUSH32 0x496E76616C69642063616C6C6572000000000000000000000000000000000000 PUSH0 DUP3 ADD MSTORE POP JUMP JUMPDEST PUSH0 PUSH2 0x4537 PUSH1 0xE DUP4 PUSH2 0x44F3 JUMP JUMPDEST SWAP2 POP PUSH2 0x4542 DUP3 PUSH2 0x4503 JUMP JUMPDEST PUSH1 0x20 DUP3 ADD SWAP1 POP SWAP2 SWAP1 POP JUMP JUMPDEST PUSH0 PUSH1 0x20 DUP3 ADD SWAP1 POP DUP2 DUP2 SUB PUSH0 DUP4 ADD MSTORE PUSH2 0x4564 DUP2 PUSH2 0x452B JUMP JUMPDEST SWAP1 POP SWAP2 SWAP1 POP JUMP JUMPDEST PUSH32 0x496C6C6567616C2063616C6C0000000000000000000000000000000000000000 PUSH0 DUP3 ADD MSTORE POP JUMP JUMPDEST PUSH0 PUSH2 0x459F PUSH1 0xC DUP4 PUSH2 0x44F3 JUMP JUMPDEST SWAP2 POP PUSH2 0x45AA DUP3 PUSH2 0x456B JUMP JUMPDEST PUSH1 0x20 DUP3 ADD SWAP1 POP SWAP2 SWAP1 POP JUMP JUMPDEST PUSH0 PUSH1 0x20 DUP3 ADD SWAP1 POP DUP2 DUP2 SUB PUSH0 DUP4 ADD MSTORE PUSH2 0x45CC DUP2 PUSH2 0x4593 JUMP JUMPDEST SWAP1 POP SWAP2 SWAP1 POP JUMP JUMPDEST PUSH32 0x436F6E7472616374206E6F742073746172746564000000000000000000000000 PUSH0 DUP3 ADD MSTORE POP JUMP JUMPDEST PUSH0 PUSH2 0x4607 PUSH1 0x14 DUP4 PUSH2 0x44F3 JUMP JUMPDEST SWAP2 POP PUSH2 0x4612 DUP3 PUSH2 0x45D3 JUMP JUMPDEST PUSH1 0x20 DUP3 ADD SWAP1 POP SWAP2 SWAP1 POP JUMP JUMPDEST PUSH0 PUSH1 0x20 DUP3 ADD SWAP1 POP DUP2 DUP2 SUB PUSH0 DUP4 ADD MSTORE PUSH2 0x4634 DUP2 PUSH2 0x45FB JUMP JUMPDEST SWAP1 POP SWAP2 SWAP1 POP JUMP JUMPDEST PUSH32 0x4E6F207265776172647320746F20636C61696D00000000000000000000000000 PUSH0 DUP3 ADD MSTORE POP JUMP JUMPDEST PUSH0 PUSH2 0x466F PUSH1 0x13 DUP4 PUSH2 0x44F3 JUMP JUMPDEST SWAP2 POP PUSH2 0x467A DUP3 PUSH2 0x463B JUMP JUMPDEST PUSH1 0x20 DUP3 ADD SWAP1 POP SWAP2 SWAP1 POP JUMP JUMPDEST PUSH0 PUSH1 0x20 DUP3 ADD SWAP1 POP DUP2 DUP2 SUB PUSH0 DUP4 ADD MSTORE PUSH2 0x469C DUP2 PUSH2 0x4663 JUMP JUMPDEST SWAP1 POP SWAP2 SWAP1 POP JUMP JUMPDEST PUSH32 0x4E487B7100000000000000000000000000000000000000000000000000000000 PUSH0 MSTORE PUSH1 0x11 PUSH1 0x4 MSTORE PUSH1 0x24 PUSH0 REVERT JUMPDEST PUSH0 PUSH2 0x46DA DUP3 PUSH2 0x3DB3 JUMP JUMPDEST SWAP2 POP PUSH32 0xFFFFFFFFFFFFFFFFFFFFFFFFFFFFFFFFFFFFFFFFFFFFFFFFFFFFFFFFFFFFFFFF DUP3 SUB PUSH2 0x470C JUMPI PUSH2 0x470B PUSH2 0x46A3 JUMP JUMPDEST JUMPDEST PUSH1 0x1 DUP3 ADD SWAP1 POP SWAP2 SWAP1 POP JUMP JUMPDEST PUSH0 PUSH2 0x4721 DUP3 PUSH2 0x3DB3 JUMP JUMPDEST SWAP2 POP PUSH2 0x472C DUP4 PUSH2 0x3DB3 JUMP JUMPDEST SWAP3 POP DUP3 DUP3 ADD SWAP1 POP DUP1 DUP3 GT ISZERO PUSH2 0x4744 JUMPI PUSH2 0x4743 PUSH2 0x46A3 JUMP JUMPDEST JUMPDEST SWAP3 SWAP2 POP POP JUMP JUMPDEST PUSH32 0x546865206D696E696D756D20616D6F756E74206973206E6F74206D6574000000 PUSH0 DUP3 ADD MSTORE POP JUMP JUMPDEST PUSH0 PUSH2 0x477E PUSH1 0x1D DUP4 PUSH2 0x44F3 JUMP JUMPDEST SWAP2 POP PUSH2 0x4789 DUP3 PUSH2 0x474A JUMP JUMPDEST PUSH1 0x20 DUP3 ADD SWAP1 POP SWAP2 SWAP1 POP JUMP JUMPDEST PUSH0 PUSH1 0x20 DUP3 ADD SWAP1 POP DUP2 DUP2 SUB PUSH0 DUP4 ADD MSTORE PUSH2 0x47AB DUP2 PUSH2 0x4772 JUMP JUMPDEST SWAP1 POP SWAP2 SWAP1 POP JUMP JUMPDEST PUSH32 0x496E76616C69642065706F6368206E756D626572000000000000000000000000 PUSH0 DUP3 ADD MSTORE POP JUMP JUMPDEST PUSH0 PUSH2 0x47E6 PUSH1 0x14 DUP4 PUSH2 0x44F3 JUMP JUMPDEST SWAP2 POP PUSH2 0x47F1 DUP3 PUSH2 0x47B2 JUMP JUMPDEST PUSH1 0x20 DUP3 ADD SWAP1 POP SWAP2 SWAP1 POP JUMP JUMPDEST PUSH0 PUSH1 0x20 DUP3 ADD SWAP1 POP DUP2 DUP2 SUB PUSH0 DUP4 ADD MSTORE PUSH2 0x4813 DUP2 PUSH2 0x47DA JUMP JUMPDEST SWAP1 POP SWAP2 SWAP1 POP JUMP JUMPDEST PUSH32 0x55736572206861736E2774207265676973746572656400000000000000000000 PUSH0 DUP3 ADD MSTORE POP JUMP JUMPDEST PUSH0 PUSH2 0x484E PUSH1 0x16 DUP4 PUSH2 0x44F3 JUMP JUMPDEST SWAP2 POP PUSH2 0x4859 DUP3 PUSH2 0x481A JUMP JUMPDEST PUSH1 0x20 DUP3 ADD SWAP1 POP SWAP2 SWAP1 POP JUMP JUMPDEST PUSH0 PUSH1 0x20 DUP3 ADD SWAP1 POP DUP2 DUP2 SUB PUSH0 DUP4 ADD MSTORE PUSH2 0x487B DUP2 PUSH2 0x4842 JUMP JUMPDEST SWAP1 POP SWAP2 SWAP1 POP JUMP JUMPDEST PUSH32 0x45706F636820697320646F6E6500000000000000000000000000000000000000 PUSH0 DUP3 ADD MSTORE POP JUMP JUMPDEST PUSH0 PUSH2 0x48B6 PUSH1 0xD DUP4 PUSH2 0x44F3 JUMP JUMPDEST SWAP2 POP PUSH2 0x48C1 DUP3 PUSH2 0x4882 JUMP JUMPDEST PUSH1 0x20 DUP3 ADD SWAP1 POP SWAP2 SWAP1 POP JUMP JUMPDEST PUSH0 PUSH1 0x20 DUP3 ADD SWAP1 POP DUP2 DUP2 SUB PUSH0 DUP4 ADD MSTORE PUSH2 0x48E3 DUP2 PUSH2 0x48AA JUMP JUMPDEST SWAP1 POP SWAP2 SWAP1 POP JUMP JUMPDEST PUSH32 0x45706F63682069736E277420646F6E6500000000000000000000000000000000 PUSH0 DUP3 ADD MSTORE POP JUMP JUMPDEST PUSH0 PUSH2 0x491E PUSH1 0x10 DUP4 PUSH2 0x44F3 JUMP JUMPDEST SWAP2 POP PUSH2 0x4929 DUP3 PUSH2 0x48EA JUMP JUMPDEST PUSH1 0x20 DUP3 ADD SWAP1 POP SWAP2 SWAP1 POP JUMP JUMPDEST PUSH0 PUSH1 0x20 DUP3 ADD SWAP1 POP DUP2 DUP2 SUB PUSH0 DUP4 ADD MSTORE PUSH2 0x494B DUP2 PUSH2 0x4912 JUMP JUMPDEST SWAP1 POP SWAP2 SWAP1 POP JUMP JUMPDEST PUSH0 PUSH2 0x495C DUP3 PUSH2 0x3DB3 JUMP JUMPDEST SWAP2 POP PUSH2 0x4967 DUP4 PUSH2 0x3DB3 JUMP JUMPDEST SWAP3 POP DUP3 DUP3 MUL PUSH2 0x4975 DUP2 PUSH2 0x3DB3 JUMP JUMPDEST SWAP2 POP DUP3 DUP3 DIV DUP5 EQ DUP4 ISZERO OR PUSH2 0x498C JUMPI PUSH2 0x498B PUSH2 0x46A3 JUMP JUMPDEST JUMPDEST POP SWAP3 SWAP2 POP POP JUMP JUMPDEST PUSH32 0x4E487B7100000000000000000000000000000000000000000000000000000000 PUSH0 MSTORE PUSH1 0x12 PUSH1 0x4 MSTORE PUSH1 0x24 PUSH0 REVERT JUMPDEST PUSH0 PUSH2 0x49CA DUP3 PUSH2 0x3DB3 JUMP JUMPDEST SWAP2 POP PUSH2 0x49D5 DUP4 PUSH2 0x3DB3 JUMP JUMPDEST SWAP3 POP DUP3 PUSH2 0x49E5 JUMPI PUSH2 0x49E4 PUSH2 0x4993 JUMP JUMPDEST JUMPDEST DUP3 DUP3 DIV SWAP1 POP SWAP3 SWAP2 POP POP JUMP JUMPDEST PUSH32 0x4E487B7100000000000000000000000000000000000000000000000000000000 PUSH0 MSTORE PUSH1 0x41 PUSH1 0x4 MSTORE PUSH1 0x24 PUSH0 REVERT JUMPDEST PUSH0 PUSH2 0x4A27 DUP3 PUSH2 0x3DB3 JUMP JUMPDEST SWAP2 POP PUSH2 0x4A32 DUP4 PUSH2 0x3DB3 JUMP JUMPDEST SWAP3 POP DUP3 DUP3 SUB SWAP1 POP DUP2 DUP2 GT ISZERO PUSH2 0x4A4A JUMPI PUSH2 0x4A49 PUSH2 0x46A3 JUMP JUMPDEST JUMPDEST SWAP3 SWAP2 POP POP JUMP JUMPDEST PUSH32 0x436F6E747261637420697320696E697469616C697A656420616C726561647900 PUSH0 DUP3 ADD MSTORE POP JUMP JUMPDEST PUSH0 PUSH2 0x4A84 PUSH1 0x1F DUP4 PUSH2 0x44F3 JUMP JUMPDEST SWAP2 POP PUSH2 0x4A8F DUP3 PUSH2 0x4A50 JUMP JUMPDEST PUSH1 0x20 DUP3 ADD SWAP1 POP SWAP2 SWAP1 POP JUMP JUMPDEST PUSH0 PUSH1 0x20 DUP3 ADD SWAP1 POP DUP2 DUP2 SUB PUSH0 DUP4 ADD MSTORE PUSH2 0x4AB1 DUP2 PUSH2 0x4A78 JUMP JUMPDEST SWAP1 POP SWAP2 SWAP1 POP JUMP JUMPDEST PUSH0 PUSH1 0x60 DUP3 ADD SWAP1 POP PUSH2 0x4ACB PUSH0 DUP4 ADD DUP7 PUSH2 0x3E24 JUMP JUMPDEST PUSH2 0x4AD8 PUSH1 0x20 DUP4 ADD DUP6 PUSH2 0x3E24 JUMP JUMPDEST PUSH2 0x4AE5 PUSH1 0x40 DUP4 ADD DUP5 PUSH2 0x3E24 JUMP JUMPDEST SWAP5 SWAP4 POP POP POP POP JUMP JUMPDEST PUSH32 0x5573657220686173206E6F742070617274696369706174656420696E20746865 PUSH0 DUP3 ADD MSTORE PUSH32 0x2065706F63680000000000000000000000000000000000000000000000000000 PUSH1 0x20 DUP3 ADD MSTORE POP JUMP JUMPDEST PUSH0 PUSH2 0x4B47 PUSH1 0x26 DUP4 PUSH2 0x44F3 JUMP JUMPDEST SWAP2 POP PUSH2 0x4B52 DUP3 PUSH2 0x4AED JUMP JUMPDEST PUSH1 0x40 DUP3 ADD SWAP1 POP SWAP2 SWAP1 POP JUMP JUMPDEST PUSH0 PUSH1 0x20 DUP3 ADD SWAP1 POP DUP2 DUP2 SUB PUSH0 DUP4 ADD MSTORE PUSH2 0x4B74 DUP2 PUSH2 0x4B3B JUMP JUMPDEST SWAP1 POP SWAP2 SWAP1 POP JUMP JUMPDEST PUSH0 DUP2 PUSH1 0x1 SHR SWAP1 POP SWAP2 SWAP1 POP JUMP JUMPDEST PUSH0 DUP1 DUP3 SWAP2 POP DUP4 SWAP1 POP JUMPDEST PUSH1 0x1 DUP6 GT ISZERO PUSH2 0x4BD0 JUMPI DUP1 DUP7 DIV DUP2 GT ISZERO PUSH2 0x4BAC JUMPI PUSH2 0x4BAB PUSH2 0x46A3 JUMP JUMPDEST JUMPDEST PUSH1 0x1 DUP6 AND ISZERO PUSH2 0x4BBB JUMPI DUP1 DUP3 MUL SWAP2 POP JUMPDEST DUP1 DUP2 MUL SWAP1 POP PUSH2 0x4BC9 DUP6 PUSH2 0x4B7B JUMP JUMPDEST SWAP5 POP PUSH2 0x4B90 JUMP JUMPDEST SWAP5 POP SWAP5 SWAP3 POP POP POP JUMP JUMPDEST PUSH0 DUP3 PUSH2 0x4BE8 JUMPI PUSH1 0x1 SWAP1 POP PUSH2 0x4CA3 JUMP JUMPDEST DUP2 PUSH2 0x4BF5 JUMPI PUSH0 SWAP1 POP PUSH2 0x4CA3 JUMP JUMPDEST DUP2 PUSH1 0x1 DUP2 EQ PUSH2 0x4C0B JUMPI PUSH1 0x2 DUP2 EQ PUSH2 0x4C15 JUMPI PUSH2 0x4C44 JUMP JUMPDEST PUSH1 0x1 SWAP2 POP POP PUSH2 0x4CA3 JUMP JUMPDEST PUSH1 0xFF DUP5 GT ISZERO PUSH2 0x4C27 JUMPI PUSH2 0x4C26 PUSH2 0x46A3 JUMP JUMPDEST JUMPDEST DUP4 PUSH1 0x2 EXP SWAP2 POP DUP5 DUP3 GT ISZERO PUSH2 0x4C3E JUMPI PUSH2 0x4C3D PUSH2 0x46A3 JUMP JUMPDEST JUMPDEST POP PUSH2 0x4CA3 JUMP JUMPDEST POP PUSH1 0x20 DUP4 LT PUSH2 0x133 DUP4 LT AND PUSH1 0x4E DUP5 LT PUSH1 0xB DUP5 LT AND OR ISZERO PUSH2 0x4C79 JUMPI DUP3 DUP3 EXP SWAP1 POP DUP4 DUP2 GT ISZERO PUSH2 0x4C74 JUMPI PUSH2 0x4C73 PUSH2 0x46A3 JUMP JUMPDEST JUMPDEST PUSH2 0x4CA3 JUMP JUMPDEST PUSH2 0x4C86 DUP5 DUP5 DUP5 PUSH1 0x1 PUSH2 0x4B87 JUMP JUMPDEST SWAP3 POP SWAP1 POP DUP2 DUP5 DIV DUP2 GT ISZERO PUSH2 0x4C9D JUMPI PUSH2 0x4C9C PUSH2 0x46A3 JUMP JUMPDEST JUMPDEST DUP2 DUP2 MUL SWAP1 POP JUMPDEST SWAP4 SWAP3 POP POP POP JUMP JUMPDEST PUSH0 PUSH2 0x4CB4 DUP3 PUSH2 0x3DB3 JUMP JUMPDEST SWAP2 POP PUSH2 0x4CBF DUP4 PUSH2 0x3DB3 JUMP JUMPDEST SWAP3 POP PUSH2 0x4CEC PUSH32 0xFFFFFFFFFFFFFFFFFFFFFFFFFFFFFFFFFFFFFFFFFFFFFFFFFFFFFFFFFFFFFFFF DUP5 DUP5 PUSH2 0x4BD9 JUMP JUMPDEST SWAP1 POP SWAP3 SWAP2 POP POP JUMP JUMPDEST PUSH32 0x496E76616C696420616D6F756E74000000000000000000000000000000000000 PUSH0 DUP3 ADD MSTORE POP JUMP JUMPDEST PUSH0 PUSH2 0x4D28 PUSH1 0xE DUP4 PUSH2 0x44F3 JUMP JUMPDEST SWAP2 POP PUSH2 0x4D33 DUP3 PUSH2 0x4CF4 JUMP JUMPDEST PUSH1 0x20 DUP3 ADD SWAP1 POP SWAP2 SWAP1 POP JUMP JUMPDEST PUSH0 PUSH1 0x20 DUP3 ADD SWAP1 POP DUP2 DUP2 SUB PUSH0 DUP4 ADD MSTORE PUSH2 0x4D55 DUP2 PUSH2 0x4D1C JUMP JUMPDEST SWAP1 POP SWAP2 SWAP1 POP JUMP JUMPDEST PUSH0 DUP2 MLOAD SWAP1 POP PUSH2 0x4D6A DUP2 PUSH2 0x3EFD JUMP JUMPDEST SWAP3 SWAP2 POP POP JUMP JUMPDEST PUSH0 PUSH1 0x20 DUP3 DUP5 SUB SLT ISZERO PUSH2 0x4D85 JUMPI PUSH2 0x4D84 PUSH2 0x3E4C JUMP JUMPDEST JUMPDEST PUSH0 PUSH2 0x4D92 DUP5 DUP3 DUP6 ADD PUSH2 0x4D5C JUMP JUMPDEST SWAP2 POP POP SWAP3 SWAP2 POP POP JUMP JUMPDEST PUSH32 0x436F756C646E27742077697468647261772066726F6D2041706520506F6F6C00 PUSH0 DUP3 ADD MSTORE POP JUMP JUMPDEST PUSH0 PUSH2 0x4DCF PUSH1 0x1F DUP4 PUSH2 0x44F3 JUMP JUMPDEST SWAP2 POP PUSH2 0x4DDA DUP3 PUSH2 0x4D9B JUMP JUMPDEST PUSH1 0x20 DUP3 ADD SWAP1 POP SWAP2 SWAP1 POP JUMP JUMPDEST PUSH0 PUSH1 0x20 DUP3 ADD SWAP1 POP DUP2 DUP2 SUB PUSH0 DUP4 ADD MSTORE PUSH2 0x4DFC DUP2 PUSH2 0x4DC3 JUMP JUMPDEST SWAP1 POP SWAP2 SWAP1 POP JUMP JUMPDEST PUSH0 PUSH1 0x40 DUP3 ADD SWAP1 POP PUSH2 0x4E16 PUSH0 DUP4 ADD DUP6 PUSH2 0x3ED5 JUMP JUMPDEST PUSH2 0x4E23 PUSH1 0x20 DUP4 ADD DUP5 PUSH2 0x3E24 JUMP JUMPDEST SWAP4 SWAP3 POP POP POP JUMP JUMPDEST PUSH2 0x4E33 DUP2 PUSH2 0x3F61 JUMP JUMPDEST DUP2 EQ PUSH2 0x4E3D JUMPI PUSH0 DUP1 REVERT JUMPDEST POP JUMP JUMPDEST PUSH0 DUP2 MLOAD SWAP1 POP PUSH2 0x4E4E DUP2 PUSH2 0x4E2A JUMP JUMPDEST SWAP3 SWAP2 POP POP JUMP JUMPDEST PUSH0 PUSH1 0x20 DUP3 DUP5 SUB SLT ISZERO PUSH2 0x4E69 JUMPI PUSH2 0x4E68 PUSH2 0x3E4C JUMP JUMPDEST JUMPDEST PUSH0 PUSH2 0x4E76 DUP5 DUP3 DUP6 ADD PUSH2 0x4E40 JUMP JUMPDEST SWAP2 POP POP SWAP3 SWAP2 POP POP JUMP JUMPDEST PUSH0 PUSH1 0x60 DUP3 ADD SWAP1 POP PUSH2 0x4E92 PUSH0 DUP4 ADD DUP7 PUSH2 0x3ED5 JUMP JUMPDEST PUSH2 0x4E9F PUSH1 0x20 DUP4 ADD DUP6 PUSH2 0x3ED5 JUMP JUMPDEST PUSH2 0x4EAC PUSH1 0x40 DUP4 ADD DUP5 PUSH2 0x3E24 JUMP JUMPDEST SWAP5 SWAP4 POP POP POP POP JUMP JUMPDEST PUSH32 0x55736572206E6F74207265676973746572656400000000000000000000000000 PUSH0 DUP3 ADD MSTORE POP JUMP JUMPDEST PUSH0 PUSH2 0x4EE8 PUSH1 0x13 DUP4 PUSH2 0x44F3 JUMP JUMPDEST SWAP2 POP PUSH2 0x4EF3 DUP3 PUSH2 0x4EB4 JUMP JUMPDEST PUSH1 0x20 DUP3 ADD SWAP1 POP SWAP2 SWAP1 POP JUMP JUMPDEST PUSH0 PUSH1 0x20 DUP3 ADD SWAP1 POP DUP2 DUP2 SUB PUSH0 DUP4 ADD MSTORE PUSH2 0x4F15 DUP2 PUSH2 0x4EDC JUMP JUMPDEST SWAP1 POP SWAP2 SWAP1 POP JUMP INVALID LOG2 PUSH5 0x6970667358 0x22 SLT KECCAK256 0xC9 SAR 0xB8 0xF6 DUP16 CALL 0x4C 0xA7 GASLIMIT MOD CALLER 0xC 0xC8 0xBD EXTCODECOPY SSTORE PUSH17 0xB91DAA361962D869ABDDF4D16549F96473 PUSH16 0x6C634300081500330000000000000000 "
		},
		"gasEstimates": {
			"creation": {
				"codeDepositCost": "4061200",
				"executionCost": "4646",
				"totalCost": "4065846"
			},
			"external": {
				"changeRegistryContractAddr(address)": "infinite",
				"claimRewardFromPool()": "infinite",
				"claimRewardsFor(address)": "infinite",
				"createNewEpoch()": "infinite",
				"depositFor(address,uint256)": "infinite",
				"finalizeEpoch(uint256,address,address,address,uint256)": "infinite",
				"finalizeEpochTicketandParticipantInfo(uint256)": "infinite",
				"getAccumulatedTicketwithoutDecimal(uint256,address)": "infinite",
				"getBalanceChangeHistory(address,uint256)": "infinite",
				"getClaimable(address)": "2959",
				"getCurrentEpochReward()": "447",
				"getEpochInfo(uint256)": "infinite",
				"getEpochLength()": "2520",
				"getLatestEpoch()": "infinite",
				"getPoolTVL()": "2535",
				"getRewardAllocationPercentage()": "infinite",
				"getTicketAmount(uint256,address)": "infinite",
				"getTokenUsing()": "2561",
				"getUserAmount()": "2514",
				"getUserDepositInfo(address)": "infinite",
				"getUserID(address)": "2933",
				"getWinningHistory(address)": "infinite",
				"getuserByID(uint256)": "2915",
				"initialize(address)": "51368",
				"setEpochDuration(uint256)": "infinite",
				"setMinAmounttoDeposit(uint256)": "infinite",
				"setRewardRatio(uint256,uint256,uint256,uint256)": "infinite",
				"setStakePoolAddress(address)": "infinite",
				"setTicketDecimal(uint256)": "infinite",
				"setToken(address)": "infinite",
				"withdrawFor(address,uint256)": "infinite"
			},
			"internal": {
				"_approveToStakePool(uint256)": "infinite",
				"_proceedUpdate(uint256,uint256,bool)": "infinite",
				"_transferRegistryAddr(address)": "24277",
				"_updateAccumulatedTicket(uint256,uint256,uint256,uint256)": "infinite",
				"_updateBalanceChange(uint256,uint256,uint256,uint256)": "infinite",
				"getTokenFromMsgsender(uint256)": "infinite",
				"registerNewUser(address)": "infinite",
				"sendTokenToMsgsender(uint256)": "infinite",
				"setClaimableRewards(uint256,address[] memory,uint256[] memory)": "infinite",
				"sumUptotalParticipant(uint256,uint256)": "infinite",
				"updateUserInfo(address,uint256,bool)": "infinite"
			}
		},
		"methodIdentifiers": {
			"changeRegistryContractAddr(address)": "fa7c828a",
			"claimRewardFromPool()": "1e46baf7",
			"claimRewardsFor(address)": "1ac6d19d",
			"createNewEpoch()": "ec20c2e5",
			"depositFor(address,uint256)": "2f4f21e2",
			"finalizeEpoch(uint256,address,address,address,uint256)": "a3058071",
			"finalizeEpochTicketandParticipantInfo(uint256)": "2c26eb46",
			"getAccumulatedTicketwithoutDecimal(uint256,address)": "a3fb7050",
			"getBalanceChangeHistory(address,uint256)": "858c7585",
			"getClaimable(address)": "a583024b",
			"getCurrentEpochReward()": "fd2324de",
			"getEpochInfo(uint256)": "135022c2",
			"getEpochLength()": "cfe8a73b",
			"getLatestEpoch()": "a3d74f06",
			"getPoolTVL()": "26be90bf",
			"getRewardAllocationPercentage()": "039da66e",
			"getTicketAmount(uint256,address)": "d474fbf7",
			"getTokenUsing()": "0fce03b9",
			"getUserAmount()": "095d0c94",
			"getUserDepositInfo(address)": "b3a7834d",
			"getUserID(address)": "0ef12aa9",
			"getWinningHistory(address)": "18703da5",
			"getuserByID(uint256)": "ca6d83df",
			"initialize(address)": "c4d66de8",
			"setEpochDuration(uint256)": "30024dfe",
			"setMinAmounttoDeposit(uint256)": "fad8a559",
			"setRewardRatio(uint256,uint256,uint256,uint256)": "c51475b9",
			"setStakePoolAddress(address)": "ad954e1a",
			"setTicketDecimal(uint256)": "2d6552b3",
			"setToken(address)": "144fa6d7",
			"withdrawFor(address,uint256)": "db518db2"
		}
	},
	"abi": [
		{
			"anonymous": false,
			"inputs": [
				{
					"indexed": false,
					"internalType": "address",
					"name": "oldController",
					"type": "address"
				},
				{
					"indexed": false,
					"internalType": "address",
					"name": "newController",
					"type": "address"
				}
			],
			"name": "ControllerRoleTransferred",
			"type": "event"
		},
		{
			"anonymous": false,
			"inputs": [
				{
					"indexed": false,
					"internalType": "address",
					"name": "oldOwner",
					"type": "address"
				},
				{
					"indexed": false,
					"internalType": "address",
					"name": "newOwner",
					"type": "address"
				}
			],
			"name": "OwnershipTransferred",
			"type": "event"
		},
		{
			"anonymous": false,
			"inputs": [
				{
					"indexed": false,
					"internalType": "address",
					"name": "oldRouter",
					"type": "address"
				},
				{
					"indexed": false,
					"internalType": "address",
					"name": "newRouter",
					"type": "address"
				}
			],
			"name": "changedRouter",
			"type": "event"
		},
		{
			"anonymous": false,
			"inputs": [
				{
					"indexed": false,
					"internalType": "uint256",
					"name": "first",
					"type": "uint256"
				},
				{
					"indexed": false,
					"internalType": "uint256",
					"name": "second",
					"type": "uint256"
				},
				{
					"indexed": false,
					"internalType": "uint256",
					"name": "third",
					"type": "uint256"
				}
			],
			"name": "rewardPortionUpdated",
			"type": "event"
		},
		{
			"inputs": [
				{
					"internalType": "address",
					"name": "registryAddress",
					"type": "address"
				}
			],
			"name": "changeRegistryContractAddr",
			"outputs": [],
			"stateMutability": "nonpayable",
			"type": "function"
		},
		{
			"inputs": [],
			"name": "claimRewardFromPool",
			"outputs": [
				{
					"internalType": "uint256",
					"name": "",
					"type": "uint256"
				}
			],
			"stateMutability": "nonpayable",
			"type": "function"
		},
		{
			"inputs": [
				{
					"internalType": "address",
					"name": "user",
					"type": "address"
				}
			],
			"name": "claimRewardsFor",
			"outputs": [
				{
					"internalType": "uint256",
					"name": "",
					"type": "uint256"
				}
			],
			"stateMutability": "nonpayable",
			"type": "function"
		},
		{
			"inputs": [],
			"name": "createNewEpoch",
			"outputs": [],
			"stateMutability": "nonpayable",
			"type": "function"
		},
		{
			"inputs": [
				{
					"internalType": "address",
					"name": "user",
					"type": "address"
				},
				{
					"internalType": "uint256",
					"name": "amount",
					"type": "uint256"
				}
			],
			"name": "depositFor",
			"outputs": [],
			"stateMutability": "nonpayable",
			"type": "function"
		},
		{
			"inputs": [
				{
					"internalType": "uint256",
					"name": "epochNumber",
					"type": "uint256"
				},
				{
					"internalType": "address",
					"name": "firstWinner",
					"type": "address"
				},
				{
					"internalType": "address",
					"name": "secondWinner",
					"type": "address"
				},
				{
					"internalType": "address",
					"name": "thirdWinner",
					"type": "address"
				},
				{
					"internalType": "uint256",
					"name": "totalPrize",
					"type": "uint256"
				}
			],
			"name": "finalizeEpoch",
			"outputs": [],
			"stateMutability": "nonpayable",
			"type": "function"
		},
		{
			"inputs": [
				{
					"internalType": "uint256",
					"name": "epochNumber",
					"type": "uint256"
				}
			],
			"name": "finalizeEpochTicketandParticipantInfo",
			"outputs": [],
			"stateMutability": "nonpayable",
			"type": "function"
		},
		{
			"inputs": [
				{
					"internalType": "uint256",
					"name": "epochNumber",
					"type": "uint256"
				},
				{
					"internalType": "address",
					"name": "user",
					"type": "address"
				}
			],
			"name": "getAccumulatedTicketwithoutDecimal",
			"outputs": [
				{
					"internalType": "uint256",
					"name": "",
					"type": "uint256"
				}
			],
			"stateMutability": "view",
			"type": "function"
		},
		{
			"inputs": [
				{
					"internalType": "address",
					"name": "user",
					"type": "address"
				},
				{
					"internalType": "uint256",
					"name": "epochNumber",
					"type": "uint256"
				}
			],
			"name": "getBalanceChangeHistory",
			"outputs": [
				{
					"components": [
						{
							"internalType": "bool",
							"name": "changedwithinEpoch",
							"type": "bool"
						},
						{
							"components": [
								{
									"internalType": "uint256",
									"name": "oldAmount",
									"type": "uint256"
								},
								{
									"internalType": "uint256",
									"name": "newAmount",
									"type": "uint256"
								},
								{
									"internalType": "uint256",
									"name": "updatedBlock",
									"type": "uint256"
								}
							],
							"internalType": "struct stETHP.ChangeArray[]",
							"name": "historyArray",
							"type": "tuple[]"
						}
					],
					"internalType": "struct stETHP.userChangeHistory",
					"name": "",
					"type": "tuple"
				}
			],
			"stateMutability": "view",
			"type": "function"
		},
		{
			"inputs": [
				{
					"internalType": "address",
					"name": "user",
					"type": "address"
				}
			],
			"name": "getClaimable",
			"outputs": [
				{
					"internalType": "uint256",
					"name": "",
					"type": "uint256"
				}
			],
			"stateMutability": "view",
			"type": "function"
		},
		{
			"inputs": [],
			"name": "getCurrentEpochReward",
			"outputs": [
				{
					"internalType": "uint256",
					"name": "",
					"type": "uint256"
				}
			],
			"stateMutability": "view",
			"type": "function"
		},
		{
			"inputs": [
				{
					"internalType": "uint256",
					"name": "epochNumber",
					"type": "uint256"
				}
			],
			"name": "getEpochInfo",
			"outputs": [
				{
					"components": [
						{
							"components": [
								{
									"internalType": "address",
									"name": "winner",
									"type": "address"
								},
								{
									"internalType": "uint256",
									"name": "prizeAmount",
									"type": "uint256"
								},
								{
									"internalType": "bool",
									"name": "claimed",
									"type": "bool"
								}
							],
							"internalType": "struct stETHP.PrizeDetails",
							"name": "first",
							"type": "tuple"
						},
						{
							"components": [
								{
									"internalType": "address",
									"name": "winner",
									"type": "address"
								},
								{
									"internalType": "uint256",
									"name": "prizeAmount",
									"type": "uint256"
								},
								{
									"internalType": "bool",
									"name": "claimed",
									"type": "bool"
								}
							],
							"internalType": "struct stETHP.PrizeDetails",
							"name": "second",
							"type": "tuple"
						},
						{
							"components": [
								{
									"internalType": "address",
									"name": "winner",
									"type": "address"
								},
								{
									"internalType": "uint256",
									"name": "prizeAmount",
									"type": "uint256"
								},
								{
									"internalType": "bool",
									"name": "claimed",
									"type": "bool"
								}
							],
							"internalType": "struct stETHP.PrizeDetails",
							"name": "third",
							"type": "tuple"
						},
						{
							"internalType": "bool",
							"name": "finalized",
							"type": "bool"
						},
						{
							"internalType": "uint256",
							"name": "totalPrize",
							"type": "uint256"
						},
						{
							"internalType": "uint256",
							"name": "duration",
							"type": "uint256"
						},
						{
							"internalType": "uint256",
							"name": "createdTimeStamp",
							"type": "uint256"
						},
						{
							"internalType": "uint256",
							"name": "totalParticipant",
							"type": "uint256"
						}
					],
					"internalType": "struct stETHP.EpochResult",
					"name": "",
					"type": "tuple"
				}
			],
			"stateMutability": "view",
			"type": "function"
		},
		{
			"inputs": [],
			"name": "getEpochLength",
			"outputs": [
				{
					"internalType": "uint256",
					"name": "",
					"type": "uint256"
				}
			],
			"stateMutability": "view",
			"type": "function"
		},
		{
			"inputs": [],
			"name": "getLatestEpoch",
			"outputs": [
				{
					"internalType": "uint256",
					"name": "",
					"type": "uint256"
				}
			],
			"stateMutability": "view",
			"type": "function"
		},
		{
			"inputs": [],
			"name": "getPoolTVL",
			"outputs": [
				{
					"internalType": "uint256",
					"name": "",
					"type": "uint256"
				}
			],
			"stateMutability": "view",
			"type": "function"
		},
		{
			"inputs": [],
			"name": "getRewardAllocationPercentage",
			"outputs": [
				{
					"components": [
						{
							"internalType": "uint256",
							"name": "first",
							"type": "uint256"
						},
						{
							"internalType": "uint256",
							"name": "second",
							"type": "uint256"
						},
						{
							"internalType": "uint256",
							"name": "third",
							"type": "uint256"
						}
					],
					"internalType": "struct stETHP.rewardAllocation",
					"name": "",
					"type": "tuple"
				}
			],
			"stateMutability": "view",
			"type": "function"
		},
		{
			"inputs": [
				{
					"internalType": "uint256",
					"name": "epochNumber",
					"type": "uint256"
				},
				{
					"internalType": "address",
					"name": "user",
					"type": "address"
				}
			],
			"name": "getTicketAmount",
			"outputs": [
				{
					"internalType": "uint256",
					"name": "",
					"type": "uint256"
				}
			],
			"stateMutability": "view",
			"type": "function"
		},
		{
			"inputs": [],
			"name": "getTokenUsing",
			"outputs": [
				{
					"internalType": "address",
					"name": "",
					"type": "address"
				}
			],
			"stateMutability": "view",
			"type": "function"
		},
		{
			"inputs": [],
			"name": "getUserAmount",
			"outputs": [
				{
					"internalType": "uint256",
					"name": "",
					"type": "uint256"
				}
			],
			"stateMutability": "view",
			"type": "function"
		},
		{
			"inputs": [
				{
					"internalType": "address",
					"name": "user",
					"type": "address"
				}
			],
			"name": "getUserDepositInfo",
			"outputs": [
				{
					"components": [
						{
							"internalType": "address",
							"name": "userAddress",
							"type": "address"
						},
						{
							"internalType": "uint256",
							"name": "DepositAmount",
							"type": "uint256"
						},
						{
							"internalType": "uint256",
							"name": "registeredDate",
							"type": "uint256"
						},
						{
							"internalType": "uint256",
							"name": "Lastupdated",
							"type": "uint256"
						}
					],
					"internalType": "struct stETHP.userInfo",
					"name": "",
					"type": "tuple"
				}
			],
			"stateMutability": "view",
			"type": "function"
		},
		{
			"inputs": [
				{
					"internalType": "address",
					"name": "user",
					"type": "address"
				}
			],
			"name": "getUserID",
			"outputs": [
				{
					"internalType": "uint256",
					"name": "",
					"type": "uint256"
				}
			],
			"stateMutability": "view",
			"type": "function"
		},
		{
			"inputs": [
				{
					"internalType": "address",
					"name": "user",
					"type": "address"
				}
			],
			"name": "getWinningHistory",
			"outputs": [
				{
					"components": [
						{
							"internalType": "uint256",
							"name": "EpochNumber",
							"type": "uint256"
						},
						{
							"internalType": "uint256",
							"name": "position",
							"type": "uint256"
						},
						{
							"internalType": "uint256",
							"name": "PrizeAmount",
							"type": "uint256"
						}
					],
					"internalType": "struct stETHP.rewardHistory[]",
					"name": "",
					"type": "tuple[]"
				}
			],
			"stateMutability": "view",
			"type": "function"
		},
		{
			"inputs": [
				{
					"internalType": "uint256",
					"name": "userID",
					"type": "uint256"
				}
			],
			"name": "getuserByID",
			"outputs": [
				{
					"internalType": "address",
					"name": "",
					"type": "address"
				}
			],
			"stateMutability": "view",
			"type": "function"
		},
		{
			"inputs": [
				{
					"internalType": "address",
					"name": "registryAddress",
					"type": "address"
				}
			],
			"name": "initialize",
			"outputs": [],
			"stateMutability": "nonpayable",
			"type": "function"
		},
		{
			"inputs": [
				{
					"internalType": "uint256",
					"name": "duration",
					"type": "uint256"
				}
			],
			"name": "setEpochDuration",
			"outputs": [],
			"stateMutability": "nonpayable",
			"type": "function"
		},
		{
			"inputs": [
				{
					"internalType": "uint256",
					"name": "amount",
					"type": "uint256"
				}
			],
			"name": "setMinAmounttoDeposit",
			"outputs": [],
			"stateMutability": "nonpayable",
			"type": "function"
		},
		{
			"inputs": [
				{
					"internalType": "uint256",
					"name": "firstP",
					"type": "uint256"
				},
				{
					"internalType": "uint256",
					"name": "secondP",
					"type": "uint256"
				},
				{
					"internalType": "uint256",
					"name": "thirdP",
					"type": "uint256"
				},
				{
					"internalType": "uint256",
					"name": "percentageSUM",
					"type": "uint256"
				}
			],
			"name": "setRewardRatio",
			"outputs": [],
			"stateMutability": "nonpayable",
			"type": "function"
		},
		{
			"inputs": [
				{
					"internalType": "address",
					"name": "StakePoolAdd",
					"type": "address"
				}
			],
			"name": "setStakePoolAddress",
			"outputs": [],
			"stateMutability": "nonpayable",
			"type": "function"
		},
		{
			"inputs": [
				{
					"internalType": "uint256",
					"name": "decimal",
					"type": "uint256"
				}
			],
			"name": "setTicketDecimal",
			"outputs": [],
			"stateMutability": "nonpayable",
			"type": "function"
		},
		{
			"inputs": [
				{
					"internalType": "address",
					"name": "token",
					"type": "address"
				}
			],
			"name": "setToken",
			"outputs": [],
			"stateMutability": "nonpayable",
			"type": "function"
		},
		{
			"inputs": [
				{
					"internalType": "address",
					"name": "user",
					"type": "address"
				},
				{
					"internalType": "uint256",
					"name": "amount",
					"type": "uint256"
				}
			],
			"name": "withdrawFor",
			"outputs": [],
			"stateMutability": "nonpayable",
			"type": "function"
		}
	]
}